{
  "_format": "hh-sol-artifact-1",
  "contractName": "KlerosBadgeModelController",
  "sourceName": "src/contracts/badgeModelControllers/KlerosBadgeModelController.sol",
  "abi": [
    {
      "inputs": [],
      "stateMutability": "nonpayable",
      "type": "constructor"
    },
    {
      "inputs": [],
      "name": "AccessControlBadConfirmation",
      "type": "error"
    },
    {
      "inputs": [
        {
          "internalType": "address",
          "name": "account",
          "type": "address"
        },
        {
          "internalType": "bytes32",
          "name": "neededRole",
          "type": "bytes32"
        }
      ],
      "name": "AccessControlUnauthorizedAccount",
      "type": "error"
    },
    {
      "inputs": [
        {
          "internalType": "address",
          "name": "target",
          "type": "address"
        }
      ],
      "name": "AddressEmptyCode",
      "type": "error"
    },
    {
      "inputs": [
        {
          "internalType": "address",
          "name": "implementation",
          "type": "address"
        }
      ],
      "name": "ERC1967InvalidImplementation",
      "type": "error"
    },
    {
      "inputs": [],
      "name": "ERC1967NonPayable",
      "type": "error"
    },
    {
      "inputs": [],
      "name": "FailedInnerCall",
      "type": "error"
    },
    {
      "inputs": [],
      "name": "InvalidInitialization",
      "type": "error"
    },
    {
      "inputs": [],
      "name": "KlerosBadgeModelController__badge__depositReturnFailed",
      "type": "error"
    },
    {
      "inputs": [],
      "name": "KlerosBadgeModelController__badge__klerosBadgeNotFound",
      "type": "error"
    },
    {
      "inputs": [],
      "name": "KlerosBadgeModelController__badge__notInChallengeableStatus",
      "type": "error"
    },
    {
      "inputs": [],
      "name": "KlerosBadgeModelController__badge__tcrKlerosBadgeNotFound",
      "type": "error"
    },
    {
      "inputs": [],
      "name": "KlerosBadgeModelController__claimBadge_insufficientBalance",
      "type": "error"
    },
    {
      "inputs": [],
      "name": "KlerosBadgeModelController__createBadgeModel_badgeModelAlreadyCreated",
      "type": "error"
    },
    {
      "inputs": [],
      "name": "KlerosBadgeModelController__mintBadge_wrongValue",
      "type": "error"
    },
    {
      "inputs": [],
      "name": "KlerosBadgeModelController__onlyTheBadge_senderNotTheBadge",
      "type": "error"
    },
    {
      "inputs": [],
      "name": "KlerosBadgeModelController__onlyTheBadge_senderNotTheBadgeModels",
      "type": "error"
    },
    {
      "inputs": [],
      "name": "KlerosBadgeModelController__onlyTheBadge_senderNotTheBadgeUsers",
      "type": "error"
    },
    {
      "inputs": [],
      "name": "KlerosBadgeModelController__user__userNotFound",
      "type": "error"
    },
    {
      "inputs": [],
      "name": "KlerosBadgeModelController__user__userVerificationAlreadyStarted",
      "type": "error"
    },
    {
      "inputs": [],
      "name": "KlerosBadgeModelController__user__userVerificationNotStarted",
      "type": "error"
    },
    {
      "inputs": [],
      "name": "NotInitializing",
      "type": "error"
    },
    {
      "inputs": [
        {
          "internalType": "address",
          "name": "owner",
          "type": "address"
        }
      ],
      "name": "OwnableInvalidOwner",
      "type": "error"
    },
    {
      "inputs": [
        {
          "internalType": "address",
          "name": "account",
          "type": "address"
        }
      ],
      "name": "OwnableUnauthorizedAccount",
      "type": "error"
    },
    {
      "inputs": [],
      "name": "ReentrancyGuardReentrantCall",
      "type": "error"
    },
    {
      "inputs": [],
      "name": "UUPSUnauthorizedCallContext",
      "type": "error"
    },
    {
      "inputs": [
        {
          "internalType": "bytes32",
          "name": "slot",
          "type": "bytes32"
        }
      ],
      "name": "UUPSUnsupportedProxiableUUID",
      "type": "error"
    },
    {
      "anonymous": false,
      "inputs": [
        {
          "indexed": true,
          "internalType": "address",
          "name": "recipient",
          "type": "address"
        },
        {
          "indexed": false,
          "internalType": "uint256",
          "name": "amount",
          "type": "uint256"
        },
        {
          "indexed": true,
          "internalType": "uint256",
          "name": "badgeId",
          "type": "uint256"
        }
      ],
      "name": "DepositReturned",
      "type": "event"
    },
    {
      "anonymous": false,
      "inputs": [
        {
          "indexed": true,
          "internalType": "address",
          "name": "admin",
          "type": "address"
        },
        {
          "indexed": true,
          "internalType": "address",
          "name": "tcrFactory",
          "type": "address"
        }
      ],
      "name": "Initialize",
      "type": "event"
    },
    {
      "anonymous": false,
      "inputs": [
        {
          "indexed": false,
          "internalType": "uint64",
          "name": "version",
          "type": "uint64"
        }
      ],
      "name": "Initialized",
      "type": "event"
    },
    {
      "anonymous": false,
      "inputs": [
        {
          "indexed": true,
          "internalType": "uint256",
          "name": "badgeId",
          "type": "uint256"
        },
        {
          "indexed": true,
          "internalType": "address",
          "name": "challenger",
          "type": "address"
        },
        {
          "indexed": false,
          "internalType": "string",
          "name": "evidence",
          "type": "string"
        }
      ],
      "name": "KlerosBadgeChallenged",
      "type": "event"
    },
    {
      "anonymous": false,
      "inputs": [
        {
          "indexed": true,
          "internalType": "uint256",
          "name": "badgeId",
          "type": "uint256"
        },
        {
          "indexed": true,
          "internalType": "address",
          "name": "challenger",
          "type": "address"
        },
        {
          "indexed": false,
          "internalType": "string",
          "name": "evidence",
          "type": "string"
        }
      ],
      "name": "KlerosChallengeEvidenceAdded",
      "type": "event"
    },
    {
      "anonymous": false,
      "inputs": [
        {
          "indexed": true,
          "internalType": "uint256",
          "name": "badgeId",
          "type": "uint256"
        },
        {
          "indexed": false,
          "internalType": "string",
          "name": "evidence",
          "type": "string"
        }
      ],
      "name": "MintKlerosBadge",
      "type": "event"
    },
    {
      "anonymous": false,
      "inputs": [
        {
          "indexed": true,
          "internalType": "uint256",
          "name": "badgeModelId",
          "type": "uint256"
        },
        {
          "indexed": true,
          "internalType": "address",
          "name": "tcrAddress",
          "type": "address"
        },
        {
          "indexed": false,
          "internalType": "string",
          "name": "registrationMetaEvidence",
          "type": "string"
        },
        {
          "indexed": false,
          "internalType": "string",
          "name": "clearingMetaEvidence",
          "type": "string"
        }
      ],
      "name": "NewKlerosBadgeModel",
      "type": "event"
    },
    {
      "anonymous": false,
      "inputs": [
        {
          "indexed": true,
          "internalType": "address",
          "name": "previousOwner",
          "type": "address"
        },
        {
          "indexed": true,
          "internalType": "address",
          "name": "newOwner",
          "type": "address"
        }
      ],
      "name": "OwnershipTransferred",
      "type": "event"
    },
    {
      "anonymous": false,
      "inputs": [],
      "name": "ProtocolSettingsUpdated",
      "type": "event"
    },
    {
      "anonymous": false,
      "inputs": [
        {
          "indexed": true,
          "internalType": "bytes32",
          "name": "role",
          "type": "bytes32"
        },
        {
          "indexed": true,
          "internalType": "bytes32",
          "name": "previousAdminRole",
          "type": "bytes32"
        },
        {
          "indexed": true,
          "internalType": "bytes32",
          "name": "newAdminRole",
          "type": "bytes32"
        }
      ],
      "name": "RoleAdminChanged",
      "type": "event"
    },
    {
      "anonymous": false,
      "inputs": [
        {
          "indexed": true,
          "internalType": "bytes32",
          "name": "role",
          "type": "bytes32"
        },
        {
          "indexed": true,
          "internalType": "address",
          "name": "account",
          "type": "address"
        },
        {
          "indexed": true,
          "internalType": "address",
          "name": "sender",
          "type": "address"
        }
      ],
      "name": "RoleGranted",
      "type": "event"
    },
    {
      "anonymous": false,
      "inputs": [
        {
          "indexed": true,
          "internalType": "bytes32",
          "name": "role",
          "type": "bytes32"
        },
        {
          "indexed": true,
          "internalType": "address",
          "name": "account",
          "type": "address"
        },
        {
          "indexed": true,
          "internalType": "address",
          "name": "sender",
          "type": "address"
        }
      ],
      "name": "RoleRevoked",
      "type": "event"
    },
    {
      "anonymous": false,
      "inputs": [
        {
          "indexed": true,
          "internalType": "address",
          "name": "implementation",
          "type": "address"
        }
      ],
      "name": "Upgraded",
      "type": "event"
    },
    {
      "inputs": [],
      "name": "CLAIMER_ROLE",
      "outputs": [
        {
          "internalType": "bytes32",
          "name": "",
          "type": "bytes32"
        }
      ],
      "stateMutability": "view",
      "type": "function"
    },
    {
      "inputs": [],
      "name": "DEFAULT_ADMIN_ROLE",
      "outputs": [
        {
          "internalType": "bytes32",
          "name": "",
          "type": "bytes32"
        }
      ],
      "stateMutability": "view",
      "type": "function"
    },
    {
      "inputs": [],
      "name": "PAUSER_ROLE",
      "outputs": [
        {
          "internalType": "bytes32",
          "name": "",
          "type": "bytes32"
        }
      ],
      "stateMutability": "view",
      "type": "function"
    },
    {
      "inputs": [],
      "name": "UPGRADER_ROLE",
      "outputs": [
        {
          "internalType": "bytes32",
          "name": "",
          "type": "bytes32"
        }
      ],
      "stateMutability": "view",
      "type": "function"
    },
    {
      "inputs": [],
      "name": "UPGRADE_INTERFACE_VERSION",
      "outputs": [
        {
          "internalType": "string",
          "name": "",
          "type": "string"
        }
      ],
      "stateMutability": "view",
      "type": "function"
    },
    {
      "inputs": [],
      "name": "URI_SETTER_ROLE",
      "outputs": [
        {
          "internalType": "bytes32",
          "name": "",
          "type": "bytes32"
        }
      ],
      "stateMutability": "view",
      "type": "function"
    },
    {
      "inputs": [],
      "name": "USER_MANAGER_ROLE",
      "outputs": [
        {
          "internalType": "bytes32",
          "name": "",
          "type": "bytes32"
        }
      ],
      "stateMutability": "view",
      "type": "function"
    },
    {
      "inputs": [],
      "name": "VERIFIER_ROLE",
      "outputs": [
        {
          "internalType": "bytes32",
          "name": "",
          "type": "bytes32"
        }
      ],
      "stateMutability": "view",
      "type": "function"
    },
    {
      "inputs": [
        {
          "internalType": "uint256",
          "name": "badgeId",
          "type": "uint256"
        },
        {
          "internalType": "bytes",
          "name": "data",
          "type": "bytes"
        },
        {
          "internalType": "address",
          "name": "caller",
          "type": "address"
        }
      ],
      "name": "challenge",
      "outputs": [],
      "stateMutability": "payable",
      "type": "function"
    },
    {
      "inputs": [
        {
          "internalType": "uint256",
          "name": "badgeId",
          "type": "uint256"
        },
        {
          "internalType": "bytes",
          "name": "",
          "type": "bytes"
        },
        {
          "internalType": "address",
          "name": "",
          "type": "address"
        }
      ],
      "name": "claim",
      "outputs": [
        {
          "internalType": "address",
          "name": "",
          "type": "address"
        }
      ],
      "stateMutability": "nonpayable",
      "type": "function"
    },
    {
      "inputs": [
        {
          "internalType": "address",
          "name": "callee",
          "type": "address"
        },
        {
          "internalType": "uint256",
          "name": "badgeModelId",
          "type": "uint256"
        },
        {
          "internalType": "bytes",
          "name": "data",
          "type": "bytes"
        }
      ],
      "name": "createBadgeModel",
      "outputs": [],
      "stateMutability": "nonpayable",
      "type": "function"
    },
    {
      "inputs": [
        {
          "internalType": "address",
          "name": "_user",
          "type": "address"
        },
        {
          "internalType": "bool",
          "name": "verify",
          "type": "bool"
        }
      ],
      "name": "executeUserVerification",
      "outputs": [],
      "stateMutability": "nonpayable",
      "type": "function"
    },
    {
      "inputs": [
        {
          "internalType": "uint256",
          "name": "badgeId",
          "type": "uint256"
        }
      ],
      "name": "getChallengeDepositValue",
      "outputs": [
        {
          "internalType": "uint256",
          "name": "",
          "type": "uint256"
        }
      ],
      "stateMutability": "view",
      "type": "function"
    },
    {
      "inputs": [
        {
          "internalType": "uint256",
          "name": "badgeId",
          "type": "uint256"
        }
      ],
      "name": "getRemovalDepositValue",
      "outputs": [
        {
          "internalType": "uint256",
          "name": "",
          "type": "uint256"
        }
      ],
      "stateMutability": "view",
      "type": "function"
    },
    {
      "inputs": [
        {
          "internalType": "bytes32",
          "name": "role",
          "type": "bytes32"
        }
      ],
      "name": "getRoleAdmin",
      "outputs": [
        {
          "internalType": "bytes32",
          "name": "",
          "type": "bytes32"
        }
      ],
      "stateMutability": "view",
      "type": "function"
    },
    {
      "inputs": [],
      "name": "getVerifyUserProtocolFee",
      "outputs": [
        {
          "internalType": "uint256",
          "name": "",
          "type": "uint256"
        }
      ],
      "stateMutability": "view",
      "type": "function"
    },
    {
      "inputs": [
        {
          "internalType": "bytes32",
          "name": "role",
          "type": "bytes32"
        },
        {
          "internalType": "address",
          "name": "account",
          "type": "address"
        }
      ],
      "name": "grantRole",
      "outputs": [],
      "stateMutability": "nonpayable",
      "type": "function"
    },
    {
      "inputs": [
        {
          "internalType": "bytes32",
          "name": "role",
          "type": "bytes32"
        },
        {
          "internalType": "address",
          "name": "account",
          "type": "address"
        }
      ],
      "name": "hasRole",
      "outputs": [
        {
          "internalType": "bool",
          "name": "",
          "type": "bool"
        }
      ],
      "stateMutability": "view",
      "type": "function"
    },
    {
      "inputs": [
        {
          "internalType": "address",
          "name": "admin",
          "type": "address"
        },
        {
          "internalType": "address",
          "name": "_theBadge",
          "type": "address"
        },
        {
          "internalType": "address",
          "name": "_theBadgeModels",
          "type": "address"
        },
        {
          "internalType": "address",
          "name": "_theBadgeUsers",
          "type": "address"
        },
        {
          "internalType": "address",
          "name": "_klerosBadgeModelControllerStore",
          "type": "address"
        }
      ],
      "name": "initialize",
      "outputs": [],
      "stateMutability": "nonpayable",
      "type": "function"
    },
    {
      "inputs": [
        {
          "internalType": "uint256",
          "name": "badgeId",
          "type": "uint256"
        }
      ],
      "name": "isAssetActive",
      "outputs": [
        {
          "internalType": "bool",
          "name": "",
          "type": "bool"
        }
      ],
      "stateMutability": "view",
      "type": "function"
    },
    {
      "inputs": [],
      "name": "isBadgeModelMetadataUpdatable",
      "outputs": [
        {
          "internalType": "bool",
          "name": "",
          "type": "bool"
        }
      ],
      "stateMutability": "pure",
      "type": "function"
    },
    {
      "inputs": [],
      "name": "isBadgeModelMetadataUpgradeable",
      "outputs": [
        {
          "internalType": "bool",
          "name": "",
          "type": "bool"
        }
      ],
      "stateMutability": "pure",
      "type": "function"
    },
    {
      "inputs": [
        {
          "internalType": "uint256",
          "name": "badgeId",
          "type": "uint256"
        }
      ],
      "name": "isClaimable",
      "outputs": [
        {
          "internalType": "bool",
          "name": "",
          "type": "bool"
        }
      ],
      "stateMutability": "view",
      "type": "function"
    },
    {
      "inputs": [
        {
          "internalType": "uint256",
          "name": "",
          "type": "uint256"
        },
        {
          "internalType": "address",
          "name": "",
          "type": "address"
        }
      ],
      "name": "isMintableToController",
      "outputs": [
        {
          "internalType": "bool",
          "name": "",
          "type": "bool"
        }
      ],
      "stateMutability": "pure",
      "type": "function"
    },
    {
      "inputs": [
        {
          "internalType": "address",
          "name": "_user",
          "type": "address"
        }
      ],
      "name": "isUserVerified",
      "outputs": [
        {
          "internalType": "bool",
          "name": "",
          "type": "bool"
        }
      ],
      "stateMutability": "view",
      "type": "function"
    },
    {
      "inputs": [],
      "name": "klerosBadgeModelControllerStore",
      "outputs": [
        {
          "internalType": "contract KlerosBadgeModelControllerStore",
          "name": "",
          "type": "address"
        }
      ],
      "stateMutability": "view",
      "type": "function"
    },
    {
      "inputs": [
        {
          "internalType": "address",
          "name": "callee",
          "type": "address"
        },
        {
          "internalType": "uint256",
          "name": "badgeModelId",
          "type": "uint256"
        },
        {
          "internalType": "uint256",
          "name": "badgeId",
          "type": "uint256"
        },
        {
          "internalType": "bytes",
          "name": "data",
          "type": "bytes"
        },
        {
          "internalType": "address",
          "name": "destinationAddress",
          "type": "address"
        }
      ],
      "name": "mint",
      "outputs": [
        {
          "internalType": "uint256",
          "name": "",
          "type": "uint256"
        }
      ],
      "stateMutability": "payable",
      "type": "function"
    },
    {
      "inputs": [
        {
          "internalType": "uint256",
          "name": "badgeModelId",
          "type": "uint256"
        }
      ],
      "name": "mintValue",
      "outputs": [
        {
          "internalType": "uint256",
          "name": "",
          "type": "uint256"
        }
      ],
      "stateMutability": "view",
      "type": "function"
    },
    {
      "inputs": [],
      "name": "owner",
      "outputs": [
        {
          "internalType": "address",
          "name": "",
          "type": "address"
        }
      ],
      "stateMutability": "view",
      "type": "function"
    },
    {
      "inputs": [],
      "name": "proxiableUUID",
      "outputs": [
        {
          "internalType": "bytes32",
          "name": "",
          "type": "bytes32"
        }
      ],
      "stateMutability": "view",
      "type": "function"
    },
    {
      "inputs": [
        {
          "internalType": "uint256",
          "name": "badgeId",
          "type": "uint256"
        },
        {
          "internalType": "bytes",
          "name": "data",
          "type": "bytes"
        },
        {
          "internalType": "address",
          "name": "caller",
          "type": "address"
        }
      ],
      "name": "removeItem",
      "outputs": [],
      "stateMutability": "payable",
      "type": "function"
    },
    {
      "inputs": [],
      "name": "renounceOwnership",
      "outputs": [],
      "stateMutability": "nonpayable",
      "type": "function"
    },
    {
      "inputs": [
        {
          "internalType": "bytes32",
          "name": "role",
          "type": "bytes32"
        },
        {
          "internalType": "address",
          "name": "callerConfirmation",
          "type": "address"
        }
      ],
      "name": "renounceRole",
      "outputs": [],
      "stateMutability": "nonpayable",
      "type": "function"
    },
    {
      "inputs": [
        {
          "internalType": "bytes32",
          "name": "role",
          "type": "bytes32"
        },
        {
          "internalType": "address",
          "name": "account",
          "type": "address"
        }
      ],
      "name": "revokeRole",
      "outputs": [],
      "stateMutability": "nonpayable",
      "type": "function"
    },
    {
      "inputs": [
        {
          "internalType": "uint256",
          "name": "badgeId",
          "type": "uint256"
        },
        {
          "internalType": "bytes",
          "name": "data",
          "type": "bytes"
        },
        {
          "internalType": "address",
          "name": "caller",
          "type": "address"
        }
      ],
      "name": "submitEvidence",
      "outputs": [],
      "stateMutability": "nonpayable",
      "type": "function"
    },
    {
      "inputs": [
        {
          "internalType": "address",
          "name": "_user",
          "type": "address"
        },
        {
          "internalType": "string",
          "name": "userMetadata",
          "type": "string"
        },
        {
          "internalType": "string",
          "name": "evidenceUri",
          "type": "string"
        }
      ],
      "name": "submitUserVerification",
      "outputs": [],
      "stateMutability": "nonpayable",
      "type": "function"
    },
    {
      "inputs": [
        {
          "internalType": "bytes4",
          "name": "interfaceId",
          "type": "bytes4"
        }
      ],
      "name": "supportsInterface",
      "outputs": [
        {
          "internalType": "bool",
          "name": "",
          "type": "bool"
        }
      ],
      "stateMutability": "view",
      "type": "function"
    },
    {
      "inputs": [],
      "name": "theBadge",
      "outputs": [
        {
          "internalType": "contract TheBadge",
          "name": "",
          "type": "address"
        }
      ],
      "stateMutability": "view",
      "type": "function"
    },
    {
      "inputs": [],
      "name": "theBadgeModels",
      "outputs": [
        {
          "internalType": "contract TheBadgeModels",
          "name": "",
          "type": "address"
        }
      ],
      "stateMutability": "view",
      "type": "function"
    },
    {
      "inputs": [],
      "name": "theBadgeUsers",
      "outputs": [
        {
          "internalType": "contract TheBadgeUsers",
          "name": "",
          "type": "address"
        }
      ],
      "stateMutability": "view",
      "type": "function"
    },
    {
      "inputs": [
        {
          "internalType": "address",
          "name": "newOwner",
          "type": "address"
        }
      ],
      "name": "transferOwnership",
      "outputs": [],
      "stateMutability": "nonpayable",
      "type": "function"
    },
    {
      "inputs": [
        {
          "internalType": "uint256",
          "name": "_verifyUserProtocolFee",
          "type": "uint256"
        }
      ],
      "name": "updateVerifyUserProtocolFee",
      "outputs": [],
      "stateMutability": "nonpayable",
      "type": "function"
    },
    {
      "inputs": [
        {
          "internalType": "address",
          "name": "newImplementation",
          "type": "address"
        },
        {
          "internalType": "bytes",
          "name": "data",
          "type": "bytes"
        }
      ],
      "name": "upgradeToAndCall",
      "outputs": [],
      "stateMutability": "payable",
      "type": "function"
    },
    {
      "stateMutability": "payable",
      "type": "receive"
    }
  ],
  "bytecode": "0x60a08060405234620000d157306080527ff0c57e16840df040f15088dc2f81fe391c3923bec73e23a9662efc9c229c6a009081549060ff8260401c16620000c257506001600160401b036002600160401b0319828216016200007c575b6040516137af9081620000d6823960805181818161121f01526112ee0152f35b6001600160401b031990911681179091556040519081527fc7f505b2f371ae2175ee4913f4499e1f2633a7b5936321eed1cdaeb6115181d290602090a15f80806200005c565b63f92ee8a960e01b8152600490fd5b5f80fdfe608080604052600436101561001c575b50361561001a575f80fd5b005b5f90813560e01c90816301ffc9a7146120e75750806304a3c5d7146119ca5780630d3f3507146114d9578063130bd93f146118475780631459457a146115ee57806322e900c2146115cf578063248a9ca3146115965780632f2ff15d1461154c57806336568abe14611504578063401fef94146114de5780634d854cb4146114d95780634f1ef2861461129d578063518a893b1461127657806352d1902d1461120c57806361cf6b4814611135578063632f7c8314611116578063681294b414610fdb578063715018a614610f725780637657dbdd14610ef15780637eb7f17614610e4d5780637f34571014610e1257806389610a0914610df35780638ac516b814610d0f5780638da5cb5b14610cda57806391d1485414610c845780639c6b9f8a14610a81578063a217fddf14610a65578063a41e35c314610a2a578063ace417e0146109fc578063ad3cb1cc146109b2578063ae1c29e814610989578063b5a867fa146107eb578063caa39ec5146107c2578063d547741f14610774578063d7deba151461074d578063d8bee356146105d7578063e63ab1e91461059c578063e7705db614610561578063f2fde38b14610534578063f4bcaf421461050b578063f6563d5f14610262578063f72c0d8b1461023a5763fc5f18d30361000f573461023757806003193601126102375760206040517f11a8cb5a02bd6c42679835e867ef2118ba78f088f8300511420c6603c21d9c788152f35b80fd5b503461023757806003193601126102375760206040515f8051602061371a8339815191528152f35b5060a03660031901126102375761027761213c565b6064356001600160401b0381116104a65761029690369060040161217e565b92906102a0612168565b6001546001600160a01b039491939190851633036104f957602435926102c584612a4a565b34036104e757602460c0878554166040519283809263b7f77e1560e01b82528960048301525afa9081156104aa5760406103109392899287916104b9575b5001511697810190612874565b92835196803b156104b5578360405180926309fa7ca560e21b8252818061034360209d8e60048401526024830190612318565b039134905af180156104aa57908491610492575b5050835160405161038489828161037781830196878151938492016122f7565b810103808452018261223e565b5190209560405195610395876121ed565b878752888701928352816040880194168452606087019134835280608089019216825260a0880191600183528187541693843b1561048e579082918896959493604051988997634e2e8c9160e11b89526044359d8e60048b01525160248a015251604489015251166064870152516084860152511660a484015251151560c483015281835a9260e493f180156104835761046f575b50506104647fdd7e1dd9a30843ba8c2619a3c5ce27830ad90612bad48feeb549fc94114d6261915160405191829187835287830190612318565b0390a2604051908152f35b61047982916121c6565b610237578061042a565b6040513d84823e3d90fd5b8780fd5b61049b906121c6565b6104a657825f610357565b8280fd5b6040513d86823e3d90fd5b8380fd5b6104da915060c03d81116104e0575b6104d2818361223e565b810190612801565b5f610303565b503d6104c8565b604051637bcb3e5760e01b8152600490fd5b60405163942e92c760e01b8152600490fd5b50346102375780600319360112610237576002546040516001600160a01b039091168152602090f35b50346102375760203660031901126102375761055e61055161213c565b610559612664565b61269c565b80f35b503461023757806003193601126102375760206040517f0ce23c3e399818cfee81a7ab0880f714e53d7672b08df0fa62f2843416e1ea098152f35b503461023757806003193601126102375760206040517f65d7a28e3265b37a6474929f336521b332c1681b933f6cb9f3376673440d862a8152f35b5034610237576105e6366122b0565b6001549093926001600160a01b0391821633036104f95760249260c08388541660405195868092630c7b27cd60e31b82528960048301525afa938415610742578794610712575b5060a08401511561070057835115610700578161064d9188930190612874565b9282610658866133b0565b1690518451823b156104b5576106949284928360405180968195829463f48a0b3160e01b84526004840152604060248401526044830190612318565b03925af18015610483576106e8575b50507f8c0b973d20787b10ea3bdbb5dc91eea821f172b4759e8096d07f8fa93a6b184d9151936106e26040519283926020845216956020830190612318565b0390a380f35b6106f1906121c6565b6106fc57845f6106a3565b8480fd5b604051630c11d07360e01b8152600490fd5b61073491945060c03d811161073b575b61072c818361223e565b8101906128cb565b925f61062d565b503d610722565b6040513d89823e3d90fd5b503461023757602036600319011261023757602061076c60043561310b565b604051908152f35b5034610237576040366003190112610237576107be600435610794612152565b908084525f8051602061375a8339815191526020526107b9600160408620015461235b565b6125e4565b5080f35b50346102375780600319360112610237576001546040516001600160a01b039091168152602090f35b50346102375760603660031901126102375761080561213c565b6001600160401b036024358181116104b55761082590369060040161233d565b906044359081116104b55761083e90369060040161233d565b6003546001600160a01b03908116330361097757808554168160405195638f050f0960e01b875216948560048201528681602481855afa908115610742578791610955575b506080810193845161094357879660018652606083018881526020840197885260408401928352843b1561093f57889661091661090a89956108f76040519c8d9b8c9a8b9963f8fd555f60e01b8b5260048b0152604060248b0152511660448901525160a0606489015260e4880190612318565b9051868203604319016084880152612318565b925160a4850190612a08565b51151560c483015203925af180156104835761092f5750f35b610938906121c6565b6102375780f35b8880fd5b604051637815482960e11b8152600490fd5b61097191503d8089833e610969818361223e565b81019061295f565b5f610883565b60405163efb80fc560e01b8152600490fd5b50346102375780600319360112610237576003546040516001600160a01b039091168152602090f35b50346102375780600319360112610237576109f86040516109d281612223565b60058152640352e302e360dc1b6020820152604051918291602083526020830190612318565b0390f35b5034610237576020366003190112610237576020610a20610a1b61213c565b613320565b6040519015158152f35b503461023757806003193601126102375760206040517fcbaaf41b181bb6e269c490e876a7c97711b57e21dd8e5528423cf57579726b358152f35b5034610237578060031936011261023757602090604051908152f35b503461023757610a90366122b0565b505060015491926001600160a01b0392909150821633036104f9577f9b779b17422d0df92223018b32b4d1fa46e071723d6817e2486d003becc55f00916002835414610c725760249160028455610ae6856133b0565b60c08383541660405195868092630c7b27cd60e31b82528a60048301525afa938415610483578294610c50575b5082168351813b156104a65782916024839260405194859384926374e120b360e11b845260048401525af1801561048357908291610c3c575b50506060830180514710610c2a57519282825416803b156104a657828091602460405180948193633879a0b960e21b83528c60048401525af18015610c1f57908391610c07575b5050604081019180808087878751165af1610bac61270d565b5015610bf5576020956001947f9794db68af033346a63dbc4509364afc3a23201eced8a4f3bc64d029abfacc658886608096511692604051908152a30151169155604051908152f35b60405163aa701b0560e01b8152600490fd5b610c10906121c6565b610c1b57815f610b93565b5080fd5b6040513d85823e3d90fd5b6040516398e2a0bb60e01b8152600490fd5b610c45906121c6565b61023757805f610b4c565b83919450610c6b9060c03d811161073b5761072c818361223e565b9390610b13565b604051633ee5aeb560e01b8152600490fd5b5034610237576040366003190112610237576040610ca0612152565b9160043581525f8051602061375a833981519152602052209060018060a01b03165f52602052602060ff60405f2054166040519015158152f35b50346102375780600319360112610237575f805160206136fa833981519152546040516001600160a01b039091168152602090f35b503461023757602036600319011261023757335f9081527fb7db2dd08fcb62d0c9e08c51941cae53c267786a0b75803fb7960902fc8ef97d602052604090205460ff1615610dd557805481906001600160a01b0316803b15610dd257818091602460405180948193630404b29f60e31b835260043560048401525af1801561048357610dbe575b50807f810f1720fbc34c56d171f89315ad21708648fd17424c27b88fa208409845aa7791a180f35b610dc7906121c6565b61023757805f610d96565b50fd5b60405163e2517d3f60e01b81523360048201525f6024820152604490fd5b5034610237576020366003190112610237576020610a20600435612dc9565b503461023757806003193601126102375760206040517f7804d923f43a17d325d77e781528e0793b2edd9890ab45fc64efd7b4b427744c8152f35b5034610237576020908160031936011261023757600490813583610e79610e73836133b0565b92613494565b6040516361795f7560e11b815294909285919082906001600160a01b03165afa918215610ee55791610eb0575b61076c92506136be565b90508282813d8311610ede575b610ec7818361223e565b81010312610eda5761076c915190610ea6565b5f80fd5b503d610ebd565b604051903d90823e3d90fd5b50346102375780600319360112610237578054604051637657dbdd60e01b81529190602090839060049082906001600160a01b03165afa908115610ee55790610f40575b602090604051908152f35b506020813d8211610f6a575b81610f596020938361223e565b81010312610eda5760209051610f35565b3d9150610f4c565b5034610237578060031936011261023757610f8b612664565b5f805160206136fa83398151915280546001600160a01b031981169091555f906001600160a01b03167f8be0079c531659141344cd1fd0a4f28419497f9722a3daafe3b4186f6b6457e08280a380f35b50610fe5366122b0565b6001549093926001600160a01b0391821633036104f95760249260c08388541660405195868092630c7b27cd60e31b82528960048301525afa9384156107425787946110f6575b5060a08401511561070057835115610700578161104c9188930190612874565b9282611057866133b0565b1690518451823b156104b55761109292849260405180958194829363873db1a760e01b84526004840152604060248401526044830190612318565b039134905af18015610483576110e2575b50507f11eb5c907e498f2c995a2af5e0aac8b359e64a72061cb07d980c63bf562ada079151936106e26040519283926020845216956020830190612318565b6110eb906121c6565b6106fc57845f6110a3565b61110f91945060c03d811161073b5761072c818361223e565b925f61102c565b503461023757602036600319011261023757602061076c600435612a4a565b5061113f366122b0565b6001549093926001600160a01b0391821633036104f95760249260c08388541660405195868092630c7b27cd60e31b82528960048301525afa9384156107425787946111ec575b5060a0840151156107005783511561070057816111a69188930190612874565b92826111b1866133b0565b1690518451823b156104b55761109292849260405180958194829363097e90e560e41b84526004840152604060248401526044830190612318565b61120591945060c03d811161073b5761072c818361223e565b925f611186565b50346102375780600319360112610237577f00000000000000000000000000000000000000000000000000000000000000006001600160a01b031630036112645760206040515f8051602061373a8339815191528152f35b60405163703e46dd60e11b8152600490fd5b5034610237578060031936011261023757546040516001600160a01b039091168152602090f35b506040366003190112610237576112b261213c565b60249182356001600160401b038111610c1b5736602382011215610c1b576112e3903690858160040135910161227a565b6001600160a01b03927f000000000000000000000000000000000000000000000000000000000000000084163081149081156114be575b5061126457335f9081527fab71e3f32666744d246edff3f96e4bdafee2e9867098cdd118a979a7464786a860209081526040909120549094905f8051602061371a8339815191529060ff16156114a157508116936040516352d1902d60e01b81528181600481895afa85918161146e575b506113a857604051634c9c8ce360e01b8152600481018790528790fd5b8590875f8051602061373a833981519152918281036114595750843b15611443575080546001600160a01b031916821790556040518592917fbc7cd75a20ee27fd9adebab32041f755214dbc6bffa90cc0225b39da2e5c2d3b8480a2845115611426575083516107be94839201845af461142061270d565b9161273c565b935050505034611434575080f35b63b398979f60e01b8152600490fd5b604051634c9c8ce360e01b815260048101849052fd5b60405190632a87526960e21b82526004820152fd5b9091508281813d831161149a575b611486818361223e565b810103126114965751905f61138b565b8580fd5b503d61147c565b866044916040519163e2517d3f60e01b8352336004840152820152fd5b9050845f8051602061373a833981519152541614155f61131a565b6121ab565b5034610237576040366003190112610237576020906114fb612152565b50604051908152f35b50346102375760403660031901126102375761151e612152565b336001600160a01b0382160361153a576107be906004356125e4565b60405163334bd91960e11b8152600490fd5b5034610237576040366003190112610237576107be60043561156c612152565b908084525f8051602061375a833981519152602052611591600160408620015461235b565b612573565b5034610237576020366003190112610237576001604060209260043581525f8051602061375a8339815191528452200154604051908152f35b5034610237576020366003190112610237576020610a20600435613036565b50346102375760a03660031901126102375761160861213c565b611610612152565b906001600160a01b03906044358281169190829003610eda5760643592808416809403610eda5761163f612168565b7ff0c57e16840df040f15088dc2f81fe391c3923bec73e23a9662efc9c229c6a009485549460ff8660401c1615956001600160401b0381168015908161183f575b6001149081611835575b15908161182c575b5061181a5767ffffffffffffffff19811660011788556020938a9360049387938a6117fb575b506116c16127b3565b6116c96127b3565b6116d28961269c565b6116db896123a7565b506116e589612432565b506116ef896124df565b508360018060a01b03199c168c60015416176001558b60025416176002558a6003541617600355169788835491821617835560405198899384926384101a1760e01b845216175afa9485156117f05786956117b5575b5080604051951691167fdc90fed0326ba91706deeac7eb34ac9f8b680734f9d782864dc29704d23bed6a8680a361177a578280f35b805460ff60401b19169055600181527fc7f505b2f371ae2175ee4913f4499e1f2633a7b5936321eed1cdaeb6115181d290602090a15f808280f35b9094506020813d82116117e8575b816117d06020938361223e565b81010312611496576117e19061279f565b935f611745565b3d91506117c3565b6040513d88823e3d90fd5b68ffffffffffffffffff191668010000000000000001178b555f6116b8565b60405163f92ee8a960e01b8152600490fd5b9050155f611692565b303b15915061168a565b889150611680565b50346102375760403660031901126102375761186161213c565b6024359081151582036104a6576003546001600160a01b03908116330361097757808454169160405191638f050f0960e01b9182845216918260048201528581602481875afa9081156117f05786916119b0575b506080810151156119535760600151600381101561199c5761198a576040519081528160048201528481602481865afa801561197f576080918691611965575b500151156119535783921561194c5760015b823b15611947576044849283611938956040519687958694631f232ee960e11b865260048601526024850190612a08565b5af180156104835761092f5750f35b505050fd5b6002611907565b60405163bb572dbf60e01b8152600490fd5b61197991503d8088833e610969818361223e565b5f6118f5565b6040513d87823e3d90fd5b604051636ed1ab8760e11b8152600490fd5b634e487b7160e01b86526021600452602486fd5b6119c491503d8088833e610969818361223e565b5f6118b5565b5034610237576060366003190112610237576119e461213c565b6001600160401b036044358181116104b557611a0490369060040161217e565b600254909391906001600160a01b031633036120d55760018060a01b038554169360405163b7f77e1560e01b8152602435600482015260c081602481895afa9081156107425787916120b7575b50604001516001600160a01b03166120a5576040516384101a1760e01b815291602083600481895afa928315610742578793612069575b5060208183810103126120655780359185831161048e576101a0838301828401031261048e576040519561010087018781108282111761205157604052828401356001600160a01b038116810361203957875282840160208181013590890152604080820135908901526060013581811161203957611b0e90838501908686010161233d565b60608801526080848401013581811161203957611b3290838501908686010161233d565b608088015260a0848401013560a088015281830160df85850101121561093f57604051908160808101109060808301111761203d57608081016040528082840161014086860101116120395760c085850101905b61014086860101821061202957505060c087015280820161015f84840101121561048e5760405192611bb784612208565b839183016101a0828501011161093f579061014082840101915b6101a0818501018310612013575050505060e084015282516001600160a01b03168015612007576020600491955b6040516307e75ba360e11b815292839182905afa9081156117f0578691611fcd575b50611c75611c9060208087015160405190828201908152828252611c4482612223565b604089015190611c8460405191858301938452858352611c6383612223565b604051978895518092888801906122f7565b840191518093868401906122f7565b0103808452018261223e565b606085015190608086015160c08701519260a08801519160e08901519360018060a01b0388163b15611fc957959290611d2790611d158d969794611cfd6040519a8b9863d8dcbd2760e01b8a5260018060a01b031660048a01526101e060248a01526101e4890190612318565b90886044890152600319888303016064890152612318565b85810360031901608487015290612318565b6001600160a01b038b1660a4850152918460c485015b60048210611fad57505050610144830152610164820193835b60038110611f915750506101c482018390529192509081900381836001600160a01b0387165af180156117f057611f7e575b506040516306661abd60e01b81526020816004816001600160a01b0386165afa9081156117f0578691611f4c575b505f198101908111611f385760405163a2f7b3a560e01b81526004810191909152906020908290602490829089906001600160a01b03165af190811561197f578591611ef6575b506001600160a01b0316928315611ee457845485926001600160a01b0390911691823b156104b5576040516277bb0160e91b81526024803560048301526001600160a01b0393841690820152604481018790529116606482015260848101839052908290829060a490829084905af1801561048357611ed0575b50507f1e83a75c2089c1100e6d9a024ea6fdf619ec5a922a17230682fbf1217d2a7ec1611ebf60806060840151930151926106e2604051928392604084526040840190612318565b828103602084015260243595612318565b611ed9906121c6565b6104a657825f611e77565b604051633deb66a760e21b8152600490fd5b90506020813d602011611f30575b81611f116020938361223e565b810103126106fc57516001600160a01b03811681036106fc575f611dfd565b3d9150611f04565b634e487b7160e01b86526011600452602486fd5b90506020813d602011611f76575b81611f676020938361223e565b81010312610eda57515f611db6565b3d9150611f5a565b611f8a909591956121c6565b935f611d88565b815186526020958601958c955087945090910190600101611d56565b825181528d965088955060209283019260019092019101611d3d565b8b80fd5b90506020813d602011611fff575b81611fe86020938361223e565b8101031261149657611ff99061279f565b5f611c21565b3d9150611fdb565b50600460208395611bff565b6020806101a09385358152019301929150611bd1565b8135815260209182019101611b86565b8980fd5b634e487b7160e01b89526041600452602489fd5b634e487b7160e01b8a52604160045260248afd5b8680fd5b9092506020813d60201161209d575b816120856020938361223e565b81010312612065576120969061279f565b915f611a88565b3d9150612078565b604051634d1068bd60e11b8152600490fd5b6120cf915060c03d81116104e0576104d2818361223e565b5f611a51565b60405163515e38c360e11b8152600490fd5b905034610c1b576020366003190112610c1b5760043563ffffffff60e01b81168091036104a65760209250637965db0b60e01b811490811561212b575b5015158152f35b6301ffc9a760e01b1490505f612124565b600435906001600160a01b0382168203610eda57565b602435906001600160a01b0382168203610eda57565b608435906001600160a01b0382168203610eda57565b9181601f84011215610eda578235916001600160401b038311610eda5760208381860195010111610eda57565b34610eda575f366003190112610eda57602060405160018152f35b6001600160401b0381116121d957604052565b634e487b7160e01b5f52604160045260245ffd5b60c081019081106001600160401b038211176121d957604052565b606081019081106001600160401b038211176121d957604052565b604081019081106001600160401b038211176121d957604052565b90601f801991011681019081106001600160401b038211176121d957604052565b6001600160401b0381116121d957601f01601f191660200190565b9291926122868261225f565b91612294604051938461223e565b829481845281830111610eda578281602093845f960137010152565b906060600319830112610eda5760043591602435906001600160401b038211610eda576122df9160040161217e565b90916044356001600160a01b0381168103610eda5790565b5f5b8381106123085750505f910152565b81810151838201526020016122f9565b90602091612331815180928185528580860191016122f7565b601f01601f1916010190565b9080601f83011215610eda578160206123589335910161227a565b90565b805f525f8051602061375a83398151915260205260405f20335f5260205260ff60405f205416156123895750565b6044906040519063e2517d3f60e01b82523360048301526024820152fd5b6001600160a01b03165f8181527fb7db2dd08fcb62d0c9e08c51941cae53c267786a0b75803fb7960902fc8ef97d60205260408120549091905f8051602061375a8339815191529060ff1661242d578280526020526040822081835260205260408220600160ff1982541617905533915f805160206136da8339815191528180a4600190565b505090565b6001600160a01b03165f8181527f75442b0a96088b5456bc4ed01394c96a4feec0f883c9494257d76b96ab1c9b6b60205260408120549091907f65d7a28e3265b37a6474929f336521b332c1681b933f6cb9f3376673440d862a905f8051602061375a8339815191529060ff166124d9578184526020526040832082845260205260408320600160ff198254161790555f805160206136da833981519152339380a4600190565b50505090565b6001600160a01b03165f8181527fab71e3f32666744d246edff3f96e4bdafee2e9867098cdd118a979a7464786a860205260408120549091905f8051602061371a833981519152905f8051602061375a8339815191529060ff166124d9578184526020526040832082845260205260408320600160ff198254161790555f805160206136da833981519152339380a4600190565b905f918083525f8051602061375a83398151915280602052604084209260018060a01b03169283855260205260ff604085205416155f146124d9578184526020526040832082845260205260408320600160ff198254161790555f805160206136da833981519152339380a4600190565b905f918083525f8051602061375a83398151915280602052604084209260018060a01b03169283855260205260ff6040852054165f146124d957818452602052604083208284526020526040832060ff1981541690557ff6391f5c32d9c69d2a47ea670b442974b53935d1edc7fd64eb21e047a839171b339380a4600190565b5f805160206136fa833981519152546001600160a01b0316330361268457565b60405163118cdaa760e01b8152336004820152602490fd5b6001600160a01b039081169081156126f5575f805160206136fa83398151915280546001600160a01b031981168417909155167f8be0079c531659141344cd1fd0a4f28419497f9722a3daafe3b4186f6b6457e05f80a3565b604051631e4fbdf760e01b81525f6004820152602490fd5b3d15612737573d9061271e8261225f565b9161272c604051938461223e565b82523d5f602084013e565b606090565b90612763575080511561275157805190602001fd5b604051630a12f52160e11b8152600490fd5b81511580612796575b612774575090565b604051639996b31560e01b81526001600160a01b039091166004820152602490fd5b50803b1561276c565b51906001600160a01b0382168203610eda57565b60ff7ff0c57e16840df040f15088dc2f81fe391c3923bec73e23a9662efc9c229c6a005460401c16156127e257565b604051631afcd79f60e31b8152600490fd5b51908115158203610eda57565b908160c0910312610eda5761286c60a06040519261281e846121ed565b6128278161279f565b84526020810151602085015261283f6040820161279f565b60408501526128506060820161279f565b60608501526128616080820161279f565b6080850152016127f4565b60a082015290565b90602082820312610eda5781356001600160401b0392838211610eda570190602082820312610eda576040519260208401848110828211176121d9576040528235908111610eda576128c6920161233d565b815290565b908160c0910312610eda5761286c60a0604051926128e8846121ed565b80518452602081015160208501526129026040820161279f565b6040850152606081015160608501526128616080820161279f565b81601f82011215610eda5780516129338161225f565b92612941604051948561223e565b81845260208284010111610eda5761235891602080850191016122f7565b602081830312610eda5780516001600160401b0391828211610eda57019060a082840312610eda576040519260a08401848110838211176121d9576040526129a68361279f565b84526020830151828111610eda57816129c091850161291d565b60208501526040830151918211610eda576129dc91830161291d565b604083015260608101516003811015610eda576060830152612a00906080016127f4565b608082015290565b906003821015612a155752565b634e487b7160e01b5f52602160045260245ffd5b91908201809211612a3657565b634e487b7160e01b5f52601160045260245ffd5b5f80546040805163b7f77e1560e01b815260048101949094529193926001600160a01b03918216919060c081602481865afa908115612bbe57829185918891612c58575b5001511691835180916307e75ba360e11b825281600460209485935afa908115612c4e578791612c19575b50845163063d63db60e11b81528781600481885afa908115612c0f57908392918991612bc8575b5090612b0891875195868094819363f7434ea960e01b83528760048401526024830190612318565b0392165afa918215612bbe578692612b8f575b50806004929385519384809263bb0b86ff60e01b82525afa938415612b8657508593612b4f575b5050612358929350612a29565b9080929350813d8311612b7f575b612b67818361223e565b810103126104b557612358929350519083925f612b42565b503d612b5d565b513d87823e3d90fd5b91508082813d8311612bb7575b612ba6818361223e565b810103126114965790519080612b1b565b503d612b9c565b84513d88823e3d90fd5b919250503d8089833e612bdb818361223e565b810191838284031261093f578151916001600160401b038311612039578493612b0893612c08920161291d565b9091612ae0565b86513d8a823e3d90fd5b90508181813d8311612c47575b612c30818361223e565b8101031261206557612c419061279f565b5f612ab9565b503d612c26565b85513d89823e3d90fd5b612c70915060c03d81116104e0576104d2818361223e565b5f612a8e565b90816060910312610eda5780516004811015610eda5760208201519092906001600160801b0381168103610eda57604092909201516001600160781b0381168103610eda5790565b90816060910312610eda57805160ff81168103610eda57916040602083015192015190565b6001600160781b039081165f190191908211612a3657565b909161018082840312610eda57612d11826127f4565b9260208084015193604081015193612d2b606083016127f4565b9380609f84011215610eda57604051612d4381612208565b60e084019481838711610eda5760808601905b878210612daa575050509351926101008101516003811015610eda5792612d80610120830161279f565b926101408301516001600160401b038111610eda5761016091612da491850161291d565b92015190565b81516001600160a01b0381168103610eda578152908201908201612d56565b6024612dd4826133b0565b60018060a01b03925f93808554169260c0604094855196878092630c7b27cd60e31b8252600497888301525afa948515612bbe578695613016575b5060a085015115613006578451156130065716928051938351946348f343f360e01b8652838601526060948581602481855afa908115612c4e578791612fd6575b508251855190634aac84e560e01b8252858201528681602481865afa968715612c0f578897612fa5575b506001600160781b0391612e8e9150612ce3565b16915191845192635fde7f8d60e11b84528484015260248301528582604481845afa918215612bbe579083918793612f74575b506020908551928380926282a36d60e01b82525afa938415612b8657508593612f41575b50420390428211612f2e57501115612f2357600260ff6001925b16149081612f16575b50612f105790565b50600190565b600191501515145f612f08565b600260ff8392612eff565b634e487b7160e01b855260119052602484fd5b9092506020813d8211612f6c575b81612f5c6020938361223e565b810103126106fc5751915f612ee5565b3d9150612f4f565b6020919350612f94903d808a833e612f8c818361223e565b810190612cfb565b505050505050509150509290612ec1565b612fc5929750803d10612fcf575b612fbd818361223e565b810190612cbe565b5050945f80612e7a565b503d612fb3565b612ff69150863d8811612fff575b612fee818361223e565b810190612c76565b9150505f612e50565b503d612fe4565b8351630c11d07360e01b81528390fd5b61302f91955060c03d811161073b5761072c818361223e565b935f612e0f565b61303f816133b0565b60018060a01b03905f9260c08385541691602460405180948193630c7b27cd60e31b835260048301525afa9081156104aa576060929160249186916130ed575b50516040519485938492634aac84e560e01b84526004840152165afa908115610483579060ff9183916130cd575b5016600181149081156130c25750612f105790565b60039150145f612f08565b6130e5915060603d8111612fcf57612fbd818361223e565b50505f6130ad565b613105915060c03d811161073b5761072c818361223e565b5f61307f565b5f805460408051630c7b27cd60e31b8152600480820186905295919491926001600160a01b039060c0908390602490829085165afa9182156132e6578592613300575b5060a0820151156132f0578151156132f057613169836133b0565b16905191855192634aac84e560e01b845287840152606083602481855afa9283156132e65785936132bd575b506131a160ff91613494565b921660018114613288576002811461325357600381146132495786146131d15784516305e5cf6360e41b81528690fd5b602090859496929395519283809263787471a960e01b82525afa92831561324057508492613206575b506123589293506136be565b9091506020813d8211613238575b816132216020938361223e565b810103126104b557612358929350519083926131fa565b3d9150613214565b513d86823e3d90fd5b5050509250905090565b5060209085949692939551928380926361795f7560e11b82525afa9283156132405750849261320657506123589293506136be565b5060209085949692939551928380926328dedab560e21b82525afa9283156132405750849261320657506123589293506136be565b60ff9193506132dc6131a19160603d8111612fcf57612fbd818361223e565b5050939150613195565b86513d87823e3d90fd5b8551630c11d07360e01b81528790fd5b61331991925060c03d811161073b5761072c818361223e565b905f61314e565b5f8054604051638f050f0960e01b81526001600160a01b0393841660048201529192839183916024918391165afa908115610483578291613396575b506080810151156133925760600151600381101561337e57600114612f105790565b634e487b7160e01b82526021600452602482fd5b5090565b6133aa91503d8084833e610969818361223e565b5f61335c565b5f5460408051630c7b27cd60e31b815260048101939093526001600160a01b0392909160c091908416908281602481855afa90811561348a5783916020915f9161346d575b500151602485518094819363b7f77e1560e01b835260048301525afa91821561346357908392915f92613446575b5050019082825116156134365750511690565b51633deb66a760e21b8152600490fd5b61345c9250803d106104e0576104d2818361223e565b5f80613423565b83513d5f823e3d90fd5b6134849150833d851161073b5761072c818361223e565b5f6133f5565b84513d5f823e3d90fd5b5f805460408051630c7b27cd60e31b81526004810185905290936001600160a01b0393928416919060c082602481865afa91821561363757908591859361369a575b506134e0906133b0565b169080518651906348f343f360e01b82526004820152606081602481865afa90811561369057859291604491849161366f575b506001600160781b039061352690612ce3565b16915188519485938492635fde7f8d60e11b8452600484015260248301525afa908115613665578391613641575b50845180926307e75ba360e11b825281600460209586935afa9081156136375790839185916135fb575b506135a69192875196878094819363f7434ea960e01b83528760048401526024830190612318565b0392165afa9384156135f0575081936135bf5750505090565b9091809350813d83116135e9575b6135d7818361223e565b810103126102375750515f80806124d9565b503d6135cd565b51913d9150823e3d90fd5b82819392503d8311613630575b613612818361223e565b810103126104b55782916136286135a69261279f565b90929161357e565b503d613608565b86513d86823e3d90fd5b61365591503d8085833e612f8c818361223e565b509750505050505050505f613554565b85513d85823e3d90fd5b613687915060603d8111612fff57612fee818361223e565b9150505f613513565b87513d87823e3d90fd5b6134e09193506136b79060c03d811161073b5761072c818361223e565b92906134d6565b906136c99082612a29565b9081106136d35790565b505f199056fe2f8788117e7eff1d82e926ec794901d17c78024a50270940304540a733656f0d9016d09d72d40fdae2fd8ceac6b6234c7706214fd39c1cd1e609a0528c199300189ab7a9244df0848122154315af71fe140f3db0fe014031783b0946b8c9d2e3360894a13ba1a3210667c828492db98dca3e2076cc3735a920a3ca505d382bbc02dd7bc7dec4dceedda775e58dd541e08a116c6c53815c0bd028192f7b626800a26469706673582212204c2c66a66d89c1f8108c0909fdab5fe184b6044e818c7d38aa60045917cb844264736f6c63430008140033",
  "linkReferences": {},
  "deployedLinkReferences": {}
}