{
  "_format": "hh-sol-artifact-1",
  "contractName": "KlerosBadgeModelControllerStore",
  "sourceName": "src/contracts/badgeModelControllers/KlerosBadgeModelControllerStore.sol",
  "abi": [
    {
      "inputs": [],
      "stateMutability": "nonpayable",
      "type": "constructor"
    },
    {
      "inputs": [],
      "name": "AccessControlBadConfirmation",
      "type": "error"
    },
    {
      "inputs": [
        {
          "internalType": "address",
          "name": "account",
          "type": "address"
        },
        {
          "internalType": "bytes32",
          "name": "neededRole",
          "type": "bytes32"
        }
      ],
      "name": "AccessControlUnauthorizedAccount",
      "type": "error"
    },
    {
      "inputs": [],
      "name": "InvalidInitialization",
      "type": "error"
    },
    {
      "inputs": [],
      "name": "KlerosBadgeModelController__badgeModel__NotFound",
      "type": "error"
    },
    {
      "inputs": [],
      "name": "KlerosBadgeModelController__badge__klerosBadgeNotFound",
      "type": "error"
    },
    {
      "inputs": [],
      "name": "KlerosBadgeModelController__createBadgeModel_badgeModelAlreadyCreated",
      "type": "error"
    },
    {
      "inputs": [],
      "name": "KlerosBadgeModelController__store_ContractNameAlreadyExists",
      "type": "error"
    },
    {
      "inputs": [],
      "name": "KlerosBadgeModelController__store_InvalidContractAddress",
      "type": "error"
    },
    {
      "inputs": [],
      "name": "KlerosBadgeModelController__store_InvalidContractName",
      "type": "error"
    },
    {
      "inputs": [],
      "name": "KlerosBadgeModelController__store_OperationNotPermitted",
      "type": "error"
    },
    {
      "inputs": [],
      "name": "KlerosBadgeModelController__user__userNotFound",
      "type": "error"
    },
    {
      "inputs": [],
      "name": "KlerosBadgeModelController__user__userVerificationAlreadyStarted",
      "type": "error"
    },
    {
      "inputs": [],
      "name": "NotInitializing",
      "type": "error"
    },
    {
      "inputs": [
        {
          "internalType": "address",
          "name": "owner",
          "type": "address"
        }
      ],
      "name": "OwnableInvalidOwner",
      "type": "error"
    },
    {
      "inputs": [
        {
          "internalType": "address",
          "name": "account",
          "type": "address"
        }
      ],
      "name": "OwnableUnauthorizedAccount",
      "type": "error"
    },
    {
      "anonymous": false,
      "inputs": [
        {
          "indexed": true,
          "internalType": "string",
          "name": "_contractName",
          "type": "string"
        },
        {
          "indexed": true,
          "internalType": "address",
          "name": "contractAddress",
          "type": "address"
        }
      ],
      "name": "ContractAdded",
      "type": "event"
    },
    {
      "anonymous": false,
      "inputs": [
        {
          "indexed": true,
          "internalType": "string",
          "name": "_contractName",
          "type": "string"
        },
        {
          "indexed": true,
          "internalType": "address",
          "name": "contractAddress",
          "type": "address"
        }
      ],
      "name": "ContractRemoved",
      "type": "event"
    },
    {
      "anonymous": false,
      "inputs": [
        {
          "indexed": true,
          "internalType": "string",
          "name": "_contractName",
          "type": "string"
        },
        {
          "indexed": true,
          "internalType": "address",
          "name": "contractAddress",
          "type": "address"
        }
      ],
      "name": "ContractUpdated",
      "type": "event"
    },
    {
      "anonymous": false,
      "inputs": [
        {
          "indexed": false,
          "internalType": "uint64",
          "name": "version",
          "type": "uint64"
        }
      ],
      "name": "Initialized",
      "type": "event"
    },
    {
      "anonymous": false,
      "inputs": [
        {
          "indexed": true,
          "internalType": "address",
          "name": "previousOwner",
          "type": "address"
        },
        {
          "indexed": true,
          "internalType": "address",
          "name": "newOwner",
          "type": "address"
        }
      ],
      "name": "OwnershipTransferred",
      "type": "event"
    },
    {
      "anonymous": false,
      "inputs": [
        {
          "indexed": true,
          "internalType": "bytes32",
          "name": "role",
          "type": "bytes32"
        },
        {
          "indexed": true,
          "internalType": "bytes32",
          "name": "previousAdminRole",
          "type": "bytes32"
        },
        {
          "indexed": true,
          "internalType": "bytes32",
          "name": "newAdminRole",
          "type": "bytes32"
        }
      ],
      "name": "RoleAdminChanged",
      "type": "event"
    },
    {
      "anonymous": false,
      "inputs": [
        {
          "indexed": true,
          "internalType": "bytes32",
          "name": "role",
          "type": "bytes32"
        },
        {
          "indexed": true,
          "internalType": "address",
          "name": "account",
          "type": "address"
        },
        {
          "indexed": true,
          "internalType": "address",
          "name": "sender",
          "type": "address"
        }
      ],
      "name": "RoleGranted",
      "type": "event"
    },
    {
      "anonymous": false,
      "inputs": [
        {
          "indexed": true,
          "internalType": "bytes32",
          "name": "role",
          "type": "bytes32"
        },
        {
          "indexed": true,
          "internalType": "address",
          "name": "account",
          "type": "address"
        },
        {
          "indexed": true,
          "internalType": "address",
          "name": "sender",
          "type": "address"
        }
      ],
      "name": "RoleRevoked",
      "type": "event"
    },
    {
      "inputs": [],
      "name": "CLAIMER_ROLE",
      "outputs": [
        {
          "internalType": "bytes32",
          "name": "",
          "type": "bytes32"
        }
      ],
      "stateMutability": "view",
      "type": "function"
    },
    {
      "inputs": [],
      "name": "DEFAULT_ADMIN_ROLE",
      "outputs": [
        {
          "internalType": "bytes32",
          "name": "",
          "type": "bytes32"
        }
      ],
      "stateMutability": "view",
      "type": "function"
    },
    {
      "inputs": [],
      "name": "PAUSER_ROLE",
      "outputs": [
        {
          "internalType": "bytes32",
          "name": "",
          "type": "bytes32"
        }
      ],
      "stateMutability": "view",
      "type": "function"
    },
    {
      "inputs": [],
      "name": "UPGRADER_ROLE",
      "outputs": [
        {
          "internalType": "bytes32",
          "name": "",
          "type": "bytes32"
        }
      ],
      "stateMutability": "view",
      "type": "function"
    },
    {
      "inputs": [],
      "name": "URI_SETTER_ROLE",
      "outputs": [
        {
          "internalType": "bytes32",
          "name": "",
          "type": "bytes32"
        }
      ],
      "stateMutability": "view",
      "type": "function"
    },
    {
      "inputs": [],
      "name": "USER_MANAGER_ROLE",
      "outputs": [
        {
          "internalType": "bytes32",
          "name": "",
          "type": "bytes32"
        }
      ],
      "stateMutability": "view",
      "type": "function"
    },
    {
      "inputs": [],
      "name": "VERIFIER_ROLE",
      "outputs": [
        {
          "internalType": "bytes32",
          "name": "",
          "type": "bytes32"
        }
      ],
      "stateMutability": "view",
      "type": "function"
    },
    {
      "inputs": [
        {
          "internalType": "uint256",
          "name": "badgeId",
          "type": "uint256"
        },
        {
          "components": [
            {
              "internalType": "bytes32",
              "name": "itemID",
              "type": "bytes32"
            },
            {
              "internalType": "uint256",
              "name": "badgeModelId",
              "type": "uint256"
            },
            {
              "internalType": "address",
              "name": "callee",
              "type": "address"
            },
            {
              "internalType": "uint256",
              "name": "deposit",
              "type": "uint256"
            },
            {
              "internalType": "address",
              "name": "destinationAddress",
              "type": "address"
            },
            {
              "internalType": "bool",
              "name": "initialized",
              "type": "bool"
            }
          ],
          "internalType": "struct KlerosBadgeModelControllerStore.KlerosBadge",
          "name": "badge",
          "type": "tuple"
        }
      ],
      "name": "addKlerosBadge",
      "outputs": [],
      "stateMutability": "nonpayable",
      "type": "function"
    },
    {
      "inputs": [
        {
          "internalType": "string",
          "name": "_contractName",
          "type": "string"
        },
        {
          "internalType": "address",
          "name": "_contractAddress",
          "type": "address"
        }
      ],
      "name": "addPermittedContract",
      "outputs": [],
      "stateMutability": "nonpayable",
      "type": "function"
    },
    {
      "inputs": [
        {
          "internalType": "address",
          "name": "",
          "type": "address"
        }
      ],
      "name": "allowedContractAddresses",
      "outputs": [
        {
          "internalType": "bool",
          "name": "",
          "type": "bool"
        }
      ],
      "stateMutability": "view",
      "type": "function"
    },
    {
      "inputs": [
        {
          "internalType": "string",
          "name": "",
          "type": "string"
        }
      ],
      "name": "allowedContractAddressesByContractName",
      "outputs": [
        {
          "internalType": "address",
          "name": "",
          "type": "address"
        }
      ],
      "stateMutability": "view",
      "type": "function"
    },
    {
      "inputs": [],
      "name": "arbitrator",
      "outputs": [
        {
          "internalType": "contract IArbitrator",
          "name": "",
          "type": "address"
        }
      ],
      "stateMutability": "view",
      "type": "function"
    },
    {
      "inputs": [
        {
          "internalType": "uint256",
          "name": "badgeId",
          "type": "uint256"
        }
      ],
      "name": "clearKlerosBadgeDepositAmount",
      "outputs": [],
      "stateMutability": "nonpayable",
      "type": "function"
    },
    {
      "inputs": [
        {
          "internalType": "uint256",
          "name": "_badgeModelId",
          "type": "uint256"
        },
        {
          "internalType": "address",
          "name": "_owner",
          "type": "address"
        },
        {
          "internalType": "address",
          "name": "_tcrList",
          "type": "address"
        },
        {
          "internalType": "address",
          "name": "_governor",
          "type": "address"
        },
        {
          "internalType": "address",
          "name": "_admin",
          "type": "address"
        }
      ],
      "name": "createKlerosBadgeModel",
      "outputs": [],
      "stateMutability": "nonpayable",
      "type": "function"
    },
    {
      "inputs": [],
      "name": "getArbitrator",
      "outputs": [
        {
          "internalType": "contract IArbitrator",
          "name": "",
          "type": "address"
        }
      ],
      "stateMutability": "view",
      "type": "function"
    },
    {
      "inputs": [],
      "name": "getCurrentBadgeIdCounter",
      "outputs": [
        {
          "internalType": "uint256",
          "name": "",
          "type": "uint256"
        }
      ],
      "stateMutability": "view",
      "type": "function"
    },
    {
      "inputs": [],
      "name": "getCurrentBadgeModelsIdCounter",
      "outputs": [
        {
          "internalType": "uint256",
          "name": "",
          "type": "uint256"
        }
      ],
      "stateMutability": "view",
      "type": "function"
    },
    {
      "inputs": [
        {
          "internalType": "uint256",
          "name": "badgeId",
          "type": "uint256"
        }
      ],
      "name": "getKlerosBadge",
      "outputs": [
        {
          "components": [
            {
              "internalType": "bytes32",
              "name": "itemID",
              "type": "bytes32"
            },
            {
              "internalType": "uint256",
              "name": "badgeModelId",
              "type": "uint256"
            },
            {
              "internalType": "address",
              "name": "callee",
              "type": "address"
            },
            {
              "internalType": "uint256",
              "name": "deposit",
              "type": "uint256"
            },
            {
              "internalType": "address",
              "name": "destinationAddress",
              "type": "address"
            },
            {
              "internalType": "bool",
              "name": "initialized",
              "type": "bool"
            }
          ],
          "internalType": "struct KlerosBadgeModelControllerStore.KlerosBadge",
          "name": "",
          "type": "tuple"
        }
      ],
      "stateMutability": "view",
      "type": "function"
    },
    {
      "inputs": [
        {
          "internalType": "uint256",
          "name": "badgeModelId",
          "type": "uint256"
        }
      ],
      "name": "getKlerosBadgeModel",
      "outputs": [
        {
          "components": [
            {
              "internalType": "address",
              "name": "owner",
              "type": "address"
            },
            {
              "internalType": "uint256",
              "name": "badgeModelId",
              "type": "uint256"
            },
            {
              "internalType": "address",
              "name": "tcrList",
              "type": "address"
            },
            {
              "internalType": "address",
              "name": "governor",
              "type": "address"
            },
            {
              "internalType": "address",
              "name": "admin",
              "type": "address"
            },
            {
              "internalType": "bool",
              "name": "initialized",
              "type": "bool"
            }
          ],
          "internalType": "struct KlerosBadgeModelControllerStore.KlerosBadgeModel",
          "name": "",
          "type": "tuple"
        }
      ],
      "stateMutability": "view",
      "type": "function"
    },
    {
      "inputs": [
        {
          "internalType": "address",
          "name": "userAddress",
          "type": "address"
        }
      ],
      "name": "getKlerosUser",
      "outputs": [
        {
          "components": [
            {
              "internalType": "address",
              "name": "user",
              "type": "address"
            },
            {
              "internalType": "string",
              "name": "userMetadata",
              "type": "string"
            },
            {
              "internalType": "string",
              "name": "verificationEvidence",
              "type": "string"
            },
            {
              "internalType": "enum LibKlerosBadgeModelController.VerificationStatus",
              "name": "verificationStatus",
              "type": "uint8"
            },
            {
              "internalType": "bool",
              "name": "initialized",
              "type": "bool"
            }
          ],
          "internalType": "struct KlerosBadgeModelControllerStore.KlerosUser",
          "name": "",
          "type": "tuple"
        }
      ],
      "stateMutability": "view",
      "type": "function"
    },
    {
      "inputs": [
        {
          "internalType": "bytes32",
          "name": "role",
          "type": "bytes32"
        }
      ],
      "name": "getRoleAdmin",
      "outputs": [
        {
          "internalType": "bytes32",
          "name": "",
          "type": "bytes32"
        }
      ],
      "stateMutability": "view",
      "type": "function"
    },
    {
      "inputs": [],
      "name": "getTCRFactory",
      "outputs": [
        {
          "internalType": "address",
          "name": "",
          "type": "address"
        }
      ],
      "stateMutability": "view",
      "type": "function"
    },
    {
      "inputs": [],
      "name": "getVerifyUserProtocolFee",
      "outputs": [
        {
          "internalType": "uint256",
          "name": "",
          "type": "uint256"
        }
      ],
      "stateMutability": "view",
      "type": "function"
    },
    {
      "inputs": [
        {
          "internalType": "bytes32",
          "name": "role",
          "type": "bytes32"
        },
        {
          "internalType": "address",
          "name": "account",
          "type": "address"
        }
      ],
      "name": "grantRole",
      "outputs": [],
      "stateMutability": "nonpayable",
      "type": "function"
    },
    {
      "inputs": [
        {
          "internalType": "bytes32",
          "name": "role",
          "type": "bytes32"
        },
        {
          "internalType": "address",
          "name": "account",
          "type": "address"
        }
      ],
      "name": "hasRole",
      "outputs": [
        {
          "internalType": "bool",
          "name": "",
          "type": "bool"
        }
      ],
      "stateMutability": "view",
      "type": "function"
    },
    {
      "inputs": [
        {
          "internalType": "address",
          "name": "admin",
          "type": "address"
        },
        {
          "internalType": "address",
          "name": "_arbitrator",
          "type": "address"
        },
        {
          "internalType": "address",
          "name": "_tcrFactory",
          "type": "address"
        }
      ],
      "name": "initialize",
      "outputs": [],
      "stateMutability": "nonpayable",
      "type": "function"
    },
    {
      "inputs": [
        {
          "internalType": "uint256",
          "name": "",
          "type": "uint256"
        }
      ],
      "name": "klerosBadgeModels",
      "outputs": [
        {
          "internalType": "address",
          "name": "owner",
          "type": "address"
        },
        {
          "internalType": "uint256",
          "name": "badgeModelId",
          "type": "uint256"
        },
        {
          "internalType": "address",
          "name": "tcrList",
          "type": "address"
        },
        {
          "internalType": "address",
          "name": "governor",
          "type": "address"
        },
        {
          "internalType": "address",
          "name": "admin",
          "type": "address"
        },
        {
          "internalType": "bool",
          "name": "initialized",
          "type": "bool"
        }
      ],
      "stateMutability": "view",
      "type": "function"
    },
    {
      "inputs": [
        {
          "internalType": "uint256",
          "name": "",
          "type": "uint256"
        }
      ],
      "name": "klerosBadges",
      "outputs": [
        {
          "internalType": "bytes32",
          "name": "itemID",
          "type": "bytes32"
        },
        {
          "internalType": "uint256",
          "name": "badgeModelId",
          "type": "uint256"
        },
        {
          "internalType": "address",
          "name": "callee",
          "type": "address"
        },
        {
          "internalType": "uint256",
          "name": "deposit",
          "type": "uint256"
        },
        {
          "internalType": "address",
          "name": "destinationAddress",
          "type": "address"
        },
        {
          "internalType": "bool",
          "name": "initialized",
          "type": "bool"
        }
      ],
      "stateMutability": "view",
      "type": "function"
    },
    {
      "inputs": [
        {
          "internalType": "address",
          "name": "",
          "type": "address"
        }
      ],
      "name": "klerosUsers",
      "outputs": [
        {
          "internalType": "address",
          "name": "user",
          "type": "address"
        },
        {
          "internalType": "string",
          "name": "userMetadata",
          "type": "string"
        },
        {
          "internalType": "string",
          "name": "verificationEvidence",
          "type": "string"
        },
        {
          "internalType": "enum LibKlerosBadgeModelController.VerificationStatus",
          "name": "verificationStatus",
          "type": "uint8"
        },
        {
          "internalType": "bool",
          "name": "initialized",
          "type": "bool"
        }
      ],
      "stateMutability": "view",
      "type": "function"
    },
    {
      "inputs": [],
      "name": "owner",
      "outputs": [
        {
          "internalType": "address",
          "name": "",
          "type": "address"
        }
      ],
      "stateMutability": "view",
      "type": "function"
    },
    {
      "inputs": [
        {
          "internalType": "address",
          "name": "userAddress",
          "type": "address"
        },
        {
          "components": [
            {
              "internalType": "address",
              "name": "user",
              "type": "address"
            },
            {
              "internalType": "string",
              "name": "userMetadata",
              "type": "string"
            },
            {
              "internalType": "string",
              "name": "verificationEvidence",
              "type": "string"
            },
            {
              "internalType": "enum LibKlerosBadgeModelController.VerificationStatus",
              "name": "verificationStatus",
              "type": "uint8"
            },
            {
              "internalType": "bool",
              "name": "initialized",
              "type": "bool"
            }
          ],
          "internalType": "struct KlerosBadgeModelControllerStore.KlerosUser",
          "name": "newUser",
          "type": "tuple"
        }
      ],
      "name": "registerKlerosUser",
      "outputs": [],
      "stateMutability": "nonpayable",
      "type": "function"
    },
    {
      "inputs": [
        {
          "internalType": "string",
          "name": "_contractName",
          "type": "string"
        }
      ],
      "name": "removePermittedContract",
      "outputs": [],
      "stateMutability": "nonpayable",
      "type": "function"
    },
    {
      "inputs": [],
      "name": "renounceOwnership",
      "outputs": [],
      "stateMutability": "nonpayable",
      "type": "function"
    },
    {
      "inputs": [
        {
          "internalType": "bytes32",
          "name": "role",
          "type": "bytes32"
        },
        {
          "internalType": "address",
          "name": "callerConfirmation",
          "type": "address"
        }
      ],
      "name": "renounceRole",
      "outputs": [],
      "stateMutability": "nonpayable",
      "type": "function"
    },
    {
      "inputs": [
        {
          "internalType": "bytes32",
          "name": "role",
          "type": "bytes32"
        },
        {
          "internalType": "address",
          "name": "account",
          "type": "address"
        }
      ],
      "name": "revokeRole",
      "outputs": [],
      "stateMutability": "nonpayable",
      "type": "function"
    },
    {
      "inputs": [
        {
          "internalType": "uint256",
          "name": "newFee",
          "type": "uint256"
        }
      ],
      "name": "setVerifyUserProtocolFee",
      "outputs": [],
      "stateMutability": "nonpayable",
      "type": "function"
    },
    {
      "inputs": [
        {
          "internalType": "bytes4",
          "name": "interfaceId",
          "type": "bytes4"
        }
      ],
      "name": "supportsInterface",
      "outputs": [
        {
          "internalType": "bool",
          "name": "",
          "type": "bool"
        }
      ],
      "stateMutability": "view",
      "type": "function"
    },
    {
      "inputs": [],
      "name": "tcrFactory",
      "outputs": [
        {
          "internalType": "address",
          "name": "",
          "type": "address"
        }
      ],
      "stateMutability": "view",
      "type": "function"
    },
    {
      "inputs": [
        {
          "internalType": "address",
          "name": "newOwner",
          "type": "address"
        }
      ],
      "name": "transferOwnership",
      "outputs": [],
      "stateMutability": "nonpayable",
      "type": "function"
    },
    {
      "inputs": [
        {
          "internalType": "uint256",
          "name": "badgeModelId",
          "type": "uint256"
        },
        {
          "components": [
            {
              "internalType": "address",
              "name": "owner",
              "type": "address"
            },
            {
              "internalType": "uint256",
              "name": "badgeModelId",
              "type": "uint256"
            },
            {
              "internalType": "address",
              "name": "tcrList",
              "type": "address"
            },
            {
              "internalType": "address",
              "name": "governor",
              "type": "address"
            },
            {
              "internalType": "address",
              "name": "admin",
              "type": "address"
            },
            {
              "internalType": "bool",
              "name": "initialized",
              "type": "bool"
            }
          ],
          "internalType": "struct KlerosBadgeModelControllerStore.KlerosBadgeModel",
          "name": "_klerosBadgeModel",
          "type": "tuple"
        }
      ],
      "name": "updateKlerosBadgeModel",
      "outputs": [],
      "stateMutability": "nonpayable",
      "type": "function"
    },
    {
      "inputs": [
        {
          "internalType": "address",
          "name": "userAddress",
          "type": "address"
        },
        {
          "internalType": "enum LibKlerosBadgeModelController.VerificationStatus",
          "name": "_verificationStatus",
          "type": "uint8"
        }
      ],
      "name": "updateKlerosUserVerificationStatus",
      "outputs": [],
      "stateMutability": "nonpayable",
      "type": "function"
    },
    {
      "inputs": [
        {
          "internalType": "string",
          "name": "_contractName",
          "type": "string"
        },
        {
          "internalType": "address",
          "name": "_newContractAddress",
          "type": "address"
        }
      ],
      "name": "updatePermittedContract",
      "outputs": [],
      "stateMutability": "nonpayable",
      "type": "function"
    },
    {
      "stateMutability": "payable",
      "type": "receive"
    }
  ],
  "bytecode": "0x608080604052346100b8577ff0c57e16840df040f15088dc2f81fe391c3923bec73e23a9662efc9c229c6a009081549060ff8260401c166100a957506001600160401b036002600160401b031982821601610064575b60405161217f90816100bd8239f35b6001600160401b031990911681179091556040519081527fc7f505b2f371ae2175ee4913f4499e1f2633a7b5936321eed1cdaeb6115181d290602090a15f8080610055565b63f92ee8a960e01b8152600490fd5b5f80fdfe6080604090808252600436101561001f575b5050361561001d575f80fd5b005b5f3560e01c90816301ffc9a714611a745750806306d7a28c14611a0c57806308e5bf21146119ee5780630deee176146118fb5780630fceb7461461127c578063202594f8146118cd578063248a9ca3146118955780632f2ff15d1461186b57806336568abe146118255780633e465dd2146114db578063495ef00e1461139257806363d93e68146112e0578063687a0557146112a45780636cc6cde11461127c5780636e24d0731461120e578063715018a6146111a75780637657dbdd146111895780637f3457101461114f57806384101a1714610e895780638da5cb5b1461111b5780638f050f091461101457806391d1485414610fc35780639c5d192214610eb15780639f780b1d14610e89578063a1fa355c14610daf578063a217fddf14610d95578063a41e35c314610d5b578063b26fc20414610c5f578063b7f77e1514610ba7578063c0c53b8b14610a2f578063c22b06a3146109bd578063d547741f14610975578063e1e682e414610909578063e63ab1e9146108cf578063e7343c8a146108b2578063e7705db614610878578063ef76020014610738578063f2fde38b1461070f578063f72c0d8b146106d5578063f8fd555f146102d4578063fb094b68146102365763fc5f18d3146101f95780610011565b34610232575f36600319011261023257602090517f11a8cb5a02bd6c42679835e867ef2118ba78f088f8300511420c6603c21d9c788152f35b5f80fd5b5034610232576020366003190112610232576001600160a01b0380610259611baa565b165f526009602052815f20908154169060ff6102b561027a60018401611cd2565b94600361028960028601611cd2565b940154936102a88251978897885260a0602089015260a0880190611c27565b9186830390870152611c27565b916102c560608501838316611c4c565b60081c16151560808301520390f35b503461023257600319908082360112610232576102ef611baa565b602435916001600160401b03938484116102325760a09084360301126102325780519261031b84611ac7565b6001600160a01b0392600482013584811681036102325785526024820135868111610232576103509060043691850101611b1e565b91602086019283526044810135878111610232576103749060043691840101611b1e565b84870152606481013590600382101561023257608491606088015201358015158103610232576080860152335f52600560205260ff835f205416156106c4578316805f52600960205260016080845f2060ff60038751926103d484611ac7565b8981541684526103e5868201611cd2565b60208501526103f660028201611cd2565b89850152015461040b828216606085016120bb565b60081c1615159182910152146106b3575f526009602052815f209284511660018060a01b0319845416178355518051908582116105d65781906104516001860154611c9a565b601f8111610660575b50602090601f83116001146105f5575f926105ea575b50508160011b915f199060031b1c19161760018301555b60028201908301519384519081116105d6576104a38254611c9a565b601f8111610591575b506020601f821160011461052c578190600395965f92610521575b50508160011b915f1990861b1c19161790555b0190606081015190600382101561050d5760ff61ff0060808554930151151560081b1692169061ffff1916171790555f80f35b634e487b7160e01b5f52602160045260245ffd5b015190505f806104c7565b601f19821695835f5260205f20965f5b8181106105795750916003969791846001959410610562575b505050811b0190556104da565b01515f1983881b60f8161c191690555f8080610555565b8383015189556001909801976020938401930161053c565b825f5260205f20601f830160051c810191602084106105cc575b601f0160051c01905b8181106105c157506104ac565b5f81556001016105b4565b90915081906105ab565b634e487b7160e01b5f52604160045260245ffd5b015190505f80610470565b600186015f908152602081209350601f198516905b8181106106485750908460019594939210610630575b505050811b016001830155610487565b01515f1960f88460031b161c191690555f8080610620565b9293602060018192878601518155019501930161060a565b909150600185015f5260205f20601f840160051c810191602085106106a9575b90601f859493920160051c01905b81811061069b575061045a565b5f815584935060010161068e565b9091508190610680565b8251637815482960e11b8152600490fd5b825163c5a65c6960e01b8152600490fd5b5034610232575f36600319011261023257602090517f189ab7a9244df0848122154315af71fe140f3db0fe014031783b0946b8c9d2e38152f35b346102325760203660031901126102325761001d61072b611baa565b610733611fa0565b611fd8565b50346102325760a036600319011261023257600435610755611b94565b9061075e611c02565b92610767611bc0565b92610770611bd6565b93335f52600560205260ff835f205416156106c457835f526007602052600160ff6004855f20015460a01c1615151461086757610859956004918451916107b683611ae2565b60018060a01b038095168352846020840196888852818186019316835281606086019416845281608086019a168a5260a085019860018a525f5260076020525f209351169560018060a01b03199687855416178455516001840155846002840191511686825416179055836003830191511685825416179055019351169083541617825551151581549060ff60a01b90151560a01b169060ff60a01b1916179055565b6108635f546120e7565b5f55005b8251634d1068bd60e11b8152600490fd5b5034610232575f36600319011261023257602090517f0ce23c3e399818cfee81a7ab0880f714e53d7672b08df0fa62f2843416e1ea098152f35b5034610232575f366003190112610232576020905f549051908152f35b5034610232575f36600319011261023257602090517f65d7a28e3265b37a6474929f336521b332c1681b933f6cb9f3376673440d862a8152f35b503461023257602036600319011261023257335f52600560205260ff815f20541615610965576004355f526008602052805f209060ff600483015460a01c1615610955575f6003830155005b51630c11d07360e01b8152600490fd5b5163c5a65c6960e01b8152600490fd5b503461023257806003193601126102325761001d906004356109b8600161099a611b94565b93835f525f8051602061212a8339815191526020525f200154611dca565b611f20565b50346102325760203660031901126102325760c0906004355f52600760205260ff815f209160018060a01b0380845416936001810154928260028301541690600484600385015416930154948151978852602088015286015260608501528116608084015260a01c16151560a0820152f35b503461023257606036600319011261023257610a49611baa565b610a51611b94565b90610a5a611c02565b917ff0c57e16840df040f15088dc2f81fe391c3923bec73e23a9662efc9c229c6a009283549260ff84871c1615936001600160401b03811680159081610b9f575b6001149081610b95575b159081610b8c575b50610b7b5767ffffffffffffffff1981166001178655610aed919085610b5c575b50610ad7612049565b610adf612049565b610ae881611fd8565b611df8565b50600280546001600160a01b039384166001600160a01b031991821617909155600380549290931691161790555f600455610b2457005b805460ff60401b1916905551600181527fc7f505b2f371ae2175ee4913f4499e1f2633a7b5936321eed1cdaeb6115181d290602090a1005b68ffffffffffffffffff1916680100000000000000011786555f610ace565b865163f92ee8a960e01b8152600490fd5b9050155f610aad565b303b159150610aa5565b869150610a9b565b50346102325760203660031901126102325760c090610bc461208a565b506004355f526007602052805f20908051610bde81611ae2565b60018060a01b0390818085541694858352600181015494602084019586528280600284015416828601908152600482600386015416946060880195865201549760ff60a06080890198858c168a52019960a01c16151589528351998a525160208a0152511690870152511660608501525116608083015251151560a0820152f35b503461023257610c6e36611c59565b90610c77611d73565b6001600160a01b03918216918215610d4a5783519082519160208181860194610ca1818388611b73565b8101600681520301902054168015610d3957610d1393946001915f526005602052610ce56020825f209460ff19958681541690558351809381928951928391611b73565b8101600681520301902086838060a01b0319825416179055855f5260056020525f20918254161790556120c7565b7ff611fec7babefd259c57ea5b6006acff8140ab17bb816c65ba0aa7e36c09caa85f80a3005b845163f1ed16fb60e01b8152600490fd5b8351631c089e4160e31b8152600490fd5b5034610232575f36600319011261023257602090517fcbaaf41b181bb6e269c490e876a7c97711b57e21dd8e5528423cf57579726b358152f35b5034610232575f36600319011261023257602090515f8152f35b503461023257610dbe36611c59565b90610dc7611d73565b6001600160a01b03918216918215610d4a5783519082519160208181860194610df1818388611b73565b810160068152030190205416610e785792610e1c6020610e5294958351809381928751928391611b73565b60069082019081520301902080546001600160a01b031916851790555f848152600560205220805460ff191660011790556120c7565b7f8b4ef7d4e5bc8f098e6f637ac0acf4aee47b3f027efea6307264b06b4bc9d2985f80a3005b8351639ce6538360e01b8152600490fd5b5034610232575f3660031901126102325760035490516001600160a01b039091168152602090f35b50346102325760e03660031901126102325760c0366023190112610232578051610eda81611ae2565b6024358152602081016044358152610ef0611bc0565b83830190815260608301906084358252610f08611bec565b9360808101948552610f18611c18565b9360a08201948552335f52600560205260ff875f20541615610fb257600480355f9081526008602052979097209151825551600182015590516002820180546001600160a01b039283166001600160a01b0319909116179055915160038201559251929093018054915160ff60a01b90151560a01b16929093166001600160a81b031990911617179055610fad6001546120e7565b600155005b865163c5a65c6960e01b8152600490fd5b5034610232578060031936011261023257602090610fdf611b94565b6004355f525f8051602061212a8339815191528352815f209060018060a01b03165f52825260ff815f20541690519015158152f35b5034610232576020908160031936011261023257611030611baa565b915f6080835161103f81611ac7565b828152606084820152606085820152826060820152015260018060a01b038093165f5260098152815f209161110f61110382519461107c86611ac7565b8681541686526110f061109160018301611cd2565b9486880195865260a060036110a860028601611cd2565b94838b0195865201549660608a01986110c460ff8a168b6120bb565b60ff60808c019960081c161515895283519b8c9b828d525116908b0152519189015260c0880190611c27565b9051868203601f19016060880152611c27565b92516080850190611c4c565b51151560a08301520390f35b5034610232575f366003190112610232575f8051602061210a8339815191525490516001600160a01b039091168152602090f35b5034610232575f36600319011261023257602090517f7804d923f43a17d325d77e781528e0793b2edd9890ab45fc64efd7b4b427744c8152f35b5034610232575f366003190112610232576020906004549051908152f35b34610232575f366003190112610232576111bf611fa0565b5f8051602061210a83398151915280546001600160a01b031981169091555f906001600160a01b03167f8be0079c531659141344cd1fd0a4f28419497f9722a3daafe3b4186f6b6457e08280a3005b50346102325760203660031901126102325760c0906004355f52600860205260ff815f2080549260018201549160018060a01b0391826002830154169060046003840154930154948151978852602088015286015260608501528116608084015260a01c16151560a0820152f35b5034610232575f3660031901126102325760025490516001600160a01b039091168152602090f35b5034610232576020366003190112610232576020906001600160a01b036112c9611baa565b165f526005825260ff815f20541690519015158152f35b50346102325760203660031901126102325760c0906112fd61208a565b506004355f526008602052805f2081519161131783611ae2565b8154928381526001830154926020820193845260018060a01b0392838060028401541682850190815260046003850154946060870195865201549660ff60a06080880197858b168952019860a01c161515885283519889525160208901525116908601525160608501525116608083015251151560a0820152f35b50346102325760e03660031901126102325760043560c0366023190112610232578151906113bf82611ae2565b6113c7611b94565b82526020820160443581526113da611bc0565b918484019283526113e9611bd6565b93606081019485526113f9611bec565b9460808201958652611409611c18565b9460a08301958652335f52600560205260ff885f205416156114ca575f8481526007602052889020546001600160a01b0394908516156114b957908461001d9960049594935f5260076020525f209351169560018060a01b03199687855416178455516001840155846002840191511686825416179055836003830191511685825416179055019351169083541617825551151581549060ff60a01b90151560a01b169060ff60a01b1916179055565b885163018e27b760e31b8152600490fd5b875163c5a65c6960e01b8152600490fd5b50346102325780600319360112610232576114f4611baa565b60243590600382101561023257335f52600560205260ff835f205416156106c4576001600160a01b039081165f818152600960205284902084519490919061153b86611ac7565b83835416865261154d60018401611cd2565b9160208701928352600361156360028601611cd2565b9483890195865201549561157d60ff881660608a016120bb565b60ff608089019760081c1615801588526118145761159e90606089016120bb565b5f908152600960205220855181546001600160a01b03191694169390931783555180516001600160401b0391908281116105d657806115e06001870154611c9a565b92601f938481116117c3575b50602090848311600114611758575f9261174d575b50508160011b915f199060031b1c19161760018501555b60028401925180519283116105d6576116318454611c9a565b82811161170b575b5060209183116001146116a257918060039492606096945f92611697575b50508160011b915f1990861b1c19161790555b0192015190600382101561050d5760ff61ff0084549251151560081b1692169061ffff1916171790555f80f35b015190505f80611657565b90601f19831691845f5260205f20925f5b8181106116f357509260019285926060989660039896106116dc575b505050811b01905561166a565b01515f1983881b60f8161c191690555f80806116cf565b929360206001819287860151815501950193016116b3565b845f5260205f208380860160051c82019260208710611744575b0160051c01905b8181106117395750611639565b5f815560010161172c565b92508192611725565b015190505f80611601565b600188015f908152602081209350601f198516905b8181106117ab5750908460019594939210611793575b505050811b016001850155611618565b01515f1960f88460031b161c191690555f8080611783565b9293602060018192878601518155019501930161176d565b909150600187015f5260205f208480850160051c8201926020861061180b575b9085949392910160051c01905b8181106117fd57506115ec565b5f81558493506001016117f0565b925081926117e3565b825163bb572dbf60e01b8152600490fd5b503461023257806003193601126102325761183e611b94565b90336001600160a01b0383160361185b5761001d82600435611f20565b5163334bd91960e11b8152600490fd5b503461023257806003193601126102325761001d90600435611890600161099a611b94565b611e96565b5034610232576020366003190112610232576020906004355f525f8051602061212a83398151915282526001815f2001549051908152f35b503461023257602036600319011261023257335f52600560205260ff815f2054161561096557600480359055005b5034610232576020366003190112610232576004356001600160401b0381116102325761192c903690600401611b1e565b611934611d73565b815190805191602082019261194a818386611b73565b60069082019081528190036020019020546001600160a01b03169182156119dd579261198660206119b794958351809381928751928391611b73565b60069082019081520301902080546001600160a01b03191690555f848152600560205220805460ff191690556120c7565b7f7ad6d7c73213a93d033801d72c729d90fb72104796b75ad799858b26f2b9872f5f80a3005b835163f1ed16fb60e01b8152600490fd5b5034610232575f366003190112610232576020906001549051908152f35b503461023257602036600319011261023257600435906001600160401b03821161023257611a406020923690600401611b1e565b82611a5383519283815193849201611b73565b6006908201908152819003830190205490516001600160a01b039091168152f35b34610232576020366003190112610232576004359063ffffffff60e01b821680920361023257602091637965db0b60e01b8114908115611ab6575b5015158152f35b6301ffc9a760e01b14905083611aaf565b60a081019081106001600160401b038211176105d657604052565b60c081019081106001600160401b038211176105d657604052565b90601f801991011681019081106001600160401b038211176105d657604052565b81601f82011215610232578035906001600160401b0382116105d65760405192611b52601f8401601f191660200185611afd565b8284526020838301011161023257815f926020809301838601378301015290565b5f5b838110611b845750505f910152565b8181015183820152602001611b75565b602435906001600160a01b038216820361023257565b600435906001600160a01b038216820361023257565b606435906001600160a01b038216820361023257565b608435906001600160a01b038216820361023257565b60a435906001600160a01b038216820361023257565b604435906001600160a01b038216820361023257565b60c43590811515820361023257565b90602091611c4081518092818552858086019101611b73565b601f01601f1916010190565b90600382101561050d5752565b604060031982011261023257600435906001600160401b03821161023257611c8391600401611b1e565b906024356001600160a01b03811681036102325790565b90600182811c92168015611cc8575b6020831014611cb457565b634e487b7160e01b5f52602260045260245ffd5b91607f1691611ca9565b9060405191825f825492611ce584611c9a565b9081845260019485811690815f14611d505750600114611d10575b5050611d0e92500383611afd565b565b909391505f52602090815f20935f915b818310611d38575050611d0e93508201015f80611d00565b85548884018501529485019487945091830191611d20565b915050611d0e94506020925060ff191682840152151560051b8201015f80611d00565b335f9081527fb7db2dd08fcb62d0c9e08c51941cae53c267786a0b75803fb7960902fc8ef97d602052604081205460ff1615611dac5750565b6044906040519063e2517d3f60e01b82523360048301526024820152fd5b805f525f8051602061212a83398151915260205260405f20335f5260205260ff60405f20541615611dac5750565b6001600160a01b03165f8181527fb7db2dd08fcb62d0c9e08c51941cae53c267786a0b75803fb7960902fc8ef97d60205260408120549091905f8051602061212a8339815191529060ff16611e91578280526020526040822081835260205260408220600160ff1982541617905533917f2f8788117e7eff1d82e926ec794901d17c78024a50270940304540a733656f0d8180a4600190565b505090565b905f918083525f8051602061212a83398151915280602052604084209260018060a01b03169283855260205260ff604085205416155f14611f1a578184526020526040832082845260205260408320600160ff198254161790557f2f8788117e7eff1d82e926ec794901d17c78024a50270940304540a733656f0d339380a4600190565b50505090565b905f918083525f8051602061212a83398151915280602052604084209260018060a01b03169283855260205260ff6040852054165f14611f1a57818452602052604083208284526020526040832060ff1981541690557ff6391f5c32d9c69d2a47ea670b442974b53935d1edc7fd64eb21e047a839171b339380a4600190565b5f8051602061210a833981519152546001600160a01b03163303611fc057565b60405163118cdaa760e01b8152336004820152602490fd5b6001600160a01b03908116908115612031575f8051602061210a83398151915280546001600160a01b031981168417909155167f8be0079c531659141344cd1fd0a4f28419497f9722a3daafe3b4186f6b6457e05f80a3565b604051631e4fbdf760e01b81525f6004820152602490fd5b60ff7ff0c57e16840df040f15088dc2f81fe391c3923bec73e23a9662efc9c229c6a005460401c161561207857565b604051631afcd79f60e31b8152600490fd5b6040519061209782611ae2565b8160a05f918281528260208201528260408201528260608201528260808201520152565b600382101561050d5752565b6120df90602060405192828480945193849201611b73565b810103902090565b5f1981146120f55760010190565b634e487b7160e01b5f52601160045260245ffdfe9016d09d72d40fdae2fd8ceac6b6234c7706214fd39c1cd1e609a0528c19930002dd7bc7dec4dceedda775e58dd541e08a116c6c53815c0bd028192f7b626800a264697066735822122004d207a1724fbc760f50ef6246f82d6c5b24db70a9f90e74d0e36353d06458ed64736f6c63430008140033",
  "linkReferences": {},
  "deployedLinkReferences": {}
}