{
  "_format": "hh-sol-artifact-1",
  "contractName": "KlerosBadgeModelController",
  "sourceName": "src/contracts/badgeModelControllers/KlerosBadgeModelController.sol",
  "abi": [
    {
      "inputs": [],
      "stateMutability": "nonpayable",
      "type": "constructor"
    },
    {
      "inputs": [],
      "name": "KlerosBadgeModelController__badge__notInChallengeableStatus",
      "type": "error"
    },
    {
      "inputs": [],
      "name": "KlerosBadgeModelController__claimBadge_insufficientBalance",
      "type": "error"
    },
    {
      "inputs": [],
      "name": "KlerosBadgeModelController__createBadgeModel_TCRListAddressZero",
      "type": "error"
    },
    {
      "inputs": [],
      "name": "KlerosBadgeModelController__createBadgeModel_badgeModelAlreadyCreated",
      "type": "error"
    },
    {
      "inputs": [],
      "name": "KlerosBadgeModelController__mintBadge_alreadyMinted",
      "type": "error"
    },
    {
      "inputs": [],
      "name": "KlerosBadgeModelController__mintBadge_isPaused",
      "type": "error"
    },
    {
      "inputs": [],
      "name": "KlerosBadgeModelController__mintBadge_wrongBadgeModel",
      "type": "error"
    },
    {
      "inputs": [],
      "name": "KlerosBadgeModelController__mintBadge_wrongValue",
      "type": "error"
    },
    {
      "inputs": [],
      "name": "KlerosBadgeModelController__onlyTheBadge_senderNotTheBadge",
      "type": "error"
    },
    {
      "anonymous": false,
      "inputs": [
        {
          "indexed": false,
          "internalType": "address",
          "name": "previousAdmin",
          "type": "address"
        },
        {
          "indexed": false,
          "internalType": "address",
          "name": "newAdmin",
          "type": "address"
        }
      ],
      "name": "AdminChanged",
      "type": "event"
    },
    {
      "anonymous": false,
      "inputs": [
        {
          "indexed": true,
          "internalType": "address",
          "name": "beacon",
          "type": "address"
        }
      ],
      "name": "BeaconUpgraded",
      "type": "event"
    },
    {
      "anonymous": false,
      "inputs": [
        {
          "indexed": true,
          "internalType": "address",
          "name": "recipient",
          "type": "address"
        },
        {
          "indexed": false,
          "internalType": "uint256",
          "name": "amount",
          "type": "uint256"
        },
        {
          "indexed": true,
          "internalType": "uint256",
          "name": "badgeId",
          "type": "uint256"
        }
      ],
      "name": "DepositReturned",
      "type": "event"
    },
    {
      "anonymous": false,
      "inputs": [
        {
          "indexed": false,
          "internalType": "uint8",
          "name": "version",
          "type": "uint8"
        }
      ],
      "name": "Initialized",
      "type": "event"
    },
    {
      "anonymous": false,
      "inputs": [
        {
          "indexed": true,
          "internalType": "uint256",
          "name": "badgeId",
          "type": "uint256"
        },
        {
          "indexed": true,
          "internalType": "address",
          "name": "wallet",
          "type": "address"
        },
        {
          "indexed": false,
          "internalType": "string",
          "name": "evidence",
          "type": "string"
        },
        {
          "indexed": false,
          "internalType": "address",
          "name": "sender",
          "type": "address"
        }
      ],
      "name": "KlerosBadgeChallenged",
      "type": "event"
    },
    {
      "anonymous": false,
      "inputs": [
        {
          "indexed": true,
          "internalType": "uint256",
          "name": "badgeId",
          "type": "uint256"
        },
        {
          "indexed": false,
          "internalType": "string",
          "name": "evidence",
          "type": "string"
        }
      ],
      "name": "MintKlerosBadge",
      "type": "event"
    },
    {
      "anonymous": false,
      "inputs": [
        {
          "indexed": true,
          "internalType": "uint256",
          "name": "badgeModelId",
          "type": "uint256"
        },
        {
          "indexed": true,
          "internalType": "address",
          "name": "tcrAddress",
          "type": "address"
        },
        {
          "indexed": false,
          "internalType": "string",
          "name": "metadataUri",
          "type": "string"
        }
      ],
      "name": "NewKlerosBadgeModel",
      "type": "event"
    },
    {
      "anonymous": false,
      "inputs": [
        {
          "indexed": true,
          "internalType": "bytes32",
          "name": "role",
          "type": "bytes32"
        },
        {
          "indexed": true,
          "internalType": "bytes32",
          "name": "previousAdminRole",
          "type": "bytes32"
        },
        {
          "indexed": true,
          "internalType": "bytes32",
          "name": "newAdminRole",
          "type": "bytes32"
        }
      ],
      "name": "RoleAdminChanged",
      "type": "event"
    },
    {
      "anonymous": false,
      "inputs": [
        {
          "indexed": true,
          "internalType": "bytes32",
          "name": "role",
          "type": "bytes32"
        },
        {
          "indexed": true,
          "internalType": "address",
          "name": "account",
          "type": "address"
        },
        {
          "indexed": true,
          "internalType": "address",
          "name": "sender",
          "type": "address"
        }
      ],
      "name": "RoleGranted",
      "type": "event"
    },
    {
      "anonymous": false,
      "inputs": [
        {
          "indexed": true,
          "internalType": "bytes32",
          "name": "role",
          "type": "bytes32"
        },
        {
          "indexed": true,
          "internalType": "address",
          "name": "account",
          "type": "address"
        },
        {
          "indexed": true,
          "internalType": "address",
          "name": "sender",
          "type": "address"
        }
      ],
      "name": "RoleRevoked",
      "type": "event"
    },
    {
      "anonymous": false,
      "inputs": [
        {
          "indexed": true,
          "internalType": "address",
          "name": "implementation",
          "type": "address"
        }
      ],
      "name": "Upgraded",
      "type": "event"
    },
    {
      "inputs": [],
      "name": "DEFAULT_ADMIN_ROLE",
      "outputs": [
        {
          "internalType": "bytes32",
          "name": "",
          "type": "bytes32"
        }
      ],
      "stateMutability": "view",
      "type": "function"
    },
    {
      "inputs": [],
      "name": "FEE_COLLECTOR_ROLE",
      "outputs": [
        {
          "internalType": "bytes32",
          "name": "",
          "type": "bytes32"
        }
      ],
      "stateMutability": "view",
      "type": "function"
    },
    {
      "inputs": [],
      "name": "MINTER_ROLE",
      "outputs": [
        {
          "internalType": "bytes32",
          "name": "",
          "type": "bytes32"
        }
      ],
      "stateMutability": "view",
      "type": "function"
    },
    {
      "inputs": [],
      "name": "PAUSER_ROLE",
      "outputs": [
        {
          "internalType": "bytes32",
          "name": "",
          "type": "bytes32"
        }
      ],
      "stateMutability": "view",
      "type": "function"
    },
    {
      "inputs": [],
      "name": "UPGRADER_ROLE",
      "outputs": [
        {
          "internalType": "bytes32",
          "name": "",
          "type": "bytes32"
        }
      ],
      "stateMutability": "view",
      "type": "function"
    },
    {
      "inputs": [],
      "name": "URI_SETTER_ROLE",
      "outputs": [
        {
          "internalType": "bytes32",
          "name": "",
          "type": "bytes32"
        }
      ],
      "stateMutability": "view",
      "type": "function"
    },
    {
      "inputs": [],
      "name": "arbitrator",
      "outputs": [
        {
          "internalType": "contract IArbitrator",
          "name": "",
          "type": "address"
        }
      ],
      "stateMutability": "view",
      "type": "function"
    },
    {
      "inputs": [
        {
          "internalType": "uint256",
          "name": "",
          "type": "uint256"
        },
        {
          "internalType": "address",
          "name": "",
          "type": "address"
        }
      ],
      "name": "canMint",
      "outputs": [
        {
          "internalType": "bool",
          "name": "",
          "type": "bool"
        }
      ],
      "stateMutability": "pure",
      "type": "function"
    },
    {
      "inputs": [
        {
          "internalType": "uint256",
          "name": "badgeId",
          "type": "uint256"
        }
      ],
      "name": "claim",
      "outputs": [],
      "stateMutability": "nonpayable",
      "type": "function"
    },
    {
      "inputs": [
        {
          "internalType": "uint256",
          "name": "badgeModelId",
          "type": "uint256"
        },
        {
          "internalType": "bytes",
          "name": "data",
          "type": "bytes"
        }
      ],
      "name": "createBadgeModel",
      "outputs": [],
      "stateMutability": "nonpayable",
      "type": "function"
    },
    {
      "inputs": [
        {
          "internalType": "uint256",
          "name": "badgeId",
          "type": "uint256"
        }
      ],
      "name": "getChallengeDepositValue",
      "outputs": [
        {
          "internalType": "uint256",
          "name": "",
          "type": "uint256"
        }
      ],
      "stateMutability": "view",
      "type": "function"
    },
    {
      "inputs": [
        {
          "internalType": "uint256",
          "name": "badgeId",
          "type": "uint256"
        }
      ],
      "name": "getRemovalDepositValue",
      "outputs": [
        {
          "internalType": "uint256",
          "name": "",
          "type": "uint256"
        }
      ],
      "stateMutability": "view",
      "type": "function"
    },
    {
      "inputs": [
        {
          "internalType": "bytes32",
          "name": "role",
          "type": "bytes32"
        }
      ],
      "name": "getRoleAdmin",
      "outputs": [
        {
          "internalType": "bytes32",
          "name": "",
          "type": "bytes32"
        }
      ],
      "stateMutability": "view",
      "type": "function"
    },
    {
      "inputs": [
        {
          "internalType": "bytes32",
          "name": "role",
          "type": "bytes32"
        },
        {
          "internalType": "address",
          "name": "account",
          "type": "address"
        }
      ],
      "name": "grantRole",
      "outputs": [],
      "stateMutability": "nonpayable",
      "type": "function"
    },
    {
      "inputs": [
        {
          "internalType": "bytes32",
          "name": "role",
          "type": "bytes32"
        },
        {
          "internalType": "address",
          "name": "account",
          "type": "address"
        }
      ],
      "name": "hasRole",
      "outputs": [
        {
          "internalType": "bool",
          "name": "",
          "type": "bool"
        }
      ],
      "stateMutability": "view",
      "type": "function"
    },
    {
      "inputs": [
        {
          "internalType": "address",
          "name": "admin",
          "type": "address"
        },
        {
          "internalType": "address",
          "name": "_theBadge",
          "type": "address"
        },
        {
          "internalType": "address",
          "name": "_arbitrator",
          "type": "address"
        },
        {
          "internalType": "address",
          "name": "_tcrFactory",
          "type": "address"
        }
      ],
      "name": "initialize",
      "outputs": [],
      "stateMutability": "nonpayable",
      "type": "function"
    },
    {
      "inputs": [
        {
          "internalType": "uint256",
          "name": "badgeId",
          "type": "uint256"
        }
      ],
      "name": "isAssetActive",
      "outputs": [
        {
          "internalType": "bool",
          "name": "",
          "type": "bool"
        }
      ],
      "stateMutability": "view",
      "type": "function"
    },
    {
      "inputs": [
        {
          "internalType": "uint256",
          "name": "",
          "type": "uint256"
        }
      ],
      "name": "klerosBadge",
      "outputs": [
        {
          "internalType": "bytes32",
          "name": "itemID",
          "type": "bytes32"
        },
        {
          "internalType": "address",
          "name": "callee",
          "type": "address"
        },
        {
          "internalType": "uint256",
          "name": "deposit",
          "type": "uint256"
        },
        {
          "internalType": "bool",
          "name": "initialized",
          "type": "bool"
        }
      ],
      "stateMutability": "view",
      "type": "function"
    },
    {
      "inputs": [
        {
          "internalType": "uint256",
          "name": "",
          "type": "uint256"
        }
      ],
      "name": "klerosBadgeModel",
      "outputs": [
        {
          "internalType": "address",
          "name": "tcrList",
          "type": "address"
        }
      ],
      "stateMutability": "view",
      "type": "function"
    },
    {
      "inputs": [
        {
          "internalType": "address",
          "name": "callee",
          "type": "address"
        },
        {
          "internalType": "uint256",
          "name": "badgeModelId",
          "type": "uint256"
        },
        {
          "internalType": "uint256",
          "name": "badgeId",
          "type": "uint256"
        },
        {
          "internalType": "bytes",
          "name": "data",
          "type": "bytes"
        }
      ],
      "name": "mint",
      "outputs": [
        {
          "internalType": "uint256",
          "name": "",
          "type": "uint256"
        }
      ],
      "stateMutability": "payable",
      "type": "function"
    },
    {
      "inputs": [
        {
          "internalType": "uint256",
          "name": "badgeModelId",
          "type": "uint256"
        }
      ],
      "name": "mintValue",
      "outputs": [
        {
          "internalType": "uint256",
          "name": "",
          "type": "uint256"
        }
      ],
      "stateMutability": "view",
      "type": "function"
    },
    {
      "inputs": [],
      "name": "proxiableUUID",
      "outputs": [
        {
          "internalType": "bytes32",
          "name": "",
          "type": "bytes32"
        }
      ],
      "stateMutability": "view",
      "type": "function"
    },
    {
      "inputs": [
        {
          "internalType": "bytes32",
          "name": "role",
          "type": "bytes32"
        },
        {
          "internalType": "address",
          "name": "account",
          "type": "address"
        }
      ],
      "name": "renounceRole",
      "outputs": [],
      "stateMutability": "nonpayable",
      "type": "function"
    },
    {
      "inputs": [
        {
          "internalType": "bytes32",
          "name": "role",
          "type": "bytes32"
        },
        {
          "internalType": "address",
          "name": "account",
          "type": "address"
        }
      ],
      "name": "revokeRole",
      "outputs": [],
      "stateMutability": "nonpayable",
      "type": "function"
    },
    {
      "inputs": [
        {
          "internalType": "bytes4",
          "name": "interfaceId",
          "type": "bytes4"
        }
      ],
      "name": "supportsInterface",
      "outputs": [
        {
          "internalType": "bool",
          "name": "",
          "type": "bool"
        }
      ],
      "stateMutability": "view",
      "type": "function"
    },
    {
      "inputs": [],
      "name": "tcrFactory",
      "outputs": [
        {
          "internalType": "address",
          "name": "",
          "type": "address"
        }
      ],
      "stateMutability": "view",
      "type": "function"
    },
    {
      "inputs": [],
      "name": "theBadge",
      "outputs": [
        {
          "internalType": "contract TheBadge",
          "name": "",
          "type": "address"
        }
      ],
      "stateMutability": "view",
      "type": "function"
    },
    {
      "inputs": [
        {
          "internalType": "address",
          "name": "newImplementation",
          "type": "address"
        }
      ],
      "name": "upgradeTo",
      "outputs": [],
      "stateMutability": "nonpayable",
      "type": "function"
    },
    {
      "inputs": [
        {
          "internalType": "address",
          "name": "newImplementation",
          "type": "address"
        },
        {
          "internalType": "bytes",
          "name": "data",
          "type": "bytes"
        }
      ],
      "name": "upgradeToAndCall",
      "outputs": [],
      "stateMutability": "payable",
      "type": "function"
    },
    {
      "stateMutability": "payable",
      "type": "receive"
    }
  ],
  "bytecode": "0x60a0604052306080523480156200001557600080fd5b50600054610100900460ff1615808015620000375750600054600160ff909116105b8062000067575062000054306200014160201b6200170b1760201c565b15801562000067575060005460ff166001145b620000cf5760405162461bcd60e51b815260206004820152602e60248201527f496e697469616c697a61626c653a20636f6e747261637420697320616c72656160448201526d191e481a5b9a5d1a585b1a5e995960921b606482015260840160405180910390fd5b6000805460ff191660011790558015620000f3576000805461ff0019166101001790555b80156200013a576000805461ff0019169055604051600181527f7f26b83ff96e1f2b6a682f133852f6798a09c465da95921460cefb38474024989060200160405180910390a15b5062000150565b6001600160a01b03163b151590565b608051612d3162000188600039600081816108560152818161089601528181610b0601528181610b460152610bd50152612d316000f3fe6080604052600436106101d15760003560e01c806377a3989e116100f7578063a217fddf11610095578063d7deba1511610064578063d7deba1514610602578063e63ab1e914610622578063f72c0d8b14610656578063f8c8765e1461068a57600080fd5b8063a217fddf14610573578063caa39ec514610588578063d5391393146105ae578063d547741f146105e257600080fd5b80637f345710116100d15780637f345710146104dc5780638f4e76b91461051057806391d14854146105335780639f780b1d1461055357600080fd5b806377a3989e1461046657806377addc42146104865780637eb7f176146104bc57600080fd5b8063379607f51161016f57806362a2a47c1161013e57806362a2a47c146103c7578063632f7c83146103fb5780636cc6cde11461041b578063731133e91461045357600080fd5b8063379607f51461030657806337a65d05146103265780634f1ef2861461039f57806352d1902d146103b257600080fd5b8063248a9ca3116101ab578063248a9ca3146102745780632f2ff15d146102a457806336568abe146102c65780633659cfe6146102e657600080fd5b806301ffc9a7146101dd5780631e0634031461021257806322e900c21461025457600080fd5b366101d857005b600080fd5b3480156101e957600080fd5b506101fd6101f8366004612101565b6106aa565b60405190151581526020015b60405180910390f35b34801561021e57600080fd5b506102467f905e7c6bceabadb31a2ebbb666d0d6df4dfb3156f376c424680851d38988ea8481565b604051908152602001610209565b34801561026057600080fd5b506101fd61026f36600461212b565b6106e1565b34801561028057600080fd5b5061024661028f36600461212b565b600090815260cd602052604090206001015490565b3480156102b057600080fd5b506102c46102bf366004612169565b61079f565b005b3480156102d257600080fd5b506102c46102e1366004612169565b6107c9565b3480156102f257600080fd5b506102c4610301366004612199565b61084c565b34801561031257600080fd5b506102c461032136600461212b565b61092b565b34801561033257600080fd5b5061037561034136600461212b565b600460205260009081526040902080546001820154600283015460039093015491926001600160a01b039091169160ff1684565b604080519485526001600160a01b0390931660208501529183015215156060820152608001610209565b6102c46103ad3660046122ce565b610afc565b3480156103be57600080fd5b50610246610bc8565b3480156103d357600080fd5b506102467f2dca0f5ce7e75a4b43fe2b0d6f5d0b7a2bf92ecf89f8f0aa17b8308b6703882181565b34801561040757600080fd5b5061024661041636600461212b565b610c7b565b34801561042757600080fd5b5060015461043b906001600160a01b031681565b6040516001600160a01b039091168152602001610209565b610246610461366004612379565b610de4565b34801561047257600080fd5b506102c46104813660046123e2565b610fbd565b34801561049257600080fd5b5061043b6104a136600461212b565b6003602052600090815260409020546001600160a01b031681565b3480156104c857600080fd5b506102466104d736600461212b565b6112c3565b3480156104e857600080fd5b506102467f7804d923f43a17d325d77e781528e0793b2edd9890ab45fc64efd7b4b427744c81565b34801561051c57600080fd5b506101fd61052b366004612169565b600192915050565b34801561053f57600080fd5b506101fd61054e366004612169565b611357565b34801561055f57600080fd5b5060025461043b906001600160a01b031681565b34801561057f57600080fd5b50610246600081565b34801561059457600080fd5b5060005461043b906201000090046001600160a01b031681565b3480156105ba57600080fd5b506102467f9f2df0fed2c77648de5860a4cc508cd0818c85b8b8a1ab4ceeef8d981c8956a681565b3480156105ee57600080fd5b506102c46105fd366004612169565b611382565b34801561060e57600080fd5b5061024661061d36600461212b565b6113a7565b34801561062e57600080fd5b506102467f65d7a28e3265b37a6474929f336521b332c1681b933f6cb9f3376673440d862a81565b34801561066257600080fd5b506102467f189ab7a9244df0848122154315af71fe140f3db0fe014031783b0946b8c9d2e381565b34801561069657600080fd5b506102c46106a536600461242d565b61154e565b60006001600160e01b03198216637965db0b60e01b14806106db57506301ffc9a760e01b6001600160e01b03198316145b92915050565b6000806106ed8361171a565b600084815260046020819052604080832080549151634aac84e560e01b8152928301919091529293506001600160a01b03841690634aac84e590602401606060405180830381865afa158015610747573d6000803e3d6000fd5b505050506040513d601f19601f8201168201806040525081019061076b9190612489565b505090508060ff166001148061078457508060ff166003145b1561079457506001949350505050565b506000949350505050565b600082815260cd60205260409020600101546107ba81611824565b6107c4838361182e565b505050565b6001600160a01b038116331461083e5760405162461bcd60e51b815260206004820152602f60248201527f416363657373436f6e74726f6c3a2063616e206f6e6c792072656e6f756e636560448201526e103937b632b9903337b91039b2b63360891b60648201526084015b60405180910390fd5b61084882826118b4565b5050565b6001600160a01b037f00000000000000000000000000000000000000000000000000000000000000001630036108945760405162461bcd60e51b8152600401610835906124c6565b7f00000000000000000000000000000000000000000000000000000000000000006001600160a01b03166108dd600080516020612cb5833981519152546001600160a01b031690565b6001600160a01b0316146109035760405162461bcd60e51b815260040161083590612512565b61090c8161191b565b6040805160008082526020820190925261092891839190611945565b50565b60006109368261171a565b6000838152600460208181526040928390208351608081018552815480825260018301546001600160a01b039081169483019490945260028301548287015260039092015460ff161515606082015293516374e120b360e11b815292830152929350909183169063e9c2416690602401600060405180830381600087803b1580156109c057600080fd5b505af11580156109d4573d6000803e3d6000fd5b5050505047816040015111156109fd576040516398e2a0bb60e01b815260040160405180910390fd5b604081810180516000918290526020840151925190926001600160a01b03169083908381818185875af1925050503d8060008114610a57576040519150601f19603f3d011682016040523d82523d6000602084013e610a5c565b606091505b5050905080610aad5760405162461bcd60e51b815260206004820152601c60248201527f4661696c656420746f2072657475726e20746865206465706f736974000000006044820152606401610835565b8483602001516001600160a01b03167f9794db68af033346a63dbc4509364afc3a23201eced8a4f3bc64d029abfacc6584604051610aed91815260200190565b60405180910390a35050505050565b6001600160a01b037f0000000000000000000000000000000000000000000000000000000000000000163003610b445760405162461bcd60e51b8152600401610835906124c6565b7f00000000000000000000000000000000000000000000000000000000000000006001600160a01b0316610b8d600080516020612cb5833981519152546001600160a01b031690565b6001600160a01b031614610bb35760405162461bcd60e51b815260040161083590612512565b610bbc8261191b565b61084882826001611945565b6000306001600160a01b037f00000000000000000000000000000000000000000000000000000000000000001614610c685760405162461bcd60e51b815260206004820152603860248201527f555550535570677261646561626c653a206d757374206e6f742062652063616c60448201527f6c6564207468726f7567682064656c656761746563616c6c00000000000000006064820152608401610835565b50600080516020612cb583398151915290565b6000818152600360205260408082208054600154835163063d63db60e11b8152935192936001600160a01b039283169386939092169163f7434ea9918591630c7ac7b69160048082019288929091908290030181865afa158015610ce3573d6000803e3d6000fd5b505050506040513d6000823e601f3d908101601f19168201604052610d0b91908101906125c7565b6040518263ffffffff1660e01b8152600401610d279190612627565b602060405180830381865afa158015610d44573d6000803e3d6000fd5b505050506040513d601f19601f82011682018060405250810190610d68919061263a565b90506000826001600160a01b031663bb0b86ff6040518163ffffffff1660e01b8152600401602060405180830381865afa158015610daa573d6000803e3d6000fd5b505050506040513d601f19601f82011682018060405250810190610dce919061263a565b9050610dda8183612669565b9695505050505050565b600080610df086610c7b565b9050803414610e1257604051637bcb3e5760e01b815260040160405180910390fd5b6000868152600360205260408120805490916001600160a01b0390911690610e3c8688018861269c565b80516040516309fa7ca560e21b81529192506001600160a01b038416916327e9f294913491610e6e9190600401612627565b6000604051808303818588803b158015610e8757600080fd5b505af1158015610e9b573d6000803e3d6000fd5b505050505060008160000151604051602001610eb7919061271e565b60405160208183030381529060405280519060200120905060405180608001604052808281526020018c6001600160a01b0316815260200134815260200160011515815250600460008b81526020019081526020016000206000820151816000015560208201518160010160006101000a8154816001600160a01b0302191690836001600160a01b031602179055506040820151816002015560608201518160030160006101000a81548160ff021916908315150217905550905050887fdd7e1dd9a30843ba8c2619a3c5ce27830ad90612bad48feeb549fc94114d62618360000151604051610fa79190612627565b60405180910390a29a9950505050505050505050565b6000546201000090046001600160a01b03163314610fee5760405163942e92c760e01b815260040160405180910390fd5b600083815260036020526040902080546001600160a01b03161561102557604051634d1068bd60e11b815260040160405180910390fd5b6002546001600160a01b0316600061103f848601866127b5565b60015460408083015190519293506001600160a01b038086169363d8dcbd2793909116916110739160200190815260200190565b60408051601f1981840301815282825260608701516020840152910160408051601f19818403018152908290526110ad92916020016128ac565b60408051808303601f1901815290829052608086015160a0870151875160e0808a015160c08b01516101008c015160208d0151938b901b6001600160e01b03191689526111049998600097969594906004016128fe565b600060405180830381600087803b15801561111e57600080fd5b505af1158015611132573d6000803e3d6000fd5b5050505060006001836001600160a01b03166306661abd6040518163ffffffff1660e01b8152600401602060405180830381865afa158015611178573d6000803e3d6000fd5b505050506040513d601f19601f8201168201806040525081019061119c919061263a565b6111a691906129c1565b60405163a2f7b3a560e01b8152600481018290529091506000906001600160a01b0385169063a2f7b3a5906024016020604051808303816000875af11580156111f3573d6000803e3d6000fd5b505050506040513d601f19601f8201168201806040525081019061121791906129d4565b90506001600160a01b03811661124057604051637788791560e11b815260040160405180910390fd5b60408051602080820183526001600160a01b0384811680845260008d8152600390935291849020925183546001600160a01b0319169116179091556080850151915190918a917f4cd197370ffd49fb5c948e4c4502bf4e405168fa20b442c88fdb46ec90cdcf8e916112b191612627565b60405180910390a35050505050505050565b6000806112cf8361171a565b905060006112dc84611ab0565b90506000826001600160a01b031663c2f2beea6040518163ffffffff1660e01b8152600401602060405180830381865afa15801561131e573d6000803e3d6000fd5b505050506040513d601f19601f82011682018060405250810190611342919061263a565b905061134e8282611c9b565b95945050505050565b600091825260cd602090815260408084206001600160a01b0393909316845291905290205460ff1690565b600082815260cd602052604090206001015461139d81611824565b6107c483836118b4565b6000806113b38361171a565b905060006113c084611ab0565b60008581526004602081815260408084208151608081018352815480825260018301546001600160a01b039081169583019590955260028301548285015260039092015460ff16151560608201529151634aac84e560e01b815293840152939450851690634aac84e590602401606060405180830381865afa15801561144a573d6000803e3d6000fd5b505050506040513d601f19601f8201168201806040525081019061146e9190612489565b505090508060ff166001036114e957610dda846001600160a01b031663a37b6ad46040518163ffffffff1660e01b8152600401602060405180830381865afa1580156114be573d6000803e3d6000fd5b505050506040513d601f19601f820116820180604052508101906114e2919061263a565b8490611c9b565b8060ff1660030361153557610dda846001600160a01b031663787471a96040518163ffffffff1660e01b8152600401602060405180830381865afa1580156114be573d6000803e3d6000fd5b6040516305e5cf6360e41b815260040160405180910390fd5b600054610100900460ff161580801561156e5750600054600160ff909116105b806115885750303b158015611588575060005460ff166001145b6115eb5760405162461bcd60e51b815260206004820152602e60248201527f496e697469616c697a61626c653a20636f6e747261637420697320616c72656160448201526d191e481a5b9a5d1a585b1a5e995960921b6064820152608401610835565b6000805460ff19166001179055801561160e576000805461ff0019166101001790555b61161960008661182e565b6116437f65d7a28e3265b37a6474929f336521b332c1681b933f6cb9f3376673440d862a3361182e565b61166d7f189ab7a9244df0848122154315af71fe140f3db0fe014031783b0946b8c9d2e33361182e565b600080546001600160a01b03808716620100000262010000600160b01b031990921691909117909155600180548583166001600160a01b03199182161790915560028054928516929091169190911790558015611704576000805461ff0019169055604051600181527f7f26b83ff96e1f2b6a682f133852f6798a09c465da95921460cefb38474024989060200160405180910390a15b5050505050565b6001600160a01b03163b151590565b600080546040516398e36d8b60e01b81526004810184905282916201000090046001600160a01b0316906398e36d8b90602401608060405180830381865afa15801561176a573d6000803e3d6000fd5b505050506040513d601f19601f8201168201806040525081019061178e9190612a01565b505050600081815260036020908152604091829020825191820190925290546001600160a01b03168082529192509061181c5760405162461bcd60e51b815260206004820152602a60248201527f56616c6964206b6c65726f7342616467654d6f64656c496420726571756972656044820152696420666f72205443522160b01b6064820152608401610835565b519392505050565b6109288133611cc4565b6118388282611357565b61084857600082815260cd602090815260408083206001600160a01b03851684529091529020805460ff191660011790556118703390565b6001600160a01b0316816001600160a01b0316837f2f8788117e7eff1d82e926ec794901d17c78024a50270940304540a733656f0d60405160405180910390a45050565b6118be8282611357565b1561084857600082815260cd602090815260408083206001600160a01b0385168085529252808320805460ff1916905551339285917ff6391f5c32d9c69d2a47ea670b442974b53935d1edc7fd64eb21e047a839171b9190a45050565b7f189ab7a9244df0848122154315af71fe140f3db0fe014031783b0946b8c9d2e361084881611824565b7f4910fdfa16fed3260ed0e7147f7cc6da11a60208b5b9406d12a635614ffd91435460ff1615611978576107c483611d1d565b826001600160a01b03166352d1902d6040518163ffffffff1660e01b8152600401602060405180830381865afa9250505080156119d2575060408051601f3d908101601f191682019092526119cf9181019061263a565b60015b611a355760405162461bcd60e51b815260206004820152602e60248201527f45524331393637557067726164653a206e657720696d706c656d656e7461746960448201526d6f6e206973206e6f74205555505360901b6064820152608401610835565b600080516020612cb58339815191528114611aa45760405162461bcd60e51b815260206004820152602960248201527f45524331393637557067726164653a20756e737570706f727465642070726f786044820152681a58589b195555525160ba1b6064820152608401610835565b506107c4838383611db9565b600081815260046020908152604080832081516080810183528154815260018201546001600160a01b0316938101939093526002810154918301919091526003015460ff161515606082015281611b068461171a565b82516040516348f343f360e01b815260048101919091529091506000906001600160a01b038316906348f343f390602401606060405180830381865afa158015611b54573d6000803e3d6000fd5b505050506040513d601f19601f82011682018060405250810190611b789190612a4a565b925050506000600182611b8b9190612abc565b8451604051635fde7f8d60e11b815260048101919091526001600160781b03919091166024820181905291506000906001600160a01b0385169063bfbcff1a90604401600060405180830381865afa158015611beb573d6000803e3d6000fd5b505050506040513d6000823e601f3d908101601f19168201604052611c139190810190612afd565b5060015460405163f7434ea960e01b8152919a506001600160a01b0316985063f7434ea99750611c4f9650899550600401935061262792505050565b602060405180830381865afa158015611c6c573d6000803e3d6000fd5b505050506040513d601f19601f82011682018060405250810190611c90919061263a565b979650505050505050565b600080611ca88385612669565b905083811015611cba57600019611cbc565b805b949350505050565b611cce8282611357565b61084857611cdb81611de4565b611ce6836020611df6565b604051602001611cf7929190612bfb565b60408051601f198184030181529082905262461bcd60e51b825261083591600401612627565b6001600160a01b0381163b611d8a5760405162461bcd60e51b815260206004820152602d60248201527f455243313936373a206e657720696d706c656d656e746174696f6e206973206e60448201526c1bdd08184818dbdb9d1c9858dd609a1b6064820152608401610835565b600080516020612cb583398151915280546001600160a01b0319166001600160a01b0392909216919091179055565b611dc283611f91565b600082511180611dcf5750805b156107c457611dde8383611fd1565b50505050565b60606106db6001600160a01b03831660145b60606000611e05836002612c70565b611e10906002612669565b6001600160401b03811115611e2757611e276121b6565b6040519080825280601f01601f191660200182016040528015611e51576020820181803683370190505b509050600360fc1b81600081518110611e6c57611e6c612c87565b60200101906001600160f81b031916908160001a905350600f60fb1b81600181518110611e9b57611e9b612c87565b60200101906001600160f81b031916908160001a9053506000611ebf846002612c70565b611eca906001612669565b90505b6001811115611f42576f181899199a1a9b1b9c1cb0b131b232b360811b85600f1660108110611efe57611efe612c87565b1a60f81b828281518110611f1457611f14612c87565b60200101906001600160f81b031916908160001a90535060049490941c93611f3b81612c9d565b9050611ecd565b508315611cba5760405162461bcd60e51b815260206004820181905260248201527f537472696e67733a20686578206c656e67746820696e73756666696369656e746044820152606401610835565b611f9a81611d1d565b6040516001600160a01b038216907fbc7cd75a20ee27fd9adebab32041f755214dbc6bffa90cc0225b39da2e5c2d3b90600090a250565b60606001600160a01b0383163b6120395760405162461bcd60e51b815260206004820152602660248201527f416464726573733a2064656c65676174652063616c6c20746f206e6f6e2d636f6044820152651b9d1c9858dd60d21b6064820152608401610835565b600080846001600160a01b031684604051612054919061271e565b600060405180830381855af49150503d806000811461208f576040519150601f19603f3d011682016040523d82523d6000602084013e612094565b606091505b509150915061134e8282604051806060016040528060278152602001612cd560279139606083156120c65750816120d0565b6120d083836120d7565b9392505050565b8151156120e75781518083602001fd5b8060405162461bcd60e51b81526004016108359190612627565b60006020828403121561211357600080fd5b81356001600160e01b031981168114611cba57600080fd5b60006020828403121561213d57600080fd5b5035919050565b6001600160a01b038116811461092857600080fd5b803561216481612144565b919050565b6000806040838503121561217c57600080fd5b82359150602083013561218e81612144565b809150509250929050565b6000602082840312156121ab57600080fd5b8135611cba81612144565b634e487b7160e01b600052604160045260246000fd5b60405161012081016001600160401b03811182821017156121ef576121ef6121b6565b60405290565b604051608081016001600160401b03811182821017156121ef576121ef6121b6565b604051606081016001600160401b03811182821017156121ef576121ef6121b6565b604051601f8201601f191681016001600160401b0381118282101715612261576122616121b6565b604052919050565b60006001600160401b03821115612282576122826121b6565b50601f01601f191660200190565b60006122a361229e84612269565b612239565b90508281528383830111156122b757600080fd5b828260208301376000602084830101529392505050565b600080604083850312156122e157600080fd5b82356122ec81612144565b915060208301356001600160401b0381111561230757600080fd5b8301601f8101851361231857600080fd5b61232785823560208401612290565b9150509250929050565b60008083601f84011261234357600080fd5b5081356001600160401b0381111561235a57600080fd5b60208301915083602082850101111561237257600080fd5b9250929050565b60008060008060006080868803121561239157600080fd5b853561239c81612144565b9450602086013593506040860135925060608601356001600160401b038111156123c557600080fd5b6123d188828901612331565b969995985093965092949392505050565b6000806000604084860312156123f757600080fd5b8335925060208401356001600160401b0381111561241457600080fd5b61242086828701612331565b9497909650939450505050565b6000806000806080858703121561244357600080fd5b843561244e81612144565b9350602085013561245e81612144565b9250604085013561246e81612144565b9150606085013561247e81612144565b939692955090935050565b60008060006060848603121561249e57600080fd5b835160ff811681146124af57600080fd5b602085015160409095015190969495509392505050565b6020808252602c908201527f46756e6374696f6e206d7573742062652063616c6c6564207468726f7567682060408201526b19195b1959d85d1958d85b1b60a21b606082015260800190565b6020808252602c908201527f46756e6374696f6e206d7573742062652063616c6c6564207468726f7567682060408201526b6163746976652070726f787960a01b606082015260800190565b60005b83811015612579578181015183820152602001612561565b50506000910152565b600082601f83011261259357600080fd5b81516125a161229e82612269565b8181528460208386010111156125b657600080fd5b611cbc82602083016020870161255e565b6000602082840312156125d957600080fd5b81516001600160401b038111156125ef57600080fd5b611cbc84828501612582565b6000815180845261261381602086016020860161255e565b601f01601f19169290920160200192915050565b6020815260006120d060208301846125fb565b60006020828403121561264c57600080fd5b5051919050565b634e487b7160e01b600052601160045260246000fd5b808201808211156106db576106db612653565b600082601f83011261268d57600080fd5b6120d083833560208501612290565b6000602082840312156126ae57600080fd5b81356001600160401b03808211156126c557600080fd5b90830190602082860312156126d957600080fd5b6040516020810181811083821117156126f4576126f46121b6565b60405282358281111561270657600080fd5b6127128782860161267c565b82525095945050505050565b6000825161273081846020870161255e565b9190910192915050565b600082601f83011261274b57600080fd5b6127536121f5565b80608084018581111561276557600080fd5b845b8181101561277f578035845260209384019301612767565b509095945050505050565b600082601f83011261279b57600080fd5b6127a3612217565b80606084018581111561276557600080fd5b6000602082840312156127c757600080fd5b81356001600160401b03808211156127de57600080fd5b908301906101c082860312156127f357600080fd5b6127fb6121cc565b61280483612159565b815261281260208401612159565b6020820152604083013560408201526060830135606082015260808301358281111561283d57600080fd5b6128498782860161267c565b60808301525060a08301358281111561286157600080fd5b61286d8782860161267c565b60a08301525060c083013560c082015261288a8660e0850161273a565b60e082015261289d86610160850161278a565b61010082015295945050505050565b600083516128be81846020880161255e565b8351908301906128d281836020880161255e565b01949350505050565b8060005b6003811015611dde5781518452602093840193909101906001016128df565b6001600160a01b038b811682526101e06020808401829052600092906129268584018f6125fb565b9250818d1660408601528483036060860152612942838d6125fb565b92508483036080860152612956838c6125fb565b9350818a1660a086015260c08501925088915060005b60048110156129895782518452928101929181019160010161296c565b50505050846101408301526129a26101608301856128db565b6001600160a01b0383166101c08301529b9a5050505050505050505050565b818103818111156106db576106db612653565b6000602082840312156129e657600080fd5b8151611cba81612144565b8051801515811461216457600080fd5b60008060008060808587031215612a1757600080fd5b845193506020850151612a2981612144565b60408601519093509150612a3f606086016129f1565b905092959194509250565b600080600060608486031215612a5f57600080fd5b835160048110612a6e57600080fd5b60208501519093506fffffffffffffffffffffffffffffffff81168114612a9457600080fd5b60408501519092506001600160781b0381168114612ab157600080fd5b809150509250925092565b6001600160781b03828116828216039080821115612adc57612adc612653565b5092915050565b80516003811061216457600080fd5b805161216481612144565b6000806000806000806000806000806101808b8d031215612b1d57600080fd5b612b268b6129f1565b99506020808c0151995060408c01519850612b4360608d016129f1565b97508c609f8d0112612b5457600080fd5b612b5c612217565b8060e08e018f811115612b6e57600080fd5b60808f015b81811015612b93578051612b8681612144565b8452928401928401612b73565b50519098509650612baa9150506101008c01612ae3565b9350612bb96101208c01612af2565b92506101408b01516001600160401b03811115612bd557600080fd5b612be18d828e01612582565b9250506101608b015190509295989b9194979a5092959850565b7f416363657373436f6e74726f6c3a206163636f756e7420000000000000000000815260008351612c3381601785016020880161255e565b7001034b99036b4b9b9b4b733903937b6329607d1b6017918401918201528351612c6481602884016020880161255e565b01602801949350505050565b80820281158282048414176106db576106db612653565b634e487b7160e01b600052603260045260246000fd5b600081612cac57612cac612653565b50600019019056fe360894a13ba1a3210667c828492db98dca3e2076cc3735a920a3ca505d382bbc416464726573733a206c6f772d6c6576656c2064656c65676174652063616c6c206661696c6564a2646970667358221220fa363a6b083e3a0f7107b1508a1ac8821e2f637eb49d0695d1276cc14149c46464736f6c63430008110033",
  "linkReferences": {},
  "deployedLinkReferences": {}
}