{
  "_format": "hh-sol-artifact-1",
  "contractName": "KlerosBadgeModelController",
  "sourceName": "src/contracts/badgeModelControllers/KlerosBadgeModelController.sol",
  "abi": [
    {
      "inputs": [],
      "name": "KlerosBadgeModelController__claimBadge_insufficientBalance",
      "type": "error"
    },
    {
      "inputs": [],
      "name": "KlerosBadgeModelController__createBadgeModel_TCRListAddressZero",
      "type": "error"
    },
    {
      "inputs": [],
      "name": "KlerosBadgeModelController__createBadgeModel_badgeModelAlreadyCreated",
      "type": "error"
    },
    {
      "inputs": [],
      "name": "KlerosBadgeModelController__mintBadge_alreadyMinted",
      "type": "error"
    },
    {
      "inputs": [],
      "name": "KlerosBadgeModelController__mintBadge_isPaused",
      "type": "error"
    },
    {
      "inputs": [],
      "name": "KlerosBadgeModelController__mintBadge_wrongBadgeModel",
      "type": "error"
    },
    {
      "inputs": [],
      "name": "KlerosBadgeModelController__mintBadge_wrongValue",
      "type": "error"
    },
    {
      "inputs": [],
      "name": "KlerosBadgeModelController__onlyTheBadge_senderNotTheBadge",
      "type": "error"
    },
    {
      "anonymous": false,
      "inputs": [
        {
          "indexed": true,
          "internalType": "address",
          "name": "recipient",
          "type": "address"
        },
        {
          "indexed": false,
          "internalType": "uint256",
          "name": "amount",
          "type": "uint256"
        },
        {
          "indexed": true,
          "internalType": "uint256",
          "name": "badgeId",
          "type": "uint256"
        }
      ],
      "name": "DepositReturned",
      "type": "event"
    },
    {
      "anonymous": false,
      "inputs": [
        {
          "indexed": false,
          "internalType": "uint8",
          "name": "version",
          "type": "uint8"
        }
      ],
      "name": "Initialized",
      "type": "event"
    },
    {
      "anonymous": false,
      "inputs": [
        {
          "indexed": true,
          "internalType": "uint256",
          "name": "badgeId",
          "type": "uint256"
        },
        {
          "indexed": true,
          "internalType": "address",
          "name": "wallet",
          "type": "address"
        },
        {
          "indexed": false,
          "internalType": "string",
          "name": "evidence",
          "type": "string"
        },
        {
          "indexed": false,
          "internalType": "address",
          "name": "sender",
          "type": "address"
        }
      ],
      "name": "KlerosBadgeChallenged",
      "type": "event"
    },
    {
      "anonymous": false,
      "inputs": [
        {
          "indexed": true,
          "internalType": "uint256",
          "name": "badgeId",
          "type": "uint256"
        },
        {
          "indexed": false,
          "internalType": "string",
          "name": "evidence",
          "type": "string"
        }
      ],
      "name": "MintKlerosBadge",
      "type": "event"
    },
    {
      "anonymous": false,
      "inputs": [
        {
          "indexed": true,
          "internalType": "uint256",
          "name": "badgeModelId",
          "type": "uint256"
        },
        {
          "indexed": true,
          "internalType": "address",
          "name": "tcrAddress",
          "type": "address"
        },
        {
          "indexed": false,
          "internalType": "string",
          "name": "metadataUri",
          "type": "string"
        }
      ],
      "name": "NewKlerosBadgeModel",
      "type": "event"
    },
    {
      "inputs": [],
      "name": "arbitrator",
      "outputs": [
        {
          "internalType": "contract IArbitrator",
          "name": "",
          "type": "address"
        }
      ],
      "stateMutability": "view",
      "type": "function"
    },
    {
      "inputs": [
        {
          "internalType": "uint256",
          "name": "",
          "type": "uint256"
        },
        {
          "internalType": "address",
          "name": "",
          "type": "address"
        }
      ],
      "name": "canMint",
      "outputs": [
        {
          "internalType": "bool",
          "name": "",
          "type": "bool"
        }
      ],
      "stateMutability": "pure",
      "type": "function"
    },
    {
      "inputs": [
        {
          "internalType": "uint256",
          "name": "badgeId",
          "type": "uint256"
        }
      ],
      "name": "claim",
      "outputs": [],
      "stateMutability": "payable",
      "type": "function"
    },
    {
      "inputs": [
        {
          "internalType": "uint256",
          "name": "badgeModelId",
          "type": "uint256"
        },
        {
          "internalType": "bytes",
          "name": "data",
          "type": "bytes"
        }
      ],
      "name": "createBadgeModel",
      "outputs": [],
      "stateMutability": "nonpayable",
      "type": "function"
    },
    {
      "inputs": [
        {
          "internalType": "uint256",
          "name": "badgeId",
          "type": "uint256"
        }
      ],
      "name": "getChallengeDepositValue",
      "outputs": [
        {
          "internalType": "uint256",
          "name": "",
          "type": "uint256"
        }
      ],
      "stateMutability": "view",
      "type": "function"
    },
    {
      "inputs": [
        {
          "internalType": "uint256",
          "name": "badgeId",
          "type": "uint256"
        }
      ],
      "name": "getRemovalDepositValue",
      "outputs": [
        {
          "internalType": "uint256",
          "name": "",
          "type": "uint256"
        }
      ],
      "stateMutability": "view",
      "type": "function"
    },
    {
      "inputs": [
        {
          "internalType": "address",
          "name": "_theBadge",
          "type": "address"
        },
        {
          "internalType": "address",
          "name": "_arbitrator",
          "type": "address"
        },
        {
          "internalType": "address",
          "name": "_tcrFactory",
          "type": "address"
        }
      ],
      "name": "initialize",
      "outputs": [],
      "stateMutability": "nonpayable",
      "type": "function"
    },
    {
      "inputs": [
        {
          "internalType": "uint256",
          "name": "badgeId",
          "type": "uint256"
        }
      ],
      "name": "isAssetActive",
      "outputs": [
        {
          "internalType": "bool",
          "name": "",
          "type": "bool"
        }
      ],
      "stateMutability": "view",
      "type": "function"
    },
    {
      "inputs": [
        {
          "internalType": "uint256",
          "name": "",
          "type": "uint256"
        }
      ],
      "name": "klerosBadge",
      "outputs": [
        {
          "internalType": "bytes32",
          "name": "itemID",
          "type": "bytes32"
        },
        {
          "internalType": "address",
          "name": "callee",
          "type": "address"
        },
        {
          "internalType": "uint256",
          "name": "deposit",
          "type": "uint256"
        }
      ],
      "stateMutability": "view",
      "type": "function"
    },
    {
      "inputs": [
        {
          "internalType": "uint256",
          "name": "",
          "type": "uint256"
        }
      ],
      "name": "klerosBadgeModel",
      "outputs": [
        {
          "internalType": "address",
          "name": "tcrList",
          "type": "address"
        }
      ],
      "stateMutability": "view",
      "type": "function"
    },
    {
      "inputs": [
        {
          "internalType": "address",
          "name": "callee",
          "type": "address"
        },
        {
          "internalType": "uint256",
          "name": "badgeModelId",
          "type": "uint256"
        },
        {
          "internalType": "uint256",
          "name": "badgeId",
          "type": "uint256"
        },
        {
          "internalType": "bytes",
          "name": "data",
          "type": "bytes"
        }
      ],
      "name": "mint",
      "outputs": [],
      "stateMutability": "payable",
      "type": "function"
    },
    {
      "inputs": [
        {
          "internalType": "uint256",
          "name": "badgeModelId",
          "type": "uint256"
        }
      ],
      "name": "mintValue",
      "outputs": [
        {
          "internalType": "uint256",
          "name": "",
          "type": "uint256"
        }
      ],
      "stateMutability": "view",
      "type": "function"
    },
    {
      "inputs": [],
      "name": "tcrFactory",
      "outputs": [
        {
          "internalType": "address",
          "name": "",
          "type": "address"
        }
      ],
      "stateMutability": "view",
      "type": "function"
    },
    {
      "inputs": [],
      "name": "theBadge",
      "outputs": [
        {
          "internalType": "contract TheBadge",
          "name": "",
          "type": "address"
        }
      ],
      "stateMutability": "view",
      "type": "function"
    },
    {
      "stateMutability": "payable",
      "type": "receive"
    }
  ],
  "bytecode": "0x608060405234801561001057600080fd5b50611bcd806100206000396000f3fe6080604052600436106100e15760003560e01c806377addc421161007f5780639f780b1d116100595780639f780b1d146102ae578063c0c53b8b146102ce578063caa39ec5146102ee578063d7deba151461031457600080fd5b806377addc42146102385780637eb7f1761461026e5780638f4e76b91461028e57600080fd5b8063632f7c83116100bb578063632f7c831461019f5780636cc6cde1146101cd578063731133e91461020557806377a3989e1461021857600080fd5b806322e900c2146100ed578063379607f51461012257806337a65d051461013757600080fd5b366100e857005b600080fd5b3480156100f957600080fd5b5061010d6101083660046111dd565b610334565b60405190151581526020015b60405180910390f35b6101356101303660046111dd565b61048c565b005b34801561014357600080fd5b5061017c6101523660046111dd565b60046020526000908152604090208054600182015460029092015490916001600160a01b03169083565b604080519384526001600160a01b03909216602084015290820152606001610119565b3480156101ab57600080fd5b506101bf6101ba3660046111dd565b6106e9565b604051908152602001610119565b3480156101d957600080fd5b506001546101ed906001600160a01b031681565b6040516001600160a01b039091168152602001610119565b610135610213366004611267565b610852565b34801561022457600080fd5b506101356102333660046112d1565b6109da565b34801561024457600080fd5b506101ed6102533660046111dd565b6003602052600090815260409020546001600160a01b031681565b34801561027a57600080fd5b506101bf6102893660046111dd565b610ce0565b34801561029a57600080fd5b5061010d6102a936600461131d565b610d74565b3480156102ba57600080fd5b506002546101ed906001600160a01b031681565b3480156102da57600080fd5b506101356102e936600461134d565b610d7d565b3480156102fa57600080fd5b506000546101ed906201000090046001600160a01b031681565b34801561032057600080fd5b506101bf61032f3660046111dd565b610eda565b60008181526004602081905260408083208354915163c0f6faed60e01b81529283018590529183916201000090046001600160a01b03169063c0f6faed90602401606060405180830381865afa158015610392573d6000803e3d6000fd5b505050506040513d601f19601f820116820180604052508101906103b69190611398565b505060008181526003602052604090208054919250906001600160a01b0316156104815780548354604051634aac84e560e01b81526001600160a01b03909216916000918391634aac84e5916104129160040190815260200190565b606060405180830381865afa15801561042f573d6000803e3d6000fd5b505050506040513d601f19601f8201168201806040525081019061045391906113d1565b505090508060ff166001148061046c57508060ff166003145b1561047e575060019695505050505050565b50505b506000949350505050565b60008181526004602081905260408083208354915163c0f6faed60e01b81529283018590529291620100009091046001600160a01b03169063c0f6faed90602401606060405180830381865afa1580156104ea573d6000803e3d6000fd5b505050506040513d601f19601f8201168201806040525081019061050e9190611398565b5050600081815260036020526040908190208054855492516374e120b360e11b81526004810193909352929350916001600160a01b031690819063e9c2416690602401600060405180830381600087803b15801561056b57600080fd5b505af115801561057f573d6000803e3d6000fd5b5050505047846002015411156105a8576040516398e2a0bb60e01b815260040160405180910390fd5b600284018054600091829055600186015460405191926001600160a01b039091169183156108fc0291849190818181858888f193505050501580156105f1573d6000803e3d6000fd5b5060018501546040516000916001600160a01b03169083908381818185875af1925050503d8060008114610641576040519150601f19603f3d011682016040523d82523d6000602084013e610646565b606091505b505090508061069c5760405162461bcd60e51b815260206004820152601c60248201527f4661696c656420746f2072657475726e20746865206465706f7369740000000060448201526064015b60405180910390fd5b600186015460405183815288916001600160a01b0316907f9794db68af033346a63dbc4509364afc3a23201eced8a4f3bc64d029abfacc659060200160405180910390a350505050505050565b6000818152600360205260408082208054600154835163063d63db60e11b8152935192936001600160a01b039283169386939092169163f7434ea9918591630c7ac7b69160048082019288929091908290030181865afa158015610751573d6000803e3d6000fd5b505050506040513d6000823e601f3d908101601f191682016040526107799190810190611538565b6040518263ffffffff1660e01b81526004016107959190611599565b602060405180830381865afa1580156107b2573d6000803e3d6000fd5b505050506040513d601f19601f820116820180604052508101906107d691906115b3565b90506000826001600160a01b031663bb0b86ff6040518163ffffffff1660e01b8152600401602060405180830381865afa158015610818573d6000803e3d6000fd5b505050506040513d601f19601f8201168201806040525081019061083c91906115b3565b905061084881836115e2565b9695505050505050565b600061085d856106e9565b905080341461087f57604051637bcb3e5760e01b815260040160405180910390fd5b6000858152600360205260408120805490916001600160a01b03909116906108a985870187611646565b80516040516309fa7ca560e21b81529192506001600160a01b038416916327e9f2949134916108db9190600401611599565b6000604051808303818588803b1580156108f457600080fd5b505af1158015610908573d6000803e3d6000fd5b50505050506000816000015160405160200161092491906116c9565b60408051808303601f1901815282825280516020918201206060840183528084526001600160a01b038e81168386019081523486860190815260008f815260049095529385902095518655516001860180546001600160a01b0319169190921617905590516002909301929092558351905191925089917fdd7e1dd9a30843ba8c2619a3c5ce27830ad90612bad48feeb549fc94114d6261916109c691611599565b60405180910390a250505050505050505050565b6000546201000090046001600160a01b03163314610a0b5760405163942e92c760e01b815260040160405180910390fd5b600083815260036020526040902080546001600160a01b031615610a4257604051634d1068bd60e11b815260040160405180910390fd5b6002546001600160a01b03166000610a5c848601866117a3565b60015460408083015190519293506001600160a01b038086169363d8dcbd279390911691610a909160200190815260200190565b60408051601f1981840301815282825260608701516020840152910160408051601f1981840301815290829052610aca929160200161189b565b60408051808303601f1901815290829052608086015160a0870151875160e0808a015160c08b01516101008c015160208d0151938b901b6001600160e01b0319168952610b219998600097969594906004016118ed565b600060405180830381600087803b158015610b3b57600080fd5b505af1158015610b4f573d6000803e3d6000fd5b5050505060006001836001600160a01b03166306661abd6040518163ffffffff1660e01b8152600401602060405180830381865afa158015610b95573d6000803e3d6000fd5b505050506040513d601f19601f82011682018060405250810190610bb991906115b3565b610bc391906119b0565b60405163a2f7b3a560e01b8152600481018290529091506000906001600160a01b0385169063a2f7b3a5906024016020604051808303816000875af1158015610c10573d6000803e3d6000fd5b505050506040513d601f19601f82011682018060405250810190610c3491906119c3565b90506001600160a01b038116610c5d57604051637788791560e11b815260040160405180910390fd5b60408051602080820183526001600160a01b0384811680845260008d8152600390935291849020925183546001600160a01b0319169116179091556080850151915190918a917f4cd197370ffd49fb5c948e4c4502bf4e405168fa20b442c88fdb46ec90cdcf8e91610cce91611599565b60405180910390a35050505050505050565b600080610cec83610f35565b90506000610cf984610fdb565b90506000826001600160a01b031663787471a96040518163ffffffff1660e01b8152600401602060405180830381865afa158015610d3b573d6000803e3d6000fd5b505050506040513d601f19601f82011682018060405250810190610d5f91906115b3565b9050610d6b82826111b4565b95945050505050565b60015b92915050565b600054610100900460ff1615808015610d9d5750600054600160ff909116105b80610db75750303b158015610db7575060005460ff166001145b610e1a5760405162461bcd60e51b815260206004820152602e60248201527f496e697469616c697a61626c653a20636f6e747261637420697320616c72656160448201526d191e481a5b9a5d1a585b1a5e995960921b6064820152608401610693565b6000805460ff191660011790558015610e3d576000805461ff0019166101001790555b600080546001600160a01b03808716620100000262010000600160b01b031990921691909117909155600180548583166001600160a01b03199182161790915560028054928516929091169190911790558015610ed4576000805461ff0019169055604051600181527f7f26b83ff96e1f2b6a682f133852f6798a09c465da95921460cefb38474024989060200160405180910390a15b50505050565b600080610ee683610f35565b90506000610ef384610fdb565b90506000826001600160a01b031663a37b6ad46040518163ffffffff1660e01b8152600401602060405180830381865afa158015610d3b573d6000803e3d6000fd5b6000805460405163c0f6faed60e01b81526004810184905282916201000090046001600160a01b03169063c0f6faed90602401606060405180830381865afa158015610f85573d6000803e3d6000fd5b505050506040513d601f19601f82011682018060405250810190610fa99190611398565b5050600090815260036020908152604091829020825191820190925290546001600160a01b0316908190529392505050565b600081815260046020908152604080832081516060810183528154815260018201546001600160a01b03169381019390935260020154908201528161101f84610f35565b82516040516348f343f360e01b815260048101919091529091506000906001600160a01b038316906348f343f390602401606060405180830381865afa15801561106d573d6000803e3d6000fd5b505050506040513d601f19601f8201168201806040525081019061109191906119e0565b9250505060006001826110a49190611a47565b8451604051635fde7f8d60e11b815260048101919091526001600160781b03919091166024820181905291506000906001600160a01b0385169063bfbcff1a90604401600060405180830381865afa158015611104573d6000803e3d6000fd5b505050506040513d6000823e601f3d908101601f1916820160405261112c9190810190611a98565b5060015460405163f7434ea960e01b8152919a506001600160a01b0316985063f7434ea997506111689650899550600401935061159992505050565b602060405180830381865afa158015611185573d6000803e3d6000fd5b505050506040513d601f19601f820116820180604052508101906111a991906115b3565b979650505050505050565b6000806111c183856115e2565b9050838110156111d3576000196111d5565b805b949350505050565b6000602082840312156111ef57600080fd5b5035919050565b6001600160a01b038116811461120b57600080fd5b50565b8035611219816111f6565b919050565b60008083601f84011261123057600080fd5b50813567ffffffffffffffff81111561124857600080fd5b60208301915083602082850101111561126057600080fd5b9250929050565b60008060008060006080868803121561127f57600080fd5b853561128a816111f6565b94506020860135935060408601359250606086013567ffffffffffffffff8111156112b457600080fd5b6112c08882890161121e565b969995985093965092949392505050565b6000806000604084860312156112e657600080fd5b83359250602084013567ffffffffffffffff81111561130457600080fd5b6113108682870161121e565b9497909650939450505050565b6000806040838503121561133057600080fd5b823591506020830135611342816111f6565b809150509250929050565b60008060006060848603121561136257600080fd5b833561136d816111f6565b9250602084013561137d816111f6565b9150604084013561138d816111f6565b809150509250925092565b6000806000606084860312156113ad57600080fd5b8351925060208401516113bf816111f6565b80925050604084015190509250925092565b6000806000606084860312156113e657600080fd5b835160ff811681146113f757600080fd5b602085015160409095015190969495509392505050565b634e487b7160e01b600052604160045260246000fd5b604051610120810167ffffffffffffffff811182821017156114485761144861140e565b60405290565b6040516060810167ffffffffffffffff811182821017156114485761144861140e565b604051601f8201601f1916810167ffffffffffffffff8111828210171561149a5761149a61140e565b604052919050565b600067ffffffffffffffff8211156114bc576114bc61140e565b50601f01601f191660200190565b60005b838110156114e55781810151838201526020016114cd565b50506000910152565b600082601f8301126114ff57600080fd5b815161151261150d826114a2565b611471565b81815284602083860101111561152757600080fd5b6111d58260208301602087016114ca565b60006020828403121561154a57600080fd5b815167ffffffffffffffff81111561156157600080fd5b6111d5848285016114ee565b600081518084526115858160208601602086016114ca565b601f01601f19169290920160200192915050565b6020815260006115ac602083018461156d565b9392505050565b6000602082840312156115c557600080fd5b5051919050565b634e487b7160e01b600052601160045260246000fd5b80820180821115610d7757610d776115cc565b600082601f83011261160657600080fd5b813561161461150d826114a2565b81815284602083860101111561162957600080fd5b816020850160208301376000918101602001919091529392505050565b60006020828403121561165857600080fd5b813567ffffffffffffffff8082111561167057600080fd5b908301906020828603121561168457600080fd5b60405160208101818110838211171561169f5761169f61140e565b6040528235828111156116b157600080fd5b6116bd878286016115f5565b82525095945050505050565b600082516116db8184602087016114ca565b9190910192915050565b600082601f8301126116f657600080fd5b6040516080810181811067ffffffffffffffff821117156117195761171961140e565b60405280608084018581111561172e57600080fd5b845b81811015611748578035835260209283019201611730565b509195945050505050565b600082601f83011261176457600080fd5b61176c61144e565b80606084018581111561177e57600080fd5b845b81811015611798578035845260209384019301611780565b509095945050505050565b6000602082840312156117b557600080fd5b813567ffffffffffffffff808211156117cd57600080fd5b908301906101c082860312156117e257600080fd5b6117ea611424565b6117f38361120e565b81526118016020840161120e565b6020820152604083013560408201526060830135606082015260808301358281111561182c57600080fd5b611838878286016115f5565b60808301525060a08301358281111561185057600080fd5b61185c878286016115f5565b60a08301525060c083013560c08201526118798660e085016116e5565b60e082015261188c866101608501611753565b61010082015295945050505050565b600083516118ad8184602088016114ca565b8351908301906118c18183602088016114ca565b01949350505050565b8060005b6003811015610ed45781518452602093840193909101906001016118ce565b6001600160a01b038b811682526101e06020808401829052600092906119158584018f61156d565b9250818d1660408601528483036060860152611931838d61156d565b92508483036080860152611945838c61156d565b9350818a1660a086015260c08501925088915060005b60048110156119785782518452928101929181019160010161195b565b50505050846101408301526119916101608301856118ca565b6001600160a01b0383166101c08301529b9a5050505050505050505050565b81810381811115610d7757610d776115cc565b6000602082840312156119d557600080fd5b81516111d3816111f6565b6000806000606084860312156119f557600080fd5b835160048110611a0457600080fd5b60208501519093506fffffffffffffffffffffffffffffffff81168114611a2a57600080fd5b60408501519092506001600160781b038116811461138d57600080fd5b6001600160781b03828116828216039080821115611a6757611a676115cc565b5092915050565b8051801515811461121957600080fd5b80516003811061121957600080fd5b8051611219816111f6565b6000806000806000806000806000806101808b8d031215611ab857600080fd5b611ac18b611a6e565b99506020808c0151995060408c01519850611ade60608d01611a6e565b97508c609f8d0112611aef57600080fd5b611af761144e565b8060e08e018f811115611b0957600080fd5b60808f015b81811015611b2e578051611b21816111f6565b8452928401928401611b0e565b50519098509650611b459150506101008c01611a7e565b9350611b546101208c01611a8d565b92506101408b015167ffffffffffffffff811115611b7157600080fd5b611b7d8d828e016114ee565b9250506101608b015190509295989b9194979a509295985056fea264697066735822122072a5dc7b1e83abfd3a614aaa35ff24af8969336e7b9c3f7aac055ace5c27e2dc64736f6c63430008110033",
  "linkReferences": {},
  "deployedLinkReferences": {}
}