{
  "_format": "hh-sol-artifact-1",
  "contractName": "KlerosBadgeModelController",
  "sourceName": "src/contracts/badgeModelControllers/KlerosBadgeModelController.sol",
  "abi": [
    {
      "inputs": [],
      "stateMutability": "nonpayable",
      "type": "constructor"
    },
    {
      "inputs": [],
      "name": "KlerosBadgeModelController__badge__klerosBadgeNotFound",
      "type": "error"
    },
    {
      "inputs": [],
      "name": "KlerosBadgeModelController__badge__notInChallengeableStatus",
      "type": "error"
    },
    {
      "inputs": [],
      "name": "KlerosBadgeModelController__claimBadge_insufficientBalance",
      "type": "error"
    },
    {
      "inputs": [],
      "name": "KlerosBadgeModelController__createBadgeModel_TCRListAddressZero",
      "type": "error"
    },
    {
      "inputs": [],
      "name": "KlerosBadgeModelController__createBadgeModel_badgeModelAlreadyCreated",
      "type": "error"
    },
    {
      "inputs": [],
      "name": "KlerosBadgeModelController__mintBadge_alreadyMinted",
      "type": "error"
    },
    {
      "inputs": [],
      "name": "KlerosBadgeModelController__mintBadge_isPaused",
      "type": "error"
    },
    {
      "inputs": [],
      "name": "KlerosBadgeModelController__mintBadge_wrongBadgeModel",
      "type": "error"
    },
    {
      "inputs": [],
      "name": "KlerosBadgeModelController__mintBadge_wrongValue",
      "type": "error"
    },
    {
      "inputs": [],
      "name": "KlerosBadgeModelController__onlyTheBadge_senderNotTheBadge",
      "type": "error"
    },
    {
      "anonymous": false,
      "inputs": [
        {
          "indexed": false,
          "internalType": "address",
          "name": "previousAdmin",
          "type": "address"
        },
        {
          "indexed": false,
          "internalType": "address",
          "name": "newAdmin",
          "type": "address"
        }
      ],
      "name": "AdminChanged",
      "type": "event"
    },
    {
      "anonymous": false,
      "inputs": [
        {
          "indexed": true,
          "internalType": "address",
          "name": "beacon",
          "type": "address"
        }
      ],
      "name": "BeaconUpgraded",
      "type": "event"
    },
    {
      "anonymous": false,
      "inputs": [
        {
          "indexed": true,
          "internalType": "address",
          "name": "recipient",
          "type": "address"
        },
        {
          "indexed": false,
          "internalType": "uint256",
          "name": "amount",
          "type": "uint256"
        },
        {
          "indexed": true,
          "internalType": "uint256",
          "name": "badgeId",
          "type": "uint256"
        }
      ],
      "name": "DepositReturned",
      "type": "event"
    },
    {
      "anonymous": false,
      "inputs": [
        {
          "indexed": false,
          "internalType": "uint8",
          "name": "version",
          "type": "uint8"
        }
      ],
      "name": "Initialized",
      "type": "event"
    },
    {
      "anonymous": false,
      "inputs": [
        {
          "indexed": true,
          "internalType": "uint256",
          "name": "badgeId",
          "type": "uint256"
        },
        {
          "indexed": true,
          "internalType": "address",
          "name": "wallet",
          "type": "address"
        },
        {
          "indexed": false,
          "internalType": "string",
          "name": "evidence",
          "type": "string"
        },
        {
          "indexed": false,
          "internalType": "address",
          "name": "sender",
          "type": "address"
        }
      ],
      "name": "KlerosBadgeChallenged",
      "type": "event"
    },
    {
      "anonymous": false,
      "inputs": [
        {
          "indexed": true,
          "internalType": "uint256",
          "name": "badgeId",
          "type": "uint256"
        },
        {
          "indexed": false,
          "internalType": "string",
          "name": "evidence",
          "type": "string"
        }
      ],
      "name": "MintKlerosBadge",
      "type": "event"
    },
    {
      "anonymous": false,
      "inputs": [
        {
          "indexed": true,
          "internalType": "uint256",
          "name": "badgeModelId",
          "type": "uint256"
        },
        {
          "indexed": true,
          "internalType": "address",
          "name": "tcrAddress",
          "type": "address"
        },
        {
          "indexed": false,
          "internalType": "string",
          "name": "registrationMetaEvidence",
          "type": "string"
        },
        {
          "indexed": false,
          "internalType": "string",
          "name": "clearingMetaEvidence",
          "type": "string"
        }
      ],
      "name": "NewKlerosBadgeModel",
      "type": "event"
    },
    {
      "anonymous": false,
      "inputs": [
        {
          "indexed": true,
          "internalType": "bytes32",
          "name": "role",
          "type": "bytes32"
        },
        {
          "indexed": true,
          "internalType": "bytes32",
          "name": "previousAdminRole",
          "type": "bytes32"
        },
        {
          "indexed": true,
          "internalType": "bytes32",
          "name": "newAdminRole",
          "type": "bytes32"
        }
      ],
      "name": "RoleAdminChanged",
      "type": "event"
    },
    {
      "anonymous": false,
      "inputs": [
        {
          "indexed": true,
          "internalType": "bytes32",
          "name": "role",
          "type": "bytes32"
        },
        {
          "indexed": true,
          "internalType": "address",
          "name": "account",
          "type": "address"
        },
        {
          "indexed": true,
          "internalType": "address",
          "name": "sender",
          "type": "address"
        }
      ],
      "name": "RoleGranted",
      "type": "event"
    },
    {
      "anonymous": false,
      "inputs": [
        {
          "indexed": true,
          "internalType": "bytes32",
          "name": "role",
          "type": "bytes32"
        },
        {
          "indexed": true,
          "internalType": "address",
          "name": "account",
          "type": "address"
        },
        {
          "indexed": true,
          "internalType": "address",
          "name": "sender",
          "type": "address"
        }
      ],
      "name": "RoleRevoked",
      "type": "event"
    },
    {
      "anonymous": false,
      "inputs": [
        {
          "indexed": true,
          "internalType": "address",
          "name": "implementation",
          "type": "address"
        }
      ],
      "name": "Upgraded",
      "type": "event"
    },
    {
      "inputs": [],
      "name": "DEFAULT_ADMIN_ROLE",
      "outputs": [
        {
          "internalType": "bytes32",
          "name": "",
          "type": "bytes32"
        }
      ],
      "stateMutability": "view",
      "type": "function"
    },
    {
      "inputs": [],
      "name": "FEE_COLLECTOR_ROLE",
      "outputs": [
        {
          "internalType": "bytes32",
          "name": "",
          "type": "bytes32"
        }
      ],
      "stateMutability": "view",
      "type": "function"
    },
    {
      "inputs": [],
      "name": "MINTER_ROLE",
      "outputs": [
        {
          "internalType": "bytes32",
          "name": "",
          "type": "bytes32"
        }
      ],
      "stateMutability": "view",
      "type": "function"
    },
    {
      "inputs": [],
      "name": "PAUSER_ROLE",
      "outputs": [
        {
          "internalType": "bytes32",
          "name": "",
          "type": "bytes32"
        }
      ],
      "stateMutability": "view",
      "type": "function"
    },
    {
      "inputs": [],
      "name": "UPGRADER_ROLE",
      "outputs": [
        {
          "internalType": "bytes32",
          "name": "",
          "type": "bytes32"
        }
      ],
      "stateMutability": "view",
      "type": "function"
    },
    {
      "inputs": [],
      "name": "URI_SETTER_ROLE",
      "outputs": [
        {
          "internalType": "bytes32",
          "name": "",
          "type": "bytes32"
        }
      ],
      "stateMutability": "view",
      "type": "function"
    },
    {
      "inputs": [],
      "name": "arbitrator",
      "outputs": [
        {
          "internalType": "contract IArbitrator",
          "name": "",
          "type": "address"
        }
      ],
      "stateMutability": "view",
      "type": "function"
    },
    {
      "inputs": [
        {
          "internalType": "uint256",
          "name": "badgeId",
          "type": "uint256"
        },
        {
          "internalType": "bytes",
          "name": "data",
          "type": "bytes"
        }
      ],
      "name": "challenge",
      "outputs": [],
      "stateMutability": "payable",
      "type": "function"
    },
    {
      "inputs": [
        {
          "internalType": "uint256",
          "name": "badgeId",
          "type": "uint256"
        },
        {
          "internalType": "bytes",
          "name": "",
          "type": "bytes"
        }
      ],
      "name": "claim",
      "outputs": [],
      "stateMutability": "nonpayable",
      "type": "function"
    },
    {
      "inputs": [
        {
          "internalType": "uint256",
          "name": "badgeModelId",
          "type": "uint256"
        },
        {
          "internalType": "bytes",
          "name": "data",
          "type": "bytes"
        }
      ],
      "name": "createBadgeModel",
      "outputs": [],
      "stateMutability": "nonpayable",
      "type": "function"
    },
    {
      "inputs": [
        {
          "internalType": "uint256",
          "name": "badgeId",
          "type": "uint256"
        }
      ],
      "name": "getChallengeDepositValue",
      "outputs": [
        {
          "internalType": "uint256",
          "name": "",
          "type": "uint256"
        }
      ],
      "stateMutability": "view",
      "type": "function"
    },
    {
      "inputs": [
        {
          "internalType": "uint256",
          "name": "badgeId",
          "type": "uint256"
        }
      ],
      "name": "getRemovalDepositValue",
      "outputs": [
        {
          "internalType": "uint256",
          "name": "",
          "type": "uint256"
        }
      ],
      "stateMutability": "view",
      "type": "function"
    },
    {
      "inputs": [
        {
          "internalType": "bytes32",
          "name": "role",
          "type": "bytes32"
        }
      ],
      "name": "getRoleAdmin",
      "outputs": [
        {
          "internalType": "bytes32",
          "name": "",
          "type": "bytes32"
        }
      ],
      "stateMutability": "view",
      "type": "function"
    },
    {
      "inputs": [
        {
          "internalType": "bytes32",
          "name": "role",
          "type": "bytes32"
        },
        {
          "internalType": "address",
          "name": "account",
          "type": "address"
        }
      ],
      "name": "grantRole",
      "outputs": [],
      "stateMutability": "nonpayable",
      "type": "function"
    },
    {
      "inputs": [
        {
          "internalType": "bytes32",
          "name": "role",
          "type": "bytes32"
        },
        {
          "internalType": "address",
          "name": "account",
          "type": "address"
        }
      ],
      "name": "hasRole",
      "outputs": [
        {
          "internalType": "bool",
          "name": "",
          "type": "bool"
        }
      ],
      "stateMutability": "view",
      "type": "function"
    },
    {
      "inputs": [
        {
          "internalType": "address",
          "name": "admin",
          "type": "address"
        },
        {
          "internalType": "address",
          "name": "_theBadge",
          "type": "address"
        },
        {
          "internalType": "address",
          "name": "_arbitrator",
          "type": "address"
        },
        {
          "internalType": "address",
          "name": "_tcrFactory",
          "type": "address"
        }
      ],
      "name": "initialize",
      "outputs": [],
      "stateMutability": "nonpayable",
      "type": "function"
    },
    {
      "inputs": [
        {
          "internalType": "uint256",
          "name": "badgeId",
          "type": "uint256"
        }
      ],
      "name": "isAssetActive",
      "outputs": [
        {
          "internalType": "bool",
          "name": "",
          "type": "bool"
        }
      ],
      "stateMutability": "view",
      "type": "function"
    },
    {
      "inputs": [
        {
          "internalType": "uint256",
          "name": "badgeId",
          "type": "uint256"
        }
      ],
      "name": "isClaimable",
      "outputs": [
        {
          "internalType": "bool",
          "name": "",
          "type": "bool"
        }
      ],
      "stateMutability": "view",
      "type": "function"
    },
    {
      "inputs": [
        {
          "internalType": "uint256",
          "name": "",
          "type": "uint256"
        },
        {
          "internalType": "address",
          "name": "",
          "type": "address"
        }
      ],
      "name": "isMintable",
      "outputs": [
        {
          "internalType": "bool",
          "name": "",
          "type": "bool"
        }
      ],
      "stateMutability": "pure",
      "type": "function"
    },
    {
      "inputs": [
        {
          "internalType": "uint256",
          "name": "",
          "type": "uint256"
        }
      ],
      "name": "klerosBadge",
      "outputs": [
        {
          "internalType": "bytes32",
          "name": "itemID",
          "type": "bytes32"
        },
        {
          "internalType": "address",
          "name": "callee",
          "type": "address"
        },
        {
          "internalType": "uint256",
          "name": "deposit",
          "type": "uint256"
        },
        {
          "internalType": "bool",
          "name": "initialized",
          "type": "bool"
        }
      ],
      "stateMutability": "view",
      "type": "function"
    },
    {
      "inputs": [
        {
          "internalType": "uint256",
          "name": "",
          "type": "uint256"
        }
      ],
      "name": "klerosBadgeModel",
      "outputs": [
        {
          "internalType": "address",
          "name": "tcrList",
          "type": "address"
        }
      ],
      "stateMutability": "view",
      "type": "function"
    },
    {
      "inputs": [
        {
          "internalType": "address",
          "name": "callee",
          "type": "address"
        },
        {
          "internalType": "uint256",
          "name": "badgeModelId",
          "type": "uint256"
        },
        {
          "internalType": "uint256",
          "name": "badgeId",
          "type": "uint256"
        },
        {
          "internalType": "bytes",
          "name": "data",
          "type": "bytes"
        }
      ],
      "name": "mint",
      "outputs": [
        {
          "internalType": "uint256",
          "name": "",
          "type": "uint256"
        }
      ],
      "stateMutability": "payable",
      "type": "function"
    },
    {
      "inputs": [
        {
          "internalType": "uint256",
          "name": "badgeModelId",
          "type": "uint256"
        }
      ],
      "name": "mintValue",
      "outputs": [
        {
          "internalType": "uint256",
          "name": "",
          "type": "uint256"
        }
      ],
      "stateMutability": "view",
      "type": "function"
    },
    {
      "inputs": [],
      "name": "proxiableUUID",
      "outputs": [
        {
          "internalType": "bytes32",
          "name": "",
          "type": "bytes32"
        }
      ],
      "stateMutability": "view",
      "type": "function"
    },
    {
      "inputs": [
        {
          "internalType": "uint256",
          "name": "badgeId",
          "type": "uint256"
        },
        {
          "internalType": "bytes",
          "name": "data",
          "type": "bytes"
        }
      ],
      "name": "removeItem",
      "outputs": [],
      "stateMutability": "payable",
      "type": "function"
    },
    {
      "inputs": [
        {
          "internalType": "bytes32",
          "name": "role",
          "type": "bytes32"
        },
        {
          "internalType": "address",
          "name": "account",
          "type": "address"
        }
      ],
      "name": "renounceRole",
      "outputs": [],
      "stateMutability": "nonpayable",
      "type": "function"
    },
    {
      "inputs": [
        {
          "internalType": "bytes32",
          "name": "role",
          "type": "bytes32"
        },
        {
          "internalType": "address",
          "name": "account",
          "type": "address"
        }
      ],
      "name": "revokeRole",
      "outputs": [],
      "stateMutability": "nonpayable",
      "type": "function"
    },
    {
      "inputs": [
        {
          "internalType": "uint256",
          "name": "badgeId",
          "type": "uint256"
        },
        {
          "internalType": "bytes",
          "name": "data",
          "type": "bytes"
        }
      ],
      "name": "submitEvidence",
      "outputs": [],
      "stateMutability": "nonpayable",
      "type": "function"
    },
    {
      "inputs": [
        {
          "internalType": "bytes4",
          "name": "interfaceId",
          "type": "bytes4"
        }
      ],
      "name": "supportsInterface",
      "outputs": [
        {
          "internalType": "bool",
          "name": "",
          "type": "bool"
        }
      ],
      "stateMutability": "view",
      "type": "function"
    },
    {
      "inputs": [],
      "name": "tcrFactory",
      "outputs": [
        {
          "internalType": "address",
          "name": "",
          "type": "address"
        }
      ],
      "stateMutability": "view",
      "type": "function"
    },
    {
      "inputs": [],
      "name": "theBadge",
      "outputs": [
        {
          "internalType": "contract TheBadge",
          "name": "",
          "type": "address"
        }
      ],
      "stateMutability": "view",
      "type": "function"
    },
    {
      "inputs": [
        {
          "internalType": "address",
          "name": "newImplementation",
          "type": "address"
        }
      ],
      "name": "upgradeTo",
      "outputs": [],
      "stateMutability": "nonpayable",
      "type": "function"
    },
    {
      "inputs": [
        {
          "internalType": "address",
          "name": "newImplementation",
          "type": "address"
        },
        {
          "internalType": "bytes",
          "name": "data",
          "type": "bytes"
        }
      ],
      "name": "upgradeToAndCall",
      "outputs": [],
      "stateMutability": "payable",
      "type": "function"
    },
    {
      "stateMutability": "payable",
      "type": "receive"
    }
  ],
  "bytecode": "0x60a0604052306080523480156200001557600080fd5b50600054610100900460ff1615808015620000375750600054600160ff909116105b8062000067575062000054306200014160201b62001e041760201c565b15801562000067575060005460ff166001145b620000cf5760405162461bcd60e51b815260206004820152602e60248201527f496e697469616c697a61626c653a20636f6e747261637420697320616c72656160448201526d191e481a5b9a5d1a585b1a5e995960921b606482015260840160405180910390fd5b6000805460ff191660011790558015620000f3576000805461ff0019166101001790555b80156200013a576000805461ff0019169055604051600181527f7f26b83ff96e1f2b6a682f133852f6798a09c465da95921460cefb38474024989060200160405180910390a15b5062000150565b6001600160a01b03163b151590565b60805161349662000188600039600081816108a9015281816108e901528181610b8c01528181610bcc0152610c5b01526134966000f3fe6080604052600436106101f25760003560e01c806377addc421161010d578063a03aafbf116100a0578063d547741f1161006f578063d547741f14610635578063d7deba1514610655578063e63ab1e914610675578063f72c0d8b146106a9578063f8c8765e146106dd57600080fd5b8063a03aafbf146105b3578063a217fddf146105c6578063caa39ec5146105db578063d53913931461060157600080fd5b806391d14854116100dc57806391d148541461054057806393c7a71b146105605780639f780b1d146105805780639faf7158146105a057600080fd5b806377addc42146104965780637eb7f176146104cc5780637f345710146104ec57806389610a091461052057600080fd5b806338926b6d11610185578063632f7c8311610154578063632f7c831461040b5780636cc6cde11461042b578063731133e91461046357806377a3989e1461047657600080fd5b806338926b6d1461038f5780634f1ef286146103af57806352d1902d146103c257806362a2a47c146103d757600080fd5b80632f2ff15d116101c15780632f2ff15d146102b457806336568abe146102d65780633659cfe6146102f657806337a65d051461031657600080fd5b806301ffc9a7146101fe57806322e900c214610233578063248a9ca3146102535780632c0266961461029157600080fd5b366101f957005b600080fd5b34801561020a57600080fd5b5061021e6102193660046127f4565b6106fd565b60405190151581526020015b60405180910390f35b34801561023f57600080fd5b5061021e61024e36600461281e565b610734565b34801561025f57600080fd5b5061028361026e36600461281e565b600090815260cd602052604090206001015490565b60405190815260200161022a565b34801561029d57600080fd5b5061021e6102ac36600461285c565b600192915050565b3480156102c057600080fd5b506102d46102cf36600461285c565b6107f2565b005b3480156102e257600080fd5b506102d46102f136600461285c565b61081c565b34801561030257600080fd5b506102d461031136600461288c565b61089f565b34801561032257600080fd5b5061036561033136600461281e565b600460205260009081526040902080546001820154600283015460039093015491926001600160a01b039091169160ff1684565b604080519485526001600160a01b039093166020850152918301521515606082015260800161022a565b34801561039b57600080fd5b506102d46103aa3660046128f1565b61097e565b6102d46103bd366004612a54565b610b82565b3480156103ce57600080fd5b50610283610c4e565b3480156103e357600080fd5b506102837f2dca0f5ce7e75a4b43fe2b0d6f5d0b7a2bf92ecf89f8f0aa17b8308b6703882181565b34801561041757600080fd5b5061028361042636600461281e565b610d01565b34801561043757600080fd5b5060015461044b906001600160a01b031681565b6040516001600160a01b03909116815260200161022a565b610283610471366004612ab7565b610e6a565b34801561048257600080fd5b506102d46104913660046128f1565b611074565b3480156104a257600080fd5b5061044b6104b136600461281e565b6003602052600090815260409020546001600160a01b031681565b3480156104d857600080fd5b506102836104e736600461281e565b611381565b3480156104f857600080fd5b506102837f7804d923f43a17d325d77e781528e0793b2edd9890ab45fc64efd7b4b427744c81565b34801561052c57600080fd5b5061021e61053b36600461281e565b611415565b34801561054c57600080fd5b5061021e61055b36600461285c565b6116c9565b34801561056c57600080fd5b506102d461057b3660046128f1565b6116f4565b34801561058c57600080fd5b5060025461044b906001600160a01b031681565b6102d46105ae3660046128f1565b611808565b6102d46105c13660046128f1565b61191f565b3480156105d257600080fd5b50610283600081565b3480156105e757600080fd5b5060005461044b906201000090046001600160a01b031681565b34801561060d57600080fd5b506102837f9f2df0fed2c77648de5860a4cc508cd0818c85b8b8a1ab4ceeef8d981c8956a681565b34801561064157600080fd5b506102d461065036600461285c565b6119fc565b34801561066157600080fd5b5061028361067036600461281e565b611a21565b34801561068157600080fd5b506102837f65d7a28e3265b37a6474929f336521b332c1681b933f6cb9f3376673440d862a81565b3480156106b557600080fd5b506102837f189ab7a9244df0848122154315af71fe140f3db0fe014031783b0946b8c9d2e381565b3480156106e957600080fd5b506102d46106f8366004612b20565b611c47565b60006001600160e01b03198216637965db0b60e01b148061072e57506301ffc9a760e01b6001600160e01b03198316145b92915050565b60008061074083611e13565b600084815260046020819052604080832080549151634aac84e560e01b8152928301919091529293506001600160a01b03841690634aac84e590602401606060405180830381865afa15801561079a573d6000803e3d6000fd5b505050506040513d601f19601f820116820180604052508101906107be9190612b7c565b505090508060ff16600114806107d757508060ff166003145b156107e757506001949350505050565b506000949350505050565b600082815260cd602052604090206001015461080d81611f17565b6108178383611f21565b505050565b6001600160a01b03811633146108915760405162461bcd60e51b815260206004820152602f60248201527f416363657373436f6e74726f6c3a2063616e206f6e6c792072656e6f756e636560448201526e103937b632b9903337b91039b2b63360891b60648201526084015b60405180910390fd5b61089b8282611fa7565b5050565b6001600160a01b037f00000000000000000000000000000000000000000000000000000000000000001630036108e75760405162461bcd60e51b815260040161088890612bb9565b7f00000000000000000000000000000000000000000000000000000000000000006001600160a01b031661093060008051602061341a833981519152546001600160a01b031690565b6001600160a01b0316146109565760405162461bcd60e51b815260040161088890612c05565b61095f8161200e565b6040805160008082526020820190925261097b91839190612038565b50565b6000546201000090046001600160a01b031633146109af5760405163942e92c760e01b815260040160405180910390fd5b60006109ba84611e13565b6000858152600460208181526040928390208351608081018552815480825260018301546001600160a01b039081169483019490945260028301548287015260039092015460ff161515606082015293516374e120b360e11b815292830152929350909183169063e9c2416690602401600060405180830381600087803b158015610a4457600080fd5b505af1158015610a58573d6000803e3d6000fd5b505050504781604001511115610a81576040516398e2a0bb60e01b815260040160405180910390fd5b604081810180516000918290526020840151925190926001600160a01b03169083908381818185875af1925050503d8060008114610adb576040519150601f19603f3d011682016040523d82523d6000602084013e610ae0565b606091505b5050905080610b315760405162461bcd60e51b815260206004820152601c60248201527f4661696c656420746f2072657475726e20746865206465706f736974000000006044820152606401610888565b8683602001516001600160a01b03167f9794db68af033346a63dbc4509364afc3a23201eced8a4f3bc64d029abfacc6584604051610b7191815260200190565b60405180910390a350505050505050565b6001600160a01b037f0000000000000000000000000000000000000000000000000000000000000000163003610bca5760405162461bcd60e51b815260040161088890612bb9565b7f00000000000000000000000000000000000000000000000000000000000000006001600160a01b0316610c1360008051602061341a833981519152546001600160a01b031690565b6001600160a01b031614610c395760405162461bcd60e51b815260040161088890612c05565b610c428261200e565b61089b82826001612038565b6000306001600160a01b037f00000000000000000000000000000000000000000000000000000000000000001614610cee5760405162461bcd60e51b815260206004820152603860248201527f555550535570677261646561626c653a206d757374206e6f742062652063616c60448201527f6c6564207468726f7567682064656c656761746563616c6c00000000000000006064820152608401610888565b5060008051602061341a83398151915290565b6000818152600360205260408082208054600154835163063d63db60e11b8152935192936001600160a01b039283169386939092169163f7434ea9918591630c7ac7b69160048082019288929091908290030181865afa158015610d69573d6000803e3d6000fd5b505050506040513d6000823e601f3d908101601f19168201604052610d919190810190612cba565b6040518263ffffffff1660e01b8152600401610dad9190612d1a565b602060405180830381865afa158015610dca573d6000803e3d6000fd5b505050506040513d601f19601f82011682018060405250810190610dee9190612d2d565b90506000826001600160a01b031663bb0b86ff6040518163ffffffff1660e01b8152600401602060405180830381865afa158015610e30573d6000803e3d6000fd5b505050506040513d601f19601f82011682018060405250810190610e549190612d2d565b9050610e608183612d5c565b9695505050505050565b600080546201000090046001600160a01b03163314610e9c5760405163942e92c760e01b815260040160405180910390fd5b6000610ea786610d01565b9050803414610ec957604051637bcb3e5760e01b815260040160405180910390fd5b6000868152600360205260408120805490916001600160a01b0390911690610ef386880188612d8f565b80516040516309fa7ca560e21b81529192506001600160a01b038416916327e9f294913491610f259190600401612d1a565b6000604051808303818588803b158015610f3e57600080fd5b505af1158015610f52573d6000803e3d6000fd5b505050505060008160000151604051602001610f6e9190612e11565b60405160208183030381529060405280519060200120905060405180608001604052808281526020018c6001600160a01b0316815260200134815260200160011515815250600460008b81526020019081526020016000206000820151816000015560208201518160010160006101000a8154816001600160a01b0302191690836001600160a01b031602179055506040820151816002015560608201518160030160006101000a81548160ff021916908315150217905550905050887fdd7e1dd9a30843ba8c2619a3c5ce27830ad90612bad48feeb549fc94114d6261836000015160405161105e9190612d1a565b60405180910390a29a9950505050505050505050565b6000546201000090046001600160a01b031633146110a55760405163942e92c760e01b815260040160405180910390fd5b600083815260036020526040902080546001600160a01b0316156110dc57604051634d1068bd60e11b815260040160405180910390fd5b6002546001600160a01b031660006110f684860186612ea8565b60015460408083015190519293506001600160a01b038086169363d8dcbd27939091169161112a9160200190815260200190565b60408051601f1981840301815282825260608701516020840152910160408051601f19818403018152908290526111649291602001612f9f565b60408051808303601f1901815290829052608086015160a0870151875160e0808a015160c08b01516101008c015160208d0151938b901b6001600160e01b03191689526111bb999860009796959490600401612ff1565b600060405180830381600087803b1580156111d557600080fd5b505af11580156111e9573d6000803e3d6000fd5b5050505060006001836001600160a01b03166306661abd6040518163ffffffff1660e01b8152600401602060405180830381865afa15801561122f573d6000803e3d6000fd5b505050506040513d601f19601f820116820180604052508101906112539190612d2d565b61125d91906130b4565b60405163a2f7b3a560e01b8152600481018290529091506000906001600160a01b0385169063a2f7b3a5906024016020604051808303816000875af11580156112aa573d6000803e3d6000fd5b505050506040513d601f19601f820116820180604052508101906112ce91906130c7565b90506001600160a01b0381166112f757604051637788791560e11b815260040160405180910390fd5b60408051602080820183526001600160a01b0384811680845260008d8152600390935291849020925183546001600160a01b031916911617909155608085015160a0860151925191928b927f1e83a75c2089c1100e6d9a024ea6fdf619ec5a922a17230682fbf1217d2a7ec19261136f9290916130e4565b60405180910390a35050505050505050565b60008061138d83611e13565b9050600061139a846121a3565b90506000826001600160a01b031663c2f2beea6040518163ffffffff1660e01b8152600401602060405180830381865afa1580156113dc573d6000803e3d6000fd5b505050506040513d601f19601f820116820180604052508101906114009190612d2d565b905061140c828261238e565b95945050505050565b60008061142183611e13565b600084815260046020526040812060038101549293509160ff161515900361145c57604051630c11d07360e01b815260040160405180910390fd5b805460000361147e57604051630c11d07360e01b815260040160405180910390fd5b80546040516348f343f360e01b81526000916001600160a01b038516916348f343f3916114b19160040190815260200190565b606060405180830381865afa1580156114ce573d6000803e3d6000fd5b505050506040513d601f19601f820116820180604052508101906114f29190613109565b8454604051634aac84e560e01b81526004810191909152909350600092506001600160a01b0386169150634aac84e590602401606060405180830381865afa158015611542573d6000803e3d6000fd5b505050506040513d601f19601f820116820180604052508101906115669190612b7c565b505090506000600183611579919061317b565b8454604051635fde7f8d60e11b815260048101919091526001600160781b03919091166024820181905291506000906001600160a01b0387169063bfbcff1a90604401600060405180830381865afa1580156115d9573d6000803e3d6000fd5b505050506040513d6000823e601f3d908101601f1916820160405261160191908101906131cc565b50505050505050925050506000866001600160a01b03166282a36d6040518163ffffffff1660e01b8152600401602060405180830381865afa15801561164b573d6000803e3d6000fd5b505050506040513d601f19601f8201168201806040525081019061166f9190612d2d565b905060008161167e84426130b4565b1161168a57600061168d565b60015b90508460ff1660021480156116a457506001811515145b156116b9575060019998505050505050505050565b5060009998505050505050505050565b600091825260cd602090815260408084206001600160a01b0393909316845291905290205460ff1690565b6000546201000090046001600160a01b031633146117255760405163942e92c760e01b815260040160405180910390fd5b60008381526004602052604081206003810154909160ff9091161515900361176057604051630c11d07360e01b815260040160405180910390fd5b805460000361178257604051630c11d07360e01b815260040160405180910390fd5b6000611790838501856132ca565b9050600061179d86611e13565b835460405163f48a0b3160e01b81529192506001600160a01b0383169163f48a0b31916117ce9186906004016132fe565b600060405180830381600087803b1580156117e857600080fd5b505af11580156117fc573d6000803e3d6000fd5b50505050505050505050565b6000546201000090046001600160a01b031633146118395760405163942e92c760e01b815260040160405180910390fd5b60008381526004602052604081206003810154909160ff9091161515900361187457604051630c11d07360e01b815260040160405180910390fd5b805460000361189657604051630c11d07360e01b815260040160405180910390fd5b60006118a4838501856132ca565b905060006118b186611e13565b835460405163097e90e560e41b81529192506001600160a01b038316916397e90e509134916118e5919087906004016132fe565b6000604051808303818588803b1580156118fe57600080fd5b505af1158015611912573d6000803e3d6000fd5b5050505050505050505050565b6000546201000090046001600160a01b031633146119505760405163942e92c760e01b815260040160405180910390fd5b60008381526004602052604081206003810154909160ff9091161515900361198b57604051630c11d07360e01b815260040160405180910390fd5b80546000036119ad57604051630c11d07360e01b815260040160405180910390fd5b60006119bb838501856132ca565b905060006119c886611e13565b835460405163873db1a760e01b81529192506001600160a01b0383169163873db1a79134916118e5919087906004016132fe565b600082815260cd6020526040902060010154611a1781611f17565b6108178383611fa7565b6000818152600460205260408120600381015460ff1615158203611a5857604051630c11d07360e01b815260040160405180910390fd5b8054600003611a7a57604051630c11d07360e01b815260040160405180910390fd5b6000611a8584611e13565b8254604051634aac84e560e01b815260048101919091529091506000906001600160a01b03831690634aac84e590602401606060405180830381865afa158015611ad3573d6000803e3d6000fd5b505050506040513d601f19601f82011682018060405250810190611af79190612b7c565b505090506000611b06866121a3565b90508160ff16600103611b7f57610e60836001600160a01b031663a37b6ad46040518163ffffffff1660e01b8152600401602060405180830381865afa158015611b54573d6000803e3d6000fd5b505050506040513d601f19601f82011682018060405250810190611b789190612d2d565b829061238e565b8160ff16600203611bcb57610e60836001600160a01b031663c2f2beea6040518163ffffffff1660e01b8152600401602060405180830381865afa158015611b54573d6000803e3d6000fd5b8160ff16600303611be25750600095945050505050565b8160ff16600403611c2e57610e60836001600160a01b031663787471a96040518163ffffffff1660e01b8152600401602060405180830381865afa158015611b54573d6000803e3d6000fd5b6040516305e5cf6360e41b815260040160405180910390fd5b600054610100900460ff1615808015611c675750600054600160ff909116105b80611c815750303b158015611c81575060005460ff166001145b611ce45760405162461bcd60e51b815260206004820152602e60248201527f496e697469616c697a61626c653a20636f6e747261637420697320616c72656160448201526d191e481a5b9a5d1a585b1a5e995960921b6064820152608401610888565b6000805460ff191660011790558015611d07576000805461ff0019166101001790555b611d12600086611f21565b611d3c7f65d7a28e3265b37a6474929f336521b332c1681b933f6cb9f3376673440d862a33611f21565b611d667f189ab7a9244df0848122154315af71fe140f3db0fe014031783b0946b8c9d2e333611f21565b600080546001600160a01b03808716620100000262010000600160b01b031990921691909117909155600180548583166001600160a01b03199182161790915560028054928516929091169190911790558015611dfd576000805461ff0019169055604051600181527f7f26b83ff96e1f2b6a682f133852f6798a09c465da95921460cefb38474024989060200160405180910390a15b5050505050565b6001600160a01b03163b151590565b600080546040516398e36d8b60e01b81526004810184905282916201000090046001600160a01b0316906398e36d8b90602401608060405180830381865afa158015611e63573d6000803e3d6000fd5b505050506040513d601f19601f82011682018060405250810190611e879190613317565b50505060008181526003602052604090208054919250906001600160a01b0316611f065760405162461bcd60e51b815260206004820152602a60248201527f56616c6964206b6c65726f7342616467654d6f64656c496420726571756972656044820152696420666f72205443522160b01b6064820152608401610888565b546001600160a01b03169392505050565b61097b81336123b7565b611f2b82826116c9565b61089b57600082815260cd602090815260408083206001600160a01b03851684529091529020805460ff19166001179055611f633390565b6001600160a01b0316816001600160a01b0316837f2f8788117e7eff1d82e926ec794901d17c78024a50270940304540a733656f0d60405160405180910390a45050565b611fb182826116c9565b1561089b57600082815260cd602090815260408083206001600160a01b0385168085529252808320805460ff1916905551339285917ff6391f5c32d9c69d2a47ea670b442974b53935d1edc7fd64eb21e047a839171b9190a45050565b7f189ab7a9244df0848122154315af71fe140f3db0fe014031783b0946b8c9d2e361089b81611f17565b7f4910fdfa16fed3260ed0e7147f7cc6da11a60208b5b9406d12a635614ffd91435460ff161561206b5761081783612410565b826001600160a01b03166352d1902d6040518163ffffffff1660e01b8152600401602060405180830381865afa9250505080156120c5575060408051601f3d908101601f191682019092526120c291810190612d2d565b60015b6121285760405162461bcd60e51b815260206004820152602e60248201527f45524331393637557067726164653a206e657720696d706c656d656e7461746960448201526d6f6e206973206e6f74205555505360901b6064820152608401610888565b60008051602061341a83398151915281146121975760405162461bcd60e51b815260206004820152602960248201527f45524331393637557067726164653a20756e737570706f727465642070726f786044820152681a58589b195555525160ba1b6064820152608401610888565b506108178383836124ac565b600081815260046020908152604080832081516080810183528154815260018201546001600160a01b0316938101939093526002810154918301919091526003015460ff1615156060820152816121f984611e13565b82516040516348f343f360e01b815260048101919091529091506000906001600160a01b038316906348f343f390602401606060405180830381865afa158015612247573d6000803e3d6000fd5b505050506040513d601f19601f8201168201806040525081019061226b9190613109565b92505050600060018261227e919061317b565b8451604051635fde7f8d60e11b815260048101919091526001600160781b03919091166024820181905291506000906001600160a01b0385169063bfbcff1a90604401600060405180830381865afa1580156122de573d6000803e3d6000fd5b505050506040513d6000823e601f3d908101601f1916820160405261230691908101906131cc565b5060015460405163f7434ea960e01b8152919a506001600160a01b0316985063f7434ea9975061234296508995506004019350612d1a92505050565b602060405180830381865afa15801561235f573d6000803e3d6000fd5b505050506040513d601f19601f820116820180604052508101906123839190612d2d565b979650505050505050565b60008061239b8385612d5c565b9050838110156123ad576000196123af565b805b949350505050565b6123c182826116c9565b61089b576123ce816124d7565b6123d98360206124e9565b6040516020016123ea929190613360565b60408051601f198184030181529082905262461bcd60e51b825261088891600401612d1a565b6001600160a01b0381163b61247d5760405162461bcd60e51b815260206004820152602d60248201527f455243313936373a206e657720696d706c656d656e746174696f6e206973206e60448201526c1bdd08184818dbdb9d1c9858dd609a1b6064820152608401610888565b60008051602061341a83398151915280546001600160a01b0319166001600160a01b0392909216919091179055565b6124b583612684565b6000825111806124c25750805b15610817576124d183836126c4565b50505050565b606061072e6001600160a01b03831660145b606060006124f88360026133d5565b612503906002612d5c565b6001600160401b0381111561251a5761251a61293c565b6040519080825280601f01601f191660200182016040528015612544576020820181803683370190505b509050600360fc1b8160008151811061255f5761255f6133ec565b60200101906001600160f81b031916908160001a905350600f60fb1b8160018151811061258e5761258e6133ec565b60200101906001600160f81b031916908160001a90535060006125b28460026133d5565b6125bd906001612d5c565b90505b6001811115612635576f181899199a1a9b1b9c1cb0b131b232b360811b85600f16601081106125f1576125f16133ec565b1a60f81b828281518110612607576126076133ec565b60200101906001600160f81b031916908160001a90535060049490941c9361262e81613402565b90506125c0565b5083156123ad5760405162461bcd60e51b815260206004820181905260248201527f537472696e67733a20686578206c656e67746820696e73756666696369656e746044820152606401610888565b61268d81612410565b6040516001600160a01b038216907fbc7cd75a20ee27fd9adebab32041f755214dbc6bffa90cc0225b39da2e5c2d3b90600090a250565b60606001600160a01b0383163b61272c5760405162461bcd60e51b815260206004820152602660248201527f416464726573733a2064656c65676174652063616c6c20746f206e6f6e2d636f6044820152651b9d1c9858dd60d21b6064820152608401610888565b600080846001600160a01b0316846040516127479190612e11565b600060405180830381855af49150503d8060008114612782576040519150601f19603f3d011682016040523d82523d6000602084013e612787565b606091505b509150915061140c828260405180606001604052806027815260200161343a60279139606083156127b95750816127c3565b6127c383836127ca565b9392505050565b8151156127da5781518083602001fd5b8060405162461bcd60e51b81526004016108889190612d1a565b60006020828403121561280657600080fd5b81356001600160e01b0319811681146123ad57600080fd5b60006020828403121561283057600080fd5b5035919050565b6001600160a01b038116811461097b57600080fd5b803561285781612837565b919050565b6000806040838503121561286f57600080fd5b82359150602083013561288181612837565b809150509250929050565b60006020828403121561289e57600080fd5b81356123ad81612837565b60008083601f8401126128bb57600080fd5b5081356001600160401b038111156128d257600080fd5b6020830191508360208285010111156128ea57600080fd5b9250929050565b60008060006040848603121561290657600080fd5b8335925060208401356001600160401b0381111561292357600080fd5b61292f868287016128a9565b9497909650939450505050565b634e487b7160e01b600052604160045260246000fd5b60405161012081016001600160401b03811182821017156129755761297561293c565b60405290565b604051608081016001600160401b03811182821017156129755761297561293c565b604051606081016001600160401b03811182821017156129755761297561293c565b604051601f8201601f191681016001600160401b03811182821017156129e7576129e761293c565b604052919050565b60006001600160401b03821115612a0857612a0861293c565b50601f01601f191660200190565b6000612a29612a24846129ef565b6129bf565b9050828152838383011115612a3d57600080fd5b828260208301376000602084830101529392505050565b60008060408385031215612a6757600080fd5b8235612a7281612837565b915060208301356001600160401b03811115612a8d57600080fd5b8301601f81018513612a9e57600080fd5b612aad85823560208401612a16565b9150509250929050565b600080600080600060808688031215612acf57600080fd5b8535612ada81612837565b9450602086013593506040860135925060608601356001600160401b03811115612b0357600080fd5b612b0f888289016128a9565b969995985093965092949392505050565b60008060008060808587031215612b3657600080fd5b8435612b4181612837565b93506020850135612b5181612837565b92506040850135612b6181612837565b91506060850135612b7181612837565b939692955090935050565b600080600060608486031215612b9157600080fd5b835160ff81168114612ba257600080fd5b602085015160409095015190969495509392505050565b6020808252602c908201527f46756e6374696f6e206d7573742062652063616c6c6564207468726f7567682060408201526b19195b1959d85d1958d85b1b60a21b606082015260800190565b6020808252602c908201527f46756e6374696f6e206d7573742062652063616c6c6564207468726f7567682060408201526b6163746976652070726f787960a01b606082015260800190565b60005b83811015612c6c578181015183820152602001612c54565b50506000910152565b600082601f830112612c8657600080fd5b8151612c94612a24826129ef565b818152846020838601011115612ca957600080fd5b6123af826020830160208701612c51565b600060208284031215612ccc57600080fd5b81516001600160401b03811115612ce257600080fd5b6123af84828501612c75565b60008151808452612d06816020860160208601612c51565b601f01601f19169290920160200192915050565b6020815260006127c36020830184612cee565b600060208284031215612d3f57600080fd5b5051919050565b634e487b7160e01b600052601160045260246000fd5b8082018082111561072e5761072e612d46565b600082601f830112612d8057600080fd5b6127c383833560208501612a16565b600060208284031215612da157600080fd5b81356001600160401b0380821115612db857600080fd5b9083019060208286031215612dcc57600080fd5b604051602081018181108382111715612de757612de761293c565b604052823582811115612df957600080fd5b612e0587828601612d6f565b82525095945050505050565b60008251612e23818460208701612c51565b9190910192915050565b600082601f830112612e3e57600080fd5b612e4661297b565b806080840185811115612e5857600080fd5b845b81811015612e72578035845260209384019301612e5a565b509095945050505050565b600082601f830112612e8e57600080fd5b612e9661299d565b806060840185811115612e5857600080fd5b600060208284031215612eba57600080fd5b81356001600160401b0380821115612ed157600080fd5b908301906101c08286031215612ee657600080fd5b612eee612952565b612ef78361284c565b8152612f056020840161284c565b60208201526040830135604082015260608301356060820152608083013582811115612f3057600080fd5b612f3c87828601612d6f565b60808301525060a083013582811115612f5457600080fd5b612f6087828601612d6f565b60a08301525060c083013560c0820152612f7d8660e08501612e2d565b60e0820152612f90866101608501612e7d565b61010082015295945050505050565b60008351612fb1818460208801612c51565b835190830190612fc5818360208801612c51565b01949350505050565b8060005b60038110156124d1578151845260209384019390910190600101612fd2565b6001600160a01b038b811682526101e06020808401829052600092906130198584018f612cee565b9250818d1660408601528483036060860152613035838d612cee565b92508483036080860152613049838c612cee565b9350818a1660a086015260c08501925088915060005b600481101561307c5782518452928101929181019160010161305f565b5050505084610140830152613095610160830185612fce565b6001600160a01b0383166101c08301529b9a5050505050505050505050565b8181038181111561072e5761072e612d46565b6000602082840312156130d957600080fd5b81516123ad81612837565b6040815260006130f76040830185612cee565b828103602084015261140c8185612cee565b60008060006060848603121561311e57600080fd5b83516004811061312d57600080fd5b60208501519093506fffffffffffffffffffffffffffffffff8116811461315357600080fd5b60408501519092506001600160781b038116811461317057600080fd5b809150509250925092565b6001600160781b0382811682821603908082111561319b5761319b612d46565b5092915050565b8051801515811461285757600080fd5b80516003811061285757600080fd5b805161285781612837565b6000806000806000806000806000806101808b8d0312156131ec57600080fd5b6131f58b6131a2565b99506020808c0151995060408c0151985061321260608d016131a2565b97508c609f8d011261322357600080fd5b61322b61299d565b8060e08e018f81111561323d57600080fd5b60808f015b8181101561326257805161325581612837565b8452928401928401613242565b505190985096506132799150506101008c016131b2565b93506132886101208c016131c1565b92506101408b01516001600160401b038111156132a457600080fd5b6132b08d828e01612c75565b9250506101608b015190509295989b9194979a5092959850565b6000602082840312156132dc57600080fd5b81356001600160401b038111156132f257600080fd5b6123af84828501612d6f565b8281526040602082015260006123af6040830184612cee565b6000806000806080858703121561332d57600080fd5b84519350602085015161333f81612837565b60408601519093509150613355606086016131a2565b905092959194509250565b7f416363657373436f6e74726f6c3a206163636f756e7420000000000000000000815260008351613398816017850160208801612c51565b7001034b99036b4b9b9b4b733903937b6329607d1b60179184019182015283516133c9816028840160208801612c51565b01602801949350505050565b808202811582820484141761072e5761072e612d46565b634e487b7160e01b600052603260045260246000fd5b60008161341157613411612d46565b50600019019056fe360894a13ba1a3210667c828492db98dca3e2076cc3735a920a3ca505d382bbc416464726573733a206c6f772d6c6576656c2064656c65676174652063616c6c206661696c6564a26469706673582212206f0339052838757635a634bd00d0025f2b1c68c183e34d0b2d5acf74e7f8e1e164736f6c63430008110033",
  "linkReferences": {},
  "deployedLinkReferences": {}
}