{
  "_format": "hh-sol-artifact-1",
  "contractName": "KlerosBadgeModelControllerStore",
  "sourceName": "src/contracts/badgeModelControllers/KlerosBadgeModelControllerStore.sol",
  "abi": [
    {
      "inputs": [],
      "stateMutability": "nonpayable",
      "type": "constructor"
    },
    {
      "inputs": [],
      "name": "AccessControlBadConfirmation",
      "type": "error"
    },
    {
      "inputs": [
        {
          "internalType": "address",
          "name": "account",
          "type": "address"
        },
        {
          "internalType": "bytes32",
          "name": "neededRole",
          "type": "bytes32"
        }
      ],
      "name": "AccessControlUnauthorizedAccount",
      "type": "error"
    },
    {
      "inputs": [],
      "name": "InvalidInitialization",
      "type": "error"
    },
    {
      "inputs": [],
      "name": "KlerosBadgeModelController__badgeModel__NotFound",
      "type": "error"
    },
    {
      "inputs": [],
      "name": "KlerosBadgeModelController__badge__klerosBadgeNotFound",
      "type": "error"
    },
    {
      "inputs": [],
      "name": "KlerosBadgeModelController__createBadgeModel_badgeModelAlreadyCreated",
      "type": "error"
    },
    {
      "inputs": [],
      "name": "KlerosBadgeModelController__store_ContractNameAlreadyExists",
      "type": "error"
    },
    {
      "inputs": [],
      "name": "KlerosBadgeModelController__store_InvalidContractAddress",
      "type": "error"
    },
    {
      "inputs": [],
      "name": "KlerosBadgeModelController__store_InvalidContractName",
      "type": "error"
    },
    {
      "inputs": [],
      "name": "KlerosBadgeModelController__store_OperationNotPermitted",
      "type": "error"
    },
    {
      "inputs": [],
      "name": "KlerosBadgeModelController__user__userNotFound",
      "type": "error"
    },
    {
      "inputs": [],
      "name": "KlerosBadgeModelController__user__userVerificationAlreadyStarted",
      "type": "error"
    },
    {
      "inputs": [],
      "name": "NotInitializing",
      "type": "error"
    },
    {
      "inputs": [
        {
          "internalType": "address",
          "name": "owner",
          "type": "address"
        }
      ],
      "name": "OwnableInvalidOwner",
      "type": "error"
    },
    {
      "inputs": [
        {
          "internalType": "address",
          "name": "account",
          "type": "address"
        }
      ],
      "name": "OwnableUnauthorizedAccount",
      "type": "error"
    },
    {
      "anonymous": false,
      "inputs": [
        {
          "indexed": true,
          "internalType": "string",
          "name": "_contractName",
          "type": "string"
        },
        {
          "indexed": true,
          "internalType": "address",
          "name": "contractAddress",
          "type": "address"
        }
      ],
      "name": "ContractAdded",
      "type": "event"
    },
    {
      "anonymous": false,
      "inputs": [
        {
          "indexed": true,
          "internalType": "string",
          "name": "_contractName",
          "type": "string"
        },
        {
          "indexed": true,
          "internalType": "address",
          "name": "contractAddress",
          "type": "address"
        }
      ],
      "name": "ContractRemoved",
      "type": "event"
    },
    {
      "anonymous": false,
      "inputs": [
        {
          "indexed": true,
          "internalType": "string",
          "name": "_contractName",
          "type": "string"
        },
        {
          "indexed": true,
          "internalType": "address",
          "name": "contractAddress",
          "type": "address"
        }
      ],
      "name": "ContractUpdated",
      "type": "event"
    },
    {
      "anonymous": false,
      "inputs": [
        {
          "indexed": false,
          "internalType": "uint64",
          "name": "version",
          "type": "uint64"
        }
      ],
      "name": "Initialized",
      "type": "event"
    },
    {
      "anonymous": false,
      "inputs": [
        {
          "indexed": true,
          "internalType": "address",
          "name": "previousOwner",
          "type": "address"
        },
        {
          "indexed": true,
          "internalType": "address",
          "name": "newOwner",
          "type": "address"
        }
      ],
      "name": "OwnershipTransferred",
      "type": "event"
    },
    {
      "anonymous": false,
      "inputs": [
        {
          "indexed": true,
          "internalType": "bytes32",
          "name": "role",
          "type": "bytes32"
        },
        {
          "indexed": true,
          "internalType": "bytes32",
          "name": "previousAdminRole",
          "type": "bytes32"
        },
        {
          "indexed": true,
          "internalType": "bytes32",
          "name": "newAdminRole",
          "type": "bytes32"
        }
      ],
      "name": "RoleAdminChanged",
      "type": "event"
    },
    {
      "anonymous": false,
      "inputs": [
        {
          "indexed": true,
          "internalType": "bytes32",
          "name": "role",
          "type": "bytes32"
        },
        {
          "indexed": true,
          "internalType": "address",
          "name": "account",
          "type": "address"
        },
        {
          "indexed": true,
          "internalType": "address",
          "name": "sender",
          "type": "address"
        }
      ],
      "name": "RoleGranted",
      "type": "event"
    },
    {
      "anonymous": false,
      "inputs": [
        {
          "indexed": true,
          "internalType": "bytes32",
          "name": "role",
          "type": "bytes32"
        },
        {
          "indexed": true,
          "internalType": "address",
          "name": "account",
          "type": "address"
        },
        {
          "indexed": true,
          "internalType": "address",
          "name": "sender",
          "type": "address"
        }
      ],
      "name": "RoleRevoked",
      "type": "event"
    },
    {
      "inputs": [],
      "name": "CLAIMER_ROLE",
      "outputs": [
        {
          "internalType": "bytes32",
          "name": "",
          "type": "bytes32"
        }
      ],
      "stateMutability": "view",
      "type": "function"
    },
    {
      "inputs": [],
      "name": "DEFAULT_ADMIN_ROLE",
      "outputs": [
        {
          "internalType": "bytes32",
          "name": "",
          "type": "bytes32"
        }
      ],
      "stateMutability": "view",
      "type": "function"
    },
    {
      "inputs": [],
      "name": "PAUSER_ROLE",
      "outputs": [
        {
          "internalType": "bytes32",
          "name": "",
          "type": "bytes32"
        }
      ],
      "stateMutability": "view",
      "type": "function"
    },
    {
      "inputs": [],
      "name": "UPGRADER_ROLE",
      "outputs": [
        {
          "internalType": "bytes32",
          "name": "",
          "type": "bytes32"
        }
      ],
      "stateMutability": "view",
      "type": "function"
    },
    {
      "inputs": [],
      "name": "URI_SETTER_ROLE",
      "outputs": [
        {
          "internalType": "bytes32",
          "name": "",
          "type": "bytes32"
        }
      ],
      "stateMutability": "view",
      "type": "function"
    },
    {
      "inputs": [],
      "name": "USER_MANAGER_ROLE",
      "outputs": [
        {
          "internalType": "bytes32",
          "name": "",
          "type": "bytes32"
        }
      ],
      "stateMutability": "view",
      "type": "function"
    },
    {
      "inputs": [],
      "name": "VERIFIER_ROLE",
      "outputs": [
        {
          "internalType": "bytes32",
          "name": "",
          "type": "bytes32"
        }
      ],
      "stateMutability": "view",
      "type": "function"
    },
    {
      "inputs": [
        {
          "internalType": "uint256",
          "name": "badgeId",
          "type": "uint256"
        },
        {
          "components": [
            {
              "internalType": "bytes32",
              "name": "itemID",
              "type": "bytes32"
            },
            {
              "internalType": "uint256",
              "name": "badgeModelId",
              "type": "uint256"
            },
            {
              "internalType": "address",
              "name": "callee",
              "type": "address"
            },
            {
              "internalType": "uint256",
              "name": "deposit",
              "type": "uint256"
            },
            {
              "internalType": "address",
              "name": "destinationAddress",
              "type": "address"
            },
            {
              "internalType": "bool",
              "name": "initialized",
              "type": "bool"
            }
          ],
          "internalType": "struct KlerosBadgeModelControllerStore.KlerosBadge",
          "name": "badge",
          "type": "tuple"
        }
      ],
      "name": "addKlerosBadge",
      "outputs": [],
      "stateMutability": "nonpayable",
      "type": "function"
    },
    {
      "inputs": [
        {
          "internalType": "string",
          "name": "_contractName",
          "type": "string"
        },
        {
          "internalType": "address",
          "name": "_contractAddress",
          "type": "address"
        }
      ],
      "name": "addPermittedContract",
      "outputs": [],
      "stateMutability": "nonpayable",
      "type": "function"
    },
    {
      "inputs": [
        {
          "internalType": "address",
          "name": "",
          "type": "address"
        }
      ],
      "name": "allowedContractAddresses",
      "outputs": [
        {
          "internalType": "bool",
          "name": "",
          "type": "bool"
        }
      ],
      "stateMutability": "view",
      "type": "function"
    },
    {
      "inputs": [
        {
          "internalType": "string",
          "name": "",
          "type": "string"
        }
      ],
      "name": "allowedContractAddressesByContractName",
      "outputs": [
        {
          "internalType": "address",
          "name": "",
          "type": "address"
        }
      ],
      "stateMutability": "view",
      "type": "function"
    },
    {
      "inputs": [],
      "name": "arbitrator",
      "outputs": [
        {
          "internalType": "contract IArbitrator",
          "name": "",
          "type": "address"
        }
      ],
      "stateMutability": "view",
      "type": "function"
    },
    {
      "inputs": [
        {
          "internalType": "uint256",
          "name": "badgeId",
          "type": "uint256"
        }
      ],
      "name": "clearKlerosBadgeDepositAmount",
      "outputs": [],
      "stateMutability": "nonpayable",
      "type": "function"
    },
    {
      "inputs": [
        {
          "internalType": "uint256",
          "name": "_badgeModelId",
          "type": "uint256"
        },
        {
          "internalType": "address",
          "name": "_owner",
          "type": "address"
        },
        {
          "internalType": "address",
          "name": "_tcrList",
          "type": "address"
        },
        {
          "internalType": "address",
          "name": "_governor",
          "type": "address"
        },
        {
          "internalType": "address",
          "name": "_admin",
          "type": "address"
        }
      ],
      "name": "createKlerosBadgeModel",
      "outputs": [],
      "stateMutability": "nonpayable",
      "type": "function"
    },
    {
      "inputs": [],
      "name": "getArbitrator",
      "outputs": [
        {
          "internalType": "contract IArbitrator",
          "name": "",
          "type": "address"
        }
      ],
      "stateMutability": "view",
      "type": "function"
    },
    {
      "inputs": [],
      "name": "getCurrentBadgeIdCounter",
      "outputs": [
        {
          "internalType": "uint256",
          "name": "",
          "type": "uint256"
        }
      ],
      "stateMutability": "view",
      "type": "function"
    },
    {
      "inputs": [],
      "name": "getCurrentBadgeModelsIdCounter",
      "outputs": [
        {
          "internalType": "uint256",
          "name": "",
          "type": "uint256"
        }
      ],
      "stateMutability": "view",
      "type": "function"
    },
    {
      "inputs": [
        {
          "internalType": "uint256",
          "name": "badgeId",
          "type": "uint256"
        }
      ],
      "name": "getKlerosBadge",
      "outputs": [
        {
          "components": [
            {
              "internalType": "bytes32",
              "name": "itemID",
              "type": "bytes32"
            },
            {
              "internalType": "uint256",
              "name": "badgeModelId",
              "type": "uint256"
            },
            {
              "internalType": "address",
              "name": "callee",
              "type": "address"
            },
            {
              "internalType": "uint256",
              "name": "deposit",
              "type": "uint256"
            },
            {
              "internalType": "address",
              "name": "destinationAddress",
              "type": "address"
            },
            {
              "internalType": "bool",
              "name": "initialized",
              "type": "bool"
            }
          ],
          "internalType": "struct KlerosBadgeModelControllerStore.KlerosBadge",
          "name": "",
          "type": "tuple"
        }
      ],
      "stateMutability": "view",
      "type": "function"
    },
    {
      "inputs": [
        {
          "internalType": "uint256",
          "name": "badgeModelId",
          "type": "uint256"
        }
      ],
      "name": "getKlerosBadgeModel",
      "outputs": [
        {
          "components": [
            {
              "internalType": "address",
              "name": "owner",
              "type": "address"
            },
            {
              "internalType": "uint256",
              "name": "badgeModelId",
              "type": "uint256"
            },
            {
              "internalType": "address",
              "name": "tcrList",
              "type": "address"
            },
            {
              "internalType": "address",
              "name": "governor",
              "type": "address"
            },
            {
              "internalType": "address",
              "name": "admin",
              "type": "address"
            },
            {
              "internalType": "bool",
              "name": "initialized",
              "type": "bool"
            }
          ],
          "internalType": "struct KlerosBadgeModelControllerStore.KlerosBadgeModel",
          "name": "",
          "type": "tuple"
        }
      ],
      "stateMutability": "view",
      "type": "function"
    },
    {
      "inputs": [
        {
          "internalType": "address",
          "name": "userAddress",
          "type": "address"
        }
      ],
      "name": "getKlerosUser",
      "outputs": [
        {
          "components": [
            {
              "internalType": "address",
              "name": "user",
              "type": "address"
            },
            {
              "internalType": "string",
              "name": "userMetadata",
              "type": "string"
            },
            {
              "internalType": "string",
              "name": "verificationEvidence",
              "type": "string"
            },
            {
              "internalType": "enum LibKlerosBadgeModelController.VerificationStatus",
              "name": "verificationStatus",
              "type": "uint8"
            },
            {
              "internalType": "bool",
              "name": "initialized",
              "type": "bool"
            }
          ],
          "internalType": "struct KlerosBadgeModelControllerStore.KlerosUser",
          "name": "",
          "type": "tuple"
        }
      ],
      "stateMutability": "view",
      "type": "function"
    },
    {
      "inputs": [
        {
          "internalType": "bytes32",
          "name": "role",
          "type": "bytes32"
        }
      ],
      "name": "getRoleAdmin",
      "outputs": [
        {
          "internalType": "bytes32",
          "name": "",
          "type": "bytes32"
        }
      ],
      "stateMutability": "view",
      "type": "function"
    },
    {
      "inputs": [],
      "name": "getTCRFactory",
      "outputs": [
        {
          "internalType": "address",
          "name": "",
          "type": "address"
        }
      ],
      "stateMutability": "view",
      "type": "function"
    },
    {
      "inputs": [],
      "name": "getVerifyUserProtocolFee",
      "outputs": [
        {
          "internalType": "uint256",
          "name": "",
          "type": "uint256"
        }
      ],
      "stateMutability": "view",
      "type": "function"
    },
    {
      "inputs": [
        {
          "internalType": "bytes32",
          "name": "role",
          "type": "bytes32"
        },
        {
          "internalType": "address",
          "name": "account",
          "type": "address"
        }
      ],
      "name": "grantRole",
      "outputs": [],
      "stateMutability": "nonpayable",
      "type": "function"
    },
    {
      "inputs": [
        {
          "internalType": "bytes32",
          "name": "role",
          "type": "bytes32"
        },
        {
          "internalType": "address",
          "name": "account",
          "type": "address"
        }
      ],
      "name": "hasRole",
      "outputs": [
        {
          "internalType": "bool",
          "name": "",
          "type": "bool"
        }
      ],
      "stateMutability": "view",
      "type": "function"
    },
    {
      "inputs": [
        {
          "internalType": "address",
          "name": "admin",
          "type": "address"
        },
        {
          "internalType": "address",
          "name": "_arbitrator",
          "type": "address"
        },
        {
          "internalType": "address",
          "name": "_tcrFactory",
          "type": "address"
        }
      ],
      "name": "initialize",
      "outputs": [],
      "stateMutability": "nonpayable",
      "type": "function"
    },
    {
      "inputs": [
        {
          "internalType": "uint256",
          "name": "",
          "type": "uint256"
        }
      ],
      "name": "klerosBadgeModels",
      "outputs": [
        {
          "internalType": "address",
          "name": "owner",
          "type": "address"
        },
        {
          "internalType": "uint256",
          "name": "badgeModelId",
          "type": "uint256"
        },
        {
          "internalType": "address",
          "name": "tcrList",
          "type": "address"
        },
        {
          "internalType": "address",
          "name": "governor",
          "type": "address"
        },
        {
          "internalType": "address",
          "name": "admin",
          "type": "address"
        },
        {
          "internalType": "bool",
          "name": "initialized",
          "type": "bool"
        }
      ],
      "stateMutability": "view",
      "type": "function"
    },
    {
      "inputs": [
        {
          "internalType": "uint256",
          "name": "",
          "type": "uint256"
        }
      ],
      "name": "klerosBadges",
      "outputs": [
        {
          "internalType": "bytes32",
          "name": "itemID",
          "type": "bytes32"
        },
        {
          "internalType": "uint256",
          "name": "badgeModelId",
          "type": "uint256"
        },
        {
          "internalType": "address",
          "name": "callee",
          "type": "address"
        },
        {
          "internalType": "uint256",
          "name": "deposit",
          "type": "uint256"
        },
        {
          "internalType": "address",
          "name": "destinationAddress",
          "type": "address"
        },
        {
          "internalType": "bool",
          "name": "initialized",
          "type": "bool"
        }
      ],
      "stateMutability": "view",
      "type": "function"
    },
    {
      "inputs": [
        {
          "internalType": "address",
          "name": "",
          "type": "address"
        }
      ],
      "name": "klerosUsers",
      "outputs": [
        {
          "internalType": "address",
          "name": "user",
          "type": "address"
        },
        {
          "internalType": "string",
          "name": "userMetadata",
          "type": "string"
        },
        {
          "internalType": "string",
          "name": "verificationEvidence",
          "type": "string"
        },
        {
          "internalType": "enum LibKlerosBadgeModelController.VerificationStatus",
          "name": "verificationStatus",
          "type": "uint8"
        },
        {
          "internalType": "bool",
          "name": "initialized",
          "type": "bool"
        }
      ],
      "stateMutability": "view",
      "type": "function"
    },
    {
      "inputs": [],
      "name": "owner",
      "outputs": [
        {
          "internalType": "address",
          "name": "",
          "type": "address"
        }
      ],
      "stateMutability": "view",
      "type": "function"
    },
    {
      "inputs": [
        {
          "internalType": "address",
          "name": "userAddress",
          "type": "address"
        },
        {
          "components": [
            {
              "internalType": "address",
              "name": "user",
              "type": "address"
            },
            {
              "internalType": "string",
              "name": "userMetadata",
              "type": "string"
            },
            {
              "internalType": "string",
              "name": "verificationEvidence",
              "type": "string"
            },
            {
              "internalType": "enum LibKlerosBadgeModelController.VerificationStatus",
              "name": "verificationStatus",
              "type": "uint8"
            },
            {
              "internalType": "bool",
              "name": "initialized",
              "type": "bool"
            }
          ],
          "internalType": "struct KlerosBadgeModelControllerStore.KlerosUser",
          "name": "newUser",
          "type": "tuple"
        }
      ],
      "name": "registerKlerosUser",
      "outputs": [],
      "stateMutability": "nonpayable",
      "type": "function"
    },
    {
      "inputs": [
        {
          "internalType": "string",
          "name": "_contractName",
          "type": "string"
        }
      ],
      "name": "removePermittedContract",
      "outputs": [],
      "stateMutability": "nonpayable",
      "type": "function"
    },
    {
      "inputs": [],
      "name": "renounceOwnership",
      "outputs": [],
      "stateMutability": "nonpayable",
      "type": "function"
    },
    {
      "inputs": [
        {
          "internalType": "bytes32",
          "name": "role",
          "type": "bytes32"
        },
        {
          "internalType": "address",
          "name": "callerConfirmation",
          "type": "address"
        }
      ],
      "name": "renounceRole",
      "outputs": [],
      "stateMutability": "nonpayable",
      "type": "function"
    },
    {
      "inputs": [
        {
          "internalType": "bytes32",
          "name": "role",
          "type": "bytes32"
        },
        {
          "internalType": "address",
          "name": "account",
          "type": "address"
        }
      ],
      "name": "revokeRole",
      "outputs": [],
      "stateMutability": "nonpayable",
      "type": "function"
    },
    {
      "inputs": [
        {
          "internalType": "uint256",
          "name": "newFee",
          "type": "uint256"
        }
      ],
      "name": "setVerifyUserProtocolFee",
      "outputs": [],
      "stateMutability": "nonpayable",
      "type": "function"
    },
    {
      "inputs": [
        {
          "internalType": "bytes4",
          "name": "interfaceId",
          "type": "bytes4"
        }
      ],
      "name": "supportsInterface",
      "outputs": [
        {
          "internalType": "bool",
          "name": "",
          "type": "bool"
        }
      ],
      "stateMutability": "view",
      "type": "function"
    },
    {
      "inputs": [],
      "name": "tcrFactory",
      "outputs": [
        {
          "internalType": "address",
          "name": "",
          "type": "address"
        }
      ],
      "stateMutability": "view",
      "type": "function"
    },
    {
      "inputs": [
        {
          "internalType": "address",
          "name": "newOwner",
          "type": "address"
        }
      ],
      "name": "transferOwnership",
      "outputs": [],
      "stateMutability": "nonpayable",
      "type": "function"
    },
    {
      "inputs": [
        {
          "internalType": "uint256",
          "name": "badgeModelId",
          "type": "uint256"
        },
        {
          "components": [
            {
              "internalType": "address",
              "name": "owner",
              "type": "address"
            },
            {
              "internalType": "uint256",
              "name": "badgeModelId",
              "type": "uint256"
            },
            {
              "internalType": "address",
              "name": "tcrList",
              "type": "address"
            },
            {
              "internalType": "address",
              "name": "governor",
              "type": "address"
            },
            {
              "internalType": "address",
              "name": "admin",
              "type": "address"
            },
            {
              "internalType": "bool",
              "name": "initialized",
              "type": "bool"
            }
          ],
          "internalType": "struct KlerosBadgeModelControllerStore.KlerosBadgeModel",
          "name": "_klerosBadgeModel",
          "type": "tuple"
        }
      ],
      "name": "updateKlerosBadgeModel",
      "outputs": [],
      "stateMutability": "nonpayable",
      "type": "function"
    },
    {
      "inputs": [
        {
          "internalType": "address",
          "name": "userAddress",
          "type": "address"
        },
        {
          "internalType": "enum LibKlerosBadgeModelController.VerificationStatus",
          "name": "_verificationStatus",
          "type": "uint8"
        }
      ],
      "name": "updateKlerosUserVerificationStatus",
      "outputs": [],
      "stateMutability": "nonpayable",
      "type": "function"
    },
    {
      "inputs": [
        {
          "internalType": "string",
          "name": "_contractName",
          "type": "string"
        },
        {
          "internalType": "address",
          "name": "_newContractAddress",
          "type": "address"
        }
      ],
      "name": "updatePermittedContract",
      "outputs": [],
      "stateMutability": "nonpayable",
      "type": "function"
    },
    {
      "stateMutability": "payable",
      "type": "receive"
    }
  ],
  "bytecode": "0x608060405234801562000010575f80fd5b506200001b62000021565b620000d5565b7ff0c57e16840df040f15088dc2f81fe391c3923bec73e23a9662efc9c229c6a00805468010000000000000000900460ff1615620000725760405163f92ee8a960e01b815260040160405180910390fd5b80546001600160401b0390811614620000d25780546001600160401b0319166001600160401b0390811782556040519081527fc7f505b2f371ae2175ee4913f4499e1f2633a7b5936321eed1cdaeb6115181d29060200160405180910390a15b50565b61279b80620000e35f395ff3fe608060405260043610610210575f3560e01c806391d1485411610116578063d547741f116100a4578063d547741f14610920578063e1e682e41461093f578063e63ab1e91461095e578063e7343c8a14610991578063e7705db6146109a4578063ef760200146109d7578063f2fde38b146109f6578063f72c0d8b14610a15578063f8fd555f14610a48578063fb094b6814610a67578063fc5f18d314610a97575f80fd5b806391d14854146106655780639c5d1922146106845780639f780b1d146106a3578063a1fa355c146106c2578063a217fddf146106e1578063a41e35c3146106f4578063b26fc20414610727578063b7f77e1514610746578063c0c53b8b1461085b578063c22b06a31461087a575f80fd5b8063495ef00e1161019e578063495ef00e1461039357806363d93e68146103b2578063687a0557146104c35780636cc6cde1146104f15780636e24d07314610510578063715018a6146105ad5780637657dbdd146105c15780637f345710146105d557806384101a17146106085780638da5cb5b146106255780638f050f0914610639575f80fd5b806301ffc9a71461021b57806306d7a28c1461024f57806308e5bf211461029c5780630deee176146102ba5780630fceb746146102db578063202594f8146102f8578063248a9ca3146103175780632f2ff15d1461033657806336568abe146103555780633e465dd214610374575f80fd5b3661021757005b5f80fd5b348015610226575f80fd5b5061023a610235366004611fd3565b610aca565b60405190151581526020015b60405180910390f35b34801561025a575f80fd5b5061028f6102693660046120e7565b80516020818301810180516006825292820191909301209152546001600160a01b031681565b6040516102469190612120565b3480156102a7575f80fd5b506001545b604051908152602001610246565b3480156102c5575f80fd5b506102d96102d43660046120e7565b610b00565b005b3480156102e6575f80fd5b506002546001600160a01b031661028f565b348015610303575f80fd5b506102d9610312366004612134565b610be2565b348015610322575f80fd5b506102ac610331366004612134565b610c1a565b348015610341575f80fd5b506102d9610350366004612166565b610c38565b348015610360575f80fd5b506102d961036f366004612166565b610c5a565b34801561037f575f80fd5b506102d961038e36600461219e565b610c92565b34801561039e575f80fd5b506102d96103ad3660046121d5565b610f60565b3480156103bd575f80fd5b506104696103cc366004612134565b6040805160c0810182525f80825260208201819052918101829052606081018290526080810182905260a0810191909152505f90815260086020908152604091829020825160c0810184528154815260018201549281019290925260028101546001600160a01b039081169383019390935260038101546060830152600401549182166080820152600160a01b90910460ff16151560a082015290565b604051610246919081518152602080830151908201526040808301516001600160a01b0390811691830191909152606080840151908301526080808401519091169082015260a09182015115159181019190915260c00190565b3480156104ce575f80fd5b5061023a6104dd36600461226c565b60056020525f908152604090205460ff1681565b3480156104fc575f80fd5b5060025461028f906001600160a01b031681565b34801561051b575f80fd5b5061056f61052a366004612134565b60086020525f908152604090208054600182015460028301546003840154600490940154929391926001600160a01b039182169291811690600160a01b900460ff1686565b6040805196875260208701959095526001600160a01b03938416948601949094526060850191909152166080830152151560a082015260c001610246565b3480156105b8575f80fd5b506102d961105d565b3480156105cc575f80fd5b506004546102ac565b3480156105e0575f80fd5b506102ac7f7804d923f43a17d325d77e781528e0793b2edd9890ab45fc64efd7b4b427744c81565b348015610613575f80fd5b506003546001600160a01b031661028f565b348015610630575f80fd5b5061028f611070565b348015610644575f80fd5b5061065861065336600461226c565b61108a565b6040516102469190612306565b348015610670575f80fd5b5061023a61067f366004612166565b611232565b34801561068f575f80fd5b506102d961069e36600461237c565b611266565b3480156106ae575f80fd5b5060035461028f906001600160a01b031681565b3480156106cd575f80fd5b506102d96106dc3660046123e4565b61132e565b3480156106ec575f80fd5b506102ac5f81565b3480156106ff575f80fd5b506102ac7fcbaaf41b181bb6e269c490e876a7c97711b57e21dd8e5528423cf57579726b3581565b348015610732575f80fd5b506102d96107413660046123e4565b611445565b348015610751575f80fd5b50610800610760366004612134565b6040805160c0810182525f80825260208201819052918101829052606081018290526080810182905260a0810191909152505f90815260076020908152604091829020825160c08101845281546001600160a01b0390811682526001830154938201939093526002820154831693810193909352600381015482166060840152600401549081166080830152600160a01b900460ff16151560a082015290565b604051610246919081516001600160a01b039081168252602080840151908301526040808401518216908301526060808401518216908301526080808401519091169082015260a09182015115159181019190915260c00190565b348015610866575f80fd5b506102d9610875366004612425565b611577565b348015610885575f80fd5b506108dd610894366004612134565b60076020525f9081526040902080546001820154600283015460038401546004909401546001600160a01b0393841694929391821692821691811690600160a01b900460ff1686565b604080516001600160a01b0397881681526020810196909652938616938501939093529084166060840152909216608082015290151560a082015260c001610246565b34801561092b575f80fd5b506102d961093a366004612166565b6116af565b34801561094a575f80fd5b506102d9610959366004612134565b6116cb565b348015610969575f80fd5b506102ac7f65d7a28e3265b37a6474929f336521b332c1681b933f6cb9f3376673440d862a81565b34801561099c575f80fd5b505f546102ac565b3480156109af575f80fd5b506102ac7f0ce23c3e399818cfee81a7ab0880f714e53d7672b08df0fa62f2843416e1ea0981565b3480156109e2575f80fd5b506102d96109f1366004612465565b611741565b348015610a01575f80fd5b506102d9610a1036600461226c565b611915565b348015610a20575f80fd5b506102ac7f189ab7a9244df0848122154315af71fe140f3db0fe014031783b0946b8c9d2e381565b348015610a53575f80fd5b506102d9610a623660046124bf565b61195b565b348015610a72575f80fd5b50610a86610a8136600461226c565b611b99565b60405161024695949392919061258f565b348015610aa2575f80fd5b506102ac7f11a8cb5a02bd6c42679835e867ef2118ba78f088f8300511420c6603c21d9c7881565b5f6001600160e01b03198216637965db0b60e01b1480610afa57506301ffc9a760e01b6001600160e01b03198316145b92915050565b5f610b0a81611ce3565b5f600683604051610b1b91906125e6565b908152604051908190036020019020546001600160a01b0316905080610b545760405163f1ed16fb60e01b815260040160405180910390fd5b600683604051610b6491906125e6565b90815260408051918290036020908101832080546001600160a01b03191690556001600160a01b0384165f8181526005909252919020805460ff1916905590610bae9085906125e6565b604051908190038120907f7ad6d7c73213a93d033801d72c729d90fb72104796b75ad799858b26f2b9872f905f90a3505050565b335f9081526005602052604081205460ff1615159003610c155760405163c5a65c6960e01b815260040160405180910390fd5b600455565b5f80610c24611ced565b5f9384526020525050604090206001015490565b610c4182610c1a565b610c4a81611ce3565b610c548383611d11565b50505050565b6001600160a01b0381163314610c835760405163334bd91960e11b815260040160405180910390fd5b610c8d8282611daf565b505050565b335f9081526005602052604081205460ff1615159003610cc55760405163c5a65c6960e01b815260040160405180910390fd5b6001600160a01b038083165f908152600960209081526040808320815160a0810190925280549094168152600184018054939491939192840191610d0890612601565b80601f0160208091040260200160405190810160405280929190818152602001828054610d3490612601565b8015610d7f5780601f10610d5657610100808354040283529160200191610d7f565b820191905f5260205f20905b815481529060010190602001808311610d6257829003601f168201915b50505050508152602001600282018054610d9890612601565b80601f0160208091040260200160405190810160405280929190818152602001828054610dc490612601565b8015610e0f5780601f10610de657610100808354040283529160200191610e0f565b820191905f5260205f20905b815481529060010190602001808311610df257829003601f168201915b5050509183525050600382015460209091019060ff166002811115610e3657610e366122d2565b6002811115610e4757610e476122d2565b815260039190910154610100900460ff161515602090910152608081015190915015155f03610e895760405163bb572dbf60e01b815260040160405180910390fd5b60608101826002811115610e9f57610e9f6122d2565b90816002811115610eb257610eb26122d2565b9052506001600160a01b038381165f908152600960209081526040909120835181546001600160a01b03191693169290921782558201518291906001820190610efb9082612686565b5060408201516002820190610f109082612686565b50606082015160038201805460ff19166001836002811115610f3457610f346122d2565b021790555060809190910151600390910180549115156101000261ff0019909216919091179055505050565b335f9081526005602052604081205460ff1615159003610f935760405163c5a65c6960e01b815260040160405180910390fd5b5f82815260076020526040902080546001600160a01b0316610fc85760405163018e27b760e31b815260040160405180910390fd5b505f91825260076020908152604092839020825181546001600160a01b039182166001600160a01b0319918216178355928401516001830155938301516002820180549186169184169190911790556060830151600382018054918616919093161790915560808201516004909101805460a0909301511515600160a01b026001600160a81b03199093169190931617179055565b611065611e25565b61106e5f611e57565b565b5f8061107a611eb1565b546001600160a01b031692915050565b611092611f8d565b6001600160a01b038083165f90815260096020908152604091829020825160a0810190935280549093168252600183018054929392918401916110d490612601565b80601f016020809104026020016040519081016040528092919081815260200182805461110090612601565b801561114b5780601f106111225761010080835404028352916020019161114b565b820191905f5260205f20905b81548152906001019060200180831161112e57829003601f168201915b5050505050815260200160028201805461116490612601565b80601f016020809104026020016040519081016040528092919081815260200182805461119090612601565b80156111db5780601f106111b2576101008083540402835291602001916111db565b820191905f5260205f20905b8154815290600101906020018083116111be57829003601f168201915b5050509183525050600382015460209091019060ff166002811115611202576112026122d2565b6002811115611213576112136122d2565b815260039190910154610100900460ff16151560209091015292915050565b5f8061123c611ced565b5f948552602090815260408086206001600160a01b03959095168652939052505090205460ff1690565b335f9081526005602052604081205460ff16151590036112995760405163c5a65c6960e01b815260040160405180910390fd5b5f8281526008602090815260408083208451815591840151600180840191909155908401516002830180546001600160a01b039283166001600160a01b03199091161790556060850151600384015560808501516004909301805460a08701511515600160a01b026001600160a81b031990911694909216939093171790915580549161132583612741565b91905055505050565b5f61133881611ce3565b6001600160a01b03821661135f57604051631c089e4160e31b815260040160405180910390fd5b5f6001600160a01b031660068460405161137991906125e6565b908152604051908190036020019020546001600160a01b0316146113b057604051639ce6538360e01b815260040160405180910390fd5b816006846040516113c191906125e6565b908152604080516020928190038301812080546001600160a01b0319166001600160a01b039586161790559285165f81815260059093529120805460ff19166001179055906114119085906125e6565b604051908190038120907f8b4ef7d4e5bc8f098e6f637ac0acf4aee47b3f027efea6307264b06b4bc9d298905f90a3505050565b5f61144f81611ce3565b6001600160a01b03821661147657604051631c089e4160e31b815260040160405180910390fd5b5f60068460405161148791906125e6565b908152604051908190036020019020546001600160a01b03169050806114c05760405163f1ed16fb60e01b815260040160405180910390fd5b6001600160a01b0381165f9081526005602052604090819020805460ff191690555183906006906114f29087906125e6565b908152604080516020928190038301812080546001600160a01b0319166001600160a01b039586161790559286165f81815260059093529120805460ff19166001179055906115429086906125e6565b604051908190038120907ff611fec7babefd259c57ea5b6006acff8140ab17bb816c65ba0aa7e36c09caa8905f90a350505050565b5f611580611ed5565b805490915060ff600160401b82041615906001600160401b03165f811580156115a65750825b90505f826001600160401b031660011480156115c15750303b155b9050811580156115cf575080155b156115ed5760405163f92ee8a960e01b815260040160405180910390fd5b845467ffffffffffffffff19166001178555831561161757845460ff60401b1916600160401b1785555b61162088611ef9565b61162a5f89611d11565b50600280546001600160a01b03808a166001600160a01b03199283161790925560038054928916929091169190911790555f60045583156116a557845460ff60401b19168555604051600181527fc7f505b2f371ae2175ee4913f4499e1f2633a7b5936321eed1cdaeb6115181d29060200160405180910390a15b5050505050505050565b6116b882610c1a565b6116c181611ce3565b610c548383611daf565b335f9081526005602052604081205460ff16151590036116fe5760405163c5a65c6960e01b815260040160405180910390fd5b5f8181526008602052604090206004810154600160a01b900460ff1661173757604051630c11d07360e01b815260040160405180910390fd5b5f60039091015550565b335f9081526005602052604081205460ff16151590036117745760405163c5a65c6960e01b815260040160405180910390fd5b5f8581526007602052604090206004810154600160a01b900460ff1615156001036117b257604051634d1068bd60e11b815260040160405180910390fd5b5f6040518060c00160405280876001600160a01b03168152602001888152602001866001600160a01b03168152602001856001600160a01b03168152602001846001600160a01b031681526020016001151581525090508060075f8981526020019081526020015f205f820151815f015f6101000a8154816001600160a01b0302191690836001600160a01b03160217905550602082015181600101556040820151816002015f6101000a8154816001600160a01b0302191690836001600160a01b031602179055506060820151816003015f6101000a8154816001600160a01b0302191690836001600160a01b031602179055506080820151816004015f6101000a8154816001600160a01b0302191690836001600160a01b0316021790555060a08201518160040160146101000a81548160ff0219169083151502179055509050505f8081548092919061190790612741565b919050555050505050505050565b61191d611e25565b6001600160a01b03811661194f575f604051631e4fbdf760e01b81526004016119469190612120565b60405180910390fd5b61195881611e57565b50565b335f9081526005602052604081205460ff161515900361198e5760405163c5a65c6960e01b815260040160405180910390fd5b6001600160a01b038083165f908152600960209081526040808320815160a08101909252805490941681526001840180549394919391928401916119d190612601565b80601f01602080910402602001604051908101604052809291908181526020018280546119fd90612601565b8015611a485780601f10611a1f57610100808354040283529160200191611a48565b820191905f5260205f20905b815481529060010190602001808311611a2b57829003601f168201915b50505050508152602001600282018054611a6190612601565b80601f0160208091040260200160405190810160405280929190818152602001828054611a8d90612601565b8015611ad85780601f10611aaf57610100808354040283529160200191611ad8565b820191905f5260205f20905b815481529060010190602001808311611abb57829003601f168201915b5050509183525050600382015460209091019060ff166002811115611aff57611aff6122d2565b6002811115611b1057611b106122d2565b815260039190910154610100900460ff16151560209091015260808101519091501515600103611b5357604051637815482960e11b815260040160405180910390fd5b6001600160a01b038381165f908152600960209081526040909120845181546001600160a01b03191693169290921782558301518391906001820190610efb9082612686565b60096020525f9081526040902080546001820180546001600160a01b039092169291611bc490612601565b80601f0160208091040260200160405190810160405280929190818152602001828054611bf090612601565b8015611c3b5780601f10611c1257610100808354040283529160200191611c3b565b820191905f5260205f20905b815481529060010190602001808311611c1e57829003601f168201915b505050505090806002018054611c5090612601565b80601f0160208091040260200160405190810160405280929190818152602001828054611c7c90612601565b8015611cc75780601f10611c9e57610100808354040283529160200191611cc7565b820191905f5260205f20905b815481529060010190602001808311611caa57829003601f168201915b5050506003909301549192505060ff8082169161010090041685565b6119588133611f0a565b7f02dd7bc7dec4dceedda775e58dd541e08a116c6c53815c0bd028192f7b62680090565b5f80611d1b611ced565b9050611d278484611232565b611da6575f848152602082815260408083206001600160a01b03871684529091529020805460ff19166001179055611d5c3390565b6001600160a01b0316836001600160a01b0316857f2f8788117e7eff1d82e926ec794901d17c78024a50270940304540a733656f0d60405160405180910390a46001915050610afa565b5f915050610afa565b5f80611db9611ced565b9050611dc58484611232565b15611da6575f848152602082815260408083206001600160a01b0387168085529252808320805460ff1916905551339287917ff6391f5c32d9c69d2a47ea670b442974b53935d1edc7fd64eb21e047a839171b9190a46001915050610afa565b33611e2e611070565b6001600160a01b03161461106e573360405163118cdaa760e01b81526004016119469190612120565b5f611e60611eb1565b80546001600160a01b038481166001600160a01b031983168117845560405193945091169182907f8be0079c531659141344cd1fd0a4f28419497f9722a3daafe3b4186f6b6457e0905f90a3505050565b7f9016d09d72d40fdae2fd8ceac6b6234c7706214fd39c1cd1e609a0528c19930090565b7ff0c57e16840df040f15088dc2f81fe391c3923bec73e23a9662efc9c229c6a0090565b611f01611f47565b61195881611f6c565b611f148282611232565b611f435760405163e2517d3f60e01b81526001600160a01b038216600482015260248101839052604401611946565b5050565b611f4f611f74565b61106e57604051631afcd79f60e31b815260040160405180910390fd5b61191d611f47565b5f611f7d611ed5565b54600160401b900460ff16919050565b6040518060a001604052805f6001600160a01b0316815260200160608152602001606081526020015f6002811115611fc757611fc76122d2565b81525f60209091015290565b5f60208284031215611fe3575f80fd5b81356001600160e01b031981168114611ffa575f80fd5b9392505050565b634e487b7160e01b5f52604160045260245ffd5b60405160c081016001600160401b038111828210171561203757612037612001565b60405290565b60405160a081016001600160401b038111828210171561203757612037612001565b5f82601f83011261206e575f80fd5b81356001600160401b038082111561208857612088612001565b604051601f8301601f19908116603f011681019082821181831017156120b0576120b0612001565b816040528381528660208588010111156120c8575f80fd5b836020870160208301375f602085830101528094505050505092915050565b5f602082840312156120f7575f80fd5b81356001600160401b0381111561210c575f80fd5b6121188482850161205f565b949350505050565b6001600160a01b0391909116815260200190565b5f60208284031215612144575f80fd5b5035919050565b80356001600160a01b0381168114612161575f80fd5b919050565b5f8060408385031215612177575f80fd5b823591506121876020840161214b565b90509250929050565b803560038110612161575f80fd5b5f80604083850312156121af575f80fd5b6121b88361214b565b915061218760208401612190565b80358015158114612161575f80fd5b5f8082840360e08112156121e7575f80fd5b8335925060c0601f19820112156121fc575f80fd5b50612205612015565b6122116020850161214b565b8152604084013560208201526122296060850161214b565b604082015261223a6080850161214b565b606082015261224b60a0850161214b565b608082015261225c60c085016121c6565b60a0820152809150509250929050565b5f6020828403121561227c575f80fd5b611ffa8261214b565b5f5b8381101561229f578181015183820152602001612287565b50505f910152565b5f81518084526122be816020860160208601612285565b601f01601f19169290920160200192915050565b634e487b7160e01b5f52602160045260245ffd5b6003811061230257634e487b7160e01b5f52602160045260245ffd5b9052565b602080825282516001600160a01b03168282015282015160a060408301525f9061233360c08401826122a7565b90506040840151601f1984830301606085015261235082826122a7565b915050606084015161236560808501826122e6565b506080840151151560a08401528091505092915050565b5f8082840360e081121561238e575f80fd5b8335925060c0601f19820112156123a3575f80fd5b506123ac612015565b60208401358152604084013560208201526123c96060850161214b565b60408201526080840135606082015261224b60a0850161214b565b5f80604083850312156123f5575f80fd5b82356001600160401b0381111561240a575f80fd5b6124168582860161205f565b9250506121876020840161214b565b5f805f60608486031215612437575f80fd5b6124408461214b565b925061244e6020850161214b565b915061245c6040850161214b565b90509250925092565b5f805f805f60a08688031215612479575f80fd5b853594506124896020870161214b565b93506124976040870161214b565b92506124a56060870161214b565b91506124b36080870161214b565b90509295509295909350565b5f80604083850312156124d0575f80fd5b6124d98361214b565b915060208301356001600160401b03808211156124f4575f80fd5b9084019060a08287031215612507575f80fd5b61250f61203d565b6125188361214b565b815260208301358281111561252b575f80fd5b6125378882860161205f565b60208301525060408301358281111561254e575f80fd5b61255a8882860161205f565b60408301525061256c60608401612190565b606082015261257d608084016121c6565b60808201528093505050509250929050565b6001600160a01b038616815260a0602082018190525f906125b2908301876122a7565b82810360408401526125c481876122a7565b9150506125d460608301856122e6565b82151560808301529695505050505050565b5f82516125f7818460208701612285565b9190910192915050565b600181811c9082168061261557607f821691505b60208210810361263357634e487b7160e01b5f52602260045260245ffd5b50919050565b601f821115610c8d575f81815260208120601f850160051c8101602086101561265f5750805b601f850160051c820191505b8181101561267e5782815560010161266b565b505050505050565b81516001600160401b0381111561269f5761269f612001565b6126b3816126ad8454612601565b84612639565b602080601f8311600181146126e6575f84156126cf5750858301515b5f19600386901b1c1916600185901b17855561267e565b5f85815260208120601f198616915b82811015612714578886015182559484019460019091019084016126f5565b508582101561273157878501515f19600388901b60f8161c191681555b5050505050600190811b01905550565b5f6001820161275e57634e487b7160e01b5f52601160045260245ffd5b506001019056fea2646970667358221220388c44096324b8648a82efb218052394a3cf3ddb1760791d63c47fba4424a46764736f6c63430008140033",
  "linkReferences": {},
  "deployedLinkReferences": {}
}