{
  "_format": "hh-sol-artifact-1",
  "contractName": "KlerosBadgeModelController",
  "sourceName": "src/contracts/badgeModelControllers/KlerosBadgeModelController.sol",
  "abi": [
    {
      "inputs": [],
      "stateMutability": "nonpayable",
      "type": "constructor"
    },
    {
      "inputs": [],
      "name": "KlerosBadgeModelController__badge__depositReturnFailed",
      "type": "error"
    },
    {
      "inputs": [],
      "name": "KlerosBadgeModelController__badge__klerosBadgeNotFound",
      "type": "error"
    },
    {
      "inputs": [],
      "name": "KlerosBadgeModelController__badge__notInChallengeableStatus",
      "type": "error"
    },
    {
      "inputs": [],
      "name": "KlerosBadgeModelController__badge__tcrKlerosBadgeNotFound",
      "type": "error"
    },
    {
      "inputs": [],
      "name": "KlerosBadgeModelController__claimBadge_insufficientBalance",
      "type": "error"
    },
    {
      "inputs": [],
      "name": "KlerosBadgeModelController__createBadgeModel_TCRListAddressZero",
      "type": "error"
    },
    {
      "inputs": [],
      "name": "KlerosBadgeModelController__createBadgeModel_badgeModelAlreadyCreated",
      "type": "error"
    },
    {
      "inputs": [],
      "name": "KlerosBadgeModelController__mintBadge_alreadyMinted",
      "type": "error"
    },
    {
      "inputs": [],
      "name": "KlerosBadgeModelController__mintBadge_isPaused",
      "type": "error"
    },
    {
      "inputs": [],
      "name": "KlerosBadgeModelController__mintBadge_wrongBadgeModel",
      "type": "error"
    },
    {
      "inputs": [],
      "name": "KlerosBadgeModelController__mintBadge_wrongValue",
      "type": "error"
    },
    {
      "inputs": [],
      "name": "KlerosBadgeModelController__onlyTheBadge_senderNotTheBadge",
      "type": "error"
    },
    {
      "inputs": [],
      "name": "KlerosBadgeModelController__user__userNotFound",
      "type": "error"
    },
    {
      "inputs": [],
      "name": "KlerosBadgeModelController__user__userVerificationAlreadyStarted",
      "type": "error"
    },
    {
      "inputs": [],
      "name": "KlerosBadgeModelController__user__userVerificationNotStarted",
      "type": "error"
    },
    {
      "inputs": [],
      "name": "TheBadge__method_not_supported",
      "type": "error"
    },
    {
      "anonymous": false,
      "inputs": [
        {
          "indexed": false,
          "internalType": "address",
          "name": "previousAdmin",
          "type": "address"
        },
        {
          "indexed": false,
          "internalType": "address",
          "name": "newAdmin",
          "type": "address"
        }
      ],
      "name": "AdminChanged",
      "type": "event"
    },
    {
      "anonymous": false,
      "inputs": [
        {
          "indexed": true,
          "internalType": "address",
          "name": "beacon",
          "type": "address"
        }
      ],
      "name": "BeaconUpgraded",
      "type": "event"
    },
    {
      "anonymous": false,
      "inputs": [
        {
          "indexed": true,
          "internalType": "address",
          "name": "recipient",
          "type": "address"
        },
        {
          "indexed": false,
          "internalType": "uint256",
          "name": "amount",
          "type": "uint256"
        },
        {
          "indexed": true,
          "internalType": "uint256",
          "name": "badgeId",
          "type": "uint256"
        }
      ],
      "name": "DepositReturned",
      "type": "event"
    },
    {
      "anonymous": false,
      "inputs": [
        {
          "indexed": true,
          "internalType": "address",
          "name": "admin",
          "type": "address"
        },
        {
          "indexed": true,
          "internalType": "address",
          "name": "tcrFactory",
          "type": "address"
        }
      ],
      "name": "Initialize",
      "type": "event"
    },
    {
      "anonymous": false,
      "inputs": [
        {
          "indexed": false,
          "internalType": "uint8",
          "name": "version",
          "type": "uint8"
        }
      ],
      "name": "Initialized",
      "type": "event"
    },
    {
      "anonymous": false,
      "inputs": [
        {
          "indexed": true,
          "internalType": "uint256",
          "name": "badgeId",
          "type": "uint256"
        },
        {
          "indexed": true,
          "internalType": "address",
          "name": "wallet",
          "type": "address"
        },
        {
          "indexed": false,
          "internalType": "string",
          "name": "evidence",
          "type": "string"
        },
        {
          "indexed": false,
          "internalType": "address",
          "name": "sender",
          "type": "address"
        }
      ],
      "name": "KlerosBadgeChallenged",
      "type": "event"
    },
    {
      "anonymous": false,
      "inputs": [
        {
          "indexed": true,
          "internalType": "uint256",
          "name": "badgeId",
          "type": "uint256"
        },
        {
          "indexed": false,
          "internalType": "string",
          "name": "evidence",
          "type": "string"
        }
      ],
      "name": "MintKlerosBadge",
      "type": "event"
    },
    {
      "anonymous": false,
      "inputs": [
        {
          "indexed": true,
          "internalType": "uint256",
          "name": "badgeModelId",
          "type": "uint256"
        },
        {
          "indexed": true,
          "internalType": "address",
          "name": "tcrAddress",
          "type": "address"
        },
        {
          "indexed": false,
          "internalType": "string",
          "name": "registrationMetaEvidence",
          "type": "string"
        },
        {
          "indexed": false,
          "internalType": "string",
          "name": "clearingMetaEvidence",
          "type": "string"
        }
      ],
      "name": "NewKlerosBadgeModel",
      "type": "event"
    },
    {
      "anonymous": false,
      "inputs": [],
      "name": "ProtocolSettingsUpdated",
      "type": "event"
    },
    {
      "anonymous": false,
      "inputs": [
        {
          "indexed": true,
          "internalType": "bytes32",
          "name": "role",
          "type": "bytes32"
        },
        {
          "indexed": true,
          "internalType": "bytes32",
          "name": "previousAdminRole",
          "type": "bytes32"
        },
        {
          "indexed": true,
          "internalType": "bytes32",
          "name": "newAdminRole",
          "type": "bytes32"
        }
      ],
      "name": "RoleAdminChanged",
      "type": "event"
    },
    {
      "anonymous": false,
      "inputs": [
        {
          "indexed": true,
          "internalType": "bytes32",
          "name": "role",
          "type": "bytes32"
        },
        {
          "indexed": true,
          "internalType": "address",
          "name": "account",
          "type": "address"
        },
        {
          "indexed": true,
          "internalType": "address",
          "name": "sender",
          "type": "address"
        }
      ],
      "name": "RoleGranted",
      "type": "event"
    },
    {
      "anonymous": false,
      "inputs": [
        {
          "indexed": true,
          "internalType": "bytes32",
          "name": "role",
          "type": "bytes32"
        },
        {
          "indexed": true,
          "internalType": "address",
          "name": "account",
          "type": "address"
        },
        {
          "indexed": true,
          "internalType": "address",
          "name": "sender",
          "type": "address"
        }
      ],
      "name": "RoleRevoked",
      "type": "event"
    },
    {
      "anonymous": false,
      "inputs": [
        {
          "indexed": true,
          "internalType": "address",
          "name": "implementation",
          "type": "address"
        }
      ],
      "name": "Upgraded",
      "type": "event"
    },
    {
      "inputs": [],
      "name": "DEFAULT_ADMIN_ROLE",
      "outputs": [
        {
          "internalType": "bytes32",
          "name": "",
          "type": "bytes32"
        }
      ],
      "stateMutability": "view",
      "type": "function"
    },
    {
      "inputs": [],
      "name": "PAUSER_ROLE",
      "outputs": [
        {
          "internalType": "bytes32",
          "name": "",
          "type": "bytes32"
        }
      ],
      "stateMutability": "view",
      "type": "function"
    },
    {
      "inputs": [],
      "name": "UPGRADER_ROLE",
      "outputs": [
        {
          "internalType": "bytes32",
          "name": "",
          "type": "bytes32"
        }
      ],
      "stateMutability": "view",
      "type": "function"
    },
    {
      "inputs": [],
      "name": "URI_SETTER_ROLE",
      "outputs": [
        {
          "internalType": "bytes32",
          "name": "",
          "type": "bytes32"
        }
      ],
      "stateMutability": "view",
      "type": "function"
    },
    {
      "inputs": [],
      "name": "USER_MANAGER_ROLE",
      "outputs": [
        {
          "internalType": "bytes32",
          "name": "",
          "type": "bytes32"
        }
      ],
      "stateMutability": "view",
      "type": "function"
    },
    {
      "inputs": [],
      "name": "VERIFIER_ROLE",
      "outputs": [
        {
          "internalType": "bytes32",
          "name": "",
          "type": "bytes32"
        }
      ],
      "stateMutability": "view",
      "type": "function"
    },
    {
      "inputs": [],
      "name": "arbitrator",
      "outputs": [
        {
          "internalType": "contract IArbitrator",
          "name": "",
          "type": "address"
        }
      ],
      "stateMutability": "view",
      "type": "function"
    },
    {
      "inputs": [
        {
          "internalType": "uint256",
          "name": "badgeId",
          "type": "uint256"
        },
        {
          "internalType": "bytes",
          "name": "data",
          "type": "bytes"
        }
      ],
      "name": "challenge",
      "outputs": [],
      "stateMutability": "payable",
      "type": "function"
    },
    {
      "inputs": [
        {
          "internalType": "uint256",
          "name": "badgeId",
          "type": "uint256"
        },
        {
          "internalType": "bytes",
          "name": "",
          "type": "bytes"
        }
      ],
      "name": "claim",
      "outputs": [],
      "stateMutability": "nonpayable",
      "type": "function"
    },
    {
      "inputs": [
        {
          "internalType": "uint256",
          "name": "badgeModelId",
          "type": "uint256"
        },
        {
          "internalType": "bytes",
          "name": "data",
          "type": "bytes"
        }
      ],
      "name": "createBadgeModel",
      "outputs": [],
      "stateMutability": "nonpayable",
      "type": "function"
    },
    {
      "inputs": [
        {
          "internalType": "address",
          "name": "_user",
          "type": "address"
        },
        {
          "internalType": "bool",
          "name": "verify",
          "type": "bool"
        }
      ],
      "name": "executeUserVerification",
      "outputs": [],
      "stateMutability": "nonpayable",
      "type": "function"
    },
    {
      "inputs": [
        {
          "internalType": "uint256",
          "name": "badgeId",
          "type": "uint256"
        }
      ],
      "name": "getChallengeDepositValue",
      "outputs": [
        {
          "internalType": "uint256",
          "name": "",
          "type": "uint256"
        }
      ],
      "stateMutability": "view",
      "type": "function"
    },
    {
      "inputs": [
        {
          "internalType": "uint256",
          "name": "badgeId",
          "type": "uint256"
        }
      ],
      "name": "getRemovalDepositValue",
      "outputs": [
        {
          "internalType": "uint256",
          "name": "",
          "type": "uint256"
        }
      ],
      "stateMutability": "view",
      "type": "function"
    },
    {
      "inputs": [
        {
          "internalType": "bytes32",
          "name": "role",
          "type": "bytes32"
        }
      ],
      "name": "getRoleAdmin",
      "outputs": [
        {
          "internalType": "bytes32",
          "name": "",
          "type": "bytes32"
        }
      ],
      "stateMutability": "view",
      "type": "function"
    },
    {
      "inputs": [],
      "name": "getVerifyUserProtocolFee",
      "outputs": [
        {
          "internalType": "uint256",
          "name": "",
          "type": "uint256"
        }
      ],
      "stateMutability": "view",
      "type": "function"
    },
    {
      "inputs": [
        {
          "internalType": "bytes32",
          "name": "role",
          "type": "bytes32"
        },
        {
          "internalType": "address",
          "name": "account",
          "type": "address"
        }
      ],
      "name": "grantRole",
      "outputs": [],
      "stateMutability": "nonpayable",
      "type": "function"
    },
    {
      "inputs": [
        {
          "internalType": "bytes32",
          "name": "role",
          "type": "bytes32"
        },
        {
          "internalType": "address",
          "name": "account",
          "type": "address"
        }
      ],
      "name": "hasRole",
      "outputs": [
        {
          "internalType": "bool",
          "name": "",
          "type": "bool"
        }
      ],
      "stateMutability": "view",
      "type": "function"
    },
    {
      "inputs": [
        {
          "internalType": "address",
          "name": "admin",
          "type": "address"
        },
        {
          "internalType": "address",
          "name": "_theBadge",
          "type": "address"
        },
        {
          "internalType": "address",
          "name": "_arbitrator",
          "type": "address"
        },
        {
          "internalType": "address",
          "name": "_tcrFactory",
          "type": "address"
        },
        {
          "internalType": "address",
          "name": "badgeStore",
          "type": "address"
        }
      ],
      "name": "initialize",
      "outputs": [],
      "stateMutability": "nonpayable",
      "type": "function"
    },
    {
      "inputs": [
        {
          "internalType": "uint256",
          "name": "badgeId",
          "type": "uint256"
        }
      ],
      "name": "isAssetActive",
      "outputs": [
        {
          "internalType": "bool",
          "name": "",
          "type": "bool"
        }
      ],
      "stateMutability": "view",
      "type": "function"
    },
    {
      "inputs": [
        {
          "internalType": "uint256",
          "name": "badgeId",
          "type": "uint256"
        }
      ],
      "name": "isClaimable",
      "outputs": [
        {
          "internalType": "bool",
          "name": "",
          "type": "bool"
        }
      ],
      "stateMutability": "view",
      "type": "function"
    },
    {
      "inputs": [
        {
          "internalType": "uint256",
          "name": "",
          "type": "uint256"
        },
        {
          "internalType": "address",
          "name": "",
          "type": "address"
        }
      ],
      "name": "isMintable",
      "outputs": [
        {
          "internalType": "bool",
          "name": "",
          "type": "bool"
        }
      ],
      "stateMutability": "pure",
      "type": "function"
    },
    {
      "inputs": [
        {
          "internalType": "address",
          "name": "_user",
          "type": "address"
        }
      ],
      "name": "isUserVerified",
      "outputs": [
        {
          "internalType": "bool",
          "name": "",
          "type": "bool"
        }
      ],
      "stateMutability": "view",
      "type": "function"
    },
    {
      "inputs": [
        {
          "internalType": "uint256",
          "name": "",
          "type": "uint256"
        }
      ],
      "name": "klerosBadgeModels",
      "outputs": [
        {
          "internalType": "address",
          "name": "tcrList",
          "type": "address"
        }
      ],
      "stateMutability": "view",
      "type": "function"
    },
    {
      "inputs": [
        {
          "internalType": "uint256",
          "name": "",
          "type": "uint256"
        }
      ],
      "name": "klerosBadges",
      "outputs": [
        {
          "internalType": "bytes32",
          "name": "itemID",
          "type": "bytes32"
        },
        {
          "internalType": "address",
          "name": "callee",
          "type": "address"
        },
        {
          "internalType": "uint256",
          "name": "deposit",
          "type": "uint256"
        },
        {
          "internalType": "bool",
          "name": "initialized",
          "type": "bool"
        }
      ],
      "stateMutability": "view",
      "type": "function"
    },
    {
      "inputs": [
        {
          "internalType": "address",
          "name": "",
          "type": "address"
        }
      ],
      "name": "klerosUsers",
      "outputs": [
        {
          "internalType": "address",
          "name": "user",
          "type": "address"
        },
        {
          "internalType": "string",
          "name": "userMetadata",
          "type": "string"
        },
        {
          "internalType": "string",
          "name": "verificationEvidence",
          "type": "string"
        },
        {
          "internalType": "enum KlerosBadgeModelControllerStore.VerificationStatus",
          "name": "verificationStatus",
          "type": "uint8"
        },
        {
          "internalType": "bool",
          "name": "initialized",
          "type": "bool"
        }
      ],
      "stateMutability": "view",
      "type": "function"
    },
    {
      "inputs": [
        {
          "internalType": "address",
          "name": "callee",
          "type": "address"
        },
        {
          "internalType": "uint256",
          "name": "badgeModelId",
          "type": "uint256"
        },
        {
          "internalType": "uint256",
          "name": "badgeId",
          "type": "uint256"
        },
        {
          "internalType": "bytes",
          "name": "data",
          "type": "bytes"
        }
      ],
      "name": "mint",
      "outputs": [
        {
          "internalType": "uint256",
          "name": "",
          "type": "uint256"
        }
      ],
      "stateMutability": "payable",
      "type": "function"
    },
    {
      "inputs": [
        {
          "internalType": "uint256",
          "name": "badgeModelId",
          "type": "uint256"
        }
      ],
      "name": "mintValue",
      "outputs": [
        {
          "internalType": "uint256",
          "name": "",
          "type": "uint256"
        }
      ],
      "stateMutability": "view",
      "type": "function"
    },
    {
      "inputs": [],
      "name": "proxiableUUID",
      "outputs": [
        {
          "internalType": "bytes32",
          "name": "",
          "type": "bytes32"
        }
      ],
      "stateMutability": "view",
      "type": "function"
    },
    {
      "inputs": [
        {
          "internalType": "uint256",
          "name": "badgeId",
          "type": "uint256"
        },
        {
          "internalType": "bytes",
          "name": "data",
          "type": "bytes"
        }
      ],
      "name": "removeItem",
      "outputs": [],
      "stateMutability": "payable",
      "type": "function"
    },
    {
      "inputs": [
        {
          "internalType": "bytes32",
          "name": "role",
          "type": "bytes32"
        },
        {
          "internalType": "address",
          "name": "account",
          "type": "address"
        }
      ],
      "name": "renounceRole",
      "outputs": [],
      "stateMutability": "nonpayable",
      "type": "function"
    },
    {
      "inputs": [
        {
          "internalType": "bytes32",
          "name": "role",
          "type": "bytes32"
        },
        {
          "internalType": "address",
          "name": "account",
          "type": "address"
        }
      ],
      "name": "revokeRole",
      "outputs": [],
      "stateMutability": "nonpayable",
      "type": "function"
    },
    {
      "inputs": [
        {
          "internalType": "uint256",
          "name": "badgeId",
          "type": "uint256"
        },
        {
          "internalType": "bytes",
          "name": "data",
          "type": "bytes"
        }
      ],
      "name": "submitEvidence",
      "outputs": [],
      "stateMutability": "nonpayable",
      "type": "function"
    },
    {
      "inputs": [
        {
          "internalType": "address",
          "name": "_user",
          "type": "address"
        },
        {
          "internalType": "string",
          "name": "userMetadata",
          "type": "string"
        },
        {
          "internalType": "string",
          "name": "evidenceUri",
          "type": "string"
        }
      ],
      "name": "submitUserVerification",
      "outputs": [],
      "stateMutability": "nonpayable",
      "type": "function"
    },
    {
      "inputs": [
        {
          "internalType": "bytes4",
          "name": "interfaceId",
          "type": "bytes4"
        }
      ],
      "name": "supportsInterface",
      "outputs": [
        {
          "internalType": "bool",
          "name": "",
          "type": "bool"
        }
      ],
      "stateMutability": "view",
      "type": "function"
    },
    {
      "inputs": [],
      "name": "tcrFactory",
      "outputs": [
        {
          "internalType": "address",
          "name": "",
          "type": "address"
        }
      ],
      "stateMutability": "view",
      "type": "function"
    },
    {
      "inputs": [],
      "name": "theBadgeModels",
      "outputs": [
        {
          "internalType": "contract TheBadgeModels",
          "name": "",
          "type": "address"
        }
      ],
      "stateMutability": "view",
      "type": "function"
    },
    {
      "inputs": [
        {
          "internalType": "uint256",
          "name": "_verifyUserProtocolFee",
          "type": "uint256"
        }
      ],
      "name": "updateVerifyUserProtocolFee",
      "outputs": [],
      "stateMutability": "nonpayable",
      "type": "function"
    },
    {
      "inputs": [
        {
          "internalType": "address",
          "name": "newImplementation",
          "type": "address"
        }
      ],
      "name": "upgradeTo",
      "outputs": [],
      "stateMutability": "nonpayable",
      "type": "function"
    },
    {
      "inputs": [
        {
          "internalType": "address",
          "name": "newImplementation",
          "type": "address"
        },
        {
          "internalType": "bytes",
          "name": "data",
          "type": "bytes"
        }
      ],
      "name": "upgradeToAndCall",
      "outputs": [],
      "stateMutability": "payable",
      "type": "function"
    },
    {
      "stateMutability": "payable",
      "type": "receive"
    }
  ],
  "bytecode": "0x60a0604052306080523480156200001557600080fd5b506200002062000026565b620000e7565b600054610100900460ff1615620000935760405162461bcd60e51b815260206004820152602760248201527f496e697469616c697a61626c653a20636f6e747261637420697320696e697469604482015266616c697a696e6760c81b606482015260840160405180910390fd5b60005460ff90811614620000e5576000805460ff191660ff9081179091556040519081527f7f26b83ff96e1f2b6a682f133852f6798a09c465da95921460cefb38474024989060200160405180910390a15b565b608051613b4b6200011f60003960008181610c5301528181610c9301528181610efb01528181610f3b0152610fb30152613b4b6000f3fe6080604052600436106101f45760003560e01c80637f3457101161010e578063ace417e01161009b578063ace417e01461061c578063b5a867fa1461063c578063c22b06a31461065c578063d547741f14610692578063d7deba15146106b2578063e63ab1e9146106d2578063e7705db614610706578063f4bcaf421461073a578063f72c0d8b14610760578063fb094b681461078257600080fd5b80637f345710146104d957806389610a091461050d5780638ac516b81461052d57806391d148541461054d57806393c7a71b1461056d5780639f780b1d1461058d5780639faf7158146105ad578063a03aafbf146105c0578063a217fddf146105d3578063a41e35c3146105e857600080fd5b806338926b6d1161018c57806338926b6d146103585780634f1ef2861461037857806352d1902d1461038b578063632f7c83146103a05780636cc6cde1146103c05780636e24d073146103f8578063731133e9146104715780637657dbdd1461048457806377a3989e146104995780637eb7f176146104b957600080fd5b806301ffc9a714610200578063130bd93f146102355780631459457a1461025757806322e900c214610277578063248a9ca3146102975780632c026696146102d55780632f2ff15d146102f857806336568abe146103185780633659cfe61461033857600080fd5b366101fb57005b600080fd5b34801561020c57600080fd5b5061022061021b366004612bed565b6107b3565b60405190151581526020015b60405180910390f35b34801561024157600080fd5b50610255610250366004612c4a565b6107ea565b005b34801561026357600080fd5b50610255610272366004612c83565b6108ee565b34801561028357600080fd5b50610220610292366004612cf4565b610ae4565b3480156102a357600080fd5b506102c76102b2366004612cf4565b600090815260cf602052604090206001015490565b60405190815260200161022c565b3480156102e157600080fd5b506102206102f0366004612d0d565b600192915050565b34801561030457600080fd5b50610255610313366004612d0d565b610ba1565b34801561032457600080fd5b50610255610333366004612d0d565b610bcb565b34801561034457600080fd5b50610255610353366004612d32565b610c49565b34801561036457600080fd5b50610255610373366004612d97565b610d11565b610255610386366004612ed8565b610ef1565b34801561039757600080fd5b506102c7610fa6565b3480156103ac57600080fd5b506102c76103bb366004612cf4565b611054565b3480156103cc57600080fd5b506001546103e0906001600160a01b031681565b6040516001600160a01b03909116815260200161022c565b34801561040457600080fd5b50610447610413366004612cf4565b600560205260009081526040902080546001820154600283015460039093015491926001600160a01b039091169160ff1684565b604080519485526001600160a01b039093166020850152918301521515606082015260800161022c565b6102c761047f366004612f3b565b6111bc565b34801561049057600080fd5b506003546102c7565b3480156104a557600080fd5b506102556104b4366004612d97565b6113c6565b3480156104c557600080fd5b506102c76104d4366004612cf4565b6116d3565b3480156104e557600080fd5b506102c77f7804d923f43a17d325d77e781528e0793b2edd9890ab45fc64efd7b4b427744c81565b34801561051957600080fd5b50610220610528366004612cf4565b611767565b34801561053957600080fd5b50610255610548366004612cf4565b611a1b565b34801561055957600080fd5b50610220610568366004612d0d565b611a58565b34801561057957600080fd5b50610255610588366004612d97565b611a83565b34801561059957600080fd5b506002546103e0906001600160a01b031681565b6102556105bb366004612d97565b611b99565b6102556105ce366004612d97565b611caf565b3480156105df57600080fd5b506102c7600081565b3480156105f457600080fd5b506102c77fcbaaf41b181bb6e269c490e876a7c97711b57e21dd8e5528423cf57579726b3581565b34801561062857600080fd5b50610220610637366004612d32565b611d8b565b34801561064857600080fd5b50610255610657366004612fc4565b611df3565b34801561066857600080fd5b506103e0610677366004612cf4565b6004602052600090815260409020546001600160a01b031681565b34801561069e57600080fd5b506102556106ad366004612d0d565b611e9c565b3480156106be57600080fd5b506102c76106cd366004612cf4565b611ec1565b3480156106de57600080fd5b506102c77f65d7a28e3265b37a6474929f336521b332c1681b933f6cb9f3376673440d862a81565b34801561071257600080fd5b506102c77f0ce23c3e399818cfee81a7ab0880f714e53d7672b08df0fa62f2843416e1ea0981565b34801561074657600080fd5b506000546103e0906201000090046001600160a01b031681565b34801561076c57600080fd5b506102c7600080516020613aaf83398151915281565b34801561078e57600080fd5b506107a261079d366004612d32565b6120e7565b60405161022c95949392919061309f565b60006001600160e01b03198216637965db0b60e01b14806107e457506301ffc9a760e01b6001600160e01b03198316145b92915050565b6000546201000090046001600160a01b0316331461081b5760405163942e92c760e01b815260040160405180910390fd5b6001600160a01b03821660009081526006602052604081206003810154849261010090910460ff16151590036108645760405163bb572dbf60e01b815260040160405180910390fd5b6000600382015460ff16600281111561087f5761087f613089565b1461089d57604051636ed1ab8760e11b815260040160405180910390fd5b6001600160a01b0384166000908152600660205260409020836108c15760026108c4565b60015b60038201805460ff191660018360028111156108e2576108e2613089565b02179055505050505050565b600054610100900460ff161580801561090e5750600054600160ff909116105b8061092f575061091d30612236565b15801561092f575060005460ff166001145b6109975760405162461bcd60e51b815260206004820152602e60248201527f496e697469616c697a61626c653a20636f6e747261637420697320616c72656160448201526d191e481a5b9a5d1a585b1a5e995960921b60648201526084015b60405180910390fd5b6000805460ff1916600117905580156109ba576000805461ff0019166101001790555b6109c5600087612245565b6109ef7f65d7a28e3265b37a6474929f336521b332c1681b933f6cb9f3376673440d862a87612245565b610a07600080516020613aaf83398151915287612245565b6000805462010000600160b01b031916620100006001600160a01b0388811691909102919091178255600180546001600160a01b03199081168884161790915560028054821687841690811790915560038490556101018054909216868416179091556040519092918916917fdc90fed0326ba91706deeac7eb34ac9f8b680734f9d782864dc29704d23bed6a91a38015610adc576000805461ff0019169055604051600181527f7f26b83ff96e1f2b6a682f133852f6798a09c465da95921460cefb38474024989060200160405180910390a15b505050505050565b600080610af0836122cb565b60008481526005602052604080822080549151634aac84e560e01b815260048101929092529293506001600160a01b03841690634aac84e590602401606060405180830381865afa158015610b49573d6000803e3d6000fd5b505050506040513d601f19601f82011682018060405250810190610b6d919061310e565b505090508060ff1660011480610b8657508060ff166003145b15610b9657506001949350505050565b506000949350505050565b600082815260cf6020526040902060010154610bbc8161238d565b610bc68383612245565b505050565b6001600160a01b0381163314610c3b5760405162461bcd60e51b815260206004820152602f60248201527f416363657373436f6e74726f6c3a2063616e206f6e6c792072656e6f756e636560448201526e103937b632b9903337b91039b2b63360891b606482015260840161098e565b610c458282612397565b5050565b6001600160a01b037f0000000000000000000000000000000000000000000000000000000000000000163003610c915760405162461bcd60e51b815260040161098e9061314b565b7f00000000000000000000000000000000000000000000000000000000000000006001600160a01b0316610cc36123fe565b6001600160a01b031614610ce95760405162461bcd60e51b815260040161098e90613197565b610cf28161241a565b60408051600080825260208201909252610d0e91839190612432565b50565b6000546201000090046001600160a01b03163314610d425760405163942e92c760e01b815260040160405180910390fd5b6000610d4d846122cb565b6000858152600560209081526040918290208251608081018452815480825260018301546001600160a01b039081169483019490945260028301548286015260039092015460ff161515606082015292516374e120b360e11b8152600481019190915292935090919083169063e9c2416690602401600060405180830381600087803b158015610ddc57600080fd5b505af1158015610df0573d6000803e3d6000fd5b505050504781604001511115610e19576040516398e2a0bb60e01b815260040160405180910390fd5b604081810180516000918290526020840151925190926001600160a01b03169083908381818185875af1925050503d8060008114610e73576040519150601f19603f3d011682016040523d82523d6000602084013e610e78565b606091505b5090915050801515600003610ea05760405163aa701b0560e01b815260040160405180910390fd5b8683602001516001600160a01b03167f9794db68af033346a63dbc4509364afc3a23201eced8a4f3bc64d029abfacc6584604051610ee091815260200190565b60405180910390a350505050505050565b6001600160a01b037f0000000000000000000000000000000000000000000000000000000000000000163003610f395760405162461bcd60e51b815260040161098e9061314b565b7f00000000000000000000000000000000000000000000000000000000000000006001600160a01b0316610f6b6123fe565b6001600160a01b031614610f915760405162461bcd60e51b815260040161098e90613197565b610f9a8261241a565b610c4582826001612432565b6000306001600160a01b037f000000000000000000000000000000000000000000000000000000000000000016146110415760405162461bcd60e51b815260206004820152603860248201527f555550535570677261646561626c653a206d757374206e6f742062652063616c6044820152771b1959081d1a1c9bdd59da0819195b1959d85d1958d85b1b60421b606482015260840161098e565b50600080516020613acf83398151915290565b60008181526004602081905260408083208054600154835163063d63db60e11b8152935192946001600160a01b03928316948794939092169263f7434ea9928692630c7ac7b692828201928892908290030181865afa1580156110bb573d6000803e3d6000fd5b505050506040513d6000823e601f3d908101601f191682016040526110e39190810190613228565b6040518263ffffffff1660e01b81526004016110ff919061325c565b602060405180830381865afa15801561111c573d6000803e3d6000fd5b505050506040513d601f19601f82011682018060405250810190611140919061326f565b90506000826001600160a01b031663bb0b86ff6040518163ffffffff1660e01b8152600401602060405180830381865afa158015611182573d6000803e3d6000fd5b505050506040513d601f19601f820116820180604052508101906111a6919061326f565b90506111b2818361329e565b9695505050505050565b600080546201000090046001600160a01b031633146111ee5760405163942e92c760e01b815260040160405180910390fd5b60006111f986611054565b905080341461121b57604051637bcb3e5760e01b815260040160405180910390fd5b6000868152600460205260408120805490916001600160a01b039091169061124586880188613315565b80516040516309fa7ca560e21b81529192506001600160a01b038416916327e9f294913491611277919060040161325c565b6000604051808303818588803b15801561129057600080fd5b505af11580156112a4573d6000803e3d6000fd5b5050505050600081600001516040516020016112c09190613349565b60405160208183030381529060405280519060200120905060405180608001604052808281526020018c6001600160a01b0316815260200134815260200160011515815250600560008b81526020019081526020016000206000820151816000015560208201518160010160006101000a8154816001600160a01b0302191690836001600160a01b031602179055506040820151816002015560608201518160030160006101000a81548160ff021916908315150217905550905050887fdd7e1dd9a30843ba8c2619a3c5ce27830ad90612bad48feeb549fc94114d626183600001516040516113b0919061325c565b60405180910390a29a9950505050505050505050565b6000546201000090046001600160a01b031633146113f75760405163942e92c760e01b815260040160405180910390fd5b600083815260046020526040902080546001600160a01b03161561142e57604051634d1068bd60e11b815260040160405180910390fd5b6002546001600160a01b0316600061144884860186613422565b60015460408083015190519293506001600160a01b038086169363d8dcbd27939091169161147c9160200190815260200190565b60408051601f1981840301815282825260608701516020840152910160408051601f19818403018152908290526114b69291602001613519565b60408051808303601f1901815290829052608086015160a0870151875160e0808a015160c08b01516101008c015160208d0151938b901b6001600160e01b031916895261150d99986000979695949060040161356b565b600060405180830381600087803b15801561152757600080fd5b505af115801561153b573d6000803e3d6000fd5b5050505060006001836001600160a01b03166306661abd6040518163ffffffff1660e01b8152600401602060405180830381865afa158015611581573d6000803e3d6000fd5b505050506040513d601f19601f820116820180604052508101906115a5919061326f565b6115af919061362e565b60405163a2f7b3a560e01b8152600481018290529091506000906001600160a01b0385169063a2f7b3a5906024016020604051808303816000875af11580156115fc573d6000803e3d6000fd5b505050506040513d601f19601f820116820180604052508101906116209190613641565b90506001600160a01b03811661164957604051637788791560e11b815260040160405180910390fd5b60408051602080820183526001600160a01b0384811680845260008d8152600490935291849020925183546001600160a01b031916911617909155608085015160a0860151925191928b927f1e83a75c2089c1100e6d9a024ea6fdf619ec5a922a17230682fbf1217d2a7ec1926116c192909161365e565b60405180910390a35050505050505050565b6000806116df836122cb565b905060006116ec8461259d565b90506000826001600160a01b031663c2f2beea6040518163ffffffff1660e01b8152600401602060405180830381865afa15801561172e573d6000803e3d6000fd5b505050506040513d601f19601f82011682018060405250810190611752919061326f565b905061175e8282612788565b95945050505050565b600080611773836122cb565b600084815260056020526040812060038101549293509160ff16151590036117ae57604051630c11d07360e01b815260040160405180910390fd5b80546000036117d057604051630c11d07360e01b815260040160405180910390fd5b80546040516348f343f360e01b81526000916001600160a01b038516916348f343f3916118039160040190815260200190565b606060405180830381865afa158015611820573d6000803e3d6000fd5b505050506040513d601f19601f820116820180604052508101906118449190613683565b8454604051634aac84e560e01b81526004810191909152909350600092506001600160a01b0386169150634aac84e590602401606060405180830381865afa158015611894573d6000803e3d6000fd5b505050506040513d601f19601f820116820180604052508101906118b8919061310e565b5050905060006001836118cb91906136ec565b8454604051635fde7f8d60e11b815260048101919091526001600160781b03919091166024820181905291506000906001600160a01b0387169063bfbcff1a90604401600060405180830381865afa15801561192b573d6000803e3d6000fd5b505050506040513d6000823e601f3d908101601f19168201604052611953919081019061372d565b50505050505050925050506000866001600160a01b03166282a36d6040518163ffffffff1660e01b8152600401602060405180830381865afa15801561199d573d6000803e3d6000fd5b505050506040513d601f19601f820116820180604052508101906119c1919061326f565b90506000816119d0844261362e565b116119dc5760006119df565b60015b90508460ff1660021480156119f657506001811515145b15611a0b575060019998505050505050505050565b5060009998505050505050505050565b6000611a268161238d565b60038290556040517f810f1720fbc34c56d171f89315ad21708648fd17424c27b88fa208409845aa7790600090a15050565b600091825260cf602090815260408084206001600160a01b0393909316845291905290205460ff1690565b6000546201000090046001600160a01b03163314611ab45760405163942e92c760e01b815260040160405180910390fd5b60008381526005602052604081206003810154909160ff90911615159003611aef57604051630c11d07360e01b815260040160405180910390fd5b8054600003611b1157604051630c11d07360e01b815260040160405180910390fd5b6000611b1f83850185613315565b90506000611b2c866122cb565b8354835160405163f48a0b3160e01b81529293506001600160a01b0384169263f48a0b3192611b5f929091600401613831565b600060405180830381600087803b158015611b7957600080fd5b505af1158015611b8d573d6000803e3d6000fd5b50505050505050505050565b6000546201000090046001600160a01b03163314611bca5760405163942e92c760e01b815260040160405180910390fd5b60008381526005602052604081206003810154909160ff90911615159003611c0557604051630c11d07360e01b815260040160405180910390fd5b8054600003611c2757604051630c11d07360e01b815260040160405180910390fd5b6000611c3583850185613315565b90506000611c42866122cb565b8354835160405163097e90e560e41b81529293506001600160a01b038416926397e90e50923492611c7592600401613831565b6000604051808303818588803b158015611c8e57600080fd5b505af1158015611ca2573d6000803e3d6000fd5b5050505050505050505050565b6000546201000090046001600160a01b03163314611ce05760405163942e92c760e01b815260040160405180910390fd5b60008381526005602052604081206003810154909160ff90911615159003611d1b57604051630c11d07360e01b815260040160405180910390fd5b8054600003611d3d57604051630c11d07360e01b815260040160405180910390fd5b6000611d4b83850185613315565b90506000611d58866122cb565b8354835160405163873db1a760e01b81529293506001600160a01b0384169263873db1a7923492611c7592600401613831565b6001600160a01b03811660009081526006602052604081206003810154610100900460ff1615158203611dc15750600092915050565b6001600382015460ff166002811115611ddc57611ddc613089565b03611dea5750600192915050565b50600092915050565b6000546201000090046001600160a01b03163314611e245760405163942e92c760e01b815260040160405180910390fd5b6001600160a01b03831660009081526006602052604090206003810154610100900460ff1615611e6757604051637815482960e11b815260040160405180910390fd5b60038101805461ffff191661010017905560018101611e8684826138ca565b5060028101611e9583826138ca565b5050505050565b600082815260cf6020526040902060010154611eb78161238d565b610bc68383612397565b6000818152600560205260408120600381015460ff1615158203611ef857604051630c11d07360e01b815260040160405180910390fd5b8054600003611f1a57604051630c11d07360e01b815260040160405180910390fd5b6000611f25846122cb565b8254604051634aac84e560e01b815260048101919091529091506000906001600160a01b03831690634aac84e590602401606060405180830381865afa158015611f73573d6000803e3d6000fd5b505050506040513d601f19601f82011682018060405250810190611f97919061310e565b505090506000611fa68661259d565b90508160ff1660010361201f576111b2836001600160a01b031663a37b6ad46040518163ffffffff1660e01b8152600401602060405180830381865afa158015611ff4573d6000803e3d6000fd5b505050506040513d601f19601f82011682018060405250810190612018919061326f565b8290612788565b8160ff1660020361206b576111b2836001600160a01b031663c2f2beea6040518163ffffffff1660e01b8152600401602060405180830381865afa158015611ff4573d6000803e3d6000fd5b8160ff166003036120825750600095945050505050565b8160ff166004036120ce576111b2836001600160a01b031663787471a96040518163ffffffff1660e01b8152600401602060405180830381865afa158015611ff4573d6000803e3d6000fd5b6040516305e5cf6360e41b815260040160405180910390fd5b600660205260009081526040902080546001820180546001600160a01b0390921692916121139061384a565b80601f016020809104026020016040519081016040528092919081815260200182805461213f9061384a565b801561218c5780601f106121615761010080835404028352916020019161218c565b820191906000526020600020905b81548152906001019060200180831161216f57829003601f168201915b5050505050908060020180546121a19061384a565b80601f01602080910402602001604051908101604052809291908181526020018280546121cd9061384a565b801561221a5780601f106121ef5761010080835404028352916020019161221a565b820191906000526020600020905b8154815290600101906020018083116121fd57829003601f168201915b5050506003909301549192505060ff8082169161010090041685565b6001600160a01b03163b151590565b61224f8282611a58565b610c4557600082815260cf602090815260408083206001600160a01b03851684529091529020805460ff191660011790556122873390565b6001600160a01b0316816001600160a01b0316837f2f8788117e7eff1d82e926ec794901d17c78024a50270940304540a733656f0d60405160405180910390a45050565b610101546040516346c1c31160e11b81526004810183905260009182916001600160a01b0390911690638d83862290602401608060405180830381865afa15801561231a573d6000803e3d6000fd5b505050506040513d601f19601f8201168201806040525081019061233e9190613989565b80516000818152600460205260409020805492935090916001600160a01b031661237b57604051633deb66a760e21b815260040160405180910390fd5b546001600160a01b0316949350505050565b610d0e81336127b1565b6123a18282611a58565b15610c4557600082815260cf602090815260408083206001600160a01b0385168085529252808320805460ff1916905551339285917ff6391f5c32d9c69d2a47ea670b442974b53935d1edc7fd64eb21e047a839171b9190a45050565b600080516020613acf833981519152546001600160a01b031690565b600080516020613aaf833981519152610c458161238d565b7f4910fdfa16fed3260ed0e7147f7cc6da11a60208b5b9406d12a635614ffd91435460ff161561246557610bc68361280a565b826001600160a01b03166352d1902d6040518163ffffffff1660e01b8152600401602060405180830381865afa9250505080156124bf575060408051601f3d908101601f191682019092526124bc9181019061326f565b60015b6125225760405162461bcd60e51b815260206004820152602e60248201527f45524331393637557067726164653a206e657720696d706c656d656e7461746960448201526d6f6e206973206e6f74205555505360901b606482015260840161098e565b600080516020613acf83398151915281146125915760405162461bcd60e51b815260206004820152602960248201527f45524331393637557067726164653a20756e737570706f727465642070726f786044820152681a58589b195555525160ba1b606482015260840161098e565b50610bc68383836128a4565b600081815260056020908152604080832081516080810183528154815260018201546001600160a01b0316938101939093526002810154918301919091526003015460ff1615156060820152816125f3846122cb565b82516040516348f343f360e01b815260048101919091529091506000906001600160a01b038316906348f343f390602401606060405180830381865afa158015612641573d6000803e3d6000fd5b505050506040513d601f19601f820116820180604052508101906126659190613683565b92505050600060018261267891906136ec565b8451604051635fde7f8d60e11b815260048101919091526001600160781b03919091166024820181905291506000906001600160a01b0385169063bfbcff1a90604401600060405180830381865afa1580156126d8573d6000803e3d6000fd5b505050506040513d6000823e601f3d908101601f19168201604052612700919081019061372d565b5060015460405163f7434ea960e01b8152919a506001600160a01b0316985063f7434ea9975061273c9650899550600401935061325c92505050565b602060405180830381865afa158015612759573d6000803e3d6000fd5b505050506040513d601f19601f8201168201806040525081019061277d919061326f565b979650505050505050565b600080612795838561329e565b9050838110156127a7576000196127a9565b805b949350505050565b6127bb8282611a58565b610c45576127c8816128cf565b6127d38360206128e1565b6040516020016127e49291906139fb565b60408051601f198184030181529082905262461bcd60e51b825261098e9160040161325c565b61281381612236565b6128755760405162461bcd60e51b815260206004820152602d60248201527f455243313936373a206e657720696d706c656d656e746174696f6e206973206e60448201526c1bdd08184818dbdb9d1c9858dd609a1b606482015260840161098e565b600080516020613acf83398151915280546001600160a01b0319166001600160a01b0392909216919091179055565b6128ad83612a7c565b6000825111806128ba5750805b15610bc6576128c98383612abc565b50505050565b60606107e46001600160a01b03831660145b606060006128f0836002613a6a565b6128fb90600261329e565b6001600160401b0381111561291257612912612de2565b6040519080825280601f01601f19166020018201604052801561293c576020820181803683370190505b509050600360fc1b8160008151811061295757612957613a81565b60200101906001600160f81b031916908160001a905350600f60fb1b8160018151811061298657612986613a81565b60200101906001600160f81b031916908160001a90535060006129aa846002613a6a565b6129b590600161329e565b90505b6001811115612a2d576f181899199a1a9b1b9c1cb0b131b232b360811b85600f16601081106129e9576129e9613a81565b1a60f81b8282815181106129ff576129ff613a81565b60200101906001600160f81b031916908160001a90535060049490941c93612a2681613a97565b90506129b8565b5083156127a75760405162461bcd60e51b815260206004820181905260248201527f537472696e67733a20686578206c656e67746820696e73756666696369656e74604482015260640161098e565b612a858161280a565b6040516001600160a01b038216907fbc7cd75a20ee27fd9adebab32041f755214dbc6bffa90cc0225b39da2e5c2d3b90600090a250565b6060612ae18383604051806060016040528060278152602001613aef60279139612ae8565b9392505050565b6060600080856001600160a01b031685604051612b059190613349565b600060405180830381855af49150503d8060008114612b40576040519150601f19603f3d011682016040523d82523d6000602084013e612b45565b606091505b50915091506111b28683838760608315612bbe578251600003612bb757612b6b85612236565b612bb75760405162461bcd60e51b815260206004820152601d60248201527f416464726573733a2063616c6c20746f206e6f6e2d636f6e7472616374000000604482015260640161098e565b50816127a9565b6127a98383815115612bd35781518083602001fd5b8060405162461bcd60e51b815260040161098e919061325c565b600060208284031215612bff57600080fd5b81356001600160e01b0319811681146127a757600080fd5b6001600160a01b0381168114610d0e57600080fd5b8035612c3781612c17565b919050565b8015158114610d0e57600080fd5b60008060408385031215612c5d57600080fd5b8235612c6881612c17565b91506020830135612c7881612c3c565b809150509250929050565b600080600080600060a08688031215612c9b57600080fd5b8535612ca681612c17565b94506020860135612cb681612c17565b93506040860135612cc681612c17565b92506060860135612cd681612c17565b91506080860135612ce681612c17565b809150509295509295909350565b600060208284031215612d0657600080fd5b5035919050565b60008060408385031215612d2057600080fd5b823591506020830135612c7881612c17565b600060208284031215612d4457600080fd5b81356127a781612c17565b60008083601f840112612d6157600080fd5b5081356001600160401b03811115612d7857600080fd5b602083019150836020828501011115612d9057600080fd5b9250929050565b600080600060408486031215612dac57600080fd5b8335925060208401356001600160401b03811115612dc957600080fd5b612dd586828701612d4f565b9497909650939450505050565b634e487b7160e01b600052604160045260246000fd5b60405161012081016001600160401b0381118282101715612e1b57612e1b612de2565b60405290565b604051606081016001600160401b0381118282101715612e1b57612e1b612de2565b604051601f8201601f191681016001600160401b0381118282101715612e6b57612e6b612de2565b604052919050565b60006001600160401b03821115612e8c57612e8c612de2565b50601f01601f191660200190565b6000612ead612ea884612e73565b612e43565b9050828152838383011115612ec157600080fd5b828260208301376000602084830101529392505050565b60008060408385031215612eeb57600080fd5b8235612ef681612c17565b915060208301356001600160401b03811115612f1157600080fd5b8301601f81018513612f2257600080fd5b612f3185823560208401612e9a565b9150509250929050565b600080600080600060808688031215612f5357600080fd5b8535612f5e81612c17565b9450602086013593506040860135925060608601356001600160401b03811115612f8757600080fd5b612f9388828901612d4f565b969995985093965092949392505050565b600082601f830112612fb557600080fd5b612ae183833560208501612e9a565b600080600060608486031215612fd957600080fd5b8335612fe481612c17565b925060208401356001600160401b038082111561300057600080fd5b61300c87838801612fa4565b9350604086013591508082111561302257600080fd5b5061302f86828701612fa4565b9150509250925092565b60005b8381101561305457818101518382015260200161303c565b50506000910152565b60008151808452613075816020860160208601613039565b601f01601f19169290920160200192915050565b634e487b7160e01b600052602160045260246000fd5b6001600160a01b038616815260a0602082018190526000906130c39083018761305d565b82810360408401526130d5818761305d565b915050600384106130f657634e487b7160e01b600052602160045260246000fd5b83606083015282151560808301529695505050505050565b60008060006060848603121561312357600080fd5b835160ff8116811461313457600080fd5b602085015160409095015190969495509392505050565b6020808252602c908201527f46756e6374696f6e206d7573742062652063616c6c6564207468726f7567682060408201526b19195b1959d85d1958d85b1b60a21b606082015260800190565b6020808252602c908201527f46756e6374696f6e206d7573742062652063616c6c6564207468726f7567682060408201526b6163746976652070726f787960a01b606082015260800190565b600082601f8301126131f457600080fd5b8151613202612ea882612e73565b81815284602083860101111561321757600080fd5b6127a9826020830160208701613039565b60006020828403121561323a57600080fd5b81516001600160401b0381111561325057600080fd5b6127a9848285016131e3565b602081526000612ae1602083018461305d565b60006020828403121561328157600080fd5b5051919050565b634e487b7160e01b600052601160045260246000fd5b808201808211156107e4576107e4613288565b6000602082840312156132c357600080fd5b604051602081016001600160401b0382821081831117156132e6576132e6612de2565b8160405282935084359150808211156132fe57600080fd5b5061330b85828601612fa4565b8252505092915050565b60006020828403121561332757600080fd5b81356001600160401b0381111561333d57600080fd5b6127a9848285016132b1565b6000825161335b818460208701613039565b9190910192915050565b600082601f83011261337657600080fd5b604051608081018181106001600160401b038211171561339857613398612de2565b6040528060808401858111156133ad57600080fd5b845b818110156133c75780358352602092830192016133af565b509195945050505050565b600082601f8301126133e357600080fd5b6133eb612e21565b8060608401858111156133fd57600080fd5b845b818110156134175780358452602093840193016133ff565b509095945050505050565b60006020828403121561343457600080fd5b81356001600160401b038082111561344b57600080fd5b908301906101c0828603121561346057600080fd5b613468612df8565b61347183612c2c565b815261347f60208401612c2c565b602082015260408301356040820152606083013560608201526080830135828111156134aa57600080fd5b6134b687828601612fa4565b60808301525060a0830135828111156134ce57600080fd5b6134da87828601612fa4565b60a08301525060c083013560c08201526134f78660e08501613365565b60e082015261350a8661016085016133d2565b61010082015295945050505050565b6000835161352b818460208801613039565b83519083019061353f818360208801613039565b01949350505050565b8060005b60038110156128c957815184526020938401939091019060010161354c565b6001600160a01b038b811682526101e06020808401829052600092906135938584018f61305d565b9250818d16604086015284830360608601526135af838d61305d565b925084830360808601526135c3838c61305d565b9350818a1660a086015260c08501925088915060005b60048110156135f6578251845292810192918101916001016135d9565b505050508461014083015261360f610160830185613548565b6001600160a01b0383166101c08301529b9a5050505050505050505050565b818103818111156107e4576107e4613288565b60006020828403121561365357600080fd5b81516127a781612c17565b604081526000613671604083018561305d565b828103602084015261175e818561305d565b60008060006060848603121561369857600080fd5b8351600481106136a757600080fd5b60208501519093506001600160801b03811681146136c457600080fd5b60408501519092506001600160781b03811681146136e157600080fd5b809150509250925092565b6001600160781b0382811682821603908082111561370c5761370c613288565b5092915050565b805160038110612c3757600080fd5b8051612c3781612c17565b6000806000806000806000806000806101808b8d03121561374d57600080fd5b8a5161375881612c3c565b809a50506020808c0151995060408c0151985060608c015161377981612c3c565b9750609f8c018d1361378a57600080fd5b613792612e21565b8060e08e018f8111156137a457600080fd5b60808f015b818110156137c95780516137bc81612c17565b84529284019284016137a9565b505190985096506137e09150506101008c01613713565b93506137ef6101208c01613722565b92506101408b01516001600160401b0381111561380b57600080fd5b6138178d828e016131e3565b9250506101608b015190509295989b9194979a5092959850565b8281526040602082015260006127a9604083018461305d565b600181811c9082168061385e57607f821691505b60208210810361387e57634e487b7160e01b600052602260045260246000fd5b50919050565b601f821115610bc657600081815260208120601f850160051c810160208610156138ab5750805b601f850160051c820191505b81811015610adc578281556001016138b7565b81516001600160401b038111156138e3576138e3612de2565b6138f7816138f1845461384a565b84613884565b602080601f83116001811461392c57600084156139145750858301515b600019600386901b1c1916600185901b178555610adc565b600085815260208120601f198616915b8281101561395b5788860151825594840194600190910190840161393c565b50858210156139795787850151600019600388901b60f8161c191681555b5050505050600190811b01905550565b60006080828403121561399b57600080fd5b604051608081018181106001600160401b03821117156139bd576139bd612de2565b6040528251815260208301516139d281612c17565b60208201526040838101519082015260608301516139ef81612c3c565b60608201529392505050565b76020b1b1b2b9b9a1b7b73a3937b61d1030b1b1b7bab73a1604d1b815260008351613a2d816017850160208801613039565b7001034b99036b4b9b9b4b733903937b6329607d1b6017918401918201528351613a5e816028840160208801613039565b01602801949350505050565b80820281158282048414176107e4576107e4613288565b634e487b7160e01b600052603260045260246000fd5b600081613aa657613aa6613288565b50600019019056fe189ab7a9244df0848122154315af71fe140f3db0fe014031783b0946b8c9d2e3360894a13ba1a3210667c828492db98dca3e2076cc3735a920a3ca505d382bbc416464726573733a206c6f772d6c6576656c2064656c65676174652063616c6c206661696c6564a26469706673582212202983abaf9b34ffc8c49fc62243d111409cb4a030ba298abda7e67342e423937964736f6c63430008110033",
  "linkReferences": {},
  "deployedLinkReferences": {}
}