{
  "_format": "hh-sol-artifact-1",
  "contractName": "KlerosBadgeModelControllerStore",
  "sourceName": "src/contracts/badgeModelControllers/KlerosBadgeModelControllerStore.sol",
  "abi": [
    {
      "inputs": [],
      "stateMutability": "nonpayable",
      "type": "constructor"
    },
    {
      "inputs": [],
      "name": "AccessControlBadConfirmation",
      "type": "error"
    },
    {
      "inputs": [
        {
          "internalType": "address",
          "name": "account",
          "type": "address"
        },
        {
          "internalType": "bytes32",
          "name": "neededRole",
          "type": "bytes32"
        }
      ],
      "name": "AccessControlUnauthorizedAccount",
      "type": "error"
    },
    {
      "inputs": [],
      "name": "InvalidInitialization",
      "type": "error"
    },
    {
      "inputs": [],
      "name": "KlerosBadgeModelController__badgeModel__NotFound",
      "type": "error"
    },
    {
      "inputs": [],
      "name": "KlerosBadgeModelController__badge__klerosBadgeNotFound",
      "type": "error"
    },
    {
      "inputs": [],
      "name": "KlerosBadgeModelController__createBadgeModel_badgeModelAlreadyCreated",
      "type": "error"
    },
    {
      "inputs": [],
      "name": "KlerosBadgeModelController__store_ContractNameAlreadyExists",
      "type": "error"
    },
    {
      "inputs": [],
      "name": "KlerosBadgeModelController__store_InvalidContractAddress",
      "type": "error"
    },
    {
      "inputs": [],
      "name": "KlerosBadgeModelController__store_InvalidContractName",
      "type": "error"
    },
    {
      "inputs": [],
      "name": "KlerosBadgeModelController__store_OperationNotPermitted",
      "type": "error"
    },
    {
      "inputs": [],
      "name": "NotInitializing",
      "type": "error"
    },
    {
      "inputs": [
        {
          "internalType": "address",
          "name": "owner",
          "type": "address"
        }
      ],
      "name": "OwnableInvalidOwner",
      "type": "error"
    },
    {
      "inputs": [
        {
          "internalType": "address",
          "name": "account",
          "type": "address"
        }
      ],
      "name": "OwnableUnauthorizedAccount",
      "type": "error"
    },
    {
      "anonymous": false,
      "inputs": [
        {
          "indexed": true,
          "internalType": "string",
          "name": "_contractName",
          "type": "string"
        },
        {
          "indexed": true,
          "internalType": "address",
          "name": "contractAddress",
          "type": "address"
        }
      ],
      "name": "ContractAdded",
      "type": "event"
    },
    {
      "anonymous": false,
      "inputs": [
        {
          "indexed": true,
          "internalType": "string",
          "name": "_contractName",
          "type": "string"
        },
        {
          "indexed": true,
          "internalType": "address",
          "name": "contractAddress",
          "type": "address"
        }
      ],
      "name": "ContractRemoved",
      "type": "event"
    },
    {
      "anonymous": false,
      "inputs": [
        {
          "indexed": true,
          "internalType": "string",
          "name": "_contractName",
          "type": "string"
        },
        {
          "indexed": true,
          "internalType": "address",
          "name": "contractAddress",
          "type": "address"
        }
      ],
      "name": "ContractUpdated",
      "type": "event"
    },
    {
      "anonymous": false,
      "inputs": [
        {
          "indexed": false,
          "internalType": "uint64",
          "name": "version",
          "type": "uint64"
        }
      ],
      "name": "Initialized",
      "type": "event"
    },
    {
      "anonymous": false,
      "inputs": [
        {
          "indexed": true,
          "internalType": "address",
          "name": "previousOwner",
          "type": "address"
        },
        {
          "indexed": true,
          "internalType": "address",
          "name": "newOwner",
          "type": "address"
        }
      ],
      "name": "OwnershipTransferred",
      "type": "event"
    },
    {
      "anonymous": false,
      "inputs": [
        {
          "indexed": true,
          "internalType": "bytes32",
          "name": "role",
          "type": "bytes32"
        },
        {
          "indexed": true,
          "internalType": "bytes32",
          "name": "previousAdminRole",
          "type": "bytes32"
        },
        {
          "indexed": true,
          "internalType": "bytes32",
          "name": "newAdminRole",
          "type": "bytes32"
        }
      ],
      "name": "RoleAdminChanged",
      "type": "event"
    },
    {
      "anonymous": false,
      "inputs": [
        {
          "indexed": true,
          "internalType": "bytes32",
          "name": "role",
          "type": "bytes32"
        },
        {
          "indexed": true,
          "internalType": "address",
          "name": "account",
          "type": "address"
        },
        {
          "indexed": true,
          "internalType": "address",
          "name": "sender",
          "type": "address"
        }
      ],
      "name": "RoleGranted",
      "type": "event"
    },
    {
      "anonymous": false,
      "inputs": [
        {
          "indexed": true,
          "internalType": "bytes32",
          "name": "role",
          "type": "bytes32"
        },
        {
          "indexed": true,
          "internalType": "address",
          "name": "account",
          "type": "address"
        },
        {
          "indexed": true,
          "internalType": "address",
          "name": "sender",
          "type": "address"
        }
      ],
      "name": "RoleRevoked",
      "type": "event"
    },
    {
      "inputs": [],
      "name": "CLAIMER_ROLE",
      "outputs": [
        {
          "internalType": "bytes32",
          "name": "",
          "type": "bytes32"
        }
      ],
      "stateMutability": "view",
      "type": "function"
    },
    {
      "inputs": [],
      "name": "DEFAULT_ADMIN_ROLE",
      "outputs": [
        {
          "internalType": "bytes32",
          "name": "",
          "type": "bytes32"
        }
      ],
      "stateMutability": "view",
      "type": "function"
    },
    {
      "inputs": [],
      "name": "PAUSER_ROLE",
      "outputs": [
        {
          "internalType": "bytes32",
          "name": "",
          "type": "bytes32"
        }
      ],
      "stateMutability": "view",
      "type": "function"
    },
    {
      "inputs": [],
      "name": "UPGRADER_ROLE",
      "outputs": [
        {
          "internalType": "bytes32",
          "name": "",
          "type": "bytes32"
        }
      ],
      "stateMutability": "view",
      "type": "function"
    },
    {
      "inputs": [],
      "name": "URI_SETTER_ROLE",
      "outputs": [
        {
          "internalType": "bytes32",
          "name": "",
          "type": "bytes32"
        }
      ],
      "stateMutability": "view",
      "type": "function"
    },
    {
      "inputs": [],
      "name": "USER_MANAGER_ROLE",
      "outputs": [
        {
          "internalType": "bytes32",
          "name": "",
          "type": "bytes32"
        }
      ],
      "stateMutability": "view",
      "type": "function"
    },
    {
      "inputs": [],
      "name": "VERIFIER_ROLE",
      "outputs": [
        {
          "internalType": "bytes32",
          "name": "",
          "type": "bytes32"
        }
      ],
      "stateMutability": "view",
      "type": "function"
    },
    {
      "inputs": [
        {
          "internalType": "uint256",
          "name": "badgeId",
          "type": "uint256"
        },
        {
          "components": [
            {
              "internalType": "bytes32",
              "name": "itemID",
              "type": "bytes32"
            },
            {
              "internalType": "uint256",
              "name": "badgeModelId",
              "type": "uint256"
            },
            {
              "internalType": "address",
              "name": "callee",
              "type": "address"
            },
            {
              "internalType": "uint256",
              "name": "deposit",
              "type": "uint256"
            },
            {
              "internalType": "address",
              "name": "destinationAddress",
              "type": "address"
            },
            {
              "internalType": "bool",
              "name": "initialized",
              "type": "bool"
            }
          ],
          "internalType": "struct KlerosBadgeModelControllerStore.KlerosBadge",
          "name": "badge",
          "type": "tuple"
        }
      ],
      "name": "addKlerosBadge",
      "outputs": [],
      "stateMutability": "nonpayable",
      "type": "function"
    },
    {
      "inputs": [
        {
          "internalType": "string",
          "name": "_contractName",
          "type": "string"
        },
        {
          "internalType": "address",
          "name": "_contractAddress",
          "type": "address"
        }
      ],
      "name": "addPermittedContract",
      "outputs": [],
      "stateMutability": "nonpayable",
      "type": "function"
    },
    {
      "inputs": [
        {
          "internalType": "address",
          "name": "",
          "type": "address"
        }
      ],
      "name": "allowedContractAddresses",
      "outputs": [
        {
          "internalType": "bool",
          "name": "",
          "type": "bool"
        }
      ],
      "stateMutability": "view",
      "type": "function"
    },
    {
      "inputs": [
        {
          "internalType": "string",
          "name": "",
          "type": "string"
        }
      ],
      "name": "allowedContractAddressesByContractName",
      "outputs": [
        {
          "internalType": "address",
          "name": "",
          "type": "address"
        }
      ],
      "stateMutability": "view",
      "type": "function"
    },
    {
      "inputs": [],
      "name": "arbitrator",
      "outputs": [
        {
          "internalType": "contract IArbitrator",
          "name": "",
          "type": "address"
        }
      ],
      "stateMutability": "view",
      "type": "function"
    },
    {
      "inputs": [
        {
          "internalType": "uint256",
          "name": "badgeId",
          "type": "uint256"
        }
      ],
      "name": "clearKlerosBadgeDepositAmount",
      "outputs": [],
      "stateMutability": "nonpayable",
      "type": "function"
    },
    {
      "inputs": [
        {
          "internalType": "uint256",
          "name": "_badgeModelId",
          "type": "uint256"
        },
        {
          "internalType": "address",
          "name": "_owner",
          "type": "address"
        },
        {
          "internalType": "address",
          "name": "_tcrList",
          "type": "address"
        },
        {
          "internalType": "address",
          "name": "_governor",
          "type": "address"
        },
        {
          "internalType": "address",
          "name": "_admin",
          "type": "address"
        }
      ],
      "name": "createKlerosBadgeModel",
      "outputs": [],
      "stateMutability": "nonpayable",
      "type": "function"
    },
    {
      "inputs": [],
      "name": "getArbitrator",
      "outputs": [
        {
          "internalType": "contract IArbitrator",
          "name": "",
          "type": "address"
        }
      ],
      "stateMutability": "view",
      "type": "function"
    },
    {
      "inputs": [],
      "name": "getCurrentBadgeIdCounter",
      "outputs": [
        {
          "internalType": "uint256",
          "name": "",
          "type": "uint256"
        }
      ],
      "stateMutability": "view",
      "type": "function"
    },
    {
      "inputs": [],
      "name": "getCurrentBadgeModelsIdCounter",
      "outputs": [
        {
          "internalType": "uint256",
          "name": "",
          "type": "uint256"
        }
      ],
      "stateMutability": "view",
      "type": "function"
    },
    {
      "inputs": [
        {
          "internalType": "uint256",
          "name": "badgeId",
          "type": "uint256"
        }
      ],
      "name": "getKlerosBadge",
      "outputs": [
        {
          "components": [
            {
              "internalType": "bytes32",
              "name": "itemID",
              "type": "bytes32"
            },
            {
              "internalType": "uint256",
              "name": "badgeModelId",
              "type": "uint256"
            },
            {
              "internalType": "address",
              "name": "callee",
              "type": "address"
            },
            {
              "internalType": "uint256",
              "name": "deposit",
              "type": "uint256"
            },
            {
              "internalType": "address",
              "name": "destinationAddress",
              "type": "address"
            },
            {
              "internalType": "bool",
              "name": "initialized",
              "type": "bool"
            }
          ],
          "internalType": "struct KlerosBadgeModelControllerStore.KlerosBadge",
          "name": "",
          "type": "tuple"
        }
      ],
      "stateMutability": "view",
      "type": "function"
    },
    {
      "inputs": [
        {
          "internalType": "uint256",
          "name": "badgeModelId",
          "type": "uint256"
        }
      ],
      "name": "getKlerosBadgeModel",
      "outputs": [
        {
          "components": [
            {
              "internalType": "address",
              "name": "owner",
              "type": "address"
            },
            {
              "internalType": "uint256",
              "name": "badgeModelId",
              "type": "uint256"
            },
            {
              "internalType": "address",
              "name": "tcrList",
              "type": "address"
            },
            {
              "internalType": "address",
              "name": "governor",
              "type": "address"
            },
            {
              "internalType": "address",
              "name": "admin",
              "type": "address"
            },
            {
              "internalType": "bool",
              "name": "initialized",
              "type": "bool"
            }
          ],
          "internalType": "struct KlerosBadgeModelControllerStore.KlerosBadgeModel",
          "name": "",
          "type": "tuple"
        }
      ],
      "stateMutability": "view",
      "type": "function"
    },
    {
      "inputs": [
        {
          "internalType": "bytes32",
          "name": "role",
          "type": "bytes32"
        }
      ],
      "name": "getRoleAdmin",
      "outputs": [
        {
          "internalType": "bytes32",
          "name": "",
          "type": "bytes32"
        }
      ],
      "stateMutability": "view",
      "type": "function"
    },
    {
      "inputs": [],
      "name": "getTCRFactory",
      "outputs": [
        {
          "internalType": "address",
          "name": "",
          "type": "address"
        }
      ],
      "stateMutability": "view",
      "type": "function"
    },
    {
      "inputs": [],
      "name": "getVerifyUserProtocolFee",
      "outputs": [
        {
          "internalType": "uint256",
          "name": "",
          "type": "uint256"
        }
      ],
      "stateMutability": "view",
      "type": "function"
    },
    {
      "inputs": [
        {
          "internalType": "bytes32",
          "name": "role",
          "type": "bytes32"
        },
        {
          "internalType": "address",
          "name": "account",
          "type": "address"
        }
      ],
      "name": "grantRole",
      "outputs": [],
      "stateMutability": "nonpayable",
      "type": "function"
    },
    {
      "inputs": [
        {
          "internalType": "bytes32",
          "name": "role",
          "type": "bytes32"
        },
        {
          "internalType": "address",
          "name": "account",
          "type": "address"
        }
      ],
      "name": "hasRole",
      "outputs": [
        {
          "internalType": "bool",
          "name": "",
          "type": "bool"
        }
      ],
      "stateMutability": "view",
      "type": "function"
    },
    {
      "inputs": [
        {
          "internalType": "address",
          "name": "admin",
          "type": "address"
        },
        {
          "internalType": "address",
          "name": "_arbitrator",
          "type": "address"
        },
        {
          "internalType": "address",
          "name": "_tcrFactory",
          "type": "address"
        }
      ],
      "name": "initialize",
      "outputs": [],
      "stateMutability": "nonpayable",
      "type": "function"
    },
    {
      "inputs": [
        {
          "internalType": "uint256",
          "name": "",
          "type": "uint256"
        }
      ],
      "name": "klerosBadgeModels",
      "outputs": [
        {
          "internalType": "address",
          "name": "owner",
          "type": "address"
        },
        {
          "internalType": "uint256",
          "name": "badgeModelId",
          "type": "uint256"
        },
        {
          "internalType": "address",
          "name": "tcrList",
          "type": "address"
        },
        {
          "internalType": "address",
          "name": "governor",
          "type": "address"
        },
        {
          "internalType": "address",
          "name": "admin",
          "type": "address"
        },
        {
          "internalType": "bool",
          "name": "initialized",
          "type": "bool"
        }
      ],
      "stateMutability": "view",
      "type": "function"
    },
    {
      "inputs": [
        {
          "internalType": "uint256",
          "name": "",
          "type": "uint256"
        }
      ],
      "name": "klerosBadges",
      "outputs": [
        {
          "internalType": "bytes32",
          "name": "itemID",
          "type": "bytes32"
        },
        {
          "internalType": "uint256",
          "name": "badgeModelId",
          "type": "uint256"
        },
        {
          "internalType": "address",
          "name": "callee",
          "type": "address"
        },
        {
          "internalType": "uint256",
          "name": "deposit",
          "type": "uint256"
        },
        {
          "internalType": "address",
          "name": "destinationAddress",
          "type": "address"
        },
        {
          "internalType": "bool",
          "name": "initialized",
          "type": "bool"
        }
      ],
      "stateMutability": "view",
      "type": "function"
    },
    {
      "inputs": [],
      "name": "owner",
      "outputs": [
        {
          "internalType": "address",
          "name": "",
          "type": "address"
        }
      ],
      "stateMutability": "view",
      "type": "function"
    },
    {
      "inputs": [
        {
          "internalType": "string",
          "name": "_contractName",
          "type": "string"
        }
      ],
      "name": "removePermittedContract",
      "outputs": [],
      "stateMutability": "nonpayable",
      "type": "function"
    },
    {
      "inputs": [],
      "name": "renounceOwnership",
      "outputs": [],
      "stateMutability": "nonpayable",
      "type": "function"
    },
    {
      "inputs": [
        {
          "internalType": "bytes32",
          "name": "role",
          "type": "bytes32"
        },
        {
          "internalType": "address",
          "name": "callerConfirmation",
          "type": "address"
        }
      ],
      "name": "renounceRole",
      "outputs": [],
      "stateMutability": "nonpayable",
      "type": "function"
    },
    {
      "inputs": [
        {
          "internalType": "bytes32",
          "name": "role",
          "type": "bytes32"
        },
        {
          "internalType": "address",
          "name": "account",
          "type": "address"
        }
      ],
      "name": "revokeRole",
      "outputs": [],
      "stateMutability": "nonpayable",
      "type": "function"
    },
    {
      "inputs": [
        {
          "internalType": "uint256",
          "name": "newFee",
          "type": "uint256"
        }
      ],
      "name": "setVerifyUserProtocolFee",
      "outputs": [],
      "stateMutability": "nonpayable",
      "type": "function"
    },
    {
      "inputs": [
        {
          "internalType": "bytes4",
          "name": "interfaceId",
          "type": "bytes4"
        }
      ],
      "name": "supportsInterface",
      "outputs": [
        {
          "internalType": "bool",
          "name": "",
          "type": "bool"
        }
      ],
      "stateMutability": "view",
      "type": "function"
    },
    {
      "inputs": [],
      "name": "tcrFactory",
      "outputs": [
        {
          "internalType": "address",
          "name": "",
          "type": "address"
        }
      ],
      "stateMutability": "view",
      "type": "function"
    },
    {
      "inputs": [
        {
          "internalType": "address",
          "name": "newOwner",
          "type": "address"
        }
      ],
      "name": "transferOwnership",
      "outputs": [],
      "stateMutability": "nonpayable",
      "type": "function"
    },
    {
      "inputs": [
        {
          "internalType": "uint256",
          "name": "badgeModelId",
          "type": "uint256"
        },
        {
          "components": [
            {
              "internalType": "address",
              "name": "owner",
              "type": "address"
            },
            {
              "internalType": "uint256",
              "name": "badgeModelId",
              "type": "uint256"
            },
            {
              "internalType": "address",
              "name": "tcrList",
              "type": "address"
            },
            {
              "internalType": "address",
              "name": "governor",
              "type": "address"
            },
            {
              "internalType": "address",
              "name": "admin",
              "type": "address"
            },
            {
              "internalType": "bool",
              "name": "initialized",
              "type": "bool"
            }
          ],
          "internalType": "struct KlerosBadgeModelControllerStore.KlerosBadgeModel",
          "name": "_klerosBadgeModel",
          "type": "tuple"
        }
      ],
      "name": "updateKlerosBadgeModel",
      "outputs": [],
      "stateMutability": "nonpayable",
      "type": "function"
    },
    {
      "inputs": [
        {
          "internalType": "string",
          "name": "_contractName",
          "type": "string"
        },
        {
          "internalType": "address",
          "name": "_newContractAddress",
          "type": "address"
        }
      ],
      "name": "updatePermittedContract",
      "outputs": [],
      "stateMutability": "nonpayable",
      "type": "function"
    },
    {
      "stateMutability": "payable",
      "type": "receive"
    }
  ],
  "bytecode": "0x608080604052346100b8577ff0c57e16840df040f15088dc2f81fe391c3923bec73e23a9662efc9c229c6a009081549060ff8260401c166100a957506001600160401b036002600160401b031982821601610064575b60405161173390816100bd8239f35b6001600160401b031990911681179091556040519081527fc7f505b2f371ae2175ee4913f4499e1f2633a7b5936321eed1cdaeb6115181d290602090a15f8080610055565b63f92ee8a960e01b8152600490fd5b5f80fdfe6080604081815260049182361015610021575b505050361561001f575f80fd5b005b5f92833560e01c91826301ffc9a71461116d5750816306d7a28c1461110f57816308e5bf21146110f05781630deee176146110075781630fceb74614610ccc578163202594f814610fca578163248a9ca314610f935781632f2ff15d14610f6957816336568abe14610f23578163495ef00e14610de157816363d93e6814610d33578163687a055714610cf55781636cc6cde114610ccc5781636e24d07314610c5f578163715018a614610bf65781637657dbdd14610bd85781637f34571014610b9d57816384101a17146109d95781638da5cb5b14610b6857816391d1485414610b155781639c5d192214610a025781639f780b1d146109d9578163a1fa355c146108fa578163a217fddf146108df578163a41e35c3146108a4578163b26fc204146107af578163b7f77e15146106fd578163c0c53b8b1461057d578163c22b06a31461050c578163d547741f146104c0578163e1e682e414610454578163e63ab1e914610419578163e7343c8a146103fc578163e7705db6146103c1578163ef7602001461027957508063f2fde38b14610249578063f72c0d8b1461020f5763fc5f18d3146101d25780610012565b3461020b578160031936011261020b57602090517f11a8cb5a02bd6c42679835e867ef2118ba78f088f8300511420c6603c21d9c788152f35b5080fd5b503461020b578160031936011261020b57602090517f189ab7a9244df0848122154315af71fe140f3db0fe014031783b0946b8c9d2e38152f35b8234610276576020366003190112610276576102736102666112db565b61026e611585565b6115bd565b80f35b80fd5b83833461020b5760a036600319011261020b578235610296611283565b9161029f6112f1565b926102a8611299565b956102b16112af565b94338752600560205260ff8488205416156103b2578487526007602052600160ff83868a20015460a01c161515146103a35761039496976102f06111c0565b9160018060a01b038095168352846020840196888852818186019316835281606086019416845281608086019a168a5260a085019860018a528c5260076020528b209351169560018060a01b03199687855416178455516001840155846002840191511686825416179055836003830191511685825416179055019351169083541617825551151581549060ff60a01b90151560a01b169060ff60a01b1916179055565b61039e815461169b565b815580f35b508251634d1068bd60e11b8152fd5b50825163c5a65c6960e01b8152fd5b50503461020b578160031936011261020b57602090517f0ce23c3e399818cfee81a7ab0880f714e53d7672b08df0fa62f2843416e1ea098152f35b50503461020b578160031936011261020b57602091549051908152f35b50503461020b578160031936011261020b57602090517f65d7a28e3265b37a6474929f336521b332c1681b933f6cb9f3376673440d862a8152f35b9050346104bc5760203660031901126104bc57338352600560205260ff8284205416156104ae578035835260086020528183209160ff8284015460a01c16156104a1578380600385015580f35b51630c11d07360e01b8152fd5b905163c5a65c6960e01b8152fd5b8280fd5b919050346104bc57806003193601126104bc57610508913561050360016104e5611283565b938387525f805160206116de833981519152602052862001546113af565b611505565b5080f35b919050346104bc5760203660031901126104bc578060ff9160c0948435815260076020522060018060a01b03908181541694600182015493836002840154169184600385015416930154948151978852602088015286015260608501528116608084015260a01c16151560a0820152f35b9050346104bc5760603660031901126104bc576105986112db565b6105a0611283565b916105a96112f1565b927ff0c57e16840df040f15088dc2f81fe391c3923bec73e23a9662efc9c229c6a009384549360ff85881c16159467ffffffffffffffff8116801590816106f5575b60011490816106eb575b1590816106e2575b506106d25767ffffffffffffffff1981166001178755889493929161064191876106b3575b5061062b61162e565b61063361162e565b61063c816115bd565b6113dd565b50600280546001600160a01b039384166001600160a01b0319918216179091556003805492909316911617905555610677578280f35b805460ff60401b1916905551600181527fc7f505b2f371ae2175ee4913f4499e1f2633a7b5936321eed1cdaeb6115181d290602090a15f808280f35b68ffffffffffffffffff1916680100000000000000011788555f610622565b875163f92ee8a960e01b81528590fd5b9050155f6105fd565b303b1591506105f5565b8791506105eb565b9050346104bc5760203660031901126104bc578160c09361071c61166f565b508235815260076020522061072f6111c0565b60018060a01b03828180945416958684528260018301549660208601978852816002850154169083870191825282600386015416946060880195865201549760ff60a06080890198858c168a52019960a01c16151589528351998a525160208a0152511690870152511660608501525116608083015251151560a0820152f35b83833461020b576107bf36611316565b916107c8611358565b6001600160a01b039283169283156108945781516020816107e9818761125a565b600681520301902054168015610884579061085a92918552600560205280852060ff19908181541690558151602081610822818761125a565b600681520301902080546001600160a01b0319168617905584865260056020528186208054909116600117905551918291829061125a565b0390207ff611fec7babefd259c57ea5b6006acff8140ab17bb816c65ba0aa7e36c09caa88380a380f35b815163f1ed16fb60e01b81528690fd5b8151631c089e4160e31b81528690fd5b50503461020b578160031936011261020b57602090517fcbaaf41b181bb6e269c490e876a7c97711b57e21dd8e5528423cf57579726b358152f35b50503461020b578160031936011261020b5751908152602090f35b9050346104bc5761090a36611316565b929091610915611358565b6001600160a01b039384169384156109ca578251602081610936818861125a565b600681520301902054166109bc575090816109929251602081610959818661125a565b600681520301902080546001600160a01b031916851790558385526005602052808520805460ff1916600117905551918291829061125a565b0390207f8b4ef7d4e5bc8f098e6f637ac0acf4aee47b3f027efea6307264b06b4bc9d2988380a380f35b9051639ce6538360e01b8152fd5b509051631c089e4160e31b8152fd5b50503461020b578160031936011261020b5760035490516001600160a01b039091168152602090f35b8391503461020b5760e036600319011261020b5760c036602319011261020b57610a2a6111c0565b90602435825260208201906044358252610a42611299565b85840190815260608401916084358352610a5a6112c5565b9460808101958652610a6a611307565b9460a08201958652338852600560205260ff898920541615610b0557823588526008602052978720905181559651600188015590516002870180546001600160a01b039283166001600160a01b0319909116179055915160038701559251949092018054915160ff60a01b90151560a01b16949092166001600160a81b03199091161792909217909155610aff60015461169b565b60015580f35b885163c5a65c6960e01b81528390fd5b9050346104bc57816003193601126104bc578160209360ff92610b36611283565b903582525f805160206116de83398151915286528282206001600160a01b039091168252855220549151911615158152f35b50503461020b578160031936011261020b575f805160206116be8339815191525490516001600160a01b039091168152602090f35b50503461020b578160031936011261020b57602090517f7804d923f43a17d325d77e781528e0793b2edd9890ab45fc64efd7b4b427744c8152f35b9050346104bc57826003193601126104bc5760209250549051908152f35b8334610276578060031936011261027657610c0f611585565b5f805160206116be83398151915280546001600160a01b0319811690915581906001600160a01b03167f8be0079c531659141344cd1fd0a4f28419497f9722a3daafe3b4186f6b6457e08280a380f35b9050346104bc5760203660031901126104bc57808260c09460ff933581526008602052209283549360018101549260018060a01b039283600284015416916003840154930154948151978852602088015286015260608501528116608084015260a01c16151560a0820152f35b50503461020b578160031936011261020b5760025490516001600160a01b039091168152602090f35b50503461020b57602036600319011261020b5760209160ff9082906001600160a01b03610d206112db565b1681526005855220541690519015158152f35b919050346104bc5760203660031901126104bc578060c093610d5361166f565b508335815260086020522091610d676111c0565b8354938482526001810154936020830194855260018060a01b03809481600285015416908386019182526003850154946060870195865201549660ff60a06080880197858b168952019860a01c161515885283519889525160208901525116908601525160608501525116608083015251151560a0820152f35b8391503461020b5760e036600319011261020b5780359060c03660231901126104bc57610e0c6111c0565b91610e15611283565b835260208301906044358252610e29611299565b92868501938452610e386112af565b9460608101958652610e486112c5565b9560808201968752610e58611307565b9560a08301968752338952600560205260ff8a8a20541615610f13578489526007602052898920546001600160a01b039590861615610f0357899a86916102739b5260076020528b209351169560018060a01b03199687855416178455516001840155846002840191511686825416179055836003830191511685825416179055019351169083541617825551151581549060ff60a01b90151560a01b169060ff60a01b1916179055565b8a5163018e27b760e31b81528590fd5b895163c5a65c6960e01b81528490fd5b83833461020b578060031936011261020b57610f3d611283565b90336001600160a01b03831603610f5a5750610508919235611505565b5163334bd91960e11b81528390fd5b919050346104bc57806003193601126104bc576105089135610f8e60016104e5611283565b61147b565b9050346104bc5760203660031901126104bc57816020936001923581525f805160206116de83398151915285522001549051908152f35b919050346104bc5760203660031901126104bc57338352600560205260ff818420541615610ffa57508035905580f35b5163c5a65c6960e01b8152fd5b919050346104bc5760203660031901126104bc57813567ffffffffffffffff81116110ec5761103990369084016111f4565b90611042611358565b805161104e818461125a565b600681528190036020019020546001600160a01b03169283156110de575090816110b49251602081611080818661125a565b600681520301902080546001600160a01b03191690558385526005602052808520805460ff1916905551918291829061125a565b0390207f7ad6d7c73213a93d033801d72c729d90fb72104796b75ad799858b26f2b9872f8380a380f35b905163f1ed16fb60e01b8152fd5b8380fd5b50503461020b578160031936011261020b576020906001549051908152f35b8284346102765760203660031901126102765782359067ffffffffffffffff82116102765750602092611144913691016111f4565b6111508251809261125a565b60068152819003830190205490516001600160a01b039091168152f35b8491346104bc5760203660031901126104bc573563ffffffff60e01b81168091036104bc5760209250637965db0b60e01b81149081156111af575b5015158152f35b6301ffc9a760e01b149050836111a8565b6040519060c0820182811067ffffffffffffffff8211176111e057604052565b634e487b7160e01b5f52604160045260245ffd5b81601f820112156112565780359067ffffffffffffffff928383116111e05760405193601f8401601f19908116603f01168501908111858210176111e0576040528284526020838301011161125657815f926020809301838601378301015290565b5f80fd5b908151915f5b838110611270575050015f815290565b8060208092840101518185015201611260565b602435906001600160a01b038216820361125657565b606435906001600160a01b038216820361125657565b608435906001600160a01b038216820361125657565b60a435906001600160a01b038216820361125657565b600435906001600160a01b038216820361125657565b604435906001600160a01b038216820361125657565b60c43590811515820361125657565b6040600319820112611256576004359067ffffffffffffffff821161125657611341916004016111f4565b906024356001600160a01b03811681036112565790565b335f9081527fb7db2dd08fcb62d0c9e08c51941cae53c267786a0b75803fb7960902fc8ef97d602052604081205460ff16156113915750565b6044906040519063e2517d3f60e01b82523360048301526024820152fd5b805f525f805160206116de83398151915260205260405f20335f5260205260ff60405f205416156113915750565b6001600160a01b03165f8181527fb7db2dd08fcb62d0c9e08c51941cae53c267786a0b75803fb7960902fc8ef97d60205260408120549091905f805160206116de8339815191529060ff16611476578280526020526040822081835260205260408220600160ff1982541617905533917f2f8788117e7eff1d82e926ec794901d17c78024a50270940304540a733656f0d8180a4600190565b505090565b905f918083525f805160206116de83398151915280602052604084209260018060a01b03169283855260205260ff604085205416155f146114ff578184526020526040832082845260205260408320600160ff198254161790557f2f8788117e7eff1d82e926ec794901d17c78024a50270940304540a733656f0d339380a4600190565b50505090565b905f918083525f805160206116de83398151915280602052604084209260018060a01b03169283855260205260ff6040852054165f146114ff57818452602052604083208284526020526040832060ff1981541690557ff6391f5c32d9c69d2a47ea670b442974b53935d1edc7fd64eb21e047a839171b339380a4600190565b5f805160206116be833981519152546001600160a01b031633036115a557565b60405163118cdaa760e01b8152336004820152602490fd5b6001600160a01b03908116908115611616575f805160206116be83398151915280546001600160a01b031981168417909155167f8be0079c531659141344cd1fd0a4f28419497f9722a3daafe3b4186f6b6457e05f80a3565b604051631e4fbdf760e01b81525f6004820152602490fd5b60ff7ff0c57e16840df040f15088dc2f81fe391c3923bec73e23a9662efc9c229c6a005460401c161561165d57565b604051631afcd79f60e31b8152600490fd5b6116776111c0565b905f80835280602084015280604084015280606084015280608084015260a0830152565b5f1981146116a95760010190565b634e487b7160e01b5f52601160045260245ffdfe9016d09d72d40fdae2fd8ceac6b6234c7706214fd39c1cd1e609a0528c19930002dd7bc7dec4dceedda775e58dd541e08a116c6c53815c0bd028192f7b626800a26469706673582212200219417884b34d7c23d392c4a0220ead61973a1249cacf9b85df0225f14486f964736f6c63430008140033",
  "linkReferences": {},
  "deployedLinkReferences": {}
}