{
  "_format": "hh-sol-artifact-1",
  "contractName": "KlerosBadgeModelController",
  "sourceName": "src/contracts/badgeModelControllers/KlerosBadgeModelController.sol",
  "abi": [
    {
      "inputs": [],
      "stateMutability": "nonpayable",
      "type": "constructor"
    },
    {
      "inputs": [],
      "name": "KlerosBadgeModelController__badge__depositReturnFailed",
      "type": "error"
    },
    {
      "inputs": [],
      "name": "KlerosBadgeModelController__badge__klerosBadgeNotFound",
      "type": "error"
    },
    {
      "inputs": [],
      "name": "KlerosBadgeModelController__badge__notInChallengeableStatus",
      "type": "error"
    },
    {
      "inputs": [],
      "name": "KlerosBadgeModelController__badge__tcrKlerosBadgeNotFound",
      "type": "error"
    },
    {
      "inputs": [],
      "name": "KlerosBadgeModelController__claimBadge_insufficientBalance",
      "type": "error"
    },
    {
      "inputs": [],
      "name": "KlerosBadgeModelController__createBadgeModel_TCRListAddressZero",
      "type": "error"
    },
    {
      "inputs": [],
      "name": "KlerosBadgeModelController__createBadgeModel_badgeModelAlreadyCreated",
      "type": "error"
    },
    {
      "inputs": [],
      "name": "KlerosBadgeModelController__mintBadge_alreadyMinted",
      "type": "error"
    },
    {
      "inputs": [],
      "name": "KlerosBadgeModelController__mintBadge_isPaused",
      "type": "error"
    },
    {
      "inputs": [],
      "name": "KlerosBadgeModelController__mintBadge_wrongBadgeModel",
      "type": "error"
    },
    {
      "inputs": [],
      "name": "KlerosBadgeModelController__mintBadge_wrongValue",
      "type": "error"
    },
    {
      "inputs": [],
      "name": "KlerosBadgeModelController__onlyTheBadge_senderNotTheBadge",
      "type": "error"
    },
    {
      "inputs": [],
      "name": "KlerosBadgeModelController__onlyTheBadge_senderNotTheBadgeModels",
      "type": "error"
    },
    {
      "inputs": [],
      "name": "KlerosBadgeModelController__onlyTheBadge_senderNotTheBadgeUsers",
      "type": "error"
    },
    {
      "inputs": [],
      "name": "KlerosBadgeModelController__user__userNotFound",
      "type": "error"
    },
    {
      "inputs": [],
      "name": "KlerosBadgeModelController__user__userVerificationAlreadyStarted",
      "type": "error"
    },
    {
      "inputs": [],
      "name": "KlerosBadgeModelController__user__userVerificationNotStarted",
      "type": "error"
    },
    {
      "inputs": [],
      "name": "TheBadge__method_not_supported",
      "type": "error"
    },
    {
      "anonymous": false,
      "inputs": [
        {
          "indexed": false,
          "internalType": "address",
          "name": "previousAdmin",
          "type": "address"
        },
        {
          "indexed": false,
          "internalType": "address",
          "name": "newAdmin",
          "type": "address"
        }
      ],
      "name": "AdminChanged",
      "type": "event"
    },
    {
      "anonymous": false,
      "inputs": [
        {
          "indexed": true,
          "internalType": "address",
          "name": "beacon",
          "type": "address"
        }
      ],
      "name": "BeaconUpgraded",
      "type": "event"
    },
    {
      "anonymous": false,
      "inputs": [
        {
          "indexed": true,
          "internalType": "address",
          "name": "recipient",
          "type": "address"
        },
        {
          "indexed": false,
          "internalType": "uint256",
          "name": "amount",
          "type": "uint256"
        },
        {
          "indexed": true,
          "internalType": "uint256",
          "name": "badgeId",
          "type": "uint256"
        }
      ],
      "name": "DepositReturned",
      "type": "event"
    },
    {
      "anonymous": false,
      "inputs": [
        {
          "indexed": true,
          "internalType": "address",
          "name": "admin",
          "type": "address"
        },
        {
          "indexed": true,
          "internalType": "address",
          "name": "tcrFactory",
          "type": "address"
        }
      ],
      "name": "Initialize",
      "type": "event"
    },
    {
      "anonymous": false,
      "inputs": [
        {
          "indexed": false,
          "internalType": "uint8",
          "name": "version",
          "type": "uint8"
        }
      ],
      "name": "Initialized",
      "type": "event"
    },
    {
      "anonymous": false,
      "inputs": [
        {
          "indexed": true,
          "internalType": "uint256",
          "name": "badgeId",
          "type": "uint256"
        },
        {
          "indexed": true,
          "internalType": "address",
          "name": "wallet",
          "type": "address"
        },
        {
          "indexed": false,
          "internalType": "string",
          "name": "evidence",
          "type": "string"
        },
        {
          "indexed": false,
          "internalType": "address",
          "name": "sender",
          "type": "address"
        }
      ],
      "name": "KlerosBadgeChallenged",
      "type": "event"
    },
    {
      "anonymous": false,
      "inputs": [
        {
          "indexed": true,
          "internalType": "uint256",
          "name": "badgeId",
          "type": "uint256"
        },
        {
          "indexed": false,
          "internalType": "string",
          "name": "evidence",
          "type": "string"
        }
      ],
      "name": "MintKlerosBadge",
      "type": "event"
    },
    {
      "anonymous": false,
      "inputs": [
        {
          "indexed": true,
          "internalType": "uint256",
          "name": "badgeModelId",
          "type": "uint256"
        },
        {
          "indexed": true,
          "internalType": "address",
          "name": "tcrAddress",
          "type": "address"
        },
        {
          "indexed": false,
          "internalType": "string",
          "name": "registrationMetaEvidence",
          "type": "string"
        },
        {
          "indexed": false,
          "internalType": "string",
          "name": "clearingMetaEvidence",
          "type": "string"
        }
      ],
      "name": "NewKlerosBadgeModel",
      "type": "event"
    },
    {
      "anonymous": false,
      "inputs": [],
      "name": "ProtocolSettingsUpdated",
      "type": "event"
    },
    {
      "anonymous": false,
      "inputs": [
        {
          "indexed": true,
          "internalType": "bytes32",
          "name": "role",
          "type": "bytes32"
        },
        {
          "indexed": true,
          "internalType": "bytes32",
          "name": "previousAdminRole",
          "type": "bytes32"
        },
        {
          "indexed": true,
          "internalType": "bytes32",
          "name": "newAdminRole",
          "type": "bytes32"
        }
      ],
      "name": "RoleAdminChanged",
      "type": "event"
    },
    {
      "anonymous": false,
      "inputs": [
        {
          "indexed": true,
          "internalType": "bytes32",
          "name": "role",
          "type": "bytes32"
        },
        {
          "indexed": true,
          "internalType": "address",
          "name": "account",
          "type": "address"
        },
        {
          "indexed": true,
          "internalType": "address",
          "name": "sender",
          "type": "address"
        }
      ],
      "name": "RoleGranted",
      "type": "event"
    },
    {
      "anonymous": false,
      "inputs": [
        {
          "indexed": true,
          "internalType": "bytes32",
          "name": "role",
          "type": "bytes32"
        },
        {
          "indexed": true,
          "internalType": "address",
          "name": "account",
          "type": "address"
        },
        {
          "indexed": true,
          "internalType": "address",
          "name": "sender",
          "type": "address"
        }
      ],
      "name": "RoleRevoked",
      "type": "event"
    },
    {
      "anonymous": false,
      "inputs": [
        {
          "indexed": true,
          "internalType": "address",
          "name": "implementation",
          "type": "address"
        }
      ],
      "name": "Upgraded",
      "type": "event"
    },
    {
      "inputs": [],
      "name": "CLAIMER_ROLE",
      "outputs": [
        {
          "internalType": "bytes32",
          "name": "",
          "type": "bytes32"
        }
      ],
      "stateMutability": "view",
      "type": "function"
    },
    {
      "inputs": [],
      "name": "DEFAULT_ADMIN_ROLE",
      "outputs": [
        {
          "internalType": "bytes32",
          "name": "",
          "type": "bytes32"
        }
      ],
      "stateMutability": "view",
      "type": "function"
    },
    {
      "inputs": [],
      "name": "PAUSER_ROLE",
      "outputs": [
        {
          "internalType": "bytes32",
          "name": "",
          "type": "bytes32"
        }
      ],
      "stateMutability": "view",
      "type": "function"
    },
    {
      "inputs": [],
      "name": "UPGRADER_ROLE",
      "outputs": [
        {
          "internalType": "bytes32",
          "name": "",
          "type": "bytes32"
        }
      ],
      "stateMutability": "view",
      "type": "function"
    },
    {
      "inputs": [],
      "name": "URI_SETTER_ROLE",
      "outputs": [
        {
          "internalType": "bytes32",
          "name": "",
          "type": "bytes32"
        }
      ],
      "stateMutability": "view",
      "type": "function"
    },
    {
      "inputs": [],
      "name": "USER_MANAGER_ROLE",
      "outputs": [
        {
          "internalType": "bytes32",
          "name": "",
          "type": "bytes32"
        }
      ],
      "stateMutability": "view",
      "type": "function"
    },
    {
      "inputs": [],
      "name": "VERIFIER_ROLE",
      "outputs": [
        {
          "internalType": "bytes32",
          "name": "",
          "type": "bytes32"
        }
      ],
      "stateMutability": "view",
      "type": "function"
    },
    {
      "inputs": [],
      "name": "arbitrator",
      "outputs": [
        {
          "internalType": "contract IArbitrator",
          "name": "",
          "type": "address"
        }
      ],
      "stateMutability": "view",
      "type": "function"
    },
    {
      "inputs": [
        {
          "internalType": "uint256",
          "name": "badgeId",
          "type": "uint256"
        },
        {
          "internalType": "bytes",
          "name": "data",
          "type": "bytes"
        }
      ],
      "name": "challenge",
      "outputs": [],
      "stateMutability": "payable",
      "type": "function"
    },
    {
      "inputs": [
        {
          "internalType": "uint256",
          "name": "badgeId",
          "type": "uint256"
        },
        {
          "internalType": "bytes",
          "name": "",
          "type": "bytes"
        }
      ],
      "name": "claim",
      "outputs": [
        {
          "internalType": "address",
          "name": "",
          "type": "address"
        }
      ],
      "stateMutability": "nonpayable",
      "type": "function"
    },
    {
      "inputs": [
        {
          "internalType": "uint256",
          "name": "badgeModelId",
          "type": "uint256"
        },
        {
          "internalType": "bytes",
          "name": "data",
          "type": "bytes"
        }
      ],
      "name": "createBadgeModel",
      "outputs": [],
      "stateMutability": "nonpayable",
      "type": "function"
    },
    {
      "inputs": [
        {
          "internalType": "address",
          "name": "_user",
          "type": "address"
        },
        {
          "internalType": "bool",
          "name": "verify",
          "type": "bool"
        }
      ],
      "name": "executeUserVerification",
      "outputs": [],
      "stateMutability": "nonpayable",
      "type": "function"
    },
    {
      "inputs": [
        {
          "internalType": "uint256",
          "name": "badgeId",
          "type": "uint256"
        }
      ],
      "name": "getChallengeDepositValue",
      "outputs": [
        {
          "internalType": "uint256",
          "name": "",
          "type": "uint256"
        }
      ],
      "stateMutability": "view",
      "type": "function"
    },
    {
      "inputs": [
        {
          "internalType": "uint256",
          "name": "badgeId",
          "type": "uint256"
        }
      ],
      "name": "getRemovalDepositValue",
      "outputs": [
        {
          "internalType": "uint256",
          "name": "",
          "type": "uint256"
        }
      ],
      "stateMutability": "view",
      "type": "function"
    },
    {
      "inputs": [
        {
          "internalType": "bytes32",
          "name": "role",
          "type": "bytes32"
        }
      ],
      "name": "getRoleAdmin",
      "outputs": [
        {
          "internalType": "bytes32",
          "name": "",
          "type": "bytes32"
        }
      ],
      "stateMutability": "view",
      "type": "function"
    },
    {
      "inputs": [],
      "name": "getVerifyUserProtocolFee",
      "outputs": [
        {
          "internalType": "uint256",
          "name": "",
          "type": "uint256"
        }
      ],
      "stateMutability": "view",
      "type": "function"
    },
    {
      "inputs": [
        {
          "internalType": "bytes32",
          "name": "role",
          "type": "bytes32"
        },
        {
          "internalType": "address",
          "name": "account",
          "type": "address"
        }
      ],
      "name": "grantRole",
      "outputs": [],
      "stateMutability": "nonpayable",
      "type": "function"
    },
    {
      "inputs": [
        {
          "internalType": "bytes32",
          "name": "role",
          "type": "bytes32"
        },
        {
          "internalType": "address",
          "name": "account",
          "type": "address"
        }
      ],
      "name": "hasRole",
      "outputs": [
        {
          "internalType": "bool",
          "name": "",
          "type": "bool"
        }
      ],
      "stateMutability": "view",
      "type": "function"
    },
    {
      "inputs": [
        {
          "internalType": "address",
          "name": "admin",
          "type": "address"
        },
        {
          "internalType": "address",
          "name": "_theBadge",
          "type": "address"
        },
        {
          "internalType": "address",
          "name": "_theBadgeModels",
          "type": "address"
        },
        {
          "internalType": "address",
          "name": "_theBadgeUsers",
          "type": "address"
        },
        {
          "internalType": "address",
          "name": "_arbitrator",
          "type": "address"
        },
        {
          "internalType": "address",
          "name": "_tcrFactory",
          "type": "address"
        }
      ],
      "name": "initialize",
      "outputs": [],
      "stateMutability": "nonpayable",
      "type": "function"
    },
    {
      "inputs": [
        {
          "internalType": "uint256",
          "name": "badgeId",
          "type": "uint256"
        }
      ],
      "name": "isAssetActive",
      "outputs": [
        {
          "internalType": "bool",
          "name": "",
          "type": "bool"
        }
      ],
      "stateMutability": "view",
      "type": "function"
    },
    {
      "inputs": [
        {
          "internalType": "uint256",
          "name": "badgeId",
          "type": "uint256"
        },
        {
          "internalType": "bytes",
          "name": "",
          "type": "bytes"
        },
        {
          "internalType": "address",
          "name": "",
          "type": "address"
        }
      ],
      "name": "isClaimable",
      "outputs": [
        {
          "internalType": "bool",
          "name": "",
          "type": "bool"
        }
      ],
      "stateMutability": "view",
      "type": "function"
    },
    {
      "inputs": [
        {
          "internalType": "uint256",
          "name": "",
          "type": "uint256"
        },
        {
          "internalType": "address",
          "name": "",
          "type": "address"
        }
      ],
      "name": "isMintableToController",
      "outputs": [
        {
          "internalType": "bool",
          "name": "",
          "type": "bool"
        }
      ],
      "stateMutability": "pure",
      "type": "function"
    },
    {
      "inputs": [
        {
          "internalType": "address",
          "name": "_user",
          "type": "address"
        }
      ],
      "name": "isUserVerified",
      "outputs": [
        {
          "internalType": "bool",
          "name": "",
          "type": "bool"
        }
      ],
      "stateMutability": "view",
      "type": "function"
    },
    {
      "inputs": [
        {
          "internalType": "uint256",
          "name": "",
          "type": "uint256"
        }
      ],
      "name": "klerosBadgeModels",
      "outputs": [
        {
          "internalType": "address",
          "name": "tcrList",
          "type": "address"
        }
      ],
      "stateMutability": "view",
      "type": "function"
    },
    {
      "inputs": [
        {
          "internalType": "uint256",
          "name": "",
          "type": "uint256"
        }
      ],
      "name": "klerosBadges",
      "outputs": [
        {
          "internalType": "bytes32",
          "name": "itemID",
          "type": "bytes32"
        },
        {
          "internalType": "uint256",
          "name": "badgeModelId",
          "type": "uint256"
        },
        {
          "internalType": "address",
          "name": "callee",
          "type": "address"
        },
        {
          "internalType": "uint256",
          "name": "deposit",
          "type": "uint256"
        },
        {
          "internalType": "address",
          "name": "destinationAddress",
          "type": "address"
        },
        {
          "internalType": "bool",
          "name": "initialized",
          "type": "bool"
        }
      ],
      "stateMutability": "view",
      "type": "function"
    },
    {
      "inputs": [
        {
          "internalType": "address",
          "name": "",
          "type": "address"
        }
      ],
      "name": "klerosUsers",
      "outputs": [
        {
          "internalType": "address",
          "name": "user",
          "type": "address"
        },
        {
          "internalType": "string",
          "name": "userMetadata",
          "type": "string"
        },
        {
          "internalType": "string",
          "name": "verificationEvidence",
          "type": "string"
        },
        {
          "internalType": "enum KlerosBadgeModelControllerStore.VerificationStatus",
          "name": "verificationStatus",
          "type": "uint8"
        },
        {
          "internalType": "bool",
          "name": "initialized",
          "type": "bool"
        }
      ],
      "stateMutability": "view",
      "type": "function"
    },
    {
      "inputs": [
        {
          "internalType": "address",
          "name": "callee",
          "type": "address"
        },
        {
          "internalType": "uint256",
          "name": "badgeModelId",
          "type": "uint256"
        },
        {
          "internalType": "uint256",
          "name": "badgeId",
          "type": "uint256"
        },
        {
          "internalType": "bytes",
          "name": "data",
          "type": "bytes"
        },
        {
          "internalType": "address",
          "name": "destinationAddress",
          "type": "address"
        }
      ],
      "name": "mint",
      "outputs": [
        {
          "internalType": "uint256",
          "name": "",
          "type": "uint256"
        }
      ],
      "stateMutability": "payable",
      "type": "function"
    },
    {
      "inputs": [
        {
          "internalType": "uint256",
          "name": "badgeModelId",
          "type": "uint256"
        }
      ],
      "name": "mintValue",
      "outputs": [
        {
          "internalType": "uint256",
          "name": "",
          "type": "uint256"
        }
      ],
      "stateMutability": "view",
      "type": "function"
    },
    {
      "inputs": [],
      "name": "proxiableUUID",
      "outputs": [
        {
          "internalType": "bytes32",
          "name": "",
          "type": "bytes32"
        }
      ],
      "stateMutability": "view",
      "type": "function"
    },
    {
      "inputs": [
        {
          "internalType": "uint256",
          "name": "badgeId",
          "type": "uint256"
        },
        {
          "internalType": "bytes",
          "name": "data",
          "type": "bytes"
        }
      ],
      "name": "removeItem",
      "outputs": [],
      "stateMutability": "payable",
      "type": "function"
    },
    {
      "inputs": [
        {
          "internalType": "bytes32",
          "name": "role",
          "type": "bytes32"
        },
        {
          "internalType": "address",
          "name": "account",
          "type": "address"
        }
      ],
      "name": "renounceRole",
      "outputs": [],
      "stateMutability": "nonpayable",
      "type": "function"
    },
    {
      "inputs": [
        {
          "internalType": "bytes32",
          "name": "role",
          "type": "bytes32"
        },
        {
          "internalType": "address",
          "name": "account",
          "type": "address"
        }
      ],
      "name": "revokeRole",
      "outputs": [],
      "stateMutability": "nonpayable",
      "type": "function"
    },
    {
      "inputs": [
        {
          "internalType": "uint256",
          "name": "badgeId",
          "type": "uint256"
        },
        {
          "internalType": "bytes",
          "name": "data",
          "type": "bytes"
        }
      ],
      "name": "submitEvidence",
      "outputs": [],
      "stateMutability": "nonpayable",
      "type": "function"
    },
    {
      "inputs": [
        {
          "internalType": "address",
          "name": "_user",
          "type": "address"
        },
        {
          "internalType": "string",
          "name": "userMetadata",
          "type": "string"
        },
        {
          "internalType": "string",
          "name": "evidenceUri",
          "type": "string"
        }
      ],
      "name": "submitUserVerification",
      "outputs": [],
      "stateMutability": "nonpayable",
      "type": "function"
    },
    {
      "inputs": [
        {
          "internalType": "bytes4",
          "name": "interfaceId",
          "type": "bytes4"
        }
      ],
      "name": "supportsInterface",
      "outputs": [
        {
          "internalType": "bool",
          "name": "",
          "type": "bool"
        }
      ],
      "stateMutability": "view",
      "type": "function"
    },
    {
      "inputs": [],
      "name": "tcrFactory",
      "outputs": [
        {
          "internalType": "address",
          "name": "",
          "type": "address"
        }
      ],
      "stateMutability": "view",
      "type": "function"
    },
    {
      "inputs": [],
      "name": "theBadge",
      "outputs": [
        {
          "internalType": "contract TheBadge",
          "name": "",
          "type": "address"
        }
      ],
      "stateMutability": "view",
      "type": "function"
    },
    {
      "inputs": [],
      "name": "theBadgeModels",
      "outputs": [
        {
          "internalType": "contract TheBadgeModels",
          "name": "",
          "type": "address"
        }
      ],
      "stateMutability": "view",
      "type": "function"
    },
    {
      "inputs": [],
      "name": "theBadgeUsers",
      "outputs": [
        {
          "internalType": "contract TheBadgeUsers",
          "name": "",
          "type": "address"
        }
      ],
      "stateMutability": "view",
      "type": "function"
    },
    {
      "inputs": [
        {
          "internalType": "uint256",
          "name": "_verifyUserProtocolFee",
          "type": "uint256"
        }
      ],
      "name": "updateVerifyUserProtocolFee",
      "outputs": [],
      "stateMutability": "nonpayable",
      "type": "function"
    },
    {
      "inputs": [
        {
          "internalType": "address",
          "name": "newImplementation",
          "type": "address"
        }
      ],
      "name": "upgradeTo",
      "outputs": [],
      "stateMutability": "nonpayable",
      "type": "function"
    },
    {
      "inputs": [
        {
          "internalType": "address",
          "name": "newImplementation",
          "type": "address"
        },
        {
          "internalType": "bytes",
          "name": "data",
          "type": "bytes"
        }
      ],
      "name": "upgradeToAndCall",
      "outputs": [],
      "stateMutability": "payable",
      "type": "function"
    },
    {
      "stateMutability": "payable",
      "type": "receive"
    }
  ],
  "bytecode": "0x60a0604052306080523480156200001557600080fd5b506200002062000026565b620000e7565b600054610100900460ff1615620000935760405162461bcd60e51b815260206004820152602760248201527f496e697469616c697a61626c653a20636f6e747261637420697320696e697469604482015266616c697a696e6760c81b606482015260840160405180910390fd5b60005460ff90811614620000e5576000805460ff191660ff9081179091556040519081527f7f26b83ff96e1f2b6a682f133852f6798a09c465da95921460cefb38474024989060200160405180910390a15b565b608051613c676200011f60003960008181610b1701528181610b5701528181610de001528181610e200152610e980152613c676000f3fe6080604052600436106102155760003560e01c806393c7a71b11610119578063caa39ec5116100a6578063caa39ec5146106c6578063cc2a9a5b146106ec578063d547741f1461070c578063d7deba151461072c578063e63ab1e91461074c578063e7705db614610780578063f4bcaf42146107b4578063f6563d5f146107d4578063f72c0d8b146107e7578063fb094b6814610809578063fc5f18d31461083a57600080fd5b806393c7a71b146105815780639f780b1d146105a15780639faf7158146105c1578063a03aafbf146105d4578063a217fddf146105e7578063a41e35c3146105fc578063ace417e014610630578063ae1c29e814610650578063b5a867fa14610670578063c22b06a31461069057600080fd5b806352d1902d116101a257806352d1902d146103a4578063632f7c83146103b95780636afa1774146103d95780636cc6cde1146103f95780636e24d073146104195780637657dbdd146104b857806377a3989e146104cd5780637eb7f176146104ed5780637f3457101461050d5780638ac516b81461054157806391d148541461056157600080fd5b806301ffc9a714610221578063130bd93f1461025657806322e900c214610278578063248a9ca3146102985780632f2ff15d146102d657806336568abe146102f65780633659cfe61461031657806338926b6d14610336578063401fef941461036e5780634f1ef2861461039157600080fd5b3661021c57005b600080fd5b34801561022d57600080fd5b5061024161023c366004612d20565b61086e565b60405190151581526020015b60405180910390f35b34801561026257600080fd5b50610276610271366004612d7d565b6108a5565b005b34801561028457600080fd5b50610241610293366004612db6565b6109a3565b3480156102a457600080fd5b506102c86102b3366004612db6565b600090815260d1602052604090206001015490565b60405190815260200161024d565b3480156102e257600080fd5b506102766102f1366004612dcf565b610a60565b34801561030257600080fd5b50610276610311366004612dcf565b610a8a565b34801561032257600080fd5b50610276610331366004612df4565b610b0d565b34801561034257600080fd5b50610356610351366004612e59565b610bd5565b6040516001600160a01b03909116815260200161024d565b34801561037a57600080fd5b50610241610389366004612dcf565b600092915050565b61027661039f366004612fbc565b610dd6565b3480156103b057600080fd5b506102c8610e8b565b3480156103c557600080fd5b506102c86103d4366004612db6565b610f39565b3480156103e557600080fd5b506102416103f436600461301f565b6110a2565b34801561040557600080fd5b50600354610356906001600160a01b031681565b34801561042557600080fd5b5061047a610434366004612db6565b60076020526000908152604090208054600182015460028301546003840154600490940154929391926001600160a01b039182169291811690600160a01b900460ff1686565b6040805196875260208701959095526001600160a01b03938416948601949094526060850191909152166080830152151560a082015260c00161024d565b3480156104c457600080fd5b506005546102c8565b3480156104d957600080fd5b506102766104e8366004612e59565b611363565b3480156104f957600080fd5b506102c8610508366004612db6565b61166a565b34801561051957600080fd5b506102c87f7804d923f43a17d325d77e781528e0793b2edd9890ab45fc64efd7b4b427744c81565b34801561054d57600080fd5b5061027661055c366004612db6565b6116fe565b34801561056d57600080fd5b5061024161057c366004612dcf565b61173b565b34801561058d57600080fd5b5061027661059c366004612e59565b611766565b3480156105ad57600080fd5b50600454610356906001600160a01b031681565b6102766105cf366004612e59565b611882565b6102766105e2366004612e59565b61199e565b3480156105f357600080fd5b506102c8600081565b34801561060857600080fd5b506102c87fcbaaf41b181bb6e269c490e876a7c97711b57e21dd8e5528423cf57579726b3581565b34801561063c57600080fd5b5061024161064b366004612df4565b611a80565b34801561065c57600080fd5b50600254610356906001600160a01b031681565b34801561067c57600080fd5b5061027661068b36600461309d565b611ae8565b34801561069c57600080fd5b506103566106ab366004612db6565b6006602052600090815260409020546001600160a01b031681565b3480156106d257600080fd5b50600054610356906201000090046001600160a01b031681565b3480156106f857600080fd5b50610276610707366004613112565b611b8b565b34801561071857600080fd5b50610276610727366004612dcf565b611d85565b34801561073857600080fd5b506102c8610747366004612db6565b611daa565b34801561075857600080fd5b506102c87f65d7a28e3265b37a6474929f336521b332c1681b933f6cb9f3376673440d862a81565b34801561078c57600080fd5b506102c87f0ce23c3e399818cfee81a7ab0880f714e53d7672b08df0fa62f2843416e1ea0981565b3480156107c057600080fd5b50600154610356906001600160a01b031681565b6102c86107e2366004613194565b611fd7565b3480156107f357600080fd5b506102c8600080516020613bcb83398151915281565b34801561081557600080fd5b50610829610824366004612df4565b61222e565b60405161024d959493929190613267565b34801561084657600080fd5b506102c87f11a8cb5a02bd6c42679835e867ef2118ba78f088f8300511420c6603c21d9c7881565b60006001600160e01b03198216637965db0b60e01b148061089f57506301ffc9a760e01b6001600160e01b03198316145b92915050565b6002546001600160a01b031633146108d05760405163efb80fc560e01b815260040160405180910390fd5b6001600160a01b03821660009081526008602052604081206003810154849261010090910460ff16151590036109195760405163bb572dbf60e01b815260040160405180910390fd5b6000600382015460ff16600281111561093457610934613251565b1461095257604051636ed1ab8760e11b815260040160405180910390fd5b6001600160a01b038416600090815260086020526040902083610976576002610979565b60015b60038201805460ff1916600183600281111561099757610997613251565b02179055505050505050565b6000806109af8361237d565b60008481526007602052604080822080549151634aac84e560e01b815260048101929092529293506001600160a01b03841690634aac84e590602401606060405180830381865afa158015610a08573d6000803e3d6000fd5b505050506040513d601f19601f82011682018060405250810190610a2c91906132d6565b505090508060ff1660011480610a4557508060ff166003145b15610a5557506001949350505050565b506000949350505050565b600082815260d16020526040902060010154610a7b8161241f565b610a858383612429565b505050565b6001600160a01b0381163314610aff5760405162461bcd60e51b815260206004820152602f60248201527f416363657373436f6e74726f6c3a2063616e206f6e6c792072656e6f756e636560448201526e103937b632b9903337b91039b2b63360891b60648201526084015b60405180910390fd5b610b0982826124af565b5050565b6001600160a01b037f0000000000000000000000000000000000000000000000000000000000000000163003610b555760405162461bcd60e51b8152600401610af690613313565b7f00000000000000000000000000000000000000000000000000000000000000006001600160a01b0316610b87612516565b6001600160a01b031614610bad5760405162461bcd60e51b8152600401610af69061335f565b610bb681612532565b60408051600080825260208201909252610bd29183919061254a565b50565b600080546201000090046001600160a01b03163314610c075760405163942e92c760e01b815260040160405180910390fd5b6000610c128561237d565b600086815260076020908152604091829020825160c081018452815480825260018301549382019390935260028201546001600160a01b0390811682860152600383015460608301526004928301548082166080840152600160a01b900460ff16151560a083015293516374e120b360e11b815291820192909252929350919083169063e9c2416690602401600060405180830381600087803b158015610cb857600080fd5b505af1158015610ccc573d6000803e3d6000fd5b505050504781606001511115610cf5576040516398e2a0bb60e01b815260040160405180910390fd5b60608101805160009182905260408084015190519192916001600160a01b039091169083908381818185875af1925050503d8060008114610d52576040519150601f19603f3d011682016040523d82523d6000602084013e610d57565b606091505b5090915050801515600003610d7f5760405163aa701b0560e01b815260040160405180910390fd5b8783604001516001600160a01b03167f9794db68af033346a63dbc4509364afc3a23201eced8a4f3bc64d029abfacc6584604051610dbf91815260200190565b60405180910390a350506080015195945050505050565b6001600160a01b037f0000000000000000000000000000000000000000000000000000000000000000163003610e1e5760405162461bcd60e51b8152600401610af690613313565b7f00000000000000000000000000000000000000000000000000000000000000006001600160a01b0316610e50612516565b6001600160a01b031614610e765760405162461bcd60e51b8152600401610af69061335f565b610e7f82612532565b610b098282600161254a565b6000306001600160a01b037f00000000000000000000000000000000000000000000000000000000000000001614610f265760405162461bcd60e51b815260206004820152603860248201527f555550535570677261646561626c653a206d757374206e6f742062652063616c6044820152771b1959081d1a1c9bdd59da0819195b1959d85d1958d85b1b60421b6064820152608401610af6565b50600080516020613beb83398151915290565b6000818152600660205260408082208054600354835163063d63db60e11b8152935192936001600160a01b039283169386939092169163f7434ea9918591630c7ac7b69160048082019288929091908290030181865afa158015610fa1573d6000803e3d6000fd5b505050506040513d6000823e601f3d908101601f19168201604052610fc991908101906133f0565b6040518263ffffffff1660e01b8152600401610fe59190613424565b602060405180830381865afa158015611002573d6000803e3d6000fd5b505050506040513d601f19601f820116820180604052508101906110269190613437565b90506000826001600160a01b031663bb0b86ff6040518163ffffffff1660e01b8152600401602060405180830381865afa158015611068573d6000803e3d6000fd5b505050506040513d601f19601f8201168201806040525081019061108c9190613437565b90506110988183613466565b9695505050505050565b6000806110ae8661237d565b6000878152600760205260408120600481015492935091600160a01b900460ff16151590036110f057604051630c11d07360e01b815260040160405180910390fd5b805460000361111257604051630c11d07360e01b815260040160405180910390fd5b80546040516348f343f360e01b81526000916001600160a01b038516916348f343f3916111459160040190815260200190565b606060405180830381865afa158015611162573d6000803e3d6000fd5b505050506040513d601f19601f820116820180604052508101906111869190613479565b8454604051634aac84e560e01b81526004810191909152909350600092506001600160a01b0386169150634aac84e590602401606060405180830381865afa1580156111d6573d6000803e3d6000fd5b505050506040513d601f19601f820116820180604052508101906111fa91906132d6565b50509050600060018361120d91906134e2565b8454604051635fde7f8d60e11b815260048101919091526001600160781b03919091166024820181905291506000906001600160a01b0387169063bfbcff1a90604401600060405180830381865afa15801561126d573d6000803e3d6000fd5b505050506040513d6000823e601f3d908101601f191682016040526112959190810190613523565b50505050505050925050506000866001600160a01b03166282a36d6040518163ffffffff1660e01b8152600401602060405180830381865afa1580156112df573d6000803e3d6000fd5b505050506040513d601f19601f820116820180604052508101906113039190613437565b90506000816113128442613627565b1161131e576000611321565b60015b90508460ff16600214801561133857506001811515145b1561134e5760019850505050505050505061135b565b6000985050505050505050505b949350505050565b6001546001600160a01b0316331461138e5760405163515e38c360e11b815260040160405180910390fd5b600083815260066020526040902080546001600160a01b0316156113c557604051634d1068bd60e11b815260040160405180910390fd5b6004546001600160a01b031660006113df848601866136b5565b60035460408083015190519293506001600160a01b038086169363d8dcbd2793909116916114139160200190815260200190565b60408051601f1981840301815282825260608701516020840152910160408051601f198184030181529082905261144d92916020016137ac565b60408051808303601f1901815290829052608086015160a0870151875160e0808a015160c08b01516101008c015160208d0151938b901b6001600160e01b03191689526114a49998600097969594906004016137fe565b600060405180830381600087803b1580156114be57600080fd5b505af11580156114d2573d6000803e3d6000fd5b5050505060006001836001600160a01b03166306661abd6040518163ffffffff1660e01b8152600401602060405180830381865afa158015611518573d6000803e3d6000fd5b505050506040513d601f19601f8201168201806040525081019061153c9190613437565b6115469190613627565b60405163a2f7b3a560e01b8152600481018290529091506000906001600160a01b0385169063a2f7b3a5906024016020604051808303816000875af1158015611593573d6000803e3d6000fd5b505050506040513d601f19601f820116820180604052508101906115b791906138c1565b90506001600160a01b0381166115e057604051637788791560e11b815260040160405180910390fd5b60408051602080820183526001600160a01b0384811680845260008d8152600690935291849020925183546001600160a01b031916911617909155608085015160a0860151925191928b927f1e83a75c2089c1100e6d9a024ea6fdf619ec5a922a17230682fbf1217d2a7ec1926116589290916138de565b60405180910390a35050505050505050565b6000806116768361237d565b90506000611683846126b5565b90506000826001600160a01b031663c2f2beea6040518163ffffffff1660e01b8152600401602060405180830381865afa1580156116c5573d6000803e3d6000fd5b505050506040513d601f19601f820116820180604052508101906116e99190613437565b90506116f582826128bb565b95945050505050565b60006117098161241f565b60058290556040517f810f1720fbc34c56d171f89315ad21708648fd17424c27b88fa208409845aa7790600090a15050565b600091825260d1602090815260408084206001600160a01b0393909316845291905290205460ff1690565b6000546201000090046001600160a01b031633146117975760405163942e92c760e01b815260040160405180910390fd5b600083815260076020526040812060048101549091600160a01b90910460ff16151590036117d857604051630c11d07360e01b815260040160405180910390fd5b80546000036117fa57604051630c11d07360e01b815260040160405180910390fd5b600061180883850185613967565b905060006118158661237d565b8354835160405163f48a0b3160e01b81529293506001600160a01b0384169263f48a0b319261184892909160040161399b565b600060405180830381600087803b15801561186257600080fd5b505af1158015611876573d6000803e3d6000fd5b50505050505050505050565b6000546201000090046001600160a01b031633146118b35760405163942e92c760e01b815260040160405180910390fd5b600083815260076020526040812060048101549091600160a01b90910460ff16151590036118f457604051630c11d07360e01b815260040160405180910390fd5b805460000361191657604051630c11d07360e01b815260040160405180910390fd5b600061192483850185613967565b905060006119318661237d565b8354835160405163097e90e560e41b81529293506001600160a01b038416926397e90e509234926119649260040161399b565b6000604051808303818588803b15801561197d57600080fd5b505af1158015611991573d6000803e3d6000fd5b5050505050505050505050565b6000546201000090046001600160a01b031633146119cf5760405163942e92c760e01b815260040160405180910390fd5b600083815260076020526040812060048101549091600160a01b90910460ff1615159003611a1057604051630c11d07360e01b815260040160405180910390fd5b8054600003611a3257604051630c11d07360e01b815260040160405180910390fd5b6000611a4083850185613967565b90506000611a4d8661237d565b8354835160405163873db1a760e01b81529293506001600160a01b0384169263873db1a79234926119649260040161399b565b6001600160a01b03811660009081526008602052604081206003810154610100900460ff1615158203611ab65750600092915050565b6001600382015460ff166002811115611ad157611ad1613251565b03611adf5750600192915050565b50600092915050565b6002546001600160a01b03163314611b135760405163efb80fc560e01b815260040160405180910390fd5b6001600160a01b03831660009081526008602052604090206003810154610100900460ff1615611b5657604051637815482960e11b815260040160405180910390fd5b60038101805461ffff191661010017905560018101611b758482613a3c565b5060028101611b848382613a3c565b5050505050565b600054610100900460ff1615808015611bab5750600054600160ff909116105b80611bcc5750611bba306128e1565b158015611bcc575060005460ff166001145b611c2f5760405162461bcd60e51b815260206004820152602e60248201527f496e697469616c697a61626c653a20636f6e747261637420697320616c72656160448201526d191e481a5b9a5d1a585b1a5e995960921b6064820152608401610af6565b6000805460ff191660011790558015611c52576000805461ff0019166101001790555b611c5d600088612429565b611c877f65d7a28e3265b37a6474929f336521b332c1681b933f6cb9f3376673440d862a88612429565b611c9f600080516020613bcb83398151915288612429565b600080546001600160a01b03808916620100000262010000600160b01b0319909216919091178255600180548883166001600160a01b03199182161790915560028054888416908316179055600380548784169083161790556004805486841692168217905560058390556040519092918a16917fdc90fed0326ba91706deeac7eb34ac9f8b680734f9d782864dc29704d23bed6a91a38015611d7c576000805461ff0019169055604051600181527f7f26b83ff96e1f2b6a682f133852f6798a09c465da95921460cefb38474024989060200160405180910390a15b50505050505050565b600082815260d16020526040902060010154611da08161241f565b610a8583836124af565b60008181526007602052604081206004810154600160a01b900460ff1615158203611de857604051630c11d07360e01b815260040160405180910390fd5b8054600003611e0a57604051630c11d07360e01b815260040160405180910390fd5b6000611e158461237d565b8254604051634aac84e560e01b815260048101919091529091506000906001600160a01b03831690634aac84e590602401606060405180830381865afa158015611e63573d6000803e3d6000fd5b505050506040513d601f19601f82011682018060405250810190611e8791906132d6565b505090506000611e96866126b5565b90508160ff16600103611f0f57611098836001600160a01b031663a37b6ad46040518163ffffffff1660e01b8152600401602060405180830381865afa158015611ee4573d6000803e3d6000fd5b505050506040513d601f19601f82011682018060405250810190611f089190613437565b82906128bb565b8160ff16600203611f5b57611098836001600160a01b031663c2f2beea6040518163ffffffff1660e01b8152600401602060405180830381865afa158015611ee4573d6000803e3d6000fd5b8160ff16600303611f725750600095945050505050565b8160ff16600403611fbe57611098836001600160a01b031663787471a96040518163ffffffff1660e01b8152600401602060405180830381865afa158015611ee4573d6000803e3d6000fd5b6040516305e5cf6360e41b815260040160405180910390fd5b600080546201000090046001600160a01b031633146120095760405163942e92c760e01b815260040160405180910390fd5b600061201487610f39565b905080341461203657604051637bcb3e5760e01b815260040160405180910390fd5b6000878152600660205260408120805490916001600160a01b039091169061206087890189613967565b80516040516309fa7ca560e21b81529192506001600160a01b038416916327e9f2949134916120929190600401613424565b6000604051808303818588803b1580156120ab57600080fd5b505af11580156120bf573d6000803e3d6000fd5b5050505050600081600001516040516020016120db9190613afb565b6040516020818303038152906040528051906020012090506040518060c001604052808281526020018c81526020018d6001600160a01b03168152602001348152602001886001600160a01b0316815260200160011515815250600760008c8152602001908152602001600020600082015181600001556020820151816001015560408201518160020160006101000a8154816001600160a01b0302191690836001600160a01b031602179055506060820151816003015560808201518160040160006101000a8154816001600160a01b0302191690836001600160a01b0316021790555060a08201518160040160146101000a81548160ff021916908315150217905550905050897fdd7e1dd9a30843ba8c2619a3c5ce27830ad90612bad48feeb549fc94114d626183600001516040516122179190613424565b60405180910390a29b9a5050505050505050505050565b600860205260009081526040902080546001820180546001600160a01b03909216929161225a906139b4565b80601f0160208091040260200160405190810160405280929190818152602001828054612286906139b4565b80156122d35780601f106122a8576101008083540402835291602001916122d3565b820191906000526020600020905b8154815290600101906020018083116122b657829003601f168201915b5050505050908060020180546122e8906139b4565b80601f0160208091040260200160405190810160405280929190818152602001828054612314906139b4565b80156123615780601f1061233657610100808354040283529160200191612361565b820191906000526020600020905b81548152906001019060200180831161234457829003601f168201915b5050506003909301549192505060ff8082169161010090041685565b6000818152600760209081526040808320815160c08101835281548152600182015481850181905260028301546001600160a01b0390811683860152600384015460608401526004909301548084166080840152600160a01b900460ff16151560a083015285526006909352908320805490911661240e57604051633deb66a760e21b815260040160405180910390fd5b546001600160a01b03169392505050565b610bd281336128f0565b612433828261173b565b610b0957600082815260d1602090815260408083206001600160a01b03851684529091529020805460ff1916600117905561246b3390565b6001600160a01b0316816001600160a01b0316837f2f8788117e7eff1d82e926ec794901d17c78024a50270940304540a733656f0d60405160405180910390a45050565b6124b9828261173b565b15610b0957600082815260d1602090815260408083206001600160a01b0385168085529252808320805460ff1916905551339285917ff6391f5c32d9c69d2a47ea670b442974b53935d1edc7fd64eb21e047a839171b9190a45050565b600080516020613beb833981519152546001600160a01b031690565b600080516020613bcb833981519152610b098161241f565b7f4910fdfa16fed3260ed0e7147f7cc6da11a60208b5b9406d12a635614ffd91435460ff161561257d57610a8583612949565b826001600160a01b03166352d1902d6040518163ffffffff1660e01b8152600401602060405180830381865afa9250505080156125d7575060408051601f3d908101601f191682019092526125d491810190613437565b60015b61263a5760405162461bcd60e51b815260206004820152602e60248201527f45524331393637557067726164653a206e657720696d706c656d656e7461746960448201526d6f6e206973206e6f74205555505360901b6064820152608401610af6565b600080516020613beb83398151915281146126a95760405162461bcd60e51b815260206004820152602960248201527f45524331393637557067726164653a20756e737570706f727465642070726f786044820152681a58589b195555525160ba1b6064820152608401610af6565b50610a858383836129e3565b6000818152600760209081526040808320815160c0810183528154815260018201549381019390935260028101546001600160a01b039081169284019290925260038101546060840152600401549081166080830152600160a01b900460ff16151560a0820152816127268461237d565b82516040516348f343f360e01b815260048101919091529091506000906001600160a01b038316906348f343f390602401606060405180830381865afa158015612774573d6000803e3d6000fd5b505050506040513d601f19601f820116820180604052508101906127989190613479565b9250505060006001826127ab91906134e2565b8451604051635fde7f8d60e11b815260048101919091526001600160781b03919091166024820181905291506000906001600160a01b0385169063bfbcff1a90604401600060405180830381865afa15801561280b573d6000803e3d6000fd5b505050506040513d6000823e601f3d908101601f191682016040526128339190810190613523565b5060035460405163f7434ea960e01b8152919a506001600160a01b0316985063f7434ea9975061286f9650899550600401935061342492505050565b602060405180830381865afa15801561288c573d6000803e3d6000fd5b505050506040513d601f19601f820116820180604052508101906128b09190613437565b979650505050505050565b6000806128c88385613466565b9050838110156128da5760001961135b565b9392505050565b6001600160a01b03163b151590565b6128fa828261173b565b610b095761290781612a0e565b612912836020612a20565b604051602001612923929190613b17565b60408051601f198184030181529082905262461bcd60e51b8252610af691600401613424565b612952816128e1565b6129b45760405162461bcd60e51b815260206004820152602d60248201527f455243313936373a206e657720696d706c656d656e746174696f6e206973206e60448201526c1bdd08184818dbdb9d1c9858dd609a1b6064820152608401610af6565b600080516020613beb83398151915280546001600160a01b0319166001600160a01b0392909216919091179055565b6129ec83612bbb565b6000825111806129f95750805b15610a8557612a088383612bfb565b50505050565b606061089f6001600160a01b03831660145b60606000612a2f836002613b86565b612a3a906002613466565b6001600160401b03811115612a5157612a51612ea4565b6040519080825280601f01601f191660200182016040528015612a7b576020820181803683370190505b509050600360fc1b81600081518110612a9657612a96613b9d565b60200101906001600160f81b031916908160001a905350600f60fb1b81600181518110612ac557612ac5613b9d565b60200101906001600160f81b031916908160001a9053506000612ae9846002613b86565b612af4906001613466565b90505b6001811115612b6c576f181899199a1a9b1b9c1cb0b131b232b360811b85600f1660108110612b2857612b28613b9d565b1a60f81b828281518110612b3e57612b3e613b9d565b60200101906001600160f81b031916908160001a90535060049490941c93612b6581613bb3565b9050612af7565b5083156128da5760405162461bcd60e51b815260206004820181905260248201527f537472696e67733a20686578206c656e67746820696e73756666696369656e746044820152606401610af6565b612bc481612949565b6040516001600160a01b038216907fbc7cd75a20ee27fd9adebab32041f755214dbc6bffa90cc0225b39da2e5c2d3b90600090a250565b60606128da8383604051806060016040528060278152602001613c0b602791396060600080856001600160a01b031685604051612c389190613afb565b600060405180830381855af49150503d8060008114612c73576040519150601f19603f3d011682016040523d82523d6000602084013e612c78565b606091505b50915091506110988683838760608315612cf1578251600003612cea57612c9e856128e1565b612cea5760405162461bcd60e51b815260206004820152601d60248201527f416464726573733a2063616c6c20746f206e6f6e2d636f6e74726163740000006044820152606401610af6565b508161135b565b61135b8383815115612d065781518083602001fd5b8060405162461bcd60e51b8152600401610af69190613424565b600060208284031215612d3257600080fd5b81356001600160e01b0319811681146128da57600080fd5b6001600160a01b0381168114610bd257600080fd5b8035612d6a81612d4a565b919050565b8015158114610bd257600080fd5b60008060408385031215612d9057600080fd5b8235612d9b81612d4a565b91506020830135612dab81612d6f565b809150509250929050565b600060208284031215612dc857600080fd5b5035919050565b60008060408385031215612de257600080fd5b823591506020830135612dab81612d4a565b600060208284031215612e0657600080fd5b81356128da81612d4a565b60008083601f840112612e2357600080fd5b5081356001600160401b03811115612e3a57600080fd5b602083019150836020828501011115612e5257600080fd5b9250929050565b600080600060408486031215612e6e57600080fd5b8335925060208401356001600160401b03811115612e8b57600080fd5b612e9786828701612e11565b9497909650939450505050565b634e487b7160e01b600052604160045260246000fd5b60405161012081016001600160401b0381118282101715612edd57612edd612ea4565b60405290565b604051606081016001600160401b0381118282101715612edd57612edd612ea4565b604051608081016001600160401b0381118282101715612edd57612edd612ea4565b604051601f8201601f191681016001600160401b0381118282101715612f4f57612f4f612ea4565b604052919050565b60006001600160401b03821115612f7057612f70612ea4565b50601f01601f191660200190565b6000612f91612f8c84612f57565b612f27565b9050828152838383011115612fa557600080fd5b828260208301376000602084830101529392505050565b60008060408385031215612fcf57600080fd5b8235612fda81612d4a565b915060208301356001600160401b03811115612ff557600080fd5b8301601f8101851361300657600080fd5b61301585823560208401612f7e565b9150509250929050565b6000806000806060858703121561303557600080fd5b8435935060208501356001600160401b0381111561305257600080fd5b61305e87828801612e11565b909450925050604085013561307281612d4a565b939692955090935050565b600082601f83011261308e57600080fd5b6128da83833560208501612f7e565b6000806000606084860312156130b257600080fd5b83356130bd81612d4a565b925060208401356001600160401b03808211156130d957600080fd5b6130e58783880161307d565b935060408601359150808211156130fb57600080fd5b506131088682870161307d565b9150509250925092565b60008060008060008060c0878903121561312b57600080fd5b863561313681612d4a565b9550602087013561314681612d4a565b9450604087013561315681612d4a565b9350606087013561316681612d4a565b9250608087013561317681612d4a565b915060a087013561318681612d4a565b809150509295509295509295565b60008060008060008060a087890312156131ad57600080fd5b86356131b881612d4a565b9550602087013594506040870135935060608701356001600160401b038111156131e157600080fd5b6131ed89828a01612e11565b909450925050608087013561318681612d4a565b60005b8381101561321c578181015183820152602001613204565b50506000910152565b6000815180845261323d816020860160208601613201565b601f01601f19169290920160200192915050565b634e487b7160e01b600052602160045260246000fd5b6001600160a01b038616815260a06020820181905260009061328b90830187613225565b828103604084015261329d8187613225565b915050600384106132be57634e487b7160e01b600052602160045260246000fd5b83606083015282151560808301529695505050505050565b6000806000606084860312156132eb57600080fd5b835160ff811681146132fc57600080fd5b602085015160409095015190969495509392505050565b6020808252602c908201527f46756e6374696f6e206d7573742062652063616c6c6564207468726f7567682060408201526b19195b1959d85d1958d85b1b60a21b606082015260800190565b6020808252602c908201527f46756e6374696f6e206d7573742062652063616c6c6564207468726f7567682060408201526b6163746976652070726f787960a01b606082015260800190565b600082601f8301126133bc57600080fd5b81516133ca612f8c82612f57565b8181528460208386010111156133df57600080fd5b61135b826020830160208701613201565b60006020828403121561340257600080fd5b81516001600160401b0381111561341857600080fd5b61135b848285016133ab565b6020815260006128da6020830184613225565b60006020828403121561344957600080fd5b5051919050565b634e487b7160e01b600052601160045260246000fd5b8082018082111561089f5761089f613450565b60008060006060848603121561348e57600080fd5b83516004811061349d57600080fd5b60208501519093506001600160801b03811681146134ba57600080fd5b60408501519092506001600160781b03811681146134d757600080fd5b809150509250925092565b6001600160781b0382811682821603908082111561350257613502613450565b5092915050565b805160038110612d6a57600080fd5b8051612d6a81612d4a565b6000806000806000806000806000806101808b8d03121561354357600080fd5b8a5161354e81612d6f565b809a50506020808c0151995060408c0151985060608c015161356f81612d6f565b9750609f8c018d1361358057600080fd5b613588612ee3565b8060e08e018f81111561359a57600080fd5b60808f015b818110156135bf5780516135b281612d4a565b845292840192840161359f565b505190985096506135d69150506101008c01613509565b93506135e56101208c01613518565b92506101408b01516001600160401b0381111561360157600080fd5b61360d8d828e016133ab565b9250506101608b015190509295989b9194979a5092959850565b8181038181111561089f5761089f613450565b600082601f83011261364b57600080fd5b613653612f05565b80608084018581111561366557600080fd5b845b8181101561367f578035845260209384019301613667565b509095945050505050565b600082601f83011261369b57600080fd5b6136a3612ee3565b80606084018581111561366557600080fd5b6000602082840312156136c757600080fd5b81356001600160401b03808211156136de57600080fd5b908301906101c082860312156136f357600080fd5b6136fb612eba565b61370483612d5f565b815261371260208401612d5f565b6020820152604083013560408201526060830135606082015260808301358281111561373d57600080fd5b6137498782860161307d565b60808301525060a08301358281111561376157600080fd5b61376d8782860161307d565b60a08301525060c083013560c082015261378a8660e0850161363a565b60e082015261379d86610160850161368a565b61010082015295945050505050565b600083516137be818460208801613201565b8351908301906137d2818360208801613201565b01949350505050565b8060005b6003811015612a085781518452602093840193909101906001016137df565b6001600160a01b038b811682526101e06020808401829052600092906138268584018f613225565b9250818d1660408601528483036060860152613842838d613225565b92508483036080860152613856838c613225565b9350818a1660a086015260c08501925088915060005b60048110156138895782518452928101929181019160010161386c565b50505050846101408301526138a26101608301856137db565b6001600160a01b0383166101c08301529b9a5050505050505050505050565b6000602082840312156138d357600080fd5b81516128da81612d4a565b6040815260006138f16040830185613225565b82810360208401526116f58185613225565b60006020828403121561391557600080fd5b604051602081016001600160401b03828210818311171561393857613938612ea4565b81604052829350843591508082111561395057600080fd5b5061395d8582860161307d565b8252505092915050565b60006020828403121561397957600080fd5b81356001600160401b0381111561398f57600080fd5b61135b84828501613903565b82815260406020820152600061135b6040830184613225565b600181811c908216806139c857607f821691505b6020821081036139e857634e487b7160e01b600052602260045260246000fd5b50919050565b601f821115610a8557600081815260208120601f850160051c81016020861015613a155750805b601f850160051c820191505b81811015613a3457828155600101613a21565b505050505050565b81516001600160401b03811115613a5557613a55612ea4565b613a6981613a6384546139b4565b846139ee565b602080601f831160018114613a9e5760008415613a865750858301515b600019600386901b1c1916600185901b178555613a34565b600085815260208120601f198616915b82811015613acd57888601518255948401946001909101908401613aae565b5085821015613aeb5787850151600019600388901b60f8161c191681555b5050505050600190811b01905550565b60008251613b0d818460208701613201565b9190910192915050565b76020b1b1b2b9b9a1b7b73a3937b61d1030b1b1b7bab73a1604d1b815260008351613b49816017850160208801613201565b7001034b99036b4b9b9b4b733903937b6329607d1b6017918401918201528351613b7a816028840160208801613201565b01602801949350505050565b808202811582820484141761089f5761089f613450565b634e487b7160e01b600052603260045260246000fd5b600081613bc257613bc2613450565b50600019019056fe189ab7a9244df0848122154315af71fe140f3db0fe014031783b0946b8c9d2e3360894a13ba1a3210667c828492db98dca3e2076cc3735a920a3ca505d382bbc416464726573733a206c6f772d6c6576656c2064656c65676174652063616c6c206661696c6564a2646970667358221220894d64834da332272227e036e31fc643ec0d39ed05d6a873b81b437ece001ca264736f6c63430008110033",
  "linkReferences": {},
  "deployedLinkReferences": {}
}