{
  "_format": "hh-sol-artifact-1",
  "contractName": "KlerosBadgeModelController",
  "sourceName": "src/contracts/badgeModelControllers/KlerosBadgeModelController.sol",
  "abi": [
    {
      "inputs": [],
      "stateMutability": "nonpayable",
      "type": "constructor"
    },
    {
      "inputs": [],
      "name": "KlerosBadgeModelController__badge__klerosBadgeNotFound",
      "type": "error"
    },
    {
      "inputs": [],
      "name": "KlerosBadgeModelController__badge__notInChallengeableStatus",
      "type": "error"
    },
    {
      "inputs": [],
      "name": "KlerosBadgeModelController__claimBadge_insufficientBalance",
      "type": "error"
    },
    {
      "inputs": [],
      "name": "KlerosBadgeModelController__createBadgeModel_TCRListAddressZero",
      "type": "error"
    },
    {
      "inputs": [],
      "name": "KlerosBadgeModelController__createBadgeModel_badgeModelAlreadyCreated",
      "type": "error"
    },
    {
      "inputs": [],
      "name": "KlerosBadgeModelController__mintBadge_alreadyMinted",
      "type": "error"
    },
    {
      "inputs": [],
      "name": "KlerosBadgeModelController__mintBadge_isPaused",
      "type": "error"
    },
    {
      "inputs": [],
      "name": "KlerosBadgeModelController__mintBadge_wrongBadgeModel",
      "type": "error"
    },
    {
      "inputs": [],
      "name": "KlerosBadgeModelController__mintBadge_wrongValue",
      "type": "error"
    },
    {
      "inputs": [],
      "name": "KlerosBadgeModelController__onlyTheBadge_senderNotTheBadge",
      "type": "error"
    },
    {
      "anonymous": false,
      "inputs": [
        {
          "indexed": false,
          "internalType": "address",
          "name": "previousAdmin",
          "type": "address"
        },
        {
          "indexed": false,
          "internalType": "address",
          "name": "newAdmin",
          "type": "address"
        }
      ],
      "name": "AdminChanged",
      "type": "event"
    },
    {
      "anonymous": false,
      "inputs": [
        {
          "indexed": true,
          "internalType": "address",
          "name": "beacon",
          "type": "address"
        }
      ],
      "name": "BeaconUpgraded",
      "type": "event"
    },
    {
      "anonymous": false,
      "inputs": [
        {
          "indexed": true,
          "internalType": "address",
          "name": "recipient",
          "type": "address"
        },
        {
          "indexed": false,
          "internalType": "uint256",
          "name": "amount",
          "type": "uint256"
        },
        {
          "indexed": true,
          "internalType": "uint256",
          "name": "badgeId",
          "type": "uint256"
        }
      ],
      "name": "DepositReturned",
      "type": "event"
    },
    {
      "anonymous": false,
      "inputs": [
        {
          "indexed": false,
          "internalType": "uint8",
          "name": "version",
          "type": "uint8"
        }
      ],
      "name": "Initialized",
      "type": "event"
    },
    {
      "anonymous": false,
      "inputs": [
        {
          "indexed": true,
          "internalType": "uint256",
          "name": "badgeId",
          "type": "uint256"
        },
        {
          "indexed": true,
          "internalType": "address",
          "name": "wallet",
          "type": "address"
        },
        {
          "indexed": false,
          "internalType": "string",
          "name": "evidence",
          "type": "string"
        },
        {
          "indexed": false,
          "internalType": "address",
          "name": "sender",
          "type": "address"
        }
      ],
      "name": "KlerosBadgeChallenged",
      "type": "event"
    },
    {
      "anonymous": false,
      "inputs": [
        {
          "indexed": true,
          "internalType": "uint256",
          "name": "badgeId",
          "type": "uint256"
        },
        {
          "indexed": false,
          "internalType": "string",
          "name": "evidence",
          "type": "string"
        }
      ],
      "name": "MintKlerosBadge",
      "type": "event"
    },
    {
      "anonymous": false,
      "inputs": [
        {
          "indexed": true,
          "internalType": "uint256",
          "name": "badgeModelId",
          "type": "uint256"
        },
        {
          "indexed": true,
          "internalType": "address",
          "name": "tcrAddress",
          "type": "address"
        },
        {
          "indexed": false,
          "internalType": "string",
          "name": "registrationMetaEvidence",
          "type": "string"
        },
        {
          "indexed": false,
          "internalType": "string",
          "name": "clearingMetaEvidence",
          "type": "string"
        }
      ],
      "name": "NewKlerosBadgeModel",
      "type": "event"
    },
    {
      "anonymous": false,
      "inputs": [
        {
          "indexed": true,
          "internalType": "bytes32",
          "name": "role",
          "type": "bytes32"
        },
        {
          "indexed": true,
          "internalType": "bytes32",
          "name": "previousAdminRole",
          "type": "bytes32"
        },
        {
          "indexed": true,
          "internalType": "bytes32",
          "name": "newAdminRole",
          "type": "bytes32"
        }
      ],
      "name": "RoleAdminChanged",
      "type": "event"
    },
    {
      "anonymous": false,
      "inputs": [
        {
          "indexed": true,
          "internalType": "bytes32",
          "name": "role",
          "type": "bytes32"
        },
        {
          "indexed": true,
          "internalType": "address",
          "name": "account",
          "type": "address"
        },
        {
          "indexed": true,
          "internalType": "address",
          "name": "sender",
          "type": "address"
        }
      ],
      "name": "RoleGranted",
      "type": "event"
    },
    {
      "anonymous": false,
      "inputs": [
        {
          "indexed": true,
          "internalType": "bytes32",
          "name": "role",
          "type": "bytes32"
        },
        {
          "indexed": true,
          "internalType": "address",
          "name": "account",
          "type": "address"
        },
        {
          "indexed": true,
          "internalType": "address",
          "name": "sender",
          "type": "address"
        }
      ],
      "name": "RoleRevoked",
      "type": "event"
    },
    {
      "anonymous": false,
      "inputs": [
        {
          "indexed": true,
          "internalType": "address",
          "name": "implementation",
          "type": "address"
        }
      ],
      "name": "Upgraded",
      "type": "event"
    },
    {
      "inputs": [],
      "name": "DEFAULT_ADMIN_ROLE",
      "outputs": [
        {
          "internalType": "bytes32",
          "name": "",
          "type": "bytes32"
        }
      ],
      "stateMutability": "view",
      "type": "function"
    },
    {
      "inputs": [],
      "name": "FEE_COLLECTOR_ROLE",
      "outputs": [
        {
          "internalType": "bytes32",
          "name": "",
          "type": "bytes32"
        }
      ],
      "stateMutability": "view",
      "type": "function"
    },
    {
      "inputs": [],
      "name": "MINTER_ROLE",
      "outputs": [
        {
          "internalType": "bytes32",
          "name": "",
          "type": "bytes32"
        }
      ],
      "stateMutability": "view",
      "type": "function"
    },
    {
      "inputs": [],
      "name": "PAUSER_ROLE",
      "outputs": [
        {
          "internalType": "bytes32",
          "name": "",
          "type": "bytes32"
        }
      ],
      "stateMutability": "view",
      "type": "function"
    },
    {
      "inputs": [],
      "name": "UPGRADER_ROLE",
      "outputs": [
        {
          "internalType": "bytes32",
          "name": "",
          "type": "bytes32"
        }
      ],
      "stateMutability": "view",
      "type": "function"
    },
    {
      "inputs": [],
      "name": "URI_SETTER_ROLE",
      "outputs": [
        {
          "internalType": "bytes32",
          "name": "",
          "type": "bytes32"
        }
      ],
      "stateMutability": "view",
      "type": "function"
    },
    {
      "inputs": [],
      "name": "arbitrator",
      "outputs": [
        {
          "internalType": "contract IArbitrator",
          "name": "",
          "type": "address"
        }
      ],
      "stateMutability": "view",
      "type": "function"
    },
    {
      "inputs": [
        {
          "internalType": "uint256",
          "name": "badgeId",
          "type": "uint256"
        },
        {
          "internalType": "bytes",
          "name": "",
          "type": "bytes"
        }
      ],
      "name": "claim",
      "outputs": [],
      "stateMutability": "nonpayable",
      "type": "function"
    },
    {
      "inputs": [
        {
          "internalType": "uint256",
          "name": "badgeModelId",
          "type": "uint256"
        },
        {
          "internalType": "bytes",
          "name": "data",
          "type": "bytes"
        }
      ],
      "name": "createBadgeModel",
      "outputs": [],
      "stateMutability": "nonpayable",
      "type": "function"
    },
    {
      "inputs": [
        {
          "internalType": "uint256",
          "name": "badgeId",
          "type": "uint256"
        }
      ],
      "name": "getChallengeDepositValue",
      "outputs": [
        {
          "internalType": "uint256",
          "name": "",
          "type": "uint256"
        }
      ],
      "stateMutability": "view",
      "type": "function"
    },
    {
      "inputs": [
        {
          "internalType": "uint256",
          "name": "badgeId",
          "type": "uint256"
        }
      ],
      "name": "getRemovalDepositValue",
      "outputs": [
        {
          "internalType": "uint256",
          "name": "",
          "type": "uint256"
        }
      ],
      "stateMutability": "view",
      "type": "function"
    },
    {
      "inputs": [
        {
          "internalType": "bytes32",
          "name": "role",
          "type": "bytes32"
        }
      ],
      "name": "getRoleAdmin",
      "outputs": [
        {
          "internalType": "bytes32",
          "name": "",
          "type": "bytes32"
        }
      ],
      "stateMutability": "view",
      "type": "function"
    },
    {
      "inputs": [
        {
          "internalType": "bytes32",
          "name": "role",
          "type": "bytes32"
        },
        {
          "internalType": "address",
          "name": "account",
          "type": "address"
        }
      ],
      "name": "grantRole",
      "outputs": [],
      "stateMutability": "nonpayable",
      "type": "function"
    },
    {
      "inputs": [
        {
          "internalType": "bytes32",
          "name": "role",
          "type": "bytes32"
        },
        {
          "internalType": "address",
          "name": "account",
          "type": "address"
        }
      ],
      "name": "hasRole",
      "outputs": [
        {
          "internalType": "bool",
          "name": "",
          "type": "bool"
        }
      ],
      "stateMutability": "view",
      "type": "function"
    },
    {
      "inputs": [
        {
          "internalType": "address",
          "name": "admin",
          "type": "address"
        },
        {
          "internalType": "address",
          "name": "_theBadge",
          "type": "address"
        },
        {
          "internalType": "address",
          "name": "_arbitrator",
          "type": "address"
        },
        {
          "internalType": "address",
          "name": "_tcrFactory",
          "type": "address"
        }
      ],
      "name": "initialize",
      "outputs": [],
      "stateMutability": "nonpayable",
      "type": "function"
    },
    {
      "inputs": [
        {
          "internalType": "uint256",
          "name": "badgeId",
          "type": "uint256"
        }
      ],
      "name": "isAssetActive",
      "outputs": [
        {
          "internalType": "bool",
          "name": "",
          "type": "bool"
        }
      ],
      "stateMutability": "view",
      "type": "function"
    },
    {
      "inputs": [
        {
          "internalType": "uint256",
          "name": "badgeId",
          "type": "uint256"
        }
      ],
      "name": "isClaimable",
      "outputs": [
        {
          "internalType": "bool",
          "name": "",
          "type": "bool"
        }
      ],
      "stateMutability": "view",
      "type": "function"
    },
    {
      "inputs": [
        {
          "internalType": "uint256",
          "name": "",
          "type": "uint256"
        },
        {
          "internalType": "address",
          "name": "",
          "type": "address"
        }
      ],
      "name": "isMintable",
      "outputs": [
        {
          "internalType": "bool",
          "name": "",
          "type": "bool"
        }
      ],
      "stateMutability": "pure",
      "type": "function"
    },
    {
      "inputs": [
        {
          "internalType": "uint256",
          "name": "",
          "type": "uint256"
        }
      ],
      "name": "klerosBadge",
      "outputs": [
        {
          "internalType": "bytes32",
          "name": "itemID",
          "type": "bytes32"
        },
        {
          "internalType": "address",
          "name": "callee",
          "type": "address"
        },
        {
          "internalType": "uint256",
          "name": "deposit",
          "type": "uint256"
        },
        {
          "internalType": "bool",
          "name": "initialized",
          "type": "bool"
        }
      ],
      "stateMutability": "view",
      "type": "function"
    },
    {
      "inputs": [
        {
          "internalType": "uint256",
          "name": "",
          "type": "uint256"
        }
      ],
      "name": "klerosBadgeModel",
      "outputs": [
        {
          "internalType": "address",
          "name": "tcrList",
          "type": "address"
        }
      ],
      "stateMutability": "view",
      "type": "function"
    },
    {
      "inputs": [
        {
          "internalType": "address",
          "name": "callee",
          "type": "address"
        },
        {
          "internalType": "uint256",
          "name": "badgeModelId",
          "type": "uint256"
        },
        {
          "internalType": "uint256",
          "name": "badgeId",
          "type": "uint256"
        },
        {
          "internalType": "bytes",
          "name": "data",
          "type": "bytes"
        }
      ],
      "name": "mint",
      "outputs": [
        {
          "internalType": "uint256",
          "name": "",
          "type": "uint256"
        }
      ],
      "stateMutability": "payable",
      "type": "function"
    },
    {
      "inputs": [
        {
          "internalType": "uint256",
          "name": "badgeModelId",
          "type": "uint256"
        }
      ],
      "name": "mintValue",
      "outputs": [
        {
          "internalType": "uint256",
          "name": "",
          "type": "uint256"
        }
      ],
      "stateMutability": "view",
      "type": "function"
    },
    {
      "inputs": [],
      "name": "proxiableUUID",
      "outputs": [
        {
          "internalType": "bytes32",
          "name": "",
          "type": "bytes32"
        }
      ],
      "stateMutability": "view",
      "type": "function"
    },
    {
      "inputs": [
        {
          "internalType": "bytes32",
          "name": "role",
          "type": "bytes32"
        },
        {
          "internalType": "address",
          "name": "account",
          "type": "address"
        }
      ],
      "name": "renounceRole",
      "outputs": [],
      "stateMutability": "nonpayable",
      "type": "function"
    },
    {
      "inputs": [
        {
          "internalType": "bytes32",
          "name": "role",
          "type": "bytes32"
        },
        {
          "internalType": "address",
          "name": "account",
          "type": "address"
        }
      ],
      "name": "revokeRole",
      "outputs": [],
      "stateMutability": "nonpayable",
      "type": "function"
    },
    {
      "inputs": [
        {
          "internalType": "bytes4",
          "name": "interfaceId",
          "type": "bytes4"
        }
      ],
      "name": "supportsInterface",
      "outputs": [
        {
          "internalType": "bool",
          "name": "",
          "type": "bool"
        }
      ],
      "stateMutability": "view",
      "type": "function"
    },
    {
      "inputs": [],
      "name": "tcrFactory",
      "outputs": [
        {
          "internalType": "address",
          "name": "",
          "type": "address"
        }
      ],
      "stateMutability": "view",
      "type": "function"
    },
    {
      "inputs": [],
      "name": "theBadge",
      "outputs": [
        {
          "internalType": "contract TheBadge",
          "name": "",
          "type": "address"
        }
      ],
      "stateMutability": "view",
      "type": "function"
    },
    {
      "inputs": [
        {
          "internalType": "address",
          "name": "newImplementation",
          "type": "address"
        }
      ],
      "name": "upgradeTo",
      "outputs": [],
      "stateMutability": "nonpayable",
      "type": "function"
    },
    {
      "inputs": [
        {
          "internalType": "address",
          "name": "newImplementation",
          "type": "address"
        },
        {
          "internalType": "bytes",
          "name": "data",
          "type": "bytes"
        }
      ],
      "name": "upgradeToAndCall",
      "outputs": [],
      "stateMutability": "payable",
      "type": "function"
    },
    {
      "stateMutability": "payable",
      "type": "receive"
    }
  ],
  "bytecode": "0x60a0604052306080523480156200001557600080fd5b50600054610100900460ff1615808015620000375750600054600160ff909116105b8062000067575062000054306200014160201b62001a951760201c565b15801562000067575060005460ff166001145b620000cf5760405162461bcd60e51b815260206004820152602e60248201527f496e697469616c697a61626c653a20636f6e747261637420697320616c72656160448201526d191e481a5b9a5d1a585b1a5e995960921b606482015260840160405180910390fd5b6000805460ff191660011790558015620000f3576000805461ff0019166101001790555b80156200013a576000805461ff0019169055604051600181527f7f26b83ff96e1f2b6a682f133852f6798a09c465da95921460cefb38474024989060200160405180910390a15b5062000150565b6001600160a01b03163b151590565b6080516130da62000188600039600081816108420152818161088201528181610b2501528181610b650152610bf401526130da6000f3fe6080604052600436106101d15760003560e01c806377a3989e116100f7578063a217fddf11610095578063d7deba1511610064578063d7deba15146105ee578063e63ab1e91461060e578063f72c0d8b14610642578063f8c8765e1461067657600080fd5b8063a217fddf1461055f578063caa39ec514610574578063d53913931461059a578063d547741f146105ce57600080fd5b80637f345710116100d15780637f345710146104cb57806389610a09146104ff57806391d148541461051f5780639f780b1d1461053f57600080fd5b806377a3989e1461045557806377addc42146104755780637eb7f176146104ab57600080fd5b806337a65d051161016f57806362a2a47c1161013e57806362a2a47c146103b6578063632f7c83146103ea5780636cc6cde11461040a578063731133e91461044257600080fd5b806337a65d05146102f557806338926b6d1461036e5780634f1ef2861461038e57806352d1902d146103a157600080fd5b80632c026696116101ab5780632c026696146102705780632f2ff15d1461029357806336568abe146102b55780633659cfe6146102d557600080fd5b806301ffc9a7146101dd57806322e900c214610212578063248a9ca31461023257600080fd5b366101d857005b600080fd5b3480156101e957600080fd5b506101fd6101f8366004612485565b610696565b60405190151581526020015b60405180910390f35b34801561021e57600080fd5b506101fd61022d3660046124af565b6106cd565b34801561023e57600080fd5b5061026261024d3660046124af565b600090815260cd602052604090206001015490565b604051908152602001610209565b34801561027c57600080fd5b506101fd61028b3660046124ed565b600192915050565b34801561029f57600080fd5b506102b36102ae3660046124ed565b61078b565b005b3480156102c157600080fd5b506102b36102d03660046124ed565b6107b5565b3480156102e157600080fd5b506102b36102f036600461251d565b610838565b34801561030157600080fd5b506103446103103660046124af565b600460205260009081526040902080546001820154600283015460039093015491926001600160a01b039091169160ff1684565b604080519485526001600160a01b0390931660208501529183015215156060820152608001610209565b34801561037a57600080fd5b506102b3610389366004612582565b610917565b6102b361039c3660046126e5565b610b1b565b3480156103ad57600080fd5b50610262610be7565b3480156103c257600080fd5b506102627f2dca0f5ce7e75a4b43fe2b0d6f5d0b7a2bf92ecf89f8f0aa17b8308b6703882181565b3480156103f657600080fd5b506102626104053660046124af565b610c9a565b34801561041657600080fd5b5060015461042a906001600160a01b031681565b6040516001600160a01b039091168152602001610209565b610262610450366004612748565b610e03565b34801561046157600080fd5b506102b3610470366004612582565b61100d565b34801561048157600080fd5b5061042a6104903660046124af565b6003602052600090815260409020546001600160a01b031681565b3480156104b757600080fd5b506102626104c63660046124af565b61131a565b3480156104d757600080fd5b506102627f7804d923f43a17d325d77e781528e0793b2edd9890ab45fc64efd7b4b427744c81565b34801561050b57600080fd5b506101fd61051a3660046124af565b6113ae565b34801561052b57600080fd5b506101fd61053a3660046124ed565b611662565b34801561054b57600080fd5b5060025461042a906001600160a01b031681565b34801561056b57600080fd5b50610262600081565b34801561058057600080fd5b5060005461042a906201000090046001600160a01b031681565b3480156105a657600080fd5b506102627f9f2df0fed2c77648de5860a4cc508cd0818c85b8b8a1ab4ceeef8d981c8956a681565b3480156105da57600080fd5b506102b36105e93660046124ed565b61168d565b3480156105fa57600080fd5b506102626106093660046124af565b6116b2565b34801561061a57600080fd5b506102627f65d7a28e3265b37a6474929f336521b332c1681b933f6cb9f3376673440d862a81565b34801561064e57600080fd5b506102627f189ab7a9244df0848122154315af71fe140f3db0fe014031783b0946b8c9d2e381565b34801561068257600080fd5b506102b36106913660046127b1565b6118d8565b60006001600160e01b03198216637965db0b60e01b14806106c757506301ffc9a760e01b6001600160e01b03198316145b92915050565b6000806106d983611aa4565b600084815260046020819052604080832080549151634aac84e560e01b8152928301919091529293506001600160a01b03841690634aac84e590602401606060405180830381865afa158015610733573d6000803e3d6000fd5b505050506040513d601f19601f82011682018060405250810190610757919061280d565b505090508060ff166001148061077057508060ff166003145b1561078057506001949350505050565b506000949350505050565b600082815260cd60205260409020600101546107a681611ba8565b6107b08383611bb2565b505050565b6001600160a01b038116331461082a5760405162461bcd60e51b815260206004820152602f60248201527f416363657373436f6e74726f6c3a2063616e206f6e6c792072656e6f756e636560448201526e103937b632b9903337b91039b2b63360891b60648201526084015b60405180910390fd5b6108348282611c38565b5050565b6001600160a01b037f00000000000000000000000000000000000000000000000000000000000000001630036108805760405162461bcd60e51b81526004016108219061284a565b7f00000000000000000000000000000000000000000000000000000000000000006001600160a01b03166108c960008051602061305e833981519152546001600160a01b031690565b6001600160a01b0316146108ef5760405162461bcd60e51b815260040161082190612896565b6108f881611c9f565b6040805160008082526020820190925261091491839190611cc9565b50565b6000546201000090046001600160a01b031633146109485760405163942e92c760e01b815260040160405180910390fd5b600061095384611aa4565b6000858152600460208181526040928390208351608081018552815480825260018301546001600160a01b039081169483019490945260028301548287015260039092015460ff161515606082015293516374e120b360e11b815292830152929350909183169063e9c2416690602401600060405180830381600087803b1580156109dd57600080fd5b505af11580156109f1573d6000803e3d6000fd5b505050504781604001511115610a1a576040516398e2a0bb60e01b815260040160405180910390fd5b604081810180516000918290526020840151925190926001600160a01b03169083908381818185875af1925050503d8060008114610a74576040519150601f19603f3d011682016040523d82523d6000602084013e610a79565b606091505b5050905080610aca5760405162461bcd60e51b815260206004820152601c60248201527f4661696c656420746f2072657475726e20746865206465706f736974000000006044820152606401610821565b8683602001516001600160a01b03167f9794db68af033346a63dbc4509364afc3a23201eced8a4f3bc64d029abfacc6584604051610b0a91815260200190565b60405180910390a350505050505050565b6001600160a01b037f0000000000000000000000000000000000000000000000000000000000000000163003610b635760405162461bcd60e51b81526004016108219061284a565b7f00000000000000000000000000000000000000000000000000000000000000006001600160a01b0316610bac60008051602061305e833981519152546001600160a01b031690565b6001600160a01b031614610bd25760405162461bcd60e51b815260040161082190612896565b610bdb82611c9f565b61083482826001611cc9565b6000306001600160a01b037f00000000000000000000000000000000000000000000000000000000000000001614610c875760405162461bcd60e51b815260206004820152603860248201527f555550535570677261646561626c653a206d757374206e6f742062652063616c60448201527f6c6564207468726f7567682064656c656761746563616c6c00000000000000006064820152608401610821565b5060008051602061305e83398151915290565b6000818152600360205260408082208054600154835163063d63db60e11b8152935192936001600160a01b039283169386939092169163f7434ea9918591630c7ac7b69160048082019288929091908290030181865afa158015610d02573d6000803e3d6000fd5b505050506040513d6000823e601f3d908101601f19168201604052610d2a919081019061294b565b6040518263ffffffff1660e01b8152600401610d4691906129ab565b602060405180830381865afa158015610d63573d6000803e3d6000fd5b505050506040513d601f19601f82011682018060405250810190610d8791906129be565b90506000826001600160a01b031663bb0b86ff6040518163ffffffff1660e01b8152600401602060405180830381865afa158015610dc9573d6000803e3d6000fd5b505050506040513d601f19601f82011682018060405250810190610ded91906129be565b9050610df981836129ed565b9695505050505050565b600080546201000090046001600160a01b03163314610e355760405163942e92c760e01b815260040160405180910390fd5b6000610e4086610c9a565b9050803414610e6257604051637bcb3e5760e01b815260040160405180910390fd5b6000868152600360205260408120805490916001600160a01b0390911690610e8c86880188612a20565b80516040516309fa7ca560e21b81529192506001600160a01b038416916327e9f294913491610ebe91906004016129ab565b6000604051808303818588803b158015610ed757600080fd5b505af1158015610eeb573d6000803e3d6000fd5b505050505060008160000151604051602001610f079190612aa2565b60405160208183030381529060405280519060200120905060405180608001604052808281526020018c6001600160a01b0316815260200134815260200160011515815250600460008b81526020019081526020016000206000820151816000015560208201518160010160006101000a8154816001600160a01b0302191690836001600160a01b031602179055506040820151816002015560608201518160030160006101000a81548160ff021916908315150217905550905050887fdd7e1dd9a30843ba8c2619a3c5ce27830ad90612bad48feeb549fc94114d62618360000151604051610ff791906129ab565b60405180910390a29a9950505050505050505050565b6000546201000090046001600160a01b0316331461103e5760405163942e92c760e01b815260040160405180910390fd5b600083815260036020526040902080546001600160a01b03161561107557604051634d1068bd60e11b815260040160405180910390fd5b6002546001600160a01b0316600061108f84860186612b39565b60015460408083015190519293506001600160a01b038086169363d8dcbd2793909116916110c39160200190815260200190565b60408051601f1981840301815282825260608701516020840152910160408051601f19818403018152908290526110fd9291602001612c30565b60408051808303601f1901815290829052608086015160a0870151875160e0808a015160c08b01516101008c015160208d0151938b901b6001600160e01b0319168952611154999860009796959490600401612c82565b600060405180830381600087803b15801561116e57600080fd5b505af1158015611182573d6000803e3d6000fd5b5050505060006001836001600160a01b03166306661abd6040518163ffffffff1660e01b8152600401602060405180830381865afa1580156111c8573d6000803e3d6000fd5b505050506040513d601f19601f820116820180604052508101906111ec91906129be565b6111f69190612d45565b60405163a2f7b3a560e01b8152600481018290529091506000906001600160a01b0385169063a2f7b3a5906024016020604051808303816000875af1158015611243573d6000803e3d6000fd5b505050506040513d601f19601f820116820180604052508101906112679190612d58565b90506001600160a01b03811661129057604051637788791560e11b815260040160405180910390fd5b60408051602080820183526001600160a01b0384811680845260008d8152600390935291849020925183546001600160a01b031916911617909155608085015160a0860151925191928b927f1e83a75c2089c1100e6d9a024ea6fdf619ec5a922a17230682fbf1217d2a7ec192611308929091612d75565b60405180910390a35050505050505050565b60008061132683611aa4565b9050600061133384611e34565b90506000826001600160a01b031663c2f2beea6040518163ffffffff1660e01b8152600401602060405180830381865afa158015611375573d6000803e3d6000fd5b505050506040513d601f19601f8201168201806040525081019061139991906129be565b90506113a5828261201f565b95945050505050565b6000806113ba83611aa4565b600084815260046020526040812060038101549293509160ff16151590036113f557604051630c11d07360e01b815260040160405180910390fd5b805460000361141757604051630c11d07360e01b815260040160405180910390fd5b80546040516348f343f360e01b81526000916001600160a01b038516916348f343f39161144a9160040190815260200190565b606060405180830381865afa158015611467573d6000803e3d6000fd5b505050506040513d601f19601f8201168201806040525081019061148b9190612d9a565b8454604051634aac84e560e01b81526004810191909152909350600092506001600160a01b0386169150634aac84e590602401606060405180830381865afa1580156114db573d6000803e3d6000fd5b505050506040513d601f19601f820116820180604052508101906114ff919061280d565b5050905060006001836115129190612e0c565b8454604051635fde7f8d60e11b815260048101919091526001600160781b03919091166024820181905291506000906001600160a01b0387169063bfbcff1a90604401600060405180830381865afa158015611572573d6000803e3d6000fd5b505050506040513d6000823e601f3d908101601f1916820160405261159a9190810190612e5d565b50505050505050925050506000866001600160a01b03166282a36d6040518163ffffffff1660e01b8152600401602060405180830381865afa1580156115e4573d6000803e3d6000fd5b505050506040513d601f19601f8201168201806040525081019061160891906129be565b90506000816116178442612d45565b11611623576000611626565b60015b90508460ff16600214801561163d57506001811515145b15611652575060019998505050505050505050565b5060009998505050505050505050565b600091825260cd602090815260408084206001600160a01b0393909316845291905290205460ff1690565b600082815260cd60205260409020600101546116a881611ba8565b6107b08383611c38565b6000818152600460205260408120600381015460ff16151582036116e957604051630c11d07360e01b815260040160405180910390fd5b805460000361170b57604051630c11d07360e01b815260040160405180910390fd5b600061171684611aa4565b8254604051634aac84e560e01b815260048101919091529091506000906001600160a01b03831690634aac84e590602401606060405180830381865afa158015611764573d6000803e3d6000fd5b505050506040513d601f19601f82011682018060405250810190611788919061280d565b50509050600061179786611e34565b90508160ff1660010361181057610df9836001600160a01b031663a37b6ad46040518163ffffffff1660e01b8152600401602060405180830381865afa1580156117e5573d6000803e3d6000fd5b505050506040513d601f19601f8201168201806040525081019061180991906129be565b829061201f565b8160ff1660020361185c57610df9836001600160a01b031663c2f2beea6040518163ffffffff1660e01b8152600401602060405180830381865afa1580156117e5573d6000803e3d6000fd5b8160ff166003036118735750600095945050505050565b8160ff166004036118bf57610df9836001600160a01b031663787471a96040518163ffffffff1660e01b8152600401602060405180830381865afa1580156117e5573d6000803e3d6000fd5b6040516305e5cf6360e41b815260040160405180910390fd5b600054610100900460ff16158080156118f85750600054600160ff909116105b806119125750303b158015611912575060005460ff166001145b6119755760405162461bcd60e51b815260206004820152602e60248201527f496e697469616c697a61626c653a20636f6e747261637420697320616c72656160448201526d191e481a5b9a5d1a585b1a5e995960921b6064820152608401610821565b6000805460ff191660011790558015611998576000805461ff0019166101001790555b6119a3600086611bb2565b6119cd7f65d7a28e3265b37a6474929f336521b332c1681b933f6cb9f3376673440d862a33611bb2565b6119f77f189ab7a9244df0848122154315af71fe140f3db0fe014031783b0946b8c9d2e333611bb2565b600080546001600160a01b03808716620100000262010000600160b01b031990921691909117909155600180548583166001600160a01b03199182161790915560028054928516929091169190911790558015611a8e576000805461ff0019169055604051600181527f7f26b83ff96e1f2b6a682f133852f6798a09c465da95921460cefb38474024989060200160405180910390a15b5050505050565b6001600160a01b03163b151590565b600080546040516398e36d8b60e01b81526004810184905282916201000090046001600160a01b0316906398e36d8b90602401608060405180830381865afa158015611af4573d6000803e3d6000fd5b505050506040513d601f19601f82011682018060405250810190611b189190612f5b565b50505060008181526003602052604090208054919250906001600160a01b0316611b975760405162461bcd60e51b815260206004820152602a60248201527f56616c6964206b6c65726f7342616467654d6f64656c496420726571756972656044820152696420666f72205443522160b01b6064820152608401610821565b546001600160a01b03169392505050565b6109148133612048565b611bbc8282611662565b61083457600082815260cd602090815260408083206001600160a01b03851684529091529020805460ff19166001179055611bf43390565b6001600160a01b0316816001600160a01b0316837f2f8788117e7eff1d82e926ec794901d17c78024a50270940304540a733656f0d60405160405180910390a45050565b611c428282611662565b1561083457600082815260cd602090815260408083206001600160a01b0385168085529252808320805460ff1916905551339285917ff6391f5c32d9c69d2a47ea670b442974b53935d1edc7fd64eb21e047a839171b9190a45050565b7f189ab7a9244df0848122154315af71fe140f3db0fe014031783b0946b8c9d2e361083481611ba8565b7f4910fdfa16fed3260ed0e7147f7cc6da11a60208b5b9406d12a635614ffd91435460ff1615611cfc576107b0836120a1565b826001600160a01b03166352d1902d6040518163ffffffff1660e01b8152600401602060405180830381865afa925050508015611d56575060408051601f3d908101601f19168201909252611d53918101906129be565b60015b611db95760405162461bcd60e51b815260206004820152602e60248201527f45524331393637557067726164653a206e657720696d706c656d656e7461746960448201526d6f6e206973206e6f74205555505360901b6064820152608401610821565b60008051602061305e8339815191528114611e285760405162461bcd60e51b815260206004820152602960248201527f45524331393637557067726164653a20756e737570706f727465642070726f786044820152681a58589b195555525160ba1b6064820152608401610821565b506107b083838361213d565b600081815260046020908152604080832081516080810183528154815260018201546001600160a01b0316938101939093526002810154918301919091526003015460ff161515606082015281611e8a84611aa4565b82516040516348f343f360e01b815260048101919091529091506000906001600160a01b038316906348f343f390602401606060405180830381865afa158015611ed8573d6000803e3d6000fd5b505050506040513d601f19601f82011682018060405250810190611efc9190612d9a565b925050506000600182611f0f9190612e0c565b8451604051635fde7f8d60e11b815260048101919091526001600160781b03919091166024820181905291506000906001600160a01b0385169063bfbcff1a90604401600060405180830381865afa158015611f6f573d6000803e3d6000fd5b505050506040513d6000823e601f3d908101601f19168201604052611f979190810190612e5d565b5060015460405163f7434ea960e01b8152919a506001600160a01b0316985063f7434ea99750611fd3965089955060040193506129ab92505050565b602060405180830381865afa158015611ff0573d6000803e3d6000fd5b505050506040513d601f19601f8201168201806040525081019061201491906129be565b979650505050505050565b60008061202c83856129ed565b90508381101561203e57600019612040565b805b949350505050565b6120528282611662565b6108345761205f81612168565b61206a83602061217a565b60405160200161207b929190612fa4565b60408051601f198184030181529082905262461bcd60e51b8252610821916004016129ab565b6001600160a01b0381163b61210e5760405162461bcd60e51b815260206004820152602d60248201527f455243313936373a206e657720696d706c656d656e746174696f6e206973206e60448201526c1bdd08184818dbdb9d1c9858dd609a1b6064820152608401610821565b60008051602061305e83398151915280546001600160a01b0319166001600160a01b0392909216919091179055565b61214683612315565b6000825111806121535750805b156107b0576121628383612355565b50505050565b60606106c76001600160a01b03831660145b60606000612189836002613019565b6121949060026129ed565b6001600160401b038111156121ab576121ab6125cd565b6040519080825280601f01601f1916602001820160405280156121d5576020820181803683370190505b509050600360fc1b816000815181106121f0576121f0613030565b60200101906001600160f81b031916908160001a905350600f60fb1b8160018151811061221f5761221f613030565b60200101906001600160f81b031916908160001a9053506000612243846002613019565b61224e9060016129ed565b90505b60018111156122c6576f181899199a1a9b1b9c1cb0b131b232b360811b85600f166010811061228257612282613030565b1a60f81b82828151811061229857612298613030565b60200101906001600160f81b031916908160001a90535060049490941c936122bf81613046565b9050612251565b50831561203e5760405162461bcd60e51b815260206004820181905260248201527f537472696e67733a20686578206c656e67746820696e73756666696369656e746044820152606401610821565b61231e816120a1565b6040516001600160a01b038216907fbc7cd75a20ee27fd9adebab32041f755214dbc6bffa90cc0225b39da2e5c2d3b90600090a250565b60606001600160a01b0383163b6123bd5760405162461bcd60e51b815260206004820152602660248201527f416464726573733a2064656c65676174652063616c6c20746f206e6f6e2d636f6044820152651b9d1c9858dd60d21b6064820152608401610821565b600080846001600160a01b0316846040516123d89190612aa2565b600060405180830381855af49150503d8060008114612413576040519150601f19603f3d011682016040523d82523d6000602084013e612418565b606091505b50915091506113a5828260405180606001604052806027815260200161307e602791396060831561244a575081612454565b612454838361245b565b9392505050565b81511561246b5781518083602001fd5b8060405162461bcd60e51b815260040161082191906129ab565b60006020828403121561249757600080fd5b81356001600160e01b03198116811461203e57600080fd5b6000602082840312156124c157600080fd5b5035919050565b6001600160a01b038116811461091457600080fd5b80356124e8816124c8565b919050565b6000806040838503121561250057600080fd5b823591506020830135612512816124c8565b809150509250929050565b60006020828403121561252f57600080fd5b813561203e816124c8565b60008083601f84011261254c57600080fd5b5081356001600160401b0381111561256357600080fd5b60208301915083602082850101111561257b57600080fd5b9250929050565b60008060006040848603121561259757600080fd5b8335925060208401356001600160401b038111156125b457600080fd5b6125c08682870161253a565b9497909650939450505050565b634e487b7160e01b600052604160045260246000fd5b60405161012081016001600160401b0381118282101715612606576126066125cd565b60405290565b604051608081016001600160401b0381118282101715612606576126066125cd565b604051606081016001600160401b0381118282101715612606576126066125cd565b604051601f8201601f191681016001600160401b0381118282101715612678576126786125cd565b604052919050565b60006001600160401b03821115612699576126996125cd565b50601f01601f191660200190565b60006126ba6126b584612680565b612650565b90508281528383830111156126ce57600080fd5b828260208301376000602084830101529392505050565b600080604083850312156126f857600080fd5b8235612703816124c8565b915060208301356001600160401b0381111561271e57600080fd5b8301601f8101851361272f57600080fd5b61273e858235602084016126a7565b9150509250929050565b60008060008060006080868803121561276057600080fd5b853561276b816124c8565b9450602086013593506040860135925060608601356001600160401b0381111561279457600080fd5b6127a08882890161253a565b969995985093965092949392505050565b600080600080608085870312156127c757600080fd5b84356127d2816124c8565b935060208501356127e2816124c8565b925060408501356127f2816124c8565b91506060850135612802816124c8565b939692955090935050565b60008060006060848603121561282257600080fd5b835160ff8116811461283357600080fd5b602085015160409095015190969495509392505050565b6020808252602c908201527f46756e6374696f6e206d7573742062652063616c6c6564207468726f7567682060408201526b19195b1959d85d1958d85b1b60a21b606082015260800190565b6020808252602c908201527f46756e6374696f6e206d7573742062652063616c6c6564207468726f7567682060408201526b6163746976652070726f787960a01b606082015260800190565b60005b838110156128fd5781810151838201526020016128e5565b50506000910152565b600082601f83011261291757600080fd5b81516129256126b582612680565b81815284602083860101111561293a57600080fd5b6120408260208301602087016128e2565b60006020828403121561295d57600080fd5b81516001600160401b0381111561297357600080fd5b61204084828501612906565b600081518084526129978160208601602086016128e2565b601f01601f19169290920160200192915050565b602081526000612454602083018461297f565b6000602082840312156129d057600080fd5b5051919050565b634e487b7160e01b600052601160045260246000fd5b808201808211156106c7576106c76129d7565b600082601f830112612a1157600080fd5b612454838335602085016126a7565b600060208284031215612a3257600080fd5b81356001600160401b0380821115612a4957600080fd5b9083019060208286031215612a5d57600080fd5b604051602081018181108382111715612a7857612a786125cd565b604052823582811115612a8a57600080fd5b612a9687828601612a00565b82525095945050505050565b60008251612ab48184602087016128e2565b9190910192915050565b600082601f830112612acf57600080fd5b612ad761260c565b806080840185811115612ae957600080fd5b845b81811015612b03578035845260209384019301612aeb565b509095945050505050565b600082601f830112612b1f57600080fd5b612b2761262e565b806060840185811115612ae957600080fd5b600060208284031215612b4b57600080fd5b81356001600160401b0380821115612b6257600080fd5b908301906101c08286031215612b7757600080fd5b612b7f6125e3565b612b88836124dd565b8152612b96602084016124dd565b60208201526040830135604082015260608301356060820152608083013582811115612bc157600080fd5b612bcd87828601612a00565b60808301525060a083013582811115612be557600080fd5b612bf187828601612a00565b60a08301525060c083013560c0820152612c0e8660e08501612abe565b60e0820152612c21866101608501612b0e565b61010082015295945050505050565b60008351612c428184602088016128e2565b835190830190612c568183602088016128e2565b01949350505050565b8060005b6003811015612162578151845260209384019390910190600101612c63565b6001600160a01b038b811682526101e0602080840182905260009290612caa8584018f61297f565b9250818d1660408601528483036060860152612cc6838d61297f565b92508483036080860152612cda838c61297f565b9350818a1660a086015260c08501925088915060005b6004811015612d0d57825184529281019291810191600101612cf0565b5050505084610140830152612d26610160830185612c5f565b6001600160a01b0383166101c08301529b9a5050505050505050505050565b818103818111156106c7576106c76129d7565b600060208284031215612d6a57600080fd5b815161203e816124c8565b604081526000612d88604083018561297f565b82810360208401526113a5818561297f565b600080600060608486031215612daf57600080fd5b835160048110612dbe57600080fd5b60208501519093506fffffffffffffffffffffffffffffffff81168114612de457600080fd5b60408501519092506001600160781b0381168114612e0157600080fd5b809150509250925092565b6001600160781b03828116828216039080821115612e2c57612e2c6129d7565b5092915050565b805180151581146124e857600080fd5b8051600381106124e857600080fd5b80516124e8816124c8565b6000806000806000806000806000806101808b8d031215612e7d57600080fd5b612e868b612e33565b99506020808c0151995060408c01519850612ea360608d01612e33565b97508c609f8d0112612eb457600080fd5b612ebc61262e565b8060e08e018f811115612ece57600080fd5b60808f015b81811015612ef3578051612ee6816124c8565b8452928401928401612ed3565b50519098509650612f0a9150506101008c01612e43565b9350612f196101208c01612e52565b92506101408b01516001600160401b03811115612f3557600080fd5b612f418d828e01612906565b9250506101608b015190509295989b9194979a5092959850565b60008060008060808587031215612f7157600080fd5b845193506020850151612f83816124c8565b60408601519093509150612f9960608601612e33565b905092959194509250565b7f416363657373436f6e74726f6c3a206163636f756e7420000000000000000000815260008351612fdc8160178501602088016128e2565b7001034b99036b4b9b9b4b733903937b6329607d1b601791840191820152835161300d8160288401602088016128e2565b01602801949350505050565b80820281158282048414176106c7576106c76129d7565b634e487b7160e01b600052603260045260246000fd5b600081613055576130556129d7565b50600019019056fe360894a13ba1a3210667c828492db98dca3e2076cc3735a920a3ca505d382bbc416464726573733a206c6f772d6c6576656c2064656c65676174652063616c6c206661696c6564a2646970667358221220ba5d0f231a709e074c9a00d800f55d64a5428227733c7fee5de23d48af875dad64736f6c63430008110033",
  "linkReferences": {},
  "deployedLinkReferences": {}
}