{
  "_format": "hh-sol-artifact-1",
  "contractName": "KlerosBadgeModelController",
  "sourceName": "src/contracts/badgeModelControllers/KlerosBadgeModelController.sol",
  "abi": [
    {
      "inputs": [],
      "stateMutability": "nonpayable",
      "type": "constructor"
    },
    {
      "inputs": [],
      "name": "KlerosBadgeModelController__badge__depositReturnFailed",
      "type": "error"
    },
    {
      "inputs": [],
      "name": "KlerosBadgeModelController__badge__klerosBadgeNotFound",
      "type": "error"
    },
    {
      "inputs": [],
      "name": "KlerosBadgeModelController__badge__notInChallengeableStatus",
      "type": "error"
    },
    {
      "inputs": [],
      "name": "KlerosBadgeModelController__badge__tcrKlerosBadgeNotFound",
      "type": "error"
    },
    {
      "inputs": [],
      "name": "KlerosBadgeModelController__claimBadge_insufficientBalance",
      "type": "error"
    },
    {
      "inputs": [],
      "name": "KlerosBadgeModelController__createBadgeModel_TCRListAddressZero",
      "type": "error"
    },
    {
      "inputs": [],
      "name": "KlerosBadgeModelController__createBadgeModel_badgeModelAlreadyCreated",
      "type": "error"
    },
    {
      "inputs": [],
      "name": "KlerosBadgeModelController__mintBadge_alreadyMinted",
      "type": "error"
    },
    {
      "inputs": [],
      "name": "KlerosBadgeModelController__mintBadge_isPaused",
      "type": "error"
    },
    {
      "inputs": [],
      "name": "KlerosBadgeModelController__mintBadge_wrongBadgeModel",
      "type": "error"
    },
    {
      "inputs": [],
      "name": "KlerosBadgeModelController__mintBadge_wrongValue",
      "type": "error"
    },
    {
      "inputs": [],
      "name": "KlerosBadgeModelController__onlyTheBadge_senderNotTheBadge",
      "type": "error"
    },
    {
      "inputs": [],
      "name": "KlerosBadgeModelController__onlyTheBadge_senderNotTheBadgeModels",
      "type": "error"
    },
    {
      "inputs": [],
      "name": "KlerosBadgeModelController__onlyTheBadge_senderNotTheBadgeUsers",
      "type": "error"
    },
    {
      "inputs": [],
      "name": "KlerosBadgeModelController__user__userNotFound",
      "type": "error"
    },
    {
      "inputs": [],
      "name": "KlerosBadgeModelController__user__userVerificationAlreadyStarted",
      "type": "error"
    },
    {
      "inputs": [],
      "name": "KlerosBadgeModelController__user__userVerificationNotStarted",
      "type": "error"
    },
    {
      "inputs": [],
      "name": "TheBadge__method_not_supported",
      "type": "error"
    },
    {
      "anonymous": false,
      "inputs": [
        {
          "indexed": false,
          "internalType": "address",
          "name": "previousAdmin",
          "type": "address"
        },
        {
          "indexed": false,
          "internalType": "address",
          "name": "newAdmin",
          "type": "address"
        }
      ],
      "name": "AdminChanged",
      "type": "event"
    },
    {
      "anonymous": false,
      "inputs": [
        {
          "indexed": true,
          "internalType": "address",
          "name": "beacon",
          "type": "address"
        }
      ],
      "name": "BeaconUpgraded",
      "type": "event"
    },
    {
      "anonymous": false,
      "inputs": [
        {
          "indexed": true,
          "internalType": "address",
          "name": "recipient",
          "type": "address"
        },
        {
          "indexed": false,
          "internalType": "uint256",
          "name": "amount",
          "type": "uint256"
        },
        {
          "indexed": true,
          "internalType": "uint256",
          "name": "badgeId",
          "type": "uint256"
        }
      ],
      "name": "DepositReturned",
      "type": "event"
    },
    {
      "anonymous": false,
      "inputs": [
        {
          "indexed": true,
          "internalType": "address",
          "name": "admin",
          "type": "address"
        },
        {
          "indexed": true,
          "internalType": "address",
          "name": "tcrFactory",
          "type": "address"
        }
      ],
      "name": "Initialize",
      "type": "event"
    },
    {
      "anonymous": false,
      "inputs": [
        {
          "indexed": false,
          "internalType": "uint8",
          "name": "version",
          "type": "uint8"
        }
      ],
      "name": "Initialized",
      "type": "event"
    },
    {
      "anonymous": false,
      "inputs": [
        {
          "indexed": true,
          "internalType": "uint256",
          "name": "badgeId",
          "type": "uint256"
        },
        {
          "indexed": true,
          "internalType": "address",
          "name": "wallet",
          "type": "address"
        },
        {
          "indexed": false,
          "internalType": "string",
          "name": "evidence",
          "type": "string"
        },
        {
          "indexed": false,
          "internalType": "address",
          "name": "sender",
          "type": "address"
        }
      ],
      "name": "KlerosBadgeChallenged",
      "type": "event"
    },
    {
      "anonymous": false,
      "inputs": [
        {
          "indexed": true,
          "internalType": "uint256",
          "name": "badgeId",
          "type": "uint256"
        },
        {
          "indexed": false,
          "internalType": "string",
          "name": "evidence",
          "type": "string"
        }
      ],
      "name": "MintKlerosBadge",
      "type": "event"
    },
    {
      "anonymous": false,
      "inputs": [
        {
          "indexed": true,
          "internalType": "uint256",
          "name": "badgeModelId",
          "type": "uint256"
        },
        {
          "indexed": true,
          "internalType": "address",
          "name": "tcrAddress",
          "type": "address"
        },
        {
          "indexed": false,
          "internalType": "string",
          "name": "registrationMetaEvidence",
          "type": "string"
        },
        {
          "indexed": false,
          "internalType": "string",
          "name": "clearingMetaEvidence",
          "type": "string"
        }
      ],
      "name": "NewKlerosBadgeModel",
      "type": "event"
    },
    {
      "anonymous": false,
      "inputs": [],
      "name": "ProtocolSettingsUpdated",
      "type": "event"
    },
    {
      "anonymous": false,
      "inputs": [
        {
          "indexed": true,
          "internalType": "bytes32",
          "name": "role",
          "type": "bytes32"
        },
        {
          "indexed": true,
          "internalType": "bytes32",
          "name": "previousAdminRole",
          "type": "bytes32"
        },
        {
          "indexed": true,
          "internalType": "bytes32",
          "name": "newAdminRole",
          "type": "bytes32"
        }
      ],
      "name": "RoleAdminChanged",
      "type": "event"
    },
    {
      "anonymous": false,
      "inputs": [
        {
          "indexed": true,
          "internalType": "bytes32",
          "name": "role",
          "type": "bytes32"
        },
        {
          "indexed": true,
          "internalType": "address",
          "name": "account",
          "type": "address"
        },
        {
          "indexed": true,
          "internalType": "address",
          "name": "sender",
          "type": "address"
        }
      ],
      "name": "RoleGranted",
      "type": "event"
    },
    {
      "anonymous": false,
      "inputs": [
        {
          "indexed": true,
          "internalType": "bytes32",
          "name": "role",
          "type": "bytes32"
        },
        {
          "indexed": true,
          "internalType": "address",
          "name": "account",
          "type": "address"
        },
        {
          "indexed": true,
          "internalType": "address",
          "name": "sender",
          "type": "address"
        }
      ],
      "name": "RoleRevoked",
      "type": "event"
    },
    {
      "anonymous": false,
      "inputs": [
        {
          "indexed": true,
          "internalType": "address",
          "name": "implementation",
          "type": "address"
        }
      ],
      "name": "Upgraded",
      "type": "event"
    },
    {
      "inputs": [],
      "name": "DEFAULT_ADMIN_ROLE",
      "outputs": [
        {
          "internalType": "bytes32",
          "name": "",
          "type": "bytes32"
        }
      ],
      "stateMutability": "view",
      "type": "function"
    },
    {
      "inputs": [],
      "name": "PAUSER_ROLE",
      "outputs": [
        {
          "internalType": "bytes32",
          "name": "",
          "type": "bytes32"
        }
      ],
      "stateMutability": "view",
      "type": "function"
    },
    {
      "inputs": [],
      "name": "UPGRADER_ROLE",
      "outputs": [
        {
          "internalType": "bytes32",
          "name": "",
          "type": "bytes32"
        }
      ],
      "stateMutability": "view",
      "type": "function"
    },
    {
      "inputs": [],
      "name": "URI_SETTER_ROLE",
      "outputs": [
        {
          "internalType": "bytes32",
          "name": "",
          "type": "bytes32"
        }
      ],
      "stateMutability": "view",
      "type": "function"
    },
    {
      "inputs": [],
      "name": "USER_MANAGER_ROLE",
      "outputs": [
        {
          "internalType": "bytes32",
          "name": "",
          "type": "bytes32"
        }
      ],
      "stateMutability": "view",
      "type": "function"
    },
    {
      "inputs": [],
      "name": "VERIFIER_ROLE",
      "outputs": [
        {
          "internalType": "bytes32",
          "name": "",
          "type": "bytes32"
        }
      ],
      "stateMutability": "view",
      "type": "function"
    },
    {
      "inputs": [],
      "name": "arbitrator",
      "outputs": [
        {
          "internalType": "contract IArbitrator",
          "name": "",
          "type": "address"
        }
      ],
      "stateMutability": "view",
      "type": "function"
    },
    {
      "inputs": [
        {
          "internalType": "uint256",
          "name": "badgeId",
          "type": "uint256"
        },
        {
          "internalType": "bytes",
          "name": "data",
          "type": "bytes"
        }
      ],
      "name": "challenge",
      "outputs": [],
      "stateMutability": "payable",
      "type": "function"
    },
    {
      "inputs": [
        {
          "internalType": "uint256",
          "name": "badgeId",
          "type": "uint256"
        },
        {
          "internalType": "bytes",
          "name": "",
          "type": "bytes"
        }
      ],
      "name": "claim",
      "outputs": [],
      "stateMutability": "nonpayable",
      "type": "function"
    },
    {
      "inputs": [
        {
          "internalType": "uint256",
          "name": "badgeModelId",
          "type": "uint256"
        },
        {
          "internalType": "bytes",
          "name": "data",
          "type": "bytes"
        }
      ],
      "name": "createBadgeModel",
      "outputs": [],
      "stateMutability": "nonpayable",
      "type": "function"
    },
    {
      "inputs": [
        {
          "internalType": "address",
          "name": "_user",
          "type": "address"
        },
        {
          "internalType": "bool",
          "name": "verify",
          "type": "bool"
        }
      ],
      "name": "executeUserVerification",
      "outputs": [],
      "stateMutability": "nonpayable",
      "type": "function"
    },
    {
      "inputs": [
        {
          "internalType": "uint256",
          "name": "badgeId",
          "type": "uint256"
        }
      ],
      "name": "getChallengeDepositValue",
      "outputs": [
        {
          "internalType": "uint256",
          "name": "",
          "type": "uint256"
        }
      ],
      "stateMutability": "view",
      "type": "function"
    },
    {
      "inputs": [
        {
          "internalType": "uint256",
          "name": "badgeId",
          "type": "uint256"
        }
      ],
      "name": "getRemovalDepositValue",
      "outputs": [
        {
          "internalType": "uint256",
          "name": "",
          "type": "uint256"
        }
      ],
      "stateMutability": "view",
      "type": "function"
    },
    {
      "inputs": [
        {
          "internalType": "bytes32",
          "name": "role",
          "type": "bytes32"
        }
      ],
      "name": "getRoleAdmin",
      "outputs": [
        {
          "internalType": "bytes32",
          "name": "",
          "type": "bytes32"
        }
      ],
      "stateMutability": "view",
      "type": "function"
    },
    {
      "inputs": [],
      "name": "getVerifyUserProtocolFee",
      "outputs": [
        {
          "internalType": "uint256",
          "name": "",
          "type": "uint256"
        }
      ],
      "stateMutability": "view",
      "type": "function"
    },
    {
      "inputs": [
        {
          "internalType": "bytes32",
          "name": "role",
          "type": "bytes32"
        },
        {
          "internalType": "address",
          "name": "account",
          "type": "address"
        }
      ],
      "name": "grantRole",
      "outputs": [],
      "stateMutability": "nonpayable",
      "type": "function"
    },
    {
      "inputs": [
        {
          "internalType": "bytes32",
          "name": "role",
          "type": "bytes32"
        },
        {
          "internalType": "address",
          "name": "account",
          "type": "address"
        }
      ],
      "name": "hasRole",
      "outputs": [
        {
          "internalType": "bool",
          "name": "",
          "type": "bool"
        }
      ],
      "stateMutability": "view",
      "type": "function"
    },
    {
      "inputs": [
        {
          "internalType": "address",
          "name": "admin",
          "type": "address"
        },
        {
          "internalType": "address",
          "name": "_theBadge",
          "type": "address"
        },
        {
          "internalType": "address",
          "name": "_theBadgeModels",
          "type": "address"
        },
        {
          "internalType": "address",
          "name": "_theBadgeUsers",
          "type": "address"
        },
        {
          "internalType": "address",
          "name": "_arbitrator",
          "type": "address"
        },
        {
          "internalType": "address",
          "name": "_tcrFactory",
          "type": "address"
        },
        {
          "internalType": "address",
          "name": "badgeStore",
          "type": "address"
        }
      ],
      "name": "initialize",
      "outputs": [],
      "stateMutability": "nonpayable",
      "type": "function"
    },
    {
      "inputs": [
        {
          "internalType": "uint256",
          "name": "badgeId",
          "type": "uint256"
        }
      ],
      "name": "isAssetActive",
      "outputs": [
        {
          "internalType": "bool",
          "name": "",
          "type": "bool"
        }
      ],
      "stateMutability": "view",
      "type": "function"
    },
    {
      "inputs": [
        {
          "internalType": "uint256",
          "name": "badgeId",
          "type": "uint256"
        }
      ],
      "name": "isClaimable",
      "outputs": [
        {
          "internalType": "bool",
          "name": "",
          "type": "bool"
        }
      ],
      "stateMutability": "view",
      "type": "function"
    },
    {
      "inputs": [
        {
          "internalType": "uint256",
          "name": "",
          "type": "uint256"
        },
        {
          "internalType": "address",
          "name": "",
          "type": "address"
        }
      ],
      "name": "isMintable",
      "outputs": [
        {
          "internalType": "bool",
          "name": "",
          "type": "bool"
        }
      ],
      "stateMutability": "pure",
      "type": "function"
    },
    {
      "inputs": [
        {
          "internalType": "address",
          "name": "_user",
          "type": "address"
        }
      ],
      "name": "isUserVerified",
      "outputs": [
        {
          "internalType": "bool",
          "name": "",
          "type": "bool"
        }
      ],
      "stateMutability": "view",
      "type": "function"
    },
    {
      "inputs": [
        {
          "internalType": "uint256",
          "name": "",
          "type": "uint256"
        }
      ],
      "name": "klerosBadgeModels",
      "outputs": [
        {
          "internalType": "address",
          "name": "tcrList",
          "type": "address"
        }
      ],
      "stateMutability": "view",
      "type": "function"
    },
    {
      "inputs": [
        {
          "internalType": "uint256",
          "name": "",
          "type": "uint256"
        }
      ],
      "name": "klerosBadges",
      "outputs": [
        {
          "internalType": "bytes32",
          "name": "itemID",
          "type": "bytes32"
        },
        {
          "internalType": "address",
          "name": "callee",
          "type": "address"
        },
        {
          "internalType": "uint256",
          "name": "deposit",
          "type": "uint256"
        },
        {
          "internalType": "bool",
          "name": "initialized",
          "type": "bool"
        }
      ],
      "stateMutability": "view",
      "type": "function"
    },
    {
      "inputs": [
        {
          "internalType": "address",
          "name": "",
          "type": "address"
        }
      ],
      "name": "klerosUsers",
      "outputs": [
        {
          "internalType": "address",
          "name": "user",
          "type": "address"
        },
        {
          "internalType": "string",
          "name": "userMetadata",
          "type": "string"
        },
        {
          "internalType": "string",
          "name": "verificationEvidence",
          "type": "string"
        },
        {
          "internalType": "enum KlerosBadgeModelControllerStore.VerificationStatus",
          "name": "verificationStatus",
          "type": "uint8"
        },
        {
          "internalType": "bool",
          "name": "initialized",
          "type": "bool"
        }
      ],
      "stateMutability": "view",
      "type": "function"
    },
    {
      "inputs": [
        {
          "internalType": "address",
          "name": "callee",
          "type": "address"
        },
        {
          "internalType": "uint256",
          "name": "badgeModelId",
          "type": "uint256"
        },
        {
          "internalType": "uint256",
          "name": "badgeId",
          "type": "uint256"
        },
        {
          "internalType": "bytes",
          "name": "data",
          "type": "bytes"
        }
      ],
      "name": "mint",
      "outputs": [
        {
          "internalType": "uint256",
          "name": "",
          "type": "uint256"
        }
      ],
      "stateMutability": "payable",
      "type": "function"
    },
    {
      "inputs": [
        {
          "internalType": "uint256",
          "name": "badgeModelId",
          "type": "uint256"
        }
      ],
      "name": "mintValue",
      "outputs": [
        {
          "internalType": "uint256",
          "name": "",
          "type": "uint256"
        }
      ],
      "stateMutability": "view",
      "type": "function"
    },
    {
      "inputs": [],
      "name": "proxiableUUID",
      "outputs": [
        {
          "internalType": "bytes32",
          "name": "",
          "type": "bytes32"
        }
      ],
      "stateMutability": "view",
      "type": "function"
    },
    {
      "inputs": [
        {
          "internalType": "uint256",
          "name": "badgeId",
          "type": "uint256"
        },
        {
          "internalType": "bytes",
          "name": "data",
          "type": "bytes"
        }
      ],
      "name": "removeItem",
      "outputs": [],
      "stateMutability": "payable",
      "type": "function"
    },
    {
      "inputs": [
        {
          "internalType": "bytes32",
          "name": "role",
          "type": "bytes32"
        },
        {
          "internalType": "address",
          "name": "account",
          "type": "address"
        }
      ],
      "name": "renounceRole",
      "outputs": [],
      "stateMutability": "nonpayable",
      "type": "function"
    },
    {
      "inputs": [
        {
          "internalType": "bytes32",
          "name": "role",
          "type": "bytes32"
        },
        {
          "internalType": "address",
          "name": "account",
          "type": "address"
        }
      ],
      "name": "revokeRole",
      "outputs": [],
      "stateMutability": "nonpayable",
      "type": "function"
    },
    {
      "inputs": [
        {
          "internalType": "uint256",
          "name": "badgeId",
          "type": "uint256"
        },
        {
          "internalType": "bytes",
          "name": "data",
          "type": "bytes"
        }
      ],
      "name": "submitEvidence",
      "outputs": [],
      "stateMutability": "nonpayable",
      "type": "function"
    },
    {
      "inputs": [
        {
          "internalType": "address",
          "name": "_user",
          "type": "address"
        },
        {
          "internalType": "string",
          "name": "userMetadata",
          "type": "string"
        },
        {
          "internalType": "string",
          "name": "evidenceUri",
          "type": "string"
        }
      ],
      "name": "submitUserVerification",
      "outputs": [],
      "stateMutability": "nonpayable",
      "type": "function"
    },
    {
      "inputs": [
        {
          "internalType": "bytes4",
          "name": "interfaceId",
          "type": "bytes4"
        }
      ],
      "name": "supportsInterface",
      "outputs": [
        {
          "internalType": "bool",
          "name": "",
          "type": "bool"
        }
      ],
      "stateMutability": "view",
      "type": "function"
    },
    {
      "inputs": [],
      "name": "tcrFactory",
      "outputs": [
        {
          "internalType": "address",
          "name": "",
          "type": "address"
        }
      ],
      "stateMutability": "view",
      "type": "function"
    },
    {
      "inputs": [],
      "name": "theBadge",
      "outputs": [
        {
          "internalType": "contract TheBadge",
          "name": "",
          "type": "address"
        }
      ],
      "stateMutability": "view",
      "type": "function"
    },
    {
      "inputs": [],
      "name": "theBadgeModels",
      "outputs": [
        {
          "internalType": "contract TheBadgeModels",
          "name": "",
          "type": "address"
        }
      ],
      "stateMutability": "view",
      "type": "function"
    },
    {
      "inputs": [],
      "name": "theBadgeUsers",
      "outputs": [
        {
          "internalType": "contract TheBadgeUsers",
          "name": "",
          "type": "address"
        }
      ],
      "stateMutability": "view",
      "type": "function"
    },
    {
      "inputs": [
        {
          "internalType": "uint256",
          "name": "_verifyUserProtocolFee",
          "type": "uint256"
        }
      ],
      "name": "updateVerifyUserProtocolFee",
      "outputs": [],
      "stateMutability": "nonpayable",
      "type": "function"
    },
    {
      "inputs": [
        {
          "internalType": "address",
          "name": "newImplementation",
          "type": "address"
        }
      ],
      "name": "upgradeTo",
      "outputs": [],
      "stateMutability": "nonpayable",
      "type": "function"
    },
    {
      "inputs": [
        {
          "internalType": "address",
          "name": "newImplementation",
          "type": "address"
        },
        {
          "internalType": "bytes",
          "name": "data",
          "type": "bytes"
        }
      ],
      "name": "upgradeToAndCall",
      "outputs": [],
      "stateMutability": "payable",
      "type": "function"
    },
    {
      "stateMutability": "payable",
      "type": "receive"
    }
  ],
  "bytecode": "0x60a0604052306080523480156200001557600080fd5b506200002062000026565b620000e7565b600054610100900460ff1615620000935760405162461bcd60e51b815260206004820152602760248201527f496e697469616c697a61626c653a20636f6e747261637420697320696e697469604482015266616c697a696e6760c81b606482015260840160405180910390fd5b60005460ff90811614620000e5576000805460ff191660ff9081179091556040519081527f7f26b83ff96e1f2b6a682f133852f6798a09c465da95921460cefb38474024989060200160405180910390a15b565b608051613bd76200011f60003960008181610cbd01528181610cfd01528181610f6501528181610fa5015261101d0152613bd76000f3fe60806040526004361061020a5760003560e01c806389610a0911610119578063ae1c29e8116100a6578063ae1c29e814610652578063b5a867fa14610672578063c22b06a314610692578063caa39ec5146106c8578063d547741f146106ee578063d7deba151461070e578063e63ab1e91461072e578063e7705db614610762578063f4bcaf4214610796578063f72c0d8b146107b6578063fb094b68146107d857600080fd5b806389610a09146105235780638ac516b81461054357806391d148541461056357806393c7a71b146105835780639f780b1d146105a35780639faf7158146105c3578063a03aafbf146105d6578063a217fddf146105e9578063a41e35c3146105fe578063ace417e01461063257600080fd5b80634f1ef286116101975780634f1ef2861461038e57806352d1902d146103a1578063632f7c83146103b65780636cc6cde1146103d65780636e24d0731461040e578063731133e9146104875780637657dbdd1461049a57806377a3989e146104af5780637eb7f176146104cf5780637f345710146104ef57600080fd5b806301ffc9a714610216578063130bd93f1461024b57806322e900c21461026d578063248a9ca31461028d5780632c026696146102cb5780632f2ff15d146102ee578063358764761461030e57806336568abe1461032e5780633659cfe61461034e57806338926b6d1461036e57600080fd5b3661021157005b600080fd5b34801561022257600080fd5b50610236610231366004612c4c565b610809565b60405190151581526020015b60405180910390f35b34801561025757600080fd5b5061026b610266366004612ca9565b610840565b005b34801561027957600080fd5b50610236610288366004612ce2565b61093e565b34801561029957600080fd5b506102bd6102a8366004612ce2565b600090815260d1602052604090206001015490565b604051908152602001610242565b3480156102d757600080fd5b506102366102e6366004612cfb565b600192915050565b3480156102fa57600080fd5b5061026b610309366004612cfb565b6109fb565b34801561031a57600080fd5b5061026b610329366004612d20565b610a25565b34801561033a57600080fd5b5061026b610349366004612cfb565b610c35565b34801561035a57600080fd5b5061026b610369366004612db6565b610cb3565b34801561037a57600080fd5b5061026b610389366004612e1b565b610d7b565b61026b61039c366004612f5c565b610f5b565b3480156103ad57600080fd5b506102bd611010565b3480156103c257600080fd5b506102bd6103d1366004612ce2565b6110be565b3480156103e257600080fd5b506003546103f6906001600160a01b031681565b6040516001600160a01b039091168152602001610242565b34801561041a57600080fd5b5061045d610429366004612ce2565b600760205260009081526040902080546001820154600283015460039093015491926001600160a01b039091169160ff1684565b604080519485526001600160a01b0390931660208501529183015215156060820152608001610242565b6102bd610495366004612fbf565b611227565b3480156104a657600080fd5b506005546102bd565b3480156104bb57600080fd5b5061026b6104ca366004612e1b565b611431565b3480156104db57600080fd5b506102bd6104ea366004612ce2565b611738565b3480156104fb57600080fd5b506102bd7f7804d923f43a17d325d77e781528e0793b2edd9890ab45fc64efd7b4b427744c81565b34801561052f57600080fd5b5061023661053e366004612ce2565b6117cc565b34801561054f57600080fd5b5061026b61055e366004612ce2565b611a80565b34801561056f57600080fd5b5061023661057e366004612cfb565b611abd565b34801561058f57600080fd5b5061026b61059e366004612e1b565b611ae8565b3480156105af57600080fd5b506004546103f6906001600160a01b031681565b61026b6105d1366004612e1b565b611bfe565b61026b6105e4366004612e1b565b611d14565b3480156105f557600080fd5b506102bd600081565b34801561060a57600080fd5b506102bd7fcbaaf41b181bb6e269c490e876a7c97711b57e21dd8e5528423cf57579726b3581565b34801561063e57600080fd5b5061023661064d366004612db6565b611df0565b34801561065e57600080fd5b506002546103f6906001600160a01b031681565b34801561067e57600080fd5b5061026b61068d366004613048565b611e58565b34801561069e57600080fd5b506103f66106ad366004612ce2565b6006602052600090815260409020546001600160a01b031681565b3480156106d457600080fd5b506000546103f6906201000090046001600160a01b031681565b3480156106fa57600080fd5b5061026b610709366004612cfb565b611efb565b34801561071a57600080fd5b506102bd610729366004612ce2565b611f20565b34801561073a57600080fd5b506102bd7f65d7a28e3265b37a6474929f336521b332c1681b933f6cb9f3376673440d862a81565b34801561076e57600080fd5b506102bd7f0ce23c3e399818cfee81a7ab0880f714e53d7672b08df0fa62f2843416e1ea0981565b3480156107a257600080fd5b506001546103f6906001600160a01b031681565b3480156107c257600080fd5b506102bd600080516020613b3b83398151915281565b3480156107e457600080fd5b506107f86107f3366004612db6565b612146565b604051610242959493929190613123565b60006001600160e01b03198216637965db0b60e01b148061083a57506301ffc9a760e01b6001600160e01b03198316145b92915050565b6002546001600160a01b0316331461086b5760405163efb80fc560e01b815260040160405180910390fd5b6001600160a01b03821660009081526008602052604081206003810154849261010090910460ff16151590036108b45760405163bb572dbf60e01b815260040160405180910390fd5b6000600382015460ff1660028111156108cf576108cf61310d565b146108ed57604051636ed1ab8760e11b815260040160405180910390fd5b6001600160a01b038416600090815260086020526040902083610911576002610914565b60015b60038201805460ff191660018360028111156109325761093261310d565b02179055505050505050565b60008061094a83612295565b60008481526007602052604080822080549151634aac84e560e01b815260048101929092529293506001600160a01b03841690634aac84e590602401606060405180830381865afa1580156109a3573d6000803e3d6000fd5b505050506040513d601f19601f820116820180604052508101906109c79190613192565b505090508060ff16600114806109e057508060ff166003145b156109f057506001949350505050565b506000949350505050565b600082815260d16020526040902060010154610a1681612357565b610a208383612361565b505050565b600054610100900460ff1615808015610a455750600054600160ff909116105b80610a665750610a54306123e7565b158015610a66575060005460ff166001145b610ace5760405162461bcd60e51b815260206004820152602e60248201527f496e697469616c697a61626c653a20636f6e747261637420697320616c72656160448201526d191e481a5b9a5d1a585b1a5e995960921b60648201526084015b60405180910390fd5b6000805460ff191660011790558015610af1576000805461ff0019166101001790555b610afc600089612361565b610b267f65d7a28e3265b37a6474929f336521b332c1681b933f6cb9f3376673440d862a89612361565b610b3e600080516020613b3b83398151915289612361565b6000805462010000600160b01b031916620100006001600160a01b038a811691909102919091178255600180546001600160a01b03199081168a84161790915560028054821689841617905560038054821688841617905560048054821687841690811790915560058490556101038054909216868416179091556040519092918b16917fdc90fed0326ba91706deeac7eb34ac9f8b680734f9d782864dc29704d23bed6a91a38015610c2b576000805461ff0019169055604051600181527f7f26b83ff96e1f2b6a682f133852f6798a09c465da95921460cefb38474024989060200160405180910390a15b5050505050505050565b6001600160a01b0381163314610ca55760405162461bcd60e51b815260206004820152602f60248201527f416363657373436f6e74726f6c3a2063616e206f6e6c792072656e6f756e636560448201526e103937b632b9903337b91039b2b63360891b6064820152608401610ac5565b610caf82826123f6565b5050565b6001600160a01b037f0000000000000000000000000000000000000000000000000000000000000000163003610cfb5760405162461bcd60e51b8152600401610ac5906131cf565b7f00000000000000000000000000000000000000000000000000000000000000006001600160a01b0316610d2d61245d565b6001600160a01b031614610d535760405162461bcd60e51b8152600401610ac59061321b565b610d5c81612479565b60408051600080825260208201909252610d7891839190612491565b50565b6000546201000090046001600160a01b03163314610dac5760405163942e92c760e01b815260040160405180910390fd5b6000610db784612295565b6000858152600760209081526040918290208251608081018452815480825260018301546001600160a01b039081169483019490945260028301548286015260039092015460ff161515606082015292516374e120b360e11b8152600481019190915292935090919083169063e9c2416690602401600060405180830381600087803b158015610e4657600080fd5b505af1158015610e5a573d6000803e3d6000fd5b505050504781604001511115610e83576040516398e2a0bb60e01b815260040160405180910390fd5b604081810180516000918290526020840151925190926001600160a01b03169083908381818185875af1925050503d8060008114610edd576040519150601f19603f3d011682016040523d82523d6000602084013e610ee2565b606091505b5090915050801515600003610f0a5760405163aa701b0560e01b815260040160405180910390fd5b8683602001516001600160a01b03167f9794db68af033346a63dbc4509364afc3a23201eced8a4f3bc64d029abfacc6584604051610f4a91815260200190565b60405180910390a350505050505050565b6001600160a01b037f0000000000000000000000000000000000000000000000000000000000000000163003610fa35760405162461bcd60e51b8152600401610ac5906131cf565b7f00000000000000000000000000000000000000000000000000000000000000006001600160a01b0316610fd561245d565b6001600160a01b031614610ffb5760405162461bcd60e51b8152600401610ac59061321b565b61100482612479565b610caf82826001612491565b6000306001600160a01b037f000000000000000000000000000000000000000000000000000000000000000016146110ab5760405162461bcd60e51b815260206004820152603860248201527f555550535570677261646561626c653a206d757374206e6f742062652063616c6044820152771b1959081d1a1c9bdd59da0819195b1959d85d1958d85b1b60421b6064820152608401610ac5565b50600080516020613b5b83398151915290565b6000818152600660205260408082208054600354835163063d63db60e11b8152935192936001600160a01b039283169386939092169163f7434ea9918591630c7ac7b69160048082019288929091908290030181865afa158015611126573d6000803e3d6000fd5b505050506040513d6000823e601f3d908101601f1916820160405261114e91908101906132ac565b6040518263ffffffff1660e01b815260040161116a91906132e0565b602060405180830381865afa158015611187573d6000803e3d6000fd5b505050506040513d601f19601f820116820180604052508101906111ab91906132f3565b90506000826001600160a01b031663bb0b86ff6040518163ffffffff1660e01b8152600401602060405180830381865afa1580156111ed573d6000803e3d6000fd5b505050506040513d601f19601f8201168201806040525081019061121191906132f3565b905061121d8183613322565b9695505050505050565b600080546201000090046001600160a01b031633146112595760405163942e92c760e01b815260040160405180910390fd5b6000611264866110be565b905080341461128657604051637bcb3e5760e01b815260040160405180910390fd5b6000868152600660205260408120805490916001600160a01b03909116906112b086880188613399565b80516040516309fa7ca560e21b81529192506001600160a01b038416916327e9f2949134916112e291906004016132e0565b6000604051808303818588803b1580156112fb57600080fd5b505af115801561130f573d6000803e3d6000fd5b50505050506000816000015160405160200161132b91906133cd565b60405160208183030381529060405280519060200120905060405180608001604052808281526020018c6001600160a01b0316815260200134815260200160011515815250600760008b81526020019081526020016000206000820151816000015560208201518160010160006101000a8154816001600160a01b0302191690836001600160a01b031602179055506040820151816002015560608201518160030160006101000a81548160ff021916908315150217905550905050887fdd7e1dd9a30843ba8c2619a3c5ce27830ad90612bad48feeb549fc94114d6261836000015160405161141b91906132e0565b60405180910390a29a9950505050505050505050565b6001546001600160a01b0316331461145c5760405163515e38c360e11b815260040160405180910390fd5b600083815260066020526040902080546001600160a01b03161561149357604051634d1068bd60e11b815260040160405180910390fd5b6004546001600160a01b031660006114ad848601866134a6565b60035460408083015190519293506001600160a01b038086169363d8dcbd2793909116916114e19160200190815260200190565b60408051601f1981840301815282825260608701516020840152910160408051601f198184030181529082905261151b929160200161359d565b60408051808303601f1901815290829052608086015160a0870151875160e0808a015160c08b01516101008c015160208d0151938b901b6001600160e01b03191689526115729998600097969594906004016135ef565b600060405180830381600087803b15801561158c57600080fd5b505af11580156115a0573d6000803e3d6000fd5b5050505060006001836001600160a01b03166306661abd6040518163ffffffff1660e01b8152600401602060405180830381865afa1580156115e6573d6000803e3d6000fd5b505050506040513d601f19601f8201168201806040525081019061160a91906132f3565b61161491906136b2565b60405163a2f7b3a560e01b8152600481018290529091506000906001600160a01b0385169063a2f7b3a5906024016020604051808303816000875af1158015611661573d6000803e3d6000fd5b505050506040513d601f19601f8201168201806040525081019061168591906136c5565b90506001600160a01b0381166116ae57604051637788791560e11b815260040160405180910390fd5b60408051602080820183526001600160a01b0384811680845260008d8152600690935291849020925183546001600160a01b031916911617909155608085015160a0860151925191928b927f1e83a75c2089c1100e6d9a024ea6fdf619ec5a922a17230682fbf1217d2a7ec1926117269290916136e2565b60405180910390a35050505050505050565b60008061174483612295565b90506000611751846125fc565b90506000826001600160a01b031663c2f2beea6040518163ffffffff1660e01b8152600401602060405180830381865afa158015611793573d6000803e3d6000fd5b505050506040513d601f19601f820116820180604052508101906117b791906132f3565b90506117c382826127e7565b95945050505050565b6000806117d883612295565b600084815260076020526040812060038101549293509160ff161515900361181357604051630c11d07360e01b815260040160405180910390fd5b805460000361183557604051630c11d07360e01b815260040160405180910390fd5b80546040516348f343f360e01b81526000916001600160a01b038516916348f343f3916118689160040190815260200190565b606060405180830381865afa158015611885573d6000803e3d6000fd5b505050506040513d601f19601f820116820180604052508101906118a99190613707565b8454604051634aac84e560e01b81526004810191909152909350600092506001600160a01b0386169150634aac84e590602401606060405180830381865afa1580156118f9573d6000803e3d6000fd5b505050506040513d601f19601f8201168201806040525081019061191d9190613192565b5050905060006001836119309190613770565b8454604051635fde7f8d60e11b815260048101919091526001600160781b03919091166024820181905291506000906001600160a01b0387169063bfbcff1a90604401600060405180830381865afa158015611990573d6000803e3d6000fd5b505050506040513d6000823e601f3d908101601f191682016040526119b891908101906137b1565b50505050505050925050506000866001600160a01b03166282a36d6040518163ffffffff1660e01b8152600401602060405180830381865afa158015611a02573d6000803e3d6000fd5b505050506040513d601f19601f82011682018060405250810190611a2691906132f3565b9050600081611a3584426136b2565b11611a41576000611a44565b60015b90508460ff166002148015611a5b57506001811515145b15611a70575060019998505050505050505050565b5060009998505050505050505050565b6000611a8b81612357565b60058290556040517f810f1720fbc34c56d171f89315ad21708648fd17424c27b88fa208409845aa7790600090a15050565b600091825260d1602090815260408084206001600160a01b0393909316845291905290205460ff1690565b6000546201000090046001600160a01b03163314611b195760405163942e92c760e01b815260040160405180910390fd5b60008381526007602052604081206003810154909160ff90911615159003611b5457604051630c11d07360e01b815260040160405180910390fd5b8054600003611b7657604051630c11d07360e01b815260040160405180910390fd5b6000611b8483850185613399565b90506000611b9186612295565b8354835160405163f48a0b3160e01b81529293506001600160a01b0384169263f48a0b3192611bc49290916004016138b5565b600060405180830381600087803b158015611bde57600080fd5b505af1158015611bf2573d6000803e3d6000fd5b50505050505050505050565b6000546201000090046001600160a01b03163314611c2f5760405163942e92c760e01b815260040160405180910390fd5b60008381526007602052604081206003810154909160ff90911615159003611c6a57604051630c11d07360e01b815260040160405180910390fd5b8054600003611c8c57604051630c11d07360e01b815260040160405180910390fd5b6000611c9a83850185613399565b90506000611ca786612295565b8354835160405163097e90e560e41b81529293506001600160a01b038416926397e90e50923492611cda926004016138b5565b6000604051808303818588803b158015611cf357600080fd5b505af1158015611d07573d6000803e3d6000fd5b5050505050505050505050565b6000546201000090046001600160a01b03163314611d455760405163942e92c760e01b815260040160405180910390fd5b60008381526007602052604081206003810154909160ff90911615159003611d8057604051630c11d07360e01b815260040160405180910390fd5b8054600003611da257604051630c11d07360e01b815260040160405180910390fd5b6000611db083850185613399565b90506000611dbd86612295565b8354835160405163873db1a760e01b81529293506001600160a01b0384169263873db1a7923492611cda926004016138b5565b6001600160a01b03811660009081526008602052604081206003810154610100900460ff1615158203611e265750600092915050565b6001600382015460ff166002811115611e4157611e4161310d565b03611e4f5750600192915050565b50600092915050565b6002546001600160a01b03163314611e835760405163efb80fc560e01b815260040160405180910390fd5b6001600160a01b03831660009081526008602052604090206003810154610100900460ff1615611ec657604051637815482960e11b815260040160405180910390fd5b60038101805461ffff191661010017905560018101611ee58482613956565b5060028101611ef48382613956565b5050505050565b600082815260d16020526040902060010154611f1681612357565b610a2083836123f6565b6000818152600760205260408120600381015460ff1615158203611f5757604051630c11d07360e01b815260040160405180910390fd5b8054600003611f7957604051630c11d07360e01b815260040160405180910390fd5b6000611f8484612295565b8254604051634aac84e560e01b815260048101919091529091506000906001600160a01b03831690634aac84e590602401606060405180830381865afa158015611fd2573d6000803e3d6000fd5b505050506040513d601f19601f82011682018060405250810190611ff69190613192565b505090506000612005866125fc565b90508160ff1660010361207e5761121d836001600160a01b031663a37b6ad46040518163ffffffff1660e01b8152600401602060405180830381865afa158015612053573d6000803e3d6000fd5b505050506040513d601f19601f8201168201806040525081019061207791906132f3565b82906127e7565b8160ff166002036120ca5761121d836001600160a01b031663c2f2beea6040518163ffffffff1660e01b8152600401602060405180830381865afa158015612053573d6000803e3d6000fd5b8160ff166003036120e15750600095945050505050565b8160ff1660040361212d5761121d836001600160a01b031663787471a96040518163ffffffff1660e01b8152600401602060405180830381865afa158015612053573d6000803e3d6000fd5b6040516305e5cf6360e41b815260040160405180910390fd5b600860205260009081526040902080546001820180546001600160a01b039092169291612172906138ce565b80601f016020809104026020016040519081016040528092919081815260200182805461219e906138ce565b80156121eb5780601f106121c0576101008083540402835291602001916121eb565b820191906000526020600020905b8154815290600101906020018083116121ce57829003601f168201915b505050505090806002018054612200906138ce565b80601f016020809104026020016040519081016040528092919081815260200182805461222c906138ce565b80156122795780601f1061224e57610100808354040283529160200191612279565b820191906000526020600020905b81548152906001019060200180831161225c57829003601f168201915b5050506003909301549192505060ff8082169161010090041685565b610103546040516346c1c31160e11b81526004810183905260009182916001600160a01b0390911690638d83862290602401608060405180830381865afa1580156122e4573d6000803e3d6000fd5b505050506040513d601f19601f820116820180604052508101906123089190613a15565b80516000818152600660205260409020805492935090916001600160a01b031661234557604051633deb66a760e21b815260040160405180910390fd5b546001600160a01b0316949350505050565b610d788133612810565b61236b8282611abd565b610caf57600082815260d1602090815260408083206001600160a01b03851684529091529020805460ff191660011790556123a33390565b6001600160a01b0316816001600160a01b0316837f2f8788117e7eff1d82e926ec794901d17c78024a50270940304540a733656f0d60405160405180910390a45050565b6001600160a01b03163b151590565b6124008282611abd565b15610caf57600082815260d1602090815260408083206001600160a01b0385168085529252808320805460ff1916905551339285917ff6391f5c32d9c69d2a47ea670b442974b53935d1edc7fd64eb21e047a839171b9190a45050565b600080516020613b5b833981519152546001600160a01b031690565b600080516020613b3b833981519152610caf81612357565b7f4910fdfa16fed3260ed0e7147f7cc6da11a60208b5b9406d12a635614ffd91435460ff16156124c457610a2083612869565b826001600160a01b03166352d1902d6040518163ffffffff1660e01b8152600401602060405180830381865afa92505050801561251e575060408051601f3d908101601f1916820190925261251b918101906132f3565b60015b6125815760405162461bcd60e51b815260206004820152602e60248201527f45524331393637557067726164653a206e657720696d706c656d656e7461746960448201526d6f6e206973206e6f74205555505360901b6064820152608401610ac5565b600080516020613b5b83398151915281146125f05760405162461bcd60e51b815260206004820152602960248201527f45524331393637557067726164653a20756e737570706f727465642070726f786044820152681a58589b195555525160ba1b6064820152608401610ac5565b50610a20838383612903565b600081815260076020908152604080832081516080810183528154815260018201546001600160a01b0316938101939093526002810154918301919091526003015460ff16151560608201528161265284612295565b82516040516348f343f360e01b815260048101919091529091506000906001600160a01b038316906348f343f390602401606060405180830381865afa1580156126a0573d6000803e3d6000fd5b505050506040513d601f19601f820116820180604052508101906126c49190613707565b9250505060006001826126d79190613770565b8451604051635fde7f8d60e11b815260048101919091526001600160781b03919091166024820181905291506000906001600160a01b0385169063bfbcff1a90604401600060405180830381865afa158015612737573d6000803e3d6000fd5b505050506040513d6000823e601f3d908101601f1916820160405261275f91908101906137b1565b5060035460405163f7434ea960e01b8152919a506001600160a01b0316985063f7434ea9975061279b965089955060040193506132e092505050565b602060405180830381865afa1580156127b8573d6000803e3d6000fd5b505050506040513d601f19601f820116820180604052508101906127dc91906132f3565b979650505050505050565b6000806127f48385613322565b90508381101561280657600019612808565b805b949350505050565b61281a8282611abd565b610caf576128278161292e565b612832836020612940565b604051602001612843929190613a87565b60408051601f198184030181529082905262461bcd60e51b8252610ac5916004016132e0565b612872816123e7565b6128d45760405162461bcd60e51b815260206004820152602d60248201527f455243313936373a206e657720696d706c656d656e746174696f6e206973206e60448201526c1bdd08184818dbdb9d1c9858dd609a1b6064820152608401610ac5565b600080516020613b5b83398151915280546001600160a01b0319166001600160a01b0392909216919091179055565b61290c83612adb565b6000825111806129195750805b15610a20576129288383612b1b565b50505050565b606061083a6001600160a01b03831660145b6060600061294f836002613af6565b61295a906002613322565b6001600160401b0381111561297157612971612e66565b6040519080825280601f01601f19166020018201604052801561299b576020820181803683370190505b509050600360fc1b816000815181106129b6576129b6613b0d565b60200101906001600160f81b031916908160001a905350600f60fb1b816001815181106129e5576129e5613b0d565b60200101906001600160f81b031916908160001a9053506000612a09846002613af6565b612a14906001613322565b90505b6001811115612a8c576f181899199a1a9b1b9c1cb0b131b232b360811b85600f1660108110612a4857612a48613b0d565b1a60f81b828281518110612a5e57612a5e613b0d565b60200101906001600160f81b031916908160001a90535060049490941c93612a8581613b23565b9050612a17565b5083156128065760405162461bcd60e51b815260206004820181905260248201527f537472696e67733a20686578206c656e67746820696e73756666696369656e746044820152606401610ac5565b612ae481612869565b6040516001600160a01b038216907fbc7cd75a20ee27fd9adebab32041f755214dbc6bffa90cc0225b39da2e5c2d3b90600090a250565b6060612b408383604051806060016040528060278152602001613b7b60279139612b47565b9392505050565b6060600080856001600160a01b031685604051612b6491906133cd565b600060405180830381855af49150503d8060008114612b9f576040519150601f19603f3d011682016040523d82523d6000602084013e612ba4565b606091505b509150915061121d8683838760608315612c1d578251600003612c1657612bca856123e7565b612c165760405162461bcd60e51b815260206004820152601d60248201527f416464726573733a2063616c6c20746f206e6f6e2d636f6e74726163740000006044820152606401610ac5565b5081612808565b6128088383815115612c325781518083602001fd5b8060405162461bcd60e51b8152600401610ac591906132e0565b600060208284031215612c5e57600080fd5b81356001600160e01b03198116811461280657600080fd5b6001600160a01b0381168114610d7857600080fd5b8035612c9681612c76565b919050565b8015158114610d7857600080fd5b60008060408385031215612cbc57600080fd5b8235612cc781612c76565b91506020830135612cd781612c9b565b809150509250929050565b600060208284031215612cf457600080fd5b5035919050565b60008060408385031215612d0e57600080fd5b823591506020830135612cd781612c76565b600080600080600080600060e0888a031215612d3b57600080fd5b8735612d4681612c76565b96506020880135612d5681612c76565b95506040880135612d6681612c76565b94506060880135612d7681612c76565b93506080880135612d8681612c76565b925060a0880135612d9681612c76565b915060c0880135612da681612c76565b8091505092959891949750929550565b600060208284031215612dc857600080fd5b813561280681612c76565b60008083601f840112612de557600080fd5b5081356001600160401b03811115612dfc57600080fd5b602083019150836020828501011115612e1457600080fd5b9250929050565b600080600060408486031215612e3057600080fd5b8335925060208401356001600160401b03811115612e4d57600080fd5b612e5986828701612dd3565b9497909650939450505050565b634e487b7160e01b600052604160045260246000fd5b60405161012081016001600160401b0381118282101715612e9f57612e9f612e66565b60405290565b604051606081016001600160401b0381118282101715612e9f57612e9f612e66565b604051601f8201601f191681016001600160401b0381118282101715612eef57612eef612e66565b604052919050565b60006001600160401b03821115612f1057612f10612e66565b50601f01601f191660200190565b6000612f31612f2c84612ef7565b612ec7565b9050828152838383011115612f4557600080fd5b828260208301376000602084830101529392505050565b60008060408385031215612f6f57600080fd5b8235612f7a81612c76565b915060208301356001600160401b03811115612f9557600080fd5b8301601f81018513612fa657600080fd5b612fb585823560208401612f1e565b9150509250929050565b600080600080600060808688031215612fd757600080fd5b8535612fe281612c76565b9450602086013593506040860135925060608601356001600160401b0381111561300b57600080fd5b61301788828901612dd3565b969995985093965092949392505050565b600082601f83011261303957600080fd5b612b4083833560208501612f1e565b60008060006060848603121561305d57600080fd5b833561306881612c76565b925060208401356001600160401b038082111561308457600080fd5b61309087838801613028565b935060408601359150808211156130a657600080fd5b506130b386828701613028565b9150509250925092565b60005b838110156130d85781810151838201526020016130c0565b50506000910152565b600081518084526130f98160208601602086016130bd565b601f01601f19169290920160200192915050565b634e487b7160e01b600052602160045260246000fd5b6001600160a01b038616815260a060208201819052600090613147908301876130e1565b828103604084015261315981876130e1565b9150506003841061317a57634e487b7160e01b600052602160045260246000fd5b83606083015282151560808301529695505050505050565b6000806000606084860312156131a757600080fd5b835160ff811681146131b857600080fd5b602085015160409095015190969495509392505050565b6020808252602c908201527f46756e6374696f6e206d7573742062652063616c6c6564207468726f7567682060408201526b19195b1959d85d1958d85b1b60a21b606082015260800190565b6020808252602c908201527f46756e6374696f6e206d7573742062652063616c6c6564207468726f7567682060408201526b6163746976652070726f787960a01b606082015260800190565b600082601f83011261327857600080fd5b8151613286612f2c82612ef7565b81815284602083860101111561329b57600080fd5b6128088260208301602087016130bd565b6000602082840312156132be57600080fd5b81516001600160401b038111156132d457600080fd5b61280884828501613267565b602081526000612b4060208301846130e1565b60006020828403121561330557600080fd5b5051919050565b634e487b7160e01b600052601160045260246000fd5b8082018082111561083a5761083a61330c565b60006020828403121561334757600080fd5b604051602081016001600160401b03828210818311171561336a5761336a612e66565b81604052829350843591508082111561338257600080fd5b5061338f85828601613028565b8252505092915050565b6000602082840312156133ab57600080fd5b81356001600160401b038111156133c157600080fd5b61280884828501613335565b600082516133df8184602087016130bd565b9190910192915050565b600082601f8301126133fa57600080fd5b604051608081018181106001600160401b038211171561341c5761341c612e66565b60405280608084018581111561343157600080fd5b845b8181101561344b578035835260209283019201613433565b509195945050505050565b600082601f83011261346757600080fd5b61346f612ea5565b80606084018581111561348157600080fd5b845b8181101561349b578035845260209384019301613483565b509095945050505050565b6000602082840312156134b857600080fd5b81356001600160401b03808211156134cf57600080fd5b908301906101c082860312156134e457600080fd5b6134ec612e7c565b6134f583612c8b565b815261350360208401612c8b565b6020820152604083013560408201526060830135606082015260808301358281111561352e57600080fd5b61353a87828601613028565b60808301525060a08301358281111561355257600080fd5b61355e87828601613028565b60a08301525060c083013560c082015261357b8660e085016133e9565b60e082015261358e866101608501613456565b61010082015295945050505050565b600083516135af8184602088016130bd565b8351908301906135c38183602088016130bd565b01949350505050565b8060005b60038110156129285781518452602093840193909101906001016135d0565b6001600160a01b038b811682526101e06020808401829052600092906136178584018f6130e1565b9250818d1660408601528483036060860152613633838d6130e1565b92508483036080860152613647838c6130e1565b9350818a1660a086015260c08501925088915060005b600481101561367a5782518452928101929181019160010161365d565b50505050846101408301526136936101608301856135cc565b6001600160a01b0383166101c08301529b9a5050505050505050505050565b8181038181111561083a5761083a61330c565b6000602082840312156136d757600080fd5b815161280681612c76565b6040815260006136f560408301856130e1565b82810360208401526117c381856130e1565b60008060006060848603121561371c57600080fd5b83516004811061372b57600080fd5b60208501519093506001600160801b038116811461374857600080fd5b60408501519092506001600160781b038116811461376557600080fd5b809150509250925092565b6001600160781b038281168282160390808211156137905761379061330c565b5092915050565b805160038110612c9657600080fd5b8051612c9681612c76565b6000806000806000806000806000806101808b8d0312156137d157600080fd5b8a516137dc81612c9b565b809a50506020808c0151995060408c0151985060608c01516137fd81612c9b565b9750609f8c018d1361380e57600080fd5b613816612ea5565b8060e08e018f81111561382857600080fd5b60808f015b8181101561384d57805161384081612c76565b845292840192840161382d565b505190985096506138649150506101008c01613797565b93506138736101208c016137a6565b92506101408b01516001600160401b0381111561388f57600080fd5b61389b8d828e01613267565b9250506101608b015190509295989b9194979a5092959850565b82815260406020820152600061280860408301846130e1565b600181811c908216806138e257607f821691505b60208210810361390257634e487b7160e01b600052602260045260246000fd5b50919050565b601f821115610a2057600081815260208120601f850160051c8101602086101561392f5750805b601f850160051c820191505b8181101561394e5782815560010161393b565b505050505050565b81516001600160401b0381111561396f5761396f612e66565b6139838161397d84546138ce565b84613908565b602080601f8311600181146139b857600084156139a05750858301515b600019600386901b1c1916600185901b17855561394e565b600085815260208120601f198616915b828110156139e7578886015182559484019460019091019084016139c8565b5085821015613a055787850151600019600388901b60f8161c191681555b5050505050600190811b01905550565b600060808284031215613a2757600080fd5b604051608081018181106001600160401b0382111715613a4957613a49612e66565b604052825181526020830151613a5e81612c76565b6020820152604083810151908201526060830151613a7b81612c9b565b60608201529392505050565b76020b1b1b2b9b9a1b7b73a3937b61d1030b1b1b7bab73a1604d1b815260008351613ab98160178501602088016130bd565b7001034b99036b4b9b9b4b733903937b6329607d1b6017918401918201528351613aea8160288401602088016130bd565b01602801949350505050565b808202811582820484141761083a5761083a61330c565b634e487b7160e01b600052603260045260246000fd5b600081613b3257613b3261330c565b50600019019056fe189ab7a9244df0848122154315af71fe140f3db0fe014031783b0946b8c9d2e3360894a13ba1a3210667c828492db98dca3e2076cc3735a920a3ca505d382bbc416464726573733a206c6f772d6c6576656c2064656c65676174652063616c6c206661696c6564a264697066735822122032eaac69622a3885dbec075a1df22ae0e0db13ca5a5d99e32a40a8cd2a2e41bf64736f6c63430008110033",
  "linkReferences": {},
  "deployedLinkReferences": {}
}