{
  "_format": "hh-sol-artifact-1",
  "contractName": "KlerosBadgeModelController",
  "sourceName": "src/contracts/badgeModelControllers/KlerosBadgeModelController.sol",
  "abi": [
    {
      "inputs": [],
      "stateMutability": "nonpayable",
      "type": "constructor"
    },
    {
      "inputs": [],
      "name": "KlerosBadgeModelController__badge__notInChallengeableStatus",
      "type": "error"
    },
    {
      "inputs": [],
      "name": "KlerosBadgeModelController__claimBadge_insufficientBalance",
      "type": "error"
    },
    {
      "inputs": [],
      "name": "KlerosBadgeModelController__createBadgeModel_TCRListAddressZero",
      "type": "error"
    },
    {
      "inputs": [],
      "name": "KlerosBadgeModelController__createBadgeModel_badgeModelAlreadyCreated",
      "type": "error"
    },
    {
      "inputs": [],
      "name": "KlerosBadgeModelController__mintBadge_alreadyMinted",
      "type": "error"
    },
    {
      "inputs": [],
      "name": "KlerosBadgeModelController__mintBadge_isPaused",
      "type": "error"
    },
    {
      "inputs": [],
      "name": "KlerosBadgeModelController__mintBadge_wrongBadgeModel",
      "type": "error"
    },
    {
      "inputs": [],
      "name": "KlerosBadgeModelController__mintBadge_wrongValue",
      "type": "error"
    },
    {
      "inputs": [],
      "name": "KlerosBadgeModelController__onlyTheBadge_senderNotTheBadge",
      "type": "error"
    },
    {
      "anonymous": false,
      "inputs": [
        {
          "indexed": false,
          "internalType": "address",
          "name": "previousAdmin",
          "type": "address"
        },
        {
          "indexed": false,
          "internalType": "address",
          "name": "newAdmin",
          "type": "address"
        }
      ],
      "name": "AdminChanged",
      "type": "event"
    },
    {
      "anonymous": false,
      "inputs": [
        {
          "indexed": true,
          "internalType": "address",
          "name": "beacon",
          "type": "address"
        }
      ],
      "name": "BeaconUpgraded",
      "type": "event"
    },
    {
      "anonymous": false,
      "inputs": [
        {
          "indexed": true,
          "internalType": "address",
          "name": "recipient",
          "type": "address"
        },
        {
          "indexed": false,
          "internalType": "uint256",
          "name": "amount",
          "type": "uint256"
        },
        {
          "indexed": true,
          "internalType": "uint256",
          "name": "badgeId",
          "type": "uint256"
        }
      ],
      "name": "DepositReturned",
      "type": "event"
    },
    {
      "anonymous": false,
      "inputs": [
        {
          "indexed": false,
          "internalType": "uint8",
          "name": "version",
          "type": "uint8"
        }
      ],
      "name": "Initialized",
      "type": "event"
    },
    {
      "anonymous": false,
      "inputs": [
        {
          "indexed": true,
          "internalType": "uint256",
          "name": "badgeId",
          "type": "uint256"
        },
        {
          "indexed": true,
          "internalType": "address",
          "name": "wallet",
          "type": "address"
        },
        {
          "indexed": false,
          "internalType": "string",
          "name": "evidence",
          "type": "string"
        },
        {
          "indexed": false,
          "internalType": "address",
          "name": "sender",
          "type": "address"
        }
      ],
      "name": "KlerosBadgeChallenged",
      "type": "event"
    },
    {
      "anonymous": false,
      "inputs": [
        {
          "indexed": true,
          "internalType": "uint256",
          "name": "badgeId",
          "type": "uint256"
        },
        {
          "indexed": false,
          "internalType": "string",
          "name": "evidence",
          "type": "string"
        }
      ],
      "name": "MintKlerosBadge",
      "type": "event"
    },
    {
      "anonymous": false,
      "inputs": [
        {
          "indexed": true,
          "internalType": "uint256",
          "name": "badgeModelId",
          "type": "uint256"
        },
        {
          "indexed": true,
          "internalType": "address",
          "name": "tcrAddress",
          "type": "address"
        },
        {
          "indexed": false,
          "internalType": "string",
          "name": "metadataUri",
          "type": "string"
        }
      ],
      "name": "NewKlerosBadgeModel",
      "type": "event"
    },
    {
      "anonymous": false,
      "inputs": [
        {
          "indexed": true,
          "internalType": "bytes32",
          "name": "role",
          "type": "bytes32"
        },
        {
          "indexed": true,
          "internalType": "bytes32",
          "name": "previousAdminRole",
          "type": "bytes32"
        },
        {
          "indexed": true,
          "internalType": "bytes32",
          "name": "newAdminRole",
          "type": "bytes32"
        }
      ],
      "name": "RoleAdminChanged",
      "type": "event"
    },
    {
      "anonymous": false,
      "inputs": [
        {
          "indexed": true,
          "internalType": "bytes32",
          "name": "role",
          "type": "bytes32"
        },
        {
          "indexed": true,
          "internalType": "address",
          "name": "account",
          "type": "address"
        },
        {
          "indexed": true,
          "internalType": "address",
          "name": "sender",
          "type": "address"
        }
      ],
      "name": "RoleGranted",
      "type": "event"
    },
    {
      "anonymous": false,
      "inputs": [
        {
          "indexed": true,
          "internalType": "bytes32",
          "name": "role",
          "type": "bytes32"
        },
        {
          "indexed": true,
          "internalType": "address",
          "name": "account",
          "type": "address"
        },
        {
          "indexed": true,
          "internalType": "address",
          "name": "sender",
          "type": "address"
        }
      ],
      "name": "RoleRevoked",
      "type": "event"
    },
    {
      "anonymous": false,
      "inputs": [
        {
          "indexed": true,
          "internalType": "address",
          "name": "implementation",
          "type": "address"
        }
      ],
      "name": "Upgraded",
      "type": "event"
    },
    {
      "inputs": [],
      "name": "DEFAULT_ADMIN_ROLE",
      "outputs": [
        {
          "internalType": "bytes32",
          "name": "",
          "type": "bytes32"
        }
      ],
      "stateMutability": "view",
      "type": "function"
    },
    {
      "inputs": [],
      "name": "FEE_COLLECTOR_ROLE",
      "outputs": [
        {
          "internalType": "bytes32",
          "name": "",
          "type": "bytes32"
        }
      ],
      "stateMutability": "view",
      "type": "function"
    },
    {
      "inputs": [],
      "name": "MINTER_ROLE",
      "outputs": [
        {
          "internalType": "bytes32",
          "name": "",
          "type": "bytes32"
        }
      ],
      "stateMutability": "view",
      "type": "function"
    },
    {
      "inputs": [],
      "name": "PAUSER_ROLE",
      "outputs": [
        {
          "internalType": "bytes32",
          "name": "",
          "type": "bytes32"
        }
      ],
      "stateMutability": "view",
      "type": "function"
    },
    {
      "inputs": [],
      "name": "UPGRADER_ROLE",
      "outputs": [
        {
          "internalType": "bytes32",
          "name": "",
          "type": "bytes32"
        }
      ],
      "stateMutability": "view",
      "type": "function"
    },
    {
      "inputs": [],
      "name": "URI_SETTER_ROLE",
      "outputs": [
        {
          "internalType": "bytes32",
          "name": "",
          "type": "bytes32"
        }
      ],
      "stateMutability": "view",
      "type": "function"
    },
    {
      "inputs": [],
      "name": "arbitrator",
      "outputs": [
        {
          "internalType": "contract IArbitrator",
          "name": "",
          "type": "address"
        }
      ],
      "stateMutability": "view",
      "type": "function"
    },
    {
      "inputs": [
        {
          "internalType": "uint256",
          "name": "",
          "type": "uint256"
        },
        {
          "internalType": "address",
          "name": "",
          "type": "address"
        }
      ],
      "name": "canMint",
      "outputs": [
        {
          "internalType": "bool",
          "name": "",
          "type": "bool"
        }
      ],
      "stateMutability": "pure",
      "type": "function"
    },
    {
      "inputs": [
        {
          "internalType": "uint256",
          "name": "badgeId",
          "type": "uint256"
        }
      ],
      "name": "claim",
      "outputs": [],
      "stateMutability": "nonpayable",
      "type": "function"
    },
    {
      "inputs": [
        {
          "internalType": "uint256",
          "name": "badgeModelId",
          "type": "uint256"
        },
        {
          "internalType": "bytes",
          "name": "data",
          "type": "bytes"
        }
      ],
      "name": "createBadgeModel",
      "outputs": [],
      "stateMutability": "nonpayable",
      "type": "function"
    },
    {
      "inputs": [
        {
          "internalType": "uint256",
          "name": "badgeId",
          "type": "uint256"
        }
      ],
      "name": "getChallengeDepositValue",
      "outputs": [
        {
          "internalType": "uint256",
          "name": "",
          "type": "uint256"
        }
      ],
      "stateMutability": "view",
      "type": "function"
    },
    {
      "inputs": [
        {
          "internalType": "uint256",
          "name": "badgeId",
          "type": "uint256"
        }
      ],
      "name": "getRemovalDepositValue",
      "outputs": [
        {
          "internalType": "uint256",
          "name": "",
          "type": "uint256"
        }
      ],
      "stateMutability": "view",
      "type": "function"
    },
    {
      "inputs": [
        {
          "internalType": "bytes32",
          "name": "role",
          "type": "bytes32"
        }
      ],
      "name": "getRoleAdmin",
      "outputs": [
        {
          "internalType": "bytes32",
          "name": "",
          "type": "bytes32"
        }
      ],
      "stateMutability": "view",
      "type": "function"
    },
    {
      "inputs": [
        {
          "internalType": "bytes32",
          "name": "role",
          "type": "bytes32"
        },
        {
          "internalType": "address",
          "name": "account",
          "type": "address"
        }
      ],
      "name": "grantRole",
      "outputs": [],
      "stateMutability": "nonpayable",
      "type": "function"
    },
    {
      "inputs": [
        {
          "internalType": "bytes32",
          "name": "role",
          "type": "bytes32"
        },
        {
          "internalType": "address",
          "name": "account",
          "type": "address"
        }
      ],
      "name": "hasRole",
      "outputs": [
        {
          "internalType": "bool",
          "name": "",
          "type": "bool"
        }
      ],
      "stateMutability": "view",
      "type": "function"
    },
    {
      "inputs": [
        {
          "internalType": "address",
          "name": "admin",
          "type": "address"
        },
        {
          "internalType": "address",
          "name": "_theBadge",
          "type": "address"
        },
        {
          "internalType": "address",
          "name": "_arbitrator",
          "type": "address"
        },
        {
          "internalType": "address",
          "name": "_tcrFactory",
          "type": "address"
        }
      ],
      "name": "initialize",
      "outputs": [],
      "stateMutability": "nonpayable",
      "type": "function"
    },
    {
      "inputs": [
        {
          "internalType": "uint256",
          "name": "badgeId",
          "type": "uint256"
        }
      ],
      "name": "isAssetActive",
      "outputs": [
        {
          "internalType": "bool",
          "name": "",
          "type": "bool"
        }
      ],
      "stateMutability": "view",
      "type": "function"
    },
    {
      "inputs": [
        {
          "internalType": "uint256",
          "name": "",
          "type": "uint256"
        }
      ],
      "name": "klerosBadge",
      "outputs": [
        {
          "internalType": "bytes32",
          "name": "itemID",
          "type": "bytes32"
        },
        {
          "internalType": "address",
          "name": "callee",
          "type": "address"
        },
        {
          "internalType": "uint256",
          "name": "deposit",
          "type": "uint256"
        }
      ],
      "stateMutability": "view",
      "type": "function"
    },
    {
      "inputs": [
        {
          "internalType": "uint256",
          "name": "",
          "type": "uint256"
        }
      ],
      "name": "klerosBadgeModel",
      "outputs": [
        {
          "internalType": "address",
          "name": "tcrList",
          "type": "address"
        }
      ],
      "stateMutability": "view",
      "type": "function"
    },
    {
      "inputs": [
        {
          "internalType": "address",
          "name": "callee",
          "type": "address"
        },
        {
          "internalType": "uint256",
          "name": "badgeModelId",
          "type": "uint256"
        },
        {
          "internalType": "uint256",
          "name": "badgeId",
          "type": "uint256"
        },
        {
          "internalType": "bytes",
          "name": "data",
          "type": "bytes"
        }
      ],
      "name": "mint",
      "outputs": [
        {
          "internalType": "uint256",
          "name": "",
          "type": "uint256"
        }
      ],
      "stateMutability": "payable",
      "type": "function"
    },
    {
      "inputs": [
        {
          "internalType": "uint256",
          "name": "badgeModelId",
          "type": "uint256"
        }
      ],
      "name": "mintValue",
      "outputs": [
        {
          "internalType": "uint256",
          "name": "",
          "type": "uint256"
        }
      ],
      "stateMutability": "view",
      "type": "function"
    },
    {
      "inputs": [],
      "name": "proxiableUUID",
      "outputs": [
        {
          "internalType": "bytes32",
          "name": "",
          "type": "bytes32"
        }
      ],
      "stateMutability": "view",
      "type": "function"
    },
    {
      "inputs": [
        {
          "internalType": "bytes32",
          "name": "role",
          "type": "bytes32"
        },
        {
          "internalType": "address",
          "name": "account",
          "type": "address"
        }
      ],
      "name": "renounceRole",
      "outputs": [],
      "stateMutability": "nonpayable",
      "type": "function"
    },
    {
      "inputs": [
        {
          "internalType": "bytes32",
          "name": "role",
          "type": "bytes32"
        },
        {
          "internalType": "address",
          "name": "account",
          "type": "address"
        }
      ],
      "name": "revokeRole",
      "outputs": [],
      "stateMutability": "nonpayable",
      "type": "function"
    },
    {
      "inputs": [
        {
          "internalType": "bytes4",
          "name": "interfaceId",
          "type": "bytes4"
        }
      ],
      "name": "supportsInterface",
      "outputs": [
        {
          "internalType": "bool",
          "name": "",
          "type": "bool"
        }
      ],
      "stateMutability": "view",
      "type": "function"
    },
    {
      "inputs": [],
      "name": "tcrFactory",
      "outputs": [
        {
          "internalType": "address",
          "name": "",
          "type": "address"
        }
      ],
      "stateMutability": "view",
      "type": "function"
    },
    {
      "inputs": [],
      "name": "theBadge",
      "outputs": [
        {
          "internalType": "contract TheBadge",
          "name": "",
          "type": "address"
        }
      ],
      "stateMutability": "view",
      "type": "function"
    },
    {
      "inputs": [
        {
          "internalType": "address",
          "name": "newImplementation",
          "type": "address"
        }
      ],
      "name": "upgradeTo",
      "outputs": [],
      "stateMutability": "nonpayable",
      "type": "function"
    },
    {
      "inputs": [
        {
          "internalType": "address",
          "name": "newImplementation",
          "type": "address"
        },
        {
          "internalType": "bytes",
          "name": "data",
          "type": "bytes"
        }
      ],
      "name": "upgradeToAndCall",
      "outputs": [],
      "stateMutability": "payable",
      "type": "function"
    },
    {
      "stateMutability": "payable",
      "type": "receive"
    }
  ],
  "bytecode": "0x60a0604052306080523480156200001557600080fd5b50600054610100900460ff1615808015620000375750600054600160ff909116105b8062000067575062000054306200014160201b620016741760201c565b15801562000067575060005460ff166001145b620000cf5760405162461bcd60e51b815260206004820152602e60248201527f496e697469616c697a61626c653a20636f6e747261637420697320616c72656160448201526d191e481a5b9a5d1a585b1a5e995960921b606482015260840160405180910390fd5b6000805460ff191660011790558015620000f3576000805461ff0019166101001790555b80156200013a576000805461ff0019169055604051600181527f7f26b83ff96e1f2b6a682f133852f6798a09c465da95921460cefb38474024989060200160405180910390a15b5062000150565b6001600160a01b03163b151590565b608051612c8862000188600039600081816108060152818161084601528181610aa701528181610ae70152610b760152612c886000f3fe6080604052600436106101c65760003560e01c806377a3989e116100f7578063a217fddf11610095578063d7deba1511610064578063d7deba15146105b2578063e63ab1e9146105d2578063f72c0d8b14610606578063f8c8765e1461063a57600080fd5b8063a217fddf14610523578063caa39ec514610538578063d53913931461055e578063d547741f1461059257600080fd5b80637f345710116100d15780637f3457101461048c5780638f4e76b9146104c057806391d14854146104e35780639f780b1d1461050357600080fd5b806377a3989e1461041657806377addc42146104365780637eb7f1761461046c57600080fd5b806337a65d051161016457806362a2a47c1161013e57806362a2a47c14610377578063632f7c83146103ab5780636cc6cde1146103cb578063731133e91461040357600080fd5b806337a65d05146102e75780634f1ef2861461034f57806352d1902d1461036257600080fd5b80632f2ff15d116101a05780632f2ff15d1461026557806336568abe146102875780633659cfe6146102a7578063379607f5146102c757600080fd5b806301ffc9a7146101d257806322e900c214610207578063248a9ca31461022757600080fd5b366101cd57005b600080fd5b3480156101de57600080fd5b506101f26101ed366004612058565b61065a565b60405190151581526020015b60405180910390f35b34801561021357600080fd5b506101f2610222366004612082565b610691565b34801561023357600080fd5b50610257610242366004612082565b600090815260cd602052604090206001015490565b6040519081526020016101fe565b34801561027157600080fd5b506102856102803660046120c0565b61074f565b005b34801561029357600080fd5b506102856102a23660046120c0565b610779565b3480156102b357600080fd5b506102856102c23660046120f0565b6107fc565b3480156102d357600080fd5b506102856102e2366004612082565b6108db565b3480156102f357600080fd5b5061032c610302366004612082565b60046020526000908152604090208054600182015460029092015490916001600160a01b03169083565b604080519384526001600160a01b039092166020840152908201526060016101fe565b61028561035d366004612225565b610a9d565b34801561036e57600080fd5b50610257610b69565b34801561038357600080fd5b506102577f2dca0f5ce7e75a4b43fe2b0d6f5d0b7a2bf92ecf89f8f0aa17b8308b6703882181565b3480156103b757600080fd5b506102576103c6366004612082565b610c1c565b3480156103d757600080fd5b506001546103eb906001600160a01b031681565b6040516001600160a01b0390911681526020016101fe565b6102576104113660046122d0565b610d85565b34801561042257600080fd5b50610285610431366004612339565b610f35565b34801561044257600080fd5b506103eb610451366004612082565b6003602052600090815260409020546001600160a01b031681565b34801561047857600080fd5b50610257610487366004612082565b61123b565b34801561049857600080fd5b506102577f7804d923f43a17d325d77e781528e0793b2edd9890ab45fc64efd7b4b427744c81565b3480156104cc57600080fd5b506101f26104db3660046120c0565b600192915050565b3480156104ef57600080fd5b506101f26104fe3660046120c0565b6112cf565b34801561050f57600080fd5b506002546103eb906001600160a01b031681565b34801561052f57600080fd5b50610257600081565b34801561054457600080fd5b506000546103eb906201000090046001600160a01b031681565b34801561056a57600080fd5b506102577f9f2df0fed2c77648de5860a4cc508cd0818c85b8b8a1ab4ceeef8d981c8956a681565b34801561059e57600080fd5b506102856105ad3660046120c0565b6112fa565b3480156105be57600080fd5b506102576105cd366004612082565b61131f565b3480156105de57600080fd5b506102577f65d7a28e3265b37a6474929f336521b332c1681b933f6cb9f3376673440d862a81565b34801561061257600080fd5b506102577f189ab7a9244df0848122154315af71fe140f3db0fe014031783b0946b8c9d2e381565b34801561064657600080fd5b50610285610655366004612384565b6114b7565b60006001600160e01b03198216637965db0b60e01b148061068b57506301ffc9a760e01b6001600160e01b03198316145b92915050565b60008061069d83611683565b600084815260046020819052604080832080549151634aac84e560e01b8152928301919091529293506001600160a01b03841690634aac84e590602401606060405180830381865afa1580156106f7573d6000803e3d6000fd5b505050506040513d601f19601f8201168201806040525081019061071b91906123e0565b505090508060ff166001148061073457508060ff166003145b1561074457506001949350505050565b506000949350505050565b600082815260cd602052604090206001015461076a8161178d565b6107748383611797565b505050565b6001600160a01b03811633146107ee5760405162461bcd60e51b815260206004820152602f60248201527f416363657373436f6e74726f6c3a2063616e206f6e6c792072656e6f756e636560448201526e103937b632b9903337b91039b2b63360891b60648201526084015b60405180910390fd5b6107f8828261181d565b5050565b6001600160a01b037f00000000000000000000000000000000000000000000000000000000000000001630036108445760405162461bcd60e51b81526004016107e59061241d565b7f00000000000000000000000000000000000000000000000000000000000000006001600160a01b031661088d600080516020612c0c833981519152546001600160a01b031690565b6001600160a01b0316146108b35760405162461bcd60e51b81526004016107e590612469565b6108bc81611884565b604080516000808252602082019092526108d8918391906118ae565b50565b60006108e682611683565b6000838152600460208181526040928390208351606081018552815480825260018301546001600160a01b03908116948301949094526002909201548186015293516374e120b360e11b815292830152929350909183169063e9c2416690602401600060405180830381600087803b15801561096157600080fd5b505af1158015610975573d6000803e3d6000fd5b50505050478160400151111561099e576040516398e2a0bb60e01b815260040160405180910390fd5b604081810180516000918290526020840151925190926001600160a01b03169083908381818185875af1925050503d80600081146109f8576040519150601f19603f3d011682016040523d82523d6000602084013e6109fd565b606091505b5050905080610a4e5760405162461bcd60e51b815260206004820152601c60248201527f4661696c656420746f2072657475726e20746865206465706f7369740000000060448201526064016107e5565b8483602001516001600160a01b03167f9794db68af033346a63dbc4509364afc3a23201eced8a4f3bc64d029abfacc6584604051610a8e91815260200190565b60405180910390a35050505050565b6001600160a01b037f0000000000000000000000000000000000000000000000000000000000000000163003610ae55760405162461bcd60e51b81526004016107e59061241d565b7f00000000000000000000000000000000000000000000000000000000000000006001600160a01b0316610b2e600080516020612c0c833981519152546001600160a01b031690565b6001600160a01b031614610b545760405162461bcd60e51b81526004016107e590612469565b610b5d82611884565b6107f8828260016118ae565b6000306001600160a01b037f00000000000000000000000000000000000000000000000000000000000000001614610c095760405162461bcd60e51b815260206004820152603860248201527f555550535570677261646561626c653a206d757374206e6f742062652063616c60448201527f6c6564207468726f7567682064656c656761746563616c6c000000000000000060648201526084016107e5565b50600080516020612c0c83398151915290565b6000818152600360205260408082208054600154835163063d63db60e11b8152935192936001600160a01b039283169386939092169163f7434ea9918591630c7ac7b69160048082019288929091908290030181865afa158015610c84573d6000803e3d6000fd5b505050506040513d6000823e601f3d908101601f19168201604052610cac919081019061251e565b6040518263ffffffff1660e01b8152600401610cc8919061257e565b602060405180830381865afa158015610ce5573d6000803e3d6000fd5b505050506040513d601f19601f82011682018060405250810190610d099190612591565b90506000826001600160a01b031663bb0b86ff6040518163ffffffff1660e01b8152600401602060405180830381865afa158015610d4b573d6000803e3d6000fd5b505050506040513d601f19601f82011682018060405250810190610d6f9190612591565b9050610d7b81836125c0565b9695505050505050565b600080610d9186610c1c565b9050803414610db357604051637bcb3e5760e01b815260040160405180910390fd5b6000868152600360205260408120805490916001600160a01b0390911690610ddd868801886125f3565b80516040516309fa7ca560e21b81529192506001600160a01b038416916327e9f294913491610e0f919060040161257e565b6000604051808303818588803b158015610e2857600080fd5b505af1158015610e3c573d6000803e3d6000fd5b505050505060008160000151604051602001610e589190612675565b60405160208183030381529060405280519060200120905060405180606001604052808281526020018c6001600160a01b0316815260200134815250600460008b81526020019081526020016000206000820151816000015560208201518160010160006101000a8154816001600160a01b0302191690836001600160a01b0316021790555060408201518160020155905050887fdd7e1dd9a30843ba8c2619a3c5ce27830ad90612bad48feeb549fc94114d62618360000151604051610f1f919061257e565b60405180910390a29a9950505050505050505050565b6000546201000090046001600160a01b03163314610f665760405163942e92c760e01b815260040160405180910390fd5b600083815260036020526040902080546001600160a01b031615610f9d57604051634d1068bd60e11b815260040160405180910390fd5b6002546001600160a01b03166000610fb78486018661270c565b60015460408083015190519293506001600160a01b038086169363d8dcbd279390911691610feb9160200190815260200190565b60408051601f1981840301815282825260608701516020840152910160408051601f19818403018152908290526110259291602001612803565b60408051808303601f1901815290829052608086015160a0870151875160e0808a015160c08b01516101008c015160208d0151938b901b6001600160e01b031916895261107c999860009796959490600401612855565b600060405180830381600087803b15801561109657600080fd5b505af11580156110aa573d6000803e3d6000fd5b5050505060006001836001600160a01b03166306661abd6040518163ffffffff1660e01b8152600401602060405180830381865afa1580156110f0573d6000803e3d6000fd5b505050506040513d601f19601f820116820180604052508101906111149190612591565b61111e9190612918565b60405163a2f7b3a560e01b8152600481018290529091506000906001600160a01b0385169063a2f7b3a5906024016020604051808303816000875af115801561116b573d6000803e3d6000fd5b505050506040513d601f19601f8201168201806040525081019061118f919061292b565b90506001600160a01b0381166111b857604051637788791560e11b815260040160405180910390fd5b60408051602080820183526001600160a01b0384811680845260008d8152600390935291849020925183546001600160a01b0319169116179091556080850151915190918a917f4cd197370ffd49fb5c948e4c4502bf4e405168fa20b442c88fdb46ec90cdcf8e916112299161257e565b60405180910390a35050505050505050565b60008061124783611683565b9050600061125484611a19565b90506000826001600160a01b031663c2f2beea6040518163ffffffff1660e01b8152600401602060405180830381865afa158015611296573d6000803e3d6000fd5b505050506040513d601f19601f820116820180604052508101906112ba9190612591565b90506112c68282611bf2565b95945050505050565b600091825260cd602090815260408084206001600160a01b0393909316845291905290205460ff1690565b600082815260cd60205260409020600101546113158161178d565b610774838361181d565b60008061132b83611683565b9050600061133884611a19565b60008581526004602081815260408084208151606081018352815480825260018301546001600160a01b0390811695830195909552600290920154818401529151634aac84e560e01b815293840152939450851690634aac84e590602401606060405180830381865afa1580156113b3573d6000803e3d6000fd5b505050506040513d601f19601f820116820180604052508101906113d791906123e0565b505090508060ff1660010361145257610d7b846001600160a01b031663a37b6ad46040518163ffffffff1660e01b8152600401602060405180830381865afa158015611427573d6000803e3d6000fd5b505050506040513d601f19601f8201168201806040525081019061144b9190612591565b8490611bf2565b8060ff1660030361149e57610d7b846001600160a01b031663787471a96040518163ffffffff1660e01b8152600401602060405180830381865afa158015611427573d6000803e3d6000fd5b6040516305e5cf6360e41b815260040160405180910390fd5b600054610100900460ff16158080156114d75750600054600160ff909116105b806114f15750303b1580156114f1575060005460ff166001145b6115545760405162461bcd60e51b815260206004820152602e60248201527f496e697469616c697a61626c653a20636f6e747261637420697320616c72656160448201526d191e481a5b9a5d1a585b1a5e995960921b60648201526084016107e5565b6000805460ff191660011790558015611577576000805461ff0019166101001790555b611582600086611797565b6115ac7f65d7a28e3265b37a6474929f336521b332c1681b933f6cb9f3376673440d862a33611797565b6115d67f189ab7a9244df0848122154315af71fe140f3db0fe014031783b0946b8c9d2e333611797565b600080546001600160a01b03808716620100000262010000600160b01b031990921691909117909155600180548583166001600160a01b0319918216179091556002805492851692909116919091179055801561166d576000805461ff0019169055604051600181527f7f26b83ff96e1f2b6a682f133852f6798a09c465da95921460cefb38474024989060200160405180910390a15b5050505050565b6001600160a01b03163b151590565b6000805460405163c0f6faed60e01b81526004810184905282916201000090046001600160a01b03169063c0f6faed90602401608060405180830381865afa1580156116d3573d6000803e3d6000fd5b505050506040513d601f19601f820116820180604052508101906116f79190612958565b505050600081815260036020908152604091829020825191820190925290546001600160a01b0316808252919250906117855760405162461bcd60e51b815260206004820152602a60248201527f56616c6964206b6c65726f7342616467654d6f64656c496420726571756972656044820152696420666f72205443522160b01b60648201526084016107e5565b519392505050565b6108d88133611c1b565b6117a182826112cf565b6107f857600082815260cd602090815260408083206001600160a01b03851684529091529020805460ff191660011790556117d93390565b6001600160a01b0316816001600160a01b0316837f2f8788117e7eff1d82e926ec794901d17c78024a50270940304540a733656f0d60405160405180910390a45050565b61182782826112cf565b156107f857600082815260cd602090815260408083206001600160a01b0385168085529252808320805460ff1916905551339285917ff6391f5c32d9c69d2a47ea670b442974b53935d1edc7fd64eb21e047a839171b9190a45050565b7f189ab7a9244df0848122154315af71fe140f3db0fe014031783b0946b8c9d2e36107f88161178d565b7f4910fdfa16fed3260ed0e7147f7cc6da11a60208b5b9406d12a635614ffd91435460ff16156118e15761077483611c74565b826001600160a01b03166352d1902d6040518163ffffffff1660e01b8152600401602060405180830381865afa92505050801561193b575060408051601f3d908101601f1916820190925261193891810190612591565b60015b61199e5760405162461bcd60e51b815260206004820152602e60248201527f45524331393637557067726164653a206e657720696d706c656d656e7461746960448201526d6f6e206973206e6f74205555505360901b60648201526084016107e5565b600080516020612c0c8339815191528114611a0d5760405162461bcd60e51b815260206004820152602960248201527f45524331393637557067726164653a20756e737570706f727465642070726f786044820152681a58589b195555525160ba1b60648201526084016107e5565b50610774838383611d10565b600081815260046020908152604080832081516060810183528154815260018201546001600160a01b031693810193909352600201549082015281611a5d84611683565b82516040516348f343f360e01b815260048101919091529091506000906001600160a01b038316906348f343f390602401606060405180830381865afa158015611aab573d6000803e3d6000fd5b505050506040513d601f19601f82011682018060405250810190611acf91906129a1565b925050506000600182611ae29190612a13565b8451604051635fde7f8d60e11b815260048101919091526001600160781b03919091166024820181905291506000906001600160a01b0385169063bfbcff1a90604401600060405180830381865afa158015611b42573d6000803e3d6000fd5b505050506040513d6000823e601f3d908101601f19168201604052611b6a9190810190612a54565b5060015460405163f7434ea960e01b8152919a506001600160a01b0316985063f7434ea99750611ba69650899550600401935061257e92505050565b602060405180830381865afa158015611bc3573d6000803e3d6000fd5b505050506040513d601f19601f82011682018060405250810190611be79190612591565b979650505050505050565b600080611bff83856125c0565b905083811015611c1157600019611c13565b805b949350505050565b611c2582826112cf565b6107f857611c3281611d3b565b611c3d836020611d4d565b604051602001611c4e929190612b52565b60408051601f198184030181529082905262461bcd60e51b82526107e59160040161257e565b6001600160a01b0381163b611ce15760405162461bcd60e51b815260206004820152602d60248201527f455243313936373a206e657720696d706c656d656e746174696f6e206973206e60448201526c1bdd08184818dbdb9d1c9858dd609a1b60648201526084016107e5565b600080516020612c0c83398151915280546001600160a01b0319166001600160a01b0392909216919091179055565b611d1983611ee8565b600082511180611d265750805b1561077457611d358383611f28565b50505050565b606061068b6001600160a01b03831660145b60606000611d5c836002612bc7565b611d679060026125c0565b6001600160401b03811115611d7e57611d7e61210d565b6040519080825280601f01601f191660200182016040528015611da8576020820181803683370190505b509050600360fc1b81600081518110611dc357611dc3612bde565b60200101906001600160f81b031916908160001a905350600f60fb1b81600181518110611df257611df2612bde565b60200101906001600160f81b031916908160001a9053506000611e16846002612bc7565b611e219060016125c0565b90505b6001811115611e99576f181899199a1a9b1b9c1cb0b131b232b360811b85600f1660108110611e5557611e55612bde565b1a60f81b828281518110611e6b57611e6b612bde565b60200101906001600160f81b031916908160001a90535060049490941c93611e9281612bf4565b9050611e24565b508315611c115760405162461bcd60e51b815260206004820181905260248201527f537472696e67733a20686578206c656e67746820696e73756666696369656e7460448201526064016107e5565b611ef181611c74565b6040516001600160a01b038216907fbc7cd75a20ee27fd9adebab32041f755214dbc6bffa90cc0225b39da2e5c2d3b90600090a250565b60606001600160a01b0383163b611f905760405162461bcd60e51b815260206004820152602660248201527f416464726573733a2064656c65676174652063616c6c20746f206e6f6e2d636f6044820152651b9d1c9858dd60d21b60648201526084016107e5565b600080846001600160a01b031684604051611fab9190612675565b600060405180830381855af49150503d8060008114611fe6576040519150601f19603f3d011682016040523d82523d6000602084013e611feb565b606091505b50915091506112c68282604051806060016040528060278152602001612c2c602791396060831561201d575081612027565b612027838361202e565b9392505050565b81511561203e5781518083602001fd5b8060405162461bcd60e51b81526004016107e5919061257e565b60006020828403121561206a57600080fd5b81356001600160e01b031981168114611c1157600080fd5b60006020828403121561209457600080fd5b5035919050565b6001600160a01b03811681146108d857600080fd5b80356120bb8161209b565b919050565b600080604083850312156120d357600080fd5b8235915060208301356120e58161209b565b809150509250929050565b60006020828403121561210257600080fd5b8135611c118161209b565b634e487b7160e01b600052604160045260246000fd5b60405161012081016001600160401b03811182821017156121465761214661210d565b60405290565b604051608081016001600160401b03811182821017156121465761214661210d565b604051606081016001600160401b03811182821017156121465761214661210d565b604051601f8201601f191681016001600160401b03811182821017156121b8576121b861210d565b604052919050565b60006001600160401b038211156121d9576121d961210d565b50601f01601f191660200190565b60006121fa6121f5846121c0565b612190565b905082815283838301111561220e57600080fd5b828260208301376000602084830101529392505050565b6000806040838503121561223857600080fd5b82356122438161209b565b915060208301356001600160401b0381111561225e57600080fd5b8301601f8101851361226f57600080fd5b61227e858235602084016121e7565b9150509250929050565b60008083601f84011261229a57600080fd5b5081356001600160401b038111156122b157600080fd5b6020830191508360208285010111156122c957600080fd5b9250929050565b6000806000806000608086880312156122e857600080fd5b85356122f38161209b565b9450602086013593506040860135925060608601356001600160401b0381111561231c57600080fd5b61232888828901612288565b969995985093965092949392505050565b60008060006040848603121561234e57600080fd5b8335925060208401356001600160401b0381111561236b57600080fd5b61237786828701612288565b9497909650939450505050565b6000806000806080858703121561239a57600080fd5b84356123a58161209b565b935060208501356123b58161209b565b925060408501356123c58161209b565b915060608501356123d58161209b565b939692955090935050565b6000806000606084860312156123f557600080fd5b835160ff8116811461240657600080fd5b602085015160409095015190969495509392505050565b6020808252602c908201527f46756e6374696f6e206d7573742062652063616c6c6564207468726f7567682060408201526b19195b1959d85d1958d85b1b60a21b606082015260800190565b6020808252602c908201527f46756e6374696f6e206d7573742062652063616c6c6564207468726f7567682060408201526b6163746976652070726f787960a01b606082015260800190565b60005b838110156124d05781810151838201526020016124b8565b50506000910152565b600082601f8301126124ea57600080fd5b81516124f86121f5826121c0565b81815284602083860101111561250d57600080fd5b611c138260208301602087016124b5565b60006020828403121561253057600080fd5b81516001600160401b0381111561254657600080fd5b611c13848285016124d9565b6000815180845261256a8160208601602086016124b5565b601f01601f19169290920160200192915050565b6020815260006120276020830184612552565b6000602082840312156125a357600080fd5b5051919050565b634e487b7160e01b600052601160045260246000fd5b8082018082111561068b5761068b6125aa565b600082601f8301126125e457600080fd5b612027838335602085016121e7565b60006020828403121561260557600080fd5b81356001600160401b038082111561261c57600080fd5b908301906020828603121561263057600080fd5b60405160208101818110838211171561264b5761264b61210d565b60405282358281111561265d57600080fd5b612669878286016125d3565b82525095945050505050565b600082516126878184602087016124b5565b9190910192915050565b600082601f8301126126a257600080fd5b6126aa61214c565b8060808401858111156126bc57600080fd5b845b818110156126d65780358452602093840193016126be565b509095945050505050565b600082601f8301126126f257600080fd5b6126fa61216e565b8060608401858111156126bc57600080fd5b60006020828403121561271e57600080fd5b81356001600160401b038082111561273557600080fd5b908301906101c0828603121561274a57600080fd5b612752612123565b61275b836120b0565b8152612769602084016120b0565b6020820152604083013560408201526060830135606082015260808301358281111561279457600080fd5b6127a0878286016125d3565b60808301525060a0830135828111156127b857600080fd5b6127c4878286016125d3565b60a08301525060c083013560c08201526127e18660e08501612691565b60e08201526127f48661016085016126e1565b61010082015295945050505050565b600083516128158184602088016124b5565b8351908301906128298183602088016124b5565b01949350505050565b8060005b6003811015611d35578151845260209384019390910190600101612836565b6001600160a01b038b811682526101e060208084018290526000929061287d8584018f612552565b9250818d1660408601528483036060860152612899838d612552565b925084830360808601526128ad838c612552565b9350818a1660a086015260c08501925088915060005b60048110156128e0578251845292810192918101916001016128c3565b50505050846101408301526128f9610160830185612832565b6001600160a01b0383166101c08301529b9a5050505050505050505050565b8181038181111561068b5761068b6125aa565b60006020828403121561293d57600080fd5b8151611c118161209b565b805180151581146120bb57600080fd5b6000806000806080858703121561296e57600080fd5b8451935060208501516129808161209b565b6040860151909350915061299660608601612948565b905092959194509250565b6000806000606084860312156129b657600080fd5b8351600481106129c557600080fd5b60208501519093506fffffffffffffffffffffffffffffffff811681146129eb57600080fd5b60408501519092506001600160781b0381168114612a0857600080fd5b809150509250925092565b6001600160781b03828116828216039080821115612a3357612a336125aa565b5092915050565b8051600381106120bb57600080fd5b80516120bb8161209b565b6000806000806000806000806000806101808b8d031215612a7457600080fd5b612a7d8b612948565b99506020808c0151995060408c01519850612a9a60608d01612948565b97508c609f8d0112612aab57600080fd5b612ab361216e565b8060e08e018f811115612ac557600080fd5b60808f015b81811015612aea578051612add8161209b565b8452928401928401612aca565b50519098509650612b019150506101008c01612a3a565b9350612b106101208c01612a49565b92506101408b01516001600160401b03811115612b2c57600080fd5b612b388d828e016124d9565b9250506101608b015190509295989b9194979a5092959850565b7f416363657373436f6e74726f6c3a206163636f756e7420000000000000000000815260008351612b8a8160178501602088016124b5565b7001034b99036b4b9b9b4b733903937b6329607d1b6017918401918201528351612bbb8160288401602088016124b5565b01602801949350505050565b808202811582820484141761068b5761068b6125aa565b634e487b7160e01b600052603260045260246000fd5b600081612c0357612c036125aa565b50600019019056fe360894a13ba1a3210667c828492db98dca3e2076cc3735a920a3ca505d382bbc416464726573733a206c6f772d6c6576656c2064656c65676174652063616c6c206661696c6564a264697066735822122070b9c10368508fd8a2a5e3df33ba97db616a93f04198d422d79a431a9b7f778164736f6c63430008110033",
  "linkReferences": {},
  "deployedLinkReferences": {}
}