{
  "_format": "hh-sol-artifact-1",
  "contractName": "KlerosBadgeModelController",
  "sourceName": "src/contracts/badgeModelControllers/KlerosBadgeModelController.sol",
  "abi": [
    {
      "inputs": [],
      "stateMutability": "nonpayable",
      "type": "constructor"
    },
    {
      "inputs": [],
      "name": "AccessControlBadConfirmation",
      "type": "error"
    },
    {
      "inputs": [
        {
          "internalType": "address",
          "name": "account",
          "type": "address"
        },
        {
          "internalType": "bytes32",
          "name": "neededRole",
          "type": "bytes32"
        }
      ],
      "name": "AccessControlUnauthorizedAccount",
      "type": "error"
    },
    {
      "inputs": [
        {
          "internalType": "address",
          "name": "target",
          "type": "address"
        }
      ],
      "name": "AddressEmptyCode",
      "type": "error"
    },
    {
      "inputs": [
        {
          "internalType": "address",
          "name": "implementation",
          "type": "address"
        }
      ],
      "name": "ERC1967InvalidImplementation",
      "type": "error"
    },
    {
      "inputs": [],
      "name": "ERC1967NonPayable",
      "type": "error"
    },
    {
      "inputs": [],
      "name": "FailedInnerCall",
      "type": "error"
    },
    {
      "inputs": [],
      "name": "InvalidInitialization",
      "type": "error"
    },
    {
      "inputs": [],
      "name": "KlerosBadgeModelController__badge__depositReturnFailed",
      "type": "error"
    },
    {
      "inputs": [],
      "name": "KlerosBadgeModelController__badge__klerosBadgeNotFound",
      "type": "error"
    },
    {
      "inputs": [],
      "name": "KlerosBadgeModelController__badge__notInChallengeableStatus",
      "type": "error"
    },
    {
      "inputs": [],
      "name": "KlerosBadgeModelController__badge__tcrKlerosBadgeNotFound",
      "type": "error"
    },
    {
      "inputs": [],
      "name": "KlerosBadgeModelController__claimBadge_insufficientBalance",
      "type": "error"
    },
    {
      "inputs": [],
      "name": "KlerosBadgeModelController__createBadgeModel_badgeModelAlreadyCreated",
      "type": "error"
    },
    {
      "inputs": [],
      "name": "KlerosBadgeModelController__mintBadge_wrongValue",
      "type": "error"
    },
    {
      "inputs": [],
      "name": "KlerosBadgeModelController__onlyTheBadge_senderNotTheBadge",
      "type": "error"
    },
    {
      "inputs": [],
      "name": "KlerosBadgeModelController__onlyTheBadge_senderNotTheBadgeModels",
      "type": "error"
    },
    {
      "inputs": [],
      "name": "KlerosBadgeModelController__onlyTheBadge_senderNotTheBadgeUsers",
      "type": "error"
    },
    {
      "inputs": [],
      "name": "KlerosBadgeModelController__user__userNotFound",
      "type": "error"
    },
    {
      "inputs": [],
      "name": "KlerosBadgeModelController__user__userVerificationAlreadyStarted",
      "type": "error"
    },
    {
      "inputs": [],
      "name": "KlerosBadgeModelController__user__userVerificationNotStarted",
      "type": "error"
    },
    {
      "inputs": [],
      "name": "NotInitializing",
      "type": "error"
    },
    {
      "inputs": [
        {
          "internalType": "address",
          "name": "owner",
          "type": "address"
        }
      ],
      "name": "OwnableInvalidOwner",
      "type": "error"
    },
    {
      "inputs": [
        {
          "internalType": "address",
          "name": "account",
          "type": "address"
        }
      ],
      "name": "OwnableUnauthorizedAccount",
      "type": "error"
    },
    {
      "inputs": [],
      "name": "ReentrancyGuardReentrantCall",
      "type": "error"
    },
    {
      "inputs": [],
      "name": "UUPSUnauthorizedCallContext",
      "type": "error"
    },
    {
      "inputs": [
        {
          "internalType": "bytes32",
          "name": "slot",
          "type": "bytes32"
        }
      ],
      "name": "UUPSUnsupportedProxiableUUID",
      "type": "error"
    },
    {
      "anonymous": false,
      "inputs": [
        {
          "indexed": true,
          "internalType": "address",
          "name": "recipient",
          "type": "address"
        },
        {
          "indexed": false,
          "internalType": "uint256",
          "name": "amount",
          "type": "uint256"
        },
        {
          "indexed": true,
          "internalType": "uint256",
          "name": "badgeId",
          "type": "uint256"
        }
      ],
      "name": "DepositReturned",
      "type": "event"
    },
    {
      "anonymous": false,
      "inputs": [
        {
          "indexed": true,
          "internalType": "address",
          "name": "admin",
          "type": "address"
        },
        {
          "indexed": true,
          "internalType": "address",
          "name": "tcrFactory",
          "type": "address"
        }
      ],
      "name": "Initialize",
      "type": "event"
    },
    {
      "anonymous": false,
      "inputs": [
        {
          "indexed": false,
          "internalType": "uint64",
          "name": "version",
          "type": "uint64"
        }
      ],
      "name": "Initialized",
      "type": "event"
    },
    {
      "anonymous": false,
      "inputs": [
        {
          "indexed": true,
          "internalType": "uint256",
          "name": "badgeId",
          "type": "uint256"
        },
        {
          "indexed": true,
          "internalType": "address",
          "name": "challenger",
          "type": "address"
        },
        {
          "indexed": false,
          "internalType": "string",
          "name": "evidence",
          "type": "string"
        }
      ],
      "name": "KlerosBadgeChallenged",
      "type": "event"
    },
    {
      "anonymous": false,
      "inputs": [
        {
          "indexed": true,
          "internalType": "uint256",
          "name": "badgeId",
          "type": "uint256"
        },
        {
          "indexed": true,
          "internalType": "address",
          "name": "challenger",
          "type": "address"
        },
        {
          "indexed": false,
          "internalType": "string",
          "name": "evidence",
          "type": "string"
        }
      ],
      "name": "KlerosChallengeEvidenceAdded",
      "type": "event"
    },
    {
      "anonymous": false,
      "inputs": [
        {
          "indexed": true,
          "internalType": "uint256",
          "name": "badgeId",
          "type": "uint256"
        },
        {
          "indexed": false,
          "internalType": "string",
          "name": "evidence",
          "type": "string"
        }
      ],
      "name": "MintKlerosBadge",
      "type": "event"
    },
    {
      "anonymous": false,
      "inputs": [
        {
          "indexed": true,
          "internalType": "uint256",
          "name": "badgeModelId",
          "type": "uint256"
        },
        {
          "indexed": true,
          "internalType": "address",
          "name": "tcrAddress",
          "type": "address"
        },
        {
          "indexed": false,
          "internalType": "string",
          "name": "registrationMetaEvidence",
          "type": "string"
        },
        {
          "indexed": false,
          "internalType": "string",
          "name": "clearingMetaEvidence",
          "type": "string"
        }
      ],
      "name": "NewKlerosBadgeModel",
      "type": "event"
    },
    {
      "anonymous": false,
      "inputs": [
        {
          "indexed": true,
          "internalType": "address",
          "name": "previousOwner",
          "type": "address"
        },
        {
          "indexed": true,
          "internalType": "address",
          "name": "newOwner",
          "type": "address"
        }
      ],
      "name": "OwnershipTransferred",
      "type": "event"
    },
    {
      "anonymous": false,
      "inputs": [],
      "name": "ProtocolSettingsUpdated",
      "type": "event"
    },
    {
      "anonymous": false,
      "inputs": [
        {
          "indexed": true,
          "internalType": "bytes32",
          "name": "role",
          "type": "bytes32"
        },
        {
          "indexed": true,
          "internalType": "bytes32",
          "name": "previousAdminRole",
          "type": "bytes32"
        },
        {
          "indexed": true,
          "internalType": "bytes32",
          "name": "newAdminRole",
          "type": "bytes32"
        }
      ],
      "name": "RoleAdminChanged",
      "type": "event"
    },
    {
      "anonymous": false,
      "inputs": [
        {
          "indexed": true,
          "internalType": "bytes32",
          "name": "role",
          "type": "bytes32"
        },
        {
          "indexed": true,
          "internalType": "address",
          "name": "account",
          "type": "address"
        },
        {
          "indexed": true,
          "internalType": "address",
          "name": "sender",
          "type": "address"
        }
      ],
      "name": "RoleGranted",
      "type": "event"
    },
    {
      "anonymous": false,
      "inputs": [
        {
          "indexed": true,
          "internalType": "bytes32",
          "name": "role",
          "type": "bytes32"
        },
        {
          "indexed": true,
          "internalType": "address",
          "name": "account",
          "type": "address"
        },
        {
          "indexed": true,
          "internalType": "address",
          "name": "sender",
          "type": "address"
        }
      ],
      "name": "RoleRevoked",
      "type": "event"
    },
    {
      "anonymous": false,
      "inputs": [
        {
          "indexed": true,
          "internalType": "address",
          "name": "implementation",
          "type": "address"
        }
      ],
      "name": "Upgraded",
      "type": "event"
    },
    {
      "inputs": [],
      "name": "CLAIMER_ROLE",
      "outputs": [
        {
          "internalType": "bytes32",
          "name": "",
          "type": "bytes32"
        }
      ],
      "stateMutability": "view",
      "type": "function"
    },
    {
      "inputs": [],
      "name": "DEFAULT_ADMIN_ROLE",
      "outputs": [
        {
          "internalType": "bytes32",
          "name": "",
          "type": "bytes32"
        }
      ],
      "stateMutability": "view",
      "type": "function"
    },
    {
      "inputs": [],
      "name": "PAUSER_ROLE",
      "outputs": [
        {
          "internalType": "bytes32",
          "name": "",
          "type": "bytes32"
        }
      ],
      "stateMutability": "view",
      "type": "function"
    },
    {
      "inputs": [],
      "name": "UPGRADER_ROLE",
      "outputs": [
        {
          "internalType": "bytes32",
          "name": "",
          "type": "bytes32"
        }
      ],
      "stateMutability": "view",
      "type": "function"
    },
    {
      "inputs": [],
      "name": "UPGRADE_INTERFACE_VERSION",
      "outputs": [
        {
          "internalType": "string",
          "name": "",
          "type": "string"
        }
      ],
      "stateMutability": "view",
      "type": "function"
    },
    {
      "inputs": [],
      "name": "URI_SETTER_ROLE",
      "outputs": [
        {
          "internalType": "bytes32",
          "name": "",
          "type": "bytes32"
        }
      ],
      "stateMutability": "view",
      "type": "function"
    },
    {
      "inputs": [],
      "name": "USER_MANAGER_ROLE",
      "outputs": [
        {
          "internalType": "bytes32",
          "name": "",
          "type": "bytes32"
        }
      ],
      "stateMutability": "view",
      "type": "function"
    },
    {
      "inputs": [],
      "name": "VERIFIER_ROLE",
      "outputs": [
        {
          "internalType": "bytes32",
          "name": "",
          "type": "bytes32"
        }
      ],
      "stateMutability": "view",
      "type": "function"
    },
    {
      "inputs": [
        {
          "internalType": "uint256",
          "name": "badgeId",
          "type": "uint256"
        },
        {
          "internalType": "bytes",
          "name": "data",
          "type": "bytes"
        },
        {
          "internalType": "address",
          "name": "caller",
          "type": "address"
        }
      ],
      "name": "challenge",
      "outputs": [],
      "stateMutability": "payable",
      "type": "function"
    },
    {
      "inputs": [
        {
          "internalType": "uint256",
          "name": "badgeId",
          "type": "uint256"
        },
        {
          "internalType": "bytes",
          "name": "",
          "type": "bytes"
        },
        {
          "internalType": "address",
          "name": "",
          "type": "address"
        }
      ],
      "name": "claim",
      "outputs": [
        {
          "internalType": "address",
          "name": "",
          "type": "address"
        }
      ],
      "stateMutability": "nonpayable",
      "type": "function"
    },
    {
      "inputs": [
        {
          "internalType": "address",
          "name": "callee",
          "type": "address"
        },
        {
          "internalType": "uint256",
          "name": "badgeModelId",
          "type": "uint256"
        },
        {
          "internalType": "bytes",
          "name": "data",
          "type": "bytes"
        }
      ],
      "name": "createBadgeModel",
      "outputs": [],
      "stateMutability": "nonpayable",
      "type": "function"
    },
    {
      "inputs": [
        {
          "internalType": "address",
          "name": "_user",
          "type": "address"
        },
        {
          "internalType": "bool",
          "name": "verify",
          "type": "bool"
        }
      ],
      "name": "executeUserVerification",
      "outputs": [],
      "stateMutability": "nonpayable",
      "type": "function"
    },
    {
      "inputs": [
        {
          "internalType": "uint256",
          "name": "badgeId",
          "type": "uint256"
        }
      ],
      "name": "getChallengeDepositValue",
      "outputs": [
        {
          "internalType": "uint256",
          "name": "",
          "type": "uint256"
        }
      ],
      "stateMutability": "view",
      "type": "function"
    },
    {
      "inputs": [
        {
          "internalType": "uint256",
          "name": "badgeId",
          "type": "uint256"
        }
      ],
      "name": "getRemovalDepositValue",
      "outputs": [
        {
          "internalType": "uint256",
          "name": "",
          "type": "uint256"
        }
      ],
      "stateMutability": "view",
      "type": "function"
    },
    {
      "inputs": [
        {
          "internalType": "bytes32",
          "name": "role",
          "type": "bytes32"
        }
      ],
      "name": "getRoleAdmin",
      "outputs": [
        {
          "internalType": "bytes32",
          "name": "",
          "type": "bytes32"
        }
      ],
      "stateMutability": "view",
      "type": "function"
    },
    {
      "inputs": [],
      "name": "getVerifyUserProtocolFee",
      "outputs": [
        {
          "internalType": "uint256",
          "name": "",
          "type": "uint256"
        }
      ],
      "stateMutability": "view",
      "type": "function"
    },
    {
      "inputs": [
        {
          "internalType": "bytes32",
          "name": "role",
          "type": "bytes32"
        },
        {
          "internalType": "address",
          "name": "account",
          "type": "address"
        }
      ],
      "name": "grantRole",
      "outputs": [],
      "stateMutability": "nonpayable",
      "type": "function"
    },
    {
      "inputs": [
        {
          "internalType": "bytes32",
          "name": "role",
          "type": "bytes32"
        },
        {
          "internalType": "address",
          "name": "account",
          "type": "address"
        }
      ],
      "name": "hasRole",
      "outputs": [
        {
          "internalType": "bool",
          "name": "",
          "type": "bool"
        }
      ],
      "stateMutability": "view",
      "type": "function"
    },
    {
      "inputs": [
        {
          "internalType": "address",
          "name": "admin",
          "type": "address"
        },
        {
          "internalType": "address",
          "name": "_theBadge",
          "type": "address"
        },
        {
          "internalType": "address",
          "name": "_theBadgeModels",
          "type": "address"
        },
        {
          "internalType": "address",
          "name": "_theBadgeUsers",
          "type": "address"
        },
        {
          "internalType": "address",
          "name": "_klerosBadgeModelControllerStore",
          "type": "address"
        }
      ],
      "name": "initialize",
      "outputs": [],
      "stateMutability": "nonpayable",
      "type": "function"
    },
    {
      "inputs": [
        {
          "internalType": "uint256",
          "name": "badgeId",
          "type": "uint256"
        }
      ],
      "name": "isAssetActive",
      "outputs": [
        {
          "internalType": "bool",
          "name": "",
          "type": "bool"
        }
      ],
      "stateMutability": "view",
      "type": "function"
    },
    {
      "inputs": [
        {
          "internalType": "uint256",
          "name": "badgeId",
          "type": "uint256"
        }
      ],
      "name": "isClaimable",
      "outputs": [
        {
          "internalType": "bool",
          "name": "",
          "type": "bool"
        }
      ],
      "stateMutability": "view",
      "type": "function"
    },
    {
      "inputs": [
        {
          "internalType": "uint256",
          "name": "",
          "type": "uint256"
        },
        {
          "internalType": "address",
          "name": "",
          "type": "address"
        }
      ],
      "name": "isMintableToController",
      "outputs": [
        {
          "internalType": "bool",
          "name": "",
          "type": "bool"
        }
      ],
      "stateMutability": "pure",
      "type": "function"
    },
    {
      "inputs": [
        {
          "internalType": "address",
          "name": "_user",
          "type": "address"
        }
      ],
      "name": "isUserVerified",
      "outputs": [
        {
          "internalType": "bool",
          "name": "",
          "type": "bool"
        }
      ],
      "stateMutability": "view",
      "type": "function"
    },
    {
      "inputs": [],
      "name": "klerosBadgeModelControllerStore",
      "outputs": [
        {
          "internalType": "contract KlerosBadgeModelControllerStore",
          "name": "",
          "type": "address"
        }
      ],
      "stateMutability": "view",
      "type": "function"
    },
    {
      "inputs": [
        {
          "internalType": "address",
          "name": "callee",
          "type": "address"
        },
        {
          "internalType": "uint256",
          "name": "badgeModelId",
          "type": "uint256"
        },
        {
          "internalType": "uint256",
          "name": "badgeId",
          "type": "uint256"
        },
        {
          "internalType": "bytes",
          "name": "data",
          "type": "bytes"
        },
        {
          "internalType": "address",
          "name": "destinationAddress",
          "type": "address"
        }
      ],
      "name": "mint",
      "outputs": [
        {
          "internalType": "uint256",
          "name": "",
          "type": "uint256"
        }
      ],
      "stateMutability": "payable",
      "type": "function"
    },
    {
      "inputs": [
        {
          "internalType": "uint256",
          "name": "badgeModelId",
          "type": "uint256"
        }
      ],
      "name": "mintValue",
      "outputs": [
        {
          "internalType": "uint256",
          "name": "",
          "type": "uint256"
        }
      ],
      "stateMutability": "view",
      "type": "function"
    },
    {
      "inputs": [],
      "name": "owner",
      "outputs": [
        {
          "internalType": "address",
          "name": "",
          "type": "address"
        }
      ],
      "stateMutability": "view",
      "type": "function"
    },
    {
      "inputs": [],
      "name": "proxiableUUID",
      "outputs": [
        {
          "internalType": "bytes32",
          "name": "",
          "type": "bytes32"
        }
      ],
      "stateMutability": "view",
      "type": "function"
    },
    {
      "inputs": [
        {
          "internalType": "uint256",
          "name": "badgeId",
          "type": "uint256"
        },
        {
          "internalType": "bytes",
          "name": "data",
          "type": "bytes"
        },
        {
          "internalType": "address",
          "name": "caller",
          "type": "address"
        }
      ],
      "name": "removeItem",
      "outputs": [],
      "stateMutability": "payable",
      "type": "function"
    },
    {
      "inputs": [],
      "name": "renounceOwnership",
      "outputs": [],
      "stateMutability": "nonpayable",
      "type": "function"
    },
    {
      "inputs": [
        {
          "internalType": "bytes32",
          "name": "role",
          "type": "bytes32"
        },
        {
          "internalType": "address",
          "name": "callerConfirmation",
          "type": "address"
        }
      ],
      "name": "renounceRole",
      "outputs": [],
      "stateMutability": "nonpayable",
      "type": "function"
    },
    {
      "inputs": [
        {
          "internalType": "bytes32",
          "name": "role",
          "type": "bytes32"
        },
        {
          "internalType": "address",
          "name": "account",
          "type": "address"
        }
      ],
      "name": "revokeRole",
      "outputs": [],
      "stateMutability": "nonpayable",
      "type": "function"
    },
    {
      "inputs": [
        {
          "internalType": "uint256",
          "name": "badgeId",
          "type": "uint256"
        },
        {
          "internalType": "bytes",
          "name": "data",
          "type": "bytes"
        },
        {
          "internalType": "address",
          "name": "caller",
          "type": "address"
        }
      ],
      "name": "submitEvidence",
      "outputs": [],
      "stateMutability": "nonpayable",
      "type": "function"
    },
    {
      "inputs": [
        {
          "internalType": "address",
          "name": "_user",
          "type": "address"
        },
        {
          "internalType": "string",
          "name": "userMetadata",
          "type": "string"
        },
        {
          "internalType": "string",
          "name": "evidenceUri",
          "type": "string"
        }
      ],
      "name": "submitUserVerification",
      "outputs": [],
      "stateMutability": "nonpayable",
      "type": "function"
    },
    {
      "inputs": [
        {
          "internalType": "bytes4",
          "name": "interfaceId",
          "type": "bytes4"
        }
      ],
      "name": "supportsInterface",
      "outputs": [
        {
          "internalType": "bool",
          "name": "",
          "type": "bool"
        }
      ],
      "stateMutability": "view",
      "type": "function"
    },
    {
      "inputs": [],
      "name": "theBadge",
      "outputs": [
        {
          "internalType": "contract TheBadge",
          "name": "",
          "type": "address"
        }
      ],
      "stateMutability": "view",
      "type": "function"
    },
    {
      "inputs": [],
      "name": "theBadgeModels",
      "outputs": [
        {
          "internalType": "contract TheBadgeModels",
          "name": "",
          "type": "address"
        }
      ],
      "stateMutability": "view",
      "type": "function"
    },
    {
      "inputs": [],
      "name": "theBadgeUsers",
      "outputs": [
        {
          "internalType": "contract TheBadgeUsers",
          "name": "",
          "type": "address"
        }
      ],
      "stateMutability": "view",
      "type": "function"
    },
    {
      "inputs": [
        {
          "internalType": "address",
          "name": "newOwner",
          "type": "address"
        }
      ],
      "name": "transferOwnership",
      "outputs": [],
      "stateMutability": "nonpayable",
      "type": "function"
    },
    {
      "inputs": [
        {
          "internalType": "uint256",
          "name": "_verifyUserProtocolFee",
          "type": "uint256"
        }
      ],
      "name": "updateVerifyUserProtocolFee",
      "outputs": [],
      "stateMutability": "nonpayable",
      "type": "function"
    },
    {
      "inputs": [
        {
          "internalType": "address",
          "name": "newImplementation",
          "type": "address"
        },
        {
          "internalType": "bytes",
          "name": "data",
          "type": "bytes"
        }
      ],
      "name": "upgradeToAndCall",
      "outputs": [],
      "stateMutability": "payable",
      "type": "function"
    },
    {
      "stateMutability": "payable",
      "type": "receive"
    }
  ],
  "bytecode": "0x60a06040523060805234801562000014575f80fd5b506200001f62000025565b620000d9565b7ff0c57e16840df040f15088dc2f81fe391c3923bec73e23a9662efc9c229c6a00805468010000000000000000900460ff1615620000765760405163f92ee8a960e01b815260040160405180910390fd5b80546001600160401b0390811614620000d65780546001600160401b0319166001600160401b0390811782556040519081527fc7f505b2f371ae2175ee4913f4499e1f2633a7b5936321eed1cdaeb6115181d29060200160405180910390a15b50565b608051614056620001005f395f8181612a4a01528181612a730152612bb801526140565ff3fe608060405260043610610205575f3560e01c80638ac516b811610116578063caa39ec5116100a4578063caa39ec5146105cf578063d547741f146105ee578063d7deba151461060d578063d8bee3561461062c578063e63ab1e91461064b578063e7705db61461067e578063f2fde38b146106b1578063f4bcaf42146106d0578063f6563d5f146106ef578063f72c0d8b14610702578063fc5f18d314610722575f80fd5b80638ac516b81461047e5780638da5cb5b1461049d57806391d14854146104b15780639c6b9f8a146104d0578063a217fddf146104ef578063a41e35c314610502578063ace417e014610535578063ad3cb1cc14610554578063ae1c29e814610591578063b5a867fa146105b0575f80fd5b8063518a893b11610193578063518a893b1461036157806352d1902d1461038c57806361cf6b48146103a0578063632f7c83146103b3578063681294b4146103d2578063715018a6146103e55780637657dbdd146103f95780637eb7f1761461040d5780637f3457101461042c57806389610a091461045f575f80fd5b806301ffc9a71461021057806304a3c5d714610244578063130bd93f146102655780631459457a1461028457806322e900c2146102a3578063248a9ca3146102c25780632f2ff15d146102ef57806336568abe1461030e578063401fef941461032d5780634f1ef2861461034e575f80fd5b3661020c57005b5f80fd5b34801561021b575f80fd5b5061022f61022a3660046131d2565b610755565b60405190151581526020015b60405180910390f35b34801561024f575f80fd5b5061026361025e366004613261565b61078b565b005b348015610270575f80fd5b5061026361027f3660046132c5565b610c11565b34801561028f575f80fd5b5061026361029e3660046132fc565b610e18565b3480156102ae575f80fd5b5061022f6102bd366004613369565b61104a565b3480156102cd575f80fd5b506102e16102dc366004613369565b611167565b60405190815260200161023b565b3480156102fa575f80fd5b50610263610309366004613380565b611185565b348015610319575f80fd5b50610263610328366004613380565b6111a7565b348015610338575f80fd5b5061022f610347366004613380565b5f92915050565b61026361035c3660046134d7565b6111df565b34801561036c575f80fd5b505f5461037f906001600160a01b031681565b60405161023b9190613536565b348015610397575f80fd5b506102e16111fe565b6102636103ae36600461354a565b611219565b3480156103be575f80fd5b506102e16103cd366004613369565b6113c1565b6102636103e036600461354a565b6115f3565b3480156103f0575f80fd5b5061026361171f565b348015610404575f80fd5b506102e1611732565b348015610418575f80fd5b506102e1610427366004613369565b6117ab565b348015610437575f80fd5b506102e17f7804d923f43a17d325d77e781528e0793b2edd9890ab45fc64efd7b4b427744c81565b34801561046a575f80fd5b5061022f610479366004613369565b61183a565b348015610489575f80fd5b50610263610498366004613369565b611b38565b3480156104a8575f80fd5b5061037f611bc6565b3480156104bc575f80fd5b5061022f6104cb366004613380565b611be0565b3480156104db575f80fd5b5061037f6104ea36600461354a565b611c14565b3480156104fa575f80fd5b506102e15f81565b34801561050d575f80fd5b506102e17fcbaaf41b181bb6e269c490e876a7c97711b57e21dd8e5528423cf57579726b3581565b348015610540575f80fd5b5061022f61054f3660046135a4565b611e7f565b34801561055f575f80fd5b50610584604051806040016040528060058152602001640352e302e360dc1b81525081565b60405161023b919061360c565b34801561059c575f80fd5b5060035461037f906001600160a01b031681565b3480156105bb575f80fd5b506102636105ca36600461363c565b611f36565b3480156105da575f80fd5b5060015461037f906001600160a01b031681565b3480156105f9575f80fd5b50610263610608366004613380565b612078565b348015610618575f80fd5b506102e1610627366004613369565b612094565b348015610637575f80fd5b5061026361064636600461354a565b612314565b348015610656575f80fd5b506102e17f65d7a28e3265b37a6474929f336521b332c1681b933f6cb9f3376673440d862a81565b348015610689575f80fd5b506102e17f0ce23c3e399818cfee81a7ab0880f714e53d7672b08df0fa62f2843416e1ea0981565b3480156106bc575f80fd5b506102636106cb3660046135a4565b6124aa565b3480156106db575f80fd5b5060025461037f906001600160a01b031681565b6102e16106fd3660046136ac565b6124f0565b34801561070d575f80fd5b506102e15f80516020613fe183398151915281565b34801561072d575f80fd5b506102e17f11a8cb5a02bd6c42679835e867ef2118ba78f088f8300511420c6603c21d9c7881565b5f6001600160e01b03198216637965db0b60e01b148061078557506301ffc9a760e01b6001600160e01b03198316145b92915050565b6002546001600160a01b031633146107b65760405163515e38c360e11b815260040160405180910390fd5b5f805460405163b7f77e1560e01b8152600481018690526001600160a01b039091169063b7f77e159060240160c060405180830381865afa1580156107fd573d5f803e3d5ffd5b505050506040513d601f19601f82011682018060405250810190610821919061372d565b60408101519091506001600160a01b03161561085057604051634d1068bd60e11b815260040160405180910390fd5b5f805f9054906101000a90046001600160a01b03166001600160a01b03166384101a176040518163ffffffff1660e01b8152600401602060405180830381865afa1580156108a0573d5f803e3d5ffd5b505050506040513d601f19601f820116820180604052508101906108c491906137af565b90505f6108d384860186613881565b80519091505f906001600160a01b03166108ed57876108f0565b81515b9050826001600160a01b031663d8dcbd275f8054906101000a90046001600160a01b03166001600160a01b0316630fceb7466040518163ffffffff1660e01b8152600401602060405180830381865afa15801561094f573d5f803e3d5ffd5b505050506040513d601f19601f8201168201806040525081019061097391906137af565b60208086015160405161098a920190815260200190565b60408051601f19818403018152828252878201516020840152910160408051601f19818403018152908290526109c3929160200161396b565b6040516020818303038152906040525f86606001518760800151878960c001518a60a001518b60e001515f6040518b63ffffffff1660e01b8152600401610a139a999897969594939291906139bb565b5f604051808303815f87803b158015610a2a575f80fd5b505af1158015610a3c573d5f803e3d5ffd5b505050505f836001600160a01b031663a2f7b3a56001866001600160a01b03166306661abd6040518163ffffffff1660e01b8152600401602060405180830381865afa158015610a8e573d5f803e3d5ffd5b505050506040513d601f19601f82011682018060405250810190610ab29190613a7c565b610abc9190613aa7565b6040518263ffffffff1660e01b8152600401610ada91815260200190565b6020604051808303815f875af1158015610af6573d5f803e3d5ffd5b505050506040513d601f19601f82011682018060405250810190610b1a91906137af565b90506001600160a01b038116610b4357604051633deb66a760e21b815260040160405180910390fd5b5f80546040516277bb0160e91b8152600481018b90526001600160a01b038c8116602483015284811660448301528581166064830152608482019390935291169063ef7602009060a4015f604051808303815f87803b158015610ba4575f80fd5b505af1158015610bb6573d5f803e3d5ffd5b50505050806001600160a01b0316887f1e83a75c2089c1100e6d9a024ea6fdf619ec5a922a17230682fbf1217d2a7ec185606001518660800151604051610bfe929190613aba565b60405180910390a3505050505050505050565b6003546001600160a01b03163314610c3c5760405163efb80fc560e01b815260040160405180910390fd5b5f8054604051638f050f0960e01b81528492916001600160a01b031690638f050f0990610c6d908590600401613536565b5f60405180830381865afa158015610c87573d5f803e3d5ffd5b505050506040513d5f823e601f3d908101601f19168201604052610cae9190810190613b37565b608081015190915015155f03610cd75760405163bb572dbf60e01b815260040160405180910390fd5b5f81606001516002811115610cee57610cee613bfb565b14610d0c57604051636ed1ab8760e11b815260040160405180910390fd5b5f8054604051638f050f0960e01b81526001600160a01b0390911690638f050f0990610d3c908890600401613536565b5f60405180830381865afa158015610d56573d5f803e3d5ffd5b505050506040513d5f823e601f3d908101601f19168201604052610d7d9190810190613b37565b90508060800151610da15760405163bb572dbf60e01b815260040160405180910390fd5b5f84610dae576002610db1565b60015b5f54604051631f232ee960e11b81529192506001600160a01b031690633e465dd290610de39089908590600401613c2f565b5f604051808303815f87803b158015610dfa575f80fd5b505af1158015610e0c573d5f803e3d5ffd5b50505050505050505050565b5f610e216127a7565b805490915060ff600160401b82041615906001600160401b03165f81158015610e475750825b90505f826001600160401b03166001148015610e625750303b155b905081158015610e70575080155b15610e8e5760405163f92ee8a960e01b815260040160405180910390fd5b845467ffffffffffffffff191660011785558315610eb857845460ff60401b1916600160401b1785555b610ec18a6127cb565b610ecb5f8b6127dc565b50610ef67f65d7a28e3265b37a6474929f336521b332c1681b933f6cb9f3376673440d862a8b6127dc565b50610f0e5f80516020613fe18339815191528b6127dc565b50600180546001600160a01b03808c166001600160a01b031992831617909255600280548b8416908316179055600380548a84169083161790555f80549289169290911682178155604080516384101a1760e01b815290519192916384101a17916004808201926020929091908290030181865afa158015610f92573d5f803e3d5ffd5b505050506040513d601f19601f82011682018060405250810190610fb691906137af565b9050806001600160a01b03168b6001600160a01b03167fdc90fed0326ba91706deeac7eb34ac9f8b680734f9d782864dc29704d23bed6a60405160405180910390a3508315610e0c57845460ff60401b19168555604051600181527fc7f505b2f371ae2175ee4913f4499e1f2633a7b5936321eed1cdaeb6115181d29060200160405180910390a150505050505050505050565b5f8061105583612881565b5f8054604051630c7b27cd60e31b81526004810187905292935090916001600160a01b03909116906363d93e689060240160c060405180830381865afa1580156110a1573d5f803e3d5ffd5b505050506040513d601f19601f820116820180604052508101906110c59190613c4c565b8051604051634aac84e560e01b815260048101919091529091505f906001600160a01b03841690634aac84e590602401606060405180830381865afa158015611110573d5f803e3d5ffd5b505050506040513d601f19601f820116820180604052508101906111349190613c9d565b505090508060ff166001148061114d57508060ff166003145b1561115d57506001949350505050565b505f949350505050565b5f8061117161299b565b5f9384526020525050604090206001015490565b61118e82611167565b611197816129bf565b6111a183836127dc565b50505050565b6001600160a01b03811633146111d05760405163334bd91960e11b815260040160405180910390fd5b6111da82826129c9565b505050565b6111e7612a3f565b6111f082612ae3565b6111fa8282612afa565b5050565b5f611207612bad565b505f8051602061400183398151915290565b6001546001600160a01b031633146112445760405163942e92c760e01b815260040160405180910390fd5b5f8054604051630c7b27cd60e31b8152600481018790526001600160a01b03909116906363d93e689060240160c060405180830381865afa15801561128b573d5f803e3d5ffd5b505050506040513d601f19601f820116820180604052508101906112af9190613c4c565b60a081015190915015155f036112d857604051630c11d07360e01b815260040160405180910390fd5b80515f036112f957604051630c11d07360e01b815260040160405180910390fd5b5f61130684860186613d37565b90505f61131287612881565b8351835160405163097e90e560e41b81529293506001600160a01b038416926397e90e5092349261134592600401613d68565b5f604051808303818588803b15801561135c575f80fd5b505af115801561136e573d5f803e3d5ffd5b5050505050836001600160a01b0316877f11eb5c907e498f2c995a2af5e0aac8b359e64a72061cb07d980c63bf562ada07845f01516040516113b0919061360c565b60405180910390a350505050505050565b5f805460405163b7f77e1560e01b81526004810184905282916001600160a01b03169063b7f77e159060240160c060405180830381865afa158015611408573d5f803e3d5ffd5b505050506040513d601f19601f8201168201806040525081019061142c919061372d565b90505f816040015190505f805f9054906101000a90046001600160a01b03166001600160a01b0316630fceb7466040518163ffffffff1660e01b8152600401602060405180830381865afa158015611486573d5f803e3d5ffd5b505050506040513d601f19601f820116820180604052508101906114aa91906137af565b90505f816001600160a01b031663f7434ea9846001600160a01b0316630c7ac7b66040518163ffffffff1660e01b81526004015f60405180830381865afa1580156114f7573d5f803e3d5ffd5b505050506040513d5f823e601f3d908101601f1916820160405261151e9190810190613d80565b6040518263ffffffff1660e01b815260040161153a919061360c565b602060405180830381865afa158015611555573d5f803e3d5ffd5b505050506040513d601f19601f820116820180604052508101906115799190613a7c565b90505f836001600160a01b031663bb0b86ff6040518163ffffffff1660e01b8152600401602060405180830381865afa1580156115b8573d5f803e3d5ffd5b505050506040513d601f19601f820116820180604052508101906115dc9190613a7c565b90506115e88183613db1565b979650505050505050565b6001546001600160a01b0316331461161e5760405163942e92c760e01b815260040160405180910390fd5b5f8054604051630c7b27cd60e31b8152600481018790526001600160a01b03909116906363d93e689060240160c060405180830381865afa158015611665573d5f803e3d5ffd5b505050506040513d601f19601f820116820180604052508101906116899190613c4c565b60a081015190915015155f036116b257604051630c11d07360e01b815260040160405180910390fd5b80515f036116d357604051630c11d07360e01b815260040160405180910390fd5b5f6116e084860186613d37565b90505f6116ec87612881565b8351835160405163873db1a760e01b81529293506001600160a01b0384169263873db1a792349261134592600401613d68565b611727612bf6565b6117305f612c28565b565b5f805f9054906101000a90046001600160a01b03166001600160a01b0316637657dbdd6040518163ffffffff1660e01b8152600401602060405180830381865afa158015611782573d5f803e3d5ffd5b505050506040513d601f19601f820116820180604052508101906117a69190613a7c565b905090565b5f806117b683612881565b90505f6117c284612c82565b90505f826001600160a01b031663c2f2beea6040518163ffffffff1660e01b8152600401602060405180830381865afa158015611801573d5f803e3d5ffd5b505050506040513d601f19601f820116820180604052508101906118259190613a7c565b90506118318282612ef6565b95945050505050565b5f8061184583612881565b5f8054604051630c7b27cd60e31b81526004810187905292935090916001600160a01b03909116906363d93e689060240160c060405180830381865afa158015611891573d5f803e3d5ffd5b505050506040513d601f19601f820116820180604052508101906118b59190613c4c565b60a081015190915015155f036118de57604051630c11d07360e01b815260040160405180910390fd5b80515f036118ff57604051630c11d07360e01b815260040160405180910390fd5b80516040516348f343f360e01b81525f916001600160a01b038516916348f343f3916119319160040190815260200190565b606060405180830381865afa15801561194c573d5f803e3d5ffd5b505050506040513d601f19601f820116820180604052508101906119709190613dc4565b8451604051634aac84e560e01b815260048101919091529093505f92506001600160a01b0386169150634aac84e590602401606060405180830381865afa1580156119bd573d5f803e3d5ffd5b505050506040513d601f19601f820116820180604052508101906119e19190613c9d565b505090505f6001836119f39190613e27565b8451604051635fde7f8d60e11b815260048101919091526001600160781b03919091166024820181905291505f906001600160a01b0387169063bfbcff1a906044015f60405180830381865afa158015611a4f573d5f803e3d5ffd5b505050506040513d5f823e601f3d908101601f19168201604052611a769190810190613e47565b50505050505050925050505f866001600160a01b03166282a36d6040518163ffffffff1660e01b8152600401602060405180830381865afa158015611abd573d5f803e3d5ffd5b505050506040513d601f19601f82011682018060405250810190611ae19190613a7c565b90505f81611aef8442613aa7565b11611afa575f611afd565b60015b90508460ff166002148015611b1457506001811515145b15611b29575060019998505050505050505050565b505f9998505050505050505050565b5f611b42816129bf565b5f54604051630404b29f60e31b8152600481018490526001600160a01b039091169063202594f8906024015f604051808303815f87803b158015611b84575f80fd5b505af1158015611b96573d5f803e3d5ffd5b50506040517f810f1720fbc34c56d171f89315ad21708648fd17424c27b88fa208409845aa7792505f9150a15050565b5f80611bd0612f1a565b546001600160a01b031692915050565b5f80611bea61299b565b5f948552602090815260408086206001600160a01b03959095168652939052505090205460ff1690565b6001545f906001600160a01b03163314611c415760405163942e92c760e01b815260040160405180910390fd5b611c49612f3e565b5f611c5386612881565b5f8054604051630c7b27cd60e31b8152600481018a905292935090916001600160a01b03909116906363d93e689060240160c060405180830381865afa158015611c9f573d5f803e3d5ffd5b505050506040513d601f19601f82011682018060405250810190611cc39190613c4c565b80516040516374e120b360e11b81529192506001600160a01b0384169163e9c2416691611cf69160040190815260200190565b5f604051808303815f87803b158015611d0d575f80fd5b505af1158015611d1f573d5f803e3d5ffd5b505050504781606001511115611d48576040516398e2a0bb60e01b815260040160405180910390fd5b60608101515f54604051633879a0b960e21b8152600481018a90526001600160a01b039091169063e1e682e4906024015f604051808303815f87803b158015611d8f575f80fd5b505af1158015611da1573d5f803e3d5ffd5b505050505f82604001516001600160a01b0316826040515f6040518083038185875af1925050503d805f8114611df2576040519150601f19603f3d011682016040523d82523d5f602084013e611df7565b606091505b50909150508015155f03611e1e5760405163aa701b0560e01b815260040160405180910390fd5b8883604001516001600160a01b03167f9794db68af033346a63dbc4509364afc3a23201eced8a4f3bc64d029abfacc6584604051611e5e91815260200190565b60405180910390a3505060800151915050611e77612f73565b949350505050565b5f8054604051638f050f0960e01b815282916001600160a01b031690638f050f0990611eaf908690600401613536565b5f60405180830381865afa158015611ec9573d5f803e3d5ffd5b505050506040513d5f823e601f3d908101601f19168201604052611ef09190810190613b37565b608081015190915015155f03611f0857505f92915050565b600181606001516002811115611f2057611f20613bfb565b03611f2e5750600192915050565b505f92915050565b6003546001600160a01b03163314611f615760405163efb80fc560e01b815260040160405180910390fd5b5f8054604051638f050f0960e01b81526001600160a01b0390911690638f050f0990611f91908790600401613536565b5f60405180830381865afa158015611fab573d5f803e3d5ffd5b505050506040513d5f823e601f3d908101601f19168201604052611fd29190810190613b37565b9050806080015115611ff757604051637815482960e11b815260040160405180910390fd5b600160808201525f606082018190526020820184905260408083018490529054905163f8fd555f60e01b81526001600160a01b039091169063f8fd555f906120459087908590600401613f42565b5f604051808303815f87803b15801561205c575f80fd5b505af115801561206e573d5f803e3d5ffd5b5050505050505050565b61208182611167565b61208a816129bf565b6111a183836129c9565b5f8054604051630c7b27cd60e31b81526004810184905282916001600160a01b0316906363d93e689060240160c060405180830381865afa1580156120db573d5f803e3d5ffd5b505050506040513d601f19601f820116820180604052508101906120ff9190613c4c565b60a081015190915015155f0361212857604051630c11d07360e01b815260040160405180910390fd5b80515f0361214957604051630c11d07360e01b815260040160405180910390fd5b5f61215384612881565b8251604051634aac84e560e01b815260048101919091529091505f906001600160a01b03831690634aac84e590602401606060405180830381865afa15801561219e573d5f803e3d5ffd5b505050506040513d601f19601f820116820180604052508101906121c29190613c9d565b505090505f6121d086612c82565b90508160ff1660010361225157612247836001600160a01b031663a37b6ad46040518163ffffffff1660e01b8152600401602060405180830381865afa15801561221c573d5f803e3d5ffd5b505050506040513d601f19601f820116820180604052508101906122409190613a7c565b8290612ef6565b9695505050505050565b8160ff1660020361229b57612247836001600160a01b031663c2f2beea6040518163ffffffff1660e01b8152600401602060405180830381865afa15801561221c573d5f803e3d5ffd5b8160ff166003036122b157505f95945050505050565b8160ff166004036122fb57612247836001600160a01b031663787471a96040518163ffffffff1660e01b8152600401602060405180830381865afa15801561221c573d5f803e3d5ffd5b6040516305e5cf6360e41b815260040160405180910390fd5b6001546001600160a01b0316331461233f5760405163942e92c760e01b815260040160405180910390fd5b5f8054604051630c7b27cd60e31b8152600481018790526001600160a01b03909116906363d93e689060240160c060405180830381865afa158015612386573d5f803e3d5ffd5b505050506040513d601f19601f820116820180604052508101906123aa9190613c4c565b60a081015190915015155f036123d357604051630c11d07360e01b815260040160405180910390fd5b80515f036123f457604051630c11d07360e01b815260040160405180910390fd5b5f61240184860186613d37565b90505f61240d87612881565b8351835160405163f48a0b3160e01b81529293506001600160a01b0384169263f48a0b3192612440929091600401613d68565b5f604051808303815f87803b158015612457575f80fd5b505af1158015612469573d5f803e3d5ffd5b50505050836001600160a01b0316877f8c0b973d20787b10ea3bdbb5dc91eea821f172b4759e8096d07f8fa93a6b184d845f01516040516113b0919061360c565b6124b2612bf6565b6001600160a01b0381166124e4575f604051631e4fbdf760e01b81526004016124db9190613536565b60405180910390fd5b6124ed81612c28565b50565b6001545f906001600160a01b0316331461251d5760405163942e92c760e01b815260040160405180910390fd5b5f612527876113c1565b905080341461254957604051637bcb3e5760e01b815260040160405180910390fd5b5f805460405163b7f77e1560e01b8152600481018a90526001600160a01b039091169063b7f77e159060240160c060405180830381865afa158015612590573d5f803e3d5ffd5b505050506040513d601f19601f820116820180604052508101906125b4919061372d565b60408101519091505f6125c987890189613d37565b80516040516309fa7ca560e21b81529192506001600160a01b038416916327e9f2949134916125fb919060040161360c565b5f604051808303818588803b158015612612575f80fd5b505af1158015612624573d5f803e3d5ffd5b50505050505f815f015160405160200161263e9190613fc5565b6040516020818303038152906040528051906020012090505f6040518060c001604052808381526020018d81526020018e6001600160a01b03168152602001348152602001896001600160a01b031681526020016001151581525090505f8054906101000a90046001600160a01b03166001600160a01b0316639c5d19228c836040518363ffffffff1660e01b815260040161272f92919091825280516020808401919091528101516040808401919091528101516001600160a01b039081166060808501919091528201516080808501919091528201511660a0808401919091520151151560c082015260e00190565b5f604051808303815f87803b158015612746575f80fd5b505af1158015612758573d5f803e3d5ffd5b505050508a7fdd7e1dd9a30843ba8c2619a3c5ce27830ad90612bad48feeb549fc94114d6261845f015160405161278f919061360c565b60405180910390a2509b9a5050505050505050505050565b7ff0c57e16840df040f15088dc2f81fe391c3923bec73e23a9662efc9c229c6a0090565b6127d3612f83565b6124ed81612fa8565b5f806127e661299b565b90506127f28484611be0565b612871575f848152602082815260408083206001600160a01b03871684529091529020805460ff191660011790556128273390565b6001600160a01b0316836001600160a01b0316857f2f8788117e7eff1d82e926ec794901d17c78024a50270940304540a733656f0d60405160405180910390a46001915050610785565b5f915050610785565b5092915050565b5f8054604051630c7b27cd60e31b81526004810184905282916001600160a01b0316906363d93e689060240160c060405180830381865afa1580156128c8573d5f803e3d5ffd5b505050506040513d601f19601f820116820180604052508101906128ec9190613c4c565b5f8054602083015160405163b7f77e1560e01b8152600481019190915292935090916001600160a01b039091169063b7f77e159060240160c060405180830381865afa15801561293e573d5f803e3d5ffd5b505050506040513d601f19601f82011682018060405250810190612962919061372d565b60408101519091506001600160a01b031661299057604051633deb66a760e21b815260040160405180910390fd5b604001519392505050565b7f02dd7bc7dec4dceedda775e58dd541e08a116c6c53815c0bd028192f7b62680090565b6124ed8133612fb0565b5f806129d361299b565b90506129df8484611be0565b15612871575f848152602082815260408083206001600160a01b0387168085529252808320805460ff1916905551339287917ff6391f5c32d9c69d2a47ea670b442974b53935d1edc7fd64eb21e047a839171b9190a46001915050610785565b306001600160a01b037f0000000000000000000000000000000000000000000000000000000000000000161480612ac557507f00000000000000000000000000000000000000000000000000000000000000006001600160a01b0316612ab95f80516020614001833981519152546001600160a01b031690565b6001600160a01b031614155b156117305760405163703e46dd60e11b815260040160405180910390fd5b5f80516020613fe18339815191526111fa816129bf565b816001600160a01b03166352d1902d6040518163ffffffff1660e01b8152600401602060405180830381865afa925050508015612b54575060408051601f3d908101601f19168201909252612b5191810190613a7c565b60015b612b735781604051634c9c8ce360e01b81526004016124db9190613536565b5f805160206140018339815191528114612ba357604051632a87526960e21b8152600481018290526024016124db565b6111da8383612fe9565b306001600160a01b037f000000000000000000000000000000000000000000000000000000000000000016146117305760405163703e46dd60e11b815260040160405180910390fd5b33612bff611bc6565b6001600160a01b031614611730573360405163118cdaa760e01b81526004016124db9190613536565b5f612c31612f1a565b80546001600160a01b038481166001600160a01b031983168117845560405193945091169182907f8be0079c531659141344cd1fd0a4f28419497f9722a3daafe3b4186f6b6457e0905f90a3505050565b5f8054604051630c7b27cd60e31b81526004810184905282916001600160a01b0316906363d93e689060240160c060405180830381865afa158015612cc9573d5f803e3d5ffd5b505050506040513d601f19601f82011682018060405250810190612ced9190613c4c565b90505f612cf984612881565b82516040516348f343f360e01b815260048101919091529091505f906001600160a01b038316906348f343f390602401606060405180830381865afa158015612d44573d5f803e3d5ffd5b505050506040513d601f19601f82011682018060405250810190612d689190613dc4565b925050505f600182612d7a9190613e27565b8451604051635fde7f8d60e11b815260048101919091526001600160781b03919091166024820181905291505f906001600160a01b0385169063bfbcff1a906044015f60405180830381865afa158015612dd6573d5f803e3d5ffd5b505050506040513d5f823e601f3d908101601f19168201604052612dfd9190810190613e47565b50985050505050505050505f805f9054906101000a90046001600160a01b03166001600160a01b0316630fceb7466040518163ffffffff1660e01b8152600401602060405180830381865afa158015612e58573d5f803e3d5ffd5b505050506040513d601f19601f82011682018060405250810190612e7c91906137af565b60405163f7434ea960e01b81529091506001600160a01b0382169063f7434ea990612eab90859060040161360c565b602060405180830381865afa158015612ec6573d5f803e3d5ffd5b505050506040513d601f19601f82011682018060405250810190612eea9190613a7c565b98975050505050505050565b5f80612f028385613db1565b905083811015612f13575f19611e77565b9392505050565b7f9016d09d72d40fdae2fd8ceac6b6234c7706214fd39c1cd1e609a0528c19930090565b5f612f4761303e565b805490915060011901612f6d57604051633ee5aeb560e01b815260040160405180910390fd5b60029055565b5f612f7c61303e565b6001905550565b612f8b613062565b61173057604051631afcd79f60e31b815260040160405180910390fd5b6124b2612f83565b612fba8282611be0565b6111fa5760405163e2517d3f60e01b81526001600160a01b0382166004820152602481018390526044016124db565b612ff28261307b565b6040516001600160a01b038316907fbc7cd75a20ee27fd9adebab32041f755214dbc6bffa90cc0225b39da2e5c2d3b905f90a2805115613036576111da82826130d5565b6111fa61313e565b7f9b779b17422d0df92223018b32b4d1fa46e071723d6817e2486d003becc55f0090565b5f61306b6127a7565b54600160401b900460ff16919050565b806001600160a01b03163b5f036130a75780604051634c9c8ce360e01b81526004016124db9190613536565b5f8051602061400183398151915280546001600160a01b0319166001600160a01b0392909216919091179055565b60605f80846001600160a01b0316846040516130f19190613fc5565b5f60405180830381855af49150503d805f8114613129576040519150601f19603f3d011682016040523d82523d5f602084013e61312e565b606091505b509150915061183185838361315d565b34156117305760405163b398979f60e01b815260040160405180910390fd5b6060826131725761316d826131a9565b612f13565b815115801561318957506001600160a01b0384163b155b1561287a5783604051639996b31560e01b81526004016124db9190613536565b8051156131b95780518082602001fd5b604051630a12f52160e11b815260040160405180910390fd5b5f602082840312156131e2575f80fd5b81356001600160e01b031981168114612f13575f80fd5b6001600160a01b03811681146124ed575f80fd5b8035613218816131f9565b919050565b5f8083601f84011261322d575f80fd5b5081356001600160401b03811115613243575f80fd5b60208301915083602082850101111561325a575f80fd5b9250929050565b5f805f8060608587031215613274575f80fd5b843561327f816131f9565b93506020850135925060408501356001600160401b038111156132a0575f80fd5b6132ac8782880161321d565b95989497509550505050565b80151581146124ed575f80fd5b5f80604083850312156132d6575f80fd5b82356132e1816131f9565b915060208301356132f1816132b8565b809150509250929050565b5f805f805f60a08688031215613310575f80fd5b853561331b816131f9565b9450602086013561332b816131f9565b9350604086013561333b816131f9565b9250606086013561334b816131f9565b9150608086013561335b816131f9565b809150509295509295909350565b5f60208284031215613379575f80fd5b5035919050565b5f8060408385031215613391575f80fd5b8235915060208301356132f1816131f9565b634e487b7160e01b5f52604160045260245ffd5b60405160c081016001600160401b03811182821017156133d9576133d96133a3565b60405290565b60405161010081016001600160401b03811182821017156133d9576133d96133a3565b60405160a081016001600160401b03811182821017156133d9576133d96133a3565b604051606081016001600160401b03811182821017156133d9576133d96133a3565b604051601f8201601f191681016001600160401b038111828210171561346e5761346e6133a3565b604052919050565b5f6001600160401b0382111561348e5761348e6133a3565b50601f01601f191660200190565b5f6134ae6134a984613476565b613446565b90508281528383830111156134c1575f80fd5b828260208301375f602084830101529392505050565b5f80604083850312156134e8575f80fd5b82356134f3816131f9565b915060208301356001600160401b0381111561350d575f80fd5b8301601f8101851361351d575f80fd5b61352c8582356020840161349c565b9150509250929050565b6001600160a01b0391909116815260200190565b5f805f806060858703121561355d575f80fd5b8435935060208501356001600160401b03811115613579575f80fd5b6135858782880161321d565b9094509250506040850135613599816131f9565b939692955090935050565b5f602082840312156135b4575f80fd5b8135612f13816131f9565b5f5b838110156135d95781810151838201526020016135c1565b50505f910152565b5f81518084526135f88160208601602086016135bf565b601f01601f19169290920160200192915050565b602081525f612f1360208301846135e1565b5f82601f83011261362d575f80fd5b612f138383356020850161349c565b5f805f6060848603121561364e575f80fd5b8335613659816131f9565b925060208401356001600160401b0380821115613674575f80fd5b6136808783880161361e565b93506040860135915080821115613695575f80fd5b506136a28682870161361e565b9150509250925092565b5f805f805f8060a087890312156136c1575f80fd5b86356136cc816131f9565b9550602087013594506040870135935060608701356001600160401b038111156136f4575f80fd5b61370089828a0161321d565b9094509250506080870135613714816131f9565b809150509295509295509295565b8051613218816132b8565b5f60c0828403121561373d575f80fd5b6137456133b7565b8251613750816131f9565b815260208381015190820152604083015161376a816131f9565b6040820152606083015161377d816131f9565b60608201526080830151613790816131f9565b608082015260a08301516137a3816132b8565b60a08201529392505050565b5f602082840312156137bf575f80fd5b8151612f13816131f9565b5f82601f8301126137d9575f80fd5b604051608081018181106001600160401b03821117156137fb576137fb6133a3565b60405280608084018581111561380f575f80fd5b845b81811015613829578035835260209283019201613811565b509195945050505050565b5f82601f830112613843575f80fd5b61384b613424565b80606084018581111561385c575f80fd5b845b8181101561387657803584526020938401930161385e565b509095945050505050565b5f60208284031215613891575f80fd5b81356001600160401b03808211156138a7575f80fd5b908301906101a082860312156138bb575f80fd5b6138c36133df565b6138cc8361320d565b815260208301356020820152604083013560408201526060830135828111156138f3575f80fd5b6138ff8782860161361e565b606083015250608083013582811115613916575f80fd5b6139228782860161361e565b60808301525060a083013560a082015261393f8660c085016137ca565b60c0820152613952866101408501613834565b60e082015295945050505050565b8051613218816131f9565b5f835161397c8184602088016135bf565b8351908301906139908183602088016135bf565b01949350505050565b805f5b60038110156111a157815184526020938401939091019060010161399c565b6001600160a01b038b811682526101e060208084018290525f92906139e28584018f6135e1565b9250818d16604086015284830360608601526139fe838d6135e1565b92508483036080860152613a12838c6135e1565b9350818a1660a086015260c0850192508891505f5b6004811015613a4457825184529281019291810191600101613a27565b5050505084610140830152613a5d610160830185613999565b6001600160a01b0383166101c08301529b9a5050505050505050505050565b5f60208284031215613a8c575f80fd5b5051919050565b634e487b7160e01b5f52601160045260245ffd5b8181038181111561078557610785613a93565b604081525f613acc60408301856135e1565b828103602084015261183181856135e1565b5f82601f830112613aed575f80fd5b8151613afb6134a982613476565b818152846020838601011115613b0f575f80fd5b611e778260208301602087016135bf565b600381106124ed575f80fd5b805161321881613b20565b5f60208284031215613b47575f80fd5b81516001600160401b0380821115613b5d575f80fd5b9083019060a08286031215613b70575f80fd5b613b78613402565b8251613b83816131f9565b8152602083015182811115613b96575f80fd5b613ba287828601613ade565b602083015250604083015182811115613bb9575f80fd5b613bc587828601613ade565b60408301525060608301519150613bdb82613b20565b816060820152613bed60808401613722565b608082015295945050505050565b634e487b7160e01b5f52602160045260245ffd5b60038110613c2b57634e487b7160e01b5f52602160045260245ffd5b9052565b6001600160a01b038316815260408101612f136020830184613c0f565b5f60c08284031215613c5c575f80fd5b613c646133b7565b82518152602083015160208201526040830151613c80816131f9565b6040820152606083810151908201526080830151613790816131f9565b5f805f60608486031215613caf575f80fd5b835160ff81168114613cbf575f80fd5b602085015160409095015190969495509392505050565b5f60208284031215613ce6575f80fd5b604051602081016001600160401b038282108183111715613d0957613d096133a3565b816040528293508435915080821115613d20575f80fd5b50613d2d8582860161361e565b8252505092915050565b5f60208284031215613d47575f80fd5b81356001600160401b03811115613d5c575f80fd5b611e7784828501613cd6565b828152604060208201525f611e7760408301846135e1565b5f60208284031215613d90575f80fd5b81516001600160401b03811115613da5575f80fd5b611e7784828501613ade565b8082018082111561078557610785613a93565b5f805f60608486031215613dd6575f80fd5b835160048110613de4575f80fd5b60208501519093506001600160801b0381168114613e00575f80fd5b60408501519092506001600160781b0381168114613e1c575f80fd5b809150509250925092565b6001600160781b0382811682821603908082111561287a5761287a613a93565b5f805f805f805f805f806101808b8d031215613e61575f80fd5b8a51613e6c816132b8565b809a50506020808c0151995060408c0151985060608c0151613e8d816132b8565b9750609f8c018d13613e9d575f80fd5b613ea5613424565b8060e08e018f811115613eb6575f80fd5b60808f015b81811015613edb578051613ece816131f9565b8452928401928401613ebb565b50519098509650613ef29150506101008c01613b2c565b9350613f016101208c01613960565b92506101408b01516001600160401b03811115613f1c575f80fd5b613f288d828e01613ade565b9250506101608b015190509295989b9194979a5092959850565b6001600160a01b0383811682526040602080840182905284519092169083015282015160a060608301525f90613f7b60e08401826135e1565b90506040840151603f19848303016080850152613f9882826135e1565b9150506060840151613fad60a0850182613c0f565b506080840151151560c0840152809150509392505050565b5f8251613fd68184602087016135bf565b919091019291505056fe189ab7a9244df0848122154315af71fe140f3db0fe014031783b0946b8c9d2e3360894a13ba1a3210667c828492db98dca3e2076cc3735a920a3ca505d382bbca2646970667358221220610742cf4cac8a1792270e9cde0cd3de422a1e9037aba9615dc7a65898dc6ebc64736f6c63430008140033",
  "linkReferences": {},
  "deployedLinkReferences": {}
}