{
  "_format": "hh-sol-artifact-1",
  "contractName": "KlerosBadgeModelController",
  "sourceName": "src/contracts/badgeModelControllers/KlerosBadgeModelController.sol",
  "abi": [
    {
      "inputs": [],
      "stateMutability": "nonpayable",
      "type": "constructor"
    },
    {
      "inputs": [],
      "name": "KlerosBadgeModelController__badge__depositReturnFailed",
      "type": "error"
    },
    {
      "inputs": [],
      "name": "KlerosBadgeModelController__badge__klerosBadgeNotFound",
      "type": "error"
    },
    {
      "inputs": [],
      "name": "KlerosBadgeModelController__badge__notInChallengeableStatus",
      "type": "error"
    },
    {
      "inputs": [],
      "name": "KlerosBadgeModelController__badge__tcrKlerosBadgeNotFound",
      "type": "error"
    },
    {
      "inputs": [],
      "name": "KlerosBadgeModelController__claimBadge_insufficientBalance",
      "type": "error"
    },
    {
      "inputs": [],
      "name": "KlerosBadgeModelController__createBadgeModel_TCRListAddressZero",
      "type": "error"
    },
    {
      "inputs": [],
      "name": "KlerosBadgeModelController__createBadgeModel_badgeModelAlreadyCreated",
      "type": "error"
    },
    {
      "inputs": [],
      "name": "KlerosBadgeModelController__mintBadge_alreadyMinted",
      "type": "error"
    },
    {
      "inputs": [],
      "name": "KlerosBadgeModelController__mintBadge_isPaused",
      "type": "error"
    },
    {
      "inputs": [],
      "name": "KlerosBadgeModelController__mintBadge_wrongBadgeModel",
      "type": "error"
    },
    {
      "inputs": [],
      "name": "KlerosBadgeModelController__mintBadge_wrongValue",
      "type": "error"
    },
    {
      "inputs": [],
      "name": "KlerosBadgeModelController__onlyTheBadge_senderNotTheBadge",
      "type": "error"
    },
    {
      "inputs": [],
      "name": "KlerosBadgeModelController__user__userNotFound",
      "type": "error"
    },
    {
      "inputs": [],
      "name": "KlerosBadgeModelController__user__userVerificationAlreadyStarted",
      "type": "error"
    },
    {
      "inputs": [],
      "name": "KlerosBadgeModelController__user__userVerificationNotStarted",
      "type": "error"
    },
    {
      "inputs": [],
      "name": "TheBadge__method_not_supported",
      "type": "error"
    },
    {
      "anonymous": false,
      "inputs": [
        {
          "indexed": false,
          "internalType": "address",
          "name": "previousAdmin",
          "type": "address"
        },
        {
          "indexed": false,
          "internalType": "address",
          "name": "newAdmin",
          "type": "address"
        }
      ],
      "name": "AdminChanged",
      "type": "event"
    },
    {
      "anonymous": false,
      "inputs": [
        {
          "indexed": true,
          "internalType": "address",
          "name": "beacon",
          "type": "address"
        }
      ],
      "name": "BeaconUpgraded",
      "type": "event"
    },
    {
      "anonymous": false,
      "inputs": [
        {
          "indexed": true,
          "internalType": "address",
          "name": "recipient",
          "type": "address"
        },
        {
          "indexed": false,
          "internalType": "uint256",
          "name": "amount",
          "type": "uint256"
        },
        {
          "indexed": true,
          "internalType": "uint256",
          "name": "badgeId",
          "type": "uint256"
        }
      ],
      "name": "DepositReturned",
      "type": "event"
    },
    {
      "anonymous": false,
      "inputs": [
        {
          "indexed": true,
          "internalType": "address",
          "name": "admin",
          "type": "address"
        },
        {
          "indexed": true,
          "internalType": "address",
          "name": "tcrFactory",
          "type": "address"
        }
      ],
      "name": "Initialize",
      "type": "event"
    },
    {
      "anonymous": false,
      "inputs": [
        {
          "indexed": false,
          "internalType": "uint8",
          "name": "version",
          "type": "uint8"
        }
      ],
      "name": "Initialized",
      "type": "event"
    },
    {
      "anonymous": false,
      "inputs": [
        {
          "indexed": true,
          "internalType": "uint256",
          "name": "badgeId",
          "type": "uint256"
        },
        {
          "indexed": true,
          "internalType": "address",
          "name": "wallet",
          "type": "address"
        },
        {
          "indexed": false,
          "internalType": "string",
          "name": "evidence",
          "type": "string"
        },
        {
          "indexed": false,
          "internalType": "address",
          "name": "sender",
          "type": "address"
        }
      ],
      "name": "KlerosBadgeChallenged",
      "type": "event"
    },
    {
      "anonymous": false,
      "inputs": [
        {
          "indexed": true,
          "internalType": "uint256",
          "name": "badgeId",
          "type": "uint256"
        },
        {
          "indexed": false,
          "internalType": "string",
          "name": "evidence",
          "type": "string"
        }
      ],
      "name": "MintKlerosBadge",
      "type": "event"
    },
    {
      "anonymous": false,
      "inputs": [
        {
          "indexed": true,
          "internalType": "uint256",
          "name": "badgeModelId",
          "type": "uint256"
        },
        {
          "indexed": true,
          "internalType": "address",
          "name": "tcrAddress",
          "type": "address"
        },
        {
          "indexed": false,
          "internalType": "string",
          "name": "registrationMetaEvidence",
          "type": "string"
        },
        {
          "indexed": false,
          "internalType": "string",
          "name": "clearingMetaEvidence",
          "type": "string"
        }
      ],
      "name": "NewKlerosBadgeModel",
      "type": "event"
    },
    {
      "anonymous": false,
      "inputs": [],
      "name": "ProtocolSettingsUpdated",
      "type": "event"
    },
    {
      "anonymous": false,
      "inputs": [
        {
          "indexed": true,
          "internalType": "bytes32",
          "name": "role",
          "type": "bytes32"
        },
        {
          "indexed": true,
          "internalType": "bytes32",
          "name": "previousAdminRole",
          "type": "bytes32"
        },
        {
          "indexed": true,
          "internalType": "bytes32",
          "name": "newAdminRole",
          "type": "bytes32"
        }
      ],
      "name": "RoleAdminChanged",
      "type": "event"
    },
    {
      "anonymous": false,
      "inputs": [
        {
          "indexed": true,
          "internalType": "bytes32",
          "name": "role",
          "type": "bytes32"
        },
        {
          "indexed": true,
          "internalType": "address",
          "name": "account",
          "type": "address"
        },
        {
          "indexed": true,
          "internalType": "address",
          "name": "sender",
          "type": "address"
        }
      ],
      "name": "RoleGranted",
      "type": "event"
    },
    {
      "anonymous": false,
      "inputs": [
        {
          "indexed": true,
          "internalType": "bytes32",
          "name": "role",
          "type": "bytes32"
        },
        {
          "indexed": true,
          "internalType": "address",
          "name": "account",
          "type": "address"
        },
        {
          "indexed": true,
          "internalType": "address",
          "name": "sender",
          "type": "address"
        }
      ],
      "name": "RoleRevoked",
      "type": "event"
    },
    {
      "anonymous": false,
      "inputs": [
        {
          "indexed": true,
          "internalType": "address",
          "name": "implementation",
          "type": "address"
        }
      ],
      "name": "Upgraded",
      "type": "event"
    },
    {
      "inputs": [],
      "name": "DEFAULT_ADMIN_ROLE",
      "outputs": [
        {
          "internalType": "bytes32",
          "name": "",
          "type": "bytes32"
        }
      ],
      "stateMutability": "view",
      "type": "function"
    },
    {
      "inputs": [],
      "name": "FEE_COLLECTOR_ROLE",
      "outputs": [
        {
          "internalType": "bytes32",
          "name": "",
          "type": "bytes32"
        }
      ],
      "stateMutability": "view",
      "type": "function"
    },
    {
      "inputs": [],
      "name": "MINTER_ROLE",
      "outputs": [
        {
          "internalType": "bytes32",
          "name": "",
          "type": "bytes32"
        }
      ],
      "stateMutability": "view",
      "type": "function"
    },
    {
      "inputs": [],
      "name": "PAUSER_ROLE",
      "outputs": [
        {
          "internalType": "bytes32",
          "name": "",
          "type": "bytes32"
        }
      ],
      "stateMutability": "view",
      "type": "function"
    },
    {
      "inputs": [],
      "name": "UPGRADER_ROLE",
      "outputs": [
        {
          "internalType": "bytes32",
          "name": "",
          "type": "bytes32"
        }
      ],
      "stateMutability": "view",
      "type": "function"
    },
    {
      "inputs": [],
      "name": "URI_SETTER_ROLE",
      "outputs": [
        {
          "internalType": "bytes32",
          "name": "",
          "type": "bytes32"
        }
      ],
      "stateMutability": "view",
      "type": "function"
    },
    {
      "inputs": [],
      "name": "VERIFIER_ROLE",
      "outputs": [
        {
          "internalType": "bytes32",
          "name": "",
          "type": "bytes32"
        }
      ],
      "stateMutability": "view",
      "type": "function"
    },
    {
      "inputs": [],
      "name": "arbitrator",
      "outputs": [
        {
          "internalType": "contract IArbitrator",
          "name": "",
          "type": "address"
        }
      ],
      "stateMutability": "view",
      "type": "function"
    },
    {
      "inputs": [
        {
          "internalType": "uint256",
          "name": "badgeId",
          "type": "uint256"
        },
        {
          "internalType": "bytes",
          "name": "data",
          "type": "bytes"
        }
      ],
      "name": "challenge",
      "outputs": [],
      "stateMutability": "payable",
      "type": "function"
    },
    {
      "inputs": [
        {
          "internalType": "uint256",
          "name": "badgeId",
          "type": "uint256"
        },
        {
          "internalType": "bytes",
          "name": "",
          "type": "bytes"
        }
      ],
      "name": "claim",
      "outputs": [],
      "stateMutability": "nonpayable",
      "type": "function"
    },
    {
      "inputs": [
        {
          "internalType": "uint256",
          "name": "badgeModelId",
          "type": "uint256"
        },
        {
          "internalType": "bytes",
          "name": "data",
          "type": "bytes"
        }
      ],
      "name": "createBadgeModel",
      "outputs": [],
      "stateMutability": "nonpayable",
      "type": "function"
    },
    {
      "inputs": [
        {
          "internalType": "address",
          "name": "_user",
          "type": "address"
        },
        {
          "internalType": "bool",
          "name": "verify",
          "type": "bool"
        }
      ],
      "name": "executeUserVerification",
      "outputs": [],
      "stateMutability": "nonpayable",
      "type": "function"
    },
    {
      "inputs": [
        {
          "internalType": "uint256",
          "name": "badgeId",
          "type": "uint256"
        }
      ],
      "name": "getChallengeDepositValue",
      "outputs": [
        {
          "internalType": "uint256",
          "name": "",
          "type": "uint256"
        }
      ],
      "stateMutability": "view",
      "type": "function"
    },
    {
      "inputs": [
        {
          "internalType": "uint256",
          "name": "badgeId",
          "type": "uint256"
        }
      ],
      "name": "getRemovalDepositValue",
      "outputs": [
        {
          "internalType": "uint256",
          "name": "",
          "type": "uint256"
        }
      ],
      "stateMutability": "view",
      "type": "function"
    },
    {
      "inputs": [
        {
          "internalType": "bytes32",
          "name": "role",
          "type": "bytes32"
        }
      ],
      "name": "getRoleAdmin",
      "outputs": [
        {
          "internalType": "bytes32",
          "name": "",
          "type": "bytes32"
        }
      ],
      "stateMutability": "view",
      "type": "function"
    },
    {
      "inputs": [],
      "name": "getVerifyUserProtocolFee",
      "outputs": [
        {
          "internalType": "uint256",
          "name": "",
          "type": "uint256"
        }
      ],
      "stateMutability": "view",
      "type": "function"
    },
    {
      "inputs": [
        {
          "internalType": "bytes32",
          "name": "role",
          "type": "bytes32"
        },
        {
          "internalType": "address",
          "name": "account",
          "type": "address"
        }
      ],
      "name": "grantRole",
      "outputs": [],
      "stateMutability": "nonpayable",
      "type": "function"
    },
    {
      "inputs": [
        {
          "internalType": "bytes32",
          "name": "role",
          "type": "bytes32"
        },
        {
          "internalType": "address",
          "name": "account",
          "type": "address"
        }
      ],
      "name": "hasRole",
      "outputs": [
        {
          "internalType": "bool",
          "name": "",
          "type": "bool"
        }
      ],
      "stateMutability": "view",
      "type": "function"
    },
    {
      "inputs": [
        {
          "internalType": "address",
          "name": "admin",
          "type": "address"
        },
        {
          "internalType": "address",
          "name": "_theBadge",
          "type": "address"
        },
        {
          "internalType": "address",
          "name": "_arbitrator",
          "type": "address"
        },
        {
          "internalType": "address",
          "name": "_tcrFactory",
          "type": "address"
        }
      ],
      "name": "initialize",
      "outputs": [],
      "stateMutability": "nonpayable",
      "type": "function"
    },
    {
      "inputs": [
        {
          "internalType": "uint256",
          "name": "badgeId",
          "type": "uint256"
        }
      ],
      "name": "isAssetActive",
      "outputs": [
        {
          "internalType": "bool",
          "name": "",
          "type": "bool"
        }
      ],
      "stateMutability": "view",
      "type": "function"
    },
    {
      "inputs": [
        {
          "internalType": "uint256",
          "name": "badgeId",
          "type": "uint256"
        }
      ],
      "name": "isClaimable",
      "outputs": [
        {
          "internalType": "bool",
          "name": "",
          "type": "bool"
        }
      ],
      "stateMutability": "view",
      "type": "function"
    },
    {
      "inputs": [
        {
          "internalType": "uint256",
          "name": "",
          "type": "uint256"
        },
        {
          "internalType": "address",
          "name": "",
          "type": "address"
        }
      ],
      "name": "isMintable",
      "outputs": [
        {
          "internalType": "bool",
          "name": "",
          "type": "bool"
        }
      ],
      "stateMutability": "pure",
      "type": "function"
    },
    {
      "inputs": [
        {
          "internalType": "uint256",
          "name": "",
          "type": "uint256"
        }
      ],
      "name": "klerosBadgeModels",
      "outputs": [
        {
          "internalType": "address",
          "name": "tcrList",
          "type": "address"
        }
      ],
      "stateMutability": "view",
      "type": "function"
    },
    {
      "inputs": [
        {
          "internalType": "uint256",
          "name": "",
          "type": "uint256"
        }
      ],
      "name": "klerosBadges",
      "outputs": [
        {
          "internalType": "bytes32",
          "name": "itemID",
          "type": "bytes32"
        },
        {
          "internalType": "address",
          "name": "callee",
          "type": "address"
        },
        {
          "internalType": "uint256",
          "name": "deposit",
          "type": "uint256"
        },
        {
          "internalType": "bool",
          "name": "initialized",
          "type": "bool"
        }
      ],
      "stateMutability": "view",
      "type": "function"
    },
    {
      "inputs": [
        {
          "internalType": "address",
          "name": "",
          "type": "address"
        }
      ],
      "name": "klerosUsers",
      "outputs": [
        {
          "internalType": "address",
          "name": "user",
          "type": "address"
        },
        {
          "internalType": "string",
          "name": "userMetadata",
          "type": "string"
        },
        {
          "internalType": "string",
          "name": "verificationEvidence",
          "type": "string"
        },
        {
          "internalType": "enum KlerosBadgeModelControllerStore.VerificationStatus",
          "name": "verificationStatus",
          "type": "uint8"
        },
        {
          "internalType": "bool",
          "name": "initialized",
          "type": "bool"
        }
      ],
      "stateMutability": "view",
      "type": "function"
    },
    {
      "inputs": [
        {
          "internalType": "address",
          "name": "callee",
          "type": "address"
        },
        {
          "internalType": "uint256",
          "name": "badgeModelId",
          "type": "uint256"
        },
        {
          "internalType": "uint256",
          "name": "badgeId",
          "type": "uint256"
        },
        {
          "internalType": "bytes",
          "name": "data",
          "type": "bytes"
        }
      ],
      "name": "mint",
      "outputs": [
        {
          "internalType": "uint256",
          "name": "",
          "type": "uint256"
        }
      ],
      "stateMutability": "payable",
      "type": "function"
    },
    {
      "inputs": [
        {
          "internalType": "uint256",
          "name": "badgeModelId",
          "type": "uint256"
        }
      ],
      "name": "mintValue",
      "outputs": [
        {
          "internalType": "uint256",
          "name": "",
          "type": "uint256"
        }
      ],
      "stateMutability": "view",
      "type": "function"
    },
    {
      "inputs": [],
      "name": "proxiableUUID",
      "outputs": [
        {
          "internalType": "bytes32",
          "name": "",
          "type": "bytes32"
        }
      ],
      "stateMutability": "view",
      "type": "function"
    },
    {
      "inputs": [
        {
          "internalType": "uint256",
          "name": "badgeId",
          "type": "uint256"
        },
        {
          "internalType": "bytes",
          "name": "data",
          "type": "bytes"
        }
      ],
      "name": "removeItem",
      "outputs": [],
      "stateMutability": "payable",
      "type": "function"
    },
    {
      "inputs": [
        {
          "internalType": "bytes32",
          "name": "role",
          "type": "bytes32"
        },
        {
          "internalType": "address",
          "name": "account",
          "type": "address"
        }
      ],
      "name": "renounceRole",
      "outputs": [],
      "stateMutability": "nonpayable",
      "type": "function"
    },
    {
      "inputs": [
        {
          "internalType": "bytes32",
          "name": "role",
          "type": "bytes32"
        },
        {
          "internalType": "address",
          "name": "account",
          "type": "address"
        }
      ],
      "name": "revokeRole",
      "outputs": [],
      "stateMutability": "nonpayable",
      "type": "function"
    },
    {
      "inputs": [
        {
          "internalType": "uint256",
          "name": "badgeId",
          "type": "uint256"
        },
        {
          "internalType": "bytes",
          "name": "data",
          "type": "bytes"
        }
      ],
      "name": "submitEvidence",
      "outputs": [],
      "stateMutability": "nonpayable",
      "type": "function"
    },
    {
      "inputs": [
        {
          "internalType": "address",
          "name": "_user",
          "type": "address"
        },
        {
          "internalType": "string",
          "name": "userMetadata",
          "type": "string"
        },
        {
          "internalType": "string",
          "name": "evidenceUri",
          "type": "string"
        }
      ],
      "name": "submitUserVerification",
      "outputs": [],
      "stateMutability": "nonpayable",
      "type": "function"
    },
    {
      "inputs": [
        {
          "internalType": "bytes4",
          "name": "interfaceId",
          "type": "bytes4"
        }
      ],
      "name": "supportsInterface",
      "outputs": [
        {
          "internalType": "bool",
          "name": "",
          "type": "bool"
        }
      ],
      "stateMutability": "view",
      "type": "function"
    },
    {
      "inputs": [],
      "name": "tcrFactory",
      "outputs": [
        {
          "internalType": "address",
          "name": "",
          "type": "address"
        }
      ],
      "stateMutability": "view",
      "type": "function"
    },
    {
      "inputs": [],
      "name": "theBadge",
      "outputs": [
        {
          "internalType": "contract TheBadge",
          "name": "",
          "type": "address"
        }
      ],
      "stateMutability": "view",
      "type": "function"
    },
    {
      "inputs": [
        {
          "internalType": "uint256",
          "name": "_verifyUserProtocolFee",
          "type": "uint256"
        }
      ],
      "name": "updateVerifyUserProtocolFee",
      "outputs": [],
      "stateMutability": "nonpayable",
      "type": "function"
    },
    {
      "inputs": [
        {
          "internalType": "address",
          "name": "newImplementation",
          "type": "address"
        }
      ],
      "name": "upgradeTo",
      "outputs": [],
      "stateMutability": "nonpayable",
      "type": "function"
    },
    {
      "inputs": [
        {
          "internalType": "address",
          "name": "newImplementation",
          "type": "address"
        },
        {
          "internalType": "bytes",
          "name": "data",
          "type": "bytes"
        }
      ],
      "name": "upgradeToAndCall",
      "outputs": [],
      "stateMutability": "payable",
      "type": "function"
    },
    {
      "stateMutability": "payable",
      "type": "receive"
    }
  ],
  "bytecode": "0x60a0604052306080523480156200001557600080fd5b50600054610100900460ff1615808015620000375750600054600160ff909116105b8062000067575062000054306200014160201b6200225a1760201c565b15801562000067575060005460ff166001145b620000cf5760405162461bcd60e51b815260206004820152602e60248201527f496e697469616c697a61626c653a20636f6e747261637420697320616c72656160448201526d191e481a5b9a5d1a585b1a5e995960921b606482015260840160405180910390fd5b6000805460ff191660011790558015620000f3576000805461ff0019166101001790555b80156200013a576000805461ff0019169055604051600181527f7f26b83ff96e1f2b6a682f133852f6798a09c465da95921460cefb38474024989060200160405180910390a15b5062000150565b6001600160a01b03163b151590565b608051613af96200018860003960008181610ac401528181610b0401528181610d8301528181610dc30152610e520152613af96000f3fe6080604052600436106102345760003560e01c80637f3457101161012e578063c22b06a3116100ab578063e63ab1e91161006f578063e63ab1e91461072c578063e7705db614610760578063f72c0d8b14610794578063f8c8765e146107c8578063fb094b68146107e857600080fd5b8063c22b06a31461065c578063caa39ec514610692578063d5391393146106b8578063d547741f146106ec578063d7deba151461070c57600080fd5b80639f780b1d116100f25780639f780b1d146105e15780639faf715814610601578063a03aafbf14610614578063a217fddf14610627578063b5a867fa1461063c57600080fd5b80637f3457101461052d57806389610a09146105615780638ac516b81461058157806391d14854146105a157806393c7a71b146105c157600080fd5b80634f1ef286116101bc5780636e24d073116101805780636e24d0731461044c578063731133e9146104c55780637657dbdd146104d857806377a3989e146104ed5780637eb7f1761461050d57600080fd5b80634f1ef2861461039857806352d1902d146103ab57806362a2a47c146103c0578063632f7c83146103f45780636cc6cde11461041457600080fd5b80632c026696116102035780632c026696146102f55780632f2ff15d1461031857806336568abe146103385780633659cfe61461035857806338926b6d1461037857600080fd5b806301ffc9a714610240578063130bd93f1461027557806322e900c214610297578063248a9ca3146102b757600080fd5b3661023b57005b600080fd5b34801561024c57600080fd5b5061026061025b366004612c0b565b610819565b60405190151581526020015b60405180910390f35b34801561028157600080fd5b50610295610290366004612c68565b610850565b005b3480156102a357600080fd5b506102606102b2366004612ca1565b610950565b3480156102c357600080fd5b506102e76102d2366004612ca1565b600090815260cf602052604090206001015490565b60405190815260200161026c565b34801561030157600080fd5b50610260610310366004612cba565b600192915050565b34801561032457600080fd5b50610295610333366004612cba565b610a0d565b34801561034457600080fd5b50610295610353366004612cba565b610a37565b34801561036457600080fd5b50610295610373366004612cdf565b610aba565b34801561038457600080fd5b50610295610393366004612d44565b610b99565b6102956103a6366004612ea7565b610d79565b3480156103b757600080fd5b506102e7610e45565b3480156103cc57600080fd5b506102e77f2dca0f5ce7e75a4b43fe2b0d6f5d0b7a2bf92ecf89f8f0aa17b8308b6703882181565b34801561040057600080fd5b506102e761040f366004612ca1565b610ef8565b34801561042057600080fd5b50600154610434906001600160a01b031681565b6040516001600160a01b03909116815260200161026c565b34801561045857600080fd5b5061049b610467366004612ca1565b600560205260009081526040902080546001820154600283015460039093015491926001600160a01b039091169160ff1684565b604080519485526001600160a01b039093166020850152918301521515606082015260800161026c565b6102e76104d3366004612f0a565b611060565b3480156104e457600080fd5b506003546102e7565b3480156104f957600080fd5b50610295610508366004612d44565b61126a565b34801561051957600080fd5b506102e7610528366004612ca1565b611577565b34801561053957600080fd5b506102e77f7804d923f43a17d325d77e781528e0793b2edd9890ab45fc64efd7b4b427744c81565b34801561056d57600080fd5b5061026061057c366004612ca1565b61160b565b34801561058d57600080fd5b5061029561059c366004612ca1565b6118bf565b3480156105ad57600080fd5b506102606105bc366004612cba565b6118fc565b3480156105cd57600080fd5b506102956105dc366004612d44565b611927565b3480156105ed57600080fd5b50600254610434906001600160a01b031681565b61029561060f366004612d44565b611a3d565b610295610622366004612d44565b611b53565b34801561063357600080fd5b506102e7600081565b34801561064857600080fd5b50610295610657366004612f93565b611c2f565b34801561066857600080fd5b50610434610677366004612ca1565b6004602052600090815260409020546001600160a01b031681565b34801561069e57600080fd5b50600054610434906201000090046001600160a01b031681565b3480156106c457600080fd5b506102e77f9f2df0fed2c77648de5860a4cc508cd0818c85b8b8a1ab4ceeef8d981c8956a681565b3480156106f857600080fd5b50610295610707366004612cba565b611cd8565b34801561071857600080fd5b506102e7610727366004612ca1565b611cfd565b34801561073857600080fd5b506102e77f65d7a28e3265b37a6474929f336521b332c1681b933f6cb9f3376673440d862a81565b34801561076c57600080fd5b506102e77f0ce23c3e399818cfee81a7ab0880f714e53d7672b08df0fa62f2843416e1ea0981565b3480156107a057600080fd5b506102e77f189ab7a9244df0848122154315af71fe140f3db0fe014031783b0946b8c9d2e381565b3480156107d457600080fd5b506102956107e3366004613008565b611f23565b3480156107f457600080fd5b50610808610803366004612cdf565b61210b565b60405161026c9594939291906130ca565b60006001600160e01b03198216637965db0b60e01b148061084a57506301ffc9a760e01b6001600160e01b03198316145b92915050565b6000546201000090046001600160a01b031633146108815760405163942e92c760e01b815260040160405180910390fd5b6001600160a01b03821660009081526006602052604090206003810154839190610100900460ff166108c65760405163bb572dbf60e01b815260040160405180910390fd5b6000600382015460ff1660028111156108e1576108e16130b4565b146108ff57604051636ed1ab8760e11b815260040160405180910390fd5b6001600160a01b038416600090815260066020526040902083610923576002610926565b60015b60038201805460ff19166001836002811115610944576109446130b4565b02179055505050505050565b60008061095c83612269565b60008481526005602052604080822080549151634aac84e560e01b815260048101929092529293506001600160a01b03841690634aac84e590602401606060405180830381865afa1580156109b5573d6000803e3d6000fd5b505050506040513d601f19601f820116820180604052508101906109d99190613139565b505090508060ff16600114806109f257508060ff166003145b15610a0257506001949350505050565b506000949350505050565b600082815260cf6020526040902060010154610a288161232b565b610a328383612335565b505050565b6001600160a01b0381163314610aac5760405162461bcd60e51b815260206004820152602f60248201527f416363657373436f6e74726f6c3a2063616e206f6e6c792072656e6f756e636560448201526e103937b632b9903337b91039b2b63360891b60648201526084015b60405180910390fd5b610ab682826123bb565b5050565b6001600160a01b037f0000000000000000000000000000000000000000000000000000000000000000163003610b025760405162461bcd60e51b8152600401610aa390613176565b7f00000000000000000000000000000000000000000000000000000000000000006001600160a01b0316610b4b600080516020613a7d833981519152546001600160a01b031690565b6001600160a01b031614610b715760405162461bcd60e51b8152600401610aa3906131c2565b610b7a81612422565b60408051600080825260208201909252610b969183919061244c565b50565b6000546201000090046001600160a01b03163314610bca5760405163942e92c760e01b815260040160405180910390fd5b6000610bd584612269565b6000858152600560209081526040918290208251608081018452815480825260018301546001600160a01b039081169483019490945260028301548286015260039092015460ff161515606082015292516374e120b360e11b8152600481019190915292935090919083169063e9c2416690602401600060405180830381600087803b158015610c6457600080fd5b505af1158015610c78573d6000803e3d6000fd5b505050504781604001511115610ca1576040516398e2a0bb60e01b815260040160405180910390fd5b604081810180516000918290526020840151925190926001600160a01b03169083908381818185875af1925050503d8060008114610cfb576040519150601f19603f3d011682016040523d82523d6000602084013e610d00565b606091505b5090915050801515600003610d285760405163aa701b0560e01b815260040160405180910390fd5b8683602001516001600160a01b03167f9794db68af033346a63dbc4509364afc3a23201eced8a4f3bc64d029abfacc6584604051610d6891815260200190565b60405180910390a350505050505050565b6001600160a01b037f0000000000000000000000000000000000000000000000000000000000000000163003610dc15760405162461bcd60e51b8152600401610aa390613176565b7f00000000000000000000000000000000000000000000000000000000000000006001600160a01b0316610e0a600080516020613a7d833981519152546001600160a01b031690565b6001600160a01b031614610e305760405162461bcd60e51b8152600401610aa3906131c2565b610e3982612422565b610ab68282600161244c565b6000306001600160a01b037f00000000000000000000000000000000000000000000000000000000000000001614610ee55760405162461bcd60e51b815260206004820152603860248201527f555550535570677261646561626c653a206d757374206e6f742062652063616c60448201527f6c6564207468726f7567682064656c656761746563616c6c00000000000000006064820152608401610aa3565b50600080516020613a7d83398151915290565b60008181526004602081905260408083208054600154835163063d63db60e11b8152935192946001600160a01b03928316948794939092169263f7434ea9928692630c7ac7b692828201928892908290030181865afa158015610f5f573d6000803e3d6000fd5b505050506040513d6000823e601f3d908101601f19168201604052610f879190810190613253565b6040518263ffffffff1660e01b8152600401610fa39190613287565b602060405180830381865afa158015610fc0573d6000803e3d6000fd5b505050506040513d601f19601f82011682018060405250810190610fe4919061329a565b90506000826001600160a01b031663bb0b86ff6040518163ffffffff1660e01b8152600401602060405180830381865afa158015611026573d6000803e3d6000fd5b505050506040513d601f19601f8201168201806040525081019061104a919061329a565b905061105681836132c9565b9695505050505050565b600080546201000090046001600160a01b031633146110925760405163942e92c760e01b815260040160405180910390fd5b600061109d86610ef8565b90508034146110bf57604051637bcb3e5760e01b815260040160405180910390fd5b6000868152600460205260408120805490916001600160a01b03909116906110e986880188613340565b80516040516309fa7ca560e21b81529192506001600160a01b038416916327e9f29491349161111b9190600401613287565b6000604051808303818588803b15801561113457600080fd5b505af1158015611148573d6000803e3d6000fd5b5050505050600081600001516040516020016111649190613374565b60405160208183030381529060405280519060200120905060405180608001604052808281526020018c6001600160a01b0316815260200134815260200160011515815250600560008b81526020019081526020016000206000820151816000015560208201518160010160006101000a8154816001600160a01b0302191690836001600160a01b031602179055506040820151816002015560608201518160030160006101000a81548160ff021916908315150217905550905050887fdd7e1dd9a30843ba8c2619a3c5ce27830ad90612bad48feeb549fc94114d626183600001516040516112549190613287565b60405180910390a29a9950505050505050505050565b6000546201000090046001600160a01b0316331461129b5760405163942e92c760e01b815260040160405180910390fd5b600083815260046020526040902080546001600160a01b0316156112d257604051634d1068bd60e11b815260040160405180910390fd5b6002546001600160a01b031660006112ec8486018661340b565b60015460408083015190519293506001600160a01b038086169363d8dcbd2793909116916113209160200190815260200190565b60408051601f1981840301815282825260608701516020840152910160408051601f198184030181529082905261135a9291602001613502565b60408051808303601f1901815290829052608086015160a0870151875160e0808a015160c08b01516101008c015160208d0151938b901b6001600160e01b03191689526113b1999860009796959490600401613554565b600060405180830381600087803b1580156113cb57600080fd5b505af11580156113df573d6000803e3d6000fd5b5050505060006001836001600160a01b03166306661abd6040518163ffffffff1660e01b8152600401602060405180830381865afa158015611425573d6000803e3d6000fd5b505050506040513d601f19601f82011682018060405250810190611449919061329a565b6114539190613617565b60405163a2f7b3a560e01b8152600481018290529091506000906001600160a01b0385169063a2f7b3a5906024016020604051808303816000875af11580156114a0573d6000803e3d6000fd5b505050506040513d601f19601f820116820180604052508101906114c4919061362a565b90506001600160a01b0381166114ed57604051637788791560e11b815260040160405180910390fd5b60408051602080820183526001600160a01b0384811680845260008d8152600490935291849020925183546001600160a01b031916911617909155608085015160a0860151925191928b927f1e83a75c2089c1100e6d9a024ea6fdf619ec5a922a17230682fbf1217d2a7ec192611565929091613647565b60405180910390a35050505050505050565b60008061158383612269565b90506000611590846125b7565b90506000826001600160a01b031663c2f2beea6040518163ffffffff1660e01b8152600401602060405180830381865afa1580156115d2573d6000803e3d6000fd5b505050506040513d601f19601f820116820180604052508101906115f6919061329a565b905061160282826127a2565b95945050505050565b60008061161783612269565b600084815260056020526040812060038101549293509160ff161515900361165257604051630c11d07360e01b815260040160405180910390fd5b805460000361167457604051630c11d07360e01b815260040160405180910390fd5b80546040516348f343f360e01b81526000916001600160a01b038516916348f343f3916116a79160040190815260200190565b606060405180830381865afa1580156116c4573d6000803e3d6000fd5b505050506040513d601f19601f820116820180604052508101906116e8919061366c565b8454604051634aac84e560e01b81526004810191909152909350600092506001600160a01b0386169150634aac84e590602401606060405180830381865afa158015611738573d6000803e3d6000fd5b505050506040513d601f19601f8201168201806040525081019061175c9190613139565b50509050600060018361176f91906136de565b8454604051635fde7f8d60e11b815260048101919091526001600160781b03919091166024820181905291506000906001600160a01b0387169063bfbcff1a90604401600060405180830381865afa1580156117cf573d6000803e3d6000fd5b505050506040513d6000823e601f3d908101601f191682016040526117f7919081019061371f565b50505050505050925050506000866001600160a01b03166282a36d6040518163ffffffff1660e01b8152600401602060405180830381865afa158015611841573d6000803e3d6000fd5b505050506040513d601f19601f82011682018060405250810190611865919061329a565b90506000816118748442613617565b11611880576000611883565b60015b90508460ff16600214801561189a57506001811515145b156118af575060019998505050505050505050565b5060009998505050505050505050565b60006118ca8161232b565b60038290556040517f810f1720fbc34c56d171f89315ad21708648fd17424c27b88fa208409845aa7790600090a15050565b600091825260cf602090815260408084206001600160a01b0393909316845291905290205460ff1690565b6000546201000090046001600160a01b031633146119585760405163942e92c760e01b815260040160405180910390fd5b60008381526005602052604081206003810154909160ff9091161515900361199357604051630c11d07360e01b815260040160405180910390fd5b80546000036119b557604051630c11d07360e01b815260040160405180910390fd5b60006119c383850185613340565b905060006119d086612269565b8354835160405163f48a0b3160e01b81529293506001600160a01b0384169263f48a0b3192611a03929091600401613823565b600060405180830381600087803b158015611a1d57600080fd5b505af1158015611a31573d6000803e3d6000fd5b50505050505050505050565b6000546201000090046001600160a01b03163314611a6e5760405163942e92c760e01b815260040160405180910390fd5b60008381526005602052604081206003810154909160ff90911615159003611aa957604051630c11d07360e01b815260040160405180910390fd5b8054600003611acb57604051630c11d07360e01b815260040160405180910390fd5b6000611ad983850185613340565b90506000611ae686612269565b8354835160405163097e90e560e41b81529293506001600160a01b038416926397e90e50923492611b1992600401613823565b6000604051808303818588803b158015611b3257600080fd5b505af1158015611b46573d6000803e3d6000fd5b5050505050505050505050565b6000546201000090046001600160a01b03163314611b845760405163942e92c760e01b815260040160405180910390fd5b60008381526005602052604081206003810154909160ff90911615159003611bbf57604051630c11d07360e01b815260040160405180910390fd5b8054600003611be157604051630c11d07360e01b815260040160405180910390fd5b6000611bef83850185613340565b90506000611bfc86612269565b8354835160405163873db1a760e01b81529293506001600160a01b0384169263873db1a7923492611b1992600401613823565b6000546201000090046001600160a01b03163314611c605760405163942e92c760e01b815260040160405180910390fd5b6001600160a01b03831660009081526006602052604090206003810154610100900460ff1615611ca357604051637815482960e11b815260040160405180910390fd5b60038101805461ffff191661010017905560018101611cc284826138c4565b5060028101611cd183826138c4565b5050505050565b600082815260cf6020526040902060010154611cf38161232b565b610a3283836123bb565b6000818152600560205260408120600381015460ff1615158203611d3457604051630c11d07360e01b815260040160405180910390fd5b8054600003611d5657604051630c11d07360e01b815260040160405180910390fd5b6000611d6184612269565b8254604051634aac84e560e01b815260048101919091529091506000906001600160a01b03831690634aac84e590602401606060405180830381865afa158015611daf573d6000803e3d6000fd5b505050506040513d601f19601f82011682018060405250810190611dd39190613139565b505090506000611de2866125b7565b90508160ff16600103611e5b57611056836001600160a01b031663a37b6ad46040518163ffffffff1660e01b8152600401602060405180830381865afa158015611e30573d6000803e3d6000fd5b505050506040513d601f19601f82011682018060405250810190611e54919061329a565b82906127a2565b8160ff16600203611ea757611056836001600160a01b031663c2f2beea6040518163ffffffff1660e01b8152600401602060405180830381865afa158015611e30573d6000803e3d6000fd5b8160ff16600303611ebe5750600095945050505050565b8160ff16600403611f0a57611056836001600160a01b031663787471a96040518163ffffffff1660e01b8152600401602060405180830381865afa158015611e30573d6000803e3d6000fd5b6040516305e5cf6360e41b815260040160405180910390fd5b600054610100900460ff1615808015611f435750600054600160ff909116105b80611f5d5750303b158015611f5d575060005460ff166001145b611fc05760405162461bcd60e51b815260206004820152602e60248201527f496e697469616c697a61626c653a20636f6e747261637420697320616c72656160448201526d191e481a5b9a5d1a585b1a5e995960921b6064820152608401610aa3565b6000805460ff191660011790558015611fe3576000805461ff0019166101001790555b611fee600086612335565b6120187f65d7a28e3265b37a6474929f336521b332c1681b933f6cb9f3376673440d862a33612335565b6120427f189ab7a9244df0848122154315af71fe140f3db0fe014031783b0946b8c9d2e333612335565b600080546001600160a01b03808716620100000262010000600160b01b0319909216919091178255600180548683166001600160a01b0319918216179091556002805486841692168217905560038390556040519092918816917fdc90fed0326ba91706deeac7eb34ac9f8b680734f9d782864dc29704d23bed6a91a38015611cd1576000805461ff0019169055604051600181527f7f26b83ff96e1f2b6a682f133852f6798a09c465da95921460cefb38474024989060200160405180910390a15050505050565b600660205260009081526040902080546001820180546001600160a01b0390921692916121379061383c565b80601f01602080910402602001604051908101604052809291908181526020018280546121639061383c565b80156121b05780601f10612185576101008083540402835291602001916121b0565b820191906000526020600020905b81548152906001019060200180831161219357829003601f168201915b5050505050908060020180546121c59061383c565b80601f01602080910402602001604051908101604052809291908181526020018280546121f19061383c565b801561223e5780601f106122135761010080835404028352916020019161223e565b820191906000526020600020905b81548152906001019060200180831161222157829003601f168201915b5050506003909301549192505060ff8082169161010090041685565b6001600160a01b03163b151590565b600080546040516398e36d8b60e01b81526004810184905282916201000090046001600160a01b0316906398e36d8b90602401608060405180830381865afa1580156122b9573d6000803e3d6000fd5b505050506040513d601f19601f820116820180604052508101906122dd9190613983565b50505060008181526004602052604090208054919250906001600160a01b031661231a57604051633deb66a760e21b815260040160405180910390fd5b546001600160a01b03169392505050565b610b9681336127cb565b61233f82826118fc565b610ab657600082815260cf602090815260408083206001600160a01b03851684529091529020805460ff191660011790556123773390565b6001600160a01b0316816001600160a01b0316837f2f8788117e7eff1d82e926ec794901d17c78024a50270940304540a733656f0d60405160405180910390a45050565b6123c582826118fc565b15610ab657600082815260cf602090815260408083206001600160a01b0385168085529252808320805460ff1916905551339285917ff6391f5c32d9c69d2a47ea670b442974b53935d1edc7fd64eb21e047a839171b9190a45050565b7f189ab7a9244df0848122154315af71fe140f3db0fe014031783b0946b8c9d2e3610ab68161232b565b7f4910fdfa16fed3260ed0e7147f7cc6da11a60208b5b9406d12a635614ffd91435460ff161561247f57610a3283612824565b826001600160a01b03166352d1902d6040518163ffffffff1660e01b8152600401602060405180830381865afa9250505080156124d9575060408051601f3d908101601f191682019092526124d69181019061329a565b60015b61253c5760405162461bcd60e51b815260206004820152602e60248201527f45524331393637557067726164653a206e657720696d706c656d656e7461746960448201526d6f6e206973206e6f74205555505360901b6064820152608401610aa3565b600080516020613a7d83398151915281146125ab5760405162461bcd60e51b815260206004820152602960248201527f45524331393637557067726164653a20756e737570706f727465642070726f786044820152681a58589b195555525160ba1b6064820152608401610aa3565b50610a328383836128c0565b600081815260056020908152604080832081516080810183528154815260018201546001600160a01b0316938101939093526002810154918301919091526003015460ff16151560608201528161260d84612269565b82516040516348f343f360e01b815260048101919091529091506000906001600160a01b038316906348f343f390602401606060405180830381865afa15801561265b573d6000803e3d6000fd5b505050506040513d601f19601f8201168201806040525081019061267f919061366c565b92505050600060018261269291906136de565b8451604051635fde7f8d60e11b815260048101919091526001600160781b03919091166024820181905291506000906001600160a01b0385169063bfbcff1a90604401600060405180830381865afa1580156126f2573d6000803e3d6000fd5b505050506040513d6000823e601f3d908101601f1916820160405261271a919081019061371f565b5060015460405163f7434ea960e01b8152919a506001600160a01b0316985063f7434ea997506127569650899550600401935061328792505050565b602060405180830381865afa158015612773573d6000803e3d6000fd5b505050506040513d601f19601f82011682018060405250810190612797919061329a565b979650505050505050565b6000806127af83856132c9565b9050838110156127c1576000196127c3565b805b949350505050565b6127d582826118fc565b610ab6576127e2816128eb565b6127ed8360206128fd565b6040516020016127fe9291906139c3565b60408051601f198184030181529082905262461bcd60e51b8252610aa391600401613287565b6001600160a01b0381163b6128915760405162461bcd60e51b815260206004820152602d60248201527f455243313936373a206e657720696d706c656d656e746174696f6e206973206e60448201526c1bdd08184818dbdb9d1c9858dd609a1b6064820152608401610aa3565b600080516020613a7d83398151915280546001600160a01b0319166001600160a01b0392909216919091179055565b6128c983612a98565b6000825111806128d65750805b15610a32576128e58383612ad8565b50505050565b606061084a6001600160a01b03831660145b6060600061290c836002613a38565b6129179060026132c9565b6001600160401b0381111561292e5761292e612d8f565b6040519080825280601f01601f191660200182016040528015612958576020820181803683370190505b509050600360fc1b8160008151811061297357612973613a4f565b60200101906001600160f81b031916908160001a905350600f60fb1b816001815181106129a2576129a2613a4f565b60200101906001600160f81b031916908160001a90535060006129c6846002613a38565b6129d19060016132c9565b90505b6001811115612a49576f181899199a1a9b1b9c1cb0b131b232b360811b85600f1660108110612a0557612a05613a4f565b1a60f81b828281518110612a1b57612a1b613a4f565b60200101906001600160f81b031916908160001a90535060049490941c93612a4281613a65565b90506129d4565b5083156127c15760405162461bcd60e51b815260206004820181905260248201527f537472696e67733a20686578206c656e67746820696e73756666696369656e746044820152606401610aa3565b612aa181612824565b6040516001600160a01b038216907fbc7cd75a20ee27fd9adebab32041f755214dbc6bffa90cc0225b39da2e5c2d3b90600090a250565b6060612afd8383604051806060016040528060278152602001613a9d60279139612b04565b9392505050565b6060600080856001600160a01b031685604051612b219190613374565b600060405180830381855af49150503d8060008114612b5c576040519150601f19603f3d011682016040523d82523d6000602084013e612b61565b606091505b50915091506110568683838760608315612bdc578251600003612bd5576001600160a01b0385163b612bd55760405162461bcd60e51b815260206004820152601d60248201527f416464726573733a2063616c6c20746f206e6f6e2d636f6e74726163740000006044820152606401610aa3565b50816127c3565b6127c38383815115612bf15781518083602001fd5b8060405162461bcd60e51b8152600401610aa39190613287565b600060208284031215612c1d57600080fd5b81356001600160e01b0319811681146127c157600080fd5b6001600160a01b0381168114610b9657600080fd5b8035612c5581612c35565b919050565b8015158114610b9657600080fd5b60008060408385031215612c7b57600080fd5b8235612c8681612c35565b91506020830135612c9681612c5a565b809150509250929050565b600060208284031215612cb357600080fd5b5035919050565b60008060408385031215612ccd57600080fd5b823591506020830135612c9681612c35565b600060208284031215612cf157600080fd5b81356127c181612c35565b60008083601f840112612d0e57600080fd5b5081356001600160401b03811115612d2557600080fd5b602083019150836020828501011115612d3d57600080fd5b9250929050565b600080600060408486031215612d5957600080fd5b8335925060208401356001600160401b03811115612d7657600080fd5b612d8286828701612cfc565b9497909650939450505050565b634e487b7160e01b600052604160045260246000fd5b60405161012081016001600160401b0381118282101715612dc857612dc8612d8f565b60405290565b604051608081016001600160401b0381118282101715612dc857612dc8612d8f565b604051606081016001600160401b0381118282101715612dc857612dc8612d8f565b604051601f8201601f191681016001600160401b0381118282101715612e3a57612e3a612d8f565b604052919050565b60006001600160401b03821115612e5b57612e5b612d8f565b50601f01601f191660200190565b6000612e7c612e7784612e42565b612e12565b9050828152838383011115612e9057600080fd5b828260208301376000602084830101529392505050565b60008060408385031215612eba57600080fd5b8235612ec581612c35565b915060208301356001600160401b03811115612ee057600080fd5b8301601f81018513612ef157600080fd5b612f0085823560208401612e69565b9150509250929050565b600080600080600060808688031215612f2257600080fd5b8535612f2d81612c35565b9450602086013593506040860135925060608601356001600160401b03811115612f5657600080fd5b612f6288828901612cfc565b969995985093965092949392505050565b600082601f830112612f8457600080fd5b612afd83833560208501612e69565b600080600060608486031215612fa857600080fd5b8335612fb381612c35565b925060208401356001600160401b0380821115612fcf57600080fd5b612fdb87838801612f73565b93506040860135915080821115612ff157600080fd5b50612ffe86828701612f73565b9150509250925092565b6000806000806080858703121561301e57600080fd5b843561302981612c35565b9350602085013561303981612c35565b9250604085013561304981612c35565b9150606085013561305981612c35565b939692955090935050565b60005b8381101561307f578181015183820152602001613067565b50506000910152565b600081518084526130a0816020860160208601613064565b601f01601f19169290920160200192915050565b634e487b7160e01b600052602160045260246000fd5b6001600160a01b038616815260a0602082018190526000906130ee90830187613088565b82810360408401526131008187613088565b9150506003841061312157634e487b7160e01b600052602160045260246000fd5b83606083015282151560808301529695505050505050565b60008060006060848603121561314e57600080fd5b835160ff8116811461315f57600080fd5b602085015160409095015190969495509392505050565b6020808252602c908201527f46756e6374696f6e206d7573742062652063616c6c6564207468726f7567682060408201526b19195b1959d85d1958d85b1b60a21b606082015260800190565b6020808252602c908201527f46756e6374696f6e206d7573742062652063616c6c6564207468726f7567682060408201526b6163746976652070726f787960a01b606082015260800190565b600082601f83011261321f57600080fd5b815161322d612e7782612e42565b81815284602083860101111561324257600080fd5b6127c3826020830160208701613064565b60006020828403121561326557600080fd5b81516001600160401b0381111561327b57600080fd5b6127c38482850161320e565b602081526000612afd6020830184613088565b6000602082840312156132ac57600080fd5b5051919050565b634e487b7160e01b600052601160045260246000fd5b8082018082111561084a5761084a6132b3565b6000602082840312156132ee57600080fd5b604051602081016001600160401b03828210818311171561331157613311612d8f565b81604052829350843591508082111561332957600080fd5b5061333685828601612f73565b8252505092915050565b60006020828403121561335257600080fd5b81356001600160401b0381111561336857600080fd5b6127c3848285016132dc565b60008251613386818460208701613064565b9190910192915050565b600082601f8301126133a157600080fd5b6133a9612dce565b8060808401858111156133bb57600080fd5b845b818110156133d55780358452602093840193016133bd565b509095945050505050565b600082601f8301126133f157600080fd5b6133f9612df0565b8060608401858111156133bb57600080fd5b60006020828403121561341d57600080fd5b81356001600160401b038082111561343457600080fd5b908301906101c0828603121561344957600080fd5b613451612da5565b61345a83612c4a565b815261346860208401612c4a565b6020820152604083013560408201526060830135606082015260808301358281111561349357600080fd5b61349f87828601612f73565b60808301525060a0830135828111156134b757600080fd5b6134c387828601612f73565b60a08301525060c083013560c08201526134e08660e08501613390565b60e08201526134f38661016085016133e0565b61010082015295945050505050565b60008351613514818460208801613064565b835190830190613528818360208801613064565b01949350505050565b8060005b60038110156128e5578151845260209384019390910190600101613535565b6001600160a01b038b811682526101e060208084018290526000929061357c8584018f613088565b9250818d1660408601528483036060860152613598838d613088565b925084830360808601526135ac838c613088565b9350818a1660a086015260c08501925088915060005b60048110156135df578251845292810192918101916001016135c2565b50505050846101408301526135f8610160830185613531565b6001600160a01b0383166101c08301529b9a5050505050505050505050565b8181038181111561084a5761084a6132b3565b60006020828403121561363c57600080fd5b81516127c181612c35565b60408152600061365a6040830185613088565b82810360208401526116028185613088565b60008060006060848603121561368157600080fd5b83516004811061369057600080fd5b60208501519093506fffffffffffffffffffffffffffffffff811681146136b657600080fd5b60408501519092506001600160781b03811681146136d357600080fd5b809150509250925092565b6001600160781b038281168282160390808211156136fe576136fe6132b3565b5092915050565b805160038110612c5557600080fd5b8051612c5581612c35565b6000806000806000806000806000806101808b8d03121561373f57600080fd5b8a5161374a81612c5a565b809a50506020808c0151995060408c0151985060608c015161376b81612c5a565b9750609f8c018d1361377c57600080fd5b613784612df0565b8060e08e018f81111561379657600080fd5b60808f015b818110156137bb5780516137ae81612c35565b845292840192840161379b565b505190985096506137d29150506101008c01613705565b93506137e16101208c01613714565b92506101408b01516001600160401b038111156137fd57600080fd5b6138098d828e0161320e565b9250506101608b015190509295989b9194979a5092959850565b8281526040602082015260006127c36040830184613088565b600181811c9082168061385057607f821691505b60208210810361387057634e487b7160e01b600052602260045260246000fd5b50919050565b601f821115610a3257600081815260208120601f850160051c8101602086101561389d5750805b601f850160051c820191505b818110156138bc578281556001016138a9565b505050505050565b81516001600160401b038111156138dd576138dd612d8f565b6138f1816138eb845461383c565b84613876565b602080601f831160018114613926576000841561390e5750858301515b600019600386901b1c1916600185901b1785556138bc565b600085815260208120601f198616915b8281101561395557888601518255948401946001909101908401613936565b50858210156139735787850151600019600388901b60f8161c191681555b5050505050600190811b01905550565b6000806000806080858703121561399957600080fd5b8451935060208501516139ab81612c35565b60408601516060870151919450925061305981612c5a565b7f416363657373436f6e74726f6c3a206163636f756e74200000000000000000008152600083516139fb816017850160208801613064565b7001034b99036b4b9b9b4b733903937b6329607d1b6017918401918201528351613a2c816028840160208801613064565b01602801949350505050565b808202811582820484141761084a5761084a6132b3565b634e487b7160e01b600052603260045260246000fd5b600081613a7457613a746132b3565b50600019019056fe360894a13ba1a3210667c828492db98dca3e2076cc3735a920a3ca505d382bbc416464726573733a206c6f772d6c6576656c2064656c65676174652063616c6c206661696c6564a2646970667358221220dd3e110dbcd14917044ec6e5d44c71861ad7eef0e8d2f5960cb5d65ea660c0c664736f6c63430008110033",
  "linkReferences": {},
  "deployedLinkReferences": {}
}