{
  "_format": "hh-sol-artifact-1",
  "contractName": "KlerosBadgeModelController",
  "sourceName": "src/contracts/badgeModelControllers/KlerosBadgeModelController.sol",
  "abi": [
    {
      "inputs": [],
      "stateMutability": "nonpayable",
      "type": "constructor"
    },
    {
      "inputs": [],
      "name": "AccessControlBadConfirmation",
      "type": "error"
    },
    {
      "inputs": [
        {
          "internalType": "address",
          "name": "account",
          "type": "address"
        },
        {
          "internalType": "bytes32",
          "name": "neededRole",
          "type": "bytes32"
        }
      ],
      "name": "AccessControlUnauthorizedAccount",
      "type": "error"
    },
    {
      "inputs": [
        {
          "internalType": "address",
          "name": "target",
          "type": "address"
        }
      ],
      "name": "AddressEmptyCode",
      "type": "error"
    },
    {
      "inputs": [
        {
          "internalType": "address",
          "name": "implementation",
          "type": "address"
        }
      ],
      "name": "ERC1967InvalidImplementation",
      "type": "error"
    },
    {
      "inputs": [],
      "name": "ERC1967NonPayable",
      "type": "error"
    },
    {
      "inputs": [],
      "name": "FailedInnerCall",
      "type": "error"
    },
    {
      "inputs": [],
      "name": "InvalidInitialization",
      "type": "error"
    },
    {
      "inputs": [],
      "name": "KlerosBadgeModelController__badge__depositReturnFailed",
      "type": "error"
    },
    {
      "inputs": [],
      "name": "KlerosBadgeModelController__badge__klerosBadgeNotFound",
      "type": "error"
    },
    {
      "inputs": [],
      "name": "KlerosBadgeModelController__badge__notInChallengeableStatus",
      "type": "error"
    },
    {
      "inputs": [],
      "name": "KlerosBadgeModelController__badge__tcrKlerosBadgeNotFound",
      "type": "error"
    },
    {
      "inputs": [],
      "name": "KlerosBadgeModelController__claimBadge_insufficientBalance",
      "type": "error"
    },
    {
      "inputs": [],
      "name": "KlerosBadgeModelController__createBadgeModel_badgeModelAlreadyCreated",
      "type": "error"
    },
    {
      "inputs": [],
      "name": "KlerosBadgeModelController__mintBadge_wrongValue",
      "type": "error"
    },
    {
      "inputs": [],
      "name": "KlerosBadgeModelController__onlyTheBadge_senderNotTheBadge",
      "type": "error"
    },
    {
      "inputs": [],
      "name": "KlerosBadgeModelController__onlyTheBadge_senderNotTheBadgeModels",
      "type": "error"
    },
    {
      "inputs": [],
      "name": "KlerosBadgeModelController__onlyTheBadge_senderNotTheBadgeUsers",
      "type": "error"
    },
    {
      "inputs": [],
      "name": "KlerosBadgeModelController__user__userNotFound",
      "type": "error"
    },
    {
      "inputs": [],
      "name": "KlerosBadgeModelController__user__userVerificationAlreadyStarted",
      "type": "error"
    },
    {
      "inputs": [],
      "name": "KlerosBadgeModelController__user__userVerificationNotStarted",
      "type": "error"
    },
    {
      "inputs": [],
      "name": "NotInitializing",
      "type": "error"
    },
    {
      "inputs": [],
      "name": "ReentrancyGuardReentrantCall",
      "type": "error"
    },
    {
      "inputs": [],
      "name": "UUPSUnauthorizedCallContext",
      "type": "error"
    },
    {
      "inputs": [
        {
          "internalType": "bytes32",
          "name": "slot",
          "type": "bytes32"
        }
      ],
      "name": "UUPSUnsupportedProxiableUUID",
      "type": "error"
    },
    {
      "anonymous": false,
      "inputs": [
        {
          "indexed": true,
          "internalType": "address",
          "name": "recipient",
          "type": "address"
        },
        {
          "indexed": false,
          "internalType": "uint256",
          "name": "amount",
          "type": "uint256"
        },
        {
          "indexed": true,
          "internalType": "uint256",
          "name": "badgeId",
          "type": "uint256"
        }
      ],
      "name": "DepositReturned",
      "type": "event"
    },
    {
      "anonymous": false,
      "inputs": [
        {
          "indexed": true,
          "internalType": "address",
          "name": "admin",
          "type": "address"
        },
        {
          "indexed": true,
          "internalType": "address",
          "name": "tcrFactory",
          "type": "address"
        }
      ],
      "name": "Initialize",
      "type": "event"
    },
    {
      "anonymous": false,
      "inputs": [
        {
          "indexed": false,
          "internalType": "uint64",
          "name": "version",
          "type": "uint64"
        }
      ],
      "name": "Initialized",
      "type": "event"
    },
    {
      "anonymous": false,
      "inputs": [
        {
          "indexed": true,
          "internalType": "uint256",
          "name": "badgeId",
          "type": "uint256"
        },
        {
          "indexed": true,
          "internalType": "address",
          "name": "challenger",
          "type": "address"
        },
        {
          "indexed": false,
          "internalType": "string",
          "name": "evidence",
          "type": "string"
        }
      ],
      "name": "KlerosBadgeChallenged",
      "type": "event"
    },
    {
      "anonymous": false,
      "inputs": [
        {
          "indexed": true,
          "internalType": "uint256",
          "name": "badgeId",
          "type": "uint256"
        },
        {
          "indexed": true,
          "internalType": "address",
          "name": "challenger",
          "type": "address"
        },
        {
          "indexed": false,
          "internalType": "string",
          "name": "evidence",
          "type": "string"
        }
      ],
      "name": "KlerosChallengeEvidenceAdded",
      "type": "event"
    },
    {
      "anonymous": false,
      "inputs": [
        {
          "indexed": true,
          "internalType": "uint256",
          "name": "badgeId",
          "type": "uint256"
        },
        {
          "indexed": false,
          "internalType": "string",
          "name": "evidence",
          "type": "string"
        }
      ],
      "name": "MintKlerosBadge",
      "type": "event"
    },
    {
      "anonymous": false,
      "inputs": [
        {
          "indexed": true,
          "internalType": "uint256",
          "name": "badgeModelId",
          "type": "uint256"
        },
        {
          "indexed": true,
          "internalType": "address",
          "name": "tcrAddress",
          "type": "address"
        },
        {
          "indexed": false,
          "internalType": "string",
          "name": "registrationMetaEvidence",
          "type": "string"
        },
        {
          "indexed": false,
          "internalType": "string",
          "name": "clearingMetaEvidence",
          "type": "string"
        }
      ],
      "name": "NewKlerosBadgeModel",
      "type": "event"
    },
    {
      "anonymous": false,
      "inputs": [],
      "name": "ProtocolSettingsUpdated",
      "type": "event"
    },
    {
      "anonymous": false,
      "inputs": [
        {
          "indexed": true,
          "internalType": "bytes32",
          "name": "role",
          "type": "bytes32"
        },
        {
          "indexed": true,
          "internalType": "bytes32",
          "name": "previousAdminRole",
          "type": "bytes32"
        },
        {
          "indexed": true,
          "internalType": "bytes32",
          "name": "newAdminRole",
          "type": "bytes32"
        }
      ],
      "name": "RoleAdminChanged",
      "type": "event"
    },
    {
      "anonymous": false,
      "inputs": [
        {
          "indexed": true,
          "internalType": "bytes32",
          "name": "role",
          "type": "bytes32"
        },
        {
          "indexed": true,
          "internalType": "address",
          "name": "account",
          "type": "address"
        },
        {
          "indexed": true,
          "internalType": "address",
          "name": "sender",
          "type": "address"
        }
      ],
      "name": "RoleGranted",
      "type": "event"
    },
    {
      "anonymous": false,
      "inputs": [
        {
          "indexed": true,
          "internalType": "bytes32",
          "name": "role",
          "type": "bytes32"
        },
        {
          "indexed": true,
          "internalType": "address",
          "name": "account",
          "type": "address"
        },
        {
          "indexed": true,
          "internalType": "address",
          "name": "sender",
          "type": "address"
        }
      ],
      "name": "RoleRevoked",
      "type": "event"
    },
    {
      "anonymous": false,
      "inputs": [
        {
          "indexed": true,
          "internalType": "address",
          "name": "implementation",
          "type": "address"
        }
      ],
      "name": "Upgraded",
      "type": "event"
    },
    {
      "inputs": [],
      "name": "CLAIMER_ROLE",
      "outputs": [
        {
          "internalType": "bytes32",
          "name": "",
          "type": "bytes32"
        }
      ],
      "stateMutability": "view",
      "type": "function"
    },
    {
      "inputs": [],
      "name": "DEFAULT_ADMIN_ROLE",
      "outputs": [
        {
          "internalType": "bytes32",
          "name": "",
          "type": "bytes32"
        }
      ],
      "stateMutability": "view",
      "type": "function"
    },
    {
      "inputs": [],
      "name": "PAUSER_ROLE",
      "outputs": [
        {
          "internalType": "bytes32",
          "name": "",
          "type": "bytes32"
        }
      ],
      "stateMutability": "view",
      "type": "function"
    },
    {
      "inputs": [],
      "name": "UPGRADER_ROLE",
      "outputs": [
        {
          "internalType": "bytes32",
          "name": "",
          "type": "bytes32"
        }
      ],
      "stateMutability": "view",
      "type": "function"
    },
    {
      "inputs": [],
      "name": "UPGRADE_INTERFACE_VERSION",
      "outputs": [
        {
          "internalType": "string",
          "name": "",
          "type": "string"
        }
      ],
      "stateMutability": "view",
      "type": "function"
    },
    {
      "inputs": [],
      "name": "URI_SETTER_ROLE",
      "outputs": [
        {
          "internalType": "bytes32",
          "name": "",
          "type": "bytes32"
        }
      ],
      "stateMutability": "view",
      "type": "function"
    },
    {
      "inputs": [],
      "name": "USER_MANAGER_ROLE",
      "outputs": [
        {
          "internalType": "bytes32",
          "name": "",
          "type": "bytes32"
        }
      ],
      "stateMutability": "view",
      "type": "function"
    },
    {
      "inputs": [],
      "name": "VERIFIER_ROLE",
      "outputs": [
        {
          "internalType": "bytes32",
          "name": "",
          "type": "bytes32"
        }
      ],
      "stateMutability": "view",
      "type": "function"
    },
    {
      "inputs": [
        {
          "internalType": "uint256",
          "name": "badgeId",
          "type": "uint256"
        },
        {
          "internalType": "bytes",
          "name": "data",
          "type": "bytes"
        },
        {
          "internalType": "address",
          "name": "caller",
          "type": "address"
        }
      ],
      "name": "challenge",
      "outputs": [],
      "stateMutability": "payable",
      "type": "function"
    },
    {
      "inputs": [
        {
          "internalType": "uint256",
          "name": "badgeId",
          "type": "uint256"
        },
        {
          "internalType": "bytes",
          "name": "",
          "type": "bytes"
        },
        {
          "internalType": "address",
          "name": "",
          "type": "address"
        }
      ],
      "name": "claim",
      "outputs": [
        {
          "internalType": "address",
          "name": "",
          "type": "address"
        }
      ],
      "stateMutability": "nonpayable",
      "type": "function"
    },
    {
      "inputs": [
        {
          "internalType": "address",
          "name": "callee",
          "type": "address"
        },
        {
          "internalType": "uint256",
          "name": "badgeModelId",
          "type": "uint256"
        },
        {
          "internalType": "bytes",
          "name": "data",
          "type": "bytes"
        }
      ],
      "name": "createBadgeModel",
      "outputs": [],
      "stateMutability": "nonpayable",
      "type": "function"
    },
    {
      "inputs": [
        {
          "internalType": "address",
          "name": "_user",
          "type": "address"
        },
        {
          "internalType": "bool",
          "name": "verify",
          "type": "bool"
        }
      ],
      "name": "executeUserVerification",
      "outputs": [],
      "stateMutability": "nonpayable",
      "type": "function"
    },
    {
      "inputs": [
        {
          "internalType": "uint256",
          "name": "badgeId",
          "type": "uint256"
        }
      ],
      "name": "getChallengeDepositValue",
      "outputs": [
        {
          "internalType": "uint256",
          "name": "",
          "type": "uint256"
        }
      ],
      "stateMutability": "view",
      "type": "function"
    },
    {
      "inputs": [
        {
          "internalType": "uint256",
          "name": "badgeId",
          "type": "uint256"
        }
      ],
      "name": "getRemovalDepositValue",
      "outputs": [
        {
          "internalType": "uint256",
          "name": "",
          "type": "uint256"
        }
      ],
      "stateMutability": "view",
      "type": "function"
    },
    {
      "inputs": [
        {
          "internalType": "bytes32",
          "name": "role",
          "type": "bytes32"
        }
      ],
      "name": "getRoleAdmin",
      "outputs": [
        {
          "internalType": "bytes32",
          "name": "",
          "type": "bytes32"
        }
      ],
      "stateMutability": "view",
      "type": "function"
    },
    {
      "inputs": [],
      "name": "getVerifyUserProtocolFee",
      "outputs": [
        {
          "internalType": "uint256",
          "name": "",
          "type": "uint256"
        }
      ],
      "stateMutability": "view",
      "type": "function"
    },
    {
      "inputs": [
        {
          "internalType": "bytes32",
          "name": "role",
          "type": "bytes32"
        },
        {
          "internalType": "address",
          "name": "account",
          "type": "address"
        }
      ],
      "name": "grantRole",
      "outputs": [],
      "stateMutability": "nonpayable",
      "type": "function"
    },
    {
      "inputs": [
        {
          "internalType": "bytes32",
          "name": "role",
          "type": "bytes32"
        },
        {
          "internalType": "address",
          "name": "account",
          "type": "address"
        }
      ],
      "name": "hasRole",
      "outputs": [
        {
          "internalType": "bool",
          "name": "",
          "type": "bool"
        }
      ],
      "stateMutability": "view",
      "type": "function"
    },
    {
      "inputs": [
        {
          "internalType": "address",
          "name": "admin",
          "type": "address"
        },
        {
          "internalType": "address",
          "name": "_theBadge",
          "type": "address"
        },
        {
          "internalType": "address",
          "name": "_theBadgeModels",
          "type": "address"
        },
        {
          "internalType": "address",
          "name": "_theBadgeUsers",
          "type": "address"
        },
        {
          "internalType": "address",
          "name": "_klerosBadgeModelControllerStore",
          "type": "address"
        }
      ],
      "name": "initialize",
      "outputs": [],
      "stateMutability": "nonpayable",
      "type": "function"
    },
    {
      "inputs": [
        {
          "internalType": "uint256",
          "name": "badgeId",
          "type": "uint256"
        }
      ],
      "name": "isAssetActive",
      "outputs": [
        {
          "internalType": "bool",
          "name": "",
          "type": "bool"
        }
      ],
      "stateMutability": "view",
      "type": "function"
    },
    {
      "inputs": [
        {
          "internalType": "uint256",
          "name": "badgeId",
          "type": "uint256"
        }
      ],
      "name": "isClaimable",
      "outputs": [
        {
          "internalType": "bool",
          "name": "",
          "type": "bool"
        }
      ],
      "stateMutability": "view",
      "type": "function"
    },
    {
      "inputs": [
        {
          "internalType": "uint256",
          "name": "",
          "type": "uint256"
        },
        {
          "internalType": "address",
          "name": "",
          "type": "address"
        }
      ],
      "name": "isMintableToController",
      "outputs": [
        {
          "internalType": "bool",
          "name": "",
          "type": "bool"
        }
      ],
      "stateMutability": "pure",
      "type": "function"
    },
    {
      "inputs": [
        {
          "internalType": "address",
          "name": "_user",
          "type": "address"
        }
      ],
      "name": "isUserVerified",
      "outputs": [
        {
          "internalType": "bool",
          "name": "",
          "type": "bool"
        }
      ],
      "stateMutability": "view",
      "type": "function"
    },
    {
      "inputs": [],
      "name": "klerosBadgeModelControllerStore",
      "outputs": [
        {
          "internalType": "contract KlerosBadgeModelControllerStore",
          "name": "",
          "type": "address"
        }
      ],
      "stateMutability": "view",
      "type": "function"
    },
    {
      "inputs": [
        {
          "internalType": "address",
          "name": "callee",
          "type": "address"
        },
        {
          "internalType": "uint256",
          "name": "badgeModelId",
          "type": "uint256"
        },
        {
          "internalType": "uint256",
          "name": "badgeId",
          "type": "uint256"
        },
        {
          "internalType": "bytes",
          "name": "data",
          "type": "bytes"
        },
        {
          "internalType": "address",
          "name": "destinationAddress",
          "type": "address"
        }
      ],
      "name": "mint",
      "outputs": [
        {
          "internalType": "uint256",
          "name": "",
          "type": "uint256"
        }
      ],
      "stateMutability": "payable",
      "type": "function"
    },
    {
      "inputs": [
        {
          "internalType": "uint256",
          "name": "badgeModelId",
          "type": "uint256"
        }
      ],
      "name": "mintValue",
      "outputs": [
        {
          "internalType": "uint256",
          "name": "",
          "type": "uint256"
        }
      ],
      "stateMutability": "view",
      "type": "function"
    },
    {
      "inputs": [],
      "name": "proxiableUUID",
      "outputs": [
        {
          "internalType": "bytes32",
          "name": "",
          "type": "bytes32"
        }
      ],
      "stateMutability": "view",
      "type": "function"
    },
    {
      "inputs": [
        {
          "internalType": "uint256",
          "name": "badgeId",
          "type": "uint256"
        },
        {
          "internalType": "bytes",
          "name": "data",
          "type": "bytes"
        },
        {
          "internalType": "address",
          "name": "caller",
          "type": "address"
        }
      ],
      "name": "removeItem",
      "outputs": [],
      "stateMutability": "payable",
      "type": "function"
    },
    {
      "inputs": [
        {
          "internalType": "bytes32",
          "name": "role",
          "type": "bytes32"
        },
        {
          "internalType": "address",
          "name": "callerConfirmation",
          "type": "address"
        }
      ],
      "name": "renounceRole",
      "outputs": [],
      "stateMutability": "nonpayable",
      "type": "function"
    },
    {
      "inputs": [
        {
          "internalType": "bytes32",
          "name": "role",
          "type": "bytes32"
        },
        {
          "internalType": "address",
          "name": "account",
          "type": "address"
        }
      ],
      "name": "revokeRole",
      "outputs": [],
      "stateMutability": "nonpayable",
      "type": "function"
    },
    {
      "inputs": [
        {
          "internalType": "uint256",
          "name": "badgeId",
          "type": "uint256"
        },
        {
          "internalType": "bytes",
          "name": "data",
          "type": "bytes"
        },
        {
          "internalType": "address",
          "name": "caller",
          "type": "address"
        }
      ],
      "name": "submitEvidence",
      "outputs": [],
      "stateMutability": "nonpayable",
      "type": "function"
    },
    {
      "inputs": [
        {
          "internalType": "address",
          "name": "_user",
          "type": "address"
        },
        {
          "internalType": "string",
          "name": "userMetadata",
          "type": "string"
        },
        {
          "internalType": "string",
          "name": "evidenceUri",
          "type": "string"
        }
      ],
      "name": "submitUserVerification",
      "outputs": [],
      "stateMutability": "nonpayable",
      "type": "function"
    },
    {
      "inputs": [
        {
          "internalType": "bytes4",
          "name": "interfaceId",
          "type": "bytes4"
        }
      ],
      "name": "supportsInterface",
      "outputs": [
        {
          "internalType": "bool",
          "name": "",
          "type": "bool"
        }
      ],
      "stateMutability": "view",
      "type": "function"
    },
    {
      "inputs": [],
      "name": "theBadge",
      "outputs": [
        {
          "internalType": "contract TheBadge",
          "name": "",
          "type": "address"
        }
      ],
      "stateMutability": "view",
      "type": "function"
    },
    {
      "inputs": [],
      "name": "theBadgeModels",
      "outputs": [
        {
          "internalType": "contract TheBadgeModels",
          "name": "",
          "type": "address"
        }
      ],
      "stateMutability": "view",
      "type": "function"
    },
    {
      "inputs": [],
      "name": "theBadgeUsers",
      "outputs": [
        {
          "internalType": "contract TheBadgeUsers",
          "name": "",
          "type": "address"
        }
      ],
      "stateMutability": "view",
      "type": "function"
    },
    {
      "inputs": [
        {
          "internalType": "uint256",
          "name": "_verifyUserProtocolFee",
          "type": "uint256"
        }
      ],
      "name": "updateVerifyUserProtocolFee",
      "outputs": [],
      "stateMutability": "nonpayable",
      "type": "function"
    },
    {
      "inputs": [
        {
          "internalType": "address",
          "name": "newImplementation",
          "type": "address"
        },
        {
          "internalType": "bytes",
          "name": "data",
          "type": "bytes"
        }
      ],
      "name": "upgradeToAndCall",
      "outputs": [],
      "stateMutability": "payable",
      "type": "function"
    },
    {
      "stateMutability": "payable",
      "type": "receive"
    }
  ],
  "bytecode": "0x60a06040523060805234801562000014575f80fd5b506200001f62000025565b620000d9565b7ff0c57e16840df040f15088dc2f81fe391c3923bec73e23a9662efc9c229c6a00805468010000000000000000900460ff1615620000765760405163f92ee8a960e01b815260040160405180910390fd5b80546001600160401b0390811614620000d65780546001600160401b0319166001600160401b0390811782556040519081527fc7f505b2f371ae2175ee4913f4499e1f2633a7b5936321eed1cdaeb6115181d29060200160405180910390a15b50565b608051613e78620001005f395f8181612957015281816129800152612ad00152613e785ff3fe6080604052600436106101e4575f3560e01c80638ac516b811610100578063caa39ec511610099578063caa39ec514610586578063d547741f146105a5578063d7deba15146105c4578063d8bee356146105e3578063e63ab1e914610602578063e7705db614610635578063f4bcaf4214610668578063f6563d5f14610687578063f72c0d8b1461069a578063fc5f18d3146106ba575f80fd5b80638ac516b81461044957806391d14854146104685780639c6b9f8a14610487578063a217fddf146104a6578063a41e35c3146104b9578063ace417e0146104ec578063ad3cb1cc1461050b578063ae1c29e814610548578063b5a867fa14610567575f80fd5b80634f1ef2861161017d5780634f1ef2861461032d578063518a893b1461034057806352d1902d1461036b57806361cf6b481461037f578063632f7c8314610392578063681294b4146103b15780637657dbdd146103c45780637eb7f176146103d85780637f345710146103f757806389610a091461042a575f80fd5b806301ffc9a7146101ef57806304a3c5d714610223578063130bd93f146102445780631459457a1461026357806322e900c214610282578063248a9ca3146102a15780632f2ff15d146102ce57806336568abe146102ed578063401fef941461030c575f80fd5b366101eb57005b5f80fd5b3480156101fa575f80fd5b5061020e610209366004612ff4565b6106ed565b60405190151581526020015b60405180910390f35b34801561022e575f80fd5b5061024261023d366004613083565b610723565b005b34801561024f575f80fd5b5061024261025e3660046130e7565b610bb7565b34801561026e575f80fd5b5061024261027d36600461311e565b610dbe565b34801561028d575f80fd5b5061020e61029c36600461318b565b610ffc565b3480156102ac575f80fd5b506102c06102bb36600461318b565b611119565b60405190815260200161021a565b3480156102d9575f80fd5b506102426102e83660046131a2565b611137565b3480156102f8575f80fd5b506102426103073660046131a2565b611159565b348015610317575f80fd5b5061020e6103263660046131a2565b5f92915050565b61024261033b3660046132f9565b611191565b34801561034b575f80fd5b505f5461035e906001600160a01b031681565b60405161021a9190613358565b348015610376575f80fd5b506102c06111b0565b61024261038d36600461336c565b6111cb565b34801561039d575f80fd5b506102c06103ac36600461318b565b611373565b6102426103bf36600461336c565b6115a5565b3480156103cf575f80fd5b506102c06116d1565b3480156103e3575f80fd5b506102c06103f236600461318b565b61174a565b348015610402575f80fd5b506102c07f7804d923f43a17d325d77e781528e0793b2edd9890ab45fc64efd7b4b427744c81565b348015610435575f80fd5b5061020e61044436600461318b565b6117d9565b348015610454575f80fd5b5061024261046336600461318b565b611ad7565b348015610473575f80fd5b5061020e6104823660046131a2565b611b65565b348015610492575f80fd5b5061035e6104a136600461336c565b611b99565b3480156104b1575f80fd5b506102c05f81565b3480156104c4575f80fd5b506102c07fcbaaf41b181bb6e269c490e876a7c97711b57e21dd8e5528423cf57579726b3581565b3480156104f7575f80fd5b5061020e6105063660046133c6565b611e04565b348015610516575f80fd5b5061053b604051806040016040528060058152602001640352e302e360dc1b81525081565b60405161021a919061342e565b348015610553575f80fd5b5060035461035e906001600160a01b031681565b348015610572575f80fd5b5061024261058136600461345e565b611ebb565b348015610591575f80fd5b5060015461035e906001600160a01b031681565b3480156105b0575f80fd5b506102426105bf3660046131a2565b611ffd565b3480156105cf575f80fd5b506102c06105de36600461318b565b612019565b3480156105ee575f80fd5b506102426105fd36600461336c565b612299565b34801561060d575f80fd5b506102c07f65d7a28e3265b37a6474929f336521b332c1681b933f6cb9f3376673440d862a81565b348015610640575f80fd5b506102c07f0ce23c3e399818cfee81a7ab0880f714e53d7672b08df0fa62f2843416e1ea0981565b348015610673575f80fd5b5060025461035e906001600160a01b031681565b6102c06106953660046134ce565b61242f565b3480156106a5575f80fd5b506102c05f80516020613e0383398151915281565b3480156106c5575f80fd5b506102c07f11a8cb5a02bd6c42679835e867ef2118ba78f088f8300511420c6603c21d9c7881565b5f6001600160e01b03198216637965db0b60e01b148061071d57506301ffc9a760e01b6001600160e01b03198316145b92915050565b6002546001600160a01b0316331461074e5760405163515e38c360e11b815260040160405180910390fd5b5f805460405163b7f77e1560e01b8152600481018690528692916001600160a01b03169063b7f77e159060240160c060405180830381865afa158015610796573d5f803e3d5ffd5b505050506040513d601f19601f820116820180604052508101906107ba919061354f565b60408101519091506001600160a01b0316156107e957604051634d1068bd60e11b815260040160405180910390fd5b5f805f9054906101000a90046001600160a01b03166001600160a01b03166384101a176040518163ffffffff1660e01b8152600401602060405180830381865afa158015610839573d5f803e3d5ffd5b505050506040513d601f19601f8201168201806040525081019061085d91906135d1565b9050805f61086d868801886136a3565b90505f805f9054906101000a90046001600160a01b03166001600160a01b0316630fceb7466040518163ffffffff1660e01b8152600401602060405180830381865afa1580156108bf573d5f803e3d5ffd5b505050506040513d601f19601f820116820180604052508101906108e391906135d1565b82519091505f9081906001600160a01b03166108ff5787610902565b83515b9050846001600160a01b031663d8dcbd2784866020015160405160200161092b91815260200190565b60408051601f19818403018152828252898201516020840152910160408051601f1981840301815290829052610964929160200161378d565b6040516020818303038152906040525f88606001518960800151878b60c001518c60a001518d60e001518c6040518b63ffffffff1660e01b81526004016109b49a999897969594939291906137dd565b5f604051808303815f87803b1580156109cb575f80fd5b505af11580156109dd573d5f803e3d5ffd5b505050505f6001866001600160a01b03166306661abd6040518163ffffffff1660e01b8152600401602060405180830381865afa158015610a20573d5f803e3d5ffd5b505050506040513d601f19601f82011682018060405250810190610a44919061389e565b610a4e91906138c9565b60405163a2f7b3a560e01b8152600481018290529091505f906001600160a01b0388169063a2f7b3a5906024016020604051808303815f875af1158015610a97573d5f803e3d5ffd5b505050506040513d601f19601f82011682018060405250810190610abb91906135d1565b90506001600160a01b038116610ae457604051633deb66a760e21b815260040160405180910390fd5b5f546040516277bb0160e91b8152600481018f90526001600160a01b038c811660248301528381166044830152858116606483015286811660848301529091169063ef7602009060a4015f604051808303815f87803b158015610b45575f80fd5b505af1158015610b57573d5f803e3d5ffd5b50505050806001600160a01b03168d7f1e83a75c2089c1100e6d9a024ea6fdf619ec5a922a17230682fbf1217d2a7ec188606001518960800151604051610b9f9291906138dc565b60405180910390a35050505050505050505050505050565b6003546001600160a01b03163314610be25760405163efb80fc560e01b815260040160405180910390fd5b5f8054604051638f050f0960e01b81528492916001600160a01b031690638f050f0990610c13908590600401613358565b5f60405180830381865afa158015610c2d573d5f803e3d5ffd5b505050506040513d5f823e601f3d908101601f19168201604052610c549190810190613959565b608081015190915015155f03610c7d5760405163bb572dbf60e01b815260040160405180910390fd5b5f81606001516002811115610c9457610c94613a1d565b14610cb257604051636ed1ab8760e11b815260040160405180910390fd5b5f8054604051638f050f0960e01b81526001600160a01b0390911690638f050f0990610ce2908890600401613358565b5f60405180830381865afa158015610cfc573d5f803e3d5ffd5b505050506040513d5f823e601f3d908101601f19168201604052610d239190810190613959565b90508060800151610d475760405163bb572dbf60e01b815260040160405180910390fd5b5f84610d54576002610d57565b60015b5f54604051631f232ee960e11b81529192506001600160a01b031690633e465dd290610d899089908590600401613a51565b5f604051808303815f87803b158015610da0575f80fd5b505af1158015610db2573d5f803e3d5ffd5b50505050505050505050565b7ff0c57e16840df040f15088dc2f81fe391c3923bec73e23a9662efc9c229c6a008054600160401b810460ff1615906001600160401b03165f81158015610e025750825b90505f826001600160401b03166001148015610e1d5750303b155b905081158015610e2b575080155b15610e495760405163f92ee8a960e01b815260040160405180910390fd5b845467ffffffffffffffff191660011785558315610e7357845460ff60401b1916600160401b1785555b610e7d5f8b6126e6565b50610ea87f65d7a28e3265b37a6474929f336521b332c1681b933f6cb9f3376673440d862a8b6126e6565b50610ec05f80516020613e038339815191528b6126e6565b50600180546001600160a01b03808c166001600160a01b031992831617909255600280548b8416908316179055600380548a84169083161790555f80549289169290911682178155604080516384101a1760e01b815290519192916384101a17916004808201926020929091908290030181865afa158015610f44573d5f803e3d5ffd5b505050506040513d601f19601f82011682018060405250810190610f6891906135d1565b9050806001600160a01b03168b6001600160a01b03167fdc90fed0326ba91706deeac7eb34ac9f8b680734f9d782864dc29704d23bed6a60405160405180910390a3508315610db257845460ff60401b19168555604051600181527fc7f505b2f371ae2175ee4913f4499e1f2633a7b5936321eed1cdaeb6115181d29060200160405180910390a150505050505050505050565b5f806110078361278b565b5f8054604051630c7b27cd60e31b81526004810187905292935090916001600160a01b03909116906363d93e689060240160c060405180830381865afa158015611053573d5f803e3d5ffd5b505050506040513d601f19601f820116820180604052508101906110779190613a6e565b8051604051634aac84e560e01b815260048101919091529091505f906001600160a01b03841690634aac84e590602401606060405180830381865afa1580156110c2573d5f803e3d5ffd5b505050506040513d601f19601f820116820180604052508101906110e69190613abf565b505090508060ff16600114806110ff57508060ff166003145b1561110f57506001949350505050565b505f949350505050565b5f806111236128a5565b5f9384526020525050604090206001015490565b61114082611119565b611149816128c9565b61115383836126e6565b50505050565b6001600160a01b03811633146111825760405163334bd91960e11b815260040160405180910390fd5b61118c82826128d6565b505050565b61119961294c565b6111a2826129f2565b6111ac8282612a09565b5050565b5f6111b9612ac5565b505f80516020613e2383398151915290565b6001546001600160a01b031633146111f65760405163942e92c760e01b815260040160405180910390fd5b5f8054604051630c7b27cd60e31b8152600481018790526001600160a01b03909116906363d93e689060240160c060405180830381865afa15801561123d573d5f803e3d5ffd5b505050506040513d601f19601f820116820180604052508101906112619190613a6e565b60a081015190915015155f0361128a57604051630c11d07360e01b815260040160405180910390fd5b80515f036112ab57604051630c11d07360e01b815260040160405180910390fd5b5f6112b884860186613b59565b90505f6112c48761278b565b8351835160405163097e90e560e41b81529293506001600160a01b038416926397e90e509234926112f792600401613b8a565b5f604051808303818588803b15801561130e575f80fd5b505af1158015611320573d5f803e3d5ffd5b5050505050836001600160a01b0316877f11eb5c907e498f2c995a2af5e0aac8b359e64a72061cb07d980c63bf562ada07845f0151604051611362919061342e565b60405180910390a350505050505050565b5f805460405163b7f77e1560e01b81526004810184905282916001600160a01b03169063b7f77e159060240160c060405180830381865afa1580156113ba573d5f803e3d5ffd5b505050506040513d601f19601f820116820180604052508101906113de919061354f565b90505f816040015190505f805f9054906101000a90046001600160a01b03166001600160a01b0316630fceb7466040518163ffffffff1660e01b8152600401602060405180830381865afa158015611438573d5f803e3d5ffd5b505050506040513d601f19601f8201168201806040525081019061145c91906135d1565b90505f816001600160a01b031663f7434ea9846001600160a01b0316630c7ac7b66040518163ffffffff1660e01b81526004015f60405180830381865afa1580156114a9573d5f803e3d5ffd5b505050506040513d5f823e601f3d908101601f191682016040526114d09190810190613ba2565b6040518263ffffffff1660e01b81526004016114ec919061342e565b602060405180830381865afa158015611507573d5f803e3d5ffd5b505050506040513d601f19601f8201168201806040525081019061152b919061389e565b90505f836001600160a01b031663bb0b86ff6040518163ffffffff1660e01b8152600401602060405180830381865afa15801561156a573d5f803e3d5ffd5b505050506040513d601f19601f8201168201806040525081019061158e919061389e565b905061159a8183613bd3565b979650505050505050565b6001546001600160a01b031633146115d05760405163942e92c760e01b815260040160405180910390fd5b5f8054604051630c7b27cd60e31b8152600481018790526001600160a01b03909116906363d93e689060240160c060405180830381865afa158015611617573d5f803e3d5ffd5b505050506040513d601f19601f8201168201806040525081019061163b9190613a6e565b60a081015190915015155f0361166457604051630c11d07360e01b815260040160405180910390fd5b80515f0361168557604051630c11d07360e01b815260040160405180910390fd5b5f61169284860186613b59565b90505f61169e8761278b565b8351835160405163873db1a760e01b81529293506001600160a01b0384169263873db1a79234926112f792600401613b8a565b5f805f9054906101000a90046001600160a01b03166001600160a01b0316637657dbdd6040518163ffffffff1660e01b8152600401602060405180830381865afa158015611721573d5f803e3d5ffd5b505050506040513d601f19601f82011682018060405250810190611745919061389e565b905090565b5f806117558361278b565b90505f61176184612b0e565b90505f826001600160a01b031663c2f2beea6040518163ffffffff1660e01b8152600401602060405180830381865afa1580156117a0573d5f803e3d5ffd5b505050506040513d601f19601f820116820180604052508101906117c4919061389e565b90506117d08282612d82565b95945050505050565b5f806117e48361278b565b5f8054604051630c7b27cd60e31b81526004810187905292935090916001600160a01b03909116906363d93e689060240160c060405180830381865afa158015611830573d5f803e3d5ffd5b505050506040513d601f19601f820116820180604052508101906118549190613a6e565b60a081015190915015155f0361187d57604051630c11d07360e01b815260040160405180910390fd5b80515f0361189e57604051630c11d07360e01b815260040160405180910390fd5b80516040516348f343f360e01b81525f916001600160a01b038516916348f343f3916118d09160040190815260200190565b606060405180830381865afa1580156118eb573d5f803e3d5ffd5b505050506040513d601f19601f8201168201806040525081019061190f9190613be6565b8451604051634aac84e560e01b815260048101919091529093505f92506001600160a01b0386169150634aac84e590602401606060405180830381865afa15801561195c573d5f803e3d5ffd5b505050506040513d601f19601f820116820180604052508101906119809190613abf565b505090505f6001836119929190613c49565b8451604051635fde7f8d60e11b815260048101919091526001600160781b03919091166024820181905291505f906001600160a01b0387169063bfbcff1a906044015f60405180830381865afa1580156119ee573d5f803e3d5ffd5b505050506040513d5f823e601f3d908101601f19168201604052611a159190810190613c69565b50505050505050925050505f866001600160a01b03166282a36d6040518163ffffffff1660e01b8152600401602060405180830381865afa158015611a5c573d5f803e3d5ffd5b505050506040513d601f19601f82011682018060405250810190611a80919061389e565b90505f81611a8e84426138c9565b11611a99575f611a9c565b60015b90508460ff166002148015611ab357506001811515145b15611ac8575060019998505050505050505050565b505f9998505050505050505050565b5f611ae1816128c9565b5f54604051630404b29f60e31b8152600481018490526001600160a01b039091169063202594f8906024015f604051808303815f87803b158015611b23575f80fd5b505af1158015611b35573d5f803e3d5ffd5b50506040517f810f1720fbc34c56d171f89315ad21708648fd17424c27b88fa208409845aa7792505f9150a15050565b5f80611b6f6128a5565b5f948552602090815260408086206001600160a01b03959095168652939052505090205460ff1690565b6001545f906001600160a01b03163314611bc65760405163942e92c760e01b815260040160405180910390fd5b611bce612da6565b5f611bd88661278b565b5f8054604051630c7b27cd60e31b8152600481018a905292935090916001600160a01b03909116906363d93e689060240160c060405180830381865afa158015611c24573d5f803e3d5ffd5b505050506040513d601f19601f82011682018060405250810190611c489190613a6e565b80516040516374e120b360e11b81529192506001600160a01b0384169163e9c2416691611c7b9160040190815260200190565b5f604051808303815f87803b158015611c92575f80fd5b505af1158015611ca4573d5f803e3d5ffd5b505050504781606001511115611ccd576040516398e2a0bb60e01b815260040160405180910390fd5b60608101515f54604051633879a0b960e21b8152600481018a90526001600160a01b039091169063e1e682e4906024015f604051808303815f87803b158015611d14575f80fd5b505af1158015611d26573d5f803e3d5ffd5b505050505f82604001516001600160a01b0316826040515f6040518083038185875af1925050503d805f8114611d77576040519150601f19603f3d011682016040523d82523d5f602084013e611d7c565b606091505b50909150508015155f03611da35760405163aa701b0560e01b815260040160405180910390fd5b8883604001516001600160a01b03167f9794db68af033346a63dbc4509364afc3a23201eced8a4f3bc64d029abfacc6584604051611de391815260200190565b60405180910390a3505060800151915050611dfc612ddb565b949350505050565b5f8054604051638f050f0960e01b815282916001600160a01b031690638f050f0990611e34908690600401613358565b5f60405180830381865afa158015611e4e573d5f803e3d5ffd5b505050506040513d5f823e601f3d908101601f19168201604052611e759190810190613959565b608081015190915015155f03611e8d57505f92915050565b600181606001516002811115611ea557611ea5613a1d565b03611eb35750600192915050565b505f92915050565b6003546001600160a01b03163314611ee65760405163efb80fc560e01b815260040160405180910390fd5b5f8054604051638f050f0960e01b81526001600160a01b0390911690638f050f0990611f16908790600401613358565b5f60405180830381865afa158015611f30573d5f803e3d5ffd5b505050506040513d5f823e601f3d908101601f19168201604052611f579190810190613959565b9050806080015115611f7c57604051637815482960e11b815260040160405180910390fd5b600160808201525f606082018190526020820184905260408083018490529054905163f8fd555f60e01b81526001600160a01b039091169063f8fd555f90611fca9087908590600401613d64565b5f604051808303815f87803b158015611fe1575f80fd5b505af1158015611ff3573d5f803e3d5ffd5b5050505050505050565b61200682611119565b61200f816128c9565b61115383836128d6565b5f8054604051630c7b27cd60e31b81526004810184905282916001600160a01b0316906363d93e689060240160c060405180830381865afa158015612060573d5f803e3d5ffd5b505050506040513d601f19601f820116820180604052508101906120849190613a6e565b60a081015190915015155f036120ad57604051630c11d07360e01b815260040160405180910390fd5b80515f036120ce57604051630c11d07360e01b815260040160405180910390fd5b5f6120d88461278b565b8251604051634aac84e560e01b815260048101919091529091505f906001600160a01b03831690634aac84e590602401606060405180830381865afa158015612123573d5f803e3d5ffd5b505050506040513d601f19601f820116820180604052508101906121479190613abf565b505090505f61215586612b0e565b90508160ff166001036121d6576121cc836001600160a01b031663a37b6ad46040518163ffffffff1660e01b8152600401602060405180830381865afa1580156121a1573d5f803e3d5ffd5b505050506040513d601f19601f820116820180604052508101906121c5919061389e565b8290612d82565b9695505050505050565b8160ff16600203612220576121cc836001600160a01b031663c2f2beea6040518163ffffffff1660e01b8152600401602060405180830381865afa1580156121a1573d5f803e3d5ffd5b8160ff1660030361223657505f95945050505050565b8160ff16600403612280576121cc836001600160a01b031663787471a96040518163ffffffff1660e01b8152600401602060405180830381865afa1580156121a1573d5f803e3d5ffd5b6040516305e5cf6360e41b815260040160405180910390fd5b6001546001600160a01b031633146122c45760405163942e92c760e01b815260040160405180910390fd5b5f8054604051630c7b27cd60e31b8152600481018790526001600160a01b03909116906363d93e689060240160c060405180830381865afa15801561230b573d5f803e3d5ffd5b505050506040513d601f19601f8201168201806040525081019061232f9190613a6e565b60a081015190915015155f0361235857604051630c11d07360e01b815260040160405180910390fd5b80515f0361237957604051630c11d07360e01b815260040160405180910390fd5b5f61238684860186613b59565b90505f6123928761278b565b8351835160405163f48a0b3160e01b81529293506001600160a01b0384169263f48a0b31926123c5929091600401613b8a565b5f604051808303815f87803b1580156123dc575f80fd5b505af11580156123ee573d5f803e3d5ffd5b50505050836001600160a01b0316877f8c0b973d20787b10ea3bdbb5dc91eea821f172b4759e8096d07f8fa93a6b184d845f0151604051611362919061342e565b6001545f906001600160a01b0316331461245c5760405163942e92c760e01b815260040160405180910390fd5b5f61246687611373565b905080341461248857604051637bcb3e5760e01b815260040160405180910390fd5b5f805460405163b7f77e1560e01b8152600481018a90526001600160a01b039091169063b7f77e159060240160c060405180830381865afa1580156124cf573d5f803e3d5ffd5b505050506040513d601f19601f820116820180604052508101906124f3919061354f565b60408101519091505f61250887890189613b59565b80516040516309fa7ca560e21b81529192506001600160a01b038416916327e9f29491349161253a919060040161342e565b5f604051808303818588803b158015612551575f80fd5b505af1158015612563573d5f803e3d5ffd5b50505050505f815f015160405160200161257d9190613de7565b6040516020818303038152906040528051906020012090505f6040518060c001604052808381526020018d81526020018e6001600160a01b03168152602001348152602001896001600160a01b031681526020016001151581525090505f8054906101000a90046001600160a01b03166001600160a01b0316639c5d19228c836040518363ffffffff1660e01b815260040161266e92919091825280516020808401919091528101516040808401919091528101516001600160a01b039081166060808501919091528201516080808501919091528201511660a0808401919091520151151560c082015260e00190565b5f604051808303815f87803b158015612685575f80fd5b505af1158015612697573d5f803e3d5ffd5b505050508a7fdd7e1dd9a30843ba8c2619a3c5ce27830ad90612bad48feeb549fc94114d6261845f01516040516126ce919061342e565b60405180910390a2509b9a5050505050505050505050565b5f806126f06128a5565b90506126fc8484611b65565b61277b575f848152602082815260408083206001600160a01b03871684529091529020805460ff191660011790556127313390565b6001600160a01b0316836001600160a01b0316857f2f8788117e7eff1d82e926ec794901d17c78024a50270940304540a733656f0d60405160405180910390a4600191505061071d565b5f91505061071d565b5092915050565b5f8054604051630c7b27cd60e31b81526004810184905282916001600160a01b0316906363d93e689060240160c060405180830381865afa1580156127d2573d5f803e3d5ffd5b505050506040513d601f19601f820116820180604052508101906127f69190613a6e565b5f8054602083015160405163b7f77e1560e01b8152600481019190915292935090916001600160a01b039091169063b7f77e159060240160c060405180830381865afa158015612848573d5f803e3d5ffd5b505050506040513d601f19601f8201168201806040525081019061286c919061354f565b60408101519091506001600160a01b031661289a57604051633deb66a760e21b815260040160405180910390fd5b604001519392505050565b7f02dd7bc7dec4dceedda775e58dd541e08a116c6c53815c0bd028192f7b62680090565b6128d38133612deb565b50565b5f806128e06128a5565b90506128ec8484611b65565b1561277b575f848152602082815260408083206001600160a01b0387168085529252808320805460ff1916905551339287917ff6391f5c32d9c69d2a47ea670b442974b53935d1edc7fd64eb21e047a839171b9190a4600191505061071d565b306001600160a01b037f00000000000000000000000000000000000000000000000000000000000000001614806129d257507f00000000000000000000000000000000000000000000000000000000000000006001600160a01b03166129c65f80516020613e23833981519152546001600160a01b031690565b6001600160a01b031614155b156129f05760405163703e46dd60e11b815260040160405180910390fd5b565b5f80516020613e038339815191526111ac816128c9565b816001600160a01b03166352d1902d6040518163ffffffff1660e01b8152600401602060405180830381865afa925050508015612a63575060408051601f3d908101601f19168201909252612a609181019061389e565b60015b612a8b5781604051634c9c8ce360e01b8152600401612a829190613358565b60405180910390fd5b5f80516020613e238339815191528114612abb57604051632a87526960e21b815260048101829052602401612a82565b61118c8383612e24565b306001600160a01b037f000000000000000000000000000000000000000000000000000000000000000016146129f05760405163703e46dd60e11b815260040160405180910390fd5b5f8054604051630c7b27cd60e31b81526004810184905282916001600160a01b0316906363d93e689060240160c060405180830381865afa158015612b55573d5f803e3d5ffd5b505050506040513d601f19601f82011682018060405250810190612b799190613a6e565b90505f612b858461278b565b82516040516348f343f360e01b815260048101919091529091505f906001600160a01b038316906348f343f390602401606060405180830381865afa158015612bd0573d5f803e3d5ffd5b505050506040513d601f19601f82011682018060405250810190612bf49190613be6565b925050505f600182612c069190613c49565b8451604051635fde7f8d60e11b815260048101919091526001600160781b03919091166024820181905291505f906001600160a01b0385169063bfbcff1a906044015f60405180830381865afa158015612c62573d5f803e3d5ffd5b505050506040513d5f823e601f3d908101601f19168201604052612c899190810190613c69565b50985050505050505050505f805f9054906101000a90046001600160a01b03166001600160a01b0316630fceb7466040518163ffffffff1660e01b8152600401602060405180830381865afa158015612ce4573d5f803e3d5ffd5b505050506040513d601f19601f82011682018060405250810190612d0891906135d1565b60405163f7434ea960e01b81529091506001600160a01b0382169063f7434ea990612d3790859060040161342e565b602060405180830381865afa158015612d52573d5f803e3d5ffd5b505050506040513d601f19601f82011682018060405250810190612d76919061389e565b98975050505050505050565b5f80612d8e8385613bd3565b905083811015612d9f575f19611dfc565b9392505050565b5f612daf612e79565b805490915060011901612dd557604051633ee5aeb560e01b815260040160405180910390fd5b60029055565b5f612de4612e79565b6001905550565b612df58282611b65565b6111ac5760405163e2517d3f60e01b81526001600160a01b038216600482015260248101839052604401612a82565b612e2d82612e9d565b6040516001600160a01b038316907fbc7cd75a20ee27fd9adebab32041f755214dbc6bffa90cc0225b39da2e5c2d3b905f90a2805115612e715761118c8282612ef7565b6111ac612f60565b7f9b779b17422d0df92223018b32b4d1fa46e071723d6817e2486d003becc55f0090565b806001600160a01b03163b5f03612ec95780604051634c9c8ce360e01b8152600401612a829190613358565b5f80516020613e2383398151915280546001600160a01b0319166001600160a01b0392909216919091179055565b60605f80846001600160a01b031684604051612f139190613de7565b5f60405180830381855af49150503d805f8114612f4b576040519150601f19603f3d011682016040523d82523d5f602084013e612f50565b606091505b50915091506117d0858383612f7f565b34156129f05760405163b398979f60e01b815260040160405180910390fd5b606082612f9457612f8f82612fcb565b612d9f565b8151158015612fab57506001600160a01b0384163b155b156127845783604051639996b31560e01b8152600401612a829190613358565b805115612fdb5780518082602001fd5b604051630a12f52160e11b815260040160405180910390fd5b5f60208284031215613004575f80fd5b81356001600160e01b031981168114612d9f575f80fd5b6001600160a01b03811681146128d3575f80fd5b803561303a8161301b565b919050565b5f8083601f84011261304f575f80fd5b5081356001600160401b03811115613065575f80fd5b60208301915083602082850101111561307c575f80fd5b9250929050565b5f805f8060608587031215613096575f80fd5b84356130a18161301b565b93506020850135925060408501356001600160401b038111156130c2575f80fd5b6130ce8782880161303f565b95989497509550505050565b80151581146128d3575f80fd5b5f80604083850312156130f8575f80fd5b82356131038161301b565b91506020830135613113816130da565b809150509250929050565b5f805f805f60a08688031215613132575f80fd5b853561313d8161301b565b9450602086013561314d8161301b565b9350604086013561315d8161301b565b9250606086013561316d8161301b565b9150608086013561317d8161301b565b809150509295509295909350565b5f6020828403121561319b575f80fd5b5035919050565b5f80604083850312156131b3575f80fd5b8235915060208301356131138161301b565b634e487b7160e01b5f52604160045260245ffd5b60405160c081016001600160401b03811182821017156131fb576131fb6131c5565b60405290565b60405161010081016001600160401b03811182821017156131fb576131fb6131c5565b60405160a081016001600160401b03811182821017156131fb576131fb6131c5565b604051606081016001600160401b03811182821017156131fb576131fb6131c5565b604051601f8201601f191681016001600160401b0381118282101715613290576132906131c5565b604052919050565b5f6001600160401b038211156132b0576132b06131c5565b50601f01601f191660200190565b5f6132d06132cb84613298565b613268565b90508281528383830111156132e3575f80fd5b828260208301375f602084830101529392505050565b5f806040838503121561330a575f80fd5b82356133158161301b565b915060208301356001600160401b0381111561332f575f80fd5b8301601f8101851361333f575f80fd5b61334e858235602084016132be565b9150509250929050565b6001600160a01b0391909116815260200190565b5f805f806060858703121561337f575f80fd5b8435935060208501356001600160401b0381111561339b575f80fd5b6133a78782880161303f565b90945092505060408501356133bb8161301b565b939692955090935050565b5f602082840312156133d6575f80fd5b8135612d9f8161301b565b5f5b838110156133fb5781810151838201526020016133e3565b50505f910152565b5f815180845261341a8160208601602086016133e1565b601f01601f19169290920160200192915050565b602081525f612d9f6020830184613403565b5f82601f83011261344f575f80fd5b612d9f838335602085016132be565b5f805f60608486031215613470575f80fd5b833561347b8161301b565b925060208401356001600160401b0380821115613496575f80fd5b6134a287838801613440565b935060408601359150808211156134b7575f80fd5b506134c486828701613440565b9150509250925092565b5f805f805f8060a087890312156134e3575f80fd5b86356134ee8161301b565b9550602087013594506040870135935060608701356001600160401b03811115613516575f80fd5b61352289828a0161303f565b90945092505060808701356135368161301b565b809150509295509295509295565b805161303a816130da565b5f60c0828403121561355f575f80fd5b6135676131d9565b82516135728161301b565b815260208381015190820152604083015161358c8161301b565b6040820152606083015161359f8161301b565b606082015260808301516135b28161301b565b608082015260a08301516135c5816130da565b60a08201529392505050565b5f602082840312156135e1575f80fd5b8151612d9f8161301b565b5f82601f8301126135fb575f80fd5b604051608081018181106001600160401b038211171561361d5761361d6131c5565b604052806080840185811115613631575f80fd5b845b8181101561364b578035835260209283019201613633565b509195945050505050565b5f82601f830112613665575f80fd5b61366d613246565b80606084018581111561367e575f80fd5b845b81811015613698578035845260209384019301613680565b509095945050505050565b5f602082840312156136b3575f80fd5b81356001600160401b03808211156136c9575f80fd5b908301906101a082860312156136dd575f80fd5b6136e5613201565b6136ee8361302f565b81526020830135602082015260408301356040820152606083013582811115613715575f80fd5b61372187828601613440565b606083015250608083013582811115613738575f80fd5b61374487828601613440565b60808301525060a083013560a08201526137618660c085016135ec565b60c0820152613774866101408501613656565b60e082015295945050505050565b805161303a8161301b565b5f835161379e8184602088016133e1565b8351908301906137b28183602088016133e1565b01949350505050565b805f5b60038110156111535781518452602093840193909101906001016137be565b6001600160a01b038b811682526101e060208084018290525f92906138048584018f613403565b9250818d1660408601528483036060860152613820838d613403565b92508483036080860152613834838c613403565b9350818a1660a086015260c0850192508891505f5b600481101561386657825184529281019291810191600101613849565b505050508461014083015261387f6101608301856137bb565b6001600160a01b0383166101c08301529b9a5050505050505050505050565b5f602082840312156138ae575f80fd5b5051919050565b634e487b7160e01b5f52601160045260245ffd5b8181038181111561071d5761071d6138b5565b604081525f6138ee6040830185613403565b82810360208401526117d08185613403565b5f82601f83011261390f575f80fd5b815161391d6132cb82613298565b818152846020838601011115613931575f80fd5b611dfc8260208301602087016133e1565b600381106128d3575f80fd5b805161303a81613942565b5f60208284031215613969575f80fd5b81516001600160401b038082111561397f575f80fd5b9083019060a08286031215613992575f80fd5b61399a613224565b82516139a58161301b565b81526020830151828111156139b8575f80fd5b6139c487828601613900565b6020830152506040830151828111156139db575f80fd5b6139e787828601613900565b604083015250606083015191506139fd82613942565b816060820152613a0f60808401613544565b608082015295945050505050565b634e487b7160e01b5f52602160045260245ffd5b60038110613a4d57634e487b7160e01b5f52602160045260245ffd5b9052565b6001600160a01b038316815260408101612d9f6020830184613a31565b5f60c08284031215613a7e575f80fd5b613a866131d9565b82518152602083015160208201526040830151613aa28161301b565b60408201526060838101519082015260808301516135b28161301b565b5f805f60608486031215613ad1575f80fd5b835160ff81168114613ae1575f80fd5b602085015160409095015190969495509392505050565b5f60208284031215613b08575f80fd5b604051602081016001600160401b038282108183111715613b2b57613b2b6131c5565b816040528293508435915080821115613b42575f80fd5b50613b4f85828601613440565b8252505092915050565b5f60208284031215613b69575f80fd5b81356001600160401b03811115613b7e575f80fd5b611dfc84828501613af8565b828152604060208201525f611dfc6040830184613403565b5f60208284031215613bb2575f80fd5b81516001600160401b03811115613bc7575f80fd5b611dfc84828501613900565b8082018082111561071d5761071d6138b5565b5f805f60608486031215613bf8575f80fd5b835160048110613c06575f80fd5b60208501519093506001600160801b0381168114613c22575f80fd5b60408501519092506001600160781b0381168114613c3e575f80fd5b809150509250925092565b6001600160781b03828116828216039080821115612784576127846138b5565b5f805f805f805f805f806101808b8d031215613c83575f80fd5b8a51613c8e816130da565b809a50506020808c0151995060408c0151985060608c0151613caf816130da565b9750609f8c018d13613cbf575f80fd5b613cc7613246565b8060e08e018f811115613cd8575f80fd5b60808f015b81811015613cfd578051613cf08161301b565b8452928401928401613cdd565b50519098509650613d149150506101008c0161394e565b9350613d236101208c01613782565b92506101408b01516001600160401b03811115613d3e575f80fd5b613d4a8d828e01613900565b9250506101608b015190509295989b9194979a5092959850565b6001600160a01b0383811682526040602080840182905284519092169083015282015160a060608301525f90613d9d60e0840182613403565b90506040840151603f19848303016080850152613dba8282613403565b9150506060840151613dcf60a0850182613a31565b506080840151151560c0840152809150509392505050565b5f8251613df88184602087016133e1565b919091019291505056fe189ab7a9244df0848122154315af71fe140f3db0fe014031783b0946b8c9d2e3360894a13ba1a3210667c828492db98dca3e2076cc3735a920a3ca505d382bbca2646970667358221220467b02ad7e6b262758552b4a1762c889c99688971552b6019ce7b00f159458e564736f6c63430008140033",
  "linkReferences": {},
  "deployedLinkReferences": {}
}