{
  "_format": "hh-sol-artifact-1",
  "contractName": "KlerosBadgeModelController",
  "sourceName": "src/contracts/badgeModelControllers/KlerosBadgeModelController.sol",
  "abi": [
    {
      "inputs": [],
      "stateMutability": "nonpayable",
      "type": "constructor"
    },
    {
      "inputs": [],
      "name": "AccessControlBadConfirmation",
      "type": "error"
    },
    {
      "inputs": [
        {
          "internalType": "address",
          "name": "account",
          "type": "address"
        },
        {
          "internalType": "bytes32",
          "name": "neededRole",
          "type": "bytes32"
        }
      ],
      "name": "AccessControlUnauthorizedAccount",
      "type": "error"
    },
    {
      "inputs": [
        {
          "internalType": "address",
          "name": "target",
          "type": "address"
        }
      ],
      "name": "AddressEmptyCode",
      "type": "error"
    },
    {
      "inputs": [
        {
          "internalType": "address",
          "name": "implementation",
          "type": "address"
        }
      ],
      "name": "ERC1967InvalidImplementation",
      "type": "error"
    },
    {
      "inputs": [],
      "name": "ERC1967NonPayable",
      "type": "error"
    },
    {
      "inputs": [],
      "name": "FailedInnerCall",
      "type": "error"
    },
    {
      "inputs": [],
      "name": "InvalidInitialization",
      "type": "error"
    },
    {
      "inputs": [],
      "name": "KlerosBadgeModelController__badge__depositReturnFailed",
      "type": "error"
    },
    {
      "inputs": [],
      "name": "KlerosBadgeModelController__badge__klerosBadgeNotFound",
      "type": "error"
    },
    {
      "inputs": [],
      "name": "KlerosBadgeModelController__badge__notInChallengeableStatus",
      "type": "error"
    },
    {
      "inputs": [],
      "name": "KlerosBadgeModelController__badge__tcrKlerosBadgeNotFound",
      "type": "error"
    },
    {
      "inputs": [],
      "name": "KlerosBadgeModelController__claimBadge_insufficientBalance",
      "type": "error"
    },
    {
      "inputs": [],
      "name": "KlerosBadgeModelController__createBadgeModel_badgeModelAlreadyCreated",
      "type": "error"
    },
    {
      "inputs": [],
      "name": "KlerosBadgeModelController__mintBadge_wrongValue",
      "type": "error"
    },
    {
      "inputs": [],
      "name": "KlerosBadgeModelController__onlyTheBadge_senderNotTheBadge",
      "type": "error"
    },
    {
      "inputs": [],
      "name": "KlerosBadgeModelController__onlyTheBadge_senderNotTheBadgeModels",
      "type": "error"
    },
    {
      "inputs": [],
      "name": "NotInitializing",
      "type": "error"
    },
    {
      "inputs": [
        {
          "internalType": "address",
          "name": "owner",
          "type": "address"
        }
      ],
      "name": "OwnableInvalidOwner",
      "type": "error"
    },
    {
      "inputs": [
        {
          "internalType": "address",
          "name": "account",
          "type": "address"
        }
      ],
      "name": "OwnableUnauthorizedAccount",
      "type": "error"
    },
    {
      "inputs": [],
      "name": "ReentrancyGuardReentrantCall",
      "type": "error"
    },
    {
      "inputs": [],
      "name": "UUPSUnauthorizedCallContext",
      "type": "error"
    },
    {
      "inputs": [
        {
          "internalType": "bytes32",
          "name": "slot",
          "type": "bytes32"
        }
      ],
      "name": "UUPSUnsupportedProxiableUUID",
      "type": "error"
    },
    {
      "anonymous": false,
      "inputs": [
        {
          "indexed": true,
          "internalType": "address",
          "name": "recipient",
          "type": "address"
        },
        {
          "indexed": false,
          "internalType": "uint256",
          "name": "amount",
          "type": "uint256"
        },
        {
          "indexed": true,
          "internalType": "uint256",
          "name": "badgeId",
          "type": "uint256"
        }
      ],
      "name": "DepositReturned",
      "type": "event"
    },
    {
      "anonymous": false,
      "inputs": [
        {
          "indexed": true,
          "internalType": "address",
          "name": "admin",
          "type": "address"
        },
        {
          "indexed": true,
          "internalType": "address",
          "name": "tcrFactory",
          "type": "address"
        }
      ],
      "name": "Initialize",
      "type": "event"
    },
    {
      "anonymous": false,
      "inputs": [
        {
          "indexed": false,
          "internalType": "uint64",
          "name": "version",
          "type": "uint64"
        }
      ],
      "name": "Initialized",
      "type": "event"
    },
    {
      "anonymous": false,
      "inputs": [
        {
          "indexed": true,
          "internalType": "uint256",
          "name": "badgeId",
          "type": "uint256"
        },
        {
          "indexed": true,
          "internalType": "address",
          "name": "challenger",
          "type": "address"
        },
        {
          "indexed": false,
          "internalType": "string",
          "name": "evidence",
          "type": "string"
        }
      ],
      "name": "KlerosBadgeChallenged",
      "type": "event"
    },
    {
      "anonymous": false,
      "inputs": [
        {
          "indexed": true,
          "internalType": "uint256",
          "name": "badgeId",
          "type": "uint256"
        },
        {
          "indexed": true,
          "internalType": "address",
          "name": "challenger",
          "type": "address"
        },
        {
          "indexed": false,
          "internalType": "string",
          "name": "evidence",
          "type": "string"
        }
      ],
      "name": "KlerosChallengeEvidenceAdded",
      "type": "event"
    },
    {
      "anonymous": false,
      "inputs": [
        {
          "indexed": true,
          "internalType": "uint256",
          "name": "badgeId",
          "type": "uint256"
        },
        {
          "indexed": false,
          "internalType": "string",
          "name": "evidence",
          "type": "string"
        }
      ],
      "name": "MintKlerosBadge",
      "type": "event"
    },
    {
      "anonymous": false,
      "inputs": [
        {
          "indexed": true,
          "internalType": "uint256",
          "name": "badgeModelId",
          "type": "uint256"
        },
        {
          "indexed": true,
          "internalType": "address",
          "name": "tcrAddress",
          "type": "address"
        },
        {
          "indexed": false,
          "internalType": "string",
          "name": "registrationMetaEvidence",
          "type": "string"
        },
        {
          "indexed": false,
          "internalType": "string",
          "name": "clearingMetaEvidence",
          "type": "string"
        }
      ],
      "name": "NewKlerosBadgeModel",
      "type": "event"
    },
    {
      "anonymous": false,
      "inputs": [
        {
          "indexed": true,
          "internalType": "address",
          "name": "previousOwner",
          "type": "address"
        },
        {
          "indexed": true,
          "internalType": "address",
          "name": "newOwner",
          "type": "address"
        }
      ],
      "name": "OwnershipTransferred",
      "type": "event"
    },
    {
      "anonymous": false,
      "inputs": [],
      "name": "ProtocolSettingsUpdated",
      "type": "event"
    },
    {
      "anonymous": false,
      "inputs": [
        {
          "indexed": true,
          "internalType": "bytes32",
          "name": "role",
          "type": "bytes32"
        },
        {
          "indexed": true,
          "internalType": "bytes32",
          "name": "previousAdminRole",
          "type": "bytes32"
        },
        {
          "indexed": true,
          "internalType": "bytes32",
          "name": "newAdminRole",
          "type": "bytes32"
        }
      ],
      "name": "RoleAdminChanged",
      "type": "event"
    },
    {
      "anonymous": false,
      "inputs": [
        {
          "indexed": true,
          "internalType": "bytes32",
          "name": "role",
          "type": "bytes32"
        },
        {
          "indexed": true,
          "internalType": "address",
          "name": "account",
          "type": "address"
        },
        {
          "indexed": true,
          "internalType": "address",
          "name": "sender",
          "type": "address"
        }
      ],
      "name": "RoleGranted",
      "type": "event"
    },
    {
      "anonymous": false,
      "inputs": [
        {
          "indexed": true,
          "internalType": "bytes32",
          "name": "role",
          "type": "bytes32"
        },
        {
          "indexed": true,
          "internalType": "address",
          "name": "account",
          "type": "address"
        },
        {
          "indexed": true,
          "internalType": "address",
          "name": "sender",
          "type": "address"
        }
      ],
      "name": "RoleRevoked",
      "type": "event"
    },
    {
      "anonymous": false,
      "inputs": [
        {
          "indexed": true,
          "internalType": "address",
          "name": "implementation",
          "type": "address"
        }
      ],
      "name": "Upgraded",
      "type": "event"
    },
    {
      "inputs": [],
      "name": "CLAIMER_ROLE",
      "outputs": [
        {
          "internalType": "bytes32",
          "name": "",
          "type": "bytes32"
        }
      ],
      "stateMutability": "view",
      "type": "function"
    },
    {
      "inputs": [],
      "name": "DEFAULT_ADMIN_ROLE",
      "outputs": [
        {
          "internalType": "bytes32",
          "name": "",
          "type": "bytes32"
        }
      ],
      "stateMutability": "view",
      "type": "function"
    },
    {
      "inputs": [],
      "name": "PAUSER_ROLE",
      "outputs": [
        {
          "internalType": "bytes32",
          "name": "",
          "type": "bytes32"
        }
      ],
      "stateMutability": "view",
      "type": "function"
    },
    {
      "inputs": [],
      "name": "UPGRADER_ROLE",
      "outputs": [
        {
          "internalType": "bytes32",
          "name": "",
          "type": "bytes32"
        }
      ],
      "stateMutability": "view",
      "type": "function"
    },
    {
      "inputs": [],
      "name": "UPGRADE_INTERFACE_VERSION",
      "outputs": [
        {
          "internalType": "string",
          "name": "",
          "type": "string"
        }
      ],
      "stateMutability": "view",
      "type": "function"
    },
    {
      "inputs": [],
      "name": "URI_SETTER_ROLE",
      "outputs": [
        {
          "internalType": "bytes32",
          "name": "",
          "type": "bytes32"
        }
      ],
      "stateMutability": "view",
      "type": "function"
    },
    {
      "inputs": [],
      "name": "USER_MANAGER_ROLE",
      "outputs": [
        {
          "internalType": "bytes32",
          "name": "",
          "type": "bytes32"
        }
      ],
      "stateMutability": "view",
      "type": "function"
    },
    {
      "inputs": [],
      "name": "VERIFIER_ROLE",
      "outputs": [
        {
          "internalType": "bytes32",
          "name": "",
          "type": "bytes32"
        }
      ],
      "stateMutability": "view",
      "type": "function"
    },
    {
      "inputs": [
        {
          "internalType": "uint256",
          "name": "badgeId",
          "type": "uint256"
        },
        {
          "internalType": "bytes",
          "name": "data",
          "type": "bytes"
        },
        {
          "internalType": "address",
          "name": "caller",
          "type": "address"
        }
      ],
      "name": "challenge",
      "outputs": [],
      "stateMutability": "payable",
      "type": "function"
    },
    {
      "inputs": [
        {
          "internalType": "uint256",
          "name": "badgeId",
          "type": "uint256"
        },
        {
          "internalType": "bytes",
          "name": "",
          "type": "bytes"
        },
        {
          "internalType": "address",
          "name": "",
          "type": "address"
        }
      ],
      "name": "claim",
      "outputs": [
        {
          "internalType": "address",
          "name": "",
          "type": "address"
        }
      ],
      "stateMutability": "nonpayable",
      "type": "function"
    },
    {
      "inputs": [
        {
          "internalType": "address",
          "name": "callee",
          "type": "address"
        },
        {
          "internalType": "uint256",
          "name": "badgeModelId",
          "type": "uint256"
        },
        {
          "internalType": "bytes",
          "name": "data",
          "type": "bytes"
        }
      ],
      "name": "createBadgeModel",
      "outputs": [],
      "stateMutability": "nonpayable",
      "type": "function"
    },
    {
      "inputs": [
        {
          "internalType": "uint256",
          "name": "badgeId",
          "type": "uint256"
        }
      ],
      "name": "getChallengeDepositValue",
      "outputs": [
        {
          "internalType": "uint256",
          "name": "",
          "type": "uint256"
        }
      ],
      "stateMutability": "view",
      "type": "function"
    },
    {
      "inputs": [
        {
          "internalType": "uint256",
          "name": "badgeId",
          "type": "uint256"
        }
      ],
      "name": "getRemovalDepositValue",
      "outputs": [
        {
          "internalType": "uint256",
          "name": "",
          "type": "uint256"
        }
      ],
      "stateMutability": "view",
      "type": "function"
    },
    {
      "inputs": [
        {
          "internalType": "bytes32",
          "name": "role",
          "type": "bytes32"
        }
      ],
      "name": "getRoleAdmin",
      "outputs": [
        {
          "internalType": "bytes32",
          "name": "",
          "type": "bytes32"
        }
      ],
      "stateMutability": "view",
      "type": "function"
    },
    {
      "inputs": [],
      "name": "getVerifyUserProtocolFee",
      "outputs": [
        {
          "internalType": "uint256",
          "name": "",
          "type": "uint256"
        }
      ],
      "stateMutability": "view",
      "type": "function"
    },
    {
      "inputs": [
        {
          "internalType": "bytes32",
          "name": "role",
          "type": "bytes32"
        },
        {
          "internalType": "address",
          "name": "account",
          "type": "address"
        }
      ],
      "name": "grantRole",
      "outputs": [],
      "stateMutability": "nonpayable",
      "type": "function"
    },
    {
      "inputs": [
        {
          "internalType": "bytes32",
          "name": "role",
          "type": "bytes32"
        },
        {
          "internalType": "address",
          "name": "account",
          "type": "address"
        }
      ],
      "name": "hasRole",
      "outputs": [
        {
          "internalType": "bool",
          "name": "",
          "type": "bool"
        }
      ],
      "stateMutability": "view",
      "type": "function"
    },
    {
      "inputs": [
        {
          "internalType": "address",
          "name": "admin",
          "type": "address"
        },
        {
          "internalType": "address",
          "name": "_theBadge",
          "type": "address"
        },
        {
          "internalType": "address",
          "name": "_theBadgeModels",
          "type": "address"
        },
        {
          "internalType": "address",
          "name": "_klerosBadgeModelControllerStore",
          "type": "address"
        }
      ],
      "name": "initialize",
      "outputs": [],
      "stateMutability": "nonpayable",
      "type": "function"
    },
    {
      "inputs": [
        {
          "internalType": "uint256",
          "name": "badgeId",
          "type": "uint256"
        }
      ],
      "name": "isAssetActive",
      "outputs": [
        {
          "internalType": "bool",
          "name": "",
          "type": "bool"
        }
      ],
      "stateMutability": "view",
      "type": "function"
    },
    {
      "inputs": [],
      "name": "isAutomaticClaimable",
      "outputs": [
        {
          "internalType": "bool",
          "name": "",
          "type": "bool"
        }
      ],
      "stateMutability": "pure",
      "type": "function"
    },
    {
      "inputs": [],
      "name": "isBadgeModelMetadataUpdatable",
      "outputs": [
        {
          "internalType": "bool",
          "name": "",
          "type": "bool"
        }
      ],
      "stateMutability": "pure",
      "type": "function"
    },
    {
      "inputs": [],
      "name": "isBadgeModelMetadataUpgradeable",
      "outputs": [
        {
          "internalType": "bool",
          "name": "",
          "type": "bool"
        }
      ],
      "stateMutability": "pure",
      "type": "function"
    },
    {
      "inputs": [
        {
          "internalType": "uint256",
          "name": "badgeId",
          "type": "uint256"
        }
      ],
      "name": "isClaimable",
      "outputs": [
        {
          "internalType": "bool",
          "name": "",
          "type": "bool"
        }
      ],
      "stateMutability": "view",
      "type": "function"
    },
    {
      "inputs": [
        {
          "internalType": "uint256",
          "name": "",
          "type": "uint256"
        },
        {
          "internalType": "address",
          "name": "",
          "type": "address"
        }
      ],
      "name": "isMintableToController",
      "outputs": [
        {
          "internalType": "bool",
          "name": "",
          "type": "bool"
        }
      ],
      "stateMutability": "pure",
      "type": "function"
    },
    {
      "inputs": [],
      "name": "klerosBadgeModelControllerStore",
      "outputs": [
        {
          "internalType": "contract KlerosBadgeModelControllerStore",
          "name": "",
          "type": "address"
        }
      ],
      "stateMutability": "view",
      "type": "function"
    },
    {
      "inputs": [
        {
          "internalType": "address",
          "name": "callee",
          "type": "address"
        },
        {
          "internalType": "uint256",
          "name": "badgeModelId",
          "type": "uint256"
        },
        {
          "internalType": "uint256",
          "name": "badgeId",
          "type": "uint256"
        },
        {
          "internalType": "bytes",
          "name": "data",
          "type": "bytes"
        },
        {
          "internalType": "address",
          "name": "destinationAddress",
          "type": "address"
        }
      ],
      "name": "mint",
      "outputs": [
        {
          "internalType": "uint256",
          "name": "",
          "type": "uint256"
        }
      ],
      "stateMutability": "payable",
      "type": "function"
    },
    {
      "inputs": [
        {
          "internalType": "uint256",
          "name": "badgeModelId",
          "type": "uint256"
        }
      ],
      "name": "mintValue",
      "outputs": [
        {
          "internalType": "uint256",
          "name": "",
          "type": "uint256"
        }
      ],
      "stateMutability": "view",
      "type": "function"
    },
    {
      "inputs": [],
      "name": "owner",
      "outputs": [
        {
          "internalType": "address",
          "name": "",
          "type": "address"
        }
      ],
      "stateMutability": "view",
      "type": "function"
    },
    {
      "inputs": [],
      "name": "proxiableUUID",
      "outputs": [
        {
          "internalType": "bytes32",
          "name": "",
          "type": "bytes32"
        }
      ],
      "stateMutability": "view",
      "type": "function"
    },
    {
      "inputs": [
        {
          "internalType": "uint256",
          "name": "badgeId",
          "type": "uint256"
        },
        {
          "internalType": "bytes",
          "name": "data",
          "type": "bytes"
        },
        {
          "internalType": "address",
          "name": "caller",
          "type": "address"
        }
      ],
      "name": "removeItem",
      "outputs": [],
      "stateMutability": "payable",
      "type": "function"
    },
    {
      "inputs": [],
      "name": "renounceOwnership",
      "outputs": [],
      "stateMutability": "nonpayable",
      "type": "function"
    },
    {
      "inputs": [
        {
          "internalType": "bytes32",
          "name": "role",
          "type": "bytes32"
        },
        {
          "internalType": "address",
          "name": "callerConfirmation",
          "type": "address"
        }
      ],
      "name": "renounceRole",
      "outputs": [],
      "stateMutability": "nonpayable",
      "type": "function"
    },
    {
      "inputs": [
        {
          "internalType": "bytes32",
          "name": "role",
          "type": "bytes32"
        },
        {
          "internalType": "address",
          "name": "account",
          "type": "address"
        }
      ],
      "name": "revokeRole",
      "outputs": [],
      "stateMutability": "nonpayable",
      "type": "function"
    },
    {
      "inputs": [
        {
          "internalType": "uint256",
          "name": "badgeId",
          "type": "uint256"
        },
        {
          "internalType": "bytes",
          "name": "data",
          "type": "bytes"
        },
        {
          "internalType": "address",
          "name": "caller",
          "type": "address"
        }
      ],
      "name": "submitEvidence",
      "outputs": [],
      "stateMutability": "nonpayable",
      "type": "function"
    },
    {
      "inputs": [
        {
          "internalType": "bytes4",
          "name": "interfaceId",
          "type": "bytes4"
        }
      ],
      "name": "supportsInterface",
      "outputs": [
        {
          "internalType": "bool",
          "name": "",
          "type": "bool"
        }
      ],
      "stateMutability": "view",
      "type": "function"
    },
    {
      "inputs": [],
      "name": "theBadge",
      "outputs": [
        {
          "internalType": "contract TheBadge",
          "name": "",
          "type": "address"
        }
      ],
      "stateMutability": "view",
      "type": "function"
    },
    {
      "inputs": [],
      "name": "theBadgeModels",
      "outputs": [
        {
          "internalType": "contract TheBadgeModels",
          "name": "",
          "type": "address"
        }
      ],
      "stateMutability": "view",
      "type": "function"
    },
    {
      "inputs": [
        {
          "internalType": "address",
          "name": "newOwner",
          "type": "address"
        }
      ],
      "name": "transferOwnership",
      "outputs": [],
      "stateMutability": "nonpayable",
      "type": "function"
    },
    {
      "inputs": [
        {
          "internalType": "uint256",
          "name": "_verifyUserProtocolFee",
          "type": "uint256"
        }
      ],
      "name": "updateVerifyUserProtocolFee",
      "outputs": [],
      "stateMutability": "nonpayable",
      "type": "function"
    },
    {
      "inputs": [
        {
          "internalType": "address",
          "name": "newImplementation",
          "type": "address"
        },
        {
          "internalType": "bytes",
          "name": "data",
          "type": "bytes"
        }
      ],
      "name": "upgradeToAndCall",
      "outputs": [],
      "stateMutability": "payable",
      "type": "function"
    },
    {
      "stateMutability": "payable",
      "type": "receive"
    }
  ],
  "bytecode": "0x60a080604052346100cd57306080527ff0c57e16840df040f15088dc2f81fe391c3923bec73e23a9662efc9c229c6a009081549060ff8260401c166100be57506001600160401b036002600160401b031982821601610079575b6040516132ab9081620000d2823960805181818161125c015261132b0152f35b6001600160401b031990911681179091556040519081527fc7f505b2f371ae2175ee4913f4499e1f2633a7b5936321eed1cdaeb6115181d290602090a15f8080610059565b63f92ee8a960e01b8152600490fd5b5f80fdfe608080604052600436101561001c575b50361561001a575f80fd5b005b5f90813560e01c90816301ffc9a714611d535750806304a3c5d7146116275780630d3f35071461151257806322e900c214611608578063248a9ca3146115cf5780632f2ff15d1461158557806336568abe1461153d578063401fef94146115175780634d854cb4146115125780634f1ef286146112da578063518a893b146112b357806352d1902d1461124957806361cf6b4814611172578063632f7c8314611153578063681294b414611018578063715018a614610faf5780637657dbdd14610f2e5780637eb7f17614610e8e5780637f34571014610e5357806389610a0914610e2a5780638ac516b814610d465780638da5cb5b14610d1157806391d1485414610cbb5780639c6b9f8a14610ab8578063a217fddf146109ee578063a41e35c314610a7d578063ad3cb1cc14610a33578063caa39ec514610a0a578063d3245f26146109ee578063d547741f146109a0578063d7deba1514610979578063d8bee35614610803578063e63ab1e9146107c8578063e7705db61461078d578063f2fde38b14610760578063f4bcaf4214610737578063f6563d5f1461048c578063f72c0d8b14610464578063f8c8765e146102195763fc5f18d30361000f573461021657806003193601126102165760206040517f11a8cb5a02bd6c42679835e867ef2118ba78f088f8300511420c6603c21d9c788152f35b80fd5b503461021657608036600319011261021657610233611da8565b61023b611dbe565b6001600160a01b039160443583811691908290036104605760643593808516809503610460577ff0c57e16840df040f15088dc2f81fe391c3923bec73e23a9662efc9c229c6a009384549360ff8560401c1615946001600160401b03811680159081610458575b600114908161044e575b159081610445575b506104335767ffffffffffffffff1981166001178755602092899260049288610414575b506102e16123eb565b6102e96123eb565b6102f2876122d4565b6102fb87611fdf565b506103058761206a565b5061030f87612117565b508560018060a01b0319921682600154161760015581600254161760025588835491821617835560405198899384926384101a1760e01b845216175afa9485156104095786956103ca575b5080604051951691167fdc90fed0326ba91706deeac7eb34ac9f8b680734f9d782864dc29704d23bed6a8680a361038f578280f35b805460ff60401b19169055600181527fc7f505b2f371ae2175ee4913f4499e1f2633a7b5936321eed1cdaeb6115181d290602090a15f808280f35b9094506020813d8211610401575b816103e560209383611e94565b810103126103fd576103f6906123d7565b935f61035a565b8580fd5b3d91506103d8565b6040513d88823e3d90fd5b68ffffffffffffffffff1916680100000000000000011789555f6102d8565b60405163f92ee8a960e01b8152600490fd5b9050155f6102b4565b303b1591506102ac565b8791506102a2565b5f80fd5b503461021657806003193601126102165760206040515f805160206132168339815191528152f35b5060a0366003190112610216576104a1611da8565b6064356001600160401b0381116106d2576104c0903690600401611dd4565b926001600160a01b039260843584811693929190849003610460578460015416330361072557602435926104f3846125d6565b340361071357602460c0878554166040519283809263b7f77e1560e01b82528960048301525afa9081156106d657604061053e9392899287916106e5575b50015116978101906124ca565b92835196803b156106e1578360405180926309fa7ca560e21b8252818061057160209d8e60048401526024830190611f6e565b039134905af180156106d6579084916106be575b505083516040516105b28982816105a58183019687815193849201611f4d565b8101038084520182611e94565b51902095604051956105c387611e43565b87875288870192835281604088019416845260608701913483526080880191825260a0880191600183528187541693843b156106ba579082918896959493604051988997634e2e8c9160e11b89526044359d8e60048b01525160248a015251604489015251166064870152516084860152511660a484015251151560c483015281835a9260e493f180156106af5761069b575b50506106907fdd7e1dd9a30843ba8c2619a3c5ce27830ad90612bad48feeb549fc94114d6261915160405191829187835287830190611f6e565b0390a2604051908152f35b6106a58291611e1c565b6102165780610656565b6040513d84823e3d90fd5b8780fd5b6106c790611e1c565b6106d257825f610585565b8280fd5b6040513d86823e3d90fd5b8380fd5b610706915060c03d811161070c575b6106fe8183611e94565b810190612439565b5f610531565b503d6106f4565b604051637bcb3e5760e01b8152600490fd5b60405163942e92c760e01b8152600490fd5b50346102165780600319360112610216576002546040516001600160a01b039091168152602090f35b50346102165760203660031901126102165761078a61077d611da8565b61078561229c565b6122d4565b80f35b503461021657806003193601126102165760206040517f0ce23c3e399818cfee81a7ab0880f714e53d7672b08df0fa62f2843416e1ea098152f35b503461021657806003193601126102165760206040517f65d7a28e3265b37a6474929f336521b332c1681b933f6cb9f3376673440d862a8152f35b50346102165761081236611f06565b6001549093926001600160a01b0391821633036107255760249260c08388541660405195868092630c7b27cd60e31b82528960048301525afa93841561096e57879461093e575b5060a08401511561092c5783511561092c578161087991889301906124ca565b928261088486612eac565b1690518451823b156106e1576108c09284928360405180968195829463f48a0b3160e01b84526004840152604060248401526044830190611f6e565b03925af180156106af57610914575b50507f8c0b973d20787b10ea3bdbb5dc91eea821f172b4759e8096d07f8fa93a6b184d91519361090e6040519283926020845216956020830190611f6e565b0390a380f35b61091d90611e1c565b61092857845f6108cf565b8480fd5b604051630c11d07360e01b8152600490fd5b61096091945060c03d8111610967575b6109588183611e94565b810190612521565b925f610859565b503d61094e565b6040513d89823e3d90fd5b5034610216576020366003190112610216576020610998600435612c97565b604051908152f35b5034610216576040366003190112610216576109ea6004356109c0611dbe565b908084525f805160206132568339815191526020526109e56001604086200154611f93565b61221c565b5080f35b5034610216578060031936011261021657602090604051908152f35b50346102165780600319360112610216576001546040516001600160a01b039091168152602090f35b5034610216578060031936011261021657610a79604051610a5381611e79565b60058152640352e302e360dc1b6020820152604051918291602083526020830190611f6e565b0390f35b503461021657806003193601126102165760206040517fcbaaf41b181bb6e269c490e876a7c97711b57e21dd8e5528423cf57579726b358152f35b503461021657610ac736611f06565b505060015491926001600160a01b039290915082163303610725577f9b779b17422d0df92223018b32b4d1fa46e071723d6817e2486d003becc55f00916002835414610ca95760249160028455610b1d85612eac565b60c08383541660405195868092630c7b27cd60e31b82528a60048301525afa9384156106af578294610c87575b5082168351813b156106d25782916024839260405194859384926374e120b360e11b845260048401525af180156106af57908291610c73575b50506060830180514710610c6157519282825416803b156106d257828091602460405180948193633879a0b960e21b83528c60048401525af18015610c5657908391610c3e575b5050604081019180808087878751165af1610be3612345565b5015610c2c576020956001947f9794db68af033346a63dbc4509364afc3a23201eced8a4f3bc64d029abfacc658886608096511692604051908152a30151169155604051908152f35b60405163aa701b0560e01b8152600490fd5b610c4790611e1c565b610c5257815f610bca565b5080fd5b6040513d85823e3d90fd5b6040516398e2a0bb60e01b8152600490fd5b610c7c90611e1c565b61021657805f610b83565b83919450610ca29060c03d8111610967576109588183611e94565b9390610b4a565b604051633ee5aeb560e01b8152600490fd5b5034610216576040366003190112610216576040610cd7611dbe565b9160043581525f80516020613256833981519152602052209060018060a01b03165f52602052602060ff60405f2054166040519015158152f35b50346102165780600319360112610216575f805160206131f6833981519152546040516001600160a01b039091168152602090f35b503461021657602036600319011261021657335f9081527fb7db2dd08fcb62d0c9e08c51941cae53c267786a0b75803fb7960902fc8ef97d602052604090205460ff1615610e0c57805481906001600160a01b0316803b15610e0957818091602460405180948193630404b29f60e31b835260043560048401525af180156106af57610df5575b50807f810f1720fbc34c56d171f89315ad21708648fd17424c27b88fa208409845aa7791a180f35b610dfe90611e1c565b61021657805f610dcd565b50fd5b60405163e2517d3f60e01b81523360048201525f6024820152604490fd5b5034610216576020366003190112610216576020610e49600435612955565b6040519015158152f35b503461021657806003193601126102165760206040517f7804d923f43a17d325d77e781528e0793b2edd9890ab45fc64efd7b4b427744c8152f35b5034610216576020908160031936011261021657600490813583610eba610eb483612eac565b92612f90565b6040516361795f7560e11b815294909285919082906001600160a01b03165afa918215610f225791610ef1575b61099892506131ba565b90508282813d8311610f1b575b610f088183611e94565b8101031261046057610998915190610ee7565b503d610efe565b604051903d90823e3d90fd5b50346102165780600319360112610216578054604051637657dbdd60e01b81529190602090839060049082906001600160a01b03165afa908115610f225790610f7d575b602090604051908152f35b506020813d8211610fa7575b81610f9660209383611e94565b810103126104605760209051610f72565b3d9150610f89565b5034610216578060031936011261021657610fc861229c565b5f805160206131f683398151915280546001600160a01b031981169091555f906001600160a01b03167f8be0079c531659141344cd1fd0a4f28419497f9722a3daafe3b4186f6b6457e08280a380f35b5061102236611f06565b6001549093926001600160a01b0391821633036107255760249260c08388541660405195868092630c7b27cd60e31b82528960048301525afa93841561096e578794611133575b5060a08401511561092c5783511561092c578161108991889301906124ca565b928261109486612eac565b1690518451823b156106e1576110cf92849260405180958194829363873db1a760e01b84526004840152604060248401526044830190611f6e565b039134905af180156106af5761111f575b50507f11eb5c907e498f2c995a2af5e0aac8b359e64a72061cb07d980c63bf562ada0791519361090e6040519283926020845216956020830190611f6e565b61112890611e1c565b61092857845f6110e0565b61114c91945060c03d8111610967576109588183611e94565b925f611069565b50346102165760203660031901126102165760206109986004356125d6565b5061117c36611f06565b6001549093926001600160a01b0391821633036107255760249260c08388541660405195868092630c7b27cd60e31b82528960048301525afa93841561096e578794611229575b5060a08401511561092c5783511561092c57816111e391889301906124ca565b92826111ee86612eac565b1690518451823b156106e1576110cf92849260405180958194829363097e90e560e41b84526004840152604060248401526044830190611f6e565b61124291945060c03d8111610967576109588183611e94565b925f6111c3565b50346102165780600319360112610216577f00000000000000000000000000000000000000000000000000000000000000006001600160a01b031630036112a15760206040515f805160206132368339815191528152f35b60405163703e46dd60e11b8152600490fd5b5034610216578060031936011261021657546040516001600160a01b039091168152602090f35b506040366003190112610216576112ef611da8565b60249182356001600160401b038111610c525736602382011215610c52576113209036908581600401359101611ed0565b6001600160a01b03927f000000000000000000000000000000000000000000000000000000000000000084163081149081156114f7575b506112a157335f9081527fab71e3f32666744d246edff3f96e4bdafee2e9867098cdd118a979a7464786a860209081526040909120549094905f805160206132168339815191529060ff16156114da57508116936040516352d1902d60e01b81528181600481895afa8591816114ab575b506113e557604051634c9c8ce360e01b8152600481018790528790fd5b8590875f80516020613236833981519152918281036114965750843b15611480575080546001600160a01b031916821790556040518592917fbc7cd75a20ee27fd9adebab32041f755214dbc6bffa90cc0225b39da2e5c2d3b8480a2845115611463575083516109ea94839201845af461145d612345565b91612374565b935050505034611471575080f35b63b398979f60e01b8152600490fd5b604051634c9c8ce360e01b815260048101849052fd5b60405190632a87526960e21b82526004820152fd5b9091508281813d83116114d3575b6114c38183611e94565b810103126103fd5751905f6113c8565b503d6114b9565b866044916040519163e2517d3f60e01b8352336004840152820152fd5b9050845f80516020613236833981519152541614155f611357565b611e01565b503461021657604036600319011261021657602090611534611dbe565b50604051908152f35b503461021657604036600319011261021657611557611dbe565b336001600160a01b03821603611573576109ea9060043561221c565b60405163334bd91960e11b8152600490fd5b5034610216576040366003190112610216576109ea6004356115a5611dbe565b908084525f805160206132568339815191526020526115ca6001604086200154611f93565b6121ab565b5034610216576020366003190112610216576001604060209260043581525f805160206132568339815191528452200154604051908152f35b5034610216576020366003190112610216576020610e49600435612bc2565b503461021657606036600319011261021657611641611da8565b6001600160401b036044358181116106e157611661903690600401611dd4565b600254909391906001600160a01b03163303611d415760018060a01b038554169360405163b7f77e1560e01b8152602435600482015260c081602481895afa90811561096e578791611d23575b50604001516001600160a01b0316611d11576040516384101a1760e01b815291602083600481895afa92831561096e578793611cd5575b506020818381010312611cd1578035918583116106ba576101a083830182840103126106ba5760405195610100870187811082821117611cbd57604052828401356001600160a01b0381168103611ca5578752828401602081810135908901526040808201359089015260600135818111611ca55761176b9083850190868601016124ac565b606088015260808484010135818111611ca55761178f9083850190868601016124ac565b608088015260a0848401013560a088015281830160df858501011215611c91576040519081608081011090608083011117611ca95760808101604052808284016101408686010111611ca55760c085850101905b610140868601018210611c9557505060c087015280820161015f8484010112156106ba576040519261181484611e5e565b839183016101a08285010111611c91579061014082840101915b6101a0818501018310611c7b575050505060e084015282516001600160a01b03168015611c6f576020600491955b6040516307e75ba360e11b815292839182905afa908115610409578691611c35575b506118d26118ed602080870151604051908282019081528282526118a182611e79565b6040890151906118e1604051918583019384528583526118c083611e79565b60405197889551809288880190611f4d565b84019151809386840190611f4d565b01038084520182611e94565b606085015190608086015160c08701519260a08801519160e08901519360018060a01b0388163b15611c3157959290611984906119728d96979461195a6040519a8b9863d8dcbd2760e01b8a5260018060a01b031660048a01526101e060248a01526101e4890190611f6e565b90886044890152600319888303016064890152611f6e565b85810360031901608487015290611f6e565b6001600160a01b038b1660a4850152918460c485015b60048210611c1557505050610144830152610164820193835b60038110611bf95750506101c482018390529192509081900381836001600160a01b0387165af1801561040957611be6575b506040516306661abd60e01b81526020816004816001600160a01b0386165afa908115610409578691611bb4575b505f198101908111611ba05760405163a2f7b3a560e01b81526004810191909152906020908290602490829089906001600160a01b03165af1908115611b95578591611b53575b506001600160a01b0316928315611b4157845485926001600160a01b0390911691823b156106e1576040516277bb0160e91b81526024803560048301526001600160a01b0393841690820152604481018790529116606482015260848101839052908290829060a490829084905af180156106af57611b2d575b50507f1e83a75c2089c1100e6d9a024ea6fdf619ec5a922a17230682fbf1217d2a7ec1611b1c608060608401519301519261090e604051928392604084526040840190611f6e565b828103602084015260243595611f6e565b611b3690611e1c565b6106d257825f611ad4565b604051633deb66a760e21b8152600490fd5b90506020813d602011611b8d575b81611b6e60209383611e94565b8101031261092857516001600160a01b0381168103610928575f611a5a565b3d9150611b61565b6040513d87823e3d90fd5b634e487b7160e01b86526011600452602486fd5b90506020813d602011611bde575b81611bcf60209383611e94565b8101031261046057515f611a13565b3d9150611bc2565b611bf290959195611e1c565b935f6119e5565b815186526020958601958c9550879450909101906001016119b3565b825181528d96508895506020928301926001909201910161199a565b8b80fd5b90506020813d602011611c67575b81611c5060209383611e94565b810103126103fd57611c61906123d7565b5f61187e565b3d9150611c43565b5060046020839561185c565b6020806101a0938535815201930192915061182e565b8880fd5b81358152602091820191016117e3565b8980fd5b634e487b7160e01b89526041600452602489fd5b634e487b7160e01b8a52604160045260248afd5b8680fd5b9092506020813d602011611d09575b81611cf160209383611e94565b81010312611cd157611d02906123d7565b915f6116e5565b3d9150611ce4565b604051634d1068bd60e11b8152600490fd5b611d3b915060c03d811161070c576106fe8183611e94565b5f6116ae565b60405163515e38c360e11b8152600490fd5b905034610c52576020366003190112610c525760043563ffffffff60e01b81168091036106d25760209250637965db0b60e01b8114908115611d97575b5015158152f35b6301ffc9a760e01b1490505f611d90565b600435906001600160a01b038216820361046057565b602435906001600160a01b038216820361046057565b9181601f84011215610460578235916001600160401b038311610460576020838186019501011161046057565b34610460575f36600319011261046057602060405160018152f35b6001600160401b038111611e2f57604052565b634e487b7160e01b5f52604160045260245ffd5b60c081019081106001600160401b03821117611e2f57604052565b606081019081106001600160401b03821117611e2f57604052565b604081019081106001600160401b03821117611e2f57604052565b90601f801991011681019081106001600160401b03821117611e2f57604052565b6001600160401b038111611e2f57601f01601f191660200190565b929192611edc82611eb5565b91611eea6040519384611e94565b829481845281830111610460578281602093845f960137010152565b9060606003198301126104605760043591602435906001600160401b03821161046057611f3591600401611dd4565b90916044356001600160a01b03811681036104605790565b5f5b838110611f5e5750505f910152565b8181015183820152602001611f4f565b90602091611f8781518092818552858086019101611f4d565b601f01601f1916010190565b805f525f8051602061325683398151915260205260405f20335f5260205260ff60405f20541615611fc15750565b6044906040519063e2517d3f60e01b82523360048301526024820152fd5b6001600160a01b03165f8181527fb7db2dd08fcb62d0c9e08c51941cae53c267786a0b75803fb7960902fc8ef97d60205260408120549091905f805160206132568339815191529060ff16612065578280526020526040822081835260205260408220600160ff1982541617905533915f805160206131d68339815191528180a4600190565b505090565b6001600160a01b03165f8181527f75442b0a96088b5456bc4ed01394c96a4feec0f883c9494257d76b96ab1c9b6b60205260408120549091907f65d7a28e3265b37a6474929f336521b332c1681b933f6cb9f3376673440d862a905f805160206132568339815191529060ff16612111578184526020526040832082845260205260408320600160ff198254161790555f805160206131d6833981519152339380a4600190565b50505090565b6001600160a01b03165f8181527fab71e3f32666744d246edff3f96e4bdafee2e9867098cdd118a979a7464786a860205260408120549091905f80516020613216833981519152905f805160206132568339815191529060ff16612111578184526020526040832082845260205260408320600160ff198254161790555f805160206131d6833981519152339380a4600190565b905f918083525f8051602061325683398151915280602052604084209260018060a01b03169283855260205260ff604085205416155f14612111578184526020526040832082845260205260408320600160ff198254161790555f805160206131d6833981519152339380a4600190565b905f918083525f8051602061325683398151915280602052604084209260018060a01b03169283855260205260ff6040852054165f1461211157818452602052604083208284526020526040832060ff1981541690557ff6391f5c32d9c69d2a47ea670b442974b53935d1edc7fd64eb21e047a839171b339380a4600190565b5f805160206131f6833981519152546001600160a01b031633036122bc57565b60405163118cdaa760e01b8152336004820152602490fd5b6001600160a01b0390811690811561232d575f805160206131f683398151915280546001600160a01b031981168417909155167f8be0079c531659141344cd1fd0a4f28419497f9722a3daafe3b4186f6b6457e05f80a3565b604051631e4fbdf760e01b81525f6004820152602490fd5b3d1561236f573d9061235682611eb5565b916123646040519384611e94565b82523d5f602084013e565b606090565b9061239b575080511561238957805190602001fd5b604051630a12f52160e11b8152600490fd5b815115806123ce575b6123ac575090565b604051639996b31560e01b81526001600160a01b039091166004820152602490fd5b50803b156123a4565b51906001600160a01b038216820361046057565b60ff7ff0c57e16840df040f15088dc2f81fe391c3923bec73e23a9662efc9c229c6a005460401c161561241a57565b604051631afcd79f60e31b8152600490fd5b5190811515820361046057565b908160c0910312610460576124a460a06040519261245684611e43565b61245f816123d7565b845260208101516020850152612477604082016123d7565b6040850152612488606082016123d7565b6060850152612499608082016123d7565b60808501520161242c565b60a082015290565b9080601f83011215610460578160206124c793359101611ed0565b90565b906020828203126104605781356001600160401b039283821161046057019060208282031261046057604051926020840184811082821117611e2f5760405282359081116104605761251c92016124ac565b815290565b908160c0910312610460576124a460a06040519261253e84611e43565b8051845260208101516020850152612558604082016123d7565b604085015260608101516060850152612499608082016123d7565b81601f8201121561046057805161258981611eb5565b926125976040519485611e94565b81845260208284010111610460576124c79160208085019101611f4d565b919082018092116125c257565b634e487b7160e01b5f52601160045260245ffd5b5f80546040805163b7f77e1560e01b815260048101949094529193926001600160a01b03918216919060c081602481865afa90811561274a578291859188916127e4575b5001511691835180916307e75ba360e11b825281600460209485935afa9081156127da5787916127a5575b50845163063d63db60e11b81528781600481885afa90811561279b57908392918991612754575b509061269491875195868094819363f7434ea960e01b83528760048401526024830190611f6e565b0392165afa91821561274a57869261271b575b50806004929385519384809263bb0b86ff60e01b82525afa938415612712575085936126db575b50506124c79293506125b5565b9080929350813d831161270b575b6126f38183611e94565b810103126106e1576124c7929350519083925f6126ce565b503d6126e9565b513d87823e3d90fd5b91508082813d8311612743575b6127328183611e94565b810103126103fd57905190806126a7565b503d612728565b84513d88823e3d90fd5b919250503d8089833e6127678183611e94565b8101918382840312611c91578151916001600160401b038311611ca5578493612694936127949201612573565b909161266c565b86513d8a823e3d90fd5b90508181813d83116127d3575b6127bc8183611e94565b81010312611cd1576127cd906123d7565b5f612645565b503d6127b2565b85513d89823e3d90fd5b6127fc915060c03d811161070c576106fe8183611e94565b5f61261a565b9081606091031261046057805160048110156104605760208201519092906001600160801b038116810361046057604092909201516001600160781b03811681036104605790565b9081606091031261046057805160ff8116810361046057916040602083015192015190565b6001600160781b039081165f1901919082116125c257565b9091610180828403126104605761289d8261242c565b92602080840151936040810151936128b76060830161242c565b9380609f84011215610460576040516128cf81611e5e565b60e0840194818387116104605760808601905b878210612936575050509351926101008101516003811015610460579261290c61012083016123d7565b926101408301516001600160401b0381116104605761016091612930918501612573565b92015190565b81516001600160a01b03811681036104605781529082019082016128e2565b602461296082612eac565b60018060a01b03925f93808554169260c0604094855196878092630c7b27cd60e31b8252600497888301525afa94851561274a578695612ba2575b5060a085015115612b9257845115612b925716928051938351946348f343f360e01b8652838601526060948581602481855afa9081156127da578791612b62575b508251855190634aac84e560e01b8252858201528681602481865afa96871561279b578897612b31575b506001600160781b0391612a1a915061286f565b16915191845192635fde7f8d60e11b84528484015260248301528582604481845afa91821561274a579083918793612b00575b506020908551928380926282a36d60e01b82525afa93841561271257508593612acd575b50420390428211612aba57501115612aaf57600260ff6001925b16149081612aa2575b50612a9c5790565b50600190565b600191501515145f612a94565b600260ff8392612a8b565b634e487b7160e01b855260119052602484fd5b9092506020813d8211612af8575b81612ae860209383611e94565b810103126109285751915f612a71565b3d9150612adb565b6020919350612b20903d808a833e612b188183611e94565b810190612887565b505050505050509150509290612a4d565b612b51929750803d10612b5b575b612b498183611e94565b81019061284a565b5050945f80612a06565b503d612b3f565b612b829150863d8811612b8b575b612b7a8183611e94565b810190612802565b9150505f6129dc565b503d612b70565b8351630c11d07360e01b81528390fd5b612bbb91955060c03d8111610967576109588183611e94565b935f61299b565b612bcb81612eac565b60018060a01b03905f9260c08385541691602460405180948193630c7b27cd60e31b835260048301525afa9081156106d657606092916024918691612c79575b50516040519485938492634aac84e560e01b84526004840152165afa9081156106af579060ff918391612c59575b501660018114908115612c4e5750612a9c5790565b60039150145f612a94565b612c71915060603d8111612b5b57612b498183611e94565b50505f612c39565b612c91915060c03d8111610967576109588183611e94565b5f612c0b565b5f805460408051630c7b27cd60e31b8152600480820186905295919491926001600160a01b039060c0908390602490829085165afa918215612e72578592612e8c575b5060a082015115612e7c57815115612e7c57612cf583612eac565b16905191855192634aac84e560e01b845287840152606083602481855afa928315612e72578593612e49575b50612d2d60ff91612f90565b921660018114612e145760028114612ddf5760038114612dd5578614612d5d5784516305e5cf6360e41b81528690fd5b602090859496929395519283809263787471a960e01b82525afa928315612dcc57508492612d92575b506124c79293506131ba565b9091506020813d8211612dc4575b81612dad60209383611e94565b810103126106e1576124c792935051908392612d86565b3d9150612da0565b513d86823e3d90fd5b5050509250905090565b5060209085949692939551928380926361795f7560e11b82525afa928315612dcc57508492612d9257506124c79293506131ba565b5060209085949692939551928380926328dedab560e21b82525afa928315612dcc57508492612d9257506124c79293506131ba565b60ff919350612e68612d2d9160603d8111612b5b57612b498183611e94565b5050939150612d21565b86513d87823e3d90fd5b8551630c11d07360e01b81528790fd5b612ea591925060c03d8111610967576109588183611e94565b905f612cda565b5f5460408051630c7b27cd60e31b815260048101939093526001600160a01b0392909160c091908416908281602481855afa908115612f865783916020915f91612f69575b500151602485518094819363b7f77e1560e01b835260048301525afa918215612f5f57908392915f92612f42575b505001908282511615612f325750511690565b51633deb66a760e21b8152600490fd5b612f589250803d1061070c576106fe8183611e94565b5f80612f1f565b83513d5f823e3d90fd5b612f809150833d8511610967576109588183611e94565b5f612ef1565b84513d5f823e3d90fd5b5f805460408051630c7b27cd60e31b81526004810185905290936001600160a01b0393928416919060c082602481865afa918215613133579085918593613196575b50612fdc90612eac565b169080518651906348f343f360e01b82526004820152606081602481865afa90811561318c57859291604491849161316b575b506001600160781b03906130229061286f565b16915188519485938492635fde7f8d60e11b8452600484015260248301525afa90811561316157839161313d575b50845180926307e75ba360e11b825281600460209586935afa9081156131335790839185916130f7575b506130a29192875196878094819363f7434ea960e01b83528760048401526024830190611f6e565b0392165afa9384156130ec575081936130bb5750505090565b9091809350813d83116130e5575b6130d38183611e94565b810103126102165750515f8080612111565b503d6130c9565b51913d9150823e3d90fd5b82819392503d831161312c575b61310e8183611e94565b810103126106e15782916131246130a2926123d7565b90929161307a565b503d613104565b86513d86823e3d90fd5b61315191503d8085833e612b188183611e94565b509750505050505050505f613050565b85513d85823e3d90fd5b613183915060603d8111612b8b57612b7a8183611e94565b9150505f61300f565b87513d87823e3d90fd5b612fdc9193506131b39060c03d8111610967576109588183611e94565b9290612fd2565b906131c590826125b5565b9081106131cf5790565b505f199056fe2f8788117e7eff1d82e926ec794901d17c78024a50270940304540a733656f0d9016d09d72d40fdae2fd8ceac6b6234c7706214fd39c1cd1e609a0528c199300189ab7a9244df0848122154315af71fe140f3db0fe014031783b0946b8c9d2e3360894a13ba1a3210667c828492db98dca3e2076cc3735a920a3ca505d382bbc02dd7bc7dec4dceedda775e58dd541e08a116c6c53815c0bd028192f7b626800a2646970667358221220e2f6966342e36a659ddf68e304edc956aababf853bd75788960a0978465b099d64736f6c63430008140033",
  "linkReferences": {},
  "deployedLinkReferences": {}
}