{
  "_format": "hh-sol-artifact-1",
  "contractName": "TheBadge",
  "sourceName": "src/contracts/thebadge/TheBadge.sol",
  "abi": [
    {
      "inputs": [],
      "stateMutability": "nonpayable",
      "type": "constructor"
    },
    {
      "inputs": [],
      "name": "TheBadge__SBT",
      "type": "error"
    },
    {
      "inputs": [],
      "name": "TheBadge__createBadgeModel_controllerIsPaused",
      "type": "error"
    },
    {
      "inputs": [],
      "name": "TheBadge__createBadgeModel_invalidController",
      "type": "error"
    },
    {
      "inputs": [],
      "name": "TheBadge__createBadgeModel_wrongValue",
      "type": "error"
    },
    {
      "inputs": [],
      "name": "TheBadge__method_not_supported",
      "type": "error"
    },
    {
      "inputs": [],
      "name": "TheBadge__onlyController_senderIsNotTheController",
      "type": "error"
    },
    {
      "inputs": [],
      "name": "TheBadge__onlyCreator_senderIsNotACreator",
      "type": "error"
    },
    {
      "inputs": [],
      "name": "TheBadge__registerCreator_alreadyRegistered",
      "type": "error"
    },
    {
      "inputs": [],
      "name": "TheBadge__registerCreator_wrongValue",
      "type": "error"
    },
    {
      "inputs": [],
      "name": "TheBadge__requestBadge_badgeModelNotFound",
      "type": "error"
    },
    {
      "inputs": [],
      "name": "TheBadge__requestBadge_controllerIsPaused",
      "type": "error"
    },
    {
      "inputs": [],
      "name": "TheBadge__requestBadge_isPaused",
      "type": "error"
    },
    {
      "inputs": [],
      "name": "TheBadge__requestBadge_wrongValue",
      "type": "error"
    },
    {
      "inputs": [],
      "name": "TheBadge__setBadgeModelController_alreadySet",
      "type": "error"
    },
    {
      "inputs": [],
      "name": "TheBadge__setBadgeModelController_emptyName",
      "type": "error"
    },
    {
      "inputs": [],
      "name": "TheBadge__setBadgeModelController_notFound",
      "type": "error"
    },
    {
      "inputs": [],
      "name": "TheBadge__setControllerStatus_notFound",
      "type": "error"
    },
    {
      "inputs": [],
      "name": "TheBadge__updateBadgeModelFee_badgeModelNotFound",
      "type": "error"
    },
    {
      "inputs": [],
      "name": "TheBadge__updateBadgeModel_badgeModelNotFound",
      "type": "error"
    },
    {
      "inputs": [],
      "name": "TheBadge__updateBadgeModel_notBadgeModelOwner",
      "type": "error"
    },
    {
      "inputs": [],
      "name": "TheBadge__updateCreator_notFound",
      "type": "error"
    },
    {
      "anonymous": false,
      "inputs": [
        {
          "indexed": false,
          "internalType": "address",
          "name": "previousAdmin",
          "type": "address"
        },
        {
          "indexed": false,
          "internalType": "address",
          "name": "newAdmin",
          "type": "address"
        }
      ],
      "name": "AdminChanged",
      "type": "event"
    },
    {
      "anonymous": false,
      "inputs": [
        {
          "indexed": true,
          "internalType": "address",
          "name": "account",
          "type": "address"
        },
        {
          "indexed": true,
          "internalType": "address",
          "name": "operator",
          "type": "address"
        },
        {
          "indexed": false,
          "internalType": "bool",
          "name": "approved",
          "type": "bool"
        }
      ],
      "name": "ApprovalForAll",
      "type": "event"
    },
    {
      "anonymous": false,
      "inputs": [
        {
          "indexed": true,
          "internalType": "uint256",
          "name": "badgeModelId",
          "type": "uint256"
        },
        {
          "indexed": false,
          "internalType": "string",
          "name": "metadata",
          "type": "string"
        }
      ],
      "name": "BadgeModelCreated",
      "type": "event"
    },
    {
      "anonymous": false,
      "inputs": [
        {
          "indexed": true,
          "internalType": "uint256",
          "name": "badgeModelId",
          "type": "uint256"
        },
        {
          "indexed": false,
          "internalType": "uint256",
          "name": "newAmountInBps",
          "type": "uint256"
        }
      ],
      "name": "BadgeModelProtocolFeeUpdated",
      "type": "event"
    },
    {
      "anonymous": false,
      "inputs": [
        {
          "indexed": true,
          "internalType": "uint256",
          "name": "badgeModelId",
          "type": "uint256"
        }
      ],
      "name": "BadgeModelUpdated",
      "type": "event"
    },
    {
      "anonymous": false,
      "inputs": [
        {
          "indexed": true,
          "internalType": "uint256",
          "name": "badgeModelID",
          "type": "uint256"
        },
        {
          "indexed": true,
          "internalType": "uint256",
          "name": "badgeID",
          "type": "uint256"
        },
        {
          "indexed": true,
          "internalType": "address",
          "name": "recipient",
          "type": "address"
        },
        {
          "indexed": false,
          "internalType": "address",
          "name": "controller",
          "type": "address"
        },
        {
          "indexed": false,
          "internalType": "uint256",
          "name": "controllerBadgeId",
          "type": "uint256"
        }
      ],
      "name": "BadgeRequested",
      "type": "event"
    },
    {
      "anonymous": false,
      "inputs": [
        {
          "indexed": true,
          "internalType": "address",
          "name": "beacon",
          "type": "address"
        }
      ],
      "name": "BeaconUpgraded",
      "type": "event"
    },
    {
      "anonymous": false,
      "inputs": [
        {
          "indexed": true,
          "internalType": "address",
          "name": "creator",
          "type": "address"
        },
        {
          "indexed": false,
          "internalType": "string",
          "name": "metadata",
          "type": "string"
        }
      ],
      "name": "CreatorRegistered",
      "type": "event"
    },
    {
      "anonymous": false,
      "inputs": [
        {
          "indexed": true,
          "internalType": "address",
          "name": "admin",
          "type": "address"
        },
        {
          "indexed": true,
          "internalType": "address",
          "name": "minter",
          "type": "address"
        }
      ],
      "name": "Initialize",
      "type": "event"
    },
    {
      "anonymous": false,
      "inputs": [
        {
          "indexed": false,
          "internalType": "uint8",
          "name": "version",
          "type": "uint8"
        }
      ],
      "name": "Initialized",
      "type": "event"
    },
    {
      "anonymous": false,
      "inputs": [
        {
          "indexed": false,
          "internalType": "address",
          "name": "account",
          "type": "address"
        }
      ],
      "name": "Paused",
      "type": "event"
    },
    {
      "anonymous": false,
      "inputs": [
        {
          "indexed": true,
          "internalType": "address",
          "name": "recipient",
          "type": "address"
        },
        {
          "indexed": false,
          "internalType": "uint256",
          "name": "amount",
          "type": "uint256"
        },
        {
          "indexed": true,
          "internalType": "enum TheBadgeStore.PaymentType",
          "name": "paymentType",
          "type": "uint8"
        },
        {
          "indexed": true,
          "internalType": "uint256",
          "name": "badgeModelId",
          "type": "uint256"
        }
      ],
      "name": "PaymentMade",
      "type": "event"
    },
    {
      "anonymous": false,
      "inputs": [],
      "name": "ProtocolSettingsUpdated",
      "type": "event"
    },
    {
      "anonymous": false,
      "inputs": [
        {
          "indexed": true,
          "internalType": "address",
          "name": "creator",
          "type": "address"
        },
        {
          "indexed": false,
          "internalType": "bool",
          "name": "deleted",
          "type": "bool"
        }
      ],
      "name": "RemovedCreator",
      "type": "event"
    },
    {
      "anonymous": false,
      "inputs": [
        {
          "indexed": true,
          "internalType": "bytes32",
          "name": "role",
          "type": "bytes32"
        },
        {
          "indexed": true,
          "internalType": "bytes32",
          "name": "previousAdminRole",
          "type": "bytes32"
        },
        {
          "indexed": true,
          "internalType": "bytes32",
          "name": "newAdminRole",
          "type": "bytes32"
        }
      ],
      "name": "RoleAdminChanged",
      "type": "event"
    },
    {
      "anonymous": false,
      "inputs": [
        {
          "indexed": true,
          "internalType": "bytes32",
          "name": "role",
          "type": "bytes32"
        },
        {
          "indexed": true,
          "internalType": "address",
          "name": "account",
          "type": "address"
        },
        {
          "indexed": true,
          "internalType": "address",
          "name": "sender",
          "type": "address"
        }
      ],
      "name": "RoleGranted",
      "type": "event"
    },
    {
      "anonymous": false,
      "inputs": [
        {
          "indexed": true,
          "internalType": "bytes32",
          "name": "role",
          "type": "bytes32"
        },
        {
          "indexed": true,
          "internalType": "address",
          "name": "account",
          "type": "address"
        },
        {
          "indexed": true,
          "internalType": "address",
          "name": "sender",
          "type": "address"
        }
      ],
      "name": "RoleRevoked",
      "type": "event"
    },
    {
      "anonymous": false,
      "inputs": [
        {
          "indexed": true,
          "internalType": "address",
          "name": "creator",
          "type": "address"
        },
        {
          "indexed": false,
          "internalType": "bool",
          "name": "suspended",
          "type": "bool"
        }
      ],
      "name": "SuspendedCreator",
      "type": "event"
    },
    {
      "anonymous": false,
      "inputs": [
        {
          "indexed": true,
          "internalType": "address",
          "name": "operator",
          "type": "address"
        },
        {
          "indexed": true,
          "internalType": "address",
          "name": "from",
          "type": "address"
        },
        {
          "indexed": true,
          "internalType": "address",
          "name": "to",
          "type": "address"
        },
        {
          "indexed": false,
          "internalType": "uint256[]",
          "name": "ids",
          "type": "uint256[]"
        },
        {
          "indexed": false,
          "internalType": "uint256[]",
          "name": "values",
          "type": "uint256[]"
        }
      ],
      "name": "TransferBatch",
      "type": "event"
    },
    {
      "anonymous": false,
      "inputs": [
        {
          "indexed": true,
          "internalType": "address",
          "name": "operator",
          "type": "address"
        },
        {
          "indexed": true,
          "internalType": "address",
          "name": "from",
          "type": "address"
        },
        {
          "indexed": true,
          "internalType": "address",
          "name": "to",
          "type": "address"
        },
        {
          "indexed": false,
          "internalType": "uint256",
          "name": "id",
          "type": "uint256"
        },
        {
          "indexed": false,
          "internalType": "uint256",
          "name": "value",
          "type": "uint256"
        }
      ],
      "name": "TransferSingle",
      "type": "event"
    },
    {
      "anonymous": false,
      "inputs": [
        {
          "indexed": false,
          "internalType": "string",
          "name": "value",
          "type": "string"
        },
        {
          "indexed": true,
          "internalType": "uint256",
          "name": "id",
          "type": "uint256"
        }
      ],
      "name": "URI",
      "type": "event"
    },
    {
      "anonymous": false,
      "inputs": [
        {
          "indexed": false,
          "internalType": "address",
          "name": "account",
          "type": "address"
        }
      ],
      "name": "Unpaused",
      "type": "event"
    },
    {
      "anonymous": false,
      "inputs": [
        {
          "indexed": true,
          "internalType": "address",
          "name": "creator",
          "type": "address"
        },
        {
          "indexed": false,
          "internalType": "string",
          "name": "metadata",
          "type": "string"
        }
      ],
      "name": "UpdatedCreatorMetadata",
      "type": "event"
    },
    {
      "anonymous": false,
      "inputs": [
        {
          "indexed": true,
          "internalType": "address",
          "name": "implementation",
          "type": "address"
        }
      ],
      "name": "Upgraded",
      "type": "event"
    },
    {
      "inputs": [],
      "name": "DEFAULT_ADMIN_ROLE",
      "outputs": [
        {
          "internalType": "bytes32",
          "name": "",
          "type": "bytes32"
        }
      ],
      "stateMutability": "view",
      "type": "function"
    },
    {
      "inputs": [],
      "name": "FEE_COLLECTOR_ROLE",
      "outputs": [
        {
          "internalType": "bytes32",
          "name": "",
          "type": "bytes32"
        }
      ],
      "stateMutability": "view",
      "type": "function"
    },
    {
      "inputs": [],
      "name": "MINTER_ROLE",
      "outputs": [
        {
          "internalType": "bytes32",
          "name": "",
          "type": "bytes32"
        }
      ],
      "stateMutability": "view",
      "type": "function"
    },
    {
      "inputs": [],
      "name": "PAUSER_ROLE",
      "outputs": [
        {
          "internalType": "bytes32",
          "name": "",
          "type": "bytes32"
        }
      ],
      "stateMutability": "view",
      "type": "function"
    },
    {
      "inputs": [],
      "name": "UPGRADER_ROLE",
      "outputs": [
        {
          "internalType": "bytes32",
          "name": "",
          "type": "bytes32"
        }
      ],
      "stateMutability": "view",
      "type": "function"
    },
    {
      "inputs": [],
      "name": "URI_SETTER_ROLE",
      "outputs": [
        {
          "internalType": "bytes32",
          "name": "",
          "type": "bytes32"
        }
      ],
      "stateMutability": "view",
      "type": "function"
    },
    {
      "inputs": [
        {
          "internalType": "uint256",
          "name": "",
          "type": "uint256"
        }
      ],
      "name": "badge",
      "outputs": [
        {
          "internalType": "uint256",
          "name": "badgeModelId",
          "type": "uint256"
        },
        {
          "internalType": "address",
          "name": "account",
          "type": "address"
        },
        {
          "internalType": "uint256",
          "name": "dueDate",
          "type": "uint256"
        },
        {
          "internalType": "bool",
          "name": "initialized",
          "type": "bool"
        }
      ],
      "stateMutability": "view",
      "type": "function"
    },
    {
      "inputs": [
        {
          "internalType": "uint256",
          "name": "",
          "type": "uint256"
        }
      ],
      "name": "badgeModel",
      "outputs": [
        {
          "internalType": "address",
          "name": "creator",
          "type": "address"
        },
        {
          "internalType": "string",
          "name": "controllerName",
          "type": "string"
        },
        {
          "internalType": "bool",
          "name": "paused",
          "type": "bool"
        },
        {
          "internalType": "uint256",
          "name": "mintCreatorFee",
          "type": "uint256"
        },
        {
          "internalType": "uint256",
          "name": "validFor",
          "type": "uint256"
        },
        {
          "internalType": "uint256",
          "name": "mintProtocolFee",
          "type": "uint256"
        },
        {
          "internalType": "bool",
          "name": "initialized",
          "type": "bool"
        }
      ],
      "stateMutability": "view",
      "type": "function"
    },
    {
      "inputs": [
        {
          "internalType": "string",
          "name": "",
          "type": "string"
        }
      ],
      "name": "badgeModelController",
      "outputs": [
        {
          "internalType": "address",
          "name": "controller",
          "type": "address"
        },
        {
          "internalType": "bool",
          "name": "paused",
          "type": "bool"
        },
        {
          "internalType": "bool",
          "name": "initialized",
          "type": "bool"
        }
      ],
      "stateMutability": "view",
      "type": "function"
    },
    {
      "inputs": [
        {
          "internalType": "uint256",
          "name": "",
          "type": "uint256"
        },
        {
          "internalType": "address",
          "name": "",
          "type": "address"
        },
        {
          "internalType": "uint256",
          "name": "",
          "type": "uint256"
        }
      ],
      "name": "badgeModelsByAccount",
      "outputs": [
        {
          "internalType": "uint256",
          "name": "",
          "type": "uint256"
        }
      ],
      "stateMutability": "view",
      "type": "function"
    },
    {
      "inputs": [
        {
          "internalType": "address",
          "name": "account",
          "type": "address"
        },
        {
          "internalType": "uint256",
          "name": "badgeId",
          "type": "uint256"
        }
      ],
      "name": "balanceOf",
      "outputs": [
        {
          "internalType": "uint256",
          "name": "",
          "type": "uint256"
        }
      ],
      "stateMutability": "view",
      "type": "function"
    },
    {
      "inputs": [
        {
          "internalType": "address",
          "name": "account",
          "type": "address"
        },
        {
          "internalType": "uint256",
          "name": "badgeModelId",
          "type": "uint256"
        }
      ],
      "name": "balanceOfBadgeModel",
      "outputs": [
        {
          "internalType": "uint256",
          "name": "",
          "type": "uint256"
        }
      ],
      "stateMutability": "view",
      "type": "function"
    },
    {
      "inputs": [
        {
          "internalType": "address[]",
          "name": "accounts",
          "type": "address[]"
        },
        {
          "internalType": "uint256[]",
          "name": "ids",
          "type": "uint256[]"
        }
      ],
      "name": "balanceOfBatch",
      "outputs": [
        {
          "internalType": "uint256[]",
          "name": "",
          "type": "uint256[]"
        }
      ],
      "stateMutability": "view",
      "type": "function"
    },
    {
      "inputs": [
        {
          "components": [
            {
              "internalType": "string",
              "name": "metadata",
              "type": "string"
            },
            {
              "internalType": "string",
              "name": "controllerName",
              "type": "string"
            },
            {
              "internalType": "uint256",
              "name": "mintCreatorFee",
              "type": "uint256"
            },
            {
              "internalType": "uint256",
              "name": "validFor",
              "type": "uint256"
            },
            {
              "internalType": "bool",
              "name": "initialized",
              "type": "bool"
            }
          ],
          "internalType": "struct TheBadgeStore.CreateBadgeModel",
          "name": "args",
          "type": "tuple"
        },
        {
          "internalType": "bytes",
          "name": "data",
          "type": "bytes"
        }
      ],
      "name": "createBadgeModel",
      "outputs": [],
      "stateMutability": "payable",
      "type": "function"
    },
    {
      "inputs": [],
      "name": "createBadgeModelProtocolFee",
      "outputs": [
        {
          "internalType": "uint256",
          "name": "",
          "type": "uint256"
        }
      ],
      "stateMutability": "view",
      "type": "function"
    },
    {
      "inputs": [
        {
          "internalType": "address",
          "name": "",
          "type": "address"
        }
      ],
      "name": "creators",
      "outputs": [
        {
          "internalType": "string",
          "name": "metadata",
          "type": "string"
        },
        {
          "internalType": "bool",
          "name": "initialized",
          "type": "bool"
        }
      ],
      "stateMutability": "view",
      "type": "function"
    },
    {
      "inputs": [],
      "name": "feeCollector",
      "outputs": [
        {
          "internalType": "address",
          "name": "",
          "type": "address"
        }
      ],
      "stateMutability": "view",
      "type": "function"
    },
    {
      "inputs": [
        {
          "internalType": "bytes32",
          "name": "role",
          "type": "bytes32"
        }
      ],
      "name": "getRoleAdmin",
      "outputs": [
        {
          "internalType": "bytes32",
          "name": "",
          "type": "bytes32"
        }
      ],
      "stateMutability": "view",
      "type": "function"
    },
    {
      "inputs": [
        {
          "internalType": "bytes32",
          "name": "role",
          "type": "bytes32"
        },
        {
          "internalType": "address",
          "name": "account",
          "type": "address"
        }
      ],
      "name": "grantRole",
      "outputs": [],
      "stateMutability": "nonpayable",
      "type": "function"
    },
    {
      "inputs": [
        {
          "internalType": "bytes32",
          "name": "role",
          "type": "bytes32"
        },
        {
          "internalType": "address",
          "name": "account",
          "type": "address"
        }
      ],
      "name": "hasRole",
      "outputs": [
        {
          "internalType": "bool",
          "name": "",
          "type": "bool"
        }
      ],
      "stateMutability": "view",
      "type": "function"
    },
    {
      "inputs": [
        {
          "internalType": "address",
          "name": "admin",
          "type": "address"
        },
        {
          "internalType": "address",
          "name": "_feeCollector",
          "type": "address"
        },
        {
          "internalType": "address",
          "name": "minter",
          "type": "address"
        }
      ],
      "name": "initialize",
      "outputs": [],
      "stateMutability": "nonpayable",
      "type": "function"
    },
    {
      "inputs": [
        {
          "internalType": "address",
          "name": "account",
          "type": "address"
        },
        {
          "internalType": "address",
          "name": "operator",
          "type": "address"
        }
      ],
      "name": "isApprovedForAll",
      "outputs": [
        {
          "internalType": "bool",
          "name": "",
          "type": "bool"
        }
      ],
      "stateMutability": "view",
      "type": "function"
    },
    {
      "inputs": [
        {
          "internalType": "uint256",
          "name": "badgeId",
          "type": "uint256"
        }
      ],
      "name": "isExpired",
      "outputs": [
        {
          "internalType": "bool",
          "name": "",
          "type": "bool"
        }
      ],
      "stateMutability": "view",
      "type": "function"
    },
    {
      "inputs": [
        {
          "internalType": "uint256",
          "name": "badgeModelId",
          "type": "uint256"
        },
        {
          "internalType": "address",
          "name": "account",
          "type": "address"
        },
        {
          "internalType": "string",
          "name": "tokenURI",
          "type": "string"
        },
        {
          "internalType": "bytes",
          "name": "data",
          "type": "bytes"
        }
      ],
      "name": "mint",
      "outputs": [],
      "stateMutability": "payable",
      "type": "function"
    },
    {
      "inputs": [],
      "name": "mintBadgeProtocolDefaultFeeInBps",
      "outputs": [
        {
          "internalType": "uint256",
          "name": "",
          "type": "uint256"
        }
      ],
      "stateMutability": "view",
      "type": "function"
    },
    {
      "inputs": [
        {
          "internalType": "uint256",
          "name": "badgeModelId",
          "type": "uint256"
        }
      ],
      "name": "mintValue",
      "outputs": [
        {
          "internalType": "uint256",
          "name": "",
          "type": "uint256"
        }
      ],
      "stateMutability": "view",
      "type": "function"
    },
    {
      "inputs": [],
      "name": "pause",
      "outputs": [],
      "stateMutability": "nonpayable",
      "type": "function"
    },
    {
      "inputs": [],
      "name": "paused",
      "outputs": [
        {
          "internalType": "bool",
          "name": "",
          "type": "bool"
        }
      ],
      "stateMutability": "view",
      "type": "function"
    },
    {
      "inputs": [],
      "name": "proxiableUUID",
      "outputs": [
        {
          "internalType": "bytes32",
          "name": "",
          "type": "bytes32"
        }
      ],
      "stateMutability": "view",
      "type": "function"
    },
    {
      "inputs": [
        {
          "internalType": "string",
          "name": "_metadata",
          "type": "string"
        }
      ],
      "name": "registerBadgeModelCreator",
      "outputs": [],
      "stateMutability": "payable",
      "type": "function"
    },
    {
      "inputs": [],
      "name": "registerCreatorProtocolFee",
      "outputs": [
        {
          "internalType": "uint256",
          "name": "",
          "type": "uint256"
        }
      ],
      "stateMutability": "view",
      "type": "function"
    },
    {
      "inputs": [],
      "name": "removeBadgeModelCreator",
      "outputs": [],
      "stateMutability": "view",
      "type": "function"
    },
    {
      "inputs": [
        {
          "internalType": "bytes32",
          "name": "role",
          "type": "bytes32"
        },
        {
          "internalType": "address",
          "name": "account",
          "type": "address"
        }
      ],
      "name": "renounceRole",
      "outputs": [],
      "stateMutability": "nonpayable",
      "type": "function"
    },
    {
      "inputs": [
        {
          "internalType": "bytes32",
          "name": "role",
          "type": "bytes32"
        },
        {
          "internalType": "address",
          "name": "account",
          "type": "address"
        }
      ],
      "name": "revokeRole",
      "outputs": [],
      "stateMutability": "nonpayable",
      "type": "function"
    },
    {
      "inputs": [
        {
          "internalType": "address",
          "name": "from",
          "type": "address"
        },
        {
          "internalType": "address",
          "name": "to",
          "type": "address"
        },
        {
          "internalType": "uint256[]",
          "name": "ids",
          "type": "uint256[]"
        },
        {
          "internalType": "uint256[]",
          "name": "amounts",
          "type": "uint256[]"
        },
        {
          "internalType": "bytes",
          "name": "data",
          "type": "bytes"
        }
      ],
      "name": "safeBatchTransferFrom",
      "outputs": [],
      "stateMutability": "nonpayable",
      "type": "function"
    },
    {
      "inputs": [
        {
          "internalType": "address",
          "name": "from",
          "type": "address"
        },
        {
          "internalType": "address",
          "name": "to",
          "type": "address"
        },
        {
          "internalType": "uint256",
          "name": "id",
          "type": "uint256"
        },
        {
          "internalType": "uint256",
          "name": "amount",
          "type": "uint256"
        },
        {
          "internalType": "bytes",
          "name": "data",
          "type": "bytes"
        }
      ],
      "name": "safeTransferFrom",
      "outputs": [],
      "stateMutability": "nonpayable",
      "type": "function"
    },
    {
      "inputs": [
        {
          "internalType": "address",
          "name": "operator",
          "type": "address"
        },
        {
          "internalType": "bool",
          "name": "approved",
          "type": "bool"
        }
      ],
      "name": "setApprovalForAll",
      "outputs": [],
      "stateMutability": "nonpayable",
      "type": "function"
    },
    {
      "inputs": [
        {
          "internalType": "string",
          "name": "controllerName",
          "type": "string"
        },
        {
          "internalType": "address",
          "name": "controllerAddress",
          "type": "address"
        }
      ],
      "name": "setBadgeModelController",
      "outputs": [],
      "stateMutability": "nonpayable",
      "type": "function"
    },
    {
      "inputs": [
        {
          "internalType": "bytes4",
          "name": "interfaceId",
          "type": "bytes4"
        }
      ],
      "name": "supportsInterface",
      "outputs": [
        {
          "internalType": "bool",
          "name": "",
          "type": "bool"
        }
      ],
      "stateMutability": "view",
      "type": "function"
    },
    {
      "inputs": [],
      "name": "suspendBadgeModel",
      "outputs": [],
      "stateMutability": "view",
      "type": "function"
    },
    {
      "inputs": [],
      "name": "suspendBadgeModelCreator",
      "outputs": [],
      "stateMutability": "view",
      "type": "function"
    },
    {
      "inputs": [],
      "name": "unpause",
      "outputs": [],
      "stateMutability": "nonpayable",
      "type": "function"
    },
    {
      "inputs": [
        {
          "internalType": "uint256",
          "name": "badgeModelId",
          "type": "uint256"
        },
        {
          "internalType": "uint256",
          "name": "mintCreatorFee",
          "type": "uint256"
        },
        {
          "internalType": "uint256",
          "name": "validFor",
          "type": "uint256"
        },
        {
          "internalType": "bool",
          "name": "paused",
          "type": "bool"
        }
      ],
      "name": "updateBadgeModel",
      "outputs": [],
      "stateMutability": "nonpayable",
      "type": "function"
    },
    {
      "inputs": [
        {
          "internalType": "address",
          "name": "_creator",
          "type": "address"
        },
        {
          "internalType": "string",
          "name": "_metadata",
          "type": "string"
        }
      ],
      "name": "updateBadgeModelCreator",
      "outputs": [],
      "stateMutability": "nonpayable",
      "type": "function"
    },
    {
      "inputs": [
        {
          "internalType": "uint256",
          "name": "badgeModelId",
          "type": "uint256"
        },
        {
          "internalType": "uint256",
          "name": "feeInBps",
          "type": "uint256"
        }
      ],
      "name": "updateBadgeModelFee",
      "outputs": [],
      "stateMutability": "nonpayable",
      "type": "function"
    },
    {
      "inputs": [
        {
          "internalType": "uint256",
          "name": "_mintBadgeDefaultFee",
          "type": "uint256"
        },
        {
          "internalType": "uint256",
          "name": "_createBadgeModelValue",
          "type": "uint256"
        },
        {
          "internalType": "uint256",
          "name": "_registerCreatorValue",
          "type": "uint256"
        }
      ],
      "name": "updateProtocolValues",
      "outputs": [],
      "stateMutability": "nonpayable",
      "type": "function"
    },
    {
      "inputs": [
        {
          "internalType": "address",
          "name": "newImplementation",
          "type": "address"
        }
      ],
      "name": "upgradeTo",
      "outputs": [],
      "stateMutability": "nonpayable",
      "type": "function"
    },
    {
      "inputs": [
        {
          "internalType": "address",
          "name": "newImplementation",
          "type": "address"
        },
        {
          "internalType": "bytes",
          "name": "data",
          "type": "bytes"
        }
      ],
      "name": "upgradeToAndCall",
      "outputs": [],
      "stateMutability": "payable",
      "type": "function"
    },
    {
      "inputs": [
        {
          "internalType": "uint256",
          "name": "badgeId",
          "type": "uint256"
        }
      ],
      "name": "uri",
      "outputs": [
        {
          "internalType": "string",
          "name": "",
          "type": "string"
        }
      ],
      "stateMutability": "view",
      "type": "function"
    },
    {
      "stateMutability": "payable",
      "type": "receive"
    }
  ],
  "bytecode": "0x60a0604052306080523480156200001557600080fd5b506200002062000026565b620000e8565b600054610100900460ff1615620000935760405162461bcd60e51b815260206004820152602760248201527f496e697469616c697a61626c653a20636f6e747261637420697320696e697469604482015266616c697a696e6760c81b606482015260840160405180910390fd5b60005460ff9081161015620000e6576000805460ff191660ff9081179091556040519081527f7f26b83ff96e1f2b6a682f133852f6798a09c465da95921460cefb38474024989060200160405180910390a15b565b60805161497e6200012060003960008181610e0201528181610e42015281816112d901528181611319015261147e015261497e6000f3fe6080604052600436106102b15760003560e01c80636e976ae211610175578063c1d18840116100dc578063d9548e5311610095578063f242432a1161006f578063f242432a1461093a578063f72c0d8b1461095a578063f911fdfb1461098e578063fb71a9d5146109ae57600080fd5b8063d9548e53146108af578063e63ab1e9146108cf578063e985e9c5146108f157600080fd5b8063c1d18840146107dc578063c415b95c146107ef578063c9e4eba114610828578063cb22dfcb1461083b578063d53913931461085b578063d547741f1461088f57600080fd5b8063a22cb4651161012e578063a22cb46514610662578063a9710d9a14610682578063b70029bd146106a2578063c00c50bf14610722578063c0c53b8b14610742578063c0f6faed1461076257600080fd5b80636e976ae2146105a35780637f345710146105b65780638456cb59146105ea57806391d14854146105ff578063933166e11461061f578063a217fddf1461064d57600080fd5b806346c457581161021957806352d1902d116101d257806352d1902d1461050b57806357f8188f1461044c5780635c975abb1461052057806362a2a47c14610538578063632f7c831461056c57806364d8baef1461058c57600080fd5b806346c457581461046157806349e558ae1461044c5780634e1273f4146104815780634e5eceae146104ae5780634f1ef286146104c55780634fe85ac1146104d857600080fd5b80632f2ff15d1161026b5780632f2ff15d146103b757806334d1a4dd146103d757806336568abe146103f75780633659cfe6146104175780633f4ba83a1461043757806341954e091461044c57600080fd5b8062fdd58e146102bd57806301ffc9a7146102f05780630e89341c14610320578063248a9ca31461034d57806327096c461461037e5780632eb2c2d61461039557600080fd5b366102b857005b600080fd5b3480156102c957600080fd5b506102dd6102d8366004613860565b6109ce565b6040519081526020015b60405180910390f35b3480156102fc57600080fd5b5061031061030b3660046138a0565b610c2a565b60405190151581526020016102e7565b34801561032c57600080fd5b5061034061033b3660046138bd565b610c35565b6040516102e79190613926565b34801561035957600080fd5b506102dd6103683660046138bd565b600090815261015f602052604090206001015490565b34801561038a57600080fd5b506102dd6101935481565b3480156103a157600080fd5b506103b56103b0366004613aa7565b610c40565b005b3480156103c357600080fd5b506103b56103d2366004613b50565b610c95565b3480156103e357600080fd5b506103b56103f2366004613b8a565b610cc0565b34801561040357600080fd5b506103b5610412366004613b50565b610d7a565b34801561042357600080fd5b506103b5610432366004613bcb565b610df8565b34801561044357600080fd5b506103b5610ed7565b34801561045857600080fd5b506103b5610ef7565b34801561046d57600080fd5b506102dd61047c366004613860565b610f1b565b34801561048d57600080fd5b506104a161049c366004613be6565b6111a6565b6040516102e79190613ceb565b3480156104ba57600080fd5b506102dd6101955481565b6103b56104d3366004613cfe565b6112cf565b3480156104e457600080fd5b506104f86104f33660046138bd565b61139b565b6040516102e79796959493929190613d41565b34801561051757600080fd5b506102dd611471565b34801561052c57600080fd5b5060c95460ff16610310565b34801561054457600080fd5b506102dd7f2dca0f5ce7e75a4b43fe2b0d6f5d0b7a2bf92ecf89f8f0aa17b8308b6703882181565b34801561057857600080fd5b506102dd6105873660046138bd565b611525565b34801561059857600080fd5b506102dd6101945481565b6103b56105b1366004613d91565b6115e5565b3480156105c257600080fd5b506102dd7f7804d923f43a17d325d77e781528e0793b2edd9890ab45fc64efd7b4b427744c81565b3480156105f657600080fd5b506103b56118b8565b34801561060b57600080fd5b5061031061061a366004613b50565b6118d8565b34801561062b57600080fd5b5061063f61063a366004613bcb565b611904565b6040516102e7929190613e6c565b34801561065957600080fd5b506102dd600081565b34801561066e57600080fd5b506103b561067d366004613e90565b6119ac565b34801561068e57600080fd5b506103b561069d366004613cfe565b6119b7565b3480156106ae57600080fd5b506106fb6106bd366004613ec7565b805180820160209081018051610198825292820191909301209152546001600160a01b0381169060ff600160a01b8204811691600160a81b90041683565b604080516001600160a01b03909416845291151560208401521515908201526060016102e7565b34801561072e57600080fd5b506103b561073d366004613efb565b611a65565b34801561074e57600080fd5b506103b561075d366004613f27565b611ab1565b34801561076e57600080fd5b506107b261077d3660046138bd565b61019a60205260009081526040902080546001820154600283015460039093015491926001600160a01b039091169160ff1684565b604080519485526001600160a01b03909316602085015291830152151560608201526080016102e7565b6103b56107ea366004613f6a565b611cc6565b3480156107fb57600080fd5b5061019654610810906001600160a01b031681565b6040516001600160a01b0390911681526020016102e7565b6103b5610836366004613ec7565b61222f565b34801561084757600080fd5b506102dd610856366004613fe7565b61232b565b34801561086757600080fd5b506102dd7f9f2df0fed2c77648de5860a4cc508cd0818c85b8b8a1ab4ceeef8d981c8956a681565b34801561089b57600080fd5b506103b56108aa366004613b50565b61236a565b3480156108bb57600080fd5b506103106108ca3660046138bd565b612390565b3480156108db57600080fd5b506102dd60008051602061490283398151915281565b3480156108fd57600080fd5b5061031061090c36600461401c565b6001600160a01b03918216600090815260666020908152604080832093909416825291909152205460ff1690565b34801561094657600080fd5b506103b5610955366004614046565b612420565b34801561096657600080fd5b506102dd7f189ab7a9244df0848122154315af71fe140f3db0fe014031783b0946b8c9d2e381565b34801561099a57600080fd5b506103b56109a93660046140aa565b612465565b3480156109ba57600080fd5b506103b56109c93660046140ee565b61259f565b600081815261019a6020908152604080832081516080810183528154815260018201546001600160a01b0316938101939093526002810154918301919091526003015460ff16158015606083015280610a3d5750836001600160a01b031681602001516001600160a01b031614155b15610a4c576000915050610c24565b610a5583612390565b1515600103610a68576000915050610c24565b8051600090815261019960209081526040808320815160e0810190925280546001600160a01b031682526001810180549293919291840191610aa990614110565b80601f0160208091040260200160405190810160405280929190818152602001828054610ad590614110565b8015610b225780601f10610af757610100808354040283529160200191610b22565b820191906000526020600020905b815481529060010190602001808311610b0557829003601f168201915b5050509183525050600282015460ff908116151560208084019190915260038401546040808501919091526004850154606085015260058501546080850152600690940154909116151560a090920191909152820151905191925060009161019891610b8d9161414a565b90815260405190819003602001812054631174806160e11b82526001600160a01b0316915081906322e900c290610bcc90889060040190815260200190565b602060405180830381865afa158015610be9573d6000803e3d6000fd5b505050506040513d601f19601f82011682018060405250810190610c0d9190614166565b610c18576000610c1b565b60015b60ff1693505050505b92915050565b6000610c248261261a565b6060610c248261263f565b6001600160a01b038516331480610c5c5750610c5c853361090c565b610c815760405162461bcd60e51b8152600401610c7890614183565b60405180910390fd5b610c8e858585858561271e565b5050505050565b600082815261015f6020526040902060010154610cb18161290c565b610cbb8383612916565b505050565b60008481526101996020526040902080546001600160a01b0316610cf757604051638fa97ef960e01b815260040160405180910390fd5b80546001600160a01b0316336001600160a01b031614610d2a5760405163806ecc4960e01b815260040160405180910390fd5b600381018490556004810183905560028101805460ff191683151517905560405185907fc7fe3866a4edc843062ecfa12604d4a6686605fb2bd8a2323d96dc40c08d9e3d90600090a25050505050565b6001600160a01b0381163314610dea5760405162461bcd60e51b815260206004820152602f60248201527f416363657373436f6e74726f6c3a2063616e206f6e6c792072656e6f756e636560448201526e103937b632b9903337b91039b2b63360891b6064820152608401610c78565b610df4828261299d565b5050565b6001600160a01b037f0000000000000000000000000000000000000000000000000000000000000000163003610e405760405162461bcd60e51b8152600401610c78906141d1565b7f00000000000000000000000000000000000000000000000000000000000000006001600160a01b0316610e896000805160206148e2833981519152546001600160a01b031690565b6001600160a01b031614610eaf5760405162461bcd60e51b8152600401610c789061421d565b610eb881612a05565b60408051600080825260208201909252610ed491839190612a2f565b50565b600080516020614902833981519152610eef8161290c565b610ed4612b9a565b6000610f028161290c565b60405163aaa2c00360e01b815260040160405180910390fd5b600081815261019b602090815260408083206001600160a01b03861684529091528120548103610f4d57506000610c24565b600082815261019960209081526040808320815160e0810190925280546001600160a01b031682526001810180549293919291840191610f8c90614110565b80601f0160208091040260200160405190810160405280929190818152602001828054610fb890614110565b80156110055780601f10610fda57610100808354040283529160200191611005565b820191906000526020600020905b815481529060010190602001808311610fe857829003601f168201915b5050509183525050600282015460ff908116151560208084019190915260038401546040808501919091526004850154606085015260058501546080850152600690940154909116151560a0909201919091528201519051919250600091610198916110709161414a565b908152604051908190036020019020546001600160a01b031690506000805b600086815261019b602090815260408083206001600160a01b038b16845290915290205481101561119c57600086815261019b602090815260408083206001600160a01b038b16845290915281208054839081106110ef576110ef614269565b9060005260206000200154905061110581612390565b1580156111765750604051631174806160e11b8152600481018290526001600160a01b038516906322e900c290602401602060405180830381865afa158015611152573d6000803e3d6000fd5b505050506040513d601f19601f820116820180604052508101906111769190614166565b15611189578261118581614295565b9350505b508061119481614295565b91505061108f565b5095945050505050565b6060815183511461120b5760405162461bcd60e51b815260206004820152602960248201527f455243313135353a206163636f756e747320616e6420696473206c656e677468604482015268040dad2e6dac2e8c6d60bb1b6064820152608401610c78565b600083516001600160401b0381111561122657611226613939565b60405190808252806020026020018201604052801561124f578160200160208202803683370190505b50905060005b84518110156112c75761129a85828151811061127357611273614269565b602002602001015185838151811061128d5761128d614269565b60200260200101516109ce565b8282815181106112ac576112ac614269565b60209081029190910101526112c081614295565b9050611255565b509392505050565b6001600160a01b037f00000000000000000000000000000000000000000000000000000000000000001630036113175760405162461bcd60e51b8152600401610c78906141d1565b7f00000000000000000000000000000000000000000000000000000000000000006001600160a01b03166113606000805160206148e2833981519152546001600160a01b031690565b6001600160a01b0316146113865760405162461bcd60e51b8152600401610c789061421d565b61138f82612a05565b610df482826001612a2f565b61019960205260009081526040902080546001820180546001600160a01b0390921692916113c890614110565b80601f01602080910402602001604051908101604052809291908181526020018280546113f490614110565b80156114415780601f1061141657610100808354040283529160200191611441565b820191906000526020600020905b81548152906001019060200180831161142457829003601f168201915b5050506002840154600385015460048601546005870154600690970154959660ff93841696929550909350911687565b6000306001600160a01b037f000000000000000000000000000000000000000000000000000000000000000016146115115760405162461bcd60e51b815260206004820152603860248201527f555550535570677261646561626c653a206d757374206e6f742062652063616c60448201527f6c6564207468726f7567682064656c656761746563616c6c00000000000000006064820152608401610c78565b506000805160206148e28339815191525b90565b60008181526101996020526040808220905182906101989061154b906001850190614321565b90815260405190819003602001812054600384015463632f7c8360e01b83526001600160a01b03909116925090829063632f7c839061159290889060040190815260200190565b602060405180830381865afa1580156115af573d6000803e3d6000fd5b505050506040513d601f19601f820116820180604052508101906115d3919061432d565b6115dd9190614346565b949350505050565b336000908152610197602052604090208054819061160290614110565b905060000361162457604051638fcc03fd60e01b815260040160405180910390fd5b6101945434146116475760405163043f7a7d60e21b815260040160405180910390fd5b6000610198846020015160405161165e919061414a565b90815260405190819003602001902080549091506001600160a01b0316611698576040516323be546760e01b815260040160405180910390fd5b8054600160a01b900460ff16156116c257604051630d70501560e11b815260040160405180910390fd5b341561170457610196546040516001600160a01b03909116903480156108fc02916000818181858888f19350505050158015611702573d6000803e3d6000fd5b505b6040518060e001604052806117163390565b6001600160a01b0316815260200185602001518152602001600015158152602001856040015181526020018560600151815260200161019554815260200160011515815250610199600061176a6101915490565b8152602080820192909252604001600020825181546001600160a01b0319166001600160a01b039091161781559082015160018201906117aa908261439f565b50604082015160028201805491151560ff19928316179055606083015160038301556080830151600483015560a0830151600583015560c09092015160069091018054911515919092161790556118016101915490565b84516040517f584274d31df3e2cf85a9d6dfaf82b219994725ca486f214ef93fbec2d054dca09161183191613926565b60405180910390a280546001600160a01b03166377a3989e6118536101915490565b856040518363ffffffff1660e01b815260040161187192919061445e565b600060405180830381600087803b15801561188b57600080fd5b505af115801561189f573d6000803e3d6000fd5b505050506118b261019180546001019055565b50505050565b6000805160206149028339815191526118d08161290c565b610ed4612bec565b600091825261015f602090815260408084206001600160a01b0393909316845291905290205460ff1690565b6101976020526000908152604090208054819061192090614110565b80601f016020809104026020016040519081016040528092919081815260200182805461194c90614110565b80156119995780601f1061196e57610100808354040283529160200191611999565b820191906000526020600020905b81548152906001019060200180831161197c57829003601f168201915b5050506001909301549192505060ff1682565b610df4338383612c29565b60006119c28161290c565b6001600160a01b038316600090815261019760205260409020805481906119e890614110565b9050600003611a0a57604051637bc3ac5560e11b815260040160405180910390fd5b825115611a1e5780611a1c848261439f565b505b836001600160a01b03167f5b12b24c4622e8e6af38c1749b1261965b5098a96fb4b4cfb6075eb20c77fc5884604051611a579190613926565b60405180910390a250505050565b6000611a708161290c565b6101958490556101948390556101938290556040517f810f1720fbc34c56d171f89315ad21708648fd17424c27b88fa208409845aa7790600090a150505050565b600054610100900460ff1615808015611ad15750600054600160ff909116105b80611aeb5750303b158015611aeb575060005460ff166001145b611b4e5760405162461bcd60e51b815260206004820152602e60248201527f496e697469616c697a61626c653a20636f6e747261637420697320616c72656160448201526d191e481a5b9a5d1a585b1a5e995960921b6064820152608401610c78565b6000805460ff191660011790558015611b71576000805461ff0019166101001790555b611b8960405180602001604052806000815250612c42565b611b91612c72565b611b99612c9b565b611ba1612c72565b611bac600085612916565b611bc460008051602061490283398151915233612916565b611bee7f9f2df0fed2c77648de5860a4cc508cd0818c85b8b8a1ab4ceeef8d981c8956a683612916565b611c187f189ab7a9244df0848122154315af71fe140f3db0fe014031783b0946b8c9d2e333612916565b61019680546001600160a01b0319166001600160a01b038581169190911790915560006101938190556101948190556103e861019555604051848316928716917fdc90fed0326ba91706deeac7eb34ac9f8b680734f9d782864dc29704d23bed6a91a380156118b2576000805461ff0019169055604051600181527f7f26b83ff96e1f2b6a682f133852f6798a09c465da95921460cefb38474024989060200160405180910390a150505050565b60008481526101996020526040808220905190919061019890611ced906001850190614321565b90815260200160405180910390209050600061019883600101604051611d139190614321565b9081526040519081900360200190205483546001600160a01b039182169250829116611d52576040516385a6706360e01b815260040160405180910390fd5b611d5b88611525565b341015611d7b576040516393fda7e360e01b815260040160405180910390fd5b600284015460ff1615611da157604051635d71fd6f60e01b815260040160405180910390fd5b8254600160a01b900460ff1615611dcb57604051631bd063c360e01b815260040160405180910390fd5b600384015415611fd7576000611de985600301548660050154612cca565b90506000818660030154611dfd9190614477565b610196546040519192506000916001600160a01b039091169084908381818185875af1925050503d8060008114611e50576040519150601f19603f3d011682016040523d82523d6000602084013e611e55565b606091505b5050905080611ea65760405162461bcd60e51b815260206004820152601b60248201527f4661696c656420746f207061792070726f746f636f6c206665657300000000006044820152606401610c78565b8a6000610196546040518681526001600160a01b03909116907fd18793644b4cb4ec0f937f8153dc09112d762775084c0ae5b4c21a7b91f6909f9060200160405180910390a486546040516000916001600160a01b03169084908381818185875af1925050503d8060008114611f38576040519150601f19603f3d011682016040523d82523d6000602084013e611f3d565b606091505b5050905080611f8e5760405162461bcd60e51b815260206004820152601a60248201527f4661696c656420746f207061792063726561746f7220666565730000000000006044820152606401610c78565b8b600189546040518781526001600160a01b03909116907fd18793644b4cb4ec0f937f8153dc09112d762775084c0ae5b4c21a7b91f6909f9060200160405180910390a4505050505b6000611fe36101925490565b9050611fef8188612cfb565b6120168882600160405180604001604052806002815260200161060f60f31b815250612d4c565b600085600401546000146120385760048601546120339042614346565b61203b565b60005b905060405180608001604052808b81526020018a6001600160a01b031681526020018281526020016001151581525061019a60008481526020019081526020016000206000820151816000015560208201518160010160006101000a8154816001600160a01b0302191690836001600160a01b031602179055506040820151816002015560608201518160030160006101000a81548160ff02191690831515021790555090505061019b60008b815260200190815260200160002060008a6001600160a01b03166001600160a01b031681526020019081526020016000208290806001815401808255809150506001900390600052602060002001600090919091909150556000836001600160a01b031663731133e98860030154346121619190614477565b338e878d6040518663ffffffff1660e01b8152600401612184949392919061448a565b60206040518083038185885af11580156121a2573d6000803e3d6000fd5b50505050506040513d601f19601f820116820180604052508101906121c7919061432d565b90506121d861019280546001019055565b604080516001600160a01b038781168252602082018490528c169185918e917f186b125f639893ac3dcb02d857d0fd29319e8f764fd26f4a77310e8c678fbbd0910160405180910390a45050505050505050505050565b6101935434146122525760405163045801c760e31b815260040160405180910390fd5b341561229457610196546040516001600160a01b03909116903480156108fc02916000818181858888f19350505050158015612292573d6000803e3d6000fd5b505b33600090815261019760205260409020805481906122b190614110565b1590506122d157604051633b46b81f60e21b815260040160405180910390fd5b806122dc838261439f565b506001818101805460ff1916909117905560405133907f436a110767b6510e398091d7e698dbc3a574692ec743e8e40f4fb1ccefc00fc89061231f9084906144c1565b60405180910390a25050565b61019b602052826000526040600020602052816000526040600020818154811061235457600080fd5b9060005260206000200160009250925050505481565b600082815261015f60205260409020600101546123868161290c565b610cbb838361299d565b600081815261019a6020908152604080832081516080810183528154815260018201546001600160a01b0316938101939093526002810154918301919091526003015460ff1615156060820181905282036123ee5750600092915050565b80604001516000036124035750600092915050565b4281604001511115612416576000612419565b60015b9392505050565b6001600160a01b03851633148061243c575061243c853361090c565b6124585760405162461bcd60e51b8152600401610c7890614183565b610c8e8585858585612e71565b60006124708161290c565b600061019884604051612483919061414a565b9081526020016040518091039020905083516000036124b55760405163a8d052f160e01b815260040160405180910390fd5b6001600160a01b0383166124dc5760405163278e974f60e01b815260040160405180910390fd5b80546001600160a01b03161561250557604051631c783ddb60e01b815260040160405180910390fd5b604080516060810182526001600160a01b03851681526000602082015260018183015290516101989061253990879061414a565b90815260408051918290036020908101909220835181549385015194909201511515600160a81b0260ff60a81b19941515600160a01b026001600160a81b03199094166001600160a01b0390931692909217929092179290921691909117905550505050565b60006125aa8161290c565b60008381526101996020526040902080546001600160a01b03166125e15760405163e81a0a5560e01b815260040160405180910390fd5b6005810183905560405183815284907f897164bdb6d8ca3f923345d02b5a56e8908961ca8cf15e0c67d1c1dee7f22a8290602001611a57565b60006001600160e01b03198216637965db0b60e01b1480610c245750610c2482612fad565b60008181526098602052604081208054606092919061265d90614110565b80601f016020809104026020016040519081016040528092919081815260200182805461268990614110565b80156126d65780601f106126ab576101008083540402835291602001916126d6565b820191906000526020600020905b8154815290600101906020018083116126b957829003601f168201915b5050505050905060008151116126f4576126ef83612ffd565b612419565b60978160405160200161270892919061454c565b6040516020818303038152906040529392505050565b81518351146127805760405162461bcd60e51b815260206004820152602860248201527f455243313135353a2069647320616e6420616d6f756e7473206c656e677468206044820152670dad2e6dac2e8c6d60c31b6064820152608401610c78565b6001600160a01b0384166127a65760405162461bcd60e51b8152600401610c7890614571565b336127b5818787878787613091565b60005b845181101561289e5760008582815181106127d5576127d5614269565b6020026020010151905060008583815181106127f3576127f3614269565b60209081029190910181015160008481526065835260408082206001600160a01b038e1683529093529190912054909150818110156128445760405162461bcd60e51b8152600401610c78906145b6565b60008381526065602090815260408083206001600160a01b038e8116855292528083208585039055908b16825281208054849290612883908490614346565b925050819055505050508061289790614295565b90506127b8565b50846001600160a01b0316866001600160a01b0316826001600160a01b03167f4a39dc06d4c0dbc64b70af90fd698a233a518aa5d07e595d983b8c0526c8f7fb87876040516128ee929190614600565b60405180910390a46129048187878787876130c6565b505050505050565b610ed48133613221565b61292082826118d8565b610df457600082815261015f602090815260408083206001600160a01b03851684529091529020805460ff191660011790556129593390565b6001600160a01b0316816001600160a01b0316837f2f8788117e7eff1d82e926ec794901d17c78024a50270940304540a733656f0d60405160405180910390a45050565b6129a782826118d8565b15610df457600082815261015f602090815260408083206001600160a01b0385168085529252808320805460ff1916905551339285917ff6391f5c32d9c69d2a47ea670b442974b53935d1edc7fd64eb21e047a839171b9190a45050565b7f189ab7a9244df0848122154315af71fe140f3db0fe014031783b0946b8c9d2e3610df48161290c565b7f4910fdfa16fed3260ed0e7147f7cc6da11a60208b5b9406d12a635614ffd91435460ff1615612a6257610cbb8361327a565b826001600160a01b03166352d1902d6040518163ffffffff1660e01b8152600401602060405180830381865afa925050508015612abc575060408051601f3d908101601f19168201909252612ab99181019061432d565b60015b612b1f5760405162461bcd60e51b815260206004820152602e60248201527f45524331393637557067726164653a206e657720696d706c656d656e7461746960448201526d6f6e206973206e6f74205555505360901b6064820152608401610c78565b6000805160206148e28339815191528114612b8e5760405162461bcd60e51b815260206004820152602960248201527f45524331393637557067726164653a20756e737570706f727465642070726f786044820152681a58589b195555525160ba1b6064820152608401610c78565b50610cbb838383613316565b612ba261333b565b60c9805460ff191690557f5db9ee0a495bf2e6ff9c91a7834c1ba4fdd244a5e8aa4e537bd38aeae4b073aa335b6040516001600160a01b03909116815260200160405180910390a1565b612bf4613384565b60c9805460ff191660011790557f62e78cea01bee320cd4e420270b5ea74000d11b0c9f74754ebdbfc544b05a258612bcf3390565b6040516305d39ac360e51b815260040160405180910390fd5b600054610100900460ff16612c695760405162461bcd60e51b8152600401610c7890614625565b610ed4816133ca565b600054610100900460ff16612c995760405162461bcd60e51b8152600401610c7890614625565b565b600054610100900460ff16612cc25760405162461bcd60e51b8152600401610c7890614625565b612c996133fa565b6000612710612cd98385614670565b1015612ce457600080fd5b612710612cf18385614670565b6124199190614687565b6000828152609860205260409020612d13828261439f565b50817f6bb7ff708619ba0610cba295a58592e0451dee2622938c8755667688daf3529b612d3f84610c35565b60405161231f9190613926565b6001600160a01b038416612dac5760405162461bcd60e51b815260206004820152602160248201527f455243313135353a206d696e7420746f20746865207a65726f206164647265736044820152607360f81b6064820152608401610c78565b336000612db88561342d565b90506000612dc58561342d565b9050612dd683600089858589613091565b60008681526065602090815260408083206001600160a01b038b16845290915281208054879290612e08908490614346565b909155505060408051878152602081018790526001600160a01b03808a1692600092918716917fc3d58168c5ae7397731d063d5bbf3d657854427343f4c083240f7aacaa2d0f62910160405180910390a4612e6883600089898989613478565b50505050505050565b6001600160a01b038416612e975760405162461bcd60e51b8152600401610c7890614571565b336000612ea38561342d565b90506000612eb08561342d565b9050612ec0838989858589613091565b60008681526065602090815260408083206001600160a01b038c16845290915290205485811015612f035760405162461bcd60e51b8152600401610c78906145b6565b60008781526065602090815260408083206001600160a01b038d8116855292528083208985039055908a16825281208054889290612f42908490614346565b909155505060408051888152602081018890526001600160a01b03808b16928c821692918816917fc3d58168c5ae7397731d063d5bbf3d657854427343f4c083240f7aacaa2d0f62910160405180910390a4612fa2848a8a8a8a8a613478565b505050505050505050565b60006001600160e01b03198216636cdb3d1360e11b1480612fde57506001600160e01b031982166303a24d0760e21b145b80610c2457506301ffc9a760e01b6001600160e01b0319831614610c24565b60606067805461300c90614110565b80601f016020809104026020016040519081016040528092919081815260200182805461303890614110565b80156130855780601f1061305a57610100808354040283529160200191613085565b820191906000526020600020905b81548152906001019060200180831161306857829003601f168201915b50505050509050919050565b613099613384565b6001600160a01b038516156130c1576040516305d39ac360e51b815260040160405180910390fd5b612904565b6001600160a01b0384163b156129045760405163bc197c8160e01b81526001600160a01b0385169063bc197c819061310a90899089908890889088906004016146a9565b6020604051808303816000875af1925050508015613145575060408051601f3d908101601f1916820190925261314291810190614707565b60015b6131f157613151614724565b806308c379a00361318a575061316561473f565b80613170575061318c565b8060405162461bcd60e51b8152600401610c789190613926565b505b60405162461bcd60e51b815260206004820152603460248201527f455243313135353a207472616e7366657220746f206e6f6e2d455243313135356044820152732932b1b2b4bb32b91034b6b83632b6b2b73a32b960611b6064820152608401610c78565b6001600160e01b0319811663bc197c8160e01b14612e685760405162461bcd60e51b8152600401610c78906147c8565b61322b82826118d8565b610df45761323881613533565b613243836020613545565b604051602001613254929190614810565b60408051601f198184030181529082905262461bcd60e51b8252610c7891600401613926565b6001600160a01b0381163b6132e75760405162461bcd60e51b815260206004820152602d60248201527f455243313936373a206e657720696d706c656d656e746174696f6e206973206e60448201526c1bdd08184818dbdb9d1c9858dd609a1b6064820152608401610c78565b6000805160206148e283398151915280546001600160a01b0319166001600160a01b0392909216919091179055565b61331f836136e0565b60008251118061332c5750805b15610cbb576118b28383613720565b60c95460ff16612c995760405162461bcd60e51b815260206004820152601460248201527314185d5cd8589b194e881b9bdd081c185d5cd95960621b6044820152606401610c78565b60c95460ff1615612c995760405162461bcd60e51b815260206004820152601060248201526f14185d5cd8589b194e881c185d5cd95960821b6044820152606401610c78565b600054610100900460ff166133f15760405162461bcd60e51b8152600401610c7890614625565b610ed481613814565b600054610100900460ff166134215760405162461bcd60e51b8152600401610c7890614625565b60c9805460ff19169055565b6040805160018082528183019092526060916000919060208083019080368337019050509050828160008151811061346757613467614269565b602090810291909101015292915050565b6001600160a01b0384163b156129045760405163f23a6e6160e01b81526001600160a01b0385169063f23a6e61906134bc9089908990889088908890600401614885565b6020604051808303816000875af19250505080156134f7575060408051601f3d908101601f191682019092526134f491810190614707565b60015b61350357613151614724565b6001600160e01b0319811663f23a6e6160e01b14612e685760405162461bcd60e51b8152600401610c78906147c8565b6060610c246001600160a01b03831660145b60606000613554836002614670565b61355f906002614346565b6001600160401b0381111561357657613576613939565b6040519080825280601f01601f1916602001820160405280156135a0576020820181803683370190505b509050600360fc1b816000815181106135bb576135bb614269565b60200101906001600160f81b031916908160001a905350600f60fb1b816001815181106135ea576135ea614269565b60200101906001600160f81b031916908160001a905350600061360e846002614670565b613619906001614346565b90505b6001811115613691576f181899199a1a9b1b9c1cb0b131b232b360811b85600f166010811061364d5761364d614269565b1a60f81b82828151811061366357613663614269565b60200101906001600160f81b031916908160001a90535060049490941c9361368a816148ca565b905061361c565b5083156124195760405162461bcd60e51b815260206004820181905260248201527f537472696e67733a20686578206c656e67746820696e73756666696369656e746044820152606401610c78565b6136e98161327a565b6040516001600160a01b038216907fbc7cd75a20ee27fd9adebab32041f755214dbc6bffa90cc0225b39da2e5c2d3b90600090a250565b60606001600160a01b0383163b6137885760405162461bcd60e51b815260206004820152602660248201527f416464726573733a2064656c65676174652063616c6c20746f206e6f6e2d636f6044820152651b9d1c9858dd60d21b6064820152608401610c78565b600080846001600160a01b0316846040516137a3919061414a565b600060405180830381855af49150503d80600081146137de576040519150601f19603f3d011682016040523d82523d6000602084013e6137e3565b606091505b509150915061380b828260405180606001604052806027815260200161492260279139613820565b95945050505050565b6067610df4828261439f565b6060831561382f575081612419565b61241983838151156131705781518083602001fd5b80356001600160a01b038116811461385b57600080fd5b919050565b6000806040838503121561387357600080fd5b61387c83613844565b946020939093013593505050565b6001600160e01b031981168114610ed457600080fd5b6000602082840312156138b257600080fd5b81356124198161388a565b6000602082840312156138cf57600080fd5b5035919050565b60005b838110156138f15781810151838201526020016138d9565b50506000910152565b600081518084526139128160208601602086016138d6565b601f01601f19169290920160200192915050565b60208152600061241960208301846138fa565b634e487b7160e01b600052604160045260246000fd5b60a081018181106001600160401b038211171561396e5761396e613939565b60405250565b601f8201601f191681016001600160401b038111828210171561399957613999613939565b6040525050565b60006001600160401b038211156139b9576139b9613939565b5060051b60200190565b600082601f8301126139d457600080fd5b813560206139e1826139a0565b6040516139ee8282613974565b83815260059390931b8501820192828101915086841115613a0e57600080fd5b8286015b84811015613a295780358352918301918301613a12565b509695505050505050565b600082601f830112613a4557600080fd5b81356001600160401b03811115613a5e57613a5e613939565b604051613a75601f8301601f191660200182613974565b818152846020838601011115613a8a57600080fd5b816020850160208301376000918101602001919091529392505050565b600080600080600060a08688031215613abf57600080fd5b613ac886613844565b9450613ad660208701613844565b935060408601356001600160401b0380821115613af257600080fd5b613afe89838a016139c3565b94506060880135915080821115613b1457600080fd5b613b2089838a016139c3565b93506080880135915080821115613b3657600080fd5b50613b4388828901613a34565b9150509295509295909350565b60008060408385031215613b6357600080fd5b82359150613b7360208401613844565b90509250929050565b8015158114610ed457600080fd5b60008060008060808587031215613ba057600080fd5b8435935060208501359250604085013591506060850135613bc081613b7c565b939692955090935050565b600060208284031215613bdd57600080fd5b61241982613844565b60008060408385031215613bf957600080fd5b82356001600160401b0380821115613c1057600080fd5b818501915085601f830112613c2457600080fd5b81356020613c31826139a0565b604051613c3e8282613974565b83815260059390931b8501820192828101915089841115613c5e57600080fd5b948201945b83861015613c8357613c7486613844565b82529482019490820190613c63565b96505086013592505080821115613c9957600080fd5b50613ca6858286016139c3565b9150509250929050565b600081518084526020808501945080840160005b83811015613ce057815187529582019590820190600101613cc4565b509495945050505050565b6020815260006124196020830184613cb0565b60008060408385031215613d1157600080fd5b613d1a83613844565b915060208301356001600160401b03811115613d3557600080fd5b613ca685828601613a34565b6001600160a01b038816815260e060208201819052600090613d65908301896138fa565b9615156040830152506060810194909452608084019290925260a0830152151560c09091015292915050565b60008060408385031215613da457600080fd5b82356001600160401b0380821115613dbb57600080fd5b9084019060a08287031215613dcf57600080fd5b604051613ddb8161394f565b823582811115613dea57600080fd5b613df688828601613a34565b825250602083013582811115613e0b57600080fd5b613e1788828601613a34565b602083015250604083013560408201526060830135606082015260808301359250613e4183613b7c565b826080820152809450506020850135915080821115613e5f57600080fd5b50613ca685828601613a34565b604081526000613e7f60408301856138fa565b905082151560208301529392505050565b60008060408385031215613ea357600080fd5b613eac83613844565b91506020830135613ebc81613b7c565b809150509250929050565b600060208284031215613ed957600080fd5b81356001600160401b03811115613eef57600080fd5b6115dd84828501613a34565b600080600060608486031215613f1057600080fd5b505081359360208301359350604090920135919050565b600080600060608486031215613f3c57600080fd5b613f4584613844565b9250613f5360208501613844565b9150613f6160408501613844565b90509250925092565b60008060008060808587031215613f8057600080fd5b84359350613f9060208601613844565b925060408501356001600160401b0380821115613fac57600080fd5b613fb888838901613a34565b93506060870135915080821115613fce57600080fd5b50613fdb87828801613a34565b91505092959194509250565b600080600060608486031215613ffc57600080fd5b8335925061400c60208501613844565b9150604084013590509250925092565b6000806040838503121561402f57600080fd5b61403883613844565b9150613b7360208401613844565b600080600080600060a0868803121561405e57600080fd5b61406786613844565b945061407560208701613844565b9350604086013592506060860135915060808601356001600160401b0381111561409e57600080fd5b613b4388828901613a34565b600080604083850312156140bd57600080fd5b82356001600160401b038111156140d357600080fd5b6140df85828601613a34565b925050613b7360208401613844565b6000806040838503121561410157600080fd5b50508035926020909101359150565b600181811c9082168061412457607f821691505b60208210810361414457634e487b7160e01b600052602260045260246000fd5b50919050565b6000825161415c8184602087016138d6565b9190910192915050565b60006020828403121561417857600080fd5b815161241981613b7c565b6020808252602e908201527f455243313135353a2063616c6c6572206973206e6f7420746f6b656e206f776e60408201526d195c881bdc88185c1c1c9bdd995960921b606082015260800190565b6020808252602c908201527f46756e6374696f6e206d7573742062652063616c6c6564207468726f7567682060408201526b19195b1959d85d1958d85b1b60a21b606082015260800190565b6020808252602c908201527f46756e6374696f6e206d7573742062652063616c6c6564207468726f7567682060408201526b6163746976652070726f787960a01b606082015260800190565b634e487b7160e01b600052603260045260246000fd5b634e487b7160e01b600052601160045260246000fd5b6000600182016142a7576142a761427f565b5060010190565b600081546142bb81614110565b600182811680156142d357600181146142e857614317565b60ff1984168752821515830287019450614317565b8560005260208060002060005b8581101561430e5781548a8201529084019082016142f5565b50505082870194505b5050505092915050565b600061241982846142ae565b60006020828403121561433f57600080fd5b5051919050565b80820180821115610c2457610c2461427f565b601f821115610cbb57600081815260208120601f850160051c810160208610156143805750805b601f850160051c820191505b818110156129045782815560010161438c565b81516001600160401b038111156143b8576143b8613939565b6143cc816143c68454614110565b84614359565b602080601f83116001811461440157600084156143e95750858301515b600019600386901b1c1916600185901b178555612904565b600085815260208120601f198616915b8281101561443057888601518255948401946001909101908401614411565b508582101561444e5787850151600019600388901b60f8161c191681555b5050505050600190811b01905550565b8281526040602082015260006115dd60408301846138fa565b81810381811115610c2457610c2461427f565b60018060a01b03851681528360208201528260408201526080606082015260006144b760808301846138fa565b9695505050505050565b60006020808352600084546144d581614110565b808487015260406001808416600081146144f657600181146145105761453e565b60ff1985168984015283151560051b89018301955061453e565b896000528660002060005b858110156145365781548b820186015290830190880161451b565b8a0184019650505b509398975050505050505050565b600061455882856142ae565b83516145688183602088016138d6565b01949350505050565b60208082526025908201527f455243313135353a207472616e7366657220746f20746865207a65726f206164604082015264647265737360d81b606082015260800190565b6020808252602a908201527f455243313135353a20696e73756666696369656e742062616c616e636520666f60408201526939103a3930b739b332b960b11b606082015260800190565b6040815260006146136040830185613cb0565b828103602084015261380b8185613cb0565b6020808252602b908201527f496e697469616c697a61626c653a20636f6e7472616374206973206e6f74206960408201526a6e697469616c697a696e6760a81b606082015260800190565b8082028115828204841417610c2457610c2461427f565b6000826146a457634e487b7160e01b600052601260045260246000fd5b500490565b6001600160a01b0386811682528516602082015260a0604082018190526000906146d590830186613cb0565b82810360608401526146e78186613cb0565b905082810360808401526146fb81856138fa565b98975050505050505050565b60006020828403121561471957600080fd5b81516124198161388a565b600060033d11156115225760046000803e5060005160e01c90565b600060443d101561474d5790565b6040516003193d81016004833e81513d6001600160401b03816024840111818411171561477c57505050505090565b82850191508151818111156147945750505050505090565b843d87010160208285010111156147ae5750505050505090565b6147bd60208286010187613974565b509095945050505050565b60208082526028908201527f455243313135353a204552433131353552656365697665722072656a656374656040820152676420746f6b656e7360c01b606082015260800190565b7f416363657373436f6e74726f6c3a206163636f756e74200000000000000000008152600083516148488160178501602088016138d6565b7001034b99036b4b9b9b4b733903937b6329607d1b60179184019182015283516148798160288401602088016138d6565b01602801949350505050565b6001600160a01b03868116825285166020820152604081018490526060810183905260a0608082018190526000906148bf908301846138fa565b979650505050505050565b6000816148d9576148d961427f565b50600019019056fe360894a13ba1a3210667c828492db98dca3e2076cc3735a920a3ca505d382bbc65d7a28e3265b37a6474929f336521b332c1681b933f6cb9f3376673440d862a416464726573733a206c6f772d6c6576656c2064656c65676174652063616c6c206661696c6564a264697066735822122048b526eb8ec2b021662e19497e5aa58fdd57e77bc50125a52e8b3a85cbab990764736f6c63430008110033",
  "linkReferences": {},
  "deployedLinkReferences": {}
}