{
  "_format": "hh-sol-artifact-1",
  "contractName": "TheBadgeStore",
  "sourceName": "src/contracts/thebadge/TheBadgeStore.sol",
  "abi": [
    {
      "inputs": [],
      "stateMutability": "nonpayable",
      "type": "constructor"
    },
    {
      "inputs": [],
      "name": "TheBadge__Store_ContractNameAlreadyExists",
      "type": "error"
    },
    {
      "inputs": [],
      "name": "TheBadge__Store_InvalidContractAddress",
      "type": "error"
    },
    {
      "inputs": [],
      "name": "TheBadge__Store_InvalidContractName",
      "type": "error"
    },
    {
      "inputs": [],
      "name": "TheBadge__Store_OperationNotPermitted",
      "type": "error"
    },
    {
      "inputs": [],
      "name": "TheBadge__addBadgeModelController_alreadySet",
      "type": "error"
    },
    {
      "inputs": [],
      "name": "TheBadge__badgeModel_badgeModelNotFound",
      "type": "error"
    },
    {
      "inputs": [],
      "name": "TheBadge__registerUser_alreadyRegistered",
      "type": "error"
    },
    {
      "inputs": [],
      "name": "TheBadge__updateUser_notFound",
      "type": "error"
    },
    {
      "anonymous": false,
      "inputs": [
        {
          "indexed": true,
          "internalType": "string",
          "name": "_contractName",
          "type": "string"
        },
        {
          "indexed": true,
          "internalType": "address",
          "name": "contractAddress",
          "type": "address"
        }
      ],
      "name": "ContractAdded",
      "type": "event"
    },
    {
      "anonymous": false,
      "inputs": [
        {
          "indexed": true,
          "internalType": "string",
          "name": "_contractName",
          "type": "string"
        },
        {
          "indexed": true,
          "internalType": "address",
          "name": "contractAddress",
          "type": "address"
        }
      ],
      "name": "ContractRemoved",
      "type": "event"
    },
    {
      "anonymous": false,
      "inputs": [
        {
          "indexed": true,
          "internalType": "string",
          "name": "_contractName",
          "type": "string"
        },
        {
          "indexed": true,
          "internalType": "address",
          "name": "contractAddress",
          "type": "address"
        }
      ],
      "name": "ContractUpdated",
      "type": "event"
    },
    {
      "anonymous": false,
      "inputs": [
        {
          "indexed": false,
          "internalType": "uint8",
          "name": "version",
          "type": "uint8"
        }
      ],
      "name": "Initialized",
      "type": "event"
    },
    {
      "anonymous": false,
      "inputs": [
        {
          "indexed": true,
          "internalType": "address",
          "name": "previousOwner",
          "type": "address"
        },
        {
          "indexed": true,
          "internalType": "address",
          "name": "newOwner",
          "type": "address"
        }
      ],
      "name": "OwnershipTransferred",
      "type": "event"
    },
    {
      "anonymous": false,
      "inputs": [
        {
          "indexed": true,
          "internalType": "bytes32",
          "name": "role",
          "type": "bytes32"
        },
        {
          "indexed": true,
          "internalType": "bytes32",
          "name": "previousAdminRole",
          "type": "bytes32"
        },
        {
          "indexed": true,
          "internalType": "bytes32",
          "name": "newAdminRole",
          "type": "bytes32"
        }
      ],
      "name": "RoleAdminChanged",
      "type": "event"
    },
    {
      "anonymous": false,
      "inputs": [
        {
          "indexed": true,
          "internalType": "bytes32",
          "name": "role",
          "type": "bytes32"
        },
        {
          "indexed": true,
          "internalType": "address",
          "name": "account",
          "type": "address"
        },
        {
          "indexed": true,
          "internalType": "address",
          "name": "sender",
          "type": "address"
        }
      ],
      "name": "RoleGranted",
      "type": "event"
    },
    {
      "anonymous": false,
      "inputs": [
        {
          "indexed": true,
          "internalType": "bytes32",
          "name": "role",
          "type": "bytes32"
        },
        {
          "indexed": true,
          "internalType": "address",
          "name": "account",
          "type": "address"
        },
        {
          "indexed": true,
          "internalType": "address",
          "name": "sender",
          "type": "address"
        }
      ],
      "name": "RoleRevoked",
      "type": "event"
    },
    {
      "inputs": [],
      "name": "DEFAULT_ADMIN_ROLE",
      "outputs": [
        {
          "internalType": "bytes32",
          "name": "",
          "type": "bytes32"
        }
      ],
      "stateMutability": "view",
      "type": "function"
    },
    {
      "inputs": [],
      "name": "PAUSER_ROLE",
      "outputs": [
        {
          "internalType": "bytes32",
          "name": "",
          "type": "bytes32"
        }
      ],
      "stateMutability": "view",
      "type": "function"
    },
    {
      "inputs": [],
      "name": "UPGRADER_ROLE",
      "outputs": [
        {
          "internalType": "bytes32",
          "name": "",
          "type": "bytes32"
        }
      ],
      "stateMutability": "view",
      "type": "function"
    },
    {
      "inputs": [],
      "name": "URI_SETTER_ROLE",
      "outputs": [
        {
          "internalType": "bytes32",
          "name": "",
          "type": "bytes32"
        }
      ],
      "stateMutability": "view",
      "type": "function"
    },
    {
      "inputs": [],
      "name": "USER_MANAGER_ROLE",
      "outputs": [
        {
          "internalType": "bytes32",
          "name": "",
          "type": "bytes32"
        }
      ],
      "stateMutability": "view",
      "type": "function"
    },
    {
      "inputs": [],
      "name": "VERIFIER_ROLE",
      "outputs": [
        {
          "internalType": "bytes32",
          "name": "",
          "type": "bytes32"
        }
      ],
      "stateMutability": "view",
      "type": "function"
    },
    {
      "inputs": [
        {
          "internalType": "uint256",
          "name": "badgeId",
          "type": "uint256"
        },
        {
          "components": [
            {
              "internalType": "uint256",
              "name": "badgeModelId",
              "type": "uint256"
            },
            {
              "internalType": "address",
              "name": "account",
              "type": "address"
            },
            {
              "internalType": "uint256",
              "name": "dueDate",
              "type": "uint256"
            },
            {
              "internalType": "bool",
              "name": "initialized",
              "type": "bool"
            }
          ],
          "internalType": "struct TheBadgeStore.Badge",
          "name": "badge",
          "type": "tuple"
        }
      ],
      "name": "addBadge",
      "outputs": [],
      "stateMutability": "nonpayable",
      "type": "function"
    },
    {
      "inputs": [
        {
          "components": [
            {
              "internalType": "address",
              "name": "creator",
              "type": "address"
            },
            {
              "internalType": "string",
              "name": "controllerName",
              "type": "string"
            },
            {
              "internalType": "bool",
              "name": "paused",
              "type": "bool"
            },
            {
              "internalType": "uint256",
              "name": "mintCreatorFee",
              "type": "uint256"
            },
            {
              "internalType": "uint256",
              "name": "validFor",
              "type": "uint256"
            },
            {
              "internalType": "uint256",
              "name": "mintProtocolFee",
              "type": "uint256"
            },
            {
              "internalType": "bool",
              "name": "initialized",
              "type": "bool"
            },
            {
              "internalType": "string",
              "name": "version",
              "type": "string"
            }
          ],
          "internalType": "struct TheBadgeStore.BadgeModel",
          "name": "badgeModel",
          "type": "tuple"
        }
      ],
      "name": "addBadgeModel",
      "outputs": [],
      "stateMutability": "nonpayable",
      "type": "function"
    },
    {
      "inputs": [
        {
          "internalType": "string",
          "name": "controllerName",
          "type": "string"
        },
        {
          "components": [
            {
              "internalType": "address",
              "name": "controller",
              "type": "address"
            },
            {
              "internalType": "bool",
              "name": "paused",
              "type": "bool"
            },
            {
              "internalType": "bool",
              "name": "initialized",
              "type": "bool"
            }
          ],
          "internalType": "struct TheBadgeStore.BadgeModelController",
          "name": "badgeModelController",
          "type": "tuple"
        }
      ],
      "name": "addBadgeModelController",
      "outputs": [],
      "stateMutability": "nonpayable",
      "type": "function"
    },
    {
      "inputs": [
        {
          "internalType": "string",
          "name": "_contractName",
          "type": "string"
        },
        {
          "internalType": "address",
          "name": "_contractAddress",
          "type": "address"
        }
      ],
      "name": "addPermittedContract",
      "outputs": [],
      "stateMutability": "nonpayable",
      "type": "function"
    },
    {
      "inputs": [
        {
          "internalType": "address",
          "name": "",
          "type": "address"
        }
      ],
      "name": "allowedContractAddresses",
      "outputs": [
        {
          "internalType": "bool",
          "name": "",
          "type": "bool"
        }
      ],
      "stateMutability": "view",
      "type": "function"
    },
    {
      "inputs": [
        {
          "internalType": "string",
          "name": "",
          "type": "string"
        }
      ],
      "name": "allowedContractAddressesByContractName",
      "outputs": [
        {
          "internalType": "address",
          "name": "",
          "type": "address"
        }
      ],
      "stateMutability": "view",
      "type": "function"
    },
    {
      "inputs": [
        {
          "internalType": "string",
          "name": "",
          "type": "string"
        }
      ],
      "name": "badgeModelControllers",
      "outputs": [
        {
          "internalType": "address",
          "name": "controller",
          "type": "address"
        },
        {
          "internalType": "bool",
          "name": "paused",
          "type": "bool"
        },
        {
          "internalType": "bool",
          "name": "initialized",
          "type": "bool"
        }
      ],
      "stateMutability": "view",
      "type": "function"
    },
    {
      "inputs": [
        {
          "internalType": "uint256",
          "name": "",
          "type": "uint256"
        }
      ],
      "name": "badgeModels",
      "outputs": [
        {
          "internalType": "address",
          "name": "creator",
          "type": "address"
        },
        {
          "internalType": "string",
          "name": "controllerName",
          "type": "string"
        },
        {
          "internalType": "bool",
          "name": "paused",
          "type": "bool"
        },
        {
          "internalType": "uint256",
          "name": "mintCreatorFee",
          "type": "uint256"
        },
        {
          "internalType": "uint256",
          "name": "validFor",
          "type": "uint256"
        },
        {
          "internalType": "uint256",
          "name": "mintProtocolFee",
          "type": "uint256"
        },
        {
          "internalType": "bool",
          "name": "initialized",
          "type": "bool"
        },
        {
          "internalType": "string",
          "name": "version",
          "type": "string"
        }
      ],
      "stateMutability": "view",
      "type": "function"
    },
    {
      "inputs": [
        {
          "internalType": "uint256",
          "name": "",
          "type": "uint256"
        }
      ],
      "name": "badges",
      "outputs": [
        {
          "internalType": "uint256",
          "name": "badgeModelId",
          "type": "uint256"
        },
        {
          "internalType": "address",
          "name": "account",
          "type": "address"
        },
        {
          "internalType": "uint256",
          "name": "dueDate",
          "type": "uint256"
        },
        {
          "internalType": "bool",
          "name": "initialized",
          "type": "bool"
        }
      ],
      "stateMutability": "view",
      "type": "function"
    },
    {
      "inputs": [],
      "name": "createBadgeModelProtocolFee",
      "outputs": [
        {
          "internalType": "uint256",
          "name": "",
          "type": "uint256"
        }
      ],
      "stateMutability": "view",
      "type": "function"
    },
    {
      "inputs": [
        {
          "internalType": "address",
          "name": "userAddress",
          "type": "address"
        },
        {
          "components": [
            {
              "internalType": "string",
              "name": "metadata",
              "type": "string"
            },
            {
              "internalType": "bool",
              "name": "isCompany",
              "type": "bool"
            },
            {
              "internalType": "bool",
              "name": "isCreator",
              "type": "bool"
            },
            {
              "internalType": "bool",
              "name": "suspended",
              "type": "bool"
            },
            {
              "internalType": "bool",
              "name": "initialized",
              "type": "bool"
            }
          ],
          "internalType": "struct TheBadgeStore.User",
          "name": "newUser",
          "type": "tuple"
        }
      ],
      "name": "createUser",
      "outputs": [],
      "stateMutability": "nonpayable",
      "type": "function"
    },
    {
      "inputs": [],
      "name": "feeCollector",
      "outputs": [
        {
          "internalType": "address",
          "name": "",
          "type": "address"
        }
      ],
      "stateMutability": "view",
      "type": "function"
    },
    {
      "inputs": [
        {
          "internalType": "uint256",
          "name": "badgeId",
          "type": "uint256"
        }
      ],
      "name": "getBadge",
      "outputs": [
        {
          "components": [
            {
              "internalType": "uint256",
              "name": "badgeModelId",
              "type": "uint256"
            },
            {
              "internalType": "address",
              "name": "account",
              "type": "address"
            },
            {
              "internalType": "uint256",
              "name": "dueDate",
              "type": "uint256"
            },
            {
              "internalType": "bool",
              "name": "initialized",
              "type": "bool"
            }
          ],
          "internalType": "struct TheBadgeStore.Badge",
          "name": "",
          "type": "tuple"
        }
      ],
      "stateMutability": "view",
      "type": "function"
    },
    {
      "inputs": [
        {
          "internalType": "uint256",
          "name": "badgeModelId",
          "type": "uint256"
        }
      ],
      "name": "getBadgeModel",
      "outputs": [
        {
          "components": [
            {
              "internalType": "address",
              "name": "creator",
              "type": "address"
            },
            {
              "internalType": "string",
              "name": "controllerName",
              "type": "string"
            },
            {
              "internalType": "bool",
              "name": "paused",
              "type": "bool"
            },
            {
              "internalType": "uint256",
              "name": "mintCreatorFee",
              "type": "uint256"
            },
            {
              "internalType": "uint256",
              "name": "validFor",
              "type": "uint256"
            },
            {
              "internalType": "uint256",
              "name": "mintProtocolFee",
              "type": "uint256"
            },
            {
              "internalType": "bool",
              "name": "initialized",
              "type": "bool"
            },
            {
              "internalType": "string",
              "name": "version",
              "type": "string"
            }
          ],
          "internalType": "struct TheBadgeStore.BadgeModel",
          "name": "",
          "type": "tuple"
        }
      ],
      "stateMutability": "view",
      "type": "function"
    },
    {
      "inputs": [
        {
          "internalType": "string",
          "name": "controllerName",
          "type": "string"
        }
      ],
      "name": "getBadgeModelController",
      "outputs": [
        {
          "components": [
            {
              "internalType": "address",
              "name": "controller",
              "type": "address"
            },
            {
              "internalType": "bool",
              "name": "paused",
              "type": "bool"
            },
            {
              "internalType": "bool",
              "name": "initialized",
              "type": "bool"
            }
          ],
          "internalType": "struct TheBadgeStore.BadgeModelController",
          "name": "",
          "type": "tuple"
        }
      ],
      "stateMutability": "view",
      "type": "function"
    },
    {
      "inputs": [],
      "name": "getCurrentBadgeIdCounter",
      "outputs": [
        {
          "internalType": "uint256",
          "name": "",
          "type": "uint256"
        }
      ],
      "stateMutability": "view",
      "type": "function"
    },
    {
      "inputs": [],
      "name": "getCurrentBadgeModelsIdCounter",
      "outputs": [
        {
          "internalType": "uint256",
          "name": "",
          "type": "uint256"
        }
      ],
      "stateMutability": "view",
      "type": "function"
    },
    {
      "inputs": [
        {
          "internalType": "bytes32",
          "name": "role",
          "type": "bytes32"
        }
      ],
      "name": "getRoleAdmin",
      "outputs": [
        {
          "internalType": "bytes32",
          "name": "",
          "type": "bytes32"
        }
      ],
      "stateMutability": "view",
      "type": "function"
    },
    {
      "inputs": [
        {
          "internalType": "address",
          "name": "userAddress",
          "type": "address"
        }
      ],
      "name": "getUser",
      "outputs": [
        {
          "components": [
            {
              "internalType": "string",
              "name": "metadata",
              "type": "string"
            },
            {
              "internalType": "bool",
              "name": "isCompany",
              "type": "bool"
            },
            {
              "internalType": "bool",
              "name": "isCreator",
              "type": "bool"
            },
            {
              "internalType": "bool",
              "name": "suspended",
              "type": "bool"
            },
            {
              "internalType": "bool",
              "name": "initialized",
              "type": "bool"
            }
          ],
          "internalType": "struct TheBadgeStore.User",
          "name": "",
          "type": "tuple"
        }
      ],
      "stateMutability": "view",
      "type": "function"
    },
    {
      "inputs": [
        {
          "internalType": "uint256",
          "name": "badgeModelId",
          "type": "uint256"
        },
        {
          "internalType": "address",
          "name": "userAddress",
          "type": "address"
        }
      ],
      "name": "getUserMintedBadgesByBadgeModel",
      "outputs": [
        {
          "internalType": "uint256[]",
          "name": "",
          "type": "uint256[]"
        }
      ],
      "stateMutability": "view",
      "type": "function"
    },
    {
      "inputs": [
        {
          "internalType": "bytes32",
          "name": "role",
          "type": "bytes32"
        },
        {
          "internalType": "address",
          "name": "account",
          "type": "address"
        }
      ],
      "name": "grantRole",
      "outputs": [],
      "stateMutability": "nonpayable",
      "type": "function"
    },
    {
      "inputs": [
        {
          "internalType": "bytes32",
          "name": "role",
          "type": "bytes32"
        },
        {
          "internalType": "address",
          "name": "account",
          "type": "address"
        }
      ],
      "name": "hasRole",
      "outputs": [
        {
          "internalType": "bool",
          "name": "",
          "type": "bool"
        }
      ],
      "stateMutability": "view",
      "type": "function"
    },
    {
      "inputs": [
        {
          "internalType": "address",
          "name": "admin",
          "type": "address"
        },
        {
          "internalType": "address",
          "name": "_feeCollector",
          "type": "address"
        }
      ],
      "name": "initialize",
      "outputs": [],
      "stateMutability": "nonpayable",
      "type": "function"
    },
    {
      "inputs": [],
      "name": "mintBadgeProtocolDefaultFeeInBps",
      "outputs": [
        {
          "internalType": "uint256",
          "name": "",
          "type": "uint256"
        }
      ],
      "stateMutability": "view",
      "type": "function"
    },
    {
      "inputs": [],
      "name": "owner",
      "outputs": [
        {
          "internalType": "address",
          "name": "",
          "type": "address"
        }
      ],
      "stateMutability": "view",
      "type": "function"
    },
    {
      "inputs": [],
      "name": "registerUserProtocolFee",
      "outputs": [
        {
          "internalType": "uint256",
          "name": "",
          "type": "uint256"
        }
      ],
      "stateMutability": "view",
      "type": "function"
    },
    {
      "inputs": [
        {
          "internalType": "address",
          "name": "",
          "type": "address"
        }
      ],
      "name": "registeredUsers",
      "outputs": [
        {
          "internalType": "string",
          "name": "metadata",
          "type": "string"
        },
        {
          "internalType": "bool",
          "name": "isCompany",
          "type": "bool"
        },
        {
          "internalType": "bool",
          "name": "isCreator",
          "type": "bool"
        },
        {
          "internalType": "bool",
          "name": "suspended",
          "type": "bool"
        },
        {
          "internalType": "bool",
          "name": "initialized",
          "type": "bool"
        }
      ],
      "stateMutability": "view",
      "type": "function"
    },
    {
      "inputs": [
        {
          "internalType": "string",
          "name": "_contractName",
          "type": "string"
        }
      ],
      "name": "removePermittedContract",
      "outputs": [],
      "stateMutability": "nonpayable",
      "type": "function"
    },
    {
      "inputs": [],
      "name": "renounceOwnership",
      "outputs": [],
      "stateMutability": "nonpayable",
      "type": "function"
    },
    {
      "inputs": [
        {
          "internalType": "bytes32",
          "name": "role",
          "type": "bytes32"
        },
        {
          "internalType": "address",
          "name": "account",
          "type": "address"
        }
      ],
      "name": "renounceRole",
      "outputs": [],
      "stateMutability": "nonpayable",
      "type": "function"
    },
    {
      "inputs": [
        {
          "internalType": "bytes32",
          "name": "role",
          "type": "bytes32"
        },
        {
          "internalType": "address",
          "name": "account",
          "type": "address"
        }
      ],
      "name": "revokeRole",
      "outputs": [],
      "stateMutability": "nonpayable",
      "type": "function"
    },
    {
      "inputs": [
        {
          "internalType": "bytes4",
          "name": "interfaceId",
          "type": "bytes4"
        }
      ],
      "name": "supportsInterface",
      "outputs": [
        {
          "internalType": "bool",
          "name": "",
          "type": "bool"
        }
      ],
      "stateMutability": "view",
      "type": "function"
    },
    {
      "inputs": [
        {
          "internalType": "address",
          "name": "newOwner",
          "type": "address"
        }
      ],
      "name": "transferOwnership",
      "outputs": [],
      "stateMutability": "nonpayable",
      "type": "function"
    },
    {
      "inputs": [
        {
          "internalType": "uint256",
          "name": "badgeModelId",
          "type": "uint256"
        },
        {
          "components": [
            {
              "internalType": "address",
              "name": "creator",
              "type": "address"
            },
            {
              "internalType": "string",
              "name": "controllerName",
              "type": "string"
            },
            {
              "internalType": "bool",
              "name": "paused",
              "type": "bool"
            },
            {
              "internalType": "uint256",
              "name": "mintCreatorFee",
              "type": "uint256"
            },
            {
              "internalType": "uint256",
              "name": "validFor",
              "type": "uint256"
            },
            {
              "internalType": "uint256",
              "name": "mintProtocolFee",
              "type": "uint256"
            },
            {
              "internalType": "bool",
              "name": "initialized",
              "type": "bool"
            },
            {
              "internalType": "string",
              "name": "version",
              "type": "string"
            }
          ],
          "internalType": "struct TheBadgeStore.BadgeModel",
          "name": "badgeModel",
          "type": "tuple"
        }
      ],
      "name": "updateBadgeModel",
      "outputs": [],
      "stateMutability": "nonpayable",
      "type": "function"
    },
    {
      "inputs": [
        {
          "internalType": "uint256",
          "name": "_createBadgeModelValue",
          "type": "uint256"
        }
      ],
      "name": "updateCreateBadgeModelProtocolFee",
      "outputs": [],
      "stateMutability": "nonpayable",
      "type": "function"
    },
    {
      "inputs": [
        {
          "internalType": "uint256",
          "name": "_mintBadgeDefaultFee",
          "type": "uint256"
        }
      ],
      "name": "updateMintBadgeDefaultProtocolFee",
      "outputs": [],
      "stateMutability": "nonpayable",
      "type": "function"
    },
    {
      "inputs": [
        {
          "internalType": "string",
          "name": "_contractName",
          "type": "string"
        },
        {
          "internalType": "address",
          "name": "_newContractAddress",
          "type": "address"
        }
      ],
      "name": "updatePermittedContract",
      "outputs": [],
      "stateMutability": "nonpayable",
      "type": "function"
    },
    {
      "inputs": [
        {
          "internalType": "uint256",
          "name": "_registerCreatorValue",
          "type": "uint256"
        }
      ],
      "name": "updateRegisterCreatorProtocolFee",
      "outputs": [],
      "stateMutability": "nonpayable",
      "type": "function"
    },
    {
      "inputs": [
        {
          "internalType": "address",
          "name": "userAddress",
          "type": "address"
        },
        {
          "components": [
            {
              "internalType": "string",
              "name": "metadata",
              "type": "string"
            },
            {
              "internalType": "bool",
              "name": "isCompany",
              "type": "bool"
            },
            {
              "internalType": "bool",
              "name": "isCreator",
              "type": "bool"
            },
            {
              "internalType": "bool",
              "name": "suspended",
              "type": "bool"
            },
            {
              "internalType": "bool",
              "name": "initialized",
              "type": "bool"
            }
          ],
          "internalType": "struct TheBadgeStore.User",
          "name": "updatedUser",
          "type": "tuple"
        }
      ],
      "name": "updateUser",
      "outputs": [],
      "stateMutability": "nonpayable",
      "type": "function"
    },
    {
      "inputs": [
        {
          "internalType": "uint256",
          "name": "",
          "type": "uint256"
        },
        {
          "internalType": "address",
          "name": "",
          "type": "address"
        },
        {
          "internalType": "uint256",
          "name": "",
          "type": "uint256"
        }
      ],
      "name": "userMintedBadgesByBadgeModel",
      "outputs": [
        {
          "internalType": "uint256",
          "name": "",
          "type": "uint256"
        }
      ],
      "stateMutability": "view",
      "type": "function"
    },
    {
      "stateMutability": "payable",
      "type": "receive"
    }
  ],
  "bytecode": "0x60806040523480156200001157600080fd5b506200001c62000022565b620000e3565b600054610100900460ff16156200008f5760405162461bcd60e51b815260206004820152602760248201527f496e697469616c697a61626c653a20636f6e747261637420697320696e697469604482015266616c697a696e6760c81b606482015260840160405180910390fd5b60005460ff90811614620000e1576000805460ff191660ff9081179091556040519081527f7f26b83ff96e1f2b6a682f133852f6798a09c465da95921460cefb38474024989060200160405180910390a15b565b612b8880620000f36000396000f3fe6080604052600436106102415760003560e01c80638d8386221161012f578063c956ebd9116100b1578063c956ebd9146108cc578063d547741f146108ec578063e18186511461090c578063e63ab1e91461092c578063e70a0e6914610960578063e7343c8a14610976578063e7705db61461098b578063e9ab224e146109bf578063f1fe717e146109df578063f2be2c85146109ff578063f2fde38b14610a2c578063f72c0d8b14610a4c57600080fd5b80638d838622146106625780638da5cb5b1461072c57806391d148541461074a57806398e36d8b1461076a57806399448a2c146107e3578063a1fa355c14610803578063a217fddf14610823578063a41e35c314610838578063b26fc2041461086c578063c415b95c1461088c578063c5a3c7ca146108ac57600080fd5b806336568abe116101c357806336568abe14610442578063385c4372146104625780634085b527146104b1578063485cc955146104d15780634e5eceae146104f157806364d8baef14610507578063658658c61461051d578063687a05571461053d5780636f77926b1461056d578063715018a61461059a5780637333b375146105af5780637f3457101461062e57600080fd5b806301ffc9a71461024d57806304db069f1461028257806306d7a28c146102a457806308473d4a146102fd57806308e5bf211461032a5780630deee1761461034d5780630e50cee51461036d578063178682c11461039e578063248a9ca3146103be5780632f2ff15d146103ee578063302b01801461040e57600080fd5b3661024857005b600080fd5b34801561025957600080fd5b5061026d6102683660046120cf565b610a80565b60405190151581526020015b60405180910390f35b34801561028e57600080fd5b506102a261029d3660046122d2565b610ab7565b005b3480156102b057600080fd5b506102e56102bf36600461230e565b805160208183018101805160d0825292820191909301209152546001600160a01b031681565b6040516001600160a01b039091168152602001610279565b34801561030957600080fd5b5061031d610318366004612342565b610baa565b604051610279919061236e565b34801561033657600080fd5b5061033f610c1e565b604051908152602001610279565b34801561035957600080fd5b506102a261036836600461230e565b610c2e565b34801561037957600080fd5b5061038d6103883660046123b2565b610d13565b60405161027995949392919061241d565b3480156103aa57600080fd5b506102a26103b9366004612456565b610dd6565b3480156103ca57600080fd5b5061033f6103d9366004612519565b60009081526065602052604090206001015490565b3480156103fa57600080fd5b506102a2610409366004612342565b610eea565b34801561041a57600080fd5b5061042e610429366004612519565b610f14565b604051610279989796959493929190612532565b34801561044e57600080fd5b506102a261045d366004612342565b611079565b34801561046e57600080fd5b5061048261047d36600461230e565b6110fc565b6040805182516001600160a01b0316815260208084015115159082015291810151151590820152606001610279565b3480156104bd57600080fd5b506102a26104cc36600461259c565b611173565b3480156104dd57600080fd5b506102a26104ec36600461262c565b61123b565b3480156104fd57600080fd5b5061033f60cd5481565b34801561051357600080fd5b5061033f60cc5481565b34801561052957600080fd5b506102a2610538366004612656565b611384565b34801561054957600080fd5b5061026d6105583660046123b2565b60cf6020526000908152604090205460ff1681565b34801561057957600080fd5b5061058d6105883660046123b2565b61147b565b60405161027991906126ff565b3480156105a657600080fd5b506102a26115a0565b3480156105bb57600080fd5b506106076105ca36600461230e565b80518082016020908101805160d2825292820191909301209152546001600160a01b0381169060ff600160a01b8204811691600160a81b90041683565b604080516001600160a01b0390941684529115156020840152151590820152606001610279565b34801561063a57600080fd5b5061033f7f7804d923f43a17d325d77e781528e0793b2edd9890ab45fc64efd7b4b427744c81565b34801561066e57600080fd5b506106ee61067d366004612519565b604080516080808201835260008083526020808401829052838501829052606093840182905294815260d48552839020835191820184528054825260018101546001600160a01b03169482019490945260028401549281019290925260039092015460ff1615159181019190915290565b6040516102799190815181526020808301516001600160a01b0316908201526040808301519082015260609182015115159181019190915260800190565b34801561073857600080fd5b506097546001600160a01b03166102e5565b34801561075657600080fd5b5061026d610765366004612342565b6115b4565b34801561077657600080fd5b506107b9610785366004612519565b60d460205260009081526040902080546001820154600283015460039093015491926001600160a01b039091169160ff1684565b604080519485526001600160a01b0390931660208501529183015215156060820152608001610279565b3480156107ef57600080fd5b5061033f6107fe366004612757565b6115df565b34801561080f57600080fd5b506102a261081e36600461278c565b61161d565b34801561082f57600080fd5b5061033f600081565b34801561084457600080fd5b5061033f7fcbaaf41b181bb6e269c490e876a7c97711b57e21dd8e5528423cf57579726b3581565b34801561087857600080fd5b506102a261088736600461278c565b611738565b34801561089857600080fd5b5060ce546102e5906001600160a01b031681565b3480156108b857600080fd5b506102a26108c7366004612519565b61186e565b3480156108d857600080fd5b506102a26108e73660046127d0565b6118a7565b3480156108f857600080fd5b506102a2610907366004612342565b611942565b34801561091857600080fd5b506102a2610927366004612519565b611967565b34801561093857600080fd5b5061033f7f65d7a28e3265b37a6474929f336521b332c1681b933f6cb9f3376673440d862a81565b34801561096c57600080fd5b5061033f60cb5481565b34801561098257600080fd5b5061033f6119a0565b34801561099757600080fd5b5061033f7f0ce23c3e399818cfee81a7ab0880f714e53d7672b08df0fa62f2843416e1ea0981565b3480156109cb57600080fd5b506102a26109da366004612456565b6119ab565b3480156109eb57600080fd5b506102a26109fa366004612519565b611a24565b348015610a0b57600080fd5b50610a1f610a1a366004612519565b611a5d565b6040516102799190612816565b348015610a3857600080fd5b506102a2610a473660046123b2565b611c4a565b348015610a5857600080fd5b5061033f7f189ab7a9244df0848122154315af71fe140f3db0fe014031783b0946b8c9d2e381565b60006001600160e01b03198216637965db0b60e01b1480610ab157506301ffc9a760e01b6001600160e01b03198316145b92915050565b33600090815260cf602052604081205460ff1615159003610aeb5760405163fb83383760e01b815260040160405180910390fd5b8060d36000610af960c95490565b8152602080820192909252604001600020825181546001600160a01b0319166001600160a01b03909116178155908201516001820190610b39908261293d565b50604082015160028201805491151560ff19928316179055606083015160038301556080830151600483015560a0830151600583015560c08301516006830180549115159190921617905560e08201516007820190610b98908261293d565b505060c9805460010190555050565b50565b600082815260d5602090815260408083206001600160a01b0385168452825291829020805483518184028101840190945280845260609392830182828015610c1157602002820191906000526020600020905b815481526020019060010190808311610bfd575b5050505050905092915050565b6000610c2960ca5490565b905090565b6000610c3981611cc0565b600060d083604051610c4b91906129fc565b908152604051908190036020019020546001600160a01b0316905080610c835760405162b8005960e81b815260040160405180910390fd5b60d083604051610c9391906129fc565b90815260408051918290036020908101832080546001600160a01b03191690556001600160a01b038416600081815260cf909252919020805460ff1916905590610cde9085906129fc565b604051908190038120907f7ad6d7c73213a93d033801d72c729d90fb72104796b75ad799858b26f2b9872f90600090a3505050565b60d160205260009081526040902080548190610d2e906128b5565b80601f0160208091040260200160405190810160405280929190818152602001828054610d5a906128b5565b8015610da75780601f10610d7c57610100808354040283529160200191610da7565b820191906000526020600020905b815481529060010190602001808311610d8a57829003601f168201915b5050506001909301549192505060ff808216916101008104821691620100008204811691630100000090041685565b33600090815260cf602052604081205460ff1615159003610e0a5760405163fb83383760e01b815260040160405180910390fd5b6001600160a01b038216600090815260d16020526040902080548190610e2f906128b5565b9050600003610e51576040516365553c4160e11b815260040160405180910390fd5b6001600160a01b038316600090815260d16020526040902082518391908190610e7a908261293d565b50602082015160019190910180546040840151606085015160809095015161ffff1990921693151561ff00191693909317610100931515939093029290921763ffff00001916620100009315159390930263ff000000191692909217630100000091151591909102179055505050565b600082815260656020526040902060010154610f0581611cc0565b610f0f8383611cca565b505050565b60d360205260009081526040902080546001820180546001600160a01b039092169291610f40906128b5565b80601f0160208091040260200160405190810160405280929190818152602001828054610f6c906128b5565b8015610fb95780601f10610f8e57610100808354040283529160200191610fb9565b820191906000526020600020905b815481529060010190602001808311610f9c57829003601f168201915b50505060028401546003850154600486015460058701546006880154600789018054989960ff9687169995985093965091941692610ff6906128b5565b80601f0160208091040260200160405190810160405280929190818152602001828054611022906128b5565b801561106f5780601f106110445761010080835404028352916020019161106f565b820191906000526020600020905b81548152906001019060200180831161105257829003601f168201915b5050505050905088565b6001600160a01b03811633146110ee5760405162461bcd60e51b815260206004820152602f60248201527f416363657373436f6e74726f6c3a2063616e206f6e6c792072656e6f756e636560448201526e103937b632b9903337b91039b2b63360891b60648201526084015b60405180910390fd5b6110f88282611d50565b5050565b6040805160608101825260008082526020820181905281830152905160d2906111269084906129fc565b908152604080519182900360209081018320606084018352546001600160a01b038116845260ff600160a01b82048116151592850192909252600160a81b90041615159082015292915050565b33600090815260cf602052604081205460ff16151590036111a75760405163fb83383760e01b815260040160405180910390fd5b805160208083018051600086815260d484526040808220875181559351600180860180546001600160a01b0319166001600160a01b0393841617905582890151600287015560608901516003909601805460ff19169615159690961790955586835260d586528183209084168352855281208054808501825590825293902090920185905560ca8054909101905550505050565b600054610100900460ff161580801561125b5750600054600160ff909116105b806112755750303b158015611275575060005460ff166001145b6112d85760405162461bcd60e51b815260206004820152602e60248201527f496e697469616c697a61626c653a20636f6e747261637420697320616c72656160448201526d191e481a5b9a5d1a585b1a5e995960921b60648201526084016110e5565b6000805460ff1916600117905580156112fb576000805461ff0019166101001790555b611303611db7565b60ce80546001600160a01b0319166001600160a01b038416179055600060cb81905560cc8190556103e860cd5561133a9084611cca565b8015610f0f576000805461ff0019169055604051600181527f7f26b83ff96e1f2b6a682f133852f6798a09c465da95921460cefb38474024989060200160405180910390a1505050565b33600090815260cf602052604081205460ff16151590036113b85760405163fb83383760e01b815260040160405180910390fd5b600060d2836040516113ca91906129fc565b90815260405190819003602001902080549091506001600160a01b03161561140557604051631192a36960e31b815260040160405180910390fd5b8160d28460405161141691906129fc565b90815260408051918290036020908101909220835181549385015194909201511515600160a81b0260ff60a81b19941515600160a01b026001600160a81b03199094166001600160a01b03909316929092179290921792909216919091179055505050565b6040805160a0810182526060808252600060208301819052928201839052810182905260808101919091526001600160a01b038216600090815260d1602052604090819020815160a081019092528054829082906114d8906128b5565b80601f0160208091040260200160405190810160405280929190818152602001828054611504906128b5565b80156115515780601f1061152657610100808354040283529160200191611551565b820191906000526020600020905b81548152906001019060200180831161153457829003601f168201915b50505091835250506001919091015460ff808216151560208401526101008204811615156040840152620100008204811615156060840152630100000090910416151560809091015292915050565b6115a8611de6565b6115b26000611e40565b565b60009182526065602090815260408084206001600160a01b0393909316845291905290205460ff1690565b60d5602052826000526040600020602052816000526040600020818154811061160757600080fd5b9060005260206000200160009250925050505481565b600061162881611cc0565b6001600160a01b03821661164f57604051633cefac3360e01b815260040160405180910390fd5b60006001600160a01b031660d08460405161166a91906129fc565b908152604051908190036020019020546001600160a01b0316146116a157604051637044eb7960e01b815260040160405180910390fd5b8160d0846040516116b291906129fc565b908152604080516020928190038301812080546001600160a01b0319166001600160a01b03958616179055928516600081815260cf9093529120805460ff19166001179055906117039085906129fc565b604051908190038120907f8b4ef7d4e5bc8f098e6f637ac0acf4aee47b3f027efea6307264b06b4bc9d29890600090a3505050565b600061174381611cc0565b6001600160a01b03821661176a57604051633cefac3360e01b815260040160405180910390fd5b600060d08460405161177c91906129fc565b908152604051908190036020019020546001600160a01b03169050806117b45760405162b8005960e81b815260040160405180910390fd5b6001600160a01b038116600090815260cf602052604090819020805460ff1916905551839060d0906117e79087906129fc565b908152604080516020928190038301812080546001600160a01b0319166001600160a01b03958616179055928616600081815260cf9093529120805460ff19166001179055906118389086906129fc565b604051908190038120907ff611fec7babefd259c57ea5b6006acff8140ab17bb816c65ba0aa7e36c09caa890600090a350505050565b33600090815260cf602052604081205460ff16151590036118a25760405163fb83383760e01b815260040160405180910390fd5b60cc55565b33600090815260cf602052604081205460ff16151590036118db5760405163fb83383760e01b815260040160405180910390fd5b600082815260d36020526040902080546001600160a01b0316611911576040516336f7ce4f60e11b815260040160405180910390fd5b60a08201516005820155606082015160038201556040909101516002909101805460ff191691151591909117905550565b60008281526065602052604090206001015461195d81611cc0565b610f0f8383611d50565b33600090815260cf602052604081205460ff161515900361199b5760405163fb83383760e01b815260040160405180910390fd5b60cd55565b6000610c2960c95490565b33600090815260cf602052604081205460ff16151590036119df5760405163fb83383760e01b815260040160405180910390fd5b6001600160a01b038216600090815260d16020526040902080548190611a04906128b5565b159050610e515760405163096bb4a360e41b815260040160405180910390fd5b33600090815260cf602052604081205460ff1615159003611a585760405163fb83383760e01b815260040160405180910390fd5b60cb55565b611ab260405180610100016040528060006001600160a01b0316815260200160608152602001600015158152602001600081526020016000815260200160008152602001600015158152602001606081525090565b600082815260d360209081526040918290208251610100810190935280546001600160a01b031683526001810180549192840191611aef906128b5565b80601f0160208091040260200160405190810160405280929190818152602001828054611b1b906128b5565b8015611b685780601f10611b3d57610100808354040283529160200191611b68565b820191906000526020600020905b815481529060010190602001808311611b4b57829003601f168201915b5050509183525050600282015460ff90811615156020830152600383015460408301526004830154606083015260058301546080830152600683015416151560a082015260078201805460c090920191611bc1906128b5565b80601f0160208091040260200160405190810160405280929190818152602001828054611bed906128b5565b8015611c3a5780601f10611c0f57610100808354040283529160200191611c3a565b820191906000526020600020905b815481529060010190602001808311611c1d57829003601f168201915b5050505050815250509050919050565b611c52611de6565b6001600160a01b038116611cb75760405162461bcd60e51b815260206004820152602660248201527f4f776e61626c653a206e6577206f776e657220697320746865207a65726f206160448201526564647265737360d01b60648201526084016110e5565b610ba781611e40565b610ba78133611e92565b611cd482826115b4565b6110f85760008281526065602090815260408083206001600160a01b03851684529091529020805460ff19166001179055611d0c3390565b6001600160a01b0316816001600160a01b0316837f2f8788117e7eff1d82e926ec794901d17c78024a50270940304540a733656f0d60405160405180910390a45050565b611d5a82826115b4565b156110f85760008281526065602090815260408083206001600160a01b0385168085529252808320805460ff1916905551339285917ff6391f5c32d9c69d2a47ea670b442974b53935d1edc7fd64eb21e047a839171b9190a45050565b600054610100900460ff16611dde5760405162461bcd60e51b81526004016110e590612a18565b6115b2611eeb565b6097546001600160a01b031633146115b25760405162461bcd60e51b815260206004820181905260248201527f4f776e61626c653a2063616c6c6572206973206e6f7420746865206f776e657260448201526064016110e5565b609780546001600160a01b038381166001600160a01b0319831681179093556040519116919082907f8be0079c531659141344cd1fd0a4f28419497f9722a3daafe3b4186f6b6457e090600090a35050565b611e9c82826115b4565b6110f857611ea981611f1b565b611eb4836020611f2d565b604051602001611ec5929190612a63565b60408051601f198184030181529082905262461bcd60e51b82526110e591600401612ad2565b600054610100900460ff16611f125760405162461bcd60e51b81526004016110e590612a18565b6115b233611e40565b6060610ab16001600160a01b03831660145b60606000611f3c836002612afb565b611f47906002612b12565b6001600160401b03811115611f5e57611f5e6120f9565b6040519080825280601f01601f191660200182016040528015611f88576020820181803683370190505b509050600360fc1b81600081518110611fa357611fa3612b25565b60200101906001600160f81b031916908160001a905350600f60fb1b81600181518110611fd257611fd2612b25565b60200101906001600160f81b031916908160001a9053506000611ff6846002612afb565b612001906001612b12565b90505b6001811115612079576f181899199a1a9b1b9c1cb0b131b232b360811b85600f166010811061203557612035612b25565b1a60f81b82828151811061204b5761204b612b25565b60200101906001600160f81b031916908160001a90535060049490941c9361207281612b3b565b9050612004565b5083156120c85760405162461bcd60e51b815260206004820181905260248201527f537472696e67733a20686578206c656e67746820696e73756666696369656e7460448201526064016110e5565b9392505050565b6000602082840312156120e157600080fd5b81356001600160e01b0319811681146120c857600080fd5b634e487b7160e01b600052604160045260246000fd5b60405161010081016001600160401b0381118282101715612132576121326120f9565b60405290565b60405160a081016001600160401b0381118282101715612132576121326120f9565b80356001600160a01b038116811461217157600080fd5b919050565b600082601f83011261218757600080fd5b81356001600160401b03808211156121a1576121a16120f9565b604051601f8301601f19908116603f011681019082821181831017156121c9576121c96120f9565b816040528381528660208588010111156121e257600080fd5b836020870160208301376000602085830101528094505050505092915050565b8035801515811461217157600080fd5b6000610100828403121561222557600080fd5b61222d61210f565b90506122388261215a565b815260208201356001600160401b038082111561225457600080fd5b61226085838601612176565b602084015261227160408501612202565b6040840152606084013560608401526080840135608084015260a084013560a08401526122a060c08501612202565b60c084015260e08401359150808211156122b957600080fd5b506122c684828501612176565b60e08301525092915050565b6000602082840312156122e457600080fd5b81356001600160401b038111156122fa57600080fd5b61230684828501612212565b949350505050565b60006020828403121561232057600080fd5b81356001600160401b0381111561233657600080fd5b61230684828501612176565b6000806040838503121561235557600080fd5b823591506123656020840161215a565b90509250929050565b6020808252825182820181905260009190848201906040850190845b818110156123a65783518352928401929184019160010161238a565b50909695505050505050565b6000602082840312156123c457600080fd5b6120c88261215a565b60005b838110156123e85781810151838201526020016123d0565b50506000910152565b600081518084526124098160208601602086016123cd565b601f01601f19169290920160200192915050565b60a08152600061243060a08301886123f1565b951515602083015250921515604084015290151560608301521515608090910152919050565b6000806040838503121561246957600080fd5b6124728361215a565b915060208301356001600160401b038082111561248e57600080fd5b9084019060a082870312156124a257600080fd5b6124aa612138565b8235828111156124b957600080fd5b6124c588828601612176565b8252506124d460208401612202565b60208201526124e560408401612202565b60408201526124f660608401612202565b606082015261250760808401612202565b60808201528093505050509250929050565b60006020828403121561252b57600080fd5b5035919050565b6001600160a01b0389168152610100602082018190526000906125578382018b6123f1565b905088151560408401528760608401528660808401528560a084015284151560c084015282810360e084015261258d81856123f1565b9b9a5050505050505050505050565b60008082840360a08112156125b057600080fd5b833592506080601f19820112156125c657600080fd5b50604051608081018181106001600160401b03821117156125e9576125e96120f9565b8060405250602084013581526126016040850161215a565b60208201526060840135604082015261261c60808501612202565b6060820152809150509250929050565b6000806040838503121561263f57600080fd5b6126488361215a565b91506123656020840161215a565b600080828403608081121561266a57600080fd5b83356001600160401b038082111561268157600080fd5b61268d87838801612176565b94506060601f19840112156126a157600080fd5b604051925060608301915082821081831117156126c0576126c06120f9565b506040526126d06020850161215a565b81526126de60408501612202565b60208201526126ef60608501612202565b6040820152809150509250929050565b602081526000825160a0602084015261271b60c08401826123f1565b90506020840151151560408401526040840151151560608401526060840151151560808401526080840151151560a08401528091505092915050565b60008060006060848603121561276c57600080fd5b8335925061277c6020850161215a565b9150604084013590509250925092565b6000806040838503121561279f57600080fd5b82356001600160401b038111156127b557600080fd5b6127c185828601612176565b9250506123656020840161215a565b600080604083850312156127e357600080fd5b8235915060208301356001600160401b0381111561280057600080fd5b61280c85828601612212565b9150509250929050565b602080825282516001600160a01b03168282015282015161010060408301819052600091906128496101208501836123f1565b9150604085015161285e606086018215159052565b5060608501516080850152608085015160a085015260a085015160c085015260c085015161289060e086018215159052565b5060e0850151848303601f1901828601526128ab83826123f1565b9695505050505050565b600181811c908216806128c957607f821691505b6020821081036128e957634e487b7160e01b600052602260045260246000fd5b50919050565b601f821115610f0f57600081815260208120601f850160051c810160208610156129165750805b601f850160051c820191505b8181101561293557828155600101612922565b505050505050565b81516001600160401b03811115612956576129566120f9565b61296a8161296484546128b5565b846128ef565b602080601f83116001811461299f57600084156129875750858301515b600019600386901b1c1916600185901b178555612935565b600085815260208120601f198616915b828110156129ce578886015182559484019460019091019084016129af565b50858210156129ec5787850151600019600388901b60f8161c191681555b5050505050600190811b01905550565b60008251612a0e8184602087016123cd565b9190910192915050565b6020808252602b908201527f496e697469616c697a61626c653a20636f6e7472616374206973206e6f74206960408201526a6e697469616c697a696e6760a81b606082015260800190565b76020b1b1b2b9b9a1b7b73a3937b61d1030b1b1b7bab73a1604d1b815260008351612a958160178501602088016123cd565b7001034b99036b4b9b9b4b733903937b6329607d1b6017918401918201528351612ac68160288401602088016123cd565b01602801949350505050565b6020815260006120c860208301846123f1565b634e487b7160e01b600052601160045260246000fd5b8082028115828204841417610ab157610ab1612ae5565b80820180821115610ab157610ab1612ae5565b634e487b7160e01b600052603260045260246000fd5b600081612b4a57612b4a612ae5565b50600019019056fea2646970667358221220304e055de35f1bfc0c3d49b1f4eab5205bc5964ce7dd29d3a2848ab4b23db7c564736f6c63430008110033",
  "linkReferences": {},
  "deployedLinkReferences": {}
}