{
  "_format": "hh-sol-artifact-1",
  "contractName": "TheBadgeStore",
  "sourceName": "src/contracts/thebadge/TheBadgeStore.sol",
  "abi": [
    {
      "inputs": [],
      "stateMutability": "nonpayable",
      "type": "constructor"
    },
    {
      "inputs": [],
      "name": "AccessControlBadConfirmation",
      "type": "error"
    },
    {
      "inputs": [
        {
          "internalType": "address",
          "name": "account",
          "type": "address"
        },
        {
          "internalType": "bytes32",
          "name": "neededRole",
          "type": "bytes32"
        }
      ],
      "name": "AccessControlUnauthorizedAccount",
      "type": "error"
    },
    {
      "inputs": [],
      "name": "InvalidInitialization",
      "type": "error"
    },
    {
      "inputs": [],
      "name": "NotInitializing",
      "type": "error"
    },
    {
      "inputs": [
        {
          "internalType": "address",
          "name": "owner",
          "type": "address"
        }
      ],
      "name": "OwnableInvalidOwner",
      "type": "error"
    },
    {
      "inputs": [
        {
          "internalType": "address",
          "name": "account",
          "type": "address"
        }
      ],
      "name": "OwnableUnauthorizedAccount",
      "type": "error"
    },
    {
      "inputs": [],
      "name": "TheBadge__Store_ContractNameAlreadyExists",
      "type": "error"
    },
    {
      "inputs": [],
      "name": "TheBadge__Store_InvalidBadgeID",
      "type": "error"
    },
    {
      "inputs": [],
      "name": "TheBadge__Store_InvalidContractAddress",
      "type": "error"
    },
    {
      "inputs": [],
      "name": "TheBadge__Store_InvalidContractName",
      "type": "error"
    },
    {
      "inputs": [],
      "name": "TheBadge__Store_InvalidUserAddress",
      "type": "error"
    },
    {
      "inputs": [],
      "name": "TheBadge__Store_OperationNotPermitted",
      "type": "error"
    },
    {
      "inputs": [],
      "name": "TheBadge__addBadgeModelController_alreadySet",
      "type": "error"
    },
    {
      "inputs": [],
      "name": "TheBadge__addBadgeModelController_notFound",
      "type": "error"
    },
    {
      "inputs": [],
      "name": "TheBadge__badgeModel_badgeModelNotFound",
      "type": "error"
    },
    {
      "inputs": [],
      "name": "TheBadge__registerUser_alreadyRegistered",
      "type": "error"
    },
    {
      "inputs": [],
      "name": "TheBadge__updateUser_notFound",
      "type": "error"
    },
    {
      "anonymous": false,
      "inputs": [
        {
          "indexed": true,
          "internalType": "string",
          "name": "_contractName",
          "type": "string"
        },
        {
          "indexed": true,
          "internalType": "address",
          "name": "contractAddress",
          "type": "address"
        }
      ],
      "name": "ContractAdded",
      "type": "event"
    },
    {
      "anonymous": false,
      "inputs": [
        {
          "indexed": true,
          "internalType": "string",
          "name": "_contractName",
          "type": "string"
        },
        {
          "indexed": true,
          "internalType": "address",
          "name": "contractAddress",
          "type": "address"
        }
      ],
      "name": "ContractRemoved",
      "type": "event"
    },
    {
      "anonymous": false,
      "inputs": [
        {
          "indexed": true,
          "internalType": "string",
          "name": "_contractName",
          "type": "string"
        },
        {
          "indexed": true,
          "internalType": "address",
          "name": "contractAddress",
          "type": "address"
        }
      ],
      "name": "ContractUpdated",
      "type": "event"
    },
    {
      "anonymous": false,
      "inputs": [
        {
          "indexed": false,
          "internalType": "uint64",
          "name": "version",
          "type": "uint64"
        }
      ],
      "name": "Initialized",
      "type": "event"
    },
    {
      "anonymous": false,
      "inputs": [
        {
          "indexed": true,
          "internalType": "address",
          "name": "previousOwner",
          "type": "address"
        },
        {
          "indexed": true,
          "internalType": "address",
          "name": "newOwner",
          "type": "address"
        }
      ],
      "name": "OwnershipTransferred",
      "type": "event"
    },
    {
      "anonymous": false,
      "inputs": [
        {
          "indexed": true,
          "internalType": "bytes32",
          "name": "role",
          "type": "bytes32"
        },
        {
          "indexed": true,
          "internalType": "bytes32",
          "name": "previousAdminRole",
          "type": "bytes32"
        },
        {
          "indexed": true,
          "internalType": "bytes32",
          "name": "newAdminRole",
          "type": "bytes32"
        }
      ],
      "name": "RoleAdminChanged",
      "type": "event"
    },
    {
      "anonymous": false,
      "inputs": [
        {
          "indexed": true,
          "internalType": "bytes32",
          "name": "role",
          "type": "bytes32"
        },
        {
          "indexed": true,
          "internalType": "address",
          "name": "account",
          "type": "address"
        },
        {
          "indexed": true,
          "internalType": "address",
          "name": "sender",
          "type": "address"
        }
      ],
      "name": "RoleGranted",
      "type": "event"
    },
    {
      "anonymous": false,
      "inputs": [
        {
          "indexed": true,
          "internalType": "bytes32",
          "name": "role",
          "type": "bytes32"
        },
        {
          "indexed": true,
          "internalType": "address",
          "name": "account",
          "type": "address"
        },
        {
          "indexed": true,
          "internalType": "address",
          "name": "sender",
          "type": "address"
        }
      ],
      "name": "RoleRevoked",
      "type": "event"
    },
    {
      "inputs": [],
      "name": "CLAIMER_ROLE",
      "outputs": [
        {
          "internalType": "bytes32",
          "name": "",
          "type": "bytes32"
        }
      ],
      "stateMutability": "view",
      "type": "function"
    },
    {
      "inputs": [],
      "name": "DEFAULT_ADMIN_ROLE",
      "outputs": [
        {
          "internalType": "bytes32",
          "name": "",
          "type": "bytes32"
        }
      ],
      "stateMutability": "view",
      "type": "function"
    },
    {
      "inputs": [],
      "name": "PAUSER_ROLE",
      "outputs": [
        {
          "internalType": "bytes32",
          "name": "",
          "type": "bytes32"
        }
      ],
      "stateMutability": "view",
      "type": "function"
    },
    {
      "inputs": [],
      "name": "UPGRADER_ROLE",
      "outputs": [
        {
          "internalType": "bytes32",
          "name": "",
          "type": "bytes32"
        }
      ],
      "stateMutability": "view",
      "type": "function"
    },
    {
      "inputs": [],
      "name": "URI_SETTER_ROLE",
      "outputs": [
        {
          "internalType": "bytes32",
          "name": "",
          "type": "bytes32"
        }
      ],
      "stateMutability": "view",
      "type": "function"
    },
    {
      "inputs": [],
      "name": "USER_MANAGER_ROLE",
      "outputs": [
        {
          "internalType": "bytes32",
          "name": "",
          "type": "bytes32"
        }
      ],
      "stateMutability": "view",
      "type": "function"
    },
    {
      "inputs": [],
      "name": "VERIFIER_ROLE",
      "outputs": [
        {
          "internalType": "bytes32",
          "name": "",
          "type": "bytes32"
        }
      ],
      "stateMutability": "view",
      "type": "function"
    },
    {
      "inputs": [
        {
          "internalType": "uint256",
          "name": "badgeId",
          "type": "uint256"
        },
        {
          "components": [
            {
              "internalType": "uint256",
              "name": "badgeModelId",
              "type": "uint256"
            },
            {
              "internalType": "address",
              "name": "account",
              "type": "address"
            },
            {
              "internalType": "uint256",
              "name": "dueDate",
              "type": "uint256"
            },
            {
              "internalType": "bool",
              "name": "initialized",
              "type": "bool"
            }
          ],
          "internalType": "struct TheBadgeStore.Badge",
          "name": "badge",
          "type": "tuple"
        }
      ],
      "name": "addBadge",
      "outputs": [],
      "stateMutability": "nonpayable",
      "type": "function"
    },
    {
      "inputs": [
        {
          "components": [
            {
              "internalType": "address",
              "name": "creator",
              "type": "address"
            },
            {
              "internalType": "string",
              "name": "controllerName",
              "type": "string"
            },
            {
              "internalType": "bool",
              "name": "paused",
              "type": "bool"
            },
            {
              "internalType": "uint256",
              "name": "mintCreatorFee",
              "type": "uint256"
            },
            {
              "internalType": "uint256",
              "name": "validFor",
              "type": "uint256"
            },
            {
              "internalType": "uint256",
              "name": "mintProtocolFee",
              "type": "uint256"
            },
            {
              "internalType": "bool",
              "name": "initialized",
              "type": "bool"
            },
            {
              "internalType": "string",
              "name": "version",
              "type": "string"
            },
            {
              "internalType": "bool",
              "name": "suspended",
              "type": "bool"
            },
            {
              "internalType": "uint256",
              "name": "versionV2",
              "type": "uint256"
            },
            {
              "internalType": "bool",
              "name": "deprecated",
              "type": "bool"
            },
            {
              "internalType": "string",
              "name": "metadata",
              "type": "string"
            }
          ],
          "internalType": "struct TheBadgeStore.BadgeModel",
          "name": "badgeModel",
          "type": "tuple"
        }
      ],
      "name": "addBadgeModel",
      "outputs": [],
      "stateMutability": "nonpayable",
      "type": "function"
    },
    {
      "inputs": [
        {
          "internalType": "string",
          "name": "controllerName",
          "type": "string"
        },
        {
          "components": [
            {
              "internalType": "address",
              "name": "controller",
              "type": "address"
            },
            {
              "internalType": "bool",
              "name": "paused",
              "type": "bool"
            },
            {
              "internalType": "bool",
              "name": "initialized",
              "type": "bool"
            }
          ],
          "internalType": "struct TheBadgeStore.BadgeModelController",
          "name": "badgeModelController",
          "type": "tuple"
        }
      ],
      "name": "addBadgeModelController",
      "outputs": [],
      "stateMutability": "nonpayable",
      "type": "function"
    },
    {
      "inputs": [
        {
          "internalType": "string",
          "name": "_contractName",
          "type": "string"
        },
        {
          "internalType": "address",
          "name": "_contractAddress",
          "type": "address"
        }
      ],
      "name": "addPermittedContract",
      "outputs": [],
      "stateMutability": "nonpayable",
      "type": "function"
    },
    {
      "inputs": [
        {
          "internalType": "address",
          "name": "",
          "type": "address"
        }
      ],
      "name": "allowedContractAddresses",
      "outputs": [
        {
          "internalType": "bool",
          "name": "",
          "type": "bool"
        }
      ],
      "stateMutability": "view",
      "type": "function"
    },
    {
      "inputs": [
        {
          "internalType": "string",
          "name": "",
          "type": "string"
        }
      ],
      "name": "allowedContractAddressesByContractName",
      "outputs": [
        {
          "internalType": "address",
          "name": "",
          "type": "address"
        }
      ],
      "stateMutability": "view",
      "type": "function"
    },
    {
      "inputs": [
        {
          "internalType": "string",
          "name": "",
          "type": "string"
        }
      ],
      "name": "badgeModelControllers",
      "outputs": [
        {
          "internalType": "address",
          "name": "controller",
          "type": "address"
        },
        {
          "internalType": "bool",
          "name": "paused",
          "type": "bool"
        },
        {
          "internalType": "bool",
          "name": "initialized",
          "type": "bool"
        }
      ],
      "stateMutability": "view",
      "type": "function"
    },
    {
      "inputs": [
        {
          "internalType": "address",
          "name": "",
          "type": "address"
        }
      ],
      "name": "badgeModelControllersByAddress",
      "outputs": [
        {
          "internalType": "address",
          "name": "controller",
          "type": "address"
        },
        {
          "internalType": "bool",
          "name": "paused",
          "type": "bool"
        },
        {
          "internalType": "bool",
          "name": "initialized",
          "type": "bool"
        }
      ],
      "stateMutability": "view",
      "type": "function"
    },
    {
      "inputs": [
        {
          "internalType": "uint256",
          "name": "",
          "type": "uint256"
        }
      ],
      "name": "badgeModels",
      "outputs": [
        {
          "internalType": "address",
          "name": "creator",
          "type": "address"
        },
        {
          "internalType": "string",
          "name": "controllerName",
          "type": "string"
        },
        {
          "internalType": "bool",
          "name": "paused",
          "type": "bool"
        },
        {
          "internalType": "uint256",
          "name": "mintCreatorFee",
          "type": "uint256"
        },
        {
          "internalType": "uint256",
          "name": "validFor",
          "type": "uint256"
        },
        {
          "internalType": "uint256",
          "name": "mintProtocolFee",
          "type": "uint256"
        },
        {
          "internalType": "bool",
          "name": "initialized",
          "type": "bool"
        },
        {
          "internalType": "string",
          "name": "version",
          "type": "string"
        },
        {
          "internalType": "bool",
          "name": "suspended",
          "type": "bool"
        },
        {
          "internalType": "uint256",
          "name": "versionV2",
          "type": "uint256"
        },
        {
          "internalType": "bool",
          "name": "deprecated",
          "type": "bool"
        },
        {
          "internalType": "string",
          "name": "metadata",
          "type": "string"
        }
      ],
      "stateMutability": "view",
      "type": "function"
    },
    {
      "inputs": [
        {
          "internalType": "uint256",
          "name": "",
          "type": "uint256"
        }
      ],
      "name": "badges",
      "outputs": [
        {
          "internalType": "uint256",
          "name": "badgeModelId",
          "type": "uint256"
        },
        {
          "internalType": "address",
          "name": "account",
          "type": "address"
        },
        {
          "internalType": "uint256",
          "name": "dueDate",
          "type": "uint256"
        },
        {
          "internalType": "bool",
          "name": "initialized",
          "type": "bool"
        }
      ],
      "stateMutability": "view",
      "type": "function"
    },
    {
      "inputs": [],
      "name": "createBadgeModelProtocolFee",
      "outputs": [
        {
          "internalType": "uint256",
          "name": "",
          "type": "uint256"
        }
      ],
      "stateMutability": "view",
      "type": "function"
    },
    {
      "inputs": [
        {
          "internalType": "address",
          "name": "userAddress",
          "type": "address"
        },
        {
          "components": [
            {
              "internalType": "string",
              "name": "metadata",
              "type": "string"
            },
            {
              "internalType": "bool",
              "name": "isCompany",
              "type": "bool"
            },
            {
              "internalType": "bool",
              "name": "isCreator",
              "type": "bool"
            },
            {
              "internalType": "bool",
              "name": "suspended",
              "type": "bool"
            },
            {
              "internalType": "bool",
              "name": "initialized",
              "type": "bool"
            }
          ],
          "internalType": "struct TheBadgeStore.User",
          "name": "newUser",
          "type": "tuple"
        }
      ],
      "name": "createUser",
      "outputs": [],
      "stateMutability": "nonpayable",
      "type": "function"
    },
    {
      "inputs": [],
      "name": "feeCollector",
      "outputs": [
        {
          "internalType": "address",
          "name": "",
          "type": "address"
        }
      ],
      "stateMutability": "view",
      "type": "function"
    },
    {
      "inputs": [
        {
          "internalType": "uint256",
          "name": "badgeId",
          "type": "uint256"
        }
      ],
      "name": "getBadge",
      "outputs": [
        {
          "components": [
            {
              "internalType": "uint256",
              "name": "badgeModelId",
              "type": "uint256"
            },
            {
              "internalType": "address",
              "name": "account",
              "type": "address"
            },
            {
              "internalType": "uint256",
              "name": "dueDate",
              "type": "uint256"
            },
            {
              "internalType": "bool",
              "name": "initialized",
              "type": "bool"
            }
          ],
          "internalType": "struct TheBadgeStore.Badge",
          "name": "",
          "type": "tuple"
        }
      ],
      "stateMutability": "view",
      "type": "function"
    },
    {
      "inputs": [
        {
          "internalType": "uint256",
          "name": "badgeModelId",
          "type": "uint256"
        }
      ],
      "name": "getBadgeModel",
      "outputs": [
        {
          "components": [
            {
              "internalType": "address",
              "name": "creator",
              "type": "address"
            },
            {
              "internalType": "string",
              "name": "controllerName",
              "type": "string"
            },
            {
              "internalType": "bool",
              "name": "paused",
              "type": "bool"
            },
            {
              "internalType": "uint256",
              "name": "mintCreatorFee",
              "type": "uint256"
            },
            {
              "internalType": "uint256",
              "name": "validFor",
              "type": "uint256"
            },
            {
              "internalType": "uint256",
              "name": "mintProtocolFee",
              "type": "uint256"
            },
            {
              "internalType": "bool",
              "name": "initialized",
              "type": "bool"
            },
            {
              "internalType": "string",
              "name": "version",
              "type": "string"
            },
            {
              "internalType": "bool",
              "name": "suspended",
              "type": "bool"
            },
            {
              "internalType": "uint256",
              "name": "versionV2",
              "type": "uint256"
            },
            {
              "internalType": "bool",
              "name": "deprecated",
              "type": "bool"
            },
            {
              "internalType": "string",
              "name": "metadata",
              "type": "string"
            }
          ],
          "internalType": "struct TheBadgeStore.BadgeModel",
          "name": "",
          "type": "tuple"
        }
      ],
      "stateMutability": "view",
      "type": "function"
    },
    {
      "inputs": [
        {
          "internalType": "string",
          "name": "controllerName",
          "type": "string"
        }
      ],
      "name": "getBadgeModelController",
      "outputs": [
        {
          "components": [
            {
              "internalType": "address",
              "name": "controller",
              "type": "address"
            },
            {
              "internalType": "bool",
              "name": "paused",
              "type": "bool"
            },
            {
              "internalType": "bool",
              "name": "initialized",
              "type": "bool"
            }
          ],
          "internalType": "struct TheBadgeStore.BadgeModelController",
          "name": "",
          "type": "tuple"
        }
      ],
      "stateMutability": "view",
      "type": "function"
    },
    {
      "inputs": [
        {
          "internalType": "address",
          "name": "controllerAddress",
          "type": "address"
        }
      ],
      "name": "getBadgeModelControllerByAddress",
      "outputs": [
        {
          "components": [
            {
              "internalType": "address",
              "name": "controller",
              "type": "address"
            },
            {
              "internalType": "bool",
              "name": "paused",
              "type": "bool"
            },
            {
              "internalType": "bool",
              "name": "initialized",
              "type": "bool"
            }
          ],
          "internalType": "struct TheBadgeStore.BadgeModelController",
          "name": "",
          "type": "tuple"
        }
      ],
      "stateMutability": "view",
      "type": "function"
    },
    {
      "inputs": [],
      "name": "getCurrentBadgeIdCounter",
      "outputs": [
        {
          "internalType": "uint256",
          "name": "",
          "type": "uint256"
        }
      ],
      "stateMutability": "view",
      "type": "function"
    },
    {
      "inputs": [],
      "name": "getCurrentBadgeModelsIdCounter",
      "outputs": [
        {
          "internalType": "uint256",
          "name": "",
          "type": "uint256"
        }
      ],
      "stateMutability": "view",
      "type": "function"
    },
    {
      "inputs": [
        {
          "internalType": "bytes32",
          "name": "role",
          "type": "bytes32"
        }
      ],
      "name": "getRoleAdmin",
      "outputs": [
        {
          "internalType": "bytes32",
          "name": "",
          "type": "bytes32"
        }
      ],
      "stateMutability": "view",
      "type": "function"
    },
    {
      "inputs": [
        {
          "internalType": "address",
          "name": "userAddress",
          "type": "address"
        }
      ],
      "name": "getUser",
      "outputs": [
        {
          "components": [
            {
              "internalType": "string",
              "name": "metadata",
              "type": "string"
            },
            {
              "internalType": "bool",
              "name": "isCompany",
              "type": "bool"
            },
            {
              "internalType": "bool",
              "name": "isCreator",
              "type": "bool"
            },
            {
              "internalType": "bool",
              "name": "suspended",
              "type": "bool"
            },
            {
              "internalType": "bool",
              "name": "initialized",
              "type": "bool"
            }
          ],
          "internalType": "struct TheBadgeStore.User",
          "name": "",
          "type": "tuple"
        }
      ],
      "stateMutability": "view",
      "type": "function"
    },
    {
      "inputs": [
        {
          "internalType": "uint256",
          "name": "badgeModelId",
          "type": "uint256"
        },
        {
          "internalType": "address",
          "name": "userAddress",
          "type": "address"
        }
      ],
      "name": "getUserMintedBadgesByBadgeModel",
      "outputs": [
        {
          "internalType": "uint256[]",
          "name": "",
          "type": "uint256[]"
        }
      ],
      "stateMutability": "view",
      "type": "function"
    },
    {
      "inputs": [
        {
          "internalType": "bytes32",
          "name": "role",
          "type": "bytes32"
        },
        {
          "internalType": "address",
          "name": "account",
          "type": "address"
        }
      ],
      "name": "grantRole",
      "outputs": [],
      "stateMutability": "nonpayable",
      "type": "function"
    },
    {
      "inputs": [
        {
          "internalType": "bytes32",
          "name": "role",
          "type": "bytes32"
        },
        {
          "internalType": "address",
          "name": "account",
          "type": "address"
        }
      ],
      "name": "hasRole",
      "outputs": [
        {
          "internalType": "bool",
          "name": "",
          "type": "bool"
        }
      ],
      "stateMutability": "view",
      "type": "function"
    },
    {
      "inputs": [
        {
          "internalType": "address",
          "name": "admin",
          "type": "address"
        },
        {
          "internalType": "address",
          "name": "_feeCollector",
          "type": "address"
        }
      ],
      "name": "initialize",
      "outputs": [],
      "stateMutability": "nonpayable",
      "type": "function"
    },
    {
      "inputs": [],
      "name": "mintBadgeProtocolDefaultFeeInBps",
      "outputs": [
        {
          "internalType": "uint256",
          "name": "",
          "type": "uint256"
        }
      ],
      "stateMutability": "view",
      "type": "function"
    },
    {
      "inputs": [],
      "name": "owner",
      "outputs": [
        {
          "internalType": "address",
          "name": "",
          "type": "address"
        }
      ],
      "stateMutability": "view",
      "type": "function"
    },
    {
      "inputs": [],
      "name": "registerUserProtocolFee",
      "outputs": [
        {
          "internalType": "uint256",
          "name": "",
          "type": "uint256"
        }
      ],
      "stateMutability": "view",
      "type": "function"
    },
    {
      "inputs": [
        {
          "internalType": "address",
          "name": "",
          "type": "address"
        }
      ],
      "name": "registeredUsers",
      "outputs": [
        {
          "internalType": "string",
          "name": "metadata",
          "type": "string"
        },
        {
          "internalType": "bool",
          "name": "isCompany",
          "type": "bool"
        },
        {
          "internalType": "bool",
          "name": "isCreator",
          "type": "bool"
        },
        {
          "internalType": "bool",
          "name": "suspended",
          "type": "bool"
        },
        {
          "internalType": "bool",
          "name": "initialized",
          "type": "bool"
        }
      ],
      "stateMutability": "view",
      "type": "function"
    },
    {
      "inputs": [
        {
          "internalType": "string",
          "name": "_contractName",
          "type": "string"
        }
      ],
      "name": "removePermittedContract",
      "outputs": [],
      "stateMutability": "nonpayable",
      "type": "function"
    },
    {
      "inputs": [],
      "name": "renounceOwnership",
      "outputs": [],
      "stateMutability": "nonpayable",
      "type": "function"
    },
    {
      "inputs": [
        {
          "internalType": "bytes32",
          "name": "role",
          "type": "bytes32"
        },
        {
          "internalType": "address",
          "name": "callerConfirmation",
          "type": "address"
        }
      ],
      "name": "renounceRole",
      "outputs": [],
      "stateMutability": "nonpayable",
      "type": "function"
    },
    {
      "inputs": [
        {
          "internalType": "bytes32",
          "name": "role",
          "type": "bytes32"
        },
        {
          "internalType": "address",
          "name": "account",
          "type": "address"
        }
      ],
      "name": "revokeRole",
      "outputs": [],
      "stateMutability": "nonpayable",
      "type": "function"
    },
    {
      "inputs": [
        {
          "internalType": "bytes4",
          "name": "interfaceId",
          "type": "bytes4"
        }
      ],
      "name": "supportsInterface",
      "outputs": [
        {
          "internalType": "bool",
          "name": "",
          "type": "bool"
        }
      ],
      "stateMutability": "view",
      "type": "function"
    },
    {
      "inputs": [
        {
          "internalType": "uint256",
          "name": "badgeModelId",
          "type": "uint256"
        },
        {
          "internalType": "bool",
          "name": "suspended",
          "type": "bool"
        }
      ],
      "name": "suspendBadgeModel",
      "outputs": [],
      "stateMutability": "nonpayable",
      "type": "function"
    },
    {
      "inputs": [
        {
          "internalType": "uint256",
          "name": "badgeId",
          "type": "uint256"
        },
        {
          "internalType": "address",
          "name": "origin",
          "type": "address"
        },
        {
          "internalType": "address",
          "name": "destination",
          "type": "address"
        }
      ],
      "name": "transferBadge",
      "outputs": [],
      "stateMutability": "nonpayable",
      "type": "function"
    },
    {
      "inputs": [
        {
          "internalType": "address",
          "name": "newOwner",
          "type": "address"
        }
      ],
      "name": "transferOwnership",
      "outputs": [],
      "stateMutability": "nonpayable",
      "type": "function"
    },
    {
      "inputs": [
        {
          "internalType": "uint256",
          "name": "badgeModelId",
          "type": "uint256"
        },
        {
          "components": [
            {
              "internalType": "address",
              "name": "creator",
              "type": "address"
            },
            {
              "internalType": "string",
              "name": "controllerName",
              "type": "string"
            },
            {
              "internalType": "bool",
              "name": "paused",
              "type": "bool"
            },
            {
              "internalType": "uint256",
              "name": "mintCreatorFee",
              "type": "uint256"
            },
            {
              "internalType": "uint256",
              "name": "validFor",
              "type": "uint256"
            },
            {
              "internalType": "uint256",
              "name": "mintProtocolFee",
              "type": "uint256"
            },
            {
              "internalType": "bool",
              "name": "initialized",
              "type": "bool"
            },
            {
              "internalType": "string",
              "name": "version",
              "type": "string"
            },
            {
              "internalType": "bool",
              "name": "suspended",
              "type": "bool"
            },
            {
              "internalType": "uint256",
              "name": "versionV2",
              "type": "uint256"
            },
            {
              "internalType": "bool",
              "name": "deprecated",
              "type": "bool"
            },
            {
              "internalType": "string",
              "name": "metadata",
              "type": "string"
            }
          ],
          "internalType": "struct TheBadgeStore.BadgeModel",
          "name": "badgeModel",
          "type": "tuple"
        }
      ],
      "name": "updateBadgeModel",
      "outputs": [],
      "stateMutability": "nonpayable",
      "type": "function"
    },
    {
      "inputs": [
        {
          "internalType": "string",
          "name": "controllerName",
          "type": "string"
        },
        {
          "components": [
            {
              "internalType": "address",
              "name": "controller",
              "type": "address"
            },
            {
              "internalType": "bool",
              "name": "paused",
              "type": "bool"
            },
            {
              "internalType": "bool",
              "name": "initialized",
              "type": "bool"
            }
          ],
          "internalType": "struct TheBadgeStore.BadgeModelController",
          "name": "badgeModelController",
          "type": "tuple"
        }
      ],
      "name": "updateBadgeModelController",
      "outputs": [],
      "stateMutability": "nonpayable",
      "type": "function"
    },
    {
      "inputs": [
        {
          "internalType": "uint256",
          "name": "_createBadgeModelValue",
          "type": "uint256"
        }
      ],
      "name": "updateCreateBadgeModelProtocolFee",
      "outputs": [],
      "stateMutability": "nonpayable",
      "type": "function"
    },
    {
      "inputs": [
        {
          "internalType": "uint256",
          "name": "_mintBadgeDefaultFee",
          "type": "uint256"
        }
      ],
      "name": "updateMintBadgeDefaultProtocolFee",
      "outputs": [],
      "stateMutability": "nonpayable",
      "type": "function"
    },
    {
      "inputs": [
        {
          "internalType": "string",
          "name": "_contractName",
          "type": "string"
        },
        {
          "internalType": "address",
          "name": "_newContractAddress",
          "type": "address"
        }
      ],
      "name": "updatePermittedContract",
      "outputs": [],
      "stateMutability": "nonpayable",
      "type": "function"
    },
    {
      "inputs": [
        {
          "internalType": "uint256",
          "name": "_registerCreatorValue",
          "type": "uint256"
        }
      ],
      "name": "updateRegisterCreatorProtocolFee",
      "outputs": [],
      "stateMutability": "nonpayable",
      "type": "function"
    },
    {
      "inputs": [
        {
          "internalType": "address",
          "name": "userAddress",
          "type": "address"
        },
        {
          "components": [
            {
              "internalType": "string",
              "name": "metadata",
              "type": "string"
            },
            {
              "internalType": "bool",
              "name": "isCompany",
              "type": "bool"
            },
            {
              "internalType": "bool",
              "name": "isCreator",
              "type": "bool"
            },
            {
              "internalType": "bool",
              "name": "suspended",
              "type": "bool"
            },
            {
              "internalType": "bool",
              "name": "initialized",
              "type": "bool"
            }
          ],
          "internalType": "struct TheBadgeStore.User",
          "name": "updatedUser",
          "type": "tuple"
        }
      ],
      "name": "updateUser",
      "outputs": [],
      "stateMutability": "nonpayable",
      "type": "function"
    },
    {
      "inputs": [
        {
          "internalType": "uint256",
          "name": "",
          "type": "uint256"
        },
        {
          "internalType": "address",
          "name": "",
          "type": "address"
        },
        {
          "internalType": "uint256",
          "name": "",
          "type": "uint256"
        }
      ],
      "name": "userMintedBadgesByBadgeModel",
      "outputs": [
        {
          "internalType": "uint256",
          "name": "",
          "type": "uint256"
        }
      ],
      "stateMutability": "view",
      "type": "function"
    },
    {
      "stateMutability": "payable",
      "type": "receive"
    }
  ],
  "bytecode": "0x608080604052346100b8577ff0c57e16840df040f15088dc2f81fe391c3923bec73e23a9662efc9c229c6a009081549060ff8260401c166100a957506001600160401b036002600160401b031982821601610064575b604051612a5f90816100bd8239f35b6001600160401b031990911681179091556040519081527fc7f505b2f371ae2175ee4913f4499e1f2633a7b5936321eed1cdaeb6115181d290602090a15f8080610055565b63f92ee8a960e01b8152600490fd5b5f80fdfe608060405260048036101561001c575b50361561001a575f80fd5b005b5f90813560e01c90816301719d2b146121b757816301ffc9a71461216157816306d7a28c146120fa57816308473d4a1461203f57816308e5bf21146120215781630a5f1ec514611e1b5781630deee17614611d285781630e50cee514611c9e578163178682c114611b845781631a9f36c014611af35781631be91dd914611a315781631c38579e1461196f578163248a9ca3146119365781632f2ff15d146118ec5781632f9227961461187c578163302b0180146117775781633237015d146113ad57816336568abe14611367578163385c4372146112cb5781634085b527146111eb578163485cc955146110805781634e5eceae1461106257816364d8baef14611044578163658658c614610f16578163687a055714610ed75781636f77926b14610dee578163715018a614610d855781637333b37514610cf55781637f34571014610cba5781638d83862214610c195781638da5cb5b14610be457816391d1485414610b8e57816398e36d8b14610b3457816399448a2c14610ad4578163a1fa355c146109e8578163a217fddf146109cc578163a41e35c314610991578163b26fc2041461088b578163c415b95c14610862578163c5a3c7ca14610833578163d547741f146107e5578163e1818651146107b6578163e63ab1e91461077b578163e70a0e691461075d578163e7343c8a14610740578163e7705db614610705578163e9ab224e14610534578163f1fe717e146104f6578163f2be2c851461030557508063f2fde38b146102d8578063f72c0d8b1461029d5763fc5f18d30361000f573461029a578060031936011261029a5760206040517f11a8cb5a02bd6c42679835e867ef2118ba78f088f8300511420c6603c21d9c788152f35b80fd5b503461029a578060031936011261029a5760206040517f189ab7a9244df0848122154315af71fe140f3db0fe014031783b0946b8c9d2e38152f35b503461029a57602036600319011261029a576103026102f561222e565b6102fd6127ba565b6127f2565b80f35b9050346104f25760203660031901126104f257610425600b60406104ee9460606101608351610333816122f1565b838152826020820152838582015283838201528360808201528360a08201528360c08201528260e082015283610100820152836101208201528361014082015201528435815282602052206040519361038b856122f1565b81546001600160a01b031685526103a4600183016123dc565b602086015260ff60028301541615156040860152600382015460608601528101546080850152600581015460a085015260ff600682015416151560c08501526103ef600782016123dc565b60e085015260ff6008820154161515610100850152600981015461012085015260ff600a820154161515610140850152016123dc565b6101608201526040519182916020835260018060a01b03815116602084015261045f602082015161018060408601526101a085019061247d565b60408201511515606085015260608201516080850152608082015160a085015260a082015160c085015260c0820151151560e08501526101606104b560e084015192601f1993848883030161010089015261247d565b9261010081015115156101208701526101208101516101408701526101408101511515828701520151908483030161018085015261247d565b0390f35b5080fd5b9050346104f25760203660031901126104f257338252600660205260ff60408320541615610525573560025580f35b60405163fb83383760e01b8152fd5b9050346104f257610544366124a2565b90913384526020926006845260ff604086205416156106f5576001600160a01b031680855260088452604085205461057b906123a4565b6106e557845260088352604084209061059483806128c2565b916001600160401b0383116106d257506105b8826105b285546123a4565b8561290a565b8590601f83116001146106685792826105f593600193610607968a9261065d575b50505f19600383901b1c191690831b1781555b0193830161294d565b839060ff801983541691151516179055565b6106136040820161294d565b151590825461ff0063ff000000610642608062ff00006106356060880161294d565b151560101b16950161294d565b151560181b169360081b169063ffffff001916171717905580f35b013590505f806105d9565b83875285872091601f198416885b888282106106bc5750509360019361060796938593836105f598106106a3575b505050811b0181556105ec565b01355f19600384901b60f8161c191690555f8080610696565b6001849682939587013581550195019201610676565b634e487b7160e01b875260419052602486fd5b5060405163096bb4a360e41b8152fd5b5060405163fb83383760e01b8152fd5b823461029a578060031936011261029a5760206040517f0ce23c3e399818cfee81a7ab0880f714e53d7672b08df0fa62f2843416e1ea098152f35b823461029a578060031936011261029a5760209054604051908152f35b823461029a578060031936011261029a576020600254604051908152f35b823461029a578060031936011261029a5760206040517f65d7a28e3265b37a6474929f336521b332c1681b933f6cb9f3376673440d862a8152f35b9050346104f25760203660031901126104f257338252600660205260ff60408320541615610525578035905580f35b9050346104f25760403660031901126104f25761082f9035610805612248565b908084525f80516020612a0a83398151915260205261082a60016040862001546125e4565b61273a565b5080f35b9050346104f25760203660031901126104f257338252600660205260ff60408320541615610525573560035580f35b823461029a578060031936011261029a576005546040516001600160a01b039091168152602090f35b823461029a5761089a3661254c565b906108a361258d565b6001600160a01b039182169182156109805760405190825191602081818601946108ce818388612383565b810160078152030190205416801561097057906109499291855260066020526109126020604087209260ff1993848154169055604051809381928751928391612383565b60079082019081520301902080546001600160a01b03191685179055838552600660205260408520805490911660011790556129c9565b7ff611fec7babefd259c57ea5b6006acff8140ab17bb816c65ba0aa7e36c09caa88380a380f35b60405162b8005960e81b81528690fd5b604051633cefac3360e01b81528590fd5b823461029a578060031936011261029a5760206040517fcbaaf41b181bb6e269c490e876a7c97711b57e21dd8e5528423cf57579726b358152f35b823461029a578060031936011261029a57602090604051908152f35b9050346104f2576109f83661254c565b610a0061258d565b6001600160a01b03908116928315610ac5576040519183519260208181870195610a2b818389612383565b810160078152030190205416610ab6575090610a576020610a8f93604051809381928651928391612383565b60079082019081520301902080546001600160a01b03191684179055828452600660205260408420805460ff191660011790556129c9565b7f8b4ef7d4e5bc8f098e6f637ac0acf4aee47b3f027efea6307264b06b4bc9d2988380a380f35b604051637044eb7960e01b8152fd5b604051633cefac3360e01b8152fd5b823461029a57606036600319011261029a57610aee612248565b60443592358252600d602052604082209060018060a01b031682526020526040812090815483101561029a576020610b268484612523565b90546040519160031b1c8152f35b9050346104f25760203660031901126104f257608091604091358152600c6020522080549060018060a01b036001820154169060ff6003600283015492015416916040519384526020840152604083015215156060820152f35b9050346104f25760403660031901126104f257604060209260ff92610bb1612248565b903582525f80516020612a0a83398151915285528282206001600160a01b03909116825284522054604051911615158152f35b823461029a578060031936011261029a575f805160206129ea833981519152546040516001600160a01b039091168152602090f35b9050346104f25760203660031901126104f2578160409160809360608451610c40816122d6565b82815282602082015282868201520152358152600c60205220604051610c65816122d6565b81549182825260018060a01b038060018301541660208401908152606060ff60036002860154956040880196875201541694019315158452604051948552511660208401525160408301525115156060820152f35b823461029a578060031936011261029a5760206040517f7804d923f43a17d325d77e781528e0793b2edd9890ab45fc64efd7b4b427744c8152f35b823461029a57602036600319011261029a578135906001600160401b03821161029a576104ee610d3f6020610d2c3686880161232e565b8160405193828580945193849201612383565b60099082019081520301902054604080516001600160a01b038316815260ff60a084901c81161515602083015260a89390931c9092161515908201529081906060820190565b823461029a578060031936011261029a57610d9e6127ba565b5f805160206129ea83398151915280546001600160a01b0319811690915581906001600160a01b03167f8be0079c531659141344cd1fd0a4f28419497f9722a3daafe3b4186f6b6457e08280a380f35b823461029a576020806003193601126104f257604060a092610e0e61222e565b8160808451610e1c816122bb565b60608152828782015282868201528260608201520152600180861b03168152600883522090600160405192610e50846122bb565b610e59816123dc565b845201548183019160ff8216151583526040840160ff8360081c1615158152610eb2606086019260ff8560101c161515845260ff608088019560181c1615158552604051978897828952519188015260c087019061247d565b9351151560408601525115156060850152511515608084015251151560a08301520390f35b823461029a57602036600319011261029a5760209060ff906040906001600160a01b03610f0261222e565b168152600684522054166040519015158152f35b9050346104f257610f26366124e7565b913384526020906006825260ff60408620541615610525576040519280519183820192610f54818786612383565b850160098152858560018060a01b039788930301902054166110355750610f88918391604051938492839251928391612383565b810160098152030190209082610f9d85612970565b1690825461102582870195600a610fb38861294d565b15159460408a019760ff60a81b968796610fcc8b61294d565b15159960ff60a01b9a8b60018060b01b03199b8c9260a81b169460a01b169216171717905582610ffb8b612970565b168b525261100c60408a2098612970565b169361101988549761294d565b151560a01b169461294d565b151560a81b169316171717905580f35b604051631192a36960e31b8152fd5b823461029a578060031936011261029a576020600354604051908152f35b9050346104f257816003193601126104f25760209054604051908152f35b9050346104f25760403660031901126104f25761109b61222e565b6110a3612248565b907ff0c57e16840df040f15088dc2f81fe391c3923bec73e23a9662efc9c229c6a009283549260ff8460401c1615936001600160401b038116801590816111e3575b60011490816111d9575b1590816111d0575b506111bf57916103e89161115c94938660016001600160401b031983161789556111a0575b50611125612863565b61112d612863565b611136846127f2565b60018060a01b031660018060a01b03196005541617600555866002558660035555612612565b50611165575080f35b805460ff60401b19169055604051600181527fc7f505b2f371ae2175ee4913f4499e1f2633a7b5936321eed1cdaeb6115181d290602090a180f35b68ffffffffffffffffff1916680100000000000000011787555f61111c565b60405163f92ee8a960e01b81528390fd5b9050155f6110f7565b303b1591506110ef565b8691506110e5565b9050346104f25760a03660031901126104f25780359060803660231901126112c757338352600660205260ff6040842054161561052557506024359061122f61295a565b818452600c60205260408420838155926001600160a01b0390600185018261125561295a565b82546001600160a01b031916911617905560643560028601556084359485151586036112c3576112b295600361129792019060ff801983541691151516179055565b8552600d6020526040852091168452602052604083206129a6565b6112bd600154612984565b60015580f35b8680fd5b8280fd5b823461029a57602036600319011261029a578135906001600160401b03821161029a576104ee61131e60206113023686880161232e565b61130a6128a4565b508160405193828580945193849201612383565b8101600981520301902060ff604051916113378361228c565b5460018060a01b0381168352818160a01c161515602084015260a81c16151560408201526040519182918261225e565b823461029a57604036600319011261029a57611381612248565b336001600160a01b0382160361139c5761082f91923561273a565b60405163334bd91960e11b81528390fd5b9050346104f257602090600319908282360112611773578035926001600160401b0380851161176f5761018085840194863603011261176f573386526006825260ff6040872054161561175e5785548652600b825260408620936001600160a01b0361141882612970565b86546001600160a01b031916911617855560019480860161143c60248901846128c2565b908582116116e257819061145a8261145486546123a4565b8661290a565b8b90601f8311600114611700578c926116f5575b50505f19600383901b1c191690881b1790555b6114a56114906044890161294d565b600283019060ff801983541691151516179055565b6064870135600382015560848701358582015560a487013560058201556114e66114d160c4890161294d565b600683019060ff801983541691151516179055565b600781016114f760e48901846128c2565b908582116116e25761150d826105b285546123a4565b8a908b601f84116001146116735792806115a29796936101649693600b9692611668575b50505f19600383901b1c1916908b1b1790555b6115696115546101048c0161294d565b600883019060ff801983541691151516179055565b6101248a013560098201556115996115846101448c0161294d565b600a83019060ff801983541691151516179055565b019701906128c2565b93909184116106d257506115c0836115ba87546123a4565b8761290a565b8591601f8411600114611606575092829391839287946115fb575b50501b915f199060031b1c19161790555b6115f68154612984565b815580f35b013592505f806115db565b9183601f1981168789528489209489905b8883831061164e5750505010611635575b505050811b0190556115ec565b01355f19600384901b60f8161c191690555f8080611628565b868601358855909601959384019387935090810190611617565b013590505f80611531565b908a9392601f1984168684528a8420935b8b8282106116cc57505092600b959285926115a29a99966101649996106116b3575b505050811b019055611544565b01355f19600384901b60f8161c191690555f80806116a6565b8385013586558e97909501949283019201611684565b634e487b7160e01b8b526041885260248bfd5b013590505f8061146e565b848d52888d208b945091601f1984168e5b8b828210611748575050841161172f575b505050811b019055611481565b01355f19600384901b60f8161c191690555f8080611722565b8385013586558e97909501949283019201611711565b60405163fb83383760e01b81528390fd5b8580fd5b8380fd5b823461029a57602036600319011261029a5781358152600b60205260409020805490916001600160a01b03909116906117b2600184016123dc565b92600281015460ff1690600381015492810154600582015492600683015460ff1690600784016117e1906123dc565b91600885015460ff1695600986015494600a87015460ff1696600b01611806906123dc565b986040519b8c9b8c528b6101806020819201528c016118249161247d565b94151560408c015260608b015260808a015260a0890152151560c088015286810360e08801526118539161247d565b92151561010086015261012085015215156101408401528281036101608401526104ee9161247d565b823461029a57602036600319011261029a576001600160a01b0390604090826118a361222e565b168152600a60205220546104ee604051928260ff859460a81c169160ff8260a01c1691168491926040919493606084019560018060a01b03168452151560208401521515910152565b9050346104f25760403660031901126104f25761082f903561190c612248565b908084525f80516020612a0a83398151915260205261193160016040862001546125e4565b6126b0565b9050346104f25760203660031901126104f25760406020926001923581525f80516020612a0a8339815191528452200154604051908152f35b9050346104f25760403660031901126104f25760243580151581036112c757338352600660205260ff604084205416156106f55781358352600b602052604083209160ff60068401541615611a225750906119db600b92600883019060ff801983541691151516179055565b016119e681546123a4565b601f8111611a03575b50600e66697066733a2f2f60c81b01905580f35b81835260208320611a1c91601f0160051c8101906128f4565b5f6119ef565b6040516336f7ce4f60e11b8152fd5b9050346104f2576003196040368201126112c757602435906001600160401b038211611773576101809082360301126112c757338352600660205260ff604084205416156106f55781358352600b602052604083209160ff60068401541615611a22575090600a611ae06101448460a4610302960135600586015560648101356003860155611ada611ac56044830161294d565b600287019060ff801983541691151516179055565b0161294d565b91019060ff801983541691151516179055565b9050346104f257611b03366124e7565b913384526020906006825260ff60408620541615610525576040519280519183820192611b31818786612383565b850160098152858560018060a01b03978893030190205416908115611b755750918391610f88938852600a8352876040812055604051938492839251928391612383565b60405163930b449560e01b8152fd5b9050346104f257611b94366124a2565b90913384526020926006845260ff604086205416156106f5576001600160a01b0316808552600884526040852054611bcb906123a4565b15611c8e578452600883526040842090611be583806128c2565b916001600160401b0383116106d25750611c03826105b285546123a4565b8590601f8311600114611c3e5792826105f593600193610607968a9261065d5750505f19600383901b1c191690831b1781550193830161294d565b83875285872091601f198416885b88828210611c785750509360019361060796938593836105f598106106a357505050811b0181556105ec565b6001849682939587013581550195019201611c4c565b506040516365553c4160e11b8152fd5b823461029a57602036600319011261029a57611cf4906040906001600160a01b03611cc761222e565b1681526008602052206001611cdb826123dc565b91015460ff60405193849360a0855260a085019061247d565b9181811615156020850152818160081c1615156040850152818160101c161515606085015260181c16151560808301520390f35b9050346104f25760203660031901126104f25780356001600160401b0381116112c757611d58903690830161232e565b611d6061258d565b6040518151906020830191611d76818385612383565b60079082019081528190036020019020546001600160a01b0316928315611e0d575090611db36020611de693604051809381928651928391612383565b60079082019081520301902080546001600160a01b0319169055828452600660205260408420805460ff191690556129c9565b7f7ad6d7c73213a93d033801d72c729d90fb72104796b75ad799858b26f2b9872f8380a380f35b60405162b8005960e81b8152fd5b823461029a57606036600319011261029a578135611e37612248565b6001600160a01b03604435818116929083900361201d573385526020916006835260ff6040872054161561200c57848652600c83528060408720921680158015612004575b611ff35760039060ff828501541615611fe2576001928385019082825491821603611fd1576001600160a01b0319168717905583548852600d85526040808920918952908552872087835b611eec575b8861030289898989548552600d81526040852091855252604083206129a6565b815480821015611fcb5788611f018385612523565b905490861b1c14611f1c5750611f1690612984565b83611ec7565b92935090915f1991828201918211611fb857818103611f7c575b505081548015611f6957610302989950810192611f538484612523565b81939154921b1b19169055558594878080611ecc565b634e487b7160e01b895260318a52602489fd5b611f99611f8c611fb19386612523565b905490871b1c9185612523565b90919082549060031b91821b915f19901b1916179055565b8980611f36565b634e487b7160e01b8a5260118b5260248afd5b50611ecc565b604051630d806a2b60e11b81528b90fd5b6040516355a150f760e11b81528990fd5b604051630d806a2b60e11b81528890fd5b508415611e7c565b60405163fb83383760e01b81528790fd5b8480fd5b823461029a578060031936011261029a576020600154604051908152f35b9050346104f25760403660031901126104f25761205a612248565b90358252602090600d8252604083209060018060a01b0316835281526040822060405192838383549182815201908193835284832090835b8181106120e657505050846120a891038561230d565b60405193838594850191818652518092526040850193925b8281106120cf57505050500390f35b8351855286955093810193928101926001016120c0565b825484529286019260019283019201612092565b823461029a57602036600319011261029a578135906001600160401b03821161029a57602061212b3684860161232e565b8161213f6040519283815193849201612383565b600790820190815281900382019020546040516001600160a01b039091168152f35b9050346104f25760203660031901126104f2573563ffffffff60e01b81168091036104f257602090637965db0b60e01b81149081156121a6575b506040519015158152f35b6301ffc9a760e01b1490508261219b565b823461029a57602036600319011261029a576104ee9060ff60406121d961222e565b926121e26128a4565b506001600160a01b039384168152600a6020522060405192906122048461228c565b549081168352818160a01c161515602084015260a81c16151560408201526040519182918261225e565b600435906001600160a01b038216820361224457565b5f80fd5b602435906001600160a01b038216820361224457565b81516001600160a01b0316815260208083015115159082015260409182015115159181019190915260600190565b606081019081106001600160401b038211176122a757604052565b634e487b7160e01b5f52604160045260245ffd5b60a081019081106001600160401b038211176122a757604052565b608081019081106001600160401b038211176122a757604052565b61018081019081106001600160401b038211176122a757604052565b90601f801991011681019081106001600160401b038211176122a757604052565b81601f82011215612244578035906001600160401b0382116122a75760405192612362601f8401601f19166020018561230d565b8284526020838301011161224457815f926020809301838601378301015290565b5f5b8381106123945750505f910152565b8181015183820152602001612385565b90600182811c921680156123d2575b60208310146123be57565b634e487b7160e01b5f52602260045260245ffd5b91607f16916123b3565b9060405191825f8254926123ef846123a4565b9081845260019485811690815f1461245a575060011461241a575b50506124189250038361230d565b565b909391505f52602090815f20935f915b81831061244257505061241893508201015f8061240a565b8554888401850152948501948794509183019161242a565b91505061241894506020925060ff191682840152151560051b8201015f8061240a565b9060209161249681518092818552858086019101612383565b601f01601f1916010190565b90600319604081840112612244576004356001600160a01b03811681036122445792602435916001600160401b038311612244578260a0920301126122445760040190565b906080600319830112612244576004356001600160401b038111612244576125148360609260040161232e565b92602319011261224457602490565b8054821015612538575f5260205f2001905f90565b634e487b7160e01b5f52603260045260245ffd5b604060031982011261224457600435906001600160401b038211612244576125769160040161232e565b906024356001600160a01b03811681036122445790565b335f9081527fb7db2dd08fcb62d0c9e08c51941cae53c267786a0b75803fb7960902fc8ef97d602052604081205460ff16156125c65750565b6044906040519063e2517d3f60e01b82523360048301526024820152fd5b805f525f80516020612a0a83398151915260205260405f20335f5260205260ff60405f205416156125c65750565b6001600160a01b03165f8181527fb7db2dd08fcb62d0c9e08c51941cae53c267786a0b75803fb7960902fc8ef97d60205260408120549091905f80516020612a0a8339815191529060ff166126ab578280526020526040822081835260205260408220600160ff1982541617905533917f2f8788117e7eff1d82e926ec794901d17c78024a50270940304540a733656f0d8180a4600190565b505090565b905f918083525f80516020612a0a83398151915280602052604084209260018060a01b03169283855260205260ff604085205416155f14612734578184526020526040832082845260205260408320600160ff198254161790557f2f8788117e7eff1d82e926ec794901d17c78024a50270940304540a733656f0d339380a4600190565b50505090565b905f918083525f80516020612a0a83398151915280602052604084209260018060a01b03169283855260205260ff6040852054165f1461273457818452602052604083208284526020526040832060ff1981541690557ff6391f5c32d9c69d2a47ea670b442974b53935d1edc7fd64eb21e047a839171b339380a4600190565b5f805160206129ea833981519152546001600160a01b031633036127da57565b60405163118cdaa760e01b8152336004820152602490fd5b6001600160a01b0390811690811561284b575f805160206129ea83398151915280546001600160a01b031981168417909155167f8be0079c531659141344cd1fd0a4f28419497f9722a3daafe3b4186f6b6457e05f80a3565b604051631e4fbdf760e01b81525f6004820152602490fd5b60ff7ff0c57e16840df040f15088dc2f81fe391c3923bec73e23a9662efc9c229c6a005460401c161561289257565b604051631afcd79f60e31b8152600490fd5b604051906128b18261228c565b5f6040838281528260208201520152565b903590601e198136030182121561224457018035906001600160401b0382116122445760200191813603831361224457565b8181106128ff575050565b5f81556001016128f4565b9190601f811161291957505050565b612418925f5260205f20906020601f840160051c83019310612943575b601f0160051c01906128f4565b9091508190612936565b3580151581036122445790565b6044356001600160a01b03811681036122445790565b356001600160a01b03811681036122445790565b5f1981146129925760010190565b634e487b7160e01b5f52601160045260245ffd5b80549190600160401b8310156122a75782611f9991600161241895018155612523565b6129e190602060405192828480945193849201612383565b81010390209056fe9016d09d72d40fdae2fd8ceac6b6234c7706214fd39c1cd1e609a0528c19930002dd7bc7dec4dceedda775e58dd541e08a116c6c53815c0bd028192f7b626800a2646970667358221220937e125746e19b203bafe1d7a337933e7b76fd55eeed3c8c599ad89795d8eb7364736f6c63430008140033",
  "linkReferences": {},
  "deployedLinkReferences": {}
}