{
  "_format": "hh-sol-artifact-1",
  "contractName": "TheBadge",
  "sourceName": "src/contracts/thebadge/TheBadge.sol",
  "abi": [
    {
      "inputs": [],
      "stateMutability": "nonpayable",
      "type": "constructor"
    },
    {
      "inputs": [],
      "name": "TheBadge__SBT",
      "type": "error"
    },
    {
      "inputs": [],
      "name": "TheBadge__badgeModel_badgeModelNotFound",
      "type": "error"
    },
    {
      "inputs": [],
      "name": "TheBadge__createBadgeModel_controllerIsPaused",
      "type": "error"
    },
    {
      "inputs": [],
      "name": "TheBadge__createBadgeModel_invalidController",
      "type": "error"
    },
    {
      "inputs": [],
      "name": "TheBadge__createBadgeModel_wrongValue",
      "type": "error"
    },
    {
      "inputs": [],
      "name": "TheBadge__method_not_supported",
      "type": "error"
    },
    {
      "inputs": [],
      "name": "TheBadge__onlyCreator_creatorIsSuspended",
      "type": "error"
    },
    {
      "inputs": [],
      "name": "TheBadge__onlyCreator_senderIsNotACreator",
      "type": "error"
    },
    {
      "inputs": [],
      "name": "TheBadge__registerCreator_alreadyRegistered",
      "type": "error"
    },
    {
      "inputs": [],
      "name": "TheBadge__registerCreator_wrongValue",
      "type": "error"
    },
    {
      "inputs": [],
      "name": "TheBadge__requestBadge_badgeModelIsSuspended",
      "type": "error"
    },
    {
      "inputs": [],
      "name": "TheBadge__requestBadge_badgeModelNotFound",
      "type": "error"
    },
    {
      "inputs": [],
      "name": "TheBadge__requestBadge_controllerIsPaused",
      "type": "error"
    },
    {
      "inputs": [],
      "name": "TheBadge__requestBadge_isPaused",
      "type": "error"
    },
    {
      "inputs": [],
      "name": "TheBadge__requestBadge_wrongValue",
      "type": "error"
    },
    {
      "inputs": [],
      "name": "TheBadge__setBadgeModelController_alreadySet",
      "type": "error"
    },
    {
      "inputs": [],
      "name": "TheBadge__setBadgeModelController_emptyName",
      "type": "error"
    },
    {
      "inputs": [],
      "name": "TheBadge__setBadgeModelController_notFound",
      "type": "error"
    },
    {
      "inputs": [],
      "name": "TheBadge__setControllerStatus_notFound",
      "type": "error"
    },
    {
      "inputs": [],
      "name": "TheBadge__updateBadgeModel_badgeModelNotFound",
      "type": "error"
    },
    {
      "inputs": [],
      "name": "TheBadge__updateBadgeModel_notBadgeModelOwner",
      "type": "error"
    },
    {
      "inputs": [],
      "name": "TheBadge__updateCreator_notFound",
      "type": "error"
    },
    {
      "anonymous": false,
      "inputs": [
        {
          "indexed": false,
          "internalType": "address",
          "name": "previousAdmin",
          "type": "address"
        },
        {
          "indexed": false,
          "internalType": "address",
          "name": "newAdmin",
          "type": "address"
        }
      ],
      "name": "AdminChanged",
      "type": "event"
    },
    {
      "anonymous": false,
      "inputs": [
        {
          "indexed": true,
          "internalType": "address",
          "name": "account",
          "type": "address"
        },
        {
          "indexed": true,
          "internalType": "address",
          "name": "operator",
          "type": "address"
        },
        {
          "indexed": false,
          "internalType": "bool",
          "name": "approved",
          "type": "bool"
        }
      ],
      "name": "ApprovalForAll",
      "type": "event"
    },
    {
      "anonymous": false,
      "inputs": [
        {
          "indexed": true,
          "internalType": "string",
          "name": "controllerName",
          "type": "string"
        },
        {
          "indexed": true,
          "internalType": "address",
          "name": "controllerAddress",
          "type": "address"
        }
      ],
      "name": "BadgeModelControllerAdded",
      "type": "event"
    },
    {
      "anonymous": false,
      "inputs": [
        {
          "indexed": true,
          "internalType": "uint256",
          "name": "badgeModelId",
          "type": "uint256"
        },
        {
          "indexed": false,
          "internalType": "string",
          "name": "metadata",
          "type": "string"
        }
      ],
      "name": "BadgeModelCreated",
      "type": "event"
    },
    {
      "anonymous": false,
      "inputs": [
        {
          "indexed": true,
          "internalType": "uint256",
          "name": "badgeModelId",
          "type": "uint256"
        },
        {
          "indexed": false,
          "internalType": "uint256",
          "name": "newAmountInBps",
          "type": "uint256"
        }
      ],
      "name": "BadgeModelProtocolFeeUpdated",
      "type": "event"
    },
    {
      "anonymous": false,
      "inputs": [
        {
          "indexed": true,
          "internalType": "uint256",
          "name": "badgeModelId",
          "type": "uint256"
        }
      ],
      "name": "BadgeModelUpdated",
      "type": "event"
    },
    {
      "anonymous": false,
      "inputs": [
        {
          "indexed": true,
          "internalType": "uint256",
          "name": "badgeModelID",
          "type": "uint256"
        },
        {
          "indexed": true,
          "internalType": "uint256",
          "name": "badgeID",
          "type": "uint256"
        },
        {
          "indexed": true,
          "internalType": "address",
          "name": "recipient",
          "type": "address"
        },
        {
          "indexed": false,
          "internalType": "address",
          "name": "controller",
          "type": "address"
        },
        {
          "indexed": false,
          "internalType": "uint256",
          "name": "controllerBadgeId",
          "type": "uint256"
        }
      ],
      "name": "BadgeRequested",
      "type": "event"
    },
    {
      "anonymous": false,
      "inputs": [
        {
          "indexed": true,
          "internalType": "address",
          "name": "beacon",
          "type": "address"
        }
      ],
      "name": "BeaconUpgraded",
      "type": "event"
    },
    {
      "anonymous": false,
      "inputs": [
        {
          "indexed": true,
          "internalType": "address",
          "name": "creator",
          "type": "address"
        },
        {
          "indexed": false,
          "internalType": "string",
          "name": "metadata",
          "type": "string"
        }
      ],
      "name": "CreatorRegistered",
      "type": "event"
    },
    {
      "anonymous": false,
      "inputs": [
        {
          "indexed": true,
          "internalType": "address",
          "name": "admin",
          "type": "address"
        },
        {
          "indexed": true,
          "internalType": "address",
          "name": "minter",
          "type": "address"
        }
      ],
      "name": "Initialize",
      "type": "event"
    },
    {
      "anonymous": false,
      "inputs": [
        {
          "indexed": false,
          "internalType": "uint8",
          "name": "version",
          "type": "uint8"
        }
      ],
      "name": "Initialized",
      "type": "event"
    },
    {
      "anonymous": false,
      "inputs": [
        {
          "indexed": false,
          "internalType": "address",
          "name": "account",
          "type": "address"
        }
      ],
      "name": "Paused",
      "type": "event"
    },
    {
      "anonymous": false,
      "inputs": [
        {
          "indexed": true,
          "internalType": "address",
          "name": "recipient",
          "type": "address"
        },
        {
          "indexed": false,
          "internalType": "uint256",
          "name": "amount",
          "type": "uint256"
        },
        {
          "indexed": true,
          "internalType": "enum TheBadgeStore.PaymentType",
          "name": "paymentType",
          "type": "uint8"
        },
        {
          "indexed": true,
          "internalType": "uint256",
          "name": "badgeModelId",
          "type": "uint256"
        }
      ],
      "name": "PaymentMade",
      "type": "event"
    },
    {
      "anonymous": false,
      "inputs": [],
      "name": "ProtocolSettingsUpdated",
      "type": "event"
    },
    {
      "anonymous": false,
      "inputs": [
        {
          "indexed": true,
          "internalType": "address",
          "name": "creator",
          "type": "address"
        },
        {
          "indexed": false,
          "internalType": "bool",
          "name": "deleted",
          "type": "bool"
        }
      ],
      "name": "RemovedCreator",
      "type": "event"
    },
    {
      "anonymous": false,
      "inputs": [
        {
          "indexed": true,
          "internalType": "bytes32",
          "name": "role",
          "type": "bytes32"
        },
        {
          "indexed": true,
          "internalType": "bytes32",
          "name": "previousAdminRole",
          "type": "bytes32"
        },
        {
          "indexed": true,
          "internalType": "bytes32",
          "name": "newAdminRole",
          "type": "bytes32"
        }
      ],
      "name": "RoleAdminChanged",
      "type": "event"
    },
    {
      "anonymous": false,
      "inputs": [
        {
          "indexed": true,
          "internalType": "bytes32",
          "name": "role",
          "type": "bytes32"
        },
        {
          "indexed": true,
          "internalType": "address",
          "name": "account",
          "type": "address"
        },
        {
          "indexed": true,
          "internalType": "address",
          "name": "sender",
          "type": "address"
        }
      ],
      "name": "RoleGranted",
      "type": "event"
    },
    {
      "anonymous": false,
      "inputs": [
        {
          "indexed": true,
          "internalType": "bytes32",
          "name": "role",
          "type": "bytes32"
        },
        {
          "indexed": true,
          "internalType": "address",
          "name": "account",
          "type": "address"
        },
        {
          "indexed": true,
          "internalType": "address",
          "name": "sender",
          "type": "address"
        }
      ],
      "name": "RoleRevoked",
      "type": "event"
    },
    {
      "anonymous": false,
      "inputs": [
        {
          "indexed": true,
          "internalType": "address",
          "name": "creator",
          "type": "address"
        },
        {
          "indexed": false,
          "internalType": "bool",
          "name": "suspended",
          "type": "bool"
        }
      ],
      "name": "SuspendedCreator",
      "type": "event"
    },
    {
      "anonymous": false,
      "inputs": [
        {
          "indexed": true,
          "internalType": "address",
          "name": "operator",
          "type": "address"
        },
        {
          "indexed": true,
          "internalType": "address",
          "name": "from",
          "type": "address"
        },
        {
          "indexed": true,
          "internalType": "address",
          "name": "to",
          "type": "address"
        },
        {
          "indexed": false,
          "internalType": "uint256[]",
          "name": "ids",
          "type": "uint256[]"
        },
        {
          "indexed": false,
          "internalType": "uint256[]",
          "name": "values",
          "type": "uint256[]"
        }
      ],
      "name": "TransferBatch",
      "type": "event"
    },
    {
      "anonymous": false,
      "inputs": [
        {
          "indexed": true,
          "internalType": "address",
          "name": "operator",
          "type": "address"
        },
        {
          "indexed": true,
          "internalType": "address",
          "name": "from",
          "type": "address"
        },
        {
          "indexed": true,
          "internalType": "address",
          "name": "to",
          "type": "address"
        },
        {
          "indexed": false,
          "internalType": "uint256",
          "name": "id",
          "type": "uint256"
        },
        {
          "indexed": false,
          "internalType": "uint256",
          "name": "value",
          "type": "uint256"
        }
      ],
      "name": "TransferSingle",
      "type": "event"
    },
    {
      "anonymous": false,
      "inputs": [
        {
          "indexed": false,
          "internalType": "string",
          "name": "value",
          "type": "string"
        },
        {
          "indexed": true,
          "internalType": "uint256",
          "name": "id",
          "type": "uint256"
        }
      ],
      "name": "URI",
      "type": "event"
    },
    {
      "anonymous": false,
      "inputs": [
        {
          "indexed": false,
          "internalType": "address",
          "name": "account",
          "type": "address"
        }
      ],
      "name": "Unpaused",
      "type": "event"
    },
    {
      "anonymous": false,
      "inputs": [
        {
          "indexed": true,
          "internalType": "address",
          "name": "creator",
          "type": "address"
        },
        {
          "indexed": false,
          "internalType": "string",
          "name": "metadata",
          "type": "string"
        }
      ],
      "name": "UpdatedCreatorMetadata",
      "type": "event"
    },
    {
      "anonymous": false,
      "inputs": [
        {
          "indexed": true,
          "internalType": "address",
          "name": "implementation",
          "type": "address"
        }
      ],
      "name": "Upgraded",
      "type": "event"
    },
    {
      "inputs": [],
      "name": "DEFAULT_ADMIN_ROLE",
      "outputs": [
        {
          "internalType": "bytes32",
          "name": "",
          "type": "bytes32"
        }
      ],
      "stateMutability": "view",
      "type": "function"
    },
    {
      "inputs": [],
      "name": "FEE_COLLECTOR_ROLE",
      "outputs": [
        {
          "internalType": "bytes32",
          "name": "",
          "type": "bytes32"
        }
      ],
      "stateMutability": "view",
      "type": "function"
    },
    {
      "inputs": [],
      "name": "MINTER_ROLE",
      "outputs": [
        {
          "internalType": "bytes32",
          "name": "",
          "type": "bytes32"
        }
      ],
      "stateMutability": "view",
      "type": "function"
    },
    {
      "inputs": [],
      "name": "PAUSER_ROLE",
      "outputs": [
        {
          "internalType": "bytes32",
          "name": "",
          "type": "bytes32"
        }
      ],
      "stateMutability": "view",
      "type": "function"
    },
    {
      "inputs": [],
      "name": "UPGRADER_ROLE",
      "outputs": [
        {
          "internalType": "bytes32",
          "name": "",
          "type": "bytes32"
        }
      ],
      "stateMutability": "view",
      "type": "function"
    },
    {
      "inputs": [],
      "name": "URI_SETTER_ROLE",
      "outputs": [
        {
          "internalType": "bytes32",
          "name": "",
          "type": "bytes32"
        }
      ],
      "stateMutability": "view",
      "type": "function"
    },
    {
      "inputs": [
        {
          "internalType": "string",
          "name": "controllerName",
          "type": "string"
        },
        {
          "internalType": "address",
          "name": "controllerAddress",
          "type": "address"
        }
      ],
      "name": "addBadgeModelController",
      "outputs": [],
      "stateMutability": "nonpayable",
      "type": "function"
    },
    {
      "inputs": [
        {
          "internalType": "string",
          "name": "",
          "type": "string"
        }
      ],
      "name": "badgeModelControllers",
      "outputs": [
        {
          "internalType": "address",
          "name": "controller",
          "type": "address"
        },
        {
          "internalType": "bool",
          "name": "paused",
          "type": "bool"
        },
        {
          "internalType": "bool",
          "name": "initialized",
          "type": "bool"
        }
      ],
      "stateMutability": "view",
      "type": "function"
    },
    {
      "inputs": [
        {
          "internalType": "uint256",
          "name": "",
          "type": "uint256"
        }
      ],
      "name": "badgeModels",
      "outputs": [
        {
          "internalType": "address",
          "name": "creator",
          "type": "address"
        },
        {
          "internalType": "string",
          "name": "controllerName",
          "type": "string"
        },
        {
          "internalType": "bool",
          "name": "paused",
          "type": "bool"
        },
        {
          "internalType": "uint256",
          "name": "mintCreatorFee",
          "type": "uint256"
        },
        {
          "internalType": "uint256",
          "name": "validFor",
          "type": "uint256"
        },
        {
          "internalType": "uint256",
          "name": "mintProtocolFee",
          "type": "uint256"
        },
        {
          "internalType": "bool",
          "name": "initialized",
          "type": "bool"
        }
      ],
      "stateMutability": "view",
      "type": "function"
    },
    {
      "inputs": [
        {
          "internalType": "uint256",
          "name": "",
          "type": "uint256"
        },
        {
          "internalType": "address",
          "name": "",
          "type": "address"
        },
        {
          "internalType": "uint256",
          "name": "",
          "type": "uint256"
        }
      ],
      "name": "badgeModelsByAccount",
      "outputs": [
        {
          "internalType": "uint256",
          "name": "",
          "type": "uint256"
        }
      ],
      "stateMutability": "view",
      "type": "function"
    },
    {
      "inputs": [
        {
          "internalType": "uint256",
          "name": "",
          "type": "uint256"
        }
      ],
      "name": "badges",
      "outputs": [
        {
          "internalType": "uint256",
          "name": "badgeModelId",
          "type": "uint256"
        },
        {
          "internalType": "address",
          "name": "account",
          "type": "address"
        },
        {
          "internalType": "uint256",
          "name": "dueDate",
          "type": "uint256"
        },
        {
          "internalType": "bool",
          "name": "initialized",
          "type": "bool"
        }
      ],
      "stateMutability": "view",
      "type": "function"
    },
    {
      "inputs": [
        {
          "internalType": "address",
          "name": "account",
          "type": "address"
        },
        {
          "internalType": "uint256",
          "name": "badgeId",
          "type": "uint256"
        }
      ],
      "name": "balanceOf",
      "outputs": [
        {
          "internalType": "uint256",
          "name": "",
          "type": "uint256"
        }
      ],
      "stateMutability": "view",
      "type": "function"
    },
    {
      "inputs": [
        {
          "internalType": "address",
          "name": "account",
          "type": "address"
        },
        {
          "internalType": "uint256",
          "name": "badgeModelId",
          "type": "uint256"
        }
      ],
      "name": "balanceOfBadgeModel",
      "outputs": [
        {
          "internalType": "uint256",
          "name": "",
          "type": "uint256"
        }
      ],
      "stateMutability": "view",
      "type": "function"
    },
    {
      "inputs": [
        {
          "internalType": "address[]",
          "name": "accounts",
          "type": "address[]"
        },
        {
          "internalType": "uint256[]",
          "name": "ids",
          "type": "uint256[]"
        }
      ],
      "name": "balanceOfBatch",
      "outputs": [
        {
          "internalType": "uint256[]",
          "name": "",
          "type": "uint256[]"
        }
      ],
      "stateMutability": "view",
      "type": "function"
    },
    {
      "inputs": [
        {
          "components": [
            {
              "internalType": "string",
              "name": "metadata",
              "type": "string"
            },
            {
              "internalType": "string",
              "name": "controllerName",
              "type": "string"
            },
            {
              "internalType": "uint256",
              "name": "mintCreatorFee",
              "type": "uint256"
            },
            {
              "internalType": "uint256",
              "name": "validFor",
              "type": "uint256"
            }
          ],
          "internalType": "struct TheBadgeStore.CreateBadgeModel",
          "name": "args",
          "type": "tuple"
        },
        {
          "internalType": "bytes",
          "name": "data",
          "type": "bytes"
        }
      ],
      "name": "createBadgeModel",
      "outputs": [],
      "stateMutability": "payable",
      "type": "function"
    },
    {
      "inputs": [],
      "name": "createBadgeModelProtocolFee",
      "outputs": [
        {
          "internalType": "uint256",
          "name": "",
          "type": "uint256"
        }
      ],
      "stateMutability": "view",
      "type": "function"
    },
    {
      "inputs": [
        {
          "internalType": "address",
          "name": "",
          "type": "address"
        }
      ],
      "name": "creators",
      "outputs": [
        {
          "internalType": "string",
          "name": "metadata",
          "type": "string"
        },
        {
          "internalType": "bool",
          "name": "suspended",
          "type": "bool"
        },
        {
          "internalType": "bool",
          "name": "initialized",
          "type": "bool"
        }
      ],
      "stateMutability": "view",
      "type": "function"
    },
    {
      "inputs": [],
      "name": "feeCollector",
      "outputs": [
        {
          "internalType": "address",
          "name": "",
          "type": "address"
        }
      ],
      "stateMutability": "view",
      "type": "function"
    },
    {
      "inputs": [
        {
          "internalType": "bytes32",
          "name": "role",
          "type": "bytes32"
        }
      ],
      "name": "getRoleAdmin",
      "outputs": [
        {
          "internalType": "bytes32",
          "name": "",
          "type": "bytes32"
        }
      ],
      "stateMutability": "view",
      "type": "function"
    },
    {
      "inputs": [
        {
          "internalType": "bytes32",
          "name": "role",
          "type": "bytes32"
        },
        {
          "internalType": "address",
          "name": "account",
          "type": "address"
        }
      ],
      "name": "grantRole",
      "outputs": [],
      "stateMutability": "nonpayable",
      "type": "function"
    },
    {
      "inputs": [
        {
          "internalType": "bytes32",
          "name": "role",
          "type": "bytes32"
        },
        {
          "internalType": "address",
          "name": "account",
          "type": "address"
        }
      ],
      "name": "hasRole",
      "outputs": [
        {
          "internalType": "bool",
          "name": "",
          "type": "bool"
        }
      ],
      "stateMutability": "view",
      "type": "function"
    },
    {
      "inputs": [
        {
          "internalType": "address",
          "name": "admin",
          "type": "address"
        },
        {
          "internalType": "address",
          "name": "_feeCollector",
          "type": "address"
        },
        {
          "internalType": "address",
          "name": "minter",
          "type": "address"
        }
      ],
      "name": "initialize",
      "outputs": [],
      "stateMutability": "nonpayable",
      "type": "function"
    },
    {
      "inputs": [
        {
          "internalType": "address",
          "name": "account",
          "type": "address"
        },
        {
          "internalType": "address",
          "name": "operator",
          "type": "address"
        }
      ],
      "name": "isApprovedForAll",
      "outputs": [
        {
          "internalType": "bool",
          "name": "",
          "type": "bool"
        }
      ],
      "stateMutability": "view",
      "type": "function"
    },
    {
      "inputs": [
        {
          "internalType": "uint256",
          "name": "badgeModelId",
          "type": "uint256"
        }
      ],
      "name": "isBadgeModelSuspended",
      "outputs": [
        {
          "internalType": "bool",
          "name": "",
          "type": "bool"
        }
      ],
      "stateMutability": "view",
      "type": "function"
    },
    {
      "inputs": [
        {
          "internalType": "uint256",
          "name": "badgeId",
          "type": "uint256"
        }
      ],
      "name": "isExpired",
      "outputs": [
        {
          "internalType": "bool",
          "name": "",
          "type": "bool"
        }
      ],
      "stateMutability": "view",
      "type": "function"
    },
    {
      "inputs": [
        {
          "internalType": "uint256",
          "name": "badgeModelId",
          "type": "uint256"
        },
        {
          "internalType": "address",
          "name": "account",
          "type": "address"
        },
        {
          "internalType": "string",
          "name": "tokenURI",
          "type": "string"
        },
        {
          "internalType": "bytes",
          "name": "data",
          "type": "bytes"
        }
      ],
      "name": "mint",
      "outputs": [],
      "stateMutability": "payable",
      "type": "function"
    },
    {
      "inputs": [],
      "name": "mintBadgeProtocolDefaultFeeInBps",
      "outputs": [
        {
          "internalType": "uint256",
          "name": "",
          "type": "uint256"
        }
      ],
      "stateMutability": "view",
      "type": "function"
    },
    {
      "inputs": [
        {
          "internalType": "uint256",
          "name": "badgeModelId",
          "type": "uint256"
        }
      ],
      "name": "mintValue",
      "outputs": [
        {
          "internalType": "uint256",
          "name": "",
          "type": "uint256"
        }
      ],
      "stateMutability": "view",
      "type": "function"
    },
    {
      "inputs": [],
      "name": "pause",
      "outputs": [],
      "stateMutability": "nonpayable",
      "type": "function"
    },
    {
      "inputs": [],
      "name": "paused",
      "outputs": [
        {
          "internalType": "bool",
          "name": "",
          "type": "bool"
        }
      ],
      "stateMutability": "view",
      "type": "function"
    },
    {
      "inputs": [],
      "name": "proxiableUUID",
      "outputs": [
        {
          "internalType": "bytes32",
          "name": "",
          "type": "bytes32"
        }
      ],
      "stateMutability": "view",
      "type": "function"
    },
    {
      "inputs": [
        {
          "internalType": "string",
          "name": "_metadata",
          "type": "string"
        }
      ],
      "name": "registerBadgeModelCreator",
      "outputs": [],
      "stateMutability": "payable",
      "type": "function"
    },
    {
      "inputs": [],
      "name": "registerCreatorProtocolFee",
      "outputs": [
        {
          "internalType": "uint256",
          "name": "",
          "type": "uint256"
        }
      ],
      "stateMutability": "view",
      "type": "function"
    },
    {
      "inputs": [],
      "name": "removeBadgeModelCreator",
      "outputs": [],
      "stateMutability": "view",
      "type": "function"
    },
    {
      "inputs": [
        {
          "internalType": "bytes32",
          "name": "role",
          "type": "bytes32"
        },
        {
          "internalType": "address",
          "name": "account",
          "type": "address"
        }
      ],
      "name": "renounceRole",
      "outputs": [],
      "stateMutability": "nonpayable",
      "type": "function"
    },
    {
      "inputs": [
        {
          "internalType": "bytes32",
          "name": "role",
          "type": "bytes32"
        },
        {
          "internalType": "address",
          "name": "account",
          "type": "address"
        }
      ],
      "name": "revokeRole",
      "outputs": [],
      "stateMutability": "nonpayable",
      "type": "function"
    },
    {
      "inputs": [
        {
          "internalType": "address",
          "name": "from",
          "type": "address"
        },
        {
          "internalType": "address",
          "name": "to",
          "type": "address"
        },
        {
          "internalType": "uint256[]",
          "name": "ids",
          "type": "uint256[]"
        },
        {
          "internalType": "uint256[]",
          "name": "amounts",
          "type": "uint256[]"
        },
        {
          "internalType": "bytes",
          "name": "data",
          "type": "bytes"
        }
      ],
      "name": "safeBatchTransferFrom",
      "outputs": [],
      "stateMutability": "nonpayable",
      "type": "function"
    },
    {
      "inputs": [
        {
          "internalType": "address",
          "name": "from",
          "type": "address"
        },
        {
          "internalType": "address",
          "name": "to",
          "type": "address"
        },
        {
          "internalType": "uint256",
          "name": "id",
          "type": "uint256"
        },
        {
          "internalType": "uint256",
          "name": "amount",
          "type": "uint256"
        },
        {
          "internalType": "bytes",
          "name": "data",
          "type": "bytes"
        }
      ],
      "name": "safeTransferFrom",
      "outputs": [],
      "stateMutability": "nonpayable",
      "type": "function"
    },
    {
      "inputs": [
        {
          "internalType": "address",
          "name": "operator",
          "type": "address"
        },
        {
          "internalType": "bool",
          "name": "approved",
          "type": "bool"
        }
      ],
      "name": "setApprovalForAll",
      "outputs": [],
      "stateMutability": "nonpayable",
      "type": "function"
    },
    {
      "inputs": [
        {
          "internalType": "bytes4",
          "name": "interfaceId",
          "type": "bytes4"
        }
      ],
      "name": "supportsInterface",
      "outputs": [
        {
          "internalType": "bool",
          "name": "",
          "type": "bool"
        }
      ],
      "stateMutability": "view",
      "type": "function"
    },
    {
      "inputs": [],
      "name": "suspendBadgeModel",
      "outputs": [],
      "stateMutability": "view",
      "type": "function"
    },
    {
      "inputs": [
        {
          "internalType": "address",
          "name": "_creator",
          "type": "address"
        },
        {
          "internalType": "bool",
          "name": "suspended",
          "type": "bool"
        }
      ],
      "name": "suspendBadgeModelCreator",
      "outputs": [],
      "stateMutability": "nonpayable",
      "type": "function"
    },
    {
      "inputs": [],
      "name": "unpause",
      "outputs": [],
      "stateMutability": "nonpayable",
      "type": "function"
    },
    {
      "inputs": [
        {
          "internalType": "uint256",
          "name": "badgeModelId",
          "type": "uint256"
        },
        {
          "internalType": "uint256",
          "name": "mintCreatorFee",
          "type": "uint256"
        },
        {
          "internalType": "bool",
          "name": "paused",
          "type": "bool"
        }
      ],
      "name": "updateBadgeModel",
      "outputs": [],
      "stateMutability": "nonpayable",
      "type": "function"
    },
    {
      "inputs": [
        {
          "internalType": "address",
          "name": "_creator",
          "type": "address"
        },
        {
          "internalType": "string",
          "name": "_metadata",
          "type": "string"
        }
      ],
      "name": "updateBadgeModelCreator",
      "outputs": [],
      "stateMutability": "nonpayable",
      "type": "function"
    },
    {
      "inputs": [
        {
          "internalType": "uint256",
          "name": "badgeModelId",
          "type": "uint256"
        },
        {
          "internalType": "uint256",
          "name": "feeInBps",
          "type": "uint256"
        }
      ],
      "name": "updateBadgeModelProtocolFee",
      "outputs": [],
      "stateMutability": "nonpayable",
      "type": "function"
    },
    {
      "inputs": [
        {
          "internalType": "uint256",
          "name": "_createBadgeModelValue",
          "type": "uint256"
        }
      ],
      "name": "updateCreateBadgeModelProtocolFee",
      "outputs": [],
      "stateMutability": "nonpayable",
      "type": "function"
    },
    {
      "inputs": [
        {
          "internalType": "uint256",
          "name": "_mintBadgeDefaultFee",
          "type": "uint256"
        }
      ],
      "name": "updateMintBadgeDefaultProtocolFee",
      "outputs": [],
      "stateMutability": "nonpayable",
      "type": "function"
    },
    {
      "inputs": [
        {
          "internalType": "uint256",
          "name": "_registerCreatorValue",
          "type": "uint256"
        }
      ],
      "name": "updateRegisterCreatorProtocolFee",
      "outputs": [],
      "stateMutability": "nonpayable",
      "type": "function"
    },
    {
      "inputs": [
        {
          "internalType": "address",
          "name": "newImplementation",
          "type": "address"
        }
      ],
      "name": "upgradeTo",
      "outputs": [],
      "stateMutability": "nonpayable",
      "type": "function"
    },
    {
      "inputs": [
        {
          "internalType": "address",
          "name": "newImplementation",
          "type": "address"
        },
        {
          "internalType": "bytes",
          "name": "data",
          "type": "bytes"
        }
      ],
      "name": "upgradeToAndCall",
      "outputs": [],
      "stateMutability": "payable",
      "type": "function"
    },
    {
      "inputs": [
        {
          "internalType": "uint256",
          "name": "badgeId",
          "type": "uint256"
        }
      ],
      "name": "uri",
      "outputs": [
        {
          "internalType": "string",
          "name": "",
          "type": "string"
        }
      ],
      "stateMutability": "view",
      "type": "function"
    },
    {
      "stateMutability": "payable",
      "type": "receive"
    }
  ],
  "bytecode": "0x60a0604052306080523480156200001557600080fd5b506200002062000026565b620000e8565b600054610100900460ff1615620000935760405162461bcd60e51b815260206004820152602760248201527f496e697469616c697a61626c653a20636f6e747261637420697320696e697469604482015266616c697a696e6760c81b606482015260840160405180910390fd5b60005460ff9081161015620000e6576000805460ff191660ff9081179091556040519081527f7f26b83ff96e1f2b6a682f133852f6798a09c465da95921460cefb38474024989060200160405180910390a15b565b608051614cd8620001206000396000818161104001528181611080015281816115cf0152818161160f015261169e0152614cd86000f3fe6080604052600436106103025760003560e01c8063828efb2511610190578063c5a3c7ca116100dc578063e181865111610095578063ede37dd41161006f578063ede37dd414610a0c578063f1fe717e14610a2c578063f242432a14610a4c578063f72c0d8b14610a6c57600080fd5b8063e181865114610981578063e63ab1e9146109a1578063e985e9c5146109c357600080fd5b8063c5a3c7ca146108ba578063c9e4eba1146108da578063cb22dfcb146108ed578063d53913931461090d578063d547741f14610941578063d9548e531461096157600080fd5b8063a22cb46511610149578063c0c53b8b11610123578063c0c53b8b1461082e578063c1d188401461084e578063c227fb1114610861578063c415b95c1461088157600080fd5b8063a22cb465146107ce578063a9710d9a146107ee578063c0a39d121461080e57600080fd5b8063828efb25146106c85780638456cb59146106db57806391d14854146106f0578063933166e11461071057806398e36d8b1461073f578063a217fddf146107b957600080fd5b806341954e091161024f57806357f8188f11610208578063632f7c83116101e2578063632f7c83146105dd57806364d8baef146105fd5780637333b375146106145780637f3457101461069457600080fd5b806357f8188f146104f05780635c975abb1461059157806362a2a47c146105a957600080fd5b806341954e09146104f057806346c45758146105055780634e1273f4146105255780634e5eceae146105525780634f1ef2861461056957806352d1902d1461057c57600080fd5b80632eb2c2d6116102bc57806336568abe1161029657806336568abe1461047b5780633659cfe61461049b5780633f4ba83a146104bb5780633fd11238146104d057600080fd5b80632eb2c2d6146104085780632f2ff15d14610428578063302b01801461044857600080fd5b8062fdd58e1461030e57806301ffc9a7146103415780630e89341c146103715780631adb76821461039e578063248a9ca3146103c057806327096c46146103f157600080fd5b3661030957005b600080fd5b34801561031a57600080fd5b5061032e610329366004613bfe565b610aa0565b6040519081526020015b60405180910390f35b34801561034d57600080fd5b5061036161035c366004613c3e565b610cfc565b6040519015158152602001610338565b34801561037d57600080fd5b5061039161038c366004613c5b565b610d07565b6040516103389190613cc4565b3480156103aa57600080fd5b506103be6103b9366004613ce5565b610d12565b005b3480156103cc57600080fd5b5061032e6103db366004613c5b565b600090815261015f602052604090206001015490565b3480156103fd57600080fd5b5061032e6101935481565b34801561041457600080fd5b506103be610423366004613e8c565b610e62565b34801561043457600080fd5b506103be610443366004613f35565b610eb7565b34801561045457600080fd5b50610468610463366004613c5b565b610ee2565b6040516103389796959493929190613f61565b34801561048757600080fd5b506103be610496366004613f35565b610fb8565b3480156104a757600080fd5b506103be6104b6366004613fb1565b611036565b3480156104c757600080fd5b506103be611115565b3480156104dc57600080fd5b506103be6104eb366004613fcc565b611135565b3480156104fc57600080fd5b506103be6111ed565b34801561051157600080fd5b5061032e610520366004613bfe565b611211565b34801561053157600080fd5b50610545610540366004614003565b61149c565b6040516103389190614108565b34801561055e57600080fd5b5061032e6101955481565b6103be61057736600461411b565b6115c5565b34801561058857600080fd5b5061032e611691565b34801561059d57600080fd5b5060c95460ff16610361565b3480156105b557600080fd5b5061032e7f2dca0f5ce7e75a4b43fe2b0d6f5d0b7a2bf92ecf89f8f0aa17b8308b6703882181565b3480156105e957600080fd5b5061032e6105f8366004613c5b565b611745565b34801561060957600080fd5b5061032e6101945481565b34801561062057600080fd5b5061066d61062f36600461415e565b805180820160209081018051610198825292820191909301209152546001600160a01b0381169060ff600160a01b8204811691600160a81b90041683565b604080516001600160a01b0390941684529115156020840152151590820152606001610338565b3480156106a057600080fd5b5061032e7f7804d923f43a17d325d77e781528e0793b2edd9890ab45fc64efd7b4b427744c81565b6103be6106d6366004614192565b61182c565b3480156106e757600080fd5b506103be611b2e565b3480156106fc57600080fd5b5061036161070b366004613f35565b611b4e565b34801561071c57600080fd5b5061073061072b366004613fb1565b611b7a565b60405161033893929190614257565b34801561074b57600080fd5b5061078f61075a366004613c5b565b61019a60205260009081526040902080546001820154600283015460039093015491926001600160a01b039091169160ff1684565b604080519485526001600160a01b0390931660208501529183015215156060820152608001610338565b3480156107c557600080fd5b5061032e600081565b3480156107da57600080fd5b506103be6107e9366004613fcc565b611c2b565b3480156107fa57600080fd5b506103be61080936600461411b565b611c36565b34801561081a57600080fd5b506103be610829366004614281565b611cd6565b34801561083a57600080fd5b506103be6108493660046142c5565b611e49565b6103be61085c366004614308565b61205e565b34801561086d57600080fd5b5061036161087c366004613c5b565b6125c6565b34801561088d57600080fd5b50610196546108a2906001600160a01b031681565b6040516001600160a01b039091168152602001610338565b3480156108c657600080fd5b506103be6108d5366004613c5b565b61263c565b6103be6108e836600461415e565b61267a565b3480156108f957600080fd5b5061032e610908366004614385565b612787565b34801561091957600080fd5b5061032e7f9f2df0fed2c77648de5860a4cc508cd0818c85b8b8a1ab4ceeef8d981c8956a681565b34801561094d57600080fd5b506103be61095c366004613f35565b6127c6565b34801561096d57600080fd5b5061036161097c366004613c5b565b6127ec565b34801561098d57600080fd5b506103be61099c366004613c5b565b61287c565b3480156109ad57600080fd5b5061032e600080516020614c5c83398151915281565b3480156109cf57600080fd5b506103616109de3660046143ba565b6001600160a01b03918216600090815260666020908152604080832093909416825291909152205460ff1690565b348015610a1857600080fd5b506103be610a273660046143e4565b6128ba565b348015610a3857600080fd5b506103be610a47366004613c5b565b612935565b348015610a5857600080fd5b506103be610a67366004614406565b612973565b348015610a7857600080fd5b5061032e7f189ab7a9244df0848122154315af71fe140f3db0fe014031783b0946b8c9d2e381565b600081815261019a6020908152604080832081516080810183528154815260018201546001600160a01b0316938101939093526002810154918301919091526003015460ff16158015606083015280610b0f5750836001600160a01b031681602001516001600160a01b031614155b15610b1e576000915050610cf6565b610b27836127ec565b1515600103610b3a576000915050610cf6565b8051600090815261019960209081526040808320815160e0810190925280546001600160a01b031682526001810180549293919291840191610b7b9061446a565b80601f0160208091040260200160405190810160405280929190818152602001828054610ba79061446a565b8015610bf45780601f10610bc957610100808354040283529160200191610bf4565b820191906000526020600020905b815481529060010190602001808311610bd757829003601f168201915b5050509183525050600282015460ff908116151560208084019190915260038401546040808501919091526004850154606085015260058501546080850152600690940154909116151560a090920191909152820151905191925060009161019891610c5f916144a4565b90815260405190819003602001812054631174806160e11b82526001600160a01b0316915081906322e900c290610c9e90889060040190815260200190565b602060405180830381865afa158015610cbb573d6000803e3d6000fd5b505050506040513d601f19601f82011682018060405250810190610cdf91906144c0565b610cea576000610ced565b60015b60ff1693505050505b92915050565b6000610cf6826129b8565b6060610cf6826129dd565b336000908152610197602090815260408083208684526101999092529091208154859291908290610d429061446a565b9050600003610d6457604051638fcc03fd60e01b815260040160405180910390fd5b60018083015460ff1615159003610d8e5760405163401d786960e11b815260040160405180910390fd5b80546001600160a01b0316610db657604051638fa97ef960e01b815260040160405180910390fd5b80546001600160a01b03163314610de05760405163806ecc4960e01b815260040160405180910390fd5b60008681526101996020526040902080546001600160a01b0316610e17576040516336f7ce4f60e11b815260040160405180910390fd5b6003810186905560028101805460ff191686151517905560405187907fc7fe3866a4edc843062ecfa12604d4a6686605fb2bd8a2323d96dc40c08d9e3d90600090a250505050505050565b6001600160a01b038516331480610e7e5750610e7e85336109de565b610ea35760405162461bcd60e51b8152600401610e9a906144dd565b60405180910390fd5b610eb08585858585612abc565b5050505050565b600082815261015f6020526040902060010154610ed381612caa565b610edd8383612cb4565b505050565b61019960205260009081526040902080546001820180546001600160a01b039092169291610f0f9061446a565b80601f0160208091040260200160405190810160405280929190818152602001828054610f3b9061446a565b8015610f885780601f10610f5d57610100808354040283529160200191610f88565b820191906000526020600020905b815481529060010190602001808311610f6b57829003601f168201915b5050506002840154600385015460048601546005870154600690970154959660ff93841696929550909350911687565b6001600160a01b03811633146110285760405162461bcd60e51b815260206004820152602f60248201527f416363657373436f6e74726f6c3a2063616e206f6e6c792072656e6f756e636560448201526e103937b632b9903337b91039b2b63360891b6064820152608401610e9a565b6110328282612d3b565b5050565b6001600160a01b037f000000000000000000000000000000000000000000000000000000000000000016300361107e5760405162461bcd60e51b8152600401610e9a9061452b565b7f00000000000000000000000000000000000000000000000000000000000000006001600160a01b03166110c7600080516020614c3c833981519152546001600160a01b031690565b6001600160a01b0316146110ed5760405162461bcd60e51b8152600401610e9a90614577565b6110f681612da3565b6040805160008082526020820190925261111291839190612dcd565b50565b600080516020614c5c83398151915261112d81612caa565b611112612f38565b600080516020614c5c83398151915261114d81612caa565b6001600160a01b038316600090815261019760205260409020805481906111739061446a565b905060000361119557604051637bc3ac5560e11b815260040160405180910390fd5b60018101805460ff19168415159081179091556040519081526001600160a01b038516907feabcc99b8eacf20db83fc3b01249ebdab27258f082db573fe4606fdca5a737bf906020015b60405180910390a250505050565b60006111f881612caa565b60405163aaa2c00360e01b815260040160405180910390fd5b600081815261019b602090815260408083206001600160a01b0386168452909152812054810361124357506000610cf6565b600082815261019960209081526040808320815160e0810190925280546001600160a01b0316825260018101805492939192918401916112829061446a565b80601f01602080910402602001604051908101604052809291908181526020018280546112ae9061446a565b80156112fb5780601f106112d0576101008083540402835291602001916112fb565b820191906000526020600020905b8154815290600101906020018083116112de57829003601f168201915b5050509183525050600282015460ff908116151560208084019190915260038401546040808501919091526004850154606085015260058501546080850152600690940154909116151560a090920191909152820151905191925060009161019891611366916144a4565b908152604051908190036020019020546001600160a01b031690506000805b600086815261019b602090815260408083206001600160a01b038b16845290915290205481101561149257600086815261019b602090815260408083206001600160a01b038b16845290915281208054839081106113e5576113e56145c3565b906000526020600020015490506113fb816127ec565b15801561146c5750604051631174806160e11b8152600481018290526001600160a01b038516906322e900c290602401602060405180830381865afa158015611448573d6000803e3d6000fd5b505050506040513d601f19601f8201168201806040525081019061146c91906144c0565b1561147f578261147b816145ef565b9350505b508061148a816145ef565b915050611385565b5095945050505050565b606081518351146115015760405162461bcd60e51b815260206004820152602960248201527f455243313135353a206163636f756e747320616e6420696473206c656e677468604482015268040dad2e6dac2e8c6d60bb1b6064820152608401610e9a565b600083516001600160401b0381111561151c5761151c613d1e565b604051908082528060200260200182016040528015611545578160200160208202803683370190505b50905060005b84518110156115bd57611590858281518110611569576115696145c3565b6020026020010151858381518110611583576115836145c3565b6020026020010151610aa0565b8282815181106115a2576115a26145c3565b60209081029190910101526115b6816145ef565b905061154b565b509392505050565b6001600160a01b037f000000000000000000000000000000000000000000000000000000000000000016300361160d5760405162461bcd60e51b8152600401610e9a9061452b565b7f00000000000000000000000000000000000000000000000000000000000000006001600160a01b0316611656600080516020614c3c833981519152546001600160a01b031690565b6001600160a01b03161461167c5760405162461bcd60e51b8152600401610e9a90614577565b61168582612da3565b61103282826001612dcd565b6000306001600160a01b037f000000000000000000000000000000000000000000000000000000000000000016146117315760405162461bcd60e51b815260206004820152603860248201527f555550535570677261646561626c653a206d757374206e6f742062652063616c60448201527f6c6564207468726f7567682064656c656761746563616c6c00000000000000006064820152608401610e9a565b50600080516020614c3c8339815191525b90565b60008181526101996020526040812080546001600160a01b031661177c576040516336f7ce4f60e11b815260040160405180910390fd5b600061019882600101604051611792919061467b565b90815260405190819003602001812054600384015463632f7c8360e01b83526001600160a01b03909116925090829063632f7c83906117d990889060040190815260200190565b602060405180830381865afa1580156117f6573d6000803e3d6000fd5b505050506040513d601f19601f8201168201806040525081019061181a9190614687565b61182491906146a0565b949350505050565b33600090815261019760205260409020805481906118499061446a565b905060000361186b57604051638fcc03fd60e01b815260040160405180910390fd5b6101945434101561188f5760405163043f7a7d60e21b815260040160405180910390fd5b600061019884602001516040516118a691906144a4565b90815260405190819003602001902080549091506001600160a01b03166118e0576040516323be546760e01b815260040160405180910390fd5b8054600160a01b900460ff161561190a57604051630d70501560e11b815260040160405180910390fd5b8054600160a81b900460ff16151560000361193857604051630d70501560e11b815260040160405180910390fd5b341561197a57610196546040516001600160a01b03909116903480156108fc02916000818181858888f19350505050158015611978573d6000803e3d6000fd5b505b6040518060e0016040528061198c3390565b6001600160a01b031681526020018560200151815260200160001515815260200185604001518152602001856060015181526020016101955481526020016001151581525061019960006119e06101915490565b8152602080820192909252604001600020825181546001600160a01b0319166001600160a01b03909116178155908201516001820190611a2090826146f9565b50604082015160028201805491151560ff19928316179055606083015160038301556080830151600483015560a0830151600583015560c0909201516006909101805491151591909216179055611a776101915490565b84516040517f584274d31df3e2cf85a9d6dfaf82b219994725ca486f214ef93fbec2d054dca091611aa791613cc4565b60405180910390a280546001600160a01b03166377a3989e611ac96101915490565b856040518363ffffffff1660e01b8152600401611ae79291906147b8565b600060405180830381600087803b158015611b0157600080fd5b505af1158015611b15573d6000803e3d6000fd5b50505050611b2861019180546001019055565b50505050565b600080516020614c5c833981519152611b4681612caa565b611112612f8a565b600091825261015f602090815260408084206001600160a01b0393909316845291905290205460ff1690565b61019760205260009081526040902080548190611b969061446a565b80601f0160208091040260200160405190810160405280929190818152602001828054611bc29061446a565b8015611c0f5780601f10611be457610100808354040283529160200191611c0f565b820191906000526020600020905b815481529060010190602001808311611bf257829003601f168201915b5050506001909301549192505060ff8082169161010090041683565b611032338383612fc7565b6000611c4181612caa565b6001600160a01b03831660009081526101976020526040902080548190611c679061446a565b9050600003611c8957604051637bc3ac5560e11b815260040160405180910390fd5b825115611c9d5780611c9b84826146f9565b505b836001600160a01b03167f5b12b24c4622e8e6af38c1749b1261965b5098a96fb4b4cfb6075eb20c77fc58846040516111df9190613cc4565b6000611ce181612caa565b600061019884604051611cf491906144a4565b908152602001604051809103902090508351600003611d265760405163a8d052f160e01b815260040160405180910390fd5b6001600160a01b038316611d4d5760405163278e974f60e01b815260040160405180910390fd5b80546001600160a01b031615611d7657604051631c783ddb60e01b815260040160405180910390fd5b604080516060810182526001600160a01b038516815260006020820152600181830152905161019890611daa9087906144a4565b908152604080519182900360209081018320845181549286015195909301511515600160a81b0260ff60a81b19951515600160a01b026001600160a81b03199093166001600160a01b039485161792909217949094161790925590841690611e139086906144a4565b604051908190038120907fe5593a32c4e8802f5034c3eb5fb2d05210d31e05841af6500e5cac618d29605f90600090a350505050565b600054610100900460ff1615808015611e695750600054600160ff909116105b80611e835750303b158015611e83575060005460ff166001145b611ee65760405162461bcd60e51b815260206004820152602e60248201527f496e697469616c697a61626c653a20636f6e747261637420697320616c72656160448201526d191e481a5b9a5d1a585b1a5e995960921b6064820152608401610e9a565b6000805460ff191660011790558015611f09576000805461ff0019166101001790555b611f2160405180602001604052806000815250612fe0565b611f29613010565b611f31613039565b611f39613010565b611f44600085612cb4565b611f5c600080516020614c5c83398151915233612cb4565b611f867f9f2df0fed2c77648de5860a4cc508cd0818c85b8b8a1ab4ceeef8d981c8956a683612cb4565b611fb07f189ab7a9244df0848122154315af71fe140f3db0fe014031783b0946b8c9d2e333612cb4565b61019680546001600160a01b0319166001600160a01b038581169190911790915560006101938190556101948190556103e861019555604051848316928716917fdc90fed0326ba91706deeac7eb34ac9f8b680734f9d782864dc29704d23bed6a91a38015611b28576000805461ff0019169055604051600181527f7f26b83ff96e1f2b6a682f133852f6798a09c465da95921460cefb38474024989060200160405180910390a150505050565b6000848152610199602052604080822090518692906101989061208590600185019061467b565b9081526040805160209281900383019020805485546001600160a01b039081166000818152610197909652939094209194509290921691906120da576040516385a6706360e01b815260040160405180910390fd5b60018082015460ff16151590036121045760405163a800bb9d60e01b815260040160405180910390fd5b600284015460ff161561212a57604051635d71fd6f60e01b815260040160405180910390fd5b8254600160a01b900460ff161561215457604051631bd063c360e01b815260040160405180910390fd5b6000898152610199602052604080822090518b9289928c929091906101989061218190600185019061467b565b90815260405190819003602001902080549091506001600160a01b03166121a786611745565b3410156121c7576040516393fda7e360e01b815260040160405180910390fd5b6003830154156123d35760006121e584600301548560050154613068565b905060008185600301546121f991906147d1565b610196546040519192506000916001600160a01b039091169084908381818185875af1925050503d806000811461224c576040519150601f19603f3d011682016040523d82523d6000602084013e612251565b606091505b50509050806122a25760405162461bcd60e51b815260206004820152601b60248201527f4661696c656420746f207061792070726f746f636f6c206665657300000000006044820152606401610e9a565b886000610196546040518681526001600160a01b03909116907fd18793644b4cb4ec0f937f8153dc09112d762775084c0ae5b4c21a7b91f6909f9060200160405180910390a485546040516000916001600160a01b03169084908381818185875af1925050503d8060008114612334576040519150601f19603f3d011682016040523d82523d6000602084013e612339565b606091505b505090508061238a5760405162461bcd60e51b815260206004820152601a60248201527f4661696c656420746f207061792063726561746f7220666565730000000000006044820152606401610e9a565b89600188546040518681526001600160a01b03909116907fd18793644b4cb4ec0f937f8153dc09112d762775084c0ae5b4c21a7b91f6909f9060200160405180910390a4505050505b60006123df6101925490565b90506123eb818f613099565b6124128582600160405180604001604052806002815260200161060f60f31b8152506130ea565b6000846004015460001461243457600485015461242f90426146a0565b612437565b60005b604080516080810182528a81526001600160a01b03898116602080840182815284860187815260016060870181815260008c815261019a865289812098518955935188830180546001600160a01b0319169189169190911790559151600288015590516003968701805460ff19169115159190911790558f825261019b83528682209382529282529485208054928301815585528420018690559088015492935090919085169063731133e9906124ee90346147d1565b338c878d6040518663ffffffff1660e01b815260040161251194939291906147e4565b60206040518083038185885af115801561252f573d6000803e3d6000fd5b50505050506040513d601f19601f820116820180604052508101906125549190614687565b905061256561019280546001019055565b8454604080516001600160a01b039283168152602081018490529189169185918c917f186b125f639893ac3dcb02d857d0fd29319e8f764fd26f4a77310e8c678fbbd0910160405180910390a4505050505050505050505050505050505050565b60008181526101996020526040812080546001600160a01b03166125fd576040516336f7ce4f60e11b815260040160405180910390fd5b80546001600160a01b031660009081526101976020526040902060018181015460ff1615159003612632575060019392505050565b5060009392505050565b600061264781612caa565b6101948290556040517f810f1720fbc34c56d171f89315ad21708648fd17424c27b88fa208409845aa7790600090a15050565b61019354341461269d5760405163045801c760e31b815260040160405180910390fd5b34156126df57610196546040516001600160a01b03909116903480156108fc02916000818181858888f193505050501580156126dd573d6000803e3d6000fd5b505b33600090815261019760205260409020805481906126fc9061446a565b15905061271c57604051633b46b81f60e21b815260040160405180910390fd5b8061272783826146f9565b5060018101805461ffff19166101001790556127403390565b6001600160a01b03167f436a110767b6510e398091d7e698dbc3a574692ec743e8e40f4fb1ccefc00fc88260000160405161277b919061481b565b60405180910390a25050565b61019b60205282600052604060002060205281600052604060002081815481106127b057600080fd5b9060005260206000200160009250925050505481565b600082815261015f60205260409020600101546127e281612caa565b610edd8383612d3b565b600081815261019a6020908152604080832081516080810183528154815260018201546001600160a01b0316938101939093526002810154918301919091526003015460ff16151560608201819052820361284a5750600092915050565b806040015160000361285f5750600092915050565b4281604001511115612872576000612875565b60015b9392505050565b600061288781612caa565b6101958290556040517f810f1720fbc34c56d171f89315ad21708648fd17424c27b88fa208409845aa7790600090a15050565b60006128c581612caa565b60008381526101996020526040902080546001600160a01b03166128fc576040516336f7ce4f60e11b815260040160405180910390fd5b6005810183905560405183815284907f897164bdb6d8ca3f923345d02b5a56e8908961ca8cf15e0c67d1c1dee7f22a82906020016111df565b600061294081612caa565b6101938290556040517f810f1720fbc34c56d171f89315ad21708648fd17424c27b88fa208409845aa7790600090a15050565b6001600160a01b03851633148061298f575061298f85336109de565b6129ab5760405162461bcd60e51b8152600401610e9a906144dd565b610eb0858585858561320f565b60006001600160e01b03198216637965db0b60e01b1480610cf65750610cf68261334b565b6000818152609860205260408120805460609291906129fb9061446a565b80601f0160208091040260200160405190810160405280929190818152602001828054612a279061446a565b8015612a745780601f10612a4957610100808354040283529160200191612a74565b820191906000526020600020905b815481529060010190602001808311612a5757829003601f168201915b505050505090506000815111612a9257612a8d8361339b565b612875565b609781604051602001612aa69291906148a6565b6040516020818303038152906040529392505050565b8151835114612b1e5760405162461bcd60e51b815260206004820152602860248201527f455243313135353a2069647320616e6420616d6f756e7473206c656e677468206044820152670dad2e6dac2e8c6d60c31b6064820152608401610e9a565b6001600160a01b038416612b445760405162461bcd60e51b8152600401610e9a906148cb565b33612b5381878787878761342f565b60005b8451811015612c3c576000858281518110612b7357612b736145c3565b602002602001015190506000858381518110612b9157612b916145c3565b60209081029190910181015160008481526065835260408082206001600160a01b038e168352909352919091205490915081811015612be25760405162461bcd60e51b8152600401610e9a90614910565b60008381526065602090815260408083206001600160a01b038e8116855292528083208585039055908b16825281208054849290612c219084906146a0565b9250508190555050505080612c35906145ef565b9050612b56565b50846001600160a01b0316866001600160a01b0316826001600160a01b03167f4a39dc06d4c0dbc64b70af90fd698a233a518aa5d07e595d983b8c0526c8f7fb8787604051612c8c92919061495a565b60405180910390a4612ca2818787878787613464565b505050505050565b61111281336135bf565b612cbe8282611b4e565b61103257600082815261015f602090815260408083206001600160a01b03851684529091529020805460ff19166001179055612cf73390565b6001600160a01b0316816001600160a01b0316837f2f8788117e7eff1d82e926ec794901d17c78024a50270940304540a733656f0d60405160405180910390a45050565b612d458282611b4e565b1561103257600082815261015f602090815260408083206001600160a01b0385168085529252808320805460ff1916905551339285917ff6391f5c32d9c69d2a47ea670b442974b53935d1edc7fd64eb21e047a839171b9190a45050565b7f189ab7a9244df0848122154315af71fe140f3db0fe014031783b0946b8c9d2e361103281612caa565b7f4910fdfa16fed3260ed0e7147f7cc6da11a60208b5b9406d12a635614ffd91435460ff1615612e0057610edd83613618565b826001600160a01b03166352d1902d6040518163ffffffff1660e01b8152600401602060405180830381865afa925050508015612e5a575060408051601f3d908101601f19168201909252612e5791810190614687565b60015b612ebd5760405162461bcd60e51b815260206004820152602e60248201527f45524331393637557067726164653a206e657720696d706c656d656e7461746960448201526d6f6e206973206e6f74205555505360901b6064820152608401610e9a565b600080516020614c3c8339815191528114612f2c5760405162461bcd60e51b815260206004820152602960248201527f45524331393637557067726164653a20756e737570706f727465642070726f786044820152681a58589b195555525160ba1b6064820152608401610e9a565b50610edd8383836136b4565b612f406136d9565b60c9805460ff191690557f5db9ee0a495bf2e6ff9c91a7834c1ba4fdd244a5e8aa4e537bd38aeae4b073aa335b6040516001600160a01b03909116815260200160405180910390a1565b612f92613722565b60c9805460ff191660011790557f62e78cea01bee320cd4e420270b5ea74000d11b0c9f74754ebdbfc544b05a258612f6d3390565b6040516305d39ac360e51b815260040160405180910390fd5b600054610100900460ff166130075760405162461bcd60e51b8152600401610e9a9061497f565b61111281613768565b600054610100900460ff166130375760405162461bcd60e51b8152600401610e9a9061497f565b565b600054610100900460ff166130605760405162461bcd60e51b8152600401610e9a9061497f565b613037613798565b600061271061307783856149ca565b101561308257600080fd5b61271061308f83856149ca565b61287591906149e1565b60008281526098602052604090206130b182826146f9565b50817f6bb7ff708619ba0610cba295a58592e0451dee2622938c8755667688daf3529b6130dd84610d07565b60405161277b9190613cc4565b6001600160a01b03841661314a5760405162461bcd60e51b815260206004820152602160248201527f455243313135353a206d696e7420746f20746865207a65726f206164647265736044820152607360f81b6064820152608401610e9a565b336000613156856137cb565b90506000613163856137cb565b90506131748360008985858961342f565b60008681526065602090815260408083206001600160a01b038b168452909152812080548792906131a69084906146a0565b909155505060408051878152602081018790526001600160a01b03808a1692600092918716917fc3d58168c5ae7397731d063d5bbf3d657854427343f4c083240f7aacaa2d0f62910160405180910390a461320683600089898989613816565b50505050505050565b6001600160a01b0384166132355760405162461bcd60e51b8152600401610e9a906148cb565b336000613241856137cb565b9050600061324e856137cb565b905061325e83898985858961342f565b60008681526065602090815260408083206001600160a01b038c168452909152902054858110156132a15760405162461bcd60e51b8152600401610e9a90614910565b60008781526065602090815260408083206001600160a01b038d8116855292528083208985039055908a168252812080548892906132e09084906146a0565b909155505060408051888152602081018890526001600160a01b03808b16928c821692918816917fc3d58168c5ae7397731d063d5bbf3d657854427343f4c083240f7aacaa2d0f62910160405180910390a4613340848a8a8a8a8a613816565b505050505050505050565b60006001600160e01b03198216636cdb3d1360e11b148061337c57506001600160e01b031982166303a24d0760e21b145b80610cf657506301ffc9a760e01b6001600160e01b0319831614610cf6565b6060606780546133aa9061446a565b80601f01602080910402602001604051908101604052809291908181526020018280546133d69061446a565b80156134235780601f106133f857610100808354040283529160200191613423565b820191906000526020600020905b81548152906001019060200180831161340657829003601f168201915b50505050509050919050565b613437613722565b6001600160a01b0385161561345f576040516305d39ac360e51b815260040160405180910390fd5b612ca2565b6001600160a01b0384163b15612ca25760405163bc197c8160e01b81526001600160a01b0385169063bc197c81906134a89089908990889088908890600401614a03565b6020604051808303816000875af19250505080156134e3575060408051601f3d908101601f191682019092526134e091810190614a61565b60015b61358f576134ef614a7e565b806308c379a0036135285750613503614a99565b8061350e575061352a565b8060405162461bcd60e51b8152600401610e9a9190613cc4565b505b60405162461bcd60e51b815260206004820152603460248201527f455243313135353a207472616e7366657220746f206e6f6e2d455243313135356044820152732932b1b2b4bb32b91034b6b83632b6b2b73a32b960611b6064820152608401610e9a565b6001600160e01b0319811663bc197c8160e01b146132065760405162461bcd60e51b8152600401610e9a90614b22565b6135c98282611b4e565b611032576135d6816138d1565b6135e18360206138e3565b6040516020016135f2929190614b6a565b60408051601f198184030181529082905262461bcd60e51b8252610e9a91600401613cc4565b6001600160a01b0381163b6136855760405162461bcd60e51b815260206004820152602d60248201527f455243313936373a206e657720696d706c656d656e746174696f6e206973206e60448201526c1bdd08184818dbdb9d1c9858dd609a1b6064820152608401610e9a565b600080516020614c3c83398151915280546001600160a01b0319166001600160a01b0392909216919091179055565b6136bd83613a7e565b6000825111806136ca5750805b15610edd57611b288383613abe565b60c95460ff166130375760405162461bcd60e51b815260206004820152601460248201527314185d5cd8589b194e881b9bdd081c185d5cd95960621b6044820152606401610e9a565b60c95460ff16156130375760405162461bcd60e51b815260206004820152601060248201526f14185d5cd8589b194e881c185d5cd95960821b6044820152606401610e9a565b600054610100900460ff1661378f5760405162461bcd60e51b8152600401610e9a9061497f565b61111281613bb2565b600054610100900460ff166137bf5760405162461bcd60e51b8152600401610e9a9061497f565b60c9805460ff19169055565b60408051600180825281830190925260609160009190602080830190803683370190505090508281600081518110613805576138056145c3565b602090810291909101015292915050565b6001600160a01b0384163b15612ca25760405163f23a6e6160e01b81526001600160a01b0385169063f23a6e619061385a9089908990889088908890600401614bdf565b6020604051808303816000875af1925050508015613895575060408051601f3d908101601f1916820190925261389291810190614a61565b60015b6138a1576134ef614a7e565b6001600160e01b0319811663f23a6e6160e01b146132065760405162461bcd60e51b8152600401610e9a90614b22565b6060610cf66001600160a01b03831660145b606060006138f28360026149ca565b6138fd9060026146a0565b6001600160401b0381111561391457613914613d1e565b6040519080825280601f01601f19166020018201604052801561393e576020820181803683370190505b509050600360fc1b81600081518110613959576139596145c3565b60200101906001600160f81b031916908160001a905350600f60fb1b81600181518110613988576139886145c3565b60200101906001600160f81b031916908160001a90535060006139ac8460026149ca565b6139b79060016146a0565b90505b6001811115613a2f576f181899199a1a9b1b9c1cb0b131b232b360811b85600f16601081106139eb576139eb6145c3565b1a60f81b828281518110613a0157613a016145c3565b60200101906001600160f81b031916908160001a90535060049490941c93613a2881614c24565b90506139ba565b5083156128755760405162461bcd60e51b815260206004820181905260248201527f537472696e67733a20686578206c656e67746820696e73756666696369656e746044820152606401610e9a565b613a8781613618565b6040516001600160a01b038216907fbc7cd75a20ee27fd9adebab32041f755214dbc6bffa90cc0225b39da2e5c2d3b90600090a250565b60606001600160a01b0383163b613b265760405162461bcd60e51b815260206004820152602660248201527f416464726573733a2064656c65676174652063616c6c20746f206e6f6e2d636f6044820152651b9d1c9858dd60d21b6064820152608401610e9a565b600080846001600160a01b031684604051613b4191906144a4565b600060405180830381855af49150503d8060008114613b7c576040519150601f19603f3d011682016040523d82523d6000602084013e613b81565b606091505b5091509150613ba98282604051806060016040528060278152602001614c7c60279139613bbe565b95945050505050565b606761103282826146f9565b60608315613bcd575081612875565b612875838381511561350e5781518083602001fd5b80356001600160a01b0381168114613bf957600080fd5b919050565b60008060408385031215613c1157600080fd5b613c1a83613be2565b946020939093013593505050565b6001600160e01b03198116811461111257600080fd5b600060208284031215613c5057600080fd5b813561287581613c28565b600060208284031215613c6d57600080fd5b5035919050565b60005b83811015613c8f578181015183820152602001613c77565b50506000910152565b60008151808452613cb0816020860160208601613c74565b601f01601f19169290920160200192915050565b6020815260006128756020830184613c98565b801515811461111257600080fd5b600080600060608486031215613cfa57600080fd5b83359250602084013591506040840135613d1381613cd7565b809150509250925092565b634e487b7160e01b600052604160045260246000fd5b608081018181106001600160401b0382111715613d5357613d53613d1e565b60405250565b601f8201601f191681016001600160401b0381118282101715613d7e57613d7e613d1e565b6040525050565b60006001600160401b03821115613d9e57613d9e613d1e565b5060051b60200190565b600082601f830112613db957600080fd5b81356020613dc682613d85565b604051613dd38282613d59565b83815260059390931b8501820192828101915086841115613df357600080fd5b8286015b84811015613e0e5780358352918301918301613df7565b509695505050505050565b600082601f830112613e2a57600080fd5b81356001600160401b03811115613e4357613e43613d1e565b604051613e5a601f8301601f191660200182613d59565b818152846020838601011115613e6f57600080fd5b816020850160208301376000918101602001919091529392505050565b600080600080600060a08688031215613ea457600080fd5b613ead86613be2565b9450613ebb60208701613be2565b935060408601356001600160401b0380821115613ed757600080fd5b613ee389838a01613da8565b94506060880135915080821115613ef957600080fd5b613f0589838a01613da8565b93506080880135915080821115613f1b57600080fd5b50613f2888828901613e19565b9150509295509295909350565b60008060408385031215613f4857600080fd5b82359150613f5860208401613be2565b90509250929050565b6001600160a01b038816815260e060208201819052600090613f8590830189613c98565b9615156040830152506060810194909452608084019290925260a0830152151560c09091015292915050565b600060208284031215613fc357600080fd5b61287582613be2565b60008060408385031215613fdf57600080fd5b613fe883613be2565b91506020830135613ff881613cd7565b809150509250929050565b6000806040838503121561401657600080fd5b82356001600160401b038082111561402d57600080fd5b818501915085601f83011261404157600080fd5b8135602061404e82613d85565b60405161405b8282613d59565b83815260059390931b850182019282810191508984111561407b57600080fd5b948201945b838610156140a05761409186613be2565b82529482019490820190614080565b965050860135925050808211156140b657600080fd5b506140c385828601613da8565b9150509250929050565b600081518084526020808501945080840160005b838110156140fd578151875295820195908201906001016140e1565b509495945050505050565b60208152600061287560208301846140cd565b6000806040838503121561412e57600080fd5b61413783613be2565b915060208301356001600160401b0381111561415257600080fd5b6140c385828601613e19565b60006020828403121561417057600080fd5b81356001600160401b0381111561418657600080fd5b61182484828501613e19565b600080604083850312156141a557600080fd5b82356001600160401b03808211156141bc57600080fd5b90840190608082870312156141d057600080fd5b6040516141dc81613d34565b8235828111156141eb57600080fd5b6141f788828601613e19565b82525060208301358281111561420c57600080fd5b61421888828601613e19565b602083015250604083013560408201526060830135606082015280945050602085013591508082111561424a57600080fd5b506140c385828601613e19565b60608152600061426a6060830186613c98565b931515602083015250901515604090910152919050565b6000806040838503121561429457600080fd5b82356001600160401b038111156142aa57600080fd5b6142b685828601613e19565b925050613f5860208401613be2565b6000806000606084860312156142da57600080fd5b6142e384613be2565b92506142f160208501613be2565b91506142ff60408501613be2565b90509250925092565b6000806000806080858703121561431e57600080fd5b8435935061432e60208601613be2565b925060408501356001600160401b038082111561434a57600080fd5b61435688838901613e19565b9350606087013591508082111561436c57600080fd5b5061437987828801613e19565b91505092959194509250565b60008060006060848603121561439a57600080fd5b833592506143aa60208501613be2565b9150604084013590509250925092565b600080604083850312156143cd57600080fd5b6143d683613be2565b9150613f5860208401613be2565b600080604083850312156143f757600080fd5b50508035926020909101359150565b600080600080600060a0868803121561441e57600080fd5b61442786613be2565b945061443560208701613be2565b9350604086013592506060860135915060808601356001600160401b0381111561445e57600080fd5b613f2888828901613e19565b600181811c9082168061447e57607f821691505b60208210810361449e57634e487b7160e01b600052602260045260246000fd5b50919050565b600082516144b6818460208701613c74565b9190910192915050565b6000602082840312156144d257600080fd5b815161287581613cd7565b6020808252602e908201527f455243313135353a2063616c6c6572206973206e6f7420746f6b656e206f776e60408201526d195c881bdc88185c1c1c9bdd995960921b606082015260800190565b6020808252602c908201527f46756e6374696f6e206d7573742062652063616c6c6564207468726f7567682060408201526b19195b1959d85d1958d85b1b60a21b606082015260800190565b6020808252602c908201527f46756e6374696f6e206d7573742062652063616c6c6564207468726f7567682060408201526b6163746976652070726f787960a01b606082015260800190565b634e487b7160e01b600052603260045260246000fd5b634e487b7160e01b600052601160045260246000fd5b600060018201614601576146016145d9565b5060010190565b600081546146158161446a565b6001828116801561462d576001811461464257614671565b60ff1984168752821515830287019450614671565b8560005260208060002060005b858110156146685781548a82015290840190820161464f565b50505082870194505b5050505092915050565b60006128758284614608565b60006020828403121561469957600080fd5b5051919050565b80820180821115610cf657610cf66145d9565b601f821115610edd57600081815260208120601f850160051c810160208610156146da5750805b601f850160051c820191505b81811015612ca2578281556001016146e6565b81516001600160401b0381111561471257614712613d1e565b61472681614720845461446a565b846146b3565b602080601f83116001811461475b57600084156147435750858301515b600019600386901b1c1916600185901b178555612ca2565b600085815260208120601f198616915b8281101561478a5788860151825594840194600190910190840161476b565b50858210156147a85787850151600019600388901b60f8161c191681555b5050505050600190811b01905550565b8281526040602082015260006118246040830184613c98565b81810381811115610cf657610cf66145d9565b60018060a01b03851681528360208201528260408201526080606082015260006148116080830184613c98565b9695505050505050565b600060208083526000845461482f8161446a565b80848701526040600180841660008114614850576001811461486a57614898565b60ff1985168984015283151560051b890183019550614898565b896000528660002060005b858110156148905781548b8201860152908301908801614875565b8a0184019650505b509398975050505050505050565b60006148b28285614608565b83516148c2818360208801613c74565b01949350505050565b60208082526025908201527f455243313135353a207472616e7366657220746f20746865207a65726f206164604082015264647265737360d81b606082015260800190565b6020808252602a908201527f455243313135353a20696e73756666696369656e742062616c616e636520666f60408201526939103a3930b739b332b960b11b606082015260800190565b60408152600061496d60408301856140cd565b8281036020840152613ba981856140cd565b6020808252602b908201527f496e697469616c697a61626c653a20636f6e7472616374206973206e6f74206960408201526a6e697469616c697a696e6760a81b606082015260800190565b8082028115828204841417610cf657610cf66145d9565b6000826149fe57634e487b7160e01b600052601260045260246000fd5b500490565b6001600160a01b0386811682528516602082015260a060408201819052600090614a2f908301866140cd565b8281036060840152614a4181866140cd565b90508281036080840152614a558185613c98565b98975050505050505050565b600060208284031215614a7357600080fd5b815161287581613c28565b600060033d11156117425760046000803e5060005160e01c90565b600060443d1015614aa75790565b6040516003193d81016004833e81513d6001600160401b038160248401118184111715614ad657505050505090565b8285019150815181811115614aee5750505050505090565b843d8701016020828501011115614b085750505050505090565b614b1760208286010187613d59565b509095945050505050565b60208082526028908201527f455243313135353a204552433131353552656365697665722072656a656374656040820152676420746f6b656e7360c01b606082015260800190565b7f416363657373436f6e74726f6c3a206163636f756e7420000000000000000000815260008351614ba2816017850160208801613c74565b7001034b99036b4b9b9b4b733903937b6329607d1b6017918401918201528351614bd3816028840160208801613c74565b01602801949350505050565b6001600160a01b03868116825285166020820152604081018490526060810183905260a060808201819052600090614c1990830184613c98565b979650505050505050565b600081614c3357614c336145d9565b50600019019056fe360894a13ba1a3210667c828492db98dca3e2076cc3735a920a3ca505d382bbc65d7a28e3265b37a6474929f336521b332c1681b933f6cb9f3376673440d862a416464726573733a206c6f772d6c6576656c2064656c65676174652063616c6c206661696c6564a2646970667358221220511a3c3cfc6b80493056316ca6cf78b37908db7292e99befe5aebac8b448655a64736f6c63430008110033",
  "linkReferences": {},
  "deployedLinkReferences": {}
}