{
  "_format": "hh-sol-artifact-1",
  "contractName": "TheBadgeStore",
  "sourceName": "src/contracts/thebadge/TheBadgeStore.sol",
  "abi": [
    {
      "inputs": [],
      "stateMutability": "nonpayable",
      "type": "constructor"
    },
    {
      "inputs": [],
      "name": "AccessControlBadConfirmation",
      "type": "error"
    },
    {
      "inputs": [
        {
          "internalType": "address",
          "name": "account",
          "type": "address"
        },
        {
          "internalType": "bytes32",
          "name": "neededRole",
          "type": "bytes32"
        }
      ],
      "name": "AccessControlUnauthorizedAccount",
      "type": "error"
    },
    {
      "inputs": [],
      "name": "InvalidInitialization",
      "type": "error"
    },
    {
      "inputs": [],
      "name": "NotInitializing",
      "type": "error"
    },
    {
      "inputs": [
        {
          "internalType": "address",
          "name": "owner",
          "type": "address"
        }
      ],
      "name": "OwnableInvalidOwner",
      "type": "error"
    },
    {
      "inputs": [
        {
          "internalType": "address",
          "name": "account",
          "type": "address"
        }
      ],
      "name": "OwnableUnauthorizedAccount",
      "type": "error"
    },
    {
      "inputs": [],
      "name": "TheBadge__Store_ContractNameAlreadyExists",
      "type": "error"
    },
    {
      "inputs": [],
      "name": "TheBadge__Store_InvalidBadgeID",
      "type": "error"
    },
    {
      "inputs": [],
      "name": "TheBadge__Store_InvalidContractAddress",
      "type": "error"
    },
    {
      "inputs": [],
      "name": "TheBadge__Store_InvalidContractName",
      "type": "error"
    },
    {
      "inputs": [],
      "name": "TheBadge__Store_InvalidUserAddress",
      "type": "error"
    },
    {
      "inputs": [],
      "name": "TheBadge__Store_OperationNotPermitted",
      "type": "error"
    },
    {
      "inputs": [],
      "name": "TheBadge__addBadgeModelController_alreadySet",
      "type": "error"
    },
    {
      "inputs": [],
      "name": "TheBadge__addBadgeModelController_notFound",
      "type": "error"
    },
    {
      "inputs": [],
      "name": "TheBadge__badgeModel_badgeModelNotFound",
      "type": "error"
    },
    {
      "inputs": [],
      "name": "TheBadge__registerUser_alreadyRegistered",
      "type": "error"
    },
    {
      "inputs": [],
      "name": "TheBadge__updateUser_notFound",
      "type": "error"
    },
    {
      "anonymous": false,
      "inputs": [
        {
          "indexed": true,
          "internalType": "string",
          "name": "_contractName",
          "type": "string"
        },
        {
          "indexed": true,
          "internalType": "address",
          "name": "contractAddress",
          "type": "address"
        }
      ],
      "name": "ContractAdded",
      "type": "event"
    },
    {
      "anonymous": false,
      "inputs": [
        {
          "indexed": true,
          "internalType": "string",
          "name": "_contractName",
          "type": "string"
        },
        {
          "indexed": true,
          "internalType": "address",
          "name": "contractAddress",
          "type": "address"
        }
      ],
      "name": "ContractRemoved",
      "type": "event"
    },
    {
      "anonymous": false,
      "inputs": [
        {
          "indexed": true,
          "internalType": "string",
          "name": "_contractName",
          "type": "string"
        },
        {
          "indexed": true,
          "internalType": "address",
          "name": "contractAddress",
          "type": "address"
        }
      ],
      "name": "ContractUpdated",
      "type": "event"
    },
    {
      "anonymous": false,
      "inputs": [
        {
          "indexed": false,
          "internalType": "uint64",
          "name": "version",
          "type": "uint64"
        }
      ],
      "name": "Initialized",
      "type": "event"
    },
    {
      "anonymous": false,
      "inputs": [
        {
          "indexed": true,
          "internalType": "address",
          "name": "previousOwner",
          "type": "address"
        },
        {
          "indexed": true,
          "internalType": "address",
          "name": "newOwner",
          "type": "address"
        }
      ],
      "name": "OwnershipTransferred",
      "type": "event"
    },
    {
      "anonymous": false,
      "inputs": [
        {
          "indexed": true,
          "internalType": "bytes32",
          "name": "role",
          "type": "bytes32"
        },
        {
          "indexed": true,
          "internalType": "bytes32",
          "name": "previousAdminRole",
          "type": "bytes32"
        },
        {
          "indexed": true,
          "internalType": "bytes32",
          "name": "newAdminRole",
          "type": "bytes32"
        }
      ],
      "name": "RoleAdminChanged",
      "type": "event"
    },
    {
      "anonymous": false,
      "inputs": [
        {
          "indexed": true,
          "internalType": "bytes32",
          "name": "role",
          "type": "bytes32"
        },
        {
          "indexed": true,
          "internalType": "address",
          "name": "account",
          "type": "address"
        },
        {
          "indexed": true,
          "internalType": "address",
          "name": "sender",
          "type": "address"
        }
      ],
      "name": "RoleGranted",
      "type": "event"
    },
    {
      "anonymous": false,
      "inputs": [
        {
          "indexed": true,
          "internalType": "bytes32",
          "name": "role",
          "type": "bytes32"
        },
        {
          "indexed": true,
          "internalType": "address",
          "name": "account",
          "type": "address"
        },
        {
          "indexed": true,
          "internalType": "address",
          "name": "sender",
          "type": "address"
        }
      ],
      "name": "RoleRevoked",
      "type": "event"
    },
    {
      "inputs": [],
      "name": "CLAIMER_ROLE",
      "outputs": [
        {
          "internalType": "bytes32",
          "name": "",
          "type": "bytes32"
        }
      ],
      "stateMutability": "view",
      "type": "function"
    },
    {
      "inputs": [],
      "name": "DEFAULT_ADMIN_ROLE",
      "outputs": [
        {
          "internalType": "bytes32",
          "name": "",
          "type": "bytes32"
        }
      ],
      "stateMutability": "view",
      "type": "function"
    },
    {
      "inputs": [],
      "name": "PAUSER_ROLE",
      "outputs": [
        {
          "internalType": "bytes32",
          "name": "",
          "type": "bytes32"
        }
      ],
      "stateMutability": "view",
      "type": "function"
    },
    {
      "inputs": [],
      "name": "UPGRADER_ROLE",
      "outputs": [
        {
          "internalType": "bytes32",
          "name": "",
          "type": "bytes32"
        }
      ],
      "stateMutability": "view",
      "type": "function"
    },
    {
      "inputs": [],
      "name": "URI_SETTER_ROLE",
      "outputs": [
        {
          "internalType": "bytes32",
          "name": "",
          "type": "bytes32"
        }
      ],
      "stateMutability": "view",
      "type": "function"
    },
    {
      "inputs": [],
      "name": "USER_MANAGER_ROLE",
      "outputs": [
        {
          "internalType": "bytes32",
          "name": "",
          "type": "bytes32"
        }
      ],
      "stateMutability": "view",
      "type": "function"
    },
    {
      "inputs": [],
      "name": "VERIFIER_ROLE",
      "outputs": [
        {
          "internalType": "bytes32",
          "name": "",
          "type": "bytes32"
        }
      ],
      "stateMutability": "view",
      "type": "function"
    },
    {
      "inputs": [
        {
          "internalType": "uint256",
          "name": "badgeId",
          "type": "uint256"
        },
        {
          "components": [
            {
              "internalType": "uint256",
              "name": "badgeModelId",
              "type": "uint256"
            },
            {
              "internalType": "address",
              "name": "account",
              "type": "address"
            },
            {
              "internalType": "uint256",
              "name": "dueDate",
              "type": "uint256"
            },
            {
              "internalType": "bool",
              "name": "initialized",
              "type": "bool"
            }
          ],
          "internalType": "struct TheBadgeStore.Badge",
          "name": "badge",
          "type": "tuple"
        }
      ],
      "name": "addBadge",
      "outputs": [],
      "stateMutability": "nonpayable",
      "type": "function"
    },
    {
      "inputs": [
        {
          "components": [
            {
              "internalType": "address",
              "name": "creator",
              "type": "address"
            },
            {
              "internalType": "string",
              "name": "controllerName",
              "type": "string"
            },
            {
              "internalType": "bool",
              "name": "paused",
              "type": "bool"
            },
            {
              "internalType": "uint256",
              "name": "mintCreatorFee",
              "type": "uint256"
            },
            {
              "internalType": "uint256",
              "name": "validFor",
              "type": "uint256"
            },
            {
              "internalType": "uint256",
              "name": "mintProtocolFee",
              "type": "uint256"
            },
            {
              "internalType": "bool",
              "name": "initialized",
              "type": "bool"
            },
            {
              "internalType": "string",
              "name": "version",
              "type": "string"
            }
          ],
          "internalType": "struct TheBadgeStore.BadgeModel",
          "name": "badgeModel",
          "type": "tuple"
        }
      ],
      "name": "addBadgeModel",
      "outputs": [],
      "stateMutability": "nonpayable",
      "type": "function"
    },
    {
      "inputs": [
        {
          "internalType": "string",
          "name": "controllerName",
          "type": "string"
        },
        {
          "components": [
            {
              "internalType": "address",
              "name": "controller",
              "type": "address"
            },
            {
              "internalType": "bool",
              "name": "paused",
              "type": "bool"
            },
            {
              "internalType": "bool",
              "name": "initialized",
              "type": "bool"
            }
          ],
          "internalType": "struct TheBadgeStore.BadgeModelController",
          "name": "badgeModelController",
          "type": "tuple"
        }
      ],
      "name": "addBadgeModelController",
      "outputs": [],
      "stateMutability": "nonpayable",
      "type": "function"
    },
    {
      "inputs": [
        {
          "internalType": "string",
          "name": "_contractName",
          "type": "string"
        },
        {
          "internalType": "address",
          "name": "_contractAddress",
          "type": "address"
        }
      ],
      "name": "addPermittedContract",
      "outputs": [],
      "stateMutability": "nonpayable",
      "type": "function"
    },
    {
      "inputs": [
        {
          "internalType": "address",
          "name": "",
          "type": "address"
        }
      ],
      "name": "allowedContractAddresses",
      "outputs": [
        {
          "internalType": "bool",
          "name": "",
          "type": "bool"
        }
      ],
      "stateMutability": "view",
      "type": "function"
    },
    {
      "inputs": [
        {
          "internalType": "string",
          "name": "",
          "type": "string"
        }
      ],
      "name": "allowedContractAddressesByContractName",
      "outputs": [
        {
          "internalType": "address",
          "name": "",
          "type": "address"
        }
      ],
      "stateMutability": "view",
      "type": "function"
    },
    {
      "inputs": [
        {
          "internalType": "string",
          "name": "",
          "type": "string"
        }
      ],
      "name": "badgeModelControllers",
      "outputs": [
        {
          "internalType": "address",
          "name": "controller",
          "type": "address"
        },
        {
          "internalType": "bool",
          "name": "paused",
          "type": "bool"
        },
        {
          "internalType": "bool",
          "name": "initialized",
          "type": "bool"
        }
      ],
      "stateMutability": "view",
      "type": "function"
    },
    {
      "inputs": [
        {
          "internalType": "address",
          "name": "",
          "type": "address"
        }
      ],
      "name": "badgeModelControllersByAddress",
      "outputs": [
        {
          "internalType": "address",
          "name": "controller",
          "type": "address"
        },
        {
          "internalType": "bool",
          "name": "paused",
          "type": "bool"
        },
        {
          "internalType": "bool",
          "name": "initialized",
          "type": "bool"
        }
      ],
      "stateMutability": "view",
      "type": "function"
    },
    {
      "inputs": [
        {
          "internalType": "uint256",
          "name": "",
          "type": "uint256"
        }
      ],
      "name": "badgeModels",
      "outputs": [
        {
          "internalType": "address",
          "name": "creator",
          "type": "address"
        },
        {
          "internalType": "string",
          "name": "controllerName",
          "type": "string"
        },
        {
          "internalType": "bool",
          "name": "paused",
          "type": "bool"
        },
        {
          "internalType": "uint256",
          "name": "mintCreatorFee",
          "type": "uint256"
        },
        {
          "internalType": "uint256",
          "name": "validFor",
          "type": "uint256"
        },
        {
          "internalType": "uint256",
          "name": "mintProtocolFee",
          "type": "uint256"
        },
        {
          "internalType": "bool",
          "name": "initialized",
          "type": "bool"
        },
        {
          "internalType": "string",
          "name": "version",
          "type": "string"
        }
      ],
      "stateMutability": "view",
      "type": "function"
    },
    {
      "inputs": [
        {
          "internalType": "uint256",
          "name": "",
          "type": "uint256"
        }
      ],
      "name": "badges",
      "outputs": [
        {
          "internalType": "uint256",
          "name": "badgeModelId",
          "type": "uint256"
        },
        {
          "internalType": "address",
          "name": "account",
          "type": "address"
        },
        {
          "internalType": "uint256",
          "name": "dueDate",
          "type": "uint256"
        },
        {
          "internalType": "bool",
          "name": "initialized",
          "type": "bool"
        }
      ],
      "stateMutability": "view",
      "type": "function"
    },
    {
      "inputs": [],
      "name": "createBadgeModelProtocolFee",
      "outputs": [
        {
          "internalType": "uint256",
          "name": "",
          "type": "uint256"
        }
      ],
      "stateMutability": "view",
      "type": "function"
    },
    {
      "inputs": [
        {
          "internalType": "address",
          "name": "userAddress",
          "type": "address"
        },
        {
          "components": [
            {
              "internalType": "string",
              "name": "metadata",
              "type": "string"
            },
            {
              "internalType": "bool",
              "name": "isCompany",
              "type": "bool"
            },
            {
              "internalType": "bool",
              "name": "isCreator",
              "type": "bool"
            },
            {
              "internalType": "bool",
              "name": "suspended",
              "type": "bool"
            },
            {
              "internalType": "bool",
              "name": "initialized",
              "type": "bool"
            }
          ],
          "internalType": "struct TheBadgeStore.User",
          "name": "newUser",
          "type": "tuple"
        }
      ],
      "name": "createUser",
      "outputs": [],
      "stateMutability": "nonpayable",
      "type": "function"
    },
    {
      "inputs": [],
      "name": "feeCollector",
      "outputs": [
        {
          "internalType": "address",
          "name": "",
          "type": "address"
        }
      ],
      "stateMutability": "view",
      "type": "function"
    },
    {
      "inputs": [
        {
          "internalType": "uint256",
          "name": "badgeId",
          "type": "uint256"
        }
      ],
      "name": "getBadge",
      "outputs": [
        {
          "components": [
            {
              "internalType": "uint256",
              "name": "badgeModelId",
              "type": "uint256"
            },
            {
              "internalType": "address",
              "name": "account",
              "type": "address"
            },
            {
              "internalType": "uint256",
              "name": "dueDate",
              "type": "uint256"
            },
            {
              "internalType": "bool",
              "name": "initialized",
              "type": "bool"
            }
          ],
          "internalType": "struct TheBadgeStore.Badge",
          "name": "",
          "type": "tuple"
        }
      ],
      "stateMutability": "view",
      "type": "function"
    },
    {
      "inputs": [
        {
          "internalType": "uint256",
          "name": "badgeModelId",
          "type": "uint256"
        }
      ],
      "name": "getBadgeModel",
      "outputs": [
        {
          "components": [
            {
              "internalType": "address",
              "name": "creator",
              "type": "address"
            },
            {
              "internalType": "string",
              "name": "controllerName",
              "type": "string"
            },
            {
              "internalType": "bool",
              "name": "paused",
              "type": "bool"
            },
            {
              "internalType": "uint256",
              "name": "mintCreatorFee",
              "type": "uint256"
            },
            {
              "internalType": "uint256",
              "name": "validFor",
              "type": "uint256"
            },
            {
              "internalType": "uint256",
              "name": "mintProtocolFee",
              "type": "uint256"
            },
            {
              "internalType": "bool",
              "name": "initialized",
              "type": "bool"
            },
            {
              "internalType": "string",
              "name": "version",
              "type": "string"
            }
          ],
          "internalType": "struct TheBadgeStore.BadgeModel",
          "name": "",
          "type": "tuple"
        }
      ],
      "stateMutability": "view",
      "type": "function"
    },
    {
      "inputs": [
        {
          "internalType": "string",
          "name": "controllerName",
          "type": "string"
        }
      ],
      "name": "getBadgeModelController",
      "outputs": [
        {
          "components": [
            {
              "internalType": "address",
              "name": "controller",
              "type": "address"
            },
            {
              "internalType": "bool",
              "name": "paused",
              "type": "bool"
            },
            {
              "internalType": "bool",
              "name": "initialized",
              "type": "bool"
            }
          ],
          "internalType": "struct TheBadgeStore.BadgeModelController",
          "name": "",
          "type": "tuple"
        }
      ],
      "stateMutability": "view",
      "type": "function"
    },
    {
      "inputs": [
        {
          "internalType": "address",
          "name": "controllerAddress",
          "type": "address"
        }
      ],
      "name": "getBadgeModelControllerByAddress",
      "outputs": [
        {
          "components": [
            {
              "internalType": "address",
              "name": "controller",
              "type": "address"
            },
            {
              "internalType": "bool",
              "name": "paused",
              "type": "bool"
            },
            {
              "internalType": "bool",
              "name": "initialized",
              "type": "bool"
            }
          ],
          "internalType": "struct TheBadgeStore.BadgeModelController",
          "name": "",
          "type": "tuple"
        }
      ],
      "stateMutability": "view",
      "type": "function"
    },
    {
      "inputs": [],
      "name": "getCurrentBadgeIdCounter",
      "outputs": [
        {
          "internalType": "uint256",
          "name": "",
          "type": "uint256"
        }
      ],
      "stateMutability": "view",
      "type": "function"
    },
    {
      "inputs": [],
      "name": "getCurrentBadgeModelsIdCounter",
      "outputs": [
        {
          "internalType": "uint256",
          "name": "",
          "type": "uint256"
        }
      ],
      "stateMutability": "view",
      "type": "function"
    },
    {
      "inputs": [
        {
          "internalType": "bytes32",
          "name": "role",
          "type": "bytes32"
        }
      ],
      "name": "getRoleAdmin",
      "outputs": [
        {
          "internalType": "bytes32",
          "name": "",
          "type": "bytes32"
        }
      ],
      "stateMutability": "view",
      "type": "function"
    },
    {
      "inputs": [
        {
          "internalType": "address",
          "name": "userAddress",
          "type": "address"
        }
      ],
      "name": "getUser",
      "outputs": [
        {
          "components": [
            {
              "internalType": "string",
              "name": "metadata",
              "type": "string"
            },
            {
              "internalType": "bool",
              "name": "isCompany",
              "type": "bool"
            },
            {
              "internalType": "bool",
              "name": "isCreator",
              "type": "bool"
            },
            {
              "internalType": "bool",
              "name": "suspended",
              "type": "bool"
            },
            {
              "internalType": "bool",
              "name": "initialized",
              "type": "bool"
            }
          ],
          "internalType": "struct TheBadgeStore.User",
          "name": "",
          "type": "tuple"
        }
      ],
      "stateMutability": "view",
      "type": "function"
    },
    {
      "inputs": [
        {
          "internalType": "uint256",
          "name": "badgeModelId",
          "type": "uint256"
        },
        {
          "internalType": "address",
          "name": "userAddress",
          "type": "address"
        }
      ],
      "name": "getUserMintedBadgesByBadgeModel",
      "outputs": [
        {
          "internalType": "uint256[]",
          "name": "",
          "type": "uint256[]"
        }
      ],
      "stateMutability": "view",
      "type": "function"
    },
    {
      "inputs": [
        {
          "internalType": "bytes32",
          "name": "role",
          "type": "bytes32"
        },
        {
          "internalType": "address",
          "name": "account",
          "type": "address"
        }
      ],
      "name": "grantRole",
      "outputs": [],
      "stateMutability": "nonpayable",
      "type": "function"
    },
    {
      "inputs": [
        {
          "internalType": "bytes32",
          "name": "role",
          "type": "bytes32"
        },
        {
          "internalType": "address",
          "name": "account",
          "type": "address"
        }
      ],
      "name": "hasRole",
      "outputs": [
        {
          "internalType": "bool",
          "name": "",
          "type": "bool"
        }
      ],
      "stateMutability": "view",
      "type": "function"
    },
    {
      "inputs": [
        {
          "internalType": "address",
          "name": "admin",
          "type": "address"
        },
        {
          "internalType": "address",
          "name": "_feeCollector",
          "type": "address"
        }
      ],
      "name": "initialize",
      "outputs": [],
      "stateMutability": "nonpayable",
      "type": "function"
    },
    {
      "inputs": [],
      "name": "mintBadgeProtocolDefaultFeeInBps",
      "outputs": [
        {
          "internalType": "uint256",
          "name": "",
          "type": "uint256"
        }
      ],
      "stateMutability": "view",
      "type": "function"
    },
    {
      "inputs": [],
      "name": "owner",
      "outputs": [
        {
          "internalType": "address",
          "name": "",
          "type": "address"
        }
      ],
      "stateMutability": "view",
      "type": "function"
    },
    {
      "inputs": [],
      "name": "registerUserProtocolFee",
      "outputs": [
        {
          "internalType": "uint256",
          "name": "",
          "type": "uint256"
        }
      ],
      "stateMutability": "view",
      "type": "function"
    },
    {
      "inputs": [
        {
          "internalType": "address",
          "name": "",
          "type": "address"
        }
      ],
      "name": "registeredUsers",
      "outputs": [
        {
          "internalType": "string",
          "name": "metadata",
          "type": "string"
        },
        {
          "internalType": "bool",
          "name": "isCompany",
          "type": "bool"
        },
        {
          "internalType": "bool",
          "name": "isCreator",
          "type": "bool"
        },
        {
          "internalType": "bool",
          "name": "suspended",
          "type": "bool"
        },
        {
          "internalType": "bool",
          "name": "initialized",
          "type": "bool"
        }
      ],
      "stateMutability": "view",
      "type": "function"
    },
    {
      "inputs": [
        {
          "internalType": "string",
          "name": "_contractName",
          "type": "string"
        }
      ],
      "name": "removePermittedContract",
      "outputs": [],
      "stateMutability": "nonpayable",
      "type": "function"
    },
    {
      "inputs": [],
      "name": "renounceOwnership",
      "outputs": [],
      "stateMutability": "nonpayable",
      "type": "function"
    },
    {
      "inputs": [
        {
          "internalType": "bytes32",
          "name": "role",
          "type": "bytes32"
        },
        {
          "internalType": "address",
          "name": "callerConfirmation",
          "type": "address"
        }
      ],
      "name": "renounceRole",
      "outputs": [],
      "stateMutability": "nonpayable",
      "type": "function"
    },
    {
      "inputs": [
        {
          "internalType": "bytes32",
          "name": "role",
          "type": "bytes32"
        },
        {
          "internalType": "address",
          "name": "account",
          "type": "address"
        }
      ],
      "name": "revokeRole",
      "outputs": [],
      "stateMutability": "nonpayable",
      "type": "function"
    },
    {
      "inputs": [
        {
          "internalType": "bytes4",
          "name": "interfaceId",
          "type": "bytes4"
        }
      ],
      "name": "supportsInterface",
      "outputs": [
        {
          "internalType": "bool",
          "name": "",
          "type": "bool"
        }
      ],
      "stateMutability": "view",
      "type": "function"
    },
    {
      "inputs": [
        {
          "internalType": "uint256",
          "name": "badgeId",
          "type": "uint256"
        },
        {
          "internalType": "address",
          "name": "origin",
          "type": "address"
        },
        {
          "internalType": "address",
          "name": "destination",
          "type": "address"
        }
      ],
      "name": "transferBadge",
      "outputs": [],
      "stateMutability": "nonpayable",
      "type": "function"
    },
    {
      "inputs": [
        {
          "internalType": "address",
          "name": "newOwner",
          "type": "address"
        }
      ],
      "name": "transferOwnership",
      "outputs": [],
      "stateMutability": "nonpayable",
      "type": "function"
    },
    {
      "inputs": [
        {
          "internalType": "uint256",
          "name": "badgeModelId",
          "type": "uint256"
        },
        {
          "components": [
            {
              "internalType": "address",
              "name": "creator",
              "type": "address"
            },
            {
              "internalType": "string",
              "name": "controllerName",
              "type": "string"
            },
            {
              "internalType": "bool",
              "name": "paused",
              "type": "bool"
            },
            {
              "internalType": "uint256",
              "name": "mintCreatorFee",
              "type": "uint256"
            },
            {
              "internalType": "uint256",
              "name": "validFor",
              "type": "uint256"
            },
            {
              "internalType": "uint256",
              "name": "mintProtocolFee",
              "type": "uint256"
            },
            {
              "internalType": "bool",
              "name": "initialized",
              "type": "bool"
            },
            {
              "internalType": "string",
              "name": "version",
              "type": "string"
            }
          ],
          "internalType": "struct TheBadgeStore.BadgeModel",
          "name": "badgeModel",
          "type": "tuple"
        }
      ],
      "name": "updateBadgeModel",
      "outputs": [],
      "stateMutability": "nonpayable",
      "type": "function"
    },
    {
      "inputs": [
        {
          "internalType": "string",
          "name": "controllerName",
          "type": "string"
        },
        {
          "components": [
            {
              "internalType": "address",
              "name": "controller",
              "type": "address"
            },
            {
              "internalType": "bool",
              "name": "paused",
              "type": "bool"
            },
            {
              "internalType": "bool",
              "name": "initialized",
              "type": "bool"
            }
          ],
          "internalType": "struct TheBadgeStore.BadgeModelController",
          "name": "badgeModelController",
          "type": "tuple"
        }
      ],
      "name": "updateBadgeModelController",
      "outputs": [],
      "stateMutability": "nonpayable",
      "type": "function"
    },
    {
      "inputs": [
        {
          "internalType": "uint256",
          "name": "_createBadgeModelValue",
          "type": "uint256"
        }
      ],
      "name": "updateCreateBadgeModelProtocolFee",
      "outputs": [],
      "stateMutability": "nonpayable",
      "type": "function"
    },
    {
      "inputs": [
        {
          "internalType": "uint256",
          "name": "_mintBadgeDefaultFee",
          "type": "uint256"
        }
      ],
      "name": "updateMintBadgeDefaultProtocolFee",
      "outputs": [],
      "stateMutability": "nonpayable",
      "type": "function"
    },
    {
      "inputs": [
        {
          "internalType": "string",
          "name": "_contractName",
          "type": "string"
        },
        {
          "internalType": "address",
          "name": "_newContractAddress",
          "type": "address"
        }
      ],
      "name": "updatePermittedContract",
      "outputs": [],
      "stateMutability": "nonpayable",
      "type": "function"
    },
    {
      "inputs": [
        {
          "internalType": "uint256",
          "name": "_registerCreatorValue",
          "type": "uint256"
        }
      ],
      "name": "updateRegisterCreatorProtocolFee",
      "outputs": [],
      "stateMutability": "nonpayable",
      "type": "function"
    },
    {
      "inputs": [
        {
          "internalType": "address",
          "name": "userAddress",
          "type": "address"
        },
        {
          "components": [
            {
              "internalType": "string",
              "name": "metadata",
              "type": "string"
            },
            {
              "internalType": "bool",
              "name": "isCompany",
              "type": "bool"
            },
            {
              "internalType": "bool",
              "name": "isCreator",
              "type": "bool"
            },
            {
              "internalType": "bool",
              "name": "suspended",
              "type": "bool"
            },
            {
              "internalType": "bool",
              "name": "initialized",
              "type": "bool"
            }
          ],
          "internalType": "struct TheBadgeStore.User",
          "name": "updatedUser",
          "type": "tuple"
        }
      ],
      "name": "updateUser",
      "outputs": [],
      "stateMutability": "nonpayable",
      "type": "function"
    },
    {
      "inputs": [
        {
          "internalType": "uint256",
          "name": "",
          "type": "uint256"
        },
        {
          "internalType": "address",
          "name": "",
          "type": "address"
        },
        {
          "internalType": "uint256",
          "name": "",
          "type": "uint256"
        }
      ],
      "name": "userMintedBadgesByBadgeModel",
      "outputs": [
        {
          "internalType": "uint256",
          "name": "",
          "type": "uint256"
        }
      ],
      "stateMutability": "view",
      "type": "function"
    },
    {
      "stateMutability": "payable",
      "type": "receive"
    }
  ],
  "bytecode": "0x608060405234801562000010575f80fd5b506200001b62000021565b620000d5565b7ff0c57e16840df040f15088dc2f81fe391c3923bec73e23a9662efc9c229c6a00805468010000000000000000900460ff1615620000725760405163f92ee8a960e01b815260040160405180910390fd5b80546001600160401b0390811614620000d25780546001600160401b0319166001600160401b0390811782556040519081527fc7f505b2f371ae2175ee4913f4499e1f2633a7b5936321eed1cdaeb6115181d29060200160405180910390a15b50565b612be580620000e35f395ff3fe608060405260043610610273575f3560e01c80637333b3751161014d578063c956ebd9116100ba578063c956ebd914610956578063d547741f14610975578063e181865114610994578063e63ab1e9146109b3578063e70a0e69146109e6578063e7343c8a146109fb578063e7705db614610a0e578063e9ab224e14610a41578063f1fe717e14610a60578063f2be2c8514610a7f578063f2fde38b14610aab578063f72c0d8b14610aca578063fc5f18d314610afd575f80fd5b80637333b375146106795780637f345710146106d05780638d838622146107035780638da5cb5b146107cb57806391d14854146107df57806398e36d8b146107fe57806399448a2c14610875578063a1fa355c14610894578063a217fddf146108b3578063a41e35c3146108c6578063b26fc204146108f9578063c415b95c14610918578063c5a3c7ca14610937575f80fd5b80632f2ff15d116101eb5780632f2ff15d146104835780632f922796146104a2578063302b01801461051357806336568abe14610546578063385c4372146105655780634085b52714610584578063485cc955146105a35780634e5eceae146105c257806364d8baef146105d7578063658658c6146105ec578063687a05571461060b5780636f77926b14610639578063715018a614610665575f80fd5b806301719d2b1461027e57806301ffc9a7146102d157806304db069f1461030057806306d7a28c1461032157806308473d4a1461036e57806308e5bf211461039a5780630a5f1ec5146103b85780630deee176146103d75780630e50cee5146103f6578063178682c1146104265780631a9f36c014610445578063248a9ca314610464575f80fd5b3661027a57005b5f80fd5b348015610289575f80fd5b5061029d610298366004612237565b610b30565b6040805182516001600160a01b03168152602080840151151590820152918101511515908201526060015b60405180910390f35b3480156102dc575f80fd5b506102f06102eb366004612257565b610b8a565b60405190151581526020016102c8565b34801561030b575f80fd5b5061031f61031a366004612430565b610bc0565b005b34801561032c575f80fd5b5061036161033b366004612469565b80516020818301810180516007825292820191909301209152546001600160a01b031681565b6040516102c8919061249a565b348015610379575f80fd5b5061038d6103883660046124ae565b610cae565b6040516102c891906124d8565b3480156103a5575f80fd5b506001545b6040519081526020016102c8565b3480156103c3575f80fd5b5061031f6103d236600461251b565b610d1f565b3480156103e2575f80fd5b5061031f6103f1366004612469565b610e86565b348015610401575f80fd5b50610415610410366004612237565b610f67565b6040516102c89594939291906125a1565b348015610431575f80fd5b5061031f6104403660046125d9565b611027565b348015610450575f80fd5b5061031f61045f366004612697565b611137565b34801561046f575f80fd5b506103aa61047e36600461273c565b611289565b34801561048e575f80fd5b5061031f61049d3660046124ae565b6112a7565b3480156104ad575f80fd5b506104ec6104bc366004612237565b600a6020525f90815260409020546001600160a01b0381169060ff600160a01b8204811691600160a81b90041683565b604080516001600160a01b03909416845291151560208401521515908201526060016102c8565b34801561051e575f80fd5b5061053261052d36600461273c565b6112c9565b6040516102c8989796959493929190612753565b348015610551575f80fd5b5061031f6105603660046124ae565b611429565b348015610570575f80fd5b5061029d61057f366004612469565b611461565b34801561058f575f80fd5b5061031f61059e3660046127bc565b6114c6565b3480156105ae575f80fd5b5061031f6105bd366004612849565b611598565b3480156105cd575f80fd5b506103aa60045481565b3480156105e2575f80fd5b506103aa60035481565b3480156105f7575f80fd5b5061031f610606366004612697565b6116c7565b348015610616575f80fd5b506102f0610625366004612237565b60066020525f908152604090205460ff1681565b348015610644575f80fd5b50610658610653366004612237565b611757565b6040516102c89190612871565b348015610670575f80fd5b5061031f611878565b348015610684575f80fd5b506104ec610693366004612469565b8051808201602090810180516009825292820191909301209152546001600160a01b0381169060ff600160a01b8204811691600160a81b90041683565b3480156106db575f80fd5b506103aa7f7804d923f43a17d325d77e781528e0793b2edd9890ab45fc64efd7b4b427744c81565b34801561070e575f80fd5b5061078d61071d36600461273c565b60408051608080820183525f80835260208084018290528385018290526060938401829052948152600c8552839020835191820184528054825260018101546001600160a01b03169482019490945260028401549281019290925260039092015460ff1615159181019190915290565b6040516102c89190815181526020808301516001600160a01b0316908201526040808301519082015260609182015115159181019190915260800190565b3480156107d6575f80fd5b5061036161188b565b3480156107ea575f80fd5b506102f06107f93660046124ae565b6118a5565b348015610809575f80fd5b5061084b61081836600461273c565b600c6020525f9081526040902080546001820154600283015460039093015491926001600160a01b039091169160ff1684565b604080519485526001600160a01b03909316602085015291830152151560608201526080016102c8565b348015610880575f80fd5b506103aa61088f3660046128c8565b6118d9565b34801561089f575f80fd5b5061031f6108ae3660046128fa565b61190f565b3480156108be575f80fd5b506103aa5f81565b3480156108d1575f80fd5b506103aa7fcbaaf41b181bb6e269c490e876a7c97711b57e21dd8e5528423cf57579726b3581565b348015610904575f80fd5b5061031f6109133660046128fa565b611a26565b348015610923575f80fd5b50600554610361906001600160a01b031681565b348015610942575f80fd5b5061031f61095136600461273c565b611b57565b348015610961575f80fd5b5061031f61097036600461293b565b611b8f565b348015610980575f80fd5b5061031f61098f3660046124ae565b611c28565b34801561099f575f80fd5b5061031f6109ae36600461273c565b611c44565b3480156109be575f80fd5b506103aa7f65d7a28e3265b37a6474929f336521b332c1681b933f6cb9f3376673440d862a81565b3480156109f1575f80fd5b506103aa60025481565b348015610a06575f80fd5b505f546103aa565b348015610a19575f80fd5b506103aa7f0ce23c3e399818cfee81a7ab0880f714e53d7672b08df0fa62f2843416e1ea0981565b348015610a4c575f80fd5b5061031f610a5b3660046125d9565b611c7c565b348015610a6b575f80fd5b5061031f610a7a36600461273c565b611cf3565b348015610a8a575f80fd5b50610a9e610a9936600461273c565b611d2b565b6040516102c8919061297e565b348015610ab6575f80fd5b5061031f610ac5366004612237565b611f0d565b348015610ad5575f80fd5b506103aa7f189ab7a9244df0848122154315af71fe140f3db0fe014031783b0946b8c9d2e381565b348015610b08575f80fd5b506103aa7f11a8cb5a02bd6c42679835e867ef2118ba78f088f8300511420c6603c21d9c7881565b610b386121fd565b506001600160a01b039081165f908152600a602090815260409182902082516060810184529054938416815260ff600160a01b85048116151592820192909252600160a81b9093041615159082015290565b5f6001600160e01b03198216637965db0b60e01b1480610bba57506301ffc9a760e01b6001600160e01b03198316145b92915050565b335f9081526006602052604081205460ff1615159003610bf35760405163fb83383760e01b815260040160405180910390fd5b5f80548152600b60209081526040909120825181546001600160a01b0319166001600160a01b03909116178155908201518291906001820190610c369082612aa1565b50604082015160028201805491151560ff19928316179055606083015160038301556080830151600483015560a0830151600583015560c08301516006830180549115159190921617905560e08201516007820190610c959082612aa1565b50505f8054915080610ca683612b5c565b919050555050565b5f828152600d602090815260408083206001600160a01b0385168452825291829020805483518184028101840190945280845260609392830182828015610d1257602002820191905f5260205f20905b815481526020019060010190808311610cfe575b5050505050905092915050565b335f9081526006602052604081205460ff1615159003610d525760405163fb83383760e01b815260040160405180910390fd5b5f838152600c602052604090206001600160a01b0383161580610d7c57506001600160a01b038216155b15610d9a57604051630d806a2b60e11b815260040160405180910390fd5b600381015460ff1615155f03610dc3576040516355a150f760e11b815260040160405180910390fd5b60018101546001600160a01b03848116911614610df357604051630d806a2b60e11b815260040160405180910390fd5b6001810180546001600160a01b0319166001600160a01b038481169190911790915581545f908152600d60209081526040808320938716835292905220805485908110610e4257610e42612b80565b5f918252602080832090910182905591548152600d825260408082206001600160a01b03909416825292825291822080546001810182559083529120019190915550565b5f610e9081611f53565b5f600783604051610ea19190612b94565b908152604051908190036020019020546001600160a01b0316905080610ed95760405162b8005960e81b815260040160405180910390fd5b600783604051610ee99190612b94565b90815260408051918290036020908101832080546001600160a01b03191690556001600160a01b0384165f8181526006909252919020805460ff1916905590610f33908590612b94565b604051908190038120907f7ad6d7c73213a93d033801d72c729d90fb72104796b75ad799858b26f2b9872f905f90a3505050565b60086020525f9081526040902080548190610f8190612a1c565b80601f0160208091040260200160405190810160405280929190818152602001828054610fad90612a1c565b8015610ff85780601f10610fcf57610100808354040283529160200191610ff8565b820191905f5260205f20905b815481529060010190602001808311610fdb57829003601f168201915b5050506001909301549192505060ff808216916101008104821691620100008204811691630100000090041685565b335f9081526006602052604081205460ff161515900361105a5760405163fb83383760e01b815260040160405180910390fd5b6001600160a01b0382165f9081526008602052604090208054819061107e90612a1c565b90505f0361109f576040516365553c4160e11b815260040160405180910390fd5b6001600160a01b0383165f908152600860205260409020825183919081906110c79082612aa1565b50602082015160019190910180546040840151606085015160809095015161ffff1990921693151561ff00191693909317610100931515939093029290921763ffff00001916620100009315159390930263ff000000191692909217630100000091151591909102179055505050565b335f9081526006602052604081205460ff161515900361116a5760405163fb83383760e01b815260040160405180910390fd5b5f60098360405161117b9190612b94565b90815260405190819003602001902080549091506001600160a01b03166111b55760405163930b449560e01b815260040160405180910390fd5b80546001600160a01b03165f908152600a60205260409081902080546001600160b01b03191690555182906009906111ee908690612b94565b90815260408051602092819003830190208351815485850151958401516001600160a01b039283166001600160a81b031992831617600160a01b97151588021760ff60a81b19908116600160a81b921515830217909455885183165f908152600a875285902089518154978b01519a909601519590931695909116949094179615159094029590951790941693151502929092179091555050565b5f80611293611f5d565b5f9384526020525050604090206001015490565b6112b082611289565b6112b981611f53565b6112c38383611f81565b50505050565b600b6020525f9081526040902080546001820180546001600160a01b0390921692916112f490612a1c565b80601f016020809104026020016040519081016040528092919081815260200182805461132090612a1c565b801561136b5780601f106113425761010080835404028352916020019161136b565b820191905f5260205f20905b81548152906001019060200180831161134e57829003601f168201915b50505060028401546003850154600486015460058701546006880154600789018054989960ff96871699959850939650919416926113a890612a1c565b80601f01602080910402602001604051908101604052809291908181526020018280546113d490612a1c565b801561141f5780601f106113f65761010080835404028352916020019161141f565b820191905f5260205f20905b81548152906001019060200180831161140257829003601f168201915b5050505050905088565b6001600160a01b03811633146114525760405163334bd91960e11b815260040160405180910390fd5b61145c828261201f565b505050565b6114696121fd565b6009826040516114799190612b94565b908152604080519182900360209081018320606084018352546001600160a01b038116845260ff600160a01b82048116151592850192909252600160a81b90041615159082015292915050565b335f9081526006602052604081205460ff16151590036114f95760405163fb83383760e01b815260040160405180910390fd5b8051602080830180515f868152600c84526040808220875181559351600180860180546001600160a01b0319166001600160a01b0393841617905582890151600287015560608901516003909601805460ff191696151596909617909555868352600d8652818320908416835285528120805480850182559082529381209093018690558154909290919061158d83612b5c565b919050555050505050565b5f6115a1612095565b805490915060ff600160401b82041615906001600160401b03165f811580156115c75750825b90505f826001600160401b031660011480156115e25750303b155b9050811580156115f0575080155b1561160e5760405163f92ee8a960e01b815260040160405180910390fd5b845467ffffffffffffffff19166001178555831561163857845460ff60401b1916600160401b1785555b611641876120b9565b600580546001600160a01b0319166001600160a01b0388161790555f600281905560038190556103e86004556116779088611f81565b5083156116be57845460ff60401b19168555604051600181527fc7f505b2f371ae2175ee4913f4499e1f2633a7b5936321eed1cdaeb6115181d29060200160405180910390a15b50505050505050565b335f9081526006602052604081205460ff16151590036116fa5760405163fb83383760e01b815260040160405180910390fd5b5f60098360405161170b9190612b94565b90815260405190819003602001902080549091506001600160a01b03161561174657604051631192a36960e31b815260040160405180910390fd5b816009846040516111ee9190612b94565b6040805160a08101825260608082525f60208301819052928201839052810182905260808101919091526001600160a01b0382165f9081526008602052604090819020815160a081019092528054829082906117b290612a1c565b80601f01602080910402602001604051908101604052809291908181526020018280546117de90612a1c565b80156118295780601f1061180057610100808354040283529160200191611829565b820191905f5260205f20905b81548152906001019060200180831161180c57829003601f168201915b50505091835250506001919091015460ff808216151560208401526101008204811615156040840152620100008204811615156060840152630100000090910416151560809091015292915050565b6118806120ca565b6118895f6120fc565b565b5f80611895612156565b546001600160a01b031692915050565b5f806118af611f5d565b5f948552602090815260408086206001600160a01b03959095168652939052505090205460ff1690565b600d602052825f5260405f20602052815f5260405f2081815481106118fc575f80fd5b905f5260205f20015f9250925050505481565b5f61191981611f53565b6001600160a01b03821661194057604051633cefac3360e01b815260040160405180910390fd5b5f6001600160a01b031660078460405161195a9190612b94565b908152604051908190036020019020546001600160a01b03161461199157604051637044eb7960e01b815260040160405180910390fd5b816007846040516119a29190612b94565b908152604080516020928190038301812080546001600160a01b0319166001600160a01b039586161790559285165f81815260069093529120805460ff19166001179055906119f2908590612b94565b604051908190038120907f8b4ef7d4e5bc8f098e6f637ac0acf4aee47b3f027efea6307264b06b4bc9d298905f90a3505050565b5f611a3081611f53565b6001600160a01b038216611a5757604051633cefac3360e01b815260040160405180910390fd5b5f600784604051611a689190612b94565b908152604051908190036020019020546001600160a01b0316905080611aa05760405162b8005960e81b815260040160405180910390fd5b6001600160a01b0381165f9081526006602052604090819020805460ff19169055518390600790611ad2908790612b94565b908152604080516020928190038301812080546001600160a01b0319166001600160a01b039586161790559286165f81815260069093529120805460ff1916600117905590611b22908690612b94565b604051908190038120907ff611fec7babefd259c57ea5b6006acff8140ab17bb816c65ba0aa7e36c09caa8905f90a350505050565b335f9081526006602052604081205460ff1615159003611b8a5760405163fb83383760e01b815260040160405180910390fd5b600355565b335f9081526006602052604081205460ff1615159003611bc25760405163fb83383760e01b815260040160405180910390fd5b5f828152600b6020526040902080546001600160a01b0316611bf7576040516336f7ce4f60e11b815260040160405180910390fd5b60a08201516005820155606082015160038201556040909101516002909101805460ff191691151591909117905550565b611c3182611289565b611c3a81611f53565b6112c3838361201f565b335f9081526006602052604081205460ff1615159003611c775760405163fb83383760e01b815260040160405180910390fd5b600455565b335f9081526006602052604081205460ff1615159003611caf5760405163fb83383760e01b815260040160405180910390fd5b6001600160a01b0382165f90815260086020526040902080548190611cd390612a1c565b15905061109f5760405163096bb4a360e41b815260040160405180910390fd5b335f9081526006602052604081205460ff1615159003611d265760405163fb83383760e01b815260040160405180910390fd5b600255565b611d7a6040518061010001604052805f6001600160a01b03168152602001606081526020015f151581526020015f81526020015f81526020015f81526020015f15158152602001606081525090565b5f828152600b60209081526040918290208251610100810190935280546001600160a01b031683526001810180549192840191611db690612a1c565b80601f0160208091040260200160405190810160405280929190818152602001828054611de290612a1c565b8015611e2d5780601f10611e0457610100808354040283529160200191611e2d565b820191905f5260205f20905b815481529060010190602001808311611e1057829003601f168201915b5050509183525050600282015460ff90811615156020830152600383015460408301526004830154606083015260058301546080830152600683015416151560a082015260078201805460c090920191611e8690612a1c565b80601f0160208091040260200160405190810160405280929190818152602001828054611eb290612a1c565b8015611efd5780601f10611ed457610100808354040283529160200191611efd565b820191905f5260205f20905b815481529060010190602001808311611ee057829003601f168201915b5050505050815250509050919050565b611f156120ca565b6001600160a01b038116611f47575f604051631e4fbdf760e01b8152600401611f3e919061249a565b60405180910390fd5b611f50816120fc565b50565b611f50813361217a565b7f02dd7bc7dec4dceedda775e58dd541e08a116c6c53815c0bd028192f7b62680090565b5f80611f8b611f5d565b9050611f9784846118a5565b612016575f848152602082815260408083206001600160a01b03871684529091529020805460ff19166001179055611fcc3390565b6001600160a01b0316836001600160a01b0316857f2f8788117e7eff1d82e926ec794901d17c78024a50270940304540a733656f0d60405160405180910390a46001915050610bba565b5f915050610bba565b5f80612029611f5d565b905061203584846118a5565b15612016575f848152602082815260408083206001600160a01b0387168085529252808320805460ff1916905551339287917ff6391f5c32d9c69d2a47ea670b442974b53935d1edc7fd64eb21e047a839171b9190a46001915050610bba565b7ff0c57e16840df040f15088dc2f81fe391c3923bec73e23a9662efc9c229c6a0090565b6120c16121b7565b611f50816121dc565b336120d361188b565b6001600160a01b031614611889573360405163118cdaa760e01b8152600401611f3e919061249a565b5f612105612156565b80546001600160a01b038481166001600160a01b031983168117845560405193945091169182907f8be0079c531659141344cd1fd0a4f28419497f9722a3daafe3b4186f6b6457e0905f90a3505050565b7f9016d09d72d40fdae2fd8ceac6b6234c7706214fd39c1cd1e609a0528c19930090565b61218482826118a5565b6121b35760405163e2517d3f60e01b81526001600160a01b038216600482015260248101839052604401611f3e565b5050565b6121bf6121e4565b61188957604051631afcd79f60e31b815260040160405180910390fd5b611f156121b7565b5f6121ed612095565b54600160401b900460ff16919050565b604080516060810182525f808252602082018190529181019190915290565b80356001600160a01b0381168114612232575f80fd5b919050565b5f60208284031215612247575f80fd5b6122508261221c565b9392505050565b5f60208284031215612267575f80fd5b81356001600160e01b031981168114612250575f80fd5b634e487b7160e01b5f52604160045260245ffd5b60405161010081016001600160401b03811182821017156122b5576122b561227e565b60405290565b60405160a081016001600160401b03811182821017156122b5576122b561227e565b5f82601f8301126122ec575f80fd5b81356001600160401b03808211156123065761230661227e565b604051601f8301601f19908116603f0116810190828211818310171561232e5761232e61227e565b81604052838152866020858801011115612346575f80fd5b836020870160208301375f602085830101528094505050505092915050565b80358015158114612232575f80fd5b5f6101008284031215612385575f80fd5b61238d612292565b90506123988261221c565b815260208201356001600160401b03808211156123b3575f80fd5b6123bf858386016122dd565b60208401526123d060408501612365565b6040840152606084013560608401526080840135608084015260a084013560a08401526123ff60c08501612365565b60c084015260e0840135915080821115612417575f80fd5b50612424848285016122dd565b60e08301525092915050565b5f60208284031215612440575f80fd5b81356001600160401b03811115612455575f80fd5b61246184828501612374565b949350505050565b5f60208284031215612479575f80fd5b81356001600160401b0381111561248e575f80fd5b612461848285016122dd565b6001600160a01b0391909116815260200190565b5f80604083850312156124bf575f80fd5b823591506124cf6020840161221c565b90509250929050565b602080825282518282018190525f9190848201906040850190845b8181101561250f578351835292840192918401916001016124f3565b50909695505050505050565b5f805f6060848603121561252d575f80fd5b8335925061253d6020850161221c565b915061254b6040850161221c565b90509250925092565b5f5b8381101561256e578181015183820152602001612556565b50505f910152565b5f815180845261258d816020860160208601612554565b601f01601f19169290920160200192915050565b60a081525f6125b360a0830188612576565b951515602083015250921515604084015290151560608301521515608090910152919050565b5f80604083850312156125ea575f80fd5b6125f38361221c565b915060208301356001600160401b038082111561260e575f80fd5b9084019060a08287031215612621575f80fd5b6126296122bb565b823582811115612637575f80fd5b612643888286016122dd565b82525061265260208401612365565b602082015261266360408401612365565b604082015261267460608401612365565b606082015261268560808401612365565b60808201528093505050509250929050565b5f8082840360808112156126a9575f80fd5b83356001600160401b03808211156126bf575f80fd5b6126cb878388016122dd565b94506060601f19840112156126de575f80fd5b604051925060608301915082821081831117156126fd576126fd61227e565b5060405261270d6020850161221c565b815261271b60408501612365565b602082015261272c60608501612365565b6040820152809150509250929050565b5f6020828403121561274c575f80fd5b5035919050565b6001600160a01b0389168152610100602082018190525f906127778382018b612576565b905088151560408401528760608401528660808401528560a084015284151560c084015282810360e08401526127ad8185612576565b9b9a5050505050505050505050565b5f8082840360a08112156127ce575f80fd5b833592506080601f19820112156127e3575f80fd5b50604051608081018181106001600160401b03821117156128065761280661227e565b80604052506020840135815261281e6040850161221c565b60208201526060840135604082015261283960808501612365565b6060820152809150509250929050565b5f806040838503121561285a575f80fd5b6128638361221c565b91506124cf6020840161221c565b602081525f825160a0602084015261288c60c0840182612576565b90506020840151151560408401526040840151151560608401526060840151151560808401526080840151151560a08401528091505092915050565b5f805f606084860312156128da575f80fd5b833592506128ea6020850161221c565b9150604084013590509250925092565b5f806040838503121561290b575f80fd5b82356001600160401b03811115612920575f80fd5b61292c858286016122dd565b9250506124cf6020840161221c565b5f806040838503121561294c575f80fd5b8235915060208301356001600160401b03811115612968575f80fd5b61297485828601612374565b9150509250929050565b602080825282516001600160a01b031682820152820151610100604083018190525f91906129b0610120850183612576565b915060408501516129c5606086018215159052565b5060608501516080850152608085015160a085015260a085015160c085015260c08501516129f760e086018215159052565b5060e0850151848303601f190182860152612a128382612576565b9695505050505050565b600181811c90821680612a3057607f821691505b602082108103612a4e57634e487b7160e01b5f52602260045260245ffd5b50919050565b601f82111561145c575f81815260208120601f850160051c81016020861015612a7a5750805b601f850160051c820191505b81811015612a9957828155600101612a86565b505050505050565b81516001600160401b03811115612aba57612aba61227e565b612ace81612ac88454612a1c565b84612a54565b602080601f831160018114612b01575f8415612aea5750858301515b5f19600386901b1c1916600185901b178555612a99565b5f85815260208120601f198616915b82811015612b2f57888601518255948401946001909101908401612b10565b5085821015612b4c57878501515f19600388901b60f8161c191681555b5050505050600190811b01905550565b5f60018201612b7957634e487b7160e01b5f52601160045260245ffd5b5060010190565b634e487b7160e01b5f52603260045260245ffd5b5f8251612ba5818460208701612554565b919091019291505056fea2646970667358221220754169d1c9f42ba412cfa53bd6d21b230e007c138819cf8ca7d21ec208b744d364736f6c63430008140033",
  "linkReferences": {},
  "deployedLinkReferences": {}
}