{
  "_format": "hh-sol-artifact-1",
  "contractName": "TheBadgeStore",
  "sourceName": "src/contracts/thebadge/TheBadgeStore.sol",
  "abi": [
    {
      "inputs": [],
      "stateMutability": "nonpayable",
      "type": "constructor"
    },
    {
      "inputs": [],
      "name": "TheBadge__Store_ContractNameAlreadyExists",
      "type": "error"
    },
    {
      "inputs": [],
      "name": "TheBadge__Store_InvalidBadgeID",
      "type": "error"
    },
    {
      "inputs": [],
      "name": "TheBadge__Store_InvalidContractAddress",
      "type": "error"
    },
    {
      "inputs": [],
      "name": "TheBadge__Store_InvalidContractName",
      "type": "error"
    },
    {
      "inputs": [],
      "name": "TheBadge__Store_InvalidUserAddress",
      "type": "error"
    },
    {
      "inputs": [],
      "name": "TheBadge__Store_OperationNotPermitted",
      "type": "error"
    },
    {
      "inputs": [],
      "name": "TheBadge__addBadgeModelController_alreadySet",
      "type": "error"
    },
    {
      "inputs": [],
      "name": "TheBadge__badgeModel_badgeModelNotFound",
      "type": "error"
    },
    {
      "inputs": [],
      "name": "TheBadge__registerUser_alreadyRegistered",
      "type": "error"
    },
    {
      "inputs": [],
      "name": "TheBadge__updateUser_notFound",
      "type": "error"
    },
    {
      "anonymous": false,
      "inputs": [
        {
          "indexed": true,
          "internalType": "string",
          "name": "_contractName",
          "type": "string"
        },
        {
          "indexed": true,
          "internalType": "address",
          "name": "contractAddress",
          "type": "address"
        }
      ],
      "name": "ContractAdded",
      "type": "event"
    },
    {
      "anonymous": false,
      "inputs": [
        {
          "indexed": true,
          "internalType": "string",
          "name": "_contractName",
          "type": "string"
        },
        {
          "indexed": true,
          "internalType": "address",
          "name": "contractAddress",
          "type": "address"
        }
      ],
      "name": "ContractRemoved",
      "type": "event"
    },
    {
      "anonymous": false,
      "inputs": [
        {
          "indexed": true,
          "internalType": "string",
          "name": "_contractName",
          "type": "string"
        },
        {
          "indexed": true,
          "internalType": "address",
          "name": "contractAddress",
          "type": "address"
        }
      ],
      "name": "ContractUpdated",
      "type": "event"
    },
    {
      "anonymous": false,
      "inputs": [
        {
          "indexed": false,
          "internalType": "uint8",
          "name": "version",
          "type": "uint8"
        }
      ],
      "name": "Initialized",
      "type": "event"
    },
    {
      "anonymous": false,
      "inputs": [
        {
          "indexed": true,
          "internalType": "address",
          "name": "previousOwner",
          "type": "address"
        },
        {
          "indexed": true,
          "internalType": "address",
          "name": "newOwner",
          "type": "address"
        }
      ],
      "name": "OwnershipTransferred",
      "type": "event"
    },
    {
      "anonymous": false,
      "inputs": [
        {
          "indexed": true,
          "internalType": "bytes32",
          "name": "role",
          "type": "bytes32"
        },
        {
          "indexed": true,
          "internalType": "bytes32",
          "name": "previousAdminRole",
          "type": "bytes32"
        },
        {
          "indexed": true,
          "internalType": "bytes32",
          "name": "newAdminRole",
          "type": "bytes32"
        }
      ],
      "name": "RoleAdminChanged",
      "type": "event"
    },
    {
      "anonymous": false,
      "inputs": [
        {
          "indexed": true,
          "internalType": "bytes32",
          "name": "role",
          "type": "bytes32"
        },
        {
          "indexed": true,
          "internalType": "address",
          "name": "account",
          "type": "address"
        },
        {
          "indexed": true,
          "internalType": "address",
          "name": "sender",
          "type": "address"
        }
      ],
      "name": "RoleGranted",
      "type": "event"
    },
    {
      "anonymous": false,
      "inputs": [
        {
          "indexed": true,
          "internalType": "bytes32",
          "name": "role",
          "type": "bytes32"
        },
        {
          "indexed": true,
          "internalType": "address",
          "name": "account",
          "type": "address"
        },
        {
          "indexed": true,
          "internalType": "address",
          "name": "sender",
          "type": "address"
        }
      ],
      "name": "RoleRevoked",
      "type": "event"
    },
    {
      "inputs": [],
      "name": "CLAIMER_ROLE",
      "outputs": [
        {
          "internalType": "bytes32",
          "name": "",
          "type": "bytes32"
        }
      ],
      "stateMutability": "view",
      "type": "function"
    },
    {
      "inputs": [],
      "name": "DEFAULT_ADMIN_ROLE",
      "outputs": [
        {
          "internalType": "bytes32",
          "name": "",
          "type": "bytes32"
        }
      ],
      "stateMutability": "view",
      "type": "function"
    },
    {
      "inputs": [],
      "name": "PAUSER_ROLE",
      "outputs": [
        {
          "internalType": "bytes32",
          "name": "",
          "type": "bytes32"
        }
      ],
      "stateMutability": "view",
      "type": "function"
    },
    {
      "inputs": [],
      "name": "UPGRADER_ROLE",
      "outputs": [
        {
          "internalType": "bytes32",
          "name": "",
          "type": "bytes32"
        }
      ],
      "stateMutability": "view",
      "type": "function"
    },
    {
      "inputs": [],
      "name": "URI_SETTER_ROLE",
      "outputs": [
        {
          "internalType": "bytes32",
          "name": "",
          "type": "bytes32"
        }
      ],
      "stateMutability": "view",
      "type": "function"
    },
    {
      "inputs": [],
      "name": "USER_MANAGER_ROLE",
      "outputs": [
        {
          "internalType": "bytes32",
          "name": "",
          "type": "bytes32"
        }
      ],
      "stateMutability": "view",
      "type": "function"
    },
    {
      "inputs": [],
      "name": "VERIFIER_ROLE",
      "outputs": [
        {
          "internalType": "bytes32",
          "name": "",
          "type": "bytes32"
        }
      ],
      "stateMutability": "view",
      "type": "function"
    },
    {
      "inputs": [
        {
          "internalType": "uint256",
          "name": "badgeId",
          "type": "uint256"
        },
        {
          "components": [
            {
              "internalType": "uint256",
              "name": "badgeModelId",
              "type": "uint256"
            },
            {
              "internalType": "address",
              "name": "account",
              "type": "address"
            },
            {
              "internalType": "uint256",
              "name": "dueDate",
              "type": "uint256"
            },
            {
              "internalType": "bool",
              "name": "initialized",
              "type": "bool"
            }
          ],
          "internalType": "struct TheBadgeStore.Badge",
          "name": "badge",
          "type": "tuple"
        }
      ],
      "name": "addBadge",
      "outputs": [],
      "stateMutability": "nonpayable",
      "type": "function"
    },
    {
      "inputs": [
        {
          "components": [
            {
              "internalType": "address",
              "name": "creator",
              "type": "address"
            },
            {
              "internalType": "string",
              "name": "controllerName",
              "type": "string"
            },
            {
              "internalType": "bool",
              "name": "paused",
              "type": "bool"
            },
            {
              "internalType": "uint256",
              "name": "mintCreatorFee",
              "type": "uint256"
            },
            {
              "internalType": "uint256",
              "name": "validFor",
              "type": "uint256"
            },
            {
              "internalType": "uint256",
              "name": "mintProtocolFee",
              "type": "uint256"
            },
            {
              "internalType": "bool",
              "name": "initialized",
              "type": "bool"
            },
            {
              "internalType": "string",
              "name": "version",
              "type": "string"
            }
          ],
          "internalType": "struct TheBadgeStore.BadgeModel",
          "name": "badgeModel",
          "type": "tuple"
        }
      ],
      "name": "addBadgeModel",
      "outputs": [],
      "stateMutability": "nonpayable",
      "type": "function"
    },
    {
      "inputs": [
        {
          "internalType": "string",
          "name": "controllerName",
          "type": "string"
        },
        {
          "components": [
            {
              "internalType": "address",
              "name": "controller",
              "type": "address"
            },
            {
              "internalType": "bool",
              "name": "paused",
              "type": "bool"
            },
            {
              "internalType": "bool",
              "name": "initialized",
              "type": "bool"
            }
          ],
          "internalType": "struct TheBadgeStore.BadgeModelController",
          "name": "badgeModelController",
          "type": "tuple"
        }
      ],
      "name": "addBadgeModelController",
      "outputs": [],
      "stateMutability": "nonpayable",
      "type": "function"
    },
    {
      "inputs": [
        {
          "internalType": "string",
          "name": "_contractName",
          "type": "string"
        },
        {
          "internalType": "address",
          "name": "_contractAddress",
          "type": "address"
        }
      ],
      "name": "addPermittedContract",
      "outputs": [],
      "stateMutability": "nonpayable",
      "type": "function"
    },
    {
      "inputs": [
        {
          "internalType": "address",
          "name": "",
          "type": "address"
        }
      ],
      "name": "allowedContractAddresses",
      "outputs": [
        {
          "internalType": "bool",
          "name": "",
          "type": "bool"
        }
      ],
      "stateMutability": "view",
      "type": "function"
    },
    {
      "inputs": [
        {
          "internalType": "string",
          "name": "",
          "type": "string"
        }
      ],
      "name": "allowedContractAddressesByContractName",
      "outputs": [
        {
          "internalType": "address",
          "name": "",
          "type": "address"
        }
      ],
      "stateMutability": "view",
      "type": "function"
    },
    {
      "inputs": [
        {
          "internalType": "string",
          "name": "",
          "type": "string"
        }
      ],
      "name": "badgeModelControllers",
      "outputs": [
        {
          "internalType": "address",
          "name": "controller",
          "type": "address"
        },
        {
          "internalType": "bool",
          "name": "paused",
          "type": "bool"
        },
        {
          "internalType": "bool",
          "name": "initialized",
          "type": "bool"
        }
      ],
      "stateMutability": "view",
      "type": "function"
    },
    {
      "inputs": [
        {
          "internalType": "address",
          "name": "",
          "type": "address"
        }
      ],
      "name": "badgeModelControllersByAddress",
      "outputs": [
        {
          "internalType": "address",
          "name": "controller",
          "type": "address"
        },
        {
          "internalType": "bool",
          "name": "paused",
          "type": "bool"
        },
        {
          "internalType": "bool",
          "name": "initialized",
          "type": "bool"
        }
      ],
      "stateMutability": "view",
      "type": "function"
    },
    {
      "inputs": [
        {
          "internalType": "uint256",
          "name": "",
          "type": "uint256"
        }
      ],
      "name": "badgeModels",
      "outputs": [
        {
          "internalType": "address",
          "name": "creator",
          "type": "address"
        },
        {
          "internalType": "string",
          "name": "controllerName",
          "type": "string"
        },
        {
          "internalType": "bool",
          "name": "paused",
          "type": "bool"
        },
        {
          "internalType": "uint256",
          "name": "mintCreatorFee",
          "type": "uint256"
        },
        {
          "internalType": "uint256",
          "name": "validFor",
          "type": "uint256"
        },
        {
          "internalType": "uint256",
          "name": "mintProtocolFee",
          "type": "uint256"
        },
        {
          "internalType": "bool",
          "name": "initialized",
          "type": "bool"
        },
        {
          "internalType": "string",
          "name": "version",
          "type": "string"
        }
      ],
      "stateMutability": "view",
      "type": "function"
    },
    {
      "inputs": [
        {
          "internalType": "uint256",
          "name": "",
          "type": "uint256"
        }
      ],
      "name": "badges",
      "outputs": [
        {
          "internalType": "uint256",
          "name": "badgeModelId",
          "type": "uint256"
        },
        {
          "internalType": "address",
          "name": "account",
          "type": "address"
        },
        {
          "internalType": "uint256",
          "name": "dueDate",
          "type": "uint256"
        },
        {
          "internalType": "bool",
          "name": "initialized",
          "type": "bool"
        }
      ],
      "stateMutability": "view",
      "type": "function"
    },
    {
      "inputs": [],
      "name": "createBadgeModelProtocolFee",
      "outputs": [
        {
          "internalType": "uint256",
          "name": "",
          "type": "uint256"
        }
      ],
      "stateMutability": "view",
      "type": "function"
    },
    {
      "inputs": [
        {
          "internalType": "address",
          "name": "userAddress",
          "type": "address"
        },
        {
          "components": [
            {
              "internalType": "string",
              "name": "metadata",
              "type": "string"
            },
            {
              "internalType": "bool",
              "name": "isCompany",
              "type": "bool"
            },
            {
              "internalType": "bool",
              "name": "isCreator",
              "type": "bool"
            },
            {
              "internalType": "bool",
              "name": "suspended",
              "type": "bool"
            },
            {
              "internalType": "bool",
              "name": "initialized",
              "type": "bool"
            }
          ],
          "internalType": "struct TheBadgeStore.User",
          "name": "newUser",
          "type": "tuple"
        }
      ],
      "name": "createUser",
      "outputs": [],
      "stateMutability": "nonpayable",
      "type": "function"
    },
    {
      "inputs": [],
      "name": "feeCollector",
      "outputs": [
        {
          "internalType": "address",
          "name": "",
          "type": "address"
        }
      ],
      "stateMutability": "view",
      "type": "function"
    },
    {
      "inputs": [
        {
          "internalType": "uint256",
          "name": "badgeId",
          "type": "uint256"
        }
      ],
      "name": "getBadge",
      "outputs": [
        {
          "components": [
            {
              "internalType": "uint256",
              "name": "badgeModelId",
              "type": "uint256"
            },
            {
              "internalType": "address",
              "name": "account",
              "type": "address"
            },
            {
              "internalType": "uint256",
              "name": "dueDate",
              "type": "uint256"
            },
            {
              "internalType": "bool",
              "name": "initialized",
              "type": "bool"
            }
          ],
          "internalType": "struct TheBadgeStore.Badge",
          "name": "",
          "type": "tuple"
        }
      ],
      "stateMutability": "view",
      "type": "function"
    },
    {
      "inputs": [
        {
          "internalType": "uint256",
          "name": "badgeModelId",
          "type": "uint256"
        }
      ],
      "name": "getBadgeModel",
      "outputs": [
        {
          "components": [
            {
              "internalType": "address",
              "name": "creator",
              "type": "address"
            },
            {
              "internalType": "string",
              "name": "controllerName",
              "type": "string"
            },
            {
              "internalType": "bool",
              "name": "paused",
              "type": "bool"
            },
            {
              "internalType": "uint256",
              "name": "mintCreatorFee",
              "type": "uint256"
            },
            {
              "internalType": "uint256",
              "name": "validFor",
              "type": "uint256"
            },
            {
              "internalType": "uint256",
              "name": "mintProtocolFee",
              "type": "uint256"
            },
            {
              "internalType": "bool",
              "name": "initialized",
              "type": "bool"
            },
            {
              "internalType": "string",
              "name": "version",
              "type": "string"
            }
          ],
          "internalType": "struct TheBadgeStore.BadgeModel",
          "name": "",
          "type": "tuple"
        }
      ],
      "stateMutability": "view",
      "type": "function"
    },
    {
      "inputs": [
        {
          "internalType": "string",
          "name": "controllerName",
          "type": "string"
        }
      ],
      "name": "getBadgeModelController",
      "outputs": [
        {
          "components": [
            {
              "internalType": "address",
              "name": "controller",
              "type": "address"
            },
            {
              "internalType": "bool",
              "name": "paused",
              "type": "bool"
            },
            {
              "internalType": "bool",
              "name": "initialized",
              "type": "bool"
            }
          ],
          "internalType": "struct TheBadgeStore.BadgeModelController",
          "name": "",
          "type": "tuple"
        }
      ],
      "stateMutability": "view",
      "type": "function"
    },
    {
      "inputs": [
        {
          "internalType": "address",
          "name": "controllerAddress",
          "type": "address"
        }
      ],
      "name": "getBadgeModelControllerByAddress",
      "outputs": [
        {
          "components": [
            {
              "internalType": "address",
              "name": "controller",
              "type": "address"
            },
            {
              "internalType": "bool",
              "name": "paused",
              "type": "bool"
            },
            {
              "internalType": "bool",
              "name": "initialized",
              "type": "bool"
            }
          ],
          "internalType": "struct TheBadgeStore.BadgeModelController",
          "name": "",
          "type": "tuple"
        }
      ],
      "stateMutability": "view",
      "type": "function"
    },
    {
      "inputs": [],
      "name": "getCurrentBadgeIdCounter",
      "outputs": [
        {
          "internalType": "uint256",
          "name": "",
          "type": "uint256"
        }
      ],
      "stateMutability": "view",
      "type": "function"
    },
    {
      "inputs": [],
      "name": "getCurrentBadgeModelsIdCounter",
      "outputs": [
        {
          "internalType": "uint256",
          "name": "",
          "type": "uint256"
        }
      ],
      "stateMutability": "view",
      "type": "function"
    },
    {
      "inputs": [
        {
          "internalType": "bytes32",
          "name": "role",
          "type": "bytes32"
        }
      ],
      "name": "getRoleAdmin",
      "outputs": [
        {
          "internalType": "bytes32",
          "name": "",
          "type": "bytes32"
        }
      ],
      "stateMutability": "view",
      "type": "function"
    },
    {
      "inputs": [
        {
          "internalType": "address",
          "name": "userAddress",
          "type": "address"
        }
      ],
      "name": "getUser",
      "outputs": [
        {
          "components": [
            {
              "internalType": "string",
              "name": "metadata",
              "type": "string"
            },
            {
              "internalType": "bool",
              "name": "isCompany",
              "type": "bool"
            },
            {
              "internalType": "bool",
              "name": "isCreator",
              "type": "bool"
            },
            {
              "internalType": "bool",
              "name": "suspended",
              "type": "bool"
            },
            {
              "internalType": "bool",
              "name": "initialized",
              "type": "bool"
            }
          ],
          "internalType": "struct TheBadgeStore.User",
          "name": "",
          "type": "tuple"
        }
      ],
      "stateMutability": "view",
      "type": "function"
    },
    {
      "inputs": [
        {
          "internalType": "uint256",
          "name": "badgeModelId",
          "type": "uint256"
        },
        {
          "internalType": "address",
          "name": "userAddress",
          "type": "address"
        }
      ],
      "name": "getUserMintedBadgesByBadgeModel",
      "outputs": [
        {
          "internalType": "uint256[]",
          "name": "",
          "type": "uint256[]"
        }
      ],
      "stateMutability": "view",
      "type": "function"
    },
    {
      "inputs": [
        {
          "internalType": "bytes32",
          "name": "role",
          "type": "bytes32"
        },
        {
          "internalType": "address",
          "name": "account",
          "type": "address"
        }
      ],
      "name": "grantRole",
      "outputs": [],
      "stateMutability": "nonpayable",
      "type": "function"
    },
    {
      "inputs": [
        {
          "internalType": "bytes32",
          "name": "role",
          "type": "bytes32"
        },
        {
          "internalType": "address",
          "name": "account",
          "type": "address"
        }
      ],
      "name": "hasRole",
      "outputs": [
        {
          "internalType": "bool",
          "name": "",
          "type": "bool"
        }
      ],
      "stateMutability": "view",
      "type": "function"
    },
    {
      "inputs": [
        {
          "internalType": "address",
          "name": "admin",
          "type": "address"
        },
        {
          "internalType": "address",
          "name": "_feeCollector",
          "type": "address"
        }
      ],
      "name": "initialize",
      "outputs": [],
      "stateMutability": "nonpayable",
      "type": "function"
    },
    {
      "inputs": [],
      "name": "mintBadgeProtocolDefaultFeeInBps",
      "outputs": [
        {
          "internalType": "uint256",
          "name": "",
          "type": "uint256"
        }
      ],
      "stateMutability": "view",
      "type": "function"
    },
    {
      "inputs": [],
      "name": "owner",
      "outputs": [
        {
          "internalType": "address",
          "name": "",
          "type": "address"
        }
      ],
      "stateMutability": "view",
      "type": "function"
    },
    {
      "inputs": [],
      "name": "registerUserProtocolFee",
      "outputs": [
        {
          "internalType": "uint256",
          "name": "",
          "type": "uint256"
        }
      ],
      "stateMutability": "view",
      "type": "function"
    },
    {
      "inputs": [
        {
          "internalType": "address",
          "name": "",
          "type": "address"
        }
      ],
      "name": "registeredUsers",
      "outputs": [
        {
          "internalType": "string",
          "name": "metadata",
          "type": "string"
        },
        {
          "internalType": "bool",
          "name": "isCompany",
          "type": "bool"
        },
        {
          "internalType": "bool",
          "name": "isCreator",
          "type": "bool"
        },
        {
          "internalType": "bool",
          "name": "suspended",
          "type": "bool"
        },
        {
          "internalType": "bool",
          "name": "initialized",
          "type": "bool"
        }
      ],
      "stateMutability": "view",
      "type": "function"
    },
    {
      "inputs": [
        {
          "internalType": "string",
          "name": "_contractName",
          "type": "string"
        }
      ],
      "name": "removePermittedContract",
      "outputs": [],
      "stateMutability": "nonpayable",
      "type": "function"
    },
    {
      "inputs": [],
      "name": "renounceOwnership",
      "outputs": [],
      "stateMutability": "nonpayable",
      "type": "function"
    },
    {
      "inputs": [
        {
          "internalType": "bytes32",
          "name": "role",
          "type": "bytes32"
        },
        {
          "internalType": "address",
          "name": "account",
          "type": "address"
        }
      ],
      "name": "renounceRole",
      "outputs": [],
      "stateMutability": "nonpayable",
      "type": "function"
    },
    {
      "inputs": [
        {
          "internalType": "bytes32",
          "name": "role",
          "type": "bytes32"
        },
        {
          "internalType": "address",
          "name": "account",
          "type": "address"
        }
      ],
      "name": "revokeRole",
      "outputs": [],
      "stateMutability": "nonpayable",
      "type": "function"
    },
    {
      "inputs": [
        {
          "internalType": "bytes4",
          "name": "interfaceId",
          "type": "bytes4"
        }
      ],
      "name": "supportsInterface",
      "outputs": [
        {
          "internalType": "bool",
          "name": "",
          "type": "bool"
        }
      ],
      "stateMutability": "view",
      "type": "function"
    },
    {
      "inputs": [
        {
          "internalType": "uint256",
          "name": "badgeId",
          "type": "uint256"
        },
        {
          "internalType": "address",
          "name": "origin",
          "type": "address"
        },
        {
          "internalType": "address",
          "name": "destination",
          "type": "address"
        }
      ],
      "name": "transferBadge",
      "outputs": [],
      "stateMutability": "nonpayable",
      "type": "function"
    },
    {
      "inputs": [
        {
          "internalType": "address",
          "name": "newOwner",
          "type": "address"
        }
      ],
      "name": "transferOwnership",
      "outputs": [],
      "stateMutability": "nonpayable",
      "type": "function"
    },
    {
      "inputs": [
        {
          "internalType": "uint256",
          "name": "badgeModelId",
          "type": "uint256"
        },
        {
          "components": [
            {
              "internalType": "address",
              "name": "creator",
              "type": "address"
            },
            {
              "internalType": "string",
              "name": "controllerName",
              "type": "string"
            },
            {
              "internalType": "bool",
              "name": "paused",
              "type": "bool"
            },
            {
              "internalType": "uint256",
              "name": "mintCreatorFee",
              "type": "uint256"
            },
            {
              "internalType": "uint256",
              "name": "validFor",
              "type": "uint256"
            },
            {
              "internalType": "uint256",
              "name": "mintProtocolFee",
              "type": "uint256"
            },
            {
              "internalType": "bool",
              "name": "initialized",
              "type": "bool"
            },
            {
              "internalType": "string",
              "name": "version",
              "type": "string"
            }
          ],
          "internalType": "struct TheBadgeStore.BadgeModel",
          "name": "badgeModel",
          "type": "tuple"
        }
      ],
      "name": "updateBadgeModel",
      "outputs": [],
      "stateMutability": "nonpayable",
      "type": "function"
    },
    {
      "inputs": [
        {
          "internalType": "uint256",
          "name": "_createBadgeModelValue",
          "type": "uint256"
        }
      ],
      "name": "updateCreateBadgeModelProtocolFee",
      "outputs": [],
      "stateMutability": "nonpayable",
      "type": "function"
    },
    {
      "inputs": [
        {
          "internalType": "uint256",
          "name": "_mintBadgeDefaultFee",
          "type": "uint256"
        }
      ],
      "name": "updateMintBadgeDefaultProtocolFee",
      "outputs": [],
      "stateMutability": "nonpayable",
      "type": "function"
    },
    {
      "inputs": [
        {
          "internalType": "string",
          "name": "_contractName",
          "type": "string"
        },
        {
          "internalType": "address",
          "name": "_newContractAddress",
          "type": "address"
        }
      ],
      "name": "updatePermittedContract",
      "outputs": [],
      "stateMutability": "nonpayable",
      "type": "function"
    },
    {
      "inputs": [
        {
          "internalType": "uint256",
          "name": "_registerCreatorValue",
          "type": "uint256"
        }
      ],
      "name": "updateRegisterCreatorProtocolFee",
      "outputs": [],
      "stateMutability": "nonpayable",
      "type": "function"
    },
    {
      "inputs": [
        {
          "internalType": "address",
          "name": "userAddress",
          "type": "address"
        },
        {
          "components": [
            {
              "internalType": "string",
              "name": "metadata",
              "type": "string"
            },
            {
              "internalType": "bool",
              "name": "isCompany",
              "type": "bool"
            },
            {
              "internalType": "bool",
              "name": "isCreator",
              "type": "bool"
            },
            {
              "internalType": "bool",
              "name": "suspended",
              "type": "bool"
            },
            {
              "internalType": "bool",
              "name": "initialized",
              "type": "bool"
            }
          ],
          "internalType": "struct TheBadgeStore.User",
          "name": "updatedUser",
          "type": "tuple"
        }
      ],
      "name": "updateUser",
      "outputs": [],
      "stateMutability": "nonpayable",
      "type": "function"
    },
    {
      "inputs": [
        {
          "internalType": "uint256",
          "name": "",
          "type": "uint256"
        },
        {
          "internalType": "address",
          "name": "",
          "type": "address"
        },
        {
          "internalType": "uint256",
          "name": "",
          "type": "uint256"
        }
      ],
      "name": "userMintedBadgesByBadgeModel",
      "outputs": [
        {
          "internalType": "uint256",
          "name": "",
          "type": "uint256"
        }
      ],
      "stateMutability": "view",
      "type": "function"
    },
    {
      "stateMutability": "payable",
      "type": "receive"
    }
  ],
  "bytecode": "0x60806040523480156200001157600080fd5b506200001c62000022565b620000e3565b600054610100900460ff16156200008f5760405162461bcd60e51b815260206004820152602760248201527f496e697469616c697a61626c653a20636f6e747261637420697320696e697469604482015266616c697a696e6760c81b606482015260840160405180910390fd5b60005460ff90811614620000e1576000805460ff191660ff9081179091556040519081527f7f26b83ff96e1f2b6a682f133852f6798a09c465da95921460cefb38474024989060200160405180910390a15b565b612ebc80620000f36000396000f3fe60806040526004361061026d5760003560e01c80637f34571011610145578063c956ebd9116100bc578063c956ebd914610984578063d547741f146109a4578063e1818651146109c4578063e63ab1e9146109e4578063e70a0e6914610a18578063e7343c8a14610a2e578063e7705db614610a43578063e9ab224e14610a77578063f1fe717e14610a97578063f2be2c8514610ab7578063f2fde38b14610ae4578063f72c0d8b14610b04578063fc5f18d314610b3857600080fd5b80637f345710146106e65780638d8386221461071a5780638da5cb5b146107e457806391d148541461080257806398e36d8b1461082257806399448a2c1461089b578063a1fa355c146108bb578063a217fddf146108db578063a41e35c3146108f0578063b26fc20414610924578063c415b95c14610944578063c5a3c7ca1461096457600080fd5b80632f922796116101e45780632f922796146104a9578063302b01801461051c57806336568abe14610550578063385c4372146105705780634085b52714610590578063485cc955146105b05780634e5eceae146105d057806364d8baef146105e6578063658658c6146105fc578063687a05571461061c5780636f77926b1461064c578063715018a6146106795780637333b3751461068e57600080fd5b806301719d2b1461027957806301ffc9a7146102cd57806304db069f146102fd57806306d7a28c1461031f57806308473d4a1461037857806308e5bf21146103a55780630a5f1ec5146103c85780630deee176146103e85780630e50cee514610408578063178682c114610439578063248a9ca3146104595780632f2ff15d1461048957600080fd5b3661027457005b600080fd5b34801561028557600080fd5b506102996102943660046123e3565b610b6c565b6040805182516001600160a01b03168152602080840151151590820152918101511515908201526060015b60405180910390f35b3480156102d957600080fd5b506102ed6102e83660046123fe565b610bc7565b60405190151581526020016102c4565b34801561030957600080fd5b5061031d6103183660046125e5565b610bfe565b005b34801561032b57600080fd5b5061036061033a366004612621565b805160208183018101805160d0825292820191909301209152546001600160a01b031681565b6040516001600160a01b0390911681526020016102c4565b34801561038457600080fd5b50610398610393366004612655565b610cf1565b6040516102c49190612681565b3480156103b157600080fd5b506103ba610d65565b6040519081526020016102c4565b3480156103d457600080fd5b5061031d6103e33660046126c5565b610d75565b3480156103f457600080fd5b5061031d610403366004612621565b610ee1565b34801561041457600080fd5b506104286104233660046123e3565b610fc6565b6040516102c4959493929190612751565b34801561044557600080fd5b5061031d61045436600461278a565b611089565b34801561046557600080fd5b506103ba61047436600461284d565b60009081526065602052604090206001015490565b34801561049557600080fd5b5061031d6104a4366004612655565b61119d565b3480156104b557600080fd5b506104f56104c43660046123e3565b60d3602052600090815260409020546001600160a01b0381169060ff600160a01b8204811691600160a81b90041683565b604080516001600160a01b03909416845291151560208401521515908201526060016102c4565b34801561052857600080fd5b5061053c61053736600461284d565b6111c7565b6040516102c4989796959493929190612866565b34801561055c57600080fd5b5061031d61056b366004612655565b61132c565b34801561057c57600080fd5b5061029961058b366004612621565b6113af565b34801561059c57600080fd5b5061031d6105ab3660046128d0565b611414565b3480156105bc57600080fd5b5061031d6105cb366004612960565b6114dc565b3480156105dc57600080fd5b506103ba60cd5481565b3480156105f257600080fd5b506103ba60cc5481565b34801561060857600080fd5b5061031d61061736600461298a565b611625565b34801561062857600080fd5b506102ed6106373660046123e3565b60cf6020526000908152604090205460ff1681565b34801561065857600080fd5b5061066c6106673660046123e3565b611753565b6040516102c49190612a33565b34801561068557600080fd5b5061031d611878565b34801561069a57600080fd5b506104f56106a9366004612621565b80518082016020908101805160d2825292820191909301209152546001600160a01b0381169060ff600160a01b8204811691600160a81b90041683565b3480156106f257600080fd5b506103ba7f7804d923f43a17d325d77e781528e0793b2edd9890ab45fc64efd7b4b427744c81565b34801561072657600080fd5b506107a661073536600461284d565b604080516080808201835260008083526020808401829052838501829052606093840182905294815260d58552839020835191820184528054825260018101546001600160a01b03169482019490945260028401549281019290925260039092015460ff1615159181019190915290565b6040516102c49190815181526020808301516001600160a01b0316908201526040808301519082015260609182015115159181019190915260800190565b3480156107f057600080fd5b506097546001600160a01b0316610360565b34801561080e57600080fd5b506102ed61081d366004612655565b61188c565b34801561082e57600080fd5b5061087161083d36600461284d565b60d560205260009081526040902080546001820154600283015460039093015491926001600160a01b039091169160ff1684565b604080519485526001600160a01b03909316602085015291830152151560608201526080016102c4565b3480156108a757600080fd5b506103ba6108b6366004612a8b565b6118b7565b3480156108c757600080fd5b5061031d6108d6366004612ac0565b6118f5565b3480156108e757600080fd5b506103ba600081565b3480156108fc57600080fd5b506103ba7fcbaaf41b181bb6e269c490e876a7c97711b57e21dd8e5528423cf57579726b3581565b34801561093057600080fd5b5061031d61093f366004612ac0565b611a10565b34801561095057600080fd5b5060ce54610360906001600160a01b031681565b34801561097057600080fd5b5061031d61097f36600461284d565b611b46565b34801561099057600080fd5b5061031d61099f366004612b04565b611b7f565b3480156109b057600080fd5b5061031d6109bf366004612655565b611c1a565b3480156109d057600080fd5b5061031d6109df36600461284d565b611c3f565b3480156109f057600080fd5b506103ba7f65d7a28e3265b37a6474929f336521b332c1681b933f6cb9f3376673440d862a81565b348015610a2457600080fd5b506103ba60cb5481565b348015610a3a57600080fd5b506103ba611c78565b348015610a4f57600080fd5b506103ba7f0ce23c3e399818cfee81a7ab0880f714e53d7672b08df0fa62f2843416e1ea0981565b348015610a8357600080fd5b5061031d610a9236600461278a565b611c83565b348015610aa357600080fd5b5061031d610ab236600461284d565b611cfc565b348015610ac357600080fd5b50610ad7610ad236600461284d565b611d35565b6040516102c49190612b4a565b348015610af057600080fd5b5061031d610aff3660046123e3565b611f22565b348015610b1057600080fd5b506103ba7f189ab7a9244df0848122154315af71fe140f3db0fe014031783b0946b8c9d2e381565b348015610b4457600080fd5b506103ba7f11a8cb5a02bd6c42679835e867ef2118ba78f088f8300511420c6603c21d9c7881565b610b746123a7565b506001600160a01b03908116600090815260d3602090815260409182902082516060810184529054938416815260ff600160a01b85048116151592820192909252600160a81b9093041615159082015290565b60006001600160e01b03198216637965db0b60e01b1480610bf857506301ffc9a760e01b6001600160e01b03198316145b92915050565b33600090815260cf602052604081205460ff1615159003610c325760405163fb83383760e01b815260040160405180910390fd5b8060d46000610c4060c95490565b8152602080820192909252604001600020825181546001600160a01b0319166001600160a01b03909116178155908201516001820190610c809082612c71565b50604082015160028201805491151560ff19928316179055606083015160038301556080830151600483015560a0830151600583015560c08301516006830180549115159190921617905560e08201516007820190610cdf9082612c71565b505060c9805460010190555050565b50565b600082815260d6602090815260408083206001600160a01b0385168452825291829020805483518184028101840190945280845260609392830182828015610d5857602002820191906000526020600020905b815481526020019060010190808311610d44575b5050505050905092915050565b6000610d7060ca5490565b905090565b33600090815260cf602052604081205460ff1615159003610da95760405163fb83383760e01b815260040160405180910390fd5b600083815260d5602052604090206001600160a01b0383161580610dd457506001600160a01b038216155b15610df257604051630d806a2b60e11b815260040160405180910390fd5b600381015460ff161515600003610e1c576040516355a150f760e11b815260040160405180910390fd5b60018101546001600160a01b03848116911614610e4c57604051630d806a2b60e11b815260040160405180910390fd5b6001810180546001600160a01b0319166001600160a01b03848116919091179091558154600090815260d660209081526040808320938716835292905220805485908110610e9c57610e9c612d30565b600091825260208083209091018290559154815260d6825260408082206001600160a01b03909416825292825291822080546001810182559083529120019190915550565b6000610eec81611f98565b600060d083604051610efe9190612d46565b908152604051908190036020019020546001600160a01b0316905080610f365760405162b8005960e81b815260040160405180910390fd5b60d083604051610f469190612d46565b90815260408051918290036020908101832080546001600160a01b03191690556001600160a01b038416600081815260cf909252919020805460ff1916905590610f91908590612d46565b604051908190038120907f7ad6d7c73213a93d033801d72c729d90fb72104796b75ad799858b26f2b9872f90600090a3505050565b60d160205260009081526040902080548190610fe190612be9565b80601f016020809104026020016040519081016040528092919081815260200182805461100d90612be9565b801561105a5780601f1061102f5761010080835404028352916020019161105a565b820191906000526020600020905b81548152906001019060200180831161103d57829003601f168201915b5050506001909301549192505060ff808216916101008104821691620100008204811691630100000090041685565b33600090815260cf602052604081205460ff16151590036110bd5760405163fb83383760e01b815260040160405180910390fd5b6001600160a01b038216600090815260d160205260409020805481906110e290612be9565b9050600003611104576040516365553c4160e11b815260040160405180910390fd5b6001600160a01b038316600090815260d1602052604090208251839190819061112d9082612c71565b50602082015160019190910180546040840151606085015160809095015161ffff1990921693151561ff00191693909317610100931515939093029290921763ffff00001916620100009315159390930263ff000000191692909217630100000091151591909102179055505050565b6000828152606560205260409020600101546111b881611f98565b6111c28383611fa2565b505050565b60d460205260009081526040902080546001820180546001600160a01b0390921692916111f390612be9565b80601f016020809104026020016040519081016040528092919081815260200182805461121f90612be9565b801561126c5780601f106112415761010080835404028352916020019161126c565b820191906000526020600020905b81548152906001019060200180831161124f57829003601f168201915b50505060028401546003850154600486015460058701546006880154600789018054989960ff96871699959850939650919416926112a990612be9565b80601f01602080910402602001604051908101604052809291908181526020018280546112d590612be9565b80156113225780601f106112f757610100808354040283529160200191611322565b820191906000526020600020905b81548152906001019060200180831161130557829003601f168201915b5050505050905088565b6001600160a01b03811633146113a15760405162461bcd60e51b815260206004820152602f60248201527f416363657373436f6e74726f6c3a2063616e206f6e6c792072656e6f756e636560448201526e103937b632b9903337b91039b2b63360891b60648201526084015b60405180910390fd5b6113ab8282612028565b5050565b6113b76123a7565b60d2826040516113c79190612d46565b908152604080519182900360209081018320606084018352546001600160a01b038116845260ff600160a01b82048116151592850192909252600160a81b90041615159082015292915050565b33600090815260cf602052604081205460ff16151590036114485760405163fb83383760e01b815260040160405180910390fd5b805160208083018051600086815260d584526040808220875181559351600180860180546001600160a01b0319166001600160a01b0393841617905582890151600287015560608901516003909601805460ff19169615159690961790955586835260d686528183209084168352855281208054808501825590825293902090920185905560ca8054909101905550505050565b600054610100900460ff16158080156114fc5750600054600160ff909116105b806115165750303b158015611516575060005460ff166001145b6115795760405162461bcd60e51b815260206004820152602e60248201527f496e697469616c697a61626c653a20636f6e747261637420697320616c72656160448201526d191e481a5b9a5d1a585b1a5e995960921b6064820152608401611398565b6000805460ff19166001179055801561159c576000805461ff0019166101001790555b6115a461208f565b60ce80546001600160a01b0319166001600160a01b038416179055600060cb81905560cc8190556103e860cd556115db9084611fa2565b80156111c2576000805461ff0019169055604051600181527f7f26b83ff96e1f2b6a682f133852f6798a09c465da95921460cefb38474024989060200160405180910390a1505050565b33600090815260cf602052604081205460ff16151590036116595760405163fb83383760e01b815260040160405180910390fd5b600060d28360405161166b9190612d46565b90815260405190819003602001902080549091506001600160a01b0316156116a657604051631192a36960e31b815260040160405180910390fd5b8160d2846040516116b79190612d46565b90815260408051602092819003830190208351815485850151958401516001600160a01b039283166001600160a81b031992831617600160a01b97151588021760ff60a81b19908116600160a81b92151583021790945588518316600090815260d3875285902089518154978b01519a909601519590931695909116949094179615159094029590951790941693151502929092179091555050565b6040805160a0810182526060808252600060208301819052928201839052810182905260808101919091526001600160a01b038216600090815260d1602052604090819020815160a081019092528054829082906117b090612be9565b80601f01602080910402602001604051908101604052809291908181526020018280546117dc90612be9565b80156118295780601f106117fe57610100808354040283529160200191611829565b820191906000526020600020905b81548152906001019060200180831161180c57829003601f168201915b50505091835250506001919091015460ff808216151560208401526101008204811615156040840152620100008204811615156060840152630100000090910416151560809091015292915050565b6118806120be565b61188a6000612118565b565b60009182526065602090815260408084206001600160a01b0393909316845291905290205460ff1690565b60d660205282600052604060002060205281600052604060002081815481106118df57600080fd5b9060005260206000200160009250925050505481565b600061190081611f98565b6001600160a01b03821661192757604051633cefac3360e01b815260040160405180910390fd5b60006001600160a01b031660d0846040516119429190612d46565b908152604051908190036020019020546001600160a01b03161461197957604051637044eb7960e01b815260040160405180910390fd5b8160d08460405161198a9190612d46565b908152604080516020928190038301812080546001600160a01b0319166001600160a01b03958616179055928516600081815260cf9093529120805460ff19166001179055906119db908590612d46565b604051908190038120907f8b4ef7d4e5bc8f098e6f637ac0acf4aee47b3f027efea6307264b06b4bc9d29890600090a3505050565b6000611a1b81611f98565b6001600160a01b038216611a4257604051633cefac3360e01b815260040160405180910390fd5b600060d084604051611a549190612d46565b908152604051908190036020019020546001600160a01b0316905080611a8c5760405162b8005960e81b815260040160405180910390fd5b6001600160a01b038116600090815260cf602052604090819020805460ff1916905551839060d090611abf908790612d46565b908152604080516020928190038301812080546001600160a01b0319166001600160a01b03958616179055928616600081815260cf9093529120805460ff1916600117905590611b10908690612d46565b604051908190038120907ff611fec7babefd259c57ea5b6006acff8140ab17bb816c65ba0aa7e36c09caa890600090a350505050565b33600090815260cf602052604081205460ff1615159003611b7a5760405163fb83383760e01b815260040160405180910390fd5b60cc55565b33600090815260cf602052604081205460ff1615159003611bb35760405163fb83383760e01b815260040160405180910390fd5b600082815260d46020526040902080546001600160a01b0316611be9576040516336f7ce4f60e11b815260040160405180910390fd5b60a08201516005820155606082015160038201556040909101516002909101805460ff191691151591909117905550565b600082815260656020526040902060010154611c3581611f98565b6111c28383612028565b33600090815260cf602052604081205460ff1615159003611c735760405163fb83383760e01b815260040160405180910390fd5b60cd55565b6000610d7060c95490565b33600090815260cf602052604081205460ff1615159003611cb75760405163fb83383760e01b815260040160405180910390fd5b6001600160a01b038216600090815260d16020526040902080548190611cdc90612be9565b1590506111045760405163096bb4a360e41b815260040160405180910390fd5b33600090815260cf602052604081205460ff1615159003611d305760405163fb83383760e01b815260040160405180910390fd5b60cb55565b611d8a60405180610100016040528060006001600160a01b0316815260200160608152602001600015158152602001600081526020016000815260200160008152602001600015158152602001606081525090565b600082815260d460209081526040918290208251610100810190935280546001600160a01b031683526001810180549192840191611dc790612be9565b80601f0160208091040260200160405190810160405280929190818152602001828054611df390612be9565b8015611e405780601f10611e1557610100808354040283529160200191611e40565b820191906000526020600020905b815481529060010190602001808311611e2357829003601f168201915b5050509183525050600282015460ff90811615156020830152600383015460408301526004830154606083015260058301546080830152600683015416151560a082015260078201805460c090920191611e9990612be9565b80601f0160208091040260200160405190810160405280929190818152602001828054611ec590612be9565b8015611f125780601f10611ee757610100808354040283529160200191611f12565b820191906000526020600020905b815481529060010190602001808311611ef557829003601f168201915b5050505050815250509050919050565b611f2a6120be565b6001600160a01b038116611f8f5760405162461bcd60e51b815260206004820152602660248201527f4f776e61626c653a206e6577206f776e657220697320746865207a65726f206160448201526564647265737360d01b6064820152608401611398565b610cee81612118565b610cee813361216a565b611fac828261188c565b6113ab5760008281526065602090815260408083206001600160a01b03851684529091529020805460ff19166001179055611fe43390565b6001600160a01b0316816001600160a01b0316837f2f8788117e7eff1d82e926ec794901d17c78024a50270940304540a733656f0d60405160405180910390a45050565b612032828261188c565b156113ab5760008281526065602090815260408083206001600160a01b0385168085529252808320805460ff1916905551339285917ff6391f5c32d9c69d2a47ea670b442974b53935d1edc7fd64eb21e047a839171b9190a45050565b600054610100900460ff166120b65760405162461bcd60e51b815260040161139890612d62565b61188a6121c3565b6097546001600160a01b0316331461188a5760405162461bcd60e51b815260206004820181905260248201527f4f776e61626c653a2063616c6c6572206973206e6f7420746865206f776e65726044820152606401611398565b609780546001600160a01b038381166001600160a01b0319831681179093556040519116919082907f8be0079c531659141344cd1fd0a4f28419497f9722a3daafe3b4186f6b6457e090600090a35050565b612174828261188c565b6113ab57612181816121f3565b61218c836020612205565b60405160200161219d929190612dad565b60408051601f198184030181529082905262461bcd60e51b825261139891600401612e1c565b600054610100900460ff166121ea5760405162461bcd60e51b815260040161139890612d62565b61188a33612118565b6060610bf86001600160a01b03831660145b60606000612214836002612e45565b61221f906002612e5c565b6001600160401b0381111561223657612236612428565b6040519080825280601f01601f191660200182016040528015612260576020820181803683370190505b509050600360fc1b8160008151811061227b5761227b612d30565b60200101906001600160f81b031916908160001a905350600f60fb1b816001815181106122aa576122aa612d30565b60200101906001600160f81b031916908160001a90535060006122ce846002612e45565b6122d9906001612e5c565b90505b6001811115612351576f181899199a1a9b1b9c1cb0b131b232b360811b85600f166010811061230d5761230d612d30565b1a60f81b82828151811061232357612323612d30565b60200101906001600160f81b031916908160001a90535060049490941c9361234a81612e6f565b90506122dc565b5083156123a05760405162461bcd60e51b815260206004820181905260248201527f537472696e67733a20686578206c656e67746820696e73756666696369656e746044820152606401611398565b9392505050565b604080516060810182526000808252602082018190529181019190915290565b80356001600160a01b03811681146123de57600080fd5b919050565b6000602082840312156123f557600080fd5b6123a0826123c7565b60006020828403121561241057600080fd5b81356001600160e01b0319811681146123a057600080fd5b634e487b7160e01b600052604160045260246000fd5b60405161010081016001600160401b038111828210171561246157612461612428565b60405290565b60405160a081016001600160401b038111828210171561246157612461612428565b600082601f83011261249a57600080fd5b81356001600160401b03808211156124b4576124b4612428565b604051601f8301601f19908116603f011681019082821181831017156124dc576124dc612428565b816040528381528660208588010111156124f557600080fd5b836020870160208301376000602085830101528094505050505092915050565b803580151581146123de57600080fd5b6000610100828403121561253857600080fd5b61254061243e565b905061254b826123c7565b815260208201356001600160401b038082111561256757600080fd5b61257385838601612489565b602084015261258460408501612515565b6040840152606084013560608401526080840135608084015260a084013560a08401526125b360c08501612515565b60c084015260e08401359150808211156125cc57600080fd5b506125d984828501612489565b60e08301525092915050565b6000602082840312156125f757600080fd5b81356001600160401b0381111561260d57600080fd5b61261984828501612525565b949350505050565b60006020828403121561263357600080fd5b81356001600160401b0381111561264957600080fd5b61261984828501612489565b6000806040838503121561266857600080fd5b82359150612678602084016123c7565b90509250929050565b6020808252825182820181905260009190848201906040850190845b818110156126b95783518352928401929184019160010161269d565b50909695505050505050565b6000806000606084860312156126da57600080fd5b833592506126ea602085016123c7565b91506126f8604085016123c7565b90509250925092565b60005b8381101561271c578181015183820152602001612704565b50506000910152565b6000815180845261273d816020860160208601612701565b601f01601f19169290920160200192915050565b60a08152600061276460a0830188612725565b951515602083015250921515604084015290151560608301521515608090910152919050565b6000806040838503121561279d57600080fd5b6127a6836123c7565b915060208301356001600160401b03808211156127c257600080fd5b9084019060a082870312156127d657600080fd5b6127de612467565b8235828111156127ed57600080fd5b6127f988828601612489565b82525061280860208401612515565b602082015261281960408401612515565b604082015261282a60608401612515565b606082015261283b60808401612515565b60808201528093505050509250929050565b60006020828403121561285f57600080fd5b5035919050565b6001600160a01b03891681526101006020820181905260009061288b8382018b612725565b905088151560408401528760608401528660808401528560a084015284151560c084015282810360e08401526128c18185612725565b9b9a5050505050505050505050565b60008082840360a08112156128e457600080fd5b833592506080601f19820112156128fa57600080fd5b50604051608081018181106001600160401b038211171561291d5761291d612428565b806040525060208401358152612935604085016123c7565b60208201526060840135604082015261295060808501612515565b6060820152809150509250929050565b6000806040838503121561297357600080fd5b61297c836123c7565b9150612678602084016123c7565b600080828403608081121561299e57600080fd5b83356001600160401b03808211156129b557600080fd5b6129c187838801612489565b94506060601f19840112156129d557600080fd5b604051925060608301915082821081831117156129f4576129f4612428565b50604052612a04602085016123c7565b8152612a1260408501612515565b6020820152612a2360608501612515565b6040820152809150509250929050565b602081526000825160a06020840152612a4f60c0840182612725565b90506020840151151560408401526040840151151560608401526060840151151560808401526080840151151560a08401528091505092915050565b600080600060608486031215612aa057600080fd5b83359250612ab0602085016123c7565b9150604084013590509250925092565b60008060408385031215612ad357600080fd5b82356001600160401b03811115612ae957600080fd5b612af585828601612489565b925050612678602084016123c7565b60008060408385031215612b1757600080fd5b8235915060208301356001600160401b03811115612b3457600080fd5b612b4085828601612525565b9150509250929050565b602080825282516001600160a01b0316828201528201516101006040830181905260009190612b7d610120850183612725565b91506040850151612b92606086018215159052565b5060608501516080850152608085015160a085015260a085015160c085015260c0850151612bc460e086018215159052565b5060e0850151848303601f190182860152612bdf8382612725565b9695505050505050565b600181811c90821680612bfd57607f821691505b602082108103612c1d57634e487b7160e01b600052602260045260246000fd5b50919050565b601f8211156111c257600081815260208120601f850160051c81016020861015612c4a5750805b601f850160051c820191505b81811015612c6957828155600101612c56565b505050505050565b81516001600160401b03811115612c8a57612c8a612428565b612c9e81612c988454612be9565b84612c23565b602080601f831160018114612cd35760008415612cbb5750858301515b600019600386901b1c1916600185901b178555612c69565b600085815260208120601f198616915b82811015612d0257888601518255948401946001909101908401612ce3565b5085821015612d205787850151600019600388901b60f8161c191681555b5050505050600190811b01905550565b634e487b7160e01b600052603260045260246000fd5b60008251612d58818460208701612701565b9190910192915050565b6020808252602b908201527f496e697469616c697a61626c653a20636f6e7472616374206973206e6f74206960408201526a6e697469616c697a696e6760a81b606082015260800190565b76020b1b1b2b9b9a1b7b73a3937b61d1030b1b1b7bab73a1604d1b815260008351612ddf816017850160208801612701565b7001034b99036b4b9b9b4b733903937b6329607d1b6017918401918201528351612e10816028840160208801612701565b01602801949350505050565b6020815260006123a06020830184612725565b634e487b7160e01b600052601160045260246000fd5b8082028115828204841417610bf857610bf8612e2f565b80820180821115610bf857610bf8612e2f565b600081612e7e57612e7e612e2f565b50600019019056fea26469706673582212206ea92791e6b4f92debc1f5b7d45410dbff074578f23f42d3809eac4fd4bc674764736f6c63430008110033",
  "linkReferences": {},
  "deployedLinkReferences": {}
}