{
  "_format": "hh-sol-artifact-1",
  "contractName": "TheBadge",
  "sourceName": "src/contracts/thebadge/TheBadge.sol",
  "abi": [
    {
      "inputs": [],
      "stateMutability": "nonpayable",
      "type": "constructor"
    },
    {
      "inputs": [],
      "name": "TheBadge__SBT",
      "type": "error"
    },
    {
      "inputs": [],
      "name": "TheBadge__badgeModel_badgeModelNotFound",
      "type": "error"
    },
    {
      "inputs": [],
      "name": "TheBadge__createBadgeModel_controllerIsPaused",
      "type": "error"
    },
    {
      "inputs": [],
      "name": "TheBadge__createBadgeModel_invalidController",
      "type": "error"
    },
    {
      "inputs": [],
      "name": "TheBadge__createBadgeModel_wrongValue",
      "type": "error"
    },
    {
      "inputs": [],
      "name": "TheBadge__method_not_supported",
      "type": "error"
    },
    {
      "inputs": [],
      "name": "TheBadge__onlyCreator_creatorIsSuspended",
      "type": "error"
    },
    {
      "inputs": [],
      "name": "TheBadge__onlyCreator_senderIsNotACreator",
      "type": "error"
    },
    {
      "inputs": [],
      "name": "TheBadge__registerCreator_alreadyRegistered",
      "type": "error"
    },
    {
      "inputs": [],
      "name": "TheBadge__registerCreator_wrongValue",
      "type": "error"
    },
    {
      "inputs": [],
      "name": "TheBadge__requestBadge_badgeModelIsSuspended",
      "type": "error"
    },
    {
      "inputs": [],
      "name": "TheBadge__requestBadge_badgeModelNotFound",
      "type": "error"
    },
    {
      "inputs": [],
      "name": "TheBadge__requestBadge_badgeNotClaimable",
      "type": "error"
    },
    {
      "inputs": [],
      "name": "TheBadge__requestBadge_badgeNotFound",
      "type": "error"
    },
    {
      "inputs": [],
      "name": "TheBadge__requestBadge_controllerIsPaused",
      "type": "error"
    },
    {
      "inputs": [],
      "name": "TheBadge__requestBadge_isPaused",
      "type": "error"
    },
    {
      "inputs": [],
      "name": "TheBadge__requestBadge_wrongValue",
      "type": "error"
    },
    {
      "inputs": [],
      "name": "TheBadge__setBadgeModelController_alreadySet",
      "type": "error"
    },
    {
      "inputs": [],
      "name": "TheBadge__setBadgeModelController_emptyName",
      "type": "error"
    },
    {
      "inputs": [],
      "name": "TheBadge__setBadgeModelController_notFound",
      "type": "error"
    },
    {
      "inputs": [],
      "name": "TheBadge__setControllerStatus_notFound",
      "type": "error"
    },
    {
      "inputs": [],
      "name": "TheBadge__updateBadgeModel_badgeModelNotFound",
      "type": "error"
    },
    {
      "inputs": [],
      "name": "TheBadge__updateBadgeModel_notBadgeModelOwner",
      "type": "error"
    },
    {
      "inputs": [],
      "name": "TheBadge__updateCreator_notFound",
      "type": "error"
    },
    {
      "anonymous": false,
      "inputs": [
        {
          "indexed": false,
          "internalType": "address",
          "name": "previousAdmin",
          "type": "address"
        },
        {
          "indexed": false,
          "internalType": "address",
          "name": "newAdmin",
          "type": "address"
        }
      ],
      "name": "AdminChanged",
      "type": "event"
    },
    {
      "anonymous": false,
      "inputs": [
        {
          "indexed": true,
          "internalType": "address",
          "name": "account",
          "type": "address"
        },
        {
          "indexed": true,
          "internalType": "address",
          "name": "operator",
          "type": "address"
        },
        {
          "indexed": false,
          "internalType": "bool",
          "name": "approved",
          "type": "bool"
        }
      ],
      "name": "ApprovalForAll",
      "type": "event"
    },
    {
      "anonymous": false,
      "inputs": [
        {
          "indexed": true,
          "internalType": "string",
          "name": "controllerName",
          "type": "string"
        },
        {
          "indexed": true,
          "internalType": "address",
          "name": "controllerAddress",
          "type": "address"
        }
      ],
      "name": "BadgeModelControllerAdded",
      "type": "event"
    },
    {
      "anonymous": false,
      "inputs": [
        {
          "indexed": true,
          "internalType": "uint256",
          "name": "badgeModelId",
          "type": "uint256"
        },
        {
          "indexed": false,
          "internalType": "string",
          "name": "metadata",
          "type": "string"
        }
      ],
      "name": "BadgeModelCreated",
      "type": "event"
    },
    {
      "anonymous": false,
      "inputs": [
        {
          "indexed": true,
          "internalType": "uint256",
          "name": "badgeModelId",
          "type": "uint256"
        },
        {
          "indexed": false,
          "internalType": "uint256",
          "name": "newAmountInBps",
          "type": "uint256"
        }
      ],
      "name": "BadgeModelProtocolFeeUpdated",
      "type": "event"
    },
    {
      "anonymous": false,
      "inputs": [
        {
          "indexed": true,
          "internalType": "uint256",
          "name": "badgeModelId",
          "type": "uint256"
        }
      ],
      "name": "BadgeModelUpdated",
      "type": "event"
    },
    {
      "anonymous": false,
      "inputs": [
        {
          "indexed": true,
          "internalType": "uint256",
          "name": "badgeModelID",
          "type": "uint256"
        },
        {
          "indexed": true,
          "internalType": "uint256",
          "name": "badgeID",
          "type": "uint256"
        },
        {
          "indexed": true,
          "internalType": "address",
          "name": "recipient",
          "type": "address"
        },
        {
          "indexed": false,
          "internalType": "address",
          "name": "controller",
          "type": "address"
        },
        {
          "indexed": false,
          "internalType": "uint256",
          "name": "controllerBadgeId",
          "type": "uint256"
        }
      ],
      "name": "BadgeRequested",
      "type": "event"
    },
    {
      "anonymous": false,
      "inputs": [
        {
          "indexed": true,
          "internalType": "address",
          "name": "beacon",
          "type": "address"
        }
      ],
      "name": "BeaconUpgraded",
      "type": "event"
    },
    {
      "anonymous": false,
      "inputs": [
        {
          "indexed": true,
          "internalType": "address",
          "name": "creator",
          "type": "address"
        },
        {
          "indexed": false,
          "internalType": "string",
          "name": "metadata",
          "type": "string"
        }
      ],
      "name": "CreatorRegistered",
      "type": "event"
    },
    {
      "anonymous": false,
      "inputs": [
        {
          "indexed": true,
          "internalType": "address",
          "name": "admin",
          "type": "address"
        },
        {
          "indexed": true,
          "internalType": "address",
          "name": "minter",
          "type": "address"
        }
      ],
      "name": "Initialize",
      "type": "event"
    },
    {
      "anonymous": false,
      "inputs": [
        {
          "indexed": false,
          "internalType": "uint8",
          "name": "version",
          "type": "uint8"
        }
      ],
      "name": "Initialized",
      "type": "event"
    },
    {
      "anonymous": false,
      "inputs": [
        {
          "indexed": false,
          "internalType": "address",
          "name": "account",
          "type": "address"
        }
      ],
      "name": "Paused",
      "type": "event"
    },
    {
      "anonymous": false,
      "inputs": [
        {
          "indexed": true,
          "internalType": "address",
          "name": "recipient",
          "type": "address"
        },
        {
          "indexed": false,
          "internalType": "uint256",
          "name": "amount",
          "type": "uint256"
        },
        {
          "indexed": true,
          "internalType": "enum TheBadgeStore.PaymentType",
          "name": "paymentType",
          "type": "uint8"
        },
        {
          "indexed": true,
          "internalType": "uint256",
          "name": "badgeModelId",
          "type": "uint256"
        }
      ],
      "name": "PaymentMade",
      "type": "event"
    },
    {
      "anonymous": false,
      "inputs": [],
      "name": "ProtocolSettingsUpdated",
      "type": "event"
    },
    {
      "anonymous": false,
      "inputs": [
        {
          "indexed": true,
          "internalType": "address",
          "name": "creator",
          "type": "address"
        },
        {
          "indexed": false,
          "internalType": "bool",
          "name": "deleted",
          "type": "bool"
        }
      ],
      "name": "RemovedCreator",
      "type": "event"
    },
    {
      "anonymous": false,
      "inputs": [
        {
          "indexed": true,
          "internalType": "bytes32",
          "name": "role",
          "type": "bytes32"
        },
        {
          "indexed": true,
          "internalType": "bytes32",
          "name": "previousAdminRole",
          "type": "bytes32"
        },
        {
          "indexed": true,
          "internalType": "bytes32",
          "name": "newAdminRole",
          "type": "bytes32"
        }
      ],
      "name": "RoleAdminChanged",
      "type": "event"
    },
    {
      "anonymous": false,
      "inputs": [
        {
          "indexed": true,
          "internalType": "bytes32",
          "name": "role",
          "type": "bytes32"
        },
        {
          "indexed": true,
          "internalType": "address",
          "name": "account",
          "type": "address"
        },
        {
          "indexed": true,
          "internalType": "address",
          "name": "sender",
          "type": "address"
        }
      ],
      "name": "RoleGranted",
      "type": "event"
    },
    {
      "anonymous": false,
      "inputs": [
        {
          "indexed": true,
          "internalType": "bytes32",
          "name": "role",
          "type": "bytes32"
        },
        {
          "indexed": true,
          "internalType": "address",
          "name": "account",
          "type": "address"
        },
        {
          "indexed": true,
          "internalType": "address",
          "name": "sender",
          "type": "address"
        }
      ],
      "name": "RoleRevoked",
      "type": "event"
    },
    {
      "anonymous": false,
      "inputs": [
        {
          "indexed": true,
          "internalType": "address",
          "name": "creator",
          "type": "address"
        },
        {
          "indexed": false,
          "internalType": "bool",
          "name": "suspended",
          "type": "bool"
        }
      ],
      "name": "SuspendedCreator",
      "type": "event"
    },
    {
      "anonymous": false,
      "inputs": [
        {
          "indexed": true,
          "internalType": "address",
          "name": "operator",
          "type": "address"
        },
        {
          "indexed": true,
          "internalType": "address",
          "name": "from",
          "type": "address"
        },
        {
          "indexed": true,
          "internalType": "address",
          "name": "to",
          "type": "address"
        },
        {
          "indexed": false,
          "internalType": "uint256[]",
          "name": "ids",
          "type": "uint256[]"
        },
        {
          "indexed": false,
          "internalType": "uint256[]",
          "name": "values",
          "type": "uint256[]"
        }
      ],
      "name": "TransferBatch",
      "type": "event"
    },
    {
      "anonymous": false,
      "inputs": [
        {
          "indexed": true,
          "internalType": "address",
          "name": "operator",
          "type": "address"
        },
        {
          "indexed": true,
          "internalType": "address",
          "name": "from",
          "type": "address"
        },
        {
          "indexed": true,
          "internalType": "address",
          "name": "to",
          "type": "address"
        },
        {
          "indexed": false,
          "internalType": "uint256",
          "name": "id",
          "type": "uint256"
        },
        {
          "indexed": false,
          "internalType": "uint256",
          "name": "value",
          "type": "uint256"
        }
      ],
      "name": "TransferSingle",
      "type": "event"
    },
    {
      "anonymous": false,
      "inputs": [
        {
          "indexed": false,
          "internalType": "string",
          "name": "value",
          "type": "string"
        },
        {
          "indexed": true,
          "internalType": "uint256",
          "name": "id",
          "type": "uint256"
        }
      ],
      "name": "URI",
      "type": "event"
    },
    {
      "anonymous": false,
      "inputs": [
        {
          "indexed": false,
          "internalType": "address",
          "name": "account",
          "type": "address"
        }
      ],
      "name": "Unpaused",
      "type": "event"
    },
    {
      "anonymous": false,
      "inputs": [
        {
          "indexed": true,
          "internalType": "address",
          "name": "creator",
          "type": "address"
        },
        {
          "indexed": false,
          "internalType": "string",
          "name": "metadata",
          "type": "string"
        }
      ],
      "name": "UpdatedCreatorMetadata",
      "type": "event"
    },
    {
      "anonymous": false,
      "inputs": [
        {
          "indexed": true,
          "internalType": "address",
          "name": "implementation",
          "type": "address"
        }
      ],
      "name": "Upgraded",
      "type": "event"
    },
    {
      "inputs": [],
      "name": "DEFAULT_ADMIN_ROLE",
      "outputs": [
        {
          "internalType": "bytes32",
          "name": "",
          "type": "bytes32"
        }
      ],
      "stateMutability": "view",
      "type": "function"
    },
    {
      "inputs": [],
      "name": "FEE_COLLECTOR_ROLE",
      "outputs": [
        {
          "internalType": "bytes32",
          "name": "",
          "type": "bytes32"
        }
      ],
      "stateMutability": "view",
      "type": "function"
    },
    {
      "inputs": [],
      "name": "MINTER_ROLE",
      "outputs": [
        {
          "internalType": "bytes32",
          "name": "",
          "type": "bytes32"
        }
      ],
      "stateMutability": "view",
      "type": "function"
    },
    {
      "inputs": [],
      "name": "PAUSER_ROLE",
      "outputs": [
        {
          "internalType": "bytes32",
          "name": "",
          "type": "bytes32"
        }
      ],
      "stateMutability": "view",
      "type": "function"
    },
    {
      "inputs": [],
      "name": "UPGRADER_ROLE",
      "outputs": [
        {
          "internalType": "bytes32",
          "name": "",
          "type": "bytes32"
        }
      ],
      "stateMutability": "view",
      "type": "function"
    },
    {
      "inputs": [],
      "name": "URI_SETTER_ROLE",
      "outputs": [
        {
          "internalType": "bytes32",
          "name": "",
          "type": "bytes32"
        }
      ],
      "stateMutability": "view",
      "type": "function"
    },
    {
      "inputs": [
        {
          "internalType": "string",
          "name": "controllerName",
          "type": "string"
        },
        {
          "internalType": "address",
          "name": "controllerAddress",
          "type": "address"
        }
      ],
      "name": "addBadgeModelController",
      "outputs": [],
      "stateMutability": "nonpayable",
      "type": "function"
    },
    {
      "inputs": [
        {
          "internalType": "string",
          "name": "",
          "type": "string"
        }
      ],
      "name": "badgeModelControllers",
      "outputs": [
        {
          "internalType": "address",
          "name": "controller",
          "type": "address"
        },
        {
          "internalType": "bool",
          "name": "paused",
          "type": "bool"
        },
        {
          "internalType": "bool",
          "name": "initialized",
          "type": "bool"
        }
      ],
      "stateMutability": "view",
      "type": "function"
    },
    {
      "inputs": [
        {
          "internalType": "uint256",
          "name": "",
          "type": "uint256"
        }
      ],
      "name": "badgeModels",
      "outputs": [
        {
          "internalType": "address",
          "name": "creator",
          "type": "address"
        },
        {
          "internalType": "string",
          "name": "controllerName",
          "type": "string"
        },
        {
          "internalType": "bool",
          "name": "paused",
          "type": "bool"
        },
        {
          "internalType": "uint256",
          "name": "mintCreatorFee",
          "type": "uint256"
        },
        {
          "internalType": "uint256",
          "name": "validFor",
          "type": "uint256"
        },
        {
          "internalType": "uint256",
          "name": "mintProtocolFee",
          "type": "uint256"
        },
        {
          "internalType": "bool",
          "name": "initialized",
          "type": "bool"
        },
        {
          "internalType": "string",
          "name": "version",
          "type": "string"
        }
      ],
      "stateMutability": "view",
      "type": "function"
    },
    {
      "inputs": [
        {
          "internalType": "uint256",
          "name": "",
          "type": "uint256"
        },
        {
          "internalType": "address",
          "name": "",
          "type": "address"
        },
        {
          "internalType": "uint256",
          "name": "",
          "type": "uint256"
        }
      ],
      "name": "badgeModelsByAccount",
      "outputs": [
        {
          "internalType": "uint256",
          "name": "",
          "type": "uint256"
        }
      ],
      "stateMutability": "view",
      "type": "function"
    },
    {
      "inputs": [
        {
          "internalType": "uint256",
          "name": "",
          "type": "uint256"
        }
      ],
      "name": "badges",
      "outputs": [
        {
          "internalType": "uint256",
          "name": "badgeModelId",
          "type": "uint256"
        },
        {
          "internalType": "address",
          "name": "account",
          "type": "address"
        },
        {
          "internalType": "uint256",
          "name": "dueDate",
          "type": "uint256"
        },
        {
          "internalType": "bool",
          "name": "initialized",
          "type": "bool"
        }
      ],
      "stateMutability": "view",
      "type": "function"
    },
    {
      "inputs": [
        {
          "internalType": "address",
          "name": "account",
          "type": "address"
        },
        {
          "internalType": "uint256",
          "name": "badgeId",
          "type": "uint256"
        }
      ],
      "name": "balanceOf",
      "outputs": [
        {
          "internalType": "uint256",
          "name": "",
          "type": "uint256"
        }
      ],
      "stateMutability": "view",
      "type": "function"
    },
    {
      "inputs": [
        {
          "internalType": "address",
          "name": "account",
          "type": "address"
        },
        {
          "internalType": "uint256",
          "name": "badgeModelId",
          "type": "uint256"
        }
      ],
      "name": "balanceOfBadgeModel",
      "outputs": [
        {
          "internalType": "uint256",
          "name": "",
          "type": "uint256"
        }
      ],
      "stateMutability": "view",
      "type": "function"
    },
    {
      "inputs": [
        {
          "internalType": "address[]",
          "name": "accounts",
          "type": "address[]"
        },
        {
          "internalType": "uint256[]",
          "name": "ids",
          "type": "uint256[]"
        }
      ],
      "name": "balanceOfBatch",
      "outputs": [
        {
          "internalType": "uint256[]",
          "name": "",
          "type": "uint256[]"
        }
      ],
      "stateMutability": "view",
      "type": "function"
    },
    {
      "inputs": [
        {
          "internalType": "uint256",
          "name": "badgeId",
          "type": "uint256"
        },
        {
          "internalType": "bytes",
          "name": "data",
          "type": "bytes"
        }
      ],
      "name": "challenge",
      "outputs": [],
      "stateMutability": "payable",
      "type": "function"
    },
    {
      "inputs": [
        {
          "internalType": "uint256",
          "name": "badgeId",
          "type": "uint256"
        },
        {
          "internalType": "bytes",
          "name": "data",
          "type": "bytes"
        }
      ],
      "name": "claim",
      "outputs": [],
      "stateMutability": "nonpayable",
      "type": "function"
    },
    {
      "inputs": [
        {
          "components": [
            {
              "internalType": "string",
              "name": "metadata",
              "type": "string"
            },
            {
              "internalType": "string",
              "name": "controllerName",
              "type": "string"
            },
            {
              "internalType": "uint256",
              "name": "mintCreatorFee",
              "type": "uint256"
            },
            {
              "internalType": "uint256",
              "name": "validFor",
              "type": "uint256"
            }
          ],
          "internalType": "struct TheBadgeStore.CreateBadgeModel",
          "name": "args",
          "type": "tuple"
        },
        {
          "internalType": "bytes",
          "name": "data",
          "type": "bytes"
        }
      ],
      "name": "createBadgeModel",
      "outputs": [],
      "stateMutability": "payable",
      "type": "function"
    },
    {
      "inputs": [],
      "name": "createBadgeModelProtocolFee",
      "outputs": [
        {
          "internalType": "uint256",
          "name": "",
          "type": "uint256"
        }
      ],
      "stateMutability": "view",
      "type": "function"
    },
    {
      "inputs": [
        {
          "internalType": "address",
          "name": "",
          "type": "address"
        }
      ],
      "name": "creators",
      "outputs": [
        {
          "internalType": "string",
          "name": "metadata",
          "type": "string"
        },
        {
          "internalType": "bool",
          "name": "suspended",
          "type": "bool"
        },
        {
          "internalType": "bool",
          "name": "initialized",
          "type": "bool"
        }
      ],
      "stateMutability": "view",
      "type": "function"
    },
    {
      "inputs": [],
      "name": "feeCollector",
      "outputs": [
        {
          "internalType": "address",
          "name": "",
          "type": "address"
        }
      ],
      "stateMutability": "view",
      "type": "function"
    },
    {
      "inputs": [
        {
          "internalType": "uint256",
          "name": "badgeId",
          "type": "uint256"
        }
      ],
      "name": "getChallengeDepositValue",
      "outputs": [
        {
          "internalType": "uint256",
          "name": "",
          "type": "uint256"
        }
      ],
      "stateMutability": "view",
      "type": "function"
    },
    {
      "inputs": [
        {
          "internalType": "uint256",
          "name": "badgeId",
          "type": "uint256"
        }
      ],
      "name": "getRemovalDepositValue",
      "outputs": [
        {
          "internalType": "uint256",
          "name": "",
          "type": "uint256"
        }
      ],
      "stateMutability": "view",
      "type": "function"
    },
    {
      "inputs": [
        {
          "internalType": "bytes32",
          "name": "role",
          "type": "bytes32"
        }
      ],
      "name": "getRoleAdmin",
      "outputs": [
        {
          "internalType": "bytes32",
          "name": "",
          "type": "bytes32"
        }
      ],
      "stateMutability": "view",
      "type": "function"
    },
    {
      "inputs": [
        {
          "internalType": "bytes32",
          "name": "role",
          "type": "bytes32"
        },
        {
          "internalType": "address",
          "name": "account",
          "type": "address"
        }
      ],
      "name": "grantRole",
      "outputs": [],
      "stateMutability": "nonpayable",
      "type": "function"
    },
    {
      "inputs": [
        {
          "internalType": "bytes32",
          "name": "role",
          "type": "bytes32"
        },
        {
          "internalType": "address",
          "name": "account",
          "type": "address"
        }
      ],
      "name": "hasRole",
      "outputs": [
        {
          "internalType": "bool",
          "name": "",
          "type": "bool"
        }
      ],
      "stateMutability": "view",
      "type": "function"
    },
    {
      "inputs": [
        {
          "internalType": "address",
          "name": "admin",
          "type": "address"
        },
        {
          "internalType": "address",
          "name": "_feeCollector",
          "type": "address"
        },
        {
          "internalType": "address",
          "name": "minter",
          "type": "address"
        }
      ],
      "name": "initialize",
      "outputs": [],
      "stateMutability": "nonpayable",
      "type": "function"
    },
    {
      "inputs": [
        {
          "internalType": "address",
          "name": "account",
          "type": "address"
        },
        {
          "internalType": "address",
          "name": "operator",
          "type": "address"
        }
      ],
      "name": "isApprovedForAll",
      "outputs": [
        {
          "internalType": "bool",
          "name": "",
          "type": "bool"
        }
      ],
      "stateMutability": "view",
      "type": "function"
    },
    {
      "inputs": [
        {
          "internalType": "uint256",
          "name": "badgeModelId",
          "type": "uint256"
        }
      ],
      "name": "isBadgeModelSuspended",
      "outputs": [
        {
          "internalType": "bool",
          "name": "",
          "type": "bool"
        }
      ],
      "stateMutability": "view",
      "type": "function"
    },
    {
      "inputs": [
        {
          "internalType": "uint256",
          "name": "badgeId",
          "type": "uint256"
        }
      ],
      "name": "isExpired",
      "outputs": [
        {
          "internalType": "bool",
          "name": "",
          "type": "bool"
        }
      ],
      "stateMutability": "view",
      "type": "function"
    },
    {
      "inputs": [
        {
          "internalType": "uint256",
          "name": "badgeModelId",
          "type": "uint256"
        },
        {
          "internalType": "address",
          "name": "account",
          "type": "address"
        },
        {
          "internalType": "string",
          "name": "tokenURI",
          "type": "string"
        },
        {
          "internalType": "bytes",
          "name": "data",
          "type": "bytes"
        }
      ],
      "name": "mint",
      "outputs": [],
      "stateMutability": "payable",
      "type": "function"
    },
    {
      "inputs": [],
      "name": "mintBadgeProtocolDefaultFeeInBps",
      "outputs": [
        {
          "internalType": "uint256",
          "name": "",
          "type": "uint256"
        }
      ],
      "stateMutability": "view",
      "type": "function"
    },
    {
      "inputs": [
        {
          "internalType": "uint256",
          "name": "badgeModelId",
          "type": "uint256"
        }
      ],
      "name": "mintValue",
      "outputs": [
        {
          "internalType": "uint256",
          "name": "",
          "type": "uint256"
        }
      ],
      "stateMutability": "view",
      "type": "function"
    },
    {
      "inputs": [],
      "name": "pause",
      "outputs": [],
      "stateMutability": "nonpayable",
      "type": "function"
    },
    {
      "inputs": [],
      "name": "paused",
      "outputs": [
        {
          "internalType": "bool",
          "name": "",
          "type": "bool"
        }
      ],
      "stateMutability": "view",
      "type": "function"
    },
    {
      "inputs": [],
      "name": "proxiableUUID",
      "outputs": [
        {
          "internalType": "bytes32",
          "name": "",
          "type": "bytes32"
        }
      ],
      "stateMutability": "view",
      "type": "function"
    },
    {
      "inputs": [
        {
          "internalType": "string",
          "name": "_metadata",
          "type": "string"
        }
      ],
      "name": "registerBadgeModelCreator",
      "outputs": [],
      "stateMutability": "payable",
      "type": "function"
    },
    {
      "inputs": [],
      "name": "registerCreatorProtocolFee",
      "outputs": [
        {
          "internalType": "uint256",
          "name": "",
          "type": "uint256"
        }
      ],
      "stateMutability": "view",
      "type": "function"
    },
    {
      "inputs": [],
      "name": "removeBadgeModelCreator",
      "outputs": [],
      "stateMutability": "view",
      "type": "function"
    },
    {
      "inputs": [
        {
          "internalType": "uint256",
          "name": "badgeId",
          "type": "uint256"
        },
        {
          "internalType": "bytes",
          "name": "data",
          "type": "bytes"
        }
      ],
      "name": "removeItem",
      "outputs": [],
      "stateMutability": "payable",
      "type": "function"
    },
    {
      "inputs": [
        {
          "internalType": "bytes32",
          "name": "role",
          "type": "bytes32"
        },
        {
          "internalType": "address",
          "name": "account",
          "type": "address"
        }
      ],
      "name": "renounceRole",
      "outputs": [],
      "stateMutability": "nonpayable",
      "type": "function"
    },
    {
      "inputs": [
        {
          "internalType": "bytes32",
          "name": "role",
          "type": "bytes32"
        },
        {
          "internalType": "address",
          "name": "account",
          "type": "address"
        }
      ],
      "name": "revokeRole",
      "outputs": [],
      "stateMutability": "nonpayable",
      "type": "function"
    },
    {
      "inputs": [
        {
          "internalType": "address",
          "name": "from",
          "type": "address"
        },
        {
          "internalType": "address",
          "name": "to",
          "type": "address"
        },
        {
          "internalType": "uint256[]",
          "name": "ids",
          "type": "uint256[]"
        },
        {
          "internalType": "uint256[]",
          "name": "amounts",
          "type": "uint256[]"
        },
        {
          "internalType": "bytes",
          "name": "data",
          "type": "bytes"
        }
      ],
      "name": "safeBatchTransferFrom",
      "outputs": [],
      "stateMutability": "nonpayable",
      "type": "function"
    },
    {
      "inputs": [
        {
          "internalType": "address",
          "name": "from",
          "type": "address"
        },
        {
          "internalType": "address",
          "name": "to",
          "type": "address"
        },
        {
          "internalType": "uint256",
          "name": "id",
          "type": "uint256"
        },
        {
          "internalType": "uint256",
          "name": "amount",
          "type": "uint256"
        },
        {
          "internalType": "bytes",
          "name": "data",
          "type": "bytes"
        }
      ],
      "name": "safeTransferFrom",
      "outputs": [],
      "stateMutability": "nonpayable",
      "type": "function"
    },
    {
      "inputs": [
        {
          "internalType": "address",
          "name": "operator",
          "type": "address"
        },
        {
          "internalType": "bool",
          "name": "approved",
          "type": "bool"
        }
      ],
      "name": "setApprovalForAll",
      "outputs": [],
      "stateMutability": "nonpayable",
      "type": "function"
    },
    {
      "inputs": [
        {
          "internalType": "uint256",
          "name": "badgeId",
          "type": "uint256"
        },
        {
          "internalType": "bytes",
          "name": "data",
          "type": "bytes"
        }
      ],
      "name": "submitEvidence",
      "outputs": [],
      "stateMutability": "nonpayable",
      "type": "function"
    },
    {
      "inputs": [
        {
          "internalType": "bytes4",
          "name": "interfaceId",
          "type": "bytes4"
        }
      ],
      "name": "supportsInterface",
      "outputs": [
        {
          "internalType": "bool",
          "name": "",
          "type": "bool"
        }
      ],
      "stateMutability": "view",
      "type": "function"
    },
    {
      "inputs": [],
      "name": "suspendBadgeModel",
      "outputs": [],
      "stateMutability": "view",
      "type": "function"
    },
    {
      "inputs": [
        {
          "internalType": "address",
          "name": "_creator",
          "type": "address"
        },
        {
          "internalType": "bool",
          "name": "suspended",
          "type": "bool"
        }
      ],
      "name": "suspendBadgeModelCreator",
      "outputs": [],
      "stateMutability": "nonpayable",
      "type": "function"
    },
    {
      "inputs": [],
      "name": "unpause",
      "outputs": [],
      "stateMutability": "nonpayable",
      "type": "function"
    },
    {
      "inputs": [
        {
          "internalType": "uint256",
          "name": "badgeModelId",
          "type": "uint256"
        },
        {
          "internalType": "uint256",
          "name": "mintCreatorFee",
          "type": "uint256"
        },
        {
          "internalType": "bool",
          "name": "paused",
          "type": "bool"
        }
      ],
      "name": "updateBadgeModel",
      "outputs": [],
      "stateMutability": "nonpayable",
      "type": "function"
    },
    {
      "inputs": [
        {
          "internalType": "address",
          "name": "_creator",
          "type": "address"
        },
        {
          "internalType": "string",
          "name": "_metadata",
          "type": "string"
        }
      ],
      "name": "updateBadgeModelCreator",
      "outputs": [],
      "stateMutability": "nonpayable",
      "type": "function"
    },
    {
      "inputs": [
        {
          "internalType": "uint256",
          "name": "badgeModelId",
          "type": "uint256"
        },
        {
          "internalType": "uint256",
          "name": "feeInBps",
          "type": "uint256"
        }
      ],
      "name": "updateBadgeModelProtocolFee",
      "outputs": [],
      "stateMutability": "nonpayable",
      "type": "function"
    },
    {
      "inputs": [
        {
          "internalType": "uint256",
          "name": "_createBadgeModelValue",
          "type": "uint256"
        }
      ],
      "name": "updateCreateBadgeModelProtocolFee",
      "outputs": [],
      "stateMutability": "nonpayable",
      "type": "function"
    },
    {
      "inputs": [
        {
          "internalType": "uint256",
          "name": "_mintBadgeDefaultFee",
          "type": "uint256"
        }
      ],
      "name": "updateMintBadgeDefaultProtocolFee",
      "outputs": [],
      "stateMutability": "nonpayable",
      "type": "function"
    },
    {
      "inputs": [
        {
          "internalType": "uint256",
          "name": "_registerCreatorValue",
          "type": "uint256"
        }
      ],
      "name": "updateRegisterCreatorProtocolFee",
      "outputs": [],
      "stateMutability": "nonpayable",
      "type": "function"
    },
    {
      "inputs": [
        {
          "internalType": "address",
          "name": "newImplementation",
          "type": "address"
        }
      ],
      "name": "upgradeTo",
      "outputs": [],
      "stateMutability": "nonpayable",
      "type": "function"
    },
    {
      "inputs": [
        {
          "internalType": "address",
          "name": "newImplementation",
          "type": "address"
        },
        {
          "internalType": "bytes",
          "name": "data",
          "type": "bytes"
        }
      ],
      "name": "upgradeToAndCall",
      "outputs": [],
      "stateMutability": "payable",
      "type": "function"
    },
    {
      "inputs": [
        {
          "internalType": "uint256",
          "name": "badgeId",
          "type": "uint256"
        }
      ],
      "name": "uri",
      "outputs": [
        {
          "internalType": "string",
          "name": "",
          "type": "string"
        }
      ],
      "stateMutability": "view",
      "type": "function"
    },
    {
      "stateMutability": "payable",
      "type": "receive"
    }
  ],
  "bytecode": "0x60a0604052306080523480156200001557600080fd5b506200002062000026565b620000e8565b600054610100900460ff1615620000935760405162461bcd60e51b815260206004820152602760248201527f496e697469616c697a61626c653a20636f6e747261637420697320696e697469604482015266616c697a696e6760c81b606482015260840160405180910390fd5b60005460ff9081161015620000e6576000805460ff191660ff9081179091556040519081527f7f26b83ff96e1f2b6a682f133852f6798a09c465da95921460cefb38474024989060200160405180910390a15b565b60805161552c6200012060003960008181611283015281816112c3015281816119df01528181611a1f0152611aae015261552c6000f3fe6080604052600436106103845760003560e01c80638456cb59116101d1578063c415b95c11610102578063d9548e53116100a0578063ede37dd41161006f578063ede37dd414610b35578063f1fe717e14610b55578063f242432a14610b75578063f72c0d8b14610b9557600080fd5b8063d9548e5314610a8a578063e181865114610aaa578063e63ab1e914610aca578063e985e9c514610aec57600080fd5b8063cb22dfcb116100dc578063cb22dfcb146109f6578063d539139314610a16578063d547741f14610a4a578063d7deba1514610a6a57600080fd5b8063c415b95c1461098a578063c5a3c7ca146109c3578063c9e4eba1146109e357600080fd5b8063a217fddf1161016f578063c0a39d1211610149578063c0a39d1214610917578063c0c53b8b14610937578063c1d1884014610957578063c227fb111461096a57600080fd5b8063a217fddf146108c2578063a22cb465146108d7578063a9710d9a146108f757600080fd5b806393c7a71b116101ab57806393c7a71b1461080257806398e36d8b146108225780639faf71581461089c578063a03aafbf146108af57600080fd5b80638456cb591461079e57806391d14854146107b3578063933166e1146107d357600080fd5b806341954e09116102b65780635c975abb116102545780637333b375116102235780637333b375146106b75780637eb7f176146107375780637f34571014610757578063828efb251461078b57600080fd5b80635c975abb1461063457806362a2a47c1461064c578063632f7c831461068057806364d8baef146106a057600080fd5b80634e5eceae116102905780634e5eceae146105f55780634f1ef2861461060c57806352d1902d1461061f57806357f8188f1461059357600080fd5b806341954e091461059357806346c45758146105a85780634e1273f4146105c857600080fd5b80632f2ff15d116103235780633659cfe6116102fd5780633659cfe61461051e57806338926b6d1461053e5780633f4ba83a1461055e5780633fd112381461057357600080fd5b80632f2ff15d146104aa578063302b0180146104ca57806336568abe146104fe57600080fd5b80631adb76821161035f5780631adb768214610420578063248a9ca31461044257806327096c46146104735780632eb2c2d61461048a57600080fd5b8062fdd58e1461039057806301ffc9a7146103c35780630e89341c146103f357600080fd5b3661038b57005b600080fd5b34801561039c57600080fd5b506103b06103ab366004614391565b610bc9565b6040519081526020015b60405180910390f35b3480156103cf57600080fd5b506103e36103de3660046143d1565b610eaf565b60405190151581526020016103ba565b3480156103ff57600080fd5b5061041361040e3660046143ee565b610eba565b6040516103ba9190614457565b34801561042c57600080fd5b5061044061043b366004614478565b610ec5565b005b34801561044e57600080fd5b506103b061045d3660046143ee565b600090815261015f602052604090206001015490565b34801561047f57600080fd5b506103b06101935481565b34801561049657600080fd5b506104406104a536600461461f565b611015565b3480156104b657600080fd5b506104406104c53660046146c8565b61106a565b3480156104d657600080fd5b506104ea6104e53660046143ee565b611095565b6040516103ba9897969594939291906146f4565b34801561050a57600080fd5b506104406105193660046146c8565b6111fb565b34801561052a57600080fd5b5061044061053936600461475e565b611279565b34801561054a57600080fd5b50610440610559366004614779565b611358565b34801561056a57600080fd5b5061044061149b565b34801561057f57600080fd5b5061044061058e3660046147f4565b6114bb565b34801561059f57600080fd5b50610440611573565b3480156105b457600080fd5b506103b06105c3366004614391565b611597565b3480156105d457600080fd5b506105e86105e336600461482b565b6118ac565b6040516103ba9190614930565b34801561060157600080fd5b506103b06101955481565b61044061061a366004614943565b6119d5565b34801561062b57600080fd5b506103b0611aa1565b34801561064057600080fd5b5060c95460ff166103e3565b34801561065857600080fd5b506103b07f2dca0f5ce7e75a4b43fe2b0d6f5d0b7a2bf92ecf89f8f0aa17b8308b6703882181565b34801561068c57600080fd5b506103b061069b3660046143ee565b611b55565b3480156106ac57600080fd5b506103b06101945481565b3480156106c357600080fd5b506107106106d2366004614986565b805180820160209081018051610198825292820191909301209152546001600160a01b0381169060ff600160a01b8204811691600160a81b90041683565b604080516001600160a01b03909416845291151560208401521515908201526060016103ba565b34801561074357600080fd5b506103b06107523660046143ee565b611c3c565b34801561076357600080fd5b506103b07f7804d923f43a17d325d77e781528e0793b2edd9890ab45fc64efd7b4b427744c81565b6104406107993660046149ba565b611cfd565b3480156107aa57600080fd5b50610440612034565b3480156107bf57600080fd5b506103e36107ce3660046146c8565b612054565b3480156107df57600080fd5b506107f36107ee36600461475e565b612080565b6040516103ba93929190614a7f565b34801561080e57600080fd5b5061044061081d366004614779565b612131565b34801561082e57600080fd5b5061087261083d3660046143ee565b61019a60205260009081526040902080546001820154600283015460039093015491926001600160a01b039091169160ff1684565b604080519485526001600160a01b03909316602085015291830152151560608201526080016103ba565b6104406108aa366004614779565b6121a6565b6104406108bd366004614779565b612258565b3480156108ce57600080fd5b506103b0600081565b3480156108e357600080fd5b506104406108f23660046147f4565b6122cf565b34801561090357600080fd5b50610440610912366004614943565b6122da565b34801561092357600080fd5b50610440610932366004614aa9565b61237a565b34801561094357600080fd5b50610440610952366004614aed565b6124ed565b610440610965366004614b30565b612702565b34801561097657600080fd5b506103e36109853660046143ee565b612c6a565b34801561099657600080fd5b50610196546109ab906001600160a01b031681565b6040516001600160a01b0390911681526020016103ba565b3480156109cf57600080fd5b506104406109de3660046143ee565b612ce0565b6104406109f1366004614986565b612d1e565b348015610a0257600080fd5b506103b0610a11366004614bad565b612e2b565b348015610a2257600080fd5b506103b07f9f2df0fed2c77648de5860a4cc508cd0818c85b8b8a1ab4ceeef8d981c8956a681565b348015610a5657600080fd5b50610440610a653660046146c8565b612e6a565b348015610a7657600080fd5b506103b0610a853660046143ee565b612e90565b348015610a9657600080fd5b506103e3610aa53660046143ee565b612f06565b348015610ab657600080fd5b50610440610ac53660046143ee565b612f96565b348015610ad657600080fd5b506103b06000805160206154b083398151915281565b348015610af857600080fd5b506103e3610b07366004614be2565b6001600160a01b03918216600090815260666020908152604080832093909416825291909152205460ff1690565b348015610b4157600080fd5b50610440610b50366004614c0c565b612fd4565b348015610b6157600080fd5b50610440610b703660046143ee565b61304f565b348015610b8157600080fd5b50610440610b90366004614c2e565b61308d565b348015610ba157600080fd5b506103b07f189ab7a9244df0848122154315af71fe140f3db0fe014031783b0946b8c9d2e381565b600081815261019a6020908152604080832081516080810183528154815260018201546001600160a01b0316938101939093526002810154918301919091526003015460ff16158015606083015280610c385750836001600160a01b031681602001516001600160a01b031614155b15610c47576000915050610ea9565b610c5083612f06565b1515600103610c63576000915050610ea9565b80516000908152610199602090815260408083208151610100810190925280546001600160a01b031682526001810180549293919291840191610ca590614c92565b80601f0160208091040260200160405190810160405280929190818152602001828054610cd190614c92565b8015610d1e5780601f10610cf357610100808354040283529160200191610d1e565b820191906000526020600020905b815481529060010190602001808311610d0157829003601f168201915b5050509183525050600282015460ff90811615156020830152600383015460408301526004830154606083015260058301546080830152600683015416151560a082015260078201805460c090920191610d7790614c92565b80601f0160208091040260200160405190810160405280929190818152602001828054610da390614c92565b8015610df05780601f10610dc557610100808354040283529160200191610df0565b820191906000526020600020905b815481529060010190602001808311610dd357829003601f168201915b505050505081525050905060006101988260200151604051610e129190614ccc565b90815260405190819003602001812054631174806160e11b82526001600160a01b0316915081906322e900c290610e5190889060040190815260200190565b602060405180830381865afa158015610e6e573d6000803e3d6000fd5b505050506040513d601f19601f82011682018060405250810190610e929190614ce8565b610e9d576000610ea0565b60015b60ff1693505050505b92915050565b6000610ea9826130d2565b6060610ea9826130f7565b336000908152610197602090815260408083208684526101999092529091208154859291908290610ef590614c92565b9050600003610f1757604051638fcc03fd60e01b815260040160405180910390fd5b60018083015460ff1615159003610f415760405163401d786960e11b815260040160405180910390fd5b80546001600160a01b0316610f6957604051638fa97ef960e01b815260040160405180910390fd5b80546001600160a01b03163314610f935760405163806ecc4960e01b815260040160405180910390fd5b60008681526101996020526040902080546001600160a01b0316610fca576040516336f7ce4f60e11b815260040160405180910390fd5b6003810186905560028101805460ff191686151517905560405187907fc7fe3866a4edc843062ecfa12604d4a6686605fb2bd8a2323d96dc40c08d9e3d90600090a250505050505050565b6001600160a01b03851633148061103157506110318533610b07565b6110565760405162461bcd60e51b815260040161104d90614d05565b60405180910390fd5b61106385858585856131d6565b5050505050565b600082815261015f6020526040902060010154611086816133c4565b61109083836133ce565b505050565b61019960205260009081526040902080546001820180546001600160a01b0390921692916110c290614c92565b80601f01602080910402602001604051908101604052809291908181526020018280546110ee90614c92565b801561113b5780601f106111105761010080835404028352916020019161113b565b820191906000526020600020905b81548152906001019060200180831161111e57829003601f168201915b50505060028401546003850154600486015460058701546006880154600789018054989960ff968716999598509396509194169261117890614c92565b80601f01602080910402602001604051908101604052809291908181526020018280546111a490614c92565b80156111f15780601f106111c6576101008083540402835291602001916111f1565b820191906000526020600020905b8154815290600101906020018083116111d457829003601f168201915b5050505050905088565b6001600160a01b038116331461126b5760405162461bcd60e51b815260206004820152602f60248201527f416363657373436f6e74726f6c3a2063616e206f6e6c792072656e6f756e636560448201526e103937b632b9903337b91039b2b63360891b606482015260840161104d565b6112758282613455565b5050565b6001600160a01b037f00000000000000000000000000000000000000000000000000000000000000001630036112c15760405162461bcd60e51b815260040161104d90614d53565b7f00000000000000000000000000000000000000000000000000000000000000006001600160a01b031661130a600080516020615490833981519152546001600160a01b031690565b6001600160a01b0316146113305760405162461bcd60e51b815260040161104d90614d9f565b611339816134bd565b60408051600080825260208201909252611355918391906134e7565b50565b600061136384613652565b600081815261019960205260408082209051929350916101989061138b906001850190614e5e565b90815260405190819003602001812080546389610a0960e01b83529092506001600160a01b03169081906389610a09906113cd908a9060040190815260200190565b602060405180830381865afa1580156113ea573d6000803e3d6000fd5b505050506040513d601f19601f8201168201806040525081019061140e9190614ce8565b151560000361143057604051632edd9d0f60e21b815260040160405180910390fd5b6040516338926b6d60e01b81526001600160a01b038216906338926b6d90611460908a908a908a90600401614e6a565b600060405180830381600087803b15801561147a57600080fd5b505af115801561148e573d6000803e3d6000fd5b5050505050505050505050565b6000805160206154b08339815191526114b3816133c4565b6113556136cb565b6000805160206154b08339815191526114d3816133c4565b6001600160a01b038316600090815261019760205260409020805481906114f990614c92565b905060000361151b57604051637bc3ac5560e11b815260040160405180910390fd5b60018101805460ff19168415159081179091556040519081526001600160a01b038516907feabcc99b8eacf20db83fc3b01249ebdab27258f082db573fe4606fdca5a737bf906020015b60405180910390a250505050565b600061157e816133c4565b60405163aaa2c00360e01b815260040160405180910390fd5b600081815261019b602090815260408083206001600160a01b038616845290915281205481036115c957506000610ea9565b6000828152610199602090815260408083208151610100810190925280546001600160a01b03168252600181018054929391929184019161160990614c92565b80601f016020809104026020016040519081016040528092919081815260200182805461163590614c92565b80156116825780601f1061165757610100808354040283529160200191611682565b820191906000526020600020905b81548152906001019060200180831161166557829003601f168201915b5050509183525050600282015460ff90811615156020830152600383015460408301526004830154606083015260058301546080830152600683015416151560a082015260078201805460c0909201916116db90614c92565b80601f016020809104026020016040519081016040528092919081815260200182805461170790614c92565b80156117545780601f1061172957610100808354040283529160200191611754565b820191906000526020600020905b81548152906001019060200180831161173757829003601f168201915b5050505050815250509050600061019882602001516040516117769190614ccc565b908152604051908190036020019020546001600160a01b031690506000805b600086815261019b602090815260408083206001600160a01b038b1684529091529020548110156118a257600086815261019b602090815260408083206001600160a01b038b16845290915281208054839081106117f5576117f5614ea0565b9060005260206000200154905061180b81612f06565b15801561187c5750604051631174806160e11b8152600481018290526001600160a01b038516906322e900c290602401602060405180830381865afa158015611858573d6000803e3d6000fd5b505050506040513d601f19601f8201168201806040525081019061187c9190614ce8565b1561188f578261188b81614ecc565b9350505b508061189a81614ecc565b915050611795565b5095945050505050565b606081518351146119115760405162461bcd60e51b815260206004820152602960248201527f455243313135353a206163636f756e747320616e6420696473206c656e677468604482015268040dad2e6dac2e8c6d60bb1b606482015260840161104d565b600083516001600160401b0381111561192c5761192c6144b1565b604051908082528060200260200182016040528015611955578160200160208202803683370190505b50905060005b84518110156119cd576119a085828151811061197957611979614ea0565b602002602001015185838151811061199357611993614ea0565b6020026020010151610bc9565b8282815181106119b2576119b2614ea0565b60209081029190910101526119c681614ecc565b905061195b565b509392505050565b6001600160a01b037f0000000000000000000000000000000000000000000000000000000000000000163003611a1d5760405162461bcd60e51b815260040161104d90614d53565b7f00000000000000000000000000000000000000000000000000000000000000006001600160a01b0316611a66600080516020615490833981519152546001600160a01b031690565b6001600160a01b031614611a8c5760405162461bcd60e51b815260040161104d90614d9f565b611a95826134bd565b611275828260016134e7565b6000306001600160a01b037f00000000000000000000000000000000000000000000000000000000000000001614611b415760405162461bcd60e51b815260206004820152603860248201527f555550535570677261646561626c653a206d757374206e6f742062652063616c60448201527f6c6564207468726f7567682064656c656761746563616c6c0000000000000000606482015260840161104d565b506000805160206154908339815191525b90565b60008181526101996020526040812080546001600160a01b0316611b8c576040516336f7ce4f60e11b815260040160405180910390fd5b600061019882600101604051611ba29190614e5e565b90815260405190819003602001812054600384015463632f7c8360e01b83526001600160a01b03909116925090829063632f7c8390611be990889060040190815260200190565b602060405180830381865afa158015611c06573d6000803e3d6000fd5b505050506040513d601f19601f82011682018060405250810190611c2a9190614ee5565b611c349190614efe565b949350505050565b600080611c4883613652565b6000818152610199602052604080822090519293509161019890611c70906001850190614e5e565b9081526040519081900360200181208054633f5bf8bb60e11b83529092506001600160a01b0316908190637eb7f17690611cb290899060040190815260200190565b602060405180830381865afa158015611ccf573d6000803e3d6000fd5b505050506040513d601f19601f82011682018060405250810190611cf39190614ee5565b9695505050505050565b3360009081526101976020526040902080548190611d1a90614c92565b9050600003611d3c57604051638fcc03fd60e01b815260040160405180910390fd5b61019454341015611d605760405163043f7a7d60e21b815260040160405180910390fd5b60006101988460200151604051611d779190614ccc565b90815260405190819003602001902080549091506001600160a01b0316611db1576040516323be546760e01b815260040160405180910390fd5b8054600160a01b900460ff1615611ddb57604051630d70501560e11b815260040160405180910390fd5b8054600160a81b900460ff161515600003611e0957604051630d70501560e11b815260040160405180910390fd5b3415611e4b57610196546040516001600160a01b03909116903480156108fc02916000818181858888f19350505050158015611e49573d6000803e3d6000fd5b505b604051806101000160405280611e5e3390565b6001600160a01b0316815260200185602001518152602001600015158152602001856040015181526020018560600151815260200161019554815260200160011515815260200160405180604001604052806006815260200165076312e302e360d41b8152508152506101996000611ed66101915490565b8152602080820192909252604001600020825181546001600160a01b0319166001600160a01b03909116178155908201516001820190611f169082614f57565b50604082015160028201805491151560ff19928316179055606083015160038301556080830151600483015560a0830151600583015560c08301516006830180549115159190921617905560e08201516007820190611f759082614f57565b505061019154905084516040517f584274d31df3e2cf85a9d6dfaf82b219994725ca486f214ef93fbec2d054dca091611fad91614457565b60405180910390a280546001600160a01b03166377a3989e611fcf6101915490565b856040518363ffffffff1660e01b8152600401611fed929190615016565b600060405180830381600087803b15801561200757600080fd5b505af115801561201b573d6000803e3d6000fd5b5050505061202e61019180546001019055565b50505050565b6000805160206154b083398151915261204c816133c4565b61135561371d565b600091825261015f602090815260408084206001600160a01b0393909316845291905290205460ff1690565b6101976020526000908152604090208054819061209c90614c92565b80601f01602080910402602001604051908101604052809291908181526020018280546120c890614c92565b80156121155780601f106120ea57610100808354040283529160200191612115565b820191906000526020600020905b8154815290600101906020018083116120f857829003601f168201915b5050506001909301549192505060ff8082169161010090041683565b600061213c84613652565b6000818152610199602052604080822090519293509161019890612164906001850190614e5e565b90815260405190819003602001812080546393c7a71b60e01b83529092506001600160a01b03169081906393c7a71b90611460908a908a908a90600401614e6a565b60006121b184613652565b60008181526101996020526040808220905192935091610198906121d9906001850190614e5e565b90815260405190819003602001812080546313f5ee2b60e31b83529092506001600160a01b0316908190639faf715890349061221d908b908b908b90600401614e6a565b6000604051808303818588803b15801561223657600080fd5b505af115801561224a573d6000803e3d6000fd5b505050505050505050505050565b600061226384613652565b600081815261019960205260408082209051929350916101989061228b906001850190614e5e565b908152604051908190036020018120805463a03aafbf60e01b83529092506001600160a01b031690819063a03aafbf90349061221d908b908b908b90600401614e6a565b61127533838361375a565b60006122e5816133c4565b6001600160a01b0383166000908152610197602052604090208054819061230b90614c92565b905060000361232d57604051637bc3ac5560e11b815260040160405180910390fd5b825115612341578061233f8482614f57565b505b836001600160a01b03167f5b12b24c4622e8e6af38c1749b1261965b5098a96fb4b4cfb6075eb20c77fc58846040516115659190614457565b6000612385816133c4565b6000610198846040516123989190614ccc565b9081526020016040518091039020905083516000036123ca5760405163a8d052f160e01b815260040160405180910390fd5b6001600160a01b0383166123f15760405163278e974f60e01b815260040160405180910390fd5b80546001600160a01b03161561241a57604051631c783ddb60e01b815260040160405180910390fd5b604080516060810182526001600160a01b03851681526000602082015260018183015290516101989061244e908790614ccc565b908152604080519182900360209081018320845181549286015195909301511515600160a81b0260ff60a81b19951515600160a01b026001600160a81b03199093166001600160a01b0394851617929092179490941617909255908416906124b7908690614ccc565b604051908190038120907fe5593a32c4e8802f5034c3eb5fb2d05210d31e05841af6500e5cac618d29605f90600090a350505050565b600054610100900460ff161580801561250d5750600054600160ff909116105b806125275750303b158015612527575060005460ff166001145b61258a5760405162461bcd60e51b815260206004820152602e60248201527f496e697469616c697a61626c653a20636f6e747261637420697320616c72656160448201526d191e481a5b9a5d1a585b1a5e995960921b606482015260840161104d565b6000805460ff1916600117905580156125ad576000805461ff0019166101001790555b6125c560405180602001604052806000815250613773565b6125cd6137a3565b6125d56137cc565b6125dd6137a3565b6125e86000856133ce565b6126006000805160206154b0833981519152336133ce565b61262a7f9f2df0fed2c77648de5860a4cc508cd0818c85b8b8a1ab4ceeef8d981c8956a6836133ce565b6126547f189ab7a9244df0848122154315af71fe140f3db0fe014031783b0946b8c9d2e3336133ce565b61019680546001600160a01b0319166001600160a01b038581169190911790915560006101938190556101948190556103e861019555604051848316928716917fdc90fed0326ba91706deeac7eb34ac9f8b680734f9d782864dc29704d23bed6a91a3801561202e576000805461ff0019169055604051600181527f7f26b83ff96e1f2b6a682f133852f6798a09c465da95921460cefb38474024989060200160405180910390a150505050565b60008481526101996020526040808220905186929061019890612729906001850190614e5e565b9081526040805160209281900383019020805485546001600160a01b0390811660008181526101979096529390942091945092909216919061277e576040516385a6706360e01b815260040160405180910390fd5b60018082015460ff16151590036127a85760405163a800bb9d60e01b815260040160405180910390fd5b600284015460ff16156127ce57604051635d71fd6f60e01b815260040160405180910390fd5b8254600160a01b900460ff16156127f857604051631bd063c360e01b815260040160405180910390fd5b6000898152610199602052604080822090518b9289928c9290919061019890612825906001850190614e5e565b90815260405190819003602001902080549091506001600160a01b031661284b86611b55565b34101561286b576040516393fda7e360e01b815260040160405180910390fd5b600383015415612a77576000612889846003015485600501546137fb565b9050600081856003015461289d919061502f565b610196546040519192506000916001600160a01b039091169084908381818185875af1925050503d80600081146128f0576040519150601f19603f3d011682016040523d82523d6000602084013e6128f5565b606091505b50509050806129465760405162461bcd60e51b815260206004820152601b60248201527f4661696c656420746f207061792070726f746f636f6c20666565730000000000604482015260640161104d565b886000610196546040518681526001600160a01b03909116907fd18793644b4cb4ec0f937f8153dc09112d762775084c0ae5b4c21a7b91f6909f9060200160405180910390a485546040516000916001600160a01b03169084908381818185875af1925050503d80600081146129d8576040519150601f19603f3d011682016040523d82523d6000602084013e6129dd565b606091505b5050905080612a2e5760405162461bcd60e51b815260206004820152601a60248201527f4661696c656420746f207061792063726561746f722066656573000000000000604482015260640161104d565b89600188546040518681526001600160a01b03909116907fd18793644b4cb4ec0f937f8153dc09112d762775084c0ae5b4c21a7b91f6909f9060200160405180910390a4505050505b6000612a836101925490565b9050612a8f818f61382c565b612ab68582600160405180604001604052806002815260200161060f60f31b81525061387d565b60008460040154600014612ad8576004850154612ad39042614efe565b612adb565b60005b604080516080810182528a81526001600160a01b03898116602080840182815284860187815260016060870181815260008c815261019a865289812098518955935188830180546001600160a01b0319169189169190911790559151600288015590516003968701805460ff19169115159190911790558f825261019b83528682209382529282529485208054928301815585528420018690559088015492935090919085169063731133e990612b92903461502f565b338c878d6040518663ffffffff1660e01b8152600401612bb59493929190615042565b60206040518083038185885af1158015612bd3573d6000803e3d6000fd5b50505050506040513d601f19601f82011682018060405250810190612bf89190614ee5565b9050612c0961019280546001019055565b8454604080516001600160a01b039283168152602081018490529189169185918c917f186b125f639893ac3dcb02d857d0fd29319e8f764fd26f4a77310e8c678fbbd0910160405180910390a4505050505050505050505050505050505050565b60008181526101996020526040812080546001600160a01b0316612ca1576040516336f7ce4f60e11b815260040160405180910390fd5b80546001600160a01b031660009081526101976020526040902060018181015460ff1615159003612cd6575060019392505050565b5060009392505050565b6000612ceb816133c4565b6101948290556040517f810f1720fbc34c56d171f89315ad21708648fd17424c27b88fa208409845aa7790600090a15050565b610193543414612d415760405163045801c760e31b815260040160405180910390fd5b3415612d8357610196546040516001600160a01b03909116903480156108fc02916000818181858888f19350505050158015612d81573d6000803e3d6000fd5b505b3360009081526101976020526040902080548190612da090614c92565b159050612dc057604051633b46b81f60e21b815260040160405180910390fd5b80612dcb8382614f57565b5060018101805461ffff1916610100179055612de43390565b6001600160a01b03167f436a110767b6510e398091d7e698dbc3a574692ec743e8e40f4fb1ccefc00fc882600001604051612e1f919061506f565b60405180910390a25050565b61019b6020528260005260406000206020528160005260406000208181548110612e5457600080fd5b9060005260206000200160009250925050505481565b600082815261015f6020526040902060010154612e86816133c4565b6110908383613455565b600080612e9c83613652565b6000818152610199602052604080822090519293509161019890612ec4906001850190614e5e565b908152604051908190036020018120805463d7deba1560e01b83529092506001600160a01b031690819063d7deba1590611cb290899060040190815260200190565b600081815261019a6020908152604080832081516080810183528154815260018201546001600160a01b0316938101939093526002810154918301919091526003015460ff161515606082018190528203612f645750600092915050565b8060400151600003612f795750600092915050565b4281604001511115612f8c576000612f8f565b60015b9392505050565b6000612fa1816133c4565b6101958290556040517f810f1720fbc34c56d171f89315ad21708648fd17424c27b88fa208409845aa7790600090a15050565b6000612fdf816133c4565b60008381526101996020526040902080546001600160a01b0316613016576040516336f7ce4f60e11b815260040160405180910390fd5b6005810183905560405183815284907f897164bdb6d8ca3f923345d02b5a56e8908961ca8cf15e0c67d1c1dee7f22a8290602001611565565b600061305a816133c4565b6101938290556040517f810f1720fbc34c56d171f89315ad21708648fd17424c27b88fa208409845aa7790600090a15050565b6001600160a01b0385163314806130a957506130a98533610b07565b6130c55760405162461bcd60e51b815260040161104d90614d05565b61106385858585856139a2565b60006001600160e01b03198216637965db0b60e01b1480610ea95750610ea982613ade565b60008181526098602052604081208054606092919061311590614c92565b80601f016020809104026020016040519081016040528092919081815260200182805461314190614c92565b801561318e5780601f106131635761010080835404028352916020019161318e565b820191906000526020600020905b81548152906001019060200180831161317157829003601f168201915b5050505050905060008151116131ac576131a783613b2e565b612f8f565b6097816040516020016131c09291906150fa565b6040516020818303038152906040529392505050565b81518351146132385760405162461bcd60e51b815260206004820152602860248201527f455243313135353a2069647320616e6420616d6f756e7473206c656e677468206044820152670dad2e6dac2e8c6d60c31b606482015260840161104d565b6001600160a01b03841661325e5760405162461bcd60e51b815260040161104d9061511f565b3361326d818787878787613bc2565b60005b845181101561335657600085828151811061328d5761328d614ea0565b6020026020010151905060008583815181106132ab576132ab614ea0565b60209081029190910181015160008481526065835260408082206001600160a01b038e1683529093529190912054909150818110156132fc5760405162461bcd60e51b815260040161104d90615164565b60008381526065602090815260408083206001600160a01b038e8116855292528083208585039055908b1682528120805484929061333b908490614efe565b925050819055505050508061334f90614ecc565b9050613270565b50846001600160a01b0316866001600160a01b0316826001600160a01b03167f4a39dc06d4c0dbc64b70af90fd698a233a518aa5d07e595d983b8c0526c8f7fb87876040516133a69291906151ae565b60405180910390a46133bc818787878787613bf7565b505050505050565b6113558133613d52565b6133d88282612054565b61127557600082815261015f602090815260408083206001600160a01b03851684529091529020805460ff191660011790556134113390565b6001600160a01b0316816001600160a01b0316837f2f8788117e7eff1d82e926ec794901d17c78024a50270940304540a733656f0d60405160405180910390a45050565b61345f8282612054565b1561127557600082815261015f602090815260408083206001600160a01b0385168085529252808320805460ff1916905551339285917ff6391f5c32d9c69d2a47ea670b442974b53935d1edc7fd64eb21e047a839171b9190a45050565b7f189ab7a9244df0848122154315af71fe140f3db0fe014031783b0946b8c9d2e3611275816133c4565b7f4910fdfa16fed3260ed0e7147f7cc6da11a60208b5b9406d12a635614ffd91435460ff161561351a5761109083613dab565b826001600160a01b03166352d1902d6040518163ffffffff1660e01b8152600401602060405180830381865afa925050508015613574575060408051601f3d908101601f1916820190925261357191810190614ee5565b60015b6135d75760405162461bcd60e51b815260206004820152602e60248201527f45524331393637557067726164653a206e657720696d706c656d656e7461746960448201526d6f6e206973206e6f74205555505360901b606482015260840161104d565b60008051602061549083398151915281146136465760405162461bcd60e51b815260206004820152602960248201527f45524331393637557067726164653a20756e737570706f727465642070726f786044820152681a58589b195555525160ba1b606482015260840161104d565b50611090838383613e47565b600081815261019a60205260408120600381015460ff161515820361368a5760405163f97195bf60e01b815260040160405180910390fd5b805460009081526101996020526040902080546001600160a01b03166136c3576040516336f7ce4f60e11b815260040160405180910390fd5b505492915050565b6136d3613e6c565b60c9805460ff191690557f5db9ee0a495bf2e6ff9c91a7834c1ba4fdd244a5e8aa4e537bd38aeae4b073aa335b6040516001600160a01b03909116815260200160405180910390a1565b613725613eb5565b60c9805460ff191660011790557f62e78cea01bee320cd4e420270b5ea74000d11b0c9f74754ebdbfc544b05a2586137003390565b6040516305d39ac360e51b815260040160405180910390fd5b600054610100900460ff1661379a5760405162461bcd60e51b815260040161104d906151d3565b61135581613efb565b600054610100900460ff166137ca5760405162461bcd60e51b815260040161104d906151d3565b565b600054610100900460ff166137f35760405162461bcd60e51b815260040161104d906151d3565b6137ca613f2b565b600061271061380a838561521e565b101561381557600080fd5b612710613822838561521e565b612f8f9190615235565b60008281526098602052604090206138448282614f57565b50817f6bb7ff708619ba0610cba295a58592e0451dee2622938c8755667688daf3529b61387084610eba565b604051612e1f9190614457565b6001600160a01b0384166138dd5760405162461bcd60e51b815260206004820152602160248201527f455243313135353a206d696e7420746f20746865207a65726f206164647265736044820152607360f81b606482015260840161104d565b3360006138e985613f5e565b905060006138f685613f5e565b905061390783600089858589613bc2565b60008681526065602090815260408083206001600160a01b038b16845290915281208054879290613939908490614efe565b909155505060408051878152602081018790526001600160a01b03808a1692600092918716917fc3d58168c5ae7397731d063d5bbf3d657854427343f4c083240f7aacaa2d0f62910160405180910390a461399983600089898989613fa9565b50505050505050565b6001600160a01b0384166139c85760405162461bcd60e51b815260040161104d9061511f565b3360006139d485613f5e565b905060006139e185613f5e565b90506139f1838989858589613bc2565b60008681526065602090815260408083206001600160a01b038c16845290915290205485811015613a345760405162461bcd60e51b815260040161104d90615164565b60008781526065602090815260408083206001600160a01b038d8116855292528083208985039055908a16825281208054889290613a73908490614efe565b909155505060408051888152602081018890526001600160a01b03808b16928c821692918816917fc3d58168c5ae7397731d063d5bbf3d657854427343f4c083240f7aacaa2d0f62910160405180910390a4613ad3848a8a8a8a8a613fa9565b505050505050505050565b60006001600160e01b03198216636cdb3d1360e11b1480613b0f57506001600160e01b031982166303a24d0760e21b145b80610ea957506301ffc9a760e01b6001600160e01b0319831614610ea9565b606060678054613b3d90614c92565b80601f0160208091040260200160405190810160405280929190818152602001828054613b6990614c92565b8015613bb65780601f10613b8b57610100808354040283529160200191613bb6565b820191906000526020600020905b815481529060010190602001808311613b9957829003601f168201915b50505050509050919050565b613bca613eb5565b6001600160a01b03851615613bf2576040516305d39ac360e51b815260040160405180910390fd5b6133bc565b6001600160a01b0384163b156133bc5760405163bc197c8160e01b81526001600160a01b0385169063bc197c8190613c3b9089908990889088908890600401615257565b6020604051808303816000875af1925050508015613c76575060408051601f3d908101601f19168201909252613c73918101906152b5565b60015b613d2257613c826152d2565b806308c379a003613cbb5750613c966152ed565b80613ca15750613cbd565b8060405162461bcd60e51b815260040161104d9190614457565b505b60405162461bcd60e51b815260206004820152603460248201527f455243313135353a207472616e7366657220746f206e6f6e2d455243313135356044820152732932b1b2b4bb32b91034b6b83632b6b2b73a32b960611b606482015260840161104d565b6001600160e01b0319811663bc197c8160e01b146139995760405162461bcd60e51b815260040161104d90615376565b613d5c8282612054565b61127557613d6981614064565b613d74836020614076565b604051602001613d859291906153be565b60408051601f198184030181529082905262461bcd60e51b825261104d91600401614457565b6001600160a01b0381163b613e185760405162461bcd60e51b815260206004820152602d60248201527f455243313936373a206e657720696d706c656d656e746174696f6e206973206e60448201526c1bdd08184818dbdb9d1c9858dd609a1b606482015260840161104d565b60008051602061549083398151915280546001600160a01b0319166001600160a01b0392909216919091179055565b613e5083614211565b600082511180613e5d5750805b156110905761202e8383614251565b60c95460ff166137ca5760405162461bcd60e51b815260206004820152601460248201527314185d5cd8589b194e881b9bdd081c185d5cd95960621b604482015260640161104d565b60c95460ff16156137ca5760405162461bcd60e51b815260206004820152601060248201526f14185d5cd8589b194e881c185d5cd95960821b604482015260640161104d565b600054610100900460ff16613f225760405162461bcd60e51b815260040161104d906151d3565b61135581614345565b600054610100900460ff16613f525760405162461bcd60e51b815260040161104d906151d3565b60c9805460ff19169055565b60408051600180825281830190925260609160009190602080830190803683370190505090508281600081518110613f9857613f98614ea0565b602090810291909101015292915050565b6001600160a01b0384163b156133bc5760405163f23a6e6160e01b81526001600160a01b0385169063f23a6e6190613fed9089908990889088908890600401615433565b6020604051808303816000875af1925050508015614028575060408051601f3d908101601f19168201909252614025918101906152b5565b60015b61403457613c826152d2565b6001600160e01b0319811663f23a6e6160e01b146139995760405162461bcd60e51b815260040161104d90615376565b6060610ea96001600160a01b03831660145b6060600061408583600261521e565b614090906002614efe565b6001600160401b038111156140a7576140a76144b1565b6040519080825280601f01601f1916602001820160405280156140d1576020820181803683370190505b509050600360fc1b816000815181106140ec576140ec614ea0565b60200101906001600160f81b031916908160001a905350600f60fb1b8160018151811061411b5761411b614ea0565b60200101906001600160f81b031916908160001a905350600061413f84600261521e565b61414a906001614efe565b90505b60018111156141c2576f181899199a1a9b1b9c1cb0b131b232b360811b85600f166010811061417e5761417e614ea0565b1a60f81b82828151811061419457614194614ea0565b60200101906001600160f81b031916908160001a90535060049490941c936141bb81615478565b905061414d565b508315612f8f5760405162461bcd60e51b815260206004820181905260248201527f537472696e67733a20686578206c656e67746820696e73756666696369656e74604482015260640161104d565b61421a81613dab565b6040516001600160a01b038216907fbc7cd75a20ee27fd9adebab32041f755214dbc6bffa90cc0225b39da2e5c2d3b90600090a250565b60606001600160a01b0383163b6142b95760405162461bcd60e51b815260206004820152602660248201527f416464726573733a2064656c65676174652063616c6c20746f206e6f6e2d636f6044820152651b9d1c9858dd60d21b606482015260840161104d565b600080846001600160a01b0316846040516142d49190614ccc565b600060405180830381855af49150503d806000811461430f576040519150601f19603f3d011682016040523d82523d6000602084013e614314565b606091505b509150915061433c82826040518060600160405280602781526020016154d060279139614351565b95945050505050565b60676112758282614f57565b60608315614360575081612f8f565b612f8f8383815115613ca15781518083602001fd5b80356001600160a01b038116811461438c57600080fd5b919050565b600080604083850312156143a457600080fd5b6143ad83614375565b946020939093013593505050565b6001600160e01b03198116811461135557600080fd5b6000602082840312156143e357600080fd5b8135612f8f816143bb565b60006020828403121561440057600080fd5b5035919050565b60005b8381101561442257818101518382015260200161440a565b50506000910152565b60008151808452614443816020860160208601614407565b601f01601f19169290920160200192915050565b602081526000612f8f602083018461442b565b801515811461135557600080fd5b60008060006060848603121561448d57600080fd5b833592506020840135915060408401356144a68161446a565b809150509250925092565b634e487b7160e01b600052604160045260246000fd5b608081018181106001600160401b03821117156144e6576144e66144b1565b60405250565b601f8201601f191681016001600160401b0381118282101715614511576145116144b1565b6040525050565b60006001600160401b03821115614531576145316144b1565b5060051b60200190565b600082601f83011261454c57600080fd5b8135602061455982614518565b60405161456682826144ec565b83815260059390931b850182019282810191508684111561458657600080fd5b8286015b848110156145a1578035835291830191830161458a565b509695505050505050565b600082601f8301126145bd57600080fd5b81356001600160401b038111156145d6576145d66144b1565b6040516145ed601f8301601f1916602001826144ec565b81815284602083860101111561460257600080fd5b816020850160208301376000918101602001919091529392505050565b600080600080600060a0868803121561463757600080fd5b61464086614375565b945061464e60208701614375565b935060408601356001600160401b038082111561466a57600080fd5b61467689838a0161453b565b9450606088013591508082111561468c57600080fd5b61469889838a0161453b565b935060808801359150808211156146ae57600080fd5b506146bb888289016145ac565b9150509295509295909350565b600080604083850312156146db57600080fd5b823591506146eb60208401614375565b90509250929050565b6001600160a01b0389168152610100602082018190526000906147198382018b61442b565b905088151560408401528760608401528660808401528560a084015284151560c084015282810360e084015261474f818561442b565b9b9a5050505050505050505050565b60006020828403121561477057600080fd5b612f8f82614375565b60008060006040848603121561478e57600080fd5b8335925060208401356001600160401b03808211156147ac57600080fd5b818601915086601f8301126147c057600080fd5b8135818111156147cf57600080fd5b8760208285010111156147e157600080fd5b6020830194508093505050509250925092565b6000806040838503121561480757600080fd5b61481083614375565b915060208301356148208161446a565b809150509250929050565b6000806040838503121561483e57600080fd5b82356001600160401b038082111561485557600080fd5b818501915085601f83011261486957600080fd5b8135602061487682614518565b60405161488382826144ec565b83815260059390931b85018201928281019150898411156148a357600080fd5b948201945b838610156148c8576148b986614375565b825294820194908201906148a8565b965050860135925050808211156148de57600080fd5b506148eb8582860161453b565b9150509250929050565b600081518084526020808501945080840160005b8381101561492557815187529582019590820190600101614909565b509495945050505050565b602081526000612f8f60208301846148f5565b6000806040838503121561495657600080fd5b61495f83614375565b915060208301356001600160401b0381111561497a57600080fd5b6148eb858286016145ac565b60006020828403121561499857600080fd5b81356001600160401b038111156149ae57600080fd5b611c34848285016145ac565b600080604083850312156149cd57600080fd5b82356001600160401b03808211156149e457600080fd5b90840190608082870312156149f857600080fd5b604051614a04816144c7565b823582811115614a1357600080fd5b614a1f888286016145ac565b825250602083013582811115614a3457600080fd5b614a40888286016145ac565b6020830152506040830135604082015260608301356060820152809450506020850135915080821115614a7257600080fd5b506148eb858286016145ac565b606081526000614a92606083018661442b565b931515602083015250901515604090910152919050565b60008060408385031215614abc57600080fd5b82356001600160401b03811115614ad257600080fd5b614ade858286016145ac565b9250506146eb60208401614375565b600080600060608486031215614b0257600080fd5b614b0b84614375565b9250614b1960208501614375565b9150614b2760408501614375565b90509250925092565b60008060008060808587031215614b4657600080fd5b84359350614b5660208601614375565b925060408501356001600160401b0380821115614b7257600080fd5b614b7e888389016145ac565b93506060870135915080821115614b9457600080fd5b50614ba1878288016145ac565b91505092959194509250565b600080600060608486031215614bc257600080fd5b83359250614bd260208501614375565b9150604084013590509250925092565b60008060408385031215614bf557600080fd5b614bfe83614375565b91506146eb60208401614375565b60008060408385031215614c1f57600080fd5b50508035926020909101359150565b600080600080600060a08688031215614c4657600080fd5b614c4f86614375565b9450614c5d60208701614375565b9350604086013592506060860135915060808601356001600160401b03811115614c8657600080fd5b6146bb888289016145ac565b600181811c90821680614ca657607f821691505b602082108103614cc657634e487b7160e01b600052602260045260246000fd5b50919050565b60008251614cde818460208701614407565b9190910192915050565b600060208284031215614cfa57600080fd5b8151612f8f8161446a565b6020808252602e908201527f455243313135353a2063616c6c6572206973206e6f7420746f6b656e206f776e60408201526d195c881bdc88185c1c1c9bdd995960921b606082015260800190565b6020808252602c908201527f46756e6374696f6e206d7573742062652063616c6c6564207468726f7567682060408201526b19195b1959d85d1958d85b1b60a21b606082015260800190565b6020808252602c908201527f46756e6374696f6e206d7573742062652063616c6c6564207468726f7567682060408201526b6163746976652070726f787960a01b606082015260800190565b60008154614df881614c92565b60018281168015614e105760018114614e2557614e54565b60ff1984168752821515830287019450614e54565b8560005260208060002060005b85811015614e4b5781548a820152908401908201614e32565b50505082870194505b5050505092915050565b6000612f8f8284614deb565b83815260406020820152816040820152818360608301376000818301606090810191909152601f909201601f1916010192915050565b634e487b7160e01b600052603260045260246000fd5b634e487b7160e01b600052601160045260246000fd5b600060018201614ede57614ede614eb6565b5060010190565b600060208284031215614ef757600080fd5b5051919050565b80820180821115610ea957610ea9614eb6565b601f82111561109057600081815260208120601f850160051c81016020861015614f385750805b601f850160051c820191505b818110156133bc57828155600101614f44565b81516001600160401b03811115614f7057614f706144b1565b614f8481614f7e8454614c92565b84614f11565b602080601f831160018114614fb95760008415614fa15750858301515b600019600386901b1c1916600185901b1785556133bc565b600085815260208120601f198616915b82811015614fe857888601518255948401946001909101908401614fc9565b50858210156150065787850151600019600388901b60f8161c191681555b5050505050600190811b01905550565b828152604060208201526000611c34604083018461442b565b81810381811115610ea957610ea9614eb6565b60018060a01b0385168152836020820152826040820152608060608201526000611cf3608083018461442b565b600060208083526000845461508381614c92565b808487015260406001808416600081146150a457600181146150be576150ec565b60ff1985168984015283151560051b8901830195506150ec565b896000528660002060005b858110156150e45781548b82018601529083019088016150c9565b8a0184019650505b509398975050505050505050565b60006151068285614deb565b8351615116818360208801614407565b01949350505050565b60208082526025908201527f455243313135353a207472616e7366657220746f20746865207a65726f206164604082015264647265737360d81b606082015260800190565b6020808252602a908201527f455243313135353a20696e73756666696369656e742062616c616e636520666f60408201526939103a3930b739b332b960b11b606082015260800190565b6040815260006151c160408301856148f5565b828103602084015261433c81856148f5565b6020808252602b908201527f496e697469616c697a61626c653a20636f6e7472616374206973206e6f74206960408201526a6e697469616c697a696e6760a81b606082015260800190565b8082028115828204841417610ea957610ea9614eb6565b60008261525257634e487b7160e01b600052601260045260246000fd5b500490565b6001600160a01b0386811682528516602082015260a060408201819052600090615283908301866148f5565b828103606084015261529581866148f5565b905082810360808401526152a9818561442b565b98975050505050505050565b6000602082840312156152c757600080fd5b8151612f8f816143bb565b600060033d1115611b525760046000803e5060005160e01c90565b600060443d10156152fb5790565b6040516003193d81016004833e81513d6001600160401b03816024840111818411171561532a57505050505090565b82850191508151818111156153425750505050505090565b843d870101602082850101111561535c5750505050505090565b61536b602082860101876144ec565b509095945050505050565b60208082526028908201527f455243313135353a204552433131353552656365697665722072656a656374656040820152676420746f6b656e7360c01b606082015260800190565b7f416363657373436f6e74726f6c3a206163636f756e74200000000000000000008152600083516153f6816017850160208801614407565b7001034b99036b4b9b9b4b733903937b6329607d1b6017918401918201528351615427816028840160208801614407565b01602801949350505050565b6001600160a01b03868116825285166020820152604081018490526060810183905260a06080820181905260009061546d9083018461442b565b979650505050505050565b60008161548757615487614eb6565b50600019019056fe360894a13ba1a3210667c828492db98dca3e2076cc3735a920a3ca505d382bbc65d7a28e3265b37a6474929f336521b332c1681b933f6cb9f3376673440d862a416464726573733a206c6f772d6c6576656c2064656c65676174652063616c6c206661696c6564a2646970667358221220aad95cc194a91c26835effbb92dad5a085d02a78da5ab19300798692e741c2ea64736f6c63430008110033",
  "linkReferences": {},
  "deployedLinkReferences": {}
}