{
  "_format": "hh-sol-artifact-1",
  "contractName": "TheBadgeStore",
  "sourceName": "src/contracts/thebadge/TheBadgeStore.sol",
  "abi": [
    {
      "inputs": [],
      "stateMutability": "nonpayable",
      "type": "constructor"
    },
    {
      "inputs": [],
      "name": "AccessControlBadConfirmation",
      "type": "error"
    },
    {
      "inputs": [
        {
          "internalType": "address",
          "name": "account",
          "type": "address"
        },
        {
          "internalType": "bytes32",
          "name": "neededRole",
          "type": "bytes32"
        }
      ],
      "name": "AccessControlUnauthorizedAccount",
      "type": "error"
    },
    {
      "inputs": [],
      "name": "InvalidInitialization",
      "type": "error"
    },
    {
      "inputs": [],
      "name": "NotInitializing",
      "type": "error"
    },
    {
      "inputs": [
        {
          "internalType": "address",
          "name": "owner",
          "type": "address"
        }
      ],
      "name": "OwnableInvalidOwner",
      "type": "error"
    },
    {
      "inputs": [
        {
          "internalType": "address",
          "name": "account",
          "type": "address"
        }
      ],
      "name": "OwnableUnauthorizedAccount",
      "type": "error"
    },
    {
      "inputs": [],
      "name": "TheBadge__Store_ContractNameAlreadyExists",
      "type": "error"
    },
    {
      "inputs": [],
      "name": "TheBadge__Store_InvalidBadgeID",
      "type": "error"
    },
    {
      "inputs": [],
      "name": "TheBadge__Store_InvalidContractAddress",
      "type": "error"
    },
    {
      "inputs": [],
      "name": "TheBadge__Store_InvalidContractName",
      "type": "error"
    },
    {
      "inputs": [],
      "name": "TheBadge__Store_InvalidUserAddress",
      "type": "error"
    },
    {
      "inputs": [],
      "name": "TheBadge__Store_OperationNotPermitted",
      "type": "error"
    },
    {
      "inputs": [],
      "name": "TheBadge__addBadgeModelController_alreadySet",
      "type": "error"
    },
    {
      "inputs": [],
      "name": "TheBadge__addBadgeModelController_notFound",
      "type": "error"
    },
    {
      "inputs": [],
      "name": "TheBadge__badgeModel_badgeModelNotFound",
      "type": "error"
    },
    {
      "inputs": [],
      "name": "TheBadge__registerUser_alreadyRegistered",
      "type": "error"
    },
    {
      "inputs": [],
      "name": "TheBadge__updateUser_notFound",
      "type": "error"
    },
    {
      "anonymous": false,
      "inputs": [
        {
          "indexed": true,
          "internalType": "string",
          "name": "_contractName",
          "type": "string"
        },
        {
          "indexed": true,
          "internalType": "address",
          "name": "contractAddress",
          "type": "address"
        }
      ],
      "name": "ContractAdded",
      "type": "event"
    },
    {
      "anonymous": false,
      "inputs": [
        {
          "indexed": true,
          "internalType": "string",
          "name": "_contractName",
          "type": "string"
        },
        {
          "indexed": true,
          "internalType": "address",
          "name": "contractAddress",
          "type": "address"
        }
      ],
      "name": "ContractRemoved",
      "type": "event"
    },
    {
      "anonymous": false,
      "inputs": [
        {
          "indexed": true,
          "internalType": "string",
          "name": "_contractName",
          "type": "string"
        },
        {
          "indexed": true,
          "internalType": "address",
          "name": "contractAddress",
          "type": "address"
        }
      ],
      "name": "ContractUpdated",
      "type": "event"
    },
    {
      "anonymous": false,
      "inputs": [
        {
          "indexed": false,
          "internalType": "uint64",
          "name": "version",
          "type": "uint64"
        }
      ],
      "name": "Initialized",
      "type": "event"
    },
    {
      "anonymous": false,
      "inputs": [
        {
          "indexed": true,
          "internalType": "address",
          "name": "previousOwner",
          "type": "address"
        },
        {
          "indexed": true,
          "internalType": "address",
          "name": "newOwner",
          "type": "address"
        }
      ],
      "name": "OwnershipTransferred",
      "type": "event"
    },
    {
      "anonymous": false,
      "inputs": [
        {
          "indexed": true,
          "internalType": "bytes32",
          "name": "role",
          "type": "bytes32"
        },
        {
          "indexed": true,
          "internalType": "bytes32",
          "name": "previousAdminRole",
          "type": "bytes32"
        },
        {
          "indexed": true,
          "internalType": "bytes32",
          "name": "newAdminRole",
          "type": "bytes32"
        }
      ],
      "name": "RoleAdminChanged",
      "type": "event"
    },
    {
      "anonymous": false,
      "inputs": [
        {
          "indexed": true,
          "internalType": "bytes32",
          "name": "role",
          "type": "bytes32"
        },
        {
          "indexed": true,
          "internalType": "address",
          "name": "account",
          "type": "address"
        },
        {
          "indexed": true,
          "internalType": "address",
          "name": "sender",
          "type": "address"
        }
      ],
      "name": "RoleGranted",
      "type": "event"
    },
    {
      "anonymous": false,
      "inputs": [
        {
          "indexed": true,
          "internalType": "bytes32",
          "name": "role",
          "type": "bytes32"
        },
        {
          "indexed": true,
          "internalType": "address",
          "name": "account",
          "type": "address"
        },
        {
          "indexed": true,
          "internalType": "address",
          "name": "sender",
          "type": "address"
        }
      ],
      "name": "RoleRevoked",
      "type": "event"
    },
    {
      "inputs": [],
      "name": "CLAIMER_ROLE",
      "outputs": [
        {
          "internalType": "bytes32",
          "name": "",
          "type": "bytes32"
        }
      ],
      "stateMutability": "view",
      "type": "function"
    },
    {
      "inputs": [],
      "name": "DEFAULT_ADMIN_ROLE",
      "outputs": [
        {
          "internalType": "bytes32",
          "name": "",
          "type": "bytes32"
        }
      ],
      "stateMutability": "view",
      "type": "function"
    },
    {
      "inputs": [],
      "name": "PAUSER_ROLE",
      "outputs": [
        {
          "internalType": "bytes32",
          "name": "",
          "type": "bytes32"
        }
      ],
      "stateMutability": "view",
      "type": "function"
    },
    {
      "inputs": [],
      "name": "UPGRADER_ROLE",
      "outputs": [
        {
          "internalType": "bytes32",
          "name": "",
          "type": "bytes32"
        }
      ],
      "stateMutability": "view",
      "type": "function"
    },
    {
      "inputs": [],
      "name": "URI_SETTER_ROLE",
      "outputs": [
        {
          "internalType": "bytes32",
          "name": "",
          "type": "bytes32"
        }
      ],
      "stateMutability": "view",
      "type": "function"
    },
    {
      "inputs": [],
      "name": "USER_MANAGER_ROLE",
      "outputs": [
        {
          "internalType": "bytes32",
          "name": "",
          "type": "bytes32"
        }
      ],
      "stateMutability": "view",
      "type": "function"
    },
    {
      "inputs": [],
      "name": "VERIFIER_ROLE",
      "outputs": [
        {
          "internalType": "bytes32",
          "name": "",
          "type": "bytes32"
        }
      ],
      "stateMutability": "view",
      "type": "function"
    },
    {
      "inputs": [
        {
          "internalType": "uint256",
          "name": "badgeId",
          "type": "uint256"
        },
        {
          "components": [
            {
              "internalType": "uint256",
              "name": "badgeModelId",
              "type": "uint256"
            },
            {
              "internalType": "address",
              "name": "account",
              "type": "address"
            },
            {
              "internalType": "uint256",
              "name": "dueDate",
              "type": "uint256"
            },
            {
              "internalType": "bool",
              "name": "initialized",
              "type": "bool"
            }
          ],
          "internalType": "struct TheBadgeStore.Badge",
          "name": "badge",
          "type": "tuple"
        }
      ],
      "name": "addBadge",
      "outputs": [],
      "stateMutability": "nonpayable",
      "type": "function"
    },
    {
      "inputs": [
        {
          "components": [
            {
              "internalType": "address",
              "name": "creator",
              "type": "address"
            },
            {
              "internalType": "string",
              "name": "controllerName",
              "type": "string"
            },
            {
              "internalType": "bool",
              "name": "paused",
              "type": "bool"
            },
            {
              "internalType": "uint256",
              "name": "mintCreatorFee",
              "type": "uint256"
            },
            {
              "internalType": "uint256",
              "name": "validFor",
              "type": "uint256"
            },
            {
              "internalType": "uint256",
              "name": "mintProtocolFee",
              "type": "uint256"
            },
            {
              "internalType": "bool",
              "name": "initialized",
              "type": "bool"
            },
            {
              "internalType": "string",
              "name": "version",
              "type": "string"
            }
          ],
          "internalType": "struct TheBadgeStore.BadgeModel",
          "name": "badgeModel",
          "type": "tuple"
        }
      ],
      "name": "addBadgeModel",
      "outputs": [],
      "stateMutability": "nonpayable",
      "type": "function"
    },
    {
      "inputs": [
        {
          "internalType": "string",
          "name": "controllerName",
          "type": "string"
        },
        {
          "components": [
            {
              "internalType": "address",
              "name": "controller",
              "type": "address"
            },
            {
              "internalType": "bool",
              "name": "paused",
              "type": "bool"
            },
            {
              "internalType": "bool",
              "name": "initialized",
              "type": "bool"
            }
          ],
          "internalType": "struct TheBadgeStore.BadgeModelController",
          "name": "badgeModelController",
          "type": "tuple"
        }
      ],
      "name": "addBadgeModelController",
      "outputs": [],
      "stateMutability": "nonpayable",
      "type": "function"
    },
    {
      "inputs": [
        {
          "internalType": "string",
          "name": "_contractName",
          "type": "string"
        },
        {
          "internalType": "address",
          "name": "_contractAddress",
          "type": "address"
        }
      ],
      "name": "addPermittedContract",
      "outputs": [],
      "stateMutability": "nonpayable",
      "type": "function"
    },
    {
      "inputs": [
        {
          "internalType": "address",
          "name": "",
          "type": "address"
        }
      ],
      "name": "allowedContractAddresses",
      "outputs": [
        {
          "internalType": "bool",
          "name": "",
          "type": "bool"
        }
      ],
      "stateMutability": "view",
      "type": "function"
    },
    {
      "inputs": [
        {
          "internalType": "string",
          "name": "",
          "type": "string"
        }
      ],
      "name": "allowedContractAddressesByContractName",
      "outputs": [
        {
          "internalType": "address",
          "name": "",
          "type": "address"
        }
      ],
      "stateMutability": "view",
      "type": "function"
    },
    {
      "inputs": [
        {
          "internalType": "string",
          "name": "",
          "type": "string"
        }
      ],
      "name": "badgeModelControllers",
      "outputs": [
        {
          "internalType": "address",
          "name": "controller",
          "type": "address"
        },
        {
          "internalType": "bool",
          "name": "paused",
          "type": "bool"
        },
        {
          "internalType": "bool",
          "name": "initialized",
          "type": "bool"
        }
      ],
      "stateMutability": "view",
      "type": "function"
    },
    {
      "inputs": [
        {
          "internalType": "address",
          "name": "",
          "type": "address"
        }
      ],
      "name": "badgeModelControllersByAddress",
      "outputs": [
        {
          "internalType": "address",
          "name": "controller",
          "type": "address"
        },
        {
          "internalType": "bool",
          "name": "paused",
          "type": "bool"
        },
        {
          "internalType": "bool",
          "name": "initialized",
          "type": "bool"
        }
      ],
      "stateMutability": "view",
      "type": "function"
    },
    {
      "inputs": [
        {
          "internalType": "uint256",
          "name": "",
          "type": "uint256"
        }
      ],
      "name": "badgeModels",
      "outputs": [
        {
          "internalType": "address",
          "name": "creator",
          "type": "address"
        },
        {
          "internalType": "string",
          "name": "controllerName",
          "type": "string"
        },
        {
          "internalType": "bool",
          "name": "paused",
          "type": "bool"
        },
        {
          "internalType": "uint256",
          "name": "mintCreatorFee",
          "type": "uint256"
        },
        {
          "internalType": "uint256",
          "name": "validFor",
          "type": "uint256"
        },
        {
          "internalType": "uint256",
          "name": "mintProtocolFee",
          "type": "uint256"
        },
        {
          "internalType": "bool",
          "name": "initialized",
          "type": "bool"
        },
        {
          "internalType": "string",
          "name": "version",
          "type": "string"
        }
      ],
      "stateMutability": "view",
      "type": "function"
    },
    {
      "inputs": [
        {
          "internalType": "uint256",
          "name": "",
          "type": "uint256"
        }
      ],
      "name": "badges",
      "outputs": [
        {
          "internalType": "uint256",
          "name": "badgeModelId",
          "type": "uint256"
        },
        {
          "internalType": "address",
          "name": "account",
          "type": "address"
        },
        {
          "internalType": "uint256",
          "name": "dueDate",
          "type": "uint256"
        },
        {
          "internalType": "bool",
          "name": "initialized",
          "type": "bool"
        }
      ],
      "stateMutability": "view",
      "type": "function"
    },
    {
      "inputs": [],
      "name": "createBadgeModelProtocolFee",
      "outputs": [
        {
          "internalType": "uint256",
          "name": "",
          "type": "uint256"
        }
      ],
      "stateMutability": "view",
      "type": "function"
    },
    {
      "inputs": [
        {
          "internalType": "address",
          "name": "userAddress",
          "type": "address"
        },
        {
          "components": [
            {
              "internalType": "string",
              "name": "metadata",
              "type": "string"
            },
            {
              "internalType": "bool",
              "name": "isCompany",
              "type": "bool"
            },
            {
              "internalType": "bool",
              "name": "isCreator",
              "type": "bool"
            },
            {
              "internalType": "bool",
              "name": "suspended",
              "type": "bool"
            },
            {
              "internalType": "bool",
              "name": "initialized",
              "type": "bool"
            }
          ],
          "internalType": "struct TheBadgeStore.User",
          "name": "newUser",
          "type": "tuple"
        }
      ],
      "name": "createUser",
      "outputs": [],
      "stateMutability": "nonpayable",
      "type": "function"
    },
    {
      "inputs": [],
      "name": "feeCollector",
      "outputs": [
        {
          "internalType": "address",
          "name": "",
          "type": "address"
        }
      ],
      "stateMutability": "view",
      "type": "function"
    },
    {
      "inputs": [
        {
          "internalType": "uint256",
          "name": "badgeId",
          "type": "uint256"
        }
      ],
      "name": "getBadge",
      "outputs": [
        {
          "components": [
            {
              "internalType": "uint256",
              "name": "badgeModelId",
              "type": "uint256"
            },
            {
              "internalType": "address",
              "name": "account",
              "type": "address"
            },
            {
              "internalType": "uint256",
              "name": "dueDate",
              "type": "uint256"
            },
            {
              "internalType": "bool",
              "name": "initialized",
              "type": "bool"
            }
          ],
          "internalType": "struct TheBadgeStore.Badge",
          "name": "",
          "type": "tuple"
        }
      ],
      "stateMutability": "view",
      "type": "function"
    },
    {
      "inputs": [
        {
          "internalType": "uint256",
          "name": "badgeModelId",
          "type": "uint256"
        }
      ],
      "name": "getBadgeModel",
      "outputs": [
        {
          "components": [
            {
              "internalType": "address",
              "name": "creator",
              "type": "address"
            },
            {
              "internalType": "string",
              "name": "controllerName",
              "type": "string"
            },
            {
              "internalType": "bool",
              "name": "paused",
              "type": "bool"
            },
            {
              "internalType": "uint256",
              "name": "mintCreatorFee",
              "type": "uint256"
            },
            {
              "internalType": "uint256",
              "name": "validFor",
              "type": "uint256"
            },
            {
              "internalType": "uint256",
              "name": "mintProtocolFee",
              "type": "uint256"
            },
            {
              "internalType": "bool",
              "name": "initialized",
              "type": "bool"
            },
            {
              "internalType": "string",
              "name": "version",
              "type": "string"
            }
          ],
          "internalType": "struct TheBadgeStore.BadgeModel",
          "name": "",
          "type": "tuple"
        }
      ],
      "stateMutability": "view",
      "type": "function"
    },
    {
      "inputs": [
        {
          "internalType": "string",
          "name": "controllerName",
          "type": "string"
        }
      ],
      "name": "getBadgeModelController",
      "outputs": [
        {
          "components": [
            {
              "internalType": "address",
              "name": "controller",
              "type": "address"
            },
            {
              "internalType": "bool",
              "name": "paused",
              "type": "bool"
            },
            {
              "internalType": "bool",
              "name": "initialized",
              "type": "bool"
            }
          ],
          "internalType": "struct TheBadgeStore.BadgeModelController",
          "name": "",
          "type": "tuple"
        }
      ],
      "stateMutability": "view",
      "type": "function"
    },
    {
      "inputs": [
        {
          "internalType": "address",
          "name": "controllerAddress",
          "type": "address"
        }
      ],
      "name": "getBadgeModelControllerByAddress",
      "outputs": [
        {
          "components": [
            {
              "internalType": "address",
              "name": "controller",
              "type": "address"
            },
            {
              "internalType": "bool",
              "name": "paused",
              "type": "bool"
            },
            {
              "internalType": "bool",
              "name": "initialized",
              "type": "bool"
            }
          ],
          "internalType": "struct TheBadgeStore.BadgeModelController",
          "name": "",
          "type": "tuple"
        }
      ],
      "stateMutability": "view",
      "type": "function"
    },
    {
      "inputs": [],
      "name": "getCurrentBadgeIdCounter",
      "outputs": [
        {
          "internalType": "uint256",
          "name": "",
          "type": "uint256"
        }
      ],
      "stateMutability": "view",
      "type": "function"
    },
    {
      "inputs": [],
      "name": "getCurrentBadgeModelsIdCounter",
      "outputs": [
        {
          "internalType": "uint256",
          "name": "",
          "type": "uint256"
        }
      ],
      "stateMutability": "view",
      "type": "function"
    },
    {
      "inputs": [
        {
          "internalType": "bytes32",
          "name": "role",
          "type": "bytes32"
        }
      ],
      "name": "getRoleAdmin",
      "outputs": [
        {
          "internalType": "bytes32",
          "name": "",
          "type": "bytes32"
        }
      ],
      "stateMutability": "view",
      "type": "function"
    },
    {
      "inputs": [
        {
          "internalType": "address",
          "name": "userAddress",
          "type": "address"
        }
      ],
      "name": "getUser",
      "outputs": [
        {
          "components": [
            {
              "internalType": "string",
              "name": "metadata",
              "type": "string"
            },
            {
              "internalType": "bool",
              "name": "isCompany",
              "type": "bool"
            },
            {
              "internalType": "bool",
              "name": "isCreator",
              "type": "bool"
            },
            {
              "internalType": "bool",
              "name": "suspended",
              "type": "bool"
            },
            {
              "internalType": "bool",
              "name": "initialized",
              "type": "bool"
            }
          ],
          "internalType": "struct TheBadgeStore.User",
          "name": "",
          "type": "tuple"
        }
      ],
      "stateMutability": "view",
      "type": "function"
    },
    {
      "inputs": [
        {
          "internalType": "uint256",
          "name": "badgeModelId",
          "type": "uint256"
        },
        {
          "internalType": "address",
          "name": "userAddress",
          "type": "address"
        }
      ],
      "name": "getUserMintedBadgesByBadgeModel",
      "outputs": [
        {
          "internalType": "uint256[]",
          "name": "",
          "type": "uint256[]"
        }
      ],
      "stateMutability": "view",
      "type": "function"
    },
    {
      "inputs": [
        {
          "internalType": "bytes32",
          "name": "role",
          "type": "bytes32"
        },
        {
          "internalType": "address",
          "name": "account",
          "type": "address"
        }
      ],
      "name": "grantRole",
      "outputs": [],
      "stateMutability": "nonpayable",
      "type": "function"
    },
    {
      "inputs": [
        {
          "internalType": "bytes32",
          "name": "role",
          "type": "bytes32"
        },
        {
          "internalType": "address",
          "name": "account",
          "type": "address"
        }
      ],
      "name": "hasRole",
      "outputs": [
        {
          "internalType": "bool",
          "name": "",
          "type": "bool"
        }
      ],
      "stateMutability": "view",
      "type": "function"
    },
    {
      "inputs": [
        {
          "internalType": "address",
          "name": "admin",
          "type": "address"
        },
        {
          "internalType": "address",
          "name": "_feeCollector",
          "type": "address"
        }
      ],
      "name": "initialize",
      "outputs": [],
      "stateMutability": "nonpayable",
      "type": "function"
    },
    {
      "inputs": [],
      "name": "mintBadgeProtocolDefaultFeeInBps",
      "outputs": [
        {
          "internalType": "uint256",
          "name": "",
          "type": "uint256"
        }
      ],
      "stateMutability": "view",
      "type": "function"
    },
    {
      "inputs": [],
      "name": "owner",
      "outputs": [
        {
          "internalType": "address",
          "name": "",
          "type": "address"
        }
      ],
      "stateMutability": "view",
      "type": "function"
    },
    {
      "inputs": [],
      "name": "registerUserProtocolFee",
      "outputs": [
        {
          "internalType": "uint256",
          "name": "",
          "type": "uint256"
        }
      ],
      "stateMutability": "view",
      "type": "function"
    },
    {
      "inputs": [
        {
          "internalType": "address",
          "name": "",
          "type": "address"
        }
      ],
      "name": "registeredUsers",
      "outputs": [
        {
          "internalType": "string",
          "name": "metadata",
          "type": "string"
        },
        {
          "internalType": "bool",
          "name": "isCompany",
          "type": "bool"
        },
        {
          "internalType": "bool",
          "name": "isCreator",
          "type": "bool"
        },
        {
          "internalType": "bool",
          "name": "suspended",
          "type": "bool"
        },
        {
          "internalType": "bool",
          "name": "initialized",
          "type": "bool"
        }
      ],
      "stateMutability": "view",
      "type": "function"
    },
    {
      "inputs": [
        {
          "internalType": "string",
          "name": "_contractName",
          "type": "string"
        }
      ],
      "name": "removePermittedContract",
      "outputs": [],
      "stateMutability": "nonpayable",
      "type": "function"
    },
    {
      "inputs": [],
      "name": "renounceOwnership",
      "outputs": [],
      "stateMutability": "nonpayable",
      "type": "function"
    },
    {
      "inputs": [
        {
          "internalType": "bytes32",
          "name": "role",
          "type": "bytes32"
        },
        {
          "internalType": "address",
          "name": "callerConfirmation",
          "type": "address"
        }
      ],
      "name": "renounceRole",
      "outputs": [],
      "stateMutability": "nonpayable",
      "type": "function"
    },
    {
      "inputs": [
        {
          "internalType": "bytes32",
          "name": "role",
          "type": "bytes32"
        },
        {
          "internalType": "address",
          "name": "account",
          "type": "address"
        }
      ],
      "name": "revokeRole",
      "outputs": [],
      "stateMutability": "nonpayable",
      "type": "function"
    },
    {
      "inputs": [
        {
          "internalType": "bytes4",
          "name": "interfaceId",
          "type": "bytes4"
        }
      ],
      "name": "supportsInterface",
      "outputs": [
        {
          "internalType": "bool",
          "name": "",
          "type": "bool"
        }
      ],
      "stateMutability": "view",
      "type": "function"
    },
    {
      "inputs": [
        {
          "internalType": "uint256",
          "name": "badgeId",
          "type": "uint256"
        },
        {
          "internalType": "address",
          "name": "origin",
          "type": "address"
        },
        {
          "internalType": "address",
          "name": "destination",
          "type": "address"
        }
      ],
      "name": "transferBadge",
      "outputs": [],
      "stateMutability": "nonpayable",
      "type": "function"
    },
    {
      "inputs": [
        {
          "internalType": "address",
          "name": "newOwner",
          "type": "address"
        }
      ],
      "name": "transferOwnership",
      "outputs": [],
      "stateMutability": "nonpayable",
      "type": "function"
    },
    {
      "inputs": [
        {
          "internalType": "uint256",
          "name": "badgeModelId",
          "type": "uint256"
        },
        {
          "components": [
            {
              "internalType": "address",
              "name": "creator",
              "type": "address"
            },
            {
              "internalType": "string",
              "name": "controllerName",
              "type": "string"
            },
            {
              "internalType": "bool",
              "name": "paused",
              "type": "bool"
            },
            {
              "internalType": "uint256",
              "name": "mintCreatorFee",
              "type": "uint256"
            },
            {
              "internalType": "uint256",
              "name": "validFor",
              "type": "uint256"
            },
            {
              "internalType": "uint256",
              "name": "mintProtocolFee",
              "type": "uint256"
            },
            {
              "internalType": "bool",
              "name": "initialized",
              "type": "bool"
            },
            {
              "internalType": "string",
              "name": "version",
              "type": "string"
            }
          ],
          "internalType": "struct TheBadgeStore.BadgeModel",
          "name": "badgeModel",
          "type": "tuple"
        }
      ],
      "name": "updateBadgeModel",
      "outputs": [],
      "stateMutability": "nonpayable",
      "type": "function"
    },
    {
      "inputs": [
        {
          "internalType": "string",
          "name": "controllerName",
          "type": "string"
        },
        {
          "components": [
            {
              "internalType": "address",
              "name": "controller",
              "type": "address"
            },
            {
              "internalType": "bool",
              "name": "paused",
              "type": "bool"
            },
            {
              "internalType": "bool",
              "name": "initialized",
              "type": "bool"
            }
          ],
          "internalType": "struct TheBadgeStore.BadgeModelController",
          "name": "badgeModelController",
          "type": "tuple"
        }
      ],
      "name": "updateBadgeModelController",
      "outputs": [],
      "stateMutability": "nonpayable",
      "type": "function"
    },
    {
      "inputs": [
        {
          "internalType": "uint256",
          "name": "_createBadgeModelValue",
          "type": "uint256"
        }
      ],
      "name": "updateCreateBadgeModelProtocolFee",
      "outputs": [],
      "stateMutability": "nonpayable",
      "type": "function"
    },
    {
      "inputs": [
        {
          "internalType": "uint256",
          "name": "_mintBadgeDefaultFee",
          "type": "uint256"
        }
      ],
      "name": "updateMintBadgeDefaultProtocolFee",
      "outputs": [],
      "stateMutability": "nonpayable",
      "type": "function"
    },
    {
      "inputs": [
        {
          "internalType": "string",
          "name": "_contractName",
          "type": "string"
        },
        {
          "internalType": "address",
          "name": "_newContractAddress",
          "type": "address"
        }
      ],
      "name": "updatePermittedContract",
      "outputs": [],
      "stateMutability": "nonpayable",
      "type": "function"
    },
    {
      "inputs": [
        {
          "internalType": "uint256",
          "name": "_registerCreatorValue",
          "type": "uint256"
        }
      ],
      "name": "updateRegisterCreatorProtocolFee",
      "outputs": [],
      "stateMutability": "nonpayable",
      "type": "function"
    },
    {
      "inputs": [
        {
          "internalType": "address",
          "name": "userAddress",
          "type": "address"
        },
        {
          "components": [
            {
              "internalType": "string",
              "name": "metadata",
              "type": "string"
            },
            {
              "internalType": "bool",
              "name": "isCompany",
              "type": "bool"
            },
            {
              "internalType": "bool",
              "name": "isCreator",
              "type": "bool"
            },
            {
              "internalType": "bool",
              "name": "suspended",
              "type": "bool"
            },
            {
              "internalType": "bool",
              "name": "initialized",
              "type": "bool"
            }
          ],
          "internalType": "struct TheBadgeStore.User",
          "name": "updatedUser",
          "type": "tuple"
        }
      ],
      "name": "updateUser",
      "outputs": [],
      "stateMutability": "nonpayable",
      "type": "function"
    },
    {
      "inputs": [
        {
          "internalType": "uint256",
          "name": "",
          "type": "uint256"
        },
        {
          "internalType": "address",
          "name": "",
          "type": "address"
        },
        {
          "internalType": "uint256",
          "name": "",
          "type": "uint256"
        }
      ],
      "name": "userMintedBadgesByBadgeModel",
      "outputs": [
        {
          "internalType": "uint256",
          "name": "",
          "type": "uint256"
        }
      ],
      "stateMutability": "view",
      "type": "function"
    },
    {
      "stateMutability": "payable",
      "type": "receive"
    }
  ],
  "bytecode": "0x608060405234801562000010575f80fd5b506200001b62000021565b620000d5565b7ff0c57e16840df040f15088dc2f81fe391c3923bec73e23a9662efc9c229c6a00805468010000000000000000900460ff1615620000725760405163f92ee8a960e01b815260040160405180910390fd5b80546001600160401b0390811614620000d25780546001600160401b0319166001600160401b0390811782556040519081527fc7f505b2f371ae2175ee4913f4499e1f2633a7b5936321eed1cdaeb6115181d29060200160405180910390a15b50565b612bec80620000e35f395ff3fe608060405260043610610273575f3560e01c80637333b3751161014d578063c956ebd9116100ba578063c956ebd914610956578063d547741f14610975578063e181865114610994578063e63ab1e9146109b3578063e70a0e69146109e6578063e7343c8a146109fb578063e7705db614610a0e578063e9ab224e14610a41578063f1fe717e14610a60578063f2be2c8514610a7f578063f2fde38b14610aab578063f72c0d8b14610aca578063fc5f18d314610afd575f80fd5b80637333b375146106795780637f345710146106d05780638d838622146107035780638da5cb5b146107cb57806391d14854146107df57806398e36d8b146107fe57806399448a2c14610875578063a1fa355c14610894578063a217fddf146108b3578063a41e35c3146108c6578063b26fc204146108f9578063c415b95c14610918578063c5a3c7ca14610937575f80fd5b80632f2ff15d116101eb5780632f2ff15d146104835780632f922796146104a2578063302b01801461051357806336568abe14610546578063385c4372146105655780634085b52714610584578063485cc955146105a35780634e5eceae146105c257806364d8baef146105d7578063658658c6146105ec578063687a05571461060b5780636f77926b14610639578063715018a614610665575f80fd5b806301719d2b1461027e57806301ffc9a7146102d157806304db069f1461030057806306d7a28c1461032157806308473d4a1461036e57806308e5bf211461039a5780630a5f1ec5146103b85780630deee176146103d75780630e50cee5146103f6578063178682c1146104265780631a9f36c014610445578063248a9ca314610464575f80fd5b3661027a57005b5f80fd5b348015610289575f80fd5b5061029d6102983660046120d5565b610b30565b6040805182516001600160a01b03168152602080840151151590820152918101511515908201526060015b60405180910390f35b3480156102dc575f80fd5b506102f06102eb3660046120f7565b610b8a565b60405190151581526020016102c8565b34801561030b575f80fd5b5061031f61031a366004612135565b610bc0565b005b34801561032c575f80fd5b5061036161033b36600461220a565b80516020818301810180516007825292820191909301209152546001600160a01b031681565b6040516102c8919061223b565b348015610379575f80fd5b5061038d61038836600461224f565b610c25565b6040516102c8919061227d565b3480156103a5575f80fd5b506001545b6040519081526020016102c8565b3480156103c3575f80fd5b5061031f6103d23660046122c0565b610c96565b3480156103e2575f80fd5b5061031f6103f136600461220a565b610dfd565b348015610401575f80fd5b506104156104103660046120d5565b610ede565b6040516102c895949392919061234c565b348015610431575f80fd5b5061031f610440366004612384565b610f9e565b348015610450575f80fd5b5061031f61045f3660046123cb565b611040565b34801561046f575f80fd5b506103aa61047e366004612420565b611146565b34801561048e575f80fd5b5061031f61049d36600461224f565b611164565b3480156104ad575f80fd5b506104ec6104bc3660046120d5565b600a6020525f90815260409020546001600160a01b0381169060ff600160a01b8204811691600160a81b90041683565b604080516001600160a01b03909416845291151560208401521515908201526060016102c8565b34801561051e575f80fd5b5061053261052d366004612420565b611186565b6040516102c8989796959493929190612437565b348015610551575f80fd5b5061031f61056036600461224f565b6112e6565b348015610570575f80fd5b5061029d61057f36600461220a565b61131e565b34801561058f575f80fd5b5061031f61059e3660046124a0565b611383565b3480156105ae575f80fd5b5061031f6105bd3660046124c7565b611433565b3480156105cd575f80fd5b506103aa60045481565b3480156105e2575f80fd5b506103aa60035481565b3480156105f7575f80fd5b5061031f6106063660046123cb565b611562565b348015610616575f80fd5b506102f06106253660046120d5565b60066020525f908152604090205460ff1681565b348015610644575f80fd5b506106586106533660046120d5565b6115f2565b6040516102c891906124f3565b348015610670575f80fd5b5061031f611713565b348015610684575f80fd5b506104ec61069336600461220a565b8051808201602090810180516009825292820191909301209152546001600160a01b0381169060ff600160a01b8204811691600160a81b90041683565b3480156106db575f80fd5b506103aa7f7804d923f43a17d325d77e781528e0793b2edd9890ab45fc64efd7b4b427744c81565b34801561070e575f80fd5b5061078d61071d366004612420565b60408051608080820183525f80835260208084018290528385018290526060938401829052948152600c8552839020835191820184528054825260018101546001600160a01b03169482019490945260028401549281019290925260039092015460ff1615159181019190915290565b6040516102c89190815181526020808301516001600160a01b0316908201526040808301519082015260609182015115159181019190915260800190565b3480156107d6575f80fd5b50610361611726565b3480156107ea575f80fd5b506102f06107f936600461224f565b611740565b348015610809575f80fd5b5061084b610818366004612420565b600c6020525f9081526040902080546001820154600283015460039093015491926001600160a01b039091169160ff1684565b604080519485526001600160a01b03909316602085015291830152151560608201526080016102c8565b348015610880575f80fd5b506103aa61088f36600461254a565b611774565b34801561089f575f80fd5b5061031f6108ae36600461257f565b6117aa565b3480156108be575f80fd5b506103aa5f81565b3480156108d1575f80fd5b506103aa7fcbaaf41b181bb6e269c490e876a7c97711b57e21dd8e5528423cf57579726b3581565b348015610904575f80fd5b5061031f61091336600461257f565b6118c1565b348015610923575f80fd5b50600554610361906001600160a01b031681565b348015610942575f80fd5b5061031f610951366004612420565b6119f2565b348015610961575f80fd5b5061031f6109703660046125c2565b611a2a565b348015610980575f80fd5b5061031f61098f36600461224f565b611acd565b34801561099f575f80fd5b5061031f6109ae366004612420565b611ae9565b3480156109be575f80fd5b506103aa7f65d7a28e3265b37a6474929f336521b332c1681b933f6cb9f3376673440d862a81565b3480156109f1575f80fd5b506103aa60025481565b348015610a06575f80fd5b505f546103aa565b348015610a19575f80fd5b506103aa7f0ce23c3e399818cfee81a7ab0880f714e53d7672b08df0fa62f2843416e1ea0981565b348015610a4c575f80fd5b5061031f610a5b366004612384565b611b21565b348015610a6b575f80fd5b5061031f610a7a366004612420565b611b98565b348015610a8a575f80fd5b50610a9e610a99366004612420565b611bd0565b6040516102c89190612605565b348015610ab6575f80fd5b5061031f610ac53660046120d5565b611db2565b348015610ad5575f80fd5b506103aa7f189ab7a9244df0848122154315af71fe140f3db0fe014031783b0946b8c9d2e381565b348015610b08575f80fd5b506103aa7f11a8cb5a02bd6c42679835e867ef2118ba78f088f8300511420c6603c21d9c7881565b610b386120a2565b506001600160a01b039081165f908152600a602090815260409182902082516060810184529054938416815260ff600160a01b85048116151592820192909252600160a81b9093041615159082015290565b5f6001600160e01b03198216637965db0b60e01b1480610bba57506301ffc9a760e01b6001600160e01b03198316145b92915050565b335f9081526006602052604081205460ff1615159003610bf35760405163fb83383760e01b815260040160405180910390fd5b5f80548152600b602052604090208190610c0d828261286d565b50505f80549080610c1d83612923565b919050555050565b5f828152600d602090815260408083206001600160a01b0385168452825291829020805483518184028101840190945280845260609392830182828015610c8957602002820191905f5260205f20905b815481526020019060010190808311610c75575b5050505050905092915050565b335f9081526006602052604081205460ff1615159003610cc95760405163fb83383760e01b815260040160405180910390fd5b5f838152600c602052604090206001600160a01b0383161580610cf357506001600160a01b038216155b15610d1157604051630d806a2b60e11b815260040160405180910390fd5b600381015460ff1615155f03610d3a576040516355a150f760e11b815260040160405180910390fd5b60018101546001600160a01b03848116911614610d6a57604051630d806a2b60e11b815260040160405180910390fd5b6001810180546001600160a01b0319166001600160a01b038481169190911790915581545f908152600d60209081526040808320938716835292905220805485908110610db957610db9612947565b5f918252602080832090910182905591548152600d825260408082206001600160a01b03909416825292825291822080546001810182559083529120019190915550565b5f610e0781611df8565b5f600783604051610e18919061295b565b908152604051908190036020019020546001600160a01b0316905080610e505760405162b8005960e81b815260040160405180910390fd5b600783604051610e60919061295b565b90815260408051918290036020908101832080546001600160a01b03191690556001600160a01b0384165f8181526006909252919020805460ff1916905590610eaa90859061295b565b604051908190038120907f7ad6d7c73213a93d033801d72c729d90fb72104796b75ad799858b26f2b9872f905f90a3505050565b60086020525f9081526040902080548190610ef89061270c565b80601f0160208091040260200160405190810160405280929190818152602001828054610f249061270c565b8015610f6f5780601f10610f4657610100808354040283529160200191610f6f565b820191905f5260205f20905b815481529060010190602001808311610f5257829003601f168201915b5050506001909301549192505060ff808216916101008104821691620100008204811691630100000090041685565b335f9081526006602052604081205460ff1615159003610fd15760405163fb83383760e01b815260040160405180910390fd5b6001600160a01b0382165f90815260086020526040902080548190610ff59061270c565b90505f03611016576040516365553c4160e11b815260040160405180910390fd5b6001600160a01b0383165f90815260086020526040902082906110398282612976565b5050505050565b335f9081526006602052604081205460ff16151590036110735760405163fb83383760e01b815260040160405180910390fd5b5f600983604051611084919061295b565b90815260405190819003602001902080549091506001600160a01b03166110be5760405163930b449560e01b815260040160405180910390fd5b80546001600160a01b03165f908152600a60205260409081902080546001600160b01b03191690555182906009906110f790869061295b565b9081526040519081900360200190206111108282612adb565b50829050600a5f61112460208401846120d5565b6001600160a01b0316815260208101919091526040015f206110398282612adb565b5f80611150611e02565b5f9384526020525050604090206001015490565b61116d82611146565b61117681611df8565b6111808383611e26565b50505050565b600b6020525f9081526040902080546001820180546001600160a01b0390921692916111b19061270c565b80601f01602080910402602001604051908101604052809291908181526020018280546111dd9061270c565b80156112285780601f106111ff57610100808354040283529160200191611228565b820191905f5260205f20905b81548152906001019060200180831161120b57829003601f168201915b50505060028401546003850154600486015460058701546006880154600789018054989960ff96871699959850939650919416926112659061270c565b80601f01602080910402602001604051908101604052809291908181526020018280546112919061270c565b80156112dc5780601f106112b3576101008083540402835291602001916112dc565b820191905f5260205f20905b8154815290600101906020018083116112bf57829003601f168201915b5050505050905088565b6001600160a01b038116331461130f5760405163334bd91960e11b815260040160405180910390fd5b6113198282611ec4565b505050565b6113266120a2565b600982604051611336919061295b565b908152604080519182900360209081018320606084018352546001600160a01b038116845260ff600160a01b82048116151592850192909252600160a81b90041615159082015292915050565b335f9081526006602052604081205460ff16151590036113b65760405163fb83383760e01b815260040160405180910390fd5b80355f6113c960408401602085016120d5565b5f858152600c6020526040902090915083906113e58282612b48565b50505f828152600d602090815260408083206001600160a01b03851684528252822080546001818101835591845291832090910186905580549161142883612923565b919050555050505050565b5f61143c611f3a565b805490915060ff600160401b82041615906001600160401b03165f811580156114625750825b90505f826001600160401b0316600114801561147d5750303b155b90508115801561148b575080155b156114a95760405163f92ee8a960e01b815260040160405180910390fd5b845467ffffffffffffffff1916600117855583156114d357845460ff60401b1916600160401b1785555b6114dc87611f5e565b600580546001600160a01b0319166001600160a01b0388161790555f600281905560038190556103e86004556115129088611e26565b50831561155957845460ff60401b19168555604051600181527fc7f505b2f371ae2175ee4913f4499e1f2633a7b5936321eed1cdaeb6115181d29060200160405180910390a15b50505050505050565b335f9081526006602052604081205460ff16151590036115955760405163fb83383760e01b815260040160405180910390fd5b5f6009836040516115a6919061295b565b90815260405190819003602001902080549091506001600160a01b0316156115e157604051631192a36960e31b815260040160405180910390fd5b816009846040516110f7919061295b565b6040805160a08101825260608082525f60208301819052928201839052810182905260808101919091526001600160a01b0382165f9081526008602052604090819020815160a0810190925280548290829061164d9061270c565b80601f01602080910402602001604051908101604052809291908181526020018280546116799061270c565b80156116c45780601f1061169b576101008083540402835291602001916116c4565b820191905f5260205f20905b8154815290600101906020018083116116a757829003601f168201915b50505091835250506001919091015460ff808216151560208401526101008204811615156040840152620100008204811615156060840152630100000090910416151560809091015292915050565b61171b611f6f565b6117245f611fa1565b565b5f80611730611ffb565b546001600160a01b031692915050565b5f8061174a611e02565b5f948552602090815260408086206001600160a01b03959095168652939052505090205460ff1690565b600d602052825f5260405f20602052815f5260405f208181548110611797575f80fd5b905f5260205f20015f9250925050505481565b5f6117b481611df8565b6001600160a01b0382166117db57604051633cefac3360e01b815260040160405180910390fd5b5f6001600160a01b03166007846040516117f5919061295b565b908152604051908190036020019020546001600160a01b03161461182c57604051637044eb7960e01b815260040160405180910390fd5b8160078460405161183d919061295b565b908152604080516020928190038301812080546001600160a01b0319166001600160a01b039586161790559285165f81815260069093529120805460ff191660011790559061188d90859061295b565b604051908190038120907f8b4ef7d4e5bc8f098e6f637ac0acf4aee47b3f027efea6307264b06b4bc9d298905f90a3505050565b5f6118cb81611df8565b6001600160a01b0382166118f257604051633cefac3360e01b815260040160405180910390fd5b5f600784604051611903919061295b565b908152604051908190036020019020546001600160a01b031690508061193b5760405162b8005960e81b815260040160405180910390fd5b6001600160a01b0381165f9081526006602052604090819020805460ff1916905551839060079061196d90879061295b565b908152604080516020928190038301812080546001600160a01b0319166001600160a01b039586161790559286165f81815260069093529120805460ff19166001179055906119bd90869061295b565b604051908190038120907ff611fec7babefd259c57ea5b6006acff8140ab17bb816c65ba0aa7e36c09caa8905f90a350505050565b335f9081526006602052604081205460ff1615159003611a255760405163fb83383760e01b815260040160405180910390fd5b600355565b335f9081526006602052604081205460ff1615159003611a5d5760405163fb83383760e01b815260040160405180910390fd5b5f828152600b6020526040902080546001600160a01b0316611a92576040516336f7ce4f60e11b815260040160405180910390fd5b60a082013560058201556060820180356003830155611ab49060408401612b9b565b600291909101805460ff19169115159190911790555050565b611ad682611146565b611adf81611df8565b6111808383611ec4565b335f9081526006602052604081205460ff1615159003611b1c5760405163fb83383760e01b815260040160405180910390fd5b600455565b335f9081526006602052604081205460ff1615159003611b545760405163fb83383760e01b815260040160405180910390fd5b6001600160a01b0382165f90815260086020526040902080548190611b789061270c565b1590506110165760405163096bb4a360e41b815260040160405180910390fd5b335f9081526006602052604081205460ff1615159003611bcb5760405163fb83383760e01b815260040160405180910390fd5b600255565b611c1f6040518061010001604052805f6001600160a01b03168152602001606081526020015f151581526020015f81526020015f81526020015f81526020015f15158152602001606081525090565b5f828152600b60209081526040918290208251610100810190935280546001600160a01b031683526001810180549192840191611c5b9061270c565b80601f0160208091040260200160405190810160405280929190818152602001828054611c879061270c565b8015611cd25780601f10611ca957610100808354040283529160200191611cd2565b820191905f5260205f20905b815481529060010190602001808311611cb557829003601f168201915b5050509183525050600282015460ff90811615156020830152600383015460408301526004830154606083015260058301546080830152600683015416151560a082015260078201805460c090920191611d2b9061270c565b80601f0160208091040260200160405190810160405280929190818152602001828054611d579061270c565b8015611da25780601f10611d7957610100808354040283529160200191611da2565b820191905f5260205f20905b815481529060010190602001808311611d8557829003601f168201915b5050505050815250509050919050565b611dba611f6f565b6001600160a01b038116611dec575f604051631e4fbdf760e01b8152600401611de3919061223b565b60405180910390fd5b611df581611fa1565b50565b611df5813361201f565b7f02dd7bc7dec4dceedda775e58dd541e08a116c6c53815c0bd028192f7b62680090565b5f80611e30611e02565b9050611e3c8484611740565b611ebb575f848152602082815260408083206001600160a01b03871684529091529020805460ff19166001179055611e713390565b6001600160a01b0316836001600160a01b0316857f2f8788117e7eff1d82e926ec794901d17c78024a50270940304540a733656f0d60405160405180910390a46001915050610bba565b5f915050610bba565b5f80611ece611e02565b9050611eda8484611740565b15611ebb575f848152602082815260408083206001600160a01b0387168085529252808320805460ff1916905551339287917ff6391f5c32d9c69d2a47ea670b442974b53935d1edc7fd64eb21e047a839171b9190a46001915050610bba565b7ff0c57e16840df040f15088dc2f81fe391c3923bec73e23a9662efc9c229c6a0090565b611f6661205c565b611df581612081565b33611f78611726565b6001600160a01b031614611724573360405163118cdaa760e01b8152600401611de3919061223b565b5f611faa611ffb565b80546001600160a01b038481166001600160a01b031983168117845560405193945091169182907f8be0079c531659141344cd1fd0a4f28419497f9722a3daafe3b4186f6b6457e0905f90a3505050565b7f9016d09d72d40fdae2fd8ceac6b6234c7706214fd39c1cd1e609a0528c19930090565b6120298282611740565b6120585760405163e2517d3f60e01b81526001600160a01b038216600482015260248101839052604401611de3565b5050565b612064612089565b61172457604051631afcd79f60e31b815260040160405180910390fd5b611dba61205c565b5f612092611f3a565b54600160401b900460ff16919050565b604080516060810182525f808252602082018190529181019190915290565b6001600160a01b0381168114611df5575f80fd5b5f602082840312156120e5575f80fd5b81356120f0816120c1565b9392505050565b5f60208284031215612107575f80fd5b81356001600160e01b0319811681146120f0575f80fd5b5f610100828403121561212f575f80fd5b50919050565b5f60208284031215612145575f80fd5b81356001600160401b0381111561215a575f80fd5b6121668482850161211e565b949350505050565b634e487b7160e01b5f52604160045260245ffd5b5f82601f830112612191575f80fd5b81356001600160401b03808211156121ab576121ab61216e565b604051601f8301601f19908116603f011681019082821181831017156121d3576121d361216e565b816040528381528660208588010111156121eb575f80fd5b836020870160208301375f602085830101528094505050505092915050565b5f6020828403121561221a575f80fd5b81356001600160401b0381111561222f575f80fd5b61216684828501612182565b6001600160a01b0391909116815260200190565b5f8060408385031215612260575f80fd5b823591506020830135612272816120c1565b809150509250929050565b602080825282518282018190525f9190848201906040850190845b818110156122b457835183529284019291840191600101612298565b50909695505050505050565b5f805f606084860312156122d2575f80fd5b8335925060208401356122e4816120c1565b915060408401356122f4816120c1565b809150509250925092565b5f5b83811015612319578181015183820152602001612301565b50505f910152565b5f81518084526123388160208601602086016122ff565b601f01601f19169290920160200192915050565b60a081525f61235e60a0830188612321565b951515602083015250921515604084015290151560608301521515608090910152919050565b5f8060408385031215612395575f80fd5b82356123a0816120c1565b915060208301356001600160401b038111156123ba575f80fd5b830160a08186031215612272575f80fd5b5f8082840360808112156123dd575f80fd5b83356001600160401b038111156123f2575f80fd5b6123fe86828701612182565b9350506060601f1982011215612412575f80fd5b506020830190509250929050565b5f60208284031215612430575f80fd5b5035919050565b6001600160a01b0389168152610100602082018190525f9061245b8382018b612321565b905088151560408401528760608401528660808401528560a084015284151560c084015282810360e08401526124918185612321565b9b9a5050505050505050505050565b5f8082840360a08112156124b2575f80fd5b833592506080601f1982011215612412575f80fd5b5f80604083850312156124d8575f80fd5b82356124e3816120c1565b91506020830135612272816120c1565b602081525f825160a0602084015261250e60c0840182612321565b90506020840151151560408401526040840151151560608401526060840151151560808401526080840151151560a08401528091505092915050565b5f805f6060848603121561255c575f80fd5b83359250602084013561256e816120c1565b929592945050506040919091013590565b5f8060408385031215612590575f80fd5b82356001600160401b038111156125a5575f80fd5b6125b185828601612182565b9250506020830135612272816120c1565b5f80604083850312156125d3575f80fd5b8235915060208301356001600160401b038111156125ef575f80fd5b6125fb8582860161211e565b9150509250929050565b602080825282516001600160a01b031682820152820151610100604083018190525f9190612637610120850183612321565b9150604085015161264c606086018215159052565b5060608501516080850152608085015160a085015260a085015160c085015260c085015161267e60e086018215159052565b5060e0850151848303601f1901828601526126998382612321565b9695505050505050565b80546001600160a01b0319166001600160a01b0392909216919091179055565b5f808335601e198436030181126126d8575f80fd5b8301803591506001600160401b038211156126f1575f80fd5b602001915036819003821315612705575f80fd5b9250929050565b600181811c9082168061272057607f821691505b60208210810361212f57634e487b7160e01b5f52602260045260245ffd5b601f821115611319575f81815260208120601f850160051c810160208610156127645750805b601f850160051c820191505b8181101561278357828155600101612770565b505050505050565b5f19600383901b1c191660019190911b1790565b6001600160401b038311156127b6576127b661216e565b6127ca836127c4835461270c565b8361273e565b5f601f8411600181146127f6575f85156127e45750838201355b6127ee868261278b565b845550611039565b5f83815260209020601f19861690835b828110156128265786850135825560209485019460019092019101612806565b5086821015612842575f1960f88860031b161c19848701351681555b505060018560011b0183555050505050565b8015158114611df5575f80fd5b5f8135610bba81612854565b8135612878816120c1565b61288281836126a3565b5061289060208301836126c3565b61289e81836001860161279f565b505060408201356128ae81612854565b60028201805460ff191660ff8315151617905550606082013560038201556080820135600482015560a082013560058201556129086128ef60c08401612861565b6006830160ff1981541660ff8315151681178255505050565b61291560e08301836126c3565b61118081836007860161279f565b5f6001820161294057634e487b7160e01b5f52601160045260245ffd5b5060010190565b634e487b7160e01b5f52603260045260245ffd5b5f825161296c8184602087016122ff565b9190910192915050565b61298082836126c3565b6001600160401b038111156129975761299761216e565b6129ab816129a5855461270c565b8561273e565b5f601f8211600181146129d7575f83156129c55750838201355b6129cf848261278b565b865550612a2f565b5f85815260209020601f19841690835b82811015612a0757868501358255602094850194600190920191016129e7565b5084821015612a23575f1960f88660031b161c19848701351681555b505060018360011b0185555b5050505060018101612a5a612a4660208501612861565b825490151560ff1660ff1991909116178255565b612a83612a6960408501612861565b82805461ff00191691151560081b61ff0016919091179055565b612aae612a9260608501612861565b82805462ff0000191691151560101b62ff000016919091179055565b611319612abd60808501612861565b82805463ff000000191691151560181b63ff00000016919091179055565b8135612ae6816120c1565b612af081836126a3565b506020820135612aff81612854565b815460ff60a01b19811691151560a01b60ff60a01b1691821783556040840135612b2881612854565b61ffff60a01b199190911690911790151560a81b60ff60a81b1617905550565b813581556020820135612b5a816120c1565b612b6781600184016126a3565b50604082013560028201556060820135612b8081612854565b60038201805482151560ff1660ff1991909116179055505050565b5f60208284031215612bab575f80fd5b81356120f08161285456fea264697066735822122034e43bdcdde827682093aac1d80012eea34200f1a544121253107dac9439472c64736f6c63430008140033",
  "linkReferences": {},
  "deployedLinkReferences": {}
}