{
  "_format": "hh-sol-artifact-1",
  "contractName": "TheBadge",
  "sourceName": "src/contracts/thebadge/TheBadge.sol",
  "abi": [
    {
      "inputs": [],
      "stateMutability": "nonpayable",
      "type": "constructor"
    },
    {
      "inputs": [],
      "name": "TheBadge__SBT",
      "type": "error"
    },
    {
      "inputs": [],
      "name": "TheBadge__addBadgeModelController_alreadySet",
      "type": "error"
    },
    {
      "inputs": [],
      "name": "TheBadge__addBadgeModelController_emptyName",
      "type": "error"
    },
    {
      "inputs": [],
      "name": "TheBadge__addBadgeModelController_notFound",
      "type": "error"
    },
    {
      "inputs": [],
      "name": "TheBadge__badgeModel_badgeModelNotFound",
      "type": "error"
    },
    {
      "inputs": [],
      "name": "TheBadge__calculateFee_protocolFeesInvalidValues",
      "type": "error"
    },
    {
      "inputs": [],
      "name": "TheBadge__controller_controllerIsPaused",
      "type": "error"
    },
    {
      "inputs": [],
      "name": "TheBadge__controller_invalidController",
      "type": "error"
    },
    {
      "inputs": [],
      "name": "TheBadge__createBadgeModel_wrongValue",
      "type": "error"
    },
    {
      "inputs": [],
      "name": "TheBadge__method_not_supported",
      "type": "error"
    },
    {
      "inputs": [],
      "name": "TheBadge__mint_creatorFeesPaymentFailed",
      "type": "error"
    },
    {
      "inputs": [],
      "name": "TheBadge__mint_protocolFeesPaymentFailed",
      "type": "error"
    },
    {
      "inputs": [],
      "name": "TheBadge__onlyCreator_creatorIsSuspended",
      "type": "error"
    },
    {
      "inputs": [],
      "name": "TheBadge__onlyCreator_senderIsNotACreator",
      "type": "error"
    },
    {
      "inputs": [],
      "name": "TheBadge__onlyUser_userNotFound",
      "type": "error"
    },
    {
      "inputs": [],
      "name": "TheBadge__registerUser_alreadyRegistered",
      "type": "error"
    },
    {
      "inputs": [],
      "name": "TheBadge__registerUser_wrongValue",
      "type": "error"
    },
    {
      "inputs": [],
      "name": "TheBadge__requestBadge_badgeModelIsSuspended",
      "type": "error"
    },
    {
      "inputs": [],
      "name": "TheBadge__requestBadge_badgeModelNotFound",
      "type": "error"
    },
    {
      "inputs": [],
      "name": "TheBadge__requestBadge_badgeNotClaimable",
      "type": "error"
    },
    {
      "inputs": [],
      "name": "TheBadge__requestBadge_badgeNotFound",
      "type": "error"
    },
    {
      "inputs": [],
      "name": "TheBadge__requestBadge_controllerIsPaused",
      "type": "error"
    },
    {
      "inputs": [],
      "name": "TheBadge__requestBadge_isPaused",
      "type": "error"
    },
    {
      "inputs": [],
      "name": "TheBadge__requestBadge_wrongValue",
      "type": "error"
    },
    {
      "inputs": [],
      "name": "TheBadge__setControllerStatus_notFound",
      "type": "error"
    },
    {
      "inputs": [],
      "name": "TheBadge__updateBadgeModel_badgeModelNotFound",
      "type": "error"
    },
    {
      "inputs": [],
      "name": "TheBadge__updateBadgeModel_notBadgeModelOwner",
      "type": "error"
    },
    {
      "inputs": [],
      "name": "TheBadge__updateUser_notFound",
      "type": "error"
    },
    {
      "inputs": [],
      "name": "TheBadge__verifyUser_verificationProtocolFeesPaymentFailed",
      "type": "error"
    },
    {
      "inputs": [],
      "name": "TheBadge__verifyUser_wrongValue",
      "type": "error"
    },
    {
      "anonymous": false,
      "inputs": [
        {
          "indexed": false,
          "internalType": "address",
          "name": "previousAdmin",
          "type": "address"
        },
        {
          "indexed": false,
          "internalType": "address",
          "name": "newAdmin",
          "type": "address"
        }
      ],
      "name": "AdminChanged",
      "type": "event"
    },
    {
      "anonymous": false,
      "inputs": [
        {
          "indexed": true,
          "internalType": "address",
          "name": "account",
          "type": "address"
        },
        {
          "indexed": true,
          "internalType": "address",
          "name": "operator",
          "type": "address"
        },
        {
          "indexed": false,
          "internalType": "bool",
          "name": "approved",
          "type": "bool"
        }
      ],
      "name": "ApprovalForAll",
      "type": "event"
    },
    {
      "anonymous": false,
      "inputs": [
        {
          "indexed": true,
          "internalType": "string",
          "name": "controllerName",
          "type": "string"
        },
        {
          "indexed": true,
          "internalType": "address",
          "name": "controllerAddress",
          "type": "address"
        }
      ],
      "name": "BadgeModelControllerAdded",
      "type": "event"
    },
    {
      "anonymous": false,
      "inputs": [
        {
          "indexed": true,
          "internalType": "uint256",
          "name": "badgeModelId",
          "type": "uint256"
        },
        {
          "indexed": false,
          "internalType": "string",
          "name": "metadata",
          "type": "string"
        }
      ],
      "name": "BadgeModelCreated",
      "type": "event"
    },
    {
      "anonymous": false,
      "inputs": [
        {
          "indexed": true,
          "internalType": "uint256",
          "name": "badgeModelId",
          "type": "uint256"
        },
        {
          "indexed": false,
          "internalType": "uint256",
          "name": "newAmountInBps",
          "type": "uint256"
        }
      ],
      "name": "BadgeModelProtocolFeeUpdated",
      "type": "event"
    },
    {
      "anonymous": false,
      "inputs": [
        {
          "indexed": true,
          "internalType": "uint256",
          "name": "badgeModelId",
          "type": "uint256"
        }
      ],
      "name": "BadgeModelUpdated",
      "type": "event"
    },
    {
      "anonymous": false,
      "inputs": [
        {
          "indexed": true,
          "internalType": "uint256",
          "name": "badgeModelID",
          "type": "uint256"
        },
        {
          "indexed": true,
          "internalType": "uint256",
          "name": "badgeID",
          "type": "uint256"
        },
        {
          "indexed": true,
          "internalType": "address",
          "name": "recipient",
          "type": "address"
        },
        {
          "indexed": false,
          "internalType": "address",
          "name": "controller",
          "type": "address"
        },
        {
          "indexed": false,
          "internalType": "uint256",
          "name": "controllerBadgeId",
          "type": "uint256"
        }
      ],
      "name": "BadgeRequested",
      "type": "event"
    },
    {
      "anonymous": false,
      "inputs": [
        {
          "indexed": true,
          "internalType": "address",
          "name": "beacon",
          "type": "address"
        }
      ],
      "name": "BeaconUpgraded",
      "type": "event"
    },
    {
      "anonymous": false,
      "inputs": [
        {
          "indexed": true,
          "internalType": "address",
          "name": "creator",
          "type": "address"
        }
      ],
      "name": "CreatorRegistered",
      "type": "event"
    },
    {
      "anonymous": false,
      "inputs": [
        {
          "indexed": true,
          "internalType": "address",
          "name": "admin",
          "type": "address"
        },
        {
          "indexed": true,
          "internalType": "address",
          "name": "minter",
          "type": "address"
        }
      ],
      "name": "Initialize",
      "type": "event"
    },
    {
      "anonymous": false,
      "inputs": [
        {
          "indexed": false,
          "internalType": "uint8",
          "name": "version",
          "type": "uint8"
        }
      ],
      "name": "Initialized",
      "type": "event"
    },
    {
      "anonymous": false,
      "inputs": [
        {
          "indexed": false,
          "internalType": "address",
          "name": "account",
          "type": "address"
        }
      ],
      "name": "Paused",
      "type": "event"
    },
    {
      "anonymous": false,
      "inputs": [
        {
          "indexed": true,
          "internalType": "address",
          "name": "recipient",
          "type": "address"
        },
        {
          "indexed": false,
          "internalType": "uint256",
          "name": "amount",
          "type": "uint256"
        },
        {
          "indexed": true,
          "internalType": "enum TheBadgeStore.PaymentType",
          "name": "paymentType",
          "type": "uint8"
        },
        {
          "indexed": true,
          "internalType": "uint256",
          "name": "badgeModelId",
          "type": "uint256"
        }
      ],
      "name": "PaymentMade",
      "type": "event"
    },
    {
      "anonymous": false,
      "inputs": [],
      "name": "ProtocolSettingsUpdated",
      "type": "event"
    },
    {
      "anonymous": false,
      "inputs": [
        {
          "indexed": true,
          "internalType": "address",
          "name": "creator",
          "type": "address"
        },
        {
          "indexed": false,
          "internalType": "bool",
          "name": "deleted",
          "type": "bool"
        }
      ],
      "name": "RemovedUser",
      "type": "event"
    },
    {
      "anonymous": false,
      "inputs": [
        {
          "indexed": true,
          "internalType": "bytes32",
          "name": "role",
          "type": "bytes32"
        },
        {
          "indexed": true,
          "internalType": "bytes32",
          "name": "previousAdminRole",
          "type": "bytes32"
        },
        {
          "indexed": true,
          "internalType": "bytes32",
          "name": "newAdminRole",
          "type": "bytes32"
        }
      ],
      "name": "RoleAdminChanged",
      "type": "event"
    },
    {
      "anonymous": false,
      "inputs": [
        {
          "indexed": true,
          "internalType": "bytes32",
          "name": "role",
          "type": "bytes32"
        },
        {
          "indexed": true,
          "internalType": "address",
          "name": "account",
          "type": "address"
        },
        {
          "indexed": true,
          "internalType": "address",
          "name": "sender",
          "type": "address"
        }
      ],
      "name": "RoleGranted",
      "type": "event"
    },
    {
      "anonymous": false,
      "inputs": [
        {
          "indexed": true,
          "internalType": "bytes32",
          "name": "role",
          "type": "bytes32"
        },
        {
          "indexed": true,
          "internalType": "address",
          "name": "account",
          "type": "address"
        },
        {
          "indexed": true,
          "internalType": "address",
          "name": "sender",
          "type": "address"
        }
      ],
      "name": "RoleRevoked",
      "type": "event"
    },
    {
      "anonymous": false,
      "inputs": [
        {
          "indexed": true,
          "internalType": "address",
          "name": "creator",
          "type": "address"
        },
        {
          "indexed": false,
          "internalType": "bool",
          "name": "suspended",
          "type": "bool"
        }
      ],
      "name": "SuspendedUser",
      "type": "event"
    },
    {
      "anonymous": false,
      "inputs": [
        {
          "indexed": true,
          "internalType": "address",
          "name": "operator",
          "type": "address"
        },
        {
          "indexed": true,
          "internalType": "address",
          "name": "from",
          "type": "address"
        },
        {
          "indexed": true,
          "internalType": "address",
          "name": "to",
          "type": "address"
        },
        {
          "indexed": false,
          "internalType": "uint256[]",
          "name": "ids",
          "type": "uint256[]"
        },
        {
          "indexed": false,
          "internalType": "uint256[]",
          "name": "values",
          "type": "uint256[]"
        }
      ],
      "name": "TransferBatch",
      "type": "event"
    },
    {
      "anonymous": false,
      "inputs": [
        {
          "indexed": true,
          "internalType": "address",
          "name": "operator",
          "type": "address"
        },
        {
          "indexed": true,
          "internalType": "address",
          "name": "from",
          "type": "address"
        },
        {
          "indexed": true,
          "internalType": "address",
          "name": "to",
          "type": "address"
        },
        {
          "indexed": false,
          "internalType": "uint256",
          "name": "id",
          "type": "uint256"
        },
        {
          "indexed": false,
          "internalType": "uint256",
          "name": "value",
          "type": "uint256"
        }
      ],
      "name": "TransferSingle",
      "type": "event"
    },
    {
      "anonymous": false,
      "inputs": [
        {
          "indexed": false,
          "internalType": "string",
          "name": "value",
          "type": "string"
        },
        {
          "indexed": true,
          "internalType": "uint256",
          "name": "id",
          "type": "uint256"
        }
      ],
      "name": "URI",
      "type": "event"
    },
    {
      "anonymous": false,
      "inputs": [
        {
          "indexed": false,
          "internalType": "address",
          "name": "account",
          "type": "address"
        }
      ],
      "name": "Unpaused",
      "type": "event"
    },
    {
      "anonymous": false,
      "inputs": [
        {
          "indexed": true,
          "internalType": "address",
          "name": "creator",
          "type": "address"
        },
        {
          "indexed": false,
          "internalType": "string",
          "name": "metadata",
          "type": "string"
        }
      ],
      "name": "UpdatedUserMetadata",
      "type": "event"
    },
    {
      "anonymous": false,
      "inputs": [
        {
          "indexed": true,
          "internalType": "address",
          "name": "implementation",
          "type": "address"
        }
      ],
      "name": "Upgraded",
      "type": "event"
    },
    {
      "anonymous": false,
      "inputs": [
        {
          "indexed": true,
          "internalType": "address",
          "name": "creator",
          "type": "address"
        },
        {
          "indexed": false,
          "internalType": "string",
          "name": "metadata",
          "type": "string"
        }
      ],
      "name": "UserRegistered",
      "type": "event"
    },
    {
      "anonymous": false,
      "inputs": [
        {
          "indexed": true,
          "internalType": "address",
          "name": "user",
          "type": "address"
        },
        {
          "indexed": false,
          "internalType": "string",
          "name": "controllerName",
          "type": "string"
        },
        {
          "indexed": false,
          "internalType": "bool",
          "name": "verify",
          "type": "bool"
        }
      ],
      "name": "UserVerificationExecuted",
      "type": "event"
    },
    {
      "anonymous": false,
      "inputs": [
        {
          "indexed": true,
          "internalType": "address",
          "name": "recipient",
          "type": "address"
        },
        {
          "indexed": false,
          "internalType": "uint256",
          "name": "amount",
          "type": "uint256"
        },
        {
          "indexed": true,
          "internalType": "enum TheBadgeStore.PaymentType",
          "name": "paymentType",
          "type": "uint8"
        },
        {
          "indexed": false,
          "internalType": "string",
          "name": "controllerName",
          "type": "string"
        },
        {
          "indexed": false,
          "internalType": "address",
          "name": "creatorAddress",
          "type": "address"
        }
      ],
      "name": "UserVerificationPaymentMade",
      "type": "event"
    },
    {
      "anonymous": false,
      "inputs": [
        {
          "indexed": true,
          "internalType": "address",
          "name": "user",
          "type": "address"
        },
        {
          "indexed": false,
          "internalType": "string",
          "name": "metadata",
          "type": "string"
        },
        {
          "indexed": false,
          "internalType": "string",
          "name": "controllerName",
          "type": "string"
        }
      ],
      "name": "UserVerificationRequested",
      "type": "event"
    },
    {
      "inputs": [],
      "name": "DEFAULT_ADMIN_ROLE",
      "outputs": [
        {
          "internalType": "bytes32",
          "name": "",
          "type": "bytes32"
        }
      ],
      "stateMutability": "view",
      "type": "function"
    },
    {
      "inputs": [],
      "name": "FEE_COLLECTOR_ROLE",
      "outputs": [
        {
          "internalType": "bytes32",
          "name": "",
          "type": "bytes32"
        }
      ],
      "stateMutability": "view",
      "type": "function"
    },
    {
      "inputs": [],
      "name": "MINTER_ROLE",
      "outputs": [
        {
          "internalType": "bytes32",
          "name": "",
          "type": "bytes32"
        }
      ],
      "stateMutability": "view",
      "type": "function"
    },
    {
      "inputs": [],
      "name": "PAUSER_ROLE",
      "outputs": [
        {
          "internalType": "bytes32",
          "name": "",
          "type": "bytes32"
        }
      ],
      "stateMutability": "view",
      "type": "function"
    },
    {
      "inputs": [],
      "name": "UPGRADER_ROLE",
      "outputs": [
        {
          "internalType": "bytes32",
          "name": "",
          "type": "bytes32"
        }
      ],
      "stateMutability": "view",
      "type": "function"
    },
    {
      "inputs": [],
      "name": "URI_SETTER_ROLE",
      "outputs": [
        {
          "internalType": "bytes32",
          "name": "",
          "type": "bytes32"
        }
      ],
      "stateMutability": "view",
      "type": "function"
    },
    {
      "inputs": [],
      "name": "VERIFIER_ROLE",
      "outputs": [
        {
          "internalType": "bytes32",
          "name": "",
          "type": "bytes32"
        }
      ],
      "stateMutability": "view",
      "type": "function"
    },
    {
      "inputs": [
        {
          "internalType": "string",
          "name": "controllerName",
          "type": "string"
        },
        {
          "internalType": "address",
          "name": "controllerAddress",
          "type": "address"
        }
      ],
      "name": "addBadgeModelController",
      "outputs": [],
      "stateMutability": "nonpayable",
      "type": "function"
    },
    {
      "inputs": [
        {
          "internalType": "string",
          "name": "",
          "type": "string"
        }
      ],
      "name": "badgeModelControllers",
      "outputs": [
        {
          "internalType": "address",
          "name": "controller",
          "type": "address"
        },
        {
          "internalType": "bool",
          "name": "paused",
          "type": "bool"
        },
        {
          "internalType": "bool",
          "name": "initialized",
          "type": "bool"
        }
      ],
      "stateMutability": "view",
      "type": "function"
    },
    {
      "inputs": [
        {
          "internalType": "uint256",
          "name": "",
          "type": "uint256"
        }
      ],
      "name": "badgeModels",
      "outputs": [
        {
          "internalType": "address",
          "name": "creator",
          "type": "address"
        },
        {
          "internalType": "string",
          "name": "controllerName",
          "type": "string"
        },
        {
          "internalType": "bool",
          "name": "paused",
          "type": "bool"
        },
        {
          "internalType": "uint256",
          "name": "mintCreatorFee",
          "type": "uint256"
        },
        {
          "internalType": "uint256",
          "name": "validFor",
          "type": "uint256"
        },
        {
          "internalType": "uint256",
          "name": "mintProtocolFee",
          "type": "uint256"
        },
        {
          "internalType": "bool",
          "name": "initialized",
          "type": "bool"
        },
        {
          "internalType": "string",
          "name": "version",
          "type": "string"
        }
      ],
      "stateMutability": "view",
      "type": "function"
    },
    {
      "inputs": [
        {
          "internalType": "uint256",
          "name": "",
          "type": "uint256"
        },
        {
          "internalType": "address",
          "name": "",
          "type": "address"
        },
        {
          "internalType": "uint256",
          "name": "",
          "type": "uint256"
        }
      ],
      "name": "badgeModelsByAccount",
      "outputs": [
        {
          "internalType": "uint256",
          "name": "",
          "type": "uint256"
        }
      ],
      "stateMutability": "view",
      "type": "function"
    },
    {
      "inputs": [
        {
          "internalType": "uint256",
          "name": "",
          "type": "uint256"
        }
      ],
      "name": "badges",
      "outputs": [
        {
          "internalType": "uint256",
          "name": "badgeModelId",
          "type": "uint256"
        },
        {
          "internalType": "address",
          "name": "account",
          "type": "address"
        },
        {
          "internalType": "uint256",
          "name": "dueDate",
          "type": "uint256"
        },
        {
          "internalType": "bool",
          "name": "initialized",
          "type": "bool"
        }
      ],
      "stateMutability": "view",
      "type": "function"
    },
    {
      "inputs": [
        {
          "internalType": "address",
          "name": "account",
          "type": "address"
        },
        {
          "internalType": "uint256",
          "name": "badgeId",
          "type": "uint256"
        }
      ],
      "name": "balanceOf",
      "outputs": [
        {
          "internalType": "uint256",
          "name": "",
          "type": "uint256"
        }
      ],
      "stateMutability": "view",
      "type": "function"
    },
    {
      "inputs": [
        {
          "internalType": "address",
          "name": "account",
          "type": "address"
        },
        {
          "internalType": "uint256",
          "name": "badgeModelId",
          "type": "uint256"
        }
      ],
      "name": "balanceOfBadgeModel",
      "outputs": [
        {
          "internalType": "uint256",
          "name": "",
          "type": "uint256"
        }
      ],
      "stateMutability": "view",
      "type": "function"
    },
    {
      "inputs": [
        {
          "internalType": "address[]",
          "name": "accounts",
          "type": "address[]"
        },
        {
          "internalType": "uint256[]",
          "name": "ids",
          "type": "uint256[]"
        }
      ],
      "name": "balanceOfBatch",
      "outputs": [
        {
          "internalType": "uint256[]",
          "name": "",
          "type": "uint256[]"
        }
      ],
      "stateMutability": "view",
      "type": "function"
    },
    {
      "inputs": [
        {
          "internalType": "uint256",
          "name": "badgeId",
          "type": "uint256"
        },
        {
          "internalType": "bytes",
          "name": "data",
          "type": "bytes"
        }
      ],
      "name": "challenge",
      "outputs": [],
      "stateMutability": "payable",
      "type": "function"
    },
    {
      "inputs": [
        {
          "internalType": "uint256",
          "name": "badgeId",
          "type": "uint256"
        },
        {
          "internalType": "bytes",
          "name": "data",
          "type": "bytes"
        }
      ],
      "name": "claim",
      "outputs": [],
      "stateMutability": "nonpayable",
      "type": "function"
    },
    {
      "inputs": [
        {
          "components": [
            {
              "internalType": "string",
              "name": "metadata",
              "type": "string"
            },
            {
              "internalType": "string",
              "name": "controllerName",
              "type": "string"
            },
            {
              "internalType": "uint256",
              "name": "mintCreatorFee",
              "type": "uint256"
            },
            {
              "internalType": "uint256",
              "name": "validFor",
              "type": "uint256"
            }
          ],
          "internalType": "struct TheBadgeStore.CreateBadgeModel",
          "name": "args",
          "type": "tuple"
        },
        {
          "internalType": "bytes",
          "name": "data",
          "type": "bytes"
        }
      ],
      "name": "createBadgeModel",
      "outputs": [],
      "stateMutability": "payable",
      "type": "function"
    },
    {
      "inputs": [],
      "name": "createBadgeModelProtocolFee",
      "outputs": [
        {
          "internalType": "uint256",
          "name": "",
          "type": "uint256"
        }
      ],
      "stateMutability": "view",
      "type": "function"
    },
    {
      "inputs": [
        {
          "internalType": "address",
          "name": "_user",
          "type": "address"
        },
        {
          "internalType": "string",
          "name": "controllerName",
          "type": "string"
        },
        {
          "internalType": "bool",
          "name": "verify",
          "type": "bool"
        }
      ],
      "name": "executeUserVerification",
      "outputs": [],
      "stateMutability": "nonpayable",
      "type": "function"
    },
    {
      "inputs": [],
      "name": "feeCollector",
      "outputs": [
        {
          "internalType": "address",
          "name": "",
          "type": "address"
        }
      ],
      "stateMutability": "view",
      "type": "function"
    },
    {
      "inputs": [
        {
          "internalType": "uint256",
          "name": "badgeId",
          "type": "uint256"
        }
      ],
      "name": "getChallengeDepositValue",
      "outputs": [
        {
          "internalType": "uint256",
          "name": "",
          "type": "uint256"
        }
      ],
      "stateMutability": "view",
      "type": "function"
    },
    {
      "inputs": [
        {
          "internalType": "uint256",
          "name": "badgeId",
          "type": "uint256"
        }
      ],
      "name": "getRemovalDepositValue",
      "outputs": [
        {
          "internalType": "uint256",
          "name": "",
          "type": "uint256"
        }
      ],
      "stateMutability": "view",
      "type": "function"
    },
    {
      "inputs": [
        {
          "internalType": "bytes32",
          "name": "role",
          "type": "bytes32"
        }
      ],
      "name": "getRoleAdmin",
      "outputs": [
        {
          "internalType": "bytes32",
          "name": "",
          "type": "bytes32"
        }
      ],
      "stateMutability": "view",
      "type": "function"
    },
    {
      "inputs": [
        {
          "internalType": "string",
          "name": "controllerName",
          "type": "string"
        }
      ],
      "name": "getVerificationFee",
      "outputs": [
        {
          "internalType": "uint256",
          "name": "",
          "type": "uint256"
        }
      ],
      "stateMutability": "view",
      "type": "function"
    },
    {
      "inputs": [
        {
          "internalType": "bytes32",
          "name": "role",
          "type": "bytes32"
        },
        {
          "internalType": "address",
          "name": "account",
          "type": "address"
        }
      ],
      "name": "grantRole",
      "outputs": [],
      "stateMutability": "nonpayable",
      "type": "function"
    },
    {
      "inputs": [
        {
          "internalType": "bytes32",
          "name": "role",
          "type": "bytes32"
        },
        {
          "internalType": "address",
          "name": "account",
          "type": "address"
        }
      ],
      "name": "hasRole",
      "outputs": [
        {
          "internalType": "bool",
          "name": "",
          "type": "bool"
        }
      ],
      "stateMutability": "view",
      "type": "function"
    },
    {
      "inputs": [
        {
          "internalType": "address",
          "name": "admin",
          "type": "address"
        },
        {
          "internalType": "address",
          "name": "_feeCollector",
          "type": "address"
        },
        {
          "internalType": "address",
          "name": "minter",
          "type": "address"
        }
      ],
      "name": "initialize",
      "outputs": [],
      "stateMutability": "nonpayable",
      "type": "function"
    },
    {
      "inputs": [
        {
          "internalType": "address",
          "name": "account",
          "type": "address"
        },
        {
          "internalType": "address",
          "name": "operator",
          "type": "address"
        }
      ],
      "name": "isApprovedForAll",
      "outputs": [
        {
          "internalType": "bool",
          "name": "",
          "type": "bool"
        }
      ],
      "stateMutability": "view",
      "type": "function"
    },
    {
      "inputs": [
        {
          "internalType": "uint256",
          "name": "badgeModelId",
          "type": "uint256"
        }
      ],
      "name": "isBadgeModelSuspended",
      "outputs": [
        {
          "internalType": "bool",
          "name": "",
          "type": "bool"
        }
      ],
      "stateMutability": "view",
      "type": "function"
    },
    {
      "inputs": [
        {
          "internalType": "uint256",
          "name": "badgeId",
          "type": "uint256"
        }
      ],
      "name": "isExpired",
      "outputs": [
        {
          "internalType": "bool",
          "name": "",
          "type": "bool"
        }
      ],
      "stateMutability": "view",
      "type": "function"
    },
    {
      "inputs": [
        {
          "internalType": "uint256",
          "name": "badgeModelId",
          "type": "uint256"
        },
        {
          "internalType": "address",
          "name": "account",
          "type": "address"
        },
        {
          "internalType": "string",
          "name": "tokenURI",
          "type": "string"
        },
        {
          "internalType": "bytes",
          "name": "data",
          "type": "bytes"
        }
      ],
      "name": "mint",
      "outputs": [],
      "stateMutability": "payable",
      "type": "function"
    },
    {
      "inputs": [],
      "name": "mintBadgeProtocolDefaultFeeInBps",
      "outputs": [
        {
          "internalType": "uint256",
          "name": "",
          "type": "uint256"
        }
      ],
      "stateMutability": "view",
      "type": "function"
    },
    {
      "inputs": [
        {
          "internalType": "uint256",
          "name": "badgeModelId",
          "type": "uint256"
        }
      ],
      "name": "mintValue",
      "outputs": [
        {
          "internalType": "uint256",
          "name": "",
          "type": "uint256"
        }
      ],
      "stateMutability": "view",
      "type": "function"
    },
    {
      "inputs": [],
      "name": "pause",
      "outputs": [],
      "stateMutability": "nonpayable",
      "type": "function"
    },
    {
      "inputs": [],
      "name": "paused",
      "outputs": [
        {
          "internalType": "bool",
          "name": "",
          "type": "bool"
        }
      ],
      "stateMutability": "view",
      "type": "function"
    },
    {
      "inputs": [],
      "name": "proxiableUUID",
      "outputs": [
        {
          "internalType": "bytes32",
          "name": "",
          "type": "bytes32"
        }
      ],
      "stateMutability": "view",
      "type": "function"
    },
    {
      "inputs": [
        {
          "internalType": "string",
          "name": "_metadata",
          "type": "string"
        },
        {
          "internalType": "bool",
          "name": "_isCompany",
          "type": "bool"
        }
      ],
      "name": "registerUser",
      "outputs": [],
      "stateMutability": "payable",
      "type": "function"
    },
    {
      "inputs": [],
      "name": "registerUserProtocolFee",
      "outputs": [
        {
          "internalType": "uint256",
          "name": "",
          "type": "uint256"
        }
      ],
      "stateMutability": "view",
      "type": "function"
    },
    {
      "inputs": [
        {
          "internalType": "address",
          "name": "",
          "type": "address"
        }
      ],
      "name": "registeredUsers",
      "outputs": [
        {
          "internalType": "string",
          "name": "metadata",
          "type": "string"
        },
        {
          "internalType": "bool",
          "name": "isCompany",
          "type": "bool"
        },
        {
          "internalType": "bool",
          "name": "isCreator",
          "type": "bool"
        },
        {
          "internalType": "bool",
          "name": "suspended",
          "type": "bool"
        },
        {
          "internalType": "bool",
          "name": "initialized",
          "type": "bool"
        }
      ],
      "stateMutability": "view",
      "type": "function"
    },
    {
      "inputs": [
        {
          "internalType": "uint256",
          "name": "badgeId",
          "type": "uint256"
        },
        {
          "internalType": "bytes",
          "name": "data",
          "type": "bytes"
        }
      ],
      "name": "removeItem",
      "outputs": [],
      "stateMutability": "payable",
      "type": "function"
    },
    {
      "inputs": [],
      "name": "removeUser",
      "outputs": [],
      "stateMutability": "view",
      "type": "function"
    },
    {
      "inputs": [
        {
          "internalType": "bytes32",
          "name": "role",
          "type": "bytes32"
        },
        {
          "internalType": "address",
          "name": "account",
          "type": "address"
        }
      ],
      "name": "renounceRole",
      "outputs": [],
      "stateMutability": "nonpayable",
      "type": "function"
    },
    {
      "inputs": [
        {
          "internalType": "bytes32",
          "name": "role",
          "type": "bytes32"
        },
        {
          "internalType": "address",
          "name": "account",
          "type": "address"
        }
      ],
      "name": "revokeRole",
      "outputs": [],
      "stateMutability": "nonpayable",
      "type": "function"
    },
    {
      "inputs": [
        {
          "internalType": "address",
          "name": "from",
          "type": "address"
        },
        {
          "internalType": "address",
          "name": "to",
          "type": "address"
        },
        {
          "internalType": "uint256[]",
          "name": "ids",
          "type": "uint256[]"
        },
        {
          "internalType": "uint256[]",
          "name": "amounts",
          "type": "uint256[]"
        },
        {
          "internalType": "bytes",
          "name": "data",
          "type": "bytes"
        }
      ],
      "name": "safeBatchTransferFrom",
      "outputs": [],
      "stateMutability": "nonpayable",
      "type": "function"
    },
    {
      "inputs": [
        {
          "internalType": "address",
          "name": "from",
          "type": "address"
        },
        {
          "internalType": "address",
          "name": "to",
          "type": "address"
        },
        {
          "internalType": "uint256",
          "name": "id",
          "type": "uint256"
        },
        {
          "internalType": "uint256",
          "name": "amount",
          "type": "uint256"
        },
        {
          "internalType": "bytes",
          "name": "data",
          "type": "bytes"
        }
      ],
      "name": "safeTransferFrom",
      "outputs": [],
      "stateMutability": "nonpayable",
      "type": "function"
    },
    {
      "inputs": [
        {
          "internalType": "address",
          "name": "operator",
          "type": "address"
        },
        {
          "internalType": "bool",
          "name": "approved",
          "type": "bool"
        }
      ],
      "name": "setApprovalForAll",
      "outputs": [],
      "stateMutability": "nonpayable",
      "type": "function"
    },
    {
      "inputs": [
        {
          "internalType": "uint256",
          "name": "badgeId",
          "type": "uint256"
        },
        {
          "internalType": "bytes",
          "name": "data",
          "type": "bytes"
        }
      ],
      "name": "submitEvidence",
      "outputs": [],
      "stateMutability": "nonpayable",
      "type": "function"
    },
    {
      "inputs": [
        {
          "internalType": "string",
          "name": "controllerName",
          "type": "string"
        },
        {
          "internalType": "string",
          "name": "evidenceUri",
          "type": "string"
        }
      ],
      "name": "submitUserVerification",
      "outputs": [],
      "stateMutability": "payable",
      "type": "function"
    },
    {
      "inputs": [
        {
          "internalType": "bytes4",
          "name": "interfaceId",
          "type": "bytes4"
        }
      ],
      "name": "supportsInterface",
      "outputs": [
        {
          "internalType": "bool",
          "name": "",
          "type": "bool"
        }
      ],
      "stateMutability": "view",
      "type": "function"
    },
    {
      "inputs": [],
      "name": "suspendBadgeModel",
      "outputs": [],
      "stateMutability": "view",
      "type": "function"
    },
    {
      "inputs": [
        {
          "internalType": "address",
          "name": "_user",
          "type": "address"
        },
        {
          "internalType": "bool",
          "name": "suspended",
          "type": "bool"
        }
      ],
      "name": "suspendUser",
      "outputs": [],
      "stateMutability": "nonpayable",
      "type": "function"
    },
    {
      "inputs": [],
      "name": "unpause",
      "outputs": [],
      "stateMutability": "nonpayable",
      "type": "function"
    },
    {
      "inputs": [
        {
          "internalType": "uint256",
          "name": "badgeModelId",
          "type": "uint256"
        },
        {
          "internalType": "uint256",
          "name": "mintCreatorFee",
          "type": "uint256"
        },
        {
          "internalType": "bool",
          "name": "paused",
          "type": "bool"
        }
      ],
      "name": "updateBadgeModel",
      "outputs": [],
      "stateMutability": "nonpayable",
      "type": "function"
    },
    {
      "inputs": [
        {
          "internalType": "uint256",
          "name": "badgeModelId",
          "type": "uint256"
        },
        {
          "internalType": "uint256",
          "name": "feeInBps",
          "type": "uint256"
        }
      ],
      "name": "updateBadgeModelProtocolFee",
      "outputs": [],
      "stateMutability": "nonpayable",
      "type": "function"
    },
    {
      "inputs": [
        {
          "internalType": "uint256",
          "name": "_createBadgeModelValue",
          "type": "uint256"
        }
      ],
      "name": "updateCreateBadgeModelProtocolFee",
      "outputs": [],
      "stateMutability": "nonpayable",
      "type": "function"
    },
    {
      "inputs": [
        {
          "internalType": "uint256",
          "name": "_mintBadgeDefaultFee",
          "type": "uint256"
        }
      ],
      "name": "updateMintBadgeDefaultProtocolFee",
      "outputs": [],
      "stateMutability": "nonpayable",
      "type": "function"
    },
    {
      "inputs": [
        {
          "internalType": "uint256",
          "name": "_registerCreatorValue",
          "type": "uint256"
        }
      ],
      "name": "updateRegisterCreatorProtocolFee",
      "outputs": [],
      "stateMutability": "nonpayable",
      "type": "function"
    },
    {
      "inputs": [
        {
          "internalType": "address",
          "name": "_user",
          "type": "address"
        },
        {
          "internalType": "string",
          "name": "_metadata",
          "type": "string"
        }
      ],
      "name": "updateUser",
      "outputs": [],
      "stateMutability": "nonpayable",
      "type": "function"
    },
    {
      "inputs": [
        {
          "internalType": "address",
          "name": "newImplementation",
          "type": "address"
        }
      ],
      "name": "upgradeTo",
      "outputs": [],
      "stateMutability": "nonpayable",
      "type": "function"
    },
    {
      "inputs": [
        {
          "internalType": "address",
          "name": "newImplementation",
          "type": "address"
        },
        {
          "internalType": "bytes",
          "name": "data",
          "type": "bytes"
        }
      ],
      "name": "upgradeToAndCall",
      "outputs": [],
      "stateMutability": "payable",
      "type": "function"
    },
    {
      "inputs": [
        {
          "internalType": "uint256",
          "name": "badgeId",
          "type": "uint256"
        }
      ],
      "name": "uri",
      "outputs": [
        {
          "internalType": "string",
          "name": "",
          "type": "string"
        }
      ],
      "stateMutability": "view",
      "type": "function"
    },
    {
      "stateMutability": "payable",
      "type": "receive"
    }
  ],
  "bytecode": "0x60a0604052306080523480156200001557600080fd5b506200002062000026565b620000e7565b600054610100900460ff1615620000935760405162461bcd60e51b815260206004820152602760248201527f496e697469616c697a61626c653a20636f6e747261637420697320696e697469604482015266616c697a696e6760c81b606482015260840160405180910390fd5b60005460ff90811614620000e5576000805460ff191660ff9081179091556040519081527f7f26b83ff96e1f2b6a682f133852f6798a09c465da95921460cefb38474024989060200160405180910390a15b565b608051615f136200011f6000396000818161178c015281816117cc01528181611e3001528181611e700152611eff0152615f136000f3fe6080604052600436106103b05760003560e01c806391d14854116101e7578063cb22dfcb1161010d578063e71de048116100a0578063f1fe717e1161006f578063f1fe717e14610c0a578063f242432a14610c2a578063f72c0d8b14610c4a578063f944f4c7146105cc57600080fd5b8063e71de04814610b4d578063e7705db614610b6d578063e985e9c514610ba1578063ede37dd414610bea57600080fd5b8063d9548e53116100dc578063d9548e5314610ad4578063e181865114610af4578063e63ab1e914610b14578063e70a0e6914610b3657600080fd5b8063cb22dfcb14610a40578063d539139314610a60578063d547741f14610a94578063d7deba1514610ab457600080fd5b8063b088981911610185578063c1d1884011610154578063c1d18840146109b4578063c227fb11146109c7578063c415b95c146109e7578063c5a3c7ca14610a2057600080fd5b8063b088981914610934578063c0a39d1214610954578063c0c53b8b14610974578063c1b8c5f11461099457600080fd5b80639faf7158116101c15780639faf7158146108d9578063a03aafbf146108ec578063a217fddf146108ff578063a22cb4651461091457600080fd5b806391d148541461081f57806393c7a71b1461083f57806398e36d8b1461085f57600080fd5b806346c45758116102d7578063632f7c831161026a5780637eb7f176116102395780637eb7f176146107a35780637f345710146107c3578063828efb25146107f75780638456cb591461080a57600080fd5b8063632f7c83146106d957806364d8baef146106f95780637333b3751461071057806379b233db1461079057600080fd5b806352d1902d116102a657806352d1902d146106585780635c3736f11461066d5780635c975abb1461068d57806362a2a47c146106a557600080fd5b806346c45758146105e15780634e1273f4146106015780634e5eceae1461062e5780634f1ef2861461064557600080fd5b80632eb2c2d61161034f5780633659cfe61161031e5780633659cfe61461057757806338926b6d146105975780633f4ba83a146105b757806341954e09146105cc57600080fd5b80632eb2c2d6146104e35780632f2ff15d14610503578063302b01801461052357806336568abe1461055757600080fd5b80630e89341c1161038b5780630e89341c146104505780631adb76821461047d5780631b6cd6671461049f578063248a9ca3146104b257600080fd5b8062fdd58e146103bc57806301ffc9a7146103ef5780630e50cee51461041f57600080fd5b366103b757005b600080fd5b3480156103c857600080fd5b506103dc6103d7366004614bcc565b610c7e565b6040519081526020015b60405180910390f35b3480156103fb57600080fd5b5061040f61040a366004614c0c565b610f64565b60405190151581526020016103e6565b34801561042b57600080fd5b5061043f61043a366004614c29565b610f6f565b6040516103e6959493929190614c94565b34801561045c57600080fd5b5061047061046b366004614ccd565b611033565b6040516103e69190614ce6565b34801561048957600080fd5b5061049d610498366004614d07565b61103e565b005b61049d6104ad366004614e1a565b6111c3565b3480156104be57600080fd5b506103dc6104cd366004614ccd565b600090815261015f602052604090206001015490565b3480156104ef57600080fd5b5061049d6104fe366004614f11565b61151e565b34801561050f57600080fd5b5061049d61051e366004614fba565b611573565b34801561052f57600080fd5b5061054361053e366004614ccd565b61159e565b6040516103e6989796959493929190614fe6565b34801561056357600080fd5b5061049d610572366004614fba565b611704565b34801561058357600080fd5b5061049d610592366004614c29565b611782565b3480156105a357600080fd5b5061049d6105b2366004615050565b611861565b3480156105c357600080fd5b5061049d6119a4565b3480156105d857600080fd5b5061049d6119c4565b3480156105ed57600080fd5b506103dc6105fc366004614bcc565b6119e8565b34801561060d57600080fd5b5061062161061c3660046150cb565b611cfd565b6040516103e691906151c6565b34801561063a57600080fd5b506103dc6101955481565b61049d6106533660046151d9565b611e26565b34801561066457600080fd5b506103dc611ef2565b34801561067957600080fd5b5061049d61068836600461521c565b611fa6565b34801561069957600080fd5b5060c95460ff1661040f565b3480156106b157600080fd5b506103dc7f2dca0f5ce7e75a4b43fe2b0d6f5d0b7a2bf92ecf89f8f0aa17b8308b6703882181565b3480156106e557600080fd5b506103dc6106f4366004614ccd565b61206c565b34801561070557600080fd5b506103dc6101945481565b34801561071c57600080fd5b5061076961072b366004615253565b805180820160209081018051610198825292820191909301209152546001600160a01b0381169060ff600160a01b8204811691600160a81b90041683565b604080516001600160a01b03909416845291151560208401521515908201526060016103e6565b61049d61079e366004615287565b612153565b3480156107af57600080fd5b506103dc6107be366004614ccd565b612262565b3480156107cf57600080fd5b506103dc7f7804d923f43a17d325d77e781528e0793b2edd9890ab45fc64efd7b4b427744c81565b61049d6108053660046152cd565b612323565b34801561081657600080fd5b5061049d612717565b34801561082b57600080fd5b5061040f61083a366004614fba565b612737565b34801561084b57600080fd5b5061049d61085a366004615050565b612763565b34801561086b57600080fd5b506108af61087a366004614ccd565b61019a60205260009081526040902080546001820154600283015460039093015491926001600160a01b039091169160ff1684565b604080519485526001600160a01b03909316602085015291830152151560608201526080016103e6565b61049d6108e7366004615050565b6127d8565b61049d6108fa366004615050565b61288a565b34801561090b57600080fd5b506103dc600081565b34801561092057600080fd5b5061049d61092f36600461521c565b612901565b34801561094057600080fd5b5061049d61094f3660046151d9565b61290c565b34801561096057600080fd5b5061049d61096f366004615385565b6129ac565b34801561098057600080fd5b5061049d61098f3660046153c9565b612b1f565b3480156109a057600080fd5b5061049d6109af36600461540c565b612d5f565b61049d6109c2366004615462565b612f3b565b3480156109d357600080fd5b5061040f6109e2366004614ccd565b613457565b3480156109f357600080fd5b5061019654610a08906001600160a01b031681565b6040516001600160a01b0390911681526020016103e6565b348015610a2c57600080fd5b5061049d610a3b366004614ccd565b6134d3565b348015610a4c57600080fd5b506103dc610a5b3660046154df565b613511565b348015610a6c57600080fd5b506103dc7f9f2df0fed2c77648de5860a4cc508cd0818c85b8b8a1ab4ceeef8d981c8956a681565b348015610aa057600080fd5b5061049d610aaf366004614fba565b613550565b348015610ac057600080fd5b506103dc610acf366004614ccd565b613576565b348015610ae057600080fd5b5061040f610aef366004614ccd565b6135ec565b348015610b0057600080fd5b5061049d610b0f366004614ccd565b61367c565b348015610b2057600080fd5b506103dc600080516020615e9783398151915281565b348015610b4257600080fd5b506103dc6101935481565b348015610b5957600080fd5b506103dc610b68366004615253565b6136ba565b348015610b7957600080fd5b506103dc7f0ce23c3e399818cfee81a7ab0880f714e53d7672b08df0fa62f2843416e1ea0981565b348015610bad57600080fd5b5061040f610bbc366004615514565b6001600160a01b03918216600090815260666020908152604080832093909416825291909152205460ff1690565b348015610bf657600080fd5b5061049d610c0536600461553e565b6137f5565b348015610c1657600080fd5b5061049d610c25366004614ccd565b613870565b348015610c3657600080fd5b5061049d610c45366004615560565b6138ae565b348015610c5657600080fd5b506103dc7f189ab7a9244df0848122154315af71fe140f3db0fe014031783b0946b8c9d2e381565b600081815261019a6020908152604080832081516080810183528154815260018201546001600160a01b0316938101939093526002810154918301919091526003015460ff16158015606083015280610ced5750836001600160a01b031681602001516001600160a01b031614155b15610cfc576000915050610f5e565b610d05836135ec565b1515600103610d18576000915050610f5e565b80516000908152610199602090815260408083208151610100810190925280546001600160a01b031682526001810180549293919291840191610d5a906155c4565b80601f0160208091040260200160405190810160405280929190818152602001828054610d86906155c4565b8015610dd35780601f10610da857610100808354040283529160200191610dd3565b820191906000526020600020905b815481529060010190602001808311610db657829003601f168201915b5050509183525050600282015460ff90811615156020830152600383015460408301526004830154606083015260058301546080830152600683015416151560a082015260078201805460c090920191610e2c906155c4565b80601f0160208091040260200160405190810160405280929190818152602001828054610e58906155c4565b8015610ea55780601f10610e7a57610100808354040283529160200191610ea5565b820191906000526020600020905b815481529060010190602001808311610e8857829003601f168201915b505050505081525050905060006101988260200151604051610ec791906155fe565b90815260405190819003602001812054631174806160e11b82526001600160a01b0316915081906322e900c290610f0690889060040190815260200190565b602060405180830381865afa158015610f23573d6000803e3d6000fd5b505050506040513d601f19601f82011682018060405250810190610f47919061561a565b610f52576000610f55565b60015b60ff1693505050505b92915050565b6000610f5e826138f3565b61019760205260009081526040902080548190610f8b906155c4565b80601f0160208091040260200160405190810160405280929190818152602001828054610fb7906155c4565b80156110045780601f10610fd957610100808354040283529160200191611004565b820191906000526020600020905b815481529060010190602001808311610fe757829003601f168201915b5050506001909301549192505060ff808216916101008104821691620100008204811691630100000090041685565b6060610f5e82613918565b33600090815261019760209081526040808320868452610199909252909120815485929190829061106e906155c4565b905060000361109057604051638fcc03fd60e01b815260040160405180910390fd5b6001820154610100900460ff1615156000036110bf57604051638fcc03fd60e01b815260040160405180910390fd5b60018281015462010000900460ff16151590036110ef5760405163401d786960e11b815260040160405180910390fd5b80546001600160a01b031661111757604051638fa97ef960e01b815260040160405180910390fd5b80546001600160a01b031633146111415760405163806ecc4960e01b815260040160405180910390fd5b60008681526101996020526040902080546001600160a01b0316611178576040516336f7ce4f60e11b815260040160405180910390fd5b6003810186905560028101805460ff191686151517905560405187907fc7fe3866a4edc843062ecfa12604d4a6686605fb2bd8a2323d96dc40c08d9e3d90600090a250505050505050565b33600081815261019760205260409020805481906111e0906155c4565b90506000036112025760405163ce848fe360e01b815260040160405180910390fd5b8360006101988260405161121691906155fe565b90815260405190819003602001902080549091506001600160a01b03166112505760405163014eb98760e11b815260040160405180910390fd5b8054600160a81b900460ff16151560000361127e5760405163014eb98760e11b815260040160405180910390fd5b8054600160a01b900460ff16156112a85760405163526e73a560e01b815260040160405180910390fd5b6000610198876040516112bb91906155fe565b90815260200160405180910390209050600061019760006112d93390565b6001600160a01b03166001600160a01b03168152602001908152602001600020905060008260000160009054906101000a90046001600160a01b03166001600160a01b0316637657dbdd6040518163ffffffff1660e01b8152600401602060405180830381865afa158015611352573d6000803e3d6000fd5b505050506040513d601f19601f820116820180604052508101906113769190615637565b90508034146113985760405163e1d94b7f60e01b815260040160405180910390fd5b341561146557610196546040516000916001600160a01b03169034908381818185875af1925050503d80600081146113ec576040519150601f19603f3d011682016040523d82523d6000602084013e6113f1565b606091505b5090915050801515600003611419576040516331eb874960e21b815260040160405180910390fd5b6003610196546001600160a01b03167fe58f92f9fd22c427458b9ef3a40b2cbab88a51d9302434b2ec430b01a4ebe78d348d3360405161145b93929190615650565b60405180910390a3505b8254604051635ad433fd60e11b81526001600160a01b039091169063b5a867fa9061149890339086908d906004016156fe565b600060405180830381600087803b1580156114b257600080fd5b505af11580156114c6573d6000803e3d6000fd5b505050506114d13390565b6001600160a01b03167fb17b7f220d392b3fac92feead39a937412996860f3aacd51a13f9271239df651898b60405161150b929190615734565b60405180910390a2505050505050505050565b6001600160a01b03851633148061153a575061153a8533610bbc565b61155f5760405162461bcd60e51b815260040161155690615759565b60405180910390fd5b61156c85858585856139f7565b5050505050565b600082815261015f602052604090206001015461158f81613be5565b6115998383613bef565b505050565b61019960205260009081526040902080546001820180546001600160a01b0390921692916115cb906155c4565b80601f01602080910402602001604051908101604052809291908181526020018280546115f7906155c4565b80156116445780601f1061161957610100808354040283529160200191611644565b820191906000526020600020905b81548152906001019060200180831161162757829003601f168201915b50505060028401546003850154600486015460058701546006880154600789018054989960ff9687169995985093965091941692611681906155c4565b80601f01602080910402602001604051908101604052809291908181526020018280546116ad906155c4565b80156116fa5780601f106116cf576101008083540402835291602001916116fa565b820191906000526020600020905b8154815290600101906020018083116116dd57829003601f168201915b5050505050905088565b6001600160a01b03811633146117745760405162461bcd60e51b815260206004820152602f60248201527f416363657373436f6e74726f6c3a2063616e206f6e6c792072656e6f756e636560448201526e103937b632b9903337b91039b2b63360891b6064820152608401611556565b61177e8282613c76565b5050565b6001600160a01b037f00000000000000000000000000000000000000000000000000000000000000001630036117ca5760405162461bcd60e51b8152600401611556906157a7565b7f00000000000000000000000000000000000000000000000000000000000000006001600160a01b0316611813600080516020615e77833981519152546001600160a01b031690565b6001600160a01b0316146118395760405162461bcd60e51b8152600401611556906157f3565b61184281613cde565b6040805160008082526020820190925261185e91839190613d08565b50565b600061186c84613e73565b60008181526101996020526040808220905192935091610198906118949060018501906158b2565b90815260405190819003602001812080546389610a0960e01b83529092506001600160a01b03169081906389610a09906118d6908a9060040190815260200190565b602060405180830381865afa1580156118f3573d6000803e3d6000fd5b505050506040513d601f19601f82011682018060405250810190611917919061561a565b151560000361193957604051632edd9d0f60e21b815260040160405180910390fd5b6040516338926b6d60e01b81526001600160a01b038216906338926b6d90611969908a908a908a906004016158be565b600060405180830381600087803b15801561198357600080fd5b505af1158015611997573d6000803e3d6000fd5b5050505050505050505050565b600080516020615e978339815191526119bc81613be5565b61185e613eec565b60006119cf81613be5565b60405163aaa2c00360e01b815260040160405180910390fd5b600081815261019b602090815260408083206001600160a01b03861684529091528120548103611a1a57506000610f5e565b6000828152610199602090815260408083208151610100810190925280546001600160a01b031682526001810180549293919291840191611a5a906155c4565b80601f0160208091040260200160405190810160405280929190818152602001828054611a86906155c4565b8015611ad35780601f10611aa857610100808354040283529160200191611ad3565b820191906000526020600020905b815481529060010190602001808311611ab657829003601f168201915b5050509183525050600282015460ff90811615156020830152600383015460408301526004830154606083015260058301546080830152600683015416151560a082015260078201805460c090920191611b2c906155c4565b80601f0160208091040260200160405190810160405280929190818152602001828054611b58906155c4565b8015611ba55780601f10611b7a57610100808354040283529160200191611ba5565b820191906000526020600020905b815481529060010190602001808311611b8857829003601f168201915b505050505081525050905060006101988260200151604051611bc791906155fe565b908152604051908190036020019020546001600160a01b031690506000805b600086815261019b602090815260408083206001600160a01b038b168452909152902054811015611cf357600086815261019b602090815260408083206001600160a01b038b1684529091528120805483908110611c4657611c466158f4565b90600052602060002001549050611c5c816135ec565b158015611ccd5750604051631174806160e11b8152600481018290526001600160a01b038516906322e900c290602401602060405180830381865afa158015611ca9573d6000803e3d6000fd5b505050506040513d601f19601f82011682018060405250810190611ccd919061561a565b15611ce05782611cdc81615920565b9350505b5080611ceb81615920565b915050611be6565b5095945050505050565b60608151835114611d625760405162461bcd60e51b815260206004820152602960248201527f455243313135353a206163636f756e747320616e6420696473206c656e677468604482015268040dad2e6dac2e8c6d60bb1b6064820152608401611556565b600083516001600160401b03811115611d7d57611d7d614d40565b604051908082528060200260200182016040528015611da6578160200160208202803683370190505b50905060005b8451811015611e1e57611df1858281518110611dca57611dca6158f4565b6020026020010151858381518110611de457611de46158f4565b6020026020010151610c7e565b828281518110611e0357611e036158f4565b6020908102919091010152611e1781615920565b9050611dac565b509392505050565b6001600160a01b037f0000000000000000000000000000000000000000000000000000000000000000163003611e6e5760405162461bcd60e51b8152600401611556906157a7565b7f00000000000000000000000000000000000000000000000000000000000000006001600160a01b0316611eb7600080516020615e77833981519152546001600160a01b031690565b6001600160a01b031614611edd5760405162461bcd60e51b8152600401611556906157f3565b611ee682613cde565b61177e82826001613d08565b6000306001600160a01b037f00000000000000000000000000000000000000000000000000000000000000001614611f925760405162461bcd60e51b815260206004820152603860248201527f555550535570677261646561626c653a206d757374206e6f742062652063616c60448201527f6c6564207468726f7567682064656c656761746563616c6c00000000000000006064820152608401611556565b50600080516020615e778339815191525b90565b600080516020615e97833981519152611fbe81613be5565b6001600160a01b03831660009081526101976020526040902080548190611fe4906155c4565b9050600003612006576040516365553c4160e11b815260040160405180910390fd5b600181018054841515620100000262ff0000199091161790556040516001600160a01b038516907fa5dd1b7cc91fa979b70f8170877e4713bf08ef8b6d8fe184c4cf31873f2b0af79061205e90861515815260200190565b60405180910390a250505050565b60008181526101996020526040812080546001600160a01b03166120a3576040516336f7ce4f60e11b815260040160405180910390fd5b6000610198826001016040516120b991906158b2565b90815260405190819003602001812054600384015463632f7c8360e01b83526001600160a01b03909116925090829063632f7c839061210090889060040190815260200190565b602060405180830381865afa15801561211d573d6000803e3d6000fd5b505050506040513d601f19601f820116820180604052508101906121419190615637565b61214b9190615939565b949350505050565b61019354341461217657604051638c77ddf360e01b815260040160405180910390fd5b34156121b857610196546040516001600160a01b03909116903480156108fc02916000818181858888f193505050501580156121b6573d6000803e3d6000fd5b505b33600090815261019760205260409020805481906121d5906155c4565b1590506121f55760405163096bb4a360e41b815260040160405180910390fd5b806122008482615992565b5060018101805463ffffff00198415151663ffffffff1990911617630100000017905560405133907f48cac28ad4dc618e15f4c2dd5e97751182f166de97b25618318b2112aa951a2f90612255908490615a51565b60405180910390a2505050565b60008061226e83613e73565b60008181526101996020526040808220905192935091610198906122969060018501906158b2565b9081526040519081900360200181208054633f5bf8bb60e11b83529092506001600160a01b0316908190637eb7f176906122d890899060040190815260200190565b602060405180830381865afa1580156122f5573d6000803e3d6000fd5b505050506040513d601f19601f820116820180604052508101906123199190615637565b9695505050505050565b3360008181526101976020526040902080548190612340906155c4565b90506000036123625760405163ce848fe360e01b815260040160405180910390fd5b836020015160006101988260405161237a91906155fe565b90815260405190819003602001902080549091506001600160a01b03166123b45760405163014eb98760e11b815260040160405180910390fd5b8054600160a81b900460ff1615156000036123e25760405163014eb98760e11b815260040160405180910390fd5b8054600160a01b900460ff161561240c5760405163526e73a560e01b815260040160405180910390fd5b610194543410156124305760405163043f7a7d60e21b815260040160405180910390fd5b341561247257610196546040516001600160a01b03909116903480156108fc02916000818181858888f19350505050158015612470573d6000803e3d6000fd5b505b6040518061010001604052806124853390565b6001600160a01b0316815260200187602001518152602001600015158152602001876040015181526020018760600151815260200161019554815260200160011515815260200160405180604001604052806006815260200165076312e302e360d41b81525081525061019960006124fd6101915490565b8152602080820192909252604001600020825181546001600160a01b0319166001600160a01b0390911617815590820151600182019061253d9082615992565b50604082015160028201805491151560ff19928316179055606083015160038301556080830151600483015560a0830151600583015560c08301516006830180549115159190921617905560e0820151600782019061259c9082615992565b50905050600061019760006125ae3390565b6001600160a01b03168152602081019190915260400160009081206001810154909250610100900460ff161515900361262f5760018101805461ff0019166101001790556125f93390565b6001600160a01b03167f177b4e655e9aaf45f5db25b396dfba96e0152f6adcf5d9a3e7d07276431d42e760405160405180910390a25b6101915487516040517f584274d31df3e2cf85a9d6dfaf82b219994725ca486f214ef93fbec2d054dca09161266391614ce6565b60405180910390a26000610198886020015160405161268291906155fe565b90815260405190819003602001902080549091506001600160a01b03166377a3989e6126ae6101915490565b896040518363ffffffff1660e01b81526004016126cc929190615a64565b600060405180830381600087803b1580156126e657600080fd5b505af11580156126fa573d6000803e3d6000fd5b5050505061270d61019180546001019055565b5050505050505050565b600080516020615e9783398151915261272f81613be5565b61185e613f3e565b600091825261015f602090815260408084206001600160a01b0393909316845291905290205460ff1690565b600061276e84613e73565b60008181526101996020526040808220905192935091610198906127969060018501906158b2565b90815260405190819003602001812080546393c7a71b60e01b83529092506001600160a01b03169081906393c7a71b90611969908a908a908a906004016158be565b60006127e384613e73565b600081815261019960205260408082209051929350916101989061280b9060018501906158b2565b90815260405190819003602001812080546313f5ee2b60e31b83529092506001600160a01b0316908190639faf715890349061284f908b908b908b906004016158be565b6000604051808303818588803b15801561286857600080fd5b505af115801561287c573d6000803e3d6000fd5b505050505050505050505050565b600061289584613e73565b60008181526101996020526040808220905192935091610198906128bd9060018501906158b2565b908152604051908190036020018120805463a03aafbf60e01b83529092506001600160a01b031690819063a03aafbf90349061284f908b908b908b906004016158be565b61177e338383613f7b565b600061291781613be5565b6001600160a01b0383166000908152610197602052604090208054819061293d906155c4565b905060000361295f576040516365553c4160e11b815260040160405180910390fd5b82511561297357806129718482615992565b505b836001600160a01b03167f27b5c94d9f8b261dfd5dec383097c08078a601638f37efe2dfcf93d12a3b047d8460405161205e9190614ce6565b60006129b781613be5565b6000610198846040516129ca91906155fe565b9081526020016040518091039020905083516000036129fc57604051635f0b636f60e11b815260040160405180910390fd5b6001600160a01b038316612a235760405163930b449560e01b815260040160405180910390fd5b80546001600160a01b031615612a4c57604051631192a36960e31b815260040160405180910390fd5b604080516060810182526001600160a01b038516815260006020820152600181830152905161019890612a809087906155fe565b908152604080519182900360209081018320845181549286015195909301511515600160a81b0260ff60a81b19951515600160a01b026001600160a81b03199093166001600160a01b039485161792909217949094161790925590841690612ae99086906155fe565b604051908190038120907fe5593a32c4e8802f5034c3eb5fb2d05210d31e05841af6500e5cac618d29605f90600090a350505050565b600054610100900460ff1615808015612b3f5750600054600160ff909116105b80612b595750303b158015612b59575060005460ff166001145b612bbc5760405162461bcd60e51b815260206004820152602e60248201527f496e697469616c697a61626c653a20636f6e747261637420697320616c72656160448201526d191e481a5b9a5d1a585b1a5e995960921b6064820152608401611556565b6000805460ff191660011790558015612bdf576000805461ff0019166101001790555b612bf760405180602001604052806000815250613f94565b612bff613fc4565b612c07613fed565b612c0f613fc4565b612c1a600085613bef565b612c32600080516020615e9783398151915233613bef565b612c5c7f9f2df0fed2c77648de5860a4cc508cd0818c85b8b8a1ab4ceeef8d981c8956a683613bef565b612c867f189ab7a9244df0848122154315af71fe140f3db0fe014031783b0946b8c9d2e333613bef565b612cb07f0ce23c3e399818cfee81a7ab0880f714e53d7672b08df0fa62f2843416e1ea0985613bef565b61019680546001600160a01b0319166001600160a01b038581169190911790915560006101938190556101948190556103e861019555604051848316928716917fdc90fed0326ba91706deeac7eb34ac9f8b680734f9d782864dc29704d23bed6a91a38015612d59576000805461ff0019169055604051600181527f7f26b83ff96e1f2b6a682f133852f6798a09c465da95921460cefb38474024989060200160405180910390a15b50505050565b7f0ce23c3e399818cfee81a7ab0880f714e53d7672b08df0fa62f2843416e1ea09612d8981613be5565b82600061019882604051612d9d91906155fe565b90815260405190819003602001902080549091506001600160a01b0316612dd75760405163014eb98760e11b815260040160405180910390fd5b8054600160a81b900460ff161515600003612e055760405163014eb98760e11b815260040160405180910390fd5b8054600160a01b900460ff1615612e2f5760405163526e73a560e01b815260040160405180910390fd5b6001600160a01b03861660009081526101976020526040902080548791908190612e58906155c4565b9050600003612e7a5760405163ce848fe360e01b815260040160405180910390fd5b600061019888604051612e8d91906155fe565b908152604051908190036020018120805463130bd93f60e01b83526001600160a01b038c811660048501528a15156024850152919350169063130bd93f90604401600060405180830381600087803b158015612ee857600080fd5b505af1158015612efc573d6000803e3d6000fd5b50505050886001600160a01b03167fdea1140938dde90016dc539563f1fa2f3f675e2cdee8d0c6a7999e1830cc81be898960405161150b929190615a7d565b60008481526101996020526040808220905186929061019890612f629060018501906158b2565b9081526040805160209281900383019020805485546001600160a01b03908116600081815261019790965293909420919450929092169190612fb7576040516385a6706360e01b815260040160405180910390fd5b60018181015462010000900460ff1615159003612fe75760405163a800bb9d60e01b815260040160405180910390fd5b600284015460ff161561300d57604051635d71fd6f60e01b815260040160405180910390fd5b8254600160a01b900460ff161561303757604051631bd063c360e01b815260040160405180910390fd5b6000898152610199602052604080822090518b9289928c92909190610198906130649060018501906158b2565b90815260405190819003602001902080549091506001600160a01b031661308a8661206c565b3410156130aa576040516393fda7e360e01b815260040160405180910390fd5b6003830154156132645760006130c88460030154856005015461401c565b905060008185600301546130dc9190615aa1565b610196546040519192506000916001600160a01b039091169084908381818185875af1925050503d806000811461312f576040519150601f19603f3d011682016040523d82523d6000602084013e613134565b606091505b509091505080151560000361315c576040516372f7724f60e01b815260040160405180910390fd5b886000610196546040518681526001600160a01b03909116907fd18793644b4cb4ec0f937f8153dc09112d762775084c0ae5b4c21a7b91f6909f9060200160405180910390a485546040516000916001600160a01b03169084908381818185875af1925050503d80600081146131ee576040519150601f19603f3d011682016040523d82523d6000602084013e6131f3565b606091505b509091505080151560000361321b57604051633b50281160e11b815260040160405180910390fd5b89600188546040518681526001600160a01b03909116907fd18793644b4cb4ec0f937f8153dc09112d762775084c0ae5b4c21a7b91f6909f9060200160405180910390a4505050505b60006132706101925490565b905061327c818f614061565b6132a38582600160405180604001604052806002815260200161060f60f31b8152506140be565b600084600401546000146132c55760048501546132c09042615939565b6132c8565b60005b604080516080810182528a81526001600160a01b03898116602080840182815284860187815260016060870181815260008c815261019a865289812098518955935188830180546001600160a01b0319169189169190911790559151600288015590516003968701805460ff19169115159190911790558f825261019b83528682209382529282529485208054928301815585528420018690559088015492935090919085169063731133e99061337f9034615aa1565b338c878d6040518663ffffffff1660e01b81526004016133a29493929190615ab4565b60206040518083038185885af11580156133c0573d6000803e3d6000fd5b50505050506040513d601f19601f820116820180604052508101906133e59190615637565b90506133f661019280546001019055565b8454604080516001600160a01b039283168152602081018490529189169185918c917f186b125f639893ac3dcb02d857d0fd29319e8f764fd26f4a77310e8c678fbbd0910160405180910390a4505050505050505050505050505050505050565b60008181526101996020526040812080546001600160a01b031661348e576040516336f7ce4f60e11b815260040160405180910390fd5b80546001600160a01b031660009081526101976020526040902060018082015462010000900460ff16151590036134c9575060019392505050565b5060009392505050565b60006134de81613be5565b6101948290556040517f810f1720fbc34c56d171f89315ad21708648fd17424c27b88fa208409845aa7790600090a15050565b61019b602052826000526040600020602052816000526040600020818154811061353a57600080fd5b9060005260206000200160009250925050505481565b600082815261015f602052604090206001015461356c81613be5565b6115998383613c76565b60008061358283613e73565b60008181526101996020526040808220905192935091610198906135aa9060018501906158b2565b908152604051908190036020018120805463d7deba1560e01b83529092506001600160a01b031690819063d7deba15906122d890899060040190815260200190565b600081815261019a6020908152604080832081516080810183528154815260018201546001600160a01b0316938101939093526002810154918301919091526003015460ff16151560608201819052820361364a5750600092915050565b806040015160000361365f5750600092915050565b4281604001511115613672576000613675565b60015b9392505050565b600061368781613be5565b6101958290556040517f810f1720fbc34c56d171f89315ad21708648fd17424c27b88fa208409845aa7790600090a15050565b6000816000610198826040516136d091906155fe565b90815260405190819003602001902080549091506001600160a01b031661370a5760405163014eb98760e11b815260040160405180910390fd5b8054600160a81b900460ff1615156000036137385760405163014eb98760e11b815260040160405180910390fd5b8054600160a01b900460ff16156137625760405163526e73a560e01b815260040160405180910390fd5b60006101988560405161377591906155fe565b90815260408051602092819003830181208054637657dbdd60e01b835292519094506001600160a01b0390921692637657dbdd926004808401938290030181865afa1580156137c8573d6000803e3d6000fd5b505050506040513d601f19601f820116820180604052508101906137ec9190615637565b95945050505050565b600061380081613be5565b60008381526101996020526040902080546001600160a01b0316613837576040516336f7ce4f60e11b815260040160405180910390fd5b6005810183905560405183815284907f897164bdb6d8ca3f923345d02b5a56e8908961ca8cf15e0c67d1c1dee7f22a829060200161205e565b600061387b81613be5565b6101938290556040517f810f1720fbc34c56d171f89315ad21708648fd17424c27b88fa208409845aa7790600090a15050565b6001600160a01b0385163314806138ca57506138ca8533610bbc565b6138e65760405162461bcd60e51b815260040161155690615759565b61156c85858585856141e3565b60006001600160e01b03198216637965db0b60e01b1480610f5e5750610f5e8261431f565b600081815260986020526040812080546060929190613936906155c4565b80601f0160208091040260200160405190810160405280929190818152602001828054613962906155c4565b80156139af5780601f10613984576101008083540402835291602001916139af565b820191906000526020600020905b81548152906001019060200180831161399257829003601f168201915b5050505050905060008151116139cd576139c88361436f565b613675565b6097816040516020016139e1929190615ae1565b6040516020818303038152906040529392505050565b8151835114613a595760405162461bcd60e51b815260206004820152602860248201527f455243313135353a2069647320616e6420616d6f756e7473206c656e677468206044820152670dad2e6dac2e8c6d60c31b6064820152608401611556565b6001600160a01b038416613a7f5760405162461bcd60e51b815260040161155690615b06565b33613a8e818787878787614403565b60005b8451811015613b77576000858281518110613aae57613aae6158f4565b602002602001015190506000858381518110613acc57613acc6158f4565b60209081029190910181015160008481526065835260408082206001600160a01b038e168352909352919091205490915081811015613b1d5760405162461bcd60e51b815260040161155690615b4b565b60008381526065602090815260408083206001600160a01b038e8116855292528083208585039055908b16825281208054849290613b5c908490615939565b9250508190555050505080613b7090615920565b9050613a91565b50846001600160a01b0316866001600160a01b0316826001600160a01b03167f4a39dc06d4c0dbc64b70af90fd698a233a518aa5d07e595d983b8c0526c8f7fb8787604051613bc7929190615b95565b60405180910390a4613bdd818787878787614438565b505050505050565b61185e8133614593565b613bf98282612737565b61177e57600082815261015f602090815260408083206001600160a01b03851684529091529020805460ff19166001179055613c323390565b6001600160a01b0316816001600160a01b0316837f2f8788117e7eff1d82e926ec794901d17c78024a50270940304540a733656f0d60405160405180910390a45050565b613c808282612737565b1561177e57600082815261015f602090815260408083206001600160a01b0385168085529252808320805460ff1916905551339285917ff6391f5c32d9c69d2a47ea670b442974b53935d1edc7fd64eb21e047a839171b9190a45050565b7f189ab7a9244df0848122154315af71fe140f3db0fe014031783b0946b8c9d2e361177e81613be5565b7f4910fdfa16fed3260ed0e7147f7cc6da11a60208b5b9406d12a635614ffd91435460ff1615613d3b57611599836145ec565b826001600160a01b03166352d1902d6040518163ffffffff1660e01b8152600401602060405180830381865afa925050508015613d95575060408051601f3d908101601f19168201909252613d9291810190615637565b60015b613df85760405162461bcd60e51b815260206004820152602e60248201527f45524331393637557067726164653a206e657720696d706c656d656e7461746960448201526d6f6e206973206e6f74205555505360901b6064820152608401611556565b600080516020615e778339815191528114613e675760405162461bcd60e51b815260206004820152602960248201527f45524331393637557067726164653a20756e737570706f727465642070726f786044820152681a58589b195555525160ba1b6064820152608401611556565b50611599838383614688565b600081815261019a60205260408120600381015460ff1615158203613eab5760405163f97195bf60e01b815260040160405180910390fd5b805460009081526101996020526040902080546001600160a01b0316613ee4576040516336f7ce4f60e11b815260040160405180910390fd5b505492915050565b613ef46146ad565b60c9805460ff191690557f5db9ee0a495bf2e6ff9c91a7834c1ba4fdd244a5e8aa4e537bd38aeae4b073aa335b6040516001600160a01b03909116815260200160405180910390a1565b613f466146f6565b60c9805460ff191660011790557f62e78cea01bee320cd4e420270b5ea74000d11b0c9f74754ebdbfc544b05a258613f213390565b6040516305d39ac360e51b815260040160405180910390fd5b600054610100900460ff16613fbb5760405162461bcd60e51b815260040161155690615bba565b61185e8161473c565b600054610100900460ff16613feb5760405162461bcd60e51b815260040161155690615bba565b565b600054610100900460ff166140145760405162461bcd60e51b815260040161155690615bba565b613feb61476c565b600061271061402b8385615c05565b101561404a57604051633032107560e21b815260040160405180910390fd5b6127106140578385615c05565b6136759190615c1c565b60008281526098602052604090206140798282615992565b50817f6bb7ff708619ba0610cba295a58592e0451dee2622938c8755667688daf3529b6140a584611033565b6040516140b29190614ce6565b60405180910390a25050565b6001600160a01b03841661411e5760405162461bcd60e51b815260206004820152602160248201527f455243313135353a206d696e7420746f20746865207a65726f206164647265736044820152607360f81b6064820152608401611556565b33600061412a8561479f565b905060006141378561479f565b905061414883600089858589614403565b60008681526065602090815260408083206001600160a01b038b1684529091528120805487929061417a908490615939565b909155505060408051878152602081018790526001600160a01b03808a1692600092918716917fc3d58168c5ae7397731d063d5bbf3d657854427343f4c083240f7aacaa2d0f62910160405180910390a46141da836000898989896147ea565b50505050505050565b6001600160a01b0384166142095760405162461bcd60e51b815260040161155690615b06565b3360006142158561479f565b905060006142228561479f565b9050614232838989858589614403565b60008681526065602090815260408083206001600160a01b038c168452909152902054858110156142755760405162461bcd60e51b815260040161155690615b4b565b60008781526065602090815260408083206001600160a01b038d8116855292528083208985039055908a168252812080548892906142b4908490615939565b909155505060408051888152602081018890526001600160a01b03808b16928c821692918816917fc3d58168c5ae7397731d063d5bbf3d657854427343f4c083240f7aacaa2d0f62910160405180910390a4614314848a8a8a8a8a6147ea565b505050505050505050565b60006001600160e01b03198216636cdb3d1360e11b148061435057506001600160e01b031982166303a24d0760e21b145b80610f5e57506301ffc9a760e01b6001600160e01b0319831614610f5e565b60606067805461437e906155c4565b80601f01602080910402602001604051908101604052809291908181526020018280546143aa906155c4565b80156143f75780601f106143cc576101008083540402835291602001916143f7565b820191906000526020600020905b8154815290600101906020018083116143da57829003601f168201915b50505050509050919050565b61440b6146f6565b6001600160a01b03851615614433576040516305d39ac360e51b815260040160405180910390fd5b613bdd565b6001600160a01b0384163b15613bdd5760405163bc197c8160e01b81526001600160a01b0385169063bc197c819061447c9089908990889088908890600401615c3e565b6020604051808303816000875af19250505080156144b7575060408051601f3d908101601f191682019092526144b491810190615c9c565b60015b614563576144c3615cb9565b806308c379a0036144fc57506144d7615cd4565b806144e257506144fe565b8060405162461bcd60e51b81526004016115569190614ce6565b505b60405162461bcd60e51b815260206004820152603460248201527f455243313135353a207472616e7366657220746f206e6f6e2d455243313135356044820152732932b1b2b4bb32b91034b6b83632b6b2b73a32b960611b6064820152608401611556565b6001600160e01b0319811663bc197c8160e01b146141da5760405162461bcd60e51b815260040161155690615d5d565b61459d8282612737565b61177e576145aa816148a5565b6145b58360206148b7565b6040516020016145c6929190615da5565b60408051601f198184030181529082905262461bcd60e51b825261155691600401614ce6565b6001600160a01b0381163b6146595760405162461bcd60e51b815260206004820152602d60248201527f455243313936373a206e657720696d706c656d656e746174696f6e206973206e60448201526c1bdd08184818dbdb9d1c9858dd609a1b6064820152608401611556565b600080516020615e7783398151915280546001600160a01b0319166001600160a01b0392909216919091179055565b61469183614a52565b60008251118061469e5750805b1561159957612d598383614a92565b60c95460ff16613feb5760405162461bcd60e51b815260206004820152601460248201527314185d5cd8589b194e881b9bdd081c185d5cd95960621b6044820152606401611556565b60c95460ff1615613feb5760405162461bcd60e51b815260206004820152601060248201526f14185d5cd8589b194e881c185d5cd95960821b6044820152606401611556565b600054610100900460ff166147635760405162461bcd60e51b815260040161155690615bba565b61185e81614ab7565b600054610100900460ff166147935760405162461bcd60e51b815260040161155690615bba565b60c9805460ff19169055565b604080516001808252818301909252606091600091906020808301908036833701905050905082816000815181106147d9576147d96158f4565b602090810291909101015292915050565b6001600160a01b0384163b15613bdd5760405163f23a6e6160e01b81526001600160a01b0385169063f23a6e619061482e9089908990889088908890600401615e1a565b6020604051808303816000875af1925050508015614869575060408051601f3d908101601f1916820190925261486691810190615c9c565b60015b614875576144c3615cb9565b6001600160e01b0319811663f23a6e6160e01b146141da5760405162461bcd60e51b815260040161155690615d5d565b6060610f5e6001600160a01b03831660145b606060006148c6836002615c05565b6148d1906002615939565b6001600160401b038111156148e8576148e8614d40565b6040519080825280601f01601f191660200182016040528015614912576020820181803683370190505b509050600360fc1b8160008151811061492d5761492d6158f4565b60200101906001600160f81b031916908160001a905350600f60fb1b8160018151811061495c5761495c6158f4565b60200101906001600160f81b031916908160001a9053506000614980846002615c05565b61498b906001615939565b90505b6001811115614a03576f181899199a1a9b1b9c1cb0b131b232b360811b85600f16601081106149bf576149bf6158f4565b1a60f81b8282815181106149d5576149d56158f4565b60200101906001600160f81b031916908160001a90535060049490941c936149fc81615e5f565b905061498e565b5083156136755760405162461bcd60e51b815260206004820181905260248201527f537472696e67733a20686578206c656e67746820696e73756666696369656e746044820152606401611556565b614a5b816145ec565b6040516001600160a01b038216907fbc7cd75a20ee27fd9adebab32041f755214dbc6bffa90cc0225b39da2e5c2d3b90600090a250565b60606136758383604051806060016040528060278152602001615eb760279139614ac3565b606761177e8282615992565b6060600080856001600160a01b031685604051614ae091906155fe565b600060405180830381855af49150503d8060008114614b1b576040519150601f19603f3d011682016040523d82523d6000602084013e614b20565b606091505b50915091506123198683838760608315614b9b578251600003614b94576001600160a01b0385163b614b945760405162461bcd60e51b815260206004820152601d60248201527f416464726573733a2063616c6c20746f206e6f6e2d636f6e74726163740000006044820152606401611556565b508161214b565b61214b83838151156144e25781518083602001fd5b80356001600160a01b0381168114614bc757600080fd5b919050565b60008060408385031215614bdf57600080fd5b614be883614bb0565b946020939093013593505050565b6001600160e01b03198116811461185e57600080fd5b600060208284031215614c1e57600080fd5b813561367581614bf6565b600060208284031215614c3b57600080fd5b61367582614bb0565b60005b83811015614c5f578181015183820152602001614c47565b50506000910152565b60008151808452614c80816020860160208601614c44565b601f01601f19169290920160200192915050565b60a081526000614ca760a0830188614c68565b951515602083015250921515604084015290151560608301521515608090910152919050565b600060208284031215614cdf57600080fd5b5035919050565b6020815260006136756020830184614c68565b801515811461185e57600080fd5b600080600060608486031215614d1c57600080fd5b83359250602084013591506040840135614d3581614cf9565b809150509250925092565b634e487b7160e01b600052604160045260246000fd5b608081018181106001600160401b0382111715614d7557614d75614d40565b60405250565b601f8201601f191681016001600160401b0381118282101715614da057614da0614d40565b6040525050565b600082601f830112614db857600080fd5b81356001600160401b03811115614dd157614dd1614d40565b604051614de8601f8301601f191660200182614d7b565b818152846020838601011115614dfd57600080fd5b816020850160208301376000918101602001919091529392505050565b60008060408385031215614e2d57600080fd5b82356001600160401b0380821115614e4457600080fd5b614e5086838701614da7565b93506020850135915080821115614e6657600080fd5b50614e7385828601614da7565b9150509250929050565b60006001600160401b03821115614e9657614e96614d40565b5060051b60200190565b600082601f830112614eb157600080fd5b81356020614ebe82614e7d565b604051614ecb8282614d7b565b83815260059390931b8501820192828101915086841115614eeb57600080fd5b8286015b84811015614f065780358352918301918301614eef565b509695505050505050565b600080600080600060a08688031215614f2957600080fd5b614f3286614bb0565b9450614f4060208701614bb0565b935060408601356001600160401b0380821115614f5c57600080fd5b614f6889838a01614ea0565b94506060880135915080821115614f7e57600080fd5b614f8a89838a01614ea0565b93506080880135915080821115614fa057600080fd5b50614fad88828901614da7565b9150509295509295909350565b60008060408385031215614fcd57600080fd5b82359150614fdd60208401614bb0565b90509250929050565b6001600160a01b03891681526101006020820181905260009061500b8382018b614c68565b905088151560408401528760608401528660808401528560a084015284151560c084015282810360e08401526150418185614c68565b9b9a5050505050505050505050565b60008060006040848603121561506557600080fd5b8335925060208401356001600160401b038082111561508357600080fd5b818601915086601f83011261509757600080fd5b8135818111156150a657600080fd5b8760208285010111156150b857600080fd5b6020830194508093505050509250925092565b600080604083850312156150de57600080fd5b82356001600160401b03808211156150f557600080fd5b818501915085601f83011261510957600080fd5b8135602061511682614e7d565b6040516151238282614d7b565b83815260059390931b850182019282810191508984111561514357600080fd5b948201945b838610156151685761515986614bb0565b82529482019490820190615148565b9650508601359250508082111561517e57600080fd5b50614e7385828601614ea0565b600081518084526020808501945080840160005b838110156151bb5781518752958201959082019060010161519f565b509495945050505050565b602081526000613675602083018461518b565b600080604083850312156151ec57600080fd5b6151f583614bb0565b915060208301356001600160401b0381111561521057600080fd5b614e7385828601614da7565b6000806040838503121561522f57600080fd5b61523883614bb0565b9150602083013561524881614cf9565b809150509250929050565b60006020828403121561526557600080fd5b81356001600160401b0381111561527b57600080fd5b61214b84828501614da7565b6000806040838503121561529a57600080fd5b82356001600160401b038111156152b057600080fd5b6152bc85828601614da7565b925050602083013561524881614cf9565b600080604083850312156152e057600080fd5b82356001600160401b03808211156152f757600080fd5b908401906080828703121561530b57600080fd5b60405161531781614d56565b82358281111561532657600080fd5b61533288828601614da7565b82525060208301358281111561534757600080fd5b61535388828601614da7565b6020830152506040830135604082015260608301356060820152809450506020850135915080821115614e6657600080fd5b6000806040838503121561539857600080fd5b82356001600160401b038111156153ae57600080fd5b6153ba85828601614da7565b925050614fdd60208401614bb0565b6000806000606084860312156153de57600080fd5b6153e784614bb0565b92506153f560208501614bb0565b915061540360408501614bb0565b90509250925092565b60008060006060848603121561542157600080fd5b61542a84614bb0565b925060208401356001600160401b0381111561544557600080fd5b61545186828701614da7565b9250506040840135614d3581614cf9565b6000806000806080858703121561547857600080fd5b8435935061548860208601614bb0565b925060408501356001600160401b03808211156154a457600080fd5b6154b088838901614da7565b935060608701359150808211156154c657600080fd5b506154d387828801614da7565b91505092959194509250565b6000806000606084860312156154f457600080fd5b8335925061550460208501614bb0565b9150604084013590509250925092565b6000806040838503121561552757600080fd5b61553083614bb0565b9150614fdd60208401614bb0565b6000806040838503121561555157600080fd5b50508035926020909101359150565b600080600080600060a0868803121561557857600080fd5b61558186614bb0565b945061558f60208701614bb0565b9350604086013592506060860135915060808601356001600160401b038111156155b857600080fd5b614fad88828901614da7565b600181811c908216806155d857607f821691505b6020821081036155f857634e487b7160e01b600052602260045260246000fd5b50919050565b60008251615610818460208701614c44565b9190910192915050565b60006020828403121561562c57600080fd5b815161367581614cf9565b60006020828403121561564957600080fd5b5051919050565b8381526060602082015260006156696060830185614c68565b905060018060a01b0383166040830152949350505050565b6000815461568e816155c4565b8085526020600183811680156156ab57600181146156c5576156f3565b60ff1985168884015283151560051b8801830195506156f3565b866000528260002060005b858110156156eb5781548a82018601529083019084016156d0565b890184019650505b505050505092915050565b6001600160a01b038416815260606020820181905260009061572290830185615681565b82810360408401526123198185614c68565b6040815260006157476040830185614c68565b82810360208401526137ec8185614c68565b6020808252602e908201527f455243313135353a2063616c6c6572206973206e6f7420746f6b656e206f776e60408201526d195c881bdc88185c1c1c9bdd995960921b606082015260800190565b6020808252602c908201527f46756e6374696f6e206d7573742062652063616c6c6564207468726f7567682060408201526b19195b1959d85d1958d85b1b60a21b606082015260800190565b6020808252602c908201527f46756e6374696f6e206d7573742062652063616c6c6564207468726f7567682060408201526b6163746976652070726f787960a01b606082015260800190565b6000815461584c816155c4565b600182811680156158645760018114615879576158a8565b60ff19841687528215158302870194506158a8565b8560005260208060002060005b8581101561589f5781548a820152908401908201615886565b50505082870194505b5050505092915050565b6000613675828461583f565b83815260406020820152816040820152818360608301376000818301606090810191909152601f909201601f1916010192915050565b634e487b7160e01b600052603260045260246000fd5b634e487b7160e01b600052601160045260246000fd5b6000600182016159325761593261590a565b5060010190565b80820180821115610f5e57610f5e61590a565b601f82111561159957600081815260208120601f850160051c810160208610156159735750805b601f850160051c820191505b81811015613bdd5782815560010161597f565b81516001600160401b038111156159ab576159ab614d40565b6159bf816159b984546155c4565b8461594c565b602080601f8311600181146159f457600084156159dc5750858301515b600019600386901b1c1916600185901b178555613bdd565b600085815260208120601f198616915b82811015615a2357888601518255948401946001909101908401615a04565b5085821015615a415787850151600019600388901b60f8161c191681555b5050505050600190811b01905550565b6020815260006136756020830184615681565b82815260406020820152600061214b6040830184614c68565b604081526000615a906040830185614c68565b905082151560208301529392505050565b81810381811115610f5e57610f5e61590a565b60018060a01b03851681528360208201528260408201526080606082015260006123196080830184614c68565b6000615aed828561583f565b8351615afd818360208801614c44565b01949350505050565b60208082526025908201527f455243313135353a207472616e7366657220746f20746865207a65726f206164604082015264647265737360d81b606082015260800190565b6020808252602a908201527f455243313135353a20696e73756666696369656e742062616c616e636520666f60408201526939103a3930b739b332b960b11b606082015260800190565b604081526000615ba8604083018561518b565b82810360208401526137ec818561518b565b6020808252602b908201527f496e697469616c697a61626c653a20636f6e7472616374206973206e6f74206960408201526a6e697469616c697a696e6760a81b606082015260800190565b8082028115828204841417610f5e57610f5e61590a565b600082615c3957634e487b7160e01b600052601260045260246000fd5b500490565b6001600160a01b0386811682528516602082015260a060408201819052600090615c6a9083018661518b565b8281036060840152615c7c818661518b565b90508281036080840152615c908185614c68565b98975050505050505050565b600060208284031215615cae57600080fd5b815161367581614bf6565b600060033d1115611fa35760046000803e5060005160e01c90565b600060443d1015615ce25790565b6040516003193d81016004833e81513d6001600160401b038160248401118184111715615d1157505050505090565b8285019150815181811115615d295750505050505090565b843d8701016020828501011115615d435750505050505090565b615d5260208286010187614d7b565b509095945050505050565b60208082526028908201527f455243313135353a204552433131353552656365697665722072656a656374656040820152676420746f6b656e7360c01b606082015260800190565b7f416363657373436f6e74726f6c3a206163636f756e7420000000000000000000815260008351615ddd816017850160208801614c44565b7001034b99036b4b9b9b4b733903937b6329607d1b6017918401918201528351615e0e816028840160208801614c44565b01602801949350505050565b6001600160a01b03868116825285166020820152604081018490526060810183905260a060808201819052600090615e5490830184614c68565b979650505050505050565b600081615e6e57615e6e61590a565b50600019019056fe360894a13ba1a3210667c828492db98dca3e2076cc3735a920a3ca505d382bbc65d7a28e3265b37a6474929f336521b332c1681b933f6cb9f3376673440d862a416464726573733a206c6f772d6c6576656c2064656c65676174652063616c6c206661696c6564a2646970667358221220f817e7df9324ca2dcf885817f8f067bdaee975017da59bc04e154adf8acccf2b64736f6c63430008110033",
  "linkReferences": {},
  "deployedLinkReferences": {}
}