{
  "_format": "hh-sol-artifact-1",
  "contractName": "TheBadge",
  "sourceName": "src/contracts/thebadge/TheBadge.sol",
  "abi": [
    {
      "inputs": [],
      "stateMutability": "nonpayable",
      "type": "constructor"
    },
    {
      "inputs": [],
      "name": "TheBadge__SBT",
      "type": "error"
    },
    {
      "inputs": [],
      "name": "TheBadge__badgeModel_badgeModelNotFound",
      "type": "error"
    },
    {
      "inputs": [],
      "name": "TheBadge__createBadgeModel_controllerIsPaused",
      "type": "error"
    },
    {
      "inputs": [],
      "name": "TheBadge__createBadgeModel_invalidController",
      "type": "error"
    },
    {
      "inputs": [],
      "name": "TheBadge__createBadgeModel_wrongValue",
      "type": "error"
    },
    {
      "inputs": [],
      "name": "TheBadge__method_not_supported",
      "type": "error"
    },
    {
      "inputs": [],
      "name": "TheBadge__onlyCreator_creatorIsSuspended",
      "type": "error"
    },
    {
      "inputs": [],
      "name": "TheBadge__onlyCreator_senderIsNotACreator",
      "type": "error"
    },
    {
      "inputs": [],
      "name": "TheBadge__registerCreator_alreadyRegistered",
      "type": "error"
    },
    {
      "inputs": [],
      "name": "TheBadge__registerCreator_wrongValue",
      "type": "error"
    },
    {
      "inputs": [],
      "name": "TheBadge__requestBadge_badgeModelIsSuspended",
      "type": "error"
    },
    {
      "inputs": [],
      "name": "TheBadge__requestBadge_badgeModelNotFound",
      "type": "error"
    },
    {
      "inputs": [],
      "name": "TheBadge__requestBadge_badgeNotClaimable",
      "type": "error"
    },
    {
      "inputs": [],
      "name": "TheBadge__requestBadge_badgeNotFound",
      "type": "error"
    },
    {
      "inputs": [],
      "name": "TheBadge__requestBadge_controllerIsPaused",
      "type": "error"
    },
    {
      "inputs": [],
      "name": "TheBadge__requestBadge_isPaused",
      "type": "error"
    },
    {
      "inputs": [],
      "name": "TheBadge__requestBadge_wrongValue",
      "type": "error"
    },
    {
      "inputs": [],
      "name": "TheBadge__setBadgeModelController_alreadySet",
      "type": "error"
    },
    {
      "inputs": [],
      "name": "TheBadge__setBadgeModelController_emptyName",
      "type": "error"
    },
    {
      "inputs": [],
      "name": "TheBadge__setBadgeModelController_notFound",
      "type": "error"
    },
    {
      "inputs": [],
      "name": "TheBadge__setControllerStatus_notFound",
      "type": "error"
    },
    {
      "inputs": [],
      "name": "TheBadge__updateBadgeModel_badgeModelNotFound",
      "type": "error"
    },
    {
      "inputs": [],
      "name": "TheBadge__updateBadgeModel_notBadgeModelOwner",
      "type": "error"
    },
    {
      "inputs": [],
      "name": "TheBadge__updateCreator_notFound",
      "type": "error"
    },
    {
      "anonymous": false,
      "inputs": [
        {
          "indexed": false,
          "internalType": "address",
          "name": "previousAdmin",
          "type": "address"
        },
        {
          "indexed": false,
          "internalType": "address",
          "name": "newAdmin",
          "type": "address"
        }
      ],
      "name": "AdminChanged",
      "type": "event"
    },
    {
      "anonymous": false,
      "inputs": [
        {
          "indexed": true,
          "internalType": "address",
          "name": "account",
          "type": "address"
        },
        {
          "indexed": true,
          "internalType": "address",
          "name": "operator",
          "type": "address"
        },
        {
          "indexed": false,
          "internalType": "bool",
          "name": "approved",
          "type": "bool"
        }
      ],
      "name": "ApprovalForAll",
      "type": "event"
    },
    {
      "anonymous": false,
      "inputs": [
        {
          "indexed": true,
          "internalType": "string",
          "name": "controllerName",
          "type": "string"
        },
        {
          "indexed": true,
          "internalType": "address",
          "name": "controllerAddress",
          "type": "address"
        }
      ],
      "name": "BadgeModelControllerAdded",
      "type": "event"
    },
    {
      "anonymous": false,
      "inputs": [
        {
          "indexed": true,
          "internalType": "uint256",
          "name": "badgeModelId",
          "type": "uint256"
        },
        {
          "indexed": false,
          "internalType": "string",
          "name": "metadata",
          "type": "string"
        }
      ],
      "name": "BadgeModelCreated",
      "type": "event"
    },
    {
      "anonymous": false,
      "inputs": [
        {
          "indexed": true,
          "internalType": "uint256",
          "name": "badgeModelId",
          "type": "uint256"
        },
        {
          "indexed": false,
          "internalType": "uint256",
          "name": "newAmountInBps",
          "type": "uint256"
        }
      ],
      "name": "BadgeModelProtocolFeeUpdated",
      "type": "event"
    },
    {
      "anonymous": false,
      "inputs": [
        {
          "indexed": true,
          "internalType": "uint256",
          "name": "badgeModelId",
          "type": "uint256"
        }
      ],
      "name": "BadgeModelUpdated",
      "type": "event"
    },
    {
      "anonymous": false,
      "inputs": [
        {
          "indexed": true,
          "internalType": "uint256",
          "name": "badgeModelID",
          "type": "uint256"
        },
        {
          "indexed": true,
          "internalType": "uint256",
          "name": "badgeID",
          "type": "uint256"
        },
        {
          "indexed": true,
          "internalType": "address",
          "name": "recipient",
          "type": "address"
        },
        {
          "indexed": false,
          "internalType": "address",
          "name": "controller",
          "type": "address"
        },
        {
          "indexed": false,
          "internalType": "uint256",
          "name": "controllerBadgeId",
          "type": "uint256"
        }
      ],
      "name": "BadgeRequested",
      "type": "event"
    },
    {
      "anonymous": false,
      "inputs": [
        {
          "indexed": true,
          "internalType": "address",
          "name": "beacon",
          "type": "address"
        }
      ],
      "name": "BeaconUpgraded",
      "type": "event"
    },
    {
      "anonymous": false,
      "inputs": [
        {
          "indexed": true,
          "internalType": "address",
          "name": "creator",
          "type": "address"
        },
        {
          "indexed": false,
          "internalType": "string",
          "name": "metadata",
          "type": "string"
        }
      ],
      "name": "CreatorRegistered",
      "type": "event"
    },
    {
      "anonymous": false,
      "inputs": [
        {
          "indexed": true,
          "internalType": "address",
          "name": "admin",
          "type": "address"
        },
        {
          "indexed": true,
          "internalType": "address",
          "name": "minter",
          "type": "address"
        }
      ],
      "name": "Initialize",
      "type": "event"
    },
    {
      "anonymous": false,
      "inputs": [
        {
          "indexed": false,
          "internalType": "uint8",
          "name": "version",
          "type": "uint8"
        }
      ],
      "name": "Initialized",
      "type": "event"
    },
    {
      "anonymous": false,
      "inputs": [
        {
          "indexed": false,
          "internalType": "address",
          "name": "account",
          "type": "address"
        }
      ],
      "name": "Paused",
      "type": "event"
    },
    {
      "anonymous": false,
      "inputs": [
        {
          "indexed": true,
          "internalType": "address",
          "name": "recipient",
          "type": "address"
        },
        {
          "indexed": false,
          "internalType": "uint256",
          "name": "amount",
          "type": "uint256"
        },
        {
          "indexed": true,
          "internalType": "enum TheBadgeStore.PaymentType",
          "name": "paymentType",
          "type": "uint8"
        },
        {
          "indexed": true,
          "internalType": "uint256",
          "name": "badgeModelId",
          "type": "uint256"
        }
      ],
      "name": "PaymentMade",
      "type": "event"
    },
    {
      "anonymous": false,
      "inputs": [],
      "name": "ProtocolSettingsUpdated",
      "type": "event"
    },
    {
      "anonymous": false,
      "inputs": [
        {
          "indexed": true,
          "internalType": "address",
          "name": "creator",
          "type": "address"
        },
        {
          "indexed": false,
          "internalType": "bool",
          "name": "deleted",
          "type": "bool"
        }
      ],
      "name": "RemovedCreator",
      "type": "event"
    },
    {
      "anonymous": false,
      "inputs": [
        {
          "indexed": true,
          "internalType": "bytes32",
          "name": "role",
          "type": "bytes32"
        },
        {
          "indexed": true,
          "internalType": "bytes32",
          "name": "previousAdminRole",
          "type": "bytes32"
        },
        {
          "indexed": true,
          "internalType": "bytes32",
          "name": "newAdminRole",
          "type": "bytes32"
        }
      ],
      "name": "RoleAdminChanged",
      "type": "event"
    },
    {
      "anonymous": false,
      "inputs": [
        {
          "indexed": true,
          "internalType": "bytes32",
          "name": "role",
          "type": "bytes32"
        },
        {
          "indexed": true,
          "internalType": "address",
          "name": "account",
          "type": "address"
        },
        {
          "indexed": true,
          "internalType": "address",
          "name": "sender",
          "type": "address"
        }
      ],
      "name": "RoleGranted",
      "type": "event"
    },
    {
      "anonymous": false,
      "inputs": [
        {
          "indexed": true,
          "internalType": "bytes32",
          "name": "role",
          "type": "bytes32"
        },
        {
          "indexed": true,
          "internalType": "address",
          "name": "account",
          "type": "address"
        },
        {
          "indexed": true,
          "internalType": "address",
          "name": "sender",
          "type": "address"
        }
      ],
      "name": "RoleRevoked",
      "type": "event"
    },
    {
      "anonymous": false,
      "inputs": [
        {
          "indexed": true,
          "internalType": "address",
          "name": "creator",
          "type": "address"
        },
        {
          "indexed": false,
          "internalType": "bool",
          "name": "suspended",
          "type": "bool"
        }
      ],
      "name": "SuspendedCreator",
      "type": "event"
    },
    {
      "anonymous": false,
      "inputs": [
        {
          "indexed": true,
          "internalType": "address",
          "name": "operator",
          "type": "address"
        },
        {
          "indexed": true,
          "internalType": "address",
          "name": "from",
          "type": "address"
        },
        {
          "indexed": true,
          "internalType": "address",
          "name": "to",
          "type": "address"
        },
        {
          "indexed": false,
          "internalType": "uint256[]",
          "name": "ids",
          "type": "uint256[]"
        },
        {
          "indexed": false,
          "internalType": "uint256[]",
          "name": "values",
          "type": "uint256[]"
        }
      ],
      "name": "TransferBatch",
      "type": "event"
    },
    {
      "anonymous": false,
      "inputs": [
        {
          "indexed": true,
          "internalType": "address",
          "name": "operator",
          "type": "address"
        },
        {
          "indexed": true,
          "internalType": "address",
          "name": "from",
          "type": "address"
        },
        {
          "indexed": true,
          "internalType": "address",
          "name": "to",
          "type": "address"
        },
        {
          "indexed": false,
          "internalType": "uint256",
          "name": "id",
          "type": "uint256"
        },
        {
          "indexed": false,
          "internalType": "uint256",
          "name": "value",
          "type": "uint256"
        }
      ],
      "name": "TransferSingle",
      "type": "event"
    },
    {
      "anonymous": false,
      "inputs": [
        {
          "indexed": false,
          "internalType": "string",
          "name": "value",
          "type": "string"
        },
        {
          "indexed": true,
          "internalType": "uint256",
          "name": "id",
          "type": "uint256"
        }
      ],
      "name": "URI",
      "type": "event"
    },
    {
      "anonymous": false,
      "inputs": [
        {
          "indexed": false,
          "internalType": "address",
          "name": "account",
          "type": "address"
        }
      ],
      "name": "Unpaused",
      "type": "event"
    },
    {
      "anonymous": false,
      "inputs": [
        {
          "indexed": true,
          "internalType": "address",
          "name": "creator",
          "type": "address"
        },
        {
          "indexed": false,
          "internalType": "string",
          "name": "metadata",
          "type": "string"
        }
      ],
      "name": "UpdatedCreatorMetadata",
      "type": "event"
    },
    {
      "anonymous": false,
      "inputs": [
        {
          "indexed": true,
          "internalType": "address",
          "name": "implementation",
          "type": "address"
        }
      ],
      "name": "Upgraded",
      "type": "event"
    },
    {
      "inputs": [],
      "name": "DEFAULT_ADMIN_ROLE",
      "outputs": [
        {
          "internalType": "bytes32",
          "name": "",
          "type": "bytes32"
        }
      ],
      "stateMutability": "view",
      "type": "function"
    },
    {
      "inputs": [],
      "name": "FEE_COLLECTOR_ROLE",
      "outputs": [
        {
          "internalType": "bytes32",
          "name": "",
          "type": "bytes32"
        }
      ],
      "stateMutability": "view",
      "type": "function"
    },
    {
      "inputs": [],
      "name": "MINTER_ROLE",
      "outputs": [
        {
          "internalType": "bytes32",
          "name": "",
          "type": "bytes32"
        }
      ],
      "stateMutability": "view",
      "type": "function"
    },
    {
      "inputs": [],
      "name": "PAUSER_ROLE",
      "outputs": [
        {
          "internalType": "bytes32",
          "name": "",
          "type": "bytes32"
        }
      ],
      "stateMutability": "view",
      "type": "function"
    },
    {
      "inputs": [],
      "name": "UPGRADER_ROLE",
      "outputs": [
        {
          "internalType": "bytes32",
          "name": "",
          "type": "bytes32"
        }
      ],
      "stateMutability": "view",
      "type": "function"
    },
    {
      "inputs": [],
      "name": "URI_SETTER_ROLE",
      "outputs": [
        {
          "internalType": "bytes32",
          "name": "",
          "type": "bytes32"
        }
      ],
      "stateMutability": "view",
      "type": "function"
    },
    {
      "inputs": [
        {
          "internalType": "string",
          "name": "controllerName",
          "type": "string"
        },
        {
          "internalType": "address",
          "name": "controllerAddress",
          "type": "address"
        }
      ],
      "name": "addBadgeModelController",
      "outputs": [],
      "stateMutability": "nonpayable",
      "type": "function"
    },
    {
      "inputs": [
        {
          "internalType": "string",
          "name": "",
          "type": "string"
        }
      ],
      "name": "badgeModelControllers",
      "outputs": [
        {
          "internalType": "address",
          "name": "controller",
          "type": "address"
        },
        {
          "internalType": "bool",
          "name": "paused",
          "type": "bool"
        },
        {
          "internalType": "bool",
          "name": "initialized",
          "type": "bool"
        }
      ],
      "stateMutability": "view",
      "type": "function"
    },
    {
      "inputs": [
        {
          "internalType": "uint256",
          "name": "",
          "type": "uint256"
        }
      ],
      "name": "badgeModels",
      "outputs": [
        {
          "internalType": "address",
          "name": "creator",
          "type": "address"
        },
        {
          "internalType": "string",
          "name": "controllerName",
          "type": "string"
        },
        {
          "internalType": "bool",
          "name": "paused",
          "type": "bool"
        },
        {
          "internalType": "uint256",
          "name": "mintCreatorFee",
          "type": "uint256"
        },
        {
          "internalType": "uint256",
          "name": "validFor",
          "type": "uint256"
        },
        {
          "internalType": "uint256",
          "name": "mintProtocolFee",
          "type": "uint256"
        },
        {
          "internalType": "bool",
          "name": "initialized",
          "type": "bool"
        }
      ],
      "stateMutability": "view",
      "type": "function"
    },
    {
      "inputs": [
        {
          "internalType": "uint256",
          "name": "",
          "type": "uint256"
        },
        {
          "internalType": "address",
          "name": "",
          "type": "address"
        },
        {
          "internalType": "uint256",
          "name": "",
          "type": "uint256"
        }
      ],
      "name": "badgeModelsByAccount",
      "outputs": [
        {
          "internalType": "uint256",
          "name": "",
          "type": "uint256"
        }
      ],
      "stateMutability": "view",
      "type": "function"
    },
    {
      "inputs": [
        {
          "internalType": "uint256",
          "name": "",
          "type": "uint256"
        }
      ],
      "name": "badges",
      "outputs": [
        {
          "internalType": "uint256",
          "name": "badgeModelId",
          "type": "uint256"
        },
        {
          "internalType": "address",
          "name": "account",
          "type": "address"
        },
        {
          "internalType": "uint256",
          "name": "dueDate",
          "type": "uint256"
        },
        {
          "internalType": "bool",
          "name": "initialized",
          "type": "bool"
        }
      ],
      "stateMutability": "view",
      "type": "function"
    },
    {
      "inputs": [
        {
          "internalType": "address",
          "name": "account",
          "type": "address"
        },
        {
          "internalType": "uint256",
          "name": "badgeId",
          "type": "uint256"
        }
      ],
      "name": "balanceOf",
      "outputs": [
        {
          "internalType": "uint256",
          "name": "",
          "type": "uint256"
        }
      ],
      "stateMutability": "view",
      "type": "function"
    },
    {
      "inputs": [
        {
          "internalType": "address",
          "name": "account",
          "type": "address"
        },
        {
          "internalType": "uint256",
          "name": "badgeModelId",
          "type": "uint256"
        }
      ],
      "name": "balanceOfBadgeModel",
      "outputs": [
        {
          "internalType": "uint256",
          "name": "",
          "type": "uint256"
        }
      ],
      "stateMutability": "view",
      "type": "function"
    },
    {
      "inputs": [
        {
          "internalType": "address[]",
          "name": "accounts",
          "type": "address[]"
        },
        {
          "internalType": "uint256[]",
          "name": "ids",
          "type": "uint256[]"
        }
      ],
      "name": "balanceOfBatch",
      "outputs": [
        {
          "internalType": "uint256[]",
          "name": "",
          "type": "uint256[]"
        }
      ],
      "stateMutability": "view",
      "type": "function"
    },
    {
      "inputs": [
        {
          "internalType": "uint256",
          "name": "badgeId",
          "type": "uint256"
        },
        {
          "internalType": "bytes",
          "name": "data",
          "type": "bytes"
        }
      ],
      "name": "claim",
      "outputs": [],
      "stateMutability": "nonpayable",
      "type": "function"
    },
    {
      "inputs": [
        {
          "components": [
            {
              "internalType": "string",
              "name": "metadata",
              "type": "string"
            },
            {
              "internalType": "string",
              "name": "controllerName",
              "type": "string"
            },
            {
              "internalType": "uint256",
              "name": "mintCreatorFee",
              "type": "uint256"
            },
            {
              "internalType": "uint256",
              "name": "validFor",
              "type": "uint256"
            }
          ],
          "internalType": "struct TheBadgeStore.CreateBadgeModel",
          "name": "args",
          "type": "tuple"
        },
        {
          "internalType": "bytes",
          "name": "data",
          "type": "bytes"
        }
      ],
      "name": "createBadgeModel",
      "outputs": [],
      "stateMutability": "payable",
      "type": "function"
    },
    {
      "inputs": [],
      "name": "createBadgeModelProtocolFee",
      "outputs": [
        {
          "internalType": "uint256",
          "name": "",
          "type": "uint256"
        }
      ],
      "stateMutability": "view",
      "type": "function"
    },
    {
      "inputs": [
        {
          "internalType": "address",
          "name": "",
          "type": "address"
        }
      ],
      "name": "creators",
      "outputs": [
        {
          "internalType": "string",
          "name": "metadata",
          "type": "string"
        },
        {
          "internalType": "bool",
          "name": "suspended",
          "type": "bool"
        },
        {
          "internalType": "bool",
          "name": "initialized",
          "type": "bool"
        }
      ],
      "stateMutability": "view",
      "type": "function"
    },
    {
      "inputs": [],
      "name": "feeCollector",
      "outputs": [
        {
          "internalType": "address",
          "name": "",
          "type": "address"
        }
      ],
      "stateMutability": "view",
      "type": "function"
    },
    {
      "inputs": [
        {
          "internalType": "uint256",
          "name": "badgeId",
          "type": "uint256"
        }
      ],
      "name": "getChallengeDepositValue",
      "outputs": [
        {
          "internalType": "uint256",
          "name": "",
          "type": "uint256"
        }
      ],
      "stateMutability": "view",
      "type": "function"
    },
    {
      "inputs": [
        {
          "internalType": "uint256",
          "name": "badgeId",
          "type": "uint256"
        }
      ],
      "name": "getRemovalDepositValue",
      "outputs": [
        {
          "internalType": "uint256",
          "name": "",
          "type": "uint256"
        }
      ],
      "stateMutability": "view",
      "type": "function"
    },
    {
      "inputs": [
        {
          "internalType": "bytes32",
          "name": "role",
          "type": "bytes32"
        }
      ],
      "name": "getRoleAdmin",
      "outputs": [
        {
          "internalType": "bytes32",
          "name": "",
          "type": "bytes32"
        }
      ],
      "stateMutability": "view",
      "type": "function"
    },
    {
      "inputs": [
        {
          "internalType": "bytes32",
          "name": "role",
          "type": "bytes32"
        },
        {
          "internalType": "address",
          "name": "account",
          "type": "address"
        }
      ],
      "name": "grantRole",
      "outputs": [],
      "stateMutability": "nonpayable",
      "type": "function"
    },
    {
      "inputs": [
        {
          "internalType": "bytes32",
          "name": "role",
          "type": "bytes32"
        },
        {
          "internalType": "address",
          "name": "account",
          "type": "address"
        }
      ],
      "name": "hasRole",
      "outputs": [
        {
          "internalType": "bool",
          "name": "",
          "type": "bool"
        }
      ],
      "stateMutability": "view",
      "type": "function"
    },
    {
      "inputs": [
        {
          "internalType": "address",
          "name": "admin",
          "type": "address"
        },
        {
          "internalType": "address",
          "name": "_feeCollector",
          "type": "address"
        },
        {
          "internalType": "address",
          "name": "minter",
          "type": "address"
        }
      ],
      "name": "initialize",
      "outputs": [],
      "stateMutability": "nonpayable",
      "type": "function"
    },
    {
      "inputs": [
        {
          "internalType": "address",
          "name": "account",
          "type": "address"
        },
        {
          "internalType": "address",
          "name": "operator",
          "type": "address"
        }
      ],
      "name": "isApprovedForAll",
      "outputs": [
        {
          "internalType": "bool",
          "name": "",
          "type": "bool"
        }
      ],
      "stateMutability": "view",
      "type": "function"
    },
    {
      "inputs": [
        {
          "internalType": "uint256",
          "name": "badgeModelId",
          "type": "uint256"
        }
      ],
      "name": "isBadgeModelSuspended",
      "outputs": [
        {
          "internalType": "bool",
          "name": "",
          "type": "bool"
        }
      ],
      "stateMutability": "view",
      "type": "function"
    },
    {
      "inputs": [
        {
          "internalType": "uint256",
          "name": "badgeId",
          "type": "uint256"
        }
      ],
      "name": "isExpired",
      "outputs": [
        {
          "internalType": "bool",
          "name": "",
          "type": "bool"
        }
      ],
      "stateMutability": "view",
      "type": "function"
    },
    {
      "inputs": [
        {
          "internalType": "uint256",
          "name": "badgeModelId",
          "type": "uint256"
        },
        {
          "internalType": "address",
          "name": "account",
          "type": "address"
        },
        {
          "internalType": "string",
          "name": "tokenURI",
          "type": "string"
        },
        {
          "internalType": "bytes",
          "name": "data",
          "type": "bytes"
        }
      ],
      "name": "mint",
      "outputs": [],
      "stateMutability": "payable",
      "type": "function"
    },
    {
      "inputs": [],
      "name": "mintBadgeProtocolDefaultFeeInBps",
      "outputs": [
        {
          "internalType": "uint256",
          "name": "",
          "type": "uint256"
        }
      ],
      "stateMutability": "view",
      "type": "function"
    },
    {
      "inputs": [
        {
          "internalType": "uint256",
          "name": "badgeModelId",
          "type": "uint256"
        }
      ],
      "name": "mintValue",
      "outputs": [
        {
          "internalType": "uint256",
          "name": "",
          "type": "uint256"
        }
      ],
      "stateMutability": "view",
      "type": "function"
    },
    {
      "inputs": [],
      "name": "pause",
      "outputs": [],
      "stateMutability": "nonpayable",
      "type": "function"
    },
    {
      "inputs": [],
      "name": "paused",
      "outputs": [
        {
          "internalType": "bool",
          "name": "",
          "type": "bool"
        }
      ],
      "stateMutability": "view",
      "type": "function"
    },
    {
      "inputs": [],
      "name": "proxiableUUID",
      "outputs": [
        {
          "internalType": "bytes32",
          "name": "",
          "type": "bytes32"
        }
      ],
      "stateMutability": "view",
      "type": "function"
    },
    {
      "inputs": [
        {
          "internalType": "string",
          "name": "_metadata",
          "type": "string"
        }
      ],
      "name": "registerBadgeModelCreator",
      "outputs": [],
      "stateMutability": "payable",
      "type": "function"
    },
    {
      "inputs": [],
      "name": "registerCreatorProtocolFee",
      "outputs": [
        {
          "internalType": "uint256",
          "name": "",
          "type": "uint256"
        }
      ],
      "stateMutability": "view",
      "type": "function"
    },
    {
      "inputs": [],
      "name": "removeBadgeModelCreator",
      "outputs": [],
      "stateMutability": "view",
      "type": "function"
    },
    {
      "inputs": [
        {
          "internalType": "bytes32",
          "name": "role",
          "type": "bytes32"
        },
        {
          "internalType": "address",
          "name": "account",
          "type": "address"
        }
      ],
      "name": "renounceRole",
      "outputs": [],
      "stateMutability": "nonpayable",
      "type": "function"
    },
    {
      "inputs": [
        {
          "internalType": "bytes32",
          "name": "role",
          "type": "bytes32"
        },
        {
          "internalType": "address",
          "name": "account",
          "type": "address"
        }
      ],
      "name": "revokeRole",
      "outputs": [],
      "stateMutability": "nonpayable",
      "type": "function"
    },
    {
      "inputs": [
        {
          "internalType": "address",
          "name": "from",
          "type": "address"
        },
        {
          "internalType": "address",
          "name": "to",
          "type": "address"
        },
        {
          "internalType": "uint256[]",
          "name": "ids",
          "type": "uint256[]"
        },
        {
          "internalType": "uint256[]",
          "name": "amounts",
          "type": "uint256[]"
        },
        {
          "internalType": "bytes",
          "name": "data",
          "type": "bytes"
        }
      ],
      "name": "safeBatchTransferFrom",
      "outputs": [],
      "stateMutability": "nonpayable",
      "type": "function"
    },
    {
      "inputs": [
        {
          "internalType": "address",
          "name": "from",
          "type": "address"
        },
        {
          "internalType": "address",
          "name": "to",
          "type": "address"
        },
        {
          "internalType": "uint256",
          "name": "id",
          "type": "uint256"
        },
        {
          "internalType": "uint256",
          "name": "amount",
          "type": "uint256"
        },
        {
          "internalType": "bytes",
          "name": "data",
          "type": "bytes"
        }
      ],
      "name": "safeTransferFrom",
      "outputs": [],
      "stateMutability": "nonpayable",
      "type": "function"
    },
    {
      "inputs": [
        {
          "internalType": "address",
          "name": "operator",
          "type": "address"
        },
        {
          "internalType": "bool",
          "name": "approved",
          "type": "bool"
        }
      ],
      "name": "setApprovalForAll",
      "outputs": [],
      "stateMutability": "nonpayable",
      "type": "function"
    },
    {
      "inputs": [
        {
          "internalType": "bytes4",
          "name": "interfaceId",
          "type": "bytes4"
        }
      ],
      "name": "supportsInterface",
      "outputs": [
        {
          "internalType": "bool",
          "name": "",
          "type": "bool"
        }
      ],
      "stateMutability": "view",
      "type": "function"
    },
    {
      "inputs": [],
      "name": "suspendBadgeModel",
      "outputs": [],
      "stateMutability": "view",
      "type": "function"
    },
    {
      "inputs": [
        {
          "internalType": "address",
          "name": "_creator",
          "type": "address"
        },
        {
          "internalType": "bool",
          "name": "suspended",
          "type": "bool"
        }
      ],
      "name": "suspendBadgeModelCreator",
      "outputs": [],
      "stateMutability": "nonpayable",
      "type": "function"
    },
    {
      "inputs": [],
      "name": "unpause",
      "outputs": [],
      "stateMutability": "nonpayable",
      "type": "function"
    },
    {
      "inputs": [
        {
          "internalType": "uint256",
          "name": "badgeModelId",
          "type": "uint256"
        },
        {
          "internalType": "uint256",
          "name": "mintCreatorFee",
          "type": "uint256"
        },
        {
          "internalType": "bool",
          "name": "paused",
          "type": "bool"
        }
      ],
      "name": "updateBadgeModel",
      "outputs": [],
      "stateMutability": "nonpayable",
      "type": "function"
    },
    {
      "inputs": [
        {
          "internalType": "address",
          "name": "_creator",
          "type": "address"
        },
        {
          "internalType": "string",
          "name": "_metadata",
          "type": "string"
        }
      ],
      "name": "updateBadgeModelCreator",
      "outputs": [],
      "stateMutability": "nonpayable",
      "type": "function"
    },
    {
      "inputs": [
        {
          "internalType": "uint256",
          "name": "badgeModelId",
          "type": "uint256"
        },
        {
          "internalType": "uint256",
          "name": "feeInBps",
          "type": "uint256"
        }
      ],
      "name": "updateBadgeModelProtocolFee",
      "outputs": [],
      "stateMutability": "nonpayable",
      "type": "function"
    },
    {
      "inputs": [
        {
          "internalType": "uint256",
          "name": "_createBadgeModelValue",
          "type": "uint256"
        }
      ],
      "name": "updateCreateBadgeModelProtocolFee",
      "outputs": [],
      "stateMutability": "nonpayable",
      "type": "function"
    },
    {
      "inputs": [
        {
          "internalType": "uint256",
          "name": "_mintBadgeDefaultFee",
          "type": "uint256"
        }
      ],
      "name": "updateMintBadgeDefaultProtocolFee",
      "outputs": [],
      "stateMutability": "nonpayable",
      "type": "function"
    },
    {
      "inputs": [
        {
          "internalType": "uint256",
          "name": "_registerCreatorValue",
          "type": "uint256"
        }
      ],
      "name": "updateRegisterCreatorProtocolFee",
      "outputs": [],
      "stateMutability": "nonpayable",
      "type": "function"
    },
    {
      "inputs": [
        {
          "internalType": "address",
          "name": "newImplementation",
          "type": "address"
        }
      ],
      "name": "upgradeTo",
      "outputs": [],
      "stateMutability": "nonpayable",
      "type": "function"
    },
    {
      "inputs": [
        {
          "internalType": "address",
          "name": "newImplementation",
          "type": "address"
        },
        {
          "internalType": "bytes",
          "name": "data",
          "type": "bytes"
        }
      ],
      "name": "upgradeToAndCall",
      "outputs": [],
      "stateMutability": "payable",
      "type": "function"
    },
    {
      "inputs": [
        {
          "internalType": "uint256",
          "name": "badgeId",
          "type": "uint256"
        }
      ],
      "name": "uri",
      "outputs": [
        {
          "internalType": "string",
          "name": "",
          "type": "string"
        }
      ],
      "stateMutability": "view",
      "type": "function"
    },
    {
      "stateMutability": "payable",
      "type": "receive"
    }
  ],
  "bytecode": "0x60a0604052306080523480156200001557600080fd5b506200002062000026565b620000e8565b600054610100900460ff1615620000935760405162461bcd60e51b815260206004820152602760248201527f496e697469616c697a61626c653a20636f6e747261637420697320696e697469604482015266616c697a696e6760c81b606482015260840160405180910390fd5b60005460ff9081161015620000e6576000805460ff191660ff9081179091556040519081527f7f26b83ff96e1f2b6a682f133852f6798a09c465da95921460cefb38474024989060200160405180910390a15b565b6080516151a862000120600039600081816110f1015281816111310152818161181b0152818161185b01526118ea01526151a86000f3fe6080604052600436106103535760003560e01c80637f345710116101c6578063c5a3c7ca116100f7578063e181865111610095578063ede37dd41161006f578063ede37dd414610abd578063f1fe717e14610add578063f242432a14610afd578063f72c0d8b14610b1d57600080fd5b8063e181865114610a32578063e63ab1e914610a52578063e985e9c514610a7457600080fd5b8063d5391393116100d1578063d53913931461099e578063d547741f146109d2578063d7deba15146109f2578063d9548e5314610a1257600080fd5b8063c5a3c7ca1461094b578063c9e4eba11461096b578063cb22dfcb1461097e57600080fd5b8063a22cb46511610164578063c0c53b8b1161013e578063c0c53b8b146108bf578063c1d18840146108df578063c227fb11146108f2578063c415b95c1461091257600080fd5b8063a22cb4651461085f578063a9710d9a1461087f578063c0a39d121461089f57600080fd5b806391d14854116101a057806391d1485414610781578063933166e1146107a157806398e36d8b146107d0578063a217fddf1461084a57600080fd5b80637f34571014610725578063828efb25146107595780638456cb591461076c57600080fd5b80633fd11238116102a057806357f8188f1161023e578063632f7c8311610218578063632f7c831461064e57806364d8baef1461066e5780637333b375146106855780637eb7f1761461070557600080fd5b806357f8188f146105615780635c975abb1461060257806362a2a47c1461061a57600080fd5b80634e1273f41161027a5780634e1273f4146105965780634e5eceae146105c35780634f1ef286146105da57806352d1902d146105ed57600080fd5b80633fd112381461054157806341954e091461056157806346c457581461057657600080fd5b80632eb2c2d61161030d57806336568abe116102e757806336568abe146104cc5780633659cfe6146104ec57806338926b6d1461050c5780633f4ba83a1461052c57600080fd5b80632eb2c2d6146104595780632f2ff15d14610479578063302b01801461049957600080fd5b8062fdd58e1461035f57806301ffc9a7146103925780630e89341c146103c25780631adb7682146103ef578063248a9ca31461041157806327096c461461044257600080fd5b3661035a57005b600080fd5b34801561036b57600080fd5b5061037f61037a366004614027565b610b51565b6040519081526020015b60405180910390f35b34801561039e57600080fd5b506103b26103ad366004614067565b610dad565b6040519015158152602001610389565b3480156103ce57600080fd5b506103e26103dd366004614084565b610db8565b60405161038991906140ed565b3480156103fb57600080fd5b5061040f61040a36600461410e565b610dc3565b005b34801561041d57600080fd5b5061037f61042c366004614084565b600090815261015f602052604090206001015490565b34801561044e57600080fd5b5061037f6101935481565b34801561046557600080fd5b5061040f6104743660046142b5565b610f13565b34801561048557600080fd5b5061040f61049436600461435e565b610f68565b3480156104a557600080fd5b506104b96104b4366004614084565b610f93565b604051610389979695949392919061438a565b3480156104d857600080fd5b5061040f6104e736600461435e565b611069565b3480156104f857600080fd5b5061040f6105073660046143da565b6110e7565b34801561051857600080fd5b5061040f6105273660046143f5565b6111c6565b34801561053857600080fd5b5061040f611361565b34801561054d57600080fd5b5061040f61055c366004614470565b611381565b34801561056d57600080fd5b5061040f611439565b34801561058257600080fd5b5061037f610591366004614027565b61145d565b3480156105a257600080fd5b506105b66105b13660046144a7565b6116e8565b60405161038991906145ac565b3480156105cf57600080fd5b5061037f6101955481565b61040f6105e83660046145bf565b611811565b3480156105f957600080fd5b5061037f6118dd565b34801561060e57600080fd5b5060c95460ff166103b2565b34801561062657600080fd5b5061037f7f2dca0f5ce7e75a4b43fe2b0d6f5d0b7a2bf92ecf89f8f0aa17b8308b6703882181565b34801561065a57600080fd5b5061037f610669366004614084565b611991565b34801561067a57600080fd5b5061037f6101945481565b34801561069157600080fd5b506106de6106a0366004614602565b805180820160209081018051610198825292820191909301209152546001600160a01b0381169060ff600160a01b8204811691600160a81b90041683565b604080516001600160a01b0390941684529115156020840152151590820152606001610389565b34801561071157600080fd5b5061037f610720366004614084565b611a78565b34801561073157600080fd5b5061037f7f7804d923f43a17d325d77e781528e0793b2edd9890ab45fc64efd7b4b427744c81565b61040f610767366004614636565b611b8c565b34801561077857600080fd5b5061040f611e8e565b34801561078d57600080fd5b506103b261079c36600461435e565b611eae565b3480156107ad57600080fd5b506107c16107bc3660046143da565b611eda565b604051610389939291906146fb565b3480156107dc57600080fd5b506108206107eb366004614084565b61019a60205260009081526040902080546001820154600283015460039093015491926001600160a01b039091169160ff1684565b604080519485526001600160a01b0390931660208501529183015215156060820152608001610389565b34801561085657600080fd5b5061037f600081565b34801561086b57600080fd5b5061040f61087a366004614470565b611f8b565b34801561088b57600080fd5b5061040f61089a3660046145bf565b611f96565b3480156108ab57600080fd5b5061040f6108ba366004614725565b612036565b3480156108cb57600080fd5b5061040f6108da366004614769565b6121a9565b61040f6108ed3660046147ac565b6123be565b3480156108fe57600080fd5b506103b261090d366004614084565b612926565b34801561091e57600080fd5b5061019654610933906001600160a01b031681565b6040516001600160a01b039091168152602001610389565b34801561095757600080fd5b5061040f610966366004614084565b61299c565b61040f610979366004614602565b6129da565b34801561098a57600080fd5b5061037f610999366004614829565b612ae7565b3480156109aa57600080fd5b5061037f7f9f2df0fed2c77648de5860a4cc508cd0818c85b8b8a1ab4ceeef8d981c8956a681565b3480156109de57600080fd5b5061040f6109ed36600461435e565b612b26565b3480156109fe57600080fd5b5061037f610a0d366004614084565b612b4c565b348015610a1e57600080fd5b506103b2610a2d366004614084565b612c15565b348015610a3e57600080fd5b5061040f610a4d366004614084565b612ca5565b348015610a5e57600080fd5b5061037f60008051602061512c83398151915281565b348015610a8057600080fd5b506103b2610a8f36600461485e565b6001600160a01b03918216600090815260666020908152604080832093909416825291909152205460ff1690565b348015610ac957600080fd5b5061040f610ad8366004614888565b612ce3565b348015610ae957600080fd5b5061040f610af8366004614084565b612d5e565b348015610b0957600080fd5b5061040f610b183660046148aa565b612d9c565b348015610b2957600080fd5b5061037f7f189ab7a9244df0848122154315af71fe140f3db0fe014031783b0946b8c9d2e381565b600081815261019a6020908152604080832081516080810183528154815260018201546001600160a01b0316938101939093526002810154918301919091526003015460ff16158015606083015280610bc05750836001600160a01b031681602001516001600160a01b031614155b15610bcf576000915050610da7565b610bd883612c15565b1515600103610beb576000915050610da7565b8051600090815261019960209081526040808320815160e0810190925280546001600160a01b031682526001810180549293919291840191610c2c9061490e565b80601f0160208091040260200160405190810160405280929190818152602001828054610c589061490e565b8015610ca55780601f10610c7a57610100808354040283529160200191610ca5565b820191906000526020600020905b815481529060010190602001808311610c8857829003601f168201915b5050509183525050600282015460ff908116151560208084019190915260038401546040808501919091526004850154606085015260058501546080850152600690940154909116151560a090920191909152820151905191925060009161019891610d1091614948565b90815260405190819003602001812054631174806160e11b82526001600160a01b0316915081906322e900c290610d4f90889060040190815260200190565b602060405180830381865afa158015610d6c573d6000803e3d6000fd5b505050506040513d601f19601f82011682018060405250810190610d909190614964565b610d9b576000610d9e565b60015b60ff1693505050505b92915050565b6000610da782612de1565b6060610da782612e06565b336000908152610197602090815260408083208684526101999092529091208154859291908290610df39061490e565b9050600003610e1557604051638fcc03fd60e01b815260040160405180910390fd5b60018083015460ff1615159003610e3f5760405163401d786960e11b815260040160405180910390fd5b80546001600160a01b0316610e6757604051638fa97ef960e01b815260040160405180910390fd5b80546001600160a01b03163314610e915760405163806ecc4960e01b815260040160405180910390fd5b60008681526101996020526040902080546001600160a01b0316610ec8576040516336f7ce4f60e11b815260040160405180910390fd5b6003810186905560028101805460ff191686151517905560405187907fc7fe3866a4edc843062ecfa12604d4a6686605fb2bd8a2323d96dc40c08d9e3d90600090a250505050505050565b6001600160a01b038516331480610f2f5750610f2f8533610a8f565b610f545760405162461bcd60e51b8152600401610f4b90614981565b60405180910390fd5b610f618585858585612ee5565b5050505050565b600082815261015f6020526040902060010154610f84816130d3565b610f8e83836130dd565b505050565b61019960205260009081526040902080546001820180546001600160a01b039092169291610fc09061490e565b80601f0160208091040260200160405190810160405280929190818152602001828054610fec9061490e565b80156110395780601f1061100e57610100808354040283529160200191611039565b820191906000526020600020905b81548152906001019060200180831161101c57829003601f168201915b5050506002840154600385015460048601546005870154600690970154959660ff93841696929550909350911687565b6001600160a01b03811633146110d95760405162461bcd60e51b815260206004820152602f60248201527f416363657373436f6e74726f6c3a2063616e206f6e6c792072656e6f756e636560448201526e103937b632b9903337b91039b2b63360891b6064820152608401610f4b565b6110e38282613164565b5050565b6001600160a01b037f000000000000000000000000000000000000000000000000000000000000000016300361112f5760405162461bcd60e51b8152600401610f4b906149cf565b7f00000000000000000000000000000000000000000000000000000000000000006001600160a01b031661117860008051602061510c833981519152546001600160a01b031690565b6001600160a01b03161461119e5760405162461bcd60e51b8152600401610f4b90614a1b565b6111a7816131cc565b604080516000808252602082019092526111c3918391906131f6565b50565b600083815261019a602052604081206003810154909160ff909116151590036112025760405163f97195bf60e01b815260040160405180910390fd5b805460009081526101996020526040902080546001600160a01b031661123b576040516336f7ce4f60e11b815260040160405180910390fd5b6000610198826001016040516112519190614ada565b90815260405190819003602001812080546389610a0960e01b83529092506001600160a01b03169081906389610a0990611293908a9060040190815260200190565b602060405180830381865afa1580156112b0573d6000803e3d6000fd5b505050506040513d601f19601f820116820180604052508101906112d49190614964565b15156000036112f657604051632edd9d0f60e21b815260040160405180910390fd5b6040516338926b6d60e01b81526001600160a01b038216906338926b6d90611326908a908a908a90600401614ae6565b600060405180830381600087803b15801561134057600080fd5b505af1158015611354573d6000803e3d6000fd5b5050505050505050505050565b60008051602061512c833981519152611379816130d3565b6111c3613361565b60008051602061512c833981519152611399816130d3565b6001600160a01b038316600090815261019760205260409020805481906113bf9061490e565b90506000036113e157604051637bc3ac5560e11b815260040160405180910390fd5b60018101805460ff19168415159081179091556040519081526001600160a01b038516907feabcc99b8eacf20db83fc3b01249ebdab27258f082db573fe4606fdca5a737bf906020015b60405180910390a250505050565b6000611444816130d3565b60405163aaa2c00360e01b815260040160405180910390fd5b600081815261019b602090815260408083206001600160a01b0386168452909152812054810361148f57506000610da7565b600082815261019960209081526040808320815160e0810190925280546001600160a01b0316825260018101805492939192918401916114ce9061490e565b80601f01602080910402602001604051908101604052809291908181526020018280546114fa9061490e565b80156115475780601f1061151c57610100808354040283529160200191611547565b820191906000526020600020905b81548152906001019060200180831161152a57829003601f168201915b5050509183525050600282015460ff908116151560208084019190915260038401546040808501919091526004850154606085015260058501546080850152600690940154909116151560a0909201919091528201519051919250600091610198916115b291614948565b908152604051908190036020019020546001600160a01b031690506000805b600086815261019b602090815260408083206001600160a01b038b1684529091529020548110156116de57600086815261019b602090815260408083206001600160a01b038b168452909152812080548390811061163157611631614b1c565b9060005260206000200154905061164781612c15565b1580156116b85750604051631174806160e11b8152600481018290526001600160a01b038516906322e900c290602401602060405180830381865afa158015611694573d6000803e3d6000fd5b505050506040513d601f19601f820116820180604052508101906116b89190614964565b156116cb57826116c781614b48565b9350505b50806116d681614b48565b9150506115d1565b5095945050505050565b6060815183511461174d5760405162461bcd60e51b815260206004820152602960248201527f455243313135353a206163636f756e747320616e6420696473206c656e677468604482015268040dad2e6dac2e8c6d60bb1b6064820152608401610f4b565b600083516001600160401b0381111561176857611768614147565b604051908082528060200260200182016040528015611791578160200160208202803683370190505b50905060005b8451811015611809576117dc8582815181106117b5576117b5614b1c565b60200260200101518583815181106117cf576117cf614b1c565b6020026020010151610b51565b8282815181106117ee576117ee614b1c565b602090810291909101015261180281614b48565b9050611797565b509392505050565b6001600160a01b037f00000000000000000000000000000000000000000000000000000000000000001630036118595760405162461bcd60e51b8152600401610f4b906149cf565b7f00000000000000000000000000000000000000000000000000000000000000006001600160a01b03166118a260008051602061510c833981519152546001600160a01b031690565b6001600160a01b0316146118c85760405162461bcd60e51b8152600401610f4b90614a1b565b6118d1826131cc565b6110e3828260016131f6565b6000306001600160a01b037f0000000000000000000000000000000000000000000000000000000000000000161461197d5760405162461bcd60e51b815260206004820152603860248201527f555550535570677261646561626c653a206d757374206e6f742062652063616c60448201527f6c6564207468726f7567682064656c656761746563616c6c00000000000000006064820152608401610f4b565b5060008051602061510c8339815191525b90565b60008181526101996020526040812080546001600160a01b03166119c8576040516336f7ce4f60e11b815260040160405180910390fd5b6000610198826001016040516119de9190614ada565b90815260405190819003602001812054600384015463632f7c8360e01b83526001600160a01b03909116925090829063632f7c8390611a2590889060040190815260200190565b602060405180830381865afa158015611a42573d6000803e3d6000fd5b505050506040513d601f19601f82011682018060405250810190611a669190614b61565b611a709190614b7a565b949350505050565b600081815261019a60205260408120600381015460ff1615158203611ab05760405163f97195bf60e01b815260040160405180910390fd5b805460009081526101996020526040902080546001600160a01b0316611ae9576040516336f7ce4f60e11b815260040160405180910390fd5b600061019882600101604051611aff9190614ada565b9081526040519081900360200181208054633f5bf8bb60e11b83529092506001600160a01b0316908190637eb7f17690611b4190899060040190815260200190565b602060405180830381865afa158015611b5e573d6000803e3d6000fd5b505050506040513d601f19601f82011682018060405250810190611b829190614b61565b9695505050505050565b3360009081526101976020526040902080548190611ba99061490e565b9050600003611bcb57604051638fcc03fd60e01b815260040160405180910390fd5b61019454341015611bef5760405163043f7a7d60e21b815260040160405180910390fd5b60006101988460200151604051611c069190614948565b90815260405190819003602001902080549091506001600160a01b0316611c40576040516323be546760e01b815260040160405180910390fd5b8054600160a01b900460ff1615611c6a57604051630d70501560e11b815260040160405180910390fd5b8054600160a81b900460ff161515600003611c9857604051630d70501560e11b815260040160405180910390fd5b3415611cda57610196546040516001600160a01b03909116903480156108fc02916000818181858888f19350505050158015611cd8573d6000803e3d6000fd5b505b6040518060e00160405280611cec3390565b6001600160a01b03168152602001856020015181526020016000151581526020018560400151815260200185606001518152602001610195548152602001600115158152506101996000611d406101915490565b8152602080820192909252604001600020825181546001600160a01b0319166001600160a01b03909116178155908201516001820190611d809082614bd3565b50604082015160028201805491151560ff19928316179055606083015160038301556080830151600483015560a0830151600583015560c0909201516006909101805491151591909216179055611dd76101915490565b84516040517f584274d31df3e2cf85a9d6dfaf82b219994725ca486f214ef93fbec2d054dca091611e07916140ed565b60405180910390a280546001600160a01b03166377a3989e611e296101915490565b856040518363ffffffff1660e01b8152600401611e47929190614c92565b600060405180830381600087803b158015611e6157600080fd5b505af1158015611e75573d6000803e3d6000fd5b50505050611e8861019180546001019055565b50505050565b60008051602061512c833981519152611ea6816130d3565b6111c36133b3565b600091825261015f602090815260408084206001600160a01b0393909316845291905290205460ff1690565b61019760205260009081526040902080548190611ef69061490e565b80601f0160208091040260200160405190810160405280929190818152602001828054611f229061490e565b8015611f6f5780601f10611f4457610100808354040283529160200191611f6f565b820191906000526020600020905b815481529060010190602001808311611f5257829003601f168201915b5050506001909301549192505060ff8082169161010090041683565b6110e33383836133f0565b6000611fa1816130d3565b6001600160a01b03831660009081526101976020526040902080548190611fc79061490e565b9050600003611fe957604051637bc3ac5560e11b815260040160405180910390fd5b825115611ffd5780611ffb8482614bd3565b505b836001600160a01b03167f5b12b24c4622e8e6af38c1749b1261965b5098a96fb4b4cfb6075eb20c77fc588460405161142b91906140ed565b6000612041816130d3565b6000610198846040516120549190614948565b9081526020016040518091039020905083516000036120865760405163a8d052f160e01b815260040160405180910390fd5b6001600160a01b0383166120ad5760405163278e974f60e01b815260040160405180910390fd5b80546001600160a01b0316156120d657604051631c783ddb60e01b815260040160405180910390fd5b604080516060810182526001600160a01b03851681526000602082015260018183015290516101989061210a908790614948565b908152604080519182900360209081018320845181549286015195909301511515600160a81b0260ff60a81b19951515600160a01b026001600160a81b03199093166001600160a01b039485161792909217949094161790925590841690612173908690614948565b604051908190038120907fe5593a32c4e8802f5034c3eb5fb2d05210d31e05841af6500e5cac618d29605f90600090a350505050565b600054610100900460ff16158080156121c95750600054600160ff909116105b806121e35750303b1580156121e3575060005460ff166001145b6122465760405162461bcd60e51b815260206004820152602e60248201527f496e697469616c697a61626c653a20636f6e747261637420697320616c72656160448201526d191e481a5b9a5d1a585b1a5e995960921b6064820152608401610f4b565b6000805460ff191660011790558015612269576000805461ff0019166101001790555b61228160405180602001604052806000815250613409565b612289613439565b612291613462565b612299613439565b6122a46000856130dd565b6122bc60008051602061512c833981519152336130dd565b6122e67f9f2df0fed2c77648de5860a4cc508cd0818c85b8b8a1ab4ceeef8d981c8956a6836130dd565b6123107f189ab7a9244df0848122154315af71fe140f3db0fe014031783b0946b8c9d2e3336130dd565b61019680546001600160a01b0319166001600160a01b038581169190911790915560006101938190556101948190556103e861019555604051848316928716917fdc90fed0326ba91706deeac7eb34ac9f8b680734f9d782864dc29704d23bed6a91a38015611e88576000805461ff0019169055604051600181527f7f26b83ff96e1f2b6a682f133852f6798a09c465da95921460cefb38474024989060200160405180910390a150505050565b600084815261019960205260408082209051869290610198906123e5906001850190614ada565b9081526040805160209281900383019020805485546001600160a01b0390811660008181526101979096529390942091945092909216919061243a576040516385a6706360e01b815260040160405180910390fd5b60018082015460ff16151590036124645760405163a800bb9d60e01b815260040160405180910390fd5b600284015460ff161561248a57604051635d71fd6f60e01b815260040160405180910390fd5b8254600160a01b900460ff16156124b457604051631bd063c360e01b815260040160405180910390fd5b6000898152610199602052604080822090518b9289928c92909190610198906124e1906001850190614ada565b90815260405190819003602001902080549091506001600160a01b031661250786611991565b341015612527576040516393fda7e360e01b815260040160405180910390fd5b60038301541561273357600061254584600301548560050154613491565b905060008185600301546125599190614cab565b610196546040519192506000916001600160a01b039091169084908381818185875af1925050503d80600081146125ac576040519150601f19603f3d011682016040523d82523d6000602084013e6125b1565b606091505b50509050806126025760405162461bcd60e51b815260206004820152601b60248201527f4661696c656420746f207061792070726f746f636f6c206665657300000000006044820152606401610f4b565b886000610196546040518681526001600160a01b03909116907fd18793644b4cb4ec0f937f8153dc09112d762775084c0ae5b4c21a7b91f6909f9060200160405180910390a485546040516000916001600160a01b03169084908381818185875af1925050503d8060008114612694576040519150601f19603f3d011682016040523d82523d6000602084013e612699565b606091505b50509050806126ea5760405162461bcd60e51b815260206004820152601a60248201527f4661696c656420746f207061792063726561746f7220666565730000000000006044820152606401610f4b565b89600188546040518681526001600160a01b03909116907fd18793644b4cb4ec0f937f8153dc09112d762775084c0ae5b4c21a7b91f6909f9060200160405180910390a4505050505b600061273f6101925490565b905061274b818f6134c2565b6127728582600160405180604001604052806002815260200161060f60f31b815250613513565b6000846004015460001461279457600485015461278f9042614b7a565b612797565b60005b604080516080810182528a81526001600160a01b03898116602080840182815284860187815260016060870181815260008c815261019a865289812098518955935188830180546001600160a01b0319169189169190911790559151600288015590516003968701805460ff19169115159190911790558f825261019b83528682209382529282529485208054928301815585528420018690559088015492935090919085169063731133e99061284e9034614cab565b338c878d6040518663ffffffff1660e01b81526004016128719493929190614cbe565b60206040518083038185885af115801561288f573d6000803e3d6000fd5b50505050506040513d601f19601f820116820180604052508101906128b49190614b61565b90506128c561019280546001019055565b8454604080516001600160a01b039283168152602081018490529189169185918c917f186b125f639893ac3dcb02d857d0fd29319e8f764fd26f4a77310e8c678fbbd0910160405180910390a4505050505050505050505050505050505050565b60008181526101996020526040812080546001600160a01b031661295d576040516336f7ce4f60e11b815260040160405180910390fd5b80546001600160a01b031660009081526101976020526040902060018181015460ff1615159003612992575060019392505050565b5060009392505050565b60006129a7816130d3565b6101948290556040517f810f1720fbc34c56d171f89315ad21708648fd17424c27b88fa208409845aa7790600090a15050565b6101935434146129fd5760405163045801c760e31b815260040160405180910390fd5b3415612a3f57610196546040516001600160a01b03909116903480156108fc02916000818181858888f19350505050158015612a3d573d6000803e3d6000fd5b505b3360009081526101976020526040902080548190612a5c9061490e565b159050612a7c57604051633b46b81f60e21b815260040160405180910390fd5b80612a878382614bd3565b5060018101805461ffff1916610100179055612aa03390565b6001600160a01b03167f436a110767b6510e398091d7e698dbc3a574692ec743e8e40f4fb1ccefc00fc882600001604051612adb9190614ceb565b60405180910390a25050565b61019b6020528260005260406000206020528160005260406000208181548110612b1057600080fd5b9060005260206000200160009250925050505481565b600082815261015f6020526040902060010154612b42816130d3565b610f8e8383613164565b600081815261019a60205260408120600381015460ff1615158203612b845760405163f97195bf60e01b815260040160405180910390fd5b805460009081526101996020526040902080546001600160a01b0316612bbd576040516336f7ce4f60e11b815260040160405180910390fd5b600061019882600101604051612bd39190614ada565b908152604051908190036020018120805463d7deba1560e01b83529092506001600160a01b031690819063d7deba1590611b4190899060040190815260200190565b600081815261019a6020908152604080832081516080810183528154815260018201546001600160a01b0316938101939093526002810154918301919091526003015460ff161515606082018190528203612c735750600092915050565b8060400151600003612c885750600092915050565b4281604001511115612c9b576000612c9e565b60015b9392505050565b6000612cb0816130d3565b6101958290556040517f810f1720fbc34c56d171f89315ad21708648fd17424c27b88fa208409845aa7790600090a15050565b6000612cee816130d3565b60008381526101996020526040902080546001600160a01b0316612d25576040516336f7ce4f60e11b815260040160405180910390fd5b6005810183905560405183815284907f897164bdb6d8ca3f923345d02b5a56e8908961ca8cf15e0c67d1c1dee7f22a829060200161142b565b6000612d69816130d3565b6101938290556040517f810f1720fbc34c56d171f89315ad21708648fd17424c27b88fa208409845aa7790600090a15050565b6001600160a01b038516331480612db85750612db88533610a8f565b612dd45760405162461bcd60e51b8152600401610f4b90614981565b610f618585858585613638565b60006001600160e01b03198216637965db0b60e01b1480610da75750610da782613774565b600081815260986020526040812080546060929190612e249061490e565b80601f0160208091040260200160405190810160405280929190818152602001828054612e509061490e565b8015612e9d5780601f10612e7257610100808354040283529160200191612e9d565b820191906000526020600020905b815481529060010190602001808311612e8057829003601f168201915b505050505090506000815111612ebb57612eb6836137c4565b612c9e565b609781604051602001612ecf929190614d76565b6040516020818303038152906040529392505050565b8151835114612f475760405162461bcd60e51b815260206004820152602860248201527f455243313135353a2069647320616e6420616d6f756e7473206c656e677468206044820152670dad2e6dac2e8c6d60c31b6064820152608401610f4b565b6001600160a01b038416612f6d5760405162461bcd60e51b8152600401610f4b90614d9b565b33612f7c818787878787613858565b60005b8451811015613065576000858281518110612f9c57612f9c614b1c565b602002602001015190506000858381518110612fba57612fba614b1c565b60209081029190910181015160008481526065835260408082206001600160a01b038e16835290935291909120549091508181101561300b5760405162461bcd60e51b8152600401610f4b90614de0565b60008381526065602090815260408083206001600160a01b038e8116855292528083208585039055908b1682528120805484929061304a908490614b7a565b925050819055505050508061305e90614b48565b9050612f7f565b50846001600160a01b0316866001600160a01b0316826001600160a01b03167f4a39dc06d4c0dbc64b70af90fd698a233a518aa5d07e595d983b8c0526c8f7fb87876040516130b5929190614e2a565b60405180910390a46130cb81878787878761388d565b505050505050565b6111c381336139e8565b6130e78282611eae565b6110e357600082815261015f602090815260408083206001600160a01b03851684529091529020805460ff191660011790556131203390565b6001600160a01b0316816001600160a01b0316837f2f8788117e7eff1d82e926ec794901d17c78024a50270940304540a733656f0d60405160405180910390a45050565b61316e8282611eae565b156110e357600082815261015f602090815260408083206001600160a01b0385168085529252808320805460ff1916905551339285917ff6391f5c32d9c69d2a47ea670b442974b53935d1edc7fd64eb21e047a839171b9190a45050565b7f189ab7a9244df0848122154315af71fe140f3db0fe014031783b0946b8c9d2e36110e3816130d3565b7f4910fdfa16fed3260ed0e7147f7cc6da11a60208b5b9406d12a635614ffd91435460ff161561322957610f8e83613a41565b826001600160a01b03166352d1902d6040518163ffffffff1660e01b8152600401602060405180830381865afa925050508015613283575060408051601f3d908101601f1916820190925261328091810190614b61565b60015b6132e65760405162461bcd60e51b815260206004820152602e60248201527f45524331393637557067726164653a206e657720696d706c656d656e7461746960448201526d6f6e206973206e6f74205555505360901b6064820152608401610f4b565b60008051602061510c83398151915281146133555760405162461bcd60e51b815260206004820152602960248201527f45524331393637557067726164653a20756e737570706f727465642070726f786044820152681a58589b195555525160ba1b6064820152608401610f4b565b50610f8e838383613add565b613369613b02565b60c9805460ff191690557f5db9ee0a495bf2e6ff9c91a7834c1ba4fdd244a5e8aa4e537bd38aeae4b073aa335b6040516001600160a01b03909116815260200160405180910390a1565b6133bb613b4b565b60c9805460ff191660011790557f62e78cea01bee320cd4e420270b5ea74000d11b0c9f74754ebdbfc544b05a2586133963390565b6040516305d39ac360e51b815260040160405180910390fd5b600054610100900460ff166134305760405162461bcd60e51b8152600401610f4b90614e4f565b6111c381613b91565b600054610100900460ff166134605760405162461bcd60e51b8152600401610f4b90614e4f565b565b600054610100900460ff166134895760405162461bcd60e51b8152600401610f4b90614e4f565b613460613bc1565b60006127106134a08385614e9a565b10156134ab57600080fd5b6127106134b88385614e9a565b612c9e9190614eb1565b60008281526098602052604090206134da8282614bd3565b50817f6bb7ff708619ba0610cba295a58592e0451dee2622938c8755667688daf3529b61350684610db8565b604051612adb91906140ed565b6001600160a01b0384166135735760405162461bcd60e51b815260206004820152602160248201527f455243313135353a206d696e7420746f20746865207a65726f206164647265736044820152607360f81b6064820152608401610f4b565b33600061357f85613bf4565b9050600061358c85613bf4565b905061359d83600089858589613858565b60008681526065602090815260408083206001600160a01b038b168452909152812080548792906135cf908490614b7a565b909155505060408051878152602081018790526001600160a01b03808a1692600092918716917fc3d58168c5ae7397731d063d5bbf3d657854427343f4c083240f7aacaa2d0f62910160405180910390a461362f83600089898989613c3f565b50505050505050565b6001600160a01b03841661365e5760405162461bcd60e51b8152600401610f4b90614d9b565b33600061366a85613bf4565b9050600061367785613bf4565b9050613687838989858589613858565b60008681526065602090815260408083206001600160a01b038c168452909152902054858110156136ca5760405162461bcd60e51b8152600401610f4b90614de0565b60008781526065602090815260408083206001600160a01b038d8116855292528083208985039055908a16825281208054889290613709908490614b7a565b909155505060408051888152602081018890526001600160a01b03808b16928c821692918816917fc3d58168c5ae7397731d063d5bbf3d657854427343f4c083240f7aacaa2d0f62910160405180910390a4613769848a8a8a8a8a613c3f565b505050505050505050565b60006001600160e01b03198216636cdb3d1360e11b14806137a557506001600160e01b031982166303a24d0760e21b145b80610da757506301ffc9a760e01b6001600160e01b0319831614610da7565b6060606780546137d39061490e565b80601f01602080910402602001604051908101604052809291908181526020018280546137ff9061490e565b801561384c5780601f106138215761010080835404028352916020019161384c565b820191906000526020600020905b81548152906001019060200180831161382f57829003601f168201915b50505050509050919050565b613860613b4b565b6001600160a01b03851615613888576040516305d39ac360e51b815260040160405180910390fd5b6130cb565b6001600160a01b0384163b156130cb5760405163bc197c8160e01b81526001600160a01b0385169063bc197c81906138d19089908990889088908890600401614ed3565b6020604051808303816000875af192505050801561390c575060408051601f3d908101601f1916820190925261390991810190614f31565b60015b6139b857613918614f4e565b806308c379a003613951575061392c614f69565b806139375750613953565b8060405162461bcd60e51b8152600401610f4b91906140ed565b505b60405162461bcd60e51b815260206004820152603460248201527f455243313135353a207472616e7366657220746f206e6f6e2d455243313135356044820152732932b1b2b4bb32b91034b6b83632b6b2b73a32b960611b6064820152608401610f4b565b6001600160e01b0319811663bc197c8160e01b1461362f5760405162461bcd60e51b8152600401610f4b90614ff2565b6139f28282611eae565b6110e3576139ff81613cfa565b613a0a836020613d0c565b604051602001613a1b92919061503a565b60408051601f198184030181529082905262461bcd60e51b8252610f4b916004016140ed565b6001600160a01b0381163b613aae5760405162461bcd60e51b815260206004820152602d60248201527f455243313936373a206e657720696d706c656d656e746174696f6e206973206e60448201526c1bdd08184818dbdb9d1c9858dd609a1b6064820152608401610f4b565b60008051602061510c83398151915280546001600160a01b0319166001600160a01b0392909216919091179055565b613ae683613ea7565b600082511180613af35750805b15610f8e57611e888383613ee7565b60c95460ff166134605760405162461bcd60e51b815260206004820152601460248201527314185d5cd8589b194e881b9bdd081c185d5cd95960621b6044820152606401610f4b565b60c95460ff16156134605760405162461bcd60e51b815260206004820152601060248201526f14185d5cd8589b194e881c185d5cd95960821b6044820152606401610f4b565b600054610100900460ff16613bb85760405162461bcd60e51b8152600401610f4b90614e4f565b6111c381613fdb565b600054610100900460ff16613be85760405162461bcd60e51b8152600401610f4b90614e4f565b60c9805460ff19169055565b60408051600180825281830190925260609160009190602080830190803683370190505090508281600081518110613c2e57613c2e614b1c565b602090810291909101015292915050565b6001600160a01b0384163b156130cb5760405163f23a6e6160e01b81526001600160a01b0385169063f23a6e6190613c8390899089908890889088906004016150af565b6020604051808303816000875af1925050508015613cbe575060408051601f3d908101601f19168201909252613cbb91810190614f31565b60015b613cca57613918614f4e565b6001600160e01b0319811663f23a6e6160e01b1461362f5760405162461bcd60e51b8152600401610f4b90614ff2565b6060610da76001600160a01b03831660145b60606000613d1b836002614e9a565b613d26906002614b7a565b6001600160401b03811115613d3d57613d3d614147565b6040519080825280601f01601f191660200182016040528015613d67576020820181803683370190505b509050600360fc1b81600081518110613d8257613d82614b1c565b60200101906001600160f81b031916908160001a905350600f60fb1b81600181518110613db157613db1614b1c565b60200101906001600160f81b031916908160001a9053506000613dd5846002614e9a565b613de0906001614b7a565b90505b6001811115613e58576f181899199a1a9b1b9c1cb0b131b232b360811b85600f1660108110613e1457613e14614b1c565b1a60f81b828281518110613e2a57613e2a614b1c565b60200101906001600160f81b031916908160001a90535060049490941c93613e51816150f4565b9050613de3565b508315612c9e5760405162461bcd60e51b815260206004820181905260248201527f537472696e67733a20686578206c656e67746820696e73756666696369656e746044820152606401610f4b565b613eb081613a41565b6040516001600160a01b038216907fbc7cd75a20ee27fd9adebab32041f755214dbc6bffa90cc0225b39da2e5c2d3b90600090a250565b60606001600160a01b0383163b613f4f5760405162461bcd60e51b815260206004820152602660248201527f416464726573733a2064656c65676174652063616c6c20746f206e6f6e2d636f6044820152651b9d1c9858dd60d21b6064820152608401610f4b565b600080846001600160a01b031684604051613f6a9190614948565b600060405180830381855af49150503d8060008114613fa5576040519150601f19603f3d011682016040523d82523d6000602084013e613faa565b606091505b5091509150613fd2828260405180606001604052806027815260200161514c60279139613fe7565b95945050505050565b60676110e38282614bd3565b60608315613ff6575081612c9e565b612c9e83838151156139375781518083602001fd5b80356001600160a01b038116811461402257600080fd5b919050565b6000806040838503121561403a57600080fd5b6140438361400b565b946020939093013593505050565b6001600160e01b0319811681146111c357600080fd5b60006020828403121561407957600080fd5b8135612c9e81614051565b60006020828403121561409657600080fd5b5035919050565b60005b838110156140b85781810151838201526020016140a0565b50506000910152565b600081518084526140d981602086016020860161409d565b601f01601f19169290920160200192915050565b602081526000612c9e60208301846140c1565b80151581146111c357600080fd5b60008060006060848603121561412357600080fd5b8335925060208401359150604084013561413c81614100565b809150509250925092565b634e487b7160e01b600052604160045260246000fd5b608081018181106001600160401b038211171561417c5761417c614147565b60405250565b601f8201601f191681016001600160401b03811182821017156141a7576141a7614147565b6040525050565b60006001600160401b038211156141c7576141c7614147565b5060051b60200190565b600082601f8301126141e257600080fd5b813560206141ef826141ae565b6040516141fc8282614182565b83815260059390931b850182019282810191508684111561421c57600080fd5b8286015b848110156142375780358352918301918301614220565b509695505050505050565b600082601f83011261425357600080fd5b81356001600160401b0381111561426c5761426c614147565b604051614283601f8301601f191660200182614182565b81815284602083860101111561429857600080fd5b816020850160208301376000918101602001919091529392505050565b600080600080600060a086880312156142cd57600080fd5b6142d68661400b565b94506142e46020870161400b565b935060408601356001600160401b038082111561430057600080fd5b61430c89838a016141d1565b9450606088013591508082111561432257600080fd5b61432e89838a016141d1565b9350608088013591508082111561434457600080fd5b5061435188828901614242565b9150509295509295909350565b6000806040838503121561437157600080fd5b823591506143816020840161400b565b90509250929050565b6001600160a01b038816815260e0602082018190526000906143ae908301896140c1565b9615156040830152506060810194909452608084019290925260a0830152151560c09091015292915050565b6000602082840312156143ec57600080fd5b612c9e8261400b565b60008060006040848603121561440a57600080fd5b8335925060208401356001600160401b038082111561442857600080fd5b818601915086601f83011261443c57600080fd5b81358181111561444b57600080fd5b87602082850101111561445d57600080fd5b6020830194508093505050509250925092565b6000806040838503121561448357600080fd5b61448c8361400b565b9150602083013561449c81614100565b809150509250929050565b600080604083850312156144ba57600080fd5b82356001600160401b03808211156144d157600080fd5b818501915085601f8301126144e557600080fd5b813560206144f2826141ae565b6040516144ff8282614182565b83815260059390931b850182019282810191508984111561451f57600080fd5b948201945b83861015614544576145358661400b565b82529482019490820190614524565b9650508601359250508082111561455a57600080fd5b50614567858286016141d1565b9150509250929050565b600081518084526020808501945080840160005b838110156145a157815187529582019590820190600101614585565b509495945050505050565b602081526000612c9e6020830184614571565b600080604083850312156145d257600080fd5b6145db8361400b565b915060208301356001600160401b038111156145f657600080fd5b61456785828601614242565b60006020828403121561461457600080fd5b81356001600160401b0381111561462a57600080fd5b611a7084828501614242565b6000806040838503121561464957600080fd5b82356001600160401b038082111561466057600080fd5b908401906080828703121561467457600080fd5b6040516146808161415d565b82358281111561468f57600080fd5b61469b88828601614242565b8252506020830135828111156146b057600080fd5b6146bc88828601614242565b60208301525060408301356040820152606083013560608201528094505060208501359150808211156146ee57600080fd5b5061456785828601614242565b60608152600061470e60608301866140c1565b931515602083015250901515604090910152919050565b6000806040838503121561473857600080fd5b82356001600160401b0381111561474e57600080fd5b61475a85828601614242565b9250506143816020840161400b565b60008060006060848603121561477e57600080fd5b6147878461400b565b92506147956020850161400b565b91506147a36040850161400b565b90509250925092565b600080600080608085870312156147c257600080fd5b843593506147d26020860161400b565b925060408501356001600160401b03808211156147ee57600080fd5b6147fa88838901614242565b9350606087013591508082111561481057600080fd5b5061481d87828801614242565b91505092959194509250565b60008060006060848603121561483e57600080fd5b8335925061484e6020850161400b565b9150604084013590509250925092565b6000806040838503121561487157600080fd5b61487a8361400b565b91506143816020840161400b565b6000806040838503121561489b57600080fd5b50508035926020909101359150565b600080600080600060a086880312156148c257600080fd5b6148cb8661400b565b94506148d96020870161400b565b9350604086013592506060860135915060808601356001600160401b0381111561490257600080fd5b61435188828901614242565b600181811c9082168061492257607f821691505b60208210810361494257634e487b7160e01b600052602260045260246000fd5b50919050565b6000825161495a81846020870161409d565b9190910192915050565b60006020828403121561497657600080fd5b8151612c9e81614100565b6020808252602e908201527f455243313135353a2063616c6c6572206973206e6f7420746f6b656e206f776e60408201526d195c881bdc88185c1c1c9bdd995960921b606082015260800190565b6020808252602c908201527f46756e6374696f6e206d7573742062652063616c6c6564207468726f7567682060408201526b19195b1959d85d1958d85b1b60a21b606082015260800190565b6020808252602c908201527f46756e6374696f6e206d7573742062652063616c6c6564207468726f7567682060408201526b6163746976652070726f787960a01b606082015260800190565b60008154614a748161490e565b60018281168015614a8c5760018114614aa157614ad0565b60ff1984168752821515830287019450614ad0565b8560005260208060002060005b85811015614ac75781548a820152908401908201614aae565b50505082870194505b5050505092915050565b6000612c9e8284614a67565b83815260406020820152816040820152818360608301376000818301606090810191909152601f909201601f1916010192915050565b634e487b7160e01b600052603260045260246000fd5b634e487b7160e01b600052601160045260246000fd5b600060018201614b5a57614b5a614b32565b5060010190565b600060208284031215614b7357600080fd5b5051919050565b80820180821115610da757610da7614b32565b601f821115610f8e57600081815260208120601f850160051c81016020861015614bb45750805b601f850160051c820191505b818110156130cb57828155600101614bc0565b81516001600160401b03811115614bec57614bec614147565b614c0081614bfa845461490e565b84614b8d565b602080601f831160018114614c355760008415614c1d5750858301515b600019600386901b1c1916600185901b1785556130cb565b600085815260208120601f198616915b82811015614c6457888601518255948401946001909101908401614c45565b5085821015614c825787850151600019600388901b60f8161c191681555b5050505050600190811b01905550565b828152604060208201526000611a7060408301846140c1565b81810381811115610da757610da7614b32565b60018060a01b0385168152836020820152826040820152608060608201526000611b8260808301846140c1565b6000602080835260008454614cff8161490e565b80848701526040600180841660008114614d205760018114614d3a57614d68565b60ff1985168984015283151560051b890183019550614d68565b896000528660002060005b85811015614d605781548b8201860152908301908801614d45565b8a0184019650505b509398975050505050505050565b6000614d828285614a67565b8351614d9281836020880161409d565b01949350505050565b60208082526025908201527f455243313135353a207472616e7366657220746f20746865207a65726f206164604082015264647265737360d81b606082015260800190565b6020808252602a908201527f455243313135353a20696e73756666696369656e742062616c616e636520666f60408201526939103a3930b739b332b960b11b606082015260800190565b604081526000614e3d6040830185614571565b8281036020840152613fd28185614571565b6020808252602b908201527f496e697469616c697a61626c653a20636f6e7472616374206973206e6f74206960408201526a6e697469616c697a696e6760a81b606082015260800190565b8082028115828204841417610da757610da7614b32565b600082614ece57634e487b7160e01b600052601260045260246000fd5b500490565b6001600160a01b0386811682528516602082015260a060408201819052600090614eff90830186614571565b8281036060840152614f118186614571565b90508281036080840152614f2581856140c1565b98975050505050505050565b600060208284031215614f4357600080fd5b8151612c9e81614051565b600060033d111561198e5760046000803e5060005160e01c90565b600060443d1015614f775790565b6040516003193d81016004833e81513d6001600160401b038160248401118184111715614fa657505050505090565b8285019150815181811115614fbe5750505050505090565b843d8701016020828501011115614fd85750505050505090565b614fe760208286010187614182565b509095945050505050565b60208082526028908201527f455243313135353a204552433131353552656365697665722072656a656374656040820152676420746f6b656e7360c01b606082015260800190565b7f416363657373436f6e74726f6c3a206163636f756e742000000000000000000081526000835161507281601785016020880161409d565b7001034b99036b4b9b9b4b733903937b6329607d1b60179184019182015283516150a381602884016020880161409d565b01602801949350505050565b6001600160a01b03868116825285166020820152604081018490526060810183905260a0608082018190526000906150e9908301846140c1565b979650505050505050565b60008161510357615103614b32565b50600019019056fe360894a13ba1a3210667c828492db98dca3e2076cc3735a920a3ca505d382bbc65d7a28e3265b37a6474929f336521b332c1681b933f6cb9f3376673440d862a416464726573733a206c6f772d6c6576656c2064656c65676174652063616c6c206661696c6564a264697066735822122079cf18e20c857dfd094eaa10cce269b4041baac1fda6bc27490598f67b29a9dc64736f6c63430008110033",
  "linkReferences": {},
  "deployedLinkReferences": {}
}