{
  "_format": "hh-sol-artifact-1",
  "contractName": "TheBadgeStore",
  "sourceName": "src/contracts/thebadge/TheBadgeStore.sol",
  "abi": [
    {
      "inputs": [],
      "stateMutability": "nonpayable",
      "type": "constructor"
    },
    {
      "inputs": [],
      "name": "AccessControlBadConfirmation",
      "type": "error"
    },
    {
      "inputs": [
        {
          "internalType": "address",
          "name": "account",
          "type": "address"
        },
        {
          "internalType": "bytes32",
          "name": "neededRole",
          "type": "bytes32"
        }
      ],
      "name": "AccessControlUnauthorizedAccount",
      "type": "error"
    },
    {
      "inputs": [],
      "name": "InvalidInitialization",
      "type": "error"
    },
    {
      "inputs": [],
      "name": "NotInitializing",
      "type": "error"
    },
    {
      "inputs": [
        {
          "internalType": "address",
          "name": "owner",
          "type": "address"
        }
      ],
      "name": "OwnableInvalidOwner",
      "type": "error"
    },
    {
      "inputs": [
        {
          "internalType": "address",
          "name": "account",
          "type": "address"
        }
      ],
      "name": "OwnableUnauthorizedAccount",
      "type": "error"
    },
    {
      "inputs": [],
      "name": "TheBadge__Store_ContractNameAlreadyExists",
      "type": "error"
    },
    {
      "inputs": [],
      "name": "TheBadge__Store_InvalidBadgeID",
      "type": "error"
    },
    {
      "inputs": [],
      "name": "TheBadge__Store_InvalidContractAddress",
      "type": "error"
    },
    {
      "inputs": [],
      "name": "TheBadge__Store_InvalidContractName",
      "type": "error"
    },
    {
      "inputs": [],
      "name": "TheBadge__Store_InvalidUserAddress",
      "type": "error"
    },
    {
      "inputs": [],
      "name": "TheBadge__Store_OperationNotPermitted",
      "type": "error"
    },
    {
      "inputs": [],
      "name": "TheBadge__addBadgeModelController_alreadySet",
      "type": "error"
    },
    {
      "inputs": [],
      "name": "TheBadge__addBadgeModelController_notFound",
      "type": "error"
    },
    {
      "inputs": [],
      "name": "TheBadge__badgeModel_badgeModelNotFound",
      "type": "error"
    },
    {
      "inputs": [],
      "name": "TheBadge__registerUser_alreadyRegistered",
      "type": "error"
    },
    {
      "inputs": [],
      "name": "TheBadge__updateUser_notFound",
      "type": "error"
    },
    {
      "anonymous": false,
      "inputs": [
        {
          "indexed": true,
          "internalType": "string",
          "name": "_contractName",
          "type": "string"
        },
        {
          "indexed": true,
          "internalType": "address",
          "name": "contractAddress",
          "type": "address"
        }
      ],
      "name": "ContractAdded",
      "type": "event"
    },
    {
      "anonymous": false,
      "inputs": [
        {
          "indexed": true,
          "internalType": "string",
          "name": "_contractName",
          "type": "string"
        },
        {
          "indexed": true,
          "internalType": "address",
          "name": "contractAddress",
          "type": "address"
        }
      ],
      "name": "ContractRemoved",
      "type": "event"
    },
    {
      "anonymous": false,
      "inputs": [
        {
          "indexed": true,
          "internalType": "string",
          "name": "_contractName",
          "type": "string"
        },
        {
          "indexed": true,
          "internalType": "address",
          "name": "contractAddress",
          "type": "address"
        }
      ],
      "name": "ContractUpdated",
      "type": "event"
    },
    {
      "anonymous": false,
      "inputs": [
        {
          "indexed": false,
          "internalType": "uint64",
          "name": "version",
          "type": "uint64"
        }
      ],
      "name": "Initialized",
      "type": "event"
    },
    {
      "anonymous": false,
      "inputs": [
        {
          "indexed": true,
          "internalType": "address",
          "name": "previousOwner",
          "type": "address"
        },
        {
          "indexed": true,
          "internalType": "address",
          "name": "newOwner",
          "type": "address"
        }
      ],
      "name": "OwnershipTransferred",
      "type": "event"
    },
    {
      "anonymous": false,
      "inputs": [
        {
          "indexed": true,
          "internalType": "bytes32",
          "name": "role",
          "type": "bytes32"
        },
        {
          "indexed": true,
          "internalType": "bytes32",
          "name": "previousAdminRole",
          "type": "bytes32"
        },
        {
          "indexed": true,
          "internalType": "bytes32",
          "name": "newAdminRole",
          "type": "bytes32"
        }
      ],
      "name": "RoleAdminChanged",
      "type": "event"
    },
    {
      "anonymous": false,
      "inputs": [
        {
          "indexed": true,
          "internalType": "bytes32",
          "name": "role",
          "type": "bytes32"
        },
        {
          "indexed": true,
          "internalType": "address",
          "name": "account",
          "type": "address"
        },
        {
          "indexed": true,
          "internalType": "address",
          "name": "sender",
          "type": "address"
        }
      ],
      "name": "RoleGranted",
      "type": "event"
    },
    {
      "anonymous": false,
      "inputs": [
        {
          "indexed": true,
          "internalType": "bytes32",
          "name": "role",
          "type": "bytes32"
        },
        {
          "indexed": true,
          "internalType": "address",
          "name": "account",
          "type": "address"
        },
        {
          "indexed": true,
          "internalType": "address",
          "name": "sender",
          "type": "address"
        }
      ],
      "name": "RoleRevoked",
      "type": "event"
    },
    {
      "inputs": [],
      "name": "CLAIMER_ROLE",
      "outputs": [
        {
          "internalType": "bytes32",
          "name": "",
          "type": "bytes32"
        }
      ],
      "stateMutability": "view",
      "type": "function"
    },
    {
      "inputs": [],
      "name": "DEFAULT_ADMIN_ROLE",
      "outputs": [
        {
          "internalType": "bytes32",
          "name": "",
          "type": "bytes32"
        }
      ],
      "stateMutability": "view",
      "type": "function"
    },
    {
      "inputs": [],
      "name": "PAUSER_ROLE",
      "outputs": [
        {
          "internalType": "bytes32",
          "name": "",
          "type": "bytes32"
        }
      ],
      "stateMutability": "view",
      "type": "function"
    },
    {
      "inputs": [],
      "name": "UPGRADER_ROLE",
      "outputs": [
        {
          "internalType": "bytes32",
          "name": "",
          "type": "bytes32"
        }
      ],
      "stateMutability": "view",
      "type": "function"
    },
    {
      "inputs": [],
      "name": "URI_SETTER_ROLE",
      "outputs": [
        {
          "internalType": "bytes32",
          "name": "",
          "type": "bytes32"
        }
      ],
      "stateMutability": "view",
      "type": "function"
    },
    {
      "inputs": [],
      "name": "USER_MANAGER_ROLE",
      "outputs": [
        {
          "internalType": "bytes32",
          "name": "",
          "type": "bytes32"
        }
      ],
      "stateMutability": "view",
      "type": "function"
    },
    {
      "inputs": [],
      "name": "VERIFIER_ROLE",
      "outputs": [
        {
          "internalType": "bytes32",
          "name": "",
          "type": "bytes32"
        }
      ],
      "stateMutability": "view",
      "type": "function"
    },
    {
      "inputs": [
        {
          "internalType": "uint256",
          "name": "badgeId",
          "type": "uint256"
        },
        {
          "components": [
            {
              "internalType": "uint256",
              "name": "badgeModelId",
              "type": "uint256"
            },
            {
              "internalType": "address",
              "name": "account",
              "type": "address"
            },
            {
              "internalType": "uint256",
              "name": "dueDate",
              "type": "uint256"
            },
            {
              "internalType": "bool",
              "name": "initialized",
              "type": "bool"
            }
          ],
          "internalType": "struct TheBadgeStore.Badge",
          "name": "badge",
          "type": "tuple"
        }
      ],
      "name": "addBadge",
      "outputs": [],
      "stateMutability": "nonpayable",
      "type": "function"
    },
    {
      "inputs": [
        {
          "components": [
            {
              "internalType": "address",
              "name": "creator",
              "type": "address"
            },
            {
              "internalType": "string",
              "name": "controllerName",
              "type": "string"
            },
            {
              "internalType": "bool",
              "name": "paused",
              "type": "bool"
            },
            {
              "internalType": "uint256",
              "name": "mintCreatorFee",
              "type": "uint256"
            },
            {
              "internalType": "uint256",
              "name": "validFor",
              "type": "uint256"
            },
            {
              "internalType": "uint256",
              "name": "mintProtocolFee",
              "type": "uint256"
            },
            {
              "internalType": "bool",
              "name": "initialized",
              "type": "bool"
            },
            {
              "internalType": "uint256",
              "name": "version",
              "type": "uint256"
            },
            {
              "internalType": "bool",
              "name": "suspended",
              "type": "bool"
            },
            {
              "internalType": "bool",
              "name": "deprecated",
              "type": "bool"
            },
            {
              "internalType": "string",
              "name": "metadata",
              "type": "string"
            }
          ],
          "internalType": "struct TheBadgeStore.BadgeModel",
          "name": "badgeModel",
          "type": "tuple"
        }
      ],
      "name": "addBadgeModel",
      "outputs": [],
      "stateMutability": "nonpayable",
      "type": "function"
    },
    {
      "inputs": [
        {
          "internalType": "string",
          "name": "controllerName",
          "type": "string"
        },
        {
          "components": [
            {
              "internalType": "address",
              "name": "controller",
              "type": "address"
            },
            {
              "internalType": "bool",
              "name": "paused",
              "type": "bool"
            },
            {
              "internalType": "bool",
              "name": "initialized",
              "type": "bool"
            }
          ],
          "internalType": "struct TheBadgeStore.BadgeModelController",
          "name": "badgeModelController",
          "type": "tuple"
        }
      ],
      "name": "addBadgeModelController",
      "outputs": [],
      "stateMutability": "nonpayable",
      "type": "function"
    },
    {
      "inputs": [
        {
          "internalType": "string",
          "name": "_contractName",
          "type": "string"
        },
        {
          "internalType": "address",
          "name": "_contractAddress",
          "type": "address"
        }
      ],
      "name": "addPermittedContract",
      "outputs": [],
      "stateMutability": "nonpayable",
      "type": "function"
    },
    {
      "inputs": [
        {
          "internalType": "address",
          "name": "",
          "type": "address"
        }
      ],
      "name": "allowedContractAddresses",
      "outputs": [
        {
          "internalType": "bool",
          "name": "",
          "type": "bool"
        }
      ],
      "stateMutability": "view",
      "type": "function"
    },
    {
      "inputs": [
        {
          "internalType": "string",
          "name": "",
          "type": "string"
        }
      ],
      "name": "allowedContractAddressesByContractName",
      "outputs": [
        {
          "internalType": "address",
          "name": "",
          "type": "address"
        }
      ],
      "stateMutability": "view",
      "type": "function"
    },
    {
      "inputs": [
        {
          "internalType": "string",
          "name": "",
          "type": "string"
        }
      ],
      "name": "badgeModelControllers",
      "outputs": [
        {
          "internalType": "address",
          "name": "controller",
          "type": "address"
        },
        {
          "internalType": "bool",
          "name": "paused",
          "type": "bool"
        },
        {
          "internalType": "bool",
          "name": "initialized",
          "type": "bool"
        }
      ],
      "stateMutability": "view",
      "type": "function"
    },
    {
      "inputs": [
        {
          "internalType": "address",
          "name": "",
          "type": "address"
        }
      ],
      "name": "badgeModelControllersByAddress",
      "outputs": [
        {
          "internalType": "address",
          "name": "controller",
          "type": "address"
        },
        {
          "internalType": "bool",
          "name": "paused",
          "type": "bool"
        },
        {
          "internalType": "bool",
          "name": "initialized",
          "type": "bool"
        }
      ],
      "stateMutability": "view",
      "type": "function"
    },
    {
      "inputs": [
        {
          "internalType": "uint256",
          "name": "",
          "type": "uint256"
        }
      ],
      "name": "badgeModels",
      "outputs": [
        {
          "internalType": "address",
          "name": "creator",
          "type": "address"
        },
        {
          "internalType": "string",
          "name": "controllerName",
          "type": "string"
        },
        {
          "internalType": "bool",
          "name": "paused",
          "type": "bool"
        },
        {
          "internalType": "uint256",
          "name": "mintCreatorFee",
          "type": "uint256"
        },
        {
          "internalType": "uint256",
          "name": "validFor",
          "type": "uint256"
        },
        {
          "internalType": "uint256",
          "name": "mintProtocolFee",
          "type": "uint256"
        },
        {
          "internalType": "bool",
          "name": "initialized",
          "type": "bool"
        },
        {
          "internalType": "uint256",
          "name": "version",
          "type": "uint256"
        },
        {
          "internalType": "bool",
          "name": "suspended",
          "type": "bool"
        },
        {
          "internalType": "bool",
          "name": "deprecated",
          "type": "bool"
        },
        {
          "internalType": "string",
          "name": "metadata",
          "type": "string"
        }
      ],
      "stateMutability": "view",
      "type": "function"
    },
    {
      "inputs": [
        {
          "internalType": "uint256",
          "name": "",
          "type": "uint256"
        }
      ],
      "name": "badges",
      "outputs": [
        {
          "internalType": "uint256",
          "name": "badgeModelId",
          "type": "uint256"
        },
        {
          "internalType": "address",
          "name": "account",
          "type": "address"
        },
        {
          "internalType": "uint256",
          "name": "dueDate",
          "type": "uint256"
        },
        {
          "internalType": "bool",
          "name": "initialized",
          "type": "bool"
        }
      ],
      "stateMutability": "view",
      "type": "function"
    },
    {
      "inputs": [],
      "name": "createBadgeModelProtocolFee",
      "outputs": [
        {
          "internalType": "uint256",
          "name": "",
          "type": "uint256"
        }
      ],
      "stateMutability": "view",
      "type": "function"
    },
    {
      "inputs": [
        {
          "internalType": "address",
          "name": "userAddress",
          "type": "address"
        },
        {
          "components": [
            {
              "internalType": "string",
              "name": "metadata",
              "type": "string"
            },
            {
              "internalType": "bool",
              "name": "isCompany",
              "type": "bool"
            },
            {
              "internalType": "bool",
              "name": "isCreator",
              "type": "bool"
            },
            {
              "internalType": "bool",
              "name": "suspended",
              "type": "bool"
            },
            {
              "internalType": "bool",
              "name": "initialized",
              "type": "bool"
            }
          ],
          "internalType": "struct TheBadgeStore.User",
          "name": "newUser",
          "type": "tuple"
        }
      ],
      "name": "createUser",
      "outputs": [],
      "stateMutability": "nonpayable",
      "type": "function"
    },
    {
      "inputs": [],
      "name": "feeCollector",
      "outputs": [
        {
          "internalType": "address",
          "name": "",
          "type": "address"
        }
      ],
      "stateMutability": "view",
      "type": "function"
    },
    {
      "inputs": [
        {
          "internalType": "uint256",
          "name": "badgeId",
          "type": "uint256"
        }
      ],
      "name": "getBadge",
      "outputs": [
        {
          "components": [
            {
              "internalType": "uint256",
              "name": "badgeModelId",
              "type": "uint256"
            },
            {
              "internalType": "address",
              "name": "account",
              "type": "address"
            },
            {
              "internalType": "uint256",
              "name": "dueDate",
              "type": "uint256"
            },
            {
              "internalType": "bool",
              "name": "initialized",
              "type": "bool"
            }
          ],
          "internalType": "struct TheBadgeStore.Badge",
          "name": "",
          "type": "tuple"
        }
      ],
      "stateMutability": "view",
      "type": "function"
    },
    {
      "inputs": [
        {
          "internalType": "uint256",
          "name": "badgeModelId",
          "type": "uint256"
        }
      ],
      "name": "getBadgeModel",
      "outputs": [
        {
          "components": [
            {
              "internalType": "address",
              "name": "creator",
              "type": "address"
            },
            {
              "internalType": "string",
              "name": "controllerName",
              "type": "string"
            },
            {
              "internalType": "bool",
              "name": "paused",
              "type": "bool"
            },
            {
              "internalType": "uint256",
              "name": "mintCreatorFee",
              "type": "uint256"
            },
            {
              "internalType": "uint256",
              "name": "validFor",
              "type": "uint256"
            },
            {
              "internalType": "uint256",
              "name": "mintProtocolFee",
              "type": "uint256"
            },
            {
              "internalType": "bool",
              "name": "initialized",
              "type": "bool"
            },
            {
              "internalType": "uint256",
              "name": "version",
              "type": "uint256"
            },
            {
              "internalType": "bool",
              "name": "suspended",
              "type": "bool"
            },
            {
              "internalType": "bool",
              "name": "deprecated",
              "type": "bool"
            },
            {
              "internalType": "string",
              "name": "metadata",
              "type": "string"
            }
          ],
          "internalType": "struct TheBadgeStore.BadgeModel",
          "name": "",
          "type": "tuple"
        }
      ],
      "stateMutability": "view",
      "type": "function"
    },
    {
      "inputs": [
        {
          "internalType": "string",
          "name": "controllerName",
          "type": "string"
        }
      ],
      "name": "getBadgeModelController",
      "outputs": [
        {
          "components": [
            {
              "internalType": "address",
              "name": "controller",
              "type": "address"
            },
            {
              "internalType": "bool",
              "name": "paused",
              "type": "bool"
            },
            {
              "internalType": "bool",
              "name": "initialized",
              "type": "bool"
            }
          ],
          "internalType": "struct TheBadgeStore.BadgeModelController",
          "name": "",
          "type": "tuple"
        }
      ],
      "stateMutability": "view",
      "type": "function"
    },
    {
      "inputs": [
        {
          "internalType": "address",
          "name": "controllerAddress",
          "type": "address"
        }
      ],
      "name": "getBadgeModelControllerByAddress",
      "outputs": [
        {
          "components": [
            {
              "internalType": "address",
              "name": "controller",
              "type": "address"
            },
            {
              "internalType": "bool",
              "name": "paused",
              "type": "bool"
            },
            {
              "internalType": "bool",
              "name": "initialized",
              "type": "bool"
            }
          ],
          "internalType": "struct TheBadgeStore.BadgeModelController",
          "name": "",
          "type": "tuple"
        }
      ],
      "stateMutability": "view",
      "type": "function"
    },
    {
      "inputs": [],
      "name": "getCurrentBadgeIdCounter",
      "outputs": [
        {
          "internalType": "uint256",
          "name": "",
          "type": "uint256"
        }
      ],
      "stateMutability": "view",
      "type": "function"
    },
    {
      "inputs": [],
      "name": "getCurrentBadgeModelsIdCounter",
      "outputs": [
        {
          "internalType": "uint256",
          "name": "",
          "type": "uint256"
        }
      ],
      "stateMutability": "view",
      "type": "function"
    },
    {
      "inputs": [
        {
          "internalType": "bytes32",
          "name": "role",
          "type": "bytes32"
        }
      ],
      "name": "getRoleAdmin",
      "outputs": [
        {
          "internalType": "bytes32",
          "name": "",
          "type": "bytes32"
        }
      ],
      "stateMutability": "view",
      "type": "function"
    },
    {
      "inputs": [
        {
          "internalType": "address",
          "name": "userAddress",
          "type": "address"
        }
      ],
      "name": "getUser",
      "outputs": [
        {
          "components": [
            {
              "internalType": "string",
              "name": "metadata",
              "type": "string"
            },
            {
              "internalType": "bool",
              "name": "isCompany",
              "type": "bool"
            },
            {
              "internalType": "bool",
              "name": "isCreator",
              "type": "bool"
            },
            {
              "internalType": "bool",
              "name": "suspended",
              "type": "bool"
            },
            {
              "internalType": "bool",
              "name": "initialized",
              "type": "bool"
            }
          ],
          "internalType": "struct TheBadgeStore.User",
          "name": "",
          "type": "tuple"
        }
      ],
      "stateMutability": "view",
      "type": "function"
    },
    {
      "inputs": [
        {
          "internalType": "uint256",
          "name": "badgeModelId",
          "type": "uint256"
        },
        {
          "internalType": "address",
          "name": "userAddress",
          "type": "address"
        }
      ],
      "name": "getUserMintedBadgesByBadgeModel",
      "outputs": [
        {
          "internalType": "uint256[]",
          "name": "",
          "type": "uint256[]"
        }
      ],
      "stateMutability": "view",
      "type": "function"
    },
    {
      "inputs": [
        {
          "internalType": "bytes32",
          "name": "role",
          "type": "bytes32"
        },
        {
          "internalType": "address",
          "name": "account",
          "type": "address"
        }
      ],
      "name": "grantRole",
      "outputs": [],
      "stateMutability": "nonpayable",
      "type": "function"
    },
    {
      "inputs": [
        {
          "internalType": "bytes32",
          "name": "role",
          "type": "bytes32"
        },
        {
          "internalType": "address",
          "name": "account",
          "type": "address"
        }
      ],
      "name": "hasRole",
      "outputs": [
        {
          "internalType": "bool",
          "name": "",
          "type": "bool"
        }
      ],
      "stateMutability": "view",
      "type": "function"
    },
    {
      "inputs": [
        {
          "internalType": "address",
          "name": "admin",
          "type": "address"
        },
        {
          "internalType": "address",
          "name": "_feeCollector",
          "type": "address"
        }
      ],
      "name": "initialize",
      "outputs": [],
      "stateMutability": "nonpayable",
      "type": "function"
    },
    {
      "inputs": [],
      "name": "mintBadgeProtocolDefaultFeeInBps",
      "outputs": [
        {
          "internalType": "uint256",
          "name": "",
          "type": "uint256"
        }
      ],
      "stateMutability": "view",
      "type": "function"
    },
    {
      "inputs": [],
      "name": "owner",
      "outputs": [
        {
          "internalType": "address",
          "name": "",
          "type": "address"
        }
      ],
      "stateMutability": "view",
      "type": "function"
    },
    {
      "inputs": [],
      "name": "registerUserProtocolFee",
      "outputs": [
        {
          "internalType": "uint256",
          "name": "",
          "type": "uint256"
        }
      ],
      "stateMutability": "view",
      "type": "function"
    },
    {
      "inputs": [
        {
          "internalType": "address",
          "name": "",
          "type": "address"
        }
      ],
      "name": "registeredUsers",
      "outputs": [
        {
          "internalType": "string",
          "name": "metadata",
          "type": "string"
        },
        {
          "internalType": "bool",
          "name": "isCompany",
          "type": "bool"
        },
        {
          "internalType": "bool",
          "name": "isCreator",
          "type": "bool"
        },
        {
          "internalType": "bool",
          "name": "suspended",
          "type": "bool"
        },
        {
          "internalType": "bool",
          "name": "initialized",
          "type": "bool"
        }
      ],
      "stateMutability": "view",
      "type": "function"
    },
    {
      "inputs": [
        {
          "internalType": "string",
          "name": "_contractName",
          "type": "string"
        }
      ],
      "name": "removePermittedContract",
      "outputs": [],
      "stateMutability": "nonpayable",
      "type": "function"
    },
    {
      "inputs": [],
      "name": "renounceOwnership",
      "outputs": [],
      "stateMutability": "nonpayable",
      "type": "function"
    },
    {
      "inputs": [
        {
          "internalType": "bytes32",
          "name": "role",
          "type": "bytes32"
        },
        {
          "internalType": "address",
          "name": "callerConfirmation",
          "type": "address"
        }
      ],
      "name": "renounceRole",
      "outputs": [],
      "stateMutability": "nonpayable",
      "type": "function"
    },
    {
      "inputs": [
        {
          "internalType": "bytes32",
          "name": "role",
          "type": "bytes32"
        },
        {
          "internalType": "address",
          "name": "account",
          "type": "address"
        }
      ],
      "name": "revokeRole",
      "outputs": [],
      "stateMutability": "nonpayable",
      "type": "function"
    },
    {
      "inputs": [
        {
          "internalType": "bytes4",
          "name": "interfaceId",
          "type": "bytes4"
        }
      ],
      "name": "supportsInterface",
      "outputs": [
        {
          "internalType": "bool",
          "name": "",
          "type": "bool"
        }
      ],
      "stateMutability": "view",
      "type": "function"
    },
    {
      "inputs": [
        {
          "internalType": "uint256",
          "name": "badgeModelId",
          "type": "uint256"
        },
        {
          "internalType": "bool",
          "name": "suspended",
          "type": "bool"
        }
      ],
      "name": "suspendBadgeModel",
      "outputs": [],
      "stateMutability": "nonpayable",
      "type": "function"
    },
    {
      "inputs": [
        {
          "internalType": "uint256",
          "name": "badgeId",
          "type": "uint256"
        },
        {
          "internalType": "address",
          "name": "origin",
          "type": "address"
        },
        {
          "internalType": "address",
          "name": "destination",
          "type": "address"
        }
      ],
      "name": "transferBadge",
      "outputs": [],
      "stateMutability": "nonpayable",
      "type": "function"
    },
    {
      "inputs": [
        {
          "internalType": "address",
          "name": "newOwner",
          "type": "address"
        }
      ],
      "name": "transferOwnership",
      "outputs": [],
      "stateMutability": "nonpayable",
      "type": "function"
    },
    {
      "inputs": [
        {
          "internalType": "uint256",
          "name": "badgeModelId",
          "type": "uint256"
        },
        {
          "components": [
            {
              "internalType": "address",
              "name": "creator",
              "type": "address"
            },
            {
              "internalType": "string",
              "name": "controllerName",
              "type": "string"
            },
            {
              "internalType": "bool",
              "name": "paused",
              "type": "bool"
            },
            {
              "internalType": "uint256",
              "name": "mintCreatorFee",
              "type": "uint256"
            },
            {
              "internalType": "uint256",
              "name": "validFor",
              "type": "uint256"
            },
            {
              "internalType": "uint256",
              "name": "mintProtocolFee",
              "type": "uint256"
            },
            {
              "internalType": "bool",
              "name": "initialized",
              "type": "bool"
            },
            {
              "internalType": "uint256",
              "name": "version",
              "type": "uint256"
            },
            {
              "internalType": "bool",
              "name": "suspended",
              "type": "bool"
            },
            {
              "internalType": "bool",
              "name": "deprecated",
              "type": "bool"
            },
            {
              "internalType": "string",
              "name": "metadata",
              "type": "string"
            }
          ],
          "internalType": "struct TheBadgeStore.BadgeModel",
          "name": "badgeModel",
          "type": "tuple"
        }
      ],
      "name": "updateBadgeModel",
      "outputs": [],
      "stateMutability": "nonpayable",
      "type": "function"
    },
    {
      "inputs": [
        {
          "internalType": "string",
          "name": "controllerName",
          "type": "string"
        },
        {
          "components": [
            {
              "internalType": "address",
              "name": "controller",
              "type": "address"
            },
            {
              "internalType": "bool",
              "name": "paused",
              "type": "bool"
            },
            {
              "internalType": "bool",
              "name": "initialized",
              "type": "bool"
            }
          ],
          "internalType": "struct TheBadgeStore.BadgeModelController",
          "name": "badgeModelController",
          "type": "tuple"
        }
      ],
      "name": "updateBadgeModelController",
      "outputs": [],
      "stateMutability": "nonpayable",
      "type": "function"
    },
    {
      "inputs": [
        {
          "internalType": "uint256",
          "name": "badgeModelId",
          "type": "uint256"
        },
        {
          "internalType": "string",
          "name": "metadata",
          "type": "string"
        }
      ],
      "name": "updateBadgeModelMetadata",
      "outputs": [],
      "stateMutability": "nonpayable",
      "type": "function"
    },
    {
      "inputs": [
        {
          "internalType": "uint256",
          "name": "_createBadgeModelValue",
          "type": "uint256"
        }
      ],
      "name": "updateCreateBadgeModelProtocolFee",
      "outputs": [],
      "stateMutability": "nonpayable",
      "type": "function"
    },
    {
      "inputs": [
        {
          "internalType": "uint256",
          "name": "_mintBadgeDefaultFee",
          "type": "uint256"
        }
      ],
      "name": "updateMintBadgeDefaultProtocolFee",
      "outputs": [],
      "stateMutability": "nonpayable",
      "type": "function"
    },
    {
      "inputs": [
        {
          "internalType": "string",
          "name": "_contractName",
          "type": "string"
        },
        {
          "internalType": "address",
          "name": "_newContractAddress",
          "type": "address"
        }
      ],
      "name": "updatePermittedContract",
      "outputs": [],
      "stateMutability": "nonpayable",
      "type": "function"
    },
    {
      "inputs": [
        {
          "internalType": "uint256",
          "name": "_registerCreatorValue",
          "type": "uint256"
        }
      ],
      "name": "updateRegisterCreatorProtocolFee",
      "outputs": [],
      "stateMutability": "nonpayable",
      "type": "function"
    },
    {
      "inputs": [
        {
          "internalType": "address",
          "name": "userAddress",
          "type": "address"
        },
        {
          "components": [
            {
              "internalType": "string",
              "name": "metadata",
              "type": "string"
            },
            {
              "internalType": "bool",
              "name": "isCompany",
              "type": "bool"
            },
            {
              "internalType": "bool",
              "name": "isCreator",
              "type": "bool"
            },
            {
              "internalType": "bool",
              "name": "suspended",
              "type": "bool"
            },
            {
              "internalType": "bool",
              "name": "initialized",
              "type": "bool"
            }
          ],
          "internalType": "struct TheBadgeStore.User",
          "name": "updatedUser",
          "type": "tuple"
        }
      ],
      "name": "updateUser",
      "outputs": [],
      "stateMutability": "nonpayable",
      "type": "function"
    },
    {
      "inputs": [
        {
          "internalType": "uint256",
          "name": "",
          "type": "uint256"
        },
        {
          "internalType": "address",
          "name": "",
          "type": "address"
        },
        {
          "internalType": "uint256",
          "name": "",
          "type": "uint256"
        }
      ],
      "name": "userMintedBadgesByBadgeModel",
      "outputs": [
        {
          "internalType": "uint256",
          "name": "",
          "type": "uint256"
        }
      ],
      "stateMutability": "view",
      "type": "function"
    },
    {
      "stateMutability": "payable",
      "type": "receive"
    }
  ],
  "bytecode": "0x608080604052346100b8577ff0c57e16840df040f15088dc2f81fe391c3923bec73e23a9662efc9c229c6a009081549060ff8260401c166100a957506001600160401b036002600160401b031982821601610064575b604051612abf90816100bd8239f35b6001600160401b031990911681179091556040519081527fc7f505b2f371ae2175ee4913f4499e1f2633a7b5936321eed1cdaeb6115181d290602090a15f8080610055565b63f92ee8a960e01b8152600490fd5b5f80fdfe608060405260048036101561001c575b50361561001a575f80fd5b005b5f90813560e01c90816301719d2b1461221757816301ffc9a7146121c157816306d7a28c1461215a57816308473d4a1461209f57816308e5bf21146120815781630a5f1ec514611e7b5781630deee17614611d885781630e50cee514611cfe578163178682c114611be15781631a9f36c014611b505781631acd49b414611a145781631c38579e14611961578163248a9ca3146119285781632f2ff15d146118de5781632f9227961461186e578163302b01801461179457816336568abe1461174e578163385c4372146116b25781633ce35aac146113a45781634085b527146112c8578163485cc9551461115d5781634e5eceae1461113f57816364d8baef14611121578163658658c614610ff3578163687a055714610fb45781636f77926b14610ecb578163700f492314610ddb578163715018a614610d725781637333b37514610ce25781637f34571014610ca75781638d83862214610c065781638da5cb5b14610bd157816391d1485414610b7b57816398e36d8b14610b2157816399448a2c14610ac1578163a1fa355c146109d5578163a217fddf146109b9578163a41e35c31461097e578163b26fc20414610878578163c415b95c1461084f578163c5a3c7ca14610820578163d547741f146107d2578163e1818651146107a3578163e63ab1e914610768578163e70a0e691461074a578163e7343c8a1461072d578163e7705db6146106f2578163e9ab224e1461050a578163f1fe717e146104cc578163f2be2c851461031057508063f2fde38b146102e3578063f72c0d8b146102a85763fc5f18d30361000f57346102a557806003193601126102a55760206040517f11a8cb5a02bd6c42679835e867ef2118ba78f088f8300511420c6603c21d9c788152f35b80fd5b50346102a557806003193601126102a55760206040517f189ab7a9244df0848122154315af71fe140f3db0fe014031783b0946b8c9d2e38152f35b50346102a55760203660031901126102a55761030d61030061228e565b61030861281a565b612852565b80f35b9050346104c85760203660031901126104c857610416600960406104c4946060610140835161033e81612351565b838152826020820152838582015283838201528360808201528360a08201528360c08201528360e08201528361010082015283610120820152015284358152600b602052206040519361039085612351565b81546001600160a01b031685526103a96001830161243c565b602086015260ff60028301541615156040860152600382015460608601528101546080850152600581015460a085015260ff600682015416151560c0850152600781015460e085015260ff6008820154818116151561010087015260081c1615156101208501520161243c565b6101408201526040519182916020835260018060a01b0381511660208401526020810151610140610455610160928360408801526101808701906124dd565b9260408101511515606087015260608101516080870152608081015160a087015260a081015160c087015260c0810151151560e087015260e08101516101008701526101008101511515610120870152610120810151151582870152015190601f1985840301908501526124dd565b0390f35b5080fd5b9050346104c85760203660031901126104c857338252600660205260ff604083205416156104fb573560025580f35b60405163fb83383760e01b8152fd5b82346102a55761051936612502565b3383526020916006835260ff604085205416156106e1576001600160a01b0316808452600883526040842060019081015490919060181c60ff16151582146106d0578452600883526040842061056f8380612922565b90966001600160401b0382116106bd57506105948161058e8454612404565b8461296a565b85601f82116001146106545790806105d294939288996105e497989992610649575b50505f19600383901b1c191690831b1781555b019383016129ad565b839060ff801983541691151516179055565b6106096105f3604083016129ad565b835461ff00191690151560081b61ff0016178355565b610615606082016129ad565b15159062ff000063ff00000061062f6080865494016129ad565b151560181b169260101b169063ffff000019161717905580f35b0135905089806105b6565b82875285872090601f198316885b8181106106a85750916105e49697989984928796956105d298951061068f575b505050811b0181556105c9565b01355f19600384901b60f8161c19169055898080610682565b8a830135845592860192918801918801610662565b634e487b7160e01b875260419052602486fd5b60405163096bb4a360e41b81528690fd5b60405163fb83383760e01b81528590fd5b82346102a557806003193601126102a55760206040517f0ce23c3e399818cfee81a7ab0880f714e53d7672b08df0fa62f2843416e1ea098152f35b82346102a557806003193601126102a55760209054604051908152f35b82346102a557806003193601126102a5576020600254604051908152f35b82346102a557806003193601126102a55760206040517f65d7a28e3265b37a6474929f336521b332c1681b933f6cb9f3376673440d862a8152f35b9050346104c85760203660031901126104c857338252600660205260ff604083205416156104fb578035905580f35b9050346104c85760403660031901126104c85761081c90356107f26122a8565b908084525f80516020612a6a8339815191526020526108176001604086200154612644565b61279a565b5080f35b9050346104c85760203660031901126104c857338252600660205260ff604083205416156104fb573560035580f35b82346102a557806003193601126102a5576005546040516001600160a01b039091168152602090f35b82346102a557610887366125ac565b906108906125ed565b6001600160a01b0391821691821561096d5760405190825191602081818601946108bb8183886123e3565b810160078152030190205416801561095d57906109369291855260066020526108ff6020604087209260ff19938481541690556040518093819287519283916123e3565b60079082019081520301902080546001600160a01b0319168517905583855260066020526040852080549091166001179055612a29565b7ff611fec7babefd259c57ea5b6006acff8140ab17bb816c65ba0aa7e36c09caa88380a380f35b60405162b8005960e81b81528690fd5b604051633cefac3360e01b81528590fd5b82346102a557806003193601126102a55760206040517fcbaaf41b181bb6e269c490e876a7c97711b57e21dd8e5528423cf57579726b358152f35b82346102a557806003193601126102a557602090604051908152f35b9050346104c8576109e5366125ac565b6109ed6125ed565b6001600160a01b03908116928315610ab2576040519183519260208181870195610a188183896123e3565b810160078152030190205416610aa3575090610a446020610a7c936040518093819286519283916123e3565b60079082019081520301902080546001600160a01b03191684179055828452600660205260408420805460ff19166001179055612a29565b7f8b4ef7d4e5bc8f098e6f637ac0acf4aee47b3f027efea6307264b06b4bc9d2988380a380f35b604051637044eb7960e01b8152fd5b604051633cefac3360e01b8152fd5b82346102a55760603660031901126102a557610adb6122a8565b60443592358252600d602052604082209060018060a01b03168252602052604081209081548310156102a5576020610b138484612583565b90546040519160031b1c8152f35b9050346104c85760203660031901126104c857608091604091358152600c6020522080549060018060a01b036001820154169060ff6003600283015492015416916040519384526020840152604083015215156060820152f35b9050346104c85760403660031901126104c857604060209260ff92610b9e6122a8565b903582525f80516020612a6a83398151915285528282206001600160a01b03909116825284522054604051911615158152f35b82346102a557806003193601126102a5575f80516020612a4a833981519152546040516001600160a01b039091168152602090f35b9050346104c85760203660031901126104c8578160409160809360608451610c2d81612336565b82815282602082015282868201520152358152600c60205220604051610c5281612336565b81549182825260018060a01b038060018301541660208401908152606060ff60036002860154956040880196875201541694019315158452604051948552511660208401525160408301525115156060820152f35b82346102a557806003193601126102a55760206040517f7804d923f43a17d325d77e781528e0793b2edd9890ab45fc64efd7b4b427744c8152f35b82346102a55760203660031901126102a5578135906001600160401b0382116102a5576104c4610d2c6020610d193686880161238e565b81604051938285809451938492016123e3565b60099082019081520301902054604080516001600160a01b038316815260ff60a084901c81161515602083015260a89390931c9092161515908201529081906060820190565b82346102a557806003193601126102a557610d8b61281a565b5f80516020612a4a83398151915280546001600160a01b0319811690915581906001600160a01b03167f8be0079c531659141344cd1fd0a4f28419497f9722a3daafe3b4186f6b6457e08280a380f35b9050346104c857600319604036820112610ec357602435906001600160401b038211610ec757610160908236030112610ec357338352600660205260ff60408420541615610eb35781358352600b602052604083209160ff60068401541615610ea45750906008610e8a6101248460a461030d960135600586015560648101356003860155610e84610e6f604483016129ad565b600287019060ff801983541691151516179055565b016129ad565b91019061ff00825491151560081b169061ff001916179055565b6040516336f7ce4f60e11b8152fd5b5060405163fb83383760e01b8152fd5b8280fd5b8380fd5b82346102a5576020806003193601126104c857604060a092610eeb61228e565b8160808451610ef98161231b565b60608152828782015282868201528260608201520152600180861b03168152600883522090600160405192610f2d8461231b565b610f368161243c565b845201548183019160ff8216151583526040840160ff8360081c1615158152610f8f606086019260ff8560101c161515845260ff608088019560181c1615158552604051978897828952519188015260c08701906124dd565b9351151560408601525115156060850152511515608084015251151560a08301520390f35b82346102a55760203660031901126102a55760209060ff906040906001600160a01b03610fdf61228e565b168152600684522054166040519015158152f35b9050346104c85761100336612547565b913384526020906006825260ff604086205416156104fb5760405192805191838201926110318187866123e3565b850160098152858560018060a01b0397889303019020541661111257506110659183916040519384928392519283916123e3565b81016009815203019020908261107a856129d0565b1690825461110282870195600a611090886129ad565b15159460408a019760ff60a81b9687966110a98b6129ad565b15159960ff60a01b9a8b60018060b01b03199b8c9260a81b169460a01b1692161717179055826110d88b6129d0565b168b52526110e960408a20986129d0565b16936110f68854976129ad565b151560a01b16946129ad565b151560a81b169316171717905580f35b604051631192a36960e31b8152fd5b82346102a557806003193601126102a5576020600354604051908152f35b9050346104c857816003193601126104c85760209054604051908152f35b9050346104c85760403660031901126104c85761117861228e565b6111806122a8565b907ff0c57e16840df040f15088dc2f81fe391c3923bec73e23a9662efc9c229c6a009283549260ff8460401c1615936001600160401b038116801590816112c0575b60011490816112b6575b1590816112ad575b5061129c57916103e89161123994938660016001600160401b0319831617895561127d575b506112026128c3565b61120a6128c3565b61121384612852565b60018060a01b031660018060a01b03196005541617600555866002558660035555612672565b50611242575080f35b805460ff60401b19169055604051600181527fc7f505b2f371ae2175ee4913f4499e1f2633a7b5936321eed1cdaeb6115181d290602090a180f35b68ffffffffffffffffff1916680100000000000000011787555f6111f9565b60405163f92ee8a960e01b81528390fd5b9050155f6111d4565b303b1591506111cc565b8691506111c2565b9050346104c85760a03660031901126104c8578035906080366023190112610ec357338352600660205260ff604084205416156104fb57506024359061130c6129ba565b818452600c60205260408420838155926001600160a01b039060018501826113326129ba565b82546001600160a01b031916911617905560643560028601556084359485151586036113a05761138f95600361137492019060ff801983541691151516179055565b8552600d602052604085209116845260205260408320612a06565b61139a6001546129e4565b60015580f35b8680fd5b9050346104c857602090600319908282360112610ec7578035926001600160401b038085116116ae576101608584019486360301126116ae573386526006825260ff6040872054161561169d5785548652600b825260408620936001600160a01b0361140f826129d0565b86546001600160a01b03191691161785556001948086016114336024890184612922565b9085821161168a5761144f826114498554612404565b8561296a565b8a908b601f841160011461161b57928061154a979693610144969360099692611610575b50505f19600383901b1c1916908b1b1790555b6114aa61149560448c016129ad565b600283019060ff801983541691151516179055565b60648a0135600382015560848a01358882015560a48a013560058201556114eb6114d660c48c016129ad565b600683019060ff801983541691151516179055565b60e48a013560078201556115416008820161151e61150c6101048e016129ad565b829060ff801983541691151516179055565b61152b6101248d016129ad565b815461ff00191690151560081b61ff0016179055565b01970190612922565b93909184116106bd5750611568836115628754612404565b8761296a565b8591601f84116001146115ae575092829391839287946115a3575b50501b915f199060031b1c19161790555b61159e81546129e4565b815580f35b013592505f80611583565b9183601f1981168789528489209489905b888383106115f657505050106115dd575b505050811b019055611594565b01355f19600384901b60f8161c191690555f80806115d0565b8686013588559096019593840193879350908101906115bf565b013590505f80611473565b908a9392601f1984168684528a8420935b8b8282106116745750509260099592859261154a9a999661014499961061165b575b505050811b019055611486565b01355f19600384901b60f8161c191690555f808061164e565b8385013586558e9790950194928301920161162c565b634e487b7160e01b8b526041885260248bfd5b60405163fb83383760e01b81528390fd5b8580fd5b82346102a55760203660031901126102a5578135906001600160401b0382116102a5576104c461170560206116e93686880161238e565b6116f1612904565b5081604051938285809451938492016123e3565b8101600981520301902060ff6040519161171e836122ec565b5460018060a01b0381168352818160a01c161515602084015260a81c1615156040820152604051918291826122be565b82346102a55760403660031901126102a5576117686122a8565b336001600160a01b038216036117835761081c91923561279a565b60405163334bd91960e11b81528390fd5b82346102a55760203660031901126102a55781358152600b6020526040902080546001600160a01b0316906104c4906117cf6001820161243c565b9360ff80600284015416926003810154928101546005820154836006840154169060078401549261180760096008870154960161243c565b966118266040519c8d9c8d5260208d61016091829101528d01906124dd565b98151560408c015260608b015260808a015260a0890152151560c088015260e0870152818116151561010087015260081c1615156101208501528382036101408501526124dd565b82346102a55760203660031901126102a5576001600160a01b03906040908261189561228e565b168152600a60205220546104c4604051928260ff859460a81c169160ff8260a01c1691168491926040919493606084019560018060a01b03168452151560208401521515910152565b9050346104c85760403660031901126104c85761081c90356118fe6122a8565b908084525f80516020612a6a8339815191526020526119236001604086200154612644565b612710565b9050346104c85760203660031901126104c85760406020926001923581525f80516020612a6a8339815191528452200154604051908152f35b9050346104c85760403660031901126104c8576024358015158103610ec357338352600660205260ff60408420541615610eb35781358352600b602052604083209160ff60068401541615610ea45750906119cd600992600883019060ff801983541691151516179055565b016119d88154612404565b601f81116119f5575b50600e66697066733a2f2f60c81b01905580f35b81835260208320611a0e91601f0160051c810190612954565b5f6119e1565b82346102a55760403660031901126102a5576001600160401b0391602435838111610ec357611a46903690830161238e565b9233835260206006815260ff6040852054161561169d5782358452600b81526040842060ff60068201541615611b3f57600901928551928311611b2c5750611a92826114498554612404565b80601f8311600114611acb5750839482939492611ac0575b50508160011b915f199060031b1c191617905580f35b015190508480611aaa565b90601f198316958486528286209286905b888210611b1457505083600195969710611afc575b505050811b01905580f35b01515f1960f88460031b161c19169055848080611af1565b80600185968294968601518155019501930190611adc565b634e487b7160e01b855260419052602484fd5b6040516336f7ce4f60e11b81528490fd5b9050346104c857611b6036612547565b913384526020906006825260ff604086205416156104fb576040519280519183820192611b8e8187866123e3565b850160098152858560018060a01b03978893030190205416908115611bd25750918391611065938852600a83528760408120556040519384928392519283916123e3565b60405163930b449560e01b8152fd5b82346102a557611bf036612502565b3383526020916006835260ff604085205416156106e1576001600160a01b0316808452600883526040842060019081015490919060181c60ff1615611ced5784526008835260408420611c438380612922565b90966001600160401b0382116106bd5750611c628161058e8454612404565b85601f8211600114611c9e5790806105d294939288996105e4979899926106495750505f19600383901b1c191690831b178155019383016129ad565b82875285872090601f198316885b818110611cd85750916105e49697989984928796956105d298951061068f57505050811b0181556105c9565b8a830135845592860192918801918801611cac565b6040516365553c4160e11b81528690fd5b82346102a55760203660031901126102a557611d54906040906001600160a01b03611d2761228e565b1681526008602052206001611d3b8261243c565b91015460ff60405193849360a0855260a08501906124dd565b9181811615156020850152818160081c1615156040850152818160101c161515606085015260181c16151560808301520390f35b9050346104c85760203660031901126104c85780356001600160401b038111610ec357611db8903690830161238e565b611dc06125ed565b6040518151906020830191611dd68183856123e3565b60079082019081528190036020019020546001600160a01b0316928315611e6d575090611e136020611e46936040518093819286519283916123e3565b60079082019081520301902080546001600160a01b0319169055828452600660205260408420805460ff19169055612a29565b7f7ad6d7c73213a93d033801d72c729d90fb72104796b75ad799858b26f2b9872f8380a380f35b60405162b8005960e81b8152fd5b82346102a55760603660031901126102a5578135611e976122a8565b6001600160a01b03604435818116929083900361207d573385526020916006835260ff6040872054161561206c57848652600c83528060408720921680158015612064575b6120535760039060ff828501541615612042576001928385019082825491821603612031576001600160a01b0319168717905583548852600d85526040808920918952908552872087835b611f4c575b8861030d89898989548552600d8152604085209185525260408320612a06565b81548082101561202b5788611f618385612583565b905490861b1c14611f7c5750611f76906129e4565b83611f27565b92935090915f199182820191821161201857818103611fdc575b505081548015611fc95761030d989950810192611fb38484612583565b81939154921b1b19169055558594878080611f2c565b634e487b7160e01b895260318a52602489fd5b611ff9611fec6120119386612583565b905490871b1c9185612583565b90919082549060031b91821b915f19901b1916179055565b8980611f96565b634e487b7160e01b8a5260118b5260248afd5b50611f2c565b604051630d806a2b60e11b81528b90fd5b6040516355a150f760e11b81528990fd5b604051630d806a2b60e11b81528890fd5b508415611edc565b60405163fb83383760e01b81528790fd5b8480fd5b82346102a557806003193601126102a5576020600154604051908152f35b9050346104c85760403660031901126104c8576120ba6122a8565b90358252602090600d8252604083209060018060a01b0316835281526040822060405192838383549182815201908193835284832090835b818110612146575050508461210891038561236d565b60405193838594850191818652518092526040850193925b82811061212f57505050500390f35b835185528695509381019392810192600101612120565b8254845292860192600192830192016120f2565b82346102a55760203660031901126102a5578135906001600160401b0382116102a557602061218b3684860161238e565b8161219f60405192838151938492016123e3565b600790820190815281900382019020546040516001600160a01b039091168152f35b9050346104c85760203660031901126104c8573563ffffffff60e01b81168091036104c857602090637965db0b60e01b8114908115612206575b506040519015158152f35b6301ffc9a760e01b149050826121fb565b82346102a55760203660031901126102a5576104c49060ff604061223961228e565b92612242612904565b506001600160a01b039384168152600a602052206040519290612264846122ec565b549081168352818160a01c161515602084015260a81c1615156040820152604051918291826122be565b600435906001600160a01b03821682036122a457565b5f80fd5b602435906001600160a01b03821682036122a457565b81516001600160a01b0316815260208083015115159082015260409182015115159181019190915260600190565b606081019081106001600160401b0382111761230757604052565b634e487b7160e01b5f52604160045260245ffd5b60a081019081106001600160401b0382111761230757604052565b608081019081106001600160401b0382111761230757604052565b61016081019081106001600160401b0382111761230757604052565b90601f801991011681019081106001600160401b0382111761230757604052565b81601f820112156122a4578035906001600160401b03821161230757604051926123c2601f8401601f19166020018561236d565b828452602083830101116122a457815f926020809301838601378301015290565b5f5b8381106123f45750505f910152565b81810151838201526020016123e5565b90600182811c92168015612432575b602083101461241e57565b634e487b7160e01b5f52602260045260245ffd5b91607f1691612413565b9060405191825f82549261244f84612404565b9081845260019485811690815f146124ba575060011461247a575b50506124789250038361236d565b565b909391505f52602090815f20935f915b8183106124a257505061247893508201015f8061246a565b8554888401850152948501948794509183019161248a565b91505061247894506020925060ff191682840152151560051b8201015f8061246a565b906020916124f6815180928185528580860191016123e3565b601f01601f1916010190565b906003196040818401126122a4576004356001600160a01b03811681036122a45792602435916001600160401b0383116122a4578260a0920301126122a45760040190565b9060806003198301126122a4576004356001600160401b0381116122a4576125748360609260040161238e565b9260231901126122a457602490565b8054821015612598575f5260205f2001905f90565b634e487b7160e01b5f52603260045260245ffd5b60406003198201126122a457600435906001600160401b0382116122a4576125d69160040161238e565b906024356001600160a01b03811681036122a45790565b335f9081527fb7db2dd08fcb62d0c9e08c51941cae53c267786a0b75803fb7960902fc8ef97d602052604081205460ff16156126265750565b6044906040519063e2517d3f60e01b82523360048301526024820152fd5b805f525f80516020612a6a83398151915260205260405f20335f5260205260ff60405f205416156126265750565b6001600160a01b03165f8181527fb7db2dd08fcb62d0c9e08c51941cae53c267786a0b75803fb7960902fc8ef97d60205260408120549091905f80516020612a6a8339815191529060ff1661270b578280526020526040822081835260205260408220600160ff1982541617905533917f2f8788117e7eff1d82e926ec794901d17c78024a50270940304540a733656f0d8180a4600190565b505090565b905f918083525f80516020612a6a83398151915280602052604084209260018060a01b03169283855260205260ff604085205416155f14612794578184526020526040832082845260205260408320600160ff198254161790557f2f8788117e7eff1d82e926ec794901d17c78024a50270940304540a733656f0d339380a4600190565b50505090565b905f918083525f80516020612a6a83398151915280602052604084209260018060a01b03169283855260205260ff6040852054165f1461279457818452602052604083208284526020526040832060ff1981541690557ff6391f5c32d9c69d2a47ea670b442974b53935d1edc7fd64eb21e047a839171b339380a4600190565b5f80516020612a4a833981519152546001600160a01b0316330361283a57565b60405163118cdaa760e01b8152336004820152602490fd5b6001600160a01b039081169081156128ab575f80516020612a4a83398151915280546001600160a01b031981168417909155167f8be0079c531659141344cd1fd0a4f28419497f9722a3daafe3b4186f6b6457e05f80a3565b604051631e4fbdf760e01b81525f6004820152602490fd5b60ff7ff0c57e16840df040f15088dc2f81fe391c3923bec73e23a9662efc9c229c6a005460401c16156128f257565b604051631afcd79f60e31b8152600490fd5b60405190612911826122ec565b5f6040838281528260208201520152565b903590601e19813603018212156122a457018035906001600160401b0382116122a4576020019181360383136122a457565b81811061295f575050565b5f8155600101612954565b9190601f811161297957505050565b612478925f5260205f20906020601f840160051c830193106129a3575b601f0160051c0190612954565b9091508190612996565b3580151581036122a45790565b6044356001600160a01b03811681036122a45790565b356001600160a01b03811681036122a45790565b5f1981146129f25760010190565b634e487b7160e01b5f52601160045260245ffd5b80549190600160401b8310156123075782611ff991600161247895018155612583565b612a41906020604051928284809451938492016123e3565b81010390209056fe9016d09d72d40fdae2fd8ceac6b6234c7706214fd39c1cd1e609a0528c19930002dd7bc7dec4dceedda775e58dd541e08a116c6c53815c0bd028192f7b626800a2646970667358221220a259cc1053d766d1d6dfb353e0a796572200bf3ad0d054ca1afefc20a535b85a64736f6c63430008140033",
  "linkReferences": {},
  "deployedLinkReferences": {}
}