{
  "_format": "hh-sol-artifact-1",
  "contractName": "TheBadgeUsersStore",
  "sourceName": "src/contracts/thebadge/TheBadgeUsersStore.sol",
  "abi": [
    {
      "inputs": [],
      "stateMutability": "nonpayable",
      "type": "constructor"
    },
    {
      "inputs": [],
      "name": "AccessControlBadConfirmation",
      "type": "error"
    },
    {
      "inputs": [
        {
          "internalType": "address",
          "name": "account",
          "type": "address"
        },
        {
          "internalType": "bytes32",
          "name": "neededRole",
          "type": "bytes32"
        }
      ],
      "name": "AccessControlUnauthorizedAccount",
      "type": "error"
    },
    {
      "inputs": [],
      "name": "InvalidInitialization",
      "type": "error"
    },
    {
      "inputs": [],
      "name": "NotInitializing",
      "type": "error"
    },
    {
      "inputs": [
        {
          "internalType": "address",
          "name": "owner",
          "type": "address"
        }
      ],
      "name": "OwnableInvalidOwner",
      "type": "error"
    },
    {
      "inputs": [
        {
          "internalType": "address",
          "name": "account",
          "type": "address"
        }
      ],
      "name": "OwnableUnauthorizedAccount",
      "type": "error"
    },
    {
      "inputs": [],
      "name": "TheBadge__Store_ContractNameAlreadyExists",
      "type": "error"
    },
    {
      "inputs": [],
      "name": "TheBadge__Store_InvalidContractAddress",
      "type": "error"
    },
    {
      "inputs": [],
      "name": "TheBadge__Store_InvalidContractName",
      "type": "error"
    },
    {
      "inputs": [],
      "name": "TheBadge__Store_OperationNotPermitted",
      "type": "error"
    },
    {
      "inputs": [],
      "name": "TheBadge__onlyUser_userNotFound",
      "type": "error"
    },
    {
      "inputs": [],
      "name": "TheBadge__registerUser_alreadyRegistered",
      "type": "error"
    },
    {
      "inputs": [],
      "name": "TheBadge__updateUser_notFound",
      "type": "error"
    },
    {
      "anonymous": false,
      "inputs": [
        {
          "indexed": true,
          "internalType": "string",
          "name": "_contractName",
          "type": "string"
        },
        {
          "indexed": true,
          "internalType": "address",
          "name": "contractAddress",
          "type": "address"
        }
      ],
      "name": "ContractAdded",
      "type": "event"
    },
    {
      "anonymous": false,
      "inputs": [
        {
          "indexed": true,
          "internalType": "string",
          "name": "_contractName",
          "type": "string"
        },
        {
          "indexed": true,
          "internalType": "address",
          "name": "contractAddress",
          "type": "address"
        }
      ],
      "name": "ContractRemoved",
      "type": "event"
    },
    {
      "anonymous": false,
      "inputs": [
        {
          "indexed": true,
          "internalType": "string",
          "name": "_contractName",
          "type": "string"
        },
        {
          "indexed": true,
          "internalType": "address",
          "name": "contractAddress",
          "type": "address"
        }
      ],
      "name": "ContractUpdated",
      "type": "event"
    },
    {
      "anonymous": false,
      "inputs": [
        {
          "indexed": false,
          "internalType": "uint64",
          "name": "version",
          "type": "uint64"
        }
      ],
      "name": "Initialized",
      "type": "event"
    },
    {
      "anonymous": false,
      "inputs": [
        {
          "indexed": true,
          "internalType": "address",
          "name": "previousOwner",
          "type": "address"
        },
        {
          "indexed": true,
          "internalType": "address",
          "name": "newOwner",
          "type": "address"
        }
      ],
      "name": "OwnershipTransferred",
      "type": "event"
    },
    {
      "anonymous": false,
      "inputs": [
        {
          "indexed": true,
          "internalType": "bytes32",
          "name": "role",
          "type": "bytes32"
        },
        {
          "indexed": true,
          "internalType": "bytes32",
          "name": "previousAdminRole",
          "type": "bytes32"
        },
        {
          "indexed": true,
          "internalType": "bytes32",
          "name": "newAdminRole",
          "type": "bytes32"
        }
      ],
      "name": "RoleAdminChanged",
      "type": "event"
    },
    {
      "anonymous": false,
      "inputs": [
        {
          "indexed": true,
          "internalType": "bytes32",
          "name": "role",
          "type": "bytes32"
        },
        {
          "indexed": true,
          "internalType": "address",
          "name": "account",
          "type": "address"
        },
        {
          "indexed": true,
          "internalType": "address",
          "name": "sender",
          "type": "address"
        }
      ],
      "name": "RoleGranted",
      "type": "event"
    },
    {
      "anonymous": false,
      "inputs": [
        {
          "indexed": true,
          "internalType": "bytes32",
          "name": "role",
          "type": "bytes32"
        },
        {
          "indexed": true,
          "internalType": "address",
          "name": "account",
          "type": "address"
        },
        {
          "indexed": true,
          "internalType": "address",
          "name": "sender",
          "type": "address"
        }
      ],
      "name": "RoleRevoked",
      "type": "event"
    },
    {
      "inputs": [],
      "name": "CLAIMER_ROLE",
      "outputs": [
        {
          "internalType": "bytes32",
          "name": "",
          "type": "bytes32"
        }
      ],
      "stateMutability": "view",
      "type": "function"
    },
    {
      "inputs": [],
      "name": "DEFAULT_ADMIN_ROLE",
      "outputs": [
        {
          "internalType": "bytes32",
          "name": "",
          "type": "bytes32"
        }
      ],
      "stateMutability": "view",
      "type": "function"
    },
    {
      "inputs": [],
      "name": "PAUSER_ROLE",
      "outputs": [
        {
          "internalType": "bytes32",
          "name": "",
          "type": "bytes32"
        }
      ],
      "stateMutability": "view",
      "type": "function"
    },
    {
      "inputs": [],
      "name": "UPGRADER_ROLE",
      "outputs": [
        {
          "internalType": "bytes32",
          "name": "",
          "type": "bytes32"
        }
      ],
      "stateMutability": "view",
      "type": "function"
    },
    {
      "inputs": [],
      "name": "URI_SETTER_ROLE",
      "outputs": [
        {
          "internalType": "bytes32",
          "name": "",
          "type": "bytes32"
        }
      ],
      "stateMutability": "view",
      "type": "function"
    },
    {
      "inputs": [],
      "name": "USER_MANAGER_ROLE",
      "outputs": [
        {
          "internalType": "bytes32",
          "name": "",
          "type": "bytes32"
        }
      ],
      "stateMutability": "view",
      "type": "function"
    },
    {
      "inputs": [],
      "name": "VERIFIER_ROLE",
      "outputs": [
        {
          "internalType": "bytes32",
          "name": "",
          "type": "bytes32"
        }
      ],
      "stateMutability": "view",
      "type": "function"
    },
    {
      "inputs": [
        {
          "internalType": "string",
          "name": "_contractName",
          "type": "string"
        },
        {
          "internalType": "address",
          "name": "_contractAddress",
          "type": "address"
        }
      ],
      "name": "addPermittedContract",
      "outputs": [],
      "stateMutability": "nonpayable",
      "type": "function"
    },
    {
      "inputs": [
        {
          "internalType": "address",
          "name": "",
          "type": "address"
        }
      ],
      "name": "allowedContractAddresses",
      "outputs": [
        {
          "internalType": "bool",
          "name": "",
          "type": "bool"
        }
      ],
      "stateMutability": "view",
      "type": "function"
    },
    {
      "inputs": [
        {
          "internalType": "string",
          "name": "",
          "type": "string"
        }
      ],
      "name": "allowedContractAddressesByContractName",
      "outputs": [
        {
          "internalType": "address",
          "name": "",
          "type": "address"
        }
      ],
      "stateMutability": "view",
      "type": "function"
    },
    {
      "inputs": [
        {
          "internalType": "address",
          "name": "userAddress",
          "type": "address"
        },
        {
          "components": [
            {
              "internalType": "string",
              "name": "metadata",
              "type": "string"
            },
            {
              "internalType": "bool",
              "name": "isCompany",
              "type": "bool"
            },
            {
              "internalType": "bool",
              "name": "isCreator",
              "type": "bool"
            },
            {
              "internalType": "bool",
              "name": "suspended",
              "type": "bool"
            },
            {
              "internalType": "bool",
              "name": "initialized",
              "type": "bool"
            }
          ],
          "internalType": "struct TheBadgeUsersStore.User",
          "name": "newUser",
          "type": "tuple"
        }
      ],
      "name": "createUser",
      "outputs": [],
      "stateMutability": "nonpayable",
      "type": "function"
    },
    {
      "inputs": [
        {
          "internalType": "address",
          "name": "controllerAddress",
          "type": "address"
        },
        {
          "internalType": "address",
          "name": "userAddress",
          "type": "address"
        },
        {
          "components": [
            {
              "internalType": "address",
              "name": "user",
              "type": "address"
            },
            {
              "internalType": "string",
              "name": "userMetadata",
              "type": "string"
            },
            {
              "internalType": "string",
              "name": "verificationEvidence",
              "type": "string"
            },
            {
              "internalType": "enum LibTheBadgeUsers.VerificationStatus",
              "name": "verificationStatus",
              "type": "uint8"
            },
            {
              "internalType": "address",
              "name": "verificationController",
              "type": "address"
            },
            {
              "internalType": "bool",
              "name": "initialized",
              "type": "bool"
            }
          ],
          "internalType": "struct TheBadgeUsersStore.UserVerification",
          "name": "user",
          "type": "tuple"
        }
      ],
      "name": "createUserVerificationStatus",
      "outputs": [],
      "stateMutability": "nonpayable",
      "type": "function"
    },
    {
      "inputs": [
        {
          "internalType": "bytes32",
          "name": "role",
          "type": "bytes32"
        }
      ],
      "name": "getRoleAdmin",
      "outputs": [
        {
          "internalType": "bytes32",
          "name": "",
          "type": "bytes32"
        }
      ],
      "stateMutability": "view",
      "type": "function"
    },
    {
      "inputs": [
        {
          "internalType": "address",
          "name": "userAddress",
          "type": "address"
        }
      ],
      "name": "getUser",
      "outputs": [
        {
          "components": [
            {
              "internalType": "string",
              "name": "metadata",
              "type": "string"
            },
            {
              "internalType": "bool",
              "name": "isCompany",
              "type": "bool"
            },
            {
              "internalType": "bool",
              "name": "isCreator",
              "type": "bool"
            },
            {
              "internalType": "bool",
              "name": "suspended",
              "type": "bool"
            },
            {
              "internalType": "bool",
              "name": "initialized",
              "type": "bool"
            }
          ],
          "internalType": "struct TheBadgeUsersStore.User",
          "name": "",
          "type": "tuple"
        }
      ],
      "stateMutability": "view",
      "type": "function"
    },
    {
      "inputs": [
        {
          "internalType": "address",
          "name": "controllerAddress",
          "type": "address"
        },
        {
          "internalType": "address",
          "name": "userAddress",
          "type": "address"
        }
      ],
      "name": "getUserVerifyStatus",
      "outputs": [
        {
          "components": [
            {
              "internalType": "address",
              "name": "user",
              "type": "address"
            },
            {
              "internalType": "string",
              "name": "userMetadata",
              "type": "string"
            },
            {
              "internalType": "string",
              "name": "verificationEvidence",
              "type": "string"
            },
            {
              "internalType": "enum LibTheBadgeUsers.VerificationStatus",
              "name": "verificationStatus",
              "type": "uint8"
            },
            {
              "internalType": "address",
              "name": "verificationController",
              "type": "address"
            },
            {
              "internalType": "bool",
              "name": "initialized",
              "type": "bool"
            }
          ],
          "internalType": "struct TheBadgeUsersStore.UserVerification",
          "name": "",
          "type": "tuple"
        }
      ],
      "stateMutability": "view",
      "type": "function"
    },
    {
      "inputs": [
        {
          "internalType": "bytes32",
          "name": "role",
          "type": "bytes32"
        },
        {
          "internalType": "address",
          "name": "account",
          "type": "address"
        }
      ],
      "name": "grantRole",
      "outputs": [],
      "stateMutability": "nonpayable",
      "type": "function"
    },
    {
      "inputs": [
        {
          "internalType": "bytes32",
          "name": "role",
          "type": "bytes32"
        },
        {
          "internalType": "address",
          "name": "account",
          "type": "address"
        }
      ],
      "name": "hasRole",
      "outputs": [
        {
          "internalType": "bool",
          "name": "",
          "type": "bool"
        }
      ],
      "stateMutability": "view",
      "type": "function"
    },
    {
      "inputs": [
        {
          "internalType": "address",
          "name": "admin",
          "type": "address"
        }
      ],
      "name": "initialize",
      "outputs": [],
      "stateMutability": "nonpayable",
      "type": "function"
    },
    {
      "inputs": [],
      "name": "owner",
      "outputs": [
        {
          "internalType": "address",
          "name": "",
          "type": "address"
        }
      ],
      "stateMutability": "view",
      "type": "function"
    },
    {
      "inputs": [],
      "name": "registerUserProtocolFee",
      "outputs": [
        {
          "internalType": "uint256",
          "name": "",
          "type": "uint256"
        }
      ],
      "stateMutability": "view",
      "type": "function"
    },
    {
      "inputs": [
        {
          "internalType": "address",
          "name": "",
          "type": "address"
        }
      ],
      "name": "registeredUsers",
      "outputs": [
        {
          "internalType": "string",
          "name": "metadata",
          "type": "string"
        },
        {
          "internalType": "bool",
          "name": "isCompany",
          "type": "bool"
        },
        {
          "internalType": "bool",
          "name": "isCreator",
          "type": "bool"
        },
        {
          "internalType": "bool",
          "name": "suspended",
          "type": "bool"
        },
        {
          "internalType": "bool",
          "name": "initialized",
          "type": "bool"
        }
      ],
      "stateMutability": "view",
      "type": "function"
    },
    {
      "inputs": [
        {
          "internalType": "string",
          "name": "_contractName",
          "type": "string"
        }
      ],
      "name": "removePermittedContract",
      "outputs": [],
      "stateMutability": "nonpayable",
      "type": "function"
    },
    {
      "inputs": [],
      "name": "renounceOwnership",
      "outputs": [],
      "stateMutability": "nonpayable",
      "type": "function"
    },
    {
      "inputs": [
        {
          "internalType": "bytes32",
          "name": "role",
          "type": "bytes32"
        },
        {
          "internalType": "address",
          "name": "callerConfirmation",
          "type": "address"
        }
      ],
      "name": "renounceRole",
      "outputs": [],
      "stateMutability": "nonpayable",
      "type": "function"
    },
    {
      "inputs": [
        {
          "internalType": "bytes32",
          "name": "role",
          "type": "bytes32"
        },
        {
          "internalType": "address",
          "name": "account",
          "type": "address"
        }
      ],
      "name": "revokeRole",
      "outputs": [],
      "stateMutability": "nonpayable",
      "type": "function"
    },
    {
      "inputs": [
        {
          "internalType": "bytes4",
          "name": "interfaceId",
          "type": "bytes4"
        }
      ],
      "name": "supportsInterface",
      "outputs": [
        {
          "internalType": "bool",
          "name": "",
          "type": "bool"
        }
      ],
      "stateMutability": "view",
      "type": "function"
    },
    {
      "inputs": [
        {
          "internalType": "address",
          "name": "newOwner",
          "type": "address"
        }
      ],
      "name": "transferOwnership",
      "outputs": [],
      "stateMutability": "nonpayable",
      "type": "function"
    },
    {
      "inputs": [
        {
          "internalType": "string",
          "name": "_contractName",
          "type": "string"
        },
        {
          "internalType": "address",
          "name": "_newContractAddress",
          "type": "address"
        }
      ],
      "name": "updatePermittedContract",
      "outputs": [],
      "stateMutability": "nonpayable",
      "type": "function"
    },
    {
      "inputs": [
        {
          "internalType": "uint256",
          "name": "_registerCreatorValue",
          "type": "uint256"
        }
      ],
      "name": "updateRegisterCreatorProtocolFee",
      "outputs": [],
      "stateMutability": "nonpayable",
      "type": "function"
    },
    {
      "inputs": [
        {
          "internalType": "address",
          "name": "userAddress",
          "type": "address"
        },
        {
          "components": [
            {
              "internalType": "string",
              "name": "metadata",
              "type": "string"
            },
            {
              "internalType": "bool",
              "name": "isCompany",
              "type": "bool"
            },
            {
              "internalType": "bool",
              "name": "isCreator",
              "type": "bool"
            },
            {
              "internalType": "bool",
              "name": "suspended",
              "type": "bool"
            },
            {
              "internalType": "bool",
              "name": "initialized",
              "type": "bool"
            }
          ],
          "internalType": "struct TheBadgeUsersStore.User",
          "name": "updatedUser",
          "type": "tuple"
        }
      ],
      "name": "updateUser",
      "outputs": [],
      "stateMutability": "nonpayable",
      "type": "function"
    },
    {
      "inputs": [
        {
          "internalType": "address",
          "name": "controllerAddress",
          "type": "address"
        },
        {
          "internalType": "address",
          "name": "userAddress",
          "type": "address"
        },
        {
          "internalType": "enum LibTheBadgeUsers.VerificationStatus",
          "name": "_verificationStatus",
          "type": "uint8"
        }
      ],
      "name": "updateUserVerificationStatus",
      "outputs": [],
      "stateMutability": "nonpayable",
      "type": "function"
    },
    {
      "inputs": [
        {
          "internalType": "address",
          "name": "",
          "type": "address"
        },
        {
          "internalType": "address",
          "name": "",
          "type": "address"
        }
      ],
      "name": "verifiedUsersByControllerAddress",
      "outputs": [
        {
          "internalType": "address",
          "name": "user",
          "type": "address"
        },
        {
          "internalType": "string",
          "name": "userMetadata",
          "type": "string"
        },
        {
          "internalType": "string",
          "name": "verificationEvidence",
          "type": "string"
        },
        {
          "internalType": "enum LibTheBadgeUsers.VerificationStatus",
          "name": "verificationStatus",
          "type": "uint8"
        },
        {
          "internalType": "address",
          "name": "verificationController",
          "type": "address"
        },
        {
          "internalType": "bool",
          "name": "initialized",
          "type": "bool"
        }
      ],
      "stateMutability": "view",
      "type": "function"
    },
    {
      "stateMutability": "payable",
      "type": "receive"
    }
  ],
  "bytecode": "0x608080604052346100b8577ff0c57e16840df040f15088dc2f81fe391c3923bec73e23a9662efc9c229c6a009081549060ff8260401c166100a957506001600160401b036002600160401b031982821601610064575b604051611e7590816100bd8239f35b6001600160401b031990911681179091556040519081527fc7f505b2f371ae2175ee4913f4499e1f2633a7b5936321eed1cdaeb6115181d290602090a15f8080610055565b63f92ee8a960e01b8152600490fd5b5f80fdfe6080604081815260049182361015610021575b505050361561001f575f80fd5b005b5f92833560e01c91826301ffc9a71461173f5750816306d7a28c146116d75781630deee176146115f35781630e50cee51461156a5781630e90157a1461120d578163178682c1146110cf578163248a9ca3146110985781632f2ff15d1461106e57816336568abe1461102857816350c2c4de14610cfd578163687a055714610cbf5781636f77926b14610bd7578163715018a614610b6e5781637f34571014610b335781638463619114610a745781638da5cb5b14610a3f57816391d14854146109ec578163a1fa355c14610904578163a217fddf146108e9578163a41e35c3146108ae578163b26fc204146107b4578163c4d66de814610676578163d3fc8d4014610542578163d547741f146104f6578163e63ab1e9146104bb578163e70a0e691461049e578163e7705db614610463578163e9ab224e14610277578163f1fe717e1461023757508063f2fde38b14610207578063f72c0d8b146101cd5763fc5f18d3146101905780610012565b346101c957816003193601126101c957602090517f11a8cb5a02bd6c42679835e867ef2118ba78f088f8300511420c6603c21d9c788152f35b5080fd5b50346101c957816003193601126101c957602090517f189ab7a9244df0848122154315af71fe140f3db0fe014031783b0946b8c9d2e38152f35b823461023457602036600319011261023457610231610224611877565b61022c611c89565b611cc1565b80f35b80fd5b9190503461027357602036600319011261027357338352600160205260ff818420541615610266575035815580f35b5163fb83383760e01b8152fd5b8280fd5b9190503461027357610288366119b5565b91909233855260019060209482865260ff848820541615610454576001600160a01b03168087526003865283872083015490919060181c60ff161515831461044657508552600384528185208335601e19853603018112156104425784018035906001600160401b03821161043e578136038782011361043e5786906103188361031286546118b7565b86611d7f565b8890601f84116001146103ca57928061037397969361036c969361035a968d936103bd575b5050505f19600383901b1c191690831b1781555b01958501611dd2565b859060ff801983541691151516179055565b8201611dd2565b151590825461ff0063ff0000006103a2608062ff000061039560608801611dd2565b151560101b169501611dd2565b151560181b169360081b169063ffffff001916171717905580f35b0101359050895f8061033d565b848a52828a20929091601f1985168b5b81811061042657509361036c9693889593879361035a986103739c9b961061040b575b50505050811b018155610351565b5f1960f88660031b161c19920101351690555f808b816103fd565b8483018401358655948801948b9392830192016103da565b8780fd5b8680fd5b835163096bb4a360e41b8152fd5b50825163fb83383760e01b8152fd5b5050346101c957816003193601126101c957602090517f0ce23c3e399818cfee81a7ab0880f714e53d7672b08df0fa62f2843416e1ea098152f35b5050346101c957816003193601126101c957602091549051908152f35b5050346101c957816003193601126101c957602090517f65d7a28e3265b37a6474929f336521b332c1681b933f6cb9f3376673440d862a8152f35b9190503461027357806003193601126102735761053e9135610539600161051b61188d565b938387525f80516020611e2083398151915260205286200154611ab3565b611c09565b5080f35b919050346102735780600319360112610273578061055e611877565b9361056761188d565b82519461057386611792565b8286528260a0602097606089820152606087820152826060820152826080820152015260018060a01b03809716835285528583832091168252845220908051936105bc85611792565b808354168552846106636106576105d5600187016118ef565b9587840196875261064460036105ed600284016118ef565b9288870193845201549660c0606087019961060b60ff8b168c611d73565b60ff60a060808a01998b8d60081c168b52019a60a81c1615158a528b8984519e8f9e8f525116908d015251918b015260e08a0190611990565b9051888203601f190160608a0152611990565b945160808701906119fa565b511660a084015251151560c08301520390f35b90503461027357602036600319011261027357610691611877565b907ff0c57e16840df040f15088dc2f81fe391c3923bec73e23a9662efc9c229c6a0091825460ff81861c1615926001600160401b038216801590816107ac575b60011490816107a2575b159081610799575b5061078b575067ffffffffffffffff198116600117845561072791908361076c575b5061070e611d32565b610716611d32565b61071f81611cc1565b858055611ae1565b50610730578280f35b805460ff60401b1916905551600181527fc7f505b2f371ae2175ee4913f4499e1f2633a7b5936321eed1cdaeb6115181d290602090a15f808280f35b68ffffffffffffffffff1916680100000000000000011784555f610705565b855163f92ee8a960e01b8152fd5b9050155f6106e3565b303b1591506106db565b8591506106d1565b91905034610273576107c536611a1b565b90916107cf611a5c565b6001600160a01b039182169384156108a057815192845193602081818801966107f981838a611856565b810160028152030190205416908115610893575061086c93929160019187528160205261083f60208289209460ff19958681541690558351809381928951928391611856565b8101600281520301902086838060a01b031982541617905585875281602052862091825416179055611ddf565b7ff611fec7babefd259c57ea5b6006acff8140ab17bb816c65ba0aa7e36c09caa88380a380f35b825162b8005960e81b8152fd5b9051633cefac3360e01b8152fd5b5050346101c957816003193601126101c957602090517fcbaaf41b181bb6e269c490e876a7c97711b57e21dd8e5528423cf57579726b358152f35b5050346101c957816003193601126101c95751908152602090f35b919050346102735761091536611a1b565b610920929192611a5c565b6001600160a01b039081169384156109de578251918451926020818188019561094a818389611856565b8101600281520301902054166109d057509061097660206109a994938351809381928751928391611856565b810160028152030190208460018060a01b031982541617905583855260016020528420600160ff19825416179055611ddf565b7f8b4ef7d4e5bc8f098e6f637ac0acf4aee47b3f027efea6307264b06b4bc9d2988380a380f35b8251637044eb7960e01b8152fd5b8251633cefac3360e01b8152fd5b9050346102735781600319360112610273578160209360ff92610a0d61188d565b903582525f80516020611e2083398151915286528282206001600160a01b039091168252855220549151911615158152f35b5050346101c957816003193601126101c9575f80516020611e008339815191525490516001600160a01b039091168152602090f35b905082346102345782600319360112610234578290610a91611877565b92610a9a61188d565b6001600160a01b0394851683526020918252838320908516835290522080548216919060ff90610b0a610acf600183016118ef565b956003610ade600285016118ef565b93015492610afd8251988998895260c060208a015260c0890190611990565b9187830390880152611990565b92610b1a606086018484166119fa565b8160081c16608085015260a81c16151560a08301520390f35b5050346101c957816003193601126101c957602090517f7804d923f43a17d325d77e781528e0793b2edd9890ab45fc64efd7b4b427744c8152f35b8334610234578060031936011261023457610b87611c89565b5f80516020611e0083398151915280546001600160a01b0319811690915581906001600160a01b03167f8be0079c531659141344cd1fd0a4f28419497f9722a3daafe3b4186f6b6457e08280a380f35b5050346101c95760209081600319360112610273578060a093610bf8611877565b8160808451610c06816117c1565b60608152828882015282868201528260608201520152600180871b031681526003845220916001825193610c39856117c1565b610c42816118ef565b85520154908084019260ff8316151584528085019060ff8460081c1615158252610c9b606087019360ff8660101c161515855260ff608089019660181c16151586528251988998828a52519189015260c0880190611990565b94511515908601525115156060850152511515608084015251151560a08301520390f35b5050346101c95760203660031901126101c95760209160ff9082906001600160a01b03610cea611877565b1681526001855220541690519015158152f35b90503461027357606036600319011261027357610d18611877565b90610d2161188d565b9060443590600393848310156104425733875260019560209087825260ff818a20541615611019576001600160a01b03928316808a52848352818a20968416808b52968352818a20825191999194909390610d7b86611792565b845481168652610d8c8386016118ef565b868301908152938a610da0600288016118ef565b96828901978852015499606088019c8d60ff8d16610dbd91611d73565b608089019a848d60081c168c5260a08a019c60a81c60ff16158d8115905261100957908f92918f90610dee91611d73565b8252898552828220915283528c20955186546001600160a01b0319169116178555915180516001600160401b0393918387019190858211610ff6578d8291610e4083610e3a87546118b7565b87611d7f565b8591601f8411600114610f995792610f8e575b50505f19828d1b1c191690841b1790555b6002850193518051938411610f7b5790839291610e888695610e3a8d9998546118b7565b8c82601f8611600114610f1a5750928492909183610f0f575b50501b915f1990861b1c19161790555b01945193841015610efc57508354905191516001600160b01b031990911660ff939093169290921760089190911b610100600160a81b03161790151560a81b60ff60a81b1617905580f35b634e487b7160e01b865260219052602485fd5b015192505f80610ea1565b868252808220949594939291601f198616915b828210610f615750508411610f4a575b505050811b019055610eb1565b01515f1983881b60f8161c191690555f8080610f3d565b8385015186558e9a50948701949384019390810190610f2d565b634e487b7160e01b8c526041875260248cfd5b015190505f80610e53565b9190879450601f198416868452878420935b88828210610fe05750508411610fc9575b505050811b019055610e64565b01515f19838f1b60f8161c191690555f8080610fbc565b8385015186558a97909501949384019301610fab565b634e487b7160e01b8e526041895260248efd5b835163ce848fe360e01b81528b90fd5b5163fb83383760e01b81528390fd5b8383346101c957806003193601126101c95761104261188d565b90336001600160a01b0383160361105f575061053e919235611c09565b5163334bd91960e11b81528390fd5b9190503461027357806003193601126102735761053e9135611093600161051b61188d565b611b7f565b90503461027357602036600319011261027357816020936001923581525f80516020611e2083398151915285522001549051908152f35b91905034610273576110e0366119b5565b91909233855260019060209482865260ff848820541615610454576001600160a01b03168087526003865283872083015490919060181c60ff16156111ff57508552600384528185208335601e19853603018112156104425784018035906001600160401b03821161043e578136038782011361043e5786906111678361031286546118b7565b8890601f84116001146111a757928061037397969361036c969361035a968d936103bd575050505f19600383901b1c191690831b17815501958501611dd2565b848a52828a20929091601f1985168b5b8181106111e757509361036c9693889593879361035a986103739c9b961061040b5750505050811b018155610351565b8483018401358655948801948b9392830192016111b7565b83516365553c4160e11b8152fd5b9190503461027357600319916060368401126115665761122b611877565b9261123461188d565b91604435916001600160401b039081841161043e5760c09084360301126104425784519061126182611792565b61126c8484016118a3565b8252602484013581811161156257611289908436918701016117fd565b908860208085019384526044870135838111610273576112ae908736918a01016117fd565b9389860194855260648801359a60039a8b8d101561155e57606088019c8d5260a46112db60848c016118a3565b9a60808a019b8c5201359a8b15158c0361155a5760a089019b8c5233865260ff826001978888522054161561154a57898f60a08f60ff868b94600180861b03809a16968782528c52898282209816978882528c52209187519261133d84611792565b89815416845261134e8682016118ef565b8c85015261135e600282016118ef565b89850152015461137382821660608501611d73565b888160081c16608084015260a81c16151591829101521461153a578f52898552818f20908f5284528d20965187546001600160a01b031916911617865551805183870191858211610ff6578d82916113cf83610e3a87546118b7565b8591601f84116001146114dd57926114d2575b50505f19828d1b1c191690841b1790555b6002850193518051938411610f7b57908392916114178695610e3a8d9998546118b7565b8c82601f86116001146114895750928492909183610f0f5750501b915f1990861b1c191617905501945193841015610efc57508354905191516001600160b01b031990911660ff939093169290921760089190911b610100600160a81b03161790151560a81b60ff60a81b1617905580f35b868252808220949594939291601f198616915b8282106114b85750508411610f4a57505050811b019055610eb1565b8385015186558e9a5094870194938401939081019061149c565b015190505f806113e2565b9190879450601f198416868452878420935b88828210611524575050841161150d575b505050811b0190556113f3565b01515f19838f1b60f8161c191690555f8080611500565b8385015186558a979095019493840193016114ef565b825163096bb4a360e41b81528b90fd5b815163fb83383760e01b81528a90fd5b8580fd5b8480fd5b8880fd5b8380fd5b5050346101c95760203660031901126101c9576115c09181906001600160a01b03611593611877565b1681526003602052209060ff60016115aa846118ef565b930154825194859460a0865260a0860190611990565b9282821615156020860152828260081c16151590850152818160101c161515606085015260181c16151560808301520390f35b919050346102735760203660031901126102735781356001600160401b0381116115665761162490369084016117fd565b9061162d611a5c565b80518251906020840191611642818385611856565b60029082019081528190036020019020546001600160a01b031693841561089357509061167f60206116b094938351809381928751928391611856565b60029082019081520301902080546001600160a01b031916905583855260016020528420805460ff19169055611ddf565b7f7ad6d7c73213a93d033801d72c729d90fb72104796b75ad799858b26f2b9872f8380a380f35b828434610234576020366003190112610234578235906001600160401b038211610234575060209261170b913691016117fd565b8261171e83519283815193849201611856565b6002908201908152819003830190205490516001600160a01b039091168152f35b849134610273576020366003190112610273573563ffffffff60e01b81168091036102735760209250637965db0b60e01b8114908115611781575b5015158152f35b6301ffc9a760e01b1490508361177a565b60c081019081106001600160401b038211176117ad57604052565b634e487b7160e01b5f52604160045260245ffd5b60a081019081106001600160401b038211176117ad57604052565b90601f801991011681019081106001600160401b038211176117ad57604052565b81601f82011215611852578035906001600160401b0382116117ad5760405192611831601f8401601f1916602001856117dc565b8284526020838301011161185257815f926020809301838601378301015290565b5f80fd5b5f5b8381106118675750505f910152565b8181015183820152602001611858565b600435906001600160a01b038216820361185257565b602435906001600160a01b038216820361185257565b35906001600160a01b038216820361185257565b90600182811c921680156118e5575b60208310146118d157565b634e487b7160e01b5f52602260045260245ffd5b91607f16916118c6565b9060405191825f825492611902846118b7565b9081845260019485811690815f1461196d575060011461192d575b505061192b925003836117dc565b565b909391505f52602090815f20935f915b81831061195557505061192b93508201015f8061191d565b8554888401850152948501948794509183019161193d565b91505061192b94506020925060ff191682840152151560051b8201015f8061191d565b906020916119a981518092818552858086019101611856565b601f01601f1916010190565b90600319604081840112611852576004356001600160a01b03811681036118525792602435916001600160401b038311611852578260a0920301126118525760040190565b906003821015611a075752565b634e487b7160e01b5f52602160045260245ffd5b604060031982011261185257600435906001600160401b03821161185257611a45916004016117fd565b906024356001600160a01b03811681036118525790565b335f9081527fb7db2dd08fcb62d0c9e08c51941cae53c267786a0b75803fb7960902fc8ef97d602052604081205460ff1615611a955750565b6044906040519063e2517d3f60e01b82523360048301526024820152fd5b805f525f80516020611e2083398151915260205260405f20335f5260205260ff60405f20541615611a955750565b6001600160a01b03165f8181527fb7db2dd08fcb62d0c9e08c51941cae53c267786a0b75803fb7960902fc8ef97d60205260408120549091905f80516020611e208339815191529060ff16611b7a578280526020526040822081835260205260408220600160ff1982541617905533917f2f8788117e7eff1d82e926ec794901d17c78024a50270940304540a733656f0d8180a4600190565b505090565b905f918083525f80516020611e2083398151915280602052604084209260018060a01b03169283855260205260ff604085205416155f14611c03578184526020526040832082845260205260408320600160ff198254161790557f2f8788117e7eff1d82e926ec794901d17c78024a50270940304540a733656f0d339380a4600190565b50505090565b905f918083525f80516020611e2083398151915280602052604084209260018060a01b03169283855260205260ff6040852054165f14611c0357818452602052604083208284526020526040832060ff1981541690557ff6391f5c32d9c69d2a47ea670b442974b53935d1edc7fd64eb21e047a839171b339380a4600190565b5f80516020611e00833981519152546001600160a01b03163303611ca957565b60405163118cdaa760e01b8152336004820152602490fd5b6001600160a01b03908116908115611d1a575f80516020611e0083398151915280546001600160a01b031981168417909155167f8be0079c531659141344cd1fd0a4f28419497f9722a3daafe3b4186f6b6457e05f80a3565b604051631e4fbdf760e01b81525f6004820152602490fd5b60ff7ff0c57e16840df040f15088dc2f81fe391c3923bec73e23a9662efc9c229c6a005460401c1615611d6157565b604051631afcd79f60e31b8152600490fd5b6003821015611a075752565b90601f8111611d8d57505050565b5f91825260208220906020601f850160051c83019410611dc8575b601f0160051c01915b828110611dbd57505050565b818155600101611db1565b9092508290611da8565b3580151581036118525790565b611df790602060405192828480945193849201611856565b81010390209056fe9016d09d72d40fdae2fd8ceac6b6234c7706214fd39c1cd1e609a0528c19930002dd7bc7dec4dceedda775e58dd541e08a116c6c53815c0bd028192f7b626800a2646970667358221220fb88d40f63cdbf61f6c96d2667c9e3300d0ade7fb3b2fa10d9cb06e65dd0c3e964736f6c63430008140033",
  "linkReferences": {},
  "deployedLinkReferences": {}
}