{
  "_format": "hh-sol-artifact-1",
  "contractName": "TheBadge",
  "sourceName": "src/contracts/thebadge/TheBadge.sol",
  "abi": [
    {
      "inputs": [],
      "stateMutability": "nonpayable",
      "type": "constructor"
    },
    {
      "inputs": [],
      "name": "TheBadge__SBT",
      "type": "error"
    },
    {
      "inputs": [],
      "name": "TheBadge__createBadgeModel_controllerIsPaused",
      "type": "error"
    },
    {
      "inputs": [],
      "name": "TheBadge__createBadgeModel_invalidController",
      "type": "error"
    },
    {
      "inputs": [],
      "name": "TheBadge__createBadgeModel_wrongValue",
      "type": "error"
    },
    {
      "inputs": [],
      "name": "TheBadge__method_not_supported",
      "type": "error"
    },
    {
      "inputs": [],
      "name": "TheBadge__onlyController_senderIsNotTheController",
      "type": "error"
    },
    {
      "inputs": [],
      "name": "TheBadge__onlyCreator_senderIsNotACreator",
      "type": "error"
    },
    {
      "inputs": [],
      "name": "TheBadge__registerCreator_alreadyRegistered",
      "type": "error"
    },
    {
      "inputs": [],
      "name": "TheBadge__registerCreator_wrongValue",
      "type": "error"
    },
    {
      "inputs": [],
      "name": "TheBadge__requestBadge_badgeModelNotFound",
      "type": "error"
    },
    {
      "inputs": [],
      "name": "TheBadge__requestBadge_controllerIsPaused",
      "type": "error"
    },
    {
      "inputs": [],
      "name": "TheBadge__requestBadge_isPaused",
      "type": "error"
    },
    {
      "inputs": [],
      "name": "TheBadge__requestBadge_wrongValue",
      "type": "error"
    },
    {
      "inputs": [],
      "name": "TheBadge__setBadgeModelController_alreadySet",
      "type": "error"
    },
    {
      "inputs": [],
      "name": "TheBadge__setBadgeModelController_emptyName",
      "type": "error"
    },
    {
      "inputs": [],
      "name": "TheBadge__setBadgeModelController_notFound",
      "type": "error"
    },
    {
      "inputs": [],
      "name": "TheBadge__setControllerStatus_notFound",
      "type": "error"
    },
    {
      "inputs": [],
      "name": "TheBadge__updateBadgeModelFee_badgeModelNotFound",
      "type": "error"
    },
    {
      "inputs": [],
      "name": "TheBadge__updateBadgeModel_badgeModelNotFound",
      "type": "error"
    },
    {
      "inputs": [],
      "name": "TheBadge__updateBadgeModel_notBadgeModelOwner",
      "type": "error"
    },
    {
      "inputs": [],
      "name": "TheBadge__updateCreator_notFound",
      "type": "error"
    },
    {
      "anonymous": false,
      "inputs": [
        {
          "indexed": false,
          "internalType": "address",
          "name": "previousAdmin",
          "type": "address"
        },
        {
          "indexed": false,
          "internalType": "address",
          "name": "newAdmin",
          "type": "address"
        }
      ],
      "name": "AdminChanged",
      "type": "event"
    },
    {
      "anonymous": false,
      "inputs": [
        {
          "indexed": true,
          "internalType": "address",
          "name": "account",
          "type": "address"
        },
        {
          "indexed": true,
          "internalType": "address",
          "name": "operator",
          "type": "address"
        },
        {
          "indexed": false,
          "internalType": "bool",
          "name": "approved",
          "type": "bool"
        }
      ],
      "name": "ApprovalForAll",
      "type": "event"
    },
    {
      "anonymous": false,
      "inputs": [
        {
          "indexed": true,
          "internalType": "uint256",
          "name": "badgeModelId",
          "type": "uint256"
        },
        {
          "indexed": false,
          "internalType": "string",
          "name": "metadata",
          "type": "string"
        }
      ],
      "name": "BadgeModelCreated",
      "type": "event"
    },
    {
      "anonymous": false,
      "inputs": [
        {
          "indexed": true,
          "internalType": "uint256",
          "name": "badgeModelID",
          "type": "uint256"
        },
        {
          "indexed": true,
          "internalType": "uint256",
          "name": "newAmountInBps",
          "type": "uint256"
        }
      ],
      "name": "BadgeModelProtocolFeeUpdated",
      "type": "event"
    },
    {
      "anonymous": false,
      "inputs": [
        {
          "indexed": true,
          "internalType": "uint256",
          "name": "badgeModelId",
          "type": "uint256"
        }
      ],
      "name": "BadgeModelUpdated",
      "type": "event"
    },
    {
      "anonymous": false,
      "inputs": [
        {
          "indexed": true,
          "internalType": "address",
          "name": "beacon",
          "type": "address"
        }
      ],
      "name": "BeaconUpgraded",
      "type": "event"
    },
    {
      "anonymous": false,
      "inputs": [
        {
          "indexed": true,
          "internalType": "address",
          "name": "creator",
          "type": "address"
        },
        {
          "indexed": false,
          "internalType": "string",
          "name": "metadata",
          "type": "string"
        }
      ],
      "name": "CreatorRegistered",
      "type": "event"
    },
    {
      "anonymous": false,
      "inputs": [
        {
          "indexed": false,
          "internalType": "uint8",
          "name": "version",
          "type": "uint8"
        }
      ],
      "name": "Initialized",
      "type": "event"
    },
    {
      "anonymous": false,
      "inputs": [
        {
          "indexed": false,
          "internalType": "address",
          "name": "account",
          "type": "address"
        }
      ],
      "name": "Paused",
      "type": "event"
    },
    {
      "anonymous": false,
      "inputs": [
        {
          "indexed": true,
          "internalType": "address",
          "name": "recipient",
          "type": "address"
        },
        {
          "indexed": true,
          "internalType": "uint256",
          "name": "amount",
          "type": "uint256"
        },
        {
          "indexed": true,
          "internalType": "enum TheBadgeStore.PaymentType",
          "name": "paymentType",
          "type": "uint8"
        }
      ],
      "name": "PaymentMade",
      "type": "event"
    },
    {
      "anonymous": false,
      "inputs": [
        {
          "indexed": true,
          "internalType": "uint256",
          "name": "mintBadgeDefaultFee",
          "type": "uint256"
        },
        {
          "indexed": true,
          "internalType": "uint256",
          "name": "createBadgeModelValue",
          "type": "uint256"
        },
        {
          "indexed": true,
          "internalType": "uint256",
          "name": "registerCreatorValue",
          "type": "uint256"
        }
      ],
      "name": "ProtocolSettingsUpdated",
      "type": "event"
    },
    {
      "anonymous": false,
      "inputs": [
        {
          "indexed": true,
          "internalType": "address",
          "name": "creator",
          "type": "address"
        },
        {
          "indexed": false,
          "internalType": "bool",
          "name": "deleted",
          "type": "bool"
        }
      ],
      "name": "RemovedCreator",
      "type": "event"
    },
    {
      "anonymous": false,
      "inputs": [
        {
          "indexed": true,
          "internalType": "bytes32",
          "name": "role",
          "type": "bytes32"
        },
        {
          "indexed": true,
          "internalType": "bytes32",
          "name": "previousAdminRole",
          "type": "bytes32"
        },
        {
          "indexed": true,
          "internalType": "bytes32",
          "name": "newAdminRole",
          "type": "bytes32"
        }
      ],
      "name": "RoleAdminChanged",
      "type": "event"
    },
    {
      "anonymous": false,
      "inputs": [
        {
          "indexed": true,
          "internalType": "bytes32",
          "name": "role",
          "type": "bytes32"
        },
        {
          "indexed": true,
          "internalType": "address",
          "name": "account",
          "type": "address"
        },
        {
          "indexed": true,
          "internalType": "address",
          "name": "sender",
          "type": "address"
        }
      ],
      "name": "RoleGranted",
      "type": "event"
    },
    {
      "anonymous": false,
      "inputs": [
        {
          "indexed": true,
          "internalType": "bytes32",
          "name": "role",
          "type": "bytes32"
        },
        {
          "indexed": true,
          "internalType": "address",
          "name": "account",
          "type": "address"
        },
        {
          "indexed": true,
          "internalType": "address",
          "name": "sender",
          "type": "address"
        }
      ],
      "name": "RoleRevoked",
      "type": "event"
    },
    {
      "anonymous": false,
      "inputs": [
        {
          "indexed": true,
          "internalType": "address",
          "name": "creator",
          "type": "address"
        },
        {
          "indexed": false,
          "internalType": "bool",
          "name": "suspended",
          "type": "bool"
        }
      ],
      "name": "SuspendedCreator",
      "type": "event"
    },
    {
      "anonymous": false,
      "inputs": [
        {
          "indexed": true,
          "internalType": "address",
          "name": "operator",
          "type": "address"
        },
        {
          "indexed": true,
          "internalType": "address",
          "name": "from",
          "type": "address"
        },
        {
          "indexed": true,
          "internalType": "address",
          "name": "to",
          "type": "address"
        },
        {
          "indexed": false,
          "internalType": "uint256[]",
          "name": "ids",
          "type": "uint256[]"
        },
        {
          "indexed": false,
          "internalType": "uint256[]",
          "name": "values",
          "type": "uint256[]"
        }
      ],
      "name": "TransferBatch",
      "type": "event"
    },
    {
      "anonymous": false,
      "inputs": [
        {
          "indexed": true,
          "internalType": "address",
          "name": "operator",
          "type": "address"
        },
        {
          "indexed": true,
          "internalType": "address",
          "name": "from",
          "type": "address"
        },
        {
          "indexed": true,
          "internalType": "address",
          "name": "to",
          "type": "address"
        },
        {
          "indexed": false,
          "internalType": "uint256",
          "name": "id",
          "type": "uint256"
        },
        {
          "indexed": false,
          "internalType": "uint256",
          "name": "value",
          "type": "uint256"
        }
      ],
      "name": "TransferSingle",
      "type": "event"
    },
    {
      "anonymous": false,
      "inputs": [
        {
          "indexed": false,
          "internalType": "string",
          "name": "value",
          "type": "string"
        },
        {
          "indexed": true,
          "internalType": "uint256",
          "name": "id",
          "type": "uint256"
        }
      ],
      "name": "URI",
      "type": "event"
    },
    {
      "anonymous": false,
      "inputs": [
        {
          "indexed": false,
          "internalType": "address",
          "name": "account",
          "type": "address"
        }
      ],
      "name": "Unpaused",
      "type": "event"
    },
    {
      "anonymous": false,
      "inputs": [
        {
          "indexed": true,
          "internalType": "address",
          "name": "creator",
          "type": "address"
        },
        {
          "indexed": false,
          "internalType": "string",
          "name": "metadata",
          "type": "string"
        }
      ],
      "name": "UpdatedCreatorMetadata",
      "type": "event"
    },
    {
      "anonymous": false,
      "inputs": [
        {
          "indexed": true,
          "internalType": "address",
          "name": "implementation",
          "type": "address"
        }
      ],
      "name": "Upgraded",
      "type": "event"
    },
    {
      "inputs": [],
      "name": "DEFAULT_ADMIN_ROLE",
      "outputs": [
        {
          "internalType": "bytes32",
          "name": "",
          "type": "bytes32"
        }
      ],
      "stateMutability": "view",
      "type": "function"
    },
    {
      "inputs": [],
      "name": "FEE_COLLECTOR_ROLE",
      "outputs": [
        {
          "internalType": "bytes32",
          "name": "",
          "type": "bytes32"
        }
      ],
      "stateMutability": "view",
      "type": "function"
    },
    {
      "inputs": [],
      "name": "MINTER_ROLE",
      "outputs": [
        {
          "internalType": "bytes32",
          "name": "",
          "type": "bytes32"
        }
      ],
      "stateMutability": "view",
      "type": "function"
    },
    {
      "inputs": [],
      "name": "PAUSER_ROLE",
      "outputs": [
        {
          "internalType": "bytes32",
          "name": "",
          "type": "bytes32"
        }
      ],
      "stateMutability": "view",
      "type": "function"
    },
    {
      "inputs": [],
      "name": "UPGRADER_ROLE",
      "outputs": [
        {
          "internalType": "bytes32",
          "name": "",
          "type": "bytes32"
        }
      ],
      "stateMutability": "view",
      "type": "function"
    },
    {
      "inputs": [],
      "name": "URI_SETTER_ROLE",
      "outputs": [
        {
          "internalType": "bytes32",
          "name": "",
          "type": "bytes32"
        }
      ],
      "stateMutability": "view",
      "type": "function"
    },
    {
      "inputs": [
        {
          "internalType": "uint256",
          "name": "",
          "type": "uint256"
        }
      ],
      "name": "badge",
      "outputs": [
        {
          "internalType": "uint256",
          "name": "badgeModelId",
          "type": "uint256"
        },
        {
          "internalType": "address",
          "name": "account",
          "type": "address"
        },
        {
          "internalType": "uint256",
          "name": "dueDate",
          "type": "uint256"
        }
      ],
      "stateMutability": "view",
      "type": "function"
    },
    {
      "inputs": [
        {
          "internalType": "uint256",
          "name": "",
          "type": "uint256"
        }
      ],
      "name": "badgeModel",
      "outputs": [
        {
          "internalType": "address",
          "name": "creator",
          "type": "address"
        },
        {
          "internalType": "string",
          "name": "controllerName",
          "type": "string"
        },
        {
          "internalType": "bool",
          "name": "paused",
          "type": "bool"
        },
        {
          "internalType": "uint256",
          "name": "mintCreatorFee",
          "type": "uint256"
        },
        {
          "internalType": "uint256",
          "name": "validFor",
          "type": "uint256"
        },
        {
          "internalType": "uint256",
          "name": "mintProtocolFee",
          "type": "uint256"
        }
      ],
      "stateMutability": "view",
      "type": "function"
    },
    {
      "inputs": [
        {
          "internalType": "string",
          "name": "",
          "type": "string"
        }
      ],
      "name": "badgeModelController",
      "outputs": [
        {
          "internalType": "address",
          "name": "controller",
          "type": "address"
        },
        {
          "internalType": "bool",
          "name": "paused",
          "type": "bool"
        }
      ],
      "stateMutability": "view",
      "type": "function"
    },
    {
      "inputs": [
        {
          "internalType": "uint256",
          "name": "",
          "type": "uint256"
        },
        {
          "internalType": "address",
          "name": "",
          "type": "address"
        },
        {
          "internalType": "uint256",
          "name": "",
          "type": "uint256"
        }
      ],
      "name": "badgeModelsByAccount",
      "outputs": [
        {
          "internalType": "uint256",
          "name": "",
          "type": "uint256"
        }
      ],
      "stateMutability": "view",
      "type": "function"
    },
    {
      "inputs": [
        {
          "internalType": "address",
          "name": "account",
          "type": "address"
        },
        {
          "internalType": "uint256",
          "name": "badgeId",
          "type": "uint256"
        }
      ],
      "name": "balanceOf",
      "outputs": [
        {
          "internalType": "uint256",
          "name": "",
          "type": "uint256"
        }
      ],
      "stateMutability": "view",
      "type": "function"
    },
    {
      "inputs": [
        {
          "internalType": "address",
          "name": "account",
          "type": "address"
        },
        {
          "internalType": "uint256",
          "name": "badgeModelId",
          "type": "uint256"
        }
      ],
      "name": "balanceOfBadgeModel",
      "outputs": [
        {
          "internalType": "uint256",
          "name": "",
          "type": "uint256"
        }
      ],
      "stateMutability": "view",
      "type": "function"
    },
    {
      "inputs": [
        {
          "internalType": "address[]",
          "name": "accounts",
          "type": "address[]"
        },
        {
          "internalType": "uint256[]",
          "name": "ids",
          "type": "uint256[]"
        }
      ],
      "name": "balanceOfBatch",
      "outputs": [
        {
          "internalType": "uint256[]",
          "name": "",
          "type": "uint256[]"
        }
      ],
      "stateMutability": "view",
      "type": "function"
    },
    {
      "inputs": [
        {
          "components": [
            {
              "internalType": "string",
              "name": "metadata",
              "type": "string"
            },
            {
              "internalType": "string",
              "name": "controllerName",
              "type": "string"
            },
            {
              "internalType": "uint256",
              "name": "mintCreatorFee",
              "type": "uint256"
            },
            {
              "internalType": "uint256",
              "name": "validFor",
              "type": "uint256"
            }
          ],
          "internalType": "struct TheBadgeStore.CreateBadgeModel",
          "name": "args",
          "type": "tuple"
        },
        {
          "internalType": "bytes",
          "name": "data",
          "type": "bytes"
        }
      ],
      "name": "createBadgeModel",
      "outputs": [],
      "stateMutability": "payable",
      "type": "function"
    },
    {
      "inputs": [],
      "name": "createBadgeModelValue",
      "outputs": [
        {
          "internalType": "uint256",
          "name": "",
          "type": "uint256"
        }
      ],
      "stateMutability": "view",
      "type": "function"
    },
    {
      "inputs": [
        {
          "internalType": "address",
          "name": "",
          "type": "address"
        }
      ],
      "name": "creators",
      "outputs": [
        {
          "internalType": "string",
          "name": "metadata",
          "type": "string"
        }
      ],
      "stateMutability": "view",
      "type": "function"
    },
    {
      "inputs": [],
      "name": "feeCollector",
      "outputs": [
        {
          "internalType": "address",
          "name": "",
          "type": "address"
        }
      ],
      "stateMutability": "view",
      "type": "function"
    },
    {
      "inputs": [
        {
          "internalType": "bytes32",
          "name": "role",
          "type": "bytes32"
        }
      ],
      "name": "getRoleAdmin",
      "outputs": [
        {
          "internalType": "bytes32",
          "name": "",
          "type": "bytes32"
        }
      ],
      "stateMutability": "view",
      "type": "function"
    },
    {
      "inputs": [
        {
          "internalType": "bytes32",
          "name": "role",
          "type": "bytes32"
        },
        {
          "internalType": "address",
          "name": "account",
          "type": "address"
        }
      ],
      "name": "grantRole",
      "outputs": [],
      "stateMutability": "nonpayable",
      "type": "function"
    },
    {
      "inputs": [
        {
          "internalType": "bytes32",
          "name": "role",
          "type": "bytes32"
        },
        {
          "internalType": "address",
          "name": "account",
          "type": "address"
        }
      ],
      "name": "hasRole",
      "outputs": [
        {
          "internalType": "bool",
          "name": "",
          "type": "bool"
        }
      ],
      "stateMutability": "view",
      "type": "function"
    },
    {
      "inputs": [
        {
          "internalType": "address",
          "name": "admin",
          "type": "address"
        },
        {
          "internalType": "address",
          "name": "feeCollector",
          "type": "address"
        },
        {
          "internalType": "address",
          "name": "minter",
          "type": "address"
        }
      ],
      "name": "initialize",
      "outputs": [],
      "stateMutability": "nonpayable",
      "type": "function"
    },
    {
      "inputs": [
        {
          "internalType": "address",
          "name": "account",
          "type": "address"
        },
        {
          "internalType": "address",
          "name": "operator",
          "type": "address"
        }
      ],
      "name": "isApprovedForAll",
      "outputs": [
        {
          "internalType": "bool",
          "name": "",
          "type": "bool"
        }
      ],
      "stateMutability": "view",
      "type": "function"
    },
    {
      "inputs": [
        {
          "internalType": "uint256",
          "name": "badgeModelId",
          "type": "uint256"
        },
        {
          "internalType": "address",
          "name": "account",
          "type": "address"
        },
        {
          "internalType": "string",
          "name": "tokenURI",
          "type": "string"
        },
        {
          "internalType": "bytes",
          "name": "data",
          "type": "bytes"
        }
      ],
      "name": "mint",
      "outputs": [],
      "stateMutability": "payable",
      "type": "function"
    },
    {
      "inputs": [],
      "name": "mintBadgeDefaultFee",
      "outputs": [
        {
          "internalType": "uint256",
          "name": "",
          "type": "uint256"
        }
      ],
      "stateMutability": "view",
      "type": "function"
    },
    {
      "inputs": [
        {
          "internalType": "uint256",
          "name": "badgeModelId",
          "type": "uint256"
        }
      ],
      "name": "mintValue",
      "outputs": [
        {
          "internalType": "uint256",
          "name": "",
          "type": "uint256"
        }
      ],
      "stateMutability": "view",
      "type": "function"
    },
    {
      "inputs": [],
      "name": "pause",
      "outputs": [],
      "stateMutability": "nonpayable",
      "type": "function"
    },
    {
      "inputs": [],
      "name": "paused",
      "outputs": [
        {
          "internalType": "bool",
          "name": "",
          "type": "bool"
        }
      ],
      "stateMutability": "view",
      "type": "function"
    },
    {
      "inputs": [],
      "name": "proxiableUUID",
      "outputs": [
        {
          "internalType": "bytes32",
          "name": "",
          "type": "bytes32"
        }
      ],
      "stateMutability": "view",
      "type": "function"
    },
    {
      "inputs": [
        {
          "internalType": "string",
          "name": "_metadata",
          "type": "string"
        }
      ],
      "name": "registerBadgeModelCreator",
      "outputs": [],
      "stateMutability": "payable",
      "type": "function"
    },
    {
      "inputs": [],
      "name": "registerCreatorValue",
      "outputs": [
        {
          "internalType": "uint256",
          "name": "",
          "type": "uint256"
        }
      ],
      "stateMutability": "view",
      "type": "function"
    },
    {
      "inputs": [],
      "name": "removeBadgeModelCreator",
      "outputs": [],
      "stateMutability": "view",
      "type": "function"
    },
    {
      "inputs": [
        {
          "internalType": "bytes32",
          "name": "role",
          "type": "bytes32"
        },
        {
          "internalType": "address",
          "name": "account",
          "type": "address"
        }
      ],
      "name": "renounceRole",
      "outputs": [],
      "stateMutability": "nonpayable",
      "type": "function"
    },
    {
      "inputs": [
        {
          "internalType": "bytes32",
          "name": "role",
          "type": "bytes32"
        },
        {
          "internalType": "address",
          "name": "account",
          "type": "address"
        }
      ],
      "name": "revokeRole",
      "outputs": [],
      "stateMutability": "nonpayable",
      "type": "function"
    },
    {
      "inputs": [
        {
          "internalType": "address",
          "name": "from",
          "type": "address"
        },
        {
          "internalType": "address",
          "name": "to",
          "type": "address"
        },
        {
          "internalType": "uint256[]",
          "name": "ids",
          "type": "uint256[]"
        },
        {
          "internalType": "uint256[]",
          "name": "amounts",
          "type": "uint256[]"
        },
        {
          "internalType": "bytes",
          "name": "data",
          "type": "bytes"
        }
      ],
      "name": "safeBatchTransferFrom",
      "outputs": [],
      "stateMutability": "nonpayable",
      "type": "function"
    },
    {
      "inputs": [
        {
          "internalType": "address",
          "name": "from",
          "type": "address"
        },
        {
          "internalType": "address",
          "name": "to",
          "type": "address"
        },
        {
          "internalType": "uint256",
          "name": "id",
          "type": "uint256"
        },
        {
          "internalType": "uint256",
          "name": "amount",
          "type": "uint256"
        },
        {
          "internalType": "bytes",
          "name": "data",
          "type": "bytes"
        }
      ],
      "name": "safeTransferFrom",
      "outputs": [],
      "stateMutability": "nonpayable",
      "type": "function"
    },
    {
      "inputs": [
        {
          "internalType": "address",
          "name": "operator",
          "type": "address"
        },
        {
          "internalType": "bool",
          "name": "approved",
          "type": "bool"
        }
      ],
      "name": "setApprovalForAll",
      "outputs": [],
      "stateMutability": "nonpayable",
      "type": "function"
    },
    {
      "inputs": [
        {
          "internalType": "string",
          "name": "controllerName",
          "type": "string"
        },
        {
          "internalType": "address",
          "name": "controllerAddress",
          "type": "address"
        }
      ],
      "name": "setBadgeModelController",
      "outputs": [],
      "stateMutability": "nonpayable",
      "type": "function"
    },
    {
      "inputs": [
        {
          "internalType": "bytes4",
          "name": "interfaceId",
          "type": "bytes4"
        }
      ],
      "name": "supportsInterface",
      "outputs": [
        {
          "internalType": "bool",
          "name": "",
          "type": "bool"
        }
      ],
      "stateMutability": "view",
      "type": "function"
    },
    {
      "inputs": [],
      "name": "suspendBadgeModel",
      "outputs": [],
      "stateMutability": "view",
      "type": "function"
    },
    {
      "inputs": [],
      "name": "suspendBadgeModelCreator",
      "outputs": [],
      "stateMutability": "view",
      "type": "function"
    },
    {
      "inputs": [],
      "name": "unpause",
      "outputs": [],
      "stateMutability": "nonpayable",
      "type": "function"
    },
    {
      "inputs": [
        {
          "internalType": "uint256",
          "name": "badgeModelId",
          "type": "uint256"
        },
        {
          "internalType": "uint256",
          "name": "mintCreatorFee",
          "type": "uint256"
        },
        {
          "internalType": "uint256",
          "name": "validFor",
          "type": "uint256"
        },
        {
          "internalType": "bool",
          "name": "paused",
          "type": "bool"
        }
      ],
      "name": "updateBadgeModel",
      "outputs": [],
      "stateMutability": "nonpayable",
      "type": "function"
    },
    {
      "inputs": [
        {
          "internalType": "address",
          "name": "_creator",
          "type": "address"
        },
        {
          "internalType": "string",
          "name": "_metadata",
          "type": "string"
        }
      ],
      "name": "updateBadgeModelCreator",
      "outputs": [],
      "stateMutability": "nonpayable",
      "type": "function"
    },
    {
      "inputs": [
        {
          "internalType": "uint256",
          "name": "badgeModelId",
          "type": "uint256"
        },
        {
          "internalType": "uint256",
          "name": "feeInBps",
          "type": "uint256"
        }
      ],
      "name": "updateBadgeModelFee",
      "outputs": [],
      "stateMutability": "nonpayable",
      "type": "function"
    },
    {
      "inputs": [
        {
          "internalType": "uint256",
          "name": "_mintBadgeDefaultFee",
          "type": "uint256"
        },
        {
          "internalType": "uint256",
          "name": "_createBadgeModelValue",
          "type": "uint256"
        },
        {
          "internalType": "uint256",
          "name": "_registerCreatorValue",
          "type": "uint256"
        }
      ],
      "name": "updateProtocolValues",
      "outputs": [],
      "stateMutability": "nonpayable",
      "type": "function"
    },
    {
      "inputs": [
        {
          "internalType": "address",
          "name": "newImplementation",
          "type": "address"
        }
      ],
      "name": "upgradeTo",
      "outputs": [],
      "stateMutability": "nonpayable",
      "type": "function"
    },
    {
      "inputs": [
        {
          "internalType": "address",
          "name": "newImplementation",
          "type": "address"
        },
        {
          "internalType": "bytes",
          "name": "data",
          "type": "bytes"
        }
      ],
      "name": "upgradeToAndCall",
      "outputs": [],
      "stateMutability": "payable",
      "type": "function"
    },
    {
      "inputs": [
        {
          "internalType": "uint256",
          "name": "badgeId",
          "type": "uint256"
        }
      ],
      "name": "uri",
      "outputs": [
        {
          "internalType": "string",
          "name": "",
          "type": "string"
        }
      ],
      "stateMutability": "view",
      "type": "function"
    },
    {
      "stateMutability": "payable",
      "type": "receive"
    }
  ],
  "bytecode": "0x60a0604052306080523480156200001557600080fd5b506200002062000026565b620000e8565b600054610100900460ff1615620000935760405162461bcd60e51b815260206004820152602760248201527f496e697469616c697a61626c653a20636f6e747261637420697320696e697469604482015266616c697a696e6760c81b606482015260840160405180910390fd5b60005460ff9081161015620000e6576000805460ff191660ff9081179091556040519081527f7f26b83ff96e1f2b6a682f133852f6798a09c465da95921460cefb38474024989060200160405180910390a15b565b60805161462c6200012060003960008181610d5d01528181610d9d015281816112120152818161125201526113ae015261462c6000f3fe6080604052600436106102965760003560e01c806381773cf21161015a578063c1d18840116100c1578063e63ab1e91161007a578063e63ab1e914610861578063e985e9c514610883578063f242432a146108cc578063f72c0d8b146108ec578063f911fdfb14610920578063fb71a9d51461094057600080fd5b8063c1d188401461078e578063c415b95c146107a1578063c9e4eba1146107da578063cb22dfcb146107ed578063d53913931461080d578063d547741f1461084157600080fd5b8063a22cb46511610113578063a22cb46514610638578063a9710d9a14610658578063b70029bd14610678578063c00c50bf146106e5578063c0c53b8b14610705578063c0f6faed1461072557600080fd5b806381773cf2146105a4578063828efb25146105bb5780638456cb59146105ce57806391d14854146105e3578063933166e114610603578063a217fddf1461062357600080fd5b806346c45758116101fe57806357f8188f116101b757806357f8188f146104315780635c975abb146104ed57806362a2a47c14610505578063632f7c83146105395780637930bb2f146105595780637f3457101461057057600080fd5b806346c457581461044657806349e558ae146104315780634e1273f4146104665780634f1ef286146104935780634fe85ac1146104a657806352d1902d146104d857600080fd5b806333d2f2571161025057806333d2f257146103a557806334d1a4dd146103bc57806336568abe146103dc5780633659cfe6146103fc5780633f4ba83a1461041c57806341954e091461043157600080fd5b8062fdd58e146102a257806301ffc9a7146102d55780630e89341c14610305578063248a9ca3146103325780632eb2c2d6146103635780632f2ff15d1461038557600080fd5b3661029d57005b600080fd5b3480156102ae57600080fd5b506102c26102bd36600461354f565b610960565b6040519081526020015b60405180910390f35b3480156102e157600080fd5b506102f56102f036600461358f565b610b85565b60405190151581526020016102cc565b34801561031157600080fd5b506103256103203660046135ac565b610b90565b6040516102cc9190613615565b34801561033e57600080fd5b506102c261034d3660046135ac565b600090815261015f602052604090206001015490565b34801561036f57600080fd5b5061038361037e366004613796565b610b9b565b005b34801561039157600080fd5b506103836103a036600461383f565b610bf0565b3480156103b157600080fd5b506102c26101945481565b3480156103c857600080fd5b506103836103d7366004613879565b610c1b565b3480156103e857600080fd5b506103836103f736600461383f565b610cd5565b34801561040857600080fd5b506103836104173660046138ba565b610d53565b34801561042857600080fd5b50610383610e32565b34801561043d57600080fd5b50610383610e52565b34801561045257600080fd5b506102c261046136600461354f565b610e76565b34801561047257600080fd5b506104866104813660046138d5565b6110df565b6040516102cc91906139da565b6103836104a13660046139ed565b611208565b3480156104b257600080fd5b506104c66104c13660046135ac565b6112d4565b6040516102cc96959493929190613a30565b3480156104e457600080fd5b506102c26113a1565b3480156104f957600080fd5b5060c95460ff166102f5565b34801561051157600080fd5b506102c27f2dca0f5ce7e75a4b43fe2b0d6f5d0b7a2bf92ecf89f8f0aa17b8308b6703882181565b34801561054557600080fd5b506102c26105543660046135ac565b611455565b34801561056557600080fd5b506102c26101935481565b34801561057c57600080fd5b506102c27f7804d923f43a17d325d77e781528e0793b2edd9890ab45fc64efd7b4b427744c81565b3480156105b057600080fd5b506102c26101955481565b6103836105c9366004613a79565b611515565b3480156105da57600080fd5b506103836117c5565b3480156105ef57600080fd5b506102f56105fe36600461383f565b6117e5565b34801561060f57600080fd5b5061032561061e3660046138ba565b611811565b34801561062f57600080fd5b506102c2600081565b34801561064457600080fd5b50610383610653366004613b3e565b6118b0565b34801561066457600080fd5b506103836106733660046139ed565b6118bb565b34801561068457600080fd5b506106c6610693366004613b75565b8051602081830181018051610198825292820191909301209152546001600160a01b03811690600160a01b900460ff1682565b604080516001600160a01b0390931683529015156020830152016102cc565b3480156106f157600080fd5b50610383610700366004613ba9565b611969565b34801561071157600080fd5b50610383610720366004613bd5565b6119bb565b34801561073157600080fd5b5061076b6107403660046135ac565b61019a6020526000908152604090208054600182015460029092015490916001600160a01b03169083565b604080519384526001600160a01b039092166020840152908201526060016102cc565b61038361079c366004613c18565b611b80565b3480156107ad57600080fd5b50610196546107c2906001600160a01b031681565b6040516001600160a01b0390911681526020016102cc565b6103836107e8366004613b75565b611feb565b3480156107f957600080fd5b506102c2610808366004613c95565b6120d7565b34801561081957600080fd5b506102c27f9f2df0fed2c77648de5860a4cc508cd0818c85b8b8a1ab4ceeef8d981c8956a681565b34801561084d57600080fd5b5061038361085c36600461383f565b612116565b34801561086d57600080fd5b506102c26000805160206145b083398151915281565b34801561088f57600080fd5b506102f561089e366004613cca565b6001600160a01b03918216600090815260666020908152604080832093909416825291909152205460ff1690565b3480156108d857600080fd5b506103836108e7366004613cf4565b61213c565b3480156108f857600080fd5b506102c27f189ab7a9244df0848122154315af71fe140f3db0fe014031783b0946b8c9d2e381565b34801561092c57600080fd5b5061038361093b366004613d58565b612181565b34801561094c57600080fd5b5061038361095b366004613d9c565b612297565b600081815261019a602090815260408083208151606081018352815480825260018301546001600160a01b031694820194909452600290910154918101919091529015806109c45750836001600160a01b031681602001516001600160a01b031614155b156109d3576000915050610b7f565b8051600090815261019960209081526040808320815160c0810190925280546001600160a01b031682526001810180549293919291840191610a1490613dbe565b80601f0160208091040260200160405190810160405280929190818152602001828054610a4090613dbe565b8015610a8d5780601f10610a6257610100808354040283529160200191610a8d565b820191906000526020600020905b815481529060010190602001808311610a7057829003601f168201915b505050505081526020016002820160009054906101000a900460ff161515151581526020016003820154815260200160048201548152602001600582015481525050905060006101988260200151604051610ae89190613df8565b90815260405190819003602001812054631174806160e11b82526001600160a01b0316915081906322e900c290610b2790889060040190815260200190565b602060405180830381865afa158015610b44573d6000803e3d6000fd5b505050506040513d601f19601f82011682018060405250810190610b689190613e14565b610b73576000610b76565b60015b60ff1693505050505b92915050565b6000610b7f82612313565b6060610b7f82612338565b6001600160a01b038516331480610bb75750610bb7853361089e565b610bdc5760405162461bcd60e51b8152600401610bd390613e31565b60405180910390fd5b610be98585858585612418565b5050505050565b600082815261015f6020526040902060010154610c0c81612606565b610c168383612610565b505050565b60008481526101996020526040902080546001600160a01b0316610c5257604051638fa97ef960e01b815260040160405180910390fd5b80546001600160a01b0316336001600160a01b031614610c855760405163806ecc4960e01b815260040160405180910390fd5b600381018490556004810183905560028101805460ff191683151517905560405185907fc7fe3866a4edc843062ecfa12604d4a6686605fb2bd8a2323d96dc40c08d9e3d90600090a25050505050565b6001600160a01b0381163314610d455760405162461bcd60e51b815260206004820152602f60248201527f416363657373436f6e74726f6c3a2063616e206f6e6c792072656e6f756e636560448201526e103937b632b9903337b91039b2b63360891b6064820152608401610bd3565b610d4f8282612697565b5050565b6001600160a01b037f0000000000000000000000000000000000000000000000000000000000000000163003610d9b5760405162461bcd60e51b8152600401610bd390613e7f565b7f00000000000000000000000000000000000000000000000000000000000000006001600160a01b0316610de4600080516020614590833981519152546001600160a01b031690565b6001600160a01b031614610e0a5760405162461bcd60e51b8152600401610bd390613ecb565b610e13816126ff565b60408051600080825260208201909252610e2f91839190612729565b50565b6000805160206145b0833981519152610e4a81612606565b610e2f612894565b6000610e5d81612606565b60405163aaa2c00360e01b815260040160405180910390fd5b600081815261019b602090815260408083206001600160a01b03861684529091528120548103610ea857506000610b7f565b600082815261019960209081526040808320815160c0810190925280546001600160a01b031682526001810180549293919291840191610ee790613dbe565b80601f0160208091040260200160405190810160405280929190818152602001828054610f1390613dbe565b8015610f605780601f10610f3557610100808354040283529160200191610f60565b820191906000526020600020905b815481529060010190602001808311610f4357829003601f168201915b505050505081526020016002820160009054906101000a900460ff161515151581526020016003820154815260200160048201548152602001600582015481525050905060006101988260200151604051610fbb9190613df8565b908152604051908190036020019020546001600160a01b031690506000805b600086815261019b602090815260408083206001600160a01b038b1684529091529020548110156110d557600086815261019b602090815260408083206001600160a01b038b8116855292529091208054918516916322e900c291908490811061104657611046613f17565b90600052602060002001546040518263ffffffff1660e01b815260040161106f91815260200190565b602060405180830381865afa15801561108c573d6000803e3d6000fd5b505050506040513d601f19601f820116820180604052508101906110b09190613e14565b156110c357816110bf81613f43565b9250505b806110cd81613f43565b915050610fda565b5095945050505050565b606081518351146111445760405162461bcd60e51b815260206004820152602960248201527f455243313135353a206163636f756e747320616e6420696473206c656e677468604482015268040dad2e6dac2e8c6d60bb1b6064820152608401610bd3565b600083516001600160401b0381111561115f5761115f613628565b604051908082528060200260200182016040528015611188578160200160208202803683370190505b50905060005b8451811015611200576111d38582815181106111ac576111ac613f17565b60200260200101518583815181106111c6576111c6613f17565b6020026020010151610960565b8282815181106111e5576111e5613f17565b60209081029190910101526111f981613f43565b905061118e565b509392505050565b6001600160a01b037f00000000000000000000000000000000000000000000000000000000000000001630036112505760405162461bcd60e51b8152600401610bd390613e7f565b7f00000000000000000000000000000000000000000000000000000000000000006001600160a01b0316611299600080516020614590833981519152546001600160a01b031690565b6001600160a01b0316146112bf5760405162461bcd60e51b8152600401610bd390613ecb565b6112c8826126ff565b610d4f82826001612729565b61019960205260009081526040902080546001820180546001600160a01b03909216929161130190613dbe565b80601f016020809104026020016040519081016040528092919081815260200182805461132d90613dbe565b801561137a5780601f1061134f5761010080835404028352916020019161137a565b820191906000526020600020905b81548152906001019060200180831161135d57829003601f168201915b50505050600283015460038401546004850154600590950154939460ff9092169390925086565b6000306001600160a01b037f000000000000000000000000000000000000000000000000000000000000000016146114415760405162461bcd60e51b815260206004820152603860248201527f555550535570677261646561626c653a206d757374206e6f742062652063616c60448201527f6c6564207468726f7567682064656c656761746563616c6c00000000000000006064820152608401610bd3565b506000805160206145908339815191525b90565b60008181526101996020526040808220905182906101989061147b906001850190613fcf565b90815260405190819003602001812054600384015463632f7c8360e01b83526001600160a01b03909116925090829063632f7c83906114c290889060040190815260200190565b602060405180830381865afa1580156114df573d6000803e3d6000fd5b505050506040513d601f19601f820116820180604052508101906115039190613fdb565b61150d9190613ff4565b949350505050565b336000908152610197602052604090208054819061153290613dbe565b905060000361155457604051638fcc03fd60e01b815260040160405180910390fd5b6101955434146115775760405163043f7a7d60e21b815260040160405180910390fd5b6000610198846020015160405161158e9190613df8565b90815260405190819003602001902080549091506001600160a01b03166115c8576040516323be546760e01b815260040160405180910390fd5b8054600160a01b900460ff16156115f257604051630d70501560e11b815260040160405180910390fd5b341561163457610196546040516001600160a01b03909116903480156108fc02916000818181858888f19350505050158015611632573d6000803e3d6000fd5b505b6040518060c001604052806116463390565b6001600160a01b031681526020018560200151815260200160001515815260200185604001518152602001856060015181526020016101945481525061019960006116916101915490565b8152602080820192909252604001600020825181546001600160a01b0319166001600160a01b039091161781559082015160018201906116d1908261404d565b50604082015160028201805460ff1916911515919091179055606082015160038201556080820151600482015560a0909101516005909101556101915484516040517f584274d31df3e2cf85a9d6dfaf82b219994725ca486f214ef93fbec2d054dca09161173e91613615565b60405180910390a280546001600160a01b03166377a3989e6117606101915490565b856040518363ffffffff1660e01b815260040161177e92919061410c565b600060405180830381600087803b15801561179857600080fd5b505af11580156117ac573d6000803e3d6000fd5b505050506117bf61019180546001019055565b50505050565b6000805160206145b08339815191526117dd81612606565b610e2f6128e6565b600091825261015f602090815260408084206001600160a01b0393909316845291905290205460ff1690565b6101976020526000908152604090208054819061182d90613dbe565b80601f016020809104026020016040519081016040528092919081815260200182805461185990613dbe565b80156118a65780601f1061187b576101008083540402835291602001916118a6565b820191906000526020600020905b81548152906001019060200180831161188957829003601f168201915b5050505050905081565b610d4f338383612923565b60006118c681612606565b6001600160a01b038316600090815261019760205260409020805481906118ec90613dbe565b905060000361190e57604051637bc3ac5560e11b815260040160405180910390fd5b8251156119225780611920848261404d565b505b836001600160a01b03167f5b12b24c4622e8e6af38c1749b1261965b5098a96fb4b4cfb6075eb20c77fc588460405161195b9190613615565b60405180910390a250505050565b600061197481612606565b6101948490556101958390556101938290556040518290849086907ffe1bd7dcc90fc9f59712c574cc140b0b6b6d57ad3ddafc009cc68b1b482180a090600090a450505050565b600054610100900460ff16158080156119db5750600054600160ff909116105b806119f55750303b1580156119f5575060005460ff166001145b611a585760405162461bcd60e51b815260206004820152602e60248201527f496e697469616c697a61626c653a20636f6e747261637420697320616c72656160448201526d191e481a5b9a5d1a585b1a5e995960921b6064820152608401610bd3565b6000805460ff191660011790558015611a7b576000805461ff0019166101001790555b611a936040518060200160405280600081525061293c565b611a9b61296c565b611aa3612995565b611aab61296c565b611ab6600085612610565b611ace6000805160206145b083398151915233612610565b611af87f9f2df0fed2c77648de5860a4cc508cd0818c85b8b8a1ab4ceeef8d981c8956a683612610565b611b227f189ab7a9244df0848122154315af71fe140f3db0fe014031783b0946b8c9d2e333612610565b6000610193819055610195556103e86101945580156117bf576000805461ff0019169055604051600181527f7f26b83ff96e1f2b6a682f133852f6798a09c465da95921460cefb38474024989060200160405180910390a150505050565b60008481526101996020526040808220905190919061019890611ba7906001850190613fcf565b90815260200160405180910390209050600061019883600101604051611bcd9190613fcf565b9081526040519081900360200190205483546001600160a01b03918216925016611c0a576040516385a6706360e01b815260040160405180910390fd5b611c1387611455565b341015611c33576040516393fda7e360e01b815260040160405180910390fd5b600283015460ff1615611c5957604051635d71fd6f60e01b815260040160405180910390fd5b8154600160a01b900460ff1615611c8357604051631bd063c360e01b815260040160405180910390fd5b600383015415611e79576000611ca1846003015485600501546129c4565b90506000818560030154611cb59190614125565b610196546040519192506000916001600160a01b039091169084908381818185875af1925050503d8060008114611d08576040519150601f19603f3d011682016040523d82523d6000602084013e611d0d565b606091505b5050905080611d5e5760405162461bcd60e51b815260206004820152601b60248201527f4661696c656420746f207061792070726f746f636f6c206665657300000000006044820152606401610bd3565b60006101965460405185916001600160a01b0316907f79b87854fe4d5cd316e1d23545d4bc174d81893edcf15a8268dfc5b99e82cdf490600090a485546040516000916001600160a01b03169084908381818185875af1925050503d8060008114611de5576040519150601f19603f3d011682016040523d82523d6000602084013e611dea565b606091505b5050905080611e3b5760405162461bcd60e51b815260206004820152601a60248201527f4661696c656420746f207061792063726561746f7220666565730000000000006044820152606401610bd3565b6001875460405186916001600160a01b0316907f79b87854fe4d5cd316e1d23545d4bc174d81893edcf15a8268dfc5b99e82cdf490600090a4505050505b6000611e856101925490565b9050611e9181876129f5565b611eb88782600160405180604001604052806002815260200161060f60f31b815250612a46565b60008460040154600014611eda576004850154611ed59042613ff4565b611edd565b60005b604080516060810182528b81526001600160a01b038b8116602080840182815284860187815260008a815261019a8452878120965187559151600180880180546001600160a01b0319169288169290921790915590516002909601959095558f815261019b82528581209281529181529381208054938401815581529290922001849055600387015491925084169063731133e990611f7c9034614125565b338c868b6040518663ffffffff1660e01b8152600401611f9f9493929190614138565b6000604051808303818588803b158015611fb857600080fd5b505af1158015611fcc573d6000803e3d6000fd5b5050505050611fe061019280546001019055565b505050505050505050565b61019354341461200e5760405163045801c760e31b815260040160405180910390fd5b341561205057610196546040516001600160a01b03909116903480156108fc02916000818181858888f1935050505015801561204e573d6000803e3d6000fd5b505b336000908152610197602052604090208054819061206d90613dbe565b15905061208d57604051633b46b81f60e21b815260040160405180910390fd5b80612098838261404d565b5060405133907f436a110767b6510e398091d7e698dbc3a574692ec743e8e40f4fb1ccefc00fc8906120cb90849061416f565b60405180910390a25050565b61019b602052826000526040600020602052816000526040600020818154811061210057600080fd5b9060005260206000200160009250925050505481565b600082815261015f602052604090206001015461213281612606565b610c168383612697565b6001600160a01b0385163314806121585750612158853361089e565b6121745760405162461bcd60e51b8152600401610bd390613e31565b610be98585858585612b6b565b600061218c81612606565b60006101988460405161219f9190613df8565b9081526020016040518091039020905083516000036121d15760405163a8d052f160e01b815260040160405180910390fd5b6001600160a01b0383166121f85760405163278e974f60e01b815260040160405180910390fd5b80546001600160a01b03161561222157604051631c783ddb60e01b815260040160405180910390fd5b6040805180820182526001600160a01b03851681526000602082015290516101989061224e908790613df8565b908152604051602091819003820190208251815493909201516001600160a01b039092166001600160a81b031990931692909217600160a01b9115159190910217905550505050565b60006122a281612606565b60008381526101996020526040902080546001600160a01b03166122d95760405163e81a0a5560e01b815260040160405180910390fd5b60058101839055604051839085907f897164bdb6d8ca3f923345d02b5a56e8908961ca8cf15e0c67d1c1dee7f22a8290600090a350505050565b60006001600160e01b03198216637965db0b60e01b1480610b7f5750610b7f82612c9c565b60008181526098602052604081208054606092919061235690613dbe565b80601f016020809104026020016040519081016040528092919081815260200182805461238290613dbe565b80156123cf5780601f106123a4576101008083540402835291602001916123cf565b820191906000526020600020905b8154815290600101906020018083116123b257829003601f168201915b5050505050905060008151116123ed576123e883612cec565b612411565b6097816040516020016124019291906141fa565b6040516020818303038152906040525b9392505050565b815183511461247a5760405162461bcd60e51b815260206004820152602860248201527f455243313135353a2069647320616e6420616d6f756e7473206c656e677468206044820152670dad2e6dac2e8c6d60c31b6064820152608401610bd3565b6001600160a01b0384166124a05760405162461bcd60e51b8152600401610bd39061421f565b336124af818787878787612d80565b60005b84518110156125985760008582815181106124cf576124cf613f17565b6020026020010151905060008583815181106124ed576124ed613f17565b60209081029190910181015160008481526065835260408082206001600160a01b038e16835290935291909120549091508181101561253e5760405162461bcd60e51b8152600401610bd390614264565b60008381526065602090815260408083206001600160a01b038e8116855292528083208585039055908b1682528120805484929061257d908490613ff4565b925050819055505050508061259190613f43565b90506124b2565b50846001600160a01b0316866001600160a01b0316826001600160a01b03167f4a39dc06d4c0dbc64b70af90fd698a233a518aa5d07e595d983b8c0526c8f7fb87876040516125e89291906142ae565b60405180910390a46125fe818787878787612db5565b505050505050565b610e2f8133612f10565b61261a82826117e5565b610d4f57600082815261015f602090815260408083206001600160a01b03851684529091529020805460ff191660011790556126533390565b6001600160a01b0316816001600160a01b0316837f2f8788117e7eff1d82e926ec794901d17c78024a50270940304540a733656f0d60405160405180910390a45050565b6126a182826117e5565b15610d4f57600082815261015f602090815260408083206001600160a01b0385168085529252808320805460ff1916905551339285917ff6391f5c32d9c69d2a47ea670b442974b53935d1edc7fd64eb21e047a839171b9190a45050565b7f189ab7a9244df0848122154315af71fe140f3db0fe014031783b0946b8c9d2e3610d4f81612606565b7f4910fdfa16fed3260ed0e7147f7cc6da11a60208b5b9406d12a635614ffd91435460ff161561275c57610c1683612f69565b826001600160a01b03166352d1902d6040518163ffffffff1660e01b8152600401602060405180830381865afa9250505080156127b6575060408051601f3d908101601f191682019092526127b391810190613fdb565b60015b6128195760405162461bcd60e51b815260206004820152602e60248201527f45524331393637557067726164653a206e657720696d706c656d656e7461746960448201526d6f6e206973206e6f74205555505360901b6064820152608401610bd3565b60008051602061459083398151915281146128885760405162461bcd60e51b815260206004820152602960248201527f45524331393637557067726164653a20756e737570706f727465642070726f786044820152681a58589b195555525160ba1b6064820152608401610bd3565b50610c16838383613005565b61289c61302a565b60c9805460ff191690557f5db9ee0a495bf2e6ff9c91a7834c1ba4fdd244a5e8aa4e537bd38aeae4b073aa335b6040516001600160a01b03909116815260200160405180910390a1565b6128ee613073565b60c9805460ff191660011790557f62e78cea01bee320cd4e420270b5ea74000d11b0c9f74754ebdbfc544b05a2586128c93390565b6040516305d39ac360e51b815260040160405180910390fd5b600054610100900460ff166129635760405162461bcd60e51b8152600401610bd3906142d3565b610e2f816130b9565b600054610100900460ff166129935760405162461bcd60e51b8152600401610bd3906142d3565b565b600054610100900460ff166129bc5760405162461bcd60e51b8152600401610bd3906142d3565b6129936130e9565b60006127106129d3838561431e565b10156129de57600080fd5b6127106129eb838561431e565b6124119190614335565b6000828152609860205260409020612a0d828261404d565b50817f6bb7ff708619ba0610cba295a58592e0451dee2622938c8755667688daf3529b612a3984610b90565b6040516120cb9190613615565b6001600160a01b038416612aa65760405162461bcd60e51b815260206004820152602160248201527f455243313135353a206d696e7420746f20746865207a65726f206164647265736044820152607360f81b6064820152608401610bd3565b336000612ab28561311c565b90506000612abf8561311c565b9050612ad083600089858589612d80565b60008681526065602090815260408083206001600160a01b038b16845290915281208054879290612b02908490613ff4565b909155505060408051878152602081018790526001600160a01b03808a1692600092918716917fc3d58168c5ae7397731d063d5bbf3d657854427343f4c083240f7aacaa2d0f62910160405180910390a4612b6283600089898989613167565b50505050505050565b6001600160a01b038416612b915760405162461bcd60e51b8152600401610bd39061421f565b336000612b9d8561311c565b90506000612baa8561311c565b9050612bba838989858589612d80565b60008681526065602090815260408083206001600160a01b038c16845290915290205485811015612bfd5760405162461bcd60e51b8152600401610bd390614264565b60008781526065602090815260408083206001600160a01b038d8116855292528083208985039055908a16825281208054889290612c3c908490613ff4565b909155505060408051888152602081018890526001600160a01b03808b16928c821692918816917fc3d58168c5ae7397731d063d5bbf3d657854427343f4c083240f7aacaa2d0f62910160405180910390a4611fe0848a8a8a8a8a613167565b60006001600160e01b03198216636cdb3d1360e11b1480612ccd57506001600160e01b031982166303a24d0760e21b145b80610b7f57506301ffc9a760e01b6001600160e01b0319831614610b7f565b606060678054612cfb90613dbe565b80601f0160208091040260200160405190810160405280929190818152602001828054612d2790613dbe565b8015612d745780601f10612d4957610100808354040283529160200191612d74565b820191906000526020600020905b815481529060010190602001808311612d5757829003601f168201915b50505050509050919050565b612d88613073565b6001600160a01b03851615612db0576040516305d39ac360e51b815260040160405180910390fd5b6125fe565b6001600160a01b0384163b156125fe5760405163bc197c8160e01b81526001600160a01b0385169063bc197c8190612df99089908990889088908890600401614357565b6020604051808303816000875af1925050508015612e34575060408051601f3d908101601f19168201909252612e31918101906143b5565b60015b612ee057612e406143d2565b806308c379a003612e795750612e546143ed565b80612e5f5750612e7b565b8060405162461bcd60e51b8152600401610bd39190613615565b505b60405162461bcd60e51b815260206004820152603460248201527f455243313135353a207472616e7366657220746f206e6f6e2d455243313135356044820152732932b1b2b4bb32b91034b6b83632b6b2b73a32b960611b6064820152608401610bd3565b6001600160e01b0319811663bc197c8160e01b14612b625760405162461bcd60e51b8152600401610bd390614476565b612f1a82826117e5565b610d4f57612f2781613222565b612f32836020613234565b604051602001612f439291906144be565b60408051601f198184030181529082905262461bcd60e51b8252610bd391600401613615565b6001600160a01b0381163b612fd65760405162461bcd60e51b815260206004820152602d60248201527f455243313936373a206e657720696d706c656d656e746174696f6e206973206e60448201526c1bdd08184818dbdb9d1c9858dd609a1b6064820152608401610bd3565b60008051602061459083398151915280546001600160a01b0319166001600160a01b0392909216919091179055565b61300e836133cf565b60008251118061301b5750805b15610c16576117bf838361340f565b60c95460ff166129935760405162461bcd60e51b815260206004820152601460248201527314185d5cd8589b194e881b9bdd081c185d5cd95960621b6044820152606401610bd3565b60c95460ff16156129935760405162461bcd60e51b815260206004820152601060248201526f14185d5cd8589b194e881c185d5cd95960821b6044820152606401610bd3565b600054610100900460ff166130e05760405162461bcd60e51b8152600401610bd3906142d3565b610e2f81613503565b600054610100900460ff166131105760405162461bcd60e51b8152600401610bd3906142d3565b60c9805460ff19169055565b6040805160018082528183019092526060916000919060208083019080368337019050509050828160008151811061315657613156613f17565b602090810291909101015292915050565b6001600160a01b0384163b156125fe5760405163f23a6e6160e01b81526001600160a01b0385169063f23a6e61906131ab9089908990889088908890600401614533565b6020604051808303816000875af19250505080156131e6575060408051601f3d908101601f191682019092526131e3918101906143b5565b60015b6131f257612e406143d2565b6001600160e01b0319811663f23a6e6160e01b14612b625760405162461bcd60e51b8152600401610bd390614476565b6060610b7f6001600160a01b03831660145b6060600061324383600261431e565b61324e906002613ff4565b6001600160401b0381111561326557613265613628565b6040519080825280601f01601f19166020018201604052801561328f576020820181803683370190505b509050600360fc1b816000815181106132aa576132aa613f17565b60200101906001600160f81b031916908160001a905350600f60fb1b816001815181106132d9576132d9613f17565b60200101906001600160f81b031916908160001a90535060006132fd84600261431e565b613308906001613ff4565b90505b6001811115613380576f181899199a1a9b1b9c1cb0b131b232b360811b85600f166010811061333c5761333c613f17565b1a60f81b82828151811061335257613352613f17565b60200101906001600160f81b031916908160001a90535060049490941c9361337981614578565b905061330b565b5083156124115760405162461bcd60e51b815260206004820181905260248201527f537472696e67733a20686578206c656e67746820696e73756666696369656e746044820152606401610bd3565b6133d881612f69565b6040516001600160a01b038216907fbc7cd75a20ee27fd9adebab32041f755214dbc6bffa90cc0225b39da2e5c2d3b90600090a250565b60606001600160a01b0383163b6134775760405162461bcd60e51b815260206004820152602660248201527f416464726573733a2064656c65676174652063616c6c20746f206e6f6e2d636f6044820152651b9d1c9858dd60d21b6064820152608401610bd3565b600080846001600160a01b0316846040516134929190613df8565b600060405180830381855af49150503d80600081146134cd576040519150601f19603f3d011682016040523d82523d6000602084013e6134d2565b606091505b50915091506134fa82826040518060600160405280602781526020016145d06027913961350f565b95945050505050565b6067610d4f828261404d565b6060831561351e575081612411565b6124118383815115612e5f5781518083602001fd5b80356001600160a01b038116811461354a57600080fd5b919050565b6000806040838503121561356257600080fd5b61356b83613533565b946020939093013593505050565b6001600160e01b031981168114610e2f57600080fd5b6000602082840312156135a157600080fd5b813561241181613579565b6000602082840312156135be57600080fd5b5035919050565b60005b838110156135e05781810151838201526020016135c8565b50506000910152565b600081518084526136018160208601602086016135c5565b601f01601f19169290920160200192915050565b60208152600061241160208301846135e9565b634e487b7160e01b600052604160045260246000fd5b608081018181106001600160401b038211171561365d5761365d613628565b60405250565b601f8201601f191681016001600160401b038111828210171561368857613688613628565b6040525050565b60006001600160401b038211156136a8576136a8613628565b5060051b60200190565b600082601f8301126136c357600080fd5b813560206136d08261368f565b6040516136dd8282613663565b83815260059390931b85018201928281019150868411156136fd57600080fd5b8286015b848110156137185780358352918301918301613701565b509695505050505050565b600082601f83011261373457600080fd5b81356001600160401b0381111561374d5761374d613628565b604051613764601f8301601f191660200182613663565b81815284602083860101111561377957600080fd5b816020850160208301376000918101602001919091529392505050565b600080600080600060a086880312156137ae57600080fd5b6137b786613533565b94506137c560208701613533565b935060408601356001600160401b03808211156137e157600080fd5b6137ed89838a016136b2565b9450606088013591508082111561380357600080fd5b61380f89838a016136b2565b9350608088013591508082111561382557600080fd5b5061383288828901613723565b9150509295509295909350565b6000806040838503121561385257600080fd5b8235915061386260208401613533565b90509250929050565b8015158114610e2f57600080fd5b6000806000806080858703121561388f57600080fd5b84359350602085013592506040850135915060608501356138af8161386b565b939692955090935050565b6000602082840312156138cc57600080fd5b61241182613533565b600080604083850312156138e857600080fd5b82356001600160401b03808211156138ff57600080fd5b818501915085601f83011261391357600080fd5b813560206139208261368f565b60405161392d8282613663565b83815260059390931b850182019282810191508984111561394d57600080fd5b948201945b838610156139725761396386613533565b82529482019490820190613952565b9650508601359250508082111561398857600080fd5b50613995858286016136b2565b9150509250929050565b600081518084526020808501945080840160005b838110156139cf578151875295820195908201906001016139b3565b509495945050505050565b602081526000612411602083018461399f565b60008060408385031215613a0057600080fd5b613a0983613533565b915060208301356001600160401b03811115613a2457600080fd5b61399585828601613723565b6001600160a01b038716815260c060208201819052600090613a54908301886135e9565b9515156040830152506060810193909352608083019190915260a09091015292915050565b60008060408385031215613a8c57600080fd5b82356001600160401b0380821115613aa357600080fd5b9084019060808287031215613ab757600080fd5b604051613ac38161363e565b823582811115613ad257600080fd5b613ade88828601613723565b825250602083013582811115613af357600080fd5b613aff88828601613723565b6020830152506040830135604082015260608301356060820152809450506020850135915080821115613b3157600080fd5b5061399585828601613723565b60008060408385031215613b5157600080fd5b613b5a83613533565b91506020830135613b6a8161386b565b809150509250929050565b600060208284031215613b8757600080fd5b81356001600160401b03811115613b9d57600080fd5b61150d84828501613723565b600080600060608486031215613bbe57600080fd5b505081359360208301359350604090920135919050565b600080600060608486031215613bea57600080fd5b613bf384613533565b9250613c0160208501613533565b9150613c0f60408501613533565b90509250925092565b60008060008060808587031215613c2e57600080fd5b84359350613c3e60208601613533565b925060408501356001600160401b0380821115613c5a57600080fd5b613c6688838901613723565b93506060870135915080821115613c7c57600080fd5b50613c8987828801613723565b91505092959194509250565b600080600060608486031215613caa57600080fd5b83359250613cba60208501613533565b9150604084013590509250925092565b60008060408385031215613cdd57600080fd5b613ce683613533565b915061386260208401613533565b600080600080600060a08688031215613d0c57600080fd5b613d1586613533565b9450613d2360208701613533565b9350604086013592506060860135915060808601356001600160401b03811115613d4c57600080fd5b61383288828901613723565b60008060408385031215613d6b57600080fd5b82356001600160401b03811115613d8157600080fd5b613d8d85828601613723565b92505061386260208401613533565b60008060408385031215613daf57600080fd5b50508035926020909101359150565b600181811c90821680613dd257607f821691505b602082108103613df257634e487b7160e01b600052602260045260246000fd5b50919050565b60008251613e0a8184602087016135c5565b9190910192915050565b600060208284031215613e2657600080fd5b81516124118161386b565b6020808252602e908201527f455243313135353a2063616c6c6572206973206e6f7420746f6b656e206f776e60408201526d195c881bdc88185c1c1c9bdd995960921b606082015260800190565b6020808252602c908201527f46756e6374696f6e206d7573742062652063616c6c6564207468726f7567682060408201526b19195b1959d85d1958d85b1b60a21b606082015260800190565b6020808252602c908201527f46756e6374696f6e206d7573742062652063616c6c6564207468726f7567682060408201526b6163746976652070726f787960a01b606082015260800190565b634e487b7160e01b600052603260045260246000fd5b634e487b7160e01b600052601160045260246000fd5b600060018201613f5557613f55613f2d565b5060010190565b60008154613f6981613dbe565b60018281168015613f815760018114613f9657613fc5565b60ff1984168752821515830287019450613fc5565b8560005260208060002060005b85811015613fbc5781548a820152908401908201613fa3565b50505082870194505b5050505092915050565b60006124118284613f5c565b600060208284031215613fed57600080fd5b5051919050565b80820180821115610b7f57610b7f613f2d565b601f821115610c1657600081815260208120601f850160051c8101602086101561402e5750805b601f850160051c820191505b818110156125fe5782815560010161403a565b81516001600160401b0381111561406657614066613628565b61407a816140748454613dbe565b84614007565b602080601f8311600181146140af57600084156140975750858301515b600019600386901b1c1916600185901b1785556125fe565b600085815260208120601f198616915b828110156140de578886015182559484019460019091019084016140bf565b50858210156140fc5787850151600019600388901b60f8161c191681555b5050505050600190811b01905550565b82815260406020820152600061150d60408301846135e9565b81810381811115610b7f57610b7f613f2d565b60018060a01b038516815283602082015282604082015260806060820152600061416560808301846135e9565b9695505050505050565b600060208083526000845461418381613dbe565b808487015260406001808416600081146141a457600181146141be576141ec565b60ff1985168984015283151560051b8901830195506141ec565b896000528660002060005b858110156141e45781548b82018601529083019088016141c9565b8a0184019650505b509398975050505050505050565b60006142068285613f5c565b83516142168183602088016135c5565b01949350505050565b60208082526025908201527f455243313135353a207472616e7366657220746f20746865207a65726f206164604082015264647265737360d81b606082015260800190565b6020808252602a908201527f455243313135353a20696e73756666696369656e742062616c616e636520666f60408201526939103a3930b739b332b960b11b606082015260800190565b6040815260006142c1604083018561399f565b82810360208401526134fa818561399f565b6020808252602b908201527f496e697469616c697a61626c653a20636f6e7472616374206973206e6f74206960408201526a6e697469616c697a696e6760a81b606082015260800190565b8082028115828204841417610b7f57610b7f613f2d565b60008261435257634e487b7160e01b600052601260045260246000fd5b500490565b6001600160a01b0386811682528516602082015260a0604082018190526000906143839083018661399f565b8281036060840152614395818661399f565b905082810360808401526143a981856135e9565b98975050505050505050565b6000602082840312156143c757600080fd5b815161241181613579565b600060033d11156114525760046000803e5060005160e01c90565b600060443d10156143fb5790565b6040516003193d81016004833e81513d6001600160401b03816024840111818411171561442a57505050505090565b82850191508151818111156144425750505050505090565b843d870101602082850101111561445c5750505050505090565b61446b60208286010187613663565b509095945050505050565b60208082526028908201527f455243313135353a204552433131353552656365697665722072656a656374656040820152676420746f6b656e7360c01b606082015260800190565b7f416363657373436f6e74726f6c3a206163636f756e74200000000000000000008152600083516144f68160178501602088016135c5565b7001034b99036b4b9b9b4b733903937b6329607d1b60179184019182015283516145278160288401602088016135c5565b01602801949350505050565b6001600160a01b03868116825285166020820152604081018490526060810183905260a06080820181905260009061456d908301846135e9565b979650505050505050565b60008161458757614587613f2d565b50600019019056fe360894a13ba1a3210667c828492db98dca3e2076cc3735a920a3ca505d382bbc65d7a28e3265b37a6474929f336521b332c1681b933f6cb9f3376673440d862a416464726573733a206c6f772d6c6576656c2064656c65676174652063616c6c206661696c6564a26469706673582212204e5812b020d49f17e0b602ece6cb5ed5aefb418b361c66031b16fda2bb42fdc764736f6c63430008110033",
  "linkReferences": {},
  "deployedLinkReferences": {}
}