{
  "_format": "hh-sol-artifact-1",
  "contractName": "TheBadge",
  "sourceName": "src/contracts/thebadge/TheBadge.sol",
  "abi": [
    {
      "inputs": [],
      "stateMutability": "nonpayable",
      "type": "constructor"
    },
    {
      "inputs": [],
      "name": "TheBadge__SBT",
      "type": "error"
    },
    {
      "inputs": [],
      "name": "TheBadge__badgeModel_badgeModelNotFound",
      "type": "error"
    },
    {
      "inputs": [],
      "name": "TheBadge__createBadgeModel_controllerIsPaused",
      "type": "error"
    },
    {
      "inputs": [],
      "name": "TheBadge__createBadgeModel_invalidController",
      "type": "error"
    },
    {
      "inputs": [],
      "name": "TheBadge__createBadgeModel_wrongValue",
      "type": "error"
    },
    {
      "inputs": [],
      "name": "TheBadge__method_not_supported",
      "type": "error"
    },
    {
      "inputs": [],
      "name": "TheBadge__onlyCreator_creatorIsSuspended",
      "type": "error"
    },
    {
      "inputs": [],
      "name": "TheBadge__onlyCreator_senderIsNotACreator",
      "type": "error"
    },
    {
      "inputs": [],
      "name": "TheBadge__registerCreator_alreadyRegistered",
      "type": "error"
    },
    {
      "inputs": [],
      "name": "TheBadge__registerCreator_wrongValue",
      "type": "error"
    },
    {
      "inputs": [],
      "name": "TheBadge__requestBadge_badgeModelIsSuspended",
      "type": "error"
    },
    {
      "inputs": [],
      "name": "TheBadge__requestBadge_badgeModelNotFound",
      "type": "error"
    },
    {
      "inputs": [],
      "name": "TheBadge__requestBadge_controllerIsPaused",
      "type": "error"
    },
    {
      "inputs": [],
      "name": "TheBadge__requestBadge_isPaused",
      "type": "error"
    },
    {
      "inputs": [],
      "name": "TheBadge__requestBadge_wrongValue",
      "type": "error"
    },
    {
      "inputs": [],
      "name": "TheBadge__setBadgeModelController_alreadySet",
      "type": "error"
    },
    {
      "inputs": [],
      "name": "TheBadge__setBadgeModelController_emptyName",
      "type": "error"
    },
    {
      "inputs": [],
      "name": "TheBadge__setBadgeModelController_notFound",
      "type": "error"
    },
    {
      "inputs": [],
      "name": "TheBadge__setControllerStatus_notFound",
      "type": "error"
    },
    {
      "inputs": [],
      "name": "TheBadge__updateBadgeModel_badgeModelNotFound",
      "type": "error"
    },
    {
      "inputs": [],
      "name": "TheBadge__updateBadgeModel_notBadgeModelOwner",
      "type": "error"
    },
    {
      "inputs": [],
      "name": "TheBadge__updateCreator_notFound",
      "type": "error"
    },
    {
      "anonymous": false,
      "inputs": [
        {
          "indexed": false,
          "internalType": "address",
          "name": "previousAdmin",
          "type": "address"
        },
        {
          "indexed": false,
          "internalType": "address",
          "name": "newAdmin",
          "type": "address"
        }
      ],
      "name": "AdminChanged",
      "type": "event"
    },
    {
      "anonymous": false,
      "inputs": [
        {
          "indexed": true,
          "internalType": "address",
          "name": "account",
          "type": "address"
        },
        {
          "indexed": true,
          "internalType": "address",
          "name": "operator",
          "type": "address"
        },
        {
          "indexed": false,
          "internalType": "bool",
          "name": "approved",
          "type": "bool"
        }
      ],
      "name": "ApprovalForAll",
      "type": "event"
    },
    {
      "anonymous": false,
      "inputs": [
        {
          "indexed": true,
          "internalType": "uint256",
          "name": "badgeModelId",
          "type": "uint256"
        },
        {
          "indexed": false,
          "internalType": "string",
          "name": "metadata",
          "type": "string"
        }
      ],
      "name": "BadgeModelCreated",
      "type": "event"
    },
    {
      "anonymous": false,
      "inputs": [
        {
          "indexed": true,
          "internalType": "uint256",
          "name": "badgeModelId",
          "type": "uint256"
        },
        {
          "indexed": false,
          "internalType": "uint256",
          "name": "newAmountInBps",
          "type": "uint256"
        }
      ],
      "name": "BadgeModelProtocolFeeUpdated",
      "type": "event"
    },
    {
      "anonymous": false,
      "inputs": [
        {
          "indexed": true,
          "internalType": "uint256",
          "name": "badgeModelId",
          "type": "uint256"
        }
      ],
      "name": "BadgeModelUpdated",
      "type": "event"
    },
    {
      "anonymous": false,
      "inputs": [
        {
          "indexed": true,
          "internalType": "uint256",
          "name": "badgeModelID",
          "type": "uint256"
        },
        {
          "indexed": true,
          "internalType": "uint256",
          "name": "badgeID",
          "type": "uint256"
        },
        {
          "indexed": true,
          "internalType": "address",
          "name": "recipient",
          "type": "address"
        },
        {
          "indexed": false,
          "internalType": "address",
          "name": "controller",
          "type": "address"
        },
        {
          "indexed": false,
          "internalType": "uint256",
          "name": "controllerBadgeId",
          "type": "uint256"
        }
      ],
      "name": "BadgeRequested",
      "type": "event"
    },
    {
      "anonymous": false,
      "inputs": [
        {
          "indexed": true,
          "internalType": "address",
          "name": "beacon",
          "type": "address"
        }
      ],
      "name": "BeaconUpgraded",
      "type": "event"
    },
    {
      "anonymous": false,
      "inputs": [
        {
          "indexed": true,
          "internalType": "address",
          "name": "creator",
          "type": "address"
        },
        {
          "indexed": false,
          "internalType": "string",
          "name": "metadata",
          "type": "string"
        }
      ],
      "name": "CreatorRegistered",
      "type": "event"
    },
    {
      "anonymous": false,
      "inputs": [
        {
          "indexed": true,
          "internalType": "address",
          "name": "admin",
          "type": "address"
        },
        {
          "indexed": true,
          "internalType": "address",
          "name": "minter",
          "type": "address"
        }
      ],
      "name": "Initialize",
      "type": "event"
    },
    {
      "anonymous": false,
      "inputs": [
        {
          "indexed": false,
          "internalType": "uint8",
          "name": "version",
          "type": "uint8"
        }
      ],
      "name": "Initialized",
      "type": "event"
    },
    {
      "anonymous": false,
      "inputs": [
        {
          "indexed": false,
          "internalType": "address",
          "name": "account",
          "type": "address"
        }
      ],
      "name": "Paused",
      "type": "event"
    },
    {
      "anonymous": false,
      "inputs": [
        {
          "indexed": true,
          "internalType": "address",
          "name": "recipient",
          "type": "address"
        },
        {
          "indexed": false,
          "internalType": "uint256",
          "name": "amount",
          "type": "uint256"
        },
        {
          "indexed": true,
          "internalType": "enum TheBadgeStore.PaymentType",
          "name": "paymentType",
          "type": "uint8"
        },
        {
          "indexed": true,
          "internalType": "uint256",
          "name": "badgeModelId",
          "type": "uint256"
        }
      ],
      "name": "PaymentMade",
      "type": "event"
    },
    {
      "anonymous": false,
      "inputs": [],
      "name": "ProtocolSettingsUpdated",
      "type": "event"
    },
    {
      "anonymous": false,
      "inputs": [
        {
          "indexed": true,
          "internalType": "address",
          "name": "creator",
          "type": "address"
        },
        {
          "indexed": false,
          "internalType": "bool",
          "name": "deleted",
          "type": "bool"
        }
      ],
      "name": "RemovedCreator",
      "type": "event"
    },
    {
      "anonymous": false,
      "inputs": [
        {
          "indexed": true,
          "internalType": "bytes32",
          "name": "role",
          "type": "bytes32"
        },
        {
          "indexed": true,
          "internalType": "bytes32",
          "name": "previousAdminRole",
          "type": "bytes32"
        },
        {
          "indexed": true,
          "internalType": "bytes32",
          "name": "newAdminRole",
          "type": "bytes32"
        }
      ],
      "name": "RoleAdminChanged",
      "type": "event"
    },
    {
      "anonymous": false,
      "inputs": [
        {
          "indexed": true,
          "internalType": "bytes32",
          "name": "role",
          "type": "bytes32"
        },
        {
          "indexed": true,
          "internalType": "address",
          "name": "account",
          "type": "address"
        },
        {
          "indexed": true,
          "internalType": "address",
          "name": "sender",
          "type": "address"
        }
      ],
      "name": "RoleGranted",
      "type": "event"
    },
    {
      "anonymous": false,
      "inputs": [
        {
          "indexed": true,
          "internalType": "bytes32",
          "name": "role",
          "type": "bytes32"
        },
        {
          "indexed": true,
          "internalType": "address",
          "name": "account",
          "type": "address"
        },
        {
          "indexed": true,
          "internalType": "address",
          "name": "sender",
          "type": "address"
        }
      ],
      "name": "RoleRevoked",
      "type": "event"
    },
    {
      "anonymous": false,
      "inputs": [
        {
          "indexed": true,
          "internalType": "address",
          "name": "creator",
          "type": "address"
        },
        {
          "indexed": false,
          "internalType": "bool",
          "name": "suspended",
          "type": "bool"
        }
      ],
      "name": "SuspendedCreator",
      "type": "event"
    },
    {
      "anonymous": false,
      "inputs": [
        {
          "indexed": true,
          "internalType": "address",
          "name": "operator",
          "type": "address"
        },
        {
          "indexed": true,
          "internalType": "address",
          "name": "from",
          "type": "address"
        },
        {
          "indexed": true,
          "internalType": "address",
          "name": "to",
          "type": "address"
        },
        {
          "indexed": false,
          "internalType": "uint256[]",
          "name": "ids",
          "type": "uint256[]"
        },
        {
          "indexed": false,
          "internalType": "uint256[]",
          "name": "values",
          "type": "uint256[]"
        }
      ],
      "name": "TransferBatch",
      "type": "event"
    },
    {
      "anonymous": false,
      "inputs": [
        {
          "indexed": true,
          "internalType": "address",
          "name": "operator",
          "type": "address"
        },
        {
          "indexed": true,
          "internalType": "address",
          "name": "from",
          "type": "address"
        },
        {
          "indexed": true,
          "internalType": "address",
          "name": "to",
          "type": "address"
        },
        {
          "indexed": false,
          "internalType": "uint256",
          "name": "id",
          "type": "uint256"
        },
        {
          "indexed": false,
          "internalType": "uint256",
          "name": "value",
          "type": "uint256"
        }
      ],
      "name": "TransferSingle",
      "type": "event"
    },
    {
      "anonymous": false,
      "inputs": [
        {
          "indexed": false,
          "internalType": "string",
          "name": "value",
          "type": "string"
        },
        {
          "indexed": true,
          "internalType": "uint256",
          "name": "id",
          "type": "uint256"
        }
      ],
      "name": "URI",
      "type": "event"
    },
    {
      "anonymous": false,
      "inputs": [
        {
          "indexed": false,
          "internalType": "address",
          "name": "account",
          "type": "address"
        }
      ],
      "name": "Unpaused",
      "type": "event"
    },
    {
      "anonymous": false,
      "inputs": [
        {
          "indexed": true,
          "internalType": "address",
          "name": "creator",
          "type": "address"
        },
        {
          "indexed": false,
          "internalType": "string",
          "name": "metadata",
          "type": "string"
        }
      ],
      "name": "UpdatedCreatorMetadata",
      "type": "event"
    },
    {
      "anonymous": false,
      "inputs": [
        {
          "indexed": true,
          "internalType": "address",
          "name": "implementation",
          "type": "address"
        }
      ],
      "name": "Upgraded",
      "type": "event"
    },
    {
      "inputs": [],
      "name": "DEFAULT_ADMIN_ROLE",
      "outputs": [
        {
          "internalType": "bytes32",
          "name": "",
          "type": "bytes32"
        }
      ],
      "stateMutability": "view",
      "type": "function"
    },
    {
      "inputs": [],
      "name": "FEE_COLLECTOR_ROLE",
      "outputs": [
        {
          "internalType": "bytes32",
          "name": "",
          "type": "bytes32"
        }
      ],
      "stateMutability": "view",
      "type": "function"
    },
    {
      "inputs": [],
      "name": "MINTER_ROLE",
      "outputs": [
        {
          "internalType": "bytes32",
          "name": "",
          "type": "bytes32"
        }
      ],
      "stateMutability": "view",
      "type": "function"
    },
    {
      "inputs": [],
      "name": "PAUSER_ROLE",
      "outputs": [
        {
          "internalType": "bytes32",
          "name": "",
          "type": "bytes32"
        }
      ],
      "stateMutability": "view",
      "type": "function"
    },
    {
      "inputs": [],
      "name": "SUSPENDER_ROLE",
      "outputs": [
        {
          "internalType": "bytes32",
          "name": "",
          "type": "bytes32"
        }
      ],
      "stateMutability": "view",
      "type": "function"
    },
    {
      "inputs": [],
      "name": "UPGRADER_ROLE",
      "outputs": [
        {
          "internalType": "bytes32",
          "name": "",
          "type": "bytes32"
        }
      ],
      "stateMutability": "view",
      "type": "function"
    },
    {
      "inputs": [],
      "name": "URI_SETTER_ROLE",
      "outputs": [
        {
          "internalType": "bytes32",
          "name": "",
          "type": "bytes32"
        }
      ],
      "stateMutability": "view",
      "type": "function"
    },
    {
      "inputs": [
        {
          "internalType": "string",
          "name": "controllerName",
          "type": "string"
        },
        {
          "internalType": "address",
          "name": "controllerAddress",
          "type": "address"
        }
      ],
      "name": "addBadgeModelController",
      "outputs": [],
      "stateMutability": "nonpayable",
      "type": "function"
    },
    {
      "inputs": [
        {
          "internalType": "string",
          "name": "",
          "type": "string"
        }
      ],
      "name": "badgeModelControllers",
      "outputs": [
        {
          "internalType": "address",
          "name": "controller",
          "type": "address"
        },
        {
          "internalType": "bool",
          "name": "paused",
          "type": "bool"
        },
        {
          "internalType": "bool",
          "name": "initialized",
          "type": "bool"
        }
      ],
      "stateMutability": "view",
      "type": "function"
    },
    {
      "inputs": [
        {
          "internalType": "uint256",
          "name": "",
          "type": "uint256"
        }
      ],
      "name": "badgeModels",
      "outputs": [
        {
          "internalType": "address",
          "name": "creator",
          "type": "address"
        },
        {
          "internalType": "string",
          "name": "controllerName",
          "type": "string"
        },
        {
          "internalType": "bool",
          "name": "paused",
          "type": "bool"
        },
        {
          "internalType": "uint256",
          "name": "mintCreatorFee",
          "type": "uint256"
        },
        {
          "internalType": "uint256",
          "name": "validFor",
          "type": "uint256"
        },
        {
          "internalType": "uint256",
          "name": "mintProtocolFee",
          "type": "uint256"
        },
        {
          "internalType": "bool",
          "name": "initialized",
          "type": "bool"
        }
      ],
      "stateMutability": "view",
      "type": "function"
    },
    {
      "inputs": [
        {
          "internalType": "uint256",
          "name": "",
          "type": "uint256"
        },
        {
          "internalType": "address",
          "name": "",
          "type": "address"
        },
        {
          "internalType": "uint256",
          "name": "",
          "type": "uint256"
        }
      ],
      "name": "badgeModelsByAccount",
      "outputs": [
        {
          "internalType": "uint256",
          "name": "",
          "type": "uint256"
        }
      ],
      "stateMutability": "view",
      "type": "function"
    },
    {
      "inputs": [
        {
          "internalType": "uint256",
          "name": "",
          "type": "uint256"
        }
      ],
      "name": "badges",
      "outputs": [
        {
          "internalType": "uint256",
          "name": "badgeModelId",
          "type": "uint256"
        },
        {
          "internalType": "address",
          "name": "account",
          "type": "address"
        },
        {
          "internalType": "uint256",
          "name": "dueDate",
          "type": "uint256"
        },
        {
          "internalType": "bool",
          "name": "initialized",
          "type": "bool"
        }
      ],
      "stateMutability": "view",
      "type": "function"
    },
    {
      "inputs": [
        {
          "internalType": "address",
          "name": "account",
          "type": "address"
        },
        {
          "internalType": "uint256",
          "name": "badgeId",
          "type": "uint256"
        }
      ],
      "name": "balanceOf",
      "outputs": [
        {
          "internalType": "uint256",
          "name": "",
          "type": "uint256"
        }
      ],
      "stateMutability": "view",
      "type": "function"
    },
    {
      "inputs": [
        {
          "internalType": "address",
          "name": "account",
          "type": "address"
        },
        {
          "internalType": "uint256",
          "name": "badgeModelId",
          "type": "uint256"
        }
      ],
      "name": "balanceOfBadgeModel",
      "outputs": [
        {
          "internalType": "uint256",
          "name": "",
          "type": "uint256"
        }
      ],
      "stateMutability": "view",
      "type": "function"
    },
    {
      "inputs": [
        {
          "internalType": "address[]",
          "name": "accounts",
          "type": "address[]"
        },
        {
          "internalType": "uint256[]",
          "name": "ids",
          "type": "uint256[]"
        }
      ],
      "name": "balanceOfBatch",
      "outputs": [
        {
          "internalType": "uint256[]",
          "name": "",
          "type": "uint256[]"
        }
      ],
      "stateMutability": "view",
      "type": "function"
    },
    {
      "inputs": [
        {
          "components": [
            {
              "internalType": "string",
              "name": "metadata",
              "type": "string"
            },
            {
              "internalType": "string",
              "name": "controllerName",
              "type": "string"
            },
            {
              "internalType": "uint256",
              "name": "mintCreatorFee",
              "type": "uint256"
            },
            {
              "internalType": "uint256",
              "name": "validFor",
              "type": "uint256"
            }
          ],
          "internalType": "struct TheBadgeStore.CreateBadgeModel",
          "name": "args",
          "type": "tuple"
        },
        {
          "internalType": "bytes",
          "name": "data",
          "type": "bytes"
        }
      ],
      "name": "createBadgeModel",
      "outputs": [],
      "stateMutability": "payable",
      "type": "function"
    },
    {
      "inputs": [],
      "name": "createBadgeModelProtocolFee",
      "outputs": [
        {
          "internalType": "uint256",
          "name": "",
          "type": "uint256"
        }
      ],
      "stateMutability": "view",
      "type": "function"
    },
    {
      "inputs": [
        {
          "internalType": "address",
          "name": "",
          "type": "address"
        }
      ],
      "name": "creators",
      "outputs": [
        {
          "internalType": "string",
          "name": "metadata",
          "type": "string"
        },
        {
          "internalType": "bool",
          "name": "suspended",
          "type": "bool"
        },
        {
          "internalType": "bool",
          "name": "initialized",
          "type": "bool"
        }
      ],
      "stateMutability": "view",
      "type": "function"
    },
    {
      "inputs": [],
      "name": "feeCollector",
      "outputs": [
        {
          "internalType": "address",
          "name": "",
          "type": "address"
        }
      ],
      "stateMutability": "view",
      "type": "function"
    },
    {
      "inputs": [
        {
          "internalType": "bytes32",
          "name": "role",
          "type": "bytes32"
        }
      ],
      "name": "getRoleAdmin",
      "outputs": [
        {
          "internalType": "bytes32",
          "name": "",
          "type": "bytes32"
        }
      ],
      "stateMutability": "view",
      "type": "function"
    },
    {
      "inputs": [
        {
          "internalType": "bytes32",
          "name": "role",
          "type": "bytes32"
        },
        {
          "internalType": "address",
          "name": "account",
          "type": "address"
        }
      ],
      "name": "grantRole",
      "outputs": [],
      "stateMutability": "nonpayable",
      "type": "function"
    },
    {
      "inputs": [
        {
          "internalType": "bytes32",
          "name": "role",
          "type": "bytes32"
        },
        {
          "internalType": "address",
          "name": "account",
          "type": "address"
        }
      ],
      "name": "hasRole",
      "outputs": [
        {
          "internalType": "bool",
          "name": "",
          "type": "bool"
        }
      ],
      "stateMutability": "view",
      "type": "function"
    },
    {
      "inputs": [
        {
          "internalType": "address",
          "name": "admin",
          "type": "address"
        },
        {
          "internalType": "address",
          "name": "_feeCollector",
          "type": "address"
        },
        {
          "internalType": "address",
          "name": "minter",
          "type": "address"
        }
      ],
      "name": "initialize",
      "outputs": [],
      "stateMutability": "nonpayable",
      "type": "function"
    },
    {
      "inputs": [
        {
          "internalType": "address",
          "name": "account",
          "type": "address"
        },
        {
          "internalType": "address",
          "name": "operator",
          "type": "address"
        }
      ],
      "name": "isApprovedForAll",
      "outputs": [
        {
          "internalType": "bool",
          "name": "",
          "type": "bool"
        }
      ],
      "stateMutability": "view",
      "type": "function"
    },
    {
      "inputs": [
        {
          "internalType": "uint256",
          "name": "badgeModelId",
          "type": "uint256"
        }
      ],
      "name": "isBadgeModelSuspended",
      "outputs": [
        {
          "internalType": "bool",
          "name": "",
          "type": "bool"
        }
      ],
      "stateMutability": "view",
      "type": "function"
    },
    {
      "inputs": [
        {
          "internalType": "uint256",
          "name": "badgeId",
          "type": "uint256"
        }
      ],
      "name": "isExpired",
      "outputs": [
        {
          "internalType": "bool",
          "name": "",
          "type": "bool"
        }
      ],
      "stateMutability": "view",
      "type": "function"
    },
    {
      "inputs": [
        {
          "internalType": "uint256",
          "name": "badgeModelId",
          "type": "uint256"
        },
        {
          "internalType": "address",
          "name": "account",
          "type": "address"
        },
        {
          "internalType": "string",
          "name": "tokenURI",
          "type": "string"
        },
        {
          "internalType": "bytes",
          "name": "data",
          "type": "bytes"
        }
      ],
      "name": "mint",
      "outputs": [],
      "stateMutability": "payable",
      "type": "function"
    },
    {
      "inputs": [],
      "name": "mintBadgeProtocolDefaultFeeInBps",
      "outputs": [
        {
          "internalType": "uint256",
          "name": "",
          "type": "uint256"
        }
      ],
      "stateMutability": "view",
      "type": "function"
    },
    {
      "inputs": [
        {
          "internalType": "uint256",
          "name": "badgeModelId",
          "type": "uint256"
        }
      ],
      "name": "mintValue",
      "outputs": [
        {
          "internalType": "uint256",
          "name": "",
          "type": "uint256"
        }
      ],
      "stateMutability": "view",
      "type": "function"
    },
    {
      "inputs": [],
      "name": "pause",
      "outputs": [],
      "stateMutability": "nonpayable",
      "type": "function"
    },
    {
      "inputs": [],
      "name": "paused",
      "outputs": [
        {
          "internalType": "bool",
          "name": "",
          "type": "bool"
        }
      ],
      "stateMutability": "view",
      "type": "function"
    },
    {
      "inputs": [],
      "name": "proxiableUUID",
      "outputs": [
        {
          "internalType": "bytes32",
          "name": "",
          "type": "bytes32"
        }
      ],
      "stateMutability": "view",
      "type": "function"
    },
    {
      "inputs": [
        {
          "internalType": "string",
          "name": "_metadata",
          "type": "string"
        }
      ],
      "name": "registerBadgeModelCreator",
      "outputs": [],
      "stateMutability": "payable",
      "type": "function"
    },
    {
      "inputs": [],
      "name": "registerCreatorProtocolFee",
      "outputs": [
        {
          "internalType": "uint256",
          "name": "",
          "type": "uint256"
        }
      ],
      "stateMutability": "view",
      "type": "function"
    },
    {
      "inputs": [],
      "name": "removeBadgeModelCreator",
      "outputs": [],
      "stateMutability": "view",
      "type": "function"
    },
    {
      "inputs": [
        {
          "internalType": "bytes32",
          "name": "role",
          "type": "bytes32"
        },
        {
          "internalType": "address",
          "name": "account",
          "type": "address"
        }
      ],
      "name": "renounceRole",
      "outputs": [],
      "stateMutability": "nonpayable",
      "type": "function"
    },
    {
      "inputs": [
        {
          "internalType": "bytes32",
          "name": "role",
          "type": "bytes32"
        },
        {
          "internalType": "address",
          "name": "account",
          "type": "address"
        }
      ],
      "name": "revokeRole",
      "outputs": [],
      "stateMutability": "nonpayable",
      "type": "function"
    },
    {
      "inputs": [
        {
          "internalType": "address",
          "name": "from",
          "type": "address"
        },
        {
          "internalType": "address",
          "name": "to",
          "type": "address"
        },
        {
          "internalType": "uint256[]",
          "name": "ids",
          "type": "uint256[]"
        },
        {
          "internalType": "uint256[]",
          "name": "amounts",
          "type": "uint256[]"
        },
        {
          "internalType": "bytes",
          "name": "data",
          "type": "bytes"
        }
      ],
      "name": "safeBatchTransferFrom",
      "outputs": [],
      "stateMutability": "nonpayable",
      "type": "function"
    },
    {
      "inputs": [
        {
          "internalType": "address",
          "name": "from",
          "type": "address"
        },
        {
          "internalType": "address",
          "name": "to",
          "type": "address"
        },
        {
          "internalType": "uint256",
          "name": "id",
          "type": "uint256"
        },
        {
          "internalType": "uint256",
          "name": "amount",
          "type": "uint256"
        },
        {
          "internalType": "bytes",
          "name": "data",
          "type": "bytes"
        }
      ],
      "name": "safeTransferFrom",
      "outputs": [],
      "stateMutability": "nonpayable",
      "type": "function"
    },
    {
      "inputs": [
        {
          "internalType": "address",
          "name": "operator",
          "type": "address"
        },
        {
          "internalType": "bool",
          "name": "approved",
          "type": "bool"
        }
      ],
      "name": "setApprovalForAll",
      "outputs": [],
      "stateMutability": "nonpayable",
      "type": "function"
    },
    {
      "inputs": [
        {
          "internalType": "bytes4",
          "name": "interfaceId",
          "type": "bytes4"
        }
      ],
      "name": "supportsInterface",
      "outputs": [
        {
          "internalType": "bool",
          "name": "",
          "type": "bool"
        }
      ],
      "stateMutability": "view",
      "type": "function"
    },
    {
      "inputs": [],
      "name": "suspendBadgeModel",
      "outputs": [],
      "stateMutability": "view",
      "type": "function"
    },
    {
      "inputs": [
        {
          "internalType": "address",
          "name": "_creator",
          "type": "address"
        },
        {
          "internalType": "bool",
          "name": "suspended",
          "type": "bool"
        }
      ],
      "name": "suspendBadgeModelCreator",
      "outputs": [],
      "stateMutability": "nonpayable",
      "type": "function"
    },
    {
      "inputs": [],
      "name": "unpause",
      "outputs": [],
      "stateMutability": "nonpayable",
      "type": "function"
    },
    {
      "inputs": [
        {
          "internalType": "uint256",
          "name": "badgeModelId",
          "type": "uint256"
        },
        {
          "internalType": "uint256",
          "name": "mintCreatorFee",
          "type": "uint256"
        },
        {
          "internalType": "bool",
          "name": "paused",
          "type": "bool"
        }
      ],
      "name": "updateBadgeModel",
      "outputs": [],
      "stateMutability": "nonpayable",
      "type": "function"
    },
    {
      "inputs": [
        {
          "internalType": "address",
          "name": "_creator",
          "type": "address"
        },
        {
          "internalType": "string",
          "name": "_metadata",
          "type": "string"
        }
      ],
      "name": "updateBadgeModelCreator",
      "outputs": [],
      "stateMutability": "nonpayable",
      "type": "function"
    },
    {
      "inputs": [
        {
          "internalType": "uint256",
          "name": "badgeModelId",
          "type": "uint256"
        },
        {
          "internalType": "uint256",
          "name": "feeInBps",
          "type": "uint256"
        }
      ],
      "name": "updateBadgeModelProtocolFee",
      "outputs": [],
      "stateMutability": "nonpayable",
      "type": "function"
    },
    {
      "inputs": [
        {
          "internalType": "uint256",
          "name": "_createBadgeModelValue",
          "type": "uint256"
        }
      ],
      "name": "updateCreateBadgeModelProtocolFee",
      "outputs": [],
      "stateMutability": "nonpayable",
      "type": "function"
    },
    {
      "inputs": [
        {
          "internalType": "uint256",
          "name": "_mintBadgeDefaultFee",
          "type": "uint256"
        }
      ],
      "name": "updateMintBadgeDefaultProtocolFee",
      "outputs": [],
      "stateMutability": "nonpayable",
      "type": "function"
    },
    {
      "inputs": [
        {
          "internalType": "uint256",
          "name": "_registerCreatorValue",
          "type": "uint256"
        }
      ],
      "name": "updateRegisterCreatorProtocolFee",
      "outputs": [],
      "stateMutability": "nonpayable",
      "type": "function"
    },
    {
      "inputs": [
        {
          "internalType": "address",
          "name": "newImplementation",
          "type": "address"
        }
      ],
      "name": "upgradeTo",
      "outputs": [],
      "stateMutability": "nonpayable",
      "type": "function"
    },
    {
      "inputs": [
        {
          "internalType": "address",
          "name": "newImplementation",
          "type": "address"
        },
        {
          "internalType": "bytes",
          "name": "data",
          "type": "bytes"
        }
      ],
      "name": "upgradeToAndCall",
      "outputs": [],
      "stateMutability": "payable",
      "type": "function"
    },
    {
      "inputs": [
        {
          "internalType": "uint256",
          "name": "badgeId",
          "type": "uint256"
        }
      ],
      "name": "uri",
      "outputs": [
        {
          "internalType": "string",
          "name": "",
          "type": "string"
        }
      ],
      "stateMutability": "view",
      "type": "function"
    },
    {
      "stateMutability": "payable",
      "type": "receive"
    }
  ],
  "bytecode": "0x60a0604052306080523480156200001557600080fd5b506200002062000026565b620000e8565b600054610100900460ff1615620000935760405162461bcd60e51b815260206004820152602760248201527f496e697469616c697a61626c653a20636f6e747261637420697320696e697469604482015266616c697a696e6760c81b606482015260840160405180910390fd5b60005460ff9081161015620000e6576000805460ff191660ff9081179091556040519081527f7f26b83ff96e1f2b6a682f133852f6798a09c465da95921460cefb38474024989060200160405180910390a15b565b608051614cbf620001206000396000818161108f015281816110cf0152818161161e0152818161165e01526116ed0152614cbf6000f3fe60806040526004361061031d5760003560e01c80637f345710116101ab578063c415b95c116100f7578063e181865111610095578063ede37dd41161006f578063ede37dd414610a5b578063f1fe717e14610a7b578063f242432a14610a9b578063f72c0d8b14610abb57600080fd5b8063e1818651146109d0578063e63ab1e9146109f0578063e985e9c514610a1257600080fd5b8063cb22dfcb116100d1578063cb22dfcb1461093c578063d53913931461095c578063d547741f14610990578063d9548e53146109b057600080fd5b8063c415b95c146108d0578063c5a3c7ca14610909578063c9e4eba11461092957600080fd5b8063a217fddf11610164578063c0a39d121161013e578063c0a39d121461085d578063c0c53b8b1461087d578063c1d188401461089d578063c227fb11146108b057600080fd5b8063a217fddf14610808578063a22cb4651461081d578063a9710d9a1461083d57600080fd5b80637f345710146106e3578063828efb25146107175780638456cb591461072a57806391d148541461073f578063933166e11461075f57806398e36d8b1461078e57600080fd5b80633fd112381161026a57806352d1902d1161022357806362a2a47c116101fd57806362a2a47c146105f8578063632f7c831461062c57806364d8baef1461064c5780637333b3751461066357600080fd5b806352d1902d146105cb57806357f8188f1461053f5780635c975abb146105e057600080fd5b80633fd112381461051f57806341954e091461053f57806346c45758146105545780634e1273f4146105745780634e5eceae146105a15780634f1ef286146105b857600080fd5b806327096c46116102d7578063302b0180116102b1578063302b01801461049757806336568abe146104ca5780633659cfe6146104ea5780633f4ba83a1461050a57600080fd5b806327096c46146104405780632eb2c2d6146104575780632f2ff15d1461047757600080fd5b8062fdd58e1461032957806301ffc9a71461035c5780630e89341c1461038c5780631adb7682146103b95780631e063403146103db578063248a9ca31461040f57600080fd5b3661032457005b600080fd5b34801561033557600080fd5b50610349610344366004613be5565b610aef565b6040519081526020015b60405180910390f35b34801561036857600080fd5b5061037c610377366004613c25565b610d4b565b6040519015158152602001610353565b34801561039857600080fd5b506103ac6103a7366004613c42565b610d56565b6040516103539190613cab565b3480156103c557600080fd5b506103d96103d4366004613ccc565b610d61565b005b3480156103e757600080fd5b506103497f905e7c6bceabadb31a2ebbb666d0d6df4dfb3156f376c424680851d38988ea8481565b34801561041b57600080fd5b5061034961042a366004613c42565b600090815261015f602052604090206001015490565b34801561044c57600080fd5b506103496101935481565b34801561046357600080fd5b506103d9610472366004613e73565b610eb1565b34801561048357600080fd5b506103d9610492366004613f1c565b610f06565b3480156104a357600080fd5b506104b76104b2366004613c42565b610f31565b6040516103539796959493929190613f48565b3480156104d657600080fd5b506103d96104e5366004613f1c565b611007565b3480156104f657600080fd5b506103d9610505366004613f98565b611085565b34801561051657600080fd5b506103d9611164565b34801561052b57600080fd5b506103d961053a366004613fb3565b611184565b34801561054b57600080fd5b506103d961123c565b34801561056057600080fd5b5061034961056f366004613be5565b611260565b34801561058057600080fd5b5061059461058f366004613fea565b6114eb565b60405161035391906140ef565b3480156105ad57600080fd5b506103496101955481565b6103d96105c6366004614102565b611614565b3480156105d757600080fd5b506103496116e0565b3480156105ec57600080fd5b5060c95460ff1661037c565b34801561060457600080fd5b506103497f2dca0f5ce7e75a4b43fe2b0d6f5d0b7a2bf92ecf89f8f0aa17b8308b6703882181565b34801561063857600080fd5b50610349610647366004613c42565b611794565b34801561065857600080fd5b506103496101945481565b34801561066f57600080fd5b506106bc61067e366004614145565b805180820160209081018051610198825292820191909301209152546001600160a01b0381169060ff600160a01b8204811691600160a81b90041683565b604080516001600160a01b0390941684529115156020840152151590820152606001610353565b3480156106ef57600080fd5b506103497f7804d923f43a17d325d77e781528e0793b2edd9890ab45fc64efd7b4b427744c81565b6103d9610725366004614179565b61187b565b34801561073657600080fd5b506103d9611b4e565b34801561074b57600080fd5b5061037c61075a366004613f1c565b611b6e565b34801561076b57600080fd5b5061077f61077a366004613f98565b611b9a565b6040516103539392919061423e565b34801561079a57600080fd5b506107de6107a9366004613c42565b61019a60205260009081526040902080546001820154600283015460039093015491926001600160a01b039091169160ff1684565b604080519485526001600160a01b0390931660208501529183015215156060820152608001610353565b34801561081457600080fd5b50610349600081565b34801561082957600080fd5b506103d9610838366004613fb3565b611c4b565b34801561084957600080fd5b506103d9610858366004614102565b611c56565b34801561086957600080fd5b506103d9610878366004614268565b611cf6565b34801561088957600080fd5b506103d96108983660046142ac565b611e30565b6103d96108ab3660046142ef565b612045565b3480156108bc57600080fd5b5061037c6108cb366004613c42565b6125ad565b3480156108dc57600080fd5b50610196546108f1906001600160a01b031681565b6040516001600160a01b039091168152602001610353565b34801561091557600080fd5b506103d9610924366004613c42565b612623565b6103d9610937366004614145565b612661565b34801561094857600080fd5b5061034961095736600461436c565b61276e565b34801561096857600080fd5b506103497f9f2df0fed2c77648de5860a4cc508cd0818c85b8b8a1ab4ceeef8d981c8956a681565b34801561099c57600080fd5b506103d96109ab366004613f1c565b6127ad565b3480156109bc57600080fd5b5061037c6109cb366004613c42565b6127d3565b3480156109dc57600080fd5b506103d96109eb366004613c42565b612863565b3480156109fc57600080fd5b50610349600080516020614c4383398151915281565b348015610a1e57600080fd5b5061037c610a2d3660046143a1565b6001600160a01b03918216600090815260666020908152604080832093909416825291909152205460ff1690565b348015610a6757600080fd5b506103d9610a763660046143cb565b6128a1565b348015610a8757600080fd5b506103d9610a96366004613c42565b61291c565b348015610aa757600080fd5b506103d9610ab63660046143ed565b61295a565b348015610ac757600080fd5b506103497f189ab7a9244df0848122154315af71fe140f3db0fe014031783b0946b8c9d2e381565b600081815261019a6020908152604080832081516080810183528154815260018201546001600160a01b0316938101939093526002810154918301919091526003015460ff16158015606083015280610b5e5750836001600160a01b031681602001516001600160a01b031614155b15610b6d576000915050610d45565b610b76836127d3565b1515600103610b89576000915050610d45565b8051600090815261019960209081526040808320815160e0810190925280546001600160a01b031682526001810180549293919291840191610bca90614451565b80601f0160208091040260200160405190810160405280929190818152602001828054610bf690614451565b8015610c435780601f10610c1857610100808354040283529160200191610c43565b820191906000526020600020905b815481529060010190602001808311610c2657829003601f168201915b5050509183525050600282015460ff908116151560208084019190915260038401546040808501919091526004850154606085015260058501546080850152600690940154909116151560a090920191909152820151905191925060009161019891610cae9161448b565b90815260405190819003602001812054631174806160e11b82526001600160a01b0316915081906322e900c290610ced90889060040190815260200190565b602060405180830381865afa158015610d0a573d6000803e3d6000fd5b505050506040513d601f19601f82011682018060405250810190610d2e91906144a7565b610d39576000610d3c565b60015b60ff1693505050505b92915050565b6000610d458261299f565b6060610d45826129c4565b336000908152610197602090815260408083208684526101999092529091208154859291908290610d9190614451565b9050600003610db357604051638fcc03fd60e01b815260040160405180910390fd5b60018083015460ff1615159003610ddd5760405163401d786960e11b815260040160405180910390fd5b80546001600160a01b0316610e0557604051638fa97ef960e01b815260040160405180910390fd5b80546001600160a01b03163314610e2f5760405163806ecc4960e01b815260040160405180910390fd5b60008681526101996020526040902080546001600160a01b0316610e66576040516336f7ce4f60e11b815260040160405180910390fd5b6003810186905560028101805460ff191686151517905560405187907fc7fe3866a4edc843062ecfa12604d4a6686605fb2bd8a2323d96dc40c08d9e3d90600090a250505050505050565b6001600160a01b038516331480610ecd5750610ecd8533610a2d565b610ef25760405162461bcd60e51b8152600401610ee9906144c4565b60405180910390fd5b610eff8585858585612aa3565b5050505050565b600082815261015f6020526040902060010154610f2281612c91565b610f2c8383612c9b565b505050565b61019960205260009081526040902080546001820180546001600160a01b039092169291610f5e90614451565b80601f0160208091040260200160405190810160405280929190818152602001828054610f8a90614451565b8015610fd75780601f10610fac57610100808354040283529160200191610fd7565b820191906000526020600020905b815481529060010190602001808311610fba57829003601f168201915b5050506002840154600385015460048601546005870154600690970154959660ff93841696929550909350911687565b6001600160a01b03811633146110775760405162461bcd60e51b815260206004820152602f60248201527f416363657373436f6e74726f6c3a2063616e206f6e6c792072656e6f756e636560448201526e103937b632b9903337b91039b2b63360891b6064820152608401610ee9565b6110818282612d22565b5050565b6001600160a01b037f00000000000000000000000000000000000000000000000000000000000000001630036110cd5760405162461bcd60e51b8152600401610ee990614512565b7f00000000000000000000000000000000000000000000000000000000000000006001600160a01b0316611116600080516020614c23833981519152546001600160a01b031690565b6001600160a01b03161461113c5760405162461bcd60e51b8152600401610ee99061455e565b61114581612d8a565b6040805160008082526020820190925261116191839190612db4565b50565b600080516020614c4383398151915261117c81612c91565b611161612f1f565b600080516020614c4383398151915261119c81612c91565b6001600160a01b038316600090815261019760205260409020805481906111c290614451565b90506000036111e457604051637bc3ac5560e11b815260040160405180910390fd5b60018101805460ff19168415159081179091556040519081526001600160a01b038516907feabcc99b8eacf20db83fc3b01249ebdab27258f082db573fe4606fdca5a737bf906020015b60405180910390a250505050565b600061124781612c91565b60405163aaa2c00360e01b815260040160405180910390fd5b600081815261019b602090815260408083206001600160a01b0386168452909152812054810361129257506000610d45565b600082815261019960209081526040808320815160e0810190925280546001600160a01b0316825260018101805492939192918401916112d190614451565b80601f01602080910402602001604051908101604052809291908181526020018280546112fd90614451565b801561134a5780601f1061131f5761010080835404028352916020019161134a565b820191906000526020600020905b81548152906001019060200180831161132d57829003601f168201915b5050509183525050600282015460ff908116151560208084019190915260038401546040808501919091526004850154606085015260058501546080850152600690940154909116151560a0909201919091528201519051919250600091610198916113b59161448b565b908152604051908190036020019020546001600160a01b031690506000805b600086815261019b602090815260408083206001600160a01b038b1684529091529020548110156114e157600086815261019b602090815260408083206001600160a01b038b1684529091528120805483908110611434576114346145aa565b9060005260206000200154905061144a816127d3565b1580156114bb5750604051631174806160e11b8152600481018290526001600160a01b038516906322e900c290602401602060405180830381865afa158015611497573d6000803e3d6000fd5b505050506040513d601f19601f820116820180604052508101906114bb91906144a7565b156114ce57826114ca816145d6565b9350505b50806114d9816145d6565b9150506113d4565b5095945050505050565b606081518351146115505760405162461bcd60e51b815260206004820152602960248201527f455243313135353a206163636f756e747320616e6420696473206c656e677468604482015268040dad2e6dac2e8c6d60bb1b6064820152608401610ee9565b600083516001600160401b0381111561156b5761156b613d05565b604051908082528060200260200182016040528015611594578160200160208202803683370190505b50905060005b845181101561160c576115df8582815181106115b8576115b86145aa565b60200260200101518583815181106115d2576115d26145aa565b6020026020010151610aef565b8282815181106115f1576115f16145aa565b6020908102919091010152611605816145d6565b905061159a565b509392505050565b6001600160a01b037f000000000000000000000000000000000000000000000000000000000000000016300361165c5760405162461bcd60e51b8152600401610ee990614512565b7f00000000000000000000000000000000000000000000000000000000000000006001600160a01b03166116a5600080516020614c23833981519152546001600160a01b031690565b6001600160a01b0316146116cb5760405162461bcd60e51b8152600401610ee99061455e565b6116d482612d8a565b61108182826001612db4565b6000306001600160a01b037f000000000000000000000000000000000000000000000000000000000000000016146117805760405162461bcd60e51b815260206004820152603860248201527f555550535570677261646561626c653a206d757374206e6f742062652063616c60448201527f6c6564207468726f7567682064656c656761746563616c6c00000000000000006064820152608401610ee9565b50600080516020614c238339815191525b90565b60008181526101996020526040812080546001600160a01b03166117cb576040516336f7ce4f60e11b815260040160405180910390fd5b6000610198826001016040516117e19190614662565b90815260405190819003602001812054600384015463632f7c8360e01b83526001600160a01b03909116925090829063632f7c839061182890889060040190815260200190565b602060405180830381865afa158015611845573d6000803e3d6000fd5b505050506040513d601f19601f82011682018060405250810190611869919061466e565b6118739190614687565b949350505050565b336000908152610197602052604090208054819061189890614451565b90506000036118ba57604051638fcc03fd60e01b815260040160405180910390fd5b6101945434146118dd5760405163043f7a7d60e21b815260040160405180910390fd5b600061019884602001516040516118f4919061448b565b90815260405190819003602001902080549091506001600160a01b031661192e576040516323be546760e01b815260040160405180910390fd5b8054600160a01b900460ff161561195857604051630d70501560e11b815260040160405180910390fd5b341561199a57610196546040516001600160a01b03909116903480156108fc02916000818181858888f19350505050158015611998573d6000803e3d6000fd5b505b6040518060e001604052806119ac3390565b6001600160a01b03168152602001856020015181526020016000151581526020018560400151815260200185606001518152602001610195548152602001600115158152506101996000611a006101915490565b8152602080820192909252604001600020825181546001600160a01b0319166001600160a01b03909116178155908201516001820190611a4090826146e0565b50604082015160028201805491151560ff19928316179055606083015160038301556080830151600483015560a0830151600583015560c0909201516006909101805491151591909216179055611a976101915490565b84516040517f584274d31df3e2cf85a9d6dfaf82b219994725ca486f214ef93fbec2d054dca091611ac791613cab565b60405180910390a280546001600160a01b03166377a3989e611ae96101915490565b856040518363ffffffff1660e01b8152600401611b0792919061479f565b600060405180830381600087803b158015611b2157600080fd5b505af1158015611b35573d6000803e3d6000fd5b50505050611b4861019180546001019055565b50505050565b600080516020614c43833981519152611b6681612c91565b611161612f71565b600091825261015f602090815260408084206001600160a01b0393909316845291905290205460ff1690565b61019760205260009081526040902080548190611bb690614451565b80601f0160208091040260200160405190810160405280929190818152602001828054611be290614451565b8015611c2f5780601f10611c0457610100808354040283529160200191611c2f565b820191906000526020600020905b815481529060010190602001808311611c1257829003601f168201915b5050506001909301549192505060ff8082169161010090041683565b611081338383612fae565b6000611c6181612c91565b6001600160a01b03831660009081526101976020526040902080548190611c8790614451565b9050600003611ca957604051637bc3ac5560e11b815260040160405180910390fd5b825115611cbd5780611cbb84826146e0565b505b836001600160a01b03167f5b12b24c4622e8e6af38c1749b1261965b5098a96fb4b4cfb6075eb20c77fc588460405161122e9190613cab565b6000611d0181612c91565b600061019884604051611d14919061448b565b908152602001604051809103902090508351600003611d465760405163a8d052f160e01b815260040160405180910390fd5b6001600160a01b038316611d6d5760405163278e974f60e01b815260040160405180910390fd5b80546001600160a01b031615611d9657604051631c783ddb60e01b815260040160405180910390fd5b604080516060810182526001600160a01b038516815260006020820152600181830152905161019890611dca90879061448b565b90815260408051918290036020908101909220835181549385015194909201511515600160a81b0260ff60a81b19941515600160a01b026001600160a81b03199094166001600160a01b0390931692909217929092179290921691909117905550505050565b600054610100900460ff1615808015611e505750600054600160ff909116105b80611e6a5750303b158015611e6a575060005460ff166001145b611ecd5760405162461bcd60e51b815260206004820152602e60248201527f496e697469616c697a61626c653a20636f6e747261637420697320616c72656160448201526d191e481a5b9a5d1a585b1a5e995960921b6064820152608401610ee9565b6000805460ff191660011790558015611ef0576000805461ff0019166101001790555b611f0860405180602001604052806000815250612fc7565b611f10612ff7565b611f18613020565b611f20612ff7565b611f2b600085612c9b565b611f43600080516020614c4383398151915233612c9b565b611f6d7f9f2df0fed2c77648de5860a4cc508cd0818c85b8b8a1ab4ceeef8d981c8956a683612c9b565b611f977f189ab7a9244df0848122154315af71fe140f3db0fe014031783b0946b8c9d2e333612c9b565b61019680546001600160a01b0319166001600160a01b038581169190911790915560006101938190556101948190556103e861019555604051848316928716917fdc90fed0326ba91706deeac7eb34ac9f8b680734f9d782864dc29704d23bed6a91a38015611b48576000805461ff0019169055604051600181527f7f26b83ff96e1f2b6a682f133852f6798a09c465da95921460cefb38474024989060200160405180910390a150505050565b6000848152610199602052604080822090518692906101989061206c906001850190614662565b9081526040805160209281900383019020805485546001600160a01b039081166000818152610197909652939094209194509290921691906120c1576040516385a6706360e01b815260040160405180910390fd5b60018082015460ff16151590036120eb5760405163a800bb9d60e01b815260040160405180910390fd5b600284015460ff161561211157604051635d71fd6f60e01b815260040160405180910390fd5b8254600160a01b900460ff161561213b57604051631bd063c360e01b815260040160405180910390fd5b6000898152610199602052604080822090518b9289928c9290919061019890612168906001850190614662565b90815260405190819003602001902080549091506001600160a01b031661218e86611794565b3410156121ae576040516393fda7e360e01b815260040160405180910390fd5b6003830154156123ba5760006121cc8460030154856005015461304f565b905060008185600301546121e091906147b8565b610196546040519192506000916001600160a01b039091169084908381818185875af1925050503d8060008114612233576040519150601f19603f3d011682016040523d82523d6000602084013e612238565b606091505b50509050806122895760405162461bcd60e51b815260206004820152601b60248201527f4661696c656420746f207061792070726f746f636f6c206665657300000000006044820152606401610ee9565b886000610196546040518681526001600160a01b03909116907fd18793644b4cb4ec0f937f8153dc09112d762775084c0ae5b4c21a7b91f6909f9060200160405180910390a485546040516000916001600160a01b03169084908381818185875af1925050503d806000811461231b576040519150601f19603f3d011682016040523d82523d6000602084013e612320565b606091505b50509050806123715760405162461bcd60e51b815260206004820152601a60248201527f4661696c656420746f207061792063726561746f7220666565730000000000006044820152606401610ee9565b89600188546040518681526001600160a01b03909116907fd18793644b4cb4ec0f937f8153dc09112d762775084c0ae5b4c21a7b91f6909f9060200160405180910390a4505050505b60006123c66101925490565b90506123d2818f613080565b6123f98582600160405180604001604052806002815260200161060f60f31b8152506130d1565b6000846004015460001461241b5760048501546124169042614687565b61241e565b60005b604080516080810182528a81526001600160a01b03898116602080840182815284860187815260016060870181815260008c815261019a865289812098518955935188830180546001600160a01b0319169189169190911790559151600288015590516003968701805460ff19169115159190911790558f825261019b83528682209382529282529485208054928301815585528420018690559088015492935090919085169063731133e9906124d590346147b8565b338c878d6040518663ffffffff1660e01b81526004016124f894939291906147cb565b60206040518083038185885af1158015612516573d6000803e3d6000fd5b50505050506040513d601f19601f8201168201806040525081019061253b919061466e565b905061254c61019280546001019055565b8454604080516001600160a01b039283168152602081018490529189169185918c917f186b125f639893ac3dcb02d857d0fd29319e8f764fd26f4a77310e8c678fbbd0910160405180910390a4505050505050505050505050505050505050565b60008181526101996020526040812080546001600160a01b03166125e4576040516336f7ce4f60e11b815260040160405180910390fd5b80546001600160a01b031660009081526101976020526040902060018181015460ff1615159003612619575060019392505050565b5060009392505050565b600061262e81612c91565b6101948290556040517f810f1720fbc34c56d171f89315ad21708648fd17424c27b88fa208409845aa7790600090a15050565b6101935434146126845760405163045801c760e31b815260040160405180910390fd5b34156126c657610196546040516001600160a01b03909116903480156108fc02916000818181858888f193505050501580156126c4573d6000803e3d6000fd5b505b33600090815261019760205260409020805481906126e390614451565b15905061270357604051633b46b81f60e21b815260040160405180910390fd5b8061270e83826146e0565b5060018101805461ffff19166101001790556127273390565b6001600160a01b03167f436a110767b6510e398091d7e698dbc3a574692ec743e8e40f4fb1ccefc00fc8826000016040516127629190614802565b60405180910390a25050565b61019b602052826000526040600020602052816000526040600020818154811061279757600080fd5b9060005260206000200160009250925050505481565b600082815261015f60205260409020600101546127c981612c91565b610f2c8383612d22565b600081815261019a6020908152604080832081516080810183528154815260018201546001600160a01b0316938101939093526002810154918301919091526003015460ff1615156060820181905282036128315750600092915050565b80604001516000036128465750600092915050565b428160400151111561285957600061285c565b60015b9392505050565b600061286e81612c91565b6101958290556040517f810f1720fbc34c56d171f89315ad21708648fd17424c27b88fa208409845aa7790600090a15050565b60006128ac81612c91565b60008381526101996020526040902080546001600160a01b03166128e3576040516336f7ce4f60e11b815260040160405180910390fd5b6005810183905560405183815284907f897164bdb6d8ca3f923345d02b5a56e8908961ca8cf15e0c67d1c1dee7f22a829060200161122e565b600061292781612c91565b6101938290556040517f810f1720fbc34c56d171f89315ad21708648fd17424c27b88fa208409845aa7790600090a15050565b6001600160a01b03851633148061297657506129768533610a2d565b6129925760405162461bcd60e51b8152600401610ee9906144c4565b610eff85858585856131f6565b60006001600160e01b03198216637965db0b60e01b1480610d455750610d4582613332565b6000818152609860205260408120805460609291906129e290614451565b80601f0160208091040260200160405190810160405280929190818152602001828054612a0e90614451565b8015612a5b5780601f10612a3057610100808354040283529160200191612a5b565b820191906000526020600020905b815481529060010190602001808311612a3e57829003601f168201915b505050505090506000815111612a7957612a7483613382565b61285c565b609781604051602001612a8d92919061488d565b6040516020818303038152906040529392505050565b8151835114612b055760405162461bcd60e51b815260206004820152602860248201527f455243313135353a2069647320616e6420616d6f756e7473206c656e677468206044820152670dad2e6dac2e8c6d60c31b6064820152608401610ee9565b6001600160a01b038416612b2b5760405162461bcd60e51b8152600401610ee9906148b2565b33612b3a818787878787613416565b60005b8451811015612c23576000858281518110612b5a57612b5a6145aa565b602002602001015190506000858381518110612b7857612b786145aa565b60209081029190910181015160008481526065835260408082206001600160a01b038e168352909352919091205490915081811015612bc95760405162461bcd60e51b8152600401610ee9906148f7565b60008381526065602090815260408083206001600160a01b038e8116855292528083208585039055908b16825281208054849290612c08908490614687565b9250508190555050505080612c1c906145d6565b9050612b3d565b50846001600160a01b0316866001600160a01b0316826001600160a01b03167f4a39dc06d4c0dbc64b70af90fd698a233a518aa5d07e595d983b8c0526c8f7fb8787604051612c73929190614941565b60405180910390a4612c8981878787878761344b565b505050505050565b61116181336135a6565b612ca58282611b6e565b61108157600082815261015f602090815260408083206001600160a01b03851684529091529020805460ff19166001179055612cde3390565b6001600160a01b0316816001600160a01b0316837f2f8788117e7eff1d82e926ec794901d17c78024a50270940304540a733656f0d60405160405180910390a45050565b612d2c8282611b6e565b1561108157600082815261015f602090815260408083206001600160a01b0385168085529252808320805460ff1916905551339285917ff6391f5c32d9c69d2a47ea670b442974b53935d1edc7fd64eb21e047a839171b9190a45050565b7f189ab7a9244df0848122154315af71fe140f3db0fe014031783b0946b8c9d2e361108181612c91565b7f4910fdfa16fed3260ed0e7147f7cc6da11a60208b5b9406d12a635614ffd91435460ff1615612de757610f2c836135ff565b826001600160a01b03166352d1902d6040518163ffffffff1660e01b8152600401602060405180830381865afa925050508015612e41575060408051601f3d908101601f19168201909252612e3e9181019061466e565b60015b612ea45760405162461bcd60e51b815260206004820152602e60248201527f45524331393637557067726164653a206e657720696d706c656d656e7461746960448201526d6f6e206973206e6f74205555505360901b6064820152608401610ee9565b600080516020614c238339815191528114612f135760405162461bcd60e51b815260206004820152602960248201527f45524331393637557067726164653a20756e737570706f727465642070726f786044820152681a58589b195555525160ba1b6064820152608401610ee9565b50610f2c83838361369b565b612f276136c0565b60c9805460ff191690557f5db9ee0a495bf2e6ff9c91a7834c1ba4fdd244a5e8aa4e537bd38aeae4b073aa335b6040516001600160a01b03909116815260200160405180910390a1565b612f79613709565b60c9805460ff191660011790557f62e78cea01bee320cd4e420270b5ea74000d11b0c9f74754ebdbfc544b05a258612f543390565b6040516305d39ac360e51b815260040160405180910390fd5b600054610100900460ff16612fee5760405162461bcd60e51b8152600401610ee990614966565b6111618161374f565b600054610100900460ff1661301e5760405162461bcd60e51b8152600401610ee990614966565b565b600054610100900460ff166130475760405162461bcd60e51b8152600401610ee990614966565b61301e61377f565b600061271061305e83856149b1565b101561306957600080fd5b61271061307683856149b1565b61285c91906149c8565b600082815260986020526040902061309882826146e0565b50817f6bb7ff708619ba0610cba295a58592e0451dee2622938c8755667688daf3529b6130c484610d56565b6040516127629190613cab565b6001600160a01b0384166131315760405162461bcd60e51b815260206004820152602160248201527f455243313135353a206d696e7420746f20746865207a65726f206164647265736044820152607360f81b6064820152608401610ee9565b33600061313d856137b2565b9050600061314a856137b2565b905061315b83600089858589613416565b60008681526065602090815260408083206001600160a01b038b1684529091528120805487929061318d908490614687565b909155505060408051878152602081018790526001600160a01b03808a1692600092918716917fc3d58168c5ae7397731d063d5bbf3d657854427343f4c083240f7aacaa2d0f62910160405180910390a46131ed836000898989896137fd565b50505050505050565b6001600160a01b03841661321c5760405162461bcd60e51b8152600401610ee9906148b2565b336000613228856137b2565b90506000613235856137b2565b9050613245838989858589613416565b60008681526065602090815260408083206001600160a01b038c168452909152902054858110156132885760405162461bcd60e51b8152600401610ee9906148f7565b60008781526065602090815260408083206001600160a01b038d8116855292528083208985039055908a168252812080548892906132c7908490614687565b909155505060408051888152602081018890526001600160a01b03808b16928c821692918816917fc3d58168c5ae7397731d063d5bbf3d657854427343f4c083240f7aacaa2d0f62910160405180910390a4613327848a8a8a8a8a6137fd565b505050505050505050565b60006001600160e01b03198216636cdb3d1360e11b148061336357506001600160e01b031982166303a24d0760e21b145b80610d4557506301ffc9a760e01b6001600160e01b0319831614610d45565b60606067805461339190614451565b80601f01602080910402602001604051908101604052809291908181526020018280546133bd90614451565b801561340a5780601f106133df5761010080835404028352916020019161340a565b820191906000526020600020905b8154815290600101906020018083116133ed57829003601f168201915b50505050509050919050565b61341e613709565b6001600160a01b03851615613446576040516305d39ac360e51b815260040160405180910390fd5b612c89565b6001600160a01b0384163b15612c895760405163bc197c8160e01b81526001600160a01b0385169063bc197c819061348f90899089908890889088906004016149ea565b6020604051808303816000875af19250505080156134ca575060408051601f3d908101601f191682019092526134c791810190614a48565b60015b613576576134d6614a65565b806308c379a00361350f57506134ea614a80565b806134f55750613511565b8060405162461bcd60e51b8152600401610ee99190613cab565b505b60405162461bcd60e51b815260206004820152603460248201527f455243313135353a207472616e7366657220746f206e6f6e2d455243313135356044820152732932b1b2b4bb32b91034b6b83632b6b2b73a32b960611b6064820152608401610ee9565b6001600160e01b0319811663bc197c8160e01b146131ed5760405162461bcd60e51b8152600401610ee990614b09565b6135b08282611b6e565b611081576135bd816138b8565b6135c88360206138ca565b6040516020016135d9929190614b51565b60408051601f198184030181529082905262461bcd60e51b8252610ee991600401613cab565b6001600160a01b0381163b61366c5760405162461bcd60e51b815260206004820152602d60248201527f455243313936373a206e657720696d706c656d656e746174696f6e206973206e60448201526c1bdd08184818dbdb9d1c9858dd609a1b6064820152608401610ee9565b600080516020614c2383398151915280546001600160a01b0319166001600160a01b0392909216919091179055565b6136a483613a65565b6000825111806136b15750805b15610f2c57611b488383613aa5565b60c95460ff1661301e5760405162461bcd60e51b815260206004820152601460248201527314185d5cd8589b194e881b9bdd081c185d5cd95960621b6044820152606401610ee9565b60c95460ff161561301e5760405162461bcd60e51b815260206004820152601060248201526f14185d5cd8589b194e881c185d5cd95960821b6044820152606401610ee9565b600054610100900460ff166137765760405162461bcd60e51b8152600401610ee990614966565b61116181613b99565b600054610100900460ff166137a65760405162461bcd60e51b8152600401610ee990614966565b60c9805460ff19169055565b604080516001808252818301909252606091600091906020808301908036833701905050905082816000815181106137ec576137ec6145aa565b602090810291909101015292915050565b6001600160a01b0384163b15612c895760405163f23a6e6160e01b81526001600160a01b0385169063f23a6e61906138419089908990889088908890600401614bc6565b6020604051808303816000875af192505050801561387c575060408051601f3d908101601f1916820190925261387991810190614a48565b60015b613888576134d6614a65565b6001600160e01b0319811663f23a6e6160e01b146131ed5760405162461bcd60e51b8152600401610ee990614b09565b6060610d456001600160a01b03831660145b606060006138d98360026149b1565b6138e4906002614687565b6001600160401b038111156138fb576138fb613d05565b6040519080825280601f01601f191660200182016040528015613925576020820181803683370190505b509050600360fc1b81600081518110613940576139406145aa565b60200101906001600160f81b031916908160001a905350600f60fb1b8160018151811061396f5761396f6145aa565b60200101906001600160f81b031916908160001a90535060006139938460026149b1565b61399e906001614687565b90505b6001811115613a16576f181899199a1a9b1b9c1cb0b131b232b360811b85600f16601081106139d2576139d26145aa565b1a60f81b8282815181106139e8576139e86145aa565b60200101906001600160f81b031916908160001a90535060049490941c93613a0f81614c0b565b90506139a1565b50831561285c5760405162461bcd60e51b815260206004820181905260248201527f537472696e67733a20686578206c656e67746820696e73756666696369656e746044820152606401610ee9565b613a6e816135ff565b6040516001600160a01b038216907fbc7cd75a20ee27fd9adebab32041f755214dbc6bffa90cc0225b39da2e5c2d3b90600090a250565b60606001600160a01b0383163b613b0d5760405162461bcd60e51b815260206004820152602660248201527f416464726573733a2064656c65676174652063616c6c20746f206e6f6e2d636f6044820152651b9d1c9858dd60d21b6064820152608401610ee9565b600080846001600160a01b031684604051613b28919061448b565b600060405180830381855af49150503d8060008114613b63576040519150601f19603f3d011682016040523d82523d6000602084013e613b68565b606091505b5091509150613b908282604051806060016040528060278152602001614c6360279139613ba5565b95945050505050565b606761108182826146e0565b60608315613bb457508161285c565b61285c83838151156134f55781518083602001fd5b80356001600160a01b0381168114613be057600080fd5b919050565b60008060408385031215613bf857600080fd5b613c0183613bc9565b946020939093013593505050565b6001600160e01b03198116811461116157600080fd5b600060208284031215613c3757600080fd5b813561285c81613c0f565b600060208284031215613c5457600080fd5b5035919050565b60005b83811015613c76578181015183820152602001613c5e565b50506000910152565b60008151808452613c97816020860160208601613c5b565b601f01601f19169290920160200192915050565b60208152600061285c6020830184613c7f565b801515811461116157600080fd5b600080600060608486031215613ce157600080fd5b83359250602084013591506040840135613cfa81613cbe565b809150509250925092565b634e487b7160e01b600052604160045260246000fd5b608081018181106001600160401b0382111715613d3a57613d3a613d05565b60405250565b601f8201601f191681016001600160401b0381118282101715613d6557613d65613d05565b6040525050565b60006001600160401b03821115613d8557613d85613d05565b5060051b60200190565b600082601f830112613da057600080fd5b81356020613dad82613d6c565b604051613dba8282613d40565b83815260059390931b8501820192828101915086841115613dda57600080fd5b8286015b84811015613df55780358352918301918301613dde565b509695505050505050565b600082601f830112613e1157600080fd5b81356001600160401b03811115613e2a57613e2a613d05565b604051613e41601f8301601f191660200182613d40565b818152846020838601011115613e5657600080fd5b816020850160208301376000918101602001919091529392505050565b600080600080600060a08688031215613e8b57600080fd5b613e9486613bc9565b9450613ea260208701613bc9565b935060408601356001600160401b0380821115613ebe57600080fd5b613eca89838a01613d8f565b94506060880135915080821115613ee057600080fd5b613eec89838a01613d8f565b93506080880135915080821115613f0257600080fd5b50613f0f88828901613e00565b9150509295509295909350565b60008060408385031215613f2f57600080fd5b82359150613f3f60208401613bc9565b90509250929050565b6001600160a01b038816815260e060208201819052600090613f6c90830189613c7f565b9615156040830152506060810194909452608084019290925260a0830152151560c09091015292915050565b600060208284031215613faa57600080fd5b61285c82613bc9565b60008060408385031215613fc657600080fd5b613fcf83613bc9565b91506020830135613fdf81613cbe565b809150509250929050565b60008060408385031215613ffd57600080fd5b82356001600160401b038082111561401457600080fd5b818501915085601f83011261402857600080fd5b8135602061403582613d6c565b6040516140428282613d40565b83815260059390931b850182019282810191508984111561406257600080fd5b948201945b838610156140875761407886613bc9565b82529482019490820190614067565b9650508601359250508082111561409d57600080fd5b506140aa85828601613d8f565b9150509250929050565b600081518084526020808501945080840160005b838110156140e4578151875295820195908201906001016140c8565b509495945050505050565b60208152600061285c60208301846140b4565b6000806040838503121561411557600080fd5b61411e83613bc9565b915060208301356001600160401b0381111561413957600080fd5b6140aa85828601613e00565b60006020828403121561415757600080fd5b81356001600160401b0381111561416d57600080fd5b61187384828501613e00565b6000806040838503121561418c57600080fd5b82356001600160401b03808211156141a357600080fd5b90840190608082870312156141b757600080fd5b6040516141c381613d1b565b8235828111156141d257600080fd5b6141de88828601613e00565b8252506020830135828111156141f357600080fd5b6141ff88828601613e00565b602083015250604083013560408201526060830135606082015280945050602085013591508082111561423157600080fd5b506140aa85828601613e00565b6060815260006142516060830186613c7f565b931515602083015250901515604090910152919050565b6000806040838503121561427b57600080fd5b82356001600160401b0381111561429157600080fd5b61429d85828601613e00565b925050613f3f60208401613bc9565b6000806000606084860312156142c157600080fd5b6142ca84613bc9565b92506142d860208501613bc9565b91506142e660408501613bc9565b90509250925092565b6000806000806080858703121561430557600080fd5b8435935061431560208601613bc9565b925060408501356001600160401b038082111561433157600080fd5b61433d88838901613e00565b9350606087013591508082111561435357600080fd5b5061436087828801613e00565b91505092959194509250565b60008060006060848603121561438157600080fd5b8335925061439160208501613bc9565b9150604084013590509250925092565b600080604083850312156143b457600080fd5b6143bd83613bc9565b9150613f3f60208401613bc9565b600080604083850312156143de57600080fd5b50508035926020909101359150565b600080600080600060a0868803121561440557600080fd5b61440e86613bc9565b945061441c60208701613bc9565b9350604086013592506060860135915060808601356001600160401b0381111561444557600080fd5b613f0f88828901613e00565b600181811c9082168061446557607f821691505b60208210810361448557634e487b7160e01b600052602260045260246000fd5b50919050565b6000825161449d818460208701613c5b565b9190910192915050565b6000602082840312156144b957600080fd5b815161285c81613cbe565b6020808252602e908201527f455243313135353a2063616c6c6572206973206e6f7420746f6b656e206f776e60408201526d195c881bdc88185c1c1c9bdd995960921b606082015260800190565b6020808252602c908201527f46756e6374696f6e206d7573742062652063616c6c6564207468726f7567682060408201526b19195b1959d85d1958d85b1b60a21b606082015260800190565b6020808252602c908201527f46756e6374696f6e206d7573742062652063616c6c6564207468726f7567682060408201526b6163746976652070726f787960a01b606082015260800190565b634e487b7160e01b600052603260045260246000fd5b634e487b7160e01b600052601160045260246000fd5b6000600182016145e8576145e86145c0565b5060010190565b600081546145fc81614451565b60018281168015614614576001811461462957614658565b60ff1984168752821515830287019450614658565b8560005260208060002060005b8581101561464f5781548a820152908401908201614636565b50505082870194505b5050505092915050565b600061285c82846145ef565b60006020828403121561468057600080fd5b5051919050565b80820180821115610d4557610d456145c0565b601f821115610f2c57600081815260208120601f850160051c810160208610156146c15750805b601f850160051c820191505b81811015612c89578281556001016146cd565b81516001600160401b038111156146f9576146f9613d05565b61470d816147078454614451565b8461469a565b602080601f831160018114614742576000841561472a5750858301515b600019600386901b1c1916600185901b178555612c89565b600085815260208120601f198616915b8281101561477157888601518255948401946001909101908401614752565b508582101561478f5787850151600019600388901b60f8161c191681555b5050505050600190811b01905550565b8281526040602082015260006118736040830184613c7f565b81810381811115610d4557610d456145c0565b60018060a01b03851681528360208201528260408201526080606082015260006147f86080830184613c7f565b9695505050505050565b600060208083526000845461481681614451565b8084870152604060018084166000811461483757600181146148515761487f565b60ff1985168984015283151560051b89018301955061487f565b896000528660002060005b858110156148775781548b820186015290830190880161485c565b8a0184019650505b509398975050505050505050565b600061489982856145ef565b83516148a9818360208801613c5b565b01949350505050565b60208082526025908201527f455243313135353a207472616e7366657220746f20746865207a65726f206164604082015264647265737360d81b606082015260800190565b6020808252602a908201527f455243313135353a20696e73756666696369656e742062616c616e636520666f60408201526939103a3930b739b332b960b11b606082015260800190565b60408152600061495460408301856140b4565b8281036020840152613b9081856140b4565b6020808252602b908201527f496e697469616c697a61626c653a20636f6e7472616374206973206e6f74206960408201526a6e697469616c697a696e6760a81b606082015260800190565b8082028115828204841417610d4557610d456145c0565b6000826149e557634e487b7160e01b600052601260045260246000fd5b500490565b6001600160a01b0386811682528516602082015260a060408201819052600090614a16908301866140b4565b8281036060840152614a2881866140b4565b90508281036080840152614a3c8185613c7f565b98975050505050505050565b600060208284031215614a5a57600080fd5b815161285c81613c0f565b600060033d11156117915760046000803e5060005160e01c90565b600060443d1015614a8e5790565b6040516003193d81016004833e81513d6001600160401b038160248401118184111715614abd57505050505090565b8285019150815181811115614ad55750505050505090565b843d8701016020828501011115614aef5750505050505090565b614afe60208286010187613d40565b509095945050505050565b60208082526028908201527f455243313135353a204552433131353552656365697665722072656a656374656040820152676420746f6b656e7360c01b606082015260800190565b7f416363657373436f6e74726f6c3a206163636f756e7420000000000000000000815260008351614b89816017850160208801613c5b565b7001034b99036b4b9b9b4b733903937b6329607d1b6017918401918201528351614bba816028840160208801613c5b565b01602801949350505050565b6001600160a01b03868116825285166020820152604081018490526060810183905260a060808201819052600090614c0090830184613c7f565b979650505050505050565b600081614c1a57614c1a6145c0565b50600019019056fe360894a13ba1a3210667c828492db98dca3e2076cc3735a920a3ca505d382bbc65d7a28e3265b37a6474929f336521b332c1681b933f6cb9f3376673440d862a416464726573733a206c6f772d6c6576656c2064656c65676174652063616c6c206661696c6564a26469706673582212206f51f78ba267843ebd4411a598396db98e9f9cd1754bee38482df126e62b861c64736f6c63430008110033",
  "linkReferences": {},
  "deployedLinkReferences": {}
}