{
  "_format": "hh-sol-artifact-1",
  "contractName": "TheBadge",
  "sourceName": "src/contracts/thebadge/TheBadge.sol",
  "abi": [
    {
      "inputs": [],
      "stateMutability": "nonpayable",
      "type": "constructor"
    },
    {
      "inputs": [],
      "name": "AccessControlBadConfirmation",
      "type": "error"
    },
    {
      "inputs": [
        {
          "internalType": "address",
          "name": "account",
          "type": "address"
        },
        {
          "internalType": "bytes32",
          "name": "neededRole",
          "type": "bytes32"
        }
      ],
      "name": "AccessControlUnauthorizedAccount",
      "type": "error"
    },
    {
      "inputs": [
        {
          "internalType": "address",
          "name": "target",
          "type": "address"
        }
      ],
      "name": "AddressEmptyCode",
      "type": "error"
    },
    {
      "inputs": [
        {
          "internalType": "address",
          "name": "sender",
          "type": "address"
        },
        {
          "internalType": "uint256",
          "name": "balance",
          "type": "uint256"
        },
        {
          "internalType": "uint256",
          "name": "needed",
          "type": "uint256"
        },
        {
          "internalType": "uint256",
          "name": "tokenId",
          "type": "uint256"
        }
      ],
      "name": "ERC1155InsufficientBalance",
      "type": "error"
    },
    {
      "inputs": [
        {
          "internalType": "address",
          "name": "approver",
          "type": "address"
        }
      ],
      "name": "ERC1155InvalidApprover",
      "type": "error"
    },
    {
      "inputs": [
        {
          "internalType": "uint256",
          "name": "idsLength",
          "type": "uint256"
        },
        {
          "internalType": "uint256",
          "name": "valuesLength",
          "type": "uint256"
        }
      ],
      "name": "ERC1155InvalidArrayLength",
      "type": "error"
    },
    {
      "inputs": [
        {
          "internalType": "address",
          "name": "operator",
          "type": "address"
        }
      ],
      "name": "ERC1155InvalidOperator",
      "type": "error"
    },
    {
      "inputs": [
        {
          "internalType": "address",
          "name": "receiver",
          "type": "address"
        }
      ],
      "name": "ERC1155InvalidReceiver",
      "type": "error"
    },
    {
      "inputs": [
        {
          "internalType": "address",
          "name": "sender",
          "type": "address"
        }
      ],
      "name": "ERC1155InvalidSender",
      "type": "error"
    },
    {
      "inputs": [
        {
          "internalType": "address",
          "name": "operator",
          "type": "address"
        },
        {
          "internalType": "address",
          "name": "owner",
          "type": "address"
        }
      ],
      "name": "ERC1155MissingApprovalForAll",
      "type": "error"
    },
    {
      "inputs": [
        {
          "internalType": "address",
          "name": "implementation",
          "type": "address"
        }
      ],
      "name": "ERC1967InvalidImplementation",
      "type": "error"
    },
    {
      "inputs": [],
      "name": "ERC1967NonPayable",
      "type": "error"
    },
    {
      "inputs": [],
      "name": "EnforcedPause",
      "type": "error"
    },
    {
      "inputs": [],
      "name": "ExpectedPause",
      "type": "error"
    },
    {
      "inputs": [],
      "name": "FailedInnerCall",
      "type": "error"
    },
    {
      "inputs": [],
      "name": "InvalidInitialization",
      "type": "error"
    },
    {
      "inputs": [],
      "name": "NotInitializing",
      "type": "error"
    },
    {
      "inputs": [],
      "name": "ReentrancyGuardReentrantCall",
      "type": "error"
    },
    {
      "inputs": [],
      "name": "TheBadge__SBT",
      "type": "error"
    },
    {
      "inputs": [],
      "name": "TheBadge__calculateFee_protocolFeesInvalidValues",
      "type": "error"
    },
    {
      "inputs": [],
      "name": "TheBadge__mint_creatorFeesPaymentFailed",
      "type": "error"
    },
    {
      "inputs": [],
      "name": "TheBadge__mint_protocolFeesPaymentFailed",
      "type": "error"
    },
    {
      "inputs": [],
      "name": "TheBadge__requestBadge_badgeModelIsSuspended",
      "type": "error"
    },
    {
      "inputs": [],
      "name": "TheBadge__requestBadge_badgeModelNotFound",
      "type": "error"
    },
    {
      "inputs": [],
      "name": "TheBadge__requestBadge_badgeNotClaimable",
      "type": "error"
    },
    {
      "inputs": [],
      "name": "TheBadge__requestBadge_badgeNotFound",
      "type": "error"
    },
    {
      "inputs": [],
      "name": "TheBadge__requestBadge_badgeNotMintable",
      "type": "error"
    },
    {
      "inputs": [],
      "name": "TheBadge__requestBadge_controllerIsPaused",
      "type": "error"
    },
    {
      "inputs": [],
      "name": "TheBadge__requestBadge_isPaused",
      "type": "error"
    },
    {
      "inputs": [],
      "name": "TheBadge__requestBadge_isSuspended",
      "type": "error"
    },
    {
      "inputs": [],
      "name": "TheBadge__requestBadge_wrongValue",
      "type": "error"
    },
    {
      "inputs": [],
      "name": "UUPSUnauthorizedCallContext",
      "type": "error"
    },
    {
      "inputs": [
        {
          "internalType": "bytes32",
          "name": "slot",
          "type": "bytes32"
        }
      ],
      "name": "UUPSUnsupportedProxiableUUID",
      "type": "error"
    },
    {
      "anonymous": false,
      "inputs": [
        {
          "indexed": true,
          "internalType": "address",
          "name": "account",
          "type": "address"
        },
        {
          "indexed": true,
          "internalType": "address",
          "name": "operator",
          "type": "address"
        },
        {
          "indexed": false,
          "internalType": "bool",
          "name": "approved",
          "type": "bool"
        }
      ],
      "name": "ApprovalForAll",
      "type": "event"
    },
    {
      "anonymous": false,
      "inputs": [
        {
          "indexed": true,
          "internalType": "uint256",
          "name": "badgeModelID",
          "type": "uint256"
        },
        {
          "indexed": true,
          "internalType": "uint256",
          "name": "badgeID",
          "type": "uint256"
        },
        {
          "indexed": true,
          "internalType": "address",
          "name": "recipient",
          "type": "address"
        },
        {
          "indexed": false,
          "internalType": "address",
          "name": "controller",
          "type": "address"
        },
        {
          "indexed": false,
          "internalType": "uint256",
          "name": "controllerBadgeId",
          "type": "uint256"
        }
      ],
      "name": "BadgeRequested",
      "type": "event"
    },
    {
      "anonymous": false,
      "inputs": [
        {
          "indexed": true,
          "internalType": "uint256",
          "name": "badgeId",
          "type": "uint256"
        },
        {
          "indexed": true,
          "internalType": "address",
          "name": "origin",
          "type": "address"
        },
        {
          "indexed": true,
          "internalType": "address",
          "name": "destination",
          "type": "address"
        }
      ],
      "name": "BadgeTransferred",
      "type": "event"
    },
    {
      "anonymous": false,
      "inputs": [
        {
          "indexed": true,
          "internalType": "address",
          "name": "admin",
          "type": "address"
        }
      ],
      "name": "Initialize",
      "type": "event"
    },
    {
      "anonymous": false,
      "inputs": [
        {
          "indexed": false,
          "internalType": "uint64",
          "name": "version",
          "type": "uint64"
        }
      ],
      "name": "Initialized",
      "type": "event"
    },
    {
      "anonymous": false,
      "inputs": [
        {
          "indexed": false,
          "internalType": "address",
          "name": "account",
          "type": "address"
        }
      ],
      "name": "Paused",
      "type": "event"
    },
    {
      "anonymous": false,
      "inputs": [
        {
          "indexed": true,
          "internalType": "address",
          "name": "recipient",
          "type": "address"
        },
        {
          "indexed": false,
          "internalType": "address",
          "name": "payer",
          "type": "address"
        },
        {
          "indexed": false,
          "internalType": "uint256",
          "name": "amount",
          "type": "uint256"
        },
        {
          "indexed": true,
          "internalType": "enum LibTheBadge.PaymentType",
          "name": "paymentType",
          "type": "uint8"
        },
        {
          "indexed": true,
          "internalType": "uint256",
          "name": "badgeModelId",
          "type": "uint256"
        },
        {
          "indexed": false,
          "internalType": "string",
          "name": "controllerName",
          "type": "string"
        }
      ],
      "name": "PaymentMade",
      "type": "event"
    },
    {
      "anonymous": false,
      "inputs": [],
      "name": "ProtocolSettingsUpdated",
      "type": "event"
    },
    {
      "anonymous": false,
      "inputs": [
        {
          "indexed": true,
          "internalType": "bytes32",
          "name": "role",
          "type": "bytes32"
        },
        {
          "indexed": true,
          "internalType": "bytes32",
          "name": "previousAdminRole",
          "type": "bytes32"
        },
        {
          "indexed": true,
          "internalType": "bytes32",
          "name": "newAdminRole",
          "type": "bytes32"
        }
      ],
      "name": "RoleAdminChanged",
      "type": "event"
    },
    {
      "anonymous": false,
      "inputs": [
        {
          "indexed": true,
          "internalType": "bytes32",
          "name": "role",
          "type": "bytes32"
        },
        {
          "indexed": true,
          "internalType": "address",
          "name": "account",
          "type": "address"
        },
        {
          "indexed": true,
          "internalType": "address",
          "name": "sender",
          "type": "address"
        }
      ],
      "name": "RoleGranted",
      "type": "event"
    },
    {
      "anonymous": false,
      "inputs": [
        {
          "indexed": true,
          "internalType": "bytes32",
          "name": "role",
          "type": "bytes32"
        },
        {
          "indexed": true,
          "internalType": "address",
          "name": "account",
          "type": "address"
        },
        {
          "indexed": true,
          "internalType": "address",
          "name": "sender",
          "type": "address"
        }
      ],
      "name": "RoleRevoked",
      "type": "event"
    },
    {
      "anonymous": false,
      "inputs": [
        {
          "indexed": true,
          "internalType": "address",
          "name": "operator",
          "type": "address"
        },
        {
          "indexed": true,
          "internalType": "address",
          "name": "from",
          "type": "address"
        },
        {
          "indexed": true,
          "internalType": "address",
          "name": "to",
          "type": "address"
        },
        {
          "indexed": false,
          "internalType": "uint256[]",
          "name": "ids",
          "type": "uint256[]"
        },
        {
          "indexed": false,
          "internalType": "uint256[]",
          "name": "values",
          "type": "uint256[]"
        }
      ],
      "name": "TransferBatch",
      "type": "event"
    },
    {
      "anonymous": false,
      "inputs": [
        {
          "indexed": true,
          "internalType": "address",
          "name": "operator",
          "type": "address"
        },
        {
          "indexed": true,
          "internalType": "address",
          "name": "from",
          "type": "address"
        },
        {
          "indexed": true,
          "internalType": "address",
          "name": "to",
          "type": "address"
        },
        {
          "indexed": false,
          "internalType": "uint256",
          "name": "id",
          "type": "uint256"
        },
        {
          "indexed": false,
          "internalType": "uint256",
          "name": "value",
          "type": "uint256"
        }
      ],
      "name": "TransferSingle",
      "type": "event"
    },
    {
      "anonymous": false,
      "inputs": [
        {
          "indexed": false,
          "internalType": "string",
          "name": "value",
          "type": "string"
        },
        {
          "indexed": true,
          "internalType": "uint256",
          "name": "id",
          "type": "uint256"
        }
      ],
      "name": "URI",
      "type": "event"
    },
    {
      "anonymous": false,
      "inputs": [
        {
          "indexed": false,
          "internalType": "address",
          "name": "account",
          "type": "address"
        }
      ],
      "name": "Unpaused",
      "type": "event"
    },
    {
      "anonymous": false,
      "inputs": [
        {
          "indexed": true,
          "internalType": "address",
          "name": "implementation",
          "type": "address"
        }
      ],
      "name": "Upgraded",
      "type": "event"
    },
    {
      "inputs": [],
      "name": "CLAIMER_ROLE",
      "outputs": [
        {
          "internalType": "bytes32",
          "name": "",
          "type": "bytes32"
        }
      ],
      "stateMutability": "view",
      "type": "function"
    },
    {
      "inputs": [],
      "name": "DEFAULT_ADMIN_ROLE",
      "outputs": [
        {
          "internalType": "bytes32",
          "name": "",
          "type": "bytes32"
        }
      ],
      "stateMutability": "view",
      "type": "function"
    },
    {
      "inputs": [],
      "name": "PAUSER_ROLE",
      "outputs": [
        {
          "internalType": "bytes32",
          "name": "",
          "type": "bytes32"
        }
      ],
      "stateMutability": "view",
      "type": "function"
    },
    {
      "inputs": [],
      "name": "UPGRADER_ROLE",
      "outputs": [
        {
          "internalType": "bytes32",
          "name": "",
          "type": "bytes32"
        }
      ],
      "stateMutability": "view",
      "type": "function"
    },
    {
      "inputs": [],
      "name": "UPGRADE_INTERFACE_VERSION",
      "outputs": [
        {
          "internalType": "string",
          "name": "",
          "type": "string"
        }
      ],
      "stateMutability": "view",
      "type": "function"
    },
    {
      "inputs": [],
      "name": "URI_SETTER_ROLE",
      "outputs": [
        {
          "internalType": "bytes32",
          "name": "",
          "type": "bytes32"
        }
      ],
      "stateMutability": "view",
      "type": "function"
    },
    {
      "inputs": [],
      "name": "USER_MANAGER_ROLE",
      "outputs": [
        {
          "internalType": "bytes32",
          "name": "",
          "type": "bytes32"
        }
      ],
      "stateMutability": "view",
      "type": "function"
    },
    {
      "inputs": [],
      "name": "VERIFIER_ROLE",
      "outputs": [
        {
          "internalType": "bytes32",
          "name": "",
          "type": "bytes32"
        }
      ],
      "stateMutability": "view",
      "type": "function"
    },
    {
      "inputs": [],
      "name": "_badgeStore",
      "outputs": [
        {
          "internalType": "contract TheBadgeStore",
          "name": "",
          "type": "address"
        }
      ],
      "stateMutability": "view",
      "type": "function"
    },
    {
      "inputs": [
        {
          "internalType": "address",
          "name": "account",
          "type": "address"
        },
        {
          "internalType": "uint256",
          "name": "badgeId",
          "type": "uint256"
        }
      ],
      "name": "balanceOf",
      "outputs": [
        {
          "internalType": "uint256",
          "name": "",
          "type": "uint256"
        }
      ],
      "stateMutability": "view",
      "type": "function"
    },
    {
      "inputs": [
        {
          "internalType": "address",
          "name": "account",
          "type": "address"
        },
        {
          "internalType": "uint256",
          "name": "badgeModelId",
          "type": "uint256"
        }
      ],
      "name": "balanceOfBadgeModel",
      "outputs": [
        {
          "internalType": "uint256",
          "name": "",
          "type": "uint256"
        }
      ],
      "stateMutability": "view",
      "type": "function"
    },
    {
      "inputs": [
        {
          "internalType": "address[]",
          "name": "accounts",
          "type": "address[]"
        },
        {
          "internalType": "uint256[]",
          "name": "ids",
          "type": "uint256[]"
        }
      ],
      "name": "balanceOfBatch",
      "outputs": [
        {
          "internalType": "uint256[]",
          "name": "",
          "type": "uint256[]"
        }
      ],
      "stateMutability": "view",
      "type": "function"
    },
    {
      "inputs": [
        {
          "internalType": "uint256",
          "name": "badgeId",
          "type": "uint256"
        },
        {
          "internalType": "bytes",
          "name": "data",
          "type": "bytes"
        }
      ],
      "name": "challenge",
      "outputs": [],
      "stateMutability": "payable",
      "type": "function"
    },
    {
      "inputs": [
        {
          "internalType": "uint256",
          "name": "badgeId",
          "type": "uint256"
        },
        {
          "internalType": "bytes",
          "name": "data",
          "type": "bytes"
        }
      ],
      "name": "claim",
      "outputs": [],
      "stateMutability": "nonpayable",
      "type": "function"
    },
    {
      "inputs": [
        {
          "internalType": "uint256",
          "name": "badgeId",
          "type": "uint256"
        }
      ],
      "name": "getChallengeDepositValue",
      "outputs": [
        {
          "internalType": "uint256",
          "name": "",
          "type": "uint256"
        }
      ],
      "stateMutability": "view",
      "type": "function"
    },
    {
      "inputs": [
        {
          "internalType": "uint256",
          "name": "badgeId",
          "type": "uint256"
        }
      ],
      "name": "getRemovalDepositValue",
      "outputs": [
        {
          "internalType": "uint256",
          "name": "",
          "type": "uint256"
        }
      ],
      "stateMutability": "view",
      "type": "function"
    },
    {
      "inputs": [
        {
          "internalType": "bytes32",
          "name": "role",
          "type": "bytes32"
        }
      ],
      "name": "getRoleAdmin",
      "outputs": [
        {
          "internalType": "bytes32",
          "name": "",
          "type": "bytes32"
        }
      ],
      "stateMutability": "view",
      "type": "function"
    },
    {
      "inputs": [
        {
          "internalType": "bytes32",
          "name": "role",
          "type": "bytes32"
        },
        {
          "internalType": "address",
          "name": "account",
          "type": "address"
        }
      ],
      "name": "grantRole",
      "outputs": [],
      "stateMutability": "nonpayable",
      "type": "function"
    },
    {
      "inputs": [
        {
          "internalType": "bytes32",
          "name": "role",
          "type": "bytes32"
        },
        {
          "internalType": "address",
          "name": "account",
          "type": "address"
        }
      ],
      "name": "hasRole",
      "outputs": [
        {
          "internalType": "bool",
          "name": "",
          "type": "bool"
        }
      ],
      "stateMutability": "view",
      "type": "function"
    },
    {
      "inputs": [
        {
          "internalType": "address",
          "name": "admin",
          "type": "address"
        },
        {
          "internalType": "address",
          "name": "badgeStore",
          "type": "address"
        }
      ],
      "name": "initialize",
      "outputs": [],
      "stateMutability": "nonpayable",
      "type": "function"
    },
    {
      "inputs": [
        {
          "internalType": "address",
          "name": "account",
          "type": "address"
        },
        {
          "internalType": "address",
          "name": "operator",
          "type": "address"
        }
      ],
      "name": "isApprovedForAll",
      "outputs": [
        {
          "internalType": "bool",
          "name": "",
          "type": "bool"
        }
      ],
      "stateMutability": "view",
      "type": "function"
    },
    {
      "inputs": [
        {
          "internalType": "uint256",
          "name": "badgeId",
          "type": "uint256"
        }
      ],
      "name": "isExpired",
      "outputs": [
        {
          "internalType": "bool",
          "name": "",
          "type": "bool"
        }
      ],
      "stateMutability": "view",
      "type": "function"
    },
    {
      "inputs": [
        {
          "internalType": "uint256",
          "name": "badgeModelId",
          "type": "uint256"
        },
        {
          "internalType": "address",
          "name": "account",
          "type": "address"
        },
        {
          "internalType": "string",
          "name": "tokenURI",
          "type": "string"
        },
        {
          "internalType": "bytes",
          "name": "data",
          "type": "bytes"
        }
      ],
      "name": "mint",
      "outputs": [],
      "stateMutability": "payable",
      "type": "function"
    },
    {
      "inputs": [
        {
          "internalType": "uint256",
          "name": "badgeModelId",
          "type": "uint256"
        }
      ],
      "name": "mintValue",
      "outputs": [
        {
          "internalType": "uint256",
          "name": "",
          "type": "uint256"
        }
      ],
      "stateMutability": "view",
      "type": "function"
    },
    {
      "inputs": [],
      "name": "name",
      "outputs": [
        {
          "internalType": "string",
          "name": "",
          "type": "string"
        }
      ],
      "stateMutability": "view",
      "type": "function"
    },
    {
      "inputs": [],
      "name": "pause",
      "outputs": [],
      "stateMutability": "nonpayable",
      "type": "function"
    },
    {
      "inputs": [],
      "name": "paused",
      "outputs": [
        {
          "internalType": "bool",
          "name": "",
          "type": "bool"
        }
      ],
      "stateMutability": "view",
      "type": "function"
    },
    {
      "inputs": [],
      "name": "proxiableUUID",
      "outputs": [
        {
          "internalType": "bytes32",
          "name": "",
          "type": "bytes32"
        }
      ],
      "stateMutability": "view",
      "type": "function"
    },
    {
      "inputs": [
        {
          "internalType": "uint256",
          "name": "badgeId",
          "type": "uint256"
        },
        {
          "internalType": "bytes",
          "name": "data",
          "type": "bytes"
        }
      ],
      "name": "removeItem",
      "outputs": [],
      "stateMutability": "payable",
      "type": "function"
    },
    {
      "inputs": [
        {
          "internalType": "bytes32",
          "name": "role",
          "type": "bytes32"
        },
        {
          "internalType": "address",
          "name": "callerConfirmation",
          "type": "address"
        }
      ],
      "name": "renounceRole",
      "outputs": [],
      "stateMutability": "nonpayable",
      "type": "function"
    },
    {
      "inputs": [
        {
          "internalType": "bytes32",
          "name": "role",
          "type": "bytes32"
        },
        {
          "internalType": "address",
          "name": "account",
          "type": "address"
        }
      ],
      "name": "revokeRole",
      "outputs": [],
      "stateMutability": "nonpayable",
      "type": "function"
    },
    {
      "inputs": [
        {
          "internalType": "address",
          "name": "from",
          "type": "address"
        },
        {
          "internalType": "address",
          "name": "to",
          "type": "address"
        },
        {
          "internalType": "uint256[]",
          "name": "ids",
          "type": "uint256[]"
        },
        {
          "internalType": "uint256[]",
          "name": "values",
          "type": "uint256[]"
        },
        {
          "internalType": "bytes",
          "name": "data",
          "type": "bytes"
        }
      ],
      "name": "safeBatchTransferFrom",
      "outputs": [],
      "stateMutability": "nonpayable",
      "type": "function"
    },
    {
      "inputs": [
        {
          "internalType": "address",
          "name": "from",
          "type": "address"
        },
        {
          "internalType": "address",
          "name": "to",
          "type": "address"
        },
        {
          "internalType": "uint256",
          "name": "id",
          "type": "uint256"
        },
        {
          "internalType": "uint256",
          "name": "value",
          "type": "uint256"
        },
        {
          "internalType": "bytes",
          "name": "data",
          "type": "bytes"
        }
      ],
      "name": "safeTransferFrom",
      "outputs": [],
      "stateMutability": "nonpayable",
      "type": "function"
    },
    {
      "inputs": [
        {
          "internalType": "address",
          "name": "operator",
          "type": "address"
        },
        {
          "internalType": "bool",
          "name": "approved",
          "type": "bool"
        }
      ],
      "name": "setApprovalForAll",
      "outputs": [],
      "stateMutability": "nonpayable",
      "type": "function"
    },
    {
      "inputs": [
        {
          "internalType": "uint256",
          "name": "badgeId",
          "type": "uint256"
        },
        {
          "internalType": "bytes",
          "name": "data",
          "type": "bytes"
        }
      ],
      "name": "submitEvidence",
      "outputs": [],
      "stateMutability": "nonpayable",
      "type": "function"
    },
    {
      "inputs": [
        {
          "internalType": "bytes4",
          "name": "interfaceId",
          "type": "bytes4"
        }
      ],
      "name": "supportsInterface",
      "outputs": [
        {
          "internalType": "bool",
          "name": "",
          "type": "bool"
        }
      ],
      "stateMutability": "view",
      "type": "function"
    },
    {
      "inputs": [],
      "name": "symbol",
      "outputs": [
        {
          "internalType": "string",
          "name": "",
          "type": "string"
        }
      ],
      "stateMutability": "view",
      "type": "function"
    },
    {
      "inputs": [],
      "name": "unpause",
      "outputs": [],
      "stateMutability": "nonpayable",
      "type": "function"
    },
    {
      "inputs": [
        {
          "internalType": "uint256",
          "name": "_createBadgeModelValue",
          "type": "uint256"
        }
      ],
      "name": "updateCreateBadgeModelProtocolFee",
      "outputs": [],
      "stateMutability": "nonpayable",
      "type": "function"
    },
    {
      "inputs": [
        {
          "internalType": "uint256",
          "name": "_mintBadgeDefaultFee",
          "type": "uint256"
        }
      ],
      "name": "updateMintBadgeDefaultProtocolFee",
      "outputs": [],
      "stateMutability": "nonpayable",
      "type": "function"
    },
    {
      "inputs": [
        {
          "internalType": "uint256",
          "name": "_registerCreatorValue",
          "type": "uint256"
        }
      ],
      "name": "updateRegisterCreatorProtocolFee",
      "outputs": [],
      "stateMutability": "nonpayable",
      "type": "function"
    },
    {
      "inputs": [
        {
          "internalType": "address",
          "name": "newImplementation",
          "type": "address"
        },
        {
          "internalType": "bytes",
          "name": "data",
          "type": "bytes"
        }
      ],
      "name": "upgradeToAndCall",
      "outputs": [],
      "stateMutability": "payable",
      "type": "function"
    },
    {
      "inputs": [
        {
          "internalType": "uint256",
          "name": "badgeId",
          "type": "uint256"
        }
      ],
      "name": "uri",
      "outputs": [
        {
          "internalType": "string",
          "name": "",
          "type": "string"
        }
      ],
      "stateMutability": "view",
      "type": "function"
    },
    {
      "stateMutability": "payable",
      "type": "receive"
    }
  ],
  "bytecode": "0x60a06040523060805234801562000014575f80fd5b506200001f62000025565b620000d9565b7ff0c57e16840df040f15088dc2f81fe391c3923bec73e23a9662efc9c229c6a00805468010000000000000000900460ff1615620000765760405163f92ee8a960e01b815260040160405180910390fd5b80546001600160401b0390811614620000d65780546001600160401b0319166001600160401b0390811782556040519081527fc7f505b2f371ae2175ee4913f4499e1f2633a7b5936321eed1cdaeb6115181d29060200160405180910390a15b50565b6080516148b5620001005f395f81816129e201528181612a0b0152612b5001526148b55ff3fe60806040526004361061021a575f3560e01c806391d1485411610121578063d547741f116100a4578063d547741f1461060b578063d7deba151461062a578063d9548e5314610649578063e181865114610668578063e63ab1e914610687578063e7705db6146106a7578063e985e9c5146106da578063f1fe717e146106f9578063f242432a14610718578063f72c0d8b14610737578063fc5f18d314610757575f80fd5b806391d14854146104cc57806393c7a71b146104eb57806395d89b411461050a5780639faf71581461051e578063a03aafbf14610531578063a217fddf14610544578063a22cb46514610557578063a41e35c314610576578063ad3cb1cc146105a9578063c1d18840146105d9578063c5a3c7ca146105ec575f80fd5b80633f4ba83a116101a95780633f4ba83a1461038e57806346c45758146103a2578063485cc955146103c15780634e1273f4146103e05780634f1ef2861461040c57806352d1902d1461041f5780635c975abb14610433578063632f7c83146104475780637eb7f176146104665780637f345710146104855780638456cb59146104b8575f80fd5b8062fdd58e1461022557806301ffc9a71461025757806306fdde03146102865780630e89341c146102a757806319b50c2a146102c6578063248a9ca3146102f15780632eb2c2d6146103105780632f2ff15d1461033157806336568abe1461035057806338926b6d1461036f575f80fd5b3661022157005b5f80fd5b348015610230575f80fd5b5061024461023f3660046139ac565b61078a565b6040519081526020015b60405180910390f35b348015610262575f80fd5b506102766102713660046139eb565b6109bf565b604051901515815260200161024e565b348015610291575f80fd5b5061029a6109c9565b60405161024e9190613a53565b3480156102b2575f80fd5b5061029a6102c1366004613a65565b610a55565b3480156102d1575f80fd5b505f546102e4906001600160a01b031681565b60405161024e9190613a7c565b3480156102fc575f80fd5b5061024461030b366004613a65565b610a60565b34801561031b575f80fd5b5061032f61032a366004613c23565b610a7e565b005b34801561033c575f80fd5b5061032f61034b366004613cc9565b610adf565b34801561035b575f80fd5b5061032f61036a366004613cc9565b610b01565b34801561037a575f80fd5b5061032f610389366004613cf7565b610b39565b348015610399575f80fd5b5061032f610e93565b3480156103ad575f80fd5b506102446103bc3660046139ac565b610eb5565b3480156103cc575f80fd5b5061032f6103db366004613d6b565b6110f8565b3480156103eb575f80fd5b506103ff6103fa366004613d97565b61131e565b60405161024e9190613e8b565b61032f61041a366004613e9d565b6113f0565b34801561042a575f80fd5b5061024461140f565b34801561043e575f80fd5b5061027661142a565b348015610452575f80fd5b50610244610461366004613a65565b61143e565b348015610471575f80fd5b50610244610480366004613a65565b6115ce565b348015610490575f80fd5b506102447f7804d923f43a17d325d77e781528e0793b2edd9890ab45fc64efd7b4b427744c81565b3480156104c3575f80fd5b5061032f61173b565b3480156104d7575f80fd5b506102766104e6366004613cc9565b61175a565b3480156104f6575f80fd5b5061032f610505366004613cf7565b61178e565b348015610515575f80fd5b5061029a6118f0565b61032f61052c366004613cf7565b6118fd565b61032f61053f366004613cf7565b611a61565b34801561054f575f80fd5b506102445f81565b348015610562575f80fd5b5061032f610571366004613eec565b611b73565b348015610581575f80fd5b506102447fcbaaf41b181bb6e269c490e876a7c97711b57e21dd8e5528423cf57579726b3581565b3480156105b4575f80fd5b5061029a604051806040016040528060058152602001640352e302e360dc1b81525081565b61032f6105e7366004613f18565b611b7e565b3480156105f7575f80fd5b5061032f610606366004613a65565b6121bc565b348015610616575f80fd5b5061032f610625366004613cc9565b61224b565b348015610635575f80fd5b50610244610644366004613a65565b612267565b348015610654575f80fd5b50610276610663366004613a65565b61238f565b348015610673575f80fd5b5061032f610682366004613a65565b612441565b348015610692575f80fd5b506102445f8051602061486083398151915281565b3480156106b2575f80fd5b506102447f0ce23c3e399818cfee81a7ab0880f714e53d7672b08df0fa62f2843416e1ea0981565b3480156106e5575f80fd5b506102766106f4366004613d6b565b61247b565b348015610704575f80fd5b5061032f610713366004613a65565b6124b8565b348015610723575f80fd5b5061032f610732366004613fa8565b6124f2565b348015610742575f80fd5b506102445f8051602061482083398151915281565b348015610762575f80fd5b506102447f11a8cb5a02bd6c42679835e867ef2118ba78f088f8300511420c6603c21d9c7881565b5f80546040516346c1c31160e11b81526004810184905282916001600160a01b031690638d83862290602401608060405180830381865afa1580156107d1573d5f803e3d5ffd5b505050506040513d601f19601f820116820180604052508101906107f59190614026565b6060810151909150158061081f5750836001600160a01b031681602001516001600160a01b031614155b1561082d575f9150506109b9565b6108368361238f565b1515600103610848575f9150506109b9565b5f8054825160405163f2be2c8560e01b81526001600160a01b039092169163f2be2c859161087c9160040190815260200190565b5f60405180830381865afa158015610896573d5f803e3d5ffd5b505050506040513d5f823e601f3d908101601f191682016040526108bd91908101906140d8565b5f80546020830151604051631c2e21b960e11b815293945091926001600160a01b039091169163385c4372916108f69190600401613a53565b606060405180830381865afa158015610911573d5f803e3d5ffd5b505050506040513d601f19601f8201168201806040525081019061093591906141ca565b8051604051631174806160e11b815260048101889052919250906001600160a01b038216906322e900c290602401602060405180830381865afa15801561097e573d5f803e3d5ffd5b505050506040513d601f19601f820116820180604052508101906109a29190614239565b6109ac575f6109af565b60015b60ff169450505050505b92915050565b5f6109b982612542565b600180546109d690614254565b80601f0160208091040260200160405190810160405280929190818152602001828054610a0290614254565b8015610a4d5780601f10610a2457610100808354040283529160200191610a4d565b820191905f5260205f20905b815481529060010190602001808311610a3057829003601f168201915b505050505081565b60606109b982612566565b5f80610a6a61264f565b5f9384526020525050604090206001015490565b336001600160a01b0386168114801590610a9f5750610a9d868261247b565b155b15610aca57808660405163711bec9160e11b8152600401610ac192919061428c565b60405180910390fd5b610ad78686868686612673565b505050505050565b610ae882610a60565b610af1816126d8565b610afb83836126e2565b50505050565b6001600160a01b0381163314610b2a5760405163334bd91960e11b815260040160405180910390fd5b610b348282612780565b505050565b5f610b43846127f6565b5f805460405163f2be2c8560e01b81526004810184905292935090916001600160a01b039091169063f2be2c85906024015f60405180830381865afa158015610b8e573d5f803e3d5ffd5b505050506040513d5f823e601f3d908101601f19168201604052610bb591908101906140d8565b5f80546020830151604051631c2e21b960e11b815293945091926001600160a01b039091169163385c437291610bee9190600401613a53565b606060405180830381865afa158015610c09573d5f803e3d5ffd5b505050506040513d601f19601f82011682018060405250810190610c2d91906141ca565b5f80546040516346c1c31160e11b8152600481018a905292935090916001600160a01b0390911690638d83862290602401608060405180830381865afa158015610c79573d5f803e3d5ffd5b505050506040513d601f19601f82011682018060405250810190610c9d9190614026565b825160608201519192509015155f03610cc957604051632edd9d0f60e21b815260040160405180910390fd5b6040516389610a0960e01b8152600481018990526001600160a01b038216906389610a0990602401602060405180830381865afa158015610d0c573d5f803e3d5ffd5b505050506040513d601f19601f82011682018060405250810190610d309190614239565b15155f03610d5157604051632edd9d0f60e21b815260040160405180910390fd5b60208201516001600160a01b038116610d68575082515b604051634e35cfc560e11b81525f906001600160a01b03841690639c6b9f8a90610d9c908d908d908d9033906004016142a6565b6020604051808303815f875af1158015610db8573d5f803e3d5ffd5b505050506040513d601f19601f82011682018060405250810190610ddc91906142ee565b5f54604051630a5f1ec560e01b8152600481018d90526001600160a01b0385811660248301528084166044830152929350911690630a5f1ec5906064015f604051808303815f87803b158015610e30575f80fd5b505af1158015610e42573d5f803e3d5ffd5b50505050806001600160a01b0316826001600160a01b03168b7fd201fb416d8b5e50c9066521ecfc94d1821b6139fc0e7b39b3c680262c0fed9860405160405180910390a450505050505050505050565b5f80516020614860833981519152610eaa816126d8565b610eb2612932565b50565b5f80546040516304239ea560e11b815282916001600160a01b0316906308473d4a90610ee79086908890600401614309565b5f60405180830381865afa158015610f01573d5f803e3d5ffd5b505050506040513d5f823e601f3d908101601f19168201604052610f289190810190614320565b905080515f03610f3b575f9150506109b9565b5f805460405163f2be2c8560e01b8152600481018690526001600160a01b039091169063f2be2c85906024015f60405180830381865afa158015610f81573d5f803e3d5ffd5b505050506040513d5f823e601f3d908101601f19168201604052610fa891908101906140d8565b5f80546020830151604051631c2e21b960e11b815293945091926001600160a01b039091169163385c437291610fe19190600401613a53565b606060405180830381865afa158015610ffc573d5f803e3d5ffd5b505050506040513d601f19601f8201168201806040525081019061102091906141ca565b80519091505f805b85518110156110ec575f868281518110611044576110446143ab565b602002602001015190506110578161238f565b1580156110c65750604051631174806160e11b8152600481018290526001600160a01b038516906322e900c290602401602060405180830381865afa1580156110a2573d5f803e3d5ffd5b505050506040513d601f19601f820116820180604052508101906110c69190614239565b156110d957826110d5816143d3565b9350505b50806110e4816143d3565b915050611028565b50979650505050505050565b5f611101612988565b805490915060ff600160401b82041615906001600160401b03165f811580156111275750825b90505f826001600160401b031660011480156111425750303b155b905081158015611150575080155b1561116e5760405163f92ee8a960e01b815260040160405180910390fd5b845467ffffffffffffffff19166001178555831561119857845460ff60401b1916600160401b1785555b6111af60405180602001604052805f8152506129ac565b6111b76129bd565b6111bf6129c7565b6111c76129bd565b6111d15f886126e2565b506111e95f80516020614860833981519152886126e2565b506112015f80516020614820833981519152886126e2565b5061122c7f0ce23c3e399818cfee81a7ab0880f714e53d7672b08df0fa62f2843416e1ea09886126e2565b505f80546001600160a01b0319166001600160a01b038816179055604080518082019091526008815267546865426164676560c01b60208201526001906112739082614430565b506040805180820190915260038152621091d160ea1b602082015260029061129b9082614430565b506040516001600160a01b038816907f36b1453565f45af7b509b59d5e2eac8f1948ea9e3e193db6663b4101afb6382c905f90a2831561131557845460ff60401b19168555604051600181527fc7f505b2f371ae2175ee4913f4499e1f2633a7b5936321eed1cdaeb6115181d29060200160405180910390a15b50505050505050565b6060815183511461134f5781518351604051635b05999160e01b815260048101929092526024820152604401610ac1565b5f83516001600160401b0381111561136957611369613a90565b604051908082528060200260200182016040528015611392578160200160208202803683370190505b5090505f5b84518110156113e8576020808202860101516113bb9060208084028701015161078a565b8282815181106113cd576113cd6143ab565b60209081029190910101526113e1816143d3565b9050611397565b509392505050565b6113f86129d7565b61140182612a7b565b61140b8282612a92565b5050565b5f611418612b45565b505f8051602061484083398151915290565b5f80611434612b8e565b5460ff1692915050565b5f805460405163f2be2c8560e01b81526004810184905282916001600160a01b03169063f2be2c85906024015f60405180830381865afa158015611484573d5f803e3d5ffd5b505050506040513d5f823e601f3d908101601f191682016040526114ab91908101906140d8565b80519091506001600160a01b03166114d6576040516385a6706360e01b815260040160405180910390fd5b5f80546020830151604051631c2e21b960e11b81526001600160a01b039092169163385c43729161150991600401613a53565b606060405180830381865afa158015611524573d5f803e3d5ffd5b505050506040513d601f19601f8201168201806040525081019061154891906141ca565b8051606084015160405163632f7c8360e01b81526004810188905292935090916001600160a01b0383169063632f7c8390602401602060405180830381865afa158015611597573d5f803e3d5ffd5b505050506040513d601f19601f820116820180604052508101906115bb91906144eb565b6115c59190614502565b95945050505050565b5f806115d9836127f6565b5f805460405163f2be2c8560e01b81526004810184905292935090916001600160a01b039091169063f2be2c85906024015f60405180830381865afa158015611624573d5f803e3d5ffd5b505050506040513d5f823e601f3d908101601f1916820160405261164b91908101906140d8565b5f80546020830151604051631c2e21b960e11b815293945091926001600160a01b039091169163385c4372916116849190600401613a53565b606060405180830381865afa15801561169f573d5f803e3d5ffd5b505050506040513d601f19601f820116820180604052508101906116c391906141ca565b8051604051633f5bf8bb60e11b815260048101889052919250906001600160a01b03821690637eb7f176906024015b602060405180830381865afa15801561170d573d5f803e3d5ffd5b505050506040513d601f19601f8201168201806040525081019061173191906144eb565b9695505050505050565b5f80516020614860833981519152611752816126d8565b610eb2612bb2565b5f8061176461264f565b5f948552602090815260408086206001600160a01b03959095168652939052505090205460ff1690565b5f611798846127f6565b5f805460405163f2be2c8560e01b81526004810184905292935090916001600160a01b039091169063f2be2c85906024015f60405180830381865afa1580156117e3573d5f803e3d5ffd5b505050506040513d5f823e601f3d908101601f1916820160405261180a91908101906140d8565b5f80546020830151604051631c2e21b960e11b815293945091926001600160a01b039091169163385c4372916118439190600401613a53565b606060405180830381865afa15801561185e573d5f803e3d5ffd5b505050506040513d601f19601f8201168201806040525081019061188291906141ca565b8051604051636c5f71ab60e11b8152919250906001600160a01b0382169063d8bee356906118ba908a908a908a9033906004016142a6565b5f604051808303815f87803b1580156118d1575f80fd5b505af11580156118e3573d5f803e3d5ffd5b5050505050505050505050565b600280546109d690614254565b5f611907846127f6565b5f805460405163f2be2c8560e01b81526004810184905292935090916001600160a01b039091169063f2be2c85906024015f60405180830381865afa158015611952573d5f803e3d5ffd5b505050506040513d5f823e601f3d908101601f1916820160405261197991908101906140d8565b5f80546020830151604051631c2e21b960e11b815293945091926001600160a01b039091169163385c4372916119b29190600401613a53565b606060405180830381865afa1580156119cd573d5f803e3d5ffd5b505050506040513d601f19601f820116820180604052508101906119f191906141ca565b80519091506001600160a01b0381166361cf6b4834898989335b6040518663ffffffff1660e01b8152600401611a2a94939291906142a6565b5f604051808303818588803b158015611a41575f80fd5b505af1158015611a53573d5f803e3d5ffd5b505050505050505050505050565b5f611a6b846127f6565b5f805460405163f2be2c8560e01b81526004810184905292935090916001600160a01b039091169063f2be2c85906024015f60405180830381865afa158015611ab6573d5f803e3d5ffd5b505050506040513d5f823e601f3d908101601f19168201604052611add91908101906140d8565b5f80546020830151604051631c2e21b960e11b815293945091926001600160a01b039091169163385c437291611b169190600401613a53565b606060405180830381865afa158015611b31573d5f803e3d5ffd5b505050506040513d601f19601f82011682018060405250810190611b5591906141ca565b80519091506001600160a01b03811663681294b43489898933611a0b565b61140b338383612bf8565b5f805460405163f2be2c8560e01b8152600481018790528692916001600160a01b03169063f2be2c85906024015f60405180830381865afa158015611bc5573d5f803e3d5ffd5b505050506040513d5f823e601f3d908101601f19168201604052611bec91908101906140d8565b5f80546020830151604051631c2e21b960e11b815293945091926001600160a01b039091169163385c437291611c259190600401613a53565b606060405180830381865afa158015611c40573d5f803e3d5ffd5b505050506040513d601f19601f82011682018060405250810190611c6491906141ca565b80518351919250906001600160a01b0316611c92576040516385a6706360e01b815260040160405180910390fd5b826040015115611cb557604051635d71fd6f60e01b815260040160405180910390fd5b82610100015115611cd957604051630f0365d360e21b815260040160405180910390fd5b816020015115611cfc57604051631bd063c360e01b815260040160405180910390fd5b5f80548451604051636f77926b60e01b81526001600160a01b0390921691636f77926b91611d2c91600401613a7c565b5f60405180830381865afa158015611d46573d5f803e3d5ffd5b505050506040513d5f823e601f3d908101601f19168201604052611d6d9190810190614515565b60608101519091501515600103611d975760405163a800bb9d60e01b815260040160405180910390fd5b611d9f612c11565b888880888a611dad8561143e565b341015611dcd576040516393fda7e360e01b815260040160405180910390fd5b5f805460405163f2be2c8560e01b8152600481018890526001600160a01b039091169063f2be2c85906024015f60405180830381865afa158015611e13573d5f803e3d5ffd5b505050506040513d5f823e601f3d908101601f19168201604052611e3a91908101906140d8565b606081015190915015611e5057611e5086612c46565b5f80546020830151604051631c2e21b960e11b81526001600160a01b039092169163385c437291611e8391600401613a53565b606060405180830381865afa158015611e9e573d5f803e3d5ffd5b505050506040513d601f19601f82011682018060405250810190611ec291906141ca565b80519091506001600160a01b038716611f6457604051631007fbe560e21b81526001600160a01b0382169063401fef9490611f03908b908b90600401614309565b602060405180830381865afa158015611f1e573d5f803e3d5ffd5b505050506040513d601f19601f82011682018060405250810190611f429190614239565b611f5f57604051634dae13df60e01b815260040160405180910390fd5b815195505b5f805f9054906101000a90046001600160a01b03166001600160a01b03166308e5bf216040518163ffffffff1660e01b8152600401602060405180830381865afa158015611fb4573d5f803e3d5ffd5b505050506040513d601f19601f82011682018060405250810190611fd891906144eb565b90505f826001600160a01b031663f6563d5f866060015134611ffa91906145d5565b338d868c8e6040518763ffffffff1660e01b815260040161201f9594939291906145e8565b60206040518083038185885af115801561203b573d5f803e3d5ffd5b50505050506040513d601f19601f8201168201806040525081019061206091906144eb565b905061206c8287612ed4565b6120938883600160405180604001604052806002815260200161060f60f31b815250612f3f565b5f85608001515f146120b35760808601516120ae9042614502565b6120b5565b5f5b604080516080810182528d81526001600160a01b038c8116602083019081528284018581526001606085019081525f549551634085b52760e01b8152600481018b9052855160248201529251841660448401529051606483015251151560848201529394509092911690634085b5279060a4015f604051808303815f87803b15801561213f575f80fd5b505af1158015612151573d5f803e3d5ffd5b50505050896001600160a01b0316848d7f186b125f639893ac3dcb02d857d0fd29319e8f764fd26f4a77310e8c678fbbd0895f01518760405161219592919061462a565b60405180910390a45050505050505050505050506121b1612f85565b505050505050505050565b5f6121c6816126d8565b5f546040516362d1e3e560e11b8152600481018490526001600160a01b039091169063c5a3c7ca906024015b5f604051808303815f87803b158015612209575f80fd5b505af115801561221b573d5f803e3d5ffd5b50506040517f810f1720fbc34c56d171f89315ad21708648fd17424c27b88fa208409845aa7792505f9150a15050565b61225482610a60565b61225d816126d8565b610afb8383612780565b5f80612272836127f6565b5f805460405163f2be2c8560e01b81526004810184905292935090916001600160a01b039091169063f2be2c85906024015f60405180830381865afa1580156122bd573d5f803e3d5ffd5b505050506040513d5f823e601f3d908101601f191682016040526122e491908101906140d8565b5f80546020830151604051631c2e21b960e11b815293945091926001600160a01b039091169163385c43729161231d9190600401613a53565b606060405180830381865afa158015612338573d5f803e3d5ffd5b505050506040513d601f19601f8201168201806040525081019061235c91906141ca565b805160405163d7deba1560e01b815260048101889052919250906001600160a01b0382169063d7deba15906024016116f2565b5f80546040516346c1c31160e11b81526004810184905282916001600160a01b031690638d83862290602401608060405180830381865afa1580156123d6573d5f803e3d5ffd5b505050506040513d601f19601f820116820180604052508101906123fa9190614026565b606081015190915015155f0361241257505f92915050565b80604001515f0361242557505f92915050565b4281604001511115612437575f61243a565b60015b9392505050565b5f61244b816126d8565b5f5460405163e181865160e01b8152600481018490526001600160a01b039091169063e1818651906024016121f2565b5f80612485612f95565b6001600160a01b039485165f90815260019190910160209081526040808320959096168252939093525050205460ff1690565b5f6124c2816126d8565b5f546040516378ff38bf60e11b8152600481018490526001600160a01b039091169063f1fe717e906024016121f2565b336001600160a01b03861681148015906125135750612511868261247b565b155b1561253557808660405163711bec9160e11b8152600401610ac192919061428c565b610ad78686868686612fb9565b5f6001600160e01b03198216637965db0b60e01b14806109b957506109b982613027565b60605f612571613076565b5f84815260018201602052604081208054929350909161259090614254565b80601f01602080910402602001604051908101604052809291908181526020018280546125bc90614254565b80156126075780601f106125de57610100808354040283529160200191612607565b820191905f5260205f20905b8154815290600101906020018083116125ea57829003601f168201915b505050505090505f8151116126245761261f8461309a565b612647565b6040516126379083908390602001614643565b6040516020818303038152906040525b949350505050565b7f02dd7bc7dec4dceedda775e58dd541e08a116c6c53815c0bd028192f7b62680090565b6001600160a01b03841661269c575f604051632bfa23e760e11b8152600401610ac19190613a7c565b6001600160a01b0385166126c4575f604051626a0d4560e21b8152600401610ac19190613a7c565b6126d1858585858561313a565b5050505050565b610eb2813361318d565b5f806126ec61264f565b90506126f8848461175a565b612777575f848152602082815260408083206001600160a01b03871684529091529020805460ff1916600117905561272d3390565b6001600160a01b0316836001600160a01b0316857f2f8788117e7eff1d82e926ec794901d17c78024a50270940304540a733656f0d60405160405180910390a460019150506109b9565b5f9150506109b9565b5f8061278a61264f565b9050612796848461175a565b15612777575f848152602082815260408083206001600160a01b0387168085529252808320805460ff1916905551339287917ff6391f5c32d9c69d2a47ea670b442974b53935d1edc7fd64eb21e047a839171b9190a460019150506109b9565b5f80546040516346c1c31160e11b81526004810184905282916001600160a01b031690638d83862290602401608060405180830381865afa15801561283d573d5f803e3d5ffd5b505050506040513d601f19601f820116820180604052508101906128619190614026565b606081015190915015155f0361288a5760405163f97195bf60e01b815260040160405180910390fd5b5f8054825160405163f2be2c8560e01b81526001600160a01b039092169163f2be2c85916128be9160040190815260200190565b5f60405180830381865afa1580156128d8573d5f803e3d5ffd5b505050506040513d5f823e601f3d908101601f191682016040526128ff91908101906140d8565b80519091506001600160a01b031661292a576040516385a6706360e01b815260040160405180910390fd5b505192915050565b61293a6131b8565b5f612943612b8e565b805460ff1916815590507f5db9ee0a495bf2e6ff9c91a7834c1ba4fdd244a5e8aa4e537bd38aeae4b073aa335b60405161297d9190613a7c565b60405180910390a150565b7ff0c57e16840df040f15088dc2f81fe391c3923bec73e23a9662efc9c229c6a0090565b6129b46131dd565b610eb281613202565b6129c56131dd565b565b6129cf6131dd565b6129c5613213565b306001600160a01b037f0000000000000000000000000000000000000000000000000000000000000000161480612a5d57507f00000000000000000000000000000000000000000000000000000000000000006001600160a01b0316612a515f80516020614840833981519152546001600160a01b031690565b6001600160a01b031614155b156129c55760405163703e46dd60e11b815260040160405180910390fd5b5f8051602061482083398151915261140b816126d8565b816001600160a01b03166352d1902d6040518163ffffffff1660e01b8152600401602060405180830381865afa925050508015612aec575060408051601f3d908101601f19168201909252612ae9918101906144eb565b60015b612b0b5781604051634c9c8ce360e01b8152600401610ac19190613a7c565b5f805160206148408339815191528114612b3b57604051632a87526960e21b815260048101829052602401610ac1565b610b34838361322f565b306001600160a01b037f000000000000000000000000000000000000000000000000000000000000000016146129c55760405163703e46dd60e11b815260040160405180910390fd5b7fcd5ed15c6e187e77e9aee88184c21f4f2182ab5827cb3b7e07fbedcd63f0330090565b612bba613284565b5f612bc3612b8e565b805460ff1916600117815590507f62e78cea01bee320cd4e420270b5ea74000d11b0c9f74754ebdbfc544b05a2586129703390565b6040516305d39ac360e51b815260040160405180910390fd5b5f612c1a6132aa565b805490915060011901612c4057604051633ee5aeb560e01b815260040160405180910390fd5b60029055565b5f805460405163f2be2c8560e01b8152600481018490526001600160a01b039091169063f2be2c85906024015f60405180830381865afa158015612c8c573d5f803e3d5ffd5b505050506040513d5f823e601f3d908101601f19168201604052612cb391908101906140d8565b90505f805f9054906101000a90046001600160a01b03166001600160a01b031663c415b95c6040518163ffffffff1660e01b8152600401602060405180830381865afa158015612d05573d5f803e3d5ffd5b505050506040513d601f19601f82011682018060405250810190612d2991906142ee565b90505f612d3e83606001518460a001516132ce565b90505f818460600151612d5191906145d5565b90505f836001600160a01b0316836040515f6040518083038185875af1925050503d805f8114612d9c576040519150601f19603f3d011682016040523d82523d5f602084013e612da1565b606091505b50909150508015155f03612dc8576040516372f7724f60e01b815260040160405180910390fd5b855f6001600160a01b0386167fdf7cc5ebdb7be805a1d96fd982aba37cbf8e9169d6f34870e8d63a62cd492f643387604051612e059291906146c6565b60405180910390a484516040515f916001600160a01b03169084908381818185875af1925050503d805f8114612e56576040519150601f19603f3d011682016040523d82523d5f602084013e612e5b565b606091505b50909150508015155f03612e8257604051633b50281160e11b815260040160405180910390fd5b866001875f01516001600160a01b03167fdf7cc5ebdb7be805a1d96fd982aba37cbf8e9169d6f34870e8d63a62cd492f648887604051612ec39291906146c6565b60405180910390a450505050505050565b5f612edd613076565b5f8481526001820160205260409020909150612ef98382614430565b50827f6bb7ff708619ba0610cba295a58592e0451dee2622938c8755667688daf3529b612f2585610a55565b604051612f329190613a53565b60405180910390a2505050565b6001600160a01b038416612f68575f604051632bfa23e760e11b8152600401610ac19190613a7c565b5f80612f748585613312565b91509150610ad75f8784848761313a565b5f612f8e6132aa565b6001905550565b7f88be536d5240c274a3b1d3a1be54482fd9caa294f08c62a7cde569f49a3c450090565b6001600160a01b038416612fe2575f604051632bfa23e760e11b8152600401610ac19190613a7c565b6001600160a01b03851661300a575f604051626a0d4560e21b8152600401610ac19190613a7c565b5f806130168585613312565b91509150611315878784848761313a565b5f6001600160e01b03198216636cdb3d1360e11b148061305757506001600160e01b031982166303a24d0760e21b145b806109b957506301ffc9a760e01b6001600160e01b03198316146109b9565b7f89fc852226e759c7c636cf34d732f0198fc56a54876b2374a52beb7b0c55860090565b60605f6130a5612f95565b90508060020180546130b690614254565b80601f01602080910402602001604051908101604052809291908181526020018280546130e290614254565b801561312d5780601f106131045761010080835404028352916020019161312d565b820191905f5260205f20905b81548152906001019060200180831161311057829003601f168201915b5050505050915050919050565b6131468585858561333a565b6001600160a01b038416156126d1578251339060010361317f57602084810151908401516131788389898585896133f7565b5050610ad7565b610ad7818787878787613506565b613197828261175a565b61140b57808260405163e2517d3f60e01b8152600401610ac192919061462a565b6131c061142a565b6129c557604051638dfc202b60e01b815260040160405180910390fd5b6131e56135e4565b6129c557604051631afcd79f60e31b815260040160405180910390fd5b61320a6131dd565b610eb2816135fd565b61321b6131dd565b5f613224612b8e565b805460ff1916905550565b61323882613616565b6040516001600160a01b038316907fbc7cd75a20ee27fd9adebab32041f755214dbc6bffa90cc0225b39da2e5c2d3b905f90a280511561327c57610b348282613670565b61140b6136d9565b61328c61142a565b156129c55760405163d93c066560e01b815260040160405180910390fd5b7f9b779b17422d0df92223018b32b4d1fa46e071723d6817e2486d003becc55f0090565b5f6127106132dc83856146f9565b10156132fb57604051633032107560e21b815260040160405180910390fd5b61271061330883856146f9565b61243a9190614710565b6040805160018082526020820194909452808201938452606081019290925260808201905291565b613342613284565b5f80546040516301719d2b60e01b81526001600160a01b03909116906301719d2b90613372908890600401613a7c565b606060405180830381865afa15801561338d573d5f803e3d5ffd5b505050506040513d601f19601f820116820180604052508101906133b191906141ca565b90506001600160a01b038516158015906133cd57506040810151155b156133eb576040516305d39ac360e51b815260040160405180910390fd5b6126d1858585856136f8565b6001600160a01b0384163b15610ad75760405163f23a6e6160e01b81526001600160a01b0385169063f23a6e619061343b908990899088908890889060040161472f565b6020604051808303815f875af1925050508015613475575060408051601f3d908101601f1916820190925261347291810190614768565b60015b6134d3573d8080156134a2576040519150601f19603f3d011682016040523d82523d5f602084013e6134a7565b606091505b5080515f036134cb5784604051632bfa23e760e11b8152600401610ac19190613a7c565b805181602001fd5b6001600160e01b0319811663f23a6e6160e01b146113155784604051632bfa23e760e11b8152600401610ac19190613a7c565b6001600160a01b0384163b15610ad75760405163bc197c8160e01b81526001600160a01b0385169063bc197c819061354a9089908990889088908890600401614783565b6020604051808303815f875af1925050508015613584575060408051601f3d908101601f1916820190925261358191810190614768565b60015b6135b1573d8080156134a2576040519150601f19603f3d011682016040523d82523d5f602084013e6134a7565b6001600160e01b0319811663bc197c8160e01b146113155784604051632bfa23e760e11b8152600401610ac19190613a7c565b5f6135ed612988565b54600160401b900460ff16919050565b5f613606612f95565b905060028101610b348382614430565b806001600160a01b03163b5f036136425780604051634c9c8ce360e01b8152600401610ac19190613a7c565b5f8051602061484083398151915280546001600160a01b0319166001600160a01b0392909216919091179055565b60605f80846001600160a01b03168460405161368c91906147e0565b5f60405180830381855af49150503d805f81146136c4576040519150601f19603f3d011682016040523d82523d5f602084013e6136c9565b606091505b50915091506115c585838361391c565b34156129c55760405163b398979f60e01b815260040160405180910390fd5b5f613701612f95565b905081518351146137325782518251604051635b05999160e01b815260048101929092526024820152604401610ac1565b335f5b845181101561383d576020818102868101820151908601909101516001600160a01b038916156137e6575f828152602086815260408083206001600160a01b038d168452909152902054818110156137c0576040516303dee4c560e01b81526001600160a01b038b166004820152602481018290526044810183905260648101849052608401610ac1565b5f838152602087815260408083206001600160a01b038e16845290915290209082900390555b6001600160a01b0388161561382a575f828152602086815260408083206001600160a01b038c16845290915281208054839290613824908490614502565b90915550505b505080613836906143d3565b9050613735565b5083516001036138bd5760208401515f906020850151909150866001600160a01b0316886001600160a01b0316846001600160a01b03167fc3d58168c5ae7397731d063d5bbf3d657854427343f4c083240f7aacaa2d0f6285856040516138ae929190918252602082015260400190565b60405180910390a45050610ad7565b846001600160a01b0316866001600160a01b0316826001600160a01b03167f4a39dc06d4c0dbc64b70af90fd698a233a518aa5d07e595d983b8c0526c8f7fb878760405161390c9291906147fb565b60405180910390a4505050505050565b6060826139315761392c8261396f565b61243a565b815115801561394857506001600160a01b0384163b155b156139685783604051639996b31560e01b8152600401610ac19190613a7c565b5092915050565b80511561397f5780518082602001fd5b604051630a12f52160e11b815260040160405180910390fd5b6001600160a01b0381168114610eb2575f80fd5b5f80604083850312156139bd575f80fd5b82356139c881613998565b946020939093013593505050565b6001600160e01b031981168114610eb2575f80fd5b5f602082840312156139fb575f80fd5b813561243a816139d6565b5f5b83811015613a20578181015183820152602001613a08565b50505f910152565b5f8151808452613a3f816020860160208601613a06565b601f01601f19169290920160200192915050565b602081525f61243a6020830184613a28565b5f60208284031215613a75575f80fd5b5035919050565b6001600160a01b0391909116815260200190565b634e487b7160e01b5f52604160045260245ffd5b60405161012081016001600160401b0381118282101715613ac757613ac7613a90565b60405290565b60405160a081016001600160401b0381118282101715613ac757613ac7613a90565b604051601f8201601f191681016001600160401b0381118282101715613b1757613b17613a90565b604052919050565b5f6001600160401b03821115613b3757613b37613a90565b5060051b60200190565b5f82601f830112613b50575f80fd5b81356020613b65613b6083613b1f565b613aef565b82815260059290921b84018101918181019086841115613b83575f80fd5b8286015b84811015613b9e5780358352918301918301613b87565b509695505050505050565b5f6001600160401b03821115613bc157613bc1613a90565b50601f01601f191660200190565b5f613bdc613b6084613ba9565b9050828152838383011115613bef575f80fd5b828260208301375f602084830101529392505050565b5f82601f830112613c14575f80fd5b61243a83833560208501613bcf565b5f805f805f60a08688031215613c37575f80fd5b8535613c4281613998565b94506020860135613c5281613998565b935060408601356001600160401b0380821115613c6d575f80fd5b613c7989838a01613b41565b94506060880135915080821115613c8e575f80fd5b613c9a89838a01613b41565b93506080880135915080821115613caf575f80fd5b50613cbc88828901613c05565b9150509295509295909350565b5f8060408385031215613cda575f80fd5b823591506020830135613cec81613998565b809150509250929050565b5f805f60408486031215613d09575f80fd5b8335925060208401356001600160401b0380821115613d26575f80fd5b818601915086601f830112613d39575f80fd5b813581811115613d47575f80fd5b876020828501011115613d58575f80fd5b6020830194508093505050509250925092565b5f8060408385031215613d7c575f80fd5b8235613d8781613998565b91506020830135613cec81613998565b5f8060408385031215613da8575f80fd5b82356001600160401b0380821115613dbe575f80fd5b818501915085601f830112613dd1575f80fd5b81356020613de1613b6083613b1f565b82815260059290921b84018101918181019089841115613dff575f80fd5b948201945b83861015613e26578535613e1781613998565b82529482019490820190613e04565b96505086013592505080821115613e3b575f80fd5b50613e4885828601613b41565b9150509250929050565b5f8151808452602080850194508084015f5b83811015613e8057815187529582019590820190600101613e64565b509495945050505050565b602081525f61243a6020830184613e52565b5f8060408385031215613eae575f80fd5b8235613eb981613998565b915060208301356001600160401b03811115613ed3575f80fd5b613e4885828601613c05565b8015158114610eb2575f80fd5b5f8060408385031215613efd575f80fd5b8235613f0881613998565b91506020830135613cec81613edf565b5f805f8060808587031215613f2b575f80fd5b843593506020850135613f3d81613998565b925060408501356001600160401b0380821115613f58575f80fd5b818701915087601f830112613f6b575f80fd5b613f7a88833560208501613bcf565b93506060870135915080821115613f8f575f80fd5b50613f9c87828801613c05565b91505092959194509250565b5f805f805f60a08688031215613fbc575f80fd5b8535613fc781613998565b94506020860135613fd781613998565b9350604086013592506060860135915060808601356001600160401b03811115613fff575f80fd5b613cbc88828901613c05565b805161401681613998565b919050565b805161401681613edf565b5f60808284031215614036575f80fd5b604051608081018181106001600160401b038211171561405857614058613a90565b60405282518152602083015161406d81613998565b602082015260408381015190820152606083015161408a81613edf565b60608201529392505050565b5f82601f8301126140a5575f80fd5b81516140b3613b6082613ba9565b8181528460208386010111156140c7575f80fd5b612647826020830160208701613a06565b5f602082840312156140e8575f80fd5b81516001600160401b03808211156140fe575f80fd5b908301906101208286031215614112575f80fd5b61411a613aa4565b6141238361400b565b8152602083015182811115614136575f80fd5b61414287828601614096565b6020830152506141546040840161401b565b6040820152606083015160608201526080830151608082015260a083015160a082015261418360c0840161401b565b60c082015260e083015182811115614199575f80fd5b6141a587828601614096565b60e08301525061010091506141bb82840161401b565b91810191909152949350505050565b5f606082840312156141da575f80fd5b604051606081018181106001600160401b03821117156141fc576141fc613a90565b604052825161420a81613998565b8152602083015161421a81613edf565b6020820152604083015161422d81613edf565b60408201529392505050565b5f60208284031215614249575f80fd5b815161243a81613edf565b600181811c9082168061426857607f821691505b60208210810361428657634e487b7160e01b5f52602260045260245ffd5b50919050565b6001600160a01b0392831681529116602082015260400190565b84815260606020820152826060820152828460808301375f8184016080908101919091526001600160a01b03929092166040820152601f909201601f19169091010192915050565b5f602082840312156142fe575f80fd5b815161243a81613998565b9182526001600160a01b0316602082015260400190565b5f6020808385031215614331575f80fd5b82516001600160401b03811115614346575f80fd5b8301601f81018513614356575f80fd5b8051614364613b6082613b1f565b81815260059190911b82018301908381019087831115614382575f80fd5b928401925b828410156143a057835182529284019290840190614387565b979650505050505050565b634e487b7160e01b5f52603260045260245ffd5b634e487b7160e01b5f52601160045260245ffd5b5f600182016143e4576143e46143bf565b5060010190565b601f821115610b34575f81815260208120601f850160051c810160208610156144115750805b601f850160051c820191505b81811015610ad75782815560010161441d565b81516001600160401b0381111561444957614449613a90565b61445d816144578454614254565b846143eb565b602080601f831160018114614490575f84156144795750858301515b5f19600386901b1c1916600185901b178555610ad7565b5f85815260208120601f198616915b828110156144be5788860151825594840194600190910190840161449f565b50858210156144db57878501515f19600388901b60f8161c191681555b5050505050600190811b01905550565b5f602082840312156144fb575f80fd5b5051919050565b808201808211156109b9576109b96143bf565b5f60208284031215614525575f80fd5b81516001600160401b038082111561453b575f80fd5b9083019060a0828603121561454e575f80fd5b614556613acd565b825182811115614564575f80fd5b61457087828601614096565b8252506020830151915061458382613edf565b8160208201526040830151915061459982613edf565b816040820152606083015191506145af82613edf565b816060820152608083015192506145c583613edf565b6080810192909252509392505050565b818103818111156109b9576109b96143bf565b5f60018060a01b03808816835286602084015285604084015260a0606084015261461560a0840186613a28565b91508084166080840152509695505050505050565b6001600160a01b03929092168252602082015260400190565b5f80845461465081614254565b60018281168015614668576001811461467d576146a9565b60ff19841687528215158302870194506146a9565b885f526020805f205f5b858110156146a05781548a820152908401908201614687565b50505082870194505b5050505083516146bd818360208801613a06565b01949350505050565b6001600160a01b03929092168252602082015260606040820181905260029082015261060f60f31b608082015260a00190565b80820281158282048414176109b9576109b96143bf565b5f8261472a57634e487b7160e01b5f52601260045260245ffd5b500490565b6001600160a01b03868116825285166020820152604081018490526060810183905260a0608082018190525f906143a090830184613a28565b5f60208284031215614778575f80fd5b815161243a816139d6565b6001600160a01b0386811682528516602082015260a0604082018190525f906147ae90830186613e52565b82810360608401526147c08186613e52565b905082810360808401526147d48185613a28565b98975050505050505050565b5f82516147f1818460208701613a06565b9190910192915050565b604081525f61480d6040830185613e52565b82810360208401526115c58185613e5256fe189ab7a9244df0848122154315af71fe140f3db0fe014031783b0946b8c9d2e3360894a13ba1a3210667c828492db98dca3e2076cc3735a920a3ca505d382bbc65d7a28e3265b37a6474929f336521b332c1681b933f6cb9f3376673440d862aa2646970667358221220ce501be3e313cfe99b48ce9fd44dbdc6fc0132c6b7dfa61782e83ade4190ad5c64736f6c63430008140033",
  "linkReferences": {},
  "deployedLinkReferences": {}
}