{
  "_format": "hh-sol-artifact-1",
  "contractName": "TheBadge",
  "sourceName": "src/contracts/thebadge/TheBadge.sol",
  "abi": [
    {
      "inputs": [],
      "stateMutability": "nonpayable",
      "type": "constructor"
    },
    {
      "inputs": [],
      "name": "TheBadge__SBT",
      "type": "error"
    },
    {
      "inputs": [],
      "name": "TheBadge__createBadgeModel_controllerIsPaused",
      "type": "error"
    },
    {
      "inputs": [],
      "name": "TheBadge__createBadgeModel_invalidController",
      "type": "error"
    },
    {
      "inputs": [],
      "name": "TheBadge__createBadgeModel_wrongValue",
      "type": "error"
    },
    {
      "inputs": [],
      "name": "TheBadge__method_not_supported",
      "type": "error"
    },
    {
      "inputs": [],
      "name": "TheBadge__onlyController_senderIsNotTheController",
      "type": "error"
    },
    {
      "inputs": [],
      "name": "TheBadge__onlyCreator_senderIsNotACreator",
      "type": "error"
    },
    {
      "inputs": [],
      "name": "TheBadge__registerCreator_alreadyRegistered",
      "type": "error"
    },
    {
      "inputs": [],
      "name": "TheBadge__registerCreator_wrongValue",
      "type": "error"
    },
    {
      "inputs": [],
      "name": "TheBadge__requestBadge_badgeModelNotFound",
      "type": "error"
    },
    {
      "inputs": [],
      "name": "TheBadge__requestBadge_controllerIsPaused",
      "type": "error"
    },
    {
      "inputs": [],
      "name": "TheBadge__requestBadge_isPaused",
      "type": "error"
    },
    {
      "inputs": [],
      "name": "TheBadge__requestBadge_wrongValue",
      "type": "error"
    },
    {
      "inputs": [],
      "name": "TheBadge__setBadgeModelController_alreadySet",
      "type": "error"
    },
    {
      "inputs": [],
      "name": "TheBadge__setBadgeModelController_emptyName",
      "type": "error"
    },
    {
      "inputs": [],
      "name": "TheBadge__setBadgeModelController_notFound",
      "type": "error"
    },
    {
      "inputs": [],
      "name": "TheBadge__setControllerStatus_notFound",
      "type": "error"
    },
    {
      "inputs": [],
      "name": "TheBadge__updateBadgeModelFee_badgeModelNotFound",
      "type": "error"
    },
    {
      "inputs": [],
      "name": "TheBadge__updateBadgeModel_badgeModelNotFound",
      "type": "error"
    },
    {
      "inputs": [],
      "name": "TheBadge__updateBadgeModel_notBadgeModelOwner",
      "type": "error"
    },
    {
      "inputs": [],
      "name": "TheBadge__updateCreator_notFound",
      "type": "error"
    },
    {
      "anonymous": false,
      "inputs": [
        {
          "indexed": false,
          "internalType": "address",
          "name": "previousAdmin",
          "type": "address"
        },
        {
          "indexed": false,
          "internalType": "address",
          "name": "newAdmin",
          "type": "address"
        }
      ],
      "name": "AdminChanged",
      "type": "event"
    },
    {
      "anonymous": false,
      "inputs": [
        {
          "indexed": true,
          "internalType": "address",
          "name": "account",
          "type": "address"
        },
        {
          "indexed": true,
          "internalType": "address",
          "name": "operator",
          "type": "address"
        },
        {
          "indexed": false,
          "internalType": "bool",
          "name": "approved",
          "type": "bool"
        }
      ],
      "name": "ApprovalForAll",
      "type": "event"
    },
    {
      "anonymous": false,
      "inputs": [
        {
          "indexed": true,
          "internalType": "uint256",
          "name": "badgeModelId",
          "type": "uint256"
        },
        {
          "indexed": false,
          "internalType": "string",
          "name": "metadata",
          "type": "string"
        }
      ],
      "name": "BadgeModelCreated",
      "type": "event"
    },
    {
      "anonymous": false,
      "inputs": [
        {
          "indexed": true,
          "internalType": "uint256",
          "name": "badgeModelId",
          "type": "uint256"
        },
        {
          "indexed": false,
          "internalType": "uint256",
          "name": "newAmountInBps",
          "type": "uint256"
        }
      ],
      "name": "BadgeModelProtocolFeeUpdated",
      "type": "event"
    },
    {
      "anonymous": false,
      "inputs": [
        {
          "indexed": true,
          "internalType": "uint256",
          "name": "badgeModelId",
          "type": "uint256"
        }
      ],
      "name": "BadgeModelUpdated",
      "type": "event"
    },
    {
      "anonymous": false,
      "inputs": [
        {
          "indexed": true,
          "internalType": "uint256",
          "name": "badgeModelID",
          "type": "uint256"
        },
        {
          "indexed": true,
          "internalType": "uint256",
          "name": "badgeID",
          "type": "uint256"
        },
        {
          "indexed": true,
          "internalType": "address",
          "name": "recipient",
          "type": "address"
        },
        {
          "indexed": false,
          "internalType": "address",
          "name": "controller",
          "type": "address"
        },
        {
          "indexed": false,
          "internalType": "uint256",
          "name": "controllerBadgeId",
          "type": "uint256"
        }
      ],
      "name": "BadgeRequested",
      "type": "event"
    },
    {
      "anonymous": false,
      "inputs": [
        {
          "indexed": true,
          "internalType": "address",
          "name": "beacon",
          "type": "address"
        }
      ],
      "name": "BeaconUpgraded",
      "type": "event"
    },
    {
      "anonymous": false,
      "inputs": [
        {
          "indexed": true,
          "internalType": "address",
          "name": "creator",
          "type": "address"
        },
        {
          "indexed": false,
          "internalType": "string",
          "name": "metadata",
          "type": "string"
        }
      ],
      "name": "CreatorRegistered",
      "type": "event"
    },
    {
      "anonymous": false,
      "inputs": [
        {
          "indexed": true,
          "internalType": "address",
          "name": "admin",
          "type": "address"
        },
        {
          "indexed": true,
          "internalType": "address",
          "name": "minter",
          "type": "address"
        }
      ],
      "name": "Initialize",
      "type": "event"
    },
    {
      "anonymous": false,
      "inputs": [
        {
          "indexed": false,
          "internalType": "uint8",
          "name": "version",
          "type": "uint8"
        }
      ],
      "name": "Initialized",
      "type": "event"
    },
    {
      "anonymous": false,
      "inputs": [
        {
          "indexed": false,
          "internalType": "address",
          "name": "account",
          "type": "address"
        }
      ],
      "name": "Paused",
      "type": "event"
    },
    {
      "anonymous": false,
      "inputs": [
        {
          "indexed": true,
          "internalType": "address",
          "name": "recipient",
          "type": "address"
        },
        {
          "indexed": false,
          "internalType": "uint256",
          "name": "amount",
          "type": "uint256"
        },
        {
          "indexed": true,
          "internalType": "enum TheBadgeStore.PaymentType",
          "name": "paymentType",
          "type": "uint8"
        },
        {
          "indexed": true,
          "internalType": "uint256",
          "name": "badgeModelId",
          "type": "uint256"
        }
      ],
      "name": "PaymentMade",
      "type": "event"
    },
    {
      "anonymous": false,
      "inputs": [],
      "name": "ProtocolSettingsUpdated",
      "type": "event"
    },
    {
      "anonymous": false,
      "inputs": [
        {
          "indexed": true,
          "internalType": "address",
          "name": "creator",
          "type": "address"
        },
        {
          "indexed": false,
          "internalType": "bool",
          "name": "deleted",
          "type": "bool"
        }
      ],
      "name": "RemovedCreator",
      "type": "event"
    },
    {
      "anonymous": false,
      "inputs": [
        {
          "indexed": true,
          "internalType": "bytes32",
          "name": "role",
          "type": "bytes32"
        },
        {
          "indexed": true,
          "internalType": "bytes32",
          "name": "previousAdminRole",
          "type": "bytes32"
        },
        {
          "indexed": true,
          "internalType": "bytes32",
          "name": "newAdminRole",
          "type": "bytes32"
        }
      ],
      "name": "RoleAdminChanged",
      "type": "event"
    },
    {
      "anonymous": false,
      "inputs": [
        {
          "indexed": true,
          "internalType": "bytes32",
          "name": "role",
          "type": "bytes32"
        },
        {
          "indexed": true,
          "internalType": "address",
          "name": "account",
          "type": "address"
        },
        {
          "indexed": true,
          "internalType": "address",
          "name": "sender",
          "type": "address"
        }
      ],
      "name": "RoleGranted",
      "type": "event"
    },
    {
      "anonymous": false,
      "inputs": [
        {
          "indexed": true,
          "internalType": "bytes32",
          "name": "role",
          "type": "bytes32"
        },
        {
          "indexed": true,
          "internalType": "address",
          "name": "account",
          "type": "address"
        },
        {
          "indexed": true,
          "internalType": "address",
          "name": "sender",
          "type": "address"
        }
      ],
      "name": "RoleRevoked",
      "type": "event"
    },
    {
      "anonymous": false,
      "inputs": [
        {
          "indexed": true,
          "internalType": "address",
          "name": "creator",
          "type": "address"
        },
        {
          "indexed": false,
          "internalType": "bool",
          "name": "suspended",
          "type": "bool"
        }
      ],
      "name": "SuspendedCreator",
      "type": "event"
    },
    {
      "anonymous": false,
      "inputs": [
        {
          "indexed": true,
          "internalType": "address",
          "name": "operator",
          "type": "address"
        },
        {
          "indexed": true,
          "internalType": "address",
          "name": "from",
          "type": "address"
        },
        {
          "indexed": true,
          "internalType": "address",
          "name": "to",
          "type": "address"
        },
        {
          "indexed": false,
          "internalType": "uint256[]",
          "name": "ids",
          "type": "uint256[]"
        },
        {
          "indexed": false,
          "internalType": "uint256[]",
          "name": "values",
          "type": "uint256[]"
        }
      ],
      "name": "TransferBatch",
      "type": "event"
    },
    {
      "anonymous": false,
      "inputs": [
        {
          "indexed": true,
          "internalType": "address",
          "name": "operator",
          "type": "address"
        },
        {
          "indexed": true,
          "internalType": "address",
          "name": "from",
          "type": "address"
        },
        {
          "indexed": true,
          "internalType": "address",
          "name": "to",
          "type": "address"
        },
        {
          "indexed": false,
          "internalType": "uint256",
          "name": "id",
          "type": "uint256"
        },
        {
          "indexed": false,
          "internalType": "uint256",
          "name": "value",
          "type": "uint256"
        }
      ],
      "name": "TransferSingle",
      "type": "event"
    },
    {
      "anonymous": false,
      "inputs": [
        {
          "indexed": false,
          "internalType": "string",
          "name": "value",
          "type": "string"
        },
        {
          "indexed": true,
          "internalType": "uint256",
          "name": "id",
          "type": "uint256"
        }
      ],
      "name": "URI",
      "type": "event"
    },
    {
      "anonymous": false,
      "inputs": [
        {
          "indexed": false,
          "internalType": "address",
          "name": "account",
          "type": "address"
        }
      ],
      "name": "Unpaused",
      "type": "event"
    },
    {
      "anonymous": false,
      "inputs": [
        {
          "indexed": true,
          "internalType": "address",
          "name": "creator",
          "type": "address"
        },
        {
          "indexed": false,
          "internalType": "string",
          "name": "metadata",
          "type": "string"
        }
      ],
      "name": "UpdatedCreatorMetadata",
      "type": "event"
    },
    {
      "anonymous": false,
      "inputs": [
        {
          "indexed": true,
          "internalType": "address",
          "name": "implementation",
          "type": "address"
        }
      ],
      "name": "Upgraded",
      "type": "event"
    },
    {
      "inputs": [],
      "name": "DEFAULT_ADMIN_ROLE",
      "outputs": [
        {
          "internalType": "bytes32",
          "name": "",
          "type": "bytes32"
        }
      ],
      "stateMutability": "view",
      "type": "function"
    },
    {
      "inputs": [],
      "name": "FEE_COLLECTOR_ROLE",
      "outputs": [
        {
          "internalType": "bytes32",
          "name": "",
          "type": "bytes32"
        }
      ],
      "stateMutability": "view",
      "type": "function"
    },
    {
      "inputs": [],
      "name": "MINTER_ROLE",
      "outputs": [
        {
          "internalType": "bytes32",
          "name": "",
          "type": "bytes32"
        }
      ],
      "stateMutability": "view",
      "type": "function"
    },
    {
      "inputs": [],
      "name": "PAUSER_ROLE",
      "outputs": [
        {
          "internalType": "bytes32",
          "name": "",
          "type": "bytes32"
        }
      ],
      "stateMutability": "view",
      "type": "function"
    },
    {
      "inputs": [],
      "name": "UPGRADER_ROLE",
      "outputs": [
        {
          "internalType": "bytes32",
          "name": "",
          "type": "bytes32"
        }
      ],
      "stateMutability": "view",
      "type": "function"
    },
    {
      "inputs": [],
      "name": "URI_SETTER_ROLE",
      "outputs": [
        {
          "internalType": "bytes32",
          "name": "",
          "type": "bytes32"
        }
      ],
      "stateMutability": "view",
      "type": "function"
    },
    {
      "inputs": [
        {
          "internalType": "uint256",
          "name": "",
          "type": "uint256"
        }
      ],
      "name": "badge",
      "outputs": [
        {
          "internalType": "uint256",
          "name": "badgeModelId",
          "type": "uint256"
        },
        {
          "internalType": "address",
          "name": "account",
          "type": "address"
        },
        {
          "internalType": "uint256",
          "name": "dueDate",
          "type": "uint256"
        }
      ],
      "stateMutability": "view",
      "type": "function"
    },
    {
      "inputs": [
        {
          "internalType": "uint256",
          "name": "",
          "type": "uint256"
        }
      ],
      "name": "badgeModel",
      "outputs": [
        {
          "internalType": "address",
          "name": "creator",
          "type": "address"
        },
        {
          "internalType": "string",
          "name": "controllerName",
          "type": "string"
        },
        {
          "internalType": "bool",
          "name": "paused",
          "type": "bool"
        },
        {
          "internalType": "uint256",
          "name": "mintCreatorFee",
          "type": "uint256"
        },
        {
          "internalType": "uint256",
          "name": "validFor",
          "type": "uint256"
        },
        {
          "internalType": "uint256",
          "name": "mintProtocolFee",
          "type": "uint256"
        }
      ],
      "stateMutability": "view",
      "type": "function"
    },
    {
      "inputs": [
        {
          "internalType": "string",
          "name": "",
          "type": "string"
        }
      ],
      "name": "badgeModelController",
      "outputs": [
        {
          "internalType": "address",
          "name": "controller",
          "type": "address"
        },
        {
          "internalType": "bool",
          "name": "paused",
          "type": "bool"
        }
      ],
      "stateMutability": "view",
      "type": "function"
    },
    {
      "inputs": [
        {
          "internalType": "uint256",
          "name": "",
          "type": "uint256"
        },
        {
          "internalType": "address",
          "name": "",
          "type": "address"
        },
        {
          "internalType": "uint256",
          "name": "",
          "type": "uint256"
        }
      ],
      "name": "badgeModelsByAccount",
      "outputs": [
        {
          "internalType": "uint256",
          "name": "",
          "type": "uint256"
        }
      ],
      "stateMutability": "view",
      "type": "function"
    },
    {
      "inputs": [
        {
          "internalType": "address",
          "name": "account",
          "type": "address"
        },
        {
          "internalType": "uint256",
          "name": "badgeId",
          "type": "uint256"
        }
      ],
      "name": "balanceOf",
      "outputs": [
        {
          "internalType": "uint256",
          "name": "",
          "type": "uint256"
        }
      ],
      "stateMutability": "view",
      "type": "function"
    },
    {
      "inputs": [
        {
          "internalType": "address",
          "name": "account",
          "type": "address"
        },
        {
          "internalType": "uint256",
          "name": "badgeModelId",
          "type": "uint256"
        }
      ],
      "name": "balanceOfBadgeModel",
      "outputs": [
        {
          "internalType": "uint256",
          "name": "",
          "type": "uint256"
        }
      ],
      "stateMutability": "view",
      "type": "function"
    },
    {
      "inputs": [
        {
          "internalType": "address[]",
          "name": "accounts",
          "type": "address[]"
        },
        {
          "internalType": "uint256[]",
          "name": "ids",
          "type": "uint256[]"
        }
      ],
      "name": "balanceOfBatch",
      "outputs": [
        {
          "internalType": "uint256[]",
          "name": "",
          "type": "uint256[]"
        }
      ],
      "stateMutability": "view",
      "type": "function"
    },
    {
      "inputs": [
        {
          "components": [
            {
              "internalType": "string",
              "name": "metadata",
              "type": "string"
            },
            {
              "internalType": "string",
              "name": "controllerName",
              "type": "string"
            },
            {
              "internalType": "uint256",
              "name": "mintCreatorFee",
              "type": "uint256"
            },
            {
              "internalType": "uint256",
              "name": "validFor",
              "type": "uint256"
            }
          ],
          "internalType": "struct TheBadgeStore.CreateBadgeModel",
          "name": "args",
          "type": "tuple"
        },
        {
          "internalType": "bytes",
          "name": "data",
          "type": "bytes"
        }
      ],
      "name": "createBadgeModel",
      "outputs": [],
      "stateMutability": "payable",
      "type": "function"
    },
    {
      "inputs": [],
      "name": "createBadgeModelProtocolFee",
      "outputs": [
        {
          "internalType": "uint256",
          "name": "",
          "type": "uint256"
        }
      ],
      "stateMutability": "view",
      "type": "function"
    },
    {
      "inputs": [
        {
          "internalType": "address",
          "name": "",
          "type": "address"
        }
      ],
      "name": "creators",
      "outputs": [
        {
          "internalType": "string",
          "name": "metadata",
          "type": "string"
        }
      ],
      "stateMutability": "view",
      "type": "function"
    },
    {
      "inputs": [],
      "name": "feeCollector",
      "outputs": [
        {
          "internalType": "address",
          "name": "",
          "type": "address"
        }
      ],
      "stateMutability": "view",
      "type": "function"
    },
    {
      "inputs": [
        {
          "internalType": "bytes32",
          "name": "role",
          "type": "bytes32"
        }
      ],
      "name": "getRoleAdmin",
      "outputs": [
        {
          "internalType": "bytes32",
          "name": "",
          "type": "bytes32"
        }
      ],
      "stateMutability": "view",
      "type": "function"
    },
    {
      "inputs": [
        {
          "internalType": "bytes32",
          "name": "role",
          "type": "bytes32"
        },
        {
          "internalType": "address",
          "name": "account",
          "type": "address"
        }
      ],
      "name": "grantRole",
      "outputs": [],
      "stateMutability": "nonpayable",
      "type": "function"
    },
    {
      "inputs": [
        {
          "internalType": "bytes32",
          "name": "role",
          "type": "bytes32"
        },
        {
          "internalType": "address",
          "name": "account",
          "type": "address"
        }
      ],
      "name": "hasRole",
      "outputs": [
        {
          "internalType": "bool",
          "name": "",
          "type": "bool"
        }
      ],
      "stateMutability": "view",
      "type": "function"
    },
    {
      "inputs": [
        {
          "internalType": "address",
          "name": "admin",
          "type": "address"
        },
        {
          "internalType": "address",
          "name": "_feeCollector",
          "type": "address"
        },
        {
          "internalType": "address",
          "name": "minter",
          "type": "address"
        }
      ],
      "name": "initialize",
      "outputs": [],
      "stateMutability": "nonpayable",
      "type": "function"
    },
    {
      "inputs": [
        {
          "internalType": "address",
          "name": "account",
          "type": "address"
        },
        {
          "internalType": "address",
          "name": "operator",
          "type": "address"
        }
      ],
      "name": "isApprovedForAll",
      "outputs": [
        {
          "internalType": "bool",
          "name": "",
          "type": "bool"
        }
      ],
      "stateMutability": "view",
      "type": "function"
    },
    {
      "inputs": [
        {
          "internalType": "uint256",
          "name": "badgeModelId",
          "type": "uint256"
        },
        {
          "internalType": "address",
          "name": "account",
          "type": "address"
        },
        {
          "internalType": "string",
          "name": "tokenURI",
          "type": "string"
        },
        {
          "internalType": "bytes",
          "name": "data",
          "type": "bytes"
        }
      ],
      "name": "mint",
      "outputs": [],
      "stateMutability": "payable",
      "type": "function"
    },
    {
      "inputs": [],
      "name": "mintBadgeProtocolDefaultFeeInBps",
      "outputs": [
        {
          "internalType": "uint256",
          "name": "",
          "type": "uint256"
        }
      ],
      "stateMutability": "view",
      "type": "function"
    },
    {
      "inputs": [
        {
          "internalType": "uint256",
          "name": "badgeModelId",
          "type": "uint256"
        }
      ],
      "name": "mintValue",
      "outputs": [
        {
          "internalType": "uint256",
          "name": "",
          "type": "uint256"
        }
      ],
      "stateMutability": "view",
      "type": "function"
    },
    {
      "inputs": [],
      "name": "pause",
      "outputs": [],
      "stateMutability": "nonpayable",
      "type": "function"
    },
    {
      "inputs": [],
      "name": "paused",
      "outputs": [
        {
          "internalType": "bool",
          "name": "",
          "type": "bool"
        }
      ],
      "stateMutability": "view",
      "type": "function"
    },
    {
      "inputs": [],
      "name": "proxiableUUID",
      "outputs": [
        {
          "internalType": "bytes32",
          "name": "",
          "type": "bytes32"
        }
      ],
      "stateMutability": "view",
      "type": "function"
    },
    {
      "inputs": [
        {
          "internalType": "string",
          "name": "_metadata",
          "type": "string"
        }
      ],
      "name": "registerBadgeModelCreator",
      "outputs": [],
      "stateMutability": "payable",
      "type": "function"
    },
    {
      "inputs": [],
      "name": "registerCreatorProtocolFee",
      "outputs": [
        {
          "internalType": "uint256",
          "name": "",
          "type": "uint256"
        }
      ],
      "stateMutability": "view",
      "type": "function"
    },
    {
      "inputs": [],
      "name": "removeBadgeModelCreator",
      "outputs": [],
      "stateMutability": "view",
      "type": "function"
    },
    {
      "inputs": [
        {
          "internalType": "bytes32",
          "name": "role",
          "type": "bytes32"
        },
        {
          "internalType": "address",
          "name": "account",
          "type": "address"
        }
      ],
      "name": "renounceRole",
      "outputs": [],
      "stateMutability": "nonpayable",
      "type": "function"
    },
    {
      "inputs": [
        {
          "internalType": "bytes32",
          "name": "role",
          "type": "bytes32"
        },
        {
          "internalType": "address",
          "name": "account",
          "type": "address"
        }
      ],
      "name": "revokeRole",
      "outputs": [],
      "stateMutability": "nonpayable",
      "type": "function"
    },
    {
      "inputs": [
        {
          "internalType": "address",
          "name": "from",
          "type": "address"
        },
        {
          "internalType": "address",
          "name": "to",
          "type": "address"
        },
        {
          "internalType": "uint256[]",
          "name": "ids",
          "type": "uint256[]"
        },
        {
          "internalType": "uint256[]",
          "name": "amounts",
          "type": "uint256[]"
        },
        {
          "internalType": "bytes",
          "name": "data",
          "type": "bytes"
        }
      ],
      "name": "safeBatchTransferFrom",
      "outputs": [],
      "stateMutability": "nonpayable",
      "type": "function"
    },
    {
      "inputs": [
        {
          "internalType": "address",
          "name": "from",
          "type": "address"
        },
        {
          "internalType": "address",
          "name": "to",
          "type": "address"
        },
        {
          "internalType": "uint256",
          "name": "id",
          "type": "uint256"
        },
        {
          "internalType": "uint256",
          "name": "amount",
          "type": "uint256"
        },
        {
          "internalType": "bytes",
          "name": "data",
          "type": "bytes"
        }
      ],
      "name": "safeTransferFrom",
      "outputs": [],
      "stateMutability": "nonpayable",
      "type": "function"
    },
    {
      "inputs": [
        {
          "internalType": "address",
          "name": "operator",
          "type": "address"
        },
        {
          "internalType": "bool",
          "name": "approved",
          "type": "bool"
        }
      ],
      "name": "setApprovalForAll",
      "outputs": [],
      "stateMutability": "nonpayable",
      "type": "function"
    },
    {
      "inputs": [
        {
          "internalType": "string",
          "name": "controllerName",
          "type": "string"
        },
        {
          "internalType": "address",
          "name": "controllerAddress",
          "type": "address"
        }
      ],
      "name": "setBadgeModelController",
      "outputs": [],
      "stateMutability": "nonpayable",
      "type": "function"
    },
    {
      "inputs": [
        {
          "internalType": "bytes4",
          "name": "interfaceId",
          "type": "bytes4"
        }
      ],
      "name": "supportsInterface",
      "outputs": [
        {
          "internalType": "bool",
          "name": "",
          "type": "bool"
        }
      ],
      "stateMutability": "view",
      "type": "function"
    },
    {
      "inputs": [],
      "name": "suspendBadgeModel",
      "outputs": [],
      "stateMutability": "view",
      "type": "function"
    },
    {
      "inputs": [],
      "name": "suspendBadgeModelCreator",
      "outputs": [],
      "stateMutability": "view",
      "type": "function"
    },
    {
      "inputs": [],
      "name": "unpause",
      "outputs": [],
      "stateMutability": "nonpayable",
      "type": "function"
    },
    {
      "inputs": [
        {
          "internalType": "uint256",
          "name": "badgeModelId",
          "type": "uint256"
        },
        {
          "internalType": "uint256",
          "name": "mintCreatorFee",
          "type": "uint256"
        },
        {
          "internalType": "uint256",
          "name": "validFor",
          "type": "uint256"
        },
        {
          "internalType": "bool",
          "name": "paused",
          "type": "bool"
        }
      ],
      "name": "updateBadgeModel",
      "outputs": [],
      "stateMutability": "nonpayable",
      "type": "function"
    },
    {
      "inputs": [
        {
          "internalType": "address",
          "name": "_creator",
          "type": "address"
        },
        {
          "internalType": "string",
          "name": "_metadata",
          "type": "string"
        }
      ],
      "name": "updateBadgeModelCreator",
      "outputs": [],
      "stateMutability": "nonpayable",
      "type": "function"
    },
    {
      "inputs": [
        {
          "internalType": "uint256",
          "name": "badgeModelId",
          "type": "uint256"
        },
        {
          "internalType": "uint256",
          "name": "feeInBps",
          "type": "uint256"
        }
      ],
      "name": "updateBadgeModelFee",
      "outputs": [],
      "stateMutability": "nonpayable",
      "type": "function"
    },
    {
      "inputs": [
        {
          "internalType": "uint256",
          "name": "_mintBadgeDefaultFee",
          "type": "uint256"
        },
        {
          "internalType": "uint256",
          "name": "_createBadgeModelValue",
          "type": "uint256"
        },
        {
          "internalType": "uint256",
          "name": "_registerCreatorValue",
          "type": "uint256"
        }
      ],
      "name": "updateProtocolValues",
      "outputs": [],
      "stateMutability": "nonpayable",
      "type": "function"
    },
    {
      "inputs": [
        {
          "internalType": "address",
          "name": "newImplementation",
          "type": "address"
        }
      ],
      "name": "upgradeTo",
      "outputs": [],
      "stateMutability": "nonpayable",
      "type": "function"
    },
    {
      "inputs": [
        {
          "internalType": "address",
          "name": "newImplementation",
          "type": "address"
        },
        {
          "internalType": "bytes",
          "name": "data",
          "type": "bytes"
        }
      ],
      "name": "upgradeToAndCall",
      "outputs": [],
      "stateMutability": "payable",
      "type": "function"
    },
    {
      "inputs": [
        {
          "internalType": "uint256",
          "name": "badgeId",
          "type": "uint256"
        }
      ],
      "name": "uri",
      "outputs": [
        {
          "internalType": "string",
          "name": "",
          "type": "string"
        }
      ],
      "stateMutability": "view",
      "type": "function"
    },
    {
      "stateMutability": "payable",
      "type": "receive"
    }
  ],
  "bytecode": "0x60a0604052306080523480156200001557600080fd5b506200002062000026565b620000e8565b600054610100900460ff1615620000935760405162461bcd60e51b815260206004820152602760248201527f496e697469616c697a61626c653a20636f6e747261637420697320696e697469604482015266616c697a696e6760c81b606482015260840160405180910390fd5b60005460ff9081161015620000e6576000805460ff191660ff9081179091556040519081527f7f26b83ff96e1f2b6a682f133852f6798a09c465da95921460cefb38474024989060200160405180910390a15b565b60805161468b6200012060003960008181610d5d01528181610d9d015281816112120152818161125201526113ae015261468b6000f3fe6080604052600436106102965760003560e01c80637f3457101161015a578063c1d18840116100c1578063e63ab1e91161007a578063e63ab1e914610861578063e985e9c514610883578063f242432a146108cc578063f72c0d8b146108ec578063f911fdfb14610920578063fb71a9d51461094057600080fd5b8063c1d188401461078e578063c415b95c146107a1578063c9e4eba1146107da578063cb22dfcb146107ed578063d53913931461080d578063d547741f1461084157600080fd5b8063a22cb46511610113578063a22cb46514610638578063a9710d9a14610658578063b70029bd14610678578063c00c50bf146106e5578063c0c53b8b14610705578063c0f6faed1461072557600080fd5b80637f34571014610587578063828efb25146105bb5780638456cb59146105ce57806391d14854146105e3578063933166e114610603578063a217fddf1461062357600080fd5b806346c45758116101fe57806352d1902d116101b757806352d1902d146104ef57806357f8188f146104315780635c975abb1461050457806362a2a47c1461051c578063632f7c831461055057806364d8baef1461057057600080fd5b806346c457581461044657806349e558ae146104315780634e1273f4146104665780634e5eceae146104935780634f1ef286146104aa5780634fe85ac1146104bd57600080fd5b80632f2ff15d116102505780632f2ff15d1461039c57806334d1a4dd146103bc57806336568abe146103dc5780633659cfe6146103fc5780633f4ba83a1461041c57806341954e091461043157600080fd5b8062fdd58e146102a257806301ffc9a7146102d55780630e89341c14610305578063248a9ca31461033257806327096c46146103635780632eb2c2d61461037a57600080fd5b3661029d57005b600080fd5b3480156102ae57600080fd5b506102c26102bd3660046135ae565b610960565b6040519081526020015b60405180910390f35b3480156102e157600080fd5b506102f56102f03660046135ee565b610b85565b60405190151581526020016102cc565b34801561031157600080fd5b5061032561032036600461360b565b610b90565b6040516102cc9190613674565b34801561033e57600080fd5b506102c261034d36600461360b565b600090815261015f602052604090206001015490565b34801561036f57600080fd5b506102c26101935481565b34801561038657600080fd5b5061039a6103953660046137f5565b610b9b565b005b3480156103a857600080fd5b5061039a6103b736600461389e565b610bf0565b3480156103c857600080fd5b5061039a6103d73660046138d8565b610c1b565b3480156103e857600080fd5b5061039a6103f736600461389e565b610cd5565b34801561040857600080fd5b5061039a610417366004613919565b610d53565b34801561042857600080fd5b5061039a610e32565b34801561043d57600080fd5b5061039a610e52565b34801561045257600080fd5b506102c26104613660046135ae565b610e76565b34801561047257600080fd5b50610486610481366004613934565b6110df565b6040516102cc9190613a39565b34801561049f57600080fd5b506102c26101955481565b61039a6104b8366004613a4c565b611208565b3480156104c957600080fd5b506104dd6104d836600461360b565b6112d4565b6040516102cc96959493929190613a8f565b3480156104fb57600080fd5b506102c26113a1565b34801561051057600080fd5b5060c95460ff166102f5565b34801561052857600080fd5b506102c27f2dca0f5ce7e75a4b43fe2b0d6f5d0b7a2bf92ecf89f8f0aa17b8308b6703882181565b34801561055c57600080fd5b506102c261056b36600461360b565b611455565b34801561057c57600080fd5b506102c26101945481565b34801561059357600080fd5b506102c27f7804d923f43a17d325d77e781528e0793b2edd9890ab45fc64efd7b4b427744c81565b61039a6105c9366004613ad8565b611515565b3480156105da57600080fd5b5061039a6117c5565b3480156105ef57600080fd5b506102f56105fe36600461389e565b6117e5565b34801561060f57600080fd5b5061032561061e366004613919565b611811565b34801561062f57600080fd5b506102c2600081565b34801561064457600080fd5b5061039a610653366004613b9d565b6118b0565b34801561066457600080fd5b5061039a610673366004613a4c565b6118bb565b34801561068457600080fd5b506106c6610693366004613bd4565b8051602081830181018051610198825292820191909301209152546001600160a01b03811690600160a01b900460ff1682565b604080516001600160a01b0390931683529015156020830152016102cc565b3480156106f157600080fd5b5061039a610700366004613c08565b611969565b34801561071157600080fd5b5061039a610720366004613c34565b6119b5565b34801561073157600080fd5b5061076b61074036600461360b565b61019a6020526000908152604090208054600182015460029092015490916001600160a01b03169083565b604080519384526001600160a01b039092166020840152908201526060016102cc565b61039a61079c366004613c77565b611bca565b3480156107ad57600080fd5b50610196546107c2906001600160a01b031681565b6040516001600160a01b0390911681526020016102cc565b61039a6107e8366004613bd4565b61204b565b3480156107f957600080fd5b506102c2610808366004613cf4565b612137565b34801561081957600080fd5b506102c27f9f2df0fed2c77648de5860a4cc508cd0818c85b8b8a1ab4ceeef8d981c8956a681565b34801561084d57600080fd5b5061039a61085c36600461389e565b612176565b34801561086d57600080fd5b506102c260008051602061460f83398151915281565b34801561088f57600080fd5b506102f561089e366004613d29565b6001600160a01b03918216600090815260666020908152604080832093909416825291909152205460ff1690565b3480156108d857600080fd5b5061039a6108e7366004613d53565b61219c565b3480156108f857600080fd5b506102c27f189ab7a9244df0848122154315af71fe140f3db0fe014031783b0946b8c9d2e381565b34801561092c57600080fd5b5061039a61093b366004613db7565b6121e1565b34801561094c57600080fd5b5061039a61095b366004613dfb565b6122f7565b600081815261019a602090815260408083208151606081018352815480825260018301546001600160a01b031694820194909452600290910154918101919091529015806109c45750836001600160a01b031681602001516001600160a01b031614155b156109d3576000915050610b7f565b8051600090815261019960209081526040808320815160c0810190925280546001600160a01b031682526001810180549293919291840191610a1490613e1d565b80601f0160208091040260200160405190810160405280929190818152602001828054610a4090613e1d565b8015610a8d5780601f10610a6257610100808354040283529160200191610a8d565b820191906000526020600020905b815481529060010190602001808311610a7057829003601f168201915b505050505081526020016002820160009054906101000a900460ff161515151581526020016003820154815260200160048201548152602001600582015481525050905060006101988260200151604051610ae89190613e57565b90815260405190819003602001812054631174806160e11b82526001600160a01b0316915081906322e900c290610b2790889060040190815260200190565b602060405180830381865afa158015610b44573d6000803e3d6000fd5b505050506040513d601f19601f82011682018060405250810190610b689190613e73565b610b73576000610b76565b60015b60ff1693505050505b92915050565b6000610b7f82612372565b6060610b7f82612397565b6001600160a01b038516331480610bb75750610bb7853361089e565b610bdc5760405162461bcd60e51b8152600401610bd390613e90565b60405180910390fd5b610be98585858585612477565b5050505050565b600082815261015f6020526040902060010154610c0c81612665565b610c16838361266f565b505050565b60008481526101996020526040902080546001600160a01b0316610c5257604051638fa97ef960e01b815260040160405180910390fd5b80546001600160a01b0316336001600160a01b031614610c855760405163806ecc4960e01b815260040160405180910390fd5b600381018490556004810183905560028101805460ff191683151517905560405185907fc7fe3866a4edc843062ecfa12604d4a6686605fb2bd8a2323d96dc40c08d9e3d90600090a25050505050565b6001600160a01b0381163314610d455760405162461bcd60e51b815260206004820152602f60248201527f416363657373436f6e74726f6c3a2063616e206f6e6c792072656e6f756e636560448201526e103937b632b9903337b91039b2b63360891b6064820152608401610bd3565b610d4f82826126f6565b5050565b6001600160a01b037f0000000000000000000000000000000000000000000000000000000000000000163003610d9b5760405162461bcd60e51b8152600401610bd390613ede565b7f00000000000000000000000000000000000000000000000000000000000000006001600160a01b0316610de46000805160206145ef833981519152546001600160a01b031690565b6001600160a01b031614610e0a5760405162461bcd60e51b8152600401610bd390613f2a565b610e138161275e565b60408051600080825260208201909252610e2f91839190612788565b50565b60008051602061460f833981519152610e4a81612665565b610e2f6128f3565b6000610e5d81612665565b60405163aaa2c00360e01b815260040160405180910390fd5b600081815261019b602090815260408083206001600160a01b03861684529091528120548103610ea857506000610b7f565b600082815261019960209081526040808320815160c0810190925280546001600160a01b031682526001810180549293919291840191610ee790613e1d565b80601f0160208091040260200160405190810160405280929190818152602001828054610f1390613e1d565b8015610f605780601f10610f3557610100808354040283529160200191610f60565b820191906000526020600020905b815481529060010190602001808311610f4357829003601f168201915b505050505081526020016002820160009054906101000a900460ff161515151581526020016003820154815260200160048201548152602001600582015481525050905060006101988260200151604051610fbb9190613e57565b908152604051908190036020019020546001600160a01b031690506000805b600086815261019b602090815260408083206001600160a01b038b1684529091529020548110156110d557600086815261019b602090815260408083206001600160a01b038b8116855292529091208054918516916322e900c291908490811061104657611046613f76565b90600052602060002001546040518263ffffffff1660e01b815260040161106f91815260200190565b602060405180830381865afa15801561108c573d6000803e3d6000fd5b505050506040513d601f19601f820116820180604052508101906110b09190613e73565b156110c357816110bf81613fa2565b9250505b806110cd81613fa2565b915050610fda565b5095945050505050565b606081518351146111445760405162461bcd60e51b815260206004820152602960248201527f455243313135353a206163636f756e747320616e6420696473206c656e677468604482015268040dad2e6dac2e8c6d60bb1b6064820152608401610bd3565b600083516001600160401b0381111561115f5761115f613687565b604051908082528060200260200182016040528015611188578160200160208202803683370190505b50905060005b8451811015611200576111d38582815181106111ac576111ac613f76565b60200260200101518583815181106111c6576111c6613f76565b6020026020010151610960565b8282815181106111e5576111e5613f76565b60209081029190910101526111f981613fa2565b905061118e565b509392505050565b6001600160a01b037f00000000000000000000000000000000000000000000000000000000000000001630036112505760405162461bcd60e51b8152600401610bd390613ede565b7f00000000000000000000000000000000000000000000000000000000000000006001600160a01b03166112996000805160206145ef833981519152546001600160a01b031690565b6001600160a01b0316146112bf5760405162461bcd60e51b8152600401610bd390613f2a565b6112c88261275e565b610d4f82826001612788565b61019960205260009081526040902080546001820180546001600160a01b03909216929161130190613e1d565b80601f016020809104026020016040519081016040528092919081815260200182805461132d90613e1d565b801561137a5780601f1061134f5761010080835404028352916020019161137a565b820191906000526020600020905b81548152906001019060200180831161135d57829003601f168201915b50505050600283015460038401546004850154600590950154939460ff9092169390925086565b6000306001600160a01b037f000000000000000000000000000000000000000000000000000000000000000016146114415760405162461bcd60e51b815260206004820152603860248201527f555550535570677261646561626c653a206d757374206e6f742062652063616c60448201527f6c6564207468726f7567682064656c656761746563616c6c00000000000000006064820152608401610bd3565b506000805160206145ef8339815191525b90565b60008181526101996020526040808220905182906101989061147b90600185019061402e565b90815260405190819003602001812054600384015463632f7c8360e01b83526001600160a01b03909116925090829063632f7c83906114c290889060040190815260200190565b602060405180830381865afa1580156114df573d6000803e3d6000fd5b505050506040513d601f19601f82011682018060405250810190611503919061403a565b61150d9190614053565b949350505050565b336000908152610197602052604090208054819061153290613e1d565b905060000361155457604051638fcc03fd60e01b815260040160405180910390fd5b6101945434146115775760405163043f7a7d60e21b815260040160405180910390fd5b6000610198846020015160405161158e9190613e57565b90815260405190819003602001902080549091506001600160a01b03166115c8576040516323be546760e01b815260040160405180910390fd5b8054600160a01b900460ff16156115f257604051630d70501560e11b815260040160405180910390fd5b341561163457610196546040516001600160a01b03909116903480156108fc02916000818181858888f19350505050158015611632573d6000803e3d6000fd5b505b6040518060c001604052806116463390565b6001600160a01b031681526020018560200151815260200160001515815260200185604001518152602001856060015181526020016101955481525061019960006116916101915490565b8152602080820192909252604001600020825181546001600160a01b0319166001600160a01b039091161781559082015160018201906116d190826140ac565b50604082015160028201805460ff1916911515919091179055606082015160038201556080820151600482015560a0909101516005909101556101915484516040517f584274d31df3e2cf85a9d6dfaf82b219994725ca486f214ef93fbec2d054dca09161173e91613674565b60405180910390a280546001600160a01b03166377a3989e6117606101915490565b856040518363ffffffff1660e01b815260040161177e92919061416b565b600060405180830381600087803b15801561179857600080fd5b505af11580156117ac573d6000803e3d6000fd5b505050506117bf61019180546001019055565b50505050565b60008051602061460f8339815191526117dd81612665565b610e2f612945565b600091825261015f602090815260408084206001600160a01b0393909316845291905290205460ff1690565b6101976020526000908152604090208054819061182d90613e1d565b80601f016020809104026020016040519081016040528092919081815260200182805461185990613e1d565b80156118a65780601f1061187b576101008083540402835291602001916118a6565b820191906000526020600020905b81548152906001019060200180831161188957829003601f168201915b5050505050905081565b610d4f338383612982565b60006118c681612665565b6001600160a01b038316600090815261019760205260409020805481906118ec90613e1d565b905060000361190e57604051637bc3ac5560e11b815260040160405180910390fd5b825115611922578061192084826140ac565b505b836001600160a01b03167f5b12b24c4622e8e6af38c1749b1261965b5098a96fb4b4cfb6075eb20c77fc588460405161195b9190613674565b60405180910390a250505050565b600061197481612665565b6101958490556101948390556101938290556040517f810f1720fbc34c56d171f89315ad21708648fd17424c27b88fa208409845aa7790600090a150505050565b600054610100900460ff16158080156119d55750600054600160ff909116105b806119ef5750303b1580156119ef575060005460ff166001145b611a525760405162461bcd60e51b815260206004820152602e60248201527f496e697469616c697a61626c653a20636f6e747261637420697320616c72656160448201526d191e481a5b9a5d1a585b1a5e995960921b6064820152608401610bd3565b6000805460ff191660011790558015611a75576000805461ff0019166101001790555b611a8d6040518060200160405280600081525061299b565b611a956129cb565b611a9d6129f4565b611aa56129cb565b611ab060008561266f565b611ac860008051602061460f8339815191523361266f565b611af27f9f2df0fed2c77648de5860a4cc508cd0818c85b8b8a1ab4ceeef8d981c8956a68361266f565b611b1c7f189ab7a9244df0848122154315af71fe140f3db0fe014031783b0946b8c9d2e33361266f565b61019680546001600160a01b0319166001600160a01b038581169190911790915560006101938190556101948190556103e861019555604051848316928716917fdc90fed0326ba91706deeac7eb34ac9f8b680734f9d782864dc29704d23bed6a91a380156117bf576000805461ff0019169055604051600181527f7f26b83ff96e1f2b6a682f133852f6798a09c465da95921460cefb38474024989060200160405180910390a150505050565b60008481526101996020526040808220905190919061019890611bf190600185019061402e565b90815260200160405180910390209050600061019883600101604051611c17919061402e565b9081526040519081900360200190205483546001600160a01b03918216925016611c54576040516385a6706360e01b815260040160405180910390fd5b611c5d87611455565b341015611c7d576040516393fda7e360e01b815260040160405180910390fd5b600283015460ff1615611ca357604051635d71fd6f60e01b815260040160405180910390fd5b8154600160a01b900460ff1615611ccd57604051631bd063c360e01b815260040160405180910390fd5b600383015415611ed9576000611ceb84600301548560050154612a23565b90506000818560030154611cff9190614184565b610196546040519192506000916001600160a01b039091169084908381818185875af1925050503d8060008114611d52576040519150601f19603f3d011682016040523d82523d6000602084013e611d57565b606091505b5050905080611da85760405162461bcd60e51b815260206004820152601b60248201527f4661696c656420746f207061792070726f746f636f6c206665657300000000006044820152606401610bd3565b896000610196546040518681526001600160a01b03909116907fd18793644b4cb4ec0f937f8153dc09112d762775084c0ae5b4c21a7b91f6909f9060200160405180910390a485546040516000916001600160a01b03169084908381818185875af1925050503d8060008114611e3a576040519150601f19603f3d011682016040523d82523d6000602084013e611e3f565b606091505b5050905080611e905760405162461bcd60e51b815260206004820152601a60248201527f4661696c656420746f207061792063726561746f7220666565730000000000006044820152606401610bd3565b8a600188546040518781526001600160a01b03909116907fd18793644b4cb4ec0f937f8153dc09112d762775084c0ae5b4c21a7b91f6909f9060200160405180910390a4505050505b6000611ee56101925490565b9050611ef18187612a54565b611f188782600160405180604001604052806002815260200161060f60f31b815250612aa5565b60008460040154600014611f3a576004850154611f359042614053565b611f3d565b60005b604080516060810182528b81526001600160a01b038b8116602080840182815284860187815260008a815261019a8452878120965187559151600180880180546001600160a01b0319169288169290921790915590516002909601959095558f815261019b82528581209281529181529381208054938401815581529290922001849055600387015491925084169063731133e990611fdc9034614184565b338c868b6040518663ffffffff1660e01b8152600401611fff9493929190614197565b6000604051808303818588803b15801561201857600080fd5b505af115801561202c573d6000803e3d6000fd5b505050505061204061019280546001019055565b505050505050505050565b61019354341461206e5760405163045801c760e31b815260040160405180910390fd5b34156120b057610196546040516001600160a01b03909116903480156108fc02916000818181858888f193505050501580156120ae573d6000803e3d6000fd5b505b33600090815261019760205260409020805481906120cd90613e1d565b1590506120ed57604051633b46b81f60e21b815260040160405180910390fd5b806120f883826140ac565b5060405133907f436a110767b6510e398091d7e698dbc3a574692ec743e8e40f4fb1ccefc00fc89061212b9084906141ce565b60405180910390a25050565b61019b602052826000526040600020602052816000526040600020818154811061216057600080fd5b9060005260206000200160009250925050505481565b600082815261015f602052604090206001015461219281612665565b610c1683836126f6565b6001600160a01b0385163314806121b857506121b8853361089e565b6121d45760405162461bcd60e51b8152600401610bd390613e90565b610be98585858585612bca565b60006121ec81612665565b6000610198846040516121ff9190613e57565b9081526020016040518091039020905083516000036122315760405163a8d052f160e01b815260040160405180910390fd5b6001600160a01b0383166122585760405163278e974f60e01b815260040160405180910390fd5b80546001600160a01b03161561228157604051631c783ddb60e01b815260040160405180910390fd5b6040805180820182526001600160a01b0385168152600060208201529051610198906122ae908790613e57565b908152604051602091819003820190208251815493909201516001600160a01b039092166001600160a81b031990931692909217600160a01b9115159190910217905550505050565b600061230281612665565b60008381526101996020526040902080546001600160a01b03166123395760405163e81a0a5560e01b815260040160405180910390fd5b6005810183905560405183815284907f897164bdb6d8ca3f923345d02b5a56e8908961ca8cf15e0c67d1c1dee7f22a829060200161195b565b60006001600160e01b03198216637965db0b60e01b1480610b7f5750610b7f82612cfb565b6000818152609860205260408120805460609291906123b590613e1d565b80601f01602080910402602001604051908101604052809291908181526020018280546123e190613e1d565b801561242e5780601f106124035761010080835404028352916020019161242e565b820191906000526020600020905b81548152906001019060200180831161241157829003601f168201915b50505050509050600081511161244c5761244783612d4b565b612470565b609781604051602001612460929190614259565b6040516020818303038152906040525b9392505050565b81518351146124d95760405162461bcd60e51b815260206004820152602860248201527f455243313135353a2069647320616e6420616d6f756e7473206c656e677468206044820152670dad2e6dac2e8c6d60c31b6064820152608401610bd3565b6001600160a01b0384166124ff5760405162461bcd60e51b8152600401610bd39061427e565b3361250e818787878787612ddf565b60005b84518110156125f757600085828151811061252e5761252e613f76565b60200260200101519050600085838151811061254c5761254c613f76565b60209081029190910181015160008481526065835260408082206001600160a01b038e16835290935291909120549091508181101561259d5760405162461bcd60e51b8152600401610bd3906142c3565b60008381526065602090815260408083206001600160a01b038e8116855292528083208585039055908b168252812080548492906125dc908490614053565b92505081905550505050806125f090613fa2565b9050612511565b50846001600160a01b0316866001600160a01b0316826001600160a01b03167f4a39dc06d4c0dbc64b70af90fd698a233a518aa5d07e595d983b8c0526c8f7fb878760405161264792919061430d565b60405180910390a461265d818787878787612e14565b505050505050565b610e2f8133612f6f565b61267982826117e5565b610d4f57600082815261015f602090815260408083206001600160a01b03851684529091529020805460ff191660011790556126b23390565b6001600160a01b0316816001600160a01b0316837f2f8788117e7eff1d82e926ec794901d17c78024a50270940304540a733656f0d60405160405180910390a45050565b61270082826117e5565b15610d4f57600082815261015f602090815260408083206001600160a01b0385168085529252808320805460ff1916905551339285917ff6391f5c32d9c69d2a47ea670b442974b53935d1edc7fd64eb21e047a839171b9190a45050565b7f189ab7a9244df0848122154315af71fe140f3db0fe014031783b0946b8c9d2e3610d4f81612665565b7f4910fdfa16fed3260ed0e7147f7cc6da11a60208b5b9406d12a635614ffd91435460ff16156127bb57610c1683612fc8565b826001600160a01b03166352d1902d6040518163ffffffff1660e01b8152600401602060405180830381865afa925050508015612815575060408051601f3d908101601f191682019092526128129181019061403a565b60015b6128785760405162461bcd60e51b815260206004820152602e60248201527f45524331393637557067726164653a206e657720696d706c656d656e7461746960448201526d6f6e206973206e6f74205555505360901b6064820152608401610bd3565b6000805160206145ef83398151915281146128e75760405162461bcd60e51b815260206004820152602960248201527f45524331393637557067726164653a20756e737570706f727465642070726f786044820152681a58589b195555525160ba1b6064820152608401610bd3565b50610c16838383613064565b6128fb613089565b60c9805460ff191690557f5db9ee0a495bf2e6ff9c91a7834c1ba4fdd244a5e8aa4e537bd38aeae4b073aa335b6040516001600160a01b03909116815260200160405180910390a1565b61294d6130d2565b60c9805460ff191660011790557f62e78cea01bee320cd4e420270b5ea74000d11b0c9f74754ebdbfc544b05a2586129283390565b6040516305d39ac360e51b815260040160405180910390fd5b600054610100900460ff166129c25760405162461bcd60e51b8152600401610bd390614332565b610e2f81613118565b600054610100900460ff166129f25760405162461bcd60e51b8152600401610bd390614332565b565b600054610100900460ff16612a1b5760405162461bcd60e51b8152600401610bd390614332565b6129f2613148565b6000612710612a32838561437d565b1015612a3d57600080fd5b612710612a4a838561437d565b6124709190614394565b6000828152609860205260409020612a6c82826140ac565b50817f6bb7ff708619ba0610cba295a58592e0451dee2622938c8755667688daf3529b612a9884610b90565b60405161212b9190613674565b6001600160a01b038416612b055760405162461bcd60e51b815260206004820152602160248201527f455243313135353a206d696e7420746f20746865207a65726f206164647265736044820152607360f81b6064820152608401610bd3565b336000612b118561317b565b90506000612b1e8561317b565b9050612b2f83600089858589612ddf565b60008681526065602090815260408083206001600160a01b038b16845290915281208054879290612b61908490614053565b909155505060408051878152602081018790526001600160a01b03808a1692600092918716917fc3d58168c5ae7397731d063d5bbf3d657854427343f4c083240f7aacaa2d0f62910160405180910390a4612bc1836000898989896131c6565b50505050505050565b6001600160a01b038416612bf05760405162461bcd60e51b8152600401610bd39061427e565b336000612bfc8561317b565b90506000612c098561317b565b9050612c19838989858589612ddf565b60008681526065602090815260408083206001600160a01b038c16845290915290205485811015612c5c5760405162461bcd60e51b8152600401610bd3906142c3565b60008781526065602090815260408083206001600160a01b038d8116855292528083208985039055908a16825281208054889290612c9b908490614053565b909155505060408051888152602081018890526001600160a01b03808b16928c821692918816917fc3d58168c5ae7397731d063d5bbf3d657854427343f4c083240f7aacaa2d0f62910160405180910390a4612040848a8a8a8a8a6131c6565b60006001600160e01b03198216636cdb3d1360e11b1480612d2c57506001600160e01b031982166303a24d0760e21b145b80610b7f57506301ffc9a760e01b6001600160e01b0319831614610b7f565b606060678054612d5a90613e1d565b80601f0160208091040260200160405190810160405280929190818152602001828054612d8690613e1d565b8015612dd35780601f10612da857610100808354040283529160200191612dd3565b820191906000526020600020905b815481529060010190602001808311612db657829003601f168201915b50505050509050919050565b612de76130d2565b6001600160a01b03851615612e0f576040516305d39ac360e51b815260040160405180910390fd5b61265d565b6001600160a01b0384163b1561265d5760405163bc197c8160e01b81526001600160a01b0385169063bc197c8190612e5890899089908890889088906004016143b6565b6020604051808303816000875af1925050508015612e93575060408051601f3d908101601f19168201909252612e9091810190614414565b60015b612f3f57612e9f614431565b806308c379a003612ed85750612eb361444c565b80612ebe5750612eda565b8060405162461bcd60e51b8152600401610bd39190613674565b505b60405162461bcd60e51b815260206004820152603460248201527f455243313135353a207472616e7366657220746f206e6f6e2d455243313135356044820152732932b1b2b4bb32b91034b6b83632b6b2b73a32b960611b6064820152608401610bd3565b6001600160e01b0319811663bc197c8160e01b14612bc15760405162461bcd60e51b8152600401610bd3906144d5565b612f7982826117e5565b610d4f57612f8681613281565b612f91836020613293565b604051602001612fa292919061451d565b60408051601f198184030181529082905262461bcd60e51b8252610bd391600401613674565b6001600160a01b0381163b6130355760405162461bcd60e51b815260206004820152602d60248201527f455243313936373a206e657720696d706c656d656e746174696f6e206973206e60448201526c1bdd08184818dbdb9d1c9858dd609a1b6064820152608401610bd3565b6000805160206145ef83398151915280546001600160a01b0319166001600160a01b0392909216919091179055565b61306d8361342e565b60008251118061307a5750805b15610c16576117bf838361346e565b60c95460ff166129f25760405162461bcd60e51b815260206004820152601460248201527314185d5cd8589b194e881b9bdd081c185d5cd95960621b6044820152606401610bd3565b60c95460ff16156129f25760405162461bcd60e51b815260206004820152601060248201526f14185d5cd8589b194e881c185d5cd95960821b6044820152606401610bd3565b600054610100900460ff1661313f5760405162461bcd60e51b8152600401610bd390614332565b610e2f81613562565b600054610100900460ff1661316f5760405162461bcd60e51b8152600401610bd390614332565b60c9805460ff19169055565b604080516001808252818301909252606091600091906020808301908036833701905050905082816000815181106131b5576131b5613f76565b602090810291909101015292915050565b6001600160a01b0384163b1561265d5760405163f23a6e6160e01b81526001600160a01b0385169063f23a6e619061320a9089908990889088908890600401614592565b6020604051808303816000875af1925050508015613245575060408051601f3d908101601f1916820190925261324291810190614414565b60015b61325157612e9f614431565b6001600160e01b0319811663f23a6e6160e01b14612bc15760405162461bcd60e51b8152600401610bd3906144d5565b6060610b7f6001600160a01b03831660145b606060006132a283600261437d565b6132ad906002614053565b6001600160401b038111156132c4576132c4613687565b6040519080825280601f01601f1916602001820160405280156132ee576020820181803683370190505b509050600360fc1b8160008151811061330957613309613f76565b60200101906001600160f81b031916908160001a905350600f60fb1b8160018151811061333857613338613f76565b60200101906001600160f81b031916908160001a905350600061335c84600261437d565b613367906001614053565b90505b60018111156133df576f181899199a1a9b1b9c1cb0b131b232b360811b85600f166010811061339b5761339b613f76565b1a60f81b8282815181106133b1576133b1613f76565b60200101906001600160f81b031916908160001a90535060049490941c936133d8816145d7565b905061336a565b5083156124705760405162461bcd60e51b815260206004820181905260248201527f537472696e67733a20686578206c656e67746820696e73756666696369656e746044820152606401610bd3565b61343781612fc8565b6040516001600160a01b038216907fbc7cd75a20ee27fd9adebab32041f755214dbc6bffa90cc0225b39da2e5c2d3b90600090a250565b60606001600160a01b0383163b6134d65760405162461bcd60e51b815260206004820152602660248201527f416464726573733a2064656c65676174652063616c6c20746f206e6f6e2d636f6044820152651b9d1c9858dd60d21b6064820152608401610bd3565b600080846001600160a01b0316846040516134f19190613e57565b600060405180830381855af49150503d806000811461352c576040519150601f19603f3d011682016040523d82523d6000602084013e613531565b606091505b5091509150613559828260405180606001604052806027815260200161462f6027913961356e565b95945050505050565b6067610d4f82826140ac565b6060831561357d575081612470565b6124708383815115612ebe5781518083602001fd5b80356001600160a01b03811681146135a957600080fd5b919050565b600080604083850312156135c157600080fd5b6135ca83613592565b946020939093013593505050565b6001600160e01b031981168114610e2f57600080fd5b60006020828403121561360057600080fd5b8135612470816135d8565b60006020828403121561361d57600080fd5b5035919050565b60005b8381101561363f578181015183820152602001613627565b50506000910152565b60008151808452613660816020860160208601613624565b601f01601f19169290920160200192915050565b6020815260006124706020830184613648565b634e487b7160e01b600052604160045260246000fd5b608081018181106001600160401b03821117156136bc576136bc613687565b60405250565b601f8201601f191681016001600160401b03811182821017156136e7576136e7613687565b6040525050565b60006001600160401b0382111561370757613707613687565b5060051b60200190565b600082601f83011261372257600080fd5b8135602061372f826136ee565b60405161373c82826136c2565b83815260059390931b850182019282810191508684111561375c57600080fd5b8286015b848110156137775780358352918301918301613760565b509695505050505050565b600082601f83011261379357600080fd5b81356001600160401b038111156137ac576137ac613687565b6040516137c3601f8301601f1916602001826136c2565b8181528460208386010111156137d857600080fd5b816020850160208301376000918101602001919091529392505050565b600080600080600060a0868803121561380d57600080fd5b61381686613592565b945061382460208701613592565b935060408601356001600160401b038082111561384057600080fd5b61384c89838a01613711565b9450606088013591508082111561386257600080fd5b61386e89838a01613711565b9350608088013591508082111561388457600080fd5b5061389188828901613782565b9150509295509295909350565b600080604083850312156138b157600080fd5b823591506138c160208401613592565b90509250929050565b8015158114610e2f57600080fd5b600080600080608085870312156138ee57600080fd5b843593506020850135925060408501359150606085013561390e816138ca565b939692955090935050565b60006020828403121561392b57600080fd5b61247082613592565b6000806040838503121561394757600080fd5b82356001600160401b038082111561395e57600080fd5b818501915085601f83011261397257600080fd5b8135602061397f826136ee565b60405161398c82826136c2565b83815260059390931b85018201928281019150898411156139ac57600080fd5b948201945b838610156139d1576139c286613592565b825294820194908201906139b1565b965050860135925050808211156139e757600080fd5b506139f485828601613711565b9150509250929050565b600081518084526020808501945080840160005b83811015613a2e57815187529582019590820190600101613a12565b509495945050505050565b60208152600061247060208301846139fe565b60008060408385031215613a5f57600080fd5b613a6883613592565b915060208301356001600160401b03811115613a8357600080fd5b6139f485828601613782565b6001600160a01b038716815260c060208201819052600090613ab390830188613648565b9515156040830152506060810193909352608083019190915260a09091015292915050565b60008060408385031215613aeb57600080fd5b82356001600160401b0380821115613b0257600080fd5b9084019060808287031215613b1657600080fd5b604051613b228161369d565b823582811115613b3157600080fd5b613b3d88828601613782565b825250602083013582811115613b5257600080fd5b613b5e88828601613782565b6020830152506040830135604082015260608301356060820152809450506020850135915080821115613b9057600080fd5b506139f485828601613782565b60008060408385031215613bb057600080fd5b613bb983613592565b91506020830135613bc9816138ca565b809150509250929050565b600060208284031215613be657600080fd5b81356001600160401b03811115613bfc57600080fd5b61150d84828501613782565b600080600060608486031215613c1d57600080fd5b505081359360208301359350604090920135919050565b600080600060608486031215613c4957600080fd5b613c5284613592565b9250613c6060208501613592565b9150613c6e60408501613592565b90509250925092565b60008060008060808587031215613c8d57600080fd5b84359350613c9d60208601613592565b925060408501356001600160401b0380821115613cb957600080fd5b613cc588838901613782565b93506060870135915080821115613cdb57600080fd5b50613ce887828801613782565b91505092959194509250565b600080600060608486031215613d0957600080fd5b83359250613d1960208501613592565b9150604084013590509250925092565b60008060408385031215613d3c57600080fd5b613d4583613592565b91506138c160208401613592565b600080600080600060a08688031215613d6b57600080fd5b613d7486613592565b9450613d8260208701613592565b9350604086013592506060860135915060808601356001600160401b03811115613dab57600080fd5b61389188828901613782565b60008060408385031215613dca57600080fd5b82356001600160401b03811115613de057600080fd5b613dec85828601613782565b9250506138c160208401613592565b60008060408385031215613e0e57600080fd5b50508035926020909101359150565b600181811c90821680613e3157607f821691505b602082108103613e5157634e487b7160e01b600052602260045260246000fd5b50919050565b60008251613e69818460208701613624565b9190910192915050565b600060208284031215613e8557600080fd5b8151612470816138ca565b6020808252602e908201527f455243313135353a2063616c6c6572206973206e6f7420746f6b656e206f776e60408201526d195c881bdc88185c1c1c9bdd995960921b606082015260800190565b6020808252602c908201527f46756e6374696f6e206d7573742062652063616c6c6564207468726f7567682060408201526b19195b1959d85d1958d85b1b60a21b606082015260800190565b6020808252602c908201527f46756e6374696f6e206d7573742062652063616c6c6564207468726f7567682060408201526b6163746976652070726f787960a01b606082015260800190565b634e487b7160e01b600052603260045260246000fd5b634e487b7160e01b600052601160045260246000fd5b600060018201613fb457613fb4613f8c565b5060010190565b60008154613fc881613e1d565b60018281168015613fe05760018114613ff557614024565b60ff1984168752821515830287019450614024565b8560005260208060002060005b8581101561401b5781548a820152908401908201614002565b50505082870194505b5050505092915050565b60006124708284613fbb565b60006020828403121561404c57600080fd5b5051919050565b80820180821115610b7f57610b7f613f8c565b601f821115610c1657600081815260208120601f850160051c8101602086101561408d5750805b601f850160051c820191505b8181101561265d57828155600101614099565b81516001600160401b038111156140c5576140c5613687565b6140d9816140d38454613e1d565b84614066565b602080601f83116001811461410e57600084156140f65750858301515b600019600386901b1c1916600185901b17855561265d565b600085815260208120601f198616915b8281101561413d5788860151825594840194600190910190840161411e565b508582101561415b5787850151600019600388901b60f8161c191681555b5050505050600190811b01905550565b82815260406020820152600061150d6040830184613648565b81810381811115610b7f57610b7f613f8c565b60018060a01b03851681528360208201528260408201526080606082015260006141c46080830184613648565b9695505050505050565b60006020808352600084546141e281613e1d565b80848701526040600180841660008114614203576001811461421d5761424b565b60ff1985168984015283151560051b89018301955061424b565b896000528660002060005b858110156142435781548b8201860152908301908801614228565b8a0184019650505b509398975050505050505050565b60006142658285613fbb565b8351614275818360208801613624565b01949350505050565b60208082526025908201527f455243313135353a207472616e7366657220746f20746865207a65726f206164604082015264647265737360d81b606082015260800190565b6020808252602a908201527f455243313135353a20696e73756666696369656e742062616c616e636520666f60408201526939103a3930b739b332b960b11b606082015260800190565b60408152600061432060408301856139fe565b828103602084015261355981856139fe565b6020808252602b908201527f496e697469616c697a61626c653a20636f6e7472616374206973206e6f74206960408201526a6e697469616c697a696e6760a81b606082015260800190565b8082028115828204841417610b7f57610b7f613f8c565b6000826143b157634e487b7160e01b600052601260045260246000fd5b500490565b6001600160a01b0386811682528516602082015260a0604082018190526000906143e2908301866139fe565b82810360608401526143f481866139fe565b905082810360808401526144088185613648565b98975050505050505050565b60006020828403121561442657600080fd5b8151612470816135d8565b600060033d11156114525760046000803e5060005160e01c90565b600060443d101561445a5790565b6040516003193d81016004833e81513d6001600160401b03816024840111818411171561448957505050505090565b82850191508151818111156144a15750505050505090565b843d87010160208285010111156144bb5750505050505090565b6144ca602082860101876136c2565b509095945050505050565b60208082526028908201527f455243313135353a204552433131353552656365697665722072656a656374656040820152676420746f6b656e7360c01b606082015260800190565b7f416363657373436f6e74726f6c3a206163636f756e7420000000000000000000815260008351614555816017850160208801613624565b7001034b99036b4b9b9b4b733903937b6329607d1b6017918401918201528351614586816028840160208801613624565b01602801949350505050565b6001600160a01b03868116825285166020820152604081018490526060810183905260a0608082018190526000906145cc90830184613648565b979650505050505050565b6000816145e6576145e6613f8c565b50600019019056fe360894a13ba1a3210667c828492db98dca3e2076cc3735a920a3ca505d382bbc65d7a28e3265b37a6474929f336521b332c1681b933f6cb9f3376673440d862a416464726573733a206c6f772d6c6576656c2064656c65676174652063616c6c206661696c6564a264697066735822122085200558bbef0f27ce0d2a4f55fc55374baab9df17a4fbc89ff910e7a7af298864736f6c63430008110033",
  "linkReferences": {},
  "deployedLinkReferences": {}
}