{
  "_format": "hh-sol-artifact-1",
  "contractName": "TheBadgeModels",
  "sourceName": "src/contracts/thebadge/TheBadgeModels.sol",
  "abi": [
    {
      "inputs": [],
      "stateMutability": "nonpayable",
      "type": "constructor"
    },
    {
      "inputs": [],
      "name": "AccessControlBadConfirmation",
      "type": "error"
    },
    {
      "inputs": [
        {
          "internalType": "address",
          "name": "account",
          "type": "address"
        },
        {
          "internalType": "bytes32",
          "name": "neededRole",
          "type": "bytes32"
        }
      ],
      "name": "AccessControlUnauthorizedAccount",
      "type": "error"
    },
    {
      "inputs": [],
      "name": "InvalidInitialization",
      "type": "error"
    },
    {
      "inputs": [],
      "name": "NotInitializing",
      "type": "error"
    },
    {
      "inputs": [
        {
          "internalType": "address",
          "name": "owner",
          "type": "address"
        }
      ],
      "name": "OwnableInvalidOwner",
      "type": "error"
    },
    {
      "inputs": [
        {
          "internalType": "address",
          "name": "account",
          "type": "address"
        }
      ],
      "name": "OwnableUnauthorizedAccount",
      "type": "error"
    },
    {
      "inputs": [],
      "name": "TheBadge__addBadgeModelController_alreadySet",
      "type": "error"
    },
    {
      "inputs": [],
      "name": "TheBadge__addBadgeModelController_emptyName",
      "type": "error"
    },
    {
      "inputs": [],
      "name": "TheBadge__badgeModel_badgeModelNotFound",
      "type": "error"
    },
    {
      "inputs": [],
      "name": "TheBadge__controller_controllerIsPaused",
      "type": "error"
    },
    {
      "inputs": [],
      "name": "TheBadge__controller_invalidController",
      "type": "error"
    },
    {
      "inputs": [],
      "name": "TheBadge__createBadgeModel_wrongValue",
      "type": "error"
    },
    {
      "inputs": [],
      "name": "TheBadge__onlyCreator_creatorIsSuspended",
      "type": "error"
    },
    {
      "inputs": [],
      "name": "TheBadge__onlyCreator_senderIsNotACreator",
      "type": "error"
    },
    {
      "inputs": [],
      "name": "TheBadge__onlyUser_userNotFound",
      "type": "error"
    },
    {
      "inputs": [],
      "name": "TheBadge__updateBadgeModel_badgeModelNotFound",
      "type": "error"
    },
    {
      "inputs": [],
      "name": "TheBadge__updateBadgeModel_notBadgeModelOwner",
      "type": "error"
    },
    {
      "anonymous": false,
      "inputs": [
        {
          "indexed": true,
          "internalType": "string",
          "name": "controllerName",
          "type": "string"
        },
        {
          "indexed": true,
          "internalType": "address",
          "name": "controllerAddress",
          "type": "address"
        }
      ],
      "name": "BadgeModelControllerAdded",
      "type": "event"
    },
    {
      "anonymous": false,
      "inputs": [
        {
          "indexed": true,
          "internalType": "string",
          "name": "controllerName",
          "type": "string"
        },
        {
          "indexed": true,
          "internalType": "address",
          "name": "controllerAddress",
          "type": "address"
        }
      ],
      "name": "BadgeModelControllerUpdated",
      "type": "event"
    },
    {
      "anonymous": false,
      "inputs": [
        {
          "indexed": true,
          "internalType": "uint256",
          "name": "badgeModelId",
          "type": "uint256"
        },
        {
          "indexed": false,
          "internalType": "string",
          "name": "metadata",
          "type": "string"
        }
      ],
      "name": "BadgeModelCreated",
      "type": "event"
    },
    {
      "anonymous": false,
      "inputs": [
        {
          "indexed": true,
          "internalType": "uint256",
          "name": "badgeModelId",
          "type": "uint256"
        },
        {
          "indexed": false,
          "internalType": "bool",
          "name": "suspended",
          "type": "bool"
        }
      ],
      "name": "BadgeModelSuspended",
      "type": "event"
    },
    {
      "anonymous": false,
      "inputs": [
        {
          "indexed": true,
          "internalType": "uint256",
          "name": "badgeModelId",
          "type": "uint256"
        }
      ],
      "name": "BadgeModelUpdated",
      "type": "event"
    },
    {
      "anonymous": false,
      "inputs": [
        {
          "indexed": true,
          "internalType": "address",
          "name": "admin",
          "type": "address"
        }
      ],
      "name": "Initialize",
      "type": "event"
    },
    {
      "anonymous": false,
      "inputs": [
        {
          "indexed": false,
          "internalType": "uint64",
          "name": "version",
          "type": "uint64"
        }
      ],
      "name": "Initialized",
      "type": "event"
    },
    {
      "anonymous": false,
      "inputs": [
        {
          "indexed": true,
          "internalType": "address",
          "name": "previousOwner",
          "type": "address"
        },
        {
          "indexed": true,
          "internalType": "address",
          "name": "newOwner",
          "type": "address"
        }
      ],
      "name": "OwnershipTransferred",
      "type": "event"
    },
    {
      "anonymous": false,
      "inputs": [
        {
          "indexed": true,
          "internalType": "bytes32",
          "name": "role",
          "type": "bytes32"
        },
        {
          "indexed": true,
          "internalType": "bytes32",
          "name": "previousAdminRole",
          "type": "bytes32"
        },
        {
          "indexed": true,
          "internalType": "bytes32",
          "name": "newAdminRole",
          "type": "bytes32"
        }
      ],
      "name": "RoleAdminChanged",
      "type": "event"
    },
    {
      "anonymous": false,
      "inputs": [
        {
          "indexed": true,
          "internalType": "bytes32",
          "name": "role",
          "type": "bytes32"
        },
        {
          "indexed": true,
          "internalType": "address",
          "name": "account",
          "type": "address"
        },
        {
          "indexed": true,
          "internalType": "address",
          "name": "sender",
          "type": "address"
        }
      ],
      "name": "RoleGranted",
      "type": "event"
    },
    {
      "anonymous": false,
      "inputs": [
        {
          "indexed": true,
          "internalType": "bytes32",
          "name": "role",
          "type": "bytes32"
        },
        {
          "indexed": true,
          "internalType": "address",
          "name": "account",
          "type": "address"
        },
        {
          "indexed": true,
          "internalType": "address",
          "name": "sender",
          "type": "address"
        }
      ],
      "name": "RoleRevoked",
      "type": "event"
    },
    {
      "inputs": [],
      "name": "CLAIMER_ROLE",
      "outputs": [
        {
          "internalType": "bytes32",
          "name": "",
          "type": "bytes32"
        }
      ],
      "stateMutability": "view",
      "type": "function"
    },
    {
      "inputs": [],
      "name": "DEFAULT_ADMIN_ROLE",
      "outputs": [
        {
          "internalType": "bytes32",
          "name": "",
          "type": "bytes32"
        }
      ],
      "stateMutability": "view",
      "type": "function"
    },
    {
      "inputs": [],
      "name": "PAUSER_ROLE",
      "outputs": [
        {
          "internalType": "bytes32",
          "name": "",
          "type": "bytes32"
        }
      ],
      "stateMutability": "view",
      "type": "function"
    },
    {
      "inputs": [],
      "name": "UPGRADER_ROLE",
      "outputs": [
        {
          "internalType": "bytes32",
          "name": "",
          "type": "bytes32"
        }
      ],
      "stateMutability": "view",
      "type": "function"
    },
    {
      "inputs": [],
      "name": "URI_SETTER_ROLE",
      "outputs": [
        {
          "internalType": "bytes32",
          "name": "",
          "type": "bytes32"
        }
      ],
      "stateMutability": "view",
      "type": "function"
    },
    {
      "inputs": [],
      "name": "USER_MANAGER_ROLE",
      "outputs": [
        {
          "internalType": "bytes32",
          "name": "",
          "type": "bytes32"
        }
      ],
      "stateMutability": "view",
      "type": "function"
    },
    {
      "inputs": [],
      "name": "VERIFIER_ROLE",
      "outputs": [
        {
          "internalType": "bytes32",
          "name": "",
          "type": "bytes32"
        }
      ],
      "stateMutability": "view",
      "type": "function"
    },
    {
      "inputs": [],
      "name": "_badgeStore",
      "outputs": [
        {
          "internalType": "contract TheBadgeStore",
          "name": "",
          "type": "address"
        }
      ],
      "stateMutability": "view",
      "type": "function"
    },
    {
      "inputs": [],
      "name": "_theBadgeUsers",
      "outputs": [
        {
          "internalType": "contract TheBadgeUsers",
          "name": "",
          "type": "address"
        }
      ],
      "stateMutability": "view",
      "type": "function"
    },
    {
      "inputs": [
        {
          "internalType": "string",
          "name": "controllerName",
          "type": "string"
        },
        {
          "internalType": "address",
          "name": "controllerAddress",
          "type": "address"
        }
      ],
      "name": "addBadgeModelController",
      "outputs": [],
      "stateMutability": "nonpayable",
      "type": "function"
    },
    {
      "inputs": [
        {
          "components": [
            {
              "internalType": "string",
              "name": "metadata",
              "type": "string"
            },
            {
              "internalType": "string",
              "name": "controllerName",
              "type": "string"
            },
            {
              "internalType": "uint256",
              "name": "mintCreatorFee",
              "type": "uint256"
            },
            {
              "internalType": "uint256",
              "name": "validFor",
              "type": "uint256"
            }
          ],
          "internalType": "struct TheBadgeStore.CreateBadgeModel",
          "name": "args",
          "type": "tuple"
        },
        {
          "internalType": "bytes",
          "name": "data",
          "type": "bytes"
        }
      ],
      "name": "createBadgeModel",
      "outputs": [],
      "stateMutability": "payable",
      "type": "function"
    },
    {
      "inputs": [
        {
          "internalType": "bytes32",
          "name": "role",
          "type": "bytes32"
        }
      ],
      "name": "getRoleAdmin",
      "outputs": [
        {
          "internalType": "bytes32",
          "name": "",
          "type": "bytes32"
        }
      ],
      "stateMutability": "view",
      "type": "function"
    },
    {
      "inputs": [
        {
          "internalType": "bytes32",
          "name": "role",
          "type": "bytes32"
        },
        {
          "internalType": "address",
          "name": "account",
          "type": "address"
        }
      ],
      "name": "grantRole",
      "outputs": [],
      "stateMutability": "nonpayable",
      "type": "function"
    },
    {
      "inputs": [
        {
          "internalType": "bytes32",
          "name": "role",
          "type": "bytes32"
        },
        {
          "internalType": "address",
          "name": "account",
          "type": "address"
        }
      ],
      "name": "hasRole",
      "outputs": [
        {
          "internalType": "bool",
          "name": "",
          "type": "bool"
        }
      ],
      "stateMutability": "view",
      "type": "function"
    },
    {
      "inputs": [
        {
          "internalType": "address",
          "name": "admin",
          "type": "address"
        },
        {
          "internalType": "address",
          "name": "badgeStore",
          "type": "address"
        },
        {
          "internalType": "address",
          "name": "badgeUsers",
          "type": "address"
        }
      ],
      "name": "initialize",
      "outputs": [],
      "stateMutability": "nonpayable",
      "type": "function"
    },
    {
      "inputs": [
        {
          "internalType": "uint256",
          "name": "badgeModelId",
          "type": "uint256"
        }
      ],
      "name": "isBadgeModelSuspended",
      "outputs": [
        {
          "internalType": "bool",
          "name": "",
          "type": "bool"
        }
      ],
      "stateMutability": "view",
      "type": "function"
    },
    {
      "inputs": [],
      "name": "owner",
      "outputs": [
        {
          "internalType": "address",
          "name": "",
          "type": "address"
        }
      ],
      "stateMutability": "view",
      "type": "function"
    },
    {
      "inputs": [],
      "name": "renounceOwnership",
      "outputs": [],
      "stateMutability": "nonpayable",
      "type": "function"
    },
    {
      "inputs": [
        {
          "internalType": "bytes32",
          "name": "role",
          "type": "bytes32"
        },
        {
          "internalType": "address",
          "name": "callerConfirmation",
          "type": "address"
        }
      ],
      "name": "renounceRole",
      "outputs": [],
      "stateMutability": "nonpayable",
      "type": "function"
    },
    {
      "inputs": [
        {
          "internalType": "bytes32",
          "name": "role",
          "type": "bytes32"
        },
        {
          "internalType": "address",
          "name": "account",
          "type": "address"
        }
      ],
      "name": "revokeRole",
      "outputs": [],
      "stateMutability": "nonpayable",
      "type": "function"
    },
    {
      "inputs": [
        {
          "internalType": "bytes4",
          "name": "interfaceId",
          "type": "bytes4"
        }
      ],
      "name": "supportsInterface",
      "outputs": [
        {
          "internalType": "bool",
          "name": "",
          "type": "bool"
        }
      ],
      "stateMutability": "view",
      "type": "function"
    },
    {
      "inputs": [
        {
          "internalType": "uint256",
          "name": "badgeModelId",
          "type": "uint256"
        },
        {
          "internalType": "bool",
          "name": "suspended",
          "type": "bool"
        }
      ],
      "name": "suspendBadgeModel",
      "outputs": [],
      "stateMutability": "nonpayable",
      "type": "function"
    },
    {
      "inputs": [
        {
          "internalType": "address",
          "name": "newOwner",
          "type": "address"
        }
      ],
      "name": "transferOwnership",
      "outputs": [],
      "stateMutability": "nonpayable",
      "type": "function"
    },
    {
      "inputs": [
        {
          "internalType": "uint256",
          "name": "badgeModelId",
          "type": "uint256"
        },
        {
          "internalType": "uint256",
          "name": "mintCreatorFee",
          "type": "uint256"
        },
        {
          "internalType": "bool",
          "name": "paused",
          "type": "bool"
        }
      ],
      "name": "updateBadgeModel",
      "outputs": [],
      "stateMutability": "nonpayable",
      "type": "function"
    },
    {
      "inputs": [
        {
          "internalType": "string",
          "name": "controllerName",
          "type": "string"
        },
        {
          "internalType": "address",
          "name": "controllerAddress",
          "type": "address"
        }
      ],
      "name": "updateBadgeModelController",
      "outputs": [],
      "stateMutability": "nonpayable",
      "type": "function"
    },
    {
      "inputs": [
        {
          "internalType": "uint256",
          "name": "badgeModelId",
          "type": "uint256"
        },
        {
          "internalType": "uint256",
          "name": "feeInBps",
          "type": "uint256"
        }
      ],
      "name": "updateBadgeModelProtocolFee",
      "outputs": [],
      "stateMutability": "nonpayable",
      "type": "function"
    },
    {
      "stateMutability": "payable",
      "type": "receive"
    }
  ],
  "bytecode": "0x608060405234801561000f575f80fd5b5061001861001d565b6100cf565b7ff0c57e16840df040f15088dc2f81fe391c3923bec73e23a9662efc9c229c6a00805468010000000000000000900460ff161561006d5760405163f92ee8a960e01b815260040160405180910390fd5b80546001600160401b03908116146100cc5780546001600160401b0319166001600160401b0390811782556040519081527fc7f505b2f371ae2175ee4913f4499e1f2633a7b5936321eed1cdaeb6115181d29060200160405180910390a15b50565b6123a880620000dd5f395ff3fe608060405260043610610142575f3560e01c8063a217fddf116100af578063a217fddf14610303578063a41e35c314610316578063c0a39d1214610349578063c0c53b8b14610368578063c227fb1114610387578063d547741f146103a6578063e5088cdf146103c5578063e63ab1e9146103e4578063e7705db614610404578063ede37dd414610437578063f2fde38b14610456578063f72c0d8b14610475578063fc5f18d3146104a8575f80fd5b806301ffc9a71461014d578063177a0b6f1461018157806319b50c2a146101a25780631adb7682146101cd5780631c38579e146101ec578063248a9ca31461020b5780632f2ff15d1461023857806336568abe14610257578063715018a6146102765780637f3457101461028a578063828efb25146102bd5780638da5cb5b146102d057806391d14854146102e4575f80fd5b3661014957005b5f80fd5b348015610158575f80fd5b5061016c610167366004611ad3565b6104db565b60405190151581526020015b60405180910390f35b34801561018c575f80fd5b506101a061019b366004611c3e565b610511565b005b3480156101ad575f80fd5b505f546101c0906001600160a01b031681565b6040516101789190611c8c565b3480156101d8575f80fd5b506101a06101e7366004611cad565b610693565b3480156101f7575f80fd5b506101a0610206366004611ce3565b610983565b348015610216575f80fd5b5061022a610225366004611d06565b610ad2565b604051908152602001610178565b348015610243575f80fd5b506101a0610252366004611d1d565b610af0565b348015610262575f80fd5b506101a0610271366004611d1d565b610b12565b348015610281575f80fd5b506101a0610b4a565b348015610295575f80fd5b5061022a7f7804d923f43a17d325d77e781528e0793b2edd9890ab45fc64efd7b4b427744c81565b6101a06102cb366004611d84565b610b5d565b3480156102db575f80fd5b506101c06111de565b3480156102ef575f80fd5b5061016c6102fe366004611d1d565b6111f8565b34801561030e575f80fd5b5061022a5f81565b348015610321575f80fd5b5061022a7fcbaaf41b181bb6e269c490e876a7c97711b57e21dd8e5528423cf57579726b3581565b348015610354575f80fd5b506101a0610363366004611c3e565b61122c565b348015610373575f80fd5b506101a0610382366004611e4c565b6113d8565b348015610392575f80fd5b5061016c6103a1366004611d06565b61154b565b3480156103b1575f80fd5b506101a06103c0366004611d1d565b611690565b3480156103d0575f80fd5b506001546101c0906001600160a01b031681565b3480156103ef575f80fd5b5061022a5f8051602061235383398151915281565b34801561040f575f80fd5b5061022a7f0ce23c3e399818cfee81a7ab0880f714e53d7672b08df0fa62f2843416e1ea0981565b348015610442575f80fd5b506101a0610451366004611e89565b6116ac565b348015610461575f80fd5b506101a0610470366004611ea9565b6117e3565b348015610480575f80fd5b5061022a7f189ab7a9244df0848122154315af71fe140f3db0fe014031783b0946b8c9d2e381565b3480156104b3575f80fd5b5061022a7f11a8cb5a02bd6c42679835e867ef2118ba78f088f8300511420c6603c21d9c7881565b5f6001600160e01b03198216637965db0b60e01b148061050b57506301ffc9a760e01b6001600160e01b03198316145b92915050565b5f61051b81611829565b5f8054604051631c2e21b960e11b81526001600160a01b039091169063385c43729061054b908790600401611f11565b606060405180830381865afa158015610566573d5f803e3d5ffd5b505050506040513d601f19601f8201168201806040525081019061058a9190611f3e565b905083515f036105ad57604051635f0b636f60e11b815260040160405180910390fd5b6001600160a01b0383166105d4576040516336f7ce4f60e11b815260040160405180910390fd5b6001600160a01b03808416825260016040808401919091525f60208401819052549051626a7cdb60e61b8152911690631a9f36c0906106199087908590600401611fad565b5f604051808303815f87803b158015610630575f80fd5b505af1158015610642573d5f803e3d5ffd5b50505050826001600160a01b03168460405161065e9190611fef565b604051908190038120907fb26a69d98cbba60a8375d2881325d884505f42d1f0e61a74e33abb3524a658aa905f90a350505050565b82335f8054604051636f77926b60e01b81526001600160a01b0390911690636f77926b906106c5908590600401611c8c565b5f60405180830381865afa1580156106df573d5f803e3d5ffd5b505050506040513d5f823e601f3d908101601f191682016040526107069190810190612054565b5f805460405163f2be2c8560e01b81526004810187905292935090916001600160a01b039091169063f2be2c85906024015f60405180830381865afa158015610751573d5f803e3d5ffd5b505050506040513d5f823e601f3d908101601f191682016040526107789190810190612114565b8251519091505f0361079d57604051638fcc03fd60e01b815260040160405180910390fd5b604082015115155f036107c357604051638fcc03fd60e01b815260040160405180910390fd5b606082015115156001036107ea5760405163401d786960e11b815260040160405180910390fd5b80516001600160a01b031661081257604051638fa97ef960e01b815260040160405180910390fd5b826001600160a01b0316815f01516001600160a01b0316146108475760405163806ecc4960e01b815260040160405180910390fd5b5f805460405163f2be2c8560e01b8152600481018a90526001600160a01b039091169063f2be2c85906024015f60405180830381865afa15801561088d573d5f803e3d5ffd5b505050506040513d5f823e601f3d908101601f191682016040526108b49190810190612114565b80519091506001600160a01b03166108df576040516336f7ce4f60e11b815260040160405180910390fd5b606081018790528515156040808301919091525f54905163089f159f60e11b81526001600160a01b039091169063113e2b3e90610922908b9085906004016122af565b5f604051808303815f87803b158015610939575f80fd5b505af115801561094b573d5f803e3d5ffd5b50506040518a92507fc7fe3866a4edc843062ecfa12604d4a6686605fb2bd8a2323d96dc40c08d9e3d91505f90a25050505050505050565b5f8051602061235383398151915261099a81611829565b5f805460405163f2be2c8560e01b8152600481018690526001600160a01b039091169063f2be2c85906024015f60405180830381865afa1580156109e0573d5f803e3d5ffd5b505050506040513d5f823e601f3d908101601f19168201604052610a079190810190612114565b60c081015190915015155f03610a3057604051638fa97ef960e01b815260040160405180910390fd5b5f54604051630e1c2bcf60e11b81526004810186905284151560248201526001600160a01b0390911690631c38579e906044015f604051808303815f87803b158015610a7a575f80fd5b505af1158015610a8c573d5f803e3d5ffd5b50505050837f5f062aa313aef1e7311684fc58adc2e6be9a42aaa5440bd11ecc935110ce188884604051610ac4911515815260200190565b60405180910390a250505050565b5f80610adc611833565b5f9384526020525050604090206001015490565b610af982610ad2565b610b0281611829565b610b0c8383611857565b50505050565b6001600160a01b0381163314610b3b5760405163334bd91960e11b815260040160405180910390fd5b610b4582826118f5565b505050565b610b5261196b565b610b5b5f61199d565b565b335f8054604051636f77926b60e01b81526001600160a01b0390911690636f77926b90610b8e908590600401611c8c565b5f60405180830381865afa158015610ba8573d5f803e3d5ffd5b505050506040513d5f823e601f3d908101601f19168201604052610bcf9190810190612054565b8051519091505f03610bf45760405163ce848fe360e01b815260040160405180910390fd5b60208501515f8054604051631c2e21b960e11b81526001600160a01b039091169063385c437290610c29908590600401611f11565b606060405180830381865afa158015610c44573d5f803e3d5ffd5b505050506040513d601f19601f82011682018060405250810190610c689190611f3e565b80519091506001600160a01b0316610c935760405163014eb98760e11b815260040160405180910390fd5b604081015115155f03610cb95760405163014eb98760e11b815260040160405180910390fd5b806020015115610cdc5760405163526e73a560e01b815260040160405180910390fd5b5f805f9054906101000a90046001600160a01b03166001600160a01b03166364d8baef6040518163ffffffff1660e01b8152600401602060405180830381865afa158015610d2c573d5f803e3d5ffd5b505050506040513d601f19601f82011682018060405250810190610d5091906122c7565b905080341015610d735760405163043f7a7d60e21b815260040160405180910390fd5b3415610e22575f8054906101000a90046001600160a01b03166001600160a01b031663c415b95c6040518163ffffffff1660e01b8152600401602060405180830381865afa158015610dc7573d5f803e3d5ffd5b505050506040513d601f19601f82011682018060405250810190610deb91906122de565b6001600160a01b03166108fc3490811502906040515f60405180830381858888f19350505050158015610e20573d5f803e3d5ffd5b505b5f805f9054906101000a90046001600160a01b03166001600160a01b0316634e5eceae6040518163ffffffff1660e01b8152600401602060405180830381865afa158015610e72573d5f803e3d5ffd5b505050506040513d601f19601f82011682018060405250810190610e9691906122c7565b90505f805f9054906101000a90046001600160a01b03166001600160a01b031663e7343c8a6040518163ffffffff1660e01b8152600401602060405180830381865afa158015610ee8573d5f803e3d5ffd5b505050506040513d601f19601f82011682018060405250810190610f0c91906122c7565b5f546040805161012081019091529192506001600160a01b0316906397d91be79080336001600160a01b031681526020018d6020015181526020015f151581526020018d6040015181526020018d60600151815260200185815260200160011515815260200160405180604001604052806006815260200165076312e302e360d41b81525081526020015f15158152506040518263ffffffff1660e01b8152600401610fb891906122f9565b5f604051808303815f87803b158015610fcf575f80fd5b505af1158015610fe1573d5f803e3d5ffd5b50505050807f584274d31df3e2cf85a9d6dfaf82b219994725ca486f214ef93fbec2d054dca08b5f01516040516110189190611f11565b60405180910390a25f80546001600160a01b0316636f77926b336040518263ffffffff1660e01b815260040161104e9190611c8c565b5f60405180830381865afa158015611068573d5f803e3d5ffd5b505050506040513d5f823e601f3d908101601f1916820160405261108f9190810190612054565b604081015190915015155f036110fb576001546001600160a01b0316638a4be490336040518263ffffffff1660e01b81526004016110cd9190611c8c565b5f604051808303815f87803b1580156110e4575f80fd5b505af11580156110f6573d5f803e3d5ffd5b505050505b5f805460208d0151604051631c2e21b960e11b81526001600160a01b039092169163385c43729161112e91600401611f11565b606060405180830381865afa158015611149573d5f803e3d5ffd5b505050506040513d601f19601f8201168201806040525081019061116d9190611f3e565b80519091506001600160a01b03166304a3c5d733858e8e6040518563ffffffff1660e01b81526004016111a3949392919061230b565b5f604051808303815f87803b1580156111ba575f80fd5b505af11580156111cc573d5f803e3d5ffd5b50505050505050505050505050505050565b5f806111e86119f7565b546001600160a01b031692915050565b5f80611202611833565b5f948552602090815260408086206001600160a01b03959095168652939052505090205460ff1690565b5f61123681611829565b5f8054604051631c2e21b960e11b81526001600160a01b039091169063385c437290611266908790600401611f11565b606060405180830381865afa158015611281573d5f803e3d5ffd5b505050506040513d601f19601f820116820180604052508101906112a59190611f3e565b905083515f036112c857604051635f0b636f60e11b815260040160405180910390fd5b6001600160a01b0383166112ef576040516336f7ce4f60e11b815260040160405180910390fd5b80516001600160a01b03161561131857604051631192a36960e31b815260040160405180910390fd5b6001600160a01b03808416825260016040808401919091525f602084018190525490516332c32c6360e11b815291169063658658c69061135e9087908590600401611fad565b5f604051808303815f87803b158015611375575f80fd5b505af1158015611387573d5f803e3d5ffd5b50505050826001600160a01b0316846040516113a39190611fef565b604051908190038120907fe5593a32c4e8802f5034c3eb5fb2d05210d31e05841af6500e5cac618d29605f905f90a350505050565b5f6113e1611a1b565b805490915060ff600160401b82041615906001600160401b03165f811580156114075750825b90505f826001600160401b031660011480156114225750303b155b905081158015611430575080155b1561144e5760405163f92ee8a960e01b815260040160405180910390fd5b845467ffffffffffffffff19166001178555831561147857845460ff60401b1916600160401b1785555b61148188611a3f565b61148b5f89611857565b506114a35f8051602061235383398151915289611857565b505f80546001600160a01b03808a166001600160a01b0319928316178355600180548a8316931692909217909155604051908a16917f36b1453565f45af7b509b59d5e2eac8f1948ea9e3e193db6663b4101afb6382c91a2831561154157845460ff60401b19168555604051600181527fc7f505b2f371ae2175ee4913f4499e1f2633a7b5936321eed1cdaeb6115181d29060200160405180910390a15b5050505050505050565b5f805460405163f2be2c8560e01b81526004810184905282916001600160a01b03169063f2be2c85906024015f60405180830381865afa158015611591573d5f803e3d5ffd5b505050506040513d5f823e601f3d908101601f191682016040526115b89190810190612114565b80519091506001600160a01b03166115e3576040516336f7ce4f60e11b815260040160405180910390fd5b61010081015115156001036115fb5750600192915050565b5f80548251604051636f77926b60e01b81526001600160a01b0390921691636f77926b9161162b91600401611c8c565b5f60405180830381865afa158015611645573d5f803e3d5ffd5b505050506040513d5f823e601f3d908101601f1916820160405261166c9190810190612054565b60608101519091501515600103611687575060019392505050565b505f9392505050565b61169982610ad2565b6116a281611829565b610b0c83836118f5565b5f6116b681611829565b5f805460405163f2be2c8560e01b8152600481018690526001600160a01b039091169063f2be2c85906024015f60405180830381865afa1580156116fc573d5f803e3d5ffd5b505050506040513d5f823e601f3d908101601f191682016040526117239190810190612114565b80519091506001600160a01b031661174e576040516336f7ce4f60e11b815260040160405180910390fd5b60a081018390525f5460405163089f159f60e11b81526001600160a01b039091169063113e2b3e9061178690879085906004016122af565b5f604051808303815f87803b15801561179d575f80fd5b505af11580156117af573d5f803e3d5ffd5b50506040518692507fc7fe3866a4edc843062ecfa12604d4a6686605fb2bd8a2323d96dc40c08d9e3d91505f90a250505050565b6117eb61196b565b6001600160a01b03811661181d575f604051631e4fbdf760e01b81526004016118149190611c8c565b60405180910390fd5b6118268161199d565b50565b6118268133611a50565b7f02dd7bc7dec4dceedda775e58dd541e08a116c6c53815c0bd028192f7b62680090565b5f80611861611833565b905061186d84846111f8565b6118ec575f848152602082815260408083206001600160a01b03871684529091529020805460ff191660011790556118a23390565b6001600160a01b0316836001600160a01b0316857f2f8788117e7eff1d82e926ec794901d17c78024a50270940304540a733656f0d60405160405180910390a4600191505061050b565b5f91505061050b565b5f806118ff611833565b905061190b84846111f8565b156118ec575f848152602082815260408083206001600160a01b0387168085529252808320805460ff1916905551339287917ff6391f5c32d9c69d2a47ea670b442974b53935d1edc7fd64eb21e047a839171b9190a4600191505061050b565b336119746111de565b6001600160a01b031614610b5b573360405163118cdaa760e01b81526004016118149190611c8c565b5f6119a66119f7565b80546001600160a01b038481166001600160a01b031983168117845560405193945091169182907f8be0079c531659141344cd1fd0a4f28419497f9722a3daafe3b4186f6b6457e0905f90a3505050565b7f9016d09d72d40fdae2fd8ceac6b6234c7706214fd39c1cd1e609a0528c19930090565b7ff0c57e16840df040f15088dc2f81fe391c3923bec73e23a9662efc9c229c6a0090565b611a47611a8d565b61182681611ab2565b611a5a82826111f8565b611a895760405163e2517d3f60e01b81526001600160a01b038216600482015260248101839052604401611814565b5050565b611a95611aba565b610b5b57604051631afcd79f60e31b815260040160405180910390fd5b6117eb611a8d565b5f611ac3611a1b565b54600160401b900460ff16919050565b5f60208284031215611ae3575f80fd5b81356001600160e01b031981168114611afa575f80fd5b9392505050565b634e487b7160e01b5f52604160045260245ffd5b604051608081016001600160401b0381118282101715611b3757611b37611b01565b60405290565b60405160a081016001600160401b0381118282101715611b3757611b37611b01565b60405161012081016001600160401b0381118282101715611b3757611b37611b01565b604051601f8201601f191681016001600160401b0381118282101715611baa57611baa611b01565b604052919050565b5f6001600160401b03821115611bca57611bca611b01565b50601f01601f191660200190565b5f82601f830112611be7575f80fd5b8135611bfa611bf582611bb2565b611b82565b818152846020838601011115611c0e575f80fd5b816020850160208301375f918101602001919091529392505050565b6001600160a01b0381168114611826575f80fd5b5f8060408385031215611c4f575f80fd5b82356001600160401b03811115611c64575f80fd5b611c7085828601611bd8565b9250506020830135611c8181611c2a565b809150509250929050565b6001600160a01b0391909116815260200190565b8015158114611826575f80fd5b5f805f60608486031215611cbf575f80fd5b83359250602084013591506040840135611cd881611ca0565b809150509250925092565b5f8060408385031215611cf4575f80fd5b823591506020830135611c8181611ca0565b5f60208284031215611d16575f80fd5b5035919050565b5f8060408385031215611d2e575f80fd5b823591506020830135611c8181611c2a565b5f8083601f840112611d50575f80fd5b5081356001600160401b03811115611d66575f80fd5b602083019150836020828501011115611d7d575f80fd5b9250929050565b5f805f60408486031215611d96575f80fd5b83356001600160401b0380821115611dac575f80fd5b9085019060808288031215611dbf575f80fd5b611dc7611b15565b823582811115611dd5575f80fd5b611de189828601611bd8565b825250602083013582811115611df5575f80fd5b611e0189828601611bd8565b6020830152506040830135604082015260608301356060820152809550506020860135915080821115611e32575f80fd5b50611e3f86828701611d40565b9497909650939450505050565b5f805f60608486031215611e5e575f80fd5b8335611e6981611c2a565b92506020840135611e7981611c2a565b91506040840135611cd881611c2a565b5f8060408385031215611e9a575f80fd5b50508035926020909101359150565b5f60208284031215611eb9575f80fd5b8135611afa81611c2a565b5f5b83811015611ede578181015183820152602001611ec6565b50505f910152565b5f8151808452611efd816020860160208601611ec4565b601f01601f19169290920160200192915050565b602081525f611afa6020830184611ee6565b8051611f2e81611c2a565b919050565b8051611f2e81611ca0565b5f60608284031215611f4e575f80fd5b604051606081018181106001600160401b0382111715611f7057611f70611b01565b6040528251611f7e81611c2a565b81526020830151611f8e81611ca0565b60208201526040830151611fa181611ca0565b60408201529392505050565b608081525f611fbf6080830185611ee6565b905060018060a01b0383511660208301526020830151151560408301526040830151151560608301529392505050565b5f8251612000818460208701611ec4565b9190910192915050565b5f82601f830112612019575f80fd5b8151612027611bf582611bb2565b81815284602083860101111561203b575f80fd5b61204c826020830160208701611ec4565b949350505050565b5f60208284031215612064575f80fd5b81516001600160401b038082111561207a575f80fd5b9083019060a0828603121561208d575f80fd5b612095611b3d565b8251828111156120a3575f80fd5b6120af8782860161200a565b825250602083015191506120c282611ca0565b816020820152604083015191506120d882611ca0565b816040820152606083015191506120ee82611ca0565b8160608201526080830151925061210483611ca0565b6080810192909252509392505050565b5f60208284031215612124575f80fd5b81516001600160401b038082111561213a575f80fd5b90830190610120828603121561214e575f80fd5b612156611b5f565b61215f83611f23565b8152602083015182811115612172575f80fd5b61217e8782860161200a565b60208301525061219060408401611f33565b6040820152606083015160608201526080830151608082015260a083015160a08201526121bf60c08401611f33565b60c082015260e0830151828111156121d5575f80fd5b6121e18782860161200a565b60e08301525061010091506121f7828401611f33565b91810191909152949350505050565b80516001600160a01b031682525f610120602083015181602086015261222e82860182611ee6565b9150506040830151612244604086018215159052565b50606083015160608501526080830151608085015260a083015160a085015260c083015161227660c086018215159052565b5060e083015184820360e086015261228e8282611ee6565b915050610100808401516122a58287018215159052565b5090949350505050565b828152604060208201525f61204c6040830184612206565b5f602082840312156122d7575f80fd5b5051919050565b5f602082840312156122ee575f80fd5b8151611afa81611c2a565b602081525f611afa6020830184612206565b6001600160a01b0385168152602081018490526060604082018190528101829052818360808301375f818301608090810191909152601f909201601f19160101939250505056fe65d7a28e3265b37a6474929f336521b332c1681b933f6cb9f3376673440d862aa2646970667358221220f69e84aad63cbf0647fa88ba1e389588d1b407dd155b20290200674ac755a94c64736f6c63430008140033",
  "linkReferences": {},
  "deployedLinkReferences": {}
}