{
  "_format": "hh-sol-artifact-1",
  "contractName": "TpBadgeModelControllerStore",
  "sourceName": "src/contracts/badgeModelControllers/TpBadgeModelControllerStore.sol",
  "abi": [
    {
      "inputs": [],
      "stateMutability": "nonpayable",
      "type": "constructor"
    },
    {
      "inputs": [],
      "name": "TheBadge__Store_InvalidContractAddress",
      "type": "error"
    },
    {
      "inputs": [],
      "name": "ThirdPartyModelController__store_ContractNameAlreadyExists",
      "type": "error"
    },
    {
      "inputs": [],
      "name": "ThirdPartyModelController__store_InvalidContractAddress",
      "type": "error"
    },
    {
      "inputs": [],
      "name": "ThirdPartyModelController__store_InvalidContractName",
      "type": "error"
    },
    {
      "inputs": [],
      "name": "ThirdPartyModelController__store_OperationNotPermitted",
      "type": "error"
    },
    {
      "inputs": [],
      "name": "ThirdPartyModelController__user__userNotFound",
      "type": "error"
    },
    {
      "anonymous": false,
      "inputs": [
        {
          "indexed": true,
          "internalType": "string",
          "name": "_contractName",
          "type": "string"
        },
        {
          "indexed": true,
          "internalType": "address",
          "name": "contractAddress",
          "type": "address"
        }
      ],
      "name": "ContractAdded",
      "type": "event"
    },
    {
      "anonymous": false,
      "inputs": [
        {
          "indexed": true,
          "internalType": "string",
          "name": "_contractName",
          "type": "string"
        },
        {
          "indexed": true,
          "internalType": "address",
          "name": "contractAddress",
          "type": "address"
        }
      ],
      "name": "ContractRemoved",
      "type": "event"
    },
    {
      "anonymous": false,
      "inputs": [
        {
          "indexed": true,
          "internalType": "string",
          "name": "_contractName",
          "type": "string"
        },
        {
          "indexed": true,
          "internalType": "address",
          "name": "contractAddress",
          "type": "address"
        }
      ],
      "name": "ContractUpdated",
      "type": "event"
    },
    {
      "anonymous": false,
      "inputs": [
        {
          "indexed": true,
          "internalType": "address",
          "name": "admin",
          "type": "address"
        },
        {
          "indexed": true,
          "internalType": "address",
          "name": "tcrFactory",
          "type": "address"
        }
      ],
      "name": "Initialize",
      "type": "event"
    },
    {
      "anonymous": false,
      "inputs": [
        {
          "indexed": false,
          "internalType": "uint8",
          "name": "version",
          "type": "uint8"
        }
      ],
      "name": "Initialized",
      "type": "event"
    },
    {
      "anonymous": false,
      "inputs": [
        {
          "indexed": true,
          "internalType": "uint256",
          "name": "badgeId",
          "type": "uint256"
        },
        {
          "indexed": false,
          "internalType": "string",
          "name": "evidence",
          "type": "string"
        }
      ],
      "name": "MintThirdPartyBadge",
      "type": "event"
    },
    {
      "anonymous": false,
      "inputs": [
        {
          "indexed": true,
          "internalType": "address",
          "name": "previousOwner",
          "type": "address"
        },
        {
          "indexed": true,
          "internalType": "address",
          "name": "newOwner",
          "type": "address"
        }
      ],
      "name": "OwnershipTransferred",
      "type": "event"
    },
    {
      "anonymous": false,
      "inputs": [],
      "name": "ProtocolSettingsUpdated",
      "type": "event"
    },
    {
      "anonymous": false,
      "inputs": [
        {
          "indexed": true,
          "internalType": "bytes32",
          "name": "role",
          "type": "bytes32"
        },
        {
          "indexed": true,
          "internalType": "bytes32",
          "name": "previousAdminRole",
          "type": "bytes32"
        },
        {
          "indexed": true,
          "internalType": "bytes32",
          "name": "newAdminRole",
          "type": "bytes32"
        }
      ],
      "name": "RoleAdminChanged",
      "type": "event"
    },
    {
      "anonymous": false,
      "inputs": [
        {
          "indexed": true,
          "internalType": "bytes32",
          "name": "role",
          "type": "bytes32"
        },
        {
          "indexed": true,
          "internalType": "address",
          "name": "account",
          "type": "address"
        },
        {
          "indexed": true,
          "internalType": "address",
          "name": "sender",
          "type": "address"
        }
      ],
      "name": "RoleGranted",
      "type": "event"
    },
    {
      "anonymous": false,
      "inputs": [
        {
          "indexed": true,
          "internalType": "bytes32",
          "name": "role",
          "type": "bytes32"
        },
        {
          "indexed": true,
          "internalType": "address",
          "name": "account",
          "type": "address"
        },
        {
          "indexed": true,
          "internalType": "address",
          "name": "sender",
          "type": "address"
        }
      ],
      "name": "RoleRevoked",
      "type": "event"
    },
    {
      "inputs": [],
      "name": "CLAIMER_ROLE",
      "outputs": [
        {
          "internalType": "bytes32",
          "name": "",
          "type": "bytes32"
        }
      ],
      "stateMutability": "view",
      "type": "function"
    },
    {
      "inputs": [],
      "name": "DEFAULT_ADMIN_ROLE",
      "outputs": [
        {
          "internalType": "bytes32",
          "name": "",
          "type": "bytes32"
        }
      ],
      "stateMutability": "view",
      "type": "function"
    },
    {
      "inputs": [],
      "name": "PAUSER_ROLE",
      "outputs": [
        {
          "internalType": "bytes32",
          "name": "",
          "type": "bytes32"
        }
      ],
      "stateMutability": "view",
      "type": "function"
    },
    {
      "inputs": [],
      "name": "UPGRADER_ROLE",
      "outputs": [
        {
          "internalType": "bytes32",
          "name": "",
          "type": "bytes32"
        }
      ],
      "stateMutability": "view",
      "type": "function"
    },
    {
      "inputs": [],
      "name": "URI_SETTER_ROLE",
      "outputs": [
        {
          "internalType": "bytes32",
          "name": "",
          "type": "bytes32"
        }
      ],
      "stateMutability": "view",
      "type": "function"
    },
    {
      "inputs": [],
      "name": "USER_MANAGER_ROLE",
      "outputs": [
        {
          "internalType": "bytes32",
          "name": "",
          "type": "bytes32"
        }
      ],
      "stateMutability": "view",
      "type": "function"
    },
    {
      "inputs": [],
      "name": "VERIFIER_ROLE",
      "outputs": [
        {
          "internalType": "bytes32",
          "name": "",
          "type": "bytes32"
        }
      ],
      "stateMutability": "view",
      "type": "function"
    },
    {
      "inputs": [
        {
          "internalType": "uint256",
          "name": "badgeId",
          "type": "uint256"
        },
        {
          "components": [
            {
              "internalType": "bytes32",
              "name": "itemID",
              "type": "bytes32"
            },
            {
              "internalType": "uint256",
              "name": "badgeModelId",
              "type": "uint256"
            },
            {
              "internalType": "uint256",
              "name": "badgeId",
              "type": "uint256"
            },
            {
              "internalType": "bool",
              "name": "initialized",
              "type": "bool"
            }
          ],
          "internalType": "struct TpBadgeModelControllerStore.ThirdPartyBadge",
          "name": "badge",
          "type": "tuple"
        }
      ],
      "name": "addBadge",
      "outputs": [],
      "stateMutability": "nonpayable",
      "type": "function"
    },
    {
      "inputs": [
        {
          "components": [
            {
              "internalType": "address",
              "name": "tcrList",
              "type": "address"
            }
          ],
          "internalType": "struct TpBadgeModelControllerStore.ThirdPartyBadgeModel",
          "name": "badgeModel",
          "type": "tuple"
        }
      ],
      "name": "addBadgeModel",
      "outputs": [],
      "stateMutability": "nonpayable",
      "type": "function"
    },
    {
      "inputs": [
        {
          "internalType": "string",
          "name": "_contractName",
          "type": "string"
        },
        {
          "internalType": "address",
          "name": "_contractAddress",
          "type": "address"
        }
      ],
      "name": "addPermittedContract",
      "outputs": [],
      "stateMutability": "nonpayable",
      "type": "function"
    },
    {
      "inputs": [
        {
          "internalType": "address",
          "name": "",
          "type": "address"
        }
      ],
      "name": "allowedContractAddresses",
      "outputs": [
        {
          "internalType": "bool",
          "name": "",
          "type": "bool"
        }
      ],
      "stateMutability": "view",
      "type": "function"
    },
    {
      "inputs": [
        {
          "internalType": "string",
          "name": "",
          "type": "string"
        }
      ],
      "name": "allowedContractAddressesByContractName",
      "outputs": [
        {
          "internalType": "address",
          "name": "",
          "type": "address"
        }
      ],
      "stateMutability": "view",
      "type": "function"
    },
    {
      "inputs": [],
      "name": "arbitrator",
      "outputs": [
        {
          "internalType": "contract IArbitrator",
          "name": "",
          "type": "address"
        }
      ],
      "stateMutability": "view",
      "type": "function"
    },
    {
      "inputs": [],
      "name": "feeCollector",
      "outputs": [
        {
          "internalType": "address",
          "name": "",
          "type": "address"
        }
      ],
      "stateMutability": "view",
      "type": "function"
    },
    {
      "inputs": [
        {
          "internalType": "uint256",
          "name": "badgeId",
          "type": "uint256"
        }
      ],
      "name": "getBadge",
      "outputs": [
        {
          "components": [
            {
              "internalType": "bytes32",
              "name": "itemID",
              "type": "bytes32"
            },
            {
              "internalType": "uint256",
              "name": "badgeModelId",
              "type": "uint256"
            },
            {
              "internalType": "uint256",
              "name": "badgeId",
              "type": "uint256"
            },
            {
              "internalType": "bool",
              "name": "initialized",
              "type": "bool"
            }
          ],
          "internalType": "struct TpBadgeModelControllerStore.ThirdPartyBadge",
          "name": "",
          "type": "tuple"
        }
      ],
      "stateMutability": "view",
      "type": "function"
    },
    {
      "inputs": [
        {
          "internalType": "uint256",
          "name": "badgeModelId",
          "type": "uint256"
        }
      ],
      "name": "getBadgeModel",
      "outputs": [
        {
          "components": [
            {
              "internalType": "address",
              "name": "tcrList",
              "type": "address"
            }
          ],
          "internalType": "struct TpBadgeModelControllerStore.ThirdPartyBadgeModel",
          "name": "",
          "type": "tuple"
        }
      ],
      "stateMutability": "view",
      "type": "function"
    },
    {
      "inputs": [
        {
          "internalType": "uint256",
          "name": "badgeId",
          "type": "uint256"
        }
      ],
      "name": "getBadgeTcrList",
      "outputs": [
        {
          "internalType": "address",
          "name": "",
          "type": "address"
        }
      ],
      "stateMutability": "view",
      "type": "function"
    },
    {
      "inputs": [],
      "name": "getCurrentBadgeIdCounter",
      "outputs": [
        {
          "internalType": "uint256",
          "name": "",
          "type": "uint256"
        }
      ],
      "stateMutability": "view",
      "type": "function"
    },
    {
      "inputs": [],
      "name": "getCurrentBadgeModelsIdCounter",
      "outputs": [
        {
          "internalType": "uint256",
          "name": "",
          "type": "uint256"
        }
      ],
      "stateMutability": "view",
      "type": "function"
    },
    {
      "inputs": [
        {
          "internalType": "bytes32",
          "name": "role",
          "type": "bytes32"
        }
      ],
      "name": "getRoleAdmin",
      "outputs": [
        {
          "internalType": "bytes32",
          "name": "",
          "type": "bytes32"
        }
      ],
      "stateMutability": "view",
      "type": "function"
    },
    {
      "inputs": [
        {
          "internalType": "address",
          "name": "userAddress",
          "type": "address"
        }
      ],
      "name": "getUser",
      "outputs": [
        {
          "components": [
            {
              "internalType": "address",
              "name": "user",
              "type": "address"
            },
            {
              "internalType": "string",
              "name": "userMetadata",
              "type": "string"
            },
            {
              "internalType": "string",
              "name": "verificationEvidence",
              "type": "string"
            },
            {
              "internalType": "enum LibTpBadgeModelController.VerificationStatus",
              "name": "verificationStatus",
              "type": "uint8"
            },
            {
              "internalType": "bool",
              "name": "initialized",
              "type": "bool"
            }
          ],
          "internalType": "struct TpBadgeModelControllerStore.ThirdPartyUser",
          "name": "",
          "type": "tuple"
        }
      ],
      "stateMutability": "view",
      "type": "function"
    },
    {
      "inputs": [
        {
          "internalType": "bytes32",
          "name": "role",
          "type": "bytes32"
        },
        {
          "internalType": "address",
          "name": "account",
          "type": "address"
        }
      ],
      "name": "grantRole",
      "outputs": [],
      "stateMutability": "nonpayable",
      "type": "function"
    },
    {
      "inputs": [
        {
          "internalType": "bytes32",
          "name": "role",
          "type": "bytes32"
        },
        {
          "internalType": "address",
          "name": "account",
          "type": "address"
        }
      ],
      "name": "hasRole",
      "outputs": [
        {
          "internalType": "bool",
          "name": "",
          "type": "bool"
        }
      ],
      "stateMutability": "view",
      "type": "function"
    },
    {
      "inputs": [
        {
          "internalType": "address",
          "name": "admin",
          "type": "address"
        },
        {
          "internalType": "address",
          "name": "_feeCollector",
          "type": "address"
        },
        {
          "internalType": "address",
          "name": "_arbitrator",
          "type": "address"
        },
        {
          "internalType": "address",
          "name": "_tcrFactory",
          "type": "address"
        }
      ],
      "name": "initialize",
      "outputs": [],
      "stateMutability": "nonpayable",
      "type": "function"
    },
    {
      "inputs": [],
      "name": "owner",
      "outputs": [
        {
          "internalType": "address",
          "name": "",
          "type": "address"
        }
      ],
      "stateMutability": "view",
      "type": "function"
    },
    {
      "inputs": [
        {
          "internalType": "string",
          "name": "_contractName",
          "type": "string"
        }
      ],
      "name": "removePermittedContract",
      "outputs": [],
      "stateMutability": "nonpayable",
      "type": "function"
    },
    {
      "inputs": [],
      "name": "renounceOwnership",
      "outputs": [],
      "stateMutability": "nonpayable",
      "type": "function"
    },
    {
      "inputs": [
        {
          "internalType": "bytes32",
          "name": "role",
          "type": "bytes32"
        },
        {
          "internalType": "address",
          "name": "account",
          "type": "address"
        }
      ],
      "name": "renounceRole",
      "outputs": [],
      "stateMutability": "nonpayable",
      "type": "function"
    },
    {
      "inputs": [
        {
          "internalType": "bytes32",
          "name": "role",
          "type": "bytes32"
        },
        {
          "internalType": "address",
          "name": "account",
          "type": "address"
        }
      ],
      "name": "revokeRole",
      "outputs": [],
      "stateMutability": "nonpayable",
      "type": "function"
    },
    {
      "inputs": [
        {
          "internalType": "bytes4",
          "name": "interfaceId",
          "type": "bytes4"
        }
      ],
      "name": "supportsInterface",
      "outputs": [
        {
          "internalType": "bool",
          "name": "",
          "type": "bool"
        }
      ],
      "stateMutability": "view",
      "type": "function"
    },
    {
      "inputs": [],
      "name": "tcrFactory",
      "outputs": [
        {
          "internalType": "address",
          "name": "",
          "type": "address"
        }
      ],
      "stateMutability": "view",
      "type": "function"
    },
    {
      "inputs": [
        {
          "internalType": "uint256",
          "name": "",
          "type": "uint256"
        }
      ],
      "name": "thirdPartyBadgeModels",
      "outputs": [
        {
          "internalType": "address",
          "name": "tcrList",
          "type": "address"
        }
      ],
      "stateMutability": "view",
      "type": "function"
    },
    {
      "inputs": [
        {
          "internalType": "uint256",
          "name": "",
          "type": "uint256"
        }
      ],
      "name": "thirdPartyBadges",
      "outputs": [
        {
          "internalType": "bytes32",
          "name": "itemID",
          "type": "bytes32"
        },
        {
          "internalType": "uint256",
          "name": "badgeModelId",
          "type": "uint256"
        },
        {
          "internalType": "uint256",
          "name": "badgeId",
          "type": "uint256"
        },
        {
          "internalType": "bool",
          "name": "initialized",
          "type": "bool"
        }
      ],
      "stateMutability": "view",
      "type": "function"
    },
    {
      "inputs": [],
      "name": "thirdPartyModelController",
      "outputs": [
        {
          "internalType": "contract TpBadgeModelController",
          "name": "",
          "type": "address"
        }
      ],
      "stateMutability": "view",
      "type": "function"
    },
    {
      "inputs": [
        {
          "internalType": "address",
          "name": "",
          "type": "address"
        }
      ],
      "name": "thirdPartyUsers",
      "outputs": [
        {
          "internalType": "address",
          "name": "user",
          "type": "address"
        },
        {
          "internalType": "string",
          "name": "userMetadata",
          "type": "string"
        },
        {
          "internalType": "string",
          "name": "verificationEvidence",
          "type": "string"
        },
        {
          "internalType": "enum LibTpBadgeModelController.VerificationStatus",
          "name": "verificationStatus",
          "type": "uint8"
        },
        {
          "internalType": "bool",
          "name": "initialized",
          "type": "bool"
        }
      ],
      "stateMutability": "view",
      "type": "function"
    },
    {
      "inputs": [
        {
          "internalType": "address",
          "name": "newOwner",
          "type": "address"
        }
      ],
      "name": "transferOwnership",
      "outputs": [],
      "stateMutability": "nonpayable",
      "type": "function"
    },
    {
      "inputs": [
        {
          "internalType": "string",
          "name": "_contractName",
          "type": "string"
        },
        {
          "internalType": "address",
          "name": "_newContractAddress",
          "type": "address"
        }
      ],
      "name": "updatePermittedContract",
      "outputs": [],
      "stateMutability": "nonpayable",
      "type": "function"
    },
    {
      "inputs": [
        {
          "internalType": "address",
          "name": "userAddress",
          "type": "address"
        },
        {
          "components": [
            {
              "internalType": "address",
              "name": "user",
              "type": "address"
            },
            {
              "internalType": "string",
              "name": "userMetadata",
              "type": "string"
            },
            {
              "internalType": "string",
              "name": "verificationEvidence",
              "type": "string"
            },
            {
              "internalType": "enum LibTpBadgeModelController.VerificationStatus",
              "name": "verificationStatus",
              "type": "uint8"
            },
            {
              "internalType": "bool",
              "name": "initialized",
              "type": "bool"
            }
          ],
          "internalType": "struct TpBadgeModelControllerStore.ThirdPartyUser",
          "name": "updatedUser",
          "type": "tuple"
        }
      ],
      "name": "updateUser",
      "outputs": [],
      "stateMutability": "nonpayable",
      "type": "function"
    },
    {
      "inputs": [
        {
          "internalType": "uint256",
          "name": "_verifyUserProtocolFee",
          "type": "uint256"
        }
      ],
      "name": "updateVerifyUserProtocolFee",
      "outputs": [],
      "stateMutability": "nonpayable",
      "type": "function"
    },
    {
      "inputs": [],
      "name": "verifyUserProtocolFee",
      "outputs": [
        {
          "internalType": "uint256",
          "name": "",
          "type": "uint256"
        }
      ],
      "stateMutability": "view",
      "type": "function"
    },
    {
      "stateMutability": "payable",
      "type": "receive"
    }
  ],
  "bytecode": "0x608060405234801561001057600080fd5b5061001961001e565b6100dd565b600054610100900460ff161561008a5760405162461bcd60e51b815260206004820152602760248201527f496e697469616c697a61626c653a20636f6e747261637420697320696e697469604482015266616c697a696e6760c81b606482015260840160405180910390fd5b60005460ff908116146100db576000805460ff191660ff9081179091556040519081527f7f26b83ff96e1f2b6a682f133852f6798a09c465da95921460cefb38474024989060200160405180910390a15b565b61235980620000ed6000396000f3fe6080604052600436106101ff5760003560e01c80638d8386221161010e578063d547741f1161009b578063d547741f146107c2578063e63ab1e9146107e2578063e7343c8a14610816578063e7705db61461082b578063eefb64ba1461085f578063f2be2c8514610875578063f2fde38b146108da578063f72c0d8b146108fa578063f8c8765e1461092e578063fc5f18d31461094e57600080fd5b80638d838622146105d25780638da5cb5b1461068a57806391d14854146106a85780639f780b1d146106c8578063a1fa355c146106e8578063a217fddf14610708578063a41e35c31461071d578063b26fc20414610751578063bf33806e14610771578063c415b95c146107a257600080fd5b80633ff7fc341161018c5780633ff7fc341461040b578063462cb5691461048c57806356b309e7146104ac578063687a0557146104cc5780636cc6cde1146104fc5780636f77926b1461051c578063715018a61461054957806374de5e701461055e5780637f3457101461057e5780638ac516b8146105b257600080fd5b806301ffc9a71461020b57806303eb41131461024057806306d7a28c146102a757806308e5bf21146103005780630deee17614610323578063248a9ca3146103455780632f2ff15d1461037557806336568abe146103955780633f30e37a146103b55780633f57fd6e146103d557600080fd5b3661020657005b600080fd5b34801561021757600080fd5b5061022b610226366004611b2a565b610982565b60405190151581526020015b60405180910390f35b34801561024c57600080fd5b5061028561025b366004611b54565b60d36020526000908152604090208054600182015460028301546003909301549192909160ff1684565b6040805194855260208501939093529183015215156060820152608001610237565b3480156102b357600080fd5b506102e86102c2366004611c37565b805160208183018101805160d1825292820191909301209152546001600160a01b031681565b6040516001600160a01b039091168152602001610237565b34801561030c57600080fd5b506103156109b9565b604051908152602001610237565b34801561032f57600080fd5b5061034361033e366004611c37565b6109c9565b005b34801561035157600080fd5b50610315610360366004611b54565b60009081526097602052604090206001015490565b34801561038157600080fd5b50610343610390366004611c8f565b610aaf565b3480156103a157600080fd5b506103436103b0366004611c8f565b610ad9565b3480156103c157600080fd5b5060cb546102e8906001600160a01b031681565b3480156103e157600080fd5b506102e86103f0366004611b54565b60d2602052600090815260409020546001600160a01b031681565b34801561041757600080fd5b506102e8610426366004611b54565b600090815260d360209081526040808320815160808101835281548152600182015481850181905260028301548285015260039092015460ff161515606090910152835260d2825291829020825191820190925290546001600160a01b03169081905290565b34801561049857600080fd5b506103436104a7366004611ccb565b610b5c565b3480156104b857600080fd5b506103436104c7366004611d54565b610be1565b3480156104d857600080fd5b5061022b6104e7366004611e33565b60d06020526000908152604090205460ff1681565b34801561050857600080fd5b5060cc546102e8906001600160a01b031681565b34801561052857600080fd5b5061053c610537366004611e33565b610e87565b6040516102379190611ed6565b34801561055557600080fd5b50610343611034565b34801561056a57600080fd5b50610343610579366004611f4d565b611048565b34801561058a57600080fd5b506103157f7804d923f43a17d325d77e781528e0793b2edd9890ab45fc64efd7b4b427744c81565b3480156105be57600080fd5b506103436105cd366004611b54565b6110c5565b3480156105de57600080fd5b506106556105ed366004611b54565b604080516080808201835260008083526020808401829052838501829052606093840182905294815260d38552839020835191820184528054825260018101549482019490945260028401549281019290925260039092015460ff1615159181019190915290565b604051610237919081518152602080830151908201526040808301519082015260609182015115159181019190915260800190565b34801561069657600080fd5b506033546001600160a01b03166102e8565b3480156106b457600080fd5b5061022b6106c3366004611c8f565b6110fe565b3480156106d457600080fd5b5060cd546102e8906001600160a01b031681565b3480156106f457600080fd5b50610343610703366004611f96565b611129565b34801561071457600080fd5b50610315600081565b34801561072957600080fd5b506103157fcbaaf41b181bb6e269c490e876a7c97711b57e21dd8e5528423cf57579726b3581565b34801561075d57600080fd5b5061034361076c366004611f96565b611244565b34801561077d57600080fd5b5061079161078c366004611e33565b61137b565b604051610237959493929190611fda565b3480156107ae57600080fd5b5060ce546102e8906001600160a01b031681565b3480156107ce57600080fd5b506103436107dd366004611c8f565b6114ca565b3480156107ee57600080fd5b506103157f65d7a28e3265b37a6474929f336521b332c1681b933f6cb9f3376673440d862a81565b34801561082257600080fd5b506103156114ef565b34801561083757600080fd5b506103157f0ce23c3e399818cfee81a7ab0880f714e53d7672b08df0fa62f2843416e1ea0981565b34801561086b57600080fd5b5061031560cf5481565b34801561088157600080fd5b506108c2610890366004611b54565b604080516020808201835260009182905292815260d283528190208151928301909152546001600160a01b0316815290565b60405190516001600160a01b03168152602001610237565b3480156108e657600080fd5b506103436108f5366004611e33565b6114fa565b34801561090657600080fd5b506103157f189ab7a9244df0848122154315af71fe140f3db0fe014031783b0946b8c9d2e381565b34801561093a57600080fd5b50610343610949366004612032565b611570565b34801561095a57600080fd5b506103157f11a8cb5a02bd6c42679835e867ef2118ba78f088f8300511420c6603c21d9c7881565b60006001600160e01b03198216637965db0b60e01b14806109b357506301ffc9a760e01b6001600160e01b03198316145b92915050565b60006109c460ca5490565b905090565b60006109d4816116d2565b600060d1836040516109e69190612086565b908152604051908190036020019020546001600160a01b0316905080610a1f5760405163db4572dd60e01b815260040160405180910390fd5b60d183604051610a2f9190612086565b90815260408051918290036020908101832080546001600160a01b03191690556001600160a01b038416600081815260d0909252919020805460ff1916905590610a7a908590612086565b604051908190038120907f7ad6d7c73213a93d033801d72c729d90fb72104796b75ad799858b26f2b9872f90600090a3505050565b600082815260976020526040902060010154610aca816116d2565b610ad483836116dc565b505050565b6001600160a01b0381163314610b4e5760405162461bcd60e51b815260206004820152602f60248201527f416363657373436f6e74726f6c3a2063616e206f6e6c792072656e6f756e636560448201526e103937b632b9903337b91039b2b63360891b60648201526084015b60405180910390fd5b610b588282611762565b5050565b33600090815260d0602052604081205460ff1615159003610b90576040516365f278c560e11b815260040160405180910390fd5b600082815260d360209081526040918290208351815590830151600182015590820151600282015560608201516003909101805491151560ff19909216919091179055610b5860ca80546001019055565b33600090815260d0602052604081205460ff1615159003610c15576040516365f278c560e11b815260040160405180910390fd5b6001600160a01b03808316600090815260d460209081526040808320815160a0810190925280549094168152600184018054939491939192840191610c59906120a2565b80601f0160208091040260200160405190810160405280929190818152602001828054610c85906120a2565b8015610cd25780601f10610ca757610100808354040283529160200191610cd2565b820191906000526020600020905b815481529060010190602001808311610cb557829003601f168201915b50505050508152602001600282018054610ceb906120a2565b80601f0160208091040260200160405190810160405280929190818152602001828054610d17906120a2565b8015610d645780601f10610d3957610100808354040283529160200191610d64565b820191906000526020600020905b815481529060010190602001808311610d4757829003601f168201915b5050509183525050600382015460209091019060ff166002811115610d8b57610d8b611e9e565b6002811115610d9c57610d9c611e9e565b815260039190910154610100900460ff16151560209182015281015151909150600003610ddb57604051620427cd60e21b815260040160405180910390fd5b6001600160a01b03838116600090815260d460209081526040909120845181546001600160a01b03191693169290921782558301518391906001820190610e22908261212a565b5060408201516002820190610e37908261212a565b50606082015160038201805460ff19166001836002811115610e5b57610e5b611e9e565b021790555060809190910151600390910180549115156101000261ff0019909216919091179055505050565b610e8f611ae1565b6001600160a01b03808316600090815260d46020908152604091829020825160a081019093528054909316825260018301805492939291840191610ed2906120a2565b80601f0160208091040260200160405190810160405280929190818152602001828054610efe906120a2565b8015610f4b5780601f10610f2057610100808354040283529160200191610f4b565b820191906000526020600020905b815481529060010190602001808311610f2e57829003601f168201915b50505050508152602001600282018054610f64906120a2565b80601f0160208091040260200160405190810160405280929190818152602001828054610f90906120a2565b8015610fdd5780601f10610fb257610100808354040283529160200191610fdd565b820191906000526020600020905b815481529060010190602001808311610fc057829003601f168201915b5050509183525050600382015460209091019060ff16600281111561100457611004611e9e565b600281111561101557611015611e9e565b815260039190910154610100900460ff16151560209091015292915050565b61103c6117c9565b6110466000611823565b565b33600090815260d0602052604081205460ff161515900361107c576040516365f278c560e11b815260040160405180910390fd5b8060d2600061108a60c95490565b81526020810191909152604001600020905181546001600160a01b0319166001600160a01b0390911617905560c98054600101905550565b50565b33600090815260d0602052604081205460ff16151590036110f9576040516365f278c560e11b815260040160405180910390fd5b60cf55565b60009182526097602090815260408084206001600160a01b0393909316845291905290205460ff1690565b6000611134816116d2565b6001600160a01b03821661115b57604051632f257cc960e01b815260040160405180910390fd5b60006001600160a01b031660d1846040516111769190612086565b908152604051908190036020019020546001600160a01b0316146111ad57604051635ab1deb960e01b815260040160405180910390fd5b8160d1846040516111be9190612086565b908152604080516020928190038301812080546001600160a01b0319166001600160a01b03958616179055928516600081815260d09093529120805460ff191660011790559061120f908590612086565b604051908190038120907f8b4ef7d4e5bc8f098e6f637ac0acf4aee47b3f027efea6307264b06b4bc9d29890600090a3505050565b600061124f816116d2565b6001600160a01b03821661127657604051633cefac3360e01b815260040160405180910390fd5b600060d1846040516112889190612086565b908152604051908190036020019020546001600160a01b03169050806112c15760405163db4572dd60e01b815260040160405180910390fd5b6001600160a01b038116600090815260d0602052604090819020805460ff1916905551839060d1906112f4908790612086565b908152604080516020928190038301812080546001600160a01b0319166001600160a01b03958616179055928616600081815260d09093529120805460ff1916600117905590611345908690612086565b604051908190038120907ff611fec7babefd259c57ea5b6006acff8140ab17bb816c65ba0aa7e36c09caa890600090a350505050565b60d460205260009081526040902080546001820180546001600160a01b0390921692916113a7906120a2565b80601f01602080910402602001604051908101604052809291908181526020018280546113d3906120a2565b80156114205780601f106113f557610100808354040283529160200191611420565b820191906000526020600020905b81548152906001019060200180831161140357829003601f168201915b505050505090806002018054611435906120a2565b80601f0160208091040260200160405190810160405280929190818152602001828054611461906120a2565b80156114ae5780601f10611483576101008083540402835291602001916114ae565b820191906000526020600020905b81548152906001019060200180831161149157829003601f168201915b5050506003909301549192505060ff8082169161010090041685565b6000828152609760205260409020600101546114e5816116d2565b610ad48383611762565b60006109c460c95490565b6115026117c9565b6001600160a01b0381166115675760405162461bcd60e51b815260206004820152602660248201527f4f776e61626c653a206e6577206f776e657220697320746865207a65726f206160448201526564647265737360d01b6064820152608401610b45565b6110c281611823565b600054610100900460ff16158080156115905750600054600160ff909116105b806115aa5750303b1580156115aa575060005460ff166001145b61160d5760405162461bcd60e51b815260206004820152602e60248201527f496e697469616c697a61626c653a20636f6e747261637420697320616c72656160448201526d191e481a5b9a5d1a585b1a5e995960921b6064820152608401610b45565b6000805460ff191660011790558015611630576000805461ff0019166101001790555b611638611875565b6116436000866116dc565b60ce80546001600160a01b038087166001600160a01b03199283161790925560cc805486841690831617905560cd805492851692909116919091179055600060cf5580156116cb576000805461ff0019169055604051600181527f7f26b83ff96e1f2b6a682f133852f6798a09c465da95921460cefb38474024989060200160405180910390a15b5050505050565b6110c281336118a4565b6116e682826110fe565b610b585760008281526097602090815260408083206001600160a01b03851684529091529020805460ff1916600117905561171e3390565b6001600160a01b0316816001600160a01b0316837f2f8788117e7eff1d82e926ec794901d17c78024a50270940304540a733656f0d60405160405180910390a45050565b61176c82826110fe565b15610b585760008281526097602090815260408083206001600160a01b0385168085529252808320805460ff1916905551339285917ff6391f5c32d9c69d2a47ea670b442974b53935d1edc7fd64eb21e047a839171b9190a45050565b6033546001600160a01b031633146110465760405162461bcd60e51b815260206004820181905260248201527f4f776e61626c653a2063616c6c6572206973206e6f7420746865206f776e65726044820152606401610b45565b603380546001600160a01b038381166001600160a01b0319831681179093556040519116919082907f8be0079c531659141344cd1fd0a4f28419497f9722a3daafe3b4186f6b6457e090600090a35050565b600054610100900460ff1661189c5760405162461bcd60e51b8152600401610b45906121e9565b6110466118fd565b6118ae82826110fe565b610b58576118bb8161192d565b6118c683602061193f565b6040516020016118d7929190612234565b60408051601f198184030181529082905262461bcd60e51b8252610b45916004016122a3565b600054610100900460ff166119245760405162461bcd60e51b8152600401610b45906121e9565b61104633611823565b60606109b36001600160a01b03831660145b6060600061194e8360026122cc565b6119599060026122e3565b6001600160401b0381111561197057611970611b6d565b6040519080825280601f01601f19166020018201604052801561199a576020820181803683370190505b509050600360fc1b816000815181106119b5576119b56122f6565b60200101906001600160f81b031916908160001a905350600f60fb1b816001815181106119e4576119e46122f6565b60200101906001600160f81b031916908160001a9053506000611a088460026122cc565b611a139060016122e3565b90505b6001811115611a8b576f181899199a1a9b1b9c1cb0b131b232b360811b85600f1660108110611a4757611a476122f6565b1a60f81b828281518110611a5d57611a5d6122f6565b60200101906001600160f81b031916908160001a90535060049490941c93611a848161230c565b9050611a16565b508315611ada5760405162461bcd60e51b815260206004820181905260248201527f537472696e67733a20686578206c656e67746820696e73756666696369656e746044820152606401610b45565b9392505050565b6040518060a0016040528060006001600160a01b03168152602001606081526020016060815260200160006002811115611b1d57611b1d611e9e565b8152600060209091015290565b600060208284031215611b3c57600080fd5b81356001600160e01b031981168114611ada57600080fd5b600060208284031215611b6657600080fd5b5035919050565b634e487b7160e01b600052604160045260246000fd5b60405160a081016001600160401b0381118282101715611ba557611ba5611b6d565b60405290565b600082601f830112611bbc57600080fd5b81356001600160401b0380821115611bd657611bd6611b6d565b604051601f8301601f19908116603f01168101908282118183101715611bfe57611bfe611b6d565b81604052838152866020858801011115611c1757600080fd5b836020870160208301376000602085830101528094505050505092915050565b600060208284031215611c4957600080fd5b81356001600160401b03811115611c5f57600080fd5b611c6b84828501611bab565b949350505050565b80356001600160a01b0381168114611c8a57600080fd5b919050565b60008060408385031215611ca257600080fd5b82359150611cb260208401611c73565b90509250929050565b80358015158114611c8a57600080fd5b60008082840360a0811215611cdf57600080fd5b833592506080601f1982011215611cf557600080fd5b50604051608081018181106001600160401b0382111715611d1857611d18611b6d565b8060405250602084013581526040840135602082015260608401356040820152611d4460808501611cbb565b6060820152809150509250929050565b60008060408385031215611d6757600080fd5b611d7083611c73565b915060208301356001600160401b0380821115611d8c57600080fd5b9084019060a08287031215611da057600080fd5b611da8611b83565b611db183611c73565b8152602083013582811115611dc557600080fd5b611dd188828601611bab565b602083015250604083013582811115611de957600080fd5b611df588828601611bab565b6040830152506060830135915060038210611e0f57600080fd5b816060820152611e2160808401611cbb565b60808201528093505050509250929050565b600060208284031215611e4557600080fd5b611ada82611c73565b60005b83811015611e69578181015183820152602001611e51565b50506000910152565b60008151808452611e8a816020860160208601611e4e565b601f01601f19169290920160200192915050565b634e487b7160e01b600052602160045260246000fd5b60038110611ed257634e487b7160e01b600052602160045260246000fd5b9052565b602080825282516001600160a01b03168282015282015160a06040830152600090611f0460c0840182611e72565b90506040840151601f19848303016060850152611f218282611e72565b9150506060840151611f366080850182611eb4565b506080840151151560a08401528091505092915050565b600060208284031215611f5f57600080fd5b604051602081018181106001600160401b0382111715611f8157611f81611b6d565b604052611f8d83611c73565b81529392505050565b60008060408385031215611fa957600080fd5b82356001600160401b03811115611fbf57600080fd5b611fcb85828601611bab565b925050611cb260208401611c73565b6001600160a01b038616815260a060208201819052600090611ffe90830187611e72565b82810360408401526120108187611e72565b9150506120206060830185611eb4565b82151560808301529695505050505050565b6000806000806080858703121561204857600080fd5b61205185611c73565b935061205f60208601611c73565b925061206d60408601611c73565b915061207b60608601611c73565b905092959194509250565b60008251612098818460208701611e4e565b9190910192915050565b600181811c908216806120b657607f821691505b6020821081036120d657634e487b7160e01b600052602260045260246000fd5b50919050565b601f821115610ad457600081815260208120601f850160051c810160208610156121035750805b601f850160051c820191505b818110156121225782815560010161210f565b505050505050565b81516001600160401b0381111561214357612143611b6d565b6121578161215184546120a2565b846120dc565b602080601f83116001811461218c57600084156121745750858301515b600019600386901b1c1916600185901b178555612122565b600085815260208120601f198616915b828110156121bb5788860151825594840194600190910190840161219c565b50858210156121d95787850151600019600388901b60f8161c191681555b5050505050600190811b01905550565b6020808252602b908201527f496e697469616c697a61626c653a20636f6e7472616374206973206e6f74206960408201526a6e697469616c697a696e6760a81b606082015260800190565b76020b1b1b2b9b9a1b7b73a3937b61d1030b1b1b7bab73a1604d1b815260008351612266816017850160208801611e4e565b7001034b99036b4b9b9b4b733903937b6329607d1b6017918401918201528351612297816028840160208801611e4e565b01602801949350505050565b602081526000611ada6020830184611e72565b634e487b7160e01b600052601160045260246000fd5b80820281158282048414176109b3576109b36122b6565b808201808211156109b3576109b36122b6565b634e487b7160e01b600052603260045260246000fd5b60008161231b5761231b6122b6565b50600019019056fea2646970667358221220f6b79c624677bcc28e0ef3ec88d60d52241c8a4940f68d9e3affa2f4877ee10a64736f6c63430008110033",
  "linkReferences": {},
  "deployedLinkReferences": {}
}