{
  "_format": "hh-sol-artifact-1",
  "contractName": "TpBadgeModelController",
  "sourceName": "src/contracts/badgeModelControllers/TpBadgeModelController.sol",
  "abi": [
    {
      "inputs": [],
      "stateMutability": "nonpayable",
      "type": "constructor"
    },
    {
      "inputs": [],
      "name": "AccessControlBadConfirmation",
      "type": "error"
    },
    {
      "inputs": [
        {
          "internalType": "address",
          "name": "account",
          "type": "address"
        },
        {
          "internalType": "bytes32",
          "name": "neededRole",
          "type": "bytes32"
        }
      ],
      "name": "AccessControlUnauthorizedAccount",
      "type": "error"
    },
    {
      "inputs": [
        {
          "internalType": "address",
          "name": "target",
          "type": "address"
        }
      ],
      "name": "AddressEmptyCode",
      "type": "error"
    },
    {
      "inputs": [
        {
          "internalType": "address",
          "name": "implementation",
          "type": "address"
        }
      ],
      "name": "ERC1967InvalidImplementation",
      "type": "error"
    },
    {
      "inputs": [],
      "name": "ERC1967NonPayable",
      "type": "error"
    },
    {
      "inputs": [],
      "name": "FailedInnerCall",
      "type": "error"
    },
    {
      "inputs": [],
      "name": "InvalidInitialization",
      "type": "error"
    },
    {
      "inputs": [],
      "name": "NotInitializing",
      "type": "error"
    },
    {
      "inputs": [],
      "name": "TheBadge__onlyUser_userNotFound",
      "type": "error"
    },
    {
      "inputs": [],
      "name": "TheBadge__verifyUser__userVerificationRejected",
      "type": "error"
    },
    {
      "inputs": [],
      "name": "ThirdPartyModelController__badge__tcrKlerosBadgeNotFound",
      "type": "error"
    },
    {
      "inputs": [],
      "name": "ThirdPartyModelController__claimBadge_invalidBadgeOrAlreadyClaimed",
      "type": "error"
    },
    {
      "inputs": [],
      "name": "ThirdPartyModelController__claimBadge_invalidRecipient",
      "type": "error"
    },
    {
      "inputs": [],
      "name": "ThirdPartyModelController__claimBadge_userNotAllowed",
      "type": "error"
    },
    {
      "inputs": [],
      "name": "ThirdPartyModelController__createBadgeModel_TCRListAddressZero",
      "type": "error"
    },
    {
      "inputs": [],
      "name": "ThirdPartyModelController__createBadgeModel_badgeModelAlreadyCreated",
      "type": "error"
    },
    {
      "inputs": [],
      "name": "ThirdPartyModelController__method_not_supported",
      "type": "error"
    },
    {
      "inputs": [],
      "name": "ThirdPartyModelController__mintBadge_wrongValue",
      "type": "error"
    },
    {
      "inputs": [],
      "name": "ThirdPartyModelController__onlyTheBadge_senderNotTheBadge",
      "type": "error"
    },
    {
      "inputs": [],
      "name": "ThirdPartyModelController__onlyTheBadge_senderNotTheBadgeModels",
      "type": "error"
    },
    {
      "inputs": [],
      "name": "ThirdPartyModelController__store_OperationNotPermitted",
      "type": "error"
    },
    {
      "inputs": [],
      "name": "UUPSUnauthorizedCallContext",
      "type": "error"
    },
    {
      "inputs": [
        {
          "internalType": "bytes32",
          "name": "slot",
          "type": "bytes32"
        }
      ],
      "name": "UUPSUnsupportedProxiableUUID",
      "type": "error"
    },
    {
      "anonymous": false,
      "inputs": [
        {
          "indexed": true,
          "internalType": "address",
          "name": "admin",
          "type": "address"
        }
      ],
      "name": "Initialize",
      "type": "event"
    },
    {
      "anonymous": false,
      "inputs": [
        {
          "indexed": false,
          "internalType": "uint64",
          "name": "version",
          "type": "uint64"
        }
      ],
      "name": "Initialized",
      "type": "event"
    },
    {
      "anonymous": false,
      "inputs": [
        {
          "indexed": true,
          "internalType": "uint256",
          "name": "badgeModelId",
          "type": "uint256"
        },
        {
          "indexed": true,
          "internalType": "address",
          "name": "tcrAddress",
          "type": "address"
        }
      ],
      "name": "NewThirdPartyBadgeModel",
      "type": "event"
    },
    {
      "anonymous": false,
      "inputs": [],
      "name": "ProtocolSettingsUpdated",
      "type": "event"
    },
    {
      "anonymous": false,
      "inputs": [
        {
          "indexed": true,
          "internalType": "bytes32",
          "name": "role",
          "type": "bytes32"
        },
        {
          "indexed": true,
          "internalType": "bytes32",
          "name": "previousAdminRole",
          "type": "bytes32"
        },
        {
          "indexed": true,
          "internalType": "bytes32",
          "name": "newAdminRole",
          "type": "bytes32"
        }
      ],
      "name": "RoleAdminChanged",
      "type": "event"
    },
    {
      "anonymous": false,
      "inputs": [
        {
          "indexed": true,
          "internalType": "bytes32",
          "name": "role",
          "type": "bytes32"
        },
        {
          "indexed": true,
          "internalType": "address",
          "name": "account",
          "type": "address"
        },
        {
          "indexed": true,
          "internalType": "address",
          "name": "sender",
          "type": "address"
        }
      ],
      "name": "RoleGranted",
      "type": "event"
    },
    {
      "anonymous": false,
      "inputs": [
        {
          "indexed": true,
          "internalType": "bytes32",
          "name": "role",
          "type": "bytes32"
        },
        {
          "indexed": true,
          "internalType": "address",
          "name": "account",
          "type": "address"
        },
        {
          "indexed": true,
          "internalType": "address",
          "name": "sender",
          "type": "address"
        }
      ],
      "name": "RoleRevoked",
      "type": "event"
    },
    {
      "anonymous": false,
      "inputs": [
        {
          "indexed": true,
          "internalType": "address",
          "name": "originAddress",
          "type": "address"
        },
        {
          "indexed": true,
          "internalType": "address",
          "name": "recipientAddress",
          "type": "address"
        },
        {
          "indexed": true,
          "internalType": "uint256",
          "name": "badgeId",
          "type": "uint256"
        }
      ],
      "name": "ThirdPartyBadgeClaimed",
      "type": "event"
    },
    {
      "anonymous": false,
      "inputs": [
        {
          "indexed": true,
          "internalType": "uint256",
          "name": "badgeId",
          "type": "uint256"
        },
        {
          "indexed": true,
          "internalType": "bytes32",
          "name": "tcrItemId",
          "type": "bytes32"
        }
      ],
      "name": "ThirdPartyBadgeMinted",
      "type": "event"
    },
    {
      "anonymous": false,
      "inputs": [
        {
          "indexed": true,
          "internalType": "address",
          "name": "implementation",
          "type": "address"
        }
      ],
      "name": "Upgraded",
      "type": "event"
    },
    {
      "inputs": [],
      "name": "CLAIMER_ROLE",
      "outputs": [
        {
          "internalType": "bytes32",
          "name": "",
          "type": "bytes32"
        }
      ],
      "stateMutability": "view",
      "type": "function"
    },
    {
      "inputs": [],
      "name": "DEFAULT_ADMIN_ROLE",
      "outputs": [
        {
          "internalType": "bytes32",
          "name": "",
          "type": "bytes32"
        }
      ],
      "stateMutability": "view",
      "type": "function"
    },
    {
      "inputs": [],
      "name": "PAUSER_ROLE",
      "outputs": [
        {
          "internalType": "bytes32",
          "name": "",
          "type": "bytes32"
        }
      ],
      "stateMutability": "view",
      "type": "function"
    },
    {
      "inputs": [],
      "name": "UPGRADER_ROLE",
      "outputs": [
        {
          "internalType": "bytes32",
          "name": "",
          "type": "bytes32"
        }
      ],
      "stateMutability": "view",
      "type": "function"
    },
    {
      "inputs": [],
      "name": "UPGRADE_INTERFACE_VERSION",
      "outputs": [
        {
          "internalType": "string",
          "name": "",
          "type": "string"
        }
      ],
      "stateMutability": "view",
      "type": "function"
    },
    {
      "inputs": [],
      "name": "URI_SETTER_ROLE",
      "outputs": [
        {
          "internalType": "bytes32",
          "name": "",
          "type": "bytes32"
        }
      ],
      "stateMutability": "view",
      "type": "function"
    },
    {
      "inputs": [],
      "name": "USER_MANAGER_ROLE",
      "outputs": [
        {
          "internalType": "bytes32",
          "name": "",
          "type": "bytes32"
        }
      ],
      "stateMutability": "view",
      "type": "function"
    },
    {
      "inputs": [],
      "name": "VERIFIER_ROLE",
      "outputs": [
        {
          "internalType": "bytes32",
          "name": "",
          "type": "bytes32"
        }
      ],
      "stateMutability": "view",
      "type": "function"
    },
    {
      "inputs": [
        {
          "internalType": "uint256",
          "name": "",
          "type": "uint256"
        },
        {
          "internalType": "bytes",
          "name": "",
          "type": "bytes"
        },
        {
          "internalType": "address",
          "name": "",
          "type": "address"
        }
      ],
      "name": "challenge",
      "outputs": [],
      "stateMutability": "payable",
      "type": "function"
    },
    {
      "inputs": [
        {
          "internalType": "uint256",
          "name": "badgeId",
          "type": "uint256"
        },
        {
          "internalType": "bytes",
          "name": "data",
          "type": "bytes"
        },
        {
          "internalType": "address",
          "name": "caller",
          "type": "address"
        }
      ],
      "name": "claim",
      "outputs": [
        {
          "internalType": "address",
          "name": "",
          "type": "address"
        }
      ],
      "stateMutability": "nonpayable",
      "type": "function"
    },
    {
      "inputs": [
        {
          "internalType": "address",
          "name": "callee",
          "type": "address"
        },
        {
          "internalType": "uint256",
          "name": "badgeModelId",
          "type": "uint256"
        },
        {
          "internalType": "bytes",
          "name": "data",
          "type": "bytes"
        }
      ],
      "name": "createBadgeModel",
      "outputs": [],
      "stateMutability": "nonpayable",
      "type": "function"
    },
    {
      "inputs": [
        {
          "internalType": "uint256",
          "name": "",
          "type": "uint256"
        }
      ],
      "name": "getChallengeDepositValue",
      "outputs": [
        {
          "internalType": "uint256",
          "name": "",
          "type": "uint256"
        }
      ],
      "stateMutability": "pure",
      "type": "function"
    },
    {
      "inputs": [
        {
          "internalType": "uint256",
          "name": "",
          "type": "uint256"
        }
      ],
      "name": "getRemovalDepositValue",
      "outputs": [
        {
          "internalType": "uint256",
          "name": "",
          "type": "uint256"
        }
      ],
      "stateMutability": "pure",
      "type": "function"
    },
    {
      "inputs": [
        {
          "internalType": "bytes32",
          "name": "role",
          "type": "bytes32"
        }
      ],
      "name": "getRoleAdmin",
      "outputs": [
        {
          "internalType": "bytes32",
          "name": "",
          "type": "bytes32"
        }
      ],
      "stateMutability": "view",
      "type": "function"
    },
    {
      "inputs": [],
      "name": "getVerifyUserProtocolFee",
      "outputs": [
        {
          "internalType": "uint256",
          "name": "",
          "type": "uint256"
        }
      ],
      "stateMutability": "view",
      "type": "function"
    },
    {
      "inputs": [
        {
          "internalType": "bytes32",
          "name": "role",
          "type": "bytes32"
        },
        {
          "internalType": "address",
          "name": "account",
          "type": "address"
        }
      ],
      "name": "grantRole",
      "outputs": [],
      "stateMutability": "nonpayable",
      "type": "function"
    },
    {
      "inputs": [
        {
          "internalType": "bytes32",
          "name": "role",
          "type": "bytes32"
        },
        {
          "internalType": "address",
          "name": "account",
          "type": "address"
        }
      ],
      "name": "hasRole",
      "outputs": [
        {
          "internalType": "bool",
          "name": "",
          "type": "bool"
        }
      ],
      "stateMutability": "view",
      "type": "function"
    },
    {
      "inputs": [
        {
          "internalType": "address",
          "name": "admin",
          "type": "address"
        },
        {
          "internalType": "address",
          "name": "_theBadge",
          "type": "address"
        },
        {
          "internalType": "address",
          "name": "_theBadgeModels",
          "type": "address"
        },
        {
          "internalType": "address",
          "name": "_tpBadgeModelStore",
          "type": "address"
        },
        {
          "internalType": "address",
          "name": "_theBadgeUsers",
          "type": "address"
        }
      ],
      "name": "initialize",
      "outputs": [],
      "stateMutability": "nonpayable",
      "type": "function"
    },
    {
      "inputs": [
        {
          "internalType": "uint256",
          "name": "badgeId",
          "type": "uint256"
        }
      ],
      "name": "isAssetActive",
      "outputs": [
        {
          "internalType": "bool",
          "name": "",
          "type": "bool"
        }
      ],
      "stateMutability": "view",
      "type": "function"
    },
    {
      "inputs": [],
      "name": "isAutomaticClaimable",
      "outputs": [
        {
          "internalType": "bool",
          "name": "",
          "type": "bool"
        }
      ],
      "stateMutability": "pure",
      "type": "function"
    },
    {
      "inputs": [],
      "name": "isBadgeModelMetadataUpdatable",
      "outputs": [
        {
          "internalType": "bool",
          "name": "",
          "type": "bool"
        }
      ],
      "stateMutability": "pure",
      "type": "function"
    },
    {
      "inputs": [],
      "name": "isBadgeModelMetadataUpgradeable",
      "outputs": [
        {
          "internalType": "bool",
          "name": "",
          "type": "bool"
        }
      ],
      "stateMutability": "pure",
      "type": "function"
    },
    {
      "inputs": [
        {
          "internalType": "uint256",
          "name": "badgeId",
          "type": "uint256"
        }
      ],
      "name": "isClaimable",
      "outputs": [
        {
          "internalType": "bool",
          "name": "",
          "type": "bool"
        }
      ],
      "stateMutability": "view",
      "type": "function"
    },
    {
      "inputs": [
        {
          "internalType": "uint256",
          "name": "",
          "type": "uint256"
        },
        {
          "internalType": "address",
          "name": "",
          "type": "address"
        }
      ],
      "name": "isMintableToController",
      "outputs": [
        {
          "internalType": "bool",
          "name": "",
          "type": "bool"
        }
      ],
      "stateMutability": "pure",
      "type": "function"
    },
    {
      "inputs": [
        {
          "internalType": "address",
          "name": "callee",
          "type": "address"
        },
        {
          "internalType": "uint256",
          "name": "badgeModelId",
          "type": "uint256"
        },
        {
          "internalType": "uint256",
          "name": "badgeId",
          "type": "uint256"
        },
        {
          "internalType": "bytes",
          "name": "data",
          "type": "bytes"
        },
        {
          "internalType": "address",
          "name": "",
          "type": "address"
        }
      ],
      "name": "mint",
      "outputs": [
        {
          "internalType": "uint256",
          "name": "",
          "type": "uint256"
        }
      ],
      "stateMutability": "payable",
      "type": "function"
    },
    {
      "inputs": [
        {
          "internalType": "uint256",
          "name": "",
          "type": "uint256"
        }
      ],
      "name": "mintValue",
      "outputs": [
        {
          "internalType": "uint256",
          "name": "",
          "type": "uint256"
        }
      ],
      "stateMutability": "pure",
      "type": "function"
    },
    {
      "inputs": [
        {
          "internalType": "address",
          "name": "",
          "type": "address"
        },
        {
          "internalType": "address",
          "name": "",
          "type": "address"
        },
        {
          "internalType": "uint256[]",
          "name": "",
          "type": "uint256[]"
        },
        {
          "internalType": "uint256[]",
          "name": "",
          "type": "uint256[]"
        },
        {
          "internalType": "bytes",
          "name": "",
          "type": "bytes"
        }
      ],
      "name": "onERC1155BatchReceived",
      "outputs": [
        {
          "internalType": "bytes4",
          "name": "",
          "type": "bytes4"
        }
      ],
      "stateMutability": "nonpayable",
      "type": "function"
    },
    {
      "inputs": [
        {
          "internalType": "address",
          "name": "",
          "type": "address"
        },
        {
          "internalType": "address",
          "name": "",
          "type": "address"
        },
        {
          "internalType": "uint256",
          "name": "",
          "type": "uint256"
        },
        {
          "internalType": "uint256",
          "name": "",
          "type": "uint256"
        },
        {
          "internalType": "bytes",
          "name": "",
          "type": "bytes"
        }
      ],
      "name": "onERC1155Received",
      "outputs": [
        {
          "internalType": "bytes4",
          "name": "",
          "type": "bytes4"
        }
      ],
      "stateMutability": "nonpayable",
      "type": "function"
    },
    {
      "inputs": [],
      "name": "proxiableUUID",
      "outputs": [
        {
          "internalType": "bytes32",
          "name": "",
          "type": "bytes32"
        }
      ],
      "stateMutability": "view",
      "type": "function"
    },
    {
      "inputs": [
        {
          "internalType": "uint256",
          "name": "",
          "type": "uint256"
        },
        {
          "internalType": "bytes",
          "name": "",
          "type": "bytes"
        },
        {
          "internalType": "address",
          "name": "",
          "type": "address"
        }
      ],
      "name": "removeItem",
      "outputs": [],
      "stateMutability": "payable",
      "type": "function"
    },
    {
      "inputs": [
        {
          "internalType": "bytes32",
          "name": "role",
          "type": "bytes32"
        },
        {
          "internalType": "address",
          "name": "callerConfirmation",
          "type": "address"
        }
      ],
      "name": "renounceRole",
      "outputs": [],
      "stateMutability": "nonpayable",
      "type": "function"
    },
    {
      "inputs": [
        {
          "internalType": "bytes32",
          "name": "role",
          "type": "bytes32"
        },
        {
          "internalType": "address",
          "name": "account",
          "type": "address"
        }
      ],
      "name": "revokeRole",
      "outputs": [],
      "stateMutability": "nonpayable",
      "type": "function"
    },
    {
      "inputs": [
        {
          "internalType": "uint256",
          "name": "",
          "type": "uint256"
        },
        {
          "internalType": "bytes",
          "name": "",
          "type": "bytes"
        },
        {
          "internalType": "address",
          "name": "",
          "type": "address"
        }
      ],
      "name": "submitEvidence",
      "outputs": [],
      "stateMutability": "pure",
      "type": "function"
    },
    {
      "inputs": [
        {
          "internalType": "bytes4",
          "name": "interfaceId",
          "type": "bytes4"
        }
      ],
      "name": "supportsInterface",
      "outputs": [
        {
          "internalType": "bool",
          "name": "",
          "type": "bool"
        }
      ],
      "stateMutability": "view",
      "type": "function"
    },
    {
      "inputs": [],
      "name": "theBadge",
      "outputs": [
        {
          "internalType": "contract TheBadge",
          "name": "",
          "type": "address"
        }
      ],
      "stateMutability": "view",
      "type": "function"
    },
    {
      "inputs": [],
      "name": "theBadgeModels",
      "outputs": [
        {
          "internalType": "contract TheBadgeModels",
          "name": "",
          "type": "address"
        }
      ],
      "stateMutability": "view",
      "type": "function"
    },
    {
      "inputs": [],
      "name": "theBadgeUsers",
      "outputs": [
        {
          "internalType": "contract TheBadgeUsers",
          "name": "",
          "type": "address"
        }
      ],
      "stateMutability": "view",
      "type": "function"
    },
    {
      "inputs": [],
      "name": "tpBadgeModelControllerStore",
      "outputs": [
        {
          "internalType": "contract TpBadgeModelControllerStore",
          "name": "",
          "type": "address"
        }
      ],
      "stateMutability": "view",
      "type": "function"
    },
    {
      "inputs": [
        {
          "internalType": "uint256",
          "name": "_verifyUserProtocolFee",
          "type": "uint256"
        }
      ],
      "name": "updateVerifyUserProtocolFee",
      "outputs": [],
      "stateMutability": "nonpayable",
      "type": "function"
    },
    {
      "inputs": [
        {
          "internalType": "address",
          "name": "newImplementation",
          "type": "address"
        },
        {
          "internalType": "bytes",
          "name": "data",
          "type": "bytes"
        }
      ],
      "name": "upgradeToAndCall",
      "outputs": [],
      "stateMutability": "payable",
      "type": "function"
    },
    {
      "stateMutability": "payable",
      "type": "receive"
    }
  ],
  "bytecode": "0x60a080604052346100cc57306080527ff0c57e16840df040f15088dc2f81fe391c3923bec73e23a9662efc9c229c6a009081549060ff8260401c166100bd57506001600160401b036002600160401b031982821601610078575b60405161287390816100d18239608051818181610e1e0152610eb30152f35b6001600160401b031990911681179091556040519081527fc7f505b2f371ae2175ee4913f4499e1f2633a7b5936321eed1cdaeb6115181d290602090a15f8080610059565b63f92ee8a960e01b8152600490fd5b5f80fdfe608080604052600436101561001c575b50361561001a575f80fd5b005b5f90813560e01c90816301ffc9a714611d835750806304a3c5d71461139e5780630d3f35071461096b5780631459457a146111d957806322e900c2146111ba578063248a9ca3146111815780632f2ff15d1461113757806336568abe146110ef578063401fef94146110c95780634d854cb4146108065780634f1ef28614610e7557806352d1902d14610e0b57806360a72f1614610de457806361cf6b4814610dc2578063632f7c8314610dc7578063681294b414610dc25780637657dbdd14610d355780637eb7f176146107b35780637f34571014610cfa57806389610a0914610cd15780638ac516b814610be257806391d1485414610b8c5780639c6b9f8a14610987578063a217fddf1461096b578063a41e35c314610930578063ad3cb1cc146108e6578063ae1c29e8146108bd578063bc197c8114610834578063caa39ec51461080b578063d3245f2614610806578063d547741f146107b8578063d7deba15146107b3578063d8bee3561461078f578063e63ab1e914610754578063e7705db614610719578063f23a6e61146106bf578063f4bcaf4214610696578063f6563d5f14610241578063f72c0d8b146102195763fc5f18d30361000f573461021657806003193601126102165760206040517f11a8cb5a02bd6c42679835e867ef2118ba78f088f8300511420c6603c21d9c788152f35b80fd5b503461021657806003193601126102165760206040515f805160206127de8339815191528152f35b5060a036600319011261021657610256611df2565b906001600160401b0360443560243560643583811161051f5761027d903690600401611e48565b610288929192611e1e565b506002546001600160a01b03939084163303610684578654604051637210b3d560e01b8152600481018590526001600160a01b038a16602482015260209991861691908a81604481865afa90811561067957908b918b9161063f575b50156105b1575b505060405163632f7c8360e01b8152600481018590528981602481305afa9081156105a6578991610575575b50340361056357876024916040519283809263f2be2c8560e01b82528860048301525afa9081156105585785916040918a91610536575b50015116918101908881830312610532578035908782116105075701958887830312610532576040519661038188611ed2565b803591821161050757610395929101611f5f565b90818652803b1561052e576103ca9187918983604051809681958294638545c6a560e01b84526004840152602483019061203b565b03925af180156105235790869161050b575b505083516040516104098882816103fc818301968781519384920161201a565b8101038084520182611f23565b51902093516040519161041b83611eed565b85835287830190815260408301928584526060810194600186526080820193845288541692833b1561050757889493929161049e86926040519889978896879563d568e41f60e01b87528d60048801526040602488015251604487015251606486015251608485015251151560a48401525160a060c484015260e483019061203b565b03925af180156104fc5783929185916104df575b50507fc93f2370bc3cb1e7aba45230ebba753ccb6bfb4481d0333177da0936617db9536040519480a38152f35b6104eb91929350611e90565b6104f8578190835f6104b2565b8280fd5b6040513d86823e3d90fd5b8880fd5b61051490611e90565b61051f57845f6103dc565b8480fd5b6040513d88823e3d90fd5b8680fd5b8780fd5b61055291503d808c833e61054a8183611f23565b810190612489565b5f61034e565b6040513d8a823e3d90fd5b6040516323d256f560e11b8152600490fd5b90508981813d831161059f575b61058c8183611f23565b8101031261059b57515f610317565b5f80fd5b503d610582565b6040513d8b823e3d90fd5b6040516309c5215f60e01b8152600481018790526001600160a01b0392909216602483015281604481855afa9081156105a657899161060a575b50156105f8575f896102eb565b6040516365f278c560e11b8152600490fd5b90508981813d8311610638575b6106218183611f23565b81010312610507576106329061247c565b5f6105eb565b503d610617565b82819392503d8311610672575b6106568183611f23565b8101031261066e576106688b9161247c565b5f6102e4565b8980fd5b503d61064c565b6040513d8c823e3d90fd5b60405163145ed2fd60e11b8152600490fd5b50346102165780600319360112610216576003546040516001600160a01b039091168152602090f35b50346102165760a0366003190112610216576106d9611df2565b506106e2611e08565b506084356001600160401b03811161071557610702903690600401611f5f565b5060405163f23a6e6160e01b8152602090f35b5080fd5b503461021657806003193601126102165760206040517f0ce23c3e399818cfee81a7ab0880f714e53d7672b08df0fa62f2843416e1ea098152f35b503461021657806003193601126102165760206040517f65d7a28e3265b37a6474929f336521b332c1681b933f6cb9f3376673440d862a8152f35b50346102165761079e36611fa5565b505050506004604051631d1a1dc360e01b8152fd5b611ff5565b5034610216576040366003190112610216576108026004356107d8611e08565b908084525f8051602061281e8339815191526020526107fd60016040862001546120d5565b612340565b5080f35b611e75565b50346102165780600319360112610216576002546040516001600160a01b039091168152602090f35b50346102165760a03660031901126102165761084e611df2565b50610857611e08565b506001600160401b036044358181116104f857610878903690600401612077565b506064358181116104f857610891903690600401612077565b50608435908111610715576108aa903690600401611f5f565b5060405163bc197c8160e01b8152602090f35b50346102165780600319360112610216576001546040516001600160a01b039091168152602090f35b503461021657806003193601126102165761092c60405161090681611f08565b60058152640352e302e360dc1b602082015260405191829160208352602083019061203b565b0390f35b503461021657806003193601126102165760206040517fcbaaf41b181bb6e269c490e876a7c97711b57e21dd8e5528423cf57579726b358152f35b5034610216578060031936011261021657602090604051908152f35b50346102165761099636611fa5565b600254929493926001600160a01b03929190831690338203610684578692602097889181010312610b1a57836109d7604051946109d286611ed2565b611e34565b8085521615610b7a57604051627eeac760e11b8152306004820152602481018690528781604481865afa908115610b6f578791610b42575b5015610b30577f11a8cb5a02bd6c42679835e867ef2118ba78f088f8300511420c6603c21d9c7886525f8051602061281e8339815191528752836040872091165f52865260ff60405f20541615610b1e5782825116813b15610b1a57859160e483926040519485938492637921219560e11b845230600485015260248401528960448401526001606484015260a06084840152600260a484015261060f60f31b60c48401525af18015610b0f57908591610af7575b505051169081604051937f280cdbffa74e002595cb5c98dcc7b8d7b9df1b76726918883663d1ff690d8720309180a48152f35b610b0090611e90565b610b0b57835f610ac4565b8380fd5b6040513d87823e3d90fd5b8580fd5b604051631ffdebad60e21b8152600490fd5b604051632357a08560e01b8152600490fd5b90508781813d8311610b68575b610b598183611f23565b8101031261059b57515f610a0f565b503d610b4f565b6040513d89823e3d90fd5b6040516341773d6d60e11b8152600490fd5b5034610216576040366003190112610216576040610ba8611e08565b9160043581525f8051602061281e833981519152602052209060018060a01b03165f52602052602060ff60405f2054166040519015158152f35b503461021657602036600319011261021657335f9081527fb7db2dd08fcb62d0c9e08c51941cae53c267786a0b75803fb7960902fc8ef97d602052604090205460ff1615610cb357805481906001600160a01b0316803b15610cb057818091602460405180948193631158a2d760e31b835260043560048401525af18015610ca557610c91575b50807f810f1720fbc34c56d171f89315ad21708648fd17424c27b88fa208409845aa7791a180f35b610c9a90611e90565b61021657805f610c69565b6040513d84823e3d90fd5b50fd5b60405163e2517d3f60e01b81523360048201525f6024820152604490fd5b5034610216576020366003190112610216576020610cf0600435612536565b6040519015158152f35b503461021657806003193601126102165760206040517f7804d923f43a17d325d77e781528e0793b2edd9890ab45fc64efd7b4b427744c8152f35b5034610216578060031936011261021657805460405163777db25d60e11b81529190602090839060049082906001600160a01b03165afa908115610db65790610d84575b602090604051908152f35b506020813d8211610dae575b81610d9d60209383611f23565b8101031261059b5760209051610d79565b3d9150610d90565b604051903d90823e3d90fd5b611fec565b503461021657602036600319011261021657602090604051908152f35b5034610216578060031936011261021657546040516001600160a01b039091168152602090f35b50346102165780600319360112610216577f00000000000000000000000000000000000000000000000000000000000000006001600160a01b03163003610e635760206040515f805160206127fe8339815191528152f35b60405163703e46dd60e11b8152600490fd5b50604036600319011261021657610e8a611df2565b6024356001600160401b0381116104f857610ea9903690600401611f5f565b6001600160a01b037f000000000000000000000000000000000000000000000000000000000000000081163081149081156110ae575b50610e6357335f9081527fab71e3f32666744d246edff3f96e4bdafee2e9867098cdd118a979a7464786a860209081526040909120549091905f805160206127de8339815191529060ff161561109057508316926040516352d1902d60e01b81528281600481885afa869181611061575b50610f6e57604051634c9c8ce360e01b815260048101869052602490fd5b9385945f805160206127fe833981519152908181036110495750823b156110305780546001600160a01b0319168217905560405185917fbc7cd75a20ee27fd9adebab32041f755214dbc6bffa90cc0225b39da2e5c2d3b8380a2845115611013575080848461080296519101845af4903d1561100a573d610fee81611f44565b90610ffc6040519283611f23565b81528581943d92013e6123c0565b606092506123c0565b935050505034611021575080f35b63b398979f60e01b8152600490fd5b604051634c9c8ce360e01b815260048101839052602490fd5b60249060405190632a87526960e21b82526004820152fd5b9091508381813d8311611089575b6110798183611f23565b8101031261052e5751905f610f50565b503d61106f565b6044906040519063e2517d3f60e01b82523360048301526024820152fd5b9050815f805160206127fe833981519152541614155f610edf565b5034610216576040366003190112610216576110e3611e08565b50602060405160018152f35b503461021657604036600319011261021657611109611e08565b336001600160a01b038216036111255761080290600435612340565b60405163334bd91960e11b8152600490fd5b503461021657604036600319011261021657610802600435611157611e08565b908084525f8051602061281e83398151915260205261117c60016040862001546120d5565b6122cf565b5034610216576020366003190112610216576001604060209260043581525f8051602061281e8339815191528452200154604051908152f35b5034610216576020366003190112610216576020610cf06004356125c0565b50346102165760a0366003190112610216576111f3611df2565b6111fb611e08565b6044356001600160a01b038181169182900361059b576064359281841680940361059b57611227611e1e565b937ff0c57e16840df040f15088dc2f81fe391c3923bec73e23a9662efc9c229c6a009485549160ff8360401c1615956001600160401b03841680159081611396575b600114908161138c575b159081611383575b506113715767ffffffffffffffff1984166001178855859387611352575b506112a389612103565b506112ad8961218e565b506112b78961223b565b508360018060a01b03199516856002541617600255846003541617600355838954161788551690600154161760015560405193167f36b1453565f45af7b509b59d5e2eac8f1948ea9e3e193db6663b4101afb6382c8580a2611317578280f35b805460ff60401b19169055600181527fc7f505b2f371ae2175ee4913f4499e1f2633a7b5936321eed1cdaeb6115181d290602090a15f808280f35b68ffffffffffffffffff1916680100000000000000011788555f611299565b60405163f92ee8a960e01b8152600490fd5b9050155f61127b565b303b159150611273565b889150611269565b5034610216576060366003190112610216576113b8611df2565b6044356001600160401b0381116104f8576113d7903690600401611e48565b6003546001600160a01b03163303611d715760015460405163034ff23560e61b81523060048201526001600160a01b0385811660248301529091869183916044918391165afa908115610b0f578591611c77575b5060a081015115611c6557606001516003811015611c5157600103611c3f5760018060a01b038454169060405163f2be2c8560e01b815260243560048201528581602481865afa908115610523578691611c25575b50604001516001600160a01b0316611c1357602083828101031261051f576001600160401b0383351161051f57604083358401828501031261051f5760405192604084018481106001600160401b03821117611bff576040526001600160401b03813582013511610b1a5780820181358201803501601f011215610b1a57803581018035013561150f81612060565b9061151d6040519283611f23565b8082526020820184840160208360051b863587013587358801010101116105075783358401803501602001905b84358501803501600584901b016020018210611be457505050845260208135820101356001600160401b03811161052e5761158b9282019180350101611f5f565b602083015260405190639f780b1d60e01b8252602082600481845afa918215610b0f578592611ba3575b50602060049160405192838092636cc6cde160e01b82525afa908115610b0f578591611b61575b5061162661164160206040518181018981528282526115fa82611f08565b604051611635848201926001845285835261161483611f08565b6040519788955180928888019061201a565b8401915180938684019061201a565b01038084520182611f23565b6040519061164e82611f08565b601f82527f697066733a2f2f726567697374726174696f6e4d65746145766964656e63650060208301526040519161168583611f08565b601b83527f697066733a2f2f636c656172696e674d65746145766964656e636500000000006020840152604051928360808101106001600160401b03608086011117611b4d576080840160405269021e19e0c9bab24000008085528060208601528060408601526060850152604051928360608101106001600160401b03606086011117611b3957606084016040908152606480865260208601819052908501526001600160a01b0387163b1561066e5794918993949161178e6117a092611776604051998a9763d8dcbd2760e01b895260018060a01b031660048901526101e060248901526101e488019061203b565b9087604488015260031987830301606488015261203b565b8481036003190160848601529061203b565b3060a4840152908360c484015b60048210611b1d57505050603c610144830152610164820193835b60038110611b01575050306101c48301529192509081900381836001600160a01b0387165af18015610b0f57611aee575b506040516306661abd60e01b81526020816004816001600160a01b0386165afa908115610b0f578591611abc575b505f198101908111611aa85760405163a2f7b3a560e01b81526004810191909152906020908290602490829088906001600160a01b03165af19081156104fc578491611a66575b506001600160a01b0316918215611a5457839060208301516040519161189383611eb7565b6001600160a01b03908116835260243560208401526040830186905230606084018190526080840152600160a084015260c0830191909152825416803b156104f8576040805163132021ab60e01b8152602480356004830152810182905283516001600160a01b0390811660448301526020850151606483015291840151821660848201526060840151821660a4820152608084015190911660c482015260a0830151151560e482015260c09092015160e0610104840152839183918290849082906119649061012483019061203b565b03925af18015610ca557611a40575b505082549051906001600160a01b0316803b15610b0b5790839160405191632d1b791560e11b8352604483016024356004850152604060248501528151809152602060648501920190855b818110611a1e575050508391838381809403925af18015610ca557611a0a575b50506024357fc465f0869e4b9761b8e3132a1295ad33ca24e5757eed5398a80ffe94f65d05de8380a380f35b611a1390611e90565b61071557815f6119de565b82516001600160a01b03168452889650602093840193909201916001016119be565b611a4990611e90565b6104f857825f611973565b60405163b76d9a5f60e01b8152600490fd5b90506020813d602011611aa0575b81611a8160209383611f23565b81010312610b0b57516001600160a01b0381168103610b0b575f61186e565b3d9150611a74565b634e487b7160e01b85526011600452602485fd5b90506020813d602011611ae6575b81611ad760209383611f23565b8101031261059b57515f611827565b3d9150611aca565b611afa90949194611e90565b925f6117f9565b815186526020958601958b9550879450909101906001016117c8565b825181528b9550879450602092830192600190920191016117ad565b634e487b7160e01b8a52604160045260248afd5b634e487b7160e01b89526041600452602489fd5b90506020813d602011611b9b575b81611b7c60209383611f23565b8101031261051f57516001600160a01b038116810361051f575f6115dc565b3d9150611b6f565b9091506020813d602011611bdc575b81611bbf60209383611f23565b8101031261051f576020611bd4600492612423565b9291506115b5565b3d9150611bb2565b6020808092611bf285611e34565b815201920191905061154a565b634e487b7160e01b87526041600452602487fd5b60405163614d157f60e11b8152600490fd5b611c3991503d8088833e61054a8183611f23565b5f611480565b60405163208d6c4160e01b8152600490fd5b634e487b7160e01b85526021600452602485fd5b60405163ce848fe360e01b8152600490fd5b90503d8086833e611c888183611f23565b810190602081830312610b1a578051906001600160401b03821161052e570160c081830312610b1a576040519160c083018381106001600160401b03821117611d5d57604052611cd782612423565b835260208201516001600160401b0381116105325781611cf8918401612437565b60208401526040820151906001600160401b03821161053257611d1c918301612437565b60408301526060810151600381101561052e57611d529160a0916060850152611d4760808201612423565b60808501520161247c565b60a08201525f61142b565b634e487b7160e01b88526041600452602488fd5b60405163b84b622b60e01b8152600490fd5b9050346107155760203660031901126107155760043563ffffffff60e01b81168091036104f85760209250630271189760e51b8114908115611dc7575b5015158152f35b637965db0b60e01b811491508115611de1575b505f611dc0565b6301ffc9a760e01b1490505f611dda565b600435906001600160a01b038216820361059b57565b602435906001600160a01b038216820361059b57565b608435906001600160a01b038216820361059b57565b35906001600160a01b038216820361059b57565b9181601f8401121561059b578235916001600160401b03831161059b576020838186019501011161059b57565b3461059b575f36600319011261059b57602060405160018152f35b6001600160401b038111611ea357604052565b634e487b7160e01b5f52604160045260245ffd5b60e081019081106001600160401b03821117611ea357604052565b602081019081106001600160401b03821117611ea357604052565b60a081019081106001600160401b03821117611ea357604052565b604081019081106001600160401b03821117611ea357604052565b90601f801991011681019081106001600160401b03821117611ea357604052565b6001600160401b038111611ea357601f01601f191660200190565b81601f8201121561059b57803590611f7682611f44565b92611f846040519485611f23565b8284526020838301011161059b57815f926020809301838601378301015290565b90606060031983011261059b5760043591602435906001600160401b03821161059b57611fd491600401611e48565b90916044356001600160a01b038116810361059b5790565b61079e36611fa5565b3461059b57602036600319011261059b57602060405169021e19e0c9bab24000008152f35b5f5b83811061202b5750505f910152565b818101518382015260200161201c565b906020916120548151809281855285808601910161201a565b601f01601f1916010190565b6001600160401b038111611ea35760051b60200190565b81601f8201121561059b5780359161208e83612060565b9261209c6040519485611f23565b808452602092838086019260051b82010192831161059b578301905b8282106120c6575050505090565b813581529083019083016120b8565b805f525f8051602061281e83398151915260205260405f20335f5260205260ff60405f205416156110905750565b6001600160a01b03165f8181527fb7db2dd08fcb62d0c9e08c51941cae53c267786a0b75803fb7960902fc8ef97d60205260408120549091905f8051602061281e8339815191529060ff16612189578280526020526040822081835260205260408220600160ff1982541617905533915f805160206127be8339815191528180a4600190565b505090565b6001600160a01b03165f8181527f75442b0a96088b5456bc4ed01394c96a4feec0f883c9494257d76b96ab1c9b6b60205260408120549091907f65d7a28e3265b37a6474929f336521b332c1681b933f6cb9f3376673440d862a905f8051602061281e8339815191529060ff16612235578184526020526040832082845260205260408320600160ff198254161790555f805160206127be833981519152339380a4600190565b50505090565b6001600160a01b03165f8181527fab71e3f32666744d246edff3f96e4bdafee2e9867098cdd118a979a7464786a860205260408120549091905f805160206127de833981519152905f8051602061281e8339815191529060ff16612235578184526020526040832082845260205260408320600160ff198254161790555f805160206127be833981519152339380a4600190565b905f918083525f8051602061281e83398151915280602052604084209260018060a01b03169283855260205260ff604085205416155f14612235578184526020526040832082845260205260408320600160ff198254161790555f805160206127be833981519152339380a4600190565b905f918083525f8051602061281e83398151915280602052604084209260018060a01b03169283855260205260ff6040852054165f1461223557818452602052604083208284526020526040832060ff1981541690557ff6391f5c32d9c69d2a47ea670b442974b53935d1edc7fd64eb21e047a839171b339380a4600190565b906123e757508051156123d557805190602001fd5b604051630a12f52160e11b8152600490fd5b8151158061241a575b6123f8575090565b604051639996b31560e01b81526001600160a01b039091166004820152602490fd5b50803b156123f0565b51906001600160a01b038216820361059b57565b81601f8201121561059b57805161244d81611f44565b9261245b6040519485611f23565b8184526020828401011161059b57612479916020808501910161201a565b90565b5190811515820361059b57565b9060208282031261059b5781516001600160401b039283821161059b57019060e08282031261059b57604051926124bf84611eb7565b6124c883612423565b8452602083015160208501526124e060408401612423565b60408501526124f160608401612423565b606085015261250260808401612423565b608085015261251360a0840161247c565b60a085015260c083015190811161059b5761252e9201612437565b60c082015290565b600254604051627eeac760e11b81523060048201526024810192909252602090829060449082906001600160a01b03165afa9081156125b5575f91612584575b5061257f575f90565b600190565b906020823d82116125ad575b8161259d60209383611f23565b810103126102165750515f612576565b3d9150612590565b6040513d5f823e3d90fd5b5f805460408051630ffdff0d60e21b81526004810185905292939290916020916001600160a01b0391821691908381602481865afa9081156127b357879161277e575b501693841561276d57859060248551809481936346c1c31160e11b835260048301525afa9081156127635785916126d2575b5060609150516024835180958193634aac84e560e01b835260048301525afa9081156126c95750829061268d575b60ff91501660018114908115612682575b5061267c5790565b50600190565b60039150145f612674565b506060813d82116126c1575b816126a660609383611f23565b81010312610715575160ff811681036107155760ff90612663565b3d9150612699565b513d84823e3d90fd5b90503d8086833e6126e38183611f23565b8101908281830312610b1a5780516001600160401b0391828211610532570160a08184031261052e5784519361271885611eed565b81518552808201519085015284810151858501526127386060820161247c565b6060850152608081015191821161052e5791612758916060949301612437565b60808201525f612635565b83513d87823e3d90fd5b8351630c6ed91d60e01b8152600490fd5b90508381813d83116127ac575b6127958183611f23565b8101031261052e576127a690612423565b5f612603565b503d61278b565b85513d89823e3d90fdfe2f8788117e7eff1d82e926ec794901d17c78024a50270940304540a733656f0d189ab7a9244df0848122154315af71fe140f3db0fe014031783b0946b8c9d2e3360894a13ba1a3210667c828492db98dca3e2076cc3735a920a3ca505d382bbc02dd7bc7dec4dceedda775e58dd541e08a116c6c53815c0bd028192f7b626800a26469706673582212202806e1b9d78cb469f96fc5e7881df6619741998b5d0bd23f088353e98280cb0864736f6c63430008140033",
  "linkReferences": {},
  "deployedLinkReferences": {}
}