{
  "_format": "hh-sol-artifact-1",
  "contractName": "TpBadgeModelControllerStore",
  "sourceName": "src/contracts/badgeModelControllers/TpBadgeModelControllerStore.sol",
  "abi": [
    {
      "inputs": [],
      "stateMutability": "nonpayable",
      "type": "constructor"
    },
    {
      "inputs": [],
      "name": "AccessControlBadConfirmation",
      "type": "error"
    },
    {
      "inputs": [
        {
          "internalType": "address",
          "name": "account",
          "type": "address"
        },
        {
          "internalType": "bytes32",
          "name": "neededRole",
          "type": "bytes32"
        }
      ],
      "name": "AccessControlUnauthorizedAccount",
      "type": "error"
    },
    {
      "inputs": [],
      "name": "InvalidInitialization",
      "type": "error"
    },
    {
      "inputs": [],
      "name": "NotInitializing",
      "type": "error"
    },
    {
      "inputs": [
        {
          "internalType": "address",
          "name": "owner",
          "type": "address"
        }
      ],
      "name": "OwnableInvalidOwner",
      "type": "error"
    },
    {
      "inputs": [
        {
          "internalType": "address",
          "name": "account",
          "type": "address"
        }
      ],
      "name": "OwnableUnauthorizedAccount",
      "type": "error"
    },
    {
      "inputs": [],
      "name": "TheBadge__Store_InvalidContractAddress",
      "type": "error"
    },
    {
      "inputs": [],
      "name": "ThirdPartyModelController__createBadgeModel_badgeModelAlreadyCreated",
      "type": "error"
    },
    {
      "inputs": [],
      "name": "ThirdPartyModelController__store_ContractNameAlreadyExists",
      "type": "error"
    },
    {
      "inputs": [],
      "name": "ThirdPartyModelController__store_InvalidContractAddress",
      "type": "error"
    },
    {
      "inputs": [],
      "name": "ThirdPartyModelController__store_InvalidContractName",
      "type": "error"
    },
    {
      "inputs": [],
      "name": "ThirdPartyModelController__store_OperationNotPermitted",
      "type": "error"
    },
    {
      "anonymous": false,
      "inputs": [
        {
          "indexed": true,
          "internalType": "string",
          "name": "_contractName",
          "type": "string"
        },
        {
          "indexed": true,
          "internalType": "address",
          "name": "contractAddress",
          "type": "address"
        }
      ],
      "name": "ContractAdded",
      "type": "event"
    },
    {
      "anonymous": false,
      "inputs": [
        {
          "indexed": true,
          "internalType": "string",
          "name": "_contractName",
          "type": "string"
        },
        {
          "indexed": true,
          "internalType": "address",
          "name": "contractAddress",
          "type": "address"
        }
      ],
      "name": "ContractRemoved",
      "type": "event"
    },
    {
      "anonymous": false,
      "inputs": [
        {
          "indexed": true,
          "internalType": "string",
          "name": "_contractName",
          "type": "string"
        },
        {
          "indexed": true,
          "internalType": "address",
          "name": "contractAddress",
          "type": "address"
        }
      ],
      "name": "ContractUpdated",
      "type": "event"
    },
    {
      "anonymous": false,
      "inputs": [
        {
          "indexed": true,
          "internalType": "address",
          "name": "admin",
          "type": "address"
        },
        {
          "indexed": true,
          "internalType": "address",
          "name": "tcrFactory",
          "type": "address"
        }
      ],
      "name": "Initialize",
      "type": "event"
    },
    {
      "anonymous": false,
      "inputs": [
        {
          "indexed": false,
          "internalType": "uint64",
          "name": "version",
          "type": "uint64"
        }
      ],
      "name": "Initialized",
      "type": "event"
    },
    {
      "anonymous": false,
      "inputs": [
        {
          "indexed": true,
          "internalType": "uint256",
          "name": "badgeId",
          "type": "uint256"
        },
        {
          "indexed": false,
          "internalType": "string",
          "name": "evidence",
          "type": "string"
        }
      ],
      "name": "MintThirdPartyBadge",
      "type": "event"
    },
    {
      "anonymous": false,
      "inputs": [
        {
          "indexed": true,
          "internalType": "address",
          "name": "previousOwner",
          "type": "address"
        },
        {
          "indexed": true,
          "internalType": "address",
          "name": "newOwner",
          "type": "address"
        }
      ],
      "name": "OwnershipTransferred",
      "type": "event"
    },
    {
      "anonymous": false,
      "inputs": [],
      "name": "ProtocolSettingsUpdated",
      "type": "event"
    },
    {
      "anonymous": false,
      "inputs": [
        {
          "indexed": true,
          "internalType": "bytes32",
          "name": "role",
          "type": "bytes32"
        },
        {
          "indexed": true,
          "internalType": "bytes32",
          "name": "previousAdminRole",
          "type": "bytes32"
        },
        {
          "indexed": true,
          "internalType": "bytes32",
          "name": "newAdminRole",
          "type": "bytes32"
        }
      ],
      "name": "RoleAdminChanged",
      "type": "event"
    },
    {
      "anonymous": false,
      "inputs": [
        {
          "indexed": true,
          "internalType": "bytes32",
          "name": "role",
          "type": "bytes32"
        },
        {
          "indexed": true,
          "internalType": "address",
          "name": "account",
          "type": "address"
        },
        {
          "indexed": true,
          "internalType": "address",
          "name": "sender",
          "type": "address"
        }
      ],
      "name": "RoleGranted",
      "type": "event"
    },
    {
      "anonymous": false,
      "inputs": [
        {
          "indexed": true,
          "internalType": "bytes32",
          "name": "role",
          "type": "bytes32"
        },
        {
          "indexed": true,
          "internalType": "address",
          "name": "account",
          "type": "address"
        },
        {
          "indexed": true,
          "internalType": "address",
          "name": "sender",
          "type": "address"
        }
      ],
      "name": "RoleRevoked",
      "type": "event"
    },
    {
      "inputs": [],
      "name": "CLAIMER_ROLE",
      "outputs": [
        {
          "internalType": "bytes32",
          "name": "",
          "type": "bytes32"
        }
      ],
      "stateMutability": "view",
      "type": "function"
    },
    {
      "inputs": [],
      "name": "DEFAULT_ADMIN_ROLE",
      "outputs": [
        {
          "internalType": "bytes32",
          "name": "",
          "type": "bytes32"
        }
      ],
      "stateMutability": "view",
      "type": "function"
    },
    {
      "inputs": [],
      "name": "PAUSER_ROLE",
      "outputs": [
        {
          "internalType": "bytes32",
          "name": "",
          "type": "bytes32"
        }
      ],
      "stateMutability": "view",
      "type": "function"
    },
    {
      "inputs": [],
      "name": "UPGRADER_ROLE",
      "outputs": [
        {
          "internalType": "bytes32",
          "name": "",
          "type": "bytes32"
        }
      ],
      "stateMutability": "view",
      "type": "function"
    },
    {
      "inputs": [],
      "name": "URI_SETTER_ROLE",
      "outputs": [
        {
          "internalType": "bytes32",
          "name": "",
          "type": "bytes32"
        }
      ],
      "stateMutability": "view",
      "type": "function"
    },
    {
      "inputs": [],
      "name": "USER_MANAGER_ROLE",
      "outputs": [
        {
          "internalType": "bytes32",
          "name": "",
          "type": "bytes32"
        }
      ],
      "stateMutability": "view",
      "type": "function"
    },
    {
      "inputs": [],
      "name": "VERIFIER_ROLE",
      "outputs": [
        {
          "internalType": "bytes32",
          "name": "",
          "type": "bytes32"
        }
      ],
      "stateMutability": "view",
      "type": "function"
    },
    {
      "inputs": [
        {
          "internalType": "uint256",
          "name": "badgeModelId",
          "type": "uint256"
        },
        {
          "internalType": "address",
          "name": "administrator",
          "type": "address"
        }
      ],
      "name": "addAdministratorToBadgeModel",
      "outputs": [],
      "stateMutability": "nonpayable",
      "type": "function"
    },
    {
      "inputs": [
        {
          "internalType": "uint256",
          "name": "badgeModelId",
          "type": "uint256"
        },
        {
          "internalType": "address[]",
          "name": "administrators",
          "type": "address[]"
        }
      ],
      "name": "addAdministratorsToBadgeModel",
      "outputs": [],
      "stateMutability": "nonpayable",
      "type": "function"
    },
    {
      "inputs": [
        {
          "internalType": "uint256",
          "name": "badgeId",
          "type": "uint256"
        },
        {
          "components": [
            {
              "internalType": "bytes32",
              "name": "itemID",
              "type": "bytes32"
            },
            {
              "internalType": "uint256",
              "name": "badgeModelId",
              "type": "uint256"
            },
            {
              "internalType": "uint256",
              "name": "badgeId",
              "type": "uint256"
            },
            {
              "internalType": "bool",
              "name": "initialized",
              "type": "bool"
            },
            {
              "internalType": "string",
              "name": "badgeDataUri",
              "type": "string"
            }
          ],
          "internalType": "struct TpBadgeModelControllerStore.ThirdPartyBadge",
          "name": "badge",
          "type": "tuple"
        }
      ],
      "name": "addBadge",
      "outputs": [],
      "stateMutability": "nonpayable",
      "type": "function"
    },
    {
      "inputs": [
        {
          "internalType": "uint256",
          "name": "_badgeModelId",
          "type": "uint256"
        },
        {
          "components": [
            {
              "internalType": "address",
              "name": "owner",
              "type": "address"
            },
            {
              "internalType": "uint256",
              "name": "badgeModelId",
              "type": "uint256"
            },
            {
              "internalType": "address",
              "name": "tcrList",
              "type": "address"
            },
            {
              "internalType": "address",
              "name": "governor",
              "type": "address"
            },
            {
              "internalType": "address",
              "name": "admin",
              "type": "address"
            },
            {
              "internalType": "bool",
              "name": "initialized",
              "type": "bool"
            },
            {
              "internalType": "string",
              "name": "requirementsIPFSHash",
              "type": "string"
            }
          ],
          "internalType": "struct TpBadgeModelControllerStore.ThirdPartyBadgeModel",
          "name": "badgeModel",
          "type": "tuple"
        }
      ],
      "name": "addBadgeModel",
      "outputs": [],
      "stateMutability": "nonpayable",
      "type": "function"
    },
    {
      "inputs": [
        {
          "internalType": "string",
          "name": "_contractName",
          "type": "string"
        },
        {
          "internalType": "address",
          "name": "_contractAddress",
          "type": "address"
        }
      ],
      "name": "addPermittedContract",
      "outputs": [],
      "stateMutability": "nonpayable",
      "type": "function"
    },
    {
      "inputs": [
        {
          "internalType": "address",
          "name": "",
          "type": "address"
        }
      ],
      "name": "allowedContractAddresses",
      "outputs": [
        {
          "internalType": "bool",
          "name": "",
          "type": "bool"
        }
      ],
      "stateMutability": "view",
      "type": "function"
    },
    {
      "inputs": [
        {
          "internalType": "string",
          "name": "",
          "type": "string"
        }
      ],
      "name": "allowedContractAddressesByContractName",
      "outputs": [
        {
          "internalType": "address",
          "name": "",
          "type": "address"
        }
      ],
      "stateMutability": "view",
      "type": "function"
    },
    {
      "inputs": [],
      "name": "arbitrator",
      "outputs": [
        {
          "internalType": "contract IArbitrator",
          "name": "",
          "type": "address"
        }
      ],
      "stateMutability": "view",
      "type": "function"
    },
    {
      "inputs": [],
      "name": "feeCollector",
      "outputs": [
        {
          "internalType": "address",
          "name": "",
          "type": "address"
        }
      ],
      "stateMutability": "view",
      "type": "function"
    },
    {
      "inputs": [
        {
          "internalType": "uint256",
          "name": "badgeId",
          "type": "uint256"
        }
      ],
      "name": "getBadge",
      "outputs": [
        {
          "components": [
            {
              "internalType": "bytes32",
              "name": "itemID",
              "type": "bytes32"
            },
            {
              "internalType": "uint256",
              "name": "badgeModelId",
              "type": "uint256"
            },
            {
              "internalType": "uint256",
              "name": "badgeId",
              "type": "uint256"
            },
            {
              "internalType": "bool",
              "name": "initialized",
              "type": "bool"
            },
            {
              "internalType": "string",
              "name": "badgeDataUri",
              "type": "string"
            }
          ],
          "internalType": "struct TpBadgeModelControllerStore.ThirdPartyBadge",
          "name": "",
          "type": "tuple"
        }
      ],
      "stateMutability": "view",
      "type": "function"
    },
    {
      "inputs": [
        {
          "internalType": "uint256",
          "name": "badgeModelId",
          "type": "uint256"
        }
      ],
      "name": "getBadgeModel",
      "outputs": [
        {
          "components": [
            {
              "internalType": "address",
              "name": "owner",
              "type": "address"
            },
            {
              "internalType": "uint256",
              "name": "badgeModelId",
              "type": "uint256"
            },
            {
              "internalType": "address",
              "name": "tcrList",
              "type": "address"
            },
            {
              "internalType": "address",
              "name": "governor",
              "type": "address"
            },
            {
              "internalType": "address",
              "name": "admin",
              "type": "address"
            },
            {
              "internalType": "bool",
              "name": "initialized",
              "type": "bool"
            },
            {
              "internalType": "string",
              "name": "requirementsIPFSHash",
              "type": "string"
            }
          ],
          "internalType": "struct TpBadgeModelControllerStore.ThirdPartyBadgeModel",
          "name": "",
          "type": "tuple"
        }
      ],
      "stateMutability": "view",
      "type": "function"
    },
    {
      "inputs": [
        {
          "internalType": "uint256",
          "name": "badgeId",
          "type": "uint256"
        }
      ],
      "name": "getBadgeTcrList",
      "outputs": [
        {
          "internalType": "address",
          "name": "",
          "type": "address"
        }
      ],
      "stateMutability": "view",
      "type": "function"
    },
    {
      "inputs": [],
      "name": "getCurrentBadgeIdCounter",
      "outputs": [
        {
          "internalType": "uint256",
          "name": "",
          "type": "uint256"
        }
      ],
      "stateMutability": "view",
      "type": "function"
    },
    {
      "inputs": [],
      "name": "getCurrentBadgeModelsIdCounter",
      "outputs": [
        {
          "internalType": "uint256",
          "name": "",
          "type": "uint256"
        }
      ],
      "stateMutability": "view",
      "type": "function"
    },
    {
      "inputs": [
        {
          "internalType": "bytes32",
          "name": "role",
          "type": "bytes32"
        }
      ],
      "name": "getRoleAdmin",
      "outputs": [
        {
          "internalType": "bytes32",
          "name": "",
          "type": "bytes32"
        }
      ],
      "stateMutability": "view",
      "type": "function"
    },
    {
      "inputs": [
        {
          "internalType": "bytes32",
          "name": "role",
          "type": "bytes32"
        },
        {
          "internalType": "address",
          "name": "account",
          "type": "address"
        }
      ],
      "name": "grantRole",
      "outputs": [],
      "stateMutability": "nonpayable",
      "type": "function"
    },
    {
      "inputs": [
        {
          "internalType": "bytes32",
          "name": "role",
          "type": "bytes32"
        },
        {
          "internalType": "address",
          "name": "account",
          "type": "address"
        }
      ],
      "name": "hasRole",
      "outputs": [
        {
          "internalType": "bool",
          "name": "",
          "type": "bool"
        }
      ],
      "stateMutability": "view",
      "type": "function"
    },
    {
      "inputs": [
        {
          "internalType": "address",
          "name": "admin",
          "type": "address"
        },
        {
          "internalType": "address",
          "name": "_feeCollector",
          "type": "address"
        },
        {
          "internalType": "address",
          "name": "_arbitrator",
          "type": "address"
        },
        {
          "internalType": "address",
          "name": "_tcrFactory",
          "type": "address"
        }
      ],
      "name": "initialize",
      "outputs": [],
      "stateMutability": "nonpayable",
      "type": "function"
    },
    {
      "inputs": [
        {
          "internalType": "uint256",
          "name": "badgeModelId",
          "type": "uint256"
        },
        {
          "internalType": "address",
          "name": "userAddress",
          "type": "address"
        }
      ],
      "name": "isBadgeModelAdministrator",
      "outputs": [
        {
          "internalType": "bool",
          "name": "",
          "type": "bool"
        }
      ],
      "stateMutability": "view",
      "type": "function"
    },
    {
      "inputs": [
        {
          "internalType": "uint256",
          "name": "badgeModelId",
          "type": "uint256"
        },
        {
          "internalType": "address",
          "name": "userAddress",
          "type": "address"
        }
      ],
      "name": "isBadgeModelOwner",
      "outputs": [
        {
          "internalType": "bool",
          "name": "",
          "type": "bool"
        }
      ],
      "stateMutability": "view",
      "type": "function"
    },
    {
      "inputs": [],
      "name": "owner",
      "outputs": [
        {
          "internalType": "address",
          "name": "",
          "type": "address"
        }
      ],
      "stateMutability": "view",
      "type": "function"
    },
    {
      "inputs": [
        {
          "internalType": "uint256",
          "name": "badgeModelId",
          "type": "uint256"
        },
        {
          "internalType": "address",
          "name": "administrator",
          "type": "address"
        }
      ],
      "name": "removeAdministratorFromBadgeModel",
      "outputs": [],
      "stateMutability": "nonpayable",
      "type": "function"
    },
    {
      "inputs": [
        {
          "internalType": "string",
          "name": "_contractName",
          "type": "string"
        }
      ],
      "name": "removePermittedContract",
      "outputs": [],
      "stateMutability": "nonpayable",
      "type": "function"
    },
    {
      "inputs": [],
      "name": "renounceOwnership",
      "outputs": [],
      "stateMutability": "nonpayable",
      "type": "function"
    },
    {
      "inputs": [
        {
          "internalType": "bytes32",
          "name": "role",
          "type": "bytes32"
        },
        {
          "internalType": "address",
          "name": "callerConfirmation",
          "type": "address"
        }
      ],
      "name": "renounceRole",
      "outputs": [],
      "stateMutability": "nonpayable",
      "type": "function"
    },
    {
      "inputs": [
        {
          "internalType": "bytes32",
          "name": "role",
          "type": "bytes32"
        },
        {
          "internalType": "address",
          "name": "account",
          "type": "address"
        }
      ],
      "name": "revokeRole",
      "outputs": [],
      "stateMutability": "nonpayable",
      "type": "function"
    },
    {
      "inputs": [
        {
          "internalType": "bytes4",
          "name": "interfaceId",
          "type": "bytes4"
        }
      ],
      "name": "supportsInterface",
      "outputs": [
        {
          "internalType": "bool",
          "name": "",
          "type": "bool"
        }
      ],
      "stateMutability": "view",
      "type": "function"
    },
    {
      "inputs": [],
      "name": "tcrFactory",
      "outputs": [
        {
          "internalType": "address",
          "name": "",
          "type": "address"
        }
      ],
      "stateMutability": "view",
      "type": "function"
    },
    {
      "inputs": [
        {
          "internalType": "uint256",
          "name": "",
          "type": "uint256"
        },
        {
          "internalType": "address",
          "name": "",
          "type": "address"
        }
      ],
      "name": "thirdPartyAdministratorsByBadgeModel",
      "outputs": [
        {
          "internalType": "bool",
          "name": "",
          "type": "bool"
        }
      ],
      "stateMutability": "view",
      "type": "function"
    },
    {
      "inputs": [
        {
          "internalType": "uint256",
          "name": "",
          "type": "uint256"
        }
      ],
      "name": "thirdPartyBadgeModels",
      "outputs": [
        {
          "internalType": "address",
          "name": "owner",
          "type": "address"
        },
        {
          "internalType": "uint256",
          "name": "badgeModelId",
          "type": "uint256"
        },
        {
          "internalType": "address",
          "name": "tcrList",
          "type": "address"
        },
        {
          "internalType": "address",
          "name": "governor",
          "type": "address"
        },
        {
          "internalType": "address",
          "name": "admin",
          "type": "address"
        },
        {
          "internalType": "bool",
          "name": "initialized",
          "type": "bool"
        },
        {
          "internalType": "string",
          "name": "requirementsIPFSHash",
          "type": "string"
        }
      ],
      "stateMutability": "view",
      "type": "function"
    },
    {
      "inputs": [
        {
          "internalType": "uint256",
          "name": "",
          "type": "uint256"
        }
      ],
      "name": "thirdPartyBadges",
      "outputs": [
        {
          "internalType": "bytes32",
          "name": "itemID",
          "type": "bytes32"
        },
        {
          "internalType": "uint256",
          "name": "badgeModelId",
          "type": "uint256"
        },
        {
          "internalType": "uint256",
          "name": "badgeId",
          "type": "uint256"
        },
        {
          "internalType": "bool",
          "name": "initialized",
          "type": "bool"
        },
        {
          "internalType": "string",
          "name": "badgeDataUri",
          "type": "string"
        }
      ],
      "stateMutability": "view",
      "type": "function"
    },
    {
      "inputs": [],
      "name": "thirdPartyModelController",
      "outputs": [
        {
          "internalType": "contract TpBadgeModelController",
          "name": "",
          "type": "address"
        }
      ],
      "stateMutability": "view",
      "type": "function"
    },
    {
      "inputs": [
        {
          "internalType": "address",
          "name": "newOwner",
          "type": "address"
        }
      ],
      "name": "transferOwnership",
      "outputs": [],
      "stateMutability": "nonpayable",
      "type": "function"
    },
    {
      "inputs": [
        {
          "internalType": "string",
          "name": "_contractName",
          "type": "string"
        },
        {
          "internalType": "address",
          "name": "_newContractAddress",
          "type": "address"
        }
      ],
      "name": "updatePermittedContract",
      "outputs": [],
      "stateMutability": "nonpayable",
      "type": "function"
    },
    {
      "inputs": [
        {
          "internalType": "uint256",
          "name": "_verifyUserProtocolFee",
          "type": "uint256"
        }
      ],
      "name": "updateVerifyUserProtocolFee",
      "outputs": [],
      "stateMutability": "nonpayable",
      "type": "function"
    },
    {
      "inputs": [],
      "name": "verifyUserProtocolFee",
      "outputs": [
        {
          "internalType": "uint256",
          "name": "",
          "type": "uint256"
        }
      ],
      "stateMutability": "view",
      "type": "function"
    },
    {
      "stateMutability": "payable",
      "type": "receive"
    }
  ],
  "bytecode": "0x608080604052346100b8577ff0c57e16840df040f15088dc2f81fe391c3923bec73e23a9662efc9c229c6a009081549060ff8260401c166100a957506001600160401b036002600160401b031982821601610064575b604051611f1e90816100bd8239f35b6001600160401b031990911681179091556040519081527fc7f505b2f371ae2175ee4913f4499e1f2633a7b5936321eed1cdaeb6115181d290602090a15f8080610055565b63f92ee8a960e01b8152600490fd5b5f80fdfe6080604081815260049182361015610021575b505050361561001f575f80fd5b005b5f9260e08435811c92836301ffc9a71461184f5750826303eb4113146117e257826306d7a28c1461177957826308e5bf211461175957826309c5215f14610d055782630deee17614611675578263132021ab146113ad578263248a9ca3146113755782632f2ff15d1461134b57826336568abe146113045782633f30e37a146112da5782633f57fd6e1461124e5782633ff7fc34146111735782635a36f22a146110605782635e98ba6714611005578263687a055714610fc65782636cc6cde114610f9c578263715018a614610f335782637210b3d514610d895782637f34571014610d4d5782638966a82414610d055782638ac516b814610cc85782638d83862214610c045782638da5cb5b14610bce57826391d1485414610b7a57826395ae690f14610b145782639f780b1d14610aeb578263a1fa355c14610a00578263a217fddf146109e4578263a41e35c3146109a8578263b26fc204146108ab578263c415b95c14610881578263d547741f14610835578263d568e41f14610620578263e63ab1e9146105e4578263e7343c8a146105c6578263e7705db61461058a578263eefb64ba1461056a578263f2be2c851461045057508163f2fde38b14610420578163f72c0d8b146103e5578163f8c8765e14610248575063fc5f18d31461020b5780610012565b34610244578160031936011261024457602090517f11a8cb5a02bd6c42679835e867ef2118ba78f088f8300511420c6603c21d9c788152f35b5080fd5b9050346103e15760803660031901126103e157610263611ac3565b61026b611aad565b6001600160a01b03929060443584811691908290036103dd57606435918583168093036103d9577ff0c57e16840df040f15088dc2f81fe391c3923bec73e23a9662efc9c229c6a009586549560ff878a1c1615966001600160401b038116801590816103d1575b60011490816103c7575b1590816103be575b506103ae5767ffffffffffffffff198116600117895561032491908861038f575b5061030e611e11565b610316611e11565b61031f81611da0565b611bc0565b5060018060a01b0319921682600554161760055581600354161760035582541617905583600655610353578280f35b805460ff60401b1916905551600181527fc7f505b2f371ae2175ee4913f4499e1f2633a7b5936321eed1cdaeb6115181d290602090a15f808280f35b68ffffffffffffffffff1916680100000000000000011789555f610305565b895163f92ee8a960e01b81528790fd5b9050155f6102e4565b303b1591506102dc565b8991506102d2565b8780fd5b8680fd5b8280fd5b505034610244578160031936011261024457602090517f189ab7a9244df0848122154315af71fe140f3db0fe014031783b0946b8c9d2e38152f35b833461044d57602036600319011261044d5761044a61043d611ac3565b610445611d68565b611da0565b80f35b80fd5b9091503461056657602092836003193601126105625760a08161055e949596606060c0835161047e816118db565b838152838b8201528385820152838382015283608082015283868201520152863581526009885220825180936104b3826118db565b600180851b039788848195938280955416865260018201548d870190815261051460058560028601541694848a0195865260ff876003830154169860608c01998a528201549c8b898f9d6080019d168d52019c60a01c1615158c5201611961565b9960c081019a8b5282519e8f9e8f92828452511691015251908c0152511660608a015251166080880152511660a086015251151560c0850152519080840152610100830190611a23565b0390f35b8480fd5b8380fd5b505050346102445781600319360112610244576020906006549051908152f35b50505034610244578160031936011261024457602090517f0ce23c3e399818cfee81a7ab0880f714e53d7672b08df0fa62f2843416e1ea098152f35b50505034610244578160031936011261024457602091549051908152f35b50505034610244578160031936011261024457602090517f65d7a28e3265b37a6474929f336521b332c1681b933f6cb9f3376673440d862a8152f35b50838334610244576003199080823601126103e157602435916001600160401b03908184116105625760a09084360301126105665781516106608161190a565b8386013581526020908181019460248101358652848201956044820135875261068b60648301611aed565b91606084019283526084810135868111610831578a94939291856106b29236920101611a63565b9660808401978852338a526007865260ff818b205416156108225784358a52600a8652892092518355519660019788840155516002830155600382019051151560ff8019835416911617905501925195865192831161080f575061071683546118a3565b601f81116107c9575b5080601f831160011461076657508495829394959261075b575b50505f19600383901b1c191690831b1790555b6107568154611e86565b905580f35b015190508580610739565b90601f198316968487528287209287905b8982106107b2575050838697989695961061079a575b505050811b01905561074c565b01515f1960f88460031b161c1916905585808061078d565b808885968294968601518155019501930190610777565b838652818620601f840160051c810191838510610805575b601f0160051c019085905b8281106107fa57505061071f565b8781550185906107ec565b90915081906107e1565b634e487b7160e01b865260419052602485fd5b516365f278c560e11b81528490fd5b8980fd5b848285346103e157806003193601126103e15761087d9135610878600161085a611aad565b938387525f80516020611ec983398151915260205286200154611b92565b611ce8565b5080f35b5050503461024457816003193601126102445760055490516001600160a01b039091168152602090f35b848285346103e1576108bc36611afa565b90916108c6611b3b565b6001600160a01b0391821693841561099a57815192845193602081818801966108f081838a611a02565b81016008815203019020541690811561098c57506109659392916001918752600760205261093760208289209460ff19958681541690558351809381928951928391611a02565b8101600881520301902086838060a01b03198254161790558587526007602052862091825416179055611e66565b7ff611fec7babefd259c57ea5b6006acff8140ab17bb816c65ba0aa7e36c09caa88380a380f35b825163db4572dd60e01b8152fd5b9051633cefac3360e01b8152fd5b50505034610244578160031936011261024457602090517fcbaaf41b181bb6e269c490e876a7c97711b57e21dd8e5528423cf57579726b358152f35b5050503461024457816003193601126102445751908152602090f35b848285346103e157610a1136611afa565b610a1c929192611b3b565b6001600160a01b03908116938415610add5782519184519260208181880195610a46818389611a02565b810160088152030190205416610acf575090610a726020610aa894938351809381928751928391611a02565b60089082019081520301902080546001600160a01b0319168517905583855260076020528420805460ff19166001179055611e66565b7f8b4ef7d4e5bc8f098e6f637ac0acf4aee47b3f027efea6307264b06b4bc9d2988380a380f35b8251635ab1deb960e01b8152fd5b8251632f257cc960e01b8152fd5b509050346103e157826003193601126103e1575490516001600160a01b03909116815260209150f35b509050346103e157816003193601126103e157610b2f611aad565b90338452600760205260ff838520541615610b6c57358352600b60209081528284206001600160a01b039092168452528120805460ff1916905580f35b82516365f278c560e11b8152fd5b509050346103e157816003193601126103e1578160209360ff92610b9c611aad565b903582525f80516020611ec983398151915286528282206001600160a01b039091168252855220549151911615158152f35b505050346102445781600319360112610244575f80516020611ea98339815191525490516001600160a01b039091168152602090f35b848285346103e1576020928360031936011261044d57908061055e92606060808351610c2f8161190a565b838152838982015283858201528383820152015284358152600a865220815193610c588561190a565b81548552600182015492868601938452610c8f60028401549282880193845260ff6003860154169460608901951515865201611961565b936080870194855281519788978189525190880152519086015251606085015251151560808401525160a08084015260c0830190611a23565b848285346103e15760203660031901126103e157338352600760205260ff818420541615610cf857503560065580f35b516365f278c560e11b8152fd5b509050346103e157816003193601126103e1578160209360ff92610d27611aad565b90358252600b86528282206001600160a01b039091168252855220549151911615158152f35b50505034610244578160031936011261024457602090517f7804d923f43a17d325d77e781528e0793b2edd9890ab45fc64efd7b4b427744c8152f35b915034610566578260031936011261056657610da3611aad565b9183519163f2be2c8560e01b83528035908301528482602481305afa918215610f29578592610e27575b50506020935051908251848101906bffffffffffffffffffffffff19809460601b16825260148152610dfe81611925565b519020918351908582019260601b16825260148152610e1c81611925565b519020149051908152f35b9091503d8086833e610e398183611940565b81019060209081818403126103dd5780516001600160401b0391828211610f25570193848403126103dd57855193610e70856118db565b610e7981611e52565b85528281015183860152610e8e878201611e52565b87860152610e9e60608201611e52565b6060860152610eaf60808201611e52565b608086015260a08101518015158103610f255760a086015260c08101519182116103d957019082601f830112156103dd57815196610eec88611a48565b93610ef988519586611940565b88855282898501011161044d575095610f19918760209885019101611a02565b60c08201525f80610dcd565b8880fd5b84513d87823e3d90fd5b843461044d578060031936011261044d57610f4c611d68565b5f80516020611ea983398151915280546001600160a01b0319811690915581906001600160a01b03167f8be0079c531659141344cd1fd0a4f28419497f9722a3daafe3b4186f6b6457e08280a380f35b5050503461024457816003193601126102445760035490516001600160a01b039091168152602090f35b505050346102445760203660031901126102445760209160ff9082906001600160a01b03610ff2611ac3565b1681526007855220541690519015158152f35b509050346103e157816003193601126103e157611020611aad565b90338452600760205260ff838520541615610b6c57358352600b60209081528284206001600160a01b039092168452528120805460ff1916600117905580f35b508383346102445780600319360112610244576024359183356001600160401b038085116103e157366023860112156103e1578486013590811161116057600581811b958551966020936110b68583018a611940565b8852602484890191830101913683116103dd576024859101915b8383106111485750505050835b86518110156111445760018060a01b038382841b89010151163386526007845260ff87872054161561113457848652600b84528686209086528352858520805460ff1916600117905561112f90611e86565b6110dd565b86516365f278c560e11b81528990fd5b8480f35b819061115384611ad9565b81520191019084906110d0565b634e487b7160e01b835260418652602483fd5b509050346103e1576020928360031936011261044d57829082358152600a855281812082516111a18161190a565b8154815260806111d5866001850154948a850195865260028101548886015260ff6003820154161515606086015201611961565b91015251815260098552209082516111ec816118db565b60c0611242600560018060a01b039586815416855260018101548986015260ff8760028301541696898701978852886003840154166060880152820154888116608088015260a01c16151560a086015201611961565b91015251169051908152f35b83853461044d57602036600319011261044d57908061055e92853581526009602052209260ff60018060a01b03948581541695600182015497816002840154166112a5600584600387015416938601549501611961565b9680519a8b9a8b5260208b015289015260608801528116608087015260a01c16151560a08501528060c0850152830190611a23565b5050503461024457816003193601126102445760025490516001600160a01b039091168152602090f35b5083833461024457806003193601126102445761131f611aad565b90336001600160a01b0383160361133c575061087d919235611ce8565b5163334bd91960e11b81528390fd5b848285346103e157806003193601126103e15761087d9135611370600161085a611aad565b611c5e565b509050346103e15760203660031901126103e157816020936001923581525f80516020611ec983398151915285522001549051908152f35b848285346103e157600319818136011261056657823594602435906001600160401b03928383116103dd578236030112610562578251936113ed856118db565b6113f8828201611ad9565b8552602091828601956024820135875261141460448301611ad9565b9186820192835261142760648201611ad9565b916060810192835261143b60848301611ad9565b926080820193845261144f60a48401611aed565b9260a0830193845260c481013589811161167157611471913691018801611a63565b9960c083019a8b52338c526007885260ff8a8d20541615611661578c8c5260098852898c60ff8960019d8e9320015460a01c16151514611652579c8c52600988529b8b20915182546001600160a01b03199081166001600160a01b039283161784559c51838b015594516002830180548e1691871691909117905551600382018054909c1690851617909a559051898401805492516001600160a81b0319909316919093161790151560a01b60ff60a01b161790559351805195966005019593949192909190841161163f575061154885546118a3565b601f81116115f9575b5081601f84116001146115975750928293918392879461158c575b50501b915f199060031b1c19161790555b6115878154611e86565b815580f35b01519250868061156c565b919083601f1981168789528489209489905b888383106115df57505050106115c7575b505050811b01905561157d565b01515f1960f88460031b161c191690558480806115ba565b8587015188559096019594850194879350908101906115a9565b858752828720601f850160051c810191848610611635575b601f0160051c019085905b82811061162a575050611551565b88815501859061161c565b9091508190611611565b634e487b7160e01b875260419052602486fd5b5163614d157f60e11b81528790fd5b89516365f278c560e11b81528790fd5b8c80fd5b848285346103e15760203660031901126103e15781356001600160401b038111610566576116a69036908401611a63565b906116af611b3b565b805182519060208401916116c4818385611a02565b60089082019081528190036020019020546001600160a01b031693841561098c575090611701602061173294938351809381928751928391611a02565b60089082019081520301902080546001600160a01b031916905583855260076020528420805460ff19169055611e66565b7f7ad6d7c73213a93d033801d72c729d90fb72104796b75ad799858b26f2b9872f8380a380f35b505050346102445781600319360112610244576020906001549051908152f35b5082843461044d57602036600319011261044d578235906001600160401b03821161044d57506020926117ae91369101611a63565b826117c183519283815193849201611a02565b6008908201908152819003830190205490516001600160a01b039091168152f35b5082843461044d57602036600319011261044d578161055e9184358152600a602052209182549260018101549461182760028301549160ff6003850154169301611961565b928051968796875260208701528501521515606084015260a0608084015260a0830190611a23565b859083346103e15760203660031901126103e1573563ffffffff60e01b81168091036103e15760209250637965db0b60e01b8114908115611892575b5015158152f35b6301ffc9a760e01b1490508361188b565b90600182811c921680156118d1575b60208310146118bd57565b634e487b7160e01b5f52602260045260245ffd5b91607f16916118b2565b60e081019081106001600160401b038211176118f657604052565b634e487b7160e01b5f52604160045260245ffd5b60a081019081106001600160401b038211176118f657604052565b604081019081106001600160401b038211176118f657604052565b90601f801991011681019081106001600160401b038211176118f657604052565b9060405191825f825492611974846118a3565b9081845260019485811690815f146119df575060011461199f575b505061199d92500383611940565b565b909391505f52602090815f20935f915b8183106119c757505061199d93508201015f8061198f565b855488840185015294850194879450918301916119af565b91505061199d94506020925060ff191682840152151560051b8201015f8061198f565b5f5b838110611a135750505f910152565b8181015183820152602001611a04565b90602091611a3c81518092818552858086019101611a02565b601f01601f1916010190565b6001600160401b0381116118f657601f01601f191660200190565b81601f82011215611aa957803590611a7a82611a48565b92611a886040519485611940565b82845260208383010111611aa957815f926020809301838601378301015290565b5f80fd5b602435906001600160a01b0382168203611aa957565b600435906001600160a01b0382168203611aa957565b35906001600160a01b0382168203611aa957565b35908115158203611aa957565b6040600319820112611aa957600435906001600160401b038211611aa957611b2491600401611a63565b906024356001600160a01b0381168103611aa95790565b335f9081527fb7db2dd08fcb62d0c9e08c51941cae53c267786a0b75803fb7960902fc8ef97d602052604081205460ff1615611b745750565b6044906040519063e2517d3f60e01b82523360048301526024820152fd5b805f525f80516020611ec983398151915260205260405f20335f5260205260ff60405f20541615611b745750565b6001600160a01b03165f8181527fb7db2dd08fcb62d0c9e08c51941cae53c267786a0b75803fb7960902fc8ef97d60205260408120549091905f80516020611ec98339815191529060ff16611c59578280526020526040822081835260205260408220600160ff1982541617905533917f2f8788117e7eff1d82e926ec794901d17c78024a50270940304540a733656f0d8180a4600190565b505090565b905f918083525f80516020611ec983398151915280602052604084209260018060a01b03169283855260205260ff604085205416155f14611ce2578184526020526040832082845260205260408320600160ff198254161790557f2f8788117e7eff1d82e926ec794901d17c78024a50270940304540a733656f0d339380a4600190565b50505090565b905f918083525f80516020611ec983398151915280602052604084209260018060a01b03169283855260205260ff6040852054165f14611ce257818452602052604083208284526020526040832060ff1981541690557ff6391f5c32d9c69d2a47ea670b442974b53935d1edc7fd64eb21e047a839171b339380a4600190565b5f80516020611ea9833981519152546001600160a01b03163303611d8857565b60405163118cdaa760e01b8152336004820152602490fd5b6001600160a01b03908116908115611df9575f80516020611ea983398151915280546001600160a01b031981168417909155167f8be0079c531659141344cd1fd0a4f28419497f9722a3daafe3b4186f6b6457e05f80a3565b604051631e4fbdf760e01b81525f6004820152602490fd5b60ff7ff0c57e16840df040f15088dc2f81fe391c3923bec73e23a9662efc9c229c6a005460401c1615611e4057565b604051631afcd79f60e31b8152600490fd5b51906001600160a01b0382168203611aa957565b611e7e90602060405192828480945193849201611a02565b810103902090565b5f198114611e945760010190565b634e487b7160e01b5f52601160045260245ffdfe9016d09d72d40fdae2fd8ceac6b6234c7706214fd39c1cd1e609a0528c19930002dd7bc7dec4dceedda775e58dd541e08a116c6c53815c0bd028192f7b626800a2646970667358221220732546c88d87c3f3208eb7e7c74b7bd31a8db6fb80509e6944250d8c761b418364736f6c63430008140033",
  "linkReferences": {},
  "deployedLinkReferences": {}
}