{
  "_format": "hh-sol-artifact-1",
  "contractName": "TpBadgeModelController",
  "sourceName": "src/contracts/badgeModelControllers/TpBadgeModelController.sol",
  "abi": [
    {
      "inputs": [],
      "stateMutability": "nonpayable",
      "type": "constructor"
    },
    {
      "inputs": [],
      "name": "AccessControlBadConfirmation",
      "type": "error"
    },
    {
      "inputs": [
        {
          "internalType": "address",
          "name": "account",
          "type": "address"
        },
        {
          "internalType": "bytes32",
          "name": "neededRole",
          "type": "bytes32"
        }
      ],
      "name": "AccessControlUnauthorizedAccount",
      "type": "error"
    },
    {
      "inputs": [
        {
          "internalType": "address",
          "name": "target",
          "type": "address"
        }
      ],
      "name": "AddressEmptyCode",
      "type": "error"
    },
    {
      "inputs": [
        {
          "internalType": "address",
          "name": "implementation",
          "type": "address"
        }
      ],
      "name": "ERC1967InvalidImplementation",
      "type": "error"
    },
    {
      "inputs": [],
      "name": "ERC1967NonPayable",
      "type": "error"
    },
    {
      "inputs": [],
      "name": "FailedInnerCall",
      "type": "error"
    },
    {
      "inputs": [],
      "name": "InvalidInitialization",
      "type": "error"
    },
    {
      "inputs": [],
      "name": "NotInitializing",
      "type": "error"
    },
    {
      "inputs": [],
      "name": "ThirdPartyModelController__badge__tcrKlerosBadgeNotFound",
      "type": "error"
    },
    {
      "inputs": [],
      "name": "ThirdPartyModelController__claimBadge_invalidBadgeOrAlreadyClaimed",
      "type": "error"
    },
    {
      "inputs": [],
      "name": "ThirdPartyModelController__claimBadge_invalidRecipient",
      "type": "error"
    },
    {
      "inputs": [],
      "name": "ThirdPartyModelController__claimBadge_userNotAllowed",
      "type": "error"
    },
    {
      "inputs": [],
      "name": "ThirdPartyModelController__createBadgeModel_TCRListAddressZero",
      "type": "error"
    },
    {
      "inputs": [],
      "name": "ThirdPartyModelController__createBadgeModel_badgeModelAlreadyCreated",
      "type": "error"
    },
    {
      "inputs": [],
      "name": "ThirdPartyModelController__method_not_supported",
      "type": "error"
    },
    {
      "inputs": [],
      "name": "ThirdPartyModelController__mintBadge_wrongValue",
      "type": "error"
    },
    {
      "inputs": [],
      "name": "ThirdPartyModelController__onlyTheBadge_senderNotTheBadge",
      "type": "error"
    },
    {
      "inputs": [],
      "name": "ThirdPartyModelController__onlyTheBadge_senderNotTheBadgeModels",
      "type": "error"
    },
    {
      "inputs": [],
      "name": "ThirdPartyModelController__onlyTheBadge_senderNotTheBadgeUsers",
      "type": "error"
    },
    {
      "inputs": [],
      "name": "ThirdPartyModelController__store_OperationNotPermitted",
      "type": "error"
    },
    {
      "inputs": [],
      "name": "ThirdPartyModelController__user__userNotFound",
      "type": "error"
    },
    {
      "inputs": [],
      "name": "ThirdPartyModelController__user__userVerificationAlreadyStarted",
      "type": "error"
    },
    {
      "inputs": [],
      "name": "ThirdPartyModelController__user__userVerificationNotStarted",
      "type": "error"
    },
    {
      "inputs": [],
      "name": "ThirdPartyModelController__user__userVerificationRejected",
      "type": "error"
    },
    {
      "inputs": [],
      "name": "UUPSUnauthorizedCallContext",
      "type": "error"
    },
    {
      "inputs": [
        {
          "internalType": "bytes32",
          "name": "slot",
          "type": "bytes32"
        }
      ],
      "name": "UUPSUnsupportedProxiableUUID",
      "type": "error"
    },
    {
      "anonymous": false,
      "inputs": [
        {
          "indexed": true,
          "internalType": "address",
          "name": "admin",
          "type": "address"
        }
      ],
      "name": "Initialize",
      "type": "event"
    },
    {
      "anonymous": false,
      "inputs": [
        {
          "indexed": false,
          "internalType": "uint64",
          "name": "version",
          "type": "uint64"
        }
      ],
      "name": "Initialized",
      "type": "event"
    },
    {
      "anonymous": false,
      "inputs": [
        {
          "indexed": true,
          "internalType": "uint256",
          "name": "badgeModelId",
          "type": "uint256"
        },
        {
          "indexed": true,
          "internalType": "address",
          "name": "tcrAddress",
          "type": "address"
        }
      ],
      "name": "NewThirdPartyBadgeModel",
      "type": "event"
    },
    {
      "anonymous": false,
      "inputs": [],
      "name": "ProtocolSettingsUpdated",
      "type": "event"
    },
    {
      "anonymous": false,
      "inputs": [
        {
          "indexed": true,
          "internalType": "bytes32",
          "name": "role",
          "type": "bytes32"
        },
        {
          "indexed": true,
          "internalType": "bytes32",
          "name": "previousAdminRole",
          "type": "bytes32"
        },
        {
          "indexed": true,
          "internalType": "bytes32",
          "name": "newAdminRole",
          "type": "bytes32"
        }
      ],
      "name": "RoleAdminChanged",
      "type": "event"
    },
    {
      "anonymous": false,
      "inputs": [
        {
          "indexed": true,
          "internalType": "bytes32",
          "name": "role",
          "type": "bytes32"
        },
        {
          "indexed": true,
          "internalType": "address",
          "name": "account",
          "type": "address"
        },
        {
          "indexed": true,
          "internalType": "address",
          "name": "sender",
          "type": "address"
        }
      ],
      "name": "RoleGranted",
      "type": "event"
    },
    {
      "anonymous": false,
      "inputs": [
        {
          "indexed": true,
          "internalType": "bytes32",
          "name": "role",
          "type": "bytes32"
        },
        {
          "indexed": true,
          "internalType": "address",
          "name": "account",
          "type": "address"
        },
        {
          "indexed": true,
          "internalType": "address",
          "name": "sender",
          "type": "address"
        }
      ],
      "name": "RoleRevoked",
      "type": "event"
    },
    {
      "anonymous": false,
      "inputs": [
        {
          "indexed": true,
          "internalType": "address",
          "name": "originAddress",
          "type": "address"
        },
        {
          "indexed": true,
          "internalType": "address",
          "name": "recipientAddress",
          "type": "address"
        },
        {
          "indexed": true,
          "internalType": "uint256",
          "name": "badgeId",
          "type": "uint256"
        }
      ],
      "name": "ThirdPartyBadgeClaimed",
      "type": "event"
    },
    {
      "anonymous": false,
      "inputs": [
        {
          "indexed": true,
          "internalType": "uint256",
          "name": "badgeId",
          "type": "uint256"
        },
        {
          "indexed": true,
          "internalType": "bytes32",
          "name": "tcrItemId",
          "type": "bytes32"
        }
      ],
      "name": "ThirdPartyBadgeMinted",
      "type": "event"
    },
    {
      "anonymous": false,
      "inputs": [
        {
          "indexed": true,
          "internalType": "address",
          "name": "implementation",
          "type": "address"
        }
      ],
      "name": "Upgraded",
      "type": "event"
    },
    {
      "inputs": [],
      "name": "CLAIMER_ROLE",
      "outputs": [
        {
          "internalType": "bytes32",
          "name": "",
          "type": "bytes32"
        }
      ],
      "stateMutability": "view",
      "type": "function"
    },
    {
      "inputs": [],
      "name": "DEFAULT_ADMIN_ROLE",
      "outputs": [
        {
          "internalType": "bytes32",
          "name": "",
          "type": "bytes32"
        }
      ],
      "stateMutability": "view",
      "type": "function"
    },
    {
      "inputs": [],
      "name": "PAUSER_ROLE",
      "outputs": [
        {
          "internalType": "bytes32",
          "name": "",
          "type": "bytes32"
        }
      ],
      "stateMutability": "view",
      "type": "function"
    },
    {
      "inputs": [],
      "name": "UPGRADER_ROLE",
      "outputs": [
        {
          "internalType": "bytes32",
          "name": "",
          "type": "bytes32"
        }
      ],
      "stateMutability": "view",
      "type": "function"
    },
    {
      "inputs": [],
      "name": "UPGRADE_INTERFACE_VERSION",
      "outputs": [
        {
          "internalType": "string",
          "name": "",
          "type": "string"
        }
      ],
      "stateMutability": "view",
      "type": "function"
    },
    {
      "inputs": [],
      "name": "URI_SETTER_ROLE",
      "outputs": [
        {
          "internalType": "bytes32",
          "name": "",
          "type": "bytes32"
        }
      ],
      "stateMutability": "view",
      "type": "function"
    },
    {
      "inputs": [],
      "name": "USER_MANAGER_ROLE",
      "outputs": [
        {
          "internalType": "bytes32",
          "name": "",
          "type": "bytes32"
        }
      ],
      "stateMutability": "view",
      "type": "function"
    },
    {
      "inputs": [],
      "name": "VERIFIER_ROLE",
      "outputs": [
        {
          "internalType": "bytes32",
          "name": "",
          "type": "bytes32"
        }
      ],
      "stateMutability": "view",
      "type": "function"
    },
    {
      "inputs": [
        {
          "internalType": "uint256",
          "name": "",
          "type": "uint256"
        },
        {
          "internalType": "bytes",
          "name": "",
          "type": "bytes"
        },
        {
          "internalType": "address",
          "name": "",
          "type": "address"
        }
      ],
      "name": "challenge",
      "outputs": [],
      "stateMutability": "payable",
      "type": "function"
    },
    {
      "inputs": [
        {
          "internalType": "uint256",
          "name": "badgeId",
          "type": "uint256"
        },
        {
          "internalType": "bytes",
          "name": "data",
          "type": "bytes"
        },
        {
          "internalType": "address",
          "name": "caller",
          "type": "address"
        }
      ],
      "name": "claim",
      "outputs": [
        {
          "internalType": "address",
          "name": "",
          "type": "address"
        }
      ],
      "stateMutability": "nonpayable",
      "type": "function"
    },
    {
      "inputs": [
        {
          "internalType": "address",
          "name": "callee",
          "type": "address"
        },
        {
          "internalType": "uint256",
          "name": "badgeModelId",
          "type": "uint256"
        },
        {
          "internalType": "bytes",
          "name": "data",
          "type": "bytes"
        }
      ],
      "name": "createBadgeModel",
      "outputs": [],
      "stateMutability": "nonpayable",
      "type": "function"
    },
    {
      "inputs": [
        {
          "internalType": "address",
          "name": "_user",
          "type": "address"
        },
        {
          "internalType": "bool",
          "name": "verify",
          "type": "bool"
        }
      ],
      "name": "executeUserVerification",
      "outputs": [],
      "stateMutability": "nonpayable",
      "type": "function"
    },
    {
      "inputs": [
        {
          "internalType": "uint256",
          "name": "",
          "type": "uint256"
        }
      ],
      "name": "getChallengeDepositValue",
      "outputs": [
        {
          "internalType": "uint256",
          "name": "",
          "type": "uint256"
        }
      ],
      "stateMutability": "pure",
      "type": "function"
    },
    {
      "inputs": [
        {
          "internalType": "uint256",
          "name": "",
          "type": "uint256"
        }
      ],
      "name": "getRemovalDepositValue",
      "outputs": [
        {
          "internalType": "uint256",
          "name": "",
          "type": "uint256"
        }
      ],
      "stateMutability": "pure",
      "type": "function"
    },
    {
      "inputs": [
        {
          "internalType": "bytes32",
          "name": "role",
          "type": "bytes32"
        }
      ],
      "name": "getRoleAdmin",
      "outputs": [
        {
          "internalType": "bytes32",
          "name": "",
          "type": "bytes32"
        }
      ],
      "stateMutability": "view",
      "type": "function"
    },
    {
      "inputs": [],
      "name": "getVerifyUserProtocolFee",
      "outputs": [
        {
          "internalType": "uint256",
          "name": "",
          "type": "uint256"
        }
      ],
      "stateMutability": "view",
      "type": "function"
    },
    {
      "inputs": [
        {
          "internalType": "bytes32",
          "name": "role",
          "type": "bytes32"
        },
        {
          "internalType": "address",
          "name": "account",
          "type": "address"
        }
      ],
      "name": "grantRole",
      "outputs": [],
      "stateMutability": "nonpayable",
      "type": "function"
    },
    {
      "inputs": [
        {
          "internalType": "bytes32",
          "name": "role",
          "type": "bytes32"
        },
        {
          "internalType": "address",
          "name": "account",
          "type": "address"
        }
      ],
      "name": "hasRole",
      "outputs": [
        {
          "internalType": "bool",
          "name": "",
          "type": "bool"
        }
      ],
      "stateMutability": "view",
      "type": "function"
    },
    {
      "inputs": [
        {
          "internalType": "address",
          "name": "admin",
          "type": "address"
        },
        {
          "internalType": "address",
          "name": "_theBadge",
          "type": "address"
        },
        {
          "internalType": "address",
          "name": "_theBadgeModels",
          "type": "address"
        },
        {
          "internalType": "address",
          "name": "_theBadgeUsers",
          "type": "address"
        },
        {
          "internalType": "address",
          "name": "_tpBadgeModelStore",
          "type": "address"
        }
      ],
      "name": "initialize",
      "outputs": [],
      "stateMutability": "nonpayable",
      "type": "function"
    },
    {
      "inputs": [
        {
          "internalType": "uint256",
          "name": "badgeId",
          "type": "uint256"
        }
      ],
      "name": "isAssetActive",
      "outputs": [
        {
          "internalType": "bool",
          "name": "",
          "type": "bool"
        }
      ],
      "stateMutability": "view",
      "type": "function"
    },
    {
      "inputs": [],
      "name": "isBadgeModelMetadataUpdatable",
      "outputs": [
        {
          "internalType": "bool",
          "name": "",
          "type": "bool"
        }
      ],
      "stateMutability": "pure",
      "type": "function"
    },
    {
      "inputs": [],
      "name": "isBadgeModelMetadataUpgradeable",
      "outputs": [
        {
          "internalType": "bool",
          "name": "",
          "type": "bool"
        }
      ],
      "stateMutability": "pure",
      "type": "function"
    },
    {
      "inputs": [
        {
          "internalType": "uint256",
          "name": "badgeId",
          "type": "uint256"
        }
      ],
      "name": "isClaimable",
      "outputs": [
        {
          "internalType": "bool",
          "name": "",
          "type": "bool"
        }
      ],
      "stateMutability": "view",
      "type": "function"
    },
    {
      "inputs": [
        {
          "internalType": "uint256",
          "name": "",
          "type": "uint256"
        },
        {
          "internalType": "address",
          "name": "",
          "type": "address"
        }
      ],
      "name": "isMintableToController",
      "outputs": [
        {
          "internalType": "bool",
          "name": "",
          "type": "bool"
        }
      ],
      "stateMutability": "pure",
      "type": "function"
    },
    {
      "inputs": [
        {
          "internalType": "address",
          "name": "_user",
          "type": "address"
        }
      ],
      "name": "isUserVerified",
      "outputs": [
        {
          "internalType": "bool",
          "name": "",
          "type": "bool"
        }
      ],
      "stateMutability": "view",
      "type": "function"
    },
    {
      "inputs": [
        {
          "internalType": "address",
          "name": "callee",
          "type": "address"
        },
        {
          "internalType": "uint256",
          "name": "badgeModelId",
          "type": "uint256"
        },
        {
          "internalType": "uint256",
          "name": "badgeId",
          "type": "uint256"
        },
        {
          "internalType": "bytes",
          "name": "data",
          "type": "bytes"
        },
        {
          "internalType": "address",
          "name": "",
          "type": "address"
        }
      ],
      "name": "mint",
      "outputs": [
        {
          "internalType": "uint256",
          "name": "",
          "type": "uint256"
        }
      ],
      "stateMutability": "payable",
      "type": "function"
    },
    {
      "inputs": [
        {
          "internalType": "uint256",
          "name": "",
          "type": "uint256"
        }
      ],
      "name": "mintValue",
      "outputs": [
        {
          "internalType": "uint256",
          "name": "",
          "type": "uint256"
        }
      ],
      "stateMutability": "pure",
      "type": "function"
    },
    {
      "inputs": [
        {
          "internalType": "address",
          "name": "",
          "type": "address"
        },
        {
          "internalType": "address",
          "name": "",
          "type": "address"
        },
        {
          "internalType": "uint256[]",
          "name": "",
          "type": "uint256[]"
        },
        {
          "internalType": "uint256[]",
          "name": "",
          "type": "uint256[]"
        },
        {
          "internalType": "bytes",
          "name": "",
          "type": "bytes"
        }
      ],
      "name": "onERC1155BatchReceived",
      "outputs": [
        {
          "internalType": "bytes4",
          "name": "",
          "type": "bytes4"
        }
      ],
      "stateMutability": "nonpayable",
      "type": "function"
    },
    {
      "inputs": [
        {
          "internalType": "address",
          "name": "",
          "type": "address"
        },
        {
          "internalType": "address",
          "name": "",
          "type": "address"
        },
        {
          "internalType": "uint256",
          "name": "",
          "type": "uint256"
        },
        {
          "internalType": "uint256",
          "name": "",
          "type": "uint256"
        },
        {
          "internalType": "bytes",
          "name": "",
          "type": "bytes"
        }
      ],
      "name": "onERC1155Received",
      "outputs": [
        {
          "internalType": "bytes4",
          "name": "",
          "type": "bytes4"
        }
      ],
      "stateMutability": "nonpayable",
      "type": "function"
    },
    {
      "inputs": [],
      "name": "proxiableUUID",
      "outputs": [
        {
          "internalType": "bytes32",
          "name": "",
          "type": "bytes32"
        }
      ],
      "stateMutability": "view",
      "type": "function"
    },
    {
      "inputs": [
        {
          "internalType": "uint256",
          "name": "",
          "type": "uint256"
        },
        {
          "internalType": "bytes",
          "name": "",
          "type": "bytes"
        },
        {
          "internalType": "address",
          "name": "",
          "type": "address"
        }
      ],
      "name": "removeItem",
      "outputs": [],
      "stateMutability": "payable",
      "type": "function"
    },
    {
      "inputs": [
        {
          "internalType": "bytes32",
          "name": "role",
          "type": "bytes32"
        },
        {
          "internalType": "address",
          "name": "callerConfirmation",
          "type": "address"
        }
      ],
      "name": "renounceRole",
      "outputs": [],
      "stateMutability": "nonpayable",
      "type": "function"
    },
    {
      "inputs": [
        {
          "internalType": "bytes32",
          "name": "role",
          "type": "bytes32"
        },
        {
          "internalType": "address",
          "name": "account",
          "type": "address"
        }
      ],
      "name": "revokeRole",
      "outputs": [],
      "stateMutability": "nonpayable",
      "type": "function"
    },
    {
      "inputs": [
        {
          "internalType": "uint256",
          "name": "",
          "type": "uint256"
        },
        {
          "internalType": "bytes",
          "name": "",
          "type": "bytes"
        },
        {
          "internalType": "address",
          "name": "",
          "type": "address"
        }
      ],
      "name": "submitEvidence",
      "outputs": [],
      "stateMutability": "pure",
      "type": "function"
    },
    {
      "inputs": [
        {
          "internalType": "address",
          "name": "_user",
          "type": "address"
        },
        {
          "internalType": "string",
          "name": "userMetadata",
          "type": "string"
        },
        {
          "internalType": "string",
          "name": "evidenceUri",
          "type": "string"
        }
      ],
      "name": "submitUserVerification",
      "outputs": [],
      "stateMutability": "nonpayable",
      "type": "function"
    },
    {
      "inputs": [
        {
          "internalType": "bytes4",
          "name": "interfaceId",
          "type": "bytes4"
        }
      ],
      "name": "supportsInterface",
      "outputs": [
        {
          "internalType": "bool",
          "name": "",
          "type": "bool"
        }
      ],
      "stateMutability": "view",
      "type": "function"
    },
    {
      "inputs": [],
      "name": "theBadge",
      "outputs": [
        {
          "internalType": "contract TheBadge",
          "name": "",
          "type": "address"
        }
      ],
      "stateMutability": "view",
      "type": "function"
    },
    {
      "inputs": [],
      "name": "theBadgeModels",
      "outputs": [
        {
          "internalType": "contract TheBadgeModels",
          "name": "",
          "type": "address"
        }
      ],
      "stateMutability": "view",
      "type": "function"
    },
    {
      "inputs": [],
      "name": "theBadgeUsers",
      "outputs": [
        {
          "internalType": "contract TheBadgeUsers",
          "name": "",
          "type": "address"
        }
      ],
      "stateMutability": "view",
      "type": "function"
    },
    {
      "inputs": [],
      "name": "tpBadgeModelControllerStore",
      "outputs": [
        {
          "internalType": "contract TpBadgeModelControllerStore",
          "name": "",
          "type": "address"
        }
      ],
      "stateMutability": "view",
      "type": "function"
    },
    {
      "inputs": [
        {
          "internalType": "uint256",
          "name": "_verifyUserProtocolFee",
          "type": "uint256"
        }
      ],
      "name": "updateVerifyUserProtocolFee",
      "outputs": [],
      "stateMutability": "nonpayable",
      "type": "function"
    },
    {
      "inputs": [
        {
          "internalType": "address",
          "name": "newImplementation",
          "type": "address"
        },
        {
          "internalType": "bytes",
          "name": "data",
          "type": "bytes"
        }
      ],
      "name": "upgradeToAndCall",
      "outputs": [],
      "stateMutability": "payable",
      "type": "function"
    },
    {
      "stateMutability": "payable",
      "type": "receive"
    }
  ],
  "bytecode": "0x60a080604052346100cc57306080527ff0c57e16840df040f15088dc2f81fe391c3923bec73e23a9662efc9c229c6a009081549060ff8260401c166100bd57506001600160401b036002600160401b031982821601610078575b604051612ab890816100d18239608051818181610f88015261101d0152f35b6001600160401b031990911681179091556040519081527fc7f505b2f371ae2175ee4913f4499e1f2633a7b5936321eed1cdaeb6115181d290602090a15f8080610059565b63f92ee8a960e01b8152600490fd5b5f80fdfe608080604052600436101561001c575b50361561001a575f80fd5b005b5f90813560e01c90816301ffc9a714611ea05750806304a3c5d71461169c5780630d3f350714610afd578063130bd93f146115245780631459457a1461135f57806322e900c214611340578063248a9ca3146113075780632f2ff15d146112bd57806336568abe14611275578063401fef941461124f5780634d854cb4146112335780634f1ef28614610fdf57806352d1902d14610f7557806360a72f1614610f4e57806361cf6b4814610f2c578063632f7c8314610f31578063681294b414610f2c5780637657dbdd14610e9f5780637eb7f176146107c85780637f34571014610e6457806389610a0914610e455780638ac516b814610d6157806391d1485414610d0b5780639c6b9f8a14610b19578063a217fddf14610afd578063a41e35c314610ac2578063ace417e014610a94578063ad3cb1cc14610a4a578063ae1c29e814610a21578063b5a867fa146108cd578063bc197c8114610844578063caa39ec51461081b578063d547741f146107cd578063d7deba15146107c8578063d8bee356146107a4578063e63ab1e914610769578063e7705db61461072e578063f23a6e61146106d8578063f4bcaf42146106af578063f6563d5f14610257578063f72c0d8b1461022f5763fc5f18d30361000f573461022c578060031936011261022c5760206040517f11a8cb5a02bd6c42679835e867ef2118ba78f088f8300511420c6603c21d9c788152f35b80fd5b503461022c578060031936011261022c5760206040515f80516020612a238339815191528152f35b5060a036600319011261022c5761026c611f0f565b6064356001600160401b03811161052f5761028b903690600401611f65565b610296929192611f3b565b506001546001600160a01b0316330361069d578354604051637210b3d560e01b81526024803560048301526001600160a01b03858116918301919091529091169290602081604481875afa908115610692578691610654575b50156105bc575b5060405163632f7c8360e01b81526024356004820152602081602481305afa9081156105b157859161057b575b5034036105695760405163f2be2c8560e01b8152602480356004830152859360c091839182905afa90811561050157839161053b575b5060400151908301926001600160a01b039091169060208185031261052f578035906001600160401b038211610537570160208185031261052f57604051936103a185611f92565b81356001600160401b038111610533576103bb9201612061565b90818452803b1561052f57604051638545c6a560e01b81526020600482015291839183918290849082906103f390602483019061213d565b03925af1801561052457610510575b50505160405161042f60208281610422818301968781519384920161211c565b8101038084520182612025565b519020906040519161044083611fc1565b808352602083016024358152604084019060443594858352606081016001815260018060a01b0386541690813b1561050c57918660a492819594604051978896879563462cb56960e01b87528d600488015251602487015251604486015251606485015251151560848401525af18015610501576104e9575b50806020937fc93f2370bc3cb1e7aba45230ebba753ccb6bfb4481d0333177da0936617db9536040519480a38152f35b6104f38391611fdc565b6104fd575f6104b9565b5080fd5b6040513d85823e3d90fd5b8680fd5b61051990611fdc565b6104fd57815f610402565b6040513d84823e3d90fd5b8280fd5b8480fd5b8380fd5b61055c915060c03d8111610562575b6105548183612025565b810190612634565b5f610359565b503d61054a565b6040516323d256f560e11b8152600490fd5b90506020813d6020116105a9575b8161059660209383612025565b810103126105a557515f610323565b5f80fd5b3d9150610589565b6040513d87823e3d90fd5b6040516309c5215f60e01b81526024803560048301526001600160a01b039290921691810191909152602081604481865afa9081156105b157859161061a575b5015610608575f6102f6565b6040516365f278c560e11b8152600490fd5b90506020813d60201161064c575b8161063560209383612025565b81010312610533576106469061257e565b5f6105fc565b3d9150610628565b90506020813d60201161068a575b8161066f60209383612025565b81010312610686576106809061257e565b5f6102ef565b8580fd5b3d9150610662565b6040513d88823e3d90fd5b60405163145ed2fd60e11b8152600490fd5b503461022c578060031936011261022c576002546040516001600160a01b039091168152602090f35b503461022c5760a036600319011261022c576106f2611f0f565b506106fb611f25565b506084356001600160401b0381116104fd5761071b903690600401612061565b5060405163f23a6e6160e01b8152602090f35b503461022c578060031936011261022c5760206040517f0ce23c3e399818cfee81a7ab0880f714e53d7672b08df0fa62f2843416e1ea098152f35b503461022c578060031936011261022c5760206040517f65d7a28e3265b37a6474929f336521b332c1681b933f6cb9f3376673440d862a8152f35b503461022c576107b3366120a7565b505050506004604051631d1a1dc360e01b8152fd5b6120f7565b503461022c57604036600319011261022c576108176004356107ed611f25565b908084525f80516020612a6383398151915260205261081260016040862001546121d7565b612442565b5080f35b503461022c578060031936011261022c576001546040516001600160a01b039091168152602090f35b503461022c5760a036600319011261022c5761085e611f0f565b50610867611f25565b506001600160401b0360443581811161052f57610888903690600401612179565b5060643581811161052f576108a1903690600401612179565b506084359081116104fd576108ba903690600401612061565b5060405163bc197c8160e01b8152602090f35b503461022c57606036600319011261022c576108e7611f0f565b6001600160401b039060243582811161053757610908903690600401612061565b9160443590811161053757610921903690600401612061565b6003549091906001600160a01b039081163303610a0f578454604051636f77926b60e01b815283831660048201529116928582602481875afa9182156106925786926109eb575b50608082019485516109d957600187965285606084015260208301526040820152823b156109d4576109b3928492836040518096819582946322946b1160e11b8452600484016126a7565b03925af18015610524576109c45750f35b6109cd90611fdc565b61022c5780f35b505050fd5b60405163789190dd60e11b8152600490fd5b610a089192503d8088833e610a008183612025565b81019061258b565b905f610968565b60405163570afef560e11b8152600490fd5b503461022c578060031936011261022c576003546040516001600160a01b039091168152602090f35b503461022c578060031936011261022c57610a90604051610a6a8161200a565b60058152640352e302e360dc1b602082015260405191829160208352602083019061213d565b0390f35b503461022c57602036600319011261022c576020610ab8610ab3611f0f565b612972565b6040519015158152f35b503461022c578060031936011261022c5760206040517fcbaaf41b181bb6e269c490e876a7c97711b57e21dd8e5528423cf57579726b358152f35b503461022c578060031936011261022c57602090604051908152f35b503461022c57610b28366120a7565b600154929493926001600160a01b0392919083169033820361069d5786926020978891810103126106865783610b6960405194610b6486611f92565b611f51565b8085521615610cf957604051627eeac760e11b8152306004820152602481018690528781604481865afa908115610cee578791610cc1575b5015610caf577f11a8cb5a02bd6c42679835e867ef2118ba78f088f8300511420c6603c21d9c7886525f80516020612a638339815191528752836040872091165f52865260ff60405f20541615610c9d5782825116813b1561068657859160e483926040519485938492637921219560e11b845230600485015260248401528960448401526001606484015260a06084840152600260a484015261060f60f31b60c48401525af180156105b157908591610c89575b505051169081604051937f280cdbffa74e002595cb5c98dcc7b8d7b9df1b76726918883663d1ff690d8720309180a48152f35b610c9290611fdc565b61053757835f610c56565b604051631ffdebad60e21b8152600490fd5b604051632357a08560e01b8152600490fd5b90508781813d8311610ce7575b610cd88183612025565b810103126105a557515f610ba1565b503d610cce565b6040513d89823e3d90fd5b6040516341773d6d60e11b8152600490fd5b503461022c57604036600319011261022c576040610d27611f25565b9160043581525f80516020612a63833981519152602052209060018060a01b03165f52602052602060ff60405f2054166040519015158152f35b503461022c57602036600319011261022c57335f9081527fb7db2dd08fcb62d0c9e08c51941cae53c267786a0b75803fb7960902fc8ef97d602052604090205460ff1615610e2757805481906001600160a01b0316803b15610e2457818091602460405180948193631158a2d760e31b835260043560048401525af1801561052457610e10575b50807f810f1720fbc34c56d171f89315ad21708648fd17424c27b88fa208409845aa7791a180f35b610e1990611fdc565b61022c57805f610de8565b50fd5b60405163e2517d3f60e01b81523360048201525f6024820152604490fd5b503461022c57602036600319011261022c576020610ab8600435612719565b503461022c578060031936011261022c5760206040517f7804d923f43a17d325d77e781528e0793b2edd9890ab45fc64efd7b4b427744c8152f35b503461022c578060031936011261022c57805460405163777db25d60e11b81529190602090839060049082906001600160a01b03165afa908115610f205790610eee575b602090604051908152f35b506020813d8211610f18575b81610f0760209383612025565b810103126105a55760209051610ee3565b3d9150610efa565b604051903d90823e3d90fd5b6120ee565b503461022c57602036600319011261022c57602090604051908152f35b503461022c578060031936011261022c57546040516001600160a01b039091168152602090f35b503461022c578060031936011261022c577f00000000000000000000000000000000000000000000000000000000000000006001600160a01b03163003610fcd5760206040515f80516020612a438339815191528152f35b60405163703e46dd60e11b8152600490fd5b50604036600319011261022c57610ff4611f0f565b6024356001600160401b03811161052f57611013903690600401612061565b6001600160a01b037f00000000000000000000000000000000000000000000000000000000000000008116308114908115611218575b50610fcd57335f9081527fab71e3f32666744d246edff3f96e4bdafee2e9867098cdd118a979a7464786a860209081526040909120549091905f80516020612a238339815191529060ff16156111fa57508316926040516352d1902d60e01b81528281600481885afa8691816111cb575b506110d857604051634c9c8ce360e01b815260048101869052602490fd5b9385945f80516020612a43833981519152908181036111b35750823b1561119a5780546001600160a01b0319168217905560405185917fbc7cd75a20ee27fd9adebab32041f755214dbc6bffa90cc0225b39da2e5c2d3b8380a284511561117d575080848461081796519101845af4903d15611174573d61115881612046565b906111666040519283612025565b81528581943d92013e6124c2565b606092506124c2565b93505050503461118b575080f35b63b398979f60e01b8152600490fd5b604051634c9c8ce360e01b815260048101839052602490fd5b60249060405190632a87526960e21b82526004820152fd5b9091508381813d83116111f3575b6111e38183612025565b8101031261050c5751905f6110ba565b503d6111d9565b6044906040519063e2517d3f60e01b82523360048301526024820152fd5b9050815f80516020612a43833981519152541614155f611049565b503461022c578060031936011261022c57602060405160018152f35b503461022c57604036600319011261022c57611269611f25565b50602060405160018152f35b503461022c57604036600319011261022c5761128f611f25565b336001600160a01b038216036112ab5761081790600435612442565b60405163334bd91960e11b8152600490fd5b503461022c57604036600319011261022c576108176004356112dd611f25565b908084525f80516020612a6383398151915260205261130260016040862001546121d7565b6123d1565b503461022c57602036600319011261022c576001604060209260043581525f80516020612a638339815191528452200154604051908152f35b503461022c57602036600319011261022c576020610ab86004356127a3565b503461022c5760a036600319011261022c57611379611f0f565b611381611f25565b6044356001600160a01b03818116918290036105a557606435928184168094036105a5576113ad611f3b565b937ff0c57e16840df040f15088dc2f81fe391c3923bec73e23a9662efc9c229c6a009485549160ff8360401c1615956001600160401b0384168015908161151c575b6001149081611512575b159081611509575b506114f75767ffffffffffffffff19841660011788558593876114d8575b5061142989612205565b5061143389612290565b5061143d8961233d565b508360018060a01b03199516856001541617600155846002541617600255836003541617600355169086541617855560405193167f36b1453565f45af7b509b59d5e2eac8f1948ea9e3e193db6663b4101afb6382c8580a261149d578280f35b805460ff60401b19169055600181527fc7f505b2f371ae2175ee4913f4499e1f2633a7b5936321eed1cdaeb6115181d290602090a15f808280f35b68ffffffffffffffffff1916680100000000000000011788555f61141f565b60405163f92ee8a960e01b8152600490fd5b9050155f611401565b303b1591506113f9565b8891506113ef565b503461022c57604036600319011261022c5761153e611f0f565b602435801515810361052f576003546001600160a01b03929083163303610a0f578284541691604051636f77926b60e01b948582528316908160048201528681602481885afa908115610cee578791611682575b506080810151156116715760600151600381101561165d5761164b5760405194855260048501528484602481865afa9384156105b157859461162f575b5015611627576001925b60038410156116135784936060820152823b156109d4576109b3928492836040518096819582946356b309e760e01b8452600484016126a7565b634e487b7160e01b5f52602160045260245ffd5b6002926115d9565b6116449194503d8087833e610a008183612025565b925f6115cf565b604051632ba8105360e01b8152600490fd5b634e487b7160e01b87526021600452602487fd5b604051620427cd60e21b8152600490fd5b61169691503d8089833e610a008183612025565b5f611592565b503461022c57606036600319011261022c576116b6611f0f565b6001600160401b03604435818111610537576116d6903690600401611f65565b600254919290916001600160a01b03163303611e8e578454604051636f77926b60e01b81526001600160a01b03868116600483015290911692908681602481875afa908115610cee578791611e74575b506080810151156116715760600151600381101561165d57600103611e625760405163f2be2c8560e01b8152602435600482015260c081602481875afa908115610cee578791611e44575b50604001516001600160a01b0316611e32578301926020818503126106865780359082821161050c57019260208482031261068657604051936117b385611f92565b803590838211611e2e57019080601f8301121561050c5781356117d581612162565b926117e36040519485612025565b81845260208085019260051b820101928311611e2a57602001905b828210611e12575050508352604051639f780b1d60e01b815290602082600481865afa918215610692578692611dd3575b5060206004929360405193848092636cc6cde160e01b82525afa918215610692578692611d8d575b506118a2906118bd60206040518181018a81528282526118768261200a565b6040516118b184820192600184528583526118908361200a565b6040519889955180928888019061211c565b8401915180938684019061211c565b01038085520183612025565b6040516118c98161200a565b601f81527f697066733a2f2f726567697374726174696f6e4d65746145766964656e63650060208201526040516118ff8161200a565b601b81527f697066733a2f2f636c656172696e674d65746145766964656e6365000000000060208201526040519361193685611fc1565b69021e19e0c9bab240000080865280602087015280604087015260608601526040519384606081011090606086011117611d7957606084016040908152606480865260208601819052908501526001600160a01b0387163b15611d75579491899394916119eb6119fd926119d3604051998a9763d8dcbd2760e01b895260018060a01b031660048901526101e060248901526101e488019061213d565b9087604488015260031987830301606488015261213d565b8481036003190160848601529061213d565b3060a4840152908360c484015b60048210611d5957505050603c610144830152610164820193835b60038110611d3d575050306101c48301529192509081900381836001600160a01b0387165af180156105b157611d2a575b506040516306661abd60e01b81526020816004816001600160a01b0386165afa9081156105b1578591611cf8575b505f198101908111611ce45760405163a2f7b3a560e01b81526004810191909152906020908290602490829088906001600160a01b03165af1908115611cd9578491611c97575b506001600160a01b0316918215611c85576040518491611aea82611fef565b6001600160a01b03908116825260243560208301526040820185905230606083018190526080830152600160a083015282541690813b1561052f5760408051634629ba9360e01b815260248035600483015283516001600160a01b0390811691830191909152602084015160448301529183015182166064820152606083015182166084820152608083015190911660a482015260a090910151151560c4820152908290829060e490829084905af1801561052457611c71575b505082549051906001600160a01b0316803b156105375790839160405191632d1b791560e11b8352604483016024356004850152604060248501528151809152602060648501920190855b818110611c4f575050508391838381809403925af1801561052457611c3b575b50506024357fc465f0869e4b9761b8e3132a1295ad33ca24e5757eed5398a80ffe94f65d05de8380a380f35b611c4490611fdc565b6104fd57815f611c0f565b82516001600160a01b0316845288965060209384019390920191600101611bef565b611c7a90611fdc565b61052f57825f611ba4565b60405163b76d9a5f60e01b8152600490fd5b90506020813d602011611cd1575b81611cb260209383612025565b8101031261053757516001600160a01b0381168103610537575f611acb565b3d9150611ca5565b6040513d86823e3d90fd5b634e487b7160e01b85526011600452602485fd5b90506020813d602011611d22575b81611d1360209383612025565b810103126105a557515f611a84565b3d9150611d06565b611d3690949194611fdc565b925f611a56565b815186526020958601958b955087945090910190600101611a25565b825181528b955087945060209283019260019092019101611a0a565b8980fd5b634e487b7160e01b8a52604160045260248afd5b9091506020813d602011611dcb575b81611da960209383612025565b8101031261068657516001600160a01b038116810361068657906118a2611857565b3d9150611d9c565b91506020823d602011611e0a575b81611dee60209383612025565b81010312610686576020611e03600493612525565b925061182f565b3d9150611de1565b60208091611e1f84611f51565b8152019101906117fe565b8880fd5b8780fd5b60405163614d157f60e11b8152600490fd5b611e5c915060c03d8111610562576105548183612025565b5f611771565b604051635dcf965f60e11b8152600490fd5b611e8891503d8089833e610a008183612025565b5f611726565b60405163b84b622b60e01b8152600490fd5b9050346104fd5760203660031901126104fd5760043563ffffffff60e01b811680910361052f5760209250630271189760e51b8114908115611ee4575b5015158152f35b637965db0b60e01b811491508115611efe575b505f611edd565b6301ffc9a760e01b1490505f611ef7565b600435906001600160a01b03821682036105a557565b602435906001600160a01b03821682036105a557565b608435906001600160a01b03821682036105a557565b35906001600160a01b03821682036105a557565b9181601f840112156105a5578235916001600160401b0383116105a557602083818601950101116105a557565b602081019081106001600160401b03821117611fad57604052565b634e487b7160e01b5f52604160045260245ffd5b608081019081106001600160401b03821117611fad57604052565b6001600160401b038111611fad57604052565b60c081019081106001600160401b03821117611fad57604052565b604081019081106001600160401b03821117611fad57604052565b90601f801991011681019081106001600160401b03821117611fad57604052565b6001600160401b038111611fad57601f01601f191660200190565b81601f820112156105a55780359061207882612046565b926120866040519485612025565b828452602083830101116105a557815f926020809301838601378301015290565b9060606003198301126105a55760043591602435906001600160401b0382116105a5576120d691600401611f65565b90916044356001600160a01b03811681036105a55790565b6107b3366120a7565b346105a55760203660031901126105a557602060405169021e19e0c9bab24000008152f35b5f5b83811061212d5750505f910152565b818101518382015260200161211e565b906020916121568151809281855285808601910161211c565b601f01601f1916010190565b6001600160401b038111611fad5760051b60200190565b81601f820112156105a55780359161219083612162565b9261219e6040519485612025565b808452602092838086019260051b8201019283116105a5578301905b8282106121c8575050505090565b813581529083019083016121ba565b805f525f80516020612a6383398151915260205260405f20335f5260205260ff60405f205416156111fa5750565b6001600160a01b03165f8181527fb7db2dd08fcb62d0c9e08c51941cae53c267786a0b75803fb7960902fc8ef97d60205260408120549091905f80516020612a638339815191529060ff1661228b578280526020526040822081835260205260408220600160ff1982541617905533915f80516020612a038339815191528180a4600190565b505090565b6001600160a01b03165f8181527f75442b0a96088b5456bc4ed01394c96a4feec0f883c9494257d76b96ab1c9b6b60205260408120549091907f65d7a28e3265b37a6474929f336521b332c1681b933f6cb9f3376673440d862a905f80516020612a638339815191529060ff16612337578184526020526040832082845260205260408320600160ff198254161790555f80516020612a03833981519152339380a4600190565b50505090565b6001600160a01b03165f8181527fab71e3f32666744d246edff3f96e4bdafee2e9867098cdd118a979a7464786a860205260408120549091905f80516020612a23833981519152905f80516020612a638339815191529060ff16612337578184526020526040832082845260205260408320600160ff198254161790555f80516020612a03833981519152339380a4600190565b905f918083525f80516020612a6383398151915280602052604084209260018060a01b03169283855260205260ff604085205416155f14612337578184526020526040832082845260205260408320600160ff198254161790555f80516020612a03833981519152339380a4600190565b905f918083525f80516020612a6383398151915280602052604084209260018060a01b03169283855260205260ff6040852054165f1461233757818452602052604083208284526020526040832060ff1981541690557ff6391f5c32d9c69d2a47ea670b442974b53935d1edc7fd64eb21e047a839171b339380a4600190565b906124e957508051156124d757805190602001fd5b604051630a12f52160e11b8152600490fd5b8151158061251c575b6124fa575090565b604051639996b31560e01b81526001600160a01b039091166004820152602490fd5b50803b156124f2565b51906001600160a01b03821682036105a557565b81601f820112156105a557805161254f81612046565b9261255d6040519485612025565b818452602082840101116105a55761257b916020808501910161211c565b90565b519081151582036105a557565b6020818303126105a55780516001600160401b03918282116105a557019060a0828403126105a5576040519260a0840184811083821117611fad576040526125d283612525565b845260208301518281116105a557816125ec918501612539565b602085015260408301519182116105a557612608918301612539565b6040830152606081015160038110156105a557606083015261262c9060800161257e565b608082015290565b908160c09103126105a55761269f60a06040519261265184611fef565b61265a81612525565b84526020810151602085015261267260408201612525565b604085015261268360608201612525565b606085015261269460808201612525565b60808501520161257e565b60a082015290565b9060018060a01b0380911682526040602083015282511660408201526126f56126df602084015160a0606085015260e084019061213d565b6040840151838203603f1901608085015261213d565b91606081015160038110156116135760c09160809160a08501520151151591015290565b600154604051627eeac760e11b81523060048201526024810192909252602090829060449082906001600160a01b03165afa908115612798575f91612767575b50612762575f90565b600190565b906020823d8211612790575b8161278060209383612025565b8101031261022c5750515f612759565b3d9150612773565b6040513d5f823e3d90fd5b5f805460408051630ffdff0d60e21b81526004810185905292939290916020916001600160a01b0391821691908381602481865afa908115612968578791612933575b50169384156129225760809060248551809481936346c1c31160e11b835260048301525afa9081156129185785916128b6575b5060609150516024835180958193634aac84e560e01b835260048301525afa9081156128ad57508290612871575b60ff91501660018114908115612866575b506128605790565b50600190565b60039150145f612858565b506060813d82116128a5575b8161288a60609383612025565b810103126104fd575160ff811681036104fd5760ff90612847565b3d915061287d565b513d84823e3d90fd5b90506080813d8211612910575b816128d060809383612025565b810103126105335790612906606080938551936128ec85611fc1565b81518552808201519085015285810151868501520161257e565b828201525f612819565b3d91506128c3565b83513d87823e3d90fd5b8351630c6ed91d60e01b8152600490fd5b90508381813d8311612961575b61294a8183612025565b8101031261050c5761295b90612525565b5f6127e6565b503d612940565b85513d89823e3d90fd5b5f8054604051636f77926b60e01b81526001600160a01b0393841660048201529192839183916024918391165afa9081156105245782916129e8575b506080810151156129e4576060015160038110156129d0576001146128605790565b634e487b7160e01b82526021600452602482fd5b5090565b6129fc91503d8084833e610a008183612025565b5f6129ae56fe2f8788117e7eff1d82e926ec794901d17c78024a50270940304540a733656f0d189ab7a9244df0848122154315af71fe140f3db0fe014031783b0946b8c9d2e3360894a13ba1a3210667c828492db98dca3e2076cc3735a920a3ca505d382bbc02dd7bc7dec4dceedda775e58dd541e08a116c6c53815c0bd028192f7b626800a2646970667358221220f008e33eef7d3dc254c92289d3d053f94588bfa36c245b07d0a1a0c4cabe665764736f6c63430008140033",
  "linkReferences": {},
  "deployedLinkReferences": {}
}