{
  "_format": "hh-sol-artifact-1",
  "contractName": "TpBadgeModelController",
  "sourceName": "src/contracts/badgeModelControllers/TpBadgeModelController.sol",
  "abi": [
    {
      "inputs": [],
      "stateMutability": "nonpayable",
      "type": "constructor"
    },
    {
      "inputs": [],
      "name": "AccessControlBadConfirmation",
      "type": "error"
    },
    {
      "inputs": [
        {
          "internalType": "address",
          "name": "account",
          "type": "address"
        },
        {
          "internalType": "bytes32",
          "name": "neededRole",
          "type": "bytes32"
        }
      ],
      "name": "AccessControlUnauthorizedAccount",
      "type": "error"
    },
    {
      "inputs": [
        {
          "internalType": "address",
          "name": "target",
          "type": "address"
        }
      ],
      "name": "AddressEmptyCode",
      "type": "error"
    },
    {
      "inputs": [
        {
          "internalType": "address",
          "name": "implementation",
          "type": "address"
        }
      ],
      "name": "ERC1967InvalidImplementation",
      "type": "error"
    },
    {
      "inputs": [],
      "name": "ERC1967NonPayable",
      "type": "error"
    },
    {
      "inputs": [],
      "name": "FailedInnerCall",
      "type": "error"
    },
    {
      "inputs": [],
      "name": "InvalidInitialization",
      "type": "error"
    },
    {
      "inputs": [],
      "name": "NotInitializing",
      "type": "error"
    },
    {
      "inputs": [],
      "name": "TheBadge__onlyUser_userNotFound",
      "type": "error"
    },
    {
      "inputs": [],
      "name": "TheBadge__verifyUser__userVerificationRejected",
      "type": "error"
    },
    {
      "inputs": [],
      "name": "ThirdPartyModelController__badge__tcrKlerosBadgeNotFound",
      "type": "error"
    },
    {
      "inputs": [],
      "name": "ThirdPartyModelController__claimBadge_invalidBadgeOrAlreadyClaimed",
      "type": "error"
    },
    {
      "inputs": [],
      "name": "ThirdPartyModelController__claimBadge_invalidRecipient",
      "type": "error"
    },
    {
      "inputs": [],
      "name": "ThirdPartyModelController__claimBadge_userNotAllowed",
      "type": "error"
    },
    {
      "inputs": [],
      "name": "ThirdPartyModelController__createBadgeModel_TCRListAddressZero",
      "type": "error"
    },
    {
      "inputs": [],
      "name": "ThirdPartyModelController__createBadgeModel_badgeModelAlreadyCreated",
      "type": "error"
    },
    {
      "inputs": [],
      "name": "ThirdPartyModelController__method_not_supported",
      "type": "error"
    },
    {
      "inputs": [],
      "name": "ThirdPartyModelController__mintBadge_wrongValue",
      "type": "error"
    },
    {
      "inputs": [],
      "name": "ThirdPartyModelController__onlyTheBadge_senderNotTheBadge",
      "type": "error"
    },
    {
      "inputs": [],
      "name": "ThirdPartyModelController__onlyTheBadge_senderNotTheBadgeModels",
      "type": "error"
    },
    {
      "inputs": [],
      "name": "ThirdPartyModelController__store_OperationNotPermitted",
      "type": "error"
    },
    {
      "inputs": [],
      "name": "UUPSUnauthorizedCallContext",
      "type": "error"
    },
    {
      "inputs": [
        {
          "internalType": "bytes32",
          "name": "slot",
          "type": "bytes32"
        }
      ],
      "name": "UUPSUnsupportedProxiableUUID",
      "type": "error"
    },
    {
      "anonymous": false,
      "inputs": [
        {
          "indexed": true,
          "internalType": "address",
          "name": "admin",
          "type": "address"
        }
      ],
      "name": "Initialize",
      "type": "event"
    },
    {
      "anonymous": false,
      "inputs": [
        {
          "indexed": false,
          "internalType": "uint64",
          "name": "version",
          "type": "uint64"
        }
      ],
      "name": "Initialized",
      "type": "event"
    },
    {
      "anonymous": false,
      "inputs": [
        {
          "indexed": true,
          "internalType": "uint256",
          "name": "badgeModelId",
          "type": "uint256"
        },
        {
          "indexed": true,
          "internalType": "address",
          "name": "tcrAddress",
          "type": "address"
        }
      ],
      "name": "NewThirdPartyBadgeModel",
      "type": "event"
    },
    {
      "anonymous": false,
      "inputs": [],
      "name": "ProtocolSettingsUpdated",
      "type": "event"
    },
    {
      "anonymous": false,
      "inputs": [
        {
          "indexed": true,
          "internalType": "bytes32",
          "name": "role",
          "type": "bytes32"
        },
        {
          "indexed": true,
          "internalType": "bytes32",
          "name": "previousAdminRole",
          "type": "bytes32"
        },
        {
          "indexed": true,
          "internalType": "bytes32",
          "name": "newAdminRole",
          "type": "bytes32"
        }
      ],
      "name": "RoleAdminChanged",
      "type": "event"
    },
    {
      "anonymous": false,
      "inputs": [
        {
          "indexed": true,
          "internalType": "bytes32",
          "name": "role",
          "type": "bytes32"
        },
        {
          "indexed": true,
          "internalType": "address",
          "name": "account",
          "type": "address"
        },
        {
          "indexed": true,
          "internalType": "address",
          "name": "sender",
          "type": "address"
        }
      ],
      "name": "RoleGranted",
      "type": "event"
    },
    {
      "anonymous": false,
      "inputs": [
        {
          "indexed": true,
          "internalType": "bytes32",
          "name": "role",
          "type": "bytes32"
        },
        {
          "indexed": true,
          "internalType": "address",
          "name": "account",
          "type": "address"
        },
        {
          "indexed": true,
          "internalType": "address",
          "name": "sender",
          "type": "address"
        }
      ],
      "name": "RoleRevoked",
      "type": "event"
    },
    {
      "anonymous": false,
      "inputs": [
        {
          "indexed": true,
          "internalType": "address",
          "name": "originAddress",
          "type": "address"
        },
        {
          "indexed": true,
          "internalType": "address",
          "name": "recipientAddress",
          "type": "address"
        },
        {
          "indexed": true,
          "internalType": "uint256",
          "name": "badgeId",
          "type": "uint256"
        }
      ],
      "name": "ThirdPartyBadgeClaimed",
      "type": "event"
    },
    {
      "anonymous": false,
      "inputs": [
        {
          "indexed": true,
          "internalType": "uint256",
          "name": "badgeId",
          "type": "uint256"
        },
        {
          "indexed": true,
          "internalType": "bytes32",
          "name": "tcrItemId",
          "type": "bytes32"
        }
      ],
      "name": "ThirdPartyBadgeMinted",
      "type": "event"
    },
    {
      "anonymous": false,
      "inputs": [
        {
          "indexed": true,
          "internalType": "address",
          "name": "implementation",
          "type": "address"
        }
      ],
      "name": "Upgraded",
      "type": "event"
    },
    {
      "inputs": [],
      "name": "CLAIMER_ROLE",
      "outputs": [
        {
          "internalType": "bytes32",
          "name": "",
          "type": "bytes32"
        }
      ],
      "stateMutability": "view",
      "type": "function"
    },
    {
      "inputs": [],
      "name": "DEFAULT_ADMIN_ROLE",
      "outputs": [
        {
          "internalType": "bytes32",
          "name": "",
          "type": "bytes32"
        }
      ],
      "stateMutability": "view",
      "type": "function"
    },
    {
      "inputs": [],
      "name": "PAUSER_ROLE",
      "outputs": [
        {
          "internalType": "bytes32",
          "name": "",
          "type": "bytes32"
        }
      ],
      "stateMutability": "view",
      "type": "function"
    },
    {
      "inputs": [],
      "name": "UPGRADER_ROLE",
      "outputs": [
        {
          "internalType": "bytes32",
          "name": "",
          "type": "bytes32"
        }
      ],
      "stateMutability": "view",
      "type": "function"
    },
    {
      "inputs": [],
      "name": "UPGRADE_INTERFACE_VERSION",
      "outputs": [
        {
          "internalType": "string",
          "name": "",
          "type": "string"
        }
      ],
      "stateMutability": "view",
      "type": "function"
    },
    {
      "inputs": [],
      "name": "URI_SETTER_ROLE",
      "outputs": [
        {
          "internalType": "bytes32",
          "name": "",
          "type": "bytes32"
        }
      ],
      "stateMutability": "view",
      "type": "function"
    },
    {
      "inputs": [],
      "name": "USER_MANAGER_ROLE",
      "outputs": [
        {
          "internalType": "bytes32",
          "name": "",
          "type": "bytes32"
        }
      ],
      "stateMutability": "view",
      "type": "function"
    },
    {
      "inputs": [],
      "name": "VERIFIER_ROLE",
      "outputs": [
        {
          "internalType": "bytes32",
          "name": "",
          "type": "bytes32"
        }
      ],
      "stateMutability": "view",
      "type": "function"
    },
    {
      "inputs": [
        {
          "internalType": "uint256",
          "name": "",
          "type": "uint256"
        },
        {
          "internalType": "bytes",
          "name": "",
          "type": "bytes"
        },
        {
          "internalType": "address",
          "name": "",
          "type": "address"
        }
      ],
      "name": "challenge",
      "outputs": [],
      "stateMutability": "payable",
      "type": "function"
    },
    {
      "inputs": [
        {
          "internalType": "uint256",
          "name": "badgeId",
          "type": "uint256"
        },
        {
          "internalType": "bytes",
          "name": "data",
          "type": "bytes"
        },
        {
          "internalType": "address",
          "name": "caller",
          "type": "address"
        }
      ],
      "name": "claim",
      "outputs": [
        {
          "internalType": "address",
          "name": "",
          "type": "address"
        }
      ],
      "stateMutability": "nonpayable",
      "type": "function"
    },
    {
      "inputs": [
        {
          "internalType": "address",
          "name": "callee",
          "type": "address"
        },
        {
          "internalType": "uint256",
          "name": "badgeModelId",
          "type": "uint256"
        },
        {
          "internalType": "bytes",
          "name": "data",
          "type": "bytes"
        }
      ],
      "name": "createBadgeModel",
      "outputs": [],
      "stateMutability": "nonpayable",
      "type": "function"
    },
    {
      "inputs": [
        {
          "internalType": "uint256",
          "name": "",
          "type": "uint256"
        }
      ],
      "name": "getChallengeDepositValue",
      "outputs": [
        {
          "internalType": "uint256",
          "name": "",
          "type": "uint256"
        }
      ],
      "stateMutability": "pure",
      "type": "function"
    },
    {
      "inputs": [
        {
          "internalType": "uint256",
          "name": "",
          "type": "uint256"
        }
      ],
      "name": "getRemovalDepositValue",
      "outputs": [
        {
          "internalType": "uint256",
          "name": "",
          "type": "uint256"
        }
      ],
      "stateMutability": "pure",
      "type": "function"
    },
    {
      "inputs": [
        {
          "internalType": "bytes32",
          "name": "role",
          "type": "bytes32"
        }
      ],
      "name": "getRoleAdmin",
      "outputs": [
        {
          "internalType": "bytes32",
          "name": "",
          "type": "bytes32"
        }
      ],
      "stateMutability": "view",
      "type": "function"
    },
    {
      "inputs": [],
      "name": "getVerifyUserProtocolFee",
      "outputs": [
        {
          "internalType": "uint256",
          "name": "",
          "type": "uint256"
        }
      ],
      "stateMutability": "view",
      "type": "function"
    },
    {
      "inputs": [
        {
          "internalType": "bytes32",
          "name": "role",
          "type": "bytes32"
        },
        {
          "internalType": "address",
          "name": "account",
          "type": "address"
        }
      ],
      "name": "grantRole",
      "outputs": [],
      "stateMutability": "nonpayable",
      "type": "function"
    },
    {
      "inputs": [
        {
          "internalType": "bytes32",
          "name": "role",
          "type": "bytes32"
        },
        {
          "internalType": "address",
          "name": "account",
          "type": "address"
        }
      ],
      "name": "hasRole",
      "outputs": [
        {
          "internalType": "bool",
          "name": "",
          "type": "bool"
        }
      ],
      "stateMutability": "view",
      "type": "function"
    },
    {
      "inputs": [
        {
          "internalType": "address",
          "name": "admin",
          "type": "address"
        },
        {
          "internalType": "address",
          "name": "_theBadge",
          "type": "address"
        },
        {
          "internalType": "address",
          "name": "_theBadgeModels",
          "type": "address"
        },
        {
          "internalType": "address",
          "name": "_tpBadgeModelStore",
          "type": "address"
        },
        {
          "internalType": "address",
          "name": "_theBadgeUsers",
          "type": "address"
        }
      ],
      "name": "initialize",
      "outputs": [],
      "stateMutability": "nonpayable",
      "type": "function"
    },
    {
      "inputs": [
        {
          "internalType": "uint256",
          "name": "badgeId",
          "type": "uint256"
        }
      ],
      "name": "isAssetActive",
      "outputs": [
        {
          "internalType": "bool",
          "name": "",
          "type": "bool"
        }
      ],
      "stateMutability": "view",
      "type": "function"
    },
    {
      "inputs": [],
      "name": "isAutomaticClaimable",
      "outputs": [
        {
          "internalType": "bool",
          "name": "",
          "type": "bool"
        }
      ],
      "stateMutability": "pure",
      "type": "function"
    },
    {
      "inputs": [],
      "name": "isBadgeModelMetadataUpdatable",
      "outputs": [
        {
          "internalType": "bool",
          "name": "",
          "type": "bool"
        }
      ],
      "stateMutability": "pure",
      "type": "function"
    },
    {
      "inputs": [],
      "name": "isBadgeModelMetadataUpgradeable",
      "outputs": [
        {
          "internalType": "bool",
          "name": "",
          "type": "bool"
        }
      ],
      "stateMutability": "pure",
      "type": "function"
    },
    {
      "inputs": [
        {
          "internalType": "uint256",
          "name": "badgeId",
          "type": "uint256"
        }
      ],
      "name": "isClaimable",
      "outputs": [
        {
          "internalType": "bool",
          "name": "",
          "type": "bool"
        }
      ],
      "stateMutability": "view",
      "type": "function"
    },
    {
      "inputs": [
        {
          "internalType": "uint256",
          "name": "",
          "type": "uint256"
        },
        {
          "internalType": "address",
          "name": "",
          "type": "address"
        }
      ],
      "name": "isMintableToController",
      "outputs": [
        {
          "internalType": "bool",
          "name": "",
          "type": "bool"
        }
      ],
      "stateMutability": "pure",
      "type": "function"
    },
    {
      "inputs": [
        {
          "internalType": "address",
          "name": "callee",
          "type": "address"
        },
        {
          "internalType": "uint256",
          "name": "badgeModelId",
          "type": "uint256"
        },
        {
          "internalType": "uint256",
          "name": "badgeId",
          "type": "uint256"
        },
        {
          "internalType": "bytes",
          "name": "data",
          "type": "bytes"
        },
        {
          "internalType": "address",
          "name": "",
          "type": "address"
        }
      ],
      "name": "mint",
      "outputs": [
        {
          "internalType": "uint256",
          "name": "",
          "type": "uint256"
        }
      ],
      "stateMutability": "payable",
      "type": "function"
    },
    {
      "inputs": [
        {
          "internalType": "uint256",
          "name": "",
          "type": "uint256"
        }
      ],
      "name": "mintValue",
      "outputs": [
        {
          "internalType": "uint256",
          "name": "",
          "type": "uint256"
        }
      ],
      "stateMutability": "pure",
      "type": "function"
    },
    {
      "inputs": [
        {
          "internalType": "address",
          "name": "",
          "type": "address"
        },
        {
          "internalType": "address",
          "name": "",
          "type": "address"
        },
        {
          "internalType": "uint256[]",
          "name": "",
          "type": "uint256[]"
        },
        {
          "internalType": "uint256[]",
          "name": "",
          "type": "uint256[]"
        },
        {
          "internalType": "bytes",
          "name": "",
          "type": "bytes"
        }
      ],
      "name": "onERC1155BatchReceived",
      "outputs": [
        {
          "internalType": "bytes4",
          "name": "",
          "type": "bytes4"
        }
      ],
      "stateMutability": "nonpayable",
      "type": "function"
    },
    {
      "inputs": [
        {
          "internalType": "address",
          "name": "",
          "type": "address"
        },
        {
          "internalType": "address",
          "name": "",
          "type": "address"
        },
        {
          "internalType": "uint256",
          "name": "",
          "type": "uint256"
        },
        {
          "internalType": "uint256",
          "name": "",
          "type": "uint256"
        },
        {
          "internalType": "bytes",
          "name": "",
          "type": "bytes"
        }
      ],
      "name": "onERC1155Received",
      "outputs": [
        {
          "internalType": "bytes4",
          "name": "",
          "type": "bytes4"
        }
      ],
      "stateMutability": "nonpayable",
      "type": "function"
    },
    {
      "inputs": [],
      "name": "proxiableUUID",
      "outputs": [
        {
          "internalType": "bytes32",
          "name": "",
          "type": "bytes32"
        }
      ],
      "stateMutability": "view",
      "type": "function"
    },
    {
      "inputs": [
        {
          "internalType": "uint256",
          "name": "",
          "type": "uint256"
        },
        {
          "internalType": "bytes",
          "name": "",
          "type": "bytes"
        },
        {
          "internalType": "address",
          "name": "",
          "type": "address"
        }
      ],
      "name": "removeItem",
      "outputs": [],
      "stateMutability": "payable",
      "type": "function"
    },
    {
      "inputs": [
        {
          "internalType": "bytes32",
          "name": "role",
          "type": "bytes32"
        },
        {
          "internalType": "address",
          "name": "callerConfirmation",
          "type": "address"
        }
      ],
      "name": "renounceRole",
      "outputs": [],
      "stateMutability": "nonpayable",
      "type": "function"
    },
    {
      "inputs": [
        {
          "internalType": "bytes32",
          "name": "role",
          "type": "bytes32"
        },
        {
          "internalType": "address",
          "name": "account",
          "type": "address"
        }
      ],
      "name": "revokeRole",
      "outputs": [],
      "stateMutability": "nonpayable",
      "type": "function"
    },
    {
      "inputs": [
        {
          "internalType": "uint256",
          "name": "",
          "type": "uint256"
        },
        {
          "internalType": "bytes",
          "name": "",
          "type": "bytes"
        },
        {
          "internalType": "address",
          "name": "",
          "type": "address"
        }
      ],
      "name": "submitEvidence",
      "outputs": [],
      "stateMutability": "pure",
      "type": "function"
    },
    {
      "inputs": [
        {
          "internalType": "bytes4",
          "name": "interfaceId",
          "type": "bytes4"
        }
      ],
      "name": "supportsInterface",
      "outputs": [
        {
          "internalType": "bool",
          "name": "",
          "type": "bool"
        }
      ],
      "stateMutability": "view",
      "type": "function"
    },
    {
      "inputs": [],
      "name": "theBadge",
      "outputs": [
        {
          "internalType": "contract TheBadge",
          "name": "",
          "type": "address"
        }
      ],
      "stateMutability": "view",
      "type": "function"
    },
    {
      "inputs": [],
      "name": "theBadgeModels",
      "outputs": [
        {
          "internalType": "contract TheBadgeModels",
          "name": "",
          "type": "address"
        }
      ],
      "stateMutability": "view",
      "type": "function"
    },
    {
      "inputs": [],
      "name": "theBadgeUsers",
      "outputs": [
        {
          "internalType": "contract TheBadgeUsers",
          "name": "",
          "type": "address"
        }
      ],
      "stateMutability": "view",
      "type": "function"
    },
    {
      "inputs": [],
      "name": "tpBadgeModelControllerStore",
      "outputs": [
        {
          "internalType": "contract TpBadgeModelControllerStore",
          "name": "",
          "type": "address"
        }
      ],
      "stateMutability": "view",
      "type": "function"
    },
    {
      "inputs": [
        {
          "internalType": "uint256",
          "name": "_verifyUserProtocolFee",
          "type": "uint256"
        }
      ],
      "name": "updateVerifyUserProtocolFee",
      "outputs": [],
      "stateMutability": "nonpayable",
      "type": "function"
    },
    {
      "inputs": [
        {
          "internalType": "address",
          "name": "newImplementation",
          "type": "address"
        },
        {
          "internalType": "bytes",
          "name": "data",
          "type": "bytes"
        }
      ],
      "name": "upgradeToAndCall",
      "outputs": [],
      "stateMutability": "payable",
      "type": "function"
    },
    {
      "stateMutability": "payable",
      "type": "receive"
    }
  ],
  "bytecode": "0x60a080604052346100cc57306080527ff0c57e16840df040f15088dc2f81fe391c3923bec73e23a9662efc9c229c6a009081549060ff8260401c166100bd57506001600160401b036002600160401b031982821601610078575b60405161280690816100d18239608051818181610df20152610e870152f35b6001600160401b031990911681179091556040519081527fc7f505b2f371ae2175ee4913f4499e1f2633a7b5936321eed1cdaeb6115181d290602090a15f8080610059565b63f92ee8a960e01b8152600490fd5b5f80fdfe608080604052600436101561001c575b50361561001a575f80fd5b005b5f90813560e01c90816301ffc9a714611d445750806304a3c5d7146113725780630d3f35071461095d5780631459457a146111ad57806322e900c21461118e578063248a9ca3146111555780632f2ff15d1461110b57806336568abe146110c3578063401fef941461109d5780634d854cb4146107f85780634f1ef28614610e4957806352d1902d14610ddf57806360a72f1614610db857806361cf6b4814610d96578063632f7c8314610d9b578063681294b414610d965780637657dbdd14610d095780637eb7f176146107a55780637f34571014610cce57806389610a0914610ca55780638ac516b814610bc157806391d1485414610b6b5780639c6b9f8a14610979578063a217fddf1461095d578063a41e35c314610922578063ad3cb1cc146108d8578063ae1c29e8146108af578063bc197c8114610826578063caa39ec5146107fd578063d3245f26146107f8578063d547741f146107aa578063d7deba15146107a5578063d8bee35614610781578063e63ab1e914610746578063e7705db61461070b578063f23a6e61146106b5578063f4bcaf421461068c578063f6563d5f14610241578063f72c0d8b146102195763fc5f18d30361000f573461021657806003193601126102165760206040517f11a8cb5a02bd6c42679835e867ef2118ba78f088f8300511420c6603c21d9c788152f35b80fd5b503461021657806003193601126102165760206040515f805160206127718339815191528152f35b5060a036600319011261021657610256611db3565b6064356001600160401b03811161051857610275903690600401611e09565b610280929192611ddf565b506002546001600160a01b0316330361067a578354604051637210b3d560e01b81526024803560048301526001600160a01b03858116918301919091529091169290602081604481875afa90811561066f578691610631575b5015610599575b5060405163632f7c8360e01b81526024356004820152602081602481305afa90811561058e578591610558575b5034036105465760405163f2be2c8560e01b815260248035600483015285938491839182905afa9081156104ea578391610524575b5060400151908301926001600160a01b0390911690602081850312610518578035906001600160401b0382116105205701602081850312610518576040519361038a85611eae565b81356001600160401b03811161051c576103a49201611f20565b90818452803b1561051857604051638545c6a560e01b81526020600482015291839183918290849082906103dc906024830190611ffc565b03925af1801561050d576104f9575b5050516040516104186020828161040b8183019687815193849201611fdb565b8101038084520182611ee4565b519020906040519161042983611e51565b808352602083016024358152604084019060443594858352606081016001815260018060a01b0386541690813b156104f557918660a492819594604051978896879563462cb56960e01b87528d600488015251602487015251604486015251606485015251151560848401525af180156104ea576104d2575b50806020937fc93f2370bc3cb1e7aba45230ebba753ccb6bfb4481d0333177da0936617db9536040519480a38152f35b6104dc8391611e80565b6104e6575f6104a2565b5080fd5b6040513d85823e3d90fd5b8680fd5b61050290611e80565b6104e657815f6103eb565b6040513d84823e3d90fd5b8280fd5b8480fd5b8380fd5b61054091503d8085833e6105388183611ee4565b81019061244a565b5f610342565b6040516323d256f560e11b8152600490fd5b90506020813d602011610586575b8161057360209383611ee4565b8101031261058257515f61030d565b5f80fd5b3d9150610566565b6040513d87823e3d90fd5b6040516309c5215f60e01b81526024803560048301526001600160a01b039290921691810191909152602081604481865afa90811561058e5785916105f7575b50156105e5575f6102e0565b6040516365f278c560e11b8152600490fd5b90506020813d602011610629575b8161061260209383611ee4565b8101031261051c576106239061243d565b5f6105d9565b3d9150610605565b90506020813d602011610667575b8161064c60209383611ee4565b810103126106635761065d9061243d565b5f6102d9565b8580fd5b3d915061063f565b6040513d88823e3d90fd5b60405163145ed2fd60e11b8152600490fd5b50346102165780600319360112610216576003546040516001600160a01b039091168152602090f35b50346102165760a0366003190112610216576106cf611db3565b506106d8611dc9565b506084356001600160401b0381116104e6576106f8903690600401611f20565b5060405163f23a6e6160e01b8152602090f35b503461021657806003193601126102165760206040517f0ce23c3e399818cfee81a7ab0880f714e53d7672b08df0fa62f2843416e1ea098152f35b503461021657806003193601126102165760206040517f65d7a28e3265b37a6474929f336521b332c1681b933f6cb9f3376673440d862a8152f35b50346102165761079036611f66565b505050506004604051631d1a1dc360e01b8152fd5b611fb6565b5034610216576040366003190112610216576107f46004356107ca611dc9565b908084525f805160206127b18339815191526020526107ef6001604086200154612096565b612301565b5080f35b611e36565b50346102165780600319360112610216576002546040516001600160a01b039091168152602090f35b50346102165760a036600319011261021657610840611db3565b50610849611dc9565b506001600160401b036044358181116105185761086a903690600401612038565b5060643581811161051857610883903690600401612038565b506084359081116104e65761089c903690600401611f20565b5060405163bc197c8160e01b8152602090f35b50346102165780600319360112610216576001546040516001600160a01b039091168152602090f35b503461021657806003193601126102165761091e6040516108f881611ec9565b60058152640352e302e360dc1b6020820152604051918291602083526020830190611ffc565b0390f35b503461021657806003193601126102165760206040517fcbaaf41b181bb6e269c490e876a7c97711b57e21dd8e5528423cf57579726b358152f35b5034610216578060031936011261021657602090604051908152f35b50346102165761098836611f66565b600254929493926001600160a01b0392919083169033820361067a57869260209788918101031261066357836109c9604051946109c486611eae565b611df5565b8085521615610b5957604051627eeac760e11b8152306004820152602481018690528781604481865afa908115610b4e578791610b21575b5015610b0f577f11a8cb5a02bd6c42679835e867ef2118ba78f088f8300511420c6603c21d9c7886525f805160206127b18339815191528752836040872091165f52865260ff60405f20541615610afd5782825116813b1561066357859160e483926040519485938492637921219560e11b845230600485015260248401528960448401526001606484015260a06084840152600260a484015261060f60f31b60c48401525af1801561058e57908591610ae9575b505051169081604051937f280cdbffa74e002595cb5c98dcc7b8d7b9df1b76726918883663d1ff690d8720309180a48152f35b610af290611e80565b61052057835f610ab6565b604051631ffdebad60e21b8152600490fd5b604051632357a08560e01b8152600490fd5b90508781813d8311610b47575b610b388183611ee4565b8101031261058257515f610a01565b503d610b2e565b6040513d89823e3d90fd5b6040516341773d6d60e11b8152600490fd5b5034610216576040366003190112610216576040610b87611dc9565b9160043581525f805160206127b1833981519152602052209060018060a01b03165f52602052602060ff60405f2054166040519015158152f35b503461021657602036600319011261021657335f9081527fb7db2dd08fcb62d0c9e08c51941cae53c267786a0b75803fb7960902fc8ef97d602052604090205460ff1615610c8757805481906001600160a01b0316803b15610c8457818091602460405180948193631158a2d760e31b835260043560048401525af1801561050d57610c70575b50807f810f1720fbc34c56d171f89315ad21708648fd17424c27b88fa208409845aa7791a180f35b610c7990611e80565b61021657805f610c48565b50fd5b60405163e2517d3f60e01b81523360048201525f6024820152604490fd5b5034610216576020366003190112610216576020610cc46004356124f7565b6040519015158152f35b503461021657806003193601126102165760206040517f7804d923f43a17d325d77e781528e0793b2edd9890ab45fc64efd7b4b427744c8152f35b5034610216578060031936011261021657805460405163777db25d60e11b81529190602090839060049082906001600160a01b03165afa908115610d8a5790610d58575b602090604051908152f35b506020813d8211610d82575b81610d7160209383611ee4565b810103126105825760209051610d4d565b3d9150610d64565b604051903d90823e3d90fd5b611fad565b503461021657602036600319011261021657602090604051908152f35b5034610216578060031936011261021657546040516001600160a01b039091168152602090f35b50346102165780600319360112610216577f00000000000000000000000000000000000000000000000000000000000000006001600160a01b03163003610e375760206040515f805160206127918339815191528152f35b60405163703e46dd60e11b8152600490fd5b50604036600319011261021657610e5e611db3565b6024356001600160401b03811161051857610e7d903690600401611f20565b6001600160a01b037f00000000000000000000000000000000000000000000000000000000000000008116308114908115611082575b50610e3757335f9081527fab71e3f32666744d246edff3f96e4bdafee2e9867098cdd118a979a7464786a860209081526040909120549091905f805160206127718339815191529060ff161561106457508316926040516352d1902d60e01b81528281600481885afa869181611035575b50610f4257604051634c9c8ce360e01b815260048101869052602490fd5b9385945f805160206127918339815191529081810361101d5750823b156110045780546001600160a01b0319168217905560405185917fbc7cd75a20ee27fd9adebab32041f755214dbc6bffa90cc0225b39da2e5c2d3b8380a2845115610fe757508084846107f496519101845af4903d15610fde573d610fc281611f05565b90610fd06040519283611ee4565b81528581943d92013e612381565b60609250612381565b935050505034610ff5575080f35b63b398979f60e01b8152600490fd5b604051634c9c8ce360e01b815260048101839052602490fd5b60249060405190632a87526960e21b82526004820152fd5b9091508381813d831161105d575b61104d8183611ee4565b810103126104f55751905f610f24565b503d611043565b6044906040519063e2517d3f60e01b82523360048301526024820152fd5b9050815f80516020612791833981519152541614155f610eb3565b5034610216576040366003190112610216576110b7611dc9565b50602060405160018152f35b5034610216576040366003190112610216576110dd611dc9565b336001600160a01b038216036110f9576107f490600435612301565b60405163334bd91960e11b8152600490fd5b5034610216576040366003190112610216576107f460043561112b611dc9565b908084525f805160206127b18339815191526020526111506001604086200154612096565b612290565b5034610216576020366003190112610216576001604060209260043581525f805160206127b18339815191528452200154604051908152f35b5034610216576020366003190112610216576020610cc4600435612581565b50346102165760a0366003190112610216576111c7611db3565b6111cf611dc9565b6044356001600160a01b03818116918290036105825760643592818416809403610582576111fb611ddf565b937ff0c57e16840df040f15088dc2f81fe391c3923bec73e23a9662efc9c229c6a009485549160ff8360401c1615956001600160401b0384168015908161136a575b6001149081611360575b159081611357575b506113455767ffffffffffffffff1984166001178855859387611326575b50611277896120c4565b506112818961214f565b5061128b896121fc565b508360018060a01b03199516856002541617600255846003541617600355838954161788551690600154161760015560405193167f36b1453565f45af7b509b59d5e2eac8f1948ea9e3e193db6663b4101afb6382c8580a26112eb578280f35b805460ff60401b19169055600181527fc7f505b2f371ae2175ee4913f4499e1f2633a7b5936321eed1cdaeb6115181d290602090a15f808280f35b68ffffffffffffffffff1916680100000000000000011788555f61126d565b60405163f92ee8a960e01b8152600490fd5b9050155f61124f565b303b159150611247565b88915061123d565b50346102165760603660031901126102165761138c611db3565b6044356001600160401b038111610518576113ab903690600401611e09565b6003546001600160a01b03163303611d325760015460405163034ff23560e61b81523060048201526001600160a01b0385811660248301529091869183916044918391165afa90811561058e578591611c34575b5060a081015115611c2257606001516003811015611c0e57600103611bfc5760018060a01b038454169060405163f2be2c8560e01b815260243560048201528581602481865afa90811561066f578691611be2575b50604001516001600160a01b0316611bd057602083828101031261051c576001600160401b0383351161051c57604083358401828501031261051c5760405192604084018481106001600160401b03821117611bbc576040526001600160401b038135820135116106635780820181358201803501601f0112156106635780358101803501356114e381612021565b906114f16040519283611ee4565b8082526020820184840160208360051b86358701358735880101010111611bb85783358401803501602001905b84358501803501600584901b016020018210611b9d57505050845260208135820101356001600160401b0381116104f55761155f9282019180350101611f20565b602083015260405190639f780b1d60e01b8252602082600481845afa91821561058e578592611b5c575b50602060049160405192838092636cc6cde160e01b82525afa90811561058e578591611b1a575b506115fa61161560206040518181018981528282526115ce82611ec9565b60405161160984820192600184528583526115e883611ec9565b60405197889551809288880190611fdb565b84019151809386840190611fdb565b01038084520182611ee4565b6040519061162282611ec9565b601f82527f697066733a2f2f726567697374726174696f6e4d65746145766964656e63650060208301526040519161165983611ec9565b601b83527f697066733a2f2f636c656172696e674d65746145766964656e6365000000000060208401526040519261169084611e51565b69021e19e0c9bab24000008085528060208601528060408601526060850152604051928360608101106001600160401b03606086011117611b0657606084016040908152606480865260208601819052908501526001600160a01b0387163b15611b025794918993949161174c61175e92611734604051998a9763d8dcbd2760e01b895260018060a01b031660048901526101e060248901526101e4880190611ffc565b90876044880152600319878303016064880152611ffc565b84810360031901608486015290611ffc565b3060a4840152908360c484015b60048210611ae657505050603c610144830152610164820193835b60038110611aca575050306101c48301529192509081900381836001600160a01b0387165af1801561058e57611ab7575b506040516306661abd60e01b81526020816004816001600160a01b0386165afa90811561058e578591611a85575b505f198101908111611a715760405163a2f7b3a560e01b81526004810191909152906020908290602490829088906001600160a01b03165af1908115611a66578491611a24575b506001600160a01b0316918215611a1257839060208301516040519161185183611e93565b6001600160a01b03908116835260243560208401526040830186905230606084018190526080840152600160a084015260c0830191909152825416803b15610518576040805163132021ab60e01b8152602480356004830152810182905283516001600160a01b0390811660448301526020850151606483015291840151821660848201526060840151821660a4820152608084015190911660c482015260a0830151151560e482015260c09092015160e06101048401528391839182908490829061192290610124830190611ffc565b03925af1801561050d576119fe575b505082549051906001600160a01b0316803b156105205790839160405191632d1b791560e11b8352604483016024356004850152604060248501528151809152602060648501920190855b8181106119dc575050508391838381809403925af1801561050d576119c8575b50506024357fc465f0869e4b9761b8e3132a1295ad33ca24e5757eed5398a80ffe94f65d05de8380a380f35b6119d190611e80565b6104e657815f61199c565b82516001600160a01b031684528896506020938401939092019160010161197c565b611a0790611e80565b61051857825f611931565b60405163b76d9a5f60e01b8152600490fd5b90506020813d602011611a5e575b81611a3f60209383611ee4565b8101031261052057516001600160a01b0381168103610520575f61182c565b3d9150611a32565b6040513d86823e3d90fd5b634e487b7160e01b85526011600452602485fd5b90506020813d602011611aaf575b81611aa060209383611ee4565b8101031261058257515f6117e5565b3d9150611a93565b611ac390949194611e80565b925f6117b7565b815186526020958601958b955087945090910190600101611786565b825181528b95508794506020928301926001909201910161176b565b8980fd5b634e487b7160e01b8a52604160045260248afd5b90506020813d602011611b54575b81611b3560209383611ee4565b8101031261051c57516001600160a01b038116810361051c575f6115b0565b3d9150611b28565b9091506020813d602011611b95575b81611b7860209383611ee4565b8101031261051c576020611b8d6004926123e4565b929150611589565b3d9150611b6b565b6020808092611bab85611df5565b815201920191905061151e565b8880fd5b634e487b7160e01b87526041600452602487fd5b60405163614d157f60e11b8152600490fd5b611bf691503d8088833e6105388183611ee4565b5f611454565b60405163208d6c4160e01b8152600490fd5b634e487b7160e01b85526021600452602485fd5b60405163ce848fe360e01b8152600490fd5b90503d8086833e611c458183611ee4565b810190602081830312610663578051906001600160401b0382116104f5570160c081830312610663576040519160c083018381106001600160401b03821117611d1e57604052611c94826123e4565b835260208201516001600160401b038111611d1a5781611cb59184016123f8565b60208401526040820151906001600160401b038211611d1a57611cd99183016123f8565b6040830152606081015160038110156104f557611d0f9160a0916060850152611d04608082016123e4565b60808501520161243d565b60a08201525f6113ff565b8780fd5b634e487b7160e01b88526041600452602488fd5b60405163b84b622b60e01b8152600490fd5b9050346104e65760203660031901126104e65760043563ffffffff60e01b81168091036105185760209250630271189760e51b8114908115611d88575b5015158152f35b637965db0b60e01b811491508115611da2575b505f611d81565b6301ffc9a760e01b1490505f611d9b565b600435906001600160a01b038216820361058257565b602435906001600160a01b038216820361058257565b608435906001600160a01b038216820361058257565b35906001600160a01b038216820361058257565b9181601f84011215610582578235916001600160401b038311610582576020838186019501011161058257565b34610582575f36600319011261058257602060405160018152f35b608081019081106001600160401b03821117611e6c57604052565b634e487b7160e01b5f52604160045260245ffd5b6001600160401b038111611e6c57604052565b60e081019081106001600160401b03821117611e6c57604052565b602081019081106001600160401b03821117611e6c57604052565b604081019081106001600160401b03821117611e6c57604052565b90601f801991011681019081106001600160401b03821117611e6c57604052565b6001600160401b038111611e6c57601f01601f191660200190565b81601f8201121561058257803590611f3782611f05565b92611f456040519485611ee4565b8284526020838301011161058257815f926020809301838601378301015290565b9060606003198301126105825760043591602435906001600160401b03821161058257611f9591600401611e09565b90916044356001600160a01b03811681036105825790565b61079036611f66565b3461058257602036600319011261058257602060405169021e19e0c9bab24000008152f35b5f5b838110611fec5750505f910152565b8181015183820152602001611fdd565b9060209161201581518092818552858086019101611fdb565b601f01601f1916010190565b6001600160401b038111611e6c5760051b60200190565b81601f820112156105825780359161204f83612021565b9261205d6040519485611ee4565b808452602092838086019260051b820101928311610582578301905b828210612087575050505090565b81358152908301908301612079565b805f525f805160206127b183398151915260205260405f20335f5260205260ff60405f205416156110645750565b6001600160a01b03165f8181527fb7db2dd08fcb62d0c9e08c51941cae53c267786a0b75803fb7960902fc8ef97d60205260408120549091905f805160206127b18339815191529060ff1661214a578280526020526040822081835260205260408220600160ff1982541617905533915f805160206127518339815191528180a4600190565b505090565b6001600160a01b03165f8181527f75442b0a96088b5456bc4ed01394c96a4feec0f883c9494257d76b96ab1c9b6b60205260408120549091907f65d7a28e3265b37a6474929f336521b332c1681b933f6cb9f3376673440d862a905f805160206127b18339815191529060ff166121f6578184526020526040832082845260205260408320600160ff198254161790555f80516020612751833981519152339380a4600190565b50505090565b6001600160a01b03165f8181527fab71e3f32666744d246edff3f96e4bdafee2e9867098cdd118a979a7464786a860205260408120549091905f80516020612771833981519152905f805160206127b18339815191529060ff166121f6578184526020526040832082845260205260408320600160ff198254161790555f80516020612751833981519152339380a4600190565b905f918083525f805160206127b183398151915280602052604084209260018060a01b03169283855260205260ff604085205416155f146121f6578184526020526040832082845260205260408320600160ff198254161790555f80516020612751833981519152339380a4600190565b905f918083525f805160206127b183398151915280602052604084209260018060a01b03169283855260205260ff6040852054165f146121f657818452602052604083208284526020526040832060ff1981541690557ff6391f5c32d9c69d2a47ea670b442974b53935d1edc7fd64eb21e047a839171b339380a4600190565b906123a8575080511561239657805190602001fd5b604051630a12f52160e11b8152600490fd5b815115806123db575b6123b9575090565b604051639996b31560e01b81526001600160a01b039091166004820152602490fd5b50803b156123b1565b51906001600160a01b038216820361058257565b81601f8201121561058257805161240e81611f05565b9261241c6040519485611ee4565b818452602082840101116105825761243a9160208085019101611fdb565b90565b5190811515820361058257565b906020828203126105825781516001600160401b039283821161058257019060e082820312610582576040519261248084611e93565b612489836123e4565b8452602083015160208501526124a1604084016123e4565b60408501526124b2606084016123e4565b60608501526124c3608084016123e4565b60808501526124d460a0840161243d565b60a085015260c0830151908111610582576124ef92016123f8565b60c082015290565b600254604051627eeac760e11b81523060048201526024810192909252602090829060449082906001600160a01b03165afa908115612576575f91612545575b50612540575f90565b600190565b906020823d821161256e575b8161255e60209383611ee4565b810103126102165750515f612537565b3d9150612551565b6040513d5f823e3d90fd5b5f805460408051630ffdff0d60e21b81526004810185905292939290916020916001600160a01b0391821691908381602481865afa908115612746578791612711575b50169384156127005760809060248551809481936346c1c31160e11b835260048301525afa9081156126f6578591612694575b5060609150516024835180958193634aac84e560e01b835260048301525afa90811561268b5750829061264f575b60ff91501660018114908115612644575b5061263e5790565b50600190565b60039150145f612636565b506060813d8211612683575b8161266860609383611ee4565b810103126104e6575160ff811681036104e65760ff90612625565b3d915061265b565b513d84823e3d90fd5b90506080813d82116126ee575b816126ae60809383611ee4565b8101031261051c57906126e4606080938551936126ca85611e51565b81518552808201519085015285810151868501520161243d565b828201525f6125f7565b3d91506126a1565b83513d87823e3d90fd5b8351630c6ed91d60e01b8152600490fd5b90508381813d831161273f575b6127288183611ee4565b810103126104f557612739906123e4565b5f6125c4565b503d61271e565b85513d89823e3d90fdfe2f8788117e7eff1d82e926ec794901d17c78024a50270940304540a733656f0d189ab7a9244df0848122154315af71fe140f3db0fe014031783b0946b8c9d2e3360894a13ba1a3210667c828492db98dca3e2076cc3735a920a3ca505d382bbc02dd7bc7dec4dceedda775e58dd541e08a116c6c53815c0bd028192f7b626800a26469706673582212208b23c4a6a67d63e1c1e332bf2bf62b4713e55b2cdef425ee324550f35548c48b64736f6c63430008140033",
  "linkReferences": {},
  "deployedLinkReferences": {}
}