{
  "_format": "hh-sol-artifact-1",
  "contractName": "TpBadgeModelControllerStore",
  "sourceName": "src/contracts/badgeModelControllers/TpBadgeModelControllerStore.sol",
  "abi": [
    {
      "inputs": [],
      "stateMutability": "nonpayable",
      "type": "constructor"
    },
    {
      "inputs": [],
      "name": "AccessControlBadConfirmation",
      "type": "error"
    },
    {
      "inputs": [
        {
          "internalType": "address",
          "name": "account",
          "type": "address"
        },
        {
          "internalType": "bytes32",
          "name": "neededRole",
          "type": "bytes32"
        }
      ],
      "name": "AccessControlUnauthorizedAccount",
      "type": "error"
    },
    {
      "inputs": [],
      "name": "InvalidInitialization",
      "type": "error"
    },
    {
      "inputs": [],
      "name": "NotInitializing",
      "type": "error"
    },
    {
      "inputs": [
        {
          "internalType": "address",
          "name": "owner",
          "type": "address"
        }
      ],
      "name": "OwnableInvalidOwner",
      "type": "error"
    },
    {
      "inputs": [
        {
          "internalType": "address",
          "name": "account",
          "type": "address"
        }
      ],
      "name": "OwnableUnauthorizedAccount",
      "type": "error"
    },
    {
      "inputs": [],
      "name": "TheBadge__Store_InvalidContractAddress",
      "type": "error"
    },
    {
      "inputs": [],
      "name": "ThirdPartyModelController__createBadgeModel_badgeModelAlreadyCreated",
      "type": "error"
    },
    {
      "inputs": [],
      "name": "ThirdPartyModelController__store_ContractNameAlreadyExists",
      "type": "error"
    },
    {
      "inputs": [],
      "name": "ThirdPartyModelController__store_InvalidContractAddress",
      "type": "error"
    },
    {
      "inputs": [],
      "name": "ThirdPartyModelController__store_InvalidContractName",
      "type": "error"
    },
    {
      "inputs": [],
      "name": "ThirdPartyModelController__store_OperationNotPermitted",
      "type": "error"
    },
    {
      "inputs": [],
      "name": "ThirdPartyModelController__user__userNotFound",
      "type": "error"
    },
    {
      "inputs": [],
      "name": "ThirdPartyModelController__user__userVerificationAlreadyStarted",
      "type": "error"
    },
    {
      "anonymous": false,
      "inputs": [
        {
          "indexed": true,
          "internalType": "string",
          "name": "_contractName",
          "type": "string"
        },
        {
          "indexed": true,
          "internalType": "address",
          "name": "contractAddress",
          "type": "address"
        }
      ],
      "name": "ContractAdded",
      "type": "event"
    },
    {
      "anonymous": false,
      "inputs": [
        {
          "indexed": true,
          "internalType": "string",
          "name": "_contractName",
          "type": "string"
        },
        {
          "indexed": true,
          "internalType": "address",
          "name": "contractAddress",
          "type": "address"
        }
      ],
      "name": "ContractRemoved",
      "type": "event"
    },
    {
      "anonymous": false,
      "inputs": [
        {
          "indexed": true,
          "internalType": "string",
          "name": "_contractName",
          "type": "string"
        },
        {
          "indexed": true,
          "internalType": "address",
          "name": "contractAddress",
          "type": "address"
        }
      ],
      "name": "ContractUpdated",
      "type": "event"
    },
    {
      "anonymous": false,
      "inputs": [
        {
          "indexed": true,
          "internalType": "address",
          "name": "admin",
          "type": "address"
        },
        {
          "indexed": true,
          "internalType": "address",
          "name": "tcrFactory",
          "type": "address"
        }
      ],
      "name": "Initialize",
      "type": "event"
    },
    {
      "anonymous": false,
      "inputs": [
        {
          "indexed": false,
          "internalType": "uint64",
          "name": "version",
          "type": "uint64"
        }
      ],
      "name": "Initialized",
      "type": "event"
    },
    {
      "anonymous": false,
      "inputs": [
        {
          "indexed": true,
          "internalType": "uint256",
          "name": "badgeId",
          "type": "uint256"
        },
        {
          "indexed": false,
          "internalType": "string",
          "name": "evidence",
          "type": "string"
        }
      ],
      "name": "MintThirdPartyBadge",
      "type": "event"
    },
    {
      "anonymous": false,
      "inputs": [
        {
          "indexed": true,
          "internalType": "address",
          "name": "previousOwner",
          "type": "address"
        },
        {
          "indexed": true,
          "internalType": "address",
          "name": "newOwner",
          "type": "address"
        }
      ],
      "name": "OwnershipTransferred",
      "type": "event"
    },
    {
      "anonymous": false,
      "inputs": [],
      "name": "ProtocolSettingsUpdated",
      "type": "event"
    },
    {
      "anonymous": false,
      "inputs": [
        {
          "indexed": true,
          "internalType": "bytes32",
          "name": "role",
          "type": "bytes32"
        },
        {
          "indexed": true,
          "internalType": "bytes32",
          "name": "previousAdminRole",
          "type": "bytes32"
        },
        {
          "indexed": true,
          "internalType": "bytes32",
          "name": "newAdminRole",
          "type": "bytes32"
        }
      ],
      "name": "RoleAdminChanged",
      "type": "event"
    },
    {
      "anonymous": false,
      "inputs": [
        {
          "indexed": true,
          "internalType": "bytes32",
          "name": "role",
          "type": "bytes32"
        },
        {
          "indexed": true,
          "internalType": "address",
          "name": "account",
          "type": "address"
        },
        {
          "indexed": true,
          "internalType": "address",
          "name": "sender",
          "type": "address"
        }
      ],
      "name": "RoleGranted",
      "type": "event"
    },
    {
      "anonymous": false,
      "inputs": [
        {
          "indexed": true,
          "internalType": "bytes32",
          "name": "role",
          "type": "bytes32"
        },
        {
          "indexed": true,
          "internalType": "address",
          "name": "account",
          "type": "address"
        },
        {
          "indexed": true,
          "internalType": "address",
          "name": "sender",
          "type": "address"
        }
      ],
      "name": "RoleRevoked",
      "type": "event"
    },
    {
      "inputs": [],
      "name": "CLAIMER_ROLE",
      "outputs": [
        {
          "internalType": "bytes32",
          "name": "",
          "type": "bytes32"
        }
      ],
      "stateMutability": "view",
      "type": "function"
    },
    {
      "inputs": [],
      "name": "DEFAULT_ADMIN_ROLE",
      "outputs": [
        {
          "internalType": "bytes32",
          "name": "",
          "type": "bytes32"
        }
      ],
      "stateMutability": "view",
      "type": "function"
    },
    {
      "inputs": [],
      "name": "PAUSER_ROLE",
      "outputs": [
        {
          "internalType": "bytes32",
          "name": "",
          "type": "bytes32"
        }
      ],
      "stateMutability": "view",
      "type": "function"
    },
    {
      "inputs": [],
      "name": "UPGRADER_ROLE",
      "outputs": [
        {
          "internalType": "bytes32",
          "name": "",
          "type": "bytes32"
        }
      ],
      "stateMutability": "view",
      "type": "function"
    },
    {
      "inputs": [],
      "name": "URI_SETTER_ROLE",
      "outputs": [
        {
          "internalType": "bytes32",
          "name": "",
          "type": "bytes32"
        }
      ],
      "stateMutability": "view",
      "type": "function"
    },
    {
      "inputs": [],
      "name": "USER_MANAGER_ROLE",
      "outputs": [
        {
          "internalType": "bytes32",
          "name": "",
          "type": "bytes32"
        }
      ],
      "stateMutability": "view",
      "type": "function"
    },
    {
      "inputs": [],
      "name": "VERIFIER_ROLE",
      "outputs": [
        {
          "internalType": "bytes32",
          "name": "",
          "type": "bytes32"
        }
      ],
      "stateMutability": "view",
      "type": "function"
    },
    {
      "inputs": [
        {
          "internalType": "uint256",
          "name": "badgeModelId",
          "type": "uint256"
        },
        {
          "internalType": "address",
          "name": "administrator",
          "type": "address"
        }
      ],
      "name": "addAdministratorToBadgeModel",
      "outputs": [],
      "stateMutability": "nonpayable",
      "type": "function"
    },
    {
      "inputs": [
        {
          "internalType": "uint256",
          "name": "badgeModelId",
          "type": "uint256"
        },
        {
          "internalType": "address[]",
          "name": "administrators",
          "type": "address[]"
        }
      ],
      "name": "addAdministratorsToBadgeModel",
      "outputs": [],
      "stateMutability": "nonpayable",
      "type": "function"
    },
    {
      "inputs": [
        {
          "internalType": "uint256",
          "name": "badgeId",
          "type": "uint256"
        },
        {
          "components": [
            {
              "internalType": "bytes32",
              "name": "itemID",
              "type": "bytes32"
            },
            {
              "internalType": "uint256",
              "name": "badgeModelId",
              "type": "uint256"
            },
            {
              "internalType": "uint256",
              "name": "badgeId",
              "type": "uint256"
            },
            {
              "internalType": "bool",
              "name": "initialized",
              "type": "bool"
            }
          ],
          "internalType": "struct TpBadgeModelControllerStore.ThirdPartyBadge",
          "name": "badge",
          "type": "tuple"
        }
      ],
      "name": "addBadge",
      "outputs": [],
      "stateMutability": "nonpayable",
      "type": "function"
    },
    {
      "inputs": [
        {
          "internalType": "uint256",
          "name": "_badgeModelId",
          "type": "uint256"
        },
        {
          "components": [
            {
              "internalType": "address",
              "name": "owner",
              "type": "address"
            },
            {
              "internalType": "uint256",
              "name": "badgeModelId",
              "type": "uint256"
            },
            {
              "internalType": "address",
              "name": "tcrList",
              "type": "address"
            },
            {
              "internalType": "address",
              "name": "governor",
              "type": "address"
            },
            {
              "internalType": "address",
              "name": "admin",
              "type": "address"
            },
            {
              "internalType": "bool",
              "name": "initialized",
              "type": "bool"
            }
          ],
          "internalType": "struct TpBadgeModelControllerStore.ThirdPartyBadgeModel",
          "name": "badgeModel",
          "type": "tuple"
        }
      ],
      "name": "addBadgeModel",
      "outputs": [],
      "stateMutability": "nonpayable",
      "type": "function"
    },
    {
      "inputs": [
        {
          "internalType": "string",
          "name": "_contractName",
          "type": "string"
        },
        {
          "internalType": "address",
          "name": "_contractAddress",
          "type": "address"
        }
      ],
      "name": "addPermittedContract",
      "outputs": [],
      "stateMutability": "nonpayable",
      "type": "function"
    },
    {
      "inputs": [
        {
          "internalType": "address",
          "name": "",
          "type": "address"
        }
      ],
      "name": "allowedContractAddresses",
      "outputs": [
        {
          "internalType": "bool",
          "name": "",
          "type": "bool"
        }
      ],
      "stateMutability": "view",
      "type": "function"
    },
    {
      "inputs": [
        {
          "internalType": "string",
          "name": "",
          "type": "string"
        }
      ],
      "name": "allowedContractAddressesByContractName",
      "outputs": [
        {
          "internalType": "address",
          "name": "",
          "type": "address"
        }
      ],
      "stateMutability": "view",
      "type": "function"
    },
    {
      "inputs": [],
      "name": "arbitrator",
      "outputs": [
        {
          "internalType": "contract IArbitrator",
          "name": "",
          "type": "address"
        }
      ],
      "stateMutability": "view",
      "type": "function"
    },
    {
      "inputs": [],
      "name": "feeCollector",
      "outputs": [
        {
          "internalType": "address",
          "name": "",
          "type": "address"
        }
      ],
      "stateMutability": "view",
      "type": "function"
    },
    {
      "inputs": [
        {
          "internalType": "uint256",
          "name": "badgeId",
          "type": "uint256"
        }
      ],
      "name": "getBadge",
      "outputs": [
        {
          "components": [
            {
              "internalType": "bytes32",
              "name": "itemID",
              "type": "bytes32"
            },
            {
              "internalType": "uint256",
              "name": "badgeModelId",
              "type": "uint256"
            },
            {
              "internalType": "uint256",
              "name": "badgeId",
              "type": "uint256"
            },
            {
              "internalType": "bool",
              "name": "initialized",
              "type": "bool"
            }
          ],
          "internalType": "struct TpBadgeModelControllerStore.ThirdPartyBadge",
          "name": "",
          "type": "tuple"
        }
      ],
      "stateMutability": "view",
      "type": "function"
    },
    {
      "inputs": [
        {
          "internalType": "uint256",
          "name": "badgeModelId",
          "type": "uint256"
        }
      ],
      "name": "getBadgeModel",
      "outputs": [
        {
          "components": [
            {
              "internalType": "address",
              "name": "owner",
              "type": "address"
            },
            {
              "internalType": "uint256",
              "name": "badgeModelId",
              "type": "uint256"
            },
            {
              "internalType": "address",
              "name": "tcrList",
              "type": "address"
            },
            {
              "internalType": "address",
              "name": "governor",
              "type": "address"
            },
            {
              "internalType": "address",
              "name": "admin",
              "type": "address"
            },
            {
              "internalType": "bool",
              "name": "initialized",
              "type": "bool"
            }
          ],
          "internalType": "struct TpBadgeModelControllerStore.ThirdPartyBadgeModel",
          "name": "",
          "type": "tuple"
        }
      ],
      "stateMutability": "view",
      "type": "function"
    },
    {
      "inputs": [
        {
          "internalType": "uint256",
          "name": "badgeId",
          "type": "uint256"
        }
      ],
      "name": "getBadgeTcrList",
      "outputs": [
        {
          "internalType": "address",
          "name": "",
          "type": "address"
        }
      ],
      "stateMutability": "view",
      "type": "function"
    },
    {
      "inputs": [],
      "name": "getCurrentBadgeIdCounter",
      "outputs": [
        {
          "internalType": "uint256",
          "name": "",
          "type": "uint256"
        }
      ],
      "stateMutability": "view",
      "type": "function"
    },
    {
      "inputs": [],
      "name": "getCurrentBadgeModelsIdCounter",
      "outputs": [
        {
          "internalType": "uint256",
          "name": "",
          "type": "uint256"
        }
      ],
      "stateMutability": "view",
      "type": "function"
    },
    {
      "inputs": [
        {
          "internalType": "bytes32",
          "name": "role",
          "type": "bytes32"
        }
      ],
      "name": "getRoleAdmin",
      "outputs": [
        {
          "internalType": "bytes32",
          "name": "",
          "type": "bytes32"
        }
      ],
      "stateMutability": "view",
      "type": "function"
    },
    {
      "inputs": [
        {
          "internalType": "address",
          "name": "userAddress",
          "type": "address"
        }
      ],
      "name": "getUser",
      "outputs": [
        {
          "components": [
            {
              "internalType": "address",
              "name": "user",
              "type": "address"
            },
            {
              "internalType": "string",
              "name": "userMetadata",
              "type": "string"
            },
            {
              "internalType": "string",
              "name": "verificationEvidence",
              "type": "string"
            },
            {
              "internalType": "enum LibTpBadgeModelController.VerificationStatus",
              "name": "verificationStatus",
              "type": "uint8"
            },
            {
              "internalType": "bool",
              "name": "initialized",
              "type": "bool"
            }
          ],
          "internalType": "struct TpBadgeModelControllerStore.ThirdPartyUser",
          "name": "",
          "type": "tuple"
        }
      ],
      "stateMutability": "view",
      "type": "function"
    },
    {
      "inputs": [
        {
          "internalType": "bytes32",
          "name": "role",
          "type": "bytes32"
        },
        {
          "internalType": "address",
          "name": "account",
          "type": "address"
        }
      ],
      "name": "grantRole",
      "outputs": [],
      "stateMutability": "nonpayable",
      "type": "function"
    },
    {
      "inputs": [
        {
          "internalType": "bytes32",
          "name": "role",
          "type": "bytes32"
        },
        {
          "internalType": "address",
          "name": "account",
          "type": "address"
        }
      ],
      "name": "hasRole",
      "outputs": [
        {
          "internalType": "bool",
          "name": "",
          "type": "bool"
        }
      ],
      "stateMutability": "view",
      "type": "function"
    },
    {
      "inputs": [
        {
          "internalType": "address",
          "name": "admin",
          "type": "address"
        },
        {
          "internalType": "address",
          "name": "_feeCollector",
          "type": "address"
        },
        {
          "internalType": "address",
          "name": "_arbitrator",
          "type": "address"
        },
        {
          "internalType": "address",
          "name": "_tcrFactory",
          "type": "address"
        }
      ],
      "name": "initialize",
      "outputs": [],
      "stateMutability": "nonpayable",
      "type": "function"
    },
    {
      "inputs": [
        {
          "internalType": "uint256",
          "name": "badgeModelId",
          "type": "uint256"
        },
        {
          "internalType": "address",
          "name": "userAddress",
          "type": "address"
        }
      ],
      "name": "isBadgeModelAdministrator",
      "outputs": [
        {
          "internalType": "bool",
          "name": "",
          "type": "bool"
        }
      ],
      "stateMutability": "view",
      "type": "function"
    },
    {
      "inputs": [
        {
          "internalType": "uint256",
          "name": "badgeModelId",
          "type": "uint256"
        },
        {
          "internalType": "address",
          "name": "userAddress",
          "type": "address"
        }
      ],
      "name": "isBadgeModelOwner",
      "outputs": [
        {
          "internalType": "bool",
          "name": "",
          "type": "bool"
        }
      ],
      "stateMutability": "view",
      "type": "function"
    },
    {
      "inputs": [],
      "name": "owner",
      "outputs": [
        {
          "internalType": "address",
          "name": "",
          "type": "address"
        }
      ],
      "stateMutability": "view",
      "type": "function"
    },
    {
      "inputs": [
        {
          "internalType": "address",
          "name": "userAddress",
          "type": "address"
        },
        {
          "components": [
            {
              "internalType": "address",
              "name": "user",
              "type": "address"
            },
            {
              "internalType": "string",
              "name": "userMetadata",
              "type": "string"
            },
            {
              "internalType": "string",
              "name": "verificationEvidence",
              "type": "string"
            },
            {
              "internalType": "enum LibTpBadgeModelController.VerificationStatus",
              "name": "verificationStatus",
              "type": "uint8"
            },
            {
              "internalType": "bool",
              "name": "initialized",
              "type": "bool"
            }
          ],
          "internalType": "struct TpBadgeModelControllerStore.ThirdPartyUser",
          "name": "newUser",
          "type": "tuple"
        }
      ],
      "name": "registerTpUser",
      "outputs": [],
      "stateMutability": "nonpayable",
      "type": "function"
    },
    {
      "inputs": [
        {
          "internalType": "uint256",
          "name": "badgeModelId",
          "type": "uint256"
        },
        {
          "internalType": "address",
          "name": "administrator",
          "type": "address"
        }
      ],
      "name": "removeAdministratorFromBadgeModel",
      "outputs": [],
      "stateMutability": "nonpayable",
      "type": "function"
    },
    {
      "inputs": [
        {
          "internalType": "string",
          "name": "_contractName",
          "type": "string"
        }
      ],
      "name": "removePermittedContract",
      "outputs": [],
      "stateMutability": "nonpayable",
      "type": "function"
    },
    {
      "inputs": [],
      "name": "renounceOwnership",
      "outputs": [],
      "stateMutability": "nonpayable",
      "type": "function"
    },
    {
      "inputs": [
        {
          "internalType": "bytes32",
          "name": "role",
          "type": "bytes32"
        },
        {
          "internalType": "address",
          "name": "callerConfirmation",
          "type": "address"
        }
      ],
      "name": "renounceRole",
      "outputs": [],
      "stateMutability": "nonpayable",
      "type": "function"
    },
    {
      "inputs": [
        {
          "internalType": "bytes32",
          "name": "role",
          "type": "bytes32"
        },
        {
          "internalType": "address",
          "name": "account",
          "type": "address"
        }
      ],
      "name": "revokeRole",
      "outputs": [],
      "stateMutability": "nonpayable",
      "type": "function"
    },
    {
      "inputs": [
        {
          "internalType": "bytes4",
          "name": "interfaceId",
          "type": "bytes4"
        }
      ],
      "name": "supportsInterface",
      "outputs": [
        {
          "internalType": "bool",
          "name": "",
          "type": "bool"
        }
      ],
      "stateMutability": "view",
      "type": "function"
    },
    {
      "inputs": [],
      "name": "tcrFactory",
      "outputs": [
        {
          "internalType": "address",
          "name": "",
          "type": "address"
        }
      ],
      "stateMutability": "view",
      "type": "function"
    },
    {
      "inputs": [
        {
          "internalType": "uint256",
          "name": "",
          "type": "uint256"
        },
        {
          "internalType": "address",
          "name": "",
          "type": "address"
        }
      ],
      "name": "thirdPartyAdministratorsByBadgeModel",
      "outputs": [
        {
          "internalType": "bool",
          "name": "",
          "type": "bool"
        }
      ],
      "stateMutability": "view",
      "type": "function"
    },
    {
      "inputs": [
        {
          "internalType": "uint256",
          "name": "",
          "type": "uint256"
        }
      ],
      "name": "thirdPartyBadgeModels",
      "outputs": [
        {
          "internalType": "address",
          "name": "owner",
          "type": "address"
        },
        {
          "internalType": "uint256",
          "name": "badgeModelId",
          "type": "uint256"
        },
        {
          "internalType": "address",
          "name": "tcrList",
          "type": "address"
        },
        {
          "internalType": "address",
          "name": "governor",
          "type": "address"
        },
        {
          "internalType": "address",
          "name": "admin",
          "type": "address"
        },
        {
          "internalType": "bool",
          "name": "initialized",
          "type": "bool"
        }
      ],
      "stateMutability": "view",
      "type": "function"
    },
    {
      "inputs": [
        {
          "internalType": "uint256",
          "name": "",
          "type": "uint256"
        }
      ],
      "name": "thirdPartyBadges",
      "outputs": [
        {
          "internalType": "bytes32",
          "name": "itemID",
          "type": "bytes32"
        },
        {
          "internalType": "uint256",
          "name": "badgeModelId",
          "type": "uint256"
        },
        {
          "internalType": "uint256",
          "name": "badgeId",
          "type": "uint256"
        },
        {
          "internalType": "bool",
          "name": "initialized",
          "type": "bool"
        }
      ],
      "stateMutability": "view",
      "type": "function"
    },
    {
      "inputs": [],
      "name": "thirdPartyModelController",
      "outputs": [
        {
          "internalType": "contract TpBadgeModelController",
          "name": "",
          "type": "address"
        }
      ],
      "stateMutability": "view",
      "type": "function"
    },
    {
      "inputs": [
        {
          "internalType": "address",
          "name": "",
          "type": "address"
        }
      ],
      "name": "thirdPartyUsers",
      "outputs": [
        {
          "internalType": "address",
          "name": "user",
          "type": "address"
        },
        {
          "internalType": "string",
          "name": "userMetadata",
          "type": "string"
        },
        {
          "internalType": "string",
          "name": "verificationEvidence",
          "type": "string"
        },
        {
          "internalType": "enum LibTpBadgeModelController.VerificationStatus",
          "name": "verificationStatus",
          "type": "uint8"
        },
        {
          "internalType": "bool",
          "name": "initialized",
          "type": "bool"
        }
      ],
      "stateMutability": "view",
      "type": "function"
    },
    {
      "inputs": [
        {
          "internalType": "address",
          "name": "newOwner",
          "type": "address"
        }
      ],
      "name": "transferOwnership",
      "outputs": [],
      "stateMutability": "nonpayable",
      "type": "function"
    },
    {
      "inputs": [
        {
          "internalType": "string",
          "name": "_contractName",
          "type": "string"
        },
        {
          "internalType": "address",
          "name": "_newContractAddress",
          "type": "address"
        }
      ],
      "name": "updatePermittedContract",
      "outputs": [],
      "stateMutability": "nonpayable",
      "type": "function"
    },
    {
      "inputs": [
        {
          "internalType": "address",
          "name": "userAddress",
          "type": "address"
        },
        {
          "components": [
            {
              "internalType": "address",
              "name": "user",
              "type": "address"
            },
            {
              "internalType": "string",
              "name": "userMetadata",
              "type": "string"
            },
            {
              "internalType": "string",
              "name": "verificationEvidence",
              "type": "string"
            },
            {
              "internalType": "enum LibTpBadgeModelController.VerificationStatus",
              "name": "verificationStatus",
              "type": "uint8"
            },
            {
              "internalType": "bool",
              "name": "initialized",
              "type": "bool"
            }
          ],
          "internalType": "struct TpBadgeModelControllerStore.ThirdPartyUser",
          "name": "updatedUser",
          "type": "tuple"
        }
      ],
      "name": "updateUser",
      "outputs": [],
      "stateMutability": "nonpayable",
      "type": "function"
    },
    {
      "inputs": [
        {
          "internalType": "uint256",
          "name": "_verifyUserProtocolFee",
          "type": "uint256"
        }
      ],
      "name": "updateVerifyUserProtocolFee",
      "outputs": [],
      "stateMutability": "nonpayable",
      "type": "function"
    },
    {
      "inputs": [],
      "name": "verifyUserProtocolFee",
      "outputs": [
        {
          "internalType": "uint256",
          "name": "",
          "type": "uint256"
        }
      ],
      "stateMutability": "view",
      "type": "function"
    },
    {
      "stateMutability": "payable",
      "type": "receive"
    }
  ],
  "bytecode": "0x608080604052346100b8577ff0c57e16840df040f15088dc2f81fe391c3923bec73e23a9662efc9c229c6a009081549060ff8260401c166100a957506001600160401b036002600160401b031982821601610064575b60405161248790816100bd8239f35b6001600160401b031990911681179091556040519081527fc7f505b2f371ae2175ee4913f4499e1f2633a7b5936321eed1cdaeb6115181d290602090a15f8080610055565b63f92ee8a960e01b8152600490fd5b5f80fdfe6080604081815260049182361015610021575b505050361561001f575f80fd5b005b5f92833560e01c91826301ffc9a714611cb95750816303eb411314611c6a57816306d7a28c14611c0257816308e5bf2114611be357816309c5215f14610b335781630deee17614611aff578163248a9ca314611ac85781632f2ff15d14611a9e57816336568abe14611a585781633f30e37a14611a2f5781633f57fd6e146119be5781633ff7fc341461190b5781634528d622146116005781634629ba9314611499578163462cb569146113dc57816356b309e7146110625781635a36f22a14610f505781635e98ba6714610ef6578163687a055714610eb85781636cc6cde114610e8f5781636f77926b14610d69578163715018a614610d005781637210b3d514610bb55781637f34571014610b7a5781638966a82414610b335781638ac516b814610af65781638d83862214610a625781638da5cb5b14610a2d57816391d14854146109da57816395ae690f146109755781639f780b1d1461094d578163a1fa355c14610862578163a217fddf14610847578163a41e35c31461080c578163b26fc2041461070f578163bf33806e1461066f578163c415b95c14610646578163d547741f146105fa578163e63ab1e9146105bf578163e7343c8a146105a2578163e7705db614610567578163eefb64ba14610548578163f2be2c8514610472578163f2fde38b14610442578163f72c0d8b14610407578163f8c8765e14610272575063fc5f18d3146102355780610012565b3461026e578160031936011261026e57602090517f11a8cb5a02bd6c42679835e867ef2118ba78f088f8300511420c6603c21d9c788152f35b5080fd5b9050346104035760803660031901126104035761028d611e53565b610295611e27565b6044356001600160a01b038181169492918590036103ff576102b5611e3d565b7ff0c57e16840df040f15088dc2f81fe391c3923bec73e23a9662efc9c229c6a009586549560ff878a1c1615966001600160401b038116801590816103f7575b60011490816103ed575b1590816103e4575b506103d45767ffffffffffffffff19811660011789556103479190886103b5575b5061033161237a565b61033961237a565b61034281612309565b612129565b508260018060a01b03199416846005541617600555836003541617600355169082541617905583600655610379578280f35b805460ff60401b1916905551600181527fc7f505b2f371ae2175ee4913f4499e1f2633a7b5936321eed1cdaeb6115181d290602090a15f808280f35b68ffffffffffffffffff1916680100000000000000011789555f610328565b895163f92ee8a960e01b81528790fd5b9050155f610307565b303b1591506102ff565b8991506102f5565b8680fd5b8280fd5b50503461026e578160031936011261026e57602090517f189ab7a9244df0848122154315af71fe140f3db0fe014031783b0946b8c9d2e38152f35b833461046f57602036600319011261046f5761046c61045f611e53565b6104676122d1565b612309565b80f35b80fd5b90503461040357602036600319011261040357818360c09460a0835161049781611d3b565b828152826020820152828582015282606082015282608082015201528235815260096020522082516104c881611d3b565b60018060a01b03828180945416958684528260018301549660208601978852816002850154169083870191825282600386015416946060880195865201549760ff60a06080890198858c168a52019960a01c16151589528351998a525160208a0152511690870152511660608501525116608083015251151560a0820152f35b50503461026e578160031936011261026e576020906006549051908152f35b50503461026e578160031936011261026e57602090517f0ce23c3e399818cfee81a7ab0880f714e53d7672b08df0fa62f2843416e1ea098152f35b50503461026e578160031936011261026e57602091549051908152f35b50503461026e578160031936011261026e57602090517f65d7a28e3265b37a6474929f336521b332c1681b933f6cb9f3376673440d862a8152f35b91905034610403578060031936011261040357610642913561063d600161061f611e27565b938387525f80516020612432833981519152602052862001546120fb565b612251565b5080f35b50503461026e578160031936011261026e5760055490516001600160a01b039091168152602090f35b82843461046f57602036600319011261046f576001600160a01b0390829082610696611e53565b168152600b60205220908154169060ff6106f06106b560018401612003565b9460036106c460028601612003565b940154936106e38251978897885260a0602089015260a0880190611f44565b9186830390870152611f44565b9161070060608501838316611f69565b60081c16151560808301520390f35b919050346104035761072036611f8a565b909161072a6120a4565b6001600160a01b039182169384156107fe578151928451936020818188019661075481838a611e06565b8101600881520301902054169081156107f057506107c99392916001918752600760205261079b60208289209460ff19958681541690558351809381928951928391611e06565b8101600881520301902086838060a01b031982541617905585875260076020528620918254161790556123cf565b7ff611fec7babefd259c57ea5b6006acff8140ab17bb816c65ba0aa7e36c09caa88380a380f35b825163db4572dd60e01b8152fd5b9051633cefac3360e01b8152fd5b50503461026e578160031936011261026e57602090517fcbaaf41b181bb6e269c490e876a7c97711b57e21dd8e5528423cf57579726b358152f35b50503461026e578160031936011261026e5751908152602090f35b919050346104035761087336611f8a565b61087e9291926120a4565b6001600160a01b0390811693841561093f57825191845192602081818801956108a8818389611e06565b8101600881520301902054166109315750906108d4602061090a94938351809381928751928391611e06565b60089082019081520301902080546001600160a01b0319168517905583855260076020528420805460ff191660011790556123cf565b7f8b4ef7d4e5bc8f098e6f637ac0acf4aee47b3f027efea6307264b06b4bc9d2988380a380f35b8251635ab1deb960e01b8152fd5b8251632f257cc960e01b8152fd5b9050346104035782600319360112610403575490516001600160a01b03909116815260209150f35b90503461040357816003193601126104035761098f611e27565b90338452600760205260ff8385205416156109cc57358352600c60209081528284206001600160a01b039092168452528120805460ff1916905580f35b82516365f278c560e11b8152fd5b9050346104035781600319360112610403578160209360ff926109fb611e27565b903582525f8051602061243283398151915286528282206001600160a01b039091168252855220549151911615158152f35b50503461026e578160031936011261026e575f805160206124128339815191525490516001600160a01b039091168152602090f35b9050346104035760203660031901126104035782829160809460608451610a8881611d0c565b82815282602082015282868201520152358152600a6020522090805190610aae82611d0c565b825492838352600181015460208401908152606060ff600360028501549486880195865201541694019315158452825194855251602085015251908301525115156060820152f35b9190503461040357602036600319011261040357338352600760205260ff818420541615610b2657503560065580f35b516365f278c560e11b8152fd5b9050346104035781600319360112610403578160209360ff92610b54611e27565b90358252600c86528282206001600160a01b039091168252855220549151911615158152f35b50503461026e578160031936011261026e57602090517f7804d923f43a17d325d77e781528e0793b2edd9890ab45fc64efd7b4b427744c8152f35b905034610403578160031936011261040357610bcf611e27565b9082519063f2be2c8560e01b825280359082015260c081602481305afa908115610cf3578491610c53575b506020935051908251848101906bffffffffffffffffffffffff19809460601b16825260148152610c2a81611d71565b519020918351908582019260601b16825260148152610c4881611d71565b519020149051908152f35b905060c0813d8211610ceb575b81610c6d60c09383611d8c565b81010312610ce75760a0835191610c8383611d3b565b610c8c816123bb565b835260208101516020840152610ca38582016123bb565b85840152610cb3606082016123bb565b6060840152610cc4608082016123bb565b608084015201518015158103610ce3576020945060a08201525f610bfa565b8480fd5b8380fd5b3d9150610c60565b50505051903d90823e3d90fd5b833461046f578060031936011261046f57610d196122d1565b5f8051602061241283398151915280546001600160a01b0319811690915581906001600160a01b03167f8be0079c531659141344cd1fd0a4f28419497f9722a3daafe3b4186f6b6457e08280a380f35b8391503461026e576020918260031936011261046f57610d87611e53565b938160808251610d9681611d56565b828152606087820152606084820152826060820152015260018060a01b038095168252600b845280822090805194610dcd86611d56565b868354168652610ddf60018401612003565b908087019182526003610df460028601612003565b9484890195865201549460ff86169060608901976003831015610e7c5750509260a0610e709593610e5193610e64968a5260ff60808c019960081c161515895283519b8c9b828d525116908b0152519189015260c0880190611f44565b9051868203601f19016060880152611f44565b92516080850190611f69565b51151560a08301520390f35b634e487b7160e01b825260219052602490fd5b50503461026e578160031936011261026e5760035490516001600160a01b039091168152602090f35b50503461026e57602036600319011261026e5760209160ff9082906001600160a01b03610ee3611e53565b1681526007855220541690519015158152f35b905034610403578160031936011261040357610f10611e27565b90338452600760205260ff8385205416156109cc57358352600c60209081528284206001600160a01b039092168452528120805460ff1916600117905580f35b83833461026e578060031936011261026e576024359183356001600160401b038085116104035736602386011215610403578486013590811161104f57600581811b95855196602093610fa58583018a611d8c565b8852602484890191830101913683116103ff576024859101915b8383106110375750505050835b86518110156110335760018060a01b038382841b89010151163386526007845260ff87872054161561102357848652600c84528686209086528352858520805460ff1916600117905561101e906123ef565b610fcc565b86516365f278c560e11b81528990fd5b8480f35b819061104284611e69565b8152019101908490610fbf565b634e487b7160e01b835260418652602483fd5b8391503461026e5761107336611e7d565b9390933384526020946007865260ff8386205416156113cd576001600160a01b03908116808652600b875283862084519094916110af82611d56565b8386541682526001916110c3838801612003565b908a81019182526110d660028901612003565b8582015260038098015460ff8116898110156113ba5760809160ff91606085015260081c1615159101525151156113ab578752600b8852818720845181546001600160a01b03191694169390931783558388015180516001600160401b039990838601908b8111611398578061114c8354611fcb565b94601f95868111611347575b5084908d8784116001146112ea57926112df575b50505f19828b1b1c191690851b1790555b60028501938601519081519a8b116112cc578a61119a8654611fcb565b848111611287575b505080928b11600114611222575098809281928a9b899a9b99989994611217575b50501b915f1990861b1c19161790555b0192606082015192831015611204575060ff61ff0060808554930151151560081b1692169061ffff19161717905580f35b634e487b7160e01b855260219052602484fd5b015192508b806111c3565b909991601f1983169a858b52828b20928b905b8d821061127057505083899a9b9c99989910611259575b505050811b0190556111d3565b01515f1983881b60f8161c1916905589808061124c565b808785968294968601518155019501930190611235565b868c5284838d20918482850160051c840194106112c3575b0160051c019085905b8281106112b857508c91506111a2565b8c81550185906112a8565b9250819261129f565b634e487b7160e01b8a526041895260248afd5b015190508d8061116c565b9190889450601f198416868452878420935b88828210611331575050841161131a575b505050811b01905561117d565b01515f19838d1b60f8161c191690558d808061130d565b8385015186558b979095019493840193016112fc565b909150838d52848d208680850160051c82019287861061138f575b859493910160051c9091019088908f5b83821061138157505050611158565b81558594508991018f611372565b92508192611362565b634e487b7160e01b8b5260418a5260248bfd5b8251620427cd60e21b81528790fd5b634e487b7160e01b8c5260218b5260248cfd5b5050516365f278c560e11b8152fd5b83833461026e5760a036600319011261026e57608036602319011261026e57805161140681611d0c565b60243581526020810160443581528282019060643582526084359384151585036114955760608401948552338652600760205260ff818720541615611486576003949596358752600a602052862092518355516001830155516002820155019051151560ff801983541691161790556114806001546123ef565b60015580f35b516365f278c560e11b81528690fd5b8580fd5b9050346104035760e03660031901126104035780359060c0366023190112610ce7578251906114c782611d3b565b6114cf611e27565b8252602082019160443583526114e3611e3d565b8186019081526001600160a01b03936084359185831683036115fc576060840192835260a4359786891689036115f8576080850198895260c4359788151589036115f45760a08601988952338b52600760205260ff828c205416156115e457600160ff88848e858152600960205220015460a01c161515146115d4579087918b5260096020528a209451169160018060a01b031992838654161785555160018501558560028501915116828254161790558460038401925116908254161790550192511682549160ff60a01b9051151560a01b169160018060a81b031916171790556115cf81546123ef565b815580f35b815163614d157f60e11b81528790fd5b81516365f278c560e11b81528790fd5b8a80fd5b8980fd5b8880fd5b8391503461026e5761161136611e7d565b9390933384526020946007865260ff8386205416156113cd576001600160a01b03908116808652600b8752838620845190949161164d82611d56565b838654168252600191611661838801612003565b8a82015261167160028801612003565b8482015260038097015460ff8116888110156118f857606083015260081c60ff161515608090910181905282146118e8578752600b8852818720845181546001600160a01b03191694169390931783558388015180516001600160401b039990838601908b811161139857806116e78354611fcb565b94601f95868111611897575b5084908d87841160011461183a579261182f575b50505f19828b1b1c191690851b1790555b60028501938601519081519a8b116112cc578a6117358654611fcb565b8481116117ea575b505080928b1160011461179d575098809281928a9b899a9b999899946112175750501b915f1990861b1c19161790550192606082015192831015611204575060ff61ff0060808554930151151560081b1692169061ffff19161717905580f35b909991601f1983169a858b52828b20928b905b8d82106117d357505083899a9b9c9998991061125957505050811b0190556111d3565b8087859682949686015181550195019301906117b0565b868c5284838d20918482850160051c84019410611826575b0160051c019085905b82811061181b57508c915061173d565b8c815501859061180b565b92508192611802565b015190508d80611707565b9190889450601f198416868452878420935b88828210611881575050841161186a575b505050811b019055611718565b01515f19838d1b60f8161c191690558d808061185d565b8385015186558b9790950194938401930161184c565b909150838d52848d208680850160051c8201928786106118df575b859493910160051c9091019088908f5b8382106118d1575050506116f3565b81558594508991018f6118c2565b925081926118b2565b825163789190dd60e11b81528790fd5b634e487b7160e01b8b5260218a5260248bfd5b91905034610403576020928360031936011261046f57819083358152600a8552818120825161193981611d0c565b81548152606060ff6003600185015494858b8601526002810154888601520154161515910152815260098552209160a060ff83519261197784611d3b565b600180841b03908187541685526001870154888601528160028801541696878787015282600382015416606087015201549081166080850152821c16151591015251908152f35b91905034610403576020366003190112610403578060ff9160c0948435815260096020522060018060a01b03908181541694600182015493836002840154169184600385015416930154948151978852602088015286015260608501528116608084015260a01c16151560a0820152f35b50503461026e578160031936011261026e5760025490516001600160a01b039091168152602090f35b83833461026e578060031936011261026e57611a72611e27565b90336001600160a01b03831603611a8f5750610642919235612251565b5163334bd91960e11b81528390fd5b919050346104035780600319360112610403576106429135611ac3600161061f611e27565b6121c7565b90503461040357602036600319011261040357816020936001923581525f8051602061243283398151915285522001549051908152f35b919050346104035760203660031901126104035781356001600160401b038111610ce757611b309036908401611dad565b90611b396120a4565b80518251906020840191611b4e818385611e06565b60089082019081528190036020019020546001600160a01b03169384156107f0575090611b8b6020611bbc94938351809381928751928391611e06565b60089082019081520301902080546001600160a01b031916905583855260076020528420805460ff191690556123cf565b7f7ad6d7c73213a93d033801d72c729d90fb72104796b75ad799858b26f2b9872f8380a380f35b50503461026e578160031936011261026e576020906001549051908152f35b82843461046f57602036600319011261046f578235906001600160401b03821161046f5750602092611c3691369101611dad565b82611c4983519283815193849201611e06565b6008908201908152819003830190205490516001600160a01b039091168152f35b905034610403576020366003190112610403576080928291358152600a602052209081549160018101549160ff6003600284015493015416928151948552602085015283015215156060820152f35b849134610403576020366003190112610403573563ffffffff60e01b81168091036104035760209250637965db0b60e01b8114908115611cfb575b5015158152f35b6301ffc9a760e01b14905083611cf4565b608081019081106001600160401b03821117611d2757604052565b634e487b7160e01b5f52604160045260245ffd5b60c081019081106001600160401b03821117611d2757604052565b60a081019081106001600160401b03821117611d2757604052565b604081019081106001600160401b03821117611d2757604052565b90601f801991011681019081106001600160401b03821117611d2757604052565b81601f82011215611e02578035906001600160401b038211611d275760405192611de1601f8401601f191660200185611d8c565b82845260208383010111611e0257815f926020809301838601378301015290565b5f80fd5b5f5b838110611e175750505f910152565b8181015183820152602001611e08565b602435906001600160a01b0382168203611e0257565b606435906001600160a01b0382168203611e0257565b600435906001600160a01b0382168203611e0257565b35906001600160a01b0382168203611e0257565b6003199190604083820112611e02576004356001600160a01b0381168103611e025792602435906001600160401b0390818311611e025760a0908385030112611e025760405192611ecd84611d56565b611ed983600401611e69565b84526024830135828111611e0257816004611ef692860101611dad565b60208501526044830135918211611e02576004611f1592840101611dad565b60408301526064810135906003821015611e0257608491606084015201358015158103611e0257608082015290565b90602091611f5d81518092818552858086019101611e06565b601f01601f1916010190565b906003821015611f765752565b634e487b7160e01b5f52602160045260245ffd5b6040600319820112611e0257600435906001600160401b038211611e0257611fb491600401611dad565b906024356001600160a01b0381168103611e025790565b90600182811c92168015611ff9575b6020831014611fe557565b634e487b7160e01b5f52602260045260245ffd5b91607f1691611fda565b9060405191825f82549261201684611fcb565b9081845260019485811690815f146120815750600114612041575b505061203f92500383611d8c565b565b909391505f52602090815f20935f915b81831061206957505061203f93508201015f80612031565b85548884018501529485019487945091830191612051565b91505061203f94506020925060ff191682840152151560051b8201015f80612031565b335f9081527fb7db2dd08fcb62d0c9e08c51941cae53c267786a0b75803fb7960902fc8ef97d602052604081205460ff16156120dd5750565b6044906040519063e2517d3f60e01b82523360048301526024820152fd5b805f525f8051602061243283398151915260205260405f20335f5260205260ff60405f205416156120dd5750565b6001600160a01b03165f8181527fb7db2dd08fcb62d0c9e08c51941cae53c267786a0b75803fb7960902fc8ef97d60205260408120549091905f805160206124328339815191529060ff166121c2578280526020526040822081835260205260408220600160ff1982541617905533917f2f8788117e7eff1d82e926ec794901d17c78024a50270940304540a733656f0d8180a4600190565b505090565b905f918083525f8051602061243283398151915280602052604084209260018060a01b03169283855260205260ff604085205416155f1461224b578184526020526040832082845260205260408320600160ff198254161790557f2f8788117e7eff1d82e926ec794901d17c78024a50270940304540a733656f0d339380a4600190565b50505090565b905f918083525f8051602061243283398151915280602052604084209260018060a01b03169283855260205260ff6040852054165f1461224b57818452602052604083208284526020526040832060ff1981541690557ff6391f5c32d9c69d2a47ea670b442974b53935d1edc7fd64eb21e047a839171b339380a4600190565b5f80516020612412833981519152546001600160a01b031633036122f157565b60405163118cdaa760e01b8152336004820152602490fd5b6001600160a01b03908116908115612362575f8051602061241283398151915280546001600160a01b031981168417909155167f8be0079c531659141344cd1fd0a4f28419497f9722a3daafe3b4186f6b6457e05f80a3565b604051631e4fbdf760e01b81525f6004820152602490fd5b60ff7ff0c57e16840df040f15088dc2f81fe391c3923bec73e23a9662efc9c229c6a005460401c16156123a957565b604051631afcd79f60e31b8152600490fd5b51906001600160a01b0382168203611e0257565b6123e790602060405192828480945193849201611e06565b810103902090565b5f1981146123fd5760010190565b634e487b7160e01b5f52601160045260245ffdfe9016d09d72d40fdae2fd8ceac6b6234c7706214fd39c1cd1e609a0528c19930002dd7bc7dec4dceedda775e58dd541e08a116c6c53815c0bd028192f7b626800a2646970667358221220da81574c6c50ecbcd36b55d247f3a6ead3799b83ea45e3929fe869570a0b840564736f6c63430008140033",
  "linkReferences": {},
  "deployedLinkReferences": {}
}