{
  "_format": "hh-sol-artifact-1",
  "contractName": "TpBadgeModelController",
  "sourceName": "src/contracts/badgeModelControllers/TpBadgeModelController.sol",
  "abi": [
    {
      "inputs": [],
      "stateMutability": "nonpayable",
      "type": "constructor"
    },
    {
      "inputs": [],
      "name": "AccessControlBadConfirmation",
      "type": "error"
    },
    {
      "inputs": [
        {
          "internalType": "address",
          "name": "account",
          "type": "address"
        },
        {
          "internalType": "bytes32",
          "name": "neededRole",
          "type": "bytes32"
        }
      ],
      "name": "AccessControlUnauthorizedAccount",
      "type": "error"
    },
    {
      "inputs": [
        {
          "internalType": "address",
          "name": "target",
          "type": "address"
        }
      ],
      "name": "AddressEmptyCode",
      "type": "error"
    },
    {
      "inputs": [
        {
          "internalType": "address",
          "name": "implementation",
          "type": "address"
        }
      ],
      "name": "ERC1967InvalidImplementation",
      "type": "error"
    },
    {
      "inputs": [],
      "name": "ERC1967NonPayable",
      "type": "error"
    },
    {
      "inputs": [],
      "name": "FailedInnerCall",
      "type": "error"
    },
    {
      "inputs": [],
      "name": "InvalidInitialization",
      "type": "error"
    },
    {
      "inputs": [],
      "name": "NotInitializing",
      "type": "error"
    },
    {
      "inputs": [],
      "name": "ThirdPartyModelController__badge__tcrKlerosBadgeNotFound",
      "type": "error"
    },
    {
      "inputs": [],
      "name": "ThirdPartyModelController__claimBadge_invalidBadgeOrAlreadyClaimed",
      "type": "error"
    },
    {
      "inputs": [],
      "name": "ThirdPartyModelController__claimBadge_invalidRecipient",
      "type": "error"
    },
    {
      "inputs": [],
      "name": "ThirdPartyModelController__claimBadge_userNotAllowed",
      "type": "error"
    },
    {
      "inputs": [],
      "name": "ThirdPartyModelController__createBadgeModel_TCRListAddressZero",
      "type": "error"
    },
    {
      "inputs": [],
      "name": "ThirdPartyModelController__createBadgeModel_badgeModelAlreadyCreated",
      "type": "error"
    },
    {
      "inputs": [],
      "name": "ThirdPartyModelController__method_not_supported",
      "type": "error"
    },
    {
      "inputs": [],
      "name": "ThirdPartyModelController__mintBadge_wrongValue",
      "type": "error"
    },
    {
      "inputs": [],
      "name": "ThirdPartyModelController__onlyTheBadge_senderNotTheBadge",
      "type": "error"
    },
    {
      "inputs": [],
      "name": "ThirdPartyModelController__onlyTheBadge_senderNotTheBadgeModels",
      "type": "error"
    },
    {
      "inputs": [],
      "name": "ThirdPartyModelController__onlyTheBadge_senderNotTheBadgeUsers",
      "type": "error"
    },
    {
      "inputs": [],
      "name": "ThirdPartyModelController__store_OperationNotPermitted",
      "type": "error"
    },
    {
      "inputs": [],
      "name": "ThirdPartyModelController__user__userNotFound",
      "type": "error"
    },
    {
      "inputs": [],
      "name": "ThirdPartyModelController__user__userVerificationAlreadyStarted",
      "type": "error"
    },
    {
      "inputs": [],
      "name": "ThirdPartyModelController__user__userVerificationNotStarted",
      "type": "error"
    },
    {
      "inputs": [],
      "name": "ThirdPartyModelController__user__userVerificationRejected",
      "type": "error"
    },
    {
      "inputs": [],
      "name": "UUPSUnauthorizedCallContext",
      "type": "error"
    },
    {
      "inputs": [
        {
          "internalType": "bytes32",
          "name": "slot",
          "type": "bytes32"
        }
      ],
      "name": "UUPSUnsupportedProxiableUUID",
      "type": "error"
    },
    {
      "anonymous": false,
      "inputs": [
        {
          "indexed": true,
          "internalType": "address",
          "name": "admin",
          "type": "address"
        }
      ],
      "name": "Initialize",
      "type": "event"
    },
    {
      "anonymous": false,
      "inputs": [
        {
          "indexed": false,
          "internalType": "uint64",
          "name": "version",
          "type": "uint64"
        }
      ],
      "name": "Initialized",
      "type": "event"
    },
    {
      "anonymous": false,
      "inputs": [
        {
          "indexed": true,
          "internalType": "uint256",
          "name": "badgeModelId",
          "type": "uint256"
        },
        {
          "indexed": true,
          "internalType": "address",
          "name": "tcrAddress",
          "type": "address"
        }
      ],
      "name": "NewThirdPartyBadgeModel",
      "type": "event"
    },
    {
      "anonymous": false,
      "inputs": [],
      "name": "ProtocolSettingsUpdated",
      "type": "event"
    },
    {
      "anonymous": false,
      "inputs": [
        {
          "indexed": true,
          "internalType": "bytes32",
          "name": "role",
          "type": "bytes32"
        },
        {
          "indexed": true,
          "internalType": "bytes32",
          "name": "previousAdminRole",
          "type": "bytes32"
        },
        {
          "indexed": true,
          "internalType": "bytes32",
          "name": "newAdminRole",
          "type": "bytes32"
        }
      ],
      "name": "RoleAdminChanged",
      "type": "event"
    },
    {
      "anonymous": false,
      "inputs": [
        {
          "indexed": true,
          "internalType": "bytes32",
          "name": "role",
          "type": "bytes32"
        },
        {
          "indexed": true,
          "internalType": "address",
          "name": "account",
          "type": "address"
        },
        {
          "indexed": true,
          "internalType": "address",
          "name": "sender",
          "type": "address"
        }
      ],
      "name": "RoleGranted",
      "type": "event"
    },
    {
      "anonymous": false,
      "inputs": [
        {
          "indexed": true,
          "internalType": "bytes32",
          "name": "role",
          "type": "bytes32"
        },
        {
          "indexed": true,
          "internalType": "address",
          "name": "account",
          "type": "address"
        },
        {
          "indexed": true,
          "internalType": "address",
          "name": "sender",
          "type": "address"
        }
      ],
      "name": "RoleRevoked",
      "type": "event"
    },
    {
      "anonymous": false,
      "inputs": [
        {
          "indexed": true,
          "internalType": "address",
          "name": "originAddress",
          "type": "address"
        },
        {
          "indexed": true,
          "internalType": "address",
          "name": "recipientAddress",
          "type": "address"
        },
        {
          "indexed": true,
          "internalType": "uint256",
          "name": "badgeId",
          "type": "uint256"
        }
      ],
      "name": "ThirdPartyBadgeClaimed",
      "type": "event"
    },
    {
      "anonymous": false,
      "inputs": [
        {
          "indexed": true,
          "internalType": "uint256",
          "name": "badgeId",
          "type": "uint256"
        },
        {
          "indexed": true,
          "internalType": "bytes32",
          "name": "tcrItemId",
          "type": "bytes32"
        }
      ],
      "name": "ThirdPartyBadgeMinted",
      "type": "event"
    },
    {
      "anonymous": false,
      "inputs": [
        {
          "indexed": true,
          "internalType": "address",
          "name": "implementation",
          "type": "address"
        }
      ],
      "name": "Upgraded",
      "type": "event"
    },
    {
      "inputs": [],
      "name": "CLAIMER_ROLE",
      "outputs": [
        {
          "internalType": "bytes32",
          "name": "",
          "type": "bytes32"
        }
      ],
      "stateMutability": "view",
      "type": "function"
    },
    {
      "inputs": [],
      "name": "DEFAULT_ADMIN_ROLE",
      "outputs": [
        {
          "internalType": "bytes32",
          "name": "",
          "type": "bytes32"
        }
      ],
      "stateMutability": "view",
      "type": "function"
    },
    {
      "inputs": [],
      "name": "PAUSER_ROLE",
      "outputs": [
        {
          "internalType": "bytes32",
          "name": "",
          "type": "bytes32"
        }
      ],
      "stateMutability": "view",
      "type": "function"
    },
    {
      "inputs": [],
      "name": "UPGRADER_ROLE",
      "outputs": [
        {
          "internalType": "bytes32",
          "name": "",
          "type": "bytes32"
        }
      ],
      "stateMutability": "view",
      "type": "function"
    },
    {
      "inputs": [],
      "name": "UPGRADE_INTERFACE_VERSION",
      "outputs": [
        {
          "internalType": "string",
          "name": "",
          "type": "string"
        }
      ],
      "stateMutability": "view",
      "type": "function"
    },
    {
      "inputs": [],
      "name": "URI_SETTER_ROLE",
      "outputs": [
        {
          "internalType": "bytes32",
          "name": "",
          "type": "bytes32"
        }
      ],
      "stateMutability": "view",
      "type": "function"
    },
    {
      "inputs": [],
      "name": "USER_MANAGER_ROLE",
      "outputs": [
        {
          "internalType": "bytes32",
          "name": "",
          "type": "bytes32"
        }
      ],
      "stateMutability": "view",
      "type": "function"
    },
    {
      "inputs": [],
      "name": "VERIFIER_ROLE",
      "outputs": [
        {
          "internalType": "bytes32",
          "name": "",
          "type": "bytes32"
        }
      ],
      "stateMutability": "view",
      "type": "function"
    },
    {
      "inputs": [
        {
          "internalType": "uint256",
          "name": "",
          "type": "uint256"
        },
        {
          "internalType": "bytes",
          "name": "",
          "type": "bytes"
        },
        {
          "internalType": "address",
          "name": "",
          "type": "address"
        }
      ],
      "name": "challenge",
      "outputs": [],
      "stateMutability": "payable",
      "type": "function"
    },
    {
      "inputs": [
        {
          "internalType": "uint256",
          "name": "badgeId",
          "type": "uint256"
        },
        {
          "internalType": "bytes",
          "name": "data",
          "type": "bytes"
        },
        {
          "internalType": "address",
          "name": "caller",
          "type": "address"
        }
      ],
      "name": "claim",
      "outputs": [
        {
          "internalType": "address",
          "name": "",
          "type": "address"
        }
      ],
      "stateMutability": "nonpayable",
      "type": "function"
    },
    {
      "inputs": [
        {
          "internalType": "address",
          "name": "callee",
          "type": "address"
        },
        {
          "internalType": "uint256",
          "name": "badgeModelId",
          "type": "uint256"
        },
        {
          "internalType": "bytes",
          "name": "data",
          "type": "bytes"
        }
      ],
      "name": "createBadgeModel",
      "outputs": [],
      "stateMutability": "nonpayable",
      "type": "function"
    },
    {
      "inputs": [
        {
          "internalType": "address",
          "name": "_user",
          "type": "address"
        },
        {
          "internalType": "bool",
          "name": "verify",
          "type": "bool"
        }
      ],
      "name": "executeUserVerification",
      "outputs": [],
      "stateMutability": "nonpayable",
      "type": "function"
    },
    {
      "inputs": [
        {
          "internalType": "uint256",
          "name": "",
          "type": "uint256"
        }
      ],
      "name": "getChallengeDepositValue",
      "outputs": [
        {
          "internalType": "uint256",
          "name": "",
          "type": "uint256"
        }
      ],
      "stateMutability": "pure",
      "type": "function"
    },
    {
      "inputs": [
        {
          "internalType": "uint256",
          "name": "",
          "type": "uint256"
        }
      ],
      "name": "getRemovalDepositValue",
      "outputs": [
        {
          "internalType": "uint256",
          "name": "",
          "type": "uint256"
        }
      ],
      "stateMutability": "pure",
      "type": "function"
    },
    {
      "inputs": [
        {
          "internalType": "bytes32",
          "name": "role",
          "type": "bytes32"
        }
      ],
      "name": "getRoleAdmin",
      "outputs": [
        {
          "internalType": "bytes32",
          "name": "",
          "type": "bytes32"
        }
      ],
      "stateMutability": "view",
      "type": "function"
    },
    {
      "inputs": [],
      "name": "getVerifyUserProtocolFee",
      "outputs": [
        {
          "internalType": "uint256",
          "name": "",
          "type": "uint256"
        }
      ],
      "stateMutability": "view",
      "type": "function"
    },
    {
      "inputs": [
        {
          "internalType": "bytes32",
          "name": "role",
          "type": "bytes32"
        },
        {
          "internalType": "address",
          "name": "account",
          "type": "address"
        }
      ],
      "name": "grantRole",
      "outputs": [],
      "stateMutability": "nonpayable",
      "type": "function"
    },
    {
      "inputs": [
        {
          "internalType": "bytes32",
          "name": "role",
          "type": "bytes32"
        },
        {
          "internalType": "address",
          "name": "account",
          "type": "address"
        }
      ],
      "name": "hasRole",
      "outputs": [
        {
          "internalType": "bool",
          "name": "",
          "type": "bool"
        }
      ],
      "stateMutability": "view",
      "type": "function"
    },
    {
      "inputs": [
        {
          "internalType": "address",
          "name": "admin",
          "type": "address"
        },
        {
          "internalType": "address",
          "name": "_theBadge",
          "type": "address"
        },
        {
          "internalType": "address",
          "name": "_theBadgeModels",
          "type": "address"
        },
        {
          "internalType": "address",
          "name": "_theBadgeUsers",
          "type": "address"
        },
        {
          "internalType": "address",
          "name": "_tpBadgeModelStore",
          "type": "address"
        }
      ],
      "name": "initialize",
      "outputs": [],
      "stateMutability": "nonpayable",
      "type": "function"
    },
    {
      "inputs": [
        {
          "internalType": "uint256",
          "name": "badgeId",
          "type": "uint256"
        }
      ],
      "name": "isAssetActive",
      "outputs": [
        {
          "internalType": "bool",
          "name": "",
          "type": "bool"
        }
      ],
      "stateMutability": "view",
      "type": "function"
    },
    {
      "inputs": [
        {
          "internalType": "uint256",
          "name": "badgeId",
          "type": "uint256"
        }
      ],
      "name": "isClaimable",
      "outputs": [
        {
          "internalType": "bool",
          "name": "",
          "type": "bool"
        }
      ],
      "stateMutability": "view",
      "type": "function"
    },
    {
      "inputs": [
        {
          "internalType": "uint256",
          "name": "",
          "type": "uint256"
        },
        {
          "internalType": "address",
          "name": "",
          "type": "address"
        }
      ],
      "name": "isMintableToController",
      "outputs": [
        {
          "internalType": "bool",
          "name": "",
          "type": "bool"
        }
      ],
      "stateMutability": "pure",
      "type": "function"
    },
    {
      "inputs": [
        {
          "internalType": "address",
          "name": "_user",
          "type": "address"
        }
      ],
      "name": "isUserVerified",
      "outputs": [
        {
          "internalType": "bool",
          "name": "",
          "type": "bool"
        }
      ],
      "stateMutability": "view",
      "type": "function"
    },
    {
      "inputs": [
        {
          "internalType": "address",
          "name": "callee",
          "type": "address"
        },
        {
          "internalType": "uint256",
          "name": "badgeModelId",
          "type": "uint256"
        },
        {
          "internalType": "uint256",
          "name": "badgeId",
          "type": "uint256"
        },
        {
          "internalType": "bytes",
          "name": "data",
          "type": "bytes"
        },
        {
          "internalType": "address",
          "name": "",
          "type": "address"
        }
      ],
      "name": "mint",
      "outputs": [
        {
          "internalType": "uint256",
          "name": "",
          "type": "uint256"
        }
      ],
      "stateMutability": "payable",
      "type": "function"
    },
    {
      "inputs": [
        {
          "internalType": "uint256",
          "name": "",
          "type": "uint256"
        }
      ],
      "name": "mintValue",
      "outputs": [
        {
          "internalType": "uint256",
          "name": "",
          "type": "uint256"
        }
      ],
      "stateMutability": "pure",
      "type": "function"
    },
    {
      "inputs": [
        {
          "internalType": "address",
          "name": "",
          "type": "address"
        },
        {
          "internalType": "address",
          "name": "",
          "type": "address"
        },
        {
          "internalType": "uint256[]",
          "name": "",
          "type": "uint256[]"
        },
        {
          "internalType": "uint256[]",
          "name": "",
          "type": "uint256[]"
        },
        {
          "internalType": "bytes",
          "name": "",
          "type": "bytes"
        }
      ],
      "name": "onERC1155BatchReceived",
      "outputs": [
        {
          "internalType": "bytes4",
          "name": "",
          "type": "bytes4"
        }
      ],
      "stateMutability": "nonpayable",
      "type": "function"
    },
    {
      "inputs": [
        {
          "internalType": "address",
          "name": "",
          "type": "address"
        },
        {
          "internalType": "address",
          "name": "",
          "type": "address"
        },
        {
          "internalType": "uint256",
          "name": "",
          "type": "uint256"
        },
        {
          "internalType": "uint256",
          "name": "",
          "type": "uint256"
        },
        {
          "internalType": "bytes",
          "name": "",
          "type": "bytes"
        }
      ],
      "name": "onERC1155Received",
      "outputs": [
        {
          "internalType": "bytes4",
          "name": "",
          "type": "bytes4"
        }
      ],
      "stateMutability": "nonpayable",
      "type": "function"
    },
    {
      "inputs": [],
      "name": "proxiableUUID",
      "outputs": [
        {
          "internalType": "bytes32",
          "name": "",
          "type": "bytes32"
        }
      ],
      "stateMutability": "view",
      "type": "function"
    },
    {
      "inputs": [
        {
          "internalType": "uint256",
          "name": "",
          "type": "uint256"
        },
        {
          "internalType": "bytes",
          "name": "",
          "type": "bytes"
        },
        {
          "internalType": "address",
          "name": "",
          "type": "address"
        }
      ],
      "name": "removeItem",
      "outputs": [],
      "stateMutability": "payable",
      "type": "function"
    },
    {
      "inputs": [
        {
          "internalType": "bytes32",
          "name": "role",
          "type": "bytes32"
        },
        {
          "internalType": "address",
          "name": "callerConfirmation",
          "type": "address"
        }
      ],
      "name": "renounceRole",
      "outputs": [],
      "stateMutability": "nonpayable",
      "type": "function"
    },
    {
      "inputs": [
        {
          "internalType": "bytes32",
          "name": "role",
          "type": "bytes32"
        },
        {
          "internalType": "address",
          "name": "account",
          "type": "address"
        }
      ],
      "name": "revokeRole",
      "outputs": [],
      "stateMutability": "nonpayable",
      "type": "function"
    },
    {
      "inputs": [
        {
          "internalType": "uint256",
          "name": "",
          "type": "uint256"
        },
        {
          "internalType": "bytes",
          "name": "",
          "type": "bytes"
        },
        {
          "internalType": "address",
          "name": "",
          "type": "address"
        }
      ],
      "name": "submitEvidence",
      "outputs": [],
      "stateMutability": "pure",
      "type": "function"
    },
    {
      "inputs": [
        {
          "internalType": "address",
          "name": "_user",
          "type": "address"
        },
        {
          "internalType": "string",
          "name": "userMetadata",
          "type": "string"
        },
        {
          "internalType": "string",
          "name": "evidenceUri",
          "type": "string"
        }
      ],
      "name": "submitUserVerification",
      "outputs": [],
      "stateMutability": "nonpayable",
      "type": "function"
    },
    {
      "inputs": [
        {
          "internalType": "bytes4",
          "name": "interfaceId",
          "type": "bytes4"
        }
      ],
      "name": "supportsInterface",
      "outputs": [
        {
          "internalType": "bool",
          "name": "",
          "type": "bool"
        }
      ],
      "stateMutability": "view",
      "type": "function"
    },
    {
      "inputs": [],
      "name": "theBadge",
      "outputs": [
        {
          "internalType": "contract TheBadge",
          "name": "",
          "type": "address"
        }
      ],
      "stateMutability": "view",
      "type": "function"
    },
    {
      "inputs": [],
      "name": "theBadgeModels",
      "outputs": [
        {
          "internalType": "contract TheBadgeModels",
          "name": "",
          "type": "address"
        }
      ],
      "stateMutability": "view",
      "type": "function"
    },
    {
      "inputs": [],
      "name": "theBadgeUsers",
      "outputs": [
        {
          "internalType": "contract TheBadgeUsers",
          "name": "",
          "type": "address"
        }
      ],
      "stateMutability": "view",
      "type": "function"
    },
    {
      "inputs": [],
      "name": "tpBadgeModelControllerStore",
      "outputs": [
        {
          "internalType": "contract TpBadgeModelControllerStore",
          "name": "",
          "type": "address"
        }
      ],
      "stateMutability": "view",
      "type": "function"
    },
    {
      "inputs": [
        {
          "internalType": "uint256",
          "name": "_verifyUserProtocolFee",
          "type": "uint256"
        }
      ],
      "name": "updateVerifyUserProtocolFee",
      "outputs": [],
      "stateMutability": "nonpayable",
      "type": "function"
    },
    {
      "inputs": [
        {
          "internalType": "address",
          "name": "newImplementation",
          "type": "address"
        },
        {
          "internalType": "bytes",
          "name": "data",
          "type": "bytes"
        }
      ],
      "name": "upgradeToAndCall",
      "outputs": [],
      "stateMutability": "payable",
      "type": "function"
    },
    {
      "stateMutability": "payable",
      "type": "receive"
    }
  ],
  "bytecode": "0x60a06040523060805234801562000014575f80fd5b506200001f62000025565b620000d9565b7ff0c57e16840df040f15088dc2f81fe391c3923bec73e23a9662efc9c229c6a00805468010000000000000000900460ff1615620000765760405163f92ee8a960e01b815260040160405180910390fd5b80546001600160401b0390811614620000d65780546001600160401b0319166001600160401b0390811782556040519081527fc7f505b2f371ae2175ee4913f4499e1f2633a7b5936321eed1cdaeb6115181d29060200160405180910390a15b50565b60805161304e620001005f395f8181611f4101528181611f6a01526120ba015261304e5ff3fe6080604052600436106101fa575f3560e01c806391d148541161010b578063d547741f11610099578063d547741f146105f7578063d7deba15146103dc578063d8bee35614610616578063e63ab1e914610630578063e7705db614610663578063f23a6e6114610696578063f4bcaf42146106c1578063f6563d5f146106e0578063f72c0d8b146106f3578063fc5f18d314610713575f80fd5b806391d14854146104765780639c6b9f8a14610495578063a217fddf146104b4578063a41e35c3146104c7578063ace417e0146104fa578063ad3cb1cc14610519578063ae1c29e814610556578063b5a867fa14610575578063bc197c8114610594578063caa39ec5146105d8575f80fd5b806352d1902d1161018857806352d1902d1461035757806360a72f161461036b57806361cf6b4814610396578063632f7c83146103a9578063681294b4146103965780637657dbdd146103c85780637eb7f176146103dc5780637f3457101461040557806389610a09146104385780638ac516b814610457575f80fd5b806301ffc9a71461020557806304a3c5d714610239578063130bd93f1461025a5780631459457a1461027957806322e900c214610298578063248a9ca3146102b75780632f2ff15d146102e457806336568abe14610303578063401fef94146103225780634f1ef28614610344575f80fd5b3661020157005b5f80fd5b348015610210575f80fd5b5061022461021f366004612316565b610746565b60405190151581526020015b60405180910390f35b348015610244575f80fd5b50610258610253366004612395565b610756565b005b348015610265575f80fd5b506102586102743660046123f9565b610df7565b348015610284575f80fd5b50610258610293366004612430565b611004565b3480156102a3575f80fd5b506102246102b236600461249d565b6111ca565b3480156102c2575f80fd5b506102d66102d136600461249d565b6112e7565b604051908152602001610230565b3480156102ef575f80fd5b506102586102fe3660046124b4565b611305565b34801561030e575f80fd5b5061025861031d3660046124b4565b611327565b34801561032d575f80fd5b5061022461033c3660046124b4565b600192915050565b6102586103523660046125dd565b61135f565b348015610362575f80fd5b506102d661137e565b348015610376575f80fd5b505f54610389906001600160a01b031681565b6040516102309190612629565b6102586103a436600461263d565b611399565b3480156103b4575f80fd5b506102d66103c336600461249d565b505f90565b3480156103d3575f80fd5b506102d66113b2565b3480156103e7575f80fd5b506102d66103f636600461249d565b5069021e19e0c9bab240000090565b348015610410575f80fd5b506102d67f7804d923f43a17d325d77e781528e0793b2edd9890ab45fc64efd7b4b427744c81565b348015610443575f80fd5b5061022461045236600461249d565b61142b565b348015610462575f80fd5b5061025861047136600461249d565b6114b7565b348015610481575f80fd5b506102246104903660046124b4565b611545565b3480156104a0575f80fd5b506103896104af36600461263d565b611579565b3480156104bf575f80fd5b506102d65f81565b3480156104d2575f80fd5b506102d67fcbaaf41b181bb6e269c490e876a7c97711b57e21dd8e5528423cf57579726b3581565b348015610505575f80fd5b50610224610514366004612697565b611784565b348015610524575f80fd5b50610549604051806040016040528060058152602001640352e302e360dc1b81525081565b60405161023091906126ff565b348015610561575f80fd5b50600354610389906001600160a01b031681565b348015610580575f80fd5b5061025861058f366004612711565b611833565b34801561059f575f80fd5b506105bf6105ae366004612806565b63bc197c8160e01b95945050505050565b6040516001600160e01b03199091168152602001610230565b3480156105e3575f80fd5b50600154610389906001600160a01b031681565b348015610602575f80fd5b506102586106113660046124b4565b611975565b348015610621575f80fd5b506102586103a436600461263d565b34801561063b575f80fd5b506102d67f65d7a28e3265b37a6474929f336521b332c1681b933f6cb9f3376673440d862a81565b34801561066e575f80fd5b506102d67f0ce23c3e399818cfee81a7ab0880f714e53d7672b08df0fa62f2843416e1ea0981565b3480156106a1575f80fd5b506105bf6106b03660046128ac565b63f23a6e6160e01b95945050505050565b3480156106cc575f80fd5b50600254610389906001600160a01b031681565b6102d66106ee36600461290f565b611991565b3480156106fe575f80fd5b506102d65f80516020612fd983398151915281565b34801561071e575f80fd5b506102d67f11a8cb5a02bd6c42679835e867ef2118ba78f088f8300511420c6603c21d9c7881565b5f61075082611d39565b92915050565b6002546001600160a01b031633146107815760405163b84b622b60e01b815260040160405180910390fd5b5f8054604051636f77926b60e01b81528692916001600160a01b031690636f77926b906107b2908590600401612629565b5f60405180830381865afa1580156107cc573d5f803e3d5ffd5b505050506040513d5f823e601f3d908101601f191682016040526107f391908101906129df565b608081015190915015155f0361081b57604051620427cd60e21b815260040160405180910390fd5b60028160600151600281111561083357610833612aa6565b0361085157604051635dcf965f60e11b815260040160405180910390fd5b5f805460405163f2be2c8560e01b8152600481018890528792899288928892916001600160a01b03169063f2be2c859060240160a060405180830381865afa15801561089f573d5f803e3d5ffd5b505050506040513d601f19601f820116820180604052508101906108c39190612aba565b60408101519091506001600160a01b0316156108f25760405163614d157f60e11b815260040160405180910390fd5b5f6108ff83850185612b29565b90505f805f9054906101000a90046001600160a01b03166001600160a01b0316639f780b1d6040518163ffffffff1660e01b8152600401602060405180830381865afa158015610951573d5f803e3d5ffd5b505050506040513d601f19601f820116820180604052508101906109759190612bef565b5f5460408051636cc6cde160e01b8152905192935069021e19e0c9bab240000092606492309283926001600160a01b038089169363d8dcbd2793911691636cc6cde1916004808201926020929091908290030181865afa1580156109db573d5f803e3d5ffd5b505050506040513d601f19601f820116820180604052508101906109ff9190612bef565b604080515f60208201520160408051601f1981840301815282825260016020840152910160408051601f1981840301815290829052610a419291602001612c0a565b60408051601f198184030181528282018252601f83527f697066733a2f2f726567697374726174696f6e4d65746145766964656e63650060208481019190915282518084018452601b81527a697066733a2f2f636c656172696e674d65746145766964656e636560281b8183015283516080810185528c81528083018d90528085018d905260608082018e9052855190810186528c81529283018c90528285018c905293516001600160e01b031960e089901b168152610b11969593945f94938b92603c91908e90600401612c5a565b5f604051808303815f87803b158015610b28575f80fd5b505af1158015610b3a573d5f803e3d5ffd5b505050505f6001866001600160a01b03166306661abd6040518163ffffffff1660e01b8152600401602060405180830381865afa158015610b7d573d5f803e3d5ffd5b505050506040513d601f19601f82011682018060405250810190610ba19190612d1b565b610bab9190612d32565b60405163a2f7b3a560e01b8152600481018290529091505f906001600160a01b0388169063a2f7b3a5906024016020604051808303815f875af1158015610bf4573d5f803e3d5ffd5b505050506040513d601f19601f82011682018060405250810190610c189190612bef565b90506001600160a01b038116610c415760405163b76d9a5f60e01b815260040160405180910390fd5b5f6040518060a001604052808e6001600160a01b031681526020018f8152602001836001600160a01b03168152602001856001600160a01b03168152602001866001600160a01b031681525090505f8054906101000a90046001600160a01b03166001600160a01b03166384e5ea6c826040518263ffffffff1660e01b8152600401610d0d919081516001600160a01b03908116825260208084015190830152604080840151821690830152606080840151821690830152608092830151169181019190915260a00190565b5f604051808303815f87803b158015610d24575f80fd5b505af1158015610d36573d5f803e3d5ffd5b505050505f8054906101000a90046001600160a01b03166001600160a01b0316635a36f22a8f8b5f01516040518363ffffffff1660e01b8152600401610d7d929190612d51565b5f604051808303815f87803b158015610d94575f80fd5b505af1158015610da6573d5f803e3d5ffd5b50505050816001600160a01b03168e7fc465f0869e4b9761b8e3132a1295ad33ca24e5757eed5398a80ffe94f65d05de60405160405180910390a35050505050505050505050505050505050505050565b6003546001600160a01b03163314610e225760405163570afef560e11b815260040160405180910390fd5b5f8054604051636f77926b60e01b81528492916001600160a01b031690636f77926b90610e53908590600401612629565b5f60405180830381865afa158015610e6d573d5f803e3d5ffd5b505050506040513d5f823e601f3d908101601f19168201604052610e9491908101906129df565b608081015190915015155f03610ebc57604051620427cd60e21b815260040160405180910390fd5b5f81606001516002811115610ed357610ed3612aa6565b14610ef157604051632ba8105360e01b815260040160405180910390fd5b5f8054604051636f77926b60e01b81526001600160a01b0390911690636f77926b90610f21908890600401612629565b5f60405180830381865afa158015610f3b573d5f803e3d5ffd5b505050506040513d5f823e601f3d908101601f19168201604052610f6291908101906129df565b905083610f70576002610f73565b60015b81606001906002811115610f8957610f89612aa6565b90816002811115610f9c57610f9c612aa6565b9052505f546040516356b309e760e01b81526001600160a01b03909116906356b309e790610fd09088908590600401612da6565b5f604051808303815f87803b158015610fe7575f80fd5b505af1158015610ff9573d5f803e3d5ffd5b505050505050505050565b7ff0c57e16840df040f15088dc2f81fe391c3923bec73e23a9662efc9c229c6a008054600160401b810460ff1615906001600160401b03165f811580156110485750825b90505f826001600160401b031660011480156110635750303b155b905081158015611071575080155b1561108f5760405163f92ee8a960e01b815260040160405180910390fd5b845467ffffffffffffffff1916600117855583156110b957845460ff60401b1916600160401b1785555b6110c35f8b611d5d565b506110ee7f65d7a28e3265b37a6474929f336521b332c1681b933f6cb9f3376673440d862a8b611d5d565b506111065f80516020612fd98339815191528b611d5d565b50600180546001600160a01b03199081166001600160a01b038c8116919091179092556002805482168b84161790556003805482168a84161790555f8054909116888316178155604051918c16917f36b1453565f45af7b509b59d5e2eac8f1948ea9e3e193db6663b4101afb6382c9190a283156111be57845460ff60401b19168555604051600181527fc7f505b2f371ae2175ee4913f4499e1f2633a7b5936321eed1cdaeb6115181d29060200160405180910390a15b50505050505050505050565b5f806111d583611dfb565b5f80546040516346c1c31160e11b81526004810187905292935090916001600160a01b0390911690638d83862290602401608060405180830381865afa158015611221573d5f803e3d5ffd5b505050506040513d601f19601f820116820180604052508101906112459190612e3d565b8051604051634aac84e560e01b815260048101919091529091505f906001600160a01b03841690634aac84e590602401606060405180830381865afa158015611290573d5f803e3d5ffd5b505050506040513d601f19601f820116820180604052508101906112b49190612ea6565b505090508060ff16600114806112cd57508060ff166003145b156112dd57506001949350505050565b505f949350505050565b5f806112f1611e8f565b5f9384526020525050604090206001015490565b61130e826112e7565b61131781611eb3565b6113218383611d5d565b50505050565b6001600160a01b03811633146113505760405163334bd91960e11b815260040160405180910390fd5b61135a8282611ec0565b505050565b611367611f36565b61137082611fdc565b61137a8282611ff3565b5050565b5f6113876120af565b505f80516020612ff983398151915290565b604051631d1a1dc360e01b815260040160405180910390fd5b5f805f9054906101000a90046001600160a01b03166001600160a01b031663eefb64ba6040518163ffffffff1660e01b8152600401602060405180830381865afa158015611402573d5f803e3d5ffd5b505050506040513d601f19601f820116820180604052508101906114269190612d1b565b905090565b600154604051627eeac760e11b81525f9182916001600160a01b039091169062fdd58e9061145f9030908790600401612edf565b602060405180830381865afa15801561147a573d5f803e3d5ffd5b505050506040513d601f19601f8201168201806040525081019061149e9190612d1b565b905080156114af5750600192915050565b505f92915050565b5f6114c181611eb3565b5f54604051631158a2d760e31b8152600481018490526001600160a01b0390911690638ac516b8906024015f604051808303815f87803b158015611503575f80fd5b505af1158015611515573d5f803e3d5ffd5b50506040517f810f1720fbc34c56d171f89315ad21708648fd17424c27b88fa208409845aa7792505f9150a15050565b5f8061154f611e8f565b5f948552602090815260408086206001600160a01b03959095168652939052505090205460ff1690565b6001545f906001600160a01b031633146115a65760405163145ed2fd60e11b815260040160405180910390fd5b5f6115b384860186612ef8565b80519091506001600160a01b03166115de576040516341773d6d60e11b815260040160405180910390fd5b600154604051627eeac760e11b81525f916001600160a01b03169062fdd58e9061160e9030908b90600401612edf565b602060405180830381865afa158015611629573d5f803e3d5ffd5b505050506040513d601f19601f8201168201806040525081019061164d9190612d1b565b9050805f0361166f57604051632357a08560e01b815260040160405180910390fd5b6116997f11a8cb5a02bd6c42679835e867ef2118ba78f088f8300511420c6603c21d9c7885611545565b6116b657604051631ffdebad60e21b815260040160405180910390fd5b600180548351604051637921219560e11b81523060048201526001600160a01b039182166024820152604481018b9052606481019390935260a06084840152600260a484015261060f60f31b60c4840152169063f242432a9060e4015f604051808303815f87803b158015611729575f80fd5b505af115801561173b573d5f803e3d5ffd5b505083516040518a93506001600160a01b03909116915030907f280cdbffa74e002595cb5c98dcc7b8d7b9df1b76726918883663d1ff690d8720905f90a4505195945050505050565b5f8054604051636f77926b60e01b815282916001600160a01b031690636f77926b906117b4908690600401612629565b5f60405180830381865afa1580156117ce573d5f803e3d5ffd5b505050506040513d5f823e601f3d908101601f191682016040526117f591908101906129df565b608081015190915015155f0361180d57505f92915050565b60018160600151600281111561182557611825612aa6565b036114af5750600192915050565b6003546001600160a01b0316331461185e5760405163570afef560e11b815260040160405180910390fd5b5f8054604051636f77926b60e01b81526001600160a01b0390911690636f77926b9061188e908790600401612629565b5f60405180830381865afa1580156118a8573d5f803e3d5ffd5b505050506040513d5f823e601f3d908101601f191682016040526118cf91908101906129df565b90508060800151156118f45760405163789190dd60e11b815260040160405180910390fd5b600160808201525f60608201819052602082018490526040808301849052905490516322946b1160e11b81526001600160a01b0390911690634528d622906119429087908590600401612da6565b5f604051808303815f87803b158015611959575f80fd5b505af115801561196b573d5f803e3d5ffd5b5050505050505050565b61197e826112e7565b61198781611eb3565b6113218383611ec0565b6001545f906001600160a01b031633146119be5760405163145ed2fd60e11b815260040160405180910390fd5b5f8054604051637210b3d560e01b815288928a9290916001600160a01b0390911690637210b3d5906119f69086908690600401612f24565b602060405180830381865afa158015611a11573d5f803e3d5ffd5b505050506040513d601f19601f82011682018060405250810190611a359190612f3b565b905080611acf575f80546040516309c5215f60e01b81526001600160a01b03909116906309c5215f90611a6e9087908790600401612f24565b602060405180830381865afa158015611a89573d5f803e3d5ffd5b505050506040513d601f19601f82011682018060405250810190611aad9190612f3b565b905080611acd576040516365f278c560e11b815260040160405180910390fd5b505b60405163632f7c8360e01b8152600481018a905289908990899089905f90309063632f7c8390602401602060405180830381865afa158015611b13573d5f803e3d5ffd5b505050506040513d601f19601f82011682018060405250810190611b379190612d1b565b9050803414611b59576040516323d256f560e11b815260040160405180910390fd5b5f805460405163f2be2c8560e01b8152600481018890526001600160a01b039091169063f2be2c859060240160a060405180830381865afa158015611ba0573d5f803e3d5ffd5b505050506040513d601f19601f82011682018060405250810190611bc49190612aba565b60408101519091505f611bd985870187612f56565b8051604051638545c6a560e01b81529192506001600160a01b03841691638545c6a591611c08916004016126ff565b5f604051808303815f87803b158015611c1f575f80fd5b505af1158015611c31573d5f803e3d5ffd5b505082516040515f9350611c489250602001612fbd565b60408051808303601f1901815282825280516020918201206080840183528084529083018c81528383018c81526001606086019081525f54945163462cb56960e01b8152600481018f905286516024820152925160448401529051606483015251151560848201529093506001600160a01b039091169063462cb5699060a4015f604051808303815f87803b158015611cdf575f80fd5b505af1158015611cf1573d5f803e3d5ffd5b50506040518492508b91507fc93f2370bc3cb1e7aba45230ebba753ccb6bfb4481d0333177da0936617db953905f90a3509b5050505050505050505050509695505050505050565b5f6001600160e01b03198216630271189760e51b14806107505750610750826120f8565b5f80611d67611e8f565b9050611d738484611545565b611df2575f848152602082815260408083206001600160a01b03871684529091529020805460ff19166001179055611da83390565b6001600160a01b0316836001600160a01b0316857f2f8788117e7eff1d82e926ec794901d17c78024a50270940304540a733656f0d60405160405180910390a46001915050610750565b5f915050610750565b5f8054604051630ffdff0d60e21b81526004810184905282916001600160a01b031690633ff7fc3490602401602060405180830381865afa158015611e42573d5f803e3d5ffd5b505050506040513d601f19601f82011682018060405250810190611e669190612bef565b90506001600160a01b03811661075057604051630c6ed91d60e01b815260040160405180910390fd5b7f02dd7bc7dec4dceedda775e58dd541e08a116c6c53815c0bd028192f7b62680090565b611ebd813361212c565b50565b5f80611eca611e8f565b9050611ed68484611545565b15611df2575f848152602082815260408083206001600160a01b0387168085529252808320805460ff1916905551339287917ff6391f5c32d9c69d2a47ea670b442974b53935d1edc7fd64eb21e047a839171b9190a46001915050610750565b306001600160a01b037f0000000000000000000000000000000000000000000000000000000000000000161480611fbc57507f00000000000000000000000000000000000000000000000000000000000000006001600160a01b0316611fb05f80516020612ff9833981519152546001600160a01b031690565b6001600160a01b031614155b15611fda5760405163703e46dd60e11b815260040160405180910390fd5b565b5f80516020612fd983398151915261137a81611eb3565b816001600160a01b03166352d1902d6040518163ffffffff1660e01b8152600401602060405180830381865afa92505050801561204d575060408051601f3d908101601f1916820190925261204a91810190612d1b565b60015b6120755781604051634c9c8ce360e01b815260040161206c9190612629565b60405180910390fd5b5f80516020612ff983398151915281146120a557604051632a87526960e21b81526004810182905260240161206c565b61135a8383612157565b306001600160a01b037f00000000000000000000000000000000000000000000000000000000000000001614611fda5760405163703e46dd60e11b815260040160405180910390fd5b5f6001600160e01b03198216637965db0b60e01b148061075057506301ffc9a760e01b6001600160e01b0319831614610750565b6121368282611545565b61137a57808260405163e2517d3f60e01b815260040161206c929190612edf565b612160826121ac565b6040516001600160a01b038316907fbc7cd75a20ee27fd9adebab32041f755214dbc6bffa90cc0225b39da2e5c2d3b905f90a28051156121a45761135a8282612206565b61137a612278565b806001600160a01b03163b5f036121d85780604051634c9c8ce360e01b815260040161206c9190612629565b5f80516020612ff983398151915280546001600160a01b0319166001600160a01b0392909216919091179055565b60605f80846001600160a01b0316846040516122229190612fbd565b5f60405180830381855af49150503d805f811461225a576040519150601f19603f3d011682016040523d82523d5f602084013e61225f565b606091505b509150915061226f858383612297565b95945050505050565b3415611fda5760405163b398979f60e01b815260040160405180910390fd5b6060826122ac576122a7826122ed565b6122e6565b81511580156122c357506001600160a01b0384163b155b156122e35783604051639996b31560e01b815260040161206c9190612629565b50805b9392505050565b8051156122fd5780518082602001fd5b604051630a12f52160e11b815260040160405180910390fd5b5f60208284031215612326575f80fd5b81356001600160e01b0319811681146122e6575f80fd5b6001600160a01b0381168114611ebd575f80fd5b5f8083601f840112612361575f80fd5b5081356001600160401b03811115612377575f80fd5b60208301915083602082850101111561238e575f80fd5b9250929050565b5f805f80606085870312156123a8575f80fd5b84356123b38161233d565b93506020850135925060408501356001600160401b038111156123d4575f80fd5b6123e087828801612351565b95989497509550505050565b8015158114611ebd575f80fd5b5f806040838503121561240a575f80fd5b82356124158161233d565b91506020830135612425816123ec565b809150509250929050565b5f805f805f60a08688031215612444575f80fd5b853561244f8161233d565b9450602086013561245f8161233d565b9350604086013561246f8161233d565b9250606086013561247f8161233d565b9150608086013561248f8161233d565b809150509295509295909350565b5f602082840312156124ad575f80fd5b5035919050565b5f80604083850312156124c5575f80fd5b8235915060208301356124258161233d565b634e487b7160e01b5f52604160045260245ffd5b60405160a081016001600160401b038111828210171561250d5761250d6124d7565b60405290565b604051602081016001600160401b038111828210171561250d5761250d6124d7565b604051601f8201601f191681016001600160401b038111828210171561255d5761255d6124d7565b604052919050565b5f6001600160401b0382111561257d5761257d6124d7565b50601f01601f191660200190565b5f82601f83011261259a575f80fd5b81356125ad6125a882612565565b612535565b8181528460208386010111156125c1575f80fd5b816020850160208301375f918101602001919091529392505050565b5f80604083850312156125ee575f80fd5b82356125f98161233d565b915060208301356001600160401b03811115612613575f80fd5b61261f8582860161258b565b9150509250929050565b6001600160a01b0391909116815260200190565b5f805f8060608587031215612650575f80fd5b8435935060208501356001600160401b0381111561266c575f80fd5b61267887828801612351565b909450925050604085013561268c8161233d565b939692955090935050565b5f602082840312156126a7575f80fd5b81356122e68161233d565b5f5b838110156126cc5781810151838201526020016126b4565b50505f910152565b5f81518084526126eb8160208601602086016126b2565b601f01601f19169290920160200192915050565b602081525f6122e660208301846126d4565b5f805f60608486031215612723575f80fd5b833561272e8161233d565b925060208401356001600160401b0380821115612749575f80fd5b6127558783880161258b565b9350604086013591508082111561276a575f80fd5b506127778682870161258b565b9150509250925092565b5f6001600160401b03821115612799576127996124d7565b5060051b60200190565b5f82601f8301126127b2575f80fd5b813560206127c26125a883612781565b82815260059290921b840181019181810190868411156127e0575f80fd5b8286015b848110156127fb57803583529183019183016127e4565b509695505050505050565b5f805f805f60a0868803121561281a575f80fd5b85356128258161233d565b945060208601356128358161233d565b935060408601356001600160401b0380821115612850575f80fd5b61285c89838a016127a3565b94506060880135915080821115612871575f80fd5b61287d89838a016127a3565b93506080880135915080821115612892575f80fd5b5061289f8882890161258b565b9150509295509295909350565b5f805f805f60a086880312156128c0575f80fd5b85356128cb8161233d565b945060208601356128db8161233d565b9350604086013592506060860135915060808601356001600160401b03811115612903575f80fd5b61289f8882890161258b565b5f805f805f8060a08789031215612924575f80fd5b863561292f8161233d565b9550602087013594506040870135935060608701356001600160401b03811115612957575f80fd5b61296389828a01612351565b90945092505060808701356129778161233d565b809150509295509295509295565b5f82601f830112612994575f80fd5b81516129a26125a882612565565b8181528460208386010111156129b6575f80fd5b6129c78260208301602087016126b2565b949350505050565b80516129da816123ec565b919050565b5f602082840312156129ef575f80fd5b81516001600160401b0380821115612a05575f80fd5b9083019060a08286031215612a18575f80fd5b612a206124eb565b8251612a2b8161233d565b8152602083015182811115612a3e575f80fd5b612a4a87828601612985565b602083015250604083015182811115612a61575f80fd5b612a6d87828601612985565b6040830152506060830151915060038210612a86575f80fd5b816060820152612a98608084016129cf565b608082015295945050505050565b634e487b7160e01b5f52602160045260245ffd5b5f60a08284031215612aca575f80fd5b612ad26124eb565b8251612add8161233d565b8152602083810151908201526040830151612af78161233d565b60408201526060830151612b0a8161233d565b60608201526080830151612b1d8161233d565b60808201529392505050565b5f6020808385031215612b3a575f80fd5b82356001600160401b0380821115612b50575f80fd5b8185019150828287031215612b63575f80fd5b612b6b612513565b823582811115612b79575f80fd5b80840193505086601f840112612b8d575f80fd5b82359150612b9d6125a883612781565b82815260059290921b83018401918481019088841115612bbb575f80fd5b938501935b83851015612be2578435612bd38161233d565b82529385019390850190612bc0565b8252509695505050505050565b5f60208284031215612bff575f80fd5b81516122e68161233d565b5f8351612c1b8184602088016126b2565b835190830190612c2f8183602088016126b2565b01949350505050565b805f5b6003811015611321578151845260209384019390910190600101612c3b565b6001600160a01b038b811682526101e060208084018290525f9290612c818584018f6126d4565b9250818d1660408601528483036060860152612c9d838d6126d4565b92508483036080860152612cb1838c6126d4565b9350818a1660a086015260c0850192508891505f5b6004811015612ce357825184529281019291810191600101612cc6565b5050505084610140830152612cfc610160830185612c38565b6001600160a01b0383166101c08301529b9a5050505050505050505050565b5f60208284031215612d2b575f80fd5b5051919050565b8181038181111561075057634e487b7160e01b5f52601160045260245ffd5b5f60408201848352602060408185015281855180845260608601915082870193505f5b81811015612d995784516001600160a01b031683529383019391830191600101612d74565b5090979650505050505050565b6001600160a01b0383811682526040602080840182905284519092169083015282015160a060608301525f90612ddf60e08401826126d4565b90506040840151603f19848303016080850152612dfc82826126d4565b915050606084015160038110612e2057634e487b7160e01b5f52602160045260245ffd5b60a084015260809390930151151560c09092019190915250919050565b5f60808284031215612e4d575f80fd5b604051608081018181106001600160401b0382111715612e6f57612e6f6124d7565b80604052508251815260208301516020820152604083015160408201526060830151612e9a816123ec565b60608201529392505050565b5f805f60608486031215612eb8575f80fd5b835160ff81168114612ec8575f80fd5b602085015160409095015190969495509392505050565b6001600160a01b03929092168252602082015260400190565b5f60208284031215612f08575f80fd5b612f10612513565b8235612f1b8161233d565b81529392505050565b9182526001600160a01b0316602082015260400190565b5f60208284031215612f4b575f80fd5b81516122e6816123ec565b5f60208284031215612f66575f80fd5b81356001600160401b0380821115612f7c575f80fd5b9083019060208286031215612f8f575f80fd5b612f97612513565b823582811115612fa5575f80fd5b612fb18782860161258b565b82525095945050505050565b5f8251612fce8184602087016126b2565b919091019291505056fe189ab7a9244df0848122154315af71fe140f3db0fe014031783b0946b8c9d2e3360894a13ba1a3210667c828492db98dca3e2076cc3735a920a3ca505d382bbca26469706673582212200f4e4e541dd30f7e6f85d299977fc48820dc98dcbbd662a0f509493f1fe4d39364736f6c63430008140033",
  "linkReferences": {},
  "deployedLinkReferences": {}
}