{
  "_format": "hh-sol-artifact-1",
  "contractName": "TpBadgeModelControllerStore",
  "sourceName": "src/contracts/badgeModelControllers/TpBadgeModelControllerStore.sol",
  "abi": [
    {
      "inputs": [],
      "stateMutability": "nonpayable",
      "type": "constructor"
    },
    {
      "inputs": [],
      "name": "AccessControlBadConfirmation",
      "type": "error"
    },
    {
      "inputs": [
        {
          "internalType": "address",
          "name": "account",
          "type": "address"
        },
        {
          "internalType": "bytes32",
          "name": "neededRole",
          "type": "bytes32"
        }
      ],
      "name": "AccessControlUnauthorizedAccount",
      "type": "error"
    },
    {
      "inputs": [],
      "name": "InvalidInitialization",
      "type": "error"
    },
    {
      "inputs": [],
      "name": "NotInitializing",
      "type": "error"
    },
    {
      "inputs": [
        {
          "internalType": "address",
          "name": "owner",
          "type": "address"
        }
      ],
      "name": "OwnableInvalidOwner",
      "type": "error"
    },
    {
      "inputs": [
        {
          "internalType": "address",
          "name": "account",
          "type": "address"
        }
      ],
      "name": "OwnableUnauthorizedAccount",
      "type": "error"
    },
    {
      "inputs": [],
      "name": "TheBadge__Store_InvalidContractAddress",
      "type": "error"
    },
    {
      "inputs": [],
      "name": "ThirdPartyModelController__createBadgeModel_badgeModelAlreadyCreated",
      "type": "error"
    },
    {
      "inputs": [],
      "name": "ThirdPartyModelController__store_ContractNameAlreadyExists",
      "type": "error"
    },
    {
      "inputs": [],
      "name": "ThirdPartyModelController__store_InvalidContractAddress",
      "type": "error"
    },
    {
      "inputs": [],
      "name": "ThirdPartyModelController__store_InvalidContractName",
      "type": "error"
    },
    {
      "inputs": [],
      "name": "ThirdPartyModelController__store_OperationNotPermitted",
      "type": "error"
    },
    {
      "anonymous": false,
      "inputs": [
        {
          "indexed": true,
          "internalType": "string",
          "name": "_contractName",
          "type": "string"
        },
        {
          "indexed": true,
          "internalType": "address",
          "name": "contractAddress",
          "type": "address"
        }
      ],
      "name": "ContractAdded",
      "type": "event"
    },
    {
      "anonymous": false,
      "inputs": [
        {
          "indexed": true,
          "internalType": "string",
          "name": "_contractName",
          "type": "string"
        },
        {
          "indexed": true,
          "internalType": "address",
          "name": "contractAddress",
          "type": "address"
        }
      ],
      "name": "ContractRemoved",
      "type": "event"
    },
    {
      "anonymous": false,
      "inputs": [
        {
          "indexed": true,
          "internalType": "string",
          "name": "_contractName",
          "type": "string"
        },
        {
          "indexed": true,
          "internalType": "address",
          "name": "contractAddress",
          "type": "address"
        }
      ],
      "name": "ContractUpdated",
      "type": "event"
    },
    {
      "anonymous": false,
      "inputs": [
        {
          "indexed": true,
          "internalType": "address",
          "name": "admin",
          "type": "address"
        },
        {
          "indexed": true,
          "internalType": "address",
          "name": "tcrFactory",
          "type": "address"
        }
      ],
      "name": "Initialize",
      "type": "event"
    },
    {
      "anonymous": false,
      "inputs": [
        {
          "indexed": false,
          "internalType": "uint64",
          "name": "version",
          "type": "uint64"
        }
      ],
      "name": "Initialized",
      "type": "event"
    },
    {
      "anonymous": false,
      "inputs": [
        {
          "indexed": true,
          "internalType": "uint256",
          "name": "badgeId",
          "type": "uint256"
        },
        {
          "indexed": false,
          "internalType": "string",
          "name": "evidence",
          "type": "string"
        }
      ],
      "name": "MintThirdPartyBadge",
      "type": "event"
    },
    {
      "anonymous": false,
      "inputs": [
        {
          "indexed": true,
          "internalType": "address",
          "name": "previousOwner",
          "type": "address"
        },
        {
          "indexed": true,
          "internalType": "address",
          "name": "newOwner",
          "type": "address"
        }
      ],
      "name": "OwnershipTransferred",
      "type": "event"
    },
    {
      "anonymous": false,
      "inputs": [],
      "name": "ProtocolSettingsUpdated",
      "type": "event"
    },
    {
      "anonymous": false,
      "inputs": [
        {
          "indexed": true,
          "internalType": "bytes32",
          "name": "role",
          "type": "bytes32"
        },
        {
          "indexed": true,
          "internalType": "bytes32",
          "name": "previousAdminRole",
          "type": "bytes32"
        },
        {
          "indexed": true,
          "internalType": "bytes32",
          "name": "newAdminRole",
          "type": "bytes32"
        }
      ],
      "name": "RoleAdminChanged",
      "type": "event"
    },
    {
      "anonymous": false,
      "inputs": [
        {
          "indexed": true,
          "internalType": "bytes32",
          "name": "role",
          "type": "bytes32"
        },
        {
          "indexed": true,
          "internalType": "address",
          "name": "account",
          "type": "address"
        },
        {
          "indexed": true,
          "internalType": "address",
          "name": "sender",
          "type": "address"
        }
      ],
      "name": "RoleGranted",
      "type": "event"
    },
    {
      "anonymous": false,
      "inputs": [
        {
          "indexed": true,
          "internalType": "bytes32",
          "name": "role",
          "type": "bytes32"
        },
        {
          "indexed": true,
          "internalType": "address",
          "name": "account",
          "type": "address"
        },
        {
          "indexed": true,
          "internalType": "address",
          "name": "sender",
          "type": "address"
        }
      ],
      "name": "RoleRevoked",
      "type": "event"
    },
    {
      "inputs": [],
      "name": "CLAIMER_ROLE",
      "outputs": [
        {
          "internalType": "bytes32",
          "name": "",
          "type": "bytes32"
        }
      ],
      "stateMutability": "view",
      "type": "function"
    },
    {
      "inputs": [],
      "name": "DEFAULT_ADMIN_ROLE",
      "outputs": [
        {
          "internalType": "bytes32",
          "name": "",
          "type": "bytes32"
        }
      ],
      "stateMutability": "view",
      "type": "function"
    },
    {
      "inputs": [],
      "name": "PAUSER_ROLE",
      "outputs": [
        {
          "internalType": "bytes32",
          "name": "",
          "type": "bytes32"
        }
      ],
      "stateMutability": "view",
      "type": "function"
    },
    {
      "inputs": [],
      "name": "UPGRADER_ROLE",
      "outputs": [
        {
          "internalType": "bytes32",
          "name": "",
          "type": "bytes32"
        }
      ],
      "stateMutability": "view",
      "type": "function"
    },
    {
      "inputs": [],
      "name": "URI_SETTER_ROLE",
      "outputs": [
        {
          "internalType": "bytes32",
          "name": "",
          "type": "bytes32"
        }
      ],
      "stateMutability": "view",
      "type": "function"
    },
    {
      "inputs": [],
      "name": "USER_MANAGER_ROLE",
      "outputs": [
        {
          "internalType": "bytes32",
          "name": "",
          "type": "bytes32"
        }
      ],
      "stateMutability": "view",
      "type": "function"
    },
    {
      "inputs": [],
      "name": "VERIFIER_ROLE",
      "outputs": [
        {
          "internalType": "bytes32",
          "name": "",
          "type": "bytes32"
        }
      ],
      "stateMutability": "view",
      "type": "function"
    },
    {
      "inputs": [
        {
          "internalType": "uint256",
          "name": "badgeModelId",
          "type": "uint256"
        },
        {
          "internalType": "address",
          "name": "administrator",
          "type": "address"
        }
      ],
      "name": "addAdministratorToBadgeModel",
      "outputs": [],
      "stateMutability": "nonpayable",
      "type": "function"
    },
    {
      "inputs": [
        {
          "internalType": "uint256",
          "name": "badgeModelId",
          "type": "uint256"
        },
        {
          "internalType": "address[]",
          "name": "administrators",
          "type": "address[]"
        }
      ],
      "name": "addAdministratorsToBadgeModel",
      "outputs": [],
      "stateMutability": "nonpayable",
      "type": "function"
    },
    {
      "inputs": [
        {
          "internalType": "uint256",
          "name": "badgeId",
          "type": "uint256"
        },
        {
          "components": [
            {
              "internalType": "bytes32",
              "name": "itemID",
              "type": "bytes32"
            },
            {
              "internalType": "uint256",
              "name": "badgeModelId",
              "type": "uint256"
            },
            {
              "internalType": "uint256",
              "name": "badgeId",
              "type": "uint256"
            },
            {
              "internalType": "bool",
              "name": "initialized",
              "type": "bool"
            }
          ],
          "internalType": "struct TpBadgeModelControllerStore.ThirdPartyBadge",
          "name": "badge",
          "type": "tuple"
        }
      ],
      "name": "addBadge",
      "outputs": [],
      "stateMutability": "nonpayable",
      "type": "function"
    },
    {
      "inputs": [
        {
          "internalType": "uint256",
          "name": "_badgeModelId",
          "type": "uint256"
        },
        {
          "components": [
            {
              "internalType": "address",
              "name": "owner",
              "type": "address"
            },
            {
              "internalType": "uint256",
              "name": "badgeModelId",
              "type": "uint256"
            },
            {
              "internalType": "address",
              "name": "tcrList",
              "type": "address"
            },
            {
              "internalType": "address",
              "name": "governor",
              "type": "address"
            },
            {
              "internalType": "address",
              "name": "admin",
              "type": "address"
            },
            {
              "internalType": "bool",
              "name": "initialized",
              "type": "bool"
            }
          ],
          "internalType": "struct TpBadgeModelControllerStore.ThirdPartyBadgeModel",
          "name": "badgeModel",
          "type": "tuple"
        }
      ],
      "name": "addBadgeModel",
      "outputs": [],
      "stateMutability": "nonpayable",
      "type": "function"
    },
    {
      "inputs": [
        {
          "internalType": "string",
          "name": "_contractName",
          "type": "string"
        },
        {
          "internalType": "address",
          "name": "_contractAddress",
          "type": "address"
        }
      ],
      "name": "addPermittedContract",
      "outputs": [],
      "stateMutability": "nonpayable",
      "type": "function"
    },
    {
      "inputs": [
        {
          "internalType": "address",
          "name": "",
          "type": "address"
        }
      ],
      "name": "allowedContractAddresses",
      "outputs": [
        {
          "internalType": "bool",
          "name": "",
          "type": "bool"
        }
      ],
      "stateMutability": "view",
      "type": "function"
    },
    {
      "inputs": [
        {
          "internalType": "string",
          "name": "",
          "type": "string"
        }
      ],
      "name": "allowedContractAddressesByContractName",
      "outputs": [
        {
          "internalType": "address",
          "name": "",
          "type": "address"
        }
      ],
      "stateMutability": "view",
      "type": "function"
    },
    {
      "inputs": [],
      "name": "arbitrator",
      "outputs": [
        {
          "internalType": "contract IArbitrator",
          "name": "",
          "type": "address"
        }
      ],
      "stateMutability": "view",
      "type": "function"
    },
    {
      "inputs": [],
      "name": "feeCollector",
      "outputs": [
        {
          "internalType": "address",
          "name": "",
          "type": "address"
        }
      ],
      "stateMutability": "view",
      "type": "function"
    },
    {
      "inputs": [
        {
          "internalType": "uint256",
          "name": "badgeId",
          "type": "uint256"
        }
      ],
      "name": "getBadge",
      "outputs": [
        {
          "components": [
            {
              "internalType": "bytes32",
              "name": "itemID",
              "type": "bytes32"
            },
            {
              "internalType": "uint256",
              "name": "badgeModelId",
              "type": "uint256"
            },
            {
              "internalType": "uint256",
              "name": "badgeId",
              "type": "uint256"
            },
            {
              "internalType": "bool",
              "name": "initialized",
              "type": "bool"
            }
          ],
          "internalType": "struct TpBadgeModelControllerStore.ThirdPartyBadge",
          "name": "",
          "type": "tuple"
        }
      ],
      "stateMutability": "view",
      "type": "function"
    },
    {
      "inputs": [
        {
          "internalType": "uint256",
          "name": "badgeModelId",
          "type": "uint256"
        }
      ],
      "name": "getBadgeModel",
      "outputs": [
        {
          "components": [
            {
              "internalType": "address",
              "name": "owner",
              "type": "address"
            },
            {
              "internalType": "uint256",
              "name": "badgeModelId",
              "type": "uint256"
            },
            {
              "internalType": "address",
              "name": "tcrList",
              "type": "address"
            },
            {
              "internalType": "address",
              "name": "governor",
              "type": "address"
            },
            {
              "internalType": "address",
              "name": "admin",
              "type": "address"
            },
            {
              "internalType": "bool",
              "name": "initialized",
              "type": "bool"
            }
          ],
          "internalType": "struct TpBadgeModelControllerStore.ThirdPartyBadgeModel",
          "name": "",
          "type": "tuple"
        }
      ],
      "stateMutability": "view",
      "type": "function"
    },
    {
      "inputs": [
        {
          "internalType": "uint256",
          "name": "badgeId",
          "type": "uint256"
        }
      ],
      "name": "getBadgeTcrList",
      "outputs": [
        {
          "internalType": "address",
          "name": "",
          "type": "address"
        }
      ],
      "stateMutability": "view",
      "type": "function"
    },
    {
      "inputs": [],
      "name": "getCurrentBadgeIdCounter",
      "outputs": [
        {
          "internalType": "uint256",
          "name": "",
          "type": "uint256"
        }
      ],
      "stateMutability": "view",
      "type": "function"
    },
    {
      "inputs": [],
      "name": "getCurrentBadgeModelsIdCounter",
      "outputs": [
        {
          "internalType": "uint256",
          "name": "",
          "type": "uint256"
        }
      ],
      "stateMutability": "view",
      "type": "function"
    },
    {
      "inputs": [
        {
          "internalType": "bytes32",
          "name": "role",
          "type": "bytes32"
        }
      ],
      "name": "getRoleAdmin",
      "outputs": [
        {
          "internalType": "bytes32",
          "name": "",
          "type": "bytes32"
        }
      ],
      "stateMutability": "view",
      "type": "function"
    },
    {
      "inputs": [
        {
          "internalType": "bytes32",
          "name": "role",
          "type": "bytes32"
        },
        {
          "internalType": "address",
          "name": "account",
          "type": "address"
        }
      ],
      "name": "grantRole",
      "outputs": [],
      "stateMutability": "nonpayable",
      "type": "function"
    },
    {
      "inputs": [
        {
          "internalType": "bytes32",
          "name": "role",
          "type": "bytes32"
        },
        {
          "internalType": "address",
          "name": "account",
          "type": "address"
        }
      ],
      "name": "hasRole",
      "outputs": [
        {
          "internalType": "bool",
          "name": "",
          "type": "bool"
        }
      ],
      "stateMutability": "view",
      "type": "function"
    },
    {
      "inputs": [
        {
          "internalType": "address",
          "name": "admin",
          "type": "address"
        },
        {
          "internalType": "address",
          "name": "_feeCollector",
          "type": "address"
        },
        {
          "internalType": "address",
          "name": "_arbitrator",
          "type": "address"
        },
        {
          "internalType": "address",
          "name": "_tcrFactory",
          "type": "address"
        }
      ],
      "name": "initialize",
      "outputs": [],
      "stateMutability": "nonpayable",
      "type": "function"
    },
    {
      "inputs": [
        {
          "internalType": "uint256",
          "name": "badgeModelId",
          "type": "uint256"
        },
        {
          "internalType": "address",
          "name": "userAddress",
          "type": "address"
        }
      ],
      "name": "isBadgeModelAdministrator",
      "outputs": [
        {
          "internalType": "bool",
          "name": "",
          "type": "bool"
        }
      ],
      "stateMutability": "view",
      "type": "function"
    },
    {
      "inputs": [
        {
          "internalType": "uint256",
          "name": "badgeModelId",
          "type": "uint256"
        },
        {
          "internalType": "address",
          "name": "userAddress",
          "type": "address"
        }
      ],
      "name": "isBadgeModelOwner",
      "outputs": [
        {
          "internalType": "bool",
          "name": "",
          "type": "bool"
        }
      ],
      "stateMutability": "view",
      "type": "function"
    },
    {
      "inputs": [],
      "name": "owner",
      "outputs": [
        {
          "internalType": "address",
          "name": "",
          "type": "address"
        }
      ],
      "stateMutability": "view",
      "type": "function"
    },
    {
      "inputs": [
        {
          "internalType": "uint256",
          "name": "badgeModelId",
          "type": "uint256"
        },
        {
          "internalType": "address",
          "name": "administrator",
          "type": "address"
        }
      ],
      "name": "removeAdministratorFromBadgeModel",
      "outputs": [],
      "stateMutability": "nonpayable",
      "type": "function"
    },
    {
      "inputs": [
        {
          "internalType": "string",
          "name": "_contractName",
          "type": "string"
        }
      ],
      "name": "removePermittedContract",
      "outputs": [],
      "stateMutability": "nonpayable",
      "type": "function"
    },
    {
      "inputs": [],
      "name": "renounceOwnership",
      "outputs": [],
      "stateMutability": "nonpayable",
      "type": "function"
    },
    {
      "inputs": [
        {
          "internalType": "bytes32",
          "name": "role",
          "type": "bytes32"
        },
        {
          "internalType": "address",
          "name": "callerConfirmation",
          "type": "address"
        }
      ],
      "name": "renounceRole",
      "outputs": [],
      "stateMutability": "nonpayable",
      "type": "function"
    },
    {
      "inputs": [
        {
          "internalType": "bytes32",
          "name": "role",
          "type": "bytes32"
        },
        {
          "internalType": "address",
          "name": "account",
          "type": "address"
        }
      ],
      "name": "revokeRole",
      "outputs": [],
      "stateMutability": "nonpayable",
      "type": "function"
    },
    {
      "inputs": [
        {
          "internalType": "bytes4",
          "name": "interfaceId",
          "type": "bytes4"
        }
      ],
      "name": "supportsInterface",
      "outputs": [
        {
          "internalType": "bool",
          "name": "",
          "type": "bool"
        }
      ],
      "stateMutability": "view",
      "type": "function"
    },
    {
      "inputs": [],
      "name": "tcrFactory",
      "outputs": [
        {
          "internalType": "address",
          "name": "",
          "type": "address"
        }
      ],
      "stateMutability": "view",
      "type": "function"
    },
    {
      "inputs": [
        {
          "internalType": "uint256",
          "name": "",
          "type": "uint256"
        },
        {
          "internalType": "address",
          "name": "",
          "type": "address"
        }
      ],
      "name": "thirdPartyAdministratorsByBadgeModel",
      "outputs": [
        {
          "internalType": "bool",
          "name": "",
          "type": "bool"
        }
      ],
      "stateMutability": "view",
      "type": "function"
    },
    {
      "inputs": [
        {
          "internalType": "uint256",
          "name": "",
          "type": "uint256"
        }
      ],
      "name": "thirdPartyBadgeModels",
      "outputs": [
        {
          "internalType": "address",
          "name": "owner",
          "type": "address"
        },
        {
          "internalType": "uint256",
          "name": "badgeModelId",
          "type": "uint256"
        },
        {
          "internalType": "address",
          "name": "tcrList",
          "type": "address"
        },
        {
          "internalType": "address",
          "name": "governor",
          "type": "address"
        },
        {
          "internalType": "address",
          "name": "admin",
          "type": "address"
        },
        {
          "internalType": "bool",
          "name": "initialized",
          "type": "bool"
        }
      ],
      "stateMutability": "view",
      "type": "function"
    },
    {
      "inputs": [
        {
          "internalType": "uint256",
          "name": "",
          "type": "uint256"
        }
      ],
      "name": "thirdPartyBadges",
      "outputs": [
        {
          "internalType": "bytes32",
          "name": "itemID",
          "type": "bytes32"
        },
        {
          "internalType": "uint256",
          "name": "badgeModelId",
          "type": "uint256"
        },
        {
          "internalType": "uint256",
          "name": "badgeId",
          "type": "uint256"
        },
        {
          "internalType": "bool",
          "name": "initialized",
          "type": "bool"
        }
      ],
      "stateMutability": "view",
      "type": "function"
    },
    {
      "inputs": [],
      "name": "thirdPartyModelController",
      "outputs": [
        {
          "internalType": "contract TpBadgeModelController",
          "name": "",
          "type": "address"
        }
      ],
      "stateMutability": "view",
      "type": "function"
    },
    {
      "inputs": [
        {
          "internalType": "address",
          "name": "newOwner",
          "type": "address"
        }
      ],
      "name": "transferOwnership",
      "outputs": [],
      "stateMutability": "nonpayable",
      "type": "function"
    },
    {
      "inputs": [
        {
          "internalType": "string",
          "name": "_contractName",
          "type": "string"
        },
        {
          "internalType": "address",
          "name": "_newContractAddress",
          "type": "address"
        }
      ],
      "name": "updatePermittedContract",
      "outputs": [],
      "stateMutability": "nonpayable",
      "type": "function"
    },
    {
      "inputs": [
        {
          "internalType": "uint256",
          "name": "_verifyUserProtocolFee",
          "type": "uint256"
        }
      ],
      "name": "updateVerifyUserProtocolFee",
      "outputs": [],
      "stateMutability": "nonpayable",
      "type": "function"
    },
    {
      "inputs": [],
      "name": "verifyUserProtocolFee",
      "outputs": [
        {
          "internalType": "uint256",
          "name": "",
          "type": "uint256"
        }
      ],
      "stateMutability": "view",
      "type": "function"
    },
    {
      "stateMutability": "payable",
      "type": "receive"
    }
  ],
  "bytecode": "0x608080604052346100b8577ff0c57e16840df040f15088dc2f81fe391c3923bec73e23a9662efc9c229c6a009081549060ff8260401c166100a957506001600160401b036002600160401b031982821601610064575b6040516119cc90816100bd8239f35b6001600160401b031990911681179091556040519081527fc7f505b2f371ae2175ee4913f4499e1f2633a7b5936321eed1cdaeb6115181d290602090a15f8080610055565b63f92ee8a960e01b8152600490fd5b5f80fdfe6080604081815260049182361015610021575b505050361561001f575f80fd5b005b5f92833560e01c91826301ffc9a71461142b5750816303eb4113146113dc57816306d7a28c1461137f57816308e5bf211461136057816309c5215f14610a535781630deee1761461127c578163248a9ca3146112455781632f2ff15d1461121b57816336568abe146111d55781633f30e37a146111ac5781633f57fd6e1461113b5781633ff7fc34146110885781634629ba9314610f21578163462cb56914610e645781635a36f22a14610d4a5781635e98ba6714610cf0578163687a055714610cb25781636cc6cde114610c89578163715018a614610c205781637210b3d514610ad55781637f34571014610a9a5781638966a82414610a535781638ac516b814610a165781638d838622146109825781638da5cb5b1461094d57816391d14854146108fa57816395ae690f146108955781639f780b1d1461086d578163a1fa355c1461078e578163a217fddf14610773578163a41e35c314610738578163b26fc20414610643578163c415b95c1461061a578163d547741f146105ce578163e63ab1e914610593578163e7343c8a14610576578163e7705db61461053b578163eefb64ba1461051c578163f2be2c8514610446578163f2fde38b14610416578163f72c0d8b146103db578163f8c8765e14610246575063fc5f18d3146102095780610012565b34610242578160031936011261024257602090517f11a8cb5a02bd6c42679835e867ef2118ba78f088f8300511420c6603c21d9c788152f35b5080fd5b9050346103d75760803660031901126103d7576102616115b2565b610269611586565b6044356001600160a01b038181169492918590036103d35761028961159c565b7ff0c57e16840df040f15088dc2f81fe391c3923bec73e23a9662efc9c229c6a009586549560ff878a1c1615966001600160401b038116801590816103cb575b60011490816103c1575b1590816103b8575b506103a85767ffffffffffffffff198116600117895561031b919088610389575b506103056118df565b61030d6118df565b6103168161186e565b61168e565b508260018060a01b0319941684600554161760055583600354161760035516908254161790558360065561034d578280f35b805460ff60401b1916905551600181527fc7f505b2f371ae2175ee4913f4499e1f2633a7b5936321eed1cdaeb6115181d290602090a15f808280f35b68ffffffffffffffffff1916680100000000000000011789555f6102fc565b895163f92ee8a960e01b81528790fd5b9050155f6102db565b303b1591506102d3565b8991506102c9565b8680fd5b8280fd5b505034610242578160031936011261024257602090517f189ab7a9244df0848122154315af71fe140f3db0fe014031783b0946b8c9d2e38152f35b8334610443576020366003190112610443576104406104336115b2565b61043b611836565b61186e565b80f35b80fd5b9050346103d75760203660031901126103d757818360c09460a0835161046b816114ad565b8281528260208201528285820152826060820152826080820152015282358152600960205220825161049c816114ad565b60018060a01b03828180945416958684528260018301549660208601978852816002850154169083870191825282600386015416946060880195865201549760ff60a06080890198858c168a52019960a01c16151589528351998a525160208a0152511690870152511660608501525116608083015251151560a0820152f35b5050346102425781600319360112610242576020906006549051908152f35b505034610242578160031936011261024257602090517f0ce23c3e399818cfee81a7ab0880f714e53d7672b08df0fa62f2843416e1ea098152f35b505034610242578160031936011261024257602091549051908152f35b505034610242578160031936011261024257602090517f65d7a28e3265b37a6474929f336521b332c1681b933f6cb9f3376673440d862a8152f35b919050346103d757806003193601126103d757610616913561061160016105f3611586565b938387525f8051602061197783398151915260205286200154611660565b6117b6565b5080f35b50503461024257816003193601126102425760055490516001600160a01b039091168152602090f35b83833461024257610653366115c8565b9161065c611609565b6001600160a01b0392831692831561072857815160208161067d818761155d565b60088152030190205416801561071857906106ee92918552600760205280852060ff199081815416905581516020816106b6818761155d565b600881520301902080546001600160a01b0319168617905584865260076020528186208054909116600117905551918291829061155d565b0390207ff611fec7babefd259c57ea5b6006acff8140ab17bb816c65ba0aa7e36c09caa88380a380f35b815163db4572dd60e01b81528690fd5b8151633cefac3360e01b81528690fd5b505034610242578160031936011261024257602090517fcbaaf41b181bb6e269c490e876a7c97711b57e21dd8e5528423cf57579726b358152f35b50503461024257816003193601126102425751908152602090f35b9050346103d75761079e366115c8565b9290916107a9611609565b6001600160a01b0393841693841561085e5782516020816107ca818861155d565b600881520301902054166108505750908161082692516020816107ed818661155d565b600881520301902080546001600160a01b031916851790558385526007602052808520805460ff1916600117905551918291829061155d565b0390207f8b4ef7d4e5bc8f098e6f637ac0acf4aee47b3f027efea6307264b06b4bc9d2988380a380f35b9051635ab1deb960e01b8152fd5b509051632f257cc960e01b8152fd5b9050346103d757826003193601126103d7575490516001600160a01b03909116815260209150f35b9050346103d757816003193601126103d7576108af611586565b90338452600760205260ff8385205416156108ec57358352600b60209081528284206001600160a01b039092168452528120805460ff1916905580f35b82516365f278c560e11b8152fd5b9050346103d757816003193601126103d7578160209360ff9261091b611586565b903582525f8051602061197783398151915286528282206001600160a01b039091168252855220549151911615158152f35b5050346102425781600319360112610242575f805160206119578339815191525490516001600160a01b039091168152602090f35b9050346103d75760203660031901126103d757828291608094606084516109a88161147e565b82815282602082015282868201520152358152600a60205220908051906109ce8261147e565b825492838352600181015460208401908152606060ff600360028501549486880195865201541694019315158452825194855251602085015251908301525115156060820152f35b919050346103d75760203660031901126103d757338352600760205260ff818420541615610a4657503560065580f35b516365f278c560e11b8152fd5b9050346103d757816003193601126103d7578160209360ff92610a74611586565b90358252600b86528282206001600160a01b039091168252855220549151911615158152f35b505034610242578160031936011261024257602090517f7804d923f43a17d325d77e781528e0793b2edd9890ab45fc64efd7b4b427744c8152f35b9050346103d757816003193601126103d757610aef611586565b9082519063f2be2c8560e01b825280359082015260c081602481305afa908115610c13578491610b73575b506020935051908251848101906bffffffffffffffffffffffff19809460601b16825260148152610b4a816114c8565b519020918351908582019260601b16825260148152610b68816114c8565b519020149051908152f35b905060c0813d8211610c0b575b81610b8d60c093836114e3565b81010312610c075760a0835191610ba3836114ad565b610bac81611920565b835260208101516020840152610bc3858201611920565b85840152610bd360608201611920565b6060840152610be460808201611920565b608084015201518015158103610c03576020945060a08201525f610b1a565b8480fd5b8380fd5b3d9150610b80565b50505051903d90823e3d90fd5b8334610443578060031936011261044357610c39611836565b5f8051602061195783398151915280546001600160a01b0319811690915581906001600160a01b03167f8be0079c531659141344cd1fd0a4f28419497f9722a3daafe3b4186f6b6457e08280a380f35b50503461024257816003193601126102425760035490516001600160a01b039091168152602090f35b5050346102425760203660031901126102425760209160ff9082906001600160a01b03610cdd6115b2565b1681526007855220541690519015158152f35b9050346103d757816003193601126103d757610d0a611586565b90338452600760205260ff8385205416156108ec57358352600b60209081528284206001600160a01b039092168452528120805460ff1916600117905580f35b8383346102425780600319360112610242576024359183356001600160401b038085116103d757366023860112156103d75784860135908111610e5157600581811b95855196602093610d9f8583018a6114e3565b8852602484890191830101913683116103d357602401905b828210610e2e57505050835b8651811015610e2a5760018060a01b038382841b89010151163386526007845260ff878720541615610e1a57848652600b84528686209086528352858520805460ff19166001179055610e1590611934565b610dc3565b86516365f278c560e11b81528990fd5b8480f35b81356001600160a01b0381168103610e4d578152908401908401610db7565b8780fd5b634e487b7160e01b835260418652602483fd5b8383346102425760a0366003190112610242576080366023190112610242578051610e8e8161147e565b6024358152602081016044358152828201906064358252608435938415158503610f1d5760608401948552338652600760205260ff818720541615610f0e576003949596358752600a602052862092518355516001830155516002820155019051151560ff80198354169116179055610f08600154611934565b60015580f35b516365f278c560e11b81528690fd5b8580fd5b9050346103d75760e03660031901126103d75780359060c0366023190112610c0757825190610f4f826114ad565b610f57611586565b825260208201916044358352610f6b61159c565b8186019081526001600160a01b0393608435918583168303611084576060840192835260a435978689168903611080576080850198895260c43597881515890361107c5760a08601988952338b52600760205260ff828c2054161561106c57600160ff88848e858152600960205220015460a01c1615151461105c579087918b5260096020528a209451169160018060a01b031992838654161785555160018501558560028501915116828254161790558460038401925116908254161790550192511682549160ff60a01b9051151560a01b169160018060a81b031916171790556110578154611934565b815580f35b815163614d157f60e11b81528790fd5b81516365f278c560e11b81528790fd5b8a80fd5b8980fd5b8880fd5b919050346103d7576020928360031936011261044357819083358152600a855281812082516110b68161147e565b81548152606060ff6003600185015494858b8601526002810154888601520154161515910152815260098552209160a060ff8351926110f4846114ad565b600180841b03908187541685526001870154888601528160028801541696878787015282600382015416606087015201549081166080850152821c16151591015251908152f35b919050346103d75760203660031901126103d7578060ff9160c0948435815260096020522060018060a01b03908181541694600182015493836002840154169184600385015416930154948151978852602088015286015260608501528116608084015260a01c16151560a0820152f35b50503461024257816003193601126102425760025490516001600160a01b039091168152602090f35b8383346102425780600319360112610242576111ef611586565b90336001600160a01b0383160361120c57506106169192356117b6565b5163334bd91960e11b81528390fd5b919050346103d757806003193601126103d757610616913561124060016105f3611586565b61172c565b9050346103d75760203660031901126103d757816020936001923581525f8051602061197783398151915285522001549051908152f35b919050346103d75760203660031901126103d75781356001600160401b038111610c07576112ad9036908401611504565b906112b6611609565b80516112c2818461155d565b600881528190036020019020546001600160a01b03169283156113525750908161132892516020816112f4818661155d565b600881520301902080546001600160a01b03191690558385526007602052808520805460ff1916905551918291829061155d565b0390207f7ad6d7c73213a93d033801d72c729d90fb72104796b75ad799858b26f2b9872f8380a380f35b905163db4572dd60e01b8152fd5b5050346102425781600319360112610242576020906001549051908152f35b828434610443576020366003190112610443578235906001600160401b03821161044357506020926113b391369101611504565b6113bf8251809261155d565b60088152819003830190205490516001600160a01b039091168152f35b9050346103d75760203660031901126103d7576080928291358152600a602052209081549160018101549160ff6003600284015493015416928151948552602085015283015215156060820152f35b8491346103d75760203660031901126103d7573563ffffffff60e01b81168091036103d75760209250637965db0b60e01b811490811561146d575b5015158152f35b6301ffc9a760e01b14905083611466565b608081019081106001600160401b0382111761149957604052565b634e487b7160e01b5f52604160045260245ffd5b60c081019081106001600160401b0382111761149957604052565b604081019081106001600160401b0382111761149957604052565b90601f801991011681019081106001600160401b0382111761149957604052565b81601f82011215611559578035906001600160401b0382116114995760405192611538601f8401601f1916602001856114e3565b8284526020838301011161155957815f926020809301838601378301015290565b5f80fd5b908151915f5b838110611573575050015f815290565b8060208092840101518185015201611563565b602435906001600160a01b038216820361155957565b606435906001600160a01b038216820361155957565b600435906001600160a01b038216820361155957565b604060031982011261155957600435906001600160401b038211611559576115f291600401611504565b906024356001600160a01b03811681036115595790565b335f9081527fb7db2dd08fcb62d0c9e08c51941cae53c267786a0b75803fb7960902fc8ef97d602052604081205460ff16156116425750565b6044906040519063e2517d3f60e01b82523360048301526024820152fd5b805f525f8051602061197783398151915260205260405f20335f5260205260ff60405f205416156116425750565b6001600160a01b03165f8181527fb7db2dd08fcb62d0c9e08c51941cae53c267786a0b75803fb7960902fc8ef97d60205260408120549091905f805160206119778339815191529060ff16611727578280526020526040822081835260205260408220600160ff1982541617905533917f2f8788117e7eff1d82e926ec794901d17c78024a50270940304540a733656f0d8180a4600190565b505090565b905f918083525f8051602061197783398151915280602052604084209260018060a01b03169283855260205260ff604085205416155f146117b0578184526020526040832082845260205260408320600160ff198254161790557f2f8788117e7eff1d82e926ec794901d17c78024a50270940304540a733656f0d339380a4600190565b50505090565b905f918083525f8051602061197783398151915280602052604084209260018060a01b03169283855260205260ff6040852054165f146117b057818452602052604083208284526020526040832060ff1981541690557ff6391f5c32d9c69d2a47ea670b442974b53935d1edc7fd64eb21e047a839171b339380a4600190565b5f80516020611957833981519152546001600160a01b0316330361185657565b60405163118cdaa760e01b8152336004820152602490fd5b6001600160a01b039081169081156118c7575f8051602061195783398151915280546001600160a01b031981168417909155167f8be0079c531659141344cd1fd0a4f28419497f9722a3daafe3b4186f6b6457e05f80a3565b604051631e4fbdf760e01b81525f6004820152602490fd5b60ff7ff0c57e16840df040f15088dc2f81fe391c3923bec73e23a9662efc9c229c6a005460401c161561190e57565b604051631afcd79f60e31b8152600490fd5b51906001600160a01b038216820361155957565b5f1981146119425760010190565b634e487b7160e01b5f52601160045260245ffdfe9016d09d72d40fdae2fd8ceac6b6234c7706214fd39c1cd1e609a0528c19930002dd7bc7dec4dceedda775e58dd541e08a116c6c53815c0bd028192f7b626800a26469706673582212202969a235ed6635584bcdde3312e9d4a18be366ad295aa27dd0ef2c35b902647364736f6c63430008140033",
  "linkReferences": {},
  "deployedLinkReferences": {}
}